{
  "_format": "hh-sol-artifact-1",
  "contractName": "Buy",
  "sourceName": "contracts/mojito/sothebys/onchainBuy.sol",
  "abi": [
    {
      "inputs": [
        {
          "internalType": "address",
          "name": "_platformAddress",
          "type": "address"
        },
        {
          "internalType": "uint16",
          "name": "_platformFeePercentage",
          "type": "uint16"
        },
        {
          "internalType": "uint64",
          "name": "_max1155Quantity",
          "type": "uint64"
        },
        {
          "internalType": "contract IPriceFeed",
          "name": "_priceFeedAddress",
          "type": "address"
        },
        {
          "internalType": "contract IRoyaltyEngine",
          "name": "_royaltycontract",
          "type": "address"
        }
      ],
      "stateMutability": "nonpayable",
      "type": "constructor"
    },
    {
      "anonymous": false,
      "inputs": [
        {
          "indexed": true,
          "internalType": "address",
          "name": "account",
          "type": "address"
        },
        {
          "indexed": true,
          "internalType": "address",
          "name": "sender",
          "type": "address"
        }
      ],
      "name": "AdminApproved",
      "type": "event"
    },
    {
      "anonymous": false,
      "inputs": [
        {
          "indexed": true,
          "internalType": "address",
          "name": "account",
          "type": "address"
        },
        {
          "indexed": true,
          "internalType": "address",
          "name": "sender",
          "type": "address"
        }
      ],
      "name": "AdminRevoked",
      "type": "event"
    },
    {
      "anonymous": false,
      "inputs": [
        {
          "indexed": true,
          "internalType": "address",
          "name": "tokenContract",
          "type": "address"
        },
        {
          "components": [
            {
              "internalType": "string",
              "name": "saleId",
              "type": "string"
            },
            {
              "internalType": "address",
              "name": "tokenOwner",
              "type": "address"
            },
            {
              "internalType": "uint256",
              "name": "tokenId",
              "type": "uint256"
            },
            {
              "internalType": "uint64",
              "name": "tokenQuantity",
              "type": "uint64"
            },
            {
              "internalType": "address",
              "name": "buyer",
              "type": "address"
            },
            {
              "internalType": "uint64",
              "name": "quantity",
              "type": "uint64"
            },
            {
              "internalType": "address",
              "name": "paymentToken",
              "type": "address"
            },
            {
              "internalType": "uint256",
              "name": "paymentAmount",
              "type": "uint256"
            }
          ],
          "indexed": false,
          "internalType": "struct Buy.BuyList",
          "name": "buyingDetails",
          "type": "tuple"
        },
        {
          "indexed": false,
          "internalType": "uint256[]",
          "name": "MintedtokenId",
          "type": "uint256[]"
        },
        {
          "components": [
            {
              "internalType": "address payable",
              "name": "paymentSettlementAddress",
              "type": "address"
            },
            {
              "internalType": "address payable",
              "name": "taxSettlementAddress",
              "type": "address"
            },
            {
              "internalType": "address payable",
              "name": "platformSettlementAddress",
              "type": "address"
            },
            {
              "internalType": "uint16",
              "name": "platformFeePercentage",
              "type": "uint16"
            },
            {
              "internalType": "address payable",
              "name": "commissionAddress",
              "type": "address"
            },
            {
              "internalType": "uint16",
              "name": "commissionFeePercentage",
              "type": "uint16"
            }
          ],
          "indexed": false,
          "internalType": "struct Buy.settlementList",
          "name": "paymentSettlement",
          "type": "tuple"
        },
        {
          "indexed": false,
          "internalType": "uint256",
          "name": "tax",
          "type": "uint256"
        },
        {
          "indexed": false,
          "internalType": "uint256",
          "name": "paymentAmount",
          "type": "uint256"
        },
        {
          "indexed": false,
          "internalType": "uint256",
          "name": "excessAmount",
          "type": "uint256"
        }
      ],
      "name": "BuyExecuted",
      "type": "event"
    },
    {
      "anonymous": false,
      "inputs": [
        {
          "indexed": true,
          "internalType": "address",
          "name": "previousOwner",
          "type": "address"
        },
        {
          "indexed": true,
          "internalType": "address",
          "name": "newOwner",
          "type": "address"
        }
      ],
      "name": "OwnershipTransferred",
      "type": "event"
    },
    {
      "anonymous": false,
      "inputs": [
        {
          "indexed": false,
          "internalType": "address",
          "name": "tokenContract",
          "type": "address"
        },
        {
          "indexed": false,
          "internalType": "uint256",
          "name": "tokenId",
          "type": "uint256"
        },
        {
          "indexed": false,
          "internalType": "address",
          "name": "recipient",
          "type": "address"
        },
        {
          "indexed": false,
          "internalType": "uint256",
          "name": "amount",
          "type": "uint256"
        }
      ],
      "name": "RoyaltyPayout",
      "type": "event"
    },
    {
      "anonymous": false,
      "inputs": [
        {
          "indexed": false,
          "internalType": "string",
          "name": "saleId",
          "type": "string"
        }
      ],
      "name": "saleClosed",
      "type": "event"
    },
    {
      "anonymous": false,
      "inputs": [
        {
          "components": [
            {
              "internalType": "address",
              "name": "nftContractAddress",
              "type": "address"
            },
            {
              "internalType": "uint64",
              "name": "nftStartTokenId",
              "type": "uint64"
            },
            {
              "internalType": "uint64",
              "name": "nftEndTokenId",
              "type": "uint64"
            },
            {
              "internalType": "uint256",
              "name": "minimumFiatPrice",
              "type": "uint256"
            },
            {
              "internalType": "uint256[]",
              "name": "minimumCryptoPrice",
              "type": "uint256[]"
            },
            {
              "internalType": "address[]",
              "name": "paymentCurrency",
              "type": "address[]"
            },
            {
              "internalType": "uint64",
              "name": "maxCap",
              "type": "uint64"
            },
            {
              "internalType": "enum Buy.TransactionStatus",
              "name": "transactionStatus",
              "type": "uint8"
            },
            {
              "internalType": "enum Buy.PaymentStatus",
              "name": "paymentStatus",
              "type": "uint8"
            }
          ],
          "indexed": false,
          "internalType": "struct Buy.PriceList",
          "name": "saleList",
          "type": "tuple"
        },
        {
          "components": [
            {
              "internalType": "address payable",
              "name": "paymentSettlementAddress",
              "type": "address"
            },
            {
              "internalType": "address payable",
              "name": "taxSettlementAddress",
              "type": "address"
            },
            {
              "internalType": "address payable",
              "name": "platformSettlementAddress",
              "type": "address"
            },
            {
              "internalType": "uint16",
              "name": "platformFeePercentage",
              "type": "uint16"
            },
            {
              "internalType": "address payable",
              "name": "commissionAddress",
              "type": "address"
            },
            {
              "internalType": "uint16",
              "name": "commissionFeePercentage",
              "type": "uint16"
            }
          ],
          "indexed": false,
          "internalType": "struct Buy.settlementList",
          "name": "paymentSettlement",
          "type": "tuple"
        }
      ],
      "name": "saleCreated",
      "type": "event"
    },
    {
      "stateMutability": "payable",
      "type": "fallback"
    },
    {
      "inputs": [
        {
          "internalType": "address",
          "name": "admin",
          "type": "address"
        }
      ],
      "name": "approveAdmin",
      "outputs": [],
      "stateMutability": "nonpayable",
      "type": "function"
    },
    {
      "inputs": [
        {
          "components": [
            {
              "internalType": "string",
              "name": "saleId",
              "type": "string"
            },
            {
              "internalType": "address",
              "name": "tokenOwner",
              "type": "address"
            },
            {
              "internalType": "uint256",
              "name": "tokenId",
              "type": "uint256"
            },
            {
              "internalType": "uint64",
              "name": "tokenQuantity",
              "type": "uint64"
            },
            {
              "internalType": "address",
              "name": "buyer",
              "type": "address"
            },
            {
              "internalType": "uint64",
              "name": "quantity",
              "type": "uint64"
            },
            {
              "internalType": "address",
              "name": "paymentToken",
              "type": "address"
            },
            {
              "internalType": "uint256",
              "name": "paymentAmount",
              "type": "uint256"
            }
          ],
          "internalType": "struct Buy.BuyList",
          "name": "list",
          "type": "tuple"
        },
        {
          "internalType": "uint256",
          "name": "tax",
          "type": "uint256"
        }
      ],
      "name": "buy",
      "outputs": [
        {
          "internalType": "uint256[]",
          "name": "nftTokenId",
          "type": "uint256[]"
        }
      ],
      "stateMutability": "payable",
      "type": "function"
    },
    {
      "inputs": [
        {
          "internalType": "string",
          "name": "saleId",
          "type": "string"
        }
      ],
      "name": "cancelSale",
      "outputs": [],
      "stateMutability": "nonpayable",
      "type": "function"
    },
    {
      "inputs": [
        {
          "components": [
            {
              "internalType": "address",
              "name": "nftContractAddress",
              "type": "address"
            },
            {
              "internalType": "uint64",
              "name": "nftStartTokenId",
              "type": "uint64"
            },
            {
              "internalType": "uint64",
              "name": "nftEndTokenId",
              "type": "uint64"
            },
            {
              "internalType": "uint256",
              "name": "minimumFiatPrice",
              "type": "uint256"
            },
            {
              "internalType": "uint256[]",
              "name": "minimumCryptoPrice",
              "type": "uint256[]"
            },
            {
              "internalType": "address[]",
              "name": "paymentCurrency",
              "type": "address[]"
            },
            {
              "internalType": "uint64",
              "name": "maxCap",
              "type": "uint64"
            },
            {
              "internalType": "enum Buy.TransactionStatus",
              "name": "transactionStatus",
              "type": "uint8"
            },
            {
              "internalType": "enum Buy.PaymentStatus",
              "name": "paymentStatus",
              "type": "uint8"
            }
          ],
          "internalType": "struct Buy.PriceList",
          "name": "list",
          "type": "tuple"
        },
        {
          "internalType": "string",
          "name": "saleId",
          "type": "string"
        },
        {
          "components": [
            {
              "internalType": "address payable",
              "name": "paymentSettlementAddress",
              "type": "address"
            },
            {
              "internalType": "address payable",
              "name": "taxSettlementAddress",
              "type": "address"
            },
            {
              "internalType": "address payable",
              "name": "platformSettlementAddress",
              "type": "address"
            },
            {
              "internalType": "uint16",
              "name": "platformFeePercentage",
              "type": "uint16"
            },
            {
              "internalType": "address payable",
              "name": "commissionAddress",
              "type": "address"
            },
            {
              "internalType": "uint16",
              "name": "commissionFeePercentage",
              "type": "uint16"
            }
          ],
          "internalType": "struct Buy.settlementList",
          "name": "paymentSettlement",
          "type": "tuple"
        }
      ],
      "name": "createSale",
      "outputs": [],
      "stateMutability": "nonpayable",
      "type": "function"
    },
    {
      "inputs": [],
      "name": "getAdmins",
      "outputs": [
        {
          "internalType": "address[]",
          "name": "admins",
          "type": "address[]"
        }
      ],
      "stateMutability": "view",
      "type": "function"
    },
    {
      "inputs": [],
      "name": "getContractData",
      "outputs": [
        {
          "internalType": "address",
          "name": "_platformAddress",
          "type": "address"
        },
        {
          "internalType": "uint16",
          "name": "_platformFeePercentage",
          "type": "uint16"
        },
        {
          "internalType": "contract IPriceFeed",
          "name": "_priceFeedAddress",
          "type": "address"
        },
        {
          "internalType": "contract IRoyaltyEngine",
          "name": "_royaltySupport",
          "type": "address"
        },
        {
          "internalType": "uint64",
          "name": "_max1155Quantity",
          "type": "uint64"
        }
      ],
      "stateMutability": "view",
      "type": "function"
    },
    {
      "inputs": [
        {
          "internalType": "string",
          "name": "saleId",
          "type": "string"
        }
      ],
      "name": "getListingPrice",
      "outputs": [
        {
          "internalType": "uint256[]",
          "name": "minimumCryptoPrice",
          "type": "uint256[]"
        },
        {
          "internalType": "address[]",
          "name": "paymentCurrency",
          "type": "address[]"
        }
      ],
      "stateMutability": "view",
      "type": "function"
    },
    {
      "inputs": [
        {
          "internalType": "address",
          "name": "collectionAddress",
          "type": "address"
        },
        {
          "internalType": "uint256",
          "name": "tokenId",
          "type": "uint256"
        }
      ],
      "name": "getRoyaltyInfo",
      "outputs": [
        {
          "internalType": "address payable[]",
          "name": "recipients",
          "type": "address[]"
        },
        {
          "internalType": "uint256[]",
          "name": "bps",
          "type": "uint256[]"
        }
      ],
      "stateMutability": "view",
      "type": "function"
    },
    {
      "inputs": [
        {
          "internalType": "address",
          "name": "admin",
          "type": "address"
        }
      ],
      "name": "isAdmin",
      "outputs": [
        {
          "internalType": "bool",
          "name": "",
          "type": "bool"
        }
      ],
      "stateMutability": "view",
      "type": "function"
    },
    {
      "inputs": [
        {
          "internalType": "string",
          "name": "",
          "type": "string"
        }
      ],
      "name": "listings",
      "outputs": [
        {
          "internalType": "address",
          "name": "nftContractAddress",
          "type": "address"
        },
        {
          "internalType": "uint64",
          "name": "nftStartTokenId",
          "type": "uint64"
        },
        {
          "internalType": "uint64",
          "name": "nftEndTokenId",
          "type": "uint64"
        },
        {
          "internalType": "uint256",
          "name": "minimumFiatPrice",
          "type": "uint256"
        },
        {
          "internalType": "uint64",
          "name": "maxCap",
          "type": "uint64"
        },
        {
          "internalType": "enum Buy.TransactionStatus",
          "name": "transactionStatus",
          "type": "uint8"
        },
        {
          "internalType": "enum Buy.PaymentStatus",
          "name": "paymentStatus",
          "type": "uint8"
        }
      ],
      "stateMutability": "view",
      "type": "function"
    },
    {
      "inputs": [],
      "name": "owner",
      "outputs": [
        {
          "internalType": "address",
          "name": "",
          "type": "address"
        }
      ],
      "stateMutability": "view",
      "type": "function"
    },
    {
      "inputs": [],
      "name": "renounceOwnership",
      "outputs": [],
      "stateMutability": "nonpayable",
      "type": "function"
    },
    {
      "inputs": [
        {
          "internalType": "address",
          "name": "admin",
          "type": "address"
        }
      ],
      "name": "revokeAdmin",
      "outputs": [],
      "stateMutability": "nonpayable",
      "type": "function"
    },
    {
      "inputs": [
        {
          "internalType": "string",
          "name": "",
          "type": "string"
        }
      ],
      "name": "settlementData",
      "outputs": [
        {
          "internalType": "address payable",
          "name": "paymentSettlementAddress",
          "type": "address"
        },
        {
          "internalType": "address payable",
          "name": "taxSettlementAddress",
          "type": "address"
        },
        {
          "internalType": "address payable",
          "name": "platformSettlementAddress",
          "type": "address"
        },
        {
          "internalType": "uint16",
          "name": "platformFeePercentage",
          "type": "uint16"
        },
        {
          "internalType": "address payable",
          "name": "commissionAddress",
          "type": "address"
        },
        {
          "internalType": "uint16",
          "name": "commissionFeePercentage",
          "type": "uint16"
        }
      ],
      "stateMutability": "view",
      "type": "function"
    },
    {
      "inputs": [
        {
          "internalType": "bytes4",
          "name": "interfaceId",
          "type": "bytes4"
        }
      ],
      "name": "supportsInterface",
      "outputs": [
        {
          "internalType": "bool",
          "name": "",
          "type": "bool"
        }
      ],
      "stateMutability": "view",
      "type": "function"
    },
    {
      "inputs": [
        {
          "internalType": "address",
          "name": "newOwner",
          "type": "address"
        }
      ],
      "name": "transferOwnership",
      "outputs": [],
      "stateMutability": "nonpayable",
      "type": "function"
    },
    {
      "inputs": [
        {
          "internalType": "string",
          "name": "saleId",
          "type": "string"
        },
        {
          "internalType": "enum Buy.PaymentStatus",
          "name": "paymentStatus",
          "type": "uint8"
        },
        {
          "internalType": "uint256",
          "name": "minimumFiatPrice",
          "type": "uint256"
        },
        {
          "internalType": "uint256[]",
          "name": "minimumCryptoPrice",
          "type": "uint256[]"
        },
        {
          "internalType": "address[]",
          "name": "paymentCurrency",
          "type": "address[]"
        }
      ],
      "name": "updatePayment",
      "outputs": [],
      "stateMutability": "nonpayable",
      "type": "function"
    },
    {
      "inputs": [
        {
          "internalType": "address",
          "name": "_platformAddress",
          "type": "address"
        }
      ],
      "name": "updatePlatformAddress",
      "outputs": [],
      "stateMutability": "nonpayable",
      "type": "function"
    },
    {
      "inputs": [
        {
          "internalType": "uint16",
          "name": "_platformFeePercentage",
          "type": "uint16"
        }
      ],
      "name": "updatePlatformFeePercentage",
      "outputs": [],
      "stateMutability": "nonpayable",
      "type": "function"
    },
    {
      "inputs": [
        {
          "internalType": "address",
          "name": "pricefeed",
          "type": "address"
        }
      ],
      "name": "updatePricefeedContract",
      "outputs": [],
      "stateMutability": "nonpayable",
      "type": "function"
    },
    {
      "inputs": [
        {
          "internalType": "address",
          "name": "royaltyContract",
          "type": "address"
        }
      ],
      "name": "updateRoyaltyContract",
      "outputs": [],
      "stateMutability": "nonpayable",
      "type": "function"
    },
    {
      "inputs": [
        {
          "internalType": "uint64",
          "name": "_max1155Quantity",
          "type": "uint64"
        }
      ],
      "name": "updatemax1155Quantity",
      "outputs": [],
      "stateMutability": "nonpayable",
      "type": "function"
    },
    {
      "inputs": [
        {
          "internalType": "string",
          "name": "saleId",
          "type": "string"
        },
        {
          "internalType": "address payable",
          "name": "_paymentSettlementAddress",
          "type": "address"
        }
      ],
      "name": "updatepaymentSettlementAddress",
      "outputs": [],
      "stateMutability": "nonpayable",
      "type": "function"
    },
    {
      "inputs": [
        {
          "internalType": "string",
          "name": "saleId",
          "type": "string"
        },
        {
          "internalType": "address payable",
          "name": "_taxSettlementAddress",
          "type": "address"
        }
      ],
      "name": "updatetaxSettlementAddress",
      "outputs": [],
      "stateMutability": "nonpayable",
      "type": "function"
    },
    {
      "inputs": [],
      "name": "withdraw",
      "outputs": [],
      "stateMutability": "nonpayable",
      "type": "function"
    },
    {
      "stateMutability": "payable",
      "type": "receive"
    }
  ],
  "bytecode": "0x60806040523480156200001157600080fd5b5060405162005bb238038062005bb28339810160408190526200003491620001ca565b6001600081815581546001600160a01b031916339081179092556040518291907f8be0079c531659141344cd1fd0a4f28419497f9722a3daafe3b4186f6b6457e0908290a3506001600160a01b038516620000d65760405162461bcd60e51b815260206004820152601860248201527f496e76616c696420506c6174666f726d2041646472657373000000000000000060448201526064015b60405180910390fd5b6127108461ffff16106200013b5760405162461bcd60e51b815260206004820152602560248201527f706c6174666f726d4665652073686f756c64206265206c657373207468616e20604482015264031303030360dc1b6064820152608401620000cd565b6008805461ffff909516600160a01b9081026001600160b01b03199096166001600160a01b0397881617959095179055600a8054600980549488166001600160a01b0319958616179055919095166001600160401b03909316909302166001600160e01b0319909216919091171790556200025b565b6001600160a01b0381168114620001c757600080fd5b50565b600080600080600060a08688031215620001e357600080fd5b8551620001f081620001b1565b602087015190955061ffff811681146200020957600080fd5b60408701519094506001600160401b03811681146200022757600080fd5b60608701519093506200023a81620001b1565b60808701519092506200024d81620001b1565b809150509295509295909350565b615947806200026b6000396000f3fe60806040526004361061015b5760003560e01c806377dec6c3116100c8578063acecf9de11610084578063df354bdd11610061578063df354bdd14610576578063dfa12f79146105a4578063e8ac841f146105c4578063f2fde38b146105e457005b8063acecf9de14610516578063bf9afc1814610536578063cbc9a9411461055657005b806377dec6c3146102f357806387d15fcc1461038c5780638da5cb5b146104495780638f9f193f14610471578063946e7de614610491578063a68b91ab146104b157005b80633ccfd60b116101175780633ccfd60b1461023b5780634b9804b2146102505780636d73e66914610270578063705e3f6c14610290578063715018a6146102b0578063773fe986146102c557005b806301ffc9a71461016457806319e4367c1461019957806324d7806c146101b95780632977f78a146101d95780632d345670146101f957806331ae450b1461021957005b3661016257005b005b34801561017057600080fd5b5061018461017f3660046143ca565b610604565b60405190151581526020015b60405180910390f35b3480156101a557600080fd5b506101626101b4366004614419565b61063b565b3480156101c557600080fd5b506101846101d4366004614456565b6106f1565b3480156101e557600080fd5b506101626101f4366004614551565b61072a565b34801561020557600080fd5b50610162610214366004614456565b610867565b34801561022557600080fd5b5061022e6108e7565b60405161019091906145c9565b34801561024757600080fd5b50610162610995565b34801561025c57600080fd5b5061016261026b366004614456565b610aaa565b34801561027c57600080fd5b5061016261028b366004614456565b610b80565b34801561029c57600080fd5b506101626102ab366004614456565b610bfa565b3480156102bc57600080fd5b50610162610cd2565b3480156102d157600080fd5b506102e56102e03660046145dc565b610d46565b604051610190929190614638565b3480156102ff57600080fd5b5061037961030e366004614551565b80518082016020908101805160048252928201919093012091528054600182015460028301546005909301546001600160a01b038316936001600160401b03600160a01b9094048416939283169290919081169060ff600160401b8204811691600160481b90041687565b60405161019097969594939291906146d9565b34801561039857600080fd5b506104026103a7366004614551565b80518082016020908101805160058252928201919093012091528054600182015460028301546003909301546001600160a01b0392831693918316928281169261ffff600160a01b9182900481169392831692919091041686565b604080516001600160a01b03978816815295871660208701529386169385019390935261ffff918216606085015290931660808301529190911660a082015260c001610190565b34801561045557600080fd5b506001546040516001600160a01b039091168152602001610190565b34801561047d57600080fd5b5061016261048c366004614456565b610dce565b34801561049d57600080fd5b506101626104ac366004614781565b610e90565b3480156104bd57600080fd5b50600854600954600a54604080516001600160a01b038086168252600160a01b9586900461ffff166020830152938416918101919091529181166060830152919091046001600160401b0316608082015260a001610190565b61052961052436600461480e565b6116cc565b60405161019091906148ee565b34801561054257600080fd5b50610162610551366004614901565b611b6c565b34801561056257600080fd5b50610162610571366004614967565b611c67565b34801561058257600080fd5b50610596610591366004614984565b611d3a565b6040516101909291906149c5565b3480156105b057600080fd5b506101626105bf366004614a46565b611e2a565b3480156105d057600080fd5b506101626105df366004614901565b6121a6565b3480156105f057600080fd5b506101626105ff366004614456565b61229e565b60006001600160e01b03198216632a9f3abf60e11b148061063557506301ffc9a760e01b6001600160e01b03198316145b92915050565b3361064e6001546001600160a01b031690565b6001600160a01b031614806106695750610669600233612389565b61068e5760405162461bcd60e51b815260040161068590614afd565b60405180910390fd5b6001600160401b038116158015906106bb5750600a546001600160401b03828116600160a01b9092041614155b6106c457600080fd5b600a80546001600160401b03909216600160a01b0267ffffffffffffffff60a01b19909216919091179055565b6000816001600160a01b031661070f6001546001600160a01b031690565b6001600160a01b031614806106355750610635600283612389565b3361073d6001546001600160a01b031690565b6001600160a01b031614806107585750610758600233612389565b6107745760405162461bcd60e51b815260040161068590614afd565b6007816040516107849190614b65565b9081526040519081900360200190205460ff166107b35760405162461bcd60e51b815260040161068590614b81565b6004816040516107c39190614b65565b90815260405190819003602001902080546001600160e01b031916815560018101805467ffffffffffffffff1916905560006002820181905561080960038301826142fd565b6108176004830160006142fd565b50600501805469ffffffffffffffffffff191690556040517f09fced985ff97f7dac8f320b7d834e3862ae0274970ffe3dc0d84de5a45389959061085c908390614c0a565b60405180910390a150565b6001546001600160a01b031633146108915760405162461bcd60e51b815260040161068590614c1d565b61089c600282612389565b156108e45760405133906001600160a01b038316907f7c0c3c84c67c85fcac635147348bfe374c24a1a93d0366d1cfe9d8853cbf89d590600090a36108e26002826123ae565b505b50565b60606108f360026123c3565b6001600160401b0381111561090a5761090a614473565b604051908082528060200260200182016040528015610933578160200160208202803683370190505b50905060005b61094360026123c3565b811015610991576109556002826123cd565b82828151811061096757610967614c52565b6001600160a01b03909216602092830291909101909101528061098981614c7e565b915050610939565b5090565b336109a86001546001600160a01b031690565b6001600160a01b031614806109c357506109c3600233612389565b6109df5760405162461bcd60e51b815260040161068590614afd565b604080516000808252602082019283905291339182914791610a0091614b65565b60006040518083038185875af1925050503d8060008114610a3d576040519150601f19603f3d011682016040523d82523d6000602084013e610a42565b606091505b505080925050816108e25760405162461bcd60e51b815260206004820152602c60248201527f776974686472617720746f2077697468647261772066756e64732e20506c656160448201526b39b2903a393c9030b3b0b4b760a11b6064820152608401610685565b33610abd6001546001600160a01b031690565b6001600160a01b03161480610ad85750610ad8600233612389565b610af45760405162461bcd60e51b815260040161068590614afd565b6001600160a01b038116610b5e5760405162461bcd60e51b815260206004820152602b60248201527f726f79616c747920636f6e74726163742073686f756c64206e6f74206265206160448201526a646472657373207a65726f60a81b6064820152608401610685565b600a80546001600160a01b0319166001600160a01b0392909216919091179055565b6001546001600160a01b03163314610baa5760405162461bcd60e51b815260040161068590614c1d565b610bb5600282612389565b6108e45760405133906001600160a01b038316907f7e1a1a08d52e4ba0e21554733d66165fd5151f99460116223d9e3a608eec5cb190600090a36108e26002826123d9565b33610c0d6001546001600160a01b031690565b6001600160a01b03161480610c285750610c28600233612389565b610c445760405162461bcd60e51b815260040161068590614afd565b6001600160a01b038116610cb05760405162461bcd60e51b815260206004820152602d60248201527f70726963656665656420636f6e74726163742073686f756c64206e6f7420626560448201526c2061646472657373207a65726f60981b6064820152608401610685565b600980546001600160a01b0319166001600160a01b0392909216919091179055565b6001546001600160a01b03163314610cfc5760405162461bcd60e51b815260040161068590614c1d565b6001546040516000916001600160a01b0316907f8be0079c531659141344cd1fd0a4f28419497f9722a3daafe3b4186f6b6457e0908390a3600180546001600160a01b0319169055565b600a54604051636e44a72f60e01b81526001600160a01b038481166004830152602482018490526060928392911690636e44a72f90604401600060405180830381865afa158015610d9b573d6000803e3d6000fd5b505050506040513d6000823e601f3d908101601f19168201604052610dc39190810190614d25565b909590945092505050565b33610de16001546001600160a01b031690565b6001600160a01b03161480610dfc5750610dfc600233612389565b610e185760405162461bcd60e51b815260040161068590614afd565b6001600160a01b038116610e6e5760405162461bcd60e51b815260206004820152601860248201527f496e76616c696420506c6174666f726d204164647265737300000000000000006044820152606401610685565b600880546001600160a01b0319166001600160a01b0392909216919091179055565b33610ea36001546001600160a01b031690565b6001600160a01b03161480610ebe5750610ebe600233612389565b610eda5760405162461bcd60e51b815260040161068590614afd565b60078383604051610eec929190614de9565b9081526040519081900360200190205460ff1615610f1c5760405162461bcd60e51b815260040161068590614b81565b6000610f2e6080830160608401614967565b61ffff1615610f7257610f4760c0830160a08401614967565b610f576080840160608501614967565b610f619190614df9565b610f6b9082614df9565b9050610fa7565b610f8260c0830160a08401614967565b600854610f9a9190600160a01b900461ffff16614df9565b610fa49082614df9565b90505b6127108161ffff16106110185760405162461bcd60e51b815260206004820152603360248201527f54686520746f74616c2066656520626173697320706f696e742073686f756c646044820152720206265206c657373207468616e20313030303606c1b6064820152608401610685565b600061102a6040870160208801614419565b6001600160401b03161180156110585750600061104d6060870160408801614419565b6001600160401b0316115b156111295761106d6040860160208701614419565b6001600160401b03166110866060870160408801614419565b6001600160401b031610156111295760405162461bcd60e51b815260206004820152605f60248201527f54686973206973206e6f7420612076616c6964204e4654207374617274206f7260448201527f20656e6420746f6b656e2049442e20506c65617365207665726966792074686160648201527f74207468652072616e67652070726f766964656420697320636f727265637400608482015260a401610685565b6111366080860186614e14565b905061114560a0870187614e14565b9050146111645760405162461bcd60e51b815260040161068590614e5d565b600061117861012087016101008801614eba565b600181111561118957611189614698565b036111b25760008560600135116111b25760405162461bcd60e51b815260040161068590614ed7565b60006111c5610100870160e08801614eba565b60018111156111d6576111d6614698565b03611300576111eb60e0860160c08701614419565b6001600160401b031660000361124d5760405162461bcd60e51b815260206004820152602160248201527f73686f756c642070726f76696465206d617843617020666f72206d696e74696e6044820152606760f81b6064820152608401610685565b61125d6040860160208701614419565b6001600160401b0316158015611289575061127e6060860160408701614419565b6001600160401b0316155b6112fb5760405162461bcd60e51b815260206004820152603d60248201527f546865204e46547374617274746f6b656e696420616e64204e4654656e64746f60448201527f6b656e69642073686f756c64206265203020666f72206d696e74696e670000006064820152608401610685565b611376565b61131060e0860160c08701614419565b6001600160401b0316156113765760405162461bcd60e51b815260206004820152602760248201527f6d61784361702073686f756c64206265203020666f72207072656d696e74656460448201526620746f6b656e7360c81b6064820152608401610685565b6113836020860186614456565b6040516301ffc9a760e01b81526001600160a01b0391909116906301ffc9a7906113b8906380ac58cd60e01b90600401614f28565b602060405180830381865afa1580156113d5573d6000803e3d6000fd5b505050506040513d601f19601f820116820180604052508101906113f99190614f3d565b80611482575061140c6020860186614456565b6040516301ffc9a760e01b81526001600160a01b0391909116906301ffc9a79061144190636cdb3d1360e11b90600401614f28565b602060405180830381865afa15801561145e573d6000803e3d6000fd5b505050506040513d601f19601f820116820180604052508101906114829190614f3d565b6114f45760405162461bcd60e51b815260206004820152603e60248201527f73686f756c642070726f76696465206f6e6c7920737570706f7274656420636f60448201527f6e747261637420696e746572666163657320455243203732312f3131353500006064820152608401610685565b60006115036020840184614456565b6001600160a01b0316036115745760405162461bcd60e51b815260206004820152603260248201527f73686f756c642070726f766964652076616c69642077616c6c65742061646472604482015271195cdcc8199bdc881cd95d1d1b195b595b9d60721b6064820152608401610685565b60006115866040840160208501614456565b6001600160a01b0316036115fb5760405162461bcd60e51b815260206004820152603660248201527f73686f756c642070726f766964652076616c69642077616c6c65742061646472604482015275195cdcc8199bdc881d185e081cd95d1d1b195b595b9d60521b6064820152608401610685565b846004858560405161160e929190614de9565b908152604051908190036020019020611627828261510a565b905050816005858560405161163d929190614de9565b9081526040519081900360200190206116568282615243565b90505060016007858560405161166d929190614de9565b908152604051908190036020018120805492151560ff19909316929092179091557f77b1feb5f536f42a68ea401336443fc80e153fe218157820bbd38c74839815c6906116bd908790859061542e565b60405180910390a15050505050565b60606002600054036117205760405162461bcd60e51b815260206004820152601f60248201527f5265656e7472616e637947756172643a207265656e7472616e742063616c6c006044820152606401610685565b60026000908155835160405160059161173891614b65565b90815260408051918290036020908101832060c08401835280546001600160a01b039081168552600182015481169285019290925260028101548083168585015261ffff600160a01b918290048116606087015260039092015492831660808601529091041660a0830152855190519192506000916004916117b991614b65565b9081526040805191829003602090810183206101208401835280546001600160a01b03811685526001600160401b03600160a01b90910481168584015260018201541684840152600281015460608501526003810180548451818502810185019095528085529193608086019390929083018282801561185857602002820191906000526020600020905b815481526020019060010190808311611844575b50505050508152602001600482018054806020026020016040519081016040528092919081815260200182805480156118ba57602002820191906000526020600020905b81546001600160a01b0316815260019091019060200180831161189c575b505050918352505060058201546001600160401b0381166020830152604090910190600160401b900460ff1660018111156118f7576118f7614698565b600181111561190857611908614698565b81526020016005820160099054906101000a900460ff16600181111561193057611930614698565b600181111561194157611941614698565b90525085516040519192506007916119599190614b65565b9081526040519081900360200190205460ff166119885760405162461bcd60e51b815260040161068590615557565b611991336106f1565b806119a8575060808501516001600160a01b031633145b611a2b5760405162461bcd60e51b815260206004820152604860248201527f4f6e6c7920746865206275796572206f722061646d696e206f72206f776e657260448201527f206f66207468697320636f6e74726163742063616e2063616c6c207468697320606482015267333ab731ba34b7b760c11b608482015260a401610685565b600080611a768760000151886040015189606001516001600160401b03168a60a001516001600160401b03168b60c001518b8d60e00151611a6c9190615581565b8d608001516123ee565b91509150611ab887600001518860200151838a608001518b604001518c606001516001600160401b03168d60a001516001600160401b03168a60e00151612df7565b94508515611ad457611ad43385602001518960c0015189613857565b611b038760000151838960e00151611aec9190615594565b848a60c001518b604001518a878a60e0015161395b565b806001600160a01b03167f92347fd034deb76ed77249b761aec05c6302665f18922499f245dde63bcb0d1f8887878a87888e60e00151611b439190615594565b604051611b55969594939291906155a7565b60405180910390a250505050600160005592915050565b33611b7f6001546001600160a01b031690565b6001600160a01b03161480611b9a5750611b9a600233612389565b611bb65760405162461bcd60e51b815260040161068590614afd565b60078383604051611bc8929190614de9565b9081526040519081900360200190205460ff16611bf75760405162461bcd60e51b815260040161068590615557565b6001600160a01b038116611c1d5760405162461bcd60e51b8152600401610685906156dd565b8060058484604051611c30929190614de9565b90815260405190819003602001902060010180546001600160a01b03929092166001600160a01b0319909216919091179055505050565b33611c7a6001546001600160a01b031690565b6001600160a01b03161480611c955750611c95600233612389565b611cb15760405162461bcd60e51b815260040161068590614afd565b6127108161ffff1610611d185760405162461bcd60e51b815260206004820152602960248201527f706c6174666f726d4665652073686f756c64206e6f74206265206d6f72652074604482015268068616e2031303030360bc1b6064820152608401610685565b6008805461ffff909216600160a01b0261ffff60a01b19909216919091179055565b60608060048484604051611d4f929190614de9565b9081526040805191829003602090810183206003018054808302850183019093528284529190830182828015611da457602002820191906000526020600020905b815481526020019060010190808311611d90575b5050505050915060048484604051611dbd929190614de9565b9081526040805191829003602090810183206004018054808302850183019093528284529190830182828015611e1c57602002820191906000526020600020905b81546001600160a01b03168152600190910190602001808311611dfe575b505050505090509250929050565b33611e3d6001546001600160a01b031690565b6001600160a01b03161480611e585750611e58600233612389565b611e745760405162461bcd60e51b815260040161068590614afd565b60078888604051611e86929190614de9565b9081526040519081900360200190205460ff16611eb55760405162461bcd60e51b815260040161068590615557565b8560048989604051611ec8929190614de9565b908152604051908190036020019020600501805469ff0000000000000000001916600160481b836001811115611f0057611f00614698565b02179055506001866001811115611f1957611f19614698565b036120be578415611f925760405162461bcd60e51b815260206004820152603d60248201527f6d696e696d756d20666961742070726963652073686f756c64206265207a657260448201527f6f20696620746865207061796d656e74206973206f662063727970746f0000006064820152608401610685565b808314611fb15760405162461bcd60e51b815260040161068590614e5d565b60005b818110156120b8576000858583818110611fd057611fd0614c52565b90506020020135116120405760405162461bcd60e51b815260206004820152603360248201527f6d696e696d756d20707269636520696e2063727970746f2073686f756c642062604482015272652067726561746572207468616e207a65726f60681b6064820152608401610685565b848460048b8b604051612054929190614de9565b9081526020016040518091039020600301919061207292919061431b565b50828260048b8b604051612087929190614de9565b908152602001604051809103902060040191906120a5929190614362565b50806120b081614c7e565b915050611fb4565b5061219c565b60008660018111156120d2576120d2614698565b0361219c57801580156120e3575082155b6121555760405162461bcd60e51b815260206004820152603f60248201527f63727970746f207061796d656e742064657461696c732073686f756c6420626560448201527f206e756c6c20696620746865207061796d656e74206973206f662066696174006064820152608401610685565b600085116121755760405162461bcd60e51b815260040161068590614ed7565b8460048989604051612188929190614de9565b908152604051908190036020019020600201555b5050505050505050565b336121b96001546001600160a01b031690565b6001600160a01b031614806121d457506121d4600233612389565b6121f05760405162461bcd60e51b815260040161068590614afd565b60078383604051612202929190614de9565b9081526040519081900360200190205460ff166122315760405162461bcd60e51b815260040161068590615557565b6001600160a01b0381166122575760405162461bcd60e51b8152600401610685906156dd565b806005848460405161226a929190614de9565b90815260405190819003602001902080546001600160a01b03929092166001600160a01b0319909216919091179055505050565b6001546001600160a01b031633146122c85760405162461bcd60e51b815260040161068590614c1d565b6001600160a01b03811661232d5760405162461bcd60e51b815260206004820152602660248201527f4f776e61626c653a206e6577206f776e657220697320746865207a65726f206160448201526564647265737360d01b6064820152608401610685565b6001546040516001600160a01b038084169216907f8be0079c531659141344cd1fd0a4f28419497f9722a3daafe3b4186f6b6457e090600090a3600180546001600160a01b0319166001600160a01b0392909216919091179055565b6001600160a01b038116600090815260018301602052604081205415155b9392505050565b60006123a7836001600160a01b038416613b61565b6000610635825490565b60006123a78383613c5b565b60006123a7836001600160a01b038416613c85565b600080600060048a6040516124039190614b65565b9081526040805191829003602090810183206101208401835280546001600160a01b03811685526001600160401b03600160a01b9091048116858401526001820154168484015260028101546060850152600381018054845181850281018501909552808552919360808601939092908301828280156124a257602002820191906000526020600020905b81548152602001906001019080831161248e575b505050505081526020016004820180548060200260200160405190810160405280929190818152602001828054801561250457602002820191906000526020600020905b81546001600160a01b031681526001909101906020018083116124e6575b505050918352505060058201546001600160401b0381166020830152604090910190600160401b900460ff16600181111561254157612541614698565b600181111561255257612552614698565b81526020016005820160099054906101000a900460ff16600181111561257a5761257a614698565b600181111561258b5761258b614698565b90525060208101519091506001600160401b03161580156125b95750600081604001516001600160401b0316115b156125f05780604001516001600160401b03168911156125eb5760405162461bcd60e51b81526004016106859061573a565b6126bf565b600081602001516001600160401b0316118015612618575060408101516001600160401b0316155b1561264a5780602001516001600160401b03168910156125eb5760405162461bcd60e51b81526004016106859061573a565b600081602001516001600160401b03161180156126745750600081604001516001600160401b0316115b156126bf5780602001516001600160401b031689101580156126a3575080604001516001600160401b03168911155b6126bf5760405162461bcd60e51b81526004016106859061573a565b80519150600081610100015160018111156126dc576126dc614698565b03612763576009546060820151604051630748060b60e31b815260048101919091526001600160a01b03888116602483015290911690633a40305890604401602060405180830381865afa158015612738573d6000803e3d6000fd5b505050506040513d601f19601f8201168201806040525081019061275c91906157af565b9250612800565b6001816101000151600181111561277c5761277c614698565b036128005760005b8160a00151518110156127fe57866001600160a01b03168260a0015182815181106127b1576127b1614c52565b60200260200101516001600160a01b0316036127ec57816080015181815181106127dd576127dd614c52565b602002602001015193506127fe565b806127f681614c7e565b915050612784565b505b826000036128695760405162461bcd60e51b815260206004820152603060248201527f506c656173652070726f766964652076616c696420737570706f72746564204560448201526f524332302f455448206164647265737360801b6064820152608401610685565b60008160e00151600181111561288157612881614698565b03612adb57600a54600160a01b90046001600160401b03168711156129445760405162461bcd60e51b815260206004820152606760248201527f546865206d6178696d756d207175616e7469747920616c6c6f77656420746f2060448201527f7075726368617365206174206f6e652074696d652073686f756c64206e6f742060648201527f6265206d6f7265207468616e20646566696e656420696e206d6178313135355160848201526675616e7469747960c81b60a482015260c401610685565b6040516301ffc9a760e01b81526001600160a01b038316906301ffc9a790612977906380ac58cd60e01b90600401614f28565b602060405180830381865afa158015612994573d6000803e3d6000fd5b505050506040513d601f19601f820116820180604052508101906129b89190614f3d565b156129ce576129c78884614f8c565b9250612b05565b6040516301ffc9a760e01b81526001600160a01b038316906301ffc9a790612a0190636cdb3d1360e11b90600401614f28565b602060405180830381865afa158015612a1e573d6000803e3d6000fd5b505050506040513d601f19601f82011682018060405250810190612a429190614f3d565b15612ad65760405163bd85b03960e01b8152600481018a90526001600160a01b0383169063bd85b03990602401602060405180830381865afa158015612a8c573d6000803e3d6000fd5b505050506040513d601f19601f82011682018060405250810190612ab091906157af565b600003612acc5786612ac28985614f8c565b6129c79190614f8c565b6129c78784614f8c565b612b05565b60018160e001516001811115612af357612af3614698565b03612b0557612b028784614f8c565b92505b6001600160a01b038616612bca578434148015612b225750828510155b612bc55760405162461bcd60e51b815260206004820152606260248201527f496e73756666696369656e742066756e6473206f7220696e76616c696420616d60448201527f6f756e742e20596f75206e65656420746f207061737320612076616c6964206160648201527f6d6f756e7420746f20636f6d706c6574652074686973207472616e736163746960848201526137b760f11b60a482015260c401610685565b612dea565b6040516370a0823160e01b81526001600160a01b0385811660048301528691908816906370a0823190602401602060405180830381865afa158015612c13573d6000803e3d6000fd5b505050506040513d601f19601f82011682018060405250810190612c3791906157af565b10158015612c455750828510155b612cd35760405162461bcd60e51b815260206004820152605360248201527f496e73756666696369656e742066756e64732e20596f752073686f756c64206860448201527f6176652073756666696369656e742062616c616e636520746f20636f6d706c656064820152723a32903a3434b9903a3930b739b0b1ba34b7b760691b608482015260a401610685565b604051636eb1769f60e11b81526001600160a01b03858116600483015230602483015286919088169063dd62ed3e90604401602060405180830381865afa158015612d22573d6000803e3d6000fd5b505050506040513d601f19601f82011682018060405250810190612d4691906157af565b1015612dea5760405162461bcd60e51b815260206004820152606160248201527f496e73756666696369656e7420617070726f76616c2066726f6d20616e20455260448201527f43323020546f6b656e2e20506c656173652070726f7669646520617070726f7660648201527f616c20746f207468697320636f6e747261637420616e642074727920616761696084820152603760f91b60a482015260c401610685565b5097509795505050505050565b6040516301ffc9a760e01b81526060906001600160a01b038816906301ffc9a790612e2d906380ac58cd60e01b90600401614f28565b602060405180830381865afa158015612e4a573d6000803e3d6000fd5b505050506040513d601f19601f82011682018060405250810190612e6e9190614f3d565b156131d8576001826001811115612e8757612e87614698565b03612fdd576040516331a9108f60e11b8152600481018690526001600160a01b03808a169190891690636352211e90602401602060405180830381865afa158015612ed6573d6000803e3d6000fd5b505050506040513d601f19601f82011682018060405250810190612efa91906157c8565b6001600160a01b031614612f6e5760405162461bcd60e51b815260206004820152603560248201527f496e76616c6964204e4654204f776e657220416464726573732e20506c656173604482015274329031b432b1b59030b732103a393c9030b3b0b4b760591b6064820152608401610685565b604051632142170760e11b81526001600160a01b0389811660048301528781166024830152604482018790528816906342842e0e90606401600060405180830381600087803b158015612fc057600080fd5b505af1158015612fd4573d6000803e3d6000fd5b5050505061384b565b6000826001811115612ff157612ff1614698565b036131d3576004896040516130069190614b65565b908152604051908190036020018120600501546001600160401b0316908590600690613033908d90614b65565b90815260200160405180910390205461304c9190615581565b111561310c5760405162461bcd60e51b815260206004820152607760248201527f546865206d6178696d756d207175616e7469747920616c6c6f77656420746f2060448201527f70757263686173652045524337323120746f6b656e20686173206265656e207360648201527f6f6c64206f75742e20506c6561736520636f6e74616374207468652073616c6560848201527f206f776e657220666f72206d6f72652064657461696c7300000000000000000060a482015260c401610685565b60405163e00aab4b60e01b81526001600160a01b03878116600483015261ffff8616602483015288169063e00aab4b906044016000604051808303816000875af115801561315e573d6000803e3d6000fd5b505050506040513d6000823e601f3d908101601f1916820160405261318691908101906157e5565b90508360068a6040516131999190614b65565b9081526020016040518091039020546131b29190615581565b60068a6040516131c29190614b65565b908152604051908190036020019020555b61384b565b6040516301ffc9a760e01b81526001600160a01b038816906301ffc9a79061320b90636cdb3d1360e11b90600401614f28565b602060405180830381865afa158015613228573d6000803e3d6000fd5b505050506040513d601f19601f8201168201806040525081019061324c9190614f3d565b1561384b57600182600181111561326557613265614698565b036133dd57604051627eeac760e11b81526001600160a01b038981166004830152602482018790526000919089169062fdd58e90604401602060405180830381865afa1580156132b9573d6000803e3d6000fd5b505050506040513d601f19601f820116820180604052508101906132dd91906157af565b90508084111580156132ef5750600084115b61334d5760405162461bcd60e51b815260206004820152602960248201527f496e73756666696369656e7420746f6b656e2062616c616e63652066726f6d206044820152683a34329037bbb732b960b91b6064820152608401610685565b604051637921219560e11b81526001600160a01b038a811660048301528881166024830152604482018890526064820186905260a06084830152600260a483015261060f60f31b60c483015289169063f242432a9060e401600060405180830381600087803b1580156133bf57600080fd5b505af11580156133d3573d6000803e3d6000fd5b505050505061384b565b60008260018111156133f1576133f1614698565b0361384b57604080516001808252818301909252600091602080830190803683370190505090506000856001600160401b0381111561343257613432614473565b60405190808252806020026020018201604052801561345b578160200160208202803683370190505b5090506060888360008151811061347457613474614c52565b60200260200101906001600160a01b031690816001600160a01b03168152505085826000815181106134a8576134a8614c52565b602090810291909101015260405163bd85b03960e01b8152600481018990526001600160a01b038b169063bd85b03990602401602060405180830381865afa1580156134f8573d6000803e3d6000fd5b505050506040513d601f19601f8201168201806040525081019061351c91906157af565b6000036137305760048c6040516135339190614b65565b908152604051908190036020018120600501546001600160401b03169060069061355e908f90614b65565b9081526020016040518091039020541061362c5760405162461bcd60e51b815260206004820152607860248201527f546865206d6178696d756d207175616e7469747920616c6c6f77656420746f2060448201527f7075726368617365204552433131353520746f6b656e20686173206265656e2060648201527f736f6c64206f75742e20506c6561736520636f6e74616374207468652073616c60848201527f65206f776e657220666f72206d6f72652064657461696c73000000000000000060a482015260c401610685565b60005b87811015613667578683828151811061364a5761364a614c52565b60209081029190910101528061365f81614c7e565b91505061362f565b50604051634637423960e11b81526001600160a01b038b1690638c6e84729061369890869086908690600401615819565b6000604051808303816000875af11580156136b7573d6000803e3d6000fd5b505050506040513d6000823e601f3d908101601f191682016040526136df91908101906157e5565b93508660068d6040516136f29190614b65565b90815260200160405180910390205461370b9190615581565b60068d60405161371b9190614b65565b90815260405190819003602001902055613847565b60405163bd85b03960e01b8152600481018990526000906001600160a01b038c169063bd85b03990602401602060405180830381865afa158015613778573d6000803e3d6000fd5b505050506040513d601f19601f8201168201806040525081019061379c91906157af565b1115613847576040805160018082528183019092526000916020808301908036833701905050905088816000815181106137d8576137d8614c52565b60209081029190910101526040516339b2213760e21b81526001600160a01b038c169063e6c884dc90613813908790859088906004016158a0565b600060405180830381600087803b15801561382d57600080fd5b505af1158015613841573d6000803e3d6000fd5b50505050505b5050505b98975050505050505050565b60006001600160a01b03831661393f57604080516000815260208101918290526001600160a01b03861691849161388d91614b65565b60006040518083038185875af1925050503d80600081146138ca576040519150601f19603f3d011682016040523d82523d6000602084013e6138cf565b606091505b5050809150508061393a5760405162461bcd60e51b815260206004820152602f60248201527f756e61626c6520746f206465626974206e61746976652062616c616e6365207060448201526e3632b0b9b2903a393c9030b3b0b4b760891b6064820152608401610685565b613954565b6139546001600160a01b038416868685613cd4565b5050505050565b600060058960405161396d9190614b65565b90815260408051918290036020908101832060c08401835280546001600160a01b0390811685526001820154811692850192909252600281015480831693850184905261ffff600160a01b918290048116606087015260039092015492831660808601529091041660a0830152909150600090158015906139f657506000826060015161ffff16115b15613a3d57613a3833836040015189612710866060015161ffff168d613a1c9190614f8c565b613a2691906158d9565b613a309086615581565b945084613857565b613a97565b6008546001600160a01b031615801590613a635750600854600160a01b900461ffff1615155b15613a9757600854613a979033906001600160a01b038116908a9061271090613a1c90600160a01b900461ffff168e614f8c565b60808201516001600160a01b031615801590613abb575060008260a0015161ffff16115b15613b28576127108260a0015161ffff1689613ad79190614f8c565b613ae191906158d9565b613aeb9082615581565b9050613b28338360800151898c6127108760a0015161ffff168e613b0f9190614f8c565b613b1991906158d9565b613b239190615581565b613857565b613b328189615594565b9750613b43338787878c8c89613d34565b9750613b55338360000151898b613857565b50505050505050505050565b60008181526001830160205260408120548015613c4a576000613b85600183615594565b8554909150600090613b9990600190615594565b9050818114613bfe576000866000018281548110613bb957613bb9614c52565b9060005260206000200154905080876000018481548110613bdc57613bdc614c52565b6000918252602080832090910192909255918252600188019052604090208390555b8554869080613c0f57613c0f6158fb565b600190038181906000526020600020016000905590558560010160008681526020019081526020016000206000905560019350505050610635565b6000915050610635565b5092915050565b6000826000018281548110613c7257613c72614c52565b9060005260206000200154905092915050565b6000818152600183016020526040812054613ccc57508154600181810184556000848152602080822090930184905584548482528286019093526040902091909155610635565b506000610635565b604080516001600160a01b0385811660248301528416604482015260648082018490528251808303909101815260849091019091526020810180516001600160e01b03166323b872dd60e01b179052613d2e908590613ee6565b50505050565b60006001826001811115613d4a57613d4a614698565b03613d6357613d5c8886898787613fbd565b9050613edb565b6000826001811115613d7757613d77614698565b03613edb576040516301ffc9a760e01b81526001600160a01b038616906301ffc9a790613daf90636cdb3d1360e11b90600401614f28565b602060405180830381865afa158015613dcc573d6000803e3d6000fd5b505050506040513d601f19601f82011682018060405250810190613df09190614f3d565b8015613e65575060405163bd85b03960e01b8152600481018890526000906001600160a01b0387169063bd85b03990602401602060405180830381865afa158015613e3f573d6000803e3d6000fd5b505050506040513d601f19601f82011682018060405250810190613e6391906157af565b115b15613e7757613d5c8886898787613fbd565b8551613e8390856158d9565b93506000805b8751811015613ed857613eb88a888a8481518110613ea957613ea9614c52565b60200260200101518989613fbd565b9150613ec48284615581565b925080613ed081614c7e565b915050613e89565b50505b979650505050505050565b6000613f3b826040518060400160405280602081526020017f5361666545524332303a206c6f772d6c6576656c2063616c6c206661696c6564815250856001600160a01b03166141959092919063ffffffff16565b805190915015613fb85780806020019051810190613f599190614f3d565b613fb85760405162461bcd60e51b815260206004820152602a60248201527f5361666545524332303a204552433230206f7065726174696f6e20646964206e6044820152691bdd081cdd58d8d9595960b21b6064820152608401610685565b505050565b600a54604051636e44a72f60e01b81526001600160a01b038681166004830152602482018690526000928592849283928392911690636e44a72f90604401600060405180830381865afa158015614018573d6000803e3d6000fd5b505050506040513d6000823e601f3d908101601f191682016040526140409190810190614d25565b81519193509150600081900361405d57879550505050505061418c565b60005b8181101561418357600084828151811061407c5761407c614c52565b602002602001015190506127108a85848151811061409c5761409c614c52565b60200260200101516140ae9190614f8c565b6140b891906158d9565b9550858710156141185760405162461bcd60e51b815260206004820152602560248201527f696e736f6c76656e743a20756e61626c6520746f20636f6d706c65746520726f60448201526479616c747960d81b6064820152608401610685565b6141248d828b89613857565b604080516001600160a01b038e81168252602082018e90528316818301526060810188905290517f866e6ef8682ddf5f1025e64dfdb45527077f7be70fa9ef680b7ffd8cf4ab9c509181900360800190a1509484900394600101614060565b50939450505050505b95945050505050565b60606141a484846000856141ac565b949350505050565b60608247101561420d5760405162461bcd60e51b815260206004820152602660248201527f416464726573733a20696e73756666696369656e742062616c616e636520666f6044820152651c8818d85b1b60d21b6064820152608401610685565b843b61425b5760405162461bcd60e51b815260206004820152601d60248201527f416464726573733a2063616c6c20746f206e6f6e2d636f6e74726163740000006044820152606401610685565b600080866001600160a01b031685876040516142779190614b65565b60006040518083038185875af1925050503d80600081146142b4576040519150601f19603f3d011682016040523d82523d6000602084013e6142b9565b606091505b5091509150613edb828286606083156142d35750816123a7565b8251156142e35782518084602001fd5b8160405162461bcd60e51b81526004016106859190614c0a565b50805460008255906000526020600020908101906108e491906143b5565b828054828255906000526020600020908101928215614356579160200282015b8281111561435657823582559160200191906001019061433b565b506109919291506143b5565b828054828255906000526020600020908101928215614356579160200282015b828111156143565781546001600160a01b0319166001600160a01b03843516178255602090920191600190910190614382565b5b8082111561099157600081556001016143b6565b6000602082840312156143dc57600080fd5b81356001600160e01b0319811681146123a757600080fd5b6001600160401b03811681146108e457600080fd5b8035614414816143f4565b919050565b60006020828403121561442b57600080fd5b81356123a7816143f4565b6001600160a01b03811681146108e457600080fd5b803561441481614436565b60006020828403121561446857600080fd5b81356123a781614436565b634e487b7160e01b600052604160045260246000fd5b60405161010081016001600160401b03811182821017156144ac576144ac614473565b60405290565b604051601f8201601f191681016001600160401b03811182821017156144da576144da614473565b604052919050565b600082601f8301126144f357600080fd5b81356001600160401b0381111561450c5761450c614473565b61451f601f8201601f19166020016144b2565b81815284602083860101111561453457600080fd5b816020850160208301376000918101602001919091529392505050565b60006020828403121561456357600080fd5b81356001600160401b0381111561457957600080fd5b6141a4848285016144e2565b600081518084526020808501945080840160005b838110156145be5781516001600160a01b031687529582019590820190600101614599565b509495945050505050565b6020815260006123a76020830184614585565b600080604083850312156145ef57600080fd5b82356145fa81614436565b946020939093013593505050565b600081518084526020808501945080840160005b838110156145be5781518752958201959082019060010161461c565b604080825283519082018190526000906020906060840190828701845b8281101561467a5781516001600160a01b031684529284019290840190600101614655565b5050508381038285015261468e8186614608565b9695505050505050565b634e487b7160e01b600052602160045260246000fd5b600281106108e457634e487b7160e01b600052602160045260246000fd5b6146d5816146ae565b9052565b6001600160a01b03881681526001600160401b0387811660208301528681166040830152606082018690528416608082015260e08101614718846146ae565b8360a0830152614727836146ae565b8260c083015298975050505050505050565b60008083601f84011261474b57600080fd5b5081356001600160401b0381111561476257600080fd5b60208301915083602082850101111561477a57600080fd5b9250929050565b60008060008084860361010081121561479957600080fd5b85356001600160401b03808211156147b057600080fd5b90870190610120828a0312156147c557600080fd5b909550602087013590808211156147db57600080fd5b506147e888828901614739565b90955093505060c0603f198201121561480057600080fd5b509295919450926040019150565b6000806040838503121561482157600080fd5b82356001600160401b038082111561483857600080fd5b90840190610100828703121561484d57600080fd5b614855614489565b82358281111561486457600080fd5b614870888286016144e2565b82525061487f6020840161444b565b60208201526040830135604082015261489a60608401614409565b60608201526148ab6080840161444b565b60808201526148bc60a08401614409565b60a08201526148cd60c0840161444b565b60c082015260e0928301359281019290925250946020939093013593505050565b6020815260006123a76020830184614608565b60008060006040848603121561491657600080fd5b83356001600160401b0381111561492c57600080fd5b61493886828701614739565b909450925050602084013561494c81614436565b809150509250925092565b61ffff811681146108e457600080fd5b60006020828403121561497957600080fd5b81356123a781614957565b6000806020838503121561499757600080fd5b82356001600160401b038111156149ad57600080fd5b6149b985828601614739565b90969095509350505050565b6040815260006149d86040830185614608565b828103602084015261418c8185614585565b600281106108e457600080fd5b8035614414816149ea565b60008083601f840112614a1457600080fd5b5081356001600160401b03811115614a2b57600080fd5b6020830191508360208260051b850101111561477a57600080fd5b60008060008060008060008060a0898b031215614a6257600080fd5b88356001600160401b0380821115614a7957600080fd5b614a858c838d01614739565b909a50985060208b01359150614a9a826149ea565b90965060408a0135955060608a01359080821115614ab757600080fd5b614ac38c838d01614a02565b909650945060808b0135915080821115614adc57600080fd5b50614ae98b828c01614a02565b999c989b5096995094979396929594505050565b60208082526024908201527f41646d696e436f6e74726f6c3a204d757374206265206f776e6572206f7220616040820152633236b4b760e11b606082015260800190565b60005b83811015614b5c578181015183820152602001614b44565b50506000910152565b60008251614b77818460208701614b41565b9190910192915050565b60208082526037908201527f7468652073616c65496420796f75206861766520656e7465726564206973206960408201527f6e76616c69642e20506c656173652076616c6964617465000000000000000000606082015260800190565b60008151808452614bf6816020860160208601614b41565b601f01601f19169290920160200192915050565b6020815260006123a76020830184614bde565b6020808252818101527f4f776e61626c653a2063616c6c6572206973206e6f7420746865206f776e6572604082015260600190565b634e487b7160e01b600052603260045260246000fd5b634e487b7160e01b600052601160045260246000fd5b600060018201614c9057614c90614c68565b5060010190565b60006001600160401b03821115614cb057614cb0614473565b5060051b60200190565b600082601f830112614ccb57600080fd5b81516020614ce0614cdb83614c97565b6144b2565b82815260059290921b84018101918181019086841115614cff57600080fd5b8286015b84811015614d1a5780518352918301918301614d03565b509695505050505050565b60008060408385031215614d3857600080fd5b82516001600160401b0380821115614d4f57600080fd5b818501915085601f830112614d6357600080fd5b81516020614d73614cdb83614c97565b82815260059290921b84018101918181019089841115614d9257600080fd5b948201945b83861015614db9578551614daa81614436565b82529482019490820190614d97565b91880151919650909350505080821115614dd257600080fd5b50614ddf85828601614cba565b9150509250929050565b8183823760009101908152919050565b61ffff818116838216019080821115613c5457613c54614c68565b6000808335601e19843603018112614e2b57600080fd5b8301803591506001600160401b03821115614e4557600080fd5b6020019150600581901b360382131561477a57600080fd5b60208082526038908201527f73686f756c642070726f7669646520657175616c206c656e67746820696e207060408201527f7269636520616e64207061796d656e7420616464726573730000000000000000606082015260800190565b600060208284031215614ecc57600080fd5b81356123a7816149ea565b60208082526031908201527f6d696e696d756d20707269636520696e20666961742073686f756c642062652060408201527067726561746572207468616e207a65726f60781b606082015260800190565b6001600160e01b031991909116815260200190565b600060208284031215614f4f57600080fd5b815180151581146123a757600080fd5b80546001600160a01b0319166001600160a01b0392909216919091179055565b60008135610635816143f4565b808202811582820484141761063557610635614c68565b81831015613fb8576000818152602081208481019084015b80821015614fd157828255600182019150614fbb565b505050505050565b6001600160401b03831115614ff057614ff0614473565b600160401b83111561500457615004614473565b8054838255615014848284614fa3565b50818160005260208060002060005b8681101561503d5783358282015592820192600101615023565b50505050505050565b6001600160401b0383111561505d5761505d614473565b600160401b83111561507157615071614473565b8054838255615081848284614fa3565b50818160005260208060002060005b8681101561503d5783356150a381614436565b8282015592820192600101615090565b60008135610635816149ea565b6150c9826146ae565b805460ff60401b8360401b1660ff60401b198216178255505050565b6150ee826146ae565b805460ff60481b8360481b1660ff60481b198216178255505050565b813561511581614436565b61511f8183614f5f565b50602082013561512e816143f4565b815467ffffffffffffffff60a01b191660a082901b67ffffffffffffffff60a01b161782555061518461516360408401614f7f565b600183016001600160401b0382166001600160401b03198254161781555050565b6060820135600282015561519b6080830183614e14565b6151a9818360038601614fd9565b50506151b860a0830183614e14565b6151c6818360048601615046565b5050600581016151f96151db60c08501614f7f565b825467ffffffffffffffff19166001600160401b0391909116178255565b61520e61520860e085016150b3565b826150c0565b613fb861521e61010085016150b3565b826150e5565b805461ffff60a01b191660a09290921b61ffff60a01b16919091179055565b813561524e81614436565b6152588183614f5f565b50602082013561526781614436565b6152748160018401614f5f565b5060028101604083013561528781614436565b6152918183614f5f565b5060608301356152a081614957565b6152aa8183615224565b50506003810160808301356152be81614436565b6152c88183614f5f565b5060a08301356152d781614957565b613d2e8183615224565b6000808335601e198436030181126152f857600080fd5b83016020810192503590506001600160401b0381111561531757600080fd5b8060051b360382131561477a57600080fd5b81835260006001600160fb1b0383111561534257600080fd5b8260051b80836020870137939093016020019392505050565b8183526000602080850194508260005b858110156145be57813561537e81614436565b6001600160a01b03168752958201959082019060010161536b565b80356153a481614436565b6001600160a01b0390811683526020820135906153c082614436565b90811660208401526040820135906153d782614436565b90811660408401526060820135906153ee82614957565b61ffff918216606085015260808301359161540883614436565b918116608085015260a08301359161541f83614957565b80831660a08601525050505050565b60e0815261544f60e082016154428561444b565b6001600160a01b03169052565b600061545d60208501614409565b610100615474818501836001600160401b03169052565b61548060408701614409565b9150610120615499818601846001600160401b03169052565b60608701356101408601526154b160808801886152e1565b9350816101608701526154c961020087018583615329565b935050506154da60a08701876152e1565b85840360df19016101808701526154f284828461535b565b9350505061550260c08701614409565b6001600160401b03166101a085015261551d60e087016149f7565b61552b6101c08601826146cc565b506155378187016149f7565b90506155476101e08501826146cc565b5090506123a76020830184615399565b60208082526010908201526f756e737570706f727465642073616c6560801b604082015260600190565b8082018082111561063557610635614c68565b8181038181111561063557610635614c68565b6000610160808352885161010080838601526155c7610260860183614bde565b60208c01516001600160a01b031661018087015260408c01516101a087015260608c01516001600160401b03166101c087015260808c0151909350915061561a6101e08601836001600160a01b03169052565b60a08b01516001600160401b031661020086015260c08b01516001600160a01b03811661022087015260e08c015161024087015285840360208701529150615662838b614608565b93506156c0604086018a60018060a01b03808251168352806020830151166020840152806040830151166040840152606082015161ffff80821660608601528260808501511660808601528060a08501511660a08601525050505050565b840196909652506101208201939093526101400152949350505050565b60208082526038908201527f73686f756c64206e6f74206265207a65726f2061646472657373206f7220707260408201527f6576696f757320736574746c656d656e74206164726573730000000000000000606082015260800190565b6020808252604f908201527f54686973206973206e6f7420612076616c696420746f6b656e49642e20506c6560408201527f6173652076657269667920746861742074686520746f6b656e49642070726f7660608201526e1a591959081a5cc818dbdc9c9958dd608a1b608082015260a00190565b6000602082840312156157c157600080fd5b5051919050565b6000602082840312156157da57600080fd5b81516123a781614436565b6000602082840312156157f757600080fd5b81516001600160401b0381111561580d57600080fd5b6141a484828501614cba565b60608152600061582c6060830186614585565b60208382038185015261583f8287614608565b915083820360408501528185518084528284019150828160051b85010183880160005b8381101561589057601f1987840301855261587e838351614bde565b94860194925090850190600101615862565b50909a9950505050505050505050565b6060815260006158b36060830186614585565b82810360208401526158c58186614608565b9050828103604084015261468e8185614608565b6000826158f657634e487b7160e01b600052601260045260246000fd5b500490565b634e487b7160e01b600052603160045260246000fdfea2646970667358221220a4ebb82d322ceb1bba05217fb5110a85e6e64e0757d4183a7ee585de18a5763264736f6c63430008110033",
  "linkReferences": {},
  "deployedLinkReferences": {}
}