{
  "_format": "hh-sol-artifact-1",
  "contractName": "ZoraOverride",
  "sourceName": "contracts/manifold/royalty-registry/impl/ZoraOverride.sol",
  "abi": [
    {
      "inputs": [
        {
          "internalType": "address",
          "name": "media",
          "type": "address"
        },
        {
          "internalType": "uint256",
          "name": "tokenId",
          "type": "uint256"
        }
      ],
      "name": "convertBidShares",
      "outputs": [
        {
          "internalType": "address payable[]",
          "name": "receivers",
          "type": "address[]"
        },
        {
          "internalType": "uint256[]",
          "name": "bps",
          "type": "uint256[]"
        }
      ],
      "stateMutability": "view",
      "type": "function"
    },
    {
      "inputs": [
        {
          "internalType": "bytes4",
          "name": "interfaceId",
          "type": "bytes4"
        }
      ],
      "name": "supportsInterface",
      "outputs": [
        {
          "internalType": "bool",
          "name": "",
          "type": "bool"
        }
      ],
      "stateMutability": "view",
      "type": "function"
    }
  ],
  "bytecode": "0x608060405234801561001057600080fd5b506106ad806100206000396000f3fe608060405234801561001057600080fd5b50600436106100365760003560e01c806301ffc9a71461003b578063f662207414610063575b600080fd5b61004e61004936600461041f565b610084565b60405190151581526020015b60405180910390f35b610076610071366004610468565b6100bb565b60405161005a929190610494565b60006001600160e01b03198216633d98881d60e21b14806100b557506301ffc9a760e01b6001600160e01b03198316145b92915050565b6060806000846001600160a01b031663a1794bcd6040518163ffffffff1660e01b8152600401602060405180830381865afa1580156100fe573d6000803e3d6000fd5b505050506040513d601f19601f820116820180604052508101906101229190610518565b6001600160a01b031663f9ce0582856040518263ffffffff1660e01b815260040161014f91815260200190565b606060405180830381865afa15801561016c573d6000803e3d6000fd5b505050506040513d601f19601f82011682018060405250810190610190919061059b565b602081015151909150600090156101af57806101ab81610618565b9150505b604082015151156101c857806101c481610618565b9150505b8067ffffffffffffffff8111156101e1576101e1610535565b60405190808252806020026020018201604052801561020a578160200160208202803683370190505b5093508067ffffffffffffffff81111561022657610226610535565b60405190808252806020026020018201604052801561024f578160200160208202803683370190505b50602083015151909350600090156103345760405163e0fd045f60e01b8152600481018790526001600160a01b0388169063e0fd045f90602401602060405180830381865afa1580156102a6573d6000803e3d6000fd5b505050506040513d601f19601f820116820180604052508101906102ca9190610518565b8582815181106102dc576102dc61063f565b6001600160a01b039092166020928302919091018201528301515161030990662386f26fc1000090610655565b84828151811061031b5761031b61063f565b60209081029190910101528061033081610618565b9150505b60408301515115610415576040516331a9108f60e11b8152600481018790526001600160a01b03881690636352211e90602401602060405180830381865afa158015610384573d6000803e3d6000fd5b505050506040513d601f19601f820116820180604052508101906103a89190610518565b8582815181106103ba576103ba61063f565b6001600160a01b03909216602092830291909101909101526040830151516103ea90662386f26fc1000090610655565b8482815181106103fc576103fc61063f565b60209081029190910101528061041181610618565b9150505b5050509250929050565b60006020828403121561043157600080fd5b81356001600160e01b03198116811461044957600080fd5b9392505050565b6001600160a01b038116811461046557600080fd5b50565b6000806040838503121561047b57600080fd5b823561048681610450565b946020939093013593505050565b604080825283519082018190526000906020906060840190828701845b828110156104d65781516001600160a01b0316845292840192908401906001016104b1565b5050508381038285015284518082528583019183019060005b8181101561050b578351835292840192918401916001016104ef565b5090979650505050505050565b60006020828403121561052a57600080fd5b815161044981610450565b634e487b7160e01b600052604160045260246000fd5b60006020828403121561055d57600080fd5b6040516020810181811067ffffffffffffffff8211171561058e57634e487b7160e01b600052604160045260246000fd5b6040529151825250919050565b6000606082840312156105ad57600080fd5b6040516060810181811067ffffffffffffffff821117156105de57634e487b7160e01b600052604160045260246000fd5b6040526105eb848461054b565b81526105fa846020850161054b565b602082015261060c846040850161054b565b60408201529392505050565b60006001820161063857634e487b7160e01b600052601160045260246000fd5b5060010190565b634e487b7160e01b600052603260045260246000fd5b60008261067257634e487b7160e01b600052601260045260246000fd5b50049056fea26469706673582212202edf52c8723134f219663a9f6926f1bb44fdcc1e047c8f508bb64f290cce03c464736f6c63430008110033",
  "linkReferences": {},
  "deployedLinkReferences": {}
}