{
  "_format": "hh-sol-artifact-1",
  "contractName": "BuyNow",
  "sourceName": "contracts/mojito/onchain-sales/BuyNow.sol",
  "abi": [
    {
      "inputs": [
        {
          "internalType": "address",
          "name": "_nftAddress",
          "type": "address"
        },
        {
          "internalType": "address",
          "name": "_weth",
          "type": "address"
        },
        {
          "components": [
            {
              "internalType": "address payable",
              "name": "marketPlaceAddress",
              "type": "address"
            },
            {
              "internalType": "uint8",
              "name": "feePercentage",
              "type": "uint8"
            }
          ],
          "internalType": "struct BuyNow.Platform",
          "name": "_platform",
          "type": "tuple"
        }
      ],
      "stateMutability": "nonpayable",
      "type": "constructor"
    },
    {
      "anonymous": false,
      "inputs": [
        {
          "indexed": false,
          "internalType": "address",
          "name": "_tokenContract",
          "type": "address"
        },
        {
          "indexed": false,
          "internalType": "uint256",
          "name": "_tokenId",
          "type": "uint256"
        },
        {
          "indexed": false,
          "internalType": "address",
          "name": "recipient",
          "type": "address"
        },
        {
          "indexed": false,
          "internalType": "uint256",
          "name": "amount",
          "type": "uint256"
        }
      ],
      "name": "RoyaltyPayout",
      "type": "event"
    },
    {
      "anonymous": false,
      "inputs": [
        {
          "indexed": true,
          "internalType": "uint256",
          "name": "saleId",
          "type": "uint256"
        },
        {
          "indexed": true,
          "internalType": "uint256",
          "name": "tokenId",
          "type": "uint256"
        },
        {
          "indexed": true,
          "internalType": "address",
          "name": "tokenContract",
          "type": "address"
        },
        {
          "indexed": false,
          "internalType": "bool",
          "name": "approved",
          "type": "bool"
        }
      ],
      "name": "SaleApprovalUpdated",
      "type": "event"
    },
    {
      "anonymous": false,
      "inputs": [
        {
          "indexed": true,
          "internalType": "uint256",
          "name": "saleId",
          "type": "uint256"
        },
        {
          "indexed": true,
          "internalType": "uint256",
          "name": "tokenId",
          "type": "uint256"
        },
        {
          "indexed": true,
          "internalType": "address",
          "name": "tokenContract",
          "type": "address"
        },
        {
          "indexed": false,
          "internalType": "address",
          "name": "tokenOwner",
          "type": "address"
        },
        {
          "indexed": false,
          "internalType": "uint256",
          "name": "quantity",
          "type": "uint256"
        }
      ],
      "name": "SaleCanceled",
      "type": "event"
    },
    {
      "anonymous": false,
      "inputs": [
        {
          "indexed": true,
          "internalType": "uint256",
          "name": "saleId",
          "type": "uint256"
        },
        {
          "indexed": true,
          "internalType": "uint256",
          "name": "tokenId",
          "type": "uint256"
        },
        {
          "indexed": true,
          "internalType": "address",
          "name": "tokenContract",
          "type": "address"
        },
        {
          "indexed": false,
          "internalType": "uint256",
          "name": "fixedPrice",
          "type": "uint256"
        },
        {
          "indexed": false,
          "internalType": "address",
          "name": "tokenOwner",
          "type": "address"
        },
        {
          "indexed": false,
          "internalType": "address",
          "name": "curator",
          "type": "address"
        },
        {
          "indexed": false,
          "internalType": "uint8",
          "name": "curatorFeePercentage",
          "type": "uint8"
        },
        {
          "indexed": false,
          "internalType": "address",
          "name": "saleCurrency",
          "type": "address"
        },
        {
          "indexed": false,
          "internalType": "uint256",
          "name": "quantity",
          "type": "uint256"
        },
        {
          "indexed": false,
          "internalType": "address",
          "name": "whitelistedBuyer",
          "type": "address"
        }
      ],
      "name": "SaleCreated",
      "type": "event"
    },
    {
      "anonymous": false,
      "inputs": [
        {
          "indexed": true,
          "internalType": "uint256",
          "name": "saleId",
          "type": "uint256"
        },
        {
          "indexed": true,
          "internalType": "uint256",
          "name": "tokenId",
          "type": "uint256"
        },
        {
          "indexed": true,
          "internalType": "address",
          "name": "tokenContract",
          "type": "address"
        },
        {
          "indexed": false,
          "internalType": "address",
          "name": "tokenOwner",
          "type": "address"
        },
        {
          "indexed": false,
          "internalType": "address",
          "name": "curator",
          "type": "address"
        },
        {
          "indexed": false,
          "internalType": "address",
          "name": "buyer",
          "type": "address"
        },
        {
          "indexed": false,
          "internalType": "uint256",
          "name": "amount",
          "type": "uint256"
        },
        {
          "indexed": false,
          "internalType": "uint256",
          "name": "curatorFee",
          "type": "uint256"
        },
        {
          "indexed": false,
          "internalType": "address",
          "name": "saleCurrency",
          "type": "address"
        },
        {
          "indexed": false,
          "internalType": "uint256",
          "name": "quantity",
          "type": "uint256"
        }
      ],
      "name": "SaleEnded",
      "type": "event"
    },
    {
      "anonymous": false,
      "inputs": [
        {
          "indexed": true,
          "internalType": "uint256",
          "name": "saleId",
          "type": "uint256"
        },
        {
          "indexed": true,
          "internalType": "uint256",
          "name": "tokenId",
          "type": "uint256"
        },
        {
          "indexed": true,
          "internalType": "address",
          "name": "tokenContract",
          "type": "address"
        },
        {
          "indexed": false,
          "internalType": "uint256",
          "name": "fixedPrice",
          "type": "uint256"
        }
      ],
      "name": "SaleFixedPriceUpdated",
      "type": "event"
    },
    {
      "stateMutability": "payable",
      "type": "fallback"
    },
    {
      "inputs": [
        {
          "internalType": "uint256",
          "name": "saleId",
          "type": "uint256"
        },
        {
          "internalType": "uint256",
          "name": "fixedPrice",
          "type": "uint256"
        }
      ],
      "name": "buy",
      "outputs": [],
      "stateMutability": "payable",
      "type": "function"
    },
    {
      "inputs": [
        {
          "internalType": "uint256",
          "name": "saleId",
          "type": "uint256"
        }
      ],
      "name": "cancelSale",
      "outputs": [],
      "stateMutability": "nonpayable",
      "type": "function"
    },
    {
      "inputs": [
        {
          "internalType": "uint256",
          "name": "tokenId",
          "type": "uint256"
        },
        {
          "internalType": "address",
          "name": "tokenContract",
          "type": "address"
        },
        {
          "internalType": "uint256",
          "name": "fixedPrice",
          "type": "uint256"
        },
        {
          "internalType": "uint256",
          "name": "quantity",
          "type": "uint256"
        },
        {
          "internalType": "address",
          "name": "saleCurrency",
          "type": "address"
        },
        {
          "internalType": "address",
          "name": "whitelistedBuyer",
          "type": "address"
        }
      ],
      "name": "createSale",
      "outputs": [
        {
          "internalType": "uint256",
          "name": "",
          "type": "uint256"
        }
      ],
      "stateMutability": "nonpayable",
      "type": "function"
    },
    {
      "inputs": [],
      "name": "nftAddress",
      "outputs": [
        {
          "internalType": "address",
          "name": "",
          "type": "address"
        }
      ],
      "stateMutability": "view",
      "type": "function"
    },
    {
      "inputs": [
        {
          "internalType": "address",
          "name": "",
          "type": "address"
        },
        {
          "internalType": "address",
          "name": "",
          "type": "address"
        },
        {
          "internalType": "uint256[]",
          "name": "",
          "type": "uint256[]"
        },
        {
          "internalType": "uint256[]",
          "name": "",
          "type": "uint256[]"
        },
        {
          "internalType": "bytes",
          "name": "",
          "type": "bytes"
        }
      ],
      "name": "onERC1155BatchReceived",
      "outputs": [
        {
          "internalType": "bytes4",
          "name": "",
          "type": "bytes4"
        }
      ],
      "stateMutability": "nonpayable",
      "type": "function"
    },
    {
      "inputs": [
        {
          "internalType": "address",
          "name": "",
          "type": "address"
        },
        {
          "internalType": "address",
          "name": "",
          "type": "address"
        },
        {
          "internalType": "uint256",
          "name": "",
          "type": "uint256"
        },
        {
          "internalType": "uint256",
          "name": "",
          "type": "uint256"
        },
        {
          "internalType": "bytes",
          "name": "",
          "type": "bytes"
        }
      ],
      "name": "onERC1155Received",
      "outputs": [
        {
          "internalType": "bytes4",
          "name": "",
          "type": "bytes4"
        }
      ],
      "stateMutability": "nonpayable",
      "type": "function"
    },
    {
      "inputs": [
        {
          "internalType": "uint256",
          "name": "",
          "type": "uint256"
        }
      ],
      "name": "sales",
      "outputs": [
        {
          "internalType": "uint256",
          "name": "tokenId",
          "type": "uint256"
        },
        {
          "internalType": "address",
          "name": "tokenContract",
          "type": "address"
        },
        {
          "internalType": "bool",
          "name": "approved",
          "type": "bool"
        },
        {
          "internalType": "uint256",
          "name": "fixedPrice",
          "type": "uint256"
        },
        {
          "internalType": "uint256",
          "name": "quantity",
          "type": "uint256"
        },
        {
          "internalType": "address",
          "name": "tokenOwner",
          "type": "address"
        },
        {
          "internalType": "address payable",
          "name": "buyer",
          "type": "address"
        },
        {
          "internalType": "address",
          "name": "saleCurrency",
          "type": "address"
        },
        {
          "internalType": "address",
          "name": "whitelistedBuyer",
          "type": "address"
        }
      ],
      "stateMutability": "view",
      "type": "function"
    },
    {
      "inputs": [
        {
          "internalType": "uint256",
          "name": "saleId",
          "type": "uint256"
        },
        {
          "internalType": "bool",
          "name": "approved",
          "type": "bool"
        }
      ],
      "name": "setSaleApproval",
      "outputs": [],
      "stateMutability": "nonpayable",
      "type": "function"
    },
    {
      "inputs": [
        {
          "internalType": "uint256",
          "name": "saleId",
          "type": "uint256"
        },
        {
          "internalType": "uint256",
          "name": "fixedPrice",
          "type": "uint256"
        }
      ],
      "name": "setSaleFixedPrice",
      "outputs": [],
      "stateMutability": "nonpayable",
      "type": "function"
    },
    {
      "inputs": [],
      "name": "wethAddress",
      "outputs": [
        {
          "internalType": "address",
          "name": "",
          "type": "address"
        }
      ],
      "stateMutability": "view",
      "type": "function"
    },
    {
      "stateMutability": "payable",
      "type": "receive"
    }
  ],
  "bytecode": "0x60806040523480156200001157600080fd5b5060405162002a9938038062002a9983398101604081905262000034916200025b565b60016000556040516301ffc9a760e01b81526380ac58cd60e01b60048201526001600160a01b038416906301ffc9a790602401602060405180830381865afa15801562000085573d6000803e3d6000fd5b505050506040513d601f19601f82011682018060405250810190620000ab919062000314565b806200012457506040516301ffc9a760e01b8152636cdb3d1360e11b60048201526001600160a01b038416906301ffc9a790602401602060405180830381865afa158015620000fe573d6000803e3d6000fd5b505050506040513d601f19601f8201168201806040525081019062000124919062000314565b620001765760405162461bcd60e51b815260206004820152601d60248201527f446f65736e277420737570706f7274204e465420696e7465726661636500000060448201526064015b60405180910390fd5b6064816020015160ff1610620001e25760405162461bcd60e51b815260206004820152602a60248201527f63757261746f7246656550657263656e74616765206d757374206265206c6573604482015269073207468616e203130360b41b60648201526084016200016d565b600180546001600160a01b039485166001600160a01b03199182161790915560028054938516939091169290921790915580516005805460209093015160ff16600160a01b026001600160a81b031990931691909316171790556200033f565b6001600160a01b03811681146200025857600080fd5b50565b600080600083850360808112156200027257600080fd5b84516200027f8162000242565b6020860151909450620002928162000242565b92506040603f1982011215620002a757600080fd5b50604080519081016001600160401b0381118282101715620002d957634e487b7160e01b600052604160045260246000fd5b6040908152850151620002ec8162000242565b8152606085015160ff811681146200030357600080fd5b602082015292959194509192509050565b6000602082840312156200032757600080fd5b815180151581146200033857600080fd5b9392505050565b61274a806200034f6000396000f3fe60806040526004361061008f5760003560e01c8063bc197c8111610056578063bc197c8114610215578063bd94b0051461024e578063d6febde81461026e578063f23a6e6114610281578063f507054c146102ad57005b80632f652b40146100985780634f0e0ef3146100b8578063596ac67b146100f55780635bf8633a14610123578063b5f522f71461014357005b3661009657005b005b3480156100a457600080fd5b506100966100b336600461205e565b6102cd565b3480156100c457600080fd5b506002546100d8906001600160a01b031681565b6040516001600160a01b0390911681526020015b60405180910390f35b34801561010157600080fd5b506101156101103660046120a3565b61036f565b6040519081526020016100ec565b34801561012f57600080fd5b506001546100d8906001600160a01b031681565b34801561014f57600080fd5b506101bf61015e36600461210a565b60036020819052600091825260409091208054600182015460028301549383015460048401546005850154600686015460079096015494966001600160a01b0380861697600160a01b90960460ff1696919593811693928116928116911689565b60408051998a526001600160a01b0398891660208b01529615159689019690965260608801949094526080870192909252841660a0860152831660c0850152821660e084015216610100820152610120016100ec565b34801561022157600080fd5b50610241610230366004612269565b63bc197c8160e01b95945050505050565b6040516100ec9190612317565b34801561025a57600080fd5b5061009661026936600461210a565b610b45565b61009661027c36600461232c565b610c54565b34801561028d57600080fd5b5061024161029c36600461234e565b63f23a6e6160e01b95945050505050565b3480156102b957600080fd5b506100966102c836600461232c565b6112e7565b60008281526003602052604090206004015482906001600160a01b031661030f5760405162461bcd60e51b8152600401610306906123b7565b60405180910390fd5b6005546001600160a01b031633146103605760405162461bcd60e51b815260206004820152601460248201527326bab9ba1031329039b0b6329031bab930ba37b960611b6044820152606401610306565b61036a838361140e565b505050565b60006002600054036103935760405162461bcd60e51b8152600401610306906123e3565b60026000556040516301ffc9a760e01b81526001600160a01b038716906301ffc9a7906103cb906380ac58cd60e01b90600401612317565b602060405180830381865afa1580156103e8573d6000803e3d6000fd5b505050506040513d601f19601f8201168201806040525081019061040c919061241a565b8061048657506040516301ffc9a760e01b81526001600160a01b038716906301ffc9a79061044590636cdb3d1360e11b90600401612317565b602060405180830381865afa158015610462573d6000803e3d6000fd5b505050506040513d601f19601f82011682018060405250810190610486919061241a565b6104f85760405162461bcd60e51b815260206004820152603a60248201527f746f6b656e436f6e747261637420646f6573206e6f7420737570706f7274204560448201527f5243373231206f72204552433131353520696e746572666163650000000000006064820152608401610306565b600061050360045490565b6040516301ffc9a760e01b81529091506000906001600160a01b038916906301ffc9a79061053c906380ac58cd60e01b90600401612317565b602060405180830381865afa158015610559573d6000803e3d6000fd5b505050506040513d601f19601f8201168201806040525081019061057d919061241a565b156107d8576040516331a9108f60e11b8152600481018a90526001600160a01b03891690636352211e90602401602060405180830381865afa1580156105c7573d6000803e3d6000fd5b505050506040513d601f19601f820116820180604052508101906105eb9190612437565b60405163020604bf60e21b8152600481018b90529091506001600160a01b0389169063081812fc90602401602060405180830381865afa158015610633573d6000803e3d6000fd5b505050506040513d601f19601f820116820180604052508101906106579190612437565b6001600160a01b0316336001600160a01b0316148061067e5750336001600160a01b038216145b6106e05760405162461bcd60e51b815260206004820152602d60248201527f43616c6c6572206d75737420626520617070726f766564206f72206f776e657260448201526c08199bdc881d1bdad95b881a59609a1b6064820152608401610306565b856001146107475760405162461bcd60e51b815260206004820152602e60248201527f7175616e746974792073686f756c6420626520657175616c20746f206f6e652060448201526d666f72204e46542d45524337323160901b6064820152608401610306565b60405163e985e9c560e01b81526001600160a01b03828116600483015230602483015289169063e985e9c590604401602060405180830381865afa158015610793573d6000803e3d6000fd5b505050506040513d601f19601f820116820180604052508101906107b7919061241a565b6107d35760405162461bcd60e51b815260040161030690612454565b610975565b604051627eeac760e11b8152336004820152602481018a90526000906001600160a01b038a169062fdd58e90604401602060405180830381865afa158015610824573d6000803e3d6000fd5b505050506040513d601f19601f820116820180604052508101906108489190612497565b905080871115801561085957508615155b6108e55760405162461bcd60e51b815260206004820152605160248201527f7175616e746974792073686f756c64206265206d6f7265207468616e207a657260448201527f6f2026262073686f756c64206265206c657373207468616e206f7220657175616064820152706c20746f206f776e657242616c616e636560781b608482015260a401610306565b60405163e985e9c560e01b8152336004820181905230602483015292506001600160a01b038a169063e985e9c590604401602060405180830381865afa158015610933573d6000803e3d6000fd5b505050506040513d601f19601f82011682018060405250810190610957919061241a565b6109735760405162461bcd60e51b815260040161030690612454565b505b60408051610120810182528a81526001600160a01b03808b1660208084019182526000848601818152606086018e8152608087018e815289871660a0890190815260c089018581528f891660e08b019081528f8a166101008c019081528e88526003988990529b90962099518a55965160018a01805495511515600160a01b026001600160a81b0319909616918a1691909117949094179093559051600288015551928601929092559051600480860180549286166001600160a01b0319938416179055925160058601805491861691831691909117905590516006850180549185169183169190911790559351600790930180549390921692909316919091179055610a859080546001019055565b600554604080518981523360208201526001600160a01b0380841692820192909252600160a01b90920460ff166060830152868116608083015260a0820188905285811660c08301528916908a9084907fe25712bec7c1dd5a907155284dcf5df5275d1e0e705732d8fea9cf311faeb0c89060e00160405180910390a46005546001600160a01b03161580610b2457506005546001600160a01b031633145b15610b3457610b3482600161140e565b506001600055979650505050505050565b600260005403610b675760405162461bcd60e51b8152600401610306906123e3565b600260005580610b91816000908152600360205260409020600401546001600160a01b0316151590565b610bad5760405162461bcd60e51b8152600401610306906123b7565b6000828152600360205260409020600401546001600160a01b0316331480610bdf57506005546001600160a01b031633145b610c425760405162461bcd60e51b815260206004820152602e60248201527f43616e206f6e6c792062652063616c6c65642062792073616c6573206372656160448201526d3a37b91037b91031bab930ba37b960911b6064820152608401610306565b610c4b8261148f565b50506001600055565b60008281526003602052604090206004015482906001600160a01b0316610c8d5760405162461bcd60e51b8152600401610306906123b7565b600260005403610caf5760405162461bcd60e51b8152600401610306906123e3565b6002600090815583815260036020526040902060010154600160a01b900460ff16610d1c5760405162461bcd60e51b815260206004820181905260248201527f53616c65206d75737420626520617070726f7665642062792063757261746f726044820152606401610306565b6000838152600360205260409020600201548214610d7c5760405162461bcd60e51b815260206004820152601b60248201527f4d75737420626520657175616c20746f206669786564507269636500000000006044820152606401610306565b600083815260036020526040902060060154610da29083906001600160a01b031661175d565b60008381526003602081905260408220908101546006909101549091906001600160a01b031615610ded576000858152600360205260409020600601546001600160a01b0316610dfa565b6002546001600160a01b03165b600086815260036020526040812060070154919250906001600160a01b031615610ea5576000868152600360205260409020600701546001600160a01b03163314610ea55760405162461bcd60e51b815260206004820152603560248201527f6d73672e73656e6465722073686f756c20626520657175616c20746f206265206044820152743a3432903bb434ba32b634b9ba32b22fb13abcb2b960591b6064820152608401610306565b6000868152600360205260408082206005810180546001600160a01b031916331790556001015490516301ffc9a760e01b81526001600160a01b0391909116906301ffc9a790610f00906380ac58cd60e01b90600401612317565b602060405180830381865afa158015610f1d573d6000803e3d6000fd5b505050506040513d601f19601f82011682018060405250810190610f41919061241a565b1561101d57600087815260036020526040908190206001810154600480830154600584015493549451632142170760e11b81526001600160a01b03918216928101929092529283166024820152604481019390935216906342842e0e90606401600060405180830381600087803b158015610fbb57600080fd5b505af1925050508015610fcc575060015b61101857600087815260036020526040902060058101546002820154600690920154611006926001600160a01b03928316929091166119af565b61100f8761148f565b505050506112dd565b611102565b6040805180820182526002815261060f60f31b60208083019190915260008a815260039091528290206001810154600480830154600584015493549551637921219560e11b815294956001600160a01b039384169563f242432a9561108d95938416949316928c91899101612500565b600060405180830381600087803b1580156110a757600080fd5b505af19250505080156110b8575060015b61110057600088815260036020526040902060058101546006909101546110ed916001600160a01b03908116918a91166119af565b6110f68861148f565b50505050506112dd565b505b600087815260036020526040902060018101548154600283015460069093015461113a936001600160a01b0393841693909116611abf565b6005549091506001600160a01b0316156111af576005546111739060649061116d908490600160a01b900460ff16611cb0565b90611cc5565b915061117f8183611cd1565b6005546000898152600360205260409020600601549192506111af916001600160a01b03918216918591166119af565b600087815260036020526040902060048101546006909101546111e0916001600160a01b03908116918491166119af565b6000878152600360209081526040918290206001810154815460049092015460055485516001600160a01b039283168152908216948101949094523384860152606084018690526080840187905287811660a085015260c08401899052935193169290918a917f0f0e322e377b4dae6e7876b2686a20c530680b3a1904f962c80f8d0c23142b1e9181900360e00190a4505050600084815260036020819052604082208281556001810180546001600160a81b031916905560028101839055908101919091556004810180546001600160a01b03199081169091556005820180548216905560068201805482169055600790910180549091169055505b5050600160005550565b60008281526003602052604090206004015482906001600160a01b03166113205760405162461bcd60e51b8152600401610306906123b7565b6005546001600160a01b031633148061135257506000838152600360205260409020600401546001600160a01b031633145b6113aa5760405162461bcd60e51b815260206004820152602360248201527f4d7573742062652073616c652063757261746f72206f7220746f6b656e206f776044820152623732b960e91b6064820152608401610306565b600083815260036020908152604091829020600281018590556001810154905492518581526001600160a01b03909116929186917fbaf24ad228bf97094ef779c7e88b62940b9e03ce1ce2b0a4be44850d8e54e2c7910160405180910390a4505050565b60008281526003602052604090819020600181018054841515600160a01b0260ff60a01b1982168117909255915492516001600160a01b039182169190921617919084907f1d3f63adc019ed54e9819aba7366c6f52fd1af727c27e39fdfbab8ffe67c060e9061148390861515815260200190565b60405180910390a45050565b6000818152600360208190526040918290206004808201549282015460019092015493516301ffc9a760e01b81526001600160a01b03938416949293909216916301ffc9a7916114e891636cdb3d1360e11b9101612317565b602060405180830381865afa158015611505573d6000803e3d6000fd5b505050506040513d601f19601f82011682018060405250810190611529919061241a565b1561168f5760008381526003602052604080822060010154905163a22cb46560e01b815230600482015260248101929092526001600160a01b03169063a22cb46590604401600060405180830381600087803b15801561158857600080fd5b505af115801561159c573d6000803e3d6000fd5b505050600084815260036020526040908190206001810154600491820154925163e985e9c560e01b81526001600160a01b039384169281019290925230602483015291909116915063e985e9c590604401602060405180830381865afa15801561160a573d6000803e3d6000fd5b505050506040513d601f19601f8201168201806040525081019061162e919061241a565b1561168f5760405162461bcd60e51b815260206004820152602b60248201527f436f6e7472616374204164647265737320617070726f76616c2073686f756c6460448201526a081899481c995b5bdd995960aa1b6064820152608401610306565b6000838152600360209081526040918290206001810154905483516001600160a01b0387811682529381018690529290911692909186917fcf8fca9dfb53c78776d7ecb4c384d07eaaaf90e7f3b2d2002cc229a3c6b4f442910160405180910390a45050600090815260036020819052604082208281556001810180546001600160a81b031916905560028101839055908101919091556004810180546001600160a01b03199081169091556005820180548216905560068201805482169055600790910180549091169055565b6001600160a01b038116611842578134146117d55760405162461bcd60e51b815260206004820152603260248201527f53656e74204554482056616c756520646f6573206e6f74206d617463682073706044820152711958da599a595908189d5e48185b5bdd5b9d60721b6064820152608401610306565b600260009054906101000a90046001600160a01b03166001600160a01b031663d0e30db0836040518263ffffffff1660e01b81526004016000604051808303818588803b15801561182557600080fd5b505af1158015611839573d6000803e3d6000fd5b50505050505050565b6040516370a0823160e01b815230600482015281906000906001600160a01b038316906370a0823190602401602060405180830381865afa15801561188b573d6000803e3d6000fd5b505050506040513d601f19601f820116820180604052508101906118af9190612497565b90506118c66001600160a01b038316333087611cdd565b6040516370a0823160e01b81523060048201526000906001600160a01b038416906370a0823190602401602060405180830381865afa15801561190d573d6000803e3d6000fd5b505050506040513d601f19601f820116820180604052508101906119319190612497565b90508061193e8387611d4e565b146119a85760405162461bcd60e51b815260206004820152603460248201527f546f6b656e207472616e736665722063616c6c20646964206e6f74207472616e6044820152731cd9995c88195e1c1958dd195908185b5bdd5b9d60621b6064820152608401610306565b5050505050565b6001600160a01b038116611aab57600254604051632e1a7d4d60e01b8152600481018490526001600160a01b0390911690632e1a7d4d90602401600060405180830381600087803b158015611a0357600080fd5b505af1158015611a17573d6000803e3d6000fd5b50505050611a258383611d5a565b61036a57600260009054906101000a90046001600160a01b03166001600160a01b031663d0e30db0836040518263ffffffff1660e01b81526004016000604051808303818588803b158015611a7957600080fd5b505af1158015611a8d573d6000803e3d6000fd5b505060025461036a93506001600160a01b0316915085905084611dd1565b61036a6001600160a01b0382168484611dd1565b6000806000866001600160a01b031663bb3bafd6876040518263ffffffff1660e01b8152600401611af291815260200190565b600060405180830381865afa158015611b0f573d6000803e3d6000fd5b505050506040513d6000823e601f3d908101601f19168201604052611b379190810190612595565b815191935091506000819003611b885760405162461bcd60e51b81526020600482015260166024820152752937bcb0b63a3c902932b1b4b834b2b73a39902d32b960511b6044820152606401610306565b80600003611b9b57859350505050611ca8565b85600080805b84811015611c9e57868181518110611bbb57611bbb61265a565b60200260200101519250858181518110611bd757611bd761265a565b602002602001015191506127108a83611bf09190612686565b611bfa919061269d565b841015611c355760405162461bcd60e51b81526020600482015260096024820152681a5b9cdbdb1d995b9d60ba1b6044820152606401610306565b611c4083838b6119af565b604080516001600160a01b038e81168252602082018e90528516818301526060810184905290517f866e6ef8682ddf5f1025e64dfdb45527077f7be70fa9ef680b7ffd8cf4ab9c509181900360800190a19281900392600101611ba1565b5091955050505050505b949350505050565b6000611cbc8284612686565b90505b92915050565b6000611cbc828461269d565b6000611cbc82846126bf565b6040516001600160a01b0380851660248301528316604482015260648101829052611d489085906323b872dd60e01b906084015b60408051601f198184030181529190526020810180516001600160e01b03166001600160e01b031990931692909217909152611e01565b50505050565b6000611cbc82846126d2565b60408051600080825260208201928390529182916001600160a01b038616918591611d84916126e5565b60006040518083038185875af1925050503d8060008114611dc1576040519150601f19603f3d011682016040523d82523d6000602084013e611dc6565b606091505b509095945050505050565b6040516001600160a01b03831660248201526044810182905261036a90849063a9059cbb60e01b90606401611d11565b6000611e56826040518060400160405280602081526020017f5361666545524332303a206c6f772d6c6576656c2063616c6c206661696c6564815250856001600160a01b0316611ed39092919063ffffffff16565b80519091501561036a5780806020019051810190611e74919061241a565b61036a5760405162461bcd60e51b815260206004820152602a60248201527f5361666545524332303a204552433230206f7065726174696f6e20646964206e6044820152691bdd081cdd58d8d9595960b21b6064820152608401610306565b6060611ee28484600085611eec565b90505b9392505050565b606082471015611f4d5760405162461bcd60e51b815260206004820152602660248201527f416464726573733a20696e73756666696369656e742062616c616e636520666f6044820152651c8818d85b1b60d21b6064820152608401610306565b843b611f9b5760405162461bcd60e51b815260206004820152601d60248201527f416464726573733a2063616c6c20746f206e6f6e2d636f6e74726163740000006044820152606401610306565b600080866001600160a01b03168587604051611fb791906126e5565b60006040518083038185875af1925050503d8060008114611ff4576040519150601f19603f3d011682016040523d82523d6000602084013e611ff9565b606091505b5091509150612009828286612014565b979650505050505050565b60608315612023575081611ee5565b8251156120335782518084602001fd5b8160405162461bcd60e51b81526004016103069190612701565b801515811461205b57600080fd5b50565b6000806040838503121561207157600080fd5b8235915060208301356120838161204d565b809150509250929050565b6001600160a01b038116811461205b57600080fd5b60008060008060008060c087890312156120bc57600080fd5b8635955060208701356120ce8161208e565b9450604087013593506060870135925060808701356120ec8161208e565b915060a08701356120fc8161208e565b809150509295509295509295565b60006020828403121561211c57600080fd5b5035919050565b634e487b7160e01b600052604160045260246000fd5b604051601f8201601f1916810167ffffffffffffffff8111828210171561216257612162612123565b604052919050565b600067ffffffffffffffff82111561218457612184612123565b5060051b60200190565b600082601f83011261219f57600080fd5b813560206121b46121af8361216a565b612139565b82815260059290921b840181019181810190868411156121d357600080fd5b8286015b848110156121ee57803583529183019183016121d7565b509695505050505050565b600082601f83011261220a57600080fd5b813567ffffffffffffffff81111561222457612224612123565b612237601f8201601f1916602001612139565b81815284602083860101111561224c57600080fd5b816020850160208301376000918101602001919091529392505050565b600080600080600060a0868803121561228157600080fd5b853561228c8161208e565b9450602086013561229c8161208e565b9350604086013567ffffffffffffffff808211156122b957600080fd5b6122c589838a0161218e565b945060608801359150808211156122db57600080fd5b6122e789838a0161218e565b935060808801359150808211156122fd57600080fd5b5061230a888289016121f9565b9150509295509295909350565b6001600160e01b031991909116815260200190565b6000806040838503121561233f57600080fd5b50508035926020909101359150565b600080600080600060a0868803121561236657600080fd5b85356123718161208e565b945060208601356123818161208e565b93506040860135925060608601359150608086013567ffffffffffffffff8111156123ab57600080fd5b61230a888289016121f9565b60208082526012908201527114d85b1948191bd95cdb89dd08195e1a5cdd60721b604082015260600190565b6020808252601f908201527f5265656e7472616e637947756172643a207265656e7472616e742063616c6c00604082015260600190565b60006020828403121561242c57600080fd5b8151611ee58161204d565b60006020828403121561244957600080fd5b8151611ee58161208e565b60208082526023908201527f436f6e747261637420416464726573732073686f756c6420626520617070726f6040820152621d995960ea1b606082015260800190565b6000602082840312156124a957600080fd5b5051919050565b60005b838110156124cb5781810151838201526020016124b3565b50506000910152565b600081518084526124ec8160208601602086016124b0565b601f01601f19169290920160200192915050565b6001600160a01b03868116825285166020820152604081018490526060810183905260a060808201819052600090612009908301846124d4565b600082601f83011261254b57600080fd5b8151602061255b6121af8361216a565b82815260059290921b8401810191818101908684111561257a57600080fd5b8286015b848110156121ee578051835291830191830161257e565b600080604083850312156125a857600080fd5b825167ffffffffffffffff808211156125c057600080fd5b818501915085601f8301126125d457600080fd5b815160206125e46121af8361216a565b82815260059290921b8401810191818101908984111561260357600080fd5b948201945b8386101561262a57855161261b8161208e565b82529482019490820190612608565b9188015191965090935050508082111561264357600080fd5b506126508582860161253a565b9150509250929050565b634e487b7160e01b600052603260045260246000fd5b634e487b7160e01b600052601160045260246000fd5b8082028115828204841417611cbf57611cbf612670565b6000826126ba57634e487b7160e01b600052601260045260246000fd5b500490565b81810381811115611cbf57611cbf612670565b80820180821115611cbf57611cbf612670565b600082516126f78184602087016124b0565b9190910192915050565b602081526000611cbc60208301846124d456fea2646970667358221220acc89e066f4f9e57254138e176bfbc18f60a589dcce5882e89e1510acedb934b64736f6c63430008110033",
  "linkReferences": {},
  "deployedLinkReferences": {}
}