{
  "_format": "hh-sol-artifact-1",
  "contractName": "TradeHouse",
  "sourceName": "contracts/mojito/TradeHouse.sol",
  "abi": [
    {
      "inputs": [
        {
          "internalType": "address",
          "name": "_zora",
          "type": "address"
        },
        {
          "internalType": "address",
          "name": "_weth",
          "type": "address"
        }
      ],
      "stateMutability": "nonpayable",
      "type": "constructor"
    },
    {
      "anonymous": false,
      "inputs": [
        {
          "indexed": true,
          "internalType": "uint256",
          "name": "auctionId",
          "type": "uint256"
        },
        {
          "indexed": true,
          "internalType": "uint256",
          "name": "tokenId",
          "type": "uint256"
        },
        {
          "indexed": true,
          "internalType": "address",
          "name": "tokenContract",
          "type": "address"
        },
        {
          "indexed": false,
          "internalType": "bool",
          "name": "Auctionapproved",
          "type": "bool"
        }
      ],
      "name": "AuctionApprovalUpdated",
      "type": "event"
    },
    {
      "anonymous": false,
      "inputs": [
        {
          "indexed": true,
          "internalType": "uint256",
          "name": "auctionId",
          "type": "uint256"
        },
        {
          "indexed": true,
          "internalType": "uint256",
          "name": "tokenId",
          "type": "uint256"
        },
        {
          "indexed": true,
          "internalType": "address",
          "name": "tokenContract",
          "type": "address"
        },
        {
          "indexed": false,
          "internalType": "address",
          "name": "sender",
          "type": "address"
        },
        {
          "indexed": false,
          "internalType": "uint256",
          "name": "value",
          "type": "uint256"
        },
        {
          "indexed": false,
          "internalType": "bool",
          "name": "firstBid",
          "type": "bool"
        },
        {
          "indexed": false,
          "internalType": "bool",
          "name": "extended",
          "type": "bool"
        }
      ],
      "name": "AuctionBid",
      "type": "event"
    },
    {
      "anonymous": false,
      "inputs": [
        {
          "indexed": true,
          "internalType": "uint256",
          "name": "auctionId",
          "type": "uint256"
        },
        {
          "indexed": true,
          "internalType": "uint256",
          "name": "tokenId",
          "type": "uint256"
        },
        {
          "indexed": true,
          "internalType": "address",
          "name": "tokenContract",
          "type": "address"
        },
        {
          "indexed": false,
          "internalType": "address",
          "name": "tokenOwner",
          "type": "address"
        }
      ],
      "name": "AuctionCanceled",
      "type": "event"
    },
    {
      "anonymous": false,
      "inputs": [
        {
          "indexed": true,
          "internalType": "uint256",
          "name": "auctionId",
          "type": "uint256"
        },
        {
          "indexed": true,
          "internalType": "uint256",
          "name": "tokenId",
          "type": "uint256"
        },
        {
          "indexed": true,
          "internalType": "address",
          "name": "tokenContract",
          "type": "address"
        },
        {
          "indexed": false,
          "internalType": "uint256",
          "name": "duration",
          "type": "uint256"
        },
        {
          "indexed": false,
          "internalType": "uint256",
          "name": "reservePrice",
          "type": "uint256"
        },
        {
          "indexed": false,
          "internalType": "address",
          "name": "tokenOwner",
          "type": "address"
        },
        {
          "indexed": false,
          "internalType": "address",
          "name": "curator",
          "type": "address"
        },
        {
          "indexed": false,
          "internalType": "uint8",
          "name": "curatorFeePercentage",
          "type": "uint8"
        },
        {
          "indexed": false,
          "internalType": "address",
          "name": "auctionCurrency",
          "type": "address"
        }
      ],
      "name": "AuctionCreated",
      "type": "event"
    },
    {
      "anonymous": false,
      "inputs": [
        {
          "indexed": true,
          "internalType": "uint256",
          "name": "auctionId",
          "type": "uint256"
        },
        {
          "indexed": true,
          "internalType": "uint256",
          "name": "tokenId",
          "type": "uint256"
        },
        {
          "indexed": true,
          "internalType": "address",
          "name": "tokenContract",
          "type": "address"
        },
        {
          "indexed": false,
          "internalType": "uint256",
          "name": "duration",
          "type": "uint256"
        }
      ],
      "name": "AuctionDurationExtended",
      "type": "event"
    },
    {
      "anonymous": false,
      "inputs": [
        {
          "indexed": true,
          "internalType": "uint256",
          "name": "auctionId",
          "type": "uint256"
        },
        {
          "indexed": true,
          "internalType": "uint256",
          "name": "tokenId",
          "type": "uint256"
        },
        {
          "indexed": true,
          "internalType": "address",
          "name": "tokenContract",
          "type": "address"
        },
        {
          "indexed": false,
          "internalType": "address",
          "name": "tokenOwner",
          "type": "address"
        },
        {
          "indexed": false,
          "internalType": "address",
          "name": "curator",
          "type": "address"
        },
        {
          "indexed": false,
          "internalType": "address",
          "name": "winner",
          "type": "address"
        },
        {
          "indexed": false,
          "internalType": "uint256",
          "name": "amount",
          "type": "uint256"
        },
        {
          "indexed": false,
          "internalType": "uint256",
          "name": "curatorFee",
          "type": "uint256"
        },
        {
          "indexed": false,
          "internalType": "address",
          "name": "auctionCurrency",
          "type": "address"
        }
      ],
      "name": "AuctionEnded",
      "type": "event"
    },
    {
      "anonymous": false,
      "inputs": [
        {
          "indexed": true,
          "internalType": "uint256",
          "name": "auctionId",
          "type": "uint256"
        },
        {
          "indexed": true,
          "internalType": "uint256",
          "name": "tokenId",
          "type": "uint256"
        },
        {
          "indexed": true,
          "internalType": "address",
          "name": "tokenContract",
          "type": "address"
        },
        {
          "indexed": false,
          "internalType": "uint256",
          "name": "reservePrice",
          "type": "uint256"
        }
      ],
      "name": "AuctionReservePriceUpdated",
      "type": "event"
    },
    {
      "anonymous": false,
      "inputs": [
        {
          "indexed": true,
          "internalType": "uint256",
          "name": "auctionId",
          "type": "uint256"
        },
        {
          "indexed": true,
          "internalType": "uint256",
          "name": "tokenId",
          "type": "uint256"
        },
        {
          "indexed": true,
          "internalType": "address",
          "name": "tokenContract",
          "type": "address"
        },
        {
          "indexed": false,
          "internalType": "bool",
          "name": "Auctionapproved",
          "type": "bool"
        }
      ],
      "name": "SaleApprovalUpdated",
      "type": "event"
    },
    {
      "anonymous": false,
      "inputs": [
        {
          "indexed": true,
          "internalType": "uint256",
          "name": "saleId",
          "type": "uint256"
        },
        {
          "indexed": true,
          "internalType": "uint256",
          "name": "tokenId",
          "type": "uint256"
        },
        {
          "indexed": true,
          "internalType": "address",
          "name": "tokenContract",
          "type": "address"
        },
        {
          "indexed": false,
          "internalType": "uint256",
          "name": "amount",
          "type": "uint256"
        },
        {
          "indexed": false,
          "internalType": "address",
          "name": "tokenOwner",
          "type": "address"
        },
        {
          "indexed": false,
          "internalType": "address",
          "name": "curator",
          "type": "address"
        },
        {
          "indexed": false,
          "internalType": "uint8",
          "name": "curatorFeePercentage",
          "type": "uint8"
        },
        {
          "indexed": false,
          "internalType": "address",
          "name": "auctionCurrency",
          "type": "address"
        }
      ],
      "name": "SaleCreated",
      "type": "event"
    },
    {
      "anonymous": false,
      "inputs": [
        {
          "indexed": true,
          "internalType": "uint256",
          "name": "auctionId",
          "type": "uint256"
        },
        {
          "indexed": true,
          "internalType": "uint256",
          "name": "tokenId",
          "type": "uint256"
        },
        {
          "indexed": true,
          "internalType": "address",
          "name": "tokenContract",
          "type": "address"
        },
        {
          "indexed": false,
          "internalType": "address",
          "name": "tokenOwner",
          "type": "address"
        },
        {
          "indexed": false,
          "internalType": "address",
          "name": "curator",
          "type": "address"
        },
        {
          "indexed": false,
          "internalType": "address",
          "name": "Buyer",
          "type": "address"
        },
        {
          "indexed": false,
          "internalType": "uint256",
          "name": "amount",
          "type": "uint256"
        },
        {
          "indexed": false,
          "internalType": "uint256",
          "name": "curatorFee",
          "type": "uint256"
        },
        {
          "indexed": false,
          "internalType": "address",
          "name": "auctionCurrency",
          "type": "address"
        }
      ],
      "name": "SaleEnded",
      "type": "event"
    },
    {
      "stateMutability": "payable",
      "type": "fallback"
    },
    {
      "inputs": [
        {
          "internalType": "uint256",
          "name": "",
          "type": "uint256"
        }
      ],
      "name": "auctions",
      "outputs": [
        {
          "internalType": "uint256",
          "name": "tokenId",
          "type": "uint256"
        },
        {
          "internalType": "address",
          "name": "tokenContract",
          "type": "address"
        },
        {
          "internalType": "bool",
          "name": "approved",
          "type": "bool"
        },
        {
          "internalType": "uint256",
          "name": "amount",
          "type": "uint256"
        },
        {
          "internalType": "uint256",
          "name": "duration",
          "type": "uint256"
        },
        {
          "internalType": "uint256",
          "name": "firstBidTime",
          "type": "uint256"
        },
        {
          "internalType": "uint256",
          "name": "reservePrice",
          "type": "uint256"
        },
        {
          "internalType": "uint8",
          "name": "curatorFeePercentage",
          "type": "uint8"
        },
        {
          "internalType": "address",
          "name": "tokenOwner",
          "type": "address"
        },
        {
          "internalType": "address payable",
          "name": "bidder",
          "type": "address"
        },
        {
          "internalType": "address payable",
          "name": "curator",
          "type": "address"
        },
        {
          "internalType": "address",
          "name": "auctionCurrency",
          "type": "address"
        }
      ],
      "stateMutability": "view",
      "type": "function"
    },
    {
      "inputs": [
        {
          "internalType": "uint256",
          "name": "auctionId",
          "type": "uint256"
        }
      ],
      "name": "buyNow",
      "outputs": [],
      "stateMutability": "payable",
      "type": "function"
    },
    {
      "inputs": [
        {
          "internalType": "uint256",
          "name": "auctionId",
          "type": "uint256"
        }
      ],
      "name": "cancelAuction",
      "outputs": [],
      "stateMutability": "nonpayable",
      "type": "function"
    },
    {
      "inputs": [
        {
          "internalType": "uint256",
          "name": "tokenId",
          "type": "uint256"
        },
        {
          "internalType": "address",
          "name": "tokenContract",
          "type": "address"
        },
        {
          "internalType": "uint256",
          "name": "duration",
          "type": "uint256"
        },
        {
          "internalType": "uint256",
          "name": "reservePrice",
          "type": "uint256"
        },
        {
          "internalType": "address payable",
          "name": "curator",
          "type": "address"
        },
        {
          "internalType": "uint8",
          "name": "curatorFeePercentage",
          "type": "uint8"
        },
        {
          "internalType": "address",
          "name": "auctionCurrency",
          "type": "address"
        }
      ],
      "name": "createAuction",
      "outputs": [
        {
          "internalType": "uint256",
          "name": "",
          "type": "uint256"
        }
      ],
      "stateMutability": "nonpayable",
      "type": "function"
    },
    {
      "inputs": [
        {
          "internalType": "uint256",
          "name": "auctionId",
          "type": "uint256"
        },
        {
          "internalType": "uint256",
          "name": "amount",
          "type": "uint256"
        }
      ],
      "name": "createBid",
      "outputs": [],
      "stateMutability": "payable",
      "type": "function"
    },
    {
      "inputs": [
        {
          "internalType": "uint256",
          "name": "tokenId",
          "type": "uint256"
        },
        {
          "internalType": "address",
          "name": "tokenContract",
          "type": "address"
        },
        {
          "internalType": "uint256",
          "name": "reserveprice",
          "type": "uint256"
        },
        {
          "internalType": "address payable",
          "name": "curator",
          "type": "address"
        },
        {
          "internalType": "uint8",
          "name": "curatorFeePercentage",
          "type": "uint8"
        },
        {
          "internalType": "address",
          "name": "auctionCurrency",
          "type": "address"
        }
      ],
      "name": "createSale",
      "outputs": [
        {
          "internalType": "uint256",
          "name": "",
          "type": "uint256"
        }
      ],
      "stateMutability": "nonpayable",
      "type": "function"
    },
    {
      "inputs": [
        {
          "internalType": "uint256",
          "name": "auctionId",
          "type": "uint256"
        }
      ],
      "name": "endAuction",
      "outputs": [],
      "stateMutability": "nonpayable",
      "type": "function"
    },
    {
      "inputs": [
        {
          "internalType": "uint256",
          "name": "",
          "type": "uint256"
        }
      ],
      "name": "forSale",
      "outputs": [
        {
          "internalType": "bool",
          "name": "",
          "type": "bool"
        }
      ],
      "stateMutability": "view",
      "type": "function"
    },
    {
      "inputs": [],
      "name": "minBidIncrementPercentage",
      "outputs": [
        {
          "internalType": "uint8",
          "name": "",
          "type": "uint8"
        }
      ],
      "stateMutability": "view",
      "type": "function"
    },
    {
      "inputs": [
        {
          "internalType": "uint256",
          "name": "auctionId",
          "type": "uint256"
        },
        {
          "internalType": "bool",
          "name": "approved",
          "type": "bool"
        }
      ],
      "name": "setAuctionApproval",
      "outputs": [],
      "stateMutability": "nonpayable",
      "type": "function"
    },
    {
      "inputs": [
        {
          "internalType": "uint256",
          "name": "auctionId",
          "type": "uint256"
        },
        {
          "internalType": "uint256",
          "name": "reservePrice",
          "type": "uint256"
        }
      ],
      "name": "setAuctionReservePrice",
      "outputs": [],
      "stateMutability": "nonpayable",
      "type": "function"
    },
    {
      "inputs": [],
      "name": "timeBuffer",
      "outputs": [
        {
          "internalType": "uint256",
          "name": "",
          "type": "uint256"
        }
      ],
      "stateMutability": "view",
      "type": "function"
    },
    {
      "inputs": [],
      "name": "wethAddress",
      "outputs": [
        {
          "internalType": "address",
          "name": "",
          "type": "address"
        }
      ],
      "stateMutability": "view",
      "type": "function"
    },
    {
      "inputs": [],
      "name": "zora",
      "outputs": [
        {
          "internalType": "address",
          "name": "",
          "type": "address"
        }
      ],
      "stateMutability": "view",
      "type": "function"
    },
    {
      "stateMutability": "payable",
      "type": "receive"
    }
  ],
  "bytecode": "0x60806040523480156200001157600080fd5b50604051620034dc380380620034dc83398101604081905262000034916200016b565b60016000556040516301ffc9a760e01b81526380ac58cd60e01b60048201526001600160a01b038316906301ffc9a790602401602060405180830381865afa15801562000085573d6000803e3d6000fd5b505050506040513d601f19601f82011682018060405250810190620000ab9190620001a3565b620000fc5760405162461bcd60e51b815260206004820152601d60248201527f446f65736e277420737570706f7274204e465420696e74657266616365000000604482015260640160405180910390fd5b60028054600380546001600160a01b039485166001600160a01b031990911617905561038460015560ff199290931661010002919091166001600160a81b0319909216919091176005179055620001ce565b80516001600160a01b03811681146200016657600080fd5b919050565b600080604083850312156200017f57600080fd5b6200018a836200014e565b91506200019a602084016200014e565b90509250929050565b600060208284031215620001b657600080fd5b81518015158114620001c757600080fd5b9392505050565b6132fe80620001de6000396000f3fe6080604052600436106100d55760003560e01c806396b5a75511610079578063b296024d11610056578063b296024d14610343578063b7751c711461036f578063b9a2de3a14610382578063ec91f2a4146103a257005b806396b5a755146102e3578063973ddb4a14610303578063abd991041461032357005b80634f0e0ef3116100b25780634f0e0ef314610173578063571a26a0146101935780636f8a41e11461029557806375e9249f146102b557005b806308a0f32f146100de578063166f46a7146100f15780632831f2f41461013357005b366100dc57005b005b6100dc6100ec366004612d8f565b6103b8565b3480156100fd57600080fd5b506002546101169061010090046001600160a01b031681565b6040516001600160a01b0390911681526020015b60405180910390f35b34801561013f57600080fd5b5061016361014e366004612d8f565b60056020526000908152604090205460ff1681565b604051901515815260200161012a565b34801561017f57600080fd5b50600354610116906001600160a01b031681565b34801561019f57600080fd5b506102246101ae366004612d8f565b6004602081905260009182526040909120805460018201546002830154600384015494840154600585015460068601546007870154600888015460099098015496986001600160a01b038088169960ff600160a01b9099048916999798929792851694610100900482169382169290821691168c565b604080519c8d526001600160a01b039b8c1660208e0152991515998c019990995260608b019790975260808a019590955260a089019390935260c088019190915260ff1660e0870152841661010086015283166101208501528216610140840152166101608201526101800161012a565b3480156102a157600080fd5b506100dc6102b0366004612da8565b6106f6565b3480156102c157600080fd5b506102d56102d0366004612df8565b610854565b60405190815260200161012a565b3480156102ef57600080fd5b506100dc6102fe366004612d8f565b610d7d565b34801561030f57600080fd5b506100dc61031e366004612e7f565b610eba565b34801561032f57600080fd5b506102d561033e366004612eaf565b610f8b565b34801561034f57600080fd5b5060025461035d9060ff1681565b60405160ff909116815260200161012a565b6100dc61037d366004612da8565b6114c6565b34801561038e57600080fd5b506100dc61039d366004612d8f565b611aed565b3480156103ae57600080fd5b506102d560015481565b806103c281611cb7565b6103e75760405162461bcd60e51b81526004016103de90612f1d565b60405180910390fd5b6000828152600460205260409020600101548290600160a01b900460ff166104215760405162461bcd60e51b81526004016103de90612f4c565b6002600054036104435760405162461bcd60e51b81526004016103de90612f8f565b600260009081558381526005602052604090205460ff1661049b5760405162461bcd60e51b8152602060048201526012602482015271746f6b656e206e6f7420666f722073616c6560701b60448201526064016103de565b60008381526004602052604090206007810180546001600160a01b031916331790556002546001909101546101009091046001600160a01b0390811691160361062c57600260019054906101000a90046001600160a01b03166001600160a01b031663a1794bcd6040518163ffffffff1660e01b81526004016020604051808303816000875af1158015610533573d6000803e3d6000fd5b505050506040513d601f19601f820116820180604052508101906105579190612fc6565b600084815260046020819052604091829020805460059091015492516302e8fe1360e01b81529182015260248101919091526001600160a01b0391909116906302e8fe1390604401602060405180830381865afa1580156105bc573d6000803e3d6000fd5b505050506040513d601f19601f820116820180604052508101906105e09190612fe3565b61062c5760405162461bcd60e51b815260206004820152601f60248201527f42696420696e76616c696420666f722073686172652073706c697474696e670060448201526064016103de565b6000838152600460205260409020600581015460099091015461065891906001600160a01b0316611cdc565b600083815260046020526040902060050154610675908490611f2e565b505060009081526004602081905260408220828155600180820180546001600160a81b03199081169091556002830185905560038301859055928201849055600582018490556006820180549093169092556007810180546001600160a01b0319908116909155600882018054821690556009909101805490911690559055565b8161070081611cb7565b61071c5760405162461bcd60e51b81526004016103de90612f1d565b6000838152600460208190526040909120015483901561074e5760405162461bcd60e51b81526004016103de90613000565b6000848152600460205260409020600801546001600160a01b0316331480610794575060008481526004602052604090206006015461010090046001600160a01b031633145b6107ef5760405162461bcd60e51b815260206004820152602660248201527f4d7573742062652061756374696f6e2063757261746f72206f7220746f6b656e6044820152651037bbb732b960d11b60648201526084016103de565b600084815260046020908152604091829020600581018690556001810154905492518681526001600160a01b03909116929187917f01e6a465ec1edd582d333147c7b7edf5998164f2cf2269dcb9c93d46c67bd317910160405180910390a450505050565b60006002600054036108785760405162461bcd60e51b81526004016103de90612f8f565b60026000556040516301ffc9a760e01b81526380ac58cd60e01b60048201526001600160a01b038816906301ffc9a790602401602060405180830381865afa1580156108c8573d6000803e3d6000fd5b505050506040513d601f19601f820116820180604052508101906108ec9190612fe3565b6109085760405162461bcd60e51b81526004016103de90613037565b60648360ff161061092b5760405162461bcd60e51b81526004016103de90613086565b6040516331a9108f60e11b8152600481018990526000906001600160a01b03891690636352211e90602401602060405180830381865afa158015610973573d6000803e3d6000fd5b505050506040513d601f19601f820116820180604052508101906109979190612fc6565b60405163020604bf60e21b8152600481018b90529091506001600160a01b0389169063081812fc90602401602060405180830381865afa1580156109df573d6000803e3d6000fd5b505050506040513d601f19601f82011682018060405250810190610a039190612fc6565b6001600160a01b0316336001600160a01b03161480610a2a5750336001600160a01b038216145b610a465760405162461bcd60e51b81526004016103de906130d0565b6000610a5160065490565b90506040518061018001604052808b81526020018a6001600160a01b0316815260200160001515815260200160008152602001898152602001600081526020018881526020018660ff168152602001836001600160a01b0316815260200160006001600160a01b03168152602001876001600160a01b03168152602001856001600160a01b0316815250600460008381526020019081526020016000206000820151816000015560208201518160010160006101000a8154816001600160a01b0302191690836001600160a01b0316021790555060408201518160010160146101000a81548160ff021916908315150217905550606082015181600201556080820151816003015560a0820151816004015560c0820151816005015560e08201518160060160006101000a81548160ff021916908360ff1602179055506101008201518160060160016101000a8154816001600160a01b0302191690836001600160a01b031602179055506101208201518160070160006101000a8154816001600160a01b0302191690836001600160a01b031602179055506101408201518160080160006101000a8154816001600160a01b0302191690836001600160a01b031602179055506101608201518160090160006101000a8154816001600160a01b0302191690836001600160a01b03160217905550905050886001600160a01b03166323b872dd83308d6040518463ffffffff1660e01b8152600401610c799392919061311d565b600060405180830381600087803b158015610c9357600080fd5b505af1158015610ca7573d6000803e3d6000fd5b50505050610cb9600680546001019055565b60408051898152602081018990526001600160a01b0384811682840152888116606083015260ff8816608083015286811660a08301529151918b16918c9184917f38c0b9047bd28fac9f420b967f6caf4a6260ba09d18940a9a502578a480c09009181900360c00190a46000818152600460205260409020600801546001600160a01b03161580610d5b5750816001600160a01b0316866001600160a01b0316145b15610d6b57610d6b8160016122a2565b60016000559998505050505050505050565b80610d8781611cb7565b610da35760405162461bcd60e51b81526004016103de90612f1d565b60008281526004602081905260409091200154829015610dd55760405162461bcd60e51b81526004016103de90613000565b600260005403610df75760405162461bcd60e51b81526004016103de90612f8f565b600260009081558381526004602052604090206006015461010090046001600160a01b0316331480610e4257506000838152600460205260409020600801546001600160a01b031633145b610ea75760405162461bcd60e51b815260206004820152603060248201527f43616e206f6e6c792062652063616c6c65642062792061756374696f6e20637260448201526f32b0ba37b91037b91031bab930ba37b960811b60648201526084016103de565b610eb0836123af565b5050600160005550565b81610ec481611cb7565b610ee05760405162461bcd60e51b81526004016103de90612f1d565b60008381526004602081905260409091200154839015610f125760405162461bcd60e51b81526004016103de90613000565b6000848152600460205260409020600801546001600160a01b03163314610f7b5760405162461bcd60e51b815260206004820152601760248201527f4d7573742062652061756374696f6e2063757261746f7200000000000000000060448201526064016103de565b610f8584846122a2565b50505050565b6000600260005403610faf5760405162461bcd60e51b81526004016103de90612f8f565b60026000556040516301ffc9a760e01b81526380ac58cd60e01b60048201526001600160a01b038716906301ffc9a790602401602060405180830381865afa158015610fff573d6000803e3d6000fd5b505050506040513d601f19601f820116820180604052508101906110239190612fe3565b61103f5760405162461bcd60e51b81526004016103de90613037565b60648360ff16106110625760405162461bcd60e51b81526004016103de90613086565b6040516331a9108f60e11b8152600481018890526000906001600160a01b03881690636352211e90602401602060405180830381865afa1580156110aa573d6000803e3d6000fd5b505050506040513d601f19601f820116820180604052508101906110ce9190612fc6565b60405163020604bf60e21b8152600481018a90529091506001600160a01b0388169063081812fc90602401602060405180830381865afa158015611116573d6000803e3d6000fd5b505050506040513d601f19601f8201168201806040525081019061113a9190612fc6565b6001600160a01b0316336001600160a01b031614806111615750336001600160a01b038216145b61117d5760405162461bcd60e51b81526004016103de906130d0565b600061118860065490565b90506040518061018001604052808a8152602001896001600160a01b031681526020016000151581526020016000815260200160008152602001600081526020018881526020018660ff168152602001836001600160a01b0316815260200160006001600160a01b03168152602001876001600160a01b03168152602001856001600160a01b0316815250600460008381526020019081526020016000206000820151816000015560208201518160010160006101000a8154816001600160a01b0302191690836001600160a01b0316021790555060408201518160010160146101000a81548160ff021916908315150217905550606082015181600201556080820151816003015560a0820151816004015560c0820151816005015560e08201518160060160006101000a81548160ff021916908360ff1602179055506101008201518160060160016101000a8154816001600160a01b0302191690836001600160a01b031602179055506101208201518160070160006101000a8154816001600160a01b0302191690836001600160a01b031602179055506101408201518160080160006101000a8154816001600160a01b0302191690836001600160a01b031602179055506101608201518160090160006101000a8154816001600160a01b0302191690836001600160a01b03160217905550905050876001600160a01b03166323b872dd83308c6040518463ffffffff1660e01b81526004016113b19392919061311d565b600060405180830381600087803b1580156113cb57600080fd5b505af11580156113df573d6000803e3d6000fd5b5050506000828152600560205260409020805460ff191660011790555061140a600680546001019055565b604080518881526001600160a01b0384811660208301528881168284015260ff8816606083015286811660808301529151918a16918b9184917f3258c1331036d3f726a3692c39109bffbbb3ae200ddf5d243cd2371432f42b009181900360a00190a46000818152600460205260409020600801546001600160a01b031615806114a55750816001600160a01b0316866001600160a01b0316145b156114b5576114b58160016122a2565b600160005598975050505050505050565b816114d081611cb7565b6114ec5760405162461bcd60e51b81526004016103de90612f1d565b6000838152600460205260409020600101548390600160a01b900460ff166115265760405162461bcd60e51b81526004016103de90612f4c565b6002600054036115485760405162461bcd60e51b81526004016103de90612f8f565b600260009081558481526005602052604090205460ff16156115a25760405162461bcd60e51b8152602060048201526013602482015272746f6b656e206f6e6c7920666f722073616c6560681b60448201526064016103de565b600084815260046020819052604090912060078101549101546001600160a01b039091169015806115f35750600085815260046020819052604090912060038101549101546115f09161250b565b42105b6116315760405162461bcd60e51b815260206004820152600f60248201526e105d58dd1a5bdb88195e1c1a5c9959608a1b60448201526064016103de565b6000858152600460205260409020600501548410156116925760405162461bcd60e51b815260206004820152601f60248201527f4d7573742073656e64206174206c65617374207265736572766550726963650060448201526064016103de565b600280546000878152600460205260409020909101546116de916116c6916064916116c0919060ff16612520565b9061252c565b6000878152600460205260409020600201549061250b565b841015611755576040805162461bcd60e51b81526020600482015260248101919091527f4d7573742073656e64206d6f7265207468616e206c617374206269642062792060448201527f6d696e426964496e6372656d656e7450657263656e7461676520616d6f756e7460648201526084016103de565b6002546000868152600460205260409020600101546001600160a01b0361010090920482169116036118ca57600260019054906101000a90046001600160a01b03166001600160a01b031663a1794bcd6040518163ffffffff1660e01b81526004016020604051808303816000875af11580156117d6573d6000803e3d6000fd5b505050506040513d601f19601f820116820180604052508101906117fa9190612fc6565b6000868152600460208190526040918290205491516302e8fe1360e01b815290810191909152602481018690526001600160a01b0391909116906302e8fe1390604401602060405180830381865afa15801561185a573d6000803e3d6000fd5b505050506040513d601f19601f8201168201806040525081019061187e9190612fe3565b6118ca5760405162461bcd60e51b815260206004820152601f60248201527f42696420696e76616c696420666f722073686172652073706c697474696e670060448201526064016103de565b60008581526004602081905260408220015490036118fc57600085815260046020819052604090912042910155611938565b6001600160a01b0381161561193857600085815260046020526040902060028101546009909101546119389183916001600160a01b0316612538565b60008581526004602052604090206009015461195e9085906001600160a01b0316611cdc565b60008581526004602081905260408220600281018790556007810180546001600160a01b03191633179055600154600382015491909201546119ab9142916119a59161250b565b9061264d565b1015611a0a57600086815260046020819052604090912060038101549101546119f2906119eb906119e29042906119a5908661250b565b6001549061264d565b829061250b565b60008881526004602052604090206003015550600190505b6000868152600460209081526040918290206001810154905483513381529283018990526001600160a01b03868116159484019490945284151560608401529216919088907fda6b779568630ce5e5658b317174df474d5b335541ed9471bd8424a017f3be6d9060800160405180910390a48015611ae0576000868152600460209081526040918290206001810154815460039092015493519384526001600160a01b031692909189917f55cf2b31608fbe49fa31cd0285b6b6cce46f56d26c8c59980a2af5a0ffbdd5db910160405180910390a45b5050600160005550505050565b80611af781611cb7565b611b135760405162461bcd60e51b81526004016103de90612f1d565b600260005403611b355760405162461bcd60e51b81526004016103de90612f8f565b60026000908155828152600460208190526040822001549003611ba95760405162461bcd60e51b815260206004820152602660248201527f41756374696f6e206861736e277420626567756e206f7220546f6b656e20666f604482015265722073616c6560d01b60648201526084016103de565b60008281526004602081905260409091206003810154910154611bcb9161250b565b421015611c1a5760405162461bcd60e51b815260206004820152601860248201527f41756374696f6e206861736e277420636f6d706c65746564000000000000000060448201526064016103de565b600082815260046020526040902060020154611c37908390611f2e565b5060009081526004602081905260408220828155600180820180546001600160a81b03199081169091556002830185905560038301859055928201849055600582018490556006820180549093169092556007810180546001600160a01b0319908116909155600882018054821690556009909101805490911690559055565b60009081526004602052604090206006015461010090046001600160a01b0316151590565b6001600160a01b038116611dc157813414611d545760405162461bcd60e51b815260206004820152603260248201527f53656e74204554482056616c756520646f6573206e6f74206d617463682073706044820152711958da599a595908189a5908185b5bdd5b9d60721b60648201526084016103de565b600360009054906101000a90046001600160a01b03166001600160a01b031663d0e30db0836040518263ffffffff1660e01b81526004016000604051808303818588803b158015611da457600080fd5b505af1158015611db8573d6000803e3d6000fd5b50505050505050565b6040516370a0823160e01b815230600482015281906000906001600160a01b038316906370a0823190602401602060405180830381865afa158015611e0a573d6000803e3d6000fd5b505050506040513d601f19601f82011682018060405250810190611e2e9190613141565b9050611e456001600160a01b038316333087612659565b6040516370a0823160e01b81523060048201526000906001600160a01b038416906370a0823190602401602060405180830381865afa158015611e8c573d6000803e3d6000fd5b505050506040513d601f19601f82011682018060405250810190611eb09190613141565b905080611ebd838761250b565b14611f275760405162461bcd60e51b815260206004820152603460248201527f546f6b656e207472616e736665722063616c6c20646964206e6f74207472616e6044820152731cd9995c88195e1c1958dd195908185b5bdd5b9d60621b60648201526084016103de565b5050505050565b6000828152600460205260408120600901546001600160a01b031615611f6e576000838152600460205260409020600901546001600160a01b0316611f7b565b6003546001600160a01b03165b6002546000858152600460205260408120600101549293509184916001600160a01b03610100909104811691160361200c57600080611fba87846126b1565b935091508290506001821515146120055760008781526004602052604090206007810154600990910154611ffc916001600160a01b0390811691869116612538565b611db8876123af565b50506120bf565b6000858152600460208190526040918290206001810154600782015491549351632142170760e11b81526001600160a01b03918216946342842e0e9461205694309416920161311d565b600060405180830381600087803b15801561207057600080fd5b505af1925050508015612081575060015b6120bf57600085815260046020526040902060078101546009909101546120b6916001600160a01b0390811691849116612538565b611f27856123af565b6000858152600460205260409020600801546001600160a01b03161561214657600085815260046020526040902060060154612106906064906116c090849060ff16612520565b9150612112818361264d565b60008681526004602052604090206008810154600990910154919250612146916001600160a01b0391821691859116612538565b6000858152600460205260409020600681015460099091015461217c916001600160a01b03610100909104811691849116612538565b600085815260046020526040812060030154900361221a5760008581526004602052604090819020600181015481546006830154600884015460079094015494516001600160a01b039384169592948b947f140c8f01a6e8da887d0a30f9f0666a8aa1cf7ad6a8010f24f7d4a7d8b13453479461220d9461010090048216939282169291169089908b908d9061315a565b60405180910390a4611f27565b60008581526004602052604090819020600181015481546006830154600884015460079094015494516001600160a01b039384169592948b947f4f35fb3ea0081b3ccbe8df613cab0f9e1694d50a025e0aa09b88a86a3d07c2de946122939461010090048216939282169291169089908b908d9061315a565b60405180910390a45050505050565b6000828152600460205260409020600301541561233a5760008281526004602052604090819020600181018054841515600160a01b0260ff60a01b1982168117909255915492516001600160a01b039182169190921617919084907fec35d321ab4972475f131e184c0c0fe52c5a58a29d74f7db2969af2f6dd93a1f9061232e90861515815260200190565b60405180910390a45050565b60008281526004602052604090819020600181018054841515600160a01b0260ff60a01b1982168117909255915492516001600160a01b039182169190921617919084907f1d3f63adc019ed54e9819aba7366c6f52fd1af727c27e39fdfbab8ffe67c060e9061232e90861515815260200190565b6000818152600460208190526040918290206006810154600182015491549351632142170760e11b81526101009091046001600160a01b03908116949216926342842e0e926124039230928792910161311d565b600060405180830381600087803b15801561241d57600080fd5b505af1158015612431573d6000803e3d6000fd5b5050506000838152600460209081526040918290206001810154905492516001600160a01b038681168252909116935085917f6091afcbe8514686c43b167ca4f1b03e24446d29d8490d496e438f8a2c763439910160405180910390a450600090815260046020819052604082208281556001810180546001600160a81b03199081169091556002820184905560038201849055918101839055600581019290925560068201805490911690556007810180546001600160a01b031990811690915560088201805482169055600990910180549091169055565b600061251782846131a8565b90505b92915050565b600061251782846131bb565b600061251782846131d2565b6001600160a01b03811661263957600354604051632e1a7d4d60e01b8152600481018490526001600160a01b0390911690632e1a7d4d90602401600060405180830381600087803b15801561258c57600080fd5b505af11580156125a0573d6000803e3d6000fd5b505050506125ae8383612a9c565b61263457600360009054906101000a90046001600160a01b03166001600160a01b031663d0e30db0836040518263ffffffff1660e01b81526004016000604051808303818588803b15801561260257600080fd5b505af1158015612616573d6000803e3d6000fd5b505060035461263493506001600160a01b0316915085905084612b13565b505050565b6126346001600160a01b0382168484612b13565b600061251782846131f4565b610f85846323b872dd60e01b85858560405160240161267a9392919061311d565b60408051601f198184030181529190526020810180516001600160e01b03166001600160e01b031990931692909217909152612b43565b600082815260046020526040812060090154819081906001600160a01b0316156126f5576000858152600460205260409020600901546001600160a01b0316612702565b6003546001600160a01b03165b6040805160a0810182528681526001600160a01b038084166020808401829052308486015260008b815260048083528682206007015485166060870152865180840188528281526080870152600254875163a1794bcd60e01b815297519899509597939663095ea7b39661010090049095169463a1794bcd948183019493909291839003909101908290875af11580156127a0573d6000803e3d6000fd5b505050506040513d601f19601f820116820180604052508101906127c49190612fc6565b835160405160e084901b6001600160e01b03191681526001600160a01b03909216600483015260248201526044016020604051808303816000875af1158015612811573d6000803e3d6000fd5b505050506040513d601f19601f820116820180604052508101906128359190612fe3565b50600254600087815260046020819052604091829020549151632dfb121160e11b81526101009093046001600160a01b031692635bf624229261287c929091869101613207565b600060405180830381600087803b15801561289657600080fd5b505af11580156128aa573d6000803e3d6000fd5b50506040516370a0823160e01b8152306004820152600092506001600160a01b03851691506370a0823190602401602060405180830381865afa1580156128f5573d6000803e3d6000fd5b505050506040513d601f19601f820116820180604052508101906129199190613141565b60025460008981526004602081905260409182902054915163ba33939960e01b81529394506101009092046001600160a01b03169263ba339399926129619291879101613207565b600060405180830381600087803b15801561297b57600080fd5b505af192505050801561298c575060015b612a135760025460008881526004602081905260409182902054915163b320f45960e01b8152908101919091526101009091046001600160a01b03169063b320f45990602401600060405180830381600087803b1580156129ec57600080fd5b505af1158015612a00573d6000803e3d6000fd5b5050505060008094509450505050612a95565b6040516370a0823160e01b81523060048201526000906001600160a01b038516906370a0823190602401602060405180830381865afa158015612a5a573d6000803e3d6000fd5b505050506040513d601f19601f82011682018060405250810190612a7e9190613141565b90506001612a8c828461264d565b95509550505050505b9250929050565b60408051600080825260208201928390529182916001600160a01b038616918591612ac691613279565b60006040518083038185875af1925050503d8060008114612b03576040519150601f19603f3d011682016040523d82523d6000602084013e612b08565b606091505b509095945050505050565b6040516001600160a01b03831660248201526044810182905261263490849063a9059cbb60e01b9060640161267a565b6000612b98826040518060400160405280602081526020017f5361666545524332303a206c6f772d6c6576656c2063616c6c206661696c6564815250856001600160a01b0316612c159092919063ffffffff16565b8051909150156126345780806020019051810190612bb69190612fe3565b6126345760405162461bcd60e51b815260206004820152602a60248201527f5361666545524332303a204552433230206f7065726174696f6e20646964206e6044820152691bdd081cdd58d8d9595960b21b60648201526084016103de565b6060612c248484600085612c2e565b90505b9392505050565b606082471015612c8f5760405162461bcd60e51b815260206004820152602660248201527f416464726573733a20696e73756666696369656e742062616c616e636520666f6044820152651c8818d85b1b60d21b60648201526084016103de565b843b612cdd5760405162461bcd60e51b815260206004820152601d60248201527f416464726573733a2063616c6c20746f206e6f6e2d636f6e747261637400000060448201526064016103de565b600080866001600160a01b03168587604051612cf99190613279565b60006040518083038185875af1925050503d8060008114612d36576040519150601f19603f3d011682016040523d82523d6000602084013e612d3b565b606091505b5091509150612d4b828286612d56565b979650505050505050565b60608315612d65575081612c27565b825115612d755782518084602001fd5b8160405162461bcd60e51b81526004016103de9190613295565b600060208284031215612da157600080fd5b5035919050565b60008060408385031215612dbb57600080fd5b50508035926020909101359150565b6001600160a01b0381168114612ddf57600080fd5b50565b803560ff81168114612df357600080fd5b919050565b600080600080600080600060e0888a031215612e1357600080fd5b873596506020880135612e2581612dca565b955060408801359450606088013593506080880135612e4381612dca565b9250612e5160a08901612de2565b915060c0880135612e6181612dca565b8091505092959891949750929550565b8015158114612ddf57600080fd5b60008060408385031215612e9257600080fd5b823591506020830135612ea481612e71565b809150509250929050565b60008060008060008060c08789031215612ec857600080fd5b863595506020870135612eda81612dca565b9450604087013593506060870135612ef181612dca565b9250612eff60808801612de2565b915060a0870135612f0f81612dca565b809150509295509295509295565b602080825260159082015274105d58dd1a5bdb88191bd95cdb89dd08195e1a5cdd605a1b604082015260600190565b60208082526023908201527f41756374696f6e206d75737420626520617070726f76656420627920637572616040820152623a37b960e91b606082015260800190565b6020808252601f908201527f5265656e7472616e637947756172643a207265656e7472616e742063616c6c00604082015260600190565b600060208284031215612fd857600080fd5b8151612c2781612dca565b600060208284031215612ff557600080fd5b8151612c2781612e71565b6020808252601b908201527f41756374696f6e2068617320616c726561647920737461727465640000000000604082015260600190565b6020808252602f908201527f746f6b656e436f6e747261637420646f6573206e6f7420737570706f7274204560408201526e524337323120696e7465726661636560881b606082015260800190565b6020808252602a908201527f63757261746f7246656550657263656e74616765206d757374206265206c6573604082015269073207468616e203130360b41b606082015260800190565b6020808252602d908201527f43616c6c6572206d75737420626520617070726f766564206f72206f776e657260408201526c08199bdc881d1bdad95b881a59609a1b606082015260800190565b6001600160a01b039384168152919092166020820152604081019190915260600190565b60006020828403121561315357600080fd5b5051919050565b6001600160a01b039687168152948616602086015292851660408501526060840191909152608083015290911660a082015260c00190565b634e487b7160e01b600052601160045260246000fd5b8082018082111561251a5761251a613192565b808202811582820484141761251a5761251a613192565b6000826131ef57634e487b7160e01b600052601260045260246000fd5b500490565b8181038181111561251a5761251a613192565b91825280516020808401919091528101516001600160a01b0390811660408085019190915282015181166060808501919091528201511660808084019190915201515160a082015260c00190565b60005b83811015613270578181015183820152602001613258565b50506000910152565b6000825161328b818460208701613255565b9190910192915050565b60208152600082518060208401526132b4816040850160208701613255565b601f01601f1916919091016040019291505056fea264697066735822122044a4fe84432aa6490fe826807e6db6cfd285f37f9e760cc428ee6888d9cceb2264736f6c63430008110033",
  "linkReferences": {},
  "deployedLinkReferences": {}
}