{
  "_format": "hh-sol-artifact-1",
  "contractName": "RoyaltyEngineV1",
  "sourceName": "contracts/manifold/royalty-registry/RoyaltyEngineV1.sol",
  "abi": [
    {
      "anonymous": false,
      "inputs": [
        {
          "indexed": true,
          "internalType": "address",
          "name": "previousOwner",
          "type": "address"
        },
        {
          "indexed": true,
          "internalType": "address",
          "name": "newOwner",
          "type": "address"
        }
      ],
      "name": "OwnershipTransferred",
      "type": "event"
    },
    {
      "inputs": [
        {
          "internalType": "address",
          "name": "tokenAddress",
          "type": "address"
        },
        {
          "internalType": "uint256",
          "name": "tokenId",
          "type": "uint256"
        },
        {
          "internalType": "uint256",
          "name": "value",
          "type": "uint256"
        }
      ],
      "name": "getRoyalty",
      "outputs": [
        {
          "internalType": "address payable[]",
          "name": "recipients",
          "type": "address[]"
        },
        {
          "internalType": "uint256[]",
          "name": "amounts",
          "type": "uint256[]"
        }
      ],
      "stateMutability": "nonpayable",
      "type": "function"
    },
    {
      "inputs": [
        {
          "internalType": "address",
          "name": "tokenAddress",
          "type": "address"
        },
        {
          "internalType": "uint256",
          "name": "tokenId",
          "type": "uint256"
        },
        {
          "internalType": "uint256",
          "name": "value",
          "type": "uint256"
        }
      ],
      "name": "getRoyaltyView",
      "outputs": [
        {
          "internalType": "address payable[]",
          "name": "recipients",
          "type": "address[]"
        },
        {
          "internalType": "uint256[]",
          "name": "amounts",
          "type": "uint256[]"
        }
      ],
      "stateMutability": "view",
      "type": "function"
    },
    {
      "inputs": [
        {
          "internalType": "address",
          "name": "royaltyRegistry_",
          "type": "address"
        }
      ],
      "name": "initialize",
      "outputs": [],
      "stateMutability": "nonpayable",
      "type": "function"
    },
    {
      "inputs": [],
      "name": "owner",
      "outputs": [
        {
          "internalType": "address",
          "name": "",
          "type": "address"
        }
      ],
      "stateMutability": "view",
      "type": "function"
    },
    {
      "inputs": [],
      "name": "renounceOwnership",
      "outputs": [],
      "stateMutability": "nonpayable",
      "type": "function"
    },
    {
      "inputs": [],
      "name": "royaltyRegistry",
      "outputs": [
        {
          "internalType": "address",
          "name": "",
          "type": "address"
        }
      ],
      "stateMutability": "view",
      "type": "function"
    },
    {
      "inputs": [
        {
          "internalType": "bytes4",
          "name": "interfaceId",
          "type": "bytes4"
        }
      ],
      "name": "supportsInterface",
      "outputs": [
        {
          "internalType": "bool",
          "name": "",
          "type": "bool"
        }
      ],
      "stateMutability": "view",
      "type": "function"
    },
    {
      "inputs": [
        {
          "internalType": "address",
          "name": "newOwner",
          "type": "address"
        }
      ],
      "name": "transferOwnership",
      "outputs": [],
      "stateMutability": "nonpayable",
      "type": "function"
    }
  ],
  "bytecode": "0x608060405234801561001057600080fd5b50611d0a806100206000396000f3fe608060405234801561001057600080fd5b50600436106100885760003560e01c8063a11b07121161005b578063a11b071214610105578063c4d66de814610118578063f2fde38b1461012b578063f533b8021461013e57600080fd5b806301ffc9a71461008d5780633e104014146100b5578063715018a6146100d65780638da5cb5b146100e0575b600080fd5b6100a061009b3660046116ec565b610151565b60405190151581526020015b60405180910390f35b6100c86100c336600461172b565b610188565b6040516100ac929190611760565b6100de6101a6565b005b6033546001600160a01b03165b6040516001600160a01b0390911681526020016100ac565b6066546100ed906001600160a01b031681565b6100de6101263660046117e4565b610211565b6100de6101393660046117e4565b6102bb565b6100c861014c36600461172b565b610386565b60006001600160e01b03198216636591fc0b60e11b148061018257506301ffc9a760e01b6001600160e01b03198316145b92915050565b6060806101968585856103de565b5092989197509095505050505050565b6033546001600160a01b031633146102055760405162461bcd60e51b815260206004820181905260248201527f4f776e61626c653a2063616c6c6572206973206e6f7420746865206f776e657260448201526064015b60405180910390fd5b61020f60006113e2565b565b600054610100900460ff168061022a575060005460ff16155b6102465760405162461bcd60e51b81526004016101fc90611801565b600054610100900460ff16158015610268576000805461ffff19166101011790555b610270611434565b6102818263220258eb60e21b6114a8565b61028a57600080fd5b606680546001600160a01b0319166001600160a01b03841617905580156102b7576000805461ff00191690555b5050565b6033546001600160a01b031633146103155760405162461bcd60e51b815260206004820181905260248201527f4f776e61626c653a2063616c6c6572206973206e6f7420746865206f776e657260448201526064016101fc565b6001600160a01b03811661037a5760405162461bcd60e51b815260206004820152602660248201527f4f776e61626c653a206e6577206f776e657220697320746865207a65726f206160448201526564647265737360d01b60648201526084016101fc565b610383816113e2565b50565b60608060008060006103998888886103de565b93985091965094509250905080156103d3576001600160a01b0382166000908152606560205260409020805461ffff191661ffff85161790555b505050935093915050565b60665460405163de5488af60e01b81526001600160a01b03858116600483015260609283926000928392839291169063de5488af90602401602060405180830381865afa158015610433573d6000803e3d6000fd5b505050506040513d601f19601f82011682018060405250810190610457919061184f565b6001600160a01b03811660009081526065602052604081205460010b9450909250831380159061048c5750600019600184900b135b15610d03575060016001600160a01b0388167341a322b28d0ff354040e2cbc676f0320d8c8850d14806104db57506001600160a01b03881673b932a70a57673d89f4acffbe830e8ed7f75fb9e0145b1561068857604051632e17b5f960e21b81526001600160a01b0389166004820152602481018890527317b0c8564e53f22364a6c8de6f7ca5ce9bea4e5d9063b85ed7e490604401602060405180830381865afa92505050801561055b575060408051601f3d908101601f191682019092526105589181019061184f565b60015b156106885760405163860110f560e01b81526001600160a01b038a16600482015260248101899052604481018890527317b0c8564e53f22364a6c8de6f7ca5ce9bea4e5d9063860110f590606401602060405180830381865afa9250505080156105e2575060408051601f3d908101601f191682019092526105df9181019061186c565b60015b156106865760408051600180825281830190925290602080830190803683375050604080516001808252818301909252929950905060208083019080368337019050509550818760008151811061063b5761063b61189b565b60200260200101906001600160a01b031690816001600160a01b031681525050808660008151811061066f5761066f61189b565b602090810291909101015250600693506113d79050565b505b604051635d9dd7eb60e11b8152600481018890526001600160a01b0383169063bb3bafd690602401600060405180830381865afa9250505080156106ee57506040513d6000823e601f3d908101601f191682016040526106eb91908101906119fe565b60015b1561071b57805182511461070157600080fd5b8161070c89836114cb565b600196509650965050506113d7565b60405163656cb66560e11b8152600481018890526001600160a01b0383169063cad96cca90602401600060405180830381865afa92505050801561078157506040513d6000823e601f3d908101601f1916820160405261077e9190810190611a62565b60015b1561093157805167ffffffffffffffff8111156107a0576107a0611885565b6040519080825280602002602001820160405280156107c9578160200160208202803683370190505b509550805167ffffffffffffffff8111156107e6576107e6611885565b60405190808252806020026020018201604052801561080f578160200160208202803683370190505b5094506000805b8251811015610905578281815181106108315761083161189b565b60200260200101516000015188828151811061084f5761084f61189b565b60200260200101906001600160a01b031690816001600160a01b0316815250506127108382815181106108845761088461189b565b6020026020010151602001516001600160601b03168a6108a49190611b4e565b6108ae9190611b65565b8782815181106108c0576108c061189b565b6020026020010181815250508681815181106108de576108de61189b565b6020026020010151826108f19190611b87565b9150806108fd81611b9a565b915050610816565b508781106109255760405162461bcd60e51b81526004016101fc90611bb3565b50600393506113d79050565b60405163b9c4d9fb60e01b8152600481018890526001600160a01b0383169063b9c4d9fb90602401600060405180830381865afa92505050801561099757506040513d6000823e601f3d908101601f191682016040526109949190810190611be3565b60015b15610aa15760405163b9c4d9fb60e01b8152600481018990526001600160a01b0384169063b9c4d9fb90602401600060405180830381865afa1580156109e1573d6000803e3d6000fd5b505050506040513d6000823e601f3d908101601f19168201604052610a099190810190611be3565b604051630ebd4c7f60e01b8152600481018a90529091506001600160a01b03841690630ebd4c7f90602401600060405180830381865afa925050508015610a7257506040513d6000823e601f3d908101601f19168201604052610a6f9190810190611c20565b60015b15610a9f578051825114610a8557600080fd5b81610a9089836114cb565b600296509650965050506113d7565b505b6040516335681b5360e21b8152600481018890526001600160a01b0383169063d5a06d4c90602401600060405180830381865afa925050508015610b0757506040513d6000823e601f3d908101601f19168201604052610b0491908101906119fe565b60015b15610b34578051825114610b1a57600080fd5b81610b2589836114cb565b600496509650965050506113d7565b60405163152a902d60e11b815260048101889052602481018790526001600160a01b03831690632a55205a906044016040805180830381865afa925050508015610b9b575060408051601f3d908101601f19168201909252610b9891810190611c55565b60015b15610c5e57878110610bbf5760405162461bcd60e51b81526004016101fc90611bb3565b604080516001808252818301909252906020808301908036833750506040805160018082528183019092529299509050602080830190803683370190505095508187600081518110610c1357610c1361189b565b60200260200101906001600160a01b031690816001600160a01b0316815250508086600081518110610c4757610c4761189b565b602090810291909101015250600593506113d79050565b604051633d98881d60e21b81526001600160a01b0389811660048301526024820189905283169063f662207490604401600060405180830381865afa925050508015610ccc57506040513d6000823e601f3d908101601f19168201604052610cc991908101906119fe565b60015b15610cf9578051825114610cdf57600080fd5b81610cea89836114cb565b600796509650965050506113d7565b60001992506113d7565b506000600183810b01156113d757600019600184900b01610db857604051635d9dd7eb60e11b8152600481018890526060906001600160a01b0384169063bb3bafd6906024015b600060405180830381865afa158015610d67573d6000803e3d6000fd5b505050506040513d6000823e601f3d908101601f19168201604052610d8f91908101906119fe565b8051825192985090925014610da357600080fd5b85610dae88836114cb565b95509550506113d7565b600219600184900b01610fdd5760405163656cb66560e11b8152600481018890526060906001600160a01b0384169063cad96cca90602401600060405180830381865afa158015610e0d573d6000803e3d6000fd5b505050506040513d6000823e601f3d908101601f19168201604052610e359190810190611a62565b9050805167ffffffffffffffff811115610e5157610e51611885565b604051908082528060200260200182016040528015610e7a578160200160208202803683370190505b509550805167ffffffffffffffff811115610e9757610e97611885565b604051908082528060200260200182016040528015610ec0578160200160208202803683370190505b5094506000805b8251811015610fb657828181518110610ee257610ee261189b565b602002602001015160000151888281518110610f0057610f0061189b565b60200260200101906001600160a01b031690816001600160a01b031681525050612710838281518110610f3557610f3561189b565b6020026020010151602001516001600160601b03168a610f559190611b4e565b610f5f9190611b65565b878281518110610f7157610f7161189b565b602002602001018181525050868181518110610f8f57610f8f61189b565b602002602001015182610fa29190611b87565b915080610fae81611b9a565b915050610ec7565b50878110610fd65760405162461bcd60e51b81526004016101fc90611bb3565b50506113d7565b600119600184900b016110da5760405163b9c4d9fb60e01b8152600481018890526060906001600160a01b0384169063b9c4d9fb90602401600060405180830381865afa158015611032573d6000803e3d6000fd5b505050506040513d6000823e601f3d908101601f1916820160405261105a9190810190611be3565b604051630ebd4c7f60e01b8152600481018a90529096506001600160a01b03841690630ebd4c7f90602401600060405180830381865afa1580156110a2573d6000803e3d6000fd5b505050506040513d6000823e601f3d908101601f191682016040526110ca9190810190611c20565b90508051865114610da357600080fd5b600319600184900b01611117576040516335681b5360e21b8152600481018890526060906001600160a01b0384169063d5a06d4c90602401610d4a565b600419600184900b016112655760405163152a902d60e11b8152600481018890526024810187905260009081906001600160a01b03851690632a55205a906044016040805180830381865afa158015611174573d6000803e3d6000fd5b505050506040513d601f19601f820116820180604052508101906111989190611c55565b915091508781106111bb5760405162461bcd60e51b81526004016101fc90611bb3565b60015b6040519080825280602002602001820160405280156111e7578160200160208202803683370190505b5060408051600180825281830190925291985060208083019080368337019050509550818760008151811061121e5761121e61189b565b60200260200101906001600160a01b031690816001600160a01b03168152505080866000815181106112525761125261189b565b60200260200101818152505050506113d7565b600519600184900b0161139157604051632e17b5f960e21b81526001600160a01b0389166004820152602481018890526000907317b0c8564e53f22364a6c8de6f7ca5ce9bea4e5d9063b85ed7e490604401602060405180830381865afa1580156112d4573d6000803e3d6000fd5b505050506040513d601f19601f820116820180604052508101906112f8919061184f565b60405163860110f560e01b81526001600160a01b038b166004820152602481018a9052604481018990529091506000907317b0c8564e53f22364a6c8de6f7ca5ce9bea4e5d9063860110f590606401602060405180830381865afa158015611364573d6000803e3d6000fd5b505050506040513d601f19601f82011682018060405250810190611388919061186c565b905060016111be565b600619600184900b016113d757604051633d98881d60e21b81526001600160a01b038981166004830152602482018990526060919084169063f662207490604401610d4a565b939792965093509350565b603380546001600160a01b038381166001600160a01b0319831681179093556040519116919082907f8be0079c531659141344cd1fd0a4f28419497f9722a3daafe3b4186f6b6457e090600090a35050565b600054610100900460ff168061144d575060005460ff16155b6114695760405162461bcd60e51b81526004016101fc90611801565b600054610100900460ff1615801561148b576000805461ffff19166101011790555b611494336113e2565b8015610383576000805461ff001916905550565b60006114b3836115d0565b80156114c457506114c48383611603565b9392505050565b6060815167ffffffffffffffff8111156114e7576114e7611885565b604051908082528060200260200182016040528015611510578160200160208202803683370190505b5090506000805b83518110156115a9576127108482815181106115355761153561189b565b6020026020010151866115489190611b4e565b6115529190611b65565b8382815181106115645761156461189b565b6020026020010181815250508281815181106115825761158261189b565b6020026020010151826115959190611b87565b9150806115a181611b9a565b915050611517565b508381106115c95760405162461bcd60e51b81526004016101fc90611bb3565b5092915050565b60006115e3826301ffc9a760e01b611603565b801561018257506115fc826001600160e01b0319611603565b1592915050565b604080516001600160e01b0319831660248083019190915282518083039091018152604490910182526020810180516001600160e01b03166301ffc9a760e01b179052905160009190829081906001600160a01b038716906175309061166a908690611c83565b6000604051808303818686fa925050503d80600081146116a6576040519150601f19603f3d011682016040523d82523d6000602084013e6116ab565b606091505b50915091506020815110156116c65760009350505050610182565b8180156116e25750808060200190518101906116e29190611cb2565b9695505050505050565b6000602082840312156116fe57600080fd5b81356001600160e01b0319811681146114c457600080fd5b6001600160a01b038116811461038357600080fd5b60008060006060848603121561174057600080fd5b833561174b81611716565b95602085013595506040909401359392505050565b604080825283519082018190526000906020906060840190828701845b828110156117a25781516001600160a01b03168452928401929084019060010161177d565b5050508381038285015284518082528583019183019060005b818110156117d7578351835292840192918401916001016117bb565b5090979650505050505050565b6000602082840312156117f657600080fd5b81356114c481611716565b6020808252602e908201527f496e697469616c697a61626c653a20636f6e747261637420697320616c72656160408201526d191e481a5b9a5d1a585b1a5e995960921b606082015260800190565b60006020828403121561186157600080fd5b81516114c481611716565b60006020828403121561187e57600080fd5b5051919050565b634e487b7160e01b600052604160045260246000fd5b634e487b7160e01b600052603260045260246000fd5b6040805190810167ffffffffffffffff811182821017156118d4576118d4611885565b60405290565b604051601f8201601f1916810167ffffffffffffffff8111828210171561190357611903611885565b604052919050565b600067ffffffffffffffff82111561192557611925611885565b5060051b60200190565b600082601f83011261194057600080fd5b815160206119556119508361190b565b6118da565b82815260059290921b8401810191818101908684111561197457600080fd5b8286015b8481101561199857805161198b81611716565b8352918301918301611978565b509695505050505050565b600082601f8301126119b457600080fd5b815160206119c46119508361190b565b82815260059290921b840181019181810190868411156119e357600080fd5b8286015b8481101561199857805183529183019183016119e7565b60008060408385031215611a1157600080fd5b825167ffffffffffffffff80821115611a2957600080fd5b611a358683870161192f565b93506020850151915080821115611a4b57600080fd5b50611a58858286016119a3565b9150509250929050565b60006020808385031215611a7557600080fd5b825167ffffffffffffffff811115611a8c57600080fd5b8301601f81018513611a9d57600080fd5b8051611aab6119508261190b565b81815260069190911b82018301908381019087831115611aca57600080fd5b928401925b82841015611b2d5760408489031215611ae85760008081fd5b611af06118b1565b8451611afb81611716565b8152848601516001600160601b0381168114611b175760008081fd5b8187015282526040939093019290840190611acf565b979650505050505050565b634e487b7160e01b600052601160045260246000fd5b808202811582820484141761018257610182611b38565b600082611b8257634e487b7160e01b600052601260045260246000fd5b500490565b8082018082111561018257610182611b38565b600060018201611bac57611bac611b38565b5060010190565b602080825260169082015275125b9d985b1a59081c9bde585b1d1e48185b5bdd5b9d60521b604082015260600190565b600060208284031215611bf557600080fd5b815167ffffffffffffffff811115611c0c57600080fd5b611c188482850161192f565b949350505050565b600060208284031215611c3257600080fd5b815167ffffffffffffffff811115611c4957600080fd5b611c18848285016119a3565b60008060408385031215611c6857600080fd5b8251611c7381611716565b6020939093015192949293505050565b6000825160005b81811015611ca45760208186018101518583015201611c8a565b506000920191825250919050565b600060208284031215611cc457600080fd5b815180151581146114c457600080fdfea26469706673582212205060aec778307e8b08fcfaa5cba28ff56c9c3cc8bb7ff02fc6be3c8d1d572d5764736f6c63430008110033",
  "linkReferences": {},
  "deployedLinkReferences": {}
}