{
  "_format": "hh-sol-artifact-1",
  "contractName": "ZoraRegistrar",
  "sourceName": "contracts/backup/zora-v3/ZoraRegistrar.sol",
  "abi": [
    {
      "inputs": [
        {
          "internalType": "contract ZoraModuleManager",
          "name": "_ZMM",
          "type": "address"
        }
      ],
      "name": "init",
      "outputs": [],
      "stateMutability": "nonpayable",
      "type": "function"
    },
    {
      "inputs": [
        {
          "internalType": "address",
          "name": "_module",
          "type": "address"
        }
      ],
      "name": "registerModule",
      "outputs": [],
      "stateMutability": "nonpayable",
      "type": "function"
    },
    {
      "inputs": [
        {
          "internalType": "address",
          "name": "_registrar",
          "type": "address"
        }
      ],
      "name": "setRegistrar",
      "outputs": [],
      "stateMutability": "nonpayable",
      "type": "function"
    }
  ],
  "bytecode": "0x608060405234801561001057600080fd5b506101a5806100206000396000f3fe608060405234801561001057600080fd5b50600436106100415760003560e01c806319ab453c14610046578063ad64ae4b14610078578063faab9d391461008b575b600080fd5b61007661005436600461014b565b600080546001600160a01b0319166001600160a01b0392909216919091179055565b005b61007661008636600461014b565b61009e565b61007661009936600461014b565b610101565b60005460405163ad64ae4b60e01b81526001600160a01b0383811660048301529091169063ad64ae4b906024015b600060405180830381600087803b1580156100e657600080fd5b505af11580156100fa573d6000803e3d6000fd5b5050505050565b60005460405163faab9d3960e01b81526001600160a01b0383811660048301529091169063faab9d39906024016100cc565b6001600160a01b038116811461014857600080fd5b50565b60006020828403121561015d57600080fd5b813561016881610133565b939250505056fea2646970667358221220e66b261e0401c6b0cd6df54d8ac13a139fe7968212cbb7a7eb59b80210c6e46164736f6c63430008110033",
  "linkReferences": {},
  "deployedLinkReferences": {}
}