{
  "_format": "hh-sol-artifact-1",
  "contractName": "onchainAuction",
  "sourceName": "contracts/mojito/sothebys/auction.sol",
  "abi": [
    {
      "inputs": [
        {
          "internalType": "address",
          "name": "_platformAddress",
          "type": "address"
        },
        {
          "internalType": "uint16",
          "name": "_platformFeePercentage",
          "type": "uint16"
        }
      ],
      "stateMutability": "nonpayable",
      "type": "constructor"
    },
    {
      "anonymous": false,
      "inputs": [
        {
          "indexed": true,
          "internalType": "address",
          "name": "account",
          "type": "address"
        },
        {
          "indexed": true,
          "internalType": "address",
          "name": "sender",
          "type": "address"
        }
      ],
      "name": "AdminApproved",
      "type": "event"
    },
    {
      "anonymous": false,
      "inputs": [
        {
          "indexed": true,
          "internalType": "address",
          "name": "account",
          "type": "address"
        },
        {
          "indexed": true,
          "internalType": "address",
          "name": "sender",
          "type": "address"
        }
      ],
      "name": "AdminRevoked",
      "type": "event"
    },
    {
      "anonymous": false,
      "inputs": [
        {
          "indexed": true,
          "internalType": "string",
          "name": "auctionId",
          "type": "string"
        },
        {
          "indexed": true,
          "internalType": "address",
          "name": "bidder",
          "type": "address"
        },
        {
          "indexed": true,
          "internalType": "uint256",
          "name": "bidAmount",
          "type": "uint256"
        }
      ],
      "name": "AuctionBid",
      "type": "event"
    },
    {
      "anonymous": false,
      "inputs": [
        {
          "components": [
            {
              "internalType": "address",
              "name": "nftContractAddress",
              "type": "address"
            },
            {
              "internalType": "uint256",
              "name": "tokenId",
              "type": "uint256"
            },
            {
              "internalType": "uint256",
              "name": "quantityOf1155",
              "type": "uint256"
            },
            {
              "internalType": "address",
              "name": "tokenOwnerAddress",
              "type": "address"
            },
            {
              "internalType": "uint256",
              "name": "minimumBidCryptoPrice",
              "type": "uint256"
            },
            {
              "internalType": "address",
              "name": "paymentCurrency",
              "type": "address"
            },
            {
              "internalType": "bytes32",
              "name": "whitelistedBuyers",
              "type": "bytes32"
            },
            {
              "internalType": "bytes32",
              "name": "blacklistedBuyers",
              "type": "bytes32"
            },
            {
              "components": [
                {
                  "internalType": "address",
                  "name": "paymentSettlementAddress",
                  "type": "address"
                },
                {
                  "internalType": "address",
                  "name": "taxSettlementAddress",
                  "type": "address"
                },
                {
                  "internalType": "address",
                  "name": "platformSettlementAddress",
                  "type": "address"
                },
                {
                  "internalType": "uint16",
                  "name": "platformFeePercentage",
                  "type": "uint16"
                },
                {
                  "internalType": "address",
                  "name": "commissionAddress",
                  "type": "address"
                },
                {
                  "internalType": "uint16",
                  "name": "commissionFeePercentage",
                  "type": "uint16"
                }
              ],
              "internalType": "struct onchainAuction.settlementList",
              "name": "paymentSettlement",
              "type": "tuple"
            }
          ],
          "indexed": true,
          "internalType": "struct onchainAuction.createAuctionList",
          "name": "createdDetails",
          "type": "tuple"
        }
      ],
      "name": "AuctionCreated",
      "type": "event"
    },
    {
      "anonymous": false,
      "inputs": [
        {
          "indexed": true,
          "internalType": "string",
          "name": "auctionId",
          "type": "string"
        },
        {
          "indexed": true,
          "internalType": "uint256",
          "name": "tokenId",
          "type": "uint256"
        },
        {
          "indexed": true,
          "internalType": "address",
          "name": "tokenOwner",
          "type": "address"
        },
        {
          "components": [
            {
              "internalType": "address",
              "name": "nftContractAddress",
              "type": "address"
            },
            {
              "internalType": "uint256",
              "name": "tokenId",
              "type": "uint256"
            },
            {
              "internalType": "uint256",
              "name": "quantityOf1155",
              "type": "uint256"
            },
            {
              "internalType": "address",
              "name": "tokenOwnerAddress",
              "type": "address"
            },
            {
              "internalType": "uint256",
              "name": "minimumBidCryptoPrice",
              "type": "uint256"
            },
            {
              "internalType": "address",
              "name": "paymentCurrency",
              "type": "address"
            },
            {
              "internalType": "bytes32",
              "name": "whitelistedBuyers",
              "type": "bytes32"
            },
            {
              "internalType": "bytes32",
              "name": "blacklistedBuyers",
              "type": "bytes32"
            },
            {
              "components": [
                {
                  "internalType": "address",
                  "name": "paymentSettlementAddress",
                  "type": "address"
                },
                {
                  "internalType": "address",
                  "name": "taxSettlementAddress",
                  "type": "address"
                },
                {
                  "internalType": "address",
                  "name": "platformSettlementAddress",
                  "type": "address"
                },
                {
                  "internalType": "uint16",
                  "name": "platformFeePercentage",
                  "type": "uint16"
                },
                {
                  "internalType": "address",
                  "name": "commissionAddress",
                  "type": "address"
                },
                {
                  "internalType": "uint16",
                  "name": "commissionFeePercentage",
                  "type": "uint16"
                }
              ],
              "internalType": "struct onchainAuction.settlementList",
              "name": "paymentSettlement",
              "type": "tuple"
            }
          ],
          "indexed": false,
          "internalType": "struct onchainAuction.createAuctionList",
          "name": "createdDetails",
          "type": "tuple"
        },
        {
          "components": [
            {
              "internalType": "uint32",
              "name": "startTime",
              "type": "uint32"
            },
            {
              "internalType": "uint32",
              "name": "endTime",
              "type": "uint32"
            },
            {
              "internalType": "address[2]",
              "name": "bidder",
              "type": "address[2]"
            },
            {
              "internalType": "uint256[2]",
              "name": "amount",
              "type": "uint256[2]"
            }
          ],
          "indexed": false,
          "internalType": "struct onchainAuction.bidHistory",
          "name": "AuctionHistory",
          "type": "tuple"
        }
      ],
      "name": "AuctionEnded",
      "type": "event"
    },
    {
      "anonymous": false,
      "inputs": [
        {
          "indexed": true,
          "internalType": "string",
          "name": "auctionId",
          "type": "string"
        }
      ],
      "name": "CancellAuction",
      "type": "event"
    },
    {
      "anonymous": false,
      "inputs": [
        {
          "indexed": true,
          "internalType": "address",
          "name": "previousOwner",
          "type": "address"
        },
        {
          "indexed": true,
          "internalType": "address",
          "name": "newOwner",
          "type": "address"
        }
      ],
      "name": "OwnershipTransferred",
      "type": "event"
    },
    {
      "anonymous": false,
      "inputs": [
        {
          "indexed": false,
          "internalType": "address",
          "name": "tokenContract",
          "type": "address"
        },
        {
          "indexed": false,
          "internalType": "uint256",
          "name": "tokenId",
          "type": "uint256"
        },
        {
          "indexed": false,
          "internalType": "address",
          "name": "recipient",
          "type": "address"
        },
        {
          "indexed": false,
          "internalType": "uint256",
          "name": "amount",
          "type": "uint256"
        }
      ],
      "name": "RoyaltyPayout",
      "type": "event"
    },
    {
      "stateMutability": "payable",
      "type": "fallback"
    },
    {
      "inputs": [
        {
          "internalType": "address",
          "name": "admin",
          "type": "address"
        }
      ],
      "name": "approveAdmin",
      "outputs": [],
      "stateMutability": "nonpayable",
      "type": "function"
    },
    {
      "inputs": [
        {
          "internalType": "string",
          "name": "auctionId",
          "type": "string"
        },
        {
          "internalType": "uint256",
          "name": "bidAmount",
          "type": "uint256"
        },
        {
          "internalType": "bytes32[]",
          "name": "proof",
          "type": "bytes32[]"
        }
      ],
      "name": "bid",
      "outputs": [],
      "stateMutability": "payable",
      "type": "function"
    },
    {
      "inputs": [
        {
          "internalType": "string",
          "name": "auctionId",
          "type": "string"
        }
      ],
      "name": "cancelAuction",
      "outputs": [],
      "stateMutability": "nonpayable",
      "type": "function"
    },
    {
      "inputs": [
        {
          "internalType": "string",
          "name": "auctionId",
          "type": "string"
        },
        {
          "components": [
            {
              "internalType": "address",
              "name": "nftContractAddress",
              "type": "address"
            },
            {
              "internalType": "uint256",
              "name": "tokenId",
              "type": "uint256"
            },
            {
              "internalType": "uint256",
              "name": "quantityOf1155",
              "type": "uint256"
            },
            {
              "internalType": "address",
              "name": "tokenOwnerAddress",
              "type": "address"
            },
            {
              "internalType": "uint256",
              "name": "minimumBidCryptoPrice",
              "type": "uint256"
            },
            {
              "internalType": "address",
              "name": "paymentCurrency",
              "type": "address"
            },
            {
              "internalType": "bytes32",
              "name": "whitelistedBuyers",
              "type": "bytes32"
            },
            {
              "internalType": "bytes32",
              "name": "blacklistedBuyers",
              "type": "bytes32"
            },
            {
              "components": [
                {
                  "internalType": "address",
                  "name": "paymentSettlementAddress",
                  "type": "address"
                },
                {
                  "internalType": "address",
                  "name": "taxSettlementAddress",
                  "type": "address"
                },
                {
                  "internalType": "address",
                  "name": "platformSettlementAddress",
                  "type": "address"
                },
                {
                  "internalType": "uint16",
                  "name": "platformFeePercentage",
                  "type": "uint16"
                },
                {
                  "internalType": "address",
                  "name": "commissionAddress",
                  "type": "address"
                },
                {
                  "internalType": "uint16",
                  "name": "commissionFeePercentage",
                  "type": "uint16"
                }
              ],
              "internalType": "struct onchainAuction.settlementList",
              "name": "paymentSettlement",
              "type": "tuple"
            }
          ],
          "internalType": "struct onchainAuction.createAuctionList",
          "name": "list",
          "type": "tuple"
        },
        {
          "internalType": "uint32",
          "name": "startTime",
          "type": "uint32"
        },
        {
          "internalType": "uint32",
          "name": "endTime",
          "type": "uint32"
        }
      ],
      "name": "createAuction",
      "outputs": [],
      "stateMutability": "nonpayable",
      "type": "function"
    },
    {
      "inputs": [
        {
          "internalType": "string",
          "name": "auctionId",
          "type": "string"
        },
        {
          "internalType": "uint256",
          "name": "tax",
          "type": "uint256"
        }
      ],
      "name": "endAuction",
      "outputs": [],
      "stateMutability": "nonpayable",
      "type": "function"
    },
    {
      "inputs": [
        {
          "components": [
            {
              "internalType": "address",
              "name": "nftContractAddress",
              "type": "address"
            },
            {
              "internalType": "uint256",
              "name": "tokenId",
              "type": "uint256"
            },
            {
              "internalType": "uint256",
              "name": "quantityOf1155",
              "type": "uint256"
            },
            {
              "internalType": "address",
              "name": "tokenOwnerAddress",
              "type": "address"
            },
            {
              "internalType": "uint256",
              "name": "minimumBidCryptoPrice",
              "type": "uint256"
            },
            {
              "internalType": "address",
              "name": "paymentCurrency",
              "type": "address"
            },
            {
              "internalType": "bytes32",
              "name": "whitelistedBuyers",
              "type": "bytes32"
            },
            {
              "internalType": "bytes32",
              "name": "blacklistedBuyers",
              "type": "bytes32"
            },
            {
              "components": [
                {
                  "internalType": "address",
                  "name": "paymentSettlementAddress",
                  "type": "address"
                },
                {
                  "internalType": "address",
                  "name": "taxSettlementAddress",
                  "type": "address"
                },
                {
                  "internalType": "address",
                  "name": "platformSettlementAddress",
                  "type": "address"
                },
                {
                  "internalType": "uint16",
                  "name": "platformFeePercentage",
                  "type": "uint16"
                },
                {
                  "internalType": "address",
                  "name": "commissionAddress",
                  "type": "address"
                },
                {
                  "internalType": "uint16",
                  "name": "commissionFeePercentage",
                  "type": "uint16"
                }
              ],
              "internalType": "struct onchainAuction.settlementList",
              "name": "paymentSettlement",
              "type": "tuple"
            }
          ],
          "internalType": "struct onchainAuction.createAuctionList",
          "name": "list",
          "type": "tuple"
        },
        {
          "internalType": "string",
          "name": "auctionId",
          "type": "string"
        },
        {
          "components": [
            {
              "internalType": "address",
              "name": "highestBidder",
              "type": "address"
            },
            {
              "internalType": "uint256",
              "name": "highestBid",
              "type": "uint256"
            }
          ],
          "internalType": "struct onchainAuction.BidList[]",
          "name": "bidHistory",
          "type": "tuple[]"
        },
        {
          "internalType": "uint256",
          "name": "tax",
          "type": "uint256"
        }
      ],
      "name": "executeAuction",
      "outputs": [],
      "stateMutability": "payable",
      "type": "function"
    },
    {
      "inputs": [],
      "name": "getAdmins",
      "outputs": [
        {
          "internalType": "address[]",
          "name": "admins",
          "type": "address[]"
        }
      ],
      "stateMutability": "view",
      "type": "function"
    },
    {
      "inputs": [
        {
          "internalType": "address",
          "name": "admin",
          "type": "address"
        }
      ],
      "name": "isAdmin",
      "outputs": [
        {
          "internalType": "bool",
          "name": "",
          "type": "bool"
        }
      ],
      "stateMutability": "view",
      "type": "function"
    },
    {
      "inputs": [
        {
          "internalType": "string",
          "name": "",
          "type": "string"
        }
      ],
      "name": "listings",
      "outputs": [
        {
          "internalType": "address",
          "name": "nftContractAddress",
          "type": "address"
        },
        {
          "internalType": "uint256",
          "name": "tokenId",
          "type": "uint256"
        },
        {
          "internalType": "uint256",
          "name": "quantityOf1155",
          "type": "uint256"
        },
        {
          "internalType": "address",
          "name": "tokenOwnerAddress",
          "type": "address"
        },
        {
          "internalType": "uint256",
          "name": "minimumBidCryptoPrice",
          "type": "uint256"
        },
        {
          "internalType": "address",
          "name": "paymentCurrency",
          "type": "address"
        },
        {
          "internalType": "bytes32",
          "name": "whitelistedBuyers",
          "type": "bytes32"
        },
        {
          "internalType": "bytes32",
          "name": "blacklistedBuyers",
          "type": "bytes32"
        },
        {
          "components": [
            {
              "internalType": "address",
              "name": "paymentSettlementAddress",
              "type": "address"
            },
            {
              "internalType": "address",
              "name": "taxSettlementAddress",
              "type": "address"
            },
            {
              "internalType": "address",
              "name": "platformSettlementAddress",
              "type": "address"
            },
            {
              "internalType": "uint16",
              "name": "platformFeePercentage",
              "type": "uint16"
            },
            {
              "internalType": "address",
              "name": "commissionAddress",
              "type": "address"
            },
            {
              "internalType": "uint16",
              "name": "commissionFeePercentage",
              "type": "uint16"
            }
          ],
          "internalType": "struct onchainAuction.settlementList",
          "name": "paymentSettlement",
          "type": "tuple"
        }
      ],
      "stateMutability": "view",
      "type": "function"
    },
    {
      "inputs": [],
      "name": "owner",
      "outputs": [
        {
          "internalType": "address",
          "name": "",
          "type": "address"
        }
      ],
      "stateMutability": "view",
      "type": "function"
    },
    {
      "inputs": [],
      "name": "renounceOwnership",
      "outputs": [],
      "stateMutability": "nonpayable",
      "type": "function"
    },
    {
      "inputs": [
        {
          "internalType": "address",
          "name": "admin",
          "type": "address"
        }
      ],
      "name": "revokeAdmin",
      "outputs": [],
      "stateMutability": "nonpayable",
      "type": "function"
    },
    {
      "inputs": [],
      "name": "royaltySupport",
      "outputs": [
        {
          "internalType": "contract IRoyaltyEngine",
          "name": "",
          "type": "address"
        }
      ],
      "stateMutability": "view",
      "type": "function"
    },
    {
      "inputs": [
        {
          "internalType": "bytes4",
          "name": "interfaceId",
          "type": "bytes4"
        }
      ],
      "name": "supportsInterface",
      "outputs": [
        {
          "internalType": "bool",
          "name": "",
          "type": "bool"
        }
      ],
      "stateMutability": "view",
      "type": "function"
    },
    {
      "inputs": [
        {
          "internalType": "address",
          "name": "newOwner",
          "type": "address"
        }
      ],
      "name": "transferOwnership",
      "outputs": [],
      "stateMutability": "nonpayable",
      "type": "function"
    },
    {
      "inputs": [
        {
          "internalType": "string",
          "name": "auctionId",
          "type": "string"
        },
        {
          "internalType": "uint32",
          "name": "endTime",
          "type": "uint32"
        }
      ],
      "name": "updateEndTime",
      "outputs": [],
      "stateMutability": "nonpayable",
      "type": "function"
    },
    {
      "inputs": [
        {
          "internalType": "string",
          "name": "auctionId",
          "type": "string"
        },
        {
          "internalType": "uint256",
          "name": "minimumBidFiatPrice",
          "type": "uint256"
        }
      ],
      "name": "updateMinimumPrice",
      "outputs": [],
      "stateMutability": "nonpayable",
      "type": "function"
    },
    {
      "inputs": [
        {
          "internalType": "string",
          "name": "auctionId",
          "type": "string"
        },
        {
          "internalType": "address",
          "name": "paymentSettlementAddress",
          "type": "address"
        }
      ],
      "name": "updatePaymentSettlementAddress",
      "outputs": [],
      "stateMutability": "nonpayable",
      "type": "function"
    },
    {
      "inputs": [
        {
          "internalType": "address",
          "name": "_platformAddress",
          "type": "address"
        }
      ],
      "name": "updatePlatformAddress",
      "outputs": [],
      "stateMutability": "nonpayable",
      "type": "function"
    },
    {
      "inputs": [
        {
          "internalType": "uint16",
          "name": "_platformFeePercentage",
          "type": "uint16"
        }
      ],
      "name": "updatePlatformFeePercentage",
      "outputs": [],
      "stateMutability": "nonpayable",
      "type": "function"
    },
    {
      "inputs": [
        {
          "internalType": "string",
          "name": "auctionId",
          "type": "string"
        },
        {
          "internalType": "uint32",
          "name": "startTime",
          "type": "uint32"
        }
      ],
      "name": "updateStartTime",
      "outputs": [],
      "stateMutability": "nonpayable",
      "type": "function"
    },
    {
      "inputs": [
        {
          "internalType": "string",
          "name": "auctionId",
          "type": "string"
        },
        {
          "internalType": "address",
          "name": "taxSettlementAddress",
          "type": "address"
        }
      ],
      "name": "updateTaxSettlementAddress",
      "outputs": [],
      "stateMutability": "nonpayable",
      "type": "function"
    },
    {
      "inputs": [],
      "name": "withdraw",
      "outputs": [],
      "stateMutability": "nonpayable",
      "type": "function"
    },
    {
      "stateMutability": "payable",
      "type": "receive"
    }
  ],
  "bytecode": "0x60806040523480156200001157600080fd5b506040516200455438038062004554833981016040819052620000349162000173565b6001600081815581546001600160a01b031916339081179092556040518291907f8be0079c531659141344cd1fd0a4f28419497f9722a3daafe3b4186f6b6457e0908290a3506001600160a01b038216620000d65760405162461bcd60e51b815260206004820152601860248201527f496e76616c696420506c6174666f726d2041646472657373000000000000000060448201526064015b60405180910390fd5b6127108161ffff16106200013f5760405162461bcd60e51b815260206004820152602960248201527f706c6174666f726d4665652073686f756c64206e6f74206265206d6f7265207460448201526868616e20313030202560b81b6064820152608401620000cd565b6004805461ffff909216600160a01b026001600160b01b03199092166001600160a01b0390931692909217179055620001c3565b600080604083850312156200018757600080fd5b82516001600160a01b03811681146200019f57600080fd5b602084015190925061ffff81168114620001b857600080fd5b809150509250929050565b61438180620001d36000396000f3fe6080604052600436106101385760003560e01c80635e144cd3116100b0578063b60e7a3b1161006c578063b60e7a3b14610428578063c44b44d314610448578063cbc9a94114610468578063da20872a14610488578063f2fde38b146104a8578063f6c9b9ad146104c857005b80635e144cd3146102935780636d73e669146102b3578063715018a6146102d357806377dec6c3146102e85780638da5cb5b146103d65780638f9f193f1461040857005b806324d7806c116100ff57806324d7806c146101dc5780632c96cf1d146101fc5780632d3456701461021c57806331ae450b1461023c578063368d57071461025e5780633ccfd60b1461027e57005b8063014010ed1461014157806301ffc9a7146101545780630a28e844146101895780630dcde0e0146101a9578063191671d0146101c957005b3661013f57005b005b61013f61014f36600461359b565b6104e8565b34801561016057600080fd5b5061017461016f366004613667565b610b2c565b60405190151581526020015b60405180910390f35b34801561019557600080fd5b5061013f6101a43660046136aa565b610b63565b3480156101b557600080fd5b5061013f6101c43660046136fd565b610cb1565b61013f6101d73660046137f0565b610dde565b3480156101e857600080fd5b506101746101f73660046138f3565b610e7d565b34801561020857600080fd5b5061013f6102173660046136aa565b610eb6565b34801561022857600080fd5b5061013f6102373660046138f3565b610ff9565b34801561024857600080fd5b50610251611079565b6040516101809190613910565b34801561026a57600080fd5b5061013f61027936600461395d565b611127565b34801561028a57600080fd5b5061013f61169a565b34801561029f57600080fd5b5061013f6102ae3660046139a1565b61178c565b3480156102bf57600080fd5b5061013f6102ce3660046138f3565b6118eb565b3480156102df57600080fd5b5061013f611965565b3480156102f457600080fd5b506103c16103033660046139f7565b8051808201602090810180516006808352938301948301949094209390528254600184015460028501546003860154600487015460058801549688015460078901546040805160c08101825260088c01546001600160a01b03908116825260098d015481169a82019a909a52600a8c0154808b169282019290925261ffff600160a01b9283900481166060830152600b909c0154808b16608083015291909104909a1660a08b01529587169894979396928316959194939092169289565b60405161018099989796959493929190613a7f565b3480156103e257600080fd5b506001546001600160a01b03165b6040516001600160a01b039091168152602001610180565b34801561041457600080fd5b5061013f6104233660046138f3565b6119d9565b34801561043457600080fd5b5061013f6104433660046139f7565b611a9b565b34801561045457600080fd5b5061013f6104633660046139a1565b611bfe565b34801561047457600080fd5b5061013f610483366004613aef565b611d5d565b34801561049457600080fd5b506005546103f0906001600160a01b031681565b3480156104b457600080fd5b5061013f6104c33660046138f3565b611e30565b3480156104d457600080fd5b5061013f6104e3366004613b0c565b611f1b565b6002600054036105135760405162461bcd60e51b815260040161050a90613b85565b60405180910390fd5b6002600090815560405160069061052d9087908790613bbc565b9081526040805191829003602090810183206101208401835280546001600160a01b0390811685526001820154858401526002820154858501526003820154811660608087019190915260048301546080808801919091526005840154831660a080890191909152600685015460c0808a0191909152600786015460e08a0152875190810188526008860154851681526009860154851681880152600a860154808616828a015261ffff600160a01b91829004811695830195909552600b909601549485169281019290925293909204169181019190915261010084015290519192506000916106379133910160609190911b6bffffffffffffffffffffffff1916815260140190565b6040516020818303038152906040528051906020012090506000801b8260c00151146106c45761066c838360c0015183612963565b6106c45760405162461bcd60e51b8152602060048201526024808201527f6269646465722073686f756c6420626520612077686974656c697374656420426044820152633abcb2b960e11b606482015260840161050a565b60e082015115610738576106dd838360e0015183612963565b156107385760405162461bcd60e51b815260206004820152602560248201527f796f7520617265206265656e20626c61636b6c69737465642066726f6d2062696044820152646464696e6760d81b606482015260840161050a565b6008868660405161074a929190613bbc565b9081526040519081900360200190205460ff166107795760405162461bcd60e51b815260040161050a90613bcc565b60006007878760405161078d929190613bbc565b9081526040805160209281900383018120608082018352805463ffffffff808216845264010000000090910416938201939093528151808301808452919392840191600184019060029082845b81546001600160a01b031681526001909101906020018083116107da575050509183525050604080518082019182905260209092019190600384019060029082845b81548152602001906001019080831161081c57505050505081525050905042816000015163ffffffff1611156108945760405162461bcd60e51b815260206004820152601b60248201527f7468652061756374696f6e20686173206e6f7420737461727465640000000000604482015260640161050a565b826080015185101580156108af575060608101516020015185115b156109e35760a08301516001600160a01b0316156109885760a08301516040516370a0823160e01b815233600482015286916001600160a01b0316906370a0823190602401602060405180830381865afa158015610911573d6000803e3d6000fd5b505050506040513d601f19601f820116820180604052508101906109359190613c0c565b10156109835760405162461bcd60e51b815260206004820152601960248201527f696e73756666696369656e7420457263323020616d6f756e7400000000000000604482015260640161050a565b610a3f565b60a08301516001600160a01b031661098357843410156109835760405162461bcd60e51b81526020600482015260166024820152751a5b9cdd59999a58d95b9d08115d1a08185b5bdd5b9d60521b604482015260640161050a565b60405162461bcd60e51b815260206004820152602b60248201527f70726f766964652062696420616d6f756e7420686967686572207468616e207060448201526a1c995d9a5bdd5cc8189a5960aa1b606482015260840161050a565b60608101515115610a6f5760408101515160a08401516060830151610a6f923092909160005b602002015161297b565b60408101516020808201516001600160a01b031690915260608201518082015190528101514263ffffffff9091161115610ad3576040810180513360209182015260608301805182018890529151015160a08501519151610ad39230916001610a65565b84336001600160a01b03168888604051610aee929190613bbc565b604051908190038120907f1e0ab2a3d99525c0ac6ad4af8309c0c64e02621f17b6333695c6ee19235fedac90600090a4505060016000555050505050565b60006001600160e01b03198216632a9f3abf60e11b1480610b5d57506301ffc9a760e01b6001600160e01b03198316145b92915050565b33610b766001546001600160a01b031690565b6001600160a01b03161480610b915750610b91600233612a5c565b610bad5760405162461bcd60e51b815260040161050a90613c25565b60088383604051610bbf929190613bbc565b9081526040519081900360200190205460ff16610bee5760405162461bcd60e51b815260040161050a90613bcc565b4260078484604051610c01929190613bbc565b9081526040519081900360200190205463ffffffff16101580610c49575060078383604051610c31929190613bbc565b90815260405190819003602001902060030160010154155b610c655760405162461bcd60e51b815260040161050a90613c69565b8060078484604051610c78929190613bbc565b908152604051908190036020019020805463ffffffff929092166401000000000267ffffffff0000000019909216919091179055505050565b33610cc46001546001600160a01b031690565b6001600160a01b03161480610cdf5750610cdf600233612a5c565b610cfb5760405162461bcd60e51b815260040161050a90613c25565b60088383604051610d0d929190613bbc565b9081526040519081900360200190205460ff16610d3c5760405162461bcd60e51b815260040161050a90613bcc565b4260078484604051610d4f929190613bbc565b9081526040519081900360200190205463ffffffff16101580610d97575060078383604051610d7f929190613bbc565b90815260405190819003602001902060030160010154155b610db35760405162461bcd60e51b815260040161050a90613c69565b8060068484604051610dc6929190613bbc565b90815260405190819003602001902060040155505050565b600260005403610e005760405162461bcd60e51b815260040161050a90613b85565b6002600055604051600890610e16908590613cd0565b9081526040519081900360200190205460ff1615610e725760405162461bcd60e51b8152602060048201526019602482015278185d58dd1a5bdb9259081a5cc8185b1c9958591e481d5cd959603a1b604482015260640161050a565b505060016000555050565b6000816001600160a01b0316610e9b6001546001600160a01b031690565b6001600160a01b03161480610b5d5750610b5d600283612a5c565b33610ec96001546001600160a01b031690565b6001600160a01b03161480610ee45750610ee4600233612a5c565b610f005760405162461bcd60e51b815260040161050a90613c25565b60088383604051610f12929190613bbc565b9081526040519081900360200190205460ff16610f415760405162461bcd60e51b815260040161050a90613bcc565b4260078484604051610f54929190613bbc565b9081526040519081900360200190205463ffffffff16101580610f9c575060078383604051610f84929190613bbc565b90815260405190819003602001902060030160010154155b610fb85760405162461bcd60e51b815260040161050a90613c69565b8060078484604051610fcb929190613bbc565b908152604051908190036020019020805463ffffffff9290921663ffffffff19909216919091179055505050565b6001546001600160a01b031633146110235760405162461bcd60e51b815260040161050a90613cec565b61102e600282612a5c565b156110765760405133906001600160a01b038316907f7c0c3c84c67c85fcac635147348bfe374c24a1a93d0366d1cfe9d8853cbf89d590600090a3611074600282612a7d565b505b50565b60606110856002612a92565b6001600160401b0381111561109c5761109c61350a565b6040519080825280602002602001820160405280156110c5578160200160208202803683370190505b50905060005b6110d56002612a92565b811015611123576110e7600282612a9c565b8282815181106110f9576110f9613bf6565b6001600160a01b03909216602092830291909101909101528061111b81613d37565b9150506110cb565b5090565b3361113a6001546001600160a01b031690565b6001600160a01b031614806111555750611155600233612a5c565b6111715760405162461bcd60e51b815260040161050a90613c25565b6002600054036111935760405162461bcd60e51b815260040161050a90613b85565b60026000556040516008906111a9908490613cd0565b9081526040519081900360200190205460ff166111d85760405162461bcd60e51b815260040161050a90613bcc565b60006007836040516111ea9190613cd0565b9081526040805160209281900383018120608082018352805463ffffffff808216845264010000000090910416938201939093528151808301808452919392840191600184019060029082845b81546001600160a01b03168152600190910190602001808311611237575050509183525050604080518082019182905260209092019190600384019060029082845b81548152602001906001019080831161127957505050505081525050905060006006846040516112a99190613cd0565b9081526040805191829003602090810183206101208401835280546001600160a01b0390811685526001820154858401526002820154858501526003820154811660608087019190915260048301546080808801919091526005840154831660a080890191909152600685015460c0808a0191909152600786015460e08a0152875190810188526008860154851681526009860154851681880152600a8601548086169882019890985261ffff600160a01b98899004811694820194909452600b909501549384169185019190915294909104169281019290925261010083019190915283015190915063ffffffff164210156113f95760405162461bcd60e51b815260206004820152602860248201527f61756374696f6e20686173206e6f742073746172746564206f72206e6f742079604482015267195d08195b99195960c21b606482015260840161050a565b606082015151156114235760408201515160a0820151606084015161142392309290916000610a65565b60608281015160209081015160408086015183015160a08601518651948701519587015192870151939591949093909261146291849087908590612aa8565b871561147d5761147d8487610100015160200151858b61297b565b6101008601516040015185906000906001600160a01b0316158015906114b0575060008861010001516060015161ffff16115b15611501576114fc3389610100015160400151876127108c61010001516060015161ffff16876114e09190613d50565b6114ea9190613d67565b6114f49086613d89565b94508461297b565b61155b565b6004546001600160a01b0316158015906115275750600454600160a01b900461ffff1615155b1561155b5760045461155b9033906001600160a01b038116908890612710906114e090600160a01b900461ffff1688613d50565b610100880151608001516001600160a01b0316158015906115895750600088610100015160a0015161ffff16115b156115fa5761271088610100015160a0015161ffff16836115aa9190613d50565b6115b49190613d67565b6115be9082613d89565b90506115fa3389610100015160800151876127108c610100015160a0015161ffff16876115eb9190613d50565b6115f59190613d67565b61297b565b6116048183613d9c565b91506116138685858589612e29565b915061162a3389610100015160000151878561297b565b87606001516001600160a01b0316838c6040516116479190613cd0565b60405180910390207ff46fbfebb3c993700455ad3898e5555624cc2cd41ee126f1b0974cd21ee35a5b8b8d604051611680929190613e2f565b60405180910390a450506001600055505050505050505050565b336116ad6001546001600160a01b031690565b6001600160a01b031614806116c857506116c8600233612a5c565b6116e45760405162461bcd60e51b815260040161050a90613c25565b60408051600080825260208201928390529133918291479161170591613cd0565b60006040518083038185875af1925050503d8060008114611742576040519150601f19603f3d011682016040523d82523d6000602084013e611747565b606091505b505080925050816110745760405162461bcd60e51b815260206004820152600f60248201526e1dda5d1a191c985dc819985a5b1959608a1b604482015260640161050a565b3361179f6001546001600160a01b031690565b6001600160a01b031614806117ba57506117ba600233612a5c565b6117d65760405162461bcd60e51b815260040161050a90613c25565b600883836040516117e8929190613bbc565b9081526040519081900360200190205460ff166118175760405162461bcd60e51b815260040161050a90613bcc565b426007848460405161182a929190613bbc565b9081526040519081900360200190205463ffffffff1610158061187257506007838360405161185a929190613bbc565b90815260405190819003602001902060030160010154155b61188e5760405162461bcd60e51b815260040161050a90613c69565b6001600160a01b0381166118a157600080fd5b80600684846040516118b4929190613bbc565b90815260405190819003602001902060080180546001600160a01b03929092166001600160a01b0319909216919091179055505050565b6001546001600160a01b031633146119155760405162461bcd60e51b815260040161050a90613cec565b611920600282612a5c565b6110765760405133906001600160a01b038316907f7e1a1a08d52e4ba0e21554733d66165fd5151f99460116223d9e3a608eec5cb190600090a3611074600282612fdf565b6001546001600160a01b0316331461198f5760405162461bcd60e51b815260040161050a90613cec565b6001546040516000916001600160a01b0316907f8be0079c531659141344cd1fd0a4f28419497f9722a3daafe3b4186f6b6457e0908390a3600180546001600160a01b0319169055565b336119ec6001546001600160a01b031690565b6001600160a01b03161480611a075750611a07600233612a5c565b611a235760405162461bcd60e51b815260040161050a90613c25565b6001600160a01b038116611a795760405162461bcd60e51b815260206004820152601860248201527f496e76616c696420506c6174666f726d20416464726573730000000000000000604482015260640161050a565b600480546001600160a01b0319166001600160a01b0392909216919091179055565b33611aae6001546001600160a01b031690565b6001600160a01b03161480611ac95750611ac9600233612a5c565b611ae55760405162461bcd60e51b815260040161050a90613c25565b600881604051611af59190613cd0565b9081526040519081900360200190205460ff16611b245760405162461bcd60e51b815260040161050a90613bcc565b600681604051611b349190613cd0565b90815260405190819003602001812080546001600160a01b0319908116825560006001830181905560028301819055600383018054831690556004830181905560058301805483169055600683018190556007830155600882018054821690556009820180549091169055600a810180546001600160b01b0319908116909155600b90910180549091169055611bcb908290613cd0565b604051908190038120907f9e74d4afc7192c9cc66343b9afe3321f7b687553671ee143b74fef984add252090600090a250565b33611c116001546001600160a01b031690565b6001600160a01b03161480611c2c5750611c2c600233612a5c565b611c485760405162461bcd60e51b815260040161050a90613c25565b60088383604051611c5a929190613bbc565b9081526040519081900360200190205460ff16611c895760405162461bcd60e51b815260040161050a90613bcc565b4260078484604051611c9c929190613bbc565b9081526040519081900360200190205463ffffffff16101580611ce4575060078383604051611ccc929190613bbc565b90815260405190819003602001902060030160010154155b611d005760405162461bcd60e51b815260040161050a90613c69565b6001600160a01b038116611d1357600080fd5b8060068484604051611d26929190613bbc565b90815260405190819003602001902060090180546001600160a01b03929092166001600160a01b0319909216919091179055505050565b33611d706001546001600160a01b031690565b6001600160a01b03161480611d8b5750611d8b600233612a5c565b611da75760405162461bcd60e51b815260040161050a90613c25565b6127108161ffff1610611e0e5760405162461bcd60e51b815260206004820152602960248201527f706c6174666f726d4665652073686f756c64206e6f74206265206d6f7265207460448201526868616e20313030202560b81b606482015260840161050a565b6004805461ffff909216600160a01b0261ffff60a01b19909216919091179055565b6001546001600160a01b03163314611e5a5760405162461bcd60e51b815260040161050a90613cec565b6001600160a01b038116611ebf5760405162461bcd60e51b815260206004820152602660248201527f4f776e61626c653a206e6577206f776e657220697320746865207a65726f206160448201526564647265737360d01b606482015260840161050a565b6001546040516001600160a01b038084169216907f8be0079c531659141344cd1fd0a4f28419497f9722a3daafe3b4186f6b6457e090600090a3600180546001600160a01b0319166001600160a01b0392909216919091179055565b600260005403611f3d5760405162461bcd60e51b815260040161050a90613b85565b6002600055604051600890611f559087908790613bbc565b9081526040519081900360200190205460ff1615611fb15760405162461bcd60e51b8152602060048201526019602482015278185d58dd1a5bdb9259081a5cc8185b1c9958591e481d5cd959603a1b604482015260640161050a565b611fba33610e7d565b80611fdc575033611fd160808501606086016138f3565b6001600160a01b0316145b61205f5760405162461bcd60e51b815260206004820152604860248201527f4f6e6c7920746865206275796572206f722061646d696e206f72206f776e657260448201527f206f66207468697320636f6e74726163742063616e2063616c6c207468697320606482015267333ab731ba34b7b760c11b608482015260a40161050a565b600061207361018085016101608601613aef565b61ffff16156120bb5761208e6101c085016101a08601613aef565b6120a061018086016101608701613aef565b6120aa9190613eb3565b6120b49082613eb3565b90506120f2565b6120cd6101c085016101a08601613aef565b6004546120e59190600160a01b900461ffff16613eb3565b6120ef9082613eb3565b90505b6127108161ffff16106121635760405162461bcd60e51b815260206004820152603360248201527f54686520746f74616c2066656520626173697320706f696e742073686f756c646044820152720206265206c657373207468616e20313030303606c1b606482015260840161050a565b60008460800135116121c95760405162461bcd60e51b815260206004820152602960248201527f6d696e696d756d2070726963652073686f756c642062652067726561746572206044820152687468616e207a65726f60b81b606482015260840161050a565b6121d660208501856138f3565b6040516301ffc9a760e01b81526001600160a01b0391909116906301ffc9a79061220b906380ac58cd60e01b90600401613ece565b602060405180830381865afa158015612228573d6000803e3d6000fd5b505050506040513d601f19601f8201168201806040525081019061224c9190613ee3565b806122d5575061225f60208501856138f3565b6040516301ffc9a760e01b81526001600160a01b0391909116906301ffc9a79061229490636cdb3d1360e11b90600401613ece565b602060405180830381865afa1580156122b1573d6000803e3d6000fd5b505050506040513d601f19601f820116820180604052508101906122d59190613ee3565b6123335760405162461bcd60e51b815260206004820152602960248201527f73686f756c642070726f76696465206f6e6c7920737570706f72746564204e6660448201526874204164647265737360b81b606482015260840161050a565b61234060208501856138f3565b6040516301ffc9a760e01b81526001600160a01b0391909116906301ffc9a790612375906380ac58cd60e01b90600401613ece565b602060405180830381865afa158015612392573d6000803e3d6000fd5b505050506040513d601f19601f820116820180604052508101906123b69190613ee3565b156124a3576123cb60808501606086016138f3565b6001600160a01b03166123e160208601866138f3565b6040516331a9108f60e11b8152602087013560048201526001600160a01b039190911690636352211e90602401602060405180830381865afa15801561242b573d6000803e3d6000fd5b505050506040513d601f19601f8201168201806040525081019061244f9190613f05565b6001600160a01b03161461249e5760405162461bcd60e51b815260206004820152601660248201527536b0b5b2b91034b9903737ba103a34329037bbb732b960511b604482015260640161050a565b612631565b6124b060208501856138f3565b6040516301ffc9a760e01b81526001600160a01b0391909116906301ffc9a7906124e590636cdb3d1360e11b90600401613ece565b602060405180830381865afa158015612502573d6000803e3d6000fd5b505050506040513d601f19601f820116820180604052508101906125269190613ee3565b1561263157600061253a60208601866138f3565b6001600160a01b031662fdd58e61255760808801606089016138f3565b6040516001600160e01b031960e084901b1681526001600160a01b03909116600482015260208801356024820152604401602060405180830381865afa1580156125a5573d6000803e3d6000fd5b505050506040513d601f19601f820116820180604052508101906125c99190613c0c565b9050808560400135111580156125e3575060008560400135115b61262f5760405162461bcd60e51b815260206004820152601a60248201527f496e73756666696369656e7420746f6b656e2062616c616e6365000000000000604482015260640161050a565b505b6000612645610120860161010087016138f3565b6001600160a01b0316036126a55760405162461bcd60e51b815260206004820152602160248201527f73686f756c642070726f7669646520536574746c656d656e74206164647265736044820152607360f81b606482015260840161050a565b6126be6126b860c0860160a087016138f3565b3b151590565b806126e1575060006126d660c0860160a087016138f3565b6001600160a01b0316145b6127455760405162461bcd60e51b815260206004820152602f60248201527f41756374696f6e2020737570706f7274206f6e6c79206e617469766520616e6460448201526e2065726332302063757272656e637960881b606482015260840161050a565b6000612759610140860161012087016138f3565b6001600160a01b0316036127bd5760405162461bcd60e51b815260206004820152602560248201527f73686f756c642070726f766964652074617820536574746c656d656e74206164604482015264647265737360d81b606482015260840161050a565b60008363ffffffff161180156127d9575060008263ffffffff16115b6128395760405162461bcd60e51b815260206004820152602b60248201527f61756374696f6e2074696d652073686f756c64206e6f742062652070726f766960448201526a646564206173207a65726f60a81b606482015260840161050a565b836006878760405161284c929190613bbc565b908152604051908190036020019020612865828261400c565b905050826007878760405161287b929190613bbc565b908152604051908190036020018120805463ffffffff9390931663ffffffff199093169290921790915582906007906128b79089908990613bbc565b908152602001604051809103902060000160046101000a81548163ffffffff021916908363ffffffff1602179055506001600887876040516128fa929190613bbc565b908152604051908190036020018120805492151560ff199093169290921790915561292690859061412e565b604051908190038120907f2c215cb172b4d2c6839c32043ee8246f2182bee166efedc76edf44203d79007490600090a25050600160005550505050565b6000826129708584612ff4565b1490505b9392505050565b60006001600160a01b038316612a4057604080516000815260208101918290526001600160a01b0386169184916129b191613cd0565b60006040518083038185875af1925050503d80600081146129ee576040519150601f19603f3d011682016040523d82523d6000602084013e6129f3565b606091505b50508091505080612a3b5760405162461bcd60e51b81526020600482015260126024820152711d1c985b9cd858dd1a5bdb8819985a5b195960721b604482015260640161050a565b612a55565b612a556001600160a01b0384168686856130a0565b5050505050565b6001600160a01b031660009081526001919091016020526040902054151590565b6000612974836001600160a01b038416613100565b6000610b5d825490565b600061297483836131fa565b6040516301ffc9a760e01b81526001600160a01b038516906301ffc9a790612adb906380ac58cd60e01b90600401613ece565b602060405180830381865afa158015612af8573d6000803e3d6000fd5b505050506040513d601f19601f82011682018060405250810190612b1c9190613ee3565b15612c4d576040516331a9108f60e11b8152600481018390526001600160a01b038087169190861690636352211e90602401602060405180830381865afa158015612b6b573d6000803e3d6000fd5b505050506040513d601f19601f82011682018060405250810190612b8f9190613f05565b6001600160a01b031614612bde5760405162461bcd60e51b815260206004820152601660248201527536b0b5b2b91034b9903737ba103a34329037bbb732b960511b604482015260640161050a565b604051632142170760e11b81526001600160a01b0386811660048301528481166024830152604482018490528516906342842e0e90606401600060405180830381600087803b158015612c3057600080fd5b505af1158015612c44573d6000803e3d6000fd5b50505050612a55565b6040516301ffc9a760e01b81526001600160a01b038516906301ffc9a790612c8090636cdb3d1360e11b90600401613ece565b602060405180830381865afa158015612c9d573d6000803e3d6000fd5b505050506040513d601f19601f82011682018060405250810190612cc19190613ee3565b15612a5557604051627eeac760e11b81526001600160a01b038681166004830152602482018490526000919086169062fdd58e90604401602060405180830381865afa158015612d15573d6000803e3d6000fd5b505050506040513d601f19601f82011682018060405250810190612d399190613c0c565b9050808211158015612d4b5750600082115b612d975760405162461bcd60e51b815260206004820152601a60248201527f496e73756666696365696e7420746f6b656e2062616c616e6365000000000000604482015260640161050a565b604051637921219560e11b81526001600160a01b0387811660048301528581166024830152604482018590526064820184905260a06084830152600260a483015261060f60f31b60c483015286169063f242432a9060e401600060405180830381600087803b158015612e0957600080fd5b505af1158015612e1d573d6000803e3d6000fd5b50505050505050505050565b600554604051636e44a72f60e01b81526001600160a01b038681166004830152602482018690526000928592849283928392911690636e44a72f90604401600060405180830381865afa158015612e84573d6000803e3d6000fd5b505050506040513d6000823e601f3d908101601f19168201604052612eac919081019061423e565b815191935091506000819003612ec9578795505050505050612fd6565b60005b81811015612fcd576000848281518110612ee857612ee8613bf6565b602002602001015190506127108a858481518110612f0857612f08613bf6565b6020026020010151612f1a9190613d50565b612f249190613d67565b955085871015612f625760405162461bcd60e51b81526020600482015260096024820152681a5b9cdbdb1d995b9d60ba1b604482015260640161050a565b612f6e8d828b8961297b565b604080516001600160a01b038e81168252602082018e90528316818301526060810188905290517f866e6ef8682ddf5f1025e64dfdb45527077f7be70fa9ef680b7ffd8cf4ab9c509181900360800190a1509484900394600101612ecc565b50939450505050505b95945050505050565b6000612974836001600160a01b038416613224565b600081815b845181101561309857600085828151811061301657613016613bf6565b60200260200101519050808311613058576040805160208101859052908101829052606001604051602081830303815290604052805190602001209250613085565b60408051602081018390529081018490526060016040516020818303038152906040528051906020012092505b508061309081613d37565b915050612ff9565b509392505050565b604080516001600160a01b0385811660248301528416604482015260648082018490528251808303909101815260849091019091526020810180516001600160e01b03166323b872dd60e01b1790526130fa908590613273565b50505050565b600081815260018301602052604081205480156131e9576000613124600183613d9c565b855490915060009061313890600190613d9c565b905081811461319d57600086600001828154811061315857613158613bf6565b906000526020600020015490508087600001848154811061317b5761317b613bf6565b6000918252602080832090910192909255918252600188019052604090208390555b85548690806131ae576131ae614302565b600190038181906000526020600020016000905590558560010160008681526020019081526020016000206000905560019350505050610b5d565b6000915050610b5d565b5092915050565b600082600001828154811061321157613211613bf6565b9060005260206000200154905092915050565b600081815260018301602052604081205461326b57508154600181810184556000848152602080822090930184905584548482528286019093526040902091909155610b5d565b506000610b5d565b60006132c8826040518060400160405280602081526020017f5361666545524332303a206c6f772d6c6576656c2063616c6c206661696c6564815250856001600160a01b031661334a9092919063ffffffff16565b80519091501561334557808060200190518101906132e69190613ee3565b6133455760405162461bcd60e51b815260206004820152602a60248201527f5361666545524332303a204552433230206f7065726174696f6e20646964206e6044820152691bdd081cdd58d8d9595960b21b606482015260840161050a565b505050565b60606133598484600085613361565b949350505050565b6060824710156133c25760405162461bcd60e51b815260206004820152602660248201527f416464726573733a20696e73756666696369656e742062616c616e636520666f6044820152651c8818d85b1b60d21b606482015260840161050a565b843b6134105760405162461bcd60e51b815260206004820152601d60248201527f416464726573733a2063616c6c20746f206e6f6e2d636f6e7472616374000000604482015260640161050a565b600080866001600160a01b0316858760405161342c9190613cd0565b60006040518083038185875af1925050503d8060008114613469576040519150601f19603f3d011682016040523d82523d6000602084013e61346e565b606091505b509150915061347e828286613489565b979650505050505050565b60608315613498575081612974565b8251156134a85782518084602001fd5b8160405162461bcd60e51b815260040161050a9190614318565b60008083601f8401126134d457600080fd5b5081356001600160401b038111156134eb57600080fd5b60208301915083602082850101111561350357600080fd5b9250929050565b634e487b7160e01b600052604160045260246000fd5b604080519081016001600160401b03811182821017156135425761354261350a565b60405290565b604051601f8201601f191681016001600160401b03811182821017156135705761357061350a565b604052919050565b60006001600160401b038211156135915761359161350a565b5060051b60200190565b600080600080606085870312156135b157600080fd5b84356001600160401b03808211156135c857600080fd5b6135d4888389016134c2565b9096509450602087810135945091506040870135818111156135f557600080fd5b87019050601f8101881361360857600080fd5b803561361b61361682613578565b613548565b81815260059190911b8201830190838101908a83111561363a57600080fd5b928401925b828410156136585783358252928401929084019061363f565b979a9699509497505050505050565b60006020828403121561367957600080fd5b81356001600160e01b03198116811461297457600080fd5b803563ffffffff811681146136a557600080fd5b919050565b6000806000604084860312156136bf57600080fd5b83356001600160401b038111156136d557600080fd5b6136e1868287016134c2565b90945092506136f4905060208501613691565b90509250925092565b60008060006040848603121561371257600080fd5b83356001600160401b0381111561372857600080fd5b613734868287016134c2565b909790965060209590950135949350505050565b60006101c0828403121561375b57600080fd5b50919050565b600082601f83011261377257600080fd5b81356001600160401b0381111561378b5761378b61350a565b61379e601f8201601f1916602001613548565b8181528460208386010111156137b357600080fd5b816020850160208301376000918101602001919091529392505050565b6001600160a01b038116811461107657600080fd5b80356136a5816137d0565b600080600080610220858703121561380757600080fd5b6138118686613748565b93506101c08501356001600160401b038082111561382e57600080fd5b61383a88838901613761565b94506101e087013591508082111561385157600080fd5b508501601f8101871361386357600080fd5b8035602061387361361683613578565b82815260069290921b8301810191818101908a84111561389257600080fd5b938201935b838510156138de576040858c0312156138b05760008081fd5b6138b8613520565b85356138c3816137d0565b81528584013584820152825260409094019390820190613897565b979a9699509697610200013596505050505050565b60006020828403121561390557600080fd5b8135612974816137d0565b6020808252825182820181905260009190848201906040850190845b818110156139515783516001600160a01b03168352928401929184019160010161392c565b50909695505050505050565b6000806040838503121561397057600080fd5b82356001600160401b0381111561398657600080fd5b61399285828601613761565b95602094909401359450505050565b6000806000604084860312156139b657600080fd5b83356001600160401b038111156139cc57600080fd5b6139d8868287016134c2565b90945092505060208401356139ec816137d0565b809150509250925092565b600060208284031215613a0957600080fd5b81356001600160401b03811115613a1f57600080fd5b61335984828501613761565b60018060a01b03808251168352806020830151166020840152806040830151166040840152606082015161ffff80821660608601528260808501511660808601528060a08501511660a08601525050505050565b6001600160a01b038a81168252602082018a905260408201899052878116606083015260808201879052851660a082015260c0810184905260e081018390526101c08101613ad1610100830184613a2b565b9a9950505050505050505050565b61ffff8116811461107657600080fd5b600060208284031215613b0157600080fd5b813561297481613adf565b60008060008060006102208688031215613b2557600080fd5b85356001600160401b03811115613b3b57600080fd5b613b47888289016134c2565b9096509450613b5b90508760208801613748565b9250613b6a6101e08701613691565b9150613b796102008701613691565b90509295509295909350565b6020808252601f908201527f5265656e7472616e637947756172643a207265656e7472616e742063616c6c00604082015260600190565b8183823760009101908152919050565b60208082526010908201526f756e737570706f727465642073616c6560801b604082015260600190565b634e487b7160e01b600052603260045260246000fd5b600060208284031215613c1e57600080fd5b5051919050565b60208082526024908201527f41646d696e436f6e74726f6c3a204d757374206265206f776e6572206f7220616040820152633236b4b760e11b606082015260800190565b60208082526023908201527f7468652061756374696f6e206269642068617320616c726561647920737461726040820152621d195960ea1b606082015260800190565b60005b83811015613cc7578181015183820152602001613caf565b50506000910152565b60008251613ce2818460208701613cac565b9190910192915050565b6020808252818101527f4f776e61626c653a2063616c6c6572206973206e6f7420746865206f776e6572604082015260600190565b634e487b7160e01b600052601160045260246000fd5b600060018201613d4957613d49613d21565b5060010190565b8082028115828204841417610b5d57610b5d613d21565b600082613d8457634e487b7160e01b600052601260045260246000fd5b500490565b80820180821115610b5d57610b5d613d21565b81810381811115610b5d57610b5d613d21565b63ffffffff808251168352602081818401511681850152604083015191506040840160005b6002811015613dfa5783516001600160a01b031682529282019290820190600101613dd4565b5050606083015191506080840160005b6002811015613e2757835182529282019290820190600101613e0a565b505050505050565b82516001600160a01b03908116825260208085015190830152604080850151908301526060808501518216908301526080808501519083015260a084810151918216908301526102808201905060c084015160c083015260e084015160e083015261010080850151613ea382850182613a2b565b50506129746101c0830184613daf565b61ffff8181168382160190808211156131f3576131f3613d21565b6001600160e01b031991909116815260200190565b600060208284031215613ef557600080fd5b8151801515811461297457600080fd5b600060208284031215613f1757600080fd5b8151612974816137d0565b60008135610b5d816137d0565b80546001600160a01b0319166001600160a01b0392909216919091179055565b805461ffff60a01b191660a09290921b61ffff60a01b16919091179055565b8135613f79816137d0565b613f838183613f2f565b506020820135613f92816137d0565b613f9f8160018401613f2f565b50600281016040830135613fb2816137d0565b613fbc8183613f2f565b506060830135613fcb81613adf565b613fd58183613f4f565b5050600381016080830135613fe9816137d0565b613ff38183613f2f565b5060a083013561400281613adf565b6130fa8183613f4f565b61401e61401883613f22565b82613f2f565b602082013560018201556040820135600282015561404a61404160608401613f22565b60038301613f2f565b6080820135600482015561406c61406360a08401613f22565b60058301613f2f565b60c0820135600682015560e08201356007820155611074610100830160088301613f6e565b6000813561409e816137d0565b6001600160a01b0390811684526020830135906140ba826137d0565b90811660208501526040830135906140d1826137d0565b90811660408501526060830135906140e882613adf565b61ffff9182166060860152608084013591614102836137d0565b918116608086015260a08401359161411983613adf565b9190911660a0850152505060c0909101919050565b6000823561413b816137d0565b6001600160a01b039081168352602084810135908401526040808501359084015260608401359061416b826137d0565b166060830152608083810135908301526141cd6141c36141b66141a960a0808701906141989089016137e5565b6001600160a01b0316815260200190565b60c0870135815260200190565b60e0860135815260200190565b6101008501614091565b50506101c001919050565b600082601f8301126141e957600080fd5b815160206141f961361683613578565b82815260059290921b8401810191818101908684111561421857600080fd5b8286015b84811015614233578051835291830191830161421c565b509695505050505050565b6000806040838503121561425157600080fd5b82516001600160401b038082111561426857600080fd5b818501915085601f83011261427c57600080fd5b8151602061428c61361683613578565b82815260059290921b840181019181810190898411156142ab57600080fd5b948201945b838610156142d25785516142c3816137d0565b825294820194908201906142b0565b918801519196509093505050808211156142eb57600080fd5b506142f8858286016141d8565b9150509250929050565b634e487b7160e01b600052603160045260246000fd5b6020815260008251806020840152614337816040850160208701613cac565b601f01601f1916919091016040019291505056fea26469706673582212204b986fdf70527ee976e54ac5c25a94e1aa34fd8b109336ee5f1bfeb4e52af52764736f6c63430008110033",
  "linkReferences": {},
  "deployedLinkReferences": {}
}