{
  "_format": "hh-sol-artifact-1",
  "contractName": "AuctionHouse",
  "sourceName": "contracts/mojito/onchain-sales/AuctionHouse.sol",
  "abi": [
    {
      "inputs": [
        {
          "internalType": "address",
          "name": "_nftAddress",
          "type": "address"
        },
        {
          "internalType": "address",
          "name": "_weth",
          "type": "address"
        }
      ],
      "stateMutability": "nonpayable",
      "type": "constructor"
    },
    {
      "anonymous": false,
      "inputs": [
        {
          "indexed": true,
          "internalType": "uint256",
          "name": "auctionId",
          "type": "uint256"
        },
        {
          "indexed": true,
          "internalType": "uint256",
          "name": "tokenId",
          "type": "uint256"
        },
        {
          "indexed": true,
          "internalType": "address",
          "name": "tokenContract",
          "type": "address"
        },
        {
          "indexed": false,
          "internalType": "bool",
          "name": "approved",
          "type": "bool"
        }
      ],
      "name": "AuctionApprovalUpdated",
      "type": "event"
    },
    {
      "anonymous": false,
      "inputs": [
        {
          "indexed": true,
          "internalType": "uint256",
          "name": "auctionId",
          "type": "uint256"
        },
        {
          "indexed": true,
          "internalType": "uint256",
          "name": "tokenId",
          "type": "uint256"
        },
        {
          "indexed": true,
          "internalType": "address",
          "name": "tokenContract",
          "type": "address"
        },
        {
          "indexed": false,
          "internalType": "address",
          "name": "sender",
          "type": "address"
        },
        {
          "indexed": false,
          "internalType": "uint256",
          "name": "value",
          "type": "uint256"
        },
        {
          "indexed": false,
          "internalType": "bool",
          "name": "firstBid",
          "type": "bool"
        },
        {
          "indexed": false,
          "internalType": "bool",
          "name": "extended",
          "type": "bool"
        }
      ],
      "name": "AuctionBid",
      "type": "event"
    },
    {
      "anonymous": false,
      "inputs": [
        {
          "indexed": true,
          "internalType": "uint256",
          "name": "auctionId",
          "type": "uint256"
        },
        {
          "indexed": true,
          "internalType": "uint256",
          "name": "tokenId",
          "type": "uint256"
        },
        {
          "indexed": true,
          "internalType": "address",
          "name": "tokenContract",
          "type": "address"
        },
        {
          "indexed": false,
          "internalType": "address",
          "name": "tokenOwner",
          "type": "address"
        },
        {
          "indexed": false,
          "internalType": "uint256",
          "name": "quantity",
          "type": "uint256"
        }
      ],
      "name": "AuctionCanceled",
      "type": "event"
    },
    {
      "anonymous": false,
      "inputs": [
        {
          "indexed": true,
          "internalType": "uint256",
          "name": "auctionId",
          "type": "uint256"
        },
        {
          "indexed": true,
          "internalType": "uint256",
          "name": "tokenId",
          "type": "uint256"
        },
        {
          "indexed": true,
          "internalType": "address",
          "name": "tokenContract",
          "type": "address"
        },
        {
          "indexed": false,
          "internalType": "uint256",
          "name": "duration",
          "type": "uint256"
        },
        {
          "indexed": false,
          "internalType": "uint256",
          "name": "reservePrice",
          "type": "uint256"
        },
        {
          "indexed": false,
          "internalType": "address",
          "name": "tokenOwner",
          "type": "address"
        },
        {
          "indexed": false,
          "internalType": "address",
          "name": "curator",
          "type": "address"
        },
        {
          "indexed": false,
          "internalType": "uint8",
          "name": "curatorFeePercentage",
          "type": "uint8"
        },
        {
          "indexed": false,
          "internalType": "address",
          "name": "auctionCurrency",
          "type": "address"
        },
        {
          "indexed": false,
          "internalType": "uint256",
          "name": "quantity",
          "type": "uint256"
        }
      ],
      "name": "AuctionCreated",
      "type": "event"
    },
    {
      "anonymous": false,
      "inputs": [
        {
          "indexed": true,
          "internalType": "uint256",
          "name": "auctionId",
          "type": "uint256"
        },
        {
          "indexed": true,
          "internalType": "uint256",
          "name": "tokenId",
          "type": "uint256"
        },
        {
          "indexed": true,
          "internalType": "address",
          "name": "tokenContract",
          "type": "address"
        },
        {
          "indexed": false,
          "internalType": "uint256",
          "name": "duration",
          "type": "uint256"
        }
      ],
      "name": "AuctionDurationExtended",
      "type": "event"
    },
    {
      "anonymous": false,
      "inputs": [
        {
          "indexed": true,
          "internalType": "uint256",
          "name": "auctionId",
          "type": "uint256"
        },
        {
          "indexed": true,
          "internalType": "uint256",
          "name": "tokenId",
          "type": "uint256"
        },
        {
          "indexed": true,
          "internalType": "address",
          "name": "tokenContract",
          "type": "address"
        },
        {
          "indexed": false,
          "internalType": "address",
          "name": "tokenOwner",
          "type": "address"
        },
        {
          "indexed": false,
          "internalType": "address",
          "name": "curator",
          "type": "address"
        },
        {
          "indexed": false,
          "internalType": "address",
          "name": "winner",
          "type": "address"
        },
        {
          "indexed": false,
          "internalType": "uint256",
          "name": "amount",
          "type": "uint256"
        },
        {
          "indexed": false,
          "internalType": "uint256",
          "name": "curatorFee",
          "type": "uint256"
        },
        {
          "indexed": false,
          "internalType": "address",
          "name": "auctionCurrency",
          "type": "address"
        },
        {
          "indexed": false,
          "internalType": "uint256",
          "name": "quantity",
          "type": "uint256"
        }
      ],
      "name": "AuctionEnded",
      "type": "event"
    },
    {
      "anonymous": false,
      "inputs": [
        {
          "indexed": true,
          "internalType": "uint256",
          "name": "auctionId",
          "type": "uint256"
        },
        {
          "indexed": true,
          "internalType": "uint256",
          "name": "tokenId",
          "type": "uint256"
        },
        {
          "indexed": true,
          "internalType": "address",
          "name": "tokenContract",
          "type": "address"
        },
        {
          "indexed": false,
          "internalType": "uint256",
          "name": "reservePrice",
          "type": "uint256"
        }
      ],
      "name": "AuctionReservePriceUpdated",
      "type": "event"
    },
    {
      "stateMutability": "payable",
      "type": "fallback"
    },
    {
      "inputs": [
        {
          "internalType": "uint256",
          "name": "",
          "type": "uint256"
        }
      ],
      "name": "auctions",
      "outputs": [
        {
          "internalType": "uint256",
          "name": "tokenId",
          "type": "uint256"
        },
        {
          "internalType": "address",
          "name": "tokenContract",
          "type": "address"
        },
        {
          "internalType": "bool",
          "name": "approved",
          "type": "bool"
        },
        {
          "internalType": "uint256",
          "name": "amount",
          "type": "uint256"
        },
        {
          "internalType": "uint256",
          "name": "maxPrice",
          "type": "uint256"
        },
        {
          "internalType": "uint256",
          "name": "startTime",
          "type": "uint256"
        },
        {
          "internalType": "uint256",
          "name": "duration",
          "type": "uint256"
        },
        {
          "internalType": "uint256",
          "name": "firstBidTime",
          "type": "uint256"
        },
        {
          "internalType": "uint256",
          "name": "reservePrice",
          "type": "uint256"
        },
        {
          "internalType": "uint8",
          "name": "curatorFeePercentage",
          "type": "uint8"
        },
        {
          "internalType": "address",
          "name": "tokenOwner",
          "type": "address"
        },
        {
          "internalType": "address payable",
          "name": "bidder",
          "type": "address"
        },
        {
          "internalType": "address payable",
          "name": "curator",
          "type": "address"
        },
        {
          "internalType": "address",
          "name": "auctionCurrency",
          "type": "address"
        }
      ],
      "stateMutability": "view",
      "type": "function"
    },
    {
      "inputs": [
        {
          "internalType": "uint256",
          "name": "auctionId",
          "type": "uint256"
        }
      ],
      "name": "cancelAuction",
      "outputs": [],
      "stateMutability": "nonpayable",
      "type": "function"
    },
    {
      "inputs": [
        {
          "internalType": "uint256",
          "name": "tokenId",
          "type": "uint256"
        },
        {
          "internalType": "address",
          "name": "tokenContract",
          "type": "address"
        },
        {
          "internalType": "uint256",
          "name": "duration",
          "type": "uint256"
        },
        {
          "internalType": "uint256",
          "name": "reservePrice",
          "type": "uint256"
        },
        {
          "internalType": "address payable",
          "name": "curator",
          "type": "address"
        },
        {
          "internalType": "uint8",
          "name": "curatorFeePercentage",
          "type": "uint8"
        },
        {
          "internalType": "address",
          "name": "auctionCurrency",
          "type": "address"
        },
        {
          "internalType": "uint256",
          "name": "maxPrice",
          "type": "uint256"
        },
        {
          "internalType": "uint256",
          "name": "startTime",
          "type": "uint256"
        },
        {
          "internalType": "uint256",
          "name": "quantity",
          "type": "uint256"
        }
      ],
      "name": "createAuction",
      "outputs": [
        {
          "internalType": "uint256",
          "name": "",
          "type": "uint256"
        }
      ],
      "stateMutability": "nonpayable",
      "type": "function"
    },
    {
      "inputs": [
        {
          "internalType": "uint256",
          "name": "auctionId",
          "type": "uint256"
        },
        {
          "internalType": "uint256",
          "name": "amount",
          "type": "uint256"
        }
      ],
      "name": "createBid",
      "outputs": [],
      "stateMutability": "payable",
      "type": "function"
    },
    {
      "inputs": [
        {
          "internalType": "uint256",
          "name": "auctionId",
          "type": "uint256"
        }
      ],
      "name": "endAuction",
      "outputs": [],
      "stateMutability": "nonpayable",
      "type": "function"
    },
    {
      "inputs": [],
      "name": "minBidIncrementPercentage",
      "outputs": [
        {
          "internalType": "uint8",
          "name": "",
          "type": "uint8"
        }
      ],
      "stateMutability": "view",
      "type": "function"
    },
    {
      "inputs": [],
      "name": "nftAddress",
      "outputs": [
        {
          "internalType": "address",
          "name": "",
          "type": "address"
        }
      ],
      "stateMutability": "view",
      "type": "function"
    },
    {
      "inputs": [
        {
          "internalType": "address",
          "name": "",
          "type": "address"
        },
        {
          "internalType": "address",
          "name": "",
          "type": "address"
        },
        {
          "internalType": "uint256[]",
          "name": "",
          "type": "uint256[]"
        },
        {
          "internalType": "uint256[]",
          "name": "",
          "type": "uint256[]"
        },
        {
          "internalType": "bytes",
          "name": "",
          "type": "bytes"
        }
      ],
      "name": "onERC1155BatchReceived",
      "outputs": [
        {
          "internalType": "bytes4",
          "name": "",
          "type": "bytes4"
        }
      ],
      "stateMutability": "nonpayable",
      "type": "function"
    },
    {
      "inputs": [
        {
          "internalType": "address",
          "name": "",
          "type": "address"
        },
        {
          "internalType": "address",
          "name": "",
          "type": "address"
        },
        {
          "internalType": "uint256",
          "name": "",
          "type": "uint256"
        },
        {
          "internalType": "uint256",
          "name": "",
          "type": "uint256"
        },
        {
          "internalType": "bytes",
          "name": "",
          "type": "bytes"
        }
      ],
      "name": "onERC1155Received",
      "outputs": [
        {
          "internalType": "bytes4",
          "name": "",
          "type": "bytes4"
        }
      ],
      "stateMutability": "nonpayable",
      "type": "function"
    },
    {
      "inputs": [
        {
          "internalType": "uint256",
          "name": "auctionId",
          "type": "uint256"
        },
        {
          "internalType": "bool",
          "name": "approved",
          "type": "bool"
        }
      ],
      "name": "setAuctionApproval",
      "outputs": [],
      "stateMutability": "nonpayable",
      "type": "function"
    },
    {
      "inputs": [
        {
          "internalType": "uint256",
          "name": "auctionId",
          "type": "uint256"
        },
        {
          "internalType": "uint256",
          "name": "reservePrice",
          "type": "uint256"
        }
      ],
      "name": "setAuctionReservePrice",
      "outputs": [],
      "stateMutability": "nonpayable",
      "type": "function"
    },
    {
      "inputs": [],
      "name": "timeBuffer",
      "outputs": [
        {
          "internalType": "uint256",
          "name": "",
          "type": "uint256"
        }
      ],
      "stateMutability": "view",
      "type": "function"
    },
    {
      "inputs": [],
      "name": "wethAddress",
      "outputs": [
        {
          "internalType": "address",
          "name": "",
          "type": "address"
        }
      ],
      "stateMutability": "view",
      "type": "function"
    },
    {
      "stateMutability": "payable",
      "type": "receive"
    }
  ],
  "bytecode": "0x60806040523480156200001157600080fd5b5060405162003078380380620030788339810160408190526200003491620001e4565b60016000556040516301ffc9a760e01b81526380ac58cd60e01b60048201526001600160a01b038316906301ffc9a790602401602060405180830381865afa15801562000085573d6000803e3d6000fd5b505050506040513d601f19601f82011682018060405250810190620000ab91906200021c565b806200012457506040516301ffc9a760e01b8152636cdb3d1360e11b60048201526001600160a01b038316906301ffc9a790602401602060405180830381865afa158015620000fe573d6000803e3d6000fd5b505050506040513d601f19601f820116820180604052508101906200012491906200021c565b620001755760405162461bcd60e51b815260206004820152601d60248201527f446f65736e277420737570706f7274204e465420696e74657266616365000000604482015260640160405180910390fd5b60028054600380546001600160a01b039485166001600160a01b031990911617905561038460015560ff199290931661010002919091166001600160a81b031990921691909117600517905562000247565b80516001600160a01b0381168114620001df57600080fd5b919050565b60008060408385031215620001f857600080fd5b6200020383620001c7565b91506200021360208401620001c7565b90509250929050565b6000602082840312156200022f57600080fd5b815180151581146200024057600080fd5b9392505050565b612e2180620002576000396000f3fe6080604052600436106100bd5760003560e01c8063973ddb4a11610079578063b9a2de3a11610056578063b9a2de3a1461031d578063bc197c811461033d578063ec91f2a414610376578063f23a6e611461038c57005b8063973ddb4a146102be578063b296024d146102de578063b7751c711461030a57005b80634f0e0ef3146100c6578063571a26a0146101035780635bf8633a1461022b5780636f8a41e11461025057806374357a151461027057806396b5a7551461029e57005b366100c457005b005b3480156100d257600080fd5b506003546100e6906001600160a01b031681565b6040516001600160a01b0390911681526020015b60405180910390f35b34801561010f57600080fd5b5061019e61011e366004612807565b600460208190526000918252604090912080546001820154600283015460038401549484015460058501546006860154600787015460088801546009890154600a8a0154600b909a0154989a6001600160a01b03808a169b60ff600160a01b909b048b169b999a929992851694610100900482169382169290821691168e565b6040516100fa9e9d9c9b9a999897969594939291909d8e526001600160a01b039c8d1660208f01529a151560408e015260608d019990995260808c019790975260a08b019590955260c08a019390935260e089019190915261010088015260ff16610120870152841661014086015283166101608501528216610180840152166101a08201526101c00190565b34801561023757600080fd5b506002546100e69061010090046001600160a01b031681565b34801561025c57600080fd5b506100c461026b366004612820565b6103b8565b34801561027c57600080fd5b5061029061028b36600461285a565b6105bf565b6040519081526020016100fa565b3480156102aa57600080fd5b506100c46102b9366004612807565b611018565b3480156102ca57600080fd5b506100c46102d9366004612908565b611148565b3480156102ea57600080fd5b506002546102f89060ff1681565b60405160ff90911681526020016100fa565b6100c4610318366004612820565b611245565b34801561032957600080fd5b506100c4610338366004612807565b6117d3565b34801561034957600080fd5b50610369610358366004612a64565b63bc197c8160e01b95945050505050565b6040516100fa9190612b12565b34801561038257600080fd5b5061029060015481565b34801561039857600080fd5b506103696103a7366004612b27565b63f23a6e6160e01b95945050505050565b816103c281611953565b6103e75760405162461bcd60e51b81526004016103de90612b90565b60405180910390fd5b6000838152600460205260409020600a01546001600160a01b031633148061042d575060008381526004602052604090206008015461010090046001600160a01b031633145b6104885760405162461bcd60e51b815260206004820152602660248201527f4d7573742062652061756374696f6e2063757261746f72206f7220746f6b656e6044820152651037bbb732b960d11b60648201526084016103de565b600083815260046020526040902060060154156104e75760405162461bcd60e51b815260206004820152601b60248201527f41756374696f6e2068617320616c72656164792073746172746564000000000060448201526064016103de565b600083815260046020526040902060030154821061055b5760405162461bcd60e51b815260206004820152602b60248201527f7265736572766550726963652073686f756c64206265206c657373657220746860448201526a616e206d6178507269636560a81b60648201526084016103de565b600083815260046020908152604091829020600781018590556001810154905492518581526001600160a01b03909116929186917f01e6a465ec1edd582d333147c7b7edf5998164f2cf2269dcb9c93d46c67bd317910160405180910390a4505050565b60006002600054036105e35760405162461bcd60e51b81526004016103de90612bbf565b60026000556040516301ffc9a760e01b81526001600160a01b038b16906301ffc9a79061061b906380ac58cd60e01b90600401612b12565b602060405180830381865afa158015610638573d6000803e3d6000fd5b505050506040513d601f19601f8201168201806040525081019061065c9190612bf6565b806106d657506040516301ffc9a760e01b81526001600160a01b038b16906301ffc9a79061069590636cdb3d1360e11b90600401612b12565b602060405180830381865afa1580156106b2573d6000803e3d6000fd5b505050506040513d601f19601f820116820180604052508101906106d69190612bf6565b6107485760405162461bcd60e51b815260206004820152603a60248201527f746f6b656e436f6e747261637420646f6573206e6f7420737570706f7274204560448201527f5243373231206f72204552433131353520696e7465726661636500000000000060648201526084016103de565b60648660ff16106107ae5760405162461bcd60e51b815260206004820152602a60248201527f63757261746f7246656550657263656e74616765206d757374206265206c6573604482015269073207468616e203130360b41b60648201526084016103de565b8784116108125760405162461bcd60e51b815260206004820152602c60248201527f6d617850726963652073686f756c642062652067726561746572207468616e2060448201526b72657365727665507269636560a01b60648201526084016103de565b600061081d60065490565b905060008c60046000848152602001908152602001600020600001819055508360056000848152602001908152602001600020819055508b6001600160a01b03166301ffc9a76380ac58cd60e01b6040518263ffffffff1660e01b81526004016108879190612b12565b602060405180830381865afa1580156108a4573d6000803e3d6000fd5b505050506040513d601f19601f820116820180604052508101906108c89190612bf6565b15610b385760008281526005602052604090205460011461093b5760405162461bcd60e51b815260206004820152602760248201527f7175616e7469747920666f72203732312073686f756c6420626520657175616c60448201526620746f206f6e6560c81b60648201526084016103de565b6000828152600460208190526040918290205491516331a9108f60e11b81526001600160a01b038f1692636352211e92610979920190815260200190565b602060405180830381865afa158015610996573d6000803e3d6000fd5b505050506040513d601f19601f820116820180604052508101906109ba9190612c13565b60008381526004602081905260409182902054915163020604bf60e21b8152908101919091529091506001600160a01b038d169063081812fc90602401602060405180830381865afa158015610a14573d6000803e3d6000fd5b505050506040513d601f19601f82011682018060405250810190610a389190612c13565b6001600160a01b0316336001600160a01b03161480610a5f5750336001600160a01b038216145b610ac15760405162461bcd60e51b815260206004820152602d60248201527f43616c6c6572206d75737420626520617070726f766564206f72206f776e657260448201526c08199bdc881d1bdad95b881a59609a1b60648201526084016103de565b6000828152600460208190526040918290205491516323b872dd60e01b81526001600160a01b038f16926323b872dd92610b019286923092909101612c30565b600060405180830381600087803b158015610b1b57600080fd5b505af1158015610b2f573d6000803e3d6000fd5b50505050610d1b565b6000828152600460208190526040808320549051627eeac760e11b8152339281019290925260248201526001600160a01b038e169062fdd58e90604401602060405180830381865afa158015610b92573d6000803e3d6000fd5b505050506040513d601f19601f82011682018060405250810190610bb69190612c54565b6000848152600560205260409020549091508110801590610be4575060008381526005602052604090205415155b610c705760405162461bcd60e51b815260206004820152605160248201527f7175616e746974792073686f756c64206265206d6f7265207468616e207a657260448201527f6f2026262073686f756c64206265206c657373207468616e206f7220657175616064820152706c20746f206f776e657242616c616e636560781b608482015260a4016103de565b600083815260046020818152604080842054600590925292839020549251637921219560e11b8152338184018190523060248301526044820192909252606481019390935260a0608484015260a4830191909152630307830360e41b60c483015292506001600160a01b038e169063f242432a9060e401600060405180830381600087803b158015610d0157600080fd5b505af1158015610d15573d6000803e3d6000fd5b50505050505b604051806101c001604052808e81526020018d6001600160a01b03168152602001600015158152602001600081526020018781526020018681526020018c8152602001600081526020018b81526020018960ff168152602001826001600160a01b0316815260200160006001600160a01b031681526020018a6001600160a01b03168152602001886001600160a01b0316815250600460008481526020019081526020016000206000820151816000015560208201518160010160006101000a8154816001600160a01b0302191690836001600160a01b0316021790555060408201518160010160146101000a81548160ff021916908315150217905550606082015181600201556080820151816003015560a0820151816004015560c0820151816005015560e0820151816006015561010082015181600701556101208201518160080160006101000a81548160ff021916908360ff1602179055506101408201518160080160016101000a8154816001600160a01b0302191690836001600160a01b031602179055506101608201518160090160006101000a8154816001600160a01b0302191690836001600160a01b0316021790555061018082015181600a0160006101000a8154816001600160a01b0302191690836001600160a01b031602179055506101a082015181600b0160006101000a8154816001600160a01b0302191690836001600160a01b03160217905550905050610f41600680546001019055565b6000828152600560209081526040918290205482518e81529182018d90526001600160a01b03848116938301939093528b8316606083015260ff8b16608083015289831660a083015260c0820152908d16908e9084907f7ededa5ddb432b4568129753c879d4f557ccf360eff1e660af372b448a53433a9060e00160405180910390a46000828152600460205260409020600a01546001600160a01b03161580610ff357506001600160a01b03891633145b1561100357611003826001611978565b5060016000559b9a5050505050505050505050565b60026000540361103a5760405162461bcd60e51b81526004016103de90612bbf565b60026000558061104981611953565b6110655760405162461bcd60e51b81526004016103de90612b90565b60008281526004602052604090206008015461010090046001600160a01b03163314806110ab57506000828152600460205260409020600a01546001600160a01b031633145b6110c75760405162461bcd60e51b81526004016103de90612c6d565b600082815260046020526040902060060154156111365760405162461bcd60e51b815260206004820152602760248201527f43616e27742063616e63656c20616e2061756374696f6e206f6e63652069742760448201526639903132b3bab760c91b60648201526084016103de565b61113f826119f9565b50506001600055565b8161115281611953565b61116e5760405162461bcd60e51b81526004016103de90612b90565b6000838152600460205260409020600a01546001600160a01b031633146111d75760405162461bcd60e51b815260206004820152601760248201527f4d7573742062652061756374696f6e2063757261746f7200000000000000000060448201526064016103de565b600083815260046020526040902060060154156112365760405162461bcd60e51b815260206004820152601b60248201527f41756374696f6e2068617320616c72656164792073746172746564000000000060448201526064016103de565b6112408383611978565b505050565b8161124f81611953565b61126b5760405162461bcd60e51b81526004016103de90612b90565b60026000540361128d5760405162461bcd60e51b81526004016103de90612bbf565b60026000908155838152600460208190526040909120015442116112f35760405162461bcd60e51b815260206004820152601b60248201527f61756374696f6e20686173206e6f74207965742073746172746564000000000060448201526064016103de565b600083815260046020526040902060098101546001909101546001600160a01b0390911690600160a01b900460ff1661137a5760405162461bcd60e51b815260206004820152602360248201527f41756374696f6e206d75737420626520617070726f76656420627920637572616044820152623a37b960e91b60648201526084016103de565b60008481526004602052604090206006015415806113b85750600084815260046020526040902060058101546006909101546113b591611ca5565b42105b6113f65760405162461bcd60e51b815260206004820152600f60248201526e105d58dd1a5bdb88195e1c1a5c9959608a1b60448201526064016103de565b6000848152600460205260409020600701548310156114575760405162461bcd60e51b815260206004820152601f60248201527f4d7573742073656e64206174206c65617374207265736572766550726963650060448201526064016103de565b600280546000868152600460205260409020909101546114a39161148b91606491611485919060ff16611cba565b90611cc6565b60008681526004602052604090206002015490611ca5565b83101561151a576040805162461bcd60e51b81526020600482015260248101919091527f4d7573742073656e64206d6f7265207468616e206c617374206269642062792060448201527f6d696e426964496e6372656d656e7450657263656e7461676520616d6f756e7460648201526084016103de565b600084815260046020526040812060060154900361154c57600084815260046020526040902042600690910155611588565b6001600160a01b038116156115885760008481526004602052604090206002810154600b909101546115889183916001600160a01b0316611cd2565b6000848152600460205260409020600b01546115ae9084906001600160a01b0316611de2565b6000848152600460205260409020600281018490556009810180546001600160a01b0319163317905560030154831015611751576001546000858152600460205260408120600581015460069091015491929161161691429161161091611ca5565b90612034565b1015611675576000858152600460205260409020600581015460069091015461165d906116569061164d9042906116109086611ca5565b60015490612034565b8290611ca5565b60008781526004602052604090206005015550600190505b6000858152600460209081526040918290206001810154905483513381529283018890526001600160a01b03868116159484019490945284151560608401529216919087907fda6b779568630ce5e5658b317174df474d5b335541ed9471bd8424a017f3be6d9060800160405180910390a4801561174b576000858152600460209081526040918290206001810154815460059092015493519384526001600160a01b031692909188917f55cf2b31608fbe49fa31cd0285b6b6cce46f56d26c8c59980a2af5a0ffbdd5db910160405180910390a45b506117c8565b60008481526004602090815260408083206001810154905482513381529384018890526001600160a01b03868116158585015260608501959095529151931692909187917fda6b779568630ce5e5658b317174df474d5b335541ed9471bd8424a017f3be6d9181900360800190a46117c884612040565b505060016000555050565b806117dd81611953565b6117f95760405162461bcd60e51b81526004016103de90612b90565b60026000540361181b5760405162461bcd60e51b81526004016103de90612bbf565b600260009081558281526004602052604090206008015461010090046001600160a01b031633148061186657506000828152600460205260409020600a01546001600160a01b031633145b6118825760405162461bcd60e51b81526004016103de90612c6d565b60008281526004602052604081206006015490036118d95760405162461bcd60e51b815260206004820152601460248201527320bab1ba34b7b7103430b9b713ba103132b3bab760611b60448201526064016103de565b600082815260046020526040902060058101546006909101546118fb91611ca5565b42101561194a5760405162461bcd60e51b815260206004820152601860248201527f41756374696f6e206861736e277420636f6d706c65746564000000000000000060448201526064016103de565b61113f82612040565b60009081526004602052604090206008015461010090046001600160a01b0316151590565b60008281526004602052604090819020600181018054841515600160a01b0260ff60a01b1982168117909255915492516001600160a01b039182169190921617919084907fec35d321ab4972475f131e184c0c0fe52c5a58a29d74f7db2969af2f6dd93a1f906119ed90861515815260200190565b60405180910390a45050565b60008181526004602081815260408084206008810154600584529482902054928490526001015490516301ffc9a760e01b81526101009094046001600160a01b039081169492939116916301ffc9a791611a5c916380ac58cd60e01b9101612b12565b602060405180830381865afa158015611a79573d6000803e3d6000fd5b505050506040513d601f19601f82011682018060405250810190611a9d9190612bf6565b15611b2057600083815260046020819052604091829020600181015490549251632142170760e11b81526001600160a01b03909116926342842e0e92611ae99230928892909101612c30565b600060405180830381600087803b158015611b0357600080fd5b505af1158015611b17573d6000803e3d6000fd5b50505050611bb7565b6040805180820182526002815261060f60f31b6020808301919091526000868152600491829052839020600181015490549351637921219560e11b815292936001600160a01b039091169263f242432a92611b8392309289928991899101612d0d565b600060405180830381600087803b158015611b9d57600080fd5b505af1158015611bb1573d6000803e3d6000fd5b50505050505b6000838152600460209081526040918290206001810154905483516001600160a01b0387811682529381018690529290911692909186917f935382ddd5fd731136e8c058933dd135363e921a770dfd9f1b89a80b6bb430a7910160405180910390a45050600090815260046020819052604082208281556001810180546001600160a81b031990811690915560028201849055600382018490559181018390556005810183905560068101839055600781019290925560088201805490911690556009810180546001600160a01b0319908116909155600a8201805482169055600b90910180549091169055565b6000611cb18284612d5d565b90505b92915050565b6000611cb18284612d70565b6000611cb18284612d87565b6001600160a01b038116611dce57600354604051632e1a7d4d60e01b8152600481018490526001600160a01b0390911690632e1a7d4d90602401600060405180830381600087803b158015611d2657600080fd5b505af1158015611d3a573d6000803e3d6000fd5b50505050611d4883836124ba565b61124057600360009054906101000a90046001600160a01b03166001600160a01b031663d0e30db0836040518263ffffffff1660e01b81526004016000604051808303818588803b158015611d9c57600080fd5b505af1158015611db0573d6000803e3d6000fd5b505060035461124093506001600160a01b0316915085905084612531565b6112406001600160a01b0382168484612531565b6001600160a01b038116611ec757813414611e5a5760405162461bcd60e51b815260206004820152603260248201527f53656e74204554482056616c756520646f6573206e6f74206d617463682073706044820152711958da599a595908189a5908185b5bdd5b9d60721b60648201526084016103de565b600360009054906101000a90046001600160a01b03166001600160a01b031663d0e30db0836040518263ffffffff1660e01b81526004016000604051808303818588803b158015611eaa57600080fd5b505af1158015611ebe573d6000803e3d6000fd5b50505050505050565b6040516370a0823160e01b815230600482015281906000906001600160a01b038316906370a0823190602401602060405180830381865afa158015611f10573d6000803e3d6000fd5b505050506040513d601f19601f82011682018060405250810190611f349190612c54565b9050611f4b6001600160a01b038316333087612594565b6040516370a0823160e01b81523060048201526000906001600160a01b038416906370a0823190602401602060405180830381865afa158015611f92573d6000803e3d6000fd5b505050506040513d601f19601f82011682018060405250810190611fb69190612c54565b905080611fc38387611ca5565b1461202d5760405162461bcd60e51b815260206004820152603460248201527f546f6b656e207472616e736665722063616c6c20646964206e6f74207472616e6044820152731cd9995c88195e1c1958dd195908185b5bdd5b9d60621b60648201526084016103de565b5050505050565b6000611cb18284612da9565b60008181526005602090815260408083205460049092528220600b01549091906001600160a01b03161561208e576000838152600460205260409020600b01546001600160a01b031661209b565b6003546001600160a01b03165b6000848152600460208190526040808320600281015460019091015491516301ffc9a760e01b815294955092936001600160a01b03909116916301ffc9a7916120ed916380ac58cd60e01b9101612b12565b602060405180830381865afa15801561210a573d6000803e3d6000fd5b505050506040513d601f19601f8201168201806040525081019061212e9190612bf6565b156121f0576000858152600460208190526040918290206001810154600982015491549351632142170760e11b81526001600160a01b03918216946342842e0e9461217d943094169201612c30565b600060405180830381600087803b15801561219757600080fd5b505af19250505080156121a8575060015b6121eb57600085815260046020526040902060098101546002820154600b909201546121e2926001600160a01b0392831692909116611cd2565b61202d856119f9565b6122d1565b6040805180820182526002815261060f60f31b60208083019190915260008881526004918290528390206001810154600982015491549451637921219560e11b815293946001600160a01b039182169463f242432a946122599430941692918c91899101612d0d565b600060405180830381600087803b15801561227357600080fd5b505af1925050508015612284575060015b6122cf57600086815260046020526040902060098101546002820154600b909201546122be926001600160a01b0392831692909116611cd2565b6122c7866119f9565b505050505050565b505b6000858152600460205260409020600a01546001600160a01b031615612358576000858152600460205260409020600801546123189060649061148590849060ff16611cba565b91506123248183612034565b6000868152600460205260409020600a810154600b90910154919250612358916001600160a01b0391821691859116611cd2565b60008581526004602052604090206008810154600b9091015461238e916001600160a01b03610100909104811691849116611cd2565b600085815260046020908152604091829020600181015481546008830154600a84015460099094015486516001600160a01b03610100909304831681529482169585019590955293841683860152606083018690526080830187905287841660a084015260c0830189905293519216929188917fd6c28e28e5246739d4020d837c18819531d7448259d26c582fa7d972b5673e64919081900360e00190a450505060009182525060046020819052604082208281556001810180546001600160a81b031990811690915560028201849055600382018490559181018390556005810183905560068101839055600781019290925560088201805490911690556009810180546001600160a01b0319908116909155600a8201805482169055600b90910180549091169055565b60408051600080825260208201928390529182916001600160a01b0386169185916124e491612dbc565b60006040518083038185875af1925050503d8060008114612521576040519150601f19603f3d011682016040523d82523d6000602084013e612526565b606091505b509095945050505050565b6040516001600160a01b03831660248201526044810182905261124090849063a9059cbb60e01b906064015b60408051601f198184030181529190526020810180516001600160e01b03166001600160e01b0319909316929092179091526125bb565b6125b5846323b872dd60e01b85858560405160240161255d93929190612c30565b50505050565b6000612610826040518060400160405280602081526020017f5361666545524332303a206c6f772d6c6576656c2063616c6c206661696c6564815250856001600160a01b031661268d9092919063ffffffff16565b805190915015611240578080602001905181019061262e9190612bf6565b6112405760405162461bcd60e51b815260206004820152602a60248201527f5361666545524332303a204552433230206f7065726174696f6e20646964206e6044820152691bdd081cdd58d8d9595960b21b60648201526084016103de565b606061269c84846000856126a6565b90505b9392505050565b6060824710156127075760405162461bcd60e51b815260206004820152602660248201527f416464726573733a20696e73756666696369656e742062616c616e636520666f6044820152651c8818d85b1b60d21b60648201526084016103de565b843b6127555760405162461bcd60e51b815260206004820152601d60248201527f416464726573733a2063616c6c20746f206e6f6e2d636f6e747261637400000060448201526064016103de565b600080866001600160a01b031685876040516127719190612dbc565b60006040518083038185875af1925050503d80600081146127ae576040519150601f19603f3d011682016040523d82523d6000602084013e6127b3565b606091505b50915091506127c38282866127ce565b979650505050505050565b606083156127dd57508161269f565b8251156127ed5782518084602001fd5b8160405162461bcd60e51b81526004016103de9190612dd8565b60006020828403121561281957600080fd5b5035919050565b6000806040838503121561283357600080fd5b50508035926020909101359150565b6001600160a01b038116811461285757600080fd5b50565b6000806000806000806000806000806101408b8d03121561287a57600080fd5b8a35995060208b013561288c81612842565b985060408b0135975060608b0135965060808b01356128aa81612842565b955060a08b013560ff811681146128c057600080fd5b945060c08b01356128d081612842565b8094505060e08b013592506101008b013591506101208b013590509295989b9194979a5092959850565b801515811461285757600080fd5b6000806040838503121561291b57600080fd5b82359150602083013561292d816128fa565b809150509250929050565b634e487b7160e01b600052604160045260246000fd5b604051601f8201601f1916810167ffffffffffffffff8111828210171561297757612977612938565b604052919050565b600082601f83011261299057600080fd5b8135602067ffffffffffffffff8211156129ac576129ac612938565b8160051b6129bb82820161294e565b92835284810182019282810190878511156129d557600080fd5b83870192505b848310156127c3578235825291830191908301906129db565b600082601f830112612a0557600080fd5b813567ffffffffffffffff811115612a1f57612a1f612938565b612a32601f8201601f191660200161294e565b818152846020838601011115612a4757600080fd5b816020850160208301376000918101602001919091529392505050565b600080600080600060a08688031215612a7c57600080fd5b8535612a8781612842565b94506020860135612a9781612842565b9350604086013567ffffffffffffffff80821115612ab457600080fd5b612ac089838a0161297f565b94506060880135915080821115612ad657600080fd5b612ae289838a0161297f565b93506080880135915080821115612af857600080fd5b50612b05888289016129f4565b9150509295509295909350565b6001600160e01b031991909116815260200190565b600080600080600060a08688031215612b3f57600080fd5b8535612b4a81612842565b94506020860135612b5a81612842565b93506040860135925060608601359150608086013567ffffffffffffffff811115612b8457600080fd5b612b05888289016129f4565b602080825260159082015274105d58dd1a5bdb88191bd95cdb89dd08195e1a5cdd605a1b604082015260600190565b6020808252601f908201527f5265656e7472616e637947756172643a207265656e7472616e742063616c6c00604082015260600190565b600060208284031215612c0857600080fd5b815161269f816128fa565b600060208284031215612c2557600080fd5b815161269f81612842565b6001600160a01b039384168152919092166020820152604081019190915260600190565b600060208284031215612c6657600080fd5b5051919050565b60208082526030908201527f43616e206f6e6c792062652063616c6c65642062792061756374696f6e20637260408201526f32b0ba37b91037b91031bab930ba37b960811b606082015260800190565b60005b83811015612cd8578181015183820152602001612cc0565b50506000910152565b60008151808452612cf9816020860160208601612cbd565b601f01601f19169290920160200192915050565b6001600160a01b03868116825285166020820152604081018490526060810183905260a0608082018190526000906127c390830184612ce1565b634e487b7160e01b600052601160045260246000fd5b80820180821115611cb457611cb4612d47565b8082028115828204841417611cb457611cb4612d47565b600082612da457634e487b7160e01b600052601260045260246000fd5b500490565b81810381811115611cb457611cb4612d47565b60008251612dce818460208701612cbd565b9190910192915050565b602081526000611cb16020830184612ce156fea26469706673582212204c8838e824d469ee89370bff425bf9a55009c9ab55d4ca3adc18141052e2089f64736f6c63430008110033",
  "linkReferences": {},
  "deployedLinkReferences": {}
}