{
  "_format": "hh-sol-artifact-1",
  "contractName": "ERC721BurnRedeem",
  "sourceName": "contracts/manifold/creator-core-extensions/redeem/ERC721/ERC721BurnRedeem.sol",
  "abi": [
    {
      "inputs": [
        {
          "internalType": "address",
          "name": "creator",
          "type": "address"
        },
        {
          "internalType": "uint16",
          "name": "redemptionRate",
          "type": "uint16"
        },
        {
          "internalType": "uint16",
          "name": "redemptionMax",
          "type": "uint16"
        }
      ],
      "stateMutability": "nonpayable",
      "type": "constructor"
    },
    {
      "anonymous": false,
      "inputs": [
        {
          "indexed": true,
          "internalType": "address",
          "name": "account",
          "type": "address"
        },
        {
          "indexed": true,
          "internalType": "address",
          "name": "sender",
          "type": "address"
        }
      ],
      "name": "AdminApproved",
      "type": "event"
    },
    {
      "anonymous": false,
      "inputs": [
        {
          "indexed": true,
          "internalType": "address",
          "name": "account",
          "type": "address"
        },
        {
          "indexed": true,
          "internalType": "address",
          "name": "sender",
          "type": "address"
        }
      ],
      "name": "AdminRevoked",
      "type": "event"
    },
    {
      "anonymous": false,
      "inputs": [
        {
          "indexed": true,
          "internalType": "address",
          "name": "previousOwner",
          "type": "address"
        },
        {
          "indexed": true,
          "internalType": "address",
          "name": "newOwner",
          "type": "address"
        }
      ],
      "name": "OwnershipTransferred",
      "type": "event"
    },
    {
      "anonymous": false,
      "inputs": [
        {
          "indexed": false,
          "internalType": "address[]",
          "name": "contracts",
          "type": "address[]"
        },
        {
          "indexed": false,
          "internalType": "bool[]",
          "name": "approved",
          "type": "bool[]"
        }
      ],
      "name": "UpdateApprovedContracts",
      "type": "event"
    },
    {
      "anonymous": false,
      "inputs": [
        {
          "indexed": false,
          "internalType": "address",
          "name": "contract_",
          "type": "address"
        },
        {
          "indexed": false,
          "internalType": "uint256[]",
          "name": "minTokenIds",
          "type": "uint256[]"
        },
        {
          "indexed": false,
          "internalType": "uint256[]",
          "name": "maxTokenIds",
          "type": "uint256[]"
        }
      ],
      "name": "UpdateApprovedTokenRanges",
      "type": "event"
    },
    {
      "anonymous": false,
      "inputs": [
        {
          "indexed": false,
          "internalType": "address",
          "name": "contract_",
          "type": "address"
        },
        {
          "indexed": false,
          "internalType": "uint256[]",
          "name": "tokenIds",
          "type": "uint256[]"
        },
        {
          "indexed": false,
          "internalType": "bool[]",
          "name": "approved",
          "type": "bool[]"
        }
      ],
      "name": "UpdateApprovedTokens",
      "type": "event"
    },
    {
      "inputs": [
        {
          "internalType": "address",
          "name": "admin",
          "type": "address"
        }
      ],
      "name": "approveAdmin",
      "outputs": [],
      "stateMutability": "nonpayable",
      "type": "function"
    },
    {
      "inputs": [],
      "name": "creatorContract",
      "outputs": [
        {
          "internalType": "address",
          "name": "",
          "type": "address"
        }
      ],
      "stateMutability": "view",
      "type": "function"
    },
    {
      "inputs": [],
      "name": "getAdmins",
      "outputs": [
        {
          "internalType": "address[]",
          "name": "admins",
          "type": "address[]"
        }
      ],
      "stateMutability": "view",
      "type": "function"
    },
    {
      "inputs": [
        {
          "internalType": "address",
          "name": "admin",
          "type": "address"
        }
      ],
      "name": "isAdmin",
      "outputs": [
        {
          "internalType": "bool",
          "name": "",
          "type": "bool"
        }
      ],
      "stateMutability": "view",
      "type": "function"
    },
    {
      "inputs": [
        {
          "internalType": "uint256",
          "name": "tokenId",
          "type": "uint256"
        }
      ],
      "name": "mintNumber",
      "outputs": [
        {
          "internalType": "uint256",
          "name": "",
          "type": "uint256"
        }
      ],
      "stateMutability": "view",
      "type": "function"
    },
    {
      "inputs": [],
      "name": "mintedTokens",
      "outputs": [
        {
          "internalType": "uint256[]",
          "name": "",
          "type": "uint256[]"
        }
      ],
      "stateMutability": "view",
      "type": "function"
    },
    {
      "inputs": [
        {
          "internalType": "address",
          "name": "",
          "type": "address"
        },
        {
          "internalType": "address",
          "name": "from",
          "type": "address"
        },
        {
          "internalType": "uint256[]",
          "name": "ids",
          "type": "uint256[]"
        },
        {
          "internalType": "uint256[]",
          "name": "values",
          "type": "uint256[]"
        },
        {
          "internalType": "bytes",
          "name": "data",
          "type": "bytes"
        }
      ],
      "name": "onERC1155BatchReceived",
      "outputs": [
        {
          "internalType": "bytes4",
          "name": "",
          "type": "bytes4"
        }
      ],
      "stateMutability": "nonpayable",
      "type": "function"
    },
    {
      "inputs": [
        {
          "internalType": "address",
          "name": "",
          "type": "address"
        },
        {
          "internalType": "address",
          "name": "from",
          "type": "address"
        },
        {
          "internalType": "uint256",
          "name": "id",
          "type": "uint256"
        },
        {
          "internalType": "uint256",
          "name": "value",
          "type": "uint256"
        },
        {
          "internalType": "bytes",
          "name": "data",
          "type": "bytes"
        }
      ],
      "name": "onERC1155Received",
      "outputs": [
        {
          "internalType": "bytes4",
          "name": "",
          "type": "bytes4"
        }
      ],
      "stateMutability": "nonpayable",
      "type": "function"
    },
    {
      "inputs": [
        {
          "internalType": "address",
          "name": "",
          "type": "address"
        },
        {
          "internalType": "address",
          "name": "from",
          "type": "address"
        },
        {
          "internalType": "uint256",
          "name": "tokenId",
          "type": "uint256"
        },
        {
          "internalType": "bytes",
          "name": "data",
          "type": "bytes"
        }
      ],
      "name": "onERC721Received",
      "outputs": [
        {
          "internalType": "bytes4",
          "name": "",
          "type": "bytes4"
        }
      ],
      "stateMutability": "nonpayable",
      "type": "function"
    },
    {
      "inputs": [],
      "name": "owner",
      "outputs": [
        {
          "internalType": "address",
          "name": "",
          "type": "address"
        }
      ],
      "stateMutability": "view",
      "type": "function"
    },
    {
      "inputs": [
        {
          "internalType": "address",
          "name": "contract_",
          "type": "address"
        },
        {
          "internalType": "uint256",
          "name": "tokenId",
          "type": "uint256"
        }
      ],
      "name": "recoverERC721",
      "outputs": [],
      "stateMutability": "nonpayable",
      "type": "function"
    },
    {
      "inputs": [
        {
          "internalType": "address[]",
          "name": "contracts",
          "type": "address[]"
        },
        {
          "internalType": "uint256[]",
          "name": "tokenIds",
          "type": "uint256[]"
        }
      ],
      "name": "redeemERC721",
      "outputs": [],
      "stateMutability": "nonpayable",
      "type": "function"
    },
    {
      "inputs": [
        {
          "internalType": "address",
          "name": "contract_",
          "type": "address"
        },
        {
          "internalType": "uint256",
          "name": "tokenId",
          "type": "uint256"
        }
      ],
      "name": "redeemable",
      "outputs": [
        {
          "internalType": "bool",
          "name": "",
          "type": "bool"
        }
      ],
      "stateMutability": "view",
      "type": "function"
    },
    {
      "inputs": [],
      "name": "redemptionMax",
      "outputs": [
        {
          "internalType": "uint16",
          "name": "",
          "type": "uint16"
        }
      ],
      "stateMutability": "view",
      "type": "function"
    },
    {
      "inputs": [],
      "name": "redemptionRate",
      "outputs": [
        {
          "internalType": "uint16",
          "name": "",
          "type": "uint16"
        }
      ],
      "stateMutability": "view",
      "type": "function"
    },
    {
      "inputs": [],
      "name": "redemptionRemaining",
      "outputs": [
        {
          "internalType": "uint16",
          "name": "",
          "type": "uint16"
        }
      ],
      "stateMutability": "view",
      "type": "function"
    },
    {
      "inputs": [],
      "name": "renounceOwnership",
      "outputs": [],
      "stateMutability": "nonpayable",
      "type": "function"
    },
    {
      "inputs": [
        {
          "internalType": "address",
          "name": "admin",
          "type": "address"
        }
      ],
      "name": "revokeAdmin",
      "outputs": [],
      "stateMutability": "nonpayable",
      "type": "function"
    },
    {
      "inputs": [
        {
          "internalType": "address",
          "name": "contract_",
          "type": "address"
        },
        {
          "internalType": "uint256",
          "name": "tokenId",
          "type": "uint256"
        },
        {
          "internalType": "address",
          "name": "recoverer",
          "type": "address"
        }
      ],
      "name": "setERC721Recoverable",
      "outputs": [],
      "stateMutability": "nonpayable",
      "type": "function"
    },
    {
      "inputs": [
        {
          "internalType": "bytes4",
          "name": "interfaceId",
          "type": "bytes4"
        }
      ],
      "name": "supportsInterface",
      "outputs": [
        {
          "internalType": "bool",
          "name": "",
          "type": "bool"
        }
      ],
      "stateMutability": "view",
      "type": "function"
    },
    {
      "inputs": [
        {
          "internalType": "address",
          "name": "newOwner",
          "type": "address"
        }
      ],
      "name": "transferOwnership",
      "outputs": [],
      "stateMutability": "nonpayable",
      "type": "function"
    },
    {
      "inputs": [
        {
          "internalType": "address[]",
          "name": "contracts",
          "type": "address[]"
        },
        {
          "internalType": "bool[]",
          "name": "approved",
          "type": "bool[]"
        }
      ],
      "name": "updateApprovedContracts",
      "outputs": [],
      "stateMutability": "nonpayable",
      "type": "function"
    },
    {
      "inputs": [
        {
          "internalType": "address",
          "name": "contract_",
          "type": "address"
        },
        {
          "internalType": "uint256[]",
          "name": "minTokenIds",
          "type": "uint256[]"
        },
        {
          "internalType": "uint256[]",
          "name": "maxTokenIds",
          "type": "uint256[]"
        }
      ],
      "name": "updateApprovedTokenRanges",
      "outputs": [],
      "stateMutability": "nonpayable",
      "type": "function"
    },
    {
      "inputs": [
        {
          "internalType": "address",
          "name": "contract_",
          "type": "address"
        },
        {
          "internalType": "uint256[]",
          "name": "tokenIds",
          "type": "uint256[]"
        },
        {
          "internalType": "bool[]",
          "name": "approved",
          "type": "bool[]"
        }
      ],
      "name": "updateApprovedTokens",
      "outputs": [],
      "stateMutability": "nonpayable",
      "type": "function"
    }
  ],
  "bytecode": "0x60a06040523480156200001157600080fd5b506040516200315f3803806200315f83398101604081905262000034916200038a565b8282828260016000819055506200005e81639088c20760e01b6200021e60201b62001afe1760201c565b80620000835750620000838163478c853060e01b6200021e60201b62001afe1760201c565b620000e35760405162461bcd60e51b815260206004820152604160248201526000805160206200311f83398151915260448201526000805160206200313f8339815191526064820152606560f81b608482015260a4015b60405180910390fd5b600180546001600160a01b0319166001600160a01b039290921691909117905560006200010d3390565b600280546001600160a01b0319166001600160a01b038316908117909155604051919250906000907f8be0079c531659141344cd1fd0a4f28419497f9722a3daafe3b4186f6b6457e0908290a3506200017983639088c20760e01b6200021e60201b62001afe1760201c565b806200019e57506200019e8363478c853060e01b6200021e60201b62001afe1760201c565b620001fa5760405162461bcd60e51b815260206004820152604160248201526000805160206200311f83398151915260448201526000805160206200313f8339815191526064820152606560f81b608482015260a401620000da565b61ffff9182166080526008805461ffff191691909216179055506200043d92505050565b60006200022b8362000248565b80156200023f57506200023f838362000280565b90505b92915050565b60006200025d826301ffc9a760e01b62000280565b801562000242575062000279826001600160e01b031962000280565b1592915050565b604080516001600160e01b0319831660248083019190915282518083039091018152604490910182526020810180516001600160e01b03166301ffc9a760e01b179052905160009190829081906001600160a01b0387169061753090620002e9908690620003e1565b6000604051808303818686fa925050503d806000811462000327576040519150601f19603f3d011682016040523d82523d6000602084013e6200032c565b606091505b509150915060208151101562000349576000935050505062000242565b8180156200036857508080602001905181019062000368919062000412565b9695505050505050565b805161ffff811681146200038557600080fd5b919050565b600080600060608486031215620003a057600080fd5b83516001600160a01b0381168114620003b857600080fd5b9250620003c86020850162000372565b9150620003d86040850162000372565b90509250925092565b6000825160005b81811015620004045760208186018101518583015201620003e8565b506000920191825250919050565b6000602082840312156200042557600080fd5b815180151581146200043657600080fd5b9392505050565b608051612caa62000475600039600081816102560152818161046901528181611258015281816113c501526119280152612caa6000f3fe608060405234801561001057600080fd5b50600436106101585760003560e01c80636d73e669116100c3578063ac52e6441161007c578063ac52e64414610300578063bc197c8114610313578063d3e3ac8c14610326578063f23a6e6114610339578063f2fde38b1461034c578063f79f20b51461035f57600080fd5b80636d73e669146102a0578063715018a6146102b3578063819d4cc6146102bb5780638d75fe05146102ce5780638da5cb5b146102e3578063ac4cc148146102f457600080fd5b806331ae450b1161011557806331ae450b146102075780633dae35ce1461021c57806348efee0a14610241578063540385a31461025457806367627b621461027a5780636c2ab4ba1461028d57600080fd5b806301ffc9a71461015d57806304c9fdb014610185578063150b7a02146101a057806324d7806c146101cc5780632af8a413146101df5780632d345670146101f4575b600080fd5b61017061016b3660046120a4565b61038d565b60405190151581526020015b60405180910390f35b61018d6103ee565b60405161ffff909116815260200161017c565b6101b36101ae36600461212c565b61040f565b6040516001600160e01b0319909116815260200161017c565b6101706101da36600461219f565b610602565b6101f26101ed366004612292565b61063b565b005b6101f261020236600461219f565b610844565b61020f6108c4565b60405161017c919061234c565b6001546001600160a01b03165b6040516001600160a01b03909116815260200161017c565b6101f261024f3660046123d1565b610973565b7f000000000000000000000000000000000000000000000000000000000000000061018d565b61017061028836600461243d565b610b8c565b6101f261029b366004612469565b610d1f565b6101f26102ae36600461219f565b610e0c565b6101f2610e86565b6101f26102c936600461243d565b610efa565b6102d6610fda565b60405161017c91906124db565b6002546001600160a01b0316610229565b60085461ffff1661018d565b6101f261030e3660046124ee565b611032565b6101b36103213660046125f5565b61115b565b6101f26103343660046126b4565b61134a565b6101b3610347366004612720565b6118d7565b6101f261035a36600461219f565b611a13565b61037f61036d36600461279c565b6000908152600a602052604090205490565b60405190815260200161017c565b60006001600160e01b031982166303e5454f60e41b14806103be57506001600160e01b03198216630271189760e51b145b806103d957506001600160e01b03198216630a85bd0160e11b145b806103e857506103e882611b21565b92915050565b60085460009061040a9061ffff620100008204811691166127cb565b905090565b600060026000540361043c5760405162461bcd60e51b8152600401610433906127e6565b60405180910390fd5b600260005561044b3385610b8c565b6104675760405162461bcd60e51b81526004016104339061281d565b7f000000000000000000000000000000000000000000000000000000000000000061ffff1660011461050d5760405162461bcd60e51b815260206004820152604360248201527f4275726e52656465656d3a2043616e206f6e6c7920616c6c6f7720646972656360448201527f7420726563656976696e67206f6620726564656d7074696f6e73206f6620312060648201526213919560ea1b608482015260a401610433565b604051635c46a7ef60e11b8152339063b88d4fde9061053a90309061dead9089908990899060040161287d565b600060405180830381600087803b15801561055457600080fd5b505af1925050508015610565575060015b6105e1573d808015610593576040519150601f19603f3d011682016040523d82523d6000602084013e610598565b606091505b5060405162461bcd60e51b815260206004820152601860248201527f4275726e52656465656d3a204275726e206661696c75726500000000000000006044820152606401610433565b6105ea85611b55565b5050600160005550630a85bd0160e11b949350505050565b6000816001600160a01b03166106206002546001600160a01b031690565b6001600160a01b031614806103e857506103e8600383611c5c565b3361064e6002546001600160a01b031690565b6001600160a01b031614806106695750610669600333611c5c565b6106855760405162461bcd60e51b8152600401610433906128bc565b80518251146106a65760405162461bcd60e51b815260040161043390612900565b6001600160a01b03831660009081526007602052604081206106c79161206d565b60005b8251811015610803578181815181106106e5576106e5612935565b60200260200101518382815181106106ff576106ff612935565b60200260200101511061075e5760405162461bcd60e51b815260206004820152602160248201527f52656465656d3a206d696e206d757374206265206c657373207468616e206d616044820152600f60fb1b6064820152608401610433565b60076000856001600160a01b03166001600160a01b0316815260200190815260200160002060405180604001604052808584815181106107a0576107a0612935565b602002602001015181526020018484815181106107bf576107bf612935565b6020908102919091018101519091528254600181810185556000948552938290208351600290920201908155910151910155806107fb8161294b565b9150506106ca565b507fc834fb6349b577e8519e3cb6df7274bdd4957d7388d8cc9b54467d8af9d6537b83838360405161083793929190612964565b60405180910390a1505050565b6002546001600160a01b0316331461086e5760405162461bcd60e51b81526004016104339061299a565b610879600382611c5c565b156108c15760405133906001600160a01b038316907f7c0c3c84c67c85fcac635147348bfe374c24a1a93d0366d1cfe9d8853cbf89d590600090a36108bf600382611c7e565b505b50565b60606108d06003611c93565b67ffffffffffffffff8111156108e8576108e86121bc565b604051908082528060200260200182016040528015610911578160200160208202803683370190505b50905060005b6109216003611c93565b81101561096f57610933600382611c9d565b82828151811061094557610945612935565b6001600160a01b0390921660209283029190910190910152806109678161294b565b915050610917565b5090565b336109866002546001600160a01b031690565b6001600160a01b031614806109a157506109a1600333611c5c565b6109bd5760405162461bcd60e51b8152600401610433906128bc565b80518251146109de5760405162461bcd60e51b815260040161043390612900565b60005b8251811015610b58578181815181106109fc576109fc612935565b60200260200101518015610a5d5750610a5b838281518110610a2057610a20612935565b602002602001015160066000876001600160a01b03166001600160a01b03168152602001908152602001600020611ca990919063ffffffff16565b155b15610ab857610ab2838281518110610a7757610a77612935565b602002602001015160066000876001600160a01b03166001600160a01b03168152602001908152602001600020611cc190919063ffffffff16565b50610b46565b818181518110610aca57610aca612935565b6020026020010151158015610aef5750610aef838281518110610a2057610a20612935565b15610b4657610b44838281518110610b0957610b09612935565b602002602001015160066000876001600160a01b03166001600160a01b03168152602001908152602001600020611ccd90919063ffffffff16565b505b80610b508161294b565b9150506109e1565b507f0ed1ede59c177063e00a17d07584b15a0eb10205d90702aeff646f55bb33aa8983838360405161083793929190612a01565b6001600160a01b03821660009081526005602052604081205460ff1615610bb5575060016103e8565b6001600160a01b0383166000908152600660205260409020610bd79083611ca9565b15610be4575060016103e8565b6001600160a01b03831660009081526007602052604090205415610d165760005b6001600160a01b038416600090815260076020526040902054811015610d14576001600160a01b0384166000908152600760205260409020805482908110610c4f57610c4f612935565b906000526020600020906002020160010154600014158015610cac57506001600160a01b0384166000908152600760205260409020805482908110610c9657610c96612935565b9060005260206000209060020201600001548310155b8015610cf357506001600160a01b0384166000908152600760205260409020805482908110610cdd57610cdd612935565b9060005260206000209060020201600101548311155b15610d025760019150506103e8565b80610d0c8161294b565b915050610c05565b505b50600092915050565b33610d326002546001600160a01b031690565b6001600160a01b03161480610d4d5750610d4d600333611c5c565b610d695760405162461bcd60e51b8152600401610433906128bc565b610d7a836380ac58cd60e01b611afe565b610dd15760405162461bcd60e51b815260206004820152602260248201527f4275726e52656465656d3a204d75737420696d706c656d656e74204945524337604482015261323160f01b6064820152608401610433565b6001600160a01b039283166000908152600b602090815260408083209483529390529190912080546001600160a01b03191691909216179055565b6002546001600160a01b03163314610e365760405162461bcd60e51b81526004016104339061299a565b610e41600382611c5c565b6108c15760405133906001600160a01b038316907f7e1a1a08d52e4ba0e21554733d66165fd5151f99460116223d9e3a608eec5cb190600090a36108bf600382611cd9565b6002546001600160a01b03163314610eb05760405162461bcd60e51b81526004016104339061299a565b6002546040516000916001600160a01b0316907f8be0079c531659141344cd1fd0a4f28419497f9722a3daafe3b4186f6b6457e0908390a3600280546001600160a01b0319169055565b6001600160a01b038083166000908152600b6020908152604080832085845290915290205416338114610f6f5760405162461bcd60e51b815260206004820152601d60248201527f4275726e52656465656d3a205065726d697373696f6e2064656e6965640000006044820152606401610433565b604051632142170760e11b8152306004820152336024820152604481018390526001600160a01b038416906342842e0e90606401600060405180830381600087803b158015610fbd57600080fd5b505af1158015610fd1573d6000803e3d6000fd5b50505050505050565b6060600980548060200260200160405190810160405280929190818152602001828054801561102857602002820191906000526020600020905b815481526020019060010190808311611014575b5050505050905090565b336110456002546001600160a01b031690565b6001600160a01b031614806110605750611060600333611c5c565b61107c5760405162461bcd60e51b8152600401610433906128bc565b805182511461109d5760405162461bcd60e51b815260040161043390612900565b60005b825181101561111d578181815181106110bb576110bb612935565b6020026020010151600560008584815181106110d9576110d9612935565b6020908102919091018101516001600160a01b03168252810191909152604001600020805460ff1916911515919091179055806111158161294b565b9150506110a0565b507fb987f16cb95c27617d184f54a4a9d80cfa894b91e2d679ed7604249395448148828260405161114f929190612a37565b60405180910390a15050565b600060026000540361117f5760405162461bcd60e51b8152600401610433906127e6565b60026000558584146111d35760405162461bcd60e51b815260206004820152601960248201527f4275726e52656465656d3a20496e76616c696420696e707574000000000000006044820152606401610433565b6000805b8781101561125557611201338a8a848181106111f5576111f5612935565b90506020020135610b8c565b61121d5760405162461bcd60e51b81526004016104339061281d565b86868281811061122f5761122f612935565b90506020020135826112419190612a65565b91508061124d8161294b565b9150506111d7565b507f000000000000000000000000000000000000000000000000000000000000000061ffff1681146112995760405162461bcd60e51b815260040161043390612a78565b604051631759616b60e11b81523390632eb2c2d6906112cc90309061dead908d908d908d908d908d908d90600401612afd565b600060405180830381600087803b1580156112e657600080fd5b505af19250505080156112f7575060015b611325573d808015610593576040519150601f19603f3d011682016040523d82523d6000602084013e610598565b61132e89611b55565b505060016000555063bc197c8160e01b98975050505050505050565b60026000540361136c5760405162461bcd60e51b8152600401610433906127e6565b60026000558281146113c05760405162461bcd60e51b815260206004820152601e60248201527f4275726e52656465656d3a20496e76616c696420706172616d657465727300006044820152606401610433565b61ffff7f00000000000000000000000000000000000000000000000000000000000000001683146114035760405162461bcd60e51b815260040161043390612a78565b60005b838110156118c15761144a85858381811061142357611423612935565b9050602002016020810190611438919061219f565b8484848181106111f5576111f5612935565b6114665760405162461bcd60e51b81526004016104339061281d565b84848281811061147857611478612935565b905060200201602081019061148d919061219f565b6001600160a01b0316636352211e8484848181106114ad576114ad612935565b905060200201356040518263ffffffff1660e01b81526004016114d291815260200190565b602060405180830381865afa92505050801561150b575060408051601f3d908101601f1916820190925261150891810190612b61565b60015b611587573d808015611539576040519150601f19603f3d011682016040523d82523d6000602084013e61153e565b606091505b5060405162461bcd60e51b815260206004820152601e60248201527f4275726e52656465656d3a2042616420746f6b656e20636f6e747261637400006044820152606401610433565b6001600160a01b03811633146115df5760405162461bcd60e51b815260206004820181905260248201527f4275726e52656465656d3a2043616c6c6572206d757374206f776e204e4654736044820152606401610433565b508484828181106115f2576115f2612935565b9050602002016020810190611607919061219f565b60405163e985e9c560e01b81523360048201523060248201526001600160a01b03919091169063e985e9c590604401602060405180830381865afa158015611653573d6000803e3d6000fd5b505050506040513d601f19601f820116820180604052508101906116779190612b7e565b6117ce5784848281811061168d5761168d612935565b90506020020160208101906116a2919061219f565b6001600160a01b031663081812fc8484848181106116c2576116c2612935565b905060200201356040518263ffffffff1660e01b81526004016116e791815260200190565b602060405180830381865afa925050508015611720575060408051601f3d908101601f1916820190925261171d91810190612b61565b60015b61174e573d808015611539576040519150601f19603f3d011682016040523d82523d6000602084013e61153e565b6001600160a01b03811630146117cc5760405162461bcd60e51b815260206004820152603760248201527f4275726e52656465656d3a20436f6e7472616374206d7573742062652067697660448201527f656e20617070726f76616c20746f206275726e204e46540000000000000000006064820152608401610433565b505b8484828181106117e0576117e0612935565b90506020020160208101906117f5919061219f565b6001600160a01b03166323b872dd3361dead86868681811061181957611819612935565b6040516001600160e01b031960e088901b1681526001600160a01b03958616600482015294909316602485015250602090910201356044820152606401600060405180830381600087803b15801561187057600080fd5b505af1925050508015611881575060015b6118af573d808015610593576040519150601f19603f3d011682016040523d82523d6000602084013e610598565b806118b98161294b565b915050611406565b506118cb33611b55565b50506001600055505050565b60006002600054036118fb5760405162461bcd60e51b8152600401610433906127e6565b600260005561190a3386610b8c565b6119265760405162461bcd60e51b81526004016104339061281d565b7f000000000000000000000000000000000000000000000000000000000000000061ffff1684146119695760405162461bcd60e51b815260040161043390612a78565b604051637921219560e11b8152339063f242432a9061199890309061dead908a908a908a908a90600401612b9b565b600060405180830381600087803b1580156119b257600080fd5b505af19250505080156119c3575060015b6119f1573d808015610593576040519150601f19603f3d011682016040523d82523d6000602084013e610598565b6119fa86611b55565b505060016000555063f23a6e6160e01b95945050505050565b6002546001600160a01b03163314611a3d5760405162461bcd60e51b81526004016104339061299a565b6001600160a01b038116611aa25760405162461bcd60e51b815260206004820152602660248201527f4f776e61626c653a206e6577206f776e657220697320746865207a65726f206160448201526564647265737360d01b6064820152608401610433565b6002546040516001600160a01b038084169216907f8be0079c531659141344cd1fd0a4f28419497f9722a3daafe3b4186f6b6457e090600090a3600280546001600160a01b0319166001600160a01b0392909216919091179055565b6000611b0983611cee565b8015611b1a5750611b1a8383611d21565b9392505050565b60006001600160e01b0319821663866c67eb60e01b1480611b465750611b4682611e0a565b806103e857506103e882611e2f565b60085460009061ffff808216620100009092041610611bb65760405162461bcd60e51b815260206004820181905260248201527f52656465656d3a204e6f20726564656d7074696f6e732072656d61696e696e676044820152606401610433565b6008805462010000900461ffff16906002611bd083612be2565b91906101000a81548161ffff021916908361ffff160217905550506000611c0783600860029054906101000a900461ffff16611e54565b60098054600181019091557f6e1540171b6c0c960b71a7020d9f60077f6af931a8bbf590da0223dacf75c7af018190556008546000828152600a602052604090206201000090910461ffff1690559392505050565b6001600160a01b03811660009081526001830160205260408120541515611b1a565b6000611b1a836001600160a01b038416611ec5565b60006103e8825490565b6000611b1a8383611fbf565b60008181526001830160205260408120541515611b1a565b6000611b1a8383611fe9565b6000611b1a8383611ec5565b6000611b1a836001600160a01b038416611fe9565b6000611d01826301ffc9a760e01b611d21565b80156103e85750611d1a826001600160e01b0319611d21565b1592915050565b604080516001600160e01b0319831660248083019190915282518083039091018152604490910182526020810180516001600160e01b03166301ffc9a760e01b179052905160009190829081906001600160a01b0387169061753090611d88908690612c03565b6000604051808303818686fa925050503d8060008114611dc4576040519150601f19603f3d011682016040523d82523d6000602084013e611dc9565b606091505b5091509150602081511015611de457600093505050506103e8565b818015611e00575080806020019051810190611e009190612b7e565b9695505050505050565b60006001600160e01b0319821663a927d73f60e01b14806103e857506103e882612038565b60006001600160e01b03198216637005caad60e01b14806103e857506103e882611e0a565b600154604051630525194b60e31b81526001600160a01b0384811660048301526000921690632928ca58906024016020604051808303816000875af1158015611ea1573d6000803e3d6000fd5b505050506040513d601f19601f82011682018060405250810190611b1a9190612c32565b60008181526001830160205260408120548015611fae576000611ee9600183612c4b565b8554909150600090611efd90600190612c4b565b9050818114611f62576000866000018281548110611f1d57611f1d612935565b9060005260206000200154905080876000018481548110611f4057611f40612935565b6000918252602080832090910192909255918252600188019052604090208390555b8554869080611f7357611f73612c5e565b6001900381819060005260206000200160009055905585600101600086815260200190815260200160002060009055600193505050506103e8565b60009150506103e8565b5092915050565b6000826000018281548110611fd657611fd6612935565b9060005260206000200154905092915050565b6000818152600183016020526040812054612030575081546001818101845560008481526020808220909301849055845484825282860190935260409020919091556103e8565b5060006103e8565b60006001600160e01b03198216632a9f3abf60e11b14806103e857506301ffc9a760e01b6001600160e01b03198316146103e8565b50805460008255600202906000526020600020908101906108c191905b8082111561096f576000808255600182015560020161208a565b6000602082840312156120b657600080fd5b81356001600160e01b031981168114611b1a57600080fd5b6001600160a01b03811681146108c157600080fd5b60008083601f8401126120f557600080fd5b50813567ffffffffffffffff81111561210d57600080fd5b60208301915083602082850101111561212557600080fd5b9250929050565b60008060008060006080868803121561214457600080fd5b853561214f816120ce565b9450602086013561215f816120ce565b935060408601359250606086013567ffffffffffffffff81111561218257600080fd5b61218e888289016120e3565b969995985093965092949392505050565b6000602082840312156121b157600080fd5b8135611b1a816120ce565b634e487b7160e01b600052604160045260246000fd5b604051601f8201601f1916810167ffffffffffffffff811182821017156121fb576121fb6121bc565b604052919050565b600067ffffffffffffffff82111561221d5761221d6121bc565b5060051b60200190565b600082601f83011261223857600080fd5b8135602061224d61224883612203565b6121d2565b82815260059290921b8401810191818101908684111561226c57600080fd5b8286015b848110156122875780358352918301918301612270565b509695505050505050565b6000806000606084860312156122a757600080fd5b83356122b2816120ce565b9250602084013567ffffffffffffffff808211156122cf57600080fd5b6122db87838801612227565b935060408601359150808211156122f157600080fd5b506122fe86828701612227565b9150509250925092565b600081518084526020808501945080840160005b838110156123415781516001600160a01b03168752958201959082019060010161231c565b509495945050505050565b602081526000611b1a6020830184612308565b80151581146108c157600080fd5b600082601f83011261237e57600080fd5b8135602061238e61224883612203565b82815260059290921b840181019181810190868411156123ad57600080fd5b8286015b848110156122875780356123c48161235f565b83529183019183016123b1565b6000806000606084860312156123e657600080fd5b83356123f1816120ce565b9250602084013567ffffffffffffffff8082111561240e57600080fd5b61241a87838801612227565b9350604086013591508082111561243057600080fd5b506122fe8682870161236d565b6000806040838503121561245057600080fd5b823561245b816120ce565b946020939093013593505050565b60008060006060848603121561247e57600080fd5b8335612489816120ce565b92506020840135915060408401356124a0816120ce565b809150509250925092565b600081518084526020808501945080840160005b83811015612341578151875295820195908201906001016124bf565b602081526000611b1a60208301846124ab565b6000806040838503121561250157600080fd5b823567ffffffffffffffff8082111561251957600080fd5b818501915085601f83011261252d57600080fd5b8135602061253d61224883612203565b82815260059290921b8401810191818101908984111561255c57600080fd5b948201945b83861015612583578535612574816120ce565b82529482019490820190612561565b9650508601359250508082111561259957600080fd5b506125a68582860161236d565b9150509250929050565b60008083601f8401126125c257600080fd5b50813567ffffffffffffffff8111156125da57600080fd5b6020830191508360208260051b850101111561212557600080fd5b60008060008060008060008060a0898b03121561261157600080fd5b883561261c816120ce565b9750602089013561262c816120ce565b9650604089013567ffffffffffffffff8082111561264957600080fd5b6126558c838d016125b0565b909850965060608b013591508082111561266e57600080fd5b61267a8c838d016125b0565b909650945060808b013591508082111561269357600080fd5b506126a08b828c016120e3565b999c989b5096995094979396929594505050565b600080600080604085870312156126ca57600080fd5b843567ffffffffffffffff808211156126e257600080fd5b6126ee888389016125b0565b9096509450602087013591508082111561270757600080fd5b50612714878288016125b0565b95989497509550505050565b60008060008060008060a0878903121561273957600080fd5b8635612744816120ce565b95506020870135612754816120ce565b94506040870135935060608701359250608087013567ffffffffffffffff81111561277e57600080fd5b61278a89828a016120e3565b979a9699509497509295939492505050565b6000602082840312156127ae57600080fd5b5035919050565b634e487b7160e01b600052601160045260246000fd5b61ffff828116828216039080821115611fb857611fb86127b5565b6020808252601f908201527f5265656e7472616e637947756172643a207265656e7472616e742063616c6c00604082015260600190565b60208082526017908201527f4275726e52656465656d3a20496e76616c6964204e4654000000000000000000604082015260600190565b81835281816020850137506000828201602090810191909152601f909101601f19169091010190565b6001600160a01b03868116825285166020820152604081018490526080606082018190526000906128b19083018486612854565b979650505050505050565b60208082526024908201527f41646d696e436f6e74726f6c3a204d757374206265206f776e6572206f7220616040820152633236b4b760e11b606082015260800190565b6020808252818101527f52656465656d3a20496e76616c696420696e70757420706172616d6574657273604082015260600190565b634e487b7160e01b600052603260045260246000fd5b60006001820161295d5761295d6127b5565b5060010190565b6001600160a01b0384168152606060208201819052600090612988908301856124ab565b8281036040840152611e0081856124ab565b6020808252818101527f4f776e61626c653a2063616c6c6572206973206e6f7420746865206f776e6572604082015260600190565b600081518084526020808501945080840160005b838110156123415781511515875295820195908201906001016129e3565b6001600160a01b0384168152606060208201819052600090612a25908301856124ab565b8281036040840152611e0081856129cf565b604081526000612a4a6040830185612308565b8281036020840152612a5c81856129cf565b95945050505050565b808201808211156103e8576103e86127b5565b60208082526033908201527f4275726e52656465656d3a20496e636f7272656374206e756d626572206f66206040820152721391951cc818995a5b99c81c995919595b5959606a1b606082015260800190565b81835260006001600160fb1b03831115612ae457600080fd5b8260051b80836020870137939093016020019392505050565b6001600160a01b0389811682528816602082015260a060408201819052600090612b2a908301888a612acb565b8281036060840152612b3d818789612acb565b90508281036080840152612b52818587612854565b9b9a5050505050505050505050565b600060208284031215612b7357600080fd5b8151611b1a816120ce565b600060208284031215612b9057600080fd5b8151611b1a8161235f565b6001600160a01b03878116825286166020820152604081018590526060810184905260a060808201819052600090612bd69083018486612854565b98975050505050505050565b600061ffff808316818103612bf957612bf96127b5565b6001019392505050565b6000825160005b81811015612c245760208186018101518583015201612c0a565b506000920191825250919050565b600060208284031215612c4457600080fd5b5051919050565b818103818111156103e8576103e86127b5565b634e487b7160e01b600052603160045260246000fdfea2646970667358221220fcbfd5df07ab1663ccf8a5e33fd0d9ab71e14d6b305d29d4314ea0586b64038964736f6c6343000811003352656465656d3a204d696e74696e672072657761726420636f6e7472616374206d75737420696d706c656d656e74204945524337323143726561746f72436f72",
  "linkReferences": {},
  "deployedLinkReferences": {}
}