{
  "_format": "hh-sol-artifact-1",
  "contractName": "Offers",
  "sourceName": "contracts/mojito/onchain-sales/Offers.sol",
  "abi": [
    {
      "inputs": [
        {
          "internalType": "address",
          "name": "_weth",
          "type": "address"
        }
      ],
      "stateMutability": "nonpayable",
      "type": "constructor"
    },
    {
      "anonymous": false,
      "inputs": [
        {
          "indexed": true,
          "internalType": "uint256",
          "name": "offerId",
          "type": "uint256"
        },
        {
          "indexed": true,
          "internalType": "uint256",
          "name": "tokenId",
          "type": "uint256"
        },
        {
          "indexed": true,
          "internalType": "address",
          "name": "tokenContract",
          "type": "address"
        },
        {
          "indexed": false,
          "internalType": "uint256",
          "name": "offerPrice",
          "type": "uint256"
        }
      ],
      "name": "OfferAmountUpdated",
      "type": "event"
    },
    {
      "anonymous": false,
      "inputs": [
        {
          "indexed": true,
          "internalType": "uint256",
          "name": "offerId",
          "type": "uint256"
        },
        {
          "indexed": true,
          "internalType": "uint256",
          "name": "tokenId",
          "type": "uint256"
        },
        {
          "indexed": true,
          "internalType": "address",
          "name": "tokenContract",
          "type": "address"
        },
        {
          "indexed": false,
          "internalType": "address",
          "name": "tokenOwner",
          "type": "address"
        },
        {
          "indexed": false,
          "internalType": "uint256",
          "name": "offerPrice",
          "type": "uint256"
        }
      ],
      "name": "OfferCanceled",
      "type": "event"
    },
    {
      "anonymous": false,
      "inputs": [
        {
          "indexed": true,
          "internalType": "uint256",
          "name": "offerId",
          "type": "uint256"
        },
        {
          "indexed": true,
          "internalType": "uint256",
          "name": "tokenId",
          "type": "uint256"
        },
        {
          "indexed": true,
          "internalType": "address",
          "name": "tokenContract",
          "type": "address"
        },
        {
          "indexed": false,
          "internalType": "address",
          "name": "tokenOwner",
          "type": "address"
        },
        {
          "indexed": false,
          "internalType": "address",
          "name": "maker",
          "type": "address"
        },
        {
          "indexed": false,
          "internalType": "uint256",
          "name": "offerPrice",
          "type": "uint256"
        },
        {
          "indexed": false,
          "internalType": "address",
          "name": "currency",
          "type": "address"
        },
        {
          "indexed": false,
          "internalType": "uint256",
          "name": "quantity",
          "type": "uint256"
        }
      ],
      "name": "OfferClosed",
      "type": "event"
    },
    {
      "anonymous": false,
      "inputs": [
        {
          "indexed": true,
          "internalType": "uint256",
          "name": "offerId",
          "type": "uint256"
        },
        {
          "indexed": true,
          "internalType": "uint256",
          "name": "tokenId",
          "type": "uint256"
        },
        {
          "indexed": true,
          "internalType": "address",
          "name": "tokenContract",
          "type": "address"
        },
        {
          "indexed": false,
          "internalType": "uint256",
          "name": "offerPrice",
          "type": "uint256"
        },
        {
          "indexed": false,
          "internalType": "address",
          "name": "tokenOwner",
          "type": "address"
        },
        {
          "indexed": false,
          "internalType": "address",
          "name": "currency",
          "type": "address"
        },
        {
          "indexed": false,
          "internalType": "uint256",
          "name": "quantity",
          "type": "uint256"
        }
      ],
      "name": "OfferCreated",
      "type": "event"
    },
    {
      "stateMutability": "payable",
      "type": "fallback"
    },
    {
      "inputs": [
        {
          "internalType": "uint256",
          "name": "offerId",
          "type": "uint256"
        }
      ],
      "name": "cancelOffer",
      "outputs": [],
      "stateMutability": "nonpayable",
      "type": "function"
    },
    {
      "inputs": [
        {
          "internalType": "uint256",
          "name": "tokenId",
          "type": "uint256"
        },
        {
          "internalType": "address",
          "name": "tokenContract",
          "type": "address"
        },
        {
          "internalType": "address",
          "name": "tokenOwner",
          "type": "address"
        },
        {
          "internalType": "uint256",
          "name": "offer_price",
          "type": "uint256"
        },
        {
          "internalType": "address",
          "name": "currency",
          "type": "address"
        }
      ],
      "name": "createOffer",
      "outputs": [
        {
          "internalType": "uint256",
          "name": "",
          "type": "uint256"
        }
      ],
      "stateMutability": "payable",
      "type": "function"
    },
    {
      "inputs": [
        {
          "internalType": "uint256",
          "name": "offerId",
          "type": "uint256"
        },
        {
          "internalType": "address",
          "name": "currency",
          "type": "address"
        },
        {
          "internalType": "uint256",
          "name": "offerPrice",
          "type": "uint256"
        }
      ],
      "name": "fillOffer",
      "outputs": [],
      "stateMutability": "nonpayable",
      "type": "function"
    },
    {
      "inputs": [
        {
          "internalType": "uint256",
          "name": "",
          "type": "uint256"
        }
      ],
      "name": "offers",
      "outputs": [
        {
          "internalType": "uint256",
          "name": "tokenId",
          "type": "uint256"
        },
        {
          "internalType": "address",
          "name": "tokenContract",
          "type": "address"
        },
        {
          "internalType": "uint256",
          "name": "offerPrice",
          "type": "uint256"
        },
        {
          "internalType": "address",
          "name": "tokenOwner",
          "type": "address"
        },
        {
          "internalType": "address",
          "name": "maker",
          "type": "address"
        },
        {
          "internalType": "address",
          "name": "currency",
          "type": "address"
        }
      ],
      "stateMutability": "view",
      "type": "function"
    },
    {
      "inputs": [
        {
          "internalType": "address",
          "name": "",
          "type": "address"
        },
        {
          "internalType": "address",
          "name": "",
          "type": "address"
        },
        {
          "internalType": "uint256[]",
          "name": "",
          "type": "uint256[]"
        },
        {
          "internalType": "uint256[]",
          "name": "",
          "type": "uint256[]"
        },
        {
          "internalType": "bytes",
          "name": "",
          "type": "bytes"
        }
      ],
      "name": "onERC1155BatchReceived",
      "outputs": [
        {
          "internalType": "bytes4",
          "name": "",
          "type": "bytes4"
        }
      ],
      "stateMutability": "nonpayable",
      "type": "function"
    },
    {
      "inputs": [
        {
          "internalType": "address",
          "name": "",
          "type": "address"
        },
        {
          "internalType": "address",
          "name": "",
          "type": "address"
        },
        {
          "internalType": "uint256",
          "name": "",
          "type": "uint256"
        },
        {
          "internalType": "uint256",
          "name": "",
          "type": "uint256"
        },
        {
          "internalType": "bytes",
          "name": "",
          "type": "bytes"
        }
      ],
      "name": "onERC1155Received",
      "outputs": [
        {
          "internalType": "bytes4",
          "name": "",
          "type": "bytes4"
        }
      ],
      "stateMutability": "nonpayable",
      "type": "function"
    },
    {
      "inputs": [
        {
          "internalType": "uint256",
          "name": "offerId",
          "type": "uint256"
        },
        {
          "internalType": "address",
          "name": "currency",
          "type": "address"
        },
        {
          "internalType": "uint256",
          "name": "offerPrice",
          "type": "uint256"
        }
      ],
      "name": "setOfferAmount",
      "outputs": [],
      "stateMutability": "nonpayable",
      "type": "function"
    },
    {
      "inputs": [],
      "name": "wethAddress",
      "outputs": [
        {
          "internalType": "address",
          "name": "",
          "type": "address"
        }
      ],
      "stateMutability": "view",
      "type": "function"
    },
    {
      "stateMutability": "payable",
      "type": "receive"
    }
  ],
  "bytecode": "0x608060405234801561001057600080fd5b50604051611c1e380380611c1e83398101604081905261002f91610059565b6001600081905580546001600160a01b0319166001600160a01b0392909216919091179055610089565b60006020828403121561006b57600080fd5b81516001600160a01b038116811461008257600080fd5b9392505050565b611b86806100986000396000f3fe6080604052600436106100795760003560e01c8063927d65931161004b578063927d65931461019c578063bc197c81146101bc578063ef706adf146101f5578063f23a6e611461021557005b8063398613e9146100825780634f0e0ef3146100a25780636d46bb7e146100df5780638a72ea6a1461010057005b3661008057005b005b34801561008e57600080fd5b5061008061009d3660046116e2565b610241565b3480156100ae57600080fd5b506001546100c2906001600160a01b031681565b6040516001600160a01b0390911681526020015b60405180910390f35b6100f26100ed366004611717565b6104f7565b6040519081526020016100d6565b34801561010c57600080fd5b5061016261011b36600461176e565b600260208190526000918252604090912080546001820154928201546003830154600484015460059094015492946001600160a01b03908116949293918116928116911686565b604080519687526001600160a01b0395861660208801528601939093529083166060850152821660808401521660a082015260c0016100d6565b3480156101a857600080fd5b506100806101b73660046116e2565b6108c5565b3480156101c857600080fd5b506101e86101d73660046118b3565b63bc197c8160e01b95945050505050565b6040516100d6919061195d565b34801561020157600080fd5b5061008061021036600461176e565b610ded565b34801561022157600080fd5b506101e8610230366004611972565b63f23a6e6160e01b95945050505050565b60008381526002602052604090206003015483906001600160a01b03166102835760405162461bcd60e51b815260040161027a906119d7565b60405180910390fd5b6000848152600260205260409020600401546001600160a01b031633146102ec5760405162461bcd60e51b815260206004820152601c60248201527f7365744f66666572416d6f756e74206d757374206265206d616b657200000000604482015260640161027a565b6000848152600260205260409020600501546001600160a01b0390811690841603610425576000848152600260208190526040909120015482158015906103335750808314155b61037f5760405162461bcd60e51b815260206004820152601e60248201527f7365744f66666572416d6f756e7420696e76616c6964205f616d6f756e740000604482015260640161027a565b808311156103cf57600085815260026020526040902060050154818403906103b19082906001600160a01b0316610fe4565b6000868152600260208190526040909120018054909101905561041f565b6000858152600260205260409020600481015460059091015484830391610404916001600160a01b0391821691849116611238565b60008681526002602081905260409091200180549190910390555b50610499565b600084815260026020819052604090912060048101549181015460059091015461045c926001600160a01b03908116929116611238565b6104668284610fe4565b60008481526002602081905260409091206005810180546001600160a01b0319166001600160a01b038716179055018290555b6000848152600260209081526040918290206001810154905492518581526001600160a01b03909116929187917f0a290566b6607ad9babbe4064dcde7c64e2de066dd24c77f279320a874ddc720910160405180910390a450505050565b600060026000540361051b5760405162461bcd60e51b815260040161027a90611a04565b60026000556040516301ffc9a760e01b81526001600160a01b038616906301ffc9a790610553906380ac58cd60e01b9060040161195d565b602060405180830381865afa158015610570573d6000803e3d6000fd5b505050506040513d601f19601f820116820180604052508101906105949190611a3b565b8061060e57506040516301ffc9a760e01b81526001600160a01b038616906301ffc9a7906105cd90636cdb3d1360e11b9060040161195d565b602060405180830381865afa1580156105ea573d6000803e3d6000fd5b505050506040513d601f19601f8201168201806040525081019061060e9190611a3b565b6106805760405162461bcd60e51b815260206004820152603a60248201527f746f6b656e436f6e747261637420646f6573206e6f7420737570706f7274204560448201527f5243373231206f72204552433131353520696e74657266616365000000000000606482015260840161027a565b61068a8383610fe4565b600061069560035490565b6040516301ffc9a760e01b81529091506001906001600160a01b038816906301ffc9a7906106ce90636cdb3d1360e11b9060040161195d565b602060405180830381865afa1580156106eb573d6000803e3d6000fd5b505050506040513d601f19601f8201168201806040525081019061070f9190611a3b565b1561078657604051627eeac760e11b81526001600160a01b038781166004830152602482018a905288169062fdd58e90604401602060405180830381865afa15801561075f573d6000803e3d6000fd5b505050506040513d601f19601f820116820180604052508101906107839190611a5d565b90505b6040805160c0810182528981526001600160a01b03808a1660208084019182528385018a81528b84166060860190815233608087019081528b861660a0880190815260008b8152600295869052989098209651875593516001870180549187166001600160a01b0319928316179055915192860192909255905160038086018054928616928416929092179091559151600485018054918516918316919091179055935160059093018054939092169290931691909117905561084c9080546001019055565b866001600160a01b031688837f3077315efbb2d33f9661fde49319376c8353b083ec952575057835184630a979888a89876040516108ad94939291909384526001600160a01b03928316602085015291166040830152606082015260800190565b60405180910390a45060016000559695505050505050565b60008381526002602052604090206003015483906001600160a01b03166108fe5760405162461bcd60e51b815260040161027a906119d7565b6002600054036109205760405162461bcd60e51b815260040161027a90611a04565b6002600081815585815260209190915260409020600401546001600160a01b031661098d5760405162461bcd60e51b815260206004820152601e60248201527f66696c6c4f66666572206d75737420626520616374697665206f666665720000604482015260640161027a565b6000848152600260205260409020600301546001600160a01b031633146109f65760405162461bcd60e51b815260206004820152601d60248201527f66696c6c4f66666572206d75737420626520746f6b656e206f776e6572000000604482015260640161027a565b6000848152600260205260409020600501546001600160a01b038481169116148015610a3357506000848152600260208190526040909120015482145b610a985760405162461bcd60e51b815260206004820152603060248201527f66696c6c4f666665722063757272656e63792026206f6666657250726963652060448201526f36bab9ba1036b0ba31b41037b33332b960811b606482015260840161027a565b600084815260026020819052604090912090810154600590910154610ac79133916001600160a01b0316611238565b6000848152600260205260409081902060019081015491516301ffc9a760e01b815290916001600160a01b0316906301ffc9a790610b10906380ac58cd60e01b9060040161195d565b602060405180830381865afa158015610b2d573d6000803e3d6000fd5b505050506040513d601f19601f82011682018060405250810190610b519190611a3b565b15610be15760008581526002602052604090819020600181015460048083015492549351632142170760e11b815233918101919091526001600160a01b039283166024820152604481019390935216906342842e0e90606401600060405180830381600087803b158015610bc457600080fd5b505af1158015610bd8573d6000803e3d6000fd5b50505050610d06565b604080518082018252600280825261060f60f31b6020808401919091526000898152919052829020600181015490549251627eeac760e11b8152336004820152602481019390935290916001600160a01b039091169062fdd58e90604401602060405180830381865afa158015610c5c573d6000803e3d6000fd5b505050506040513d601f19601f82011682018060405250810190610c809190611a5d565b60008781526002602052604090819020600181015460048083015492549351637921219560e11b81529496506001600160a01b039182169463f242432a94610cd2943394169290918991899101611ac6565b600060405180830381600087803b158015610cec57600080fd5b505af1158015610d00573d6000803e3d6000fd5b50505050505b60008581526002602081815260409283902060018101548154600383015460048401549584015460059094015487516001600160a01b03928316815296821695870195909552958501929092529184166060840152608083018590529216919087907fef4f26495a1e5a8fdf512a3e819ef3b6543f4fcf925e0a64f78004a486c56ae29060a00160405180910390a45050506000918252506002602081905260408220828155600180820180546001600160a01b03199081169091559282018490556003820180548416905560048201805484169055600590910180549092169091559055565b600260005403610e0f5760405162461bcd60e51b815260040161027a90611a04565b600260005580610e39816000908152600260205260409020600301546001600160a01b0316151590565b610e555760405162461bcd60e51b815260040161027a906119d7565b6000828152600260205260409020600401546001600160a01b0316331480610e9657506000828152600260205260409020600301546001600160a01b031633145b610ef35760405162461bcd60e51b815260206004820152602860248201527f63616e63656c4f66666572206d757374206265206d616b6572206f7220746f6b60448201526732b71027bbb732b960c11b606482015260840161027a565b6000828152600260208190526040909120600481015491810154600590910154610f2a926001600160a01b03908116929116611238565b600082815260026020818152604092839020600181015481546003830154929094015485516001600160a01b03938416815293840152169285917ff2789d01f0e0c23950ada171c3ab1ee474acca812c161ff55f95762ed2d46831910160405180910390a45060009081526002602081905260408220828155600180820180546001600160a01b03199081169091559282018490556003820180548416905560048201805484169055600590910180549092169091559055565b6001600160a01b0381166110cb5781341461105e5760405162461bcd60e51b815260206004820152603460248201527f53656e74204554482056616c756520646f6573206e6f74206d617463682073706044820152731958da599a5959081bd999995c88185b5bdd5b9d60621b606482015260840161027a565b600160009054906101000a90046001600160a01b03166001600160a01b031663d0e30db0836040518263ffffffff1660e01b81526004016000604051808303818588803b1580156110ae57600080fd5b505af11580156110c2573d6000803e3d6000fd5b50505050505050565b6040516370a0823160e01b815230600482015281906000906001600160a01b038316906370a0823190602401602060405180830381865afa158015611114573d6000803e3d6000fd5b505050506040513d601f19601f820116820180604052508101906111389190611a5d565b905061114f6001600160a01b03831633308761134d565b6040516370a0823160e01b81523060048201526000906001600160a01b038416906370a0823190602401602060405180830381865afa158015611196573d6000803e3d6000fd5b505050506040513d601f19601f820116820180604052508101906111ba9190611a5d565b9050806111c783876113be565b146112315760405162461bcd60e51b815260206004820152603460248201527f546f6b656e207472616e736665722063616c6c20646964206e6f74207472616e6044820152731cd9995c88195e1c1958dd195908185b5bdd5b9d60621b606482015260840161027a565b5050505050565b6001600160a01b03811661133957600154604051632e1a7d4d60e01b8152600481018490526001600160a01b0390911690632e1a7d4d90602401600060405180830381600087803b15801561128c57600080fd5b505af11580156112a0573d6000803e3d6000fd5b505050506112ae83836113d3565b61133457600160009054906101000a90046001600160a01b03166001600160a01b031663d0e30db0836040518263ffffffff1660e01b81526004016000604051808303818588803b15801561130257600080fd5b505af1158015611316573d6000803e3d6000fd5b505060015461133493506001600160a01b031691508590508461144a565b505050565b6113346001600160a01b038216848461144a565b6040516001600160a01b03808516602483015283166044820152606481018290526113b89085906323b872dd60e01b906084015b60408051601f198184030181529190526020810180516001600160e01b03166001600160e01b03199093169290921790915261147a565b50505050565b60006113ca8284611b00565b90505b92915050565b60408051600080825260208201928390529182916001600160a01b0386169185916113fd91611b21565b60006040518083038185875af1925050503d806000811461143a576040519150601f19603f3d011682016040523d82523d6000602084013e61143f565b606091505b509095945050505050565b6040516001600160a01b03831660248201526044810182905261133490849063a9059cbb60e01b90606401611381565b60006114cf826040518060400160405280602081526020017f5361666545524332303a206c6f772d6c6576656c2063616c6c206661696c6564815250856001600160a01b031661154c9092919063ffffffff16565b80519091501561133457808060200190518101906114ed9190611a3b565b6113345760405162461bcd60e51b815260206004820152602a60248201527f5361666545524332303a204552433230206f7065726174696f6e20646964206e6044820152691bdd081cdd58d8d9595960b21b606482015260840161027a565b606061155b8484600085611565565b90505b9392505050565b6060824710156115c65760405162461bcd60e51b815260206004820152602660248201527f416464726573733a20696e73756666696369656e742062616c616e636520666f6044820152651c8818d85b1b60d21b606482015260840161027a565b843b6116145760405162461bcd60e51b815260206004820152601d60248201527f416464726573733a2063616c6c20746f206e6f6e2d636f6e7472616374000000604482015260640161027a565b600080866001600160a01b031685876040516116309190611b21565b60006040518083038185875af1925050503d806000811461166d576040519150601f19603f3d011682016040523d82523d6000602084013e611672565b606091505b509150915061168282828661168d565b979650505050505050565b6060831561169c57508161155e565b8251156116ac5782518084602001fd5b8160405162461bcd60e51b815260040161027a9190611b3d565b80356001600160a01b03811681146116dd57600080fd5b919050565b6000806000606084860312156116f757600080fd5b83359250611707602085016116c6565b9150604084013590509250925092565b600080600080600060a0868803121561172f57600080fd5b8535945061173f602087016116c6565b935061174d604087016116c6565b925060608601359150611762608087016116c6565b90509295509295909350565b60006020828403121561178057600080fd5b5035919050565b634e487b7160e01b600052604160045260246000fd5b604051601f8201601f1916810167ffffffffffffffff811182821017156117c6576117c6611787565b604052919050565b600082601f8301126117df57600080fd5b8135602067ffffffffffffffff8211156117fb576117fb611787565b8160051b61180a82820161179d565b928352848101820192828101908785111561182457600080fd5b83870192505b848310156116825782358252918301919083019061182a565b600082601f83011261185457600080fd5b813567ffffffffffffffff81111561186e5761186e611787565b611881601f8201601f191660200161179d565b81815284602083860101111561189657600080fd5b816020850160208301376000918101602001919091529392505050565b600080600080600060a086880312156118cb57600080fd5b6118d4866116c6565b94506118e2602087016116c6565b9350604086013567ffffffffffffffff808211156118ff57600080fd5b61190b89838a016117ce565b9450606088013591508082111561192157600080fd5b61192d89838a016117ce565b9350608088013591508082111561194357600080fd5b5061195088828901611843565b9150509295509295909350565b6001600160e01b031991909116815260200190565b600080600080600060a0868803121561198a57600080fd5b611993866116c6565b94506119a1602087016116c6565b93506040860135925060608601359150608086013567ffffffffffffffff8111156119cb57600080fd5b61195088828901611843565b60208082526013908201527213d999995c88191bd95cdb89dd08195e1a5cdd606a1b604082015260600190565b6020808252601f908201527f5265656e7472616e637947756172643a207265656e7472616e742063616c6c00604082015260600190565b600060208284031215611a4d57600080fd5b8151801515811461155e57600080fd5b600060208284031215611a6f57600080fd5b5051919050565b60005b83811015611a91578181015183820152602001611a79565b50506000910152565b60008151808452611ab2816020860160208601611a76565b601f01601f19169290920160200192915050565b6001600160a01b03868116825285166020820152604081018490526060810183905260a06080820181905260009061168290830184611a9a565b808201808211156113cd57634e487b7160e01b600052601160045260246000fd5b60008251611b33818460208701611a76565b9190910192915050565b6020815260006113ca6020830184611a9a56fea2646970667358221220694e5040d7017d9aa824708e3103e553c2f7bf3f078bc1b35302da0a2cc48ffa64736f6c63430008110033",
  "linkReferences": {},
  "deployedLinkReferences": {}
}