{"contracts/mojito/sothebys/buy.sol":{"OnchainBuy":{"abi":[{"inputs":[{"internalType":"address","name":"_platformAddress","type":"address"},{"internalType":"uint16","name":"_platformFeePercentage","type":"uint16"},{"internalType":"uint64","name":"_max1155Quantity","type":"uint64"},{"internalType":"contract IPriceFeed","name":"_priceFeedAddress","type":"address"},{"internalType":"contract IRoyaltyEngine","name":"_royaltycontract","type":"address"}],"stateMutability":"nonpayable","type":"constructor"},{"anonymous":false,"inputs":[{"indexed":true,"internalType":"address","name":"account","type":"address"},{"indexed":true,"internalType":"address","name":"sender","type":"address"}],"name":"AdminApproved","type":"event"},{"anonymous":false,"inputs":[{"indexed":true,"internalType":"address","name":"account","type":"address"},{"indexed":true,"internalType":"address","name":"sender","type":"address"}],"name":"AdminRevoked","type":"event"},{"anonymous":false,"inputs":[{"indexed":true,"internalType":"address","name":"tokenContract","type":"address"},{"components":[{"internalType":"string","name":"saleId","type":"string"},{"internalType":"address","name":"tokenOwner","type":"address"},{"internalType":"uint256","name":"tokenId","type":"uint256"},{"internalType":"uint64","name":"tokenQuantity","type":"uint64"},{"internalType":"address","name":"buyer","type":"address"},{"internalType":"uint64","name":"quantity","type":"uint64"},{"internalType":"address","name":"paymentToken","type":"address"},{"internalType":"uint256","name":"paymentAmount","type":"uint256"}],"indexed":false,"internalType":"struct OnchainBuy.BuyList","name":"buyingDetails","type":"tuple"},{"indexed":false,"internalType":"uint256[]","name":"MintedtokenId","type":"uint256[]"},{"components":[{"internalType":"address payable","name":"paymentSettlementAddress","type":"address"},{"internalType":"address payable","name":"taxSettlementAddress","type":"address"},{"internalType":"address payable","name":"platformSettlementAddress","type":"address"},{"internalType":"uint16","name":"platformFeePercentage","type":"uint16"},{"internalType":"address payable","name":"commissionAddress","type":"address"},{"internalType":"uint16","name":"commissionFeePercentage","type":"uint16"}],"indexed":false,"internalType":"struct OnchainBuy.settlementList","name":"paymentSettlement","type":"tuple"},{"indexed":false,"internalType":"uint256","name":"tax","type":"uint256"},{"indexed":false,"internalType":"uint256","name":"paymentAmount","type":"uint256"},{"indexed":false,"internalType":"uint256","name":"excessAmount","type":"uint256"}],"name":"BuyExecuted","type":"event"},{"anonymous":false,"inputs":[{"indexed":true,"internalType":"address","name":"previousOwner","type":"address"},{"indexed":true,"internalType":"address","name":"newOwner","type":"address"}],"name":"OwnershipTransferred","type":"event"},{"anonymous":false,"inputs":[{"indexed":false,"internalType":"address","name":"tokenContract","type":"address"},{"indexed":false,"internalType":"uint256","name":"tokenId","type":"uint256"},{"indexed":false,"internalType":"address","name":"recipient","type":"address"},{"indexed":false,"internalType":"uint256","name":"amount","type":"uint256"}],"name":"RoyaltyPayout","type":"event"},{"anonymous":false,"inputs":[{"indexed":false,"internalType":"string","name":"saleId","type":"string"}],"name":"saleClosed","type":"event"},{"anonymous":false,"inputs":[{"components":[{"internalType":"address","name":"nftContractAddress","type":"address"},{"internalType":"uint64","name":"nftStartTokenId","type":"uint64"},{"internalType":"uint64","name":"nftEndTokenId","type":"uint64"},{"internalType":"uint256","name":"minimumFiatPrice","type":"uint256"},{"internalType":"uint256[]","name":"minimumCryptoPrice","type":"uint256[]"},{"internalType":"address[]","name":"paymentCurrency","type":"address[]"},{"components":[{"internalType":"address payable","name":"paymentSettlementAddress","type":"address"},{"internalType":"address payable","name":"taxSettlementAddress","type":"address"},{"internalType":"address payable","name":"platformSettlementAddress","type":"address"},{"internalType":"uint16","name":"platformFeePercentage","type":"uint16"},{"internalType":"address payable","name":"commissionAddress","type":"address"},{"internalType":"uint16","name":"commissionFeePercentage","type":"uint16"}],"internalType":"struct OnchainBuy.settlementList","name":"paymentSettlement","type":"tuple"},{"internalType":"uint64","name":"maxCap","type":"uint64"},{"internalType":"enum OnchainBuy.TransactionStatus","name":"transactionStatus","type":"uint8"},{"internalType":"enum OnchainBuy.PaymentStatus","name":"paymentStatus","type":"uint8"}],"indexed":false,"internalType":"struct OnchainBuy.PriceList","name":"saleList","type":"tuple"}],"name":"saleCreated","type":"event"},{"stateMutability":"payable","type":"fallback"},{"inputs":[{"internalType":"address","name":"admin","type":"address"}],"name":"approveAdmin","outputs":[],"stateMutability":"nonpayable","type":"function"},{"inputs":[{"components":[{"internalType":"string","name":"saleId","type":"string"},{"internalType":"address","name":"tokenOwner","type":"address"},{"internalType":"uint256","name":"tokenId","type":"uint256"},{"internalType":"uint64","name":"tokenQuantity","type":"uint64"},{"internalType":"address","name":"buyer","type":"address"},{"internalType":"uint64","name":"quantity","type":"uint64"},{"internalType":"address","name":"paymentToken","type":"address"},{"internalType":"uint256","name":"paymentAmount","type":"uint256"}],"internalType":"struct OnchainBuy.BuyList","name":"list","type":"tuple"},{"internalType":"uint256","name":"tax","type":"uint256"}],"name":"buy","outputs":[{"internalType":"uint256[]","name":"nftTokenId","type":"uint256[]"}],"stateMutability":"payable","type":"function"},{"inputs":[{"internalType":"string","name":"saleId","type":"string"}],"name":"cancelSale","outputs":[],"stateMutability":"nonpayable","type":"function"},{"inputs":[{"components":[{"internalType":"address","name":"nftContractAddress","type":"address"},{"internalType":"uint64","name":"nftStartTokenId","type":"uint64"},{"internalType":"uint64","name":"nftEndTokenId","type":"uint64"},{"internalType":"uint256","name":"minimumFiatPrice","type":"uint256"},{"internalType":"uint256[]","name":"minimumCryptoPrice","type":"uint256[]"},{"internalType":"address[]","name":"paymentCurrency","type":"address[]"},{"components":[{"internalType":"address payable","name":"paymentSettlementAddress","type":"address"},{"internalType":"address payable","name":"taxSettlementAddress","type":"address"},{"internalType":"address payable","name":"platformSettlementAddress","type":"address"},{"internalType":"uint16","name":"platformFeePercentage","type":"uint16"},{"internalType":"address payable","name":"commissionAddress","type":"address"},{"internalType":"uint16","name":"commissionFeePercentage","type":"uint16"}],"internalType":"struct OnchainBuy.settlementList","name":"paymentSettlement","type":"tuple"},{"internalType":"uint64","name":"maxCap","type":"uint64"},{"internalType":"enum OnchainBuy.TransactionStatus","name":"transactionStatus","type":"uint8"},{"internalType":"enum OnchainBuy.PaymentStatus","name":"paymentStatus","type":"uint8"}],"internalType":"struct OnchainBuy.PriceList","name":"list","type":"tuple"},{"internalType":"string","name":"saleId","type":"string"}],"name":"createSale","outputs":[],"stateMutability":"nonpayable","type":"function"},{"inputs":[],"name":"getAdmins","outputs":[{"internalType":"address[]","name":"admins","type":"address[]"}],"stateMutability":"view","type":"function"},{"inputs":[],"name":"getContractData","outputs":[{"internalType":"address","name":"_platformAddress","type":"address"},{"internalType":"uint16","name":"_platformFeePercentage","type":"uint16"},{"internalType":"contract IPriceFeed","name":"_priceFeedAddress","type":"address"},{"internalType":"contract IRoyaltyEngine","name":"_royaltySupport","type":"address"},{"internalType":"uint64","name":"_max1155Quantity","type":"uint64"}],"stateMutability":"view","type":"function"},{"inputs":[{"internalType":"string","name":"saleId","type":"string"}],"name":"getListingPrice","outputs":[{"internalType":"uint256[]","name":"minimumCryptoPrice","type":"uint256[]"},{"internalType":"address[]","name":"paymentCurrency","type":"address[]"}],"stateMutability":"view","type":"function"},{"inputs":[{"internalType":"address","name":"collectionAddress","type":"address"},{"internalType":"uint256","name":"tokenId","type":"uint256"}],"name":"getRoyaltyInfo","outputs":[{"internalType":"address payable[]","name":"recipients","type":"address[]"},{"internalType":"uint256[]","name":"bps","type":"uint256[]"}],"stateMutability":"view","type":"function"},{"inputs":[{"internalType":"address","name":"admin","type":"address"}],"name":"isAdmin","outputs":[{"internalType":"bool","name":"","type":"bool"}],"stateMutability":"view","type":"function"},{"inputs":[{"internalType":"string","name":"","type":"string"}],"name":"listings","outputs":[{"internalType":"address","name":"nftContractAddress","type":"address"},{"internalType":"uint64","name":"nftStartTokenId","type":"uint64"},{"internalType":"uint64","name":"nftEndTokenId","type":"uint64"},{"internalType":"uint256","name":"minimumFiatPrice","type":"uint256"},{"components":[{"internalType":"address payable","name":"paymentSettlementAddress","type":"address"},{"internalType":"address payable","name":"taxSettlementAddress","type":"address"},{"internalType":"address payable","name":"platformSettlementAddress","type":"address"},{"internalType":"uint16","name":"platformFeePercentage","type":"uint16"},{"internalType":"address payable","name":"commissionAddress","type":"address"},{"internalType":"uint16","name":"commissionFeePercentage","type":"uint16"}],"internalType":"struct OnchainBuy.settlementList","name":"paymentSettlement","type":"tuple"},{"internalType":"uint64","name":"maxCap","type":"uint64"},{"internalType":"enum OnchainBuy.TransactionStatus","name":"transactionStatus","type":"uint8"},{"internalType":"enum OnchainBuy.PaymentStatus","name":"paymentStatus","type":"uint8"}],"stateMutability":"view","type":"function"},{"inputs":[],"name":"owner","outputs":[{"internalType":"address","name":"","type":"address"}],"stateMutability":"view","type":"function"},{"inputs":[],"name":"renounceOwnership","outputs":[],"stateMutability":"nonpayable","type":"function"},{"inputs":[{"internalType":"address","name":"admin","type":"address"}],"name":"revokeAdmin","outputs":[],"stateMutability":"nonpayable","type":"function"},{"inputs":[{"internalType":"bytes4","name":"interfaceId","type":"bytes4"}],"name":"supportsInterface","outputs":[{"internalType":"bool","name":"","type":"bool"}],"stateMutability":"view","type":"function"},{"inputs":[{"internalType":"address","name":"newOwner","type":"address"}],"name":"transferOwnership","outputs":[],"stateMutability":"nonpayable","type":"function"},{"inputs":[{"internalType":"string","name":"saleId","type":"string"},{"internalType":"enum OnchainBuy.PaymentStatus","name":"paymentStatus","type":"uint8"},{"internalType":"uint256","name":"minimumFiatPrice","type":"uint256"},{"internalType":"uint256[]","name":"minimumCryptoPrice","type":"uint256[]"},{"internalType":"address[]","name":"paymentCurrency","type":"address[]"}],"name":"updatePayment","outputs":[],"stateMutability":"nonpayable","type":"function"},{"inputs":[{"internalType":"address","name":"_platformAddress","type":"address"}],"name":"updatePlatformAddress","outputs":[],"stateMutability":"nonpayable","type":"function"},{"inputs":[{"internalType":"uint16","name":"_platformFeePercentage","type":"uint16"}],"name":"updatePlatformFeePercentage","outputs":[],"stateMutability":"nonpayable","type":"function"},{"inputs":[{"internalType":"address","name":"pricefeed","type":"address"}],"name":"updatePricefeedContract","outputs":[],"stateMutability":"nonpayable","type":"function"},{"inputs":[{"internalType":"address","name":"royaltyContract","type":"address"}],"name":"updateRoyaltyContract","outputs":[],"stateMutability":"nonpayable","type":"function"},{"inputs":[{"internalType":"uint64","name":"_max1155Quantity","type":"uint64"}],"name":"updatemax1155Quantity","outputs":[],"stateMutability":"nonpayable","type":"function"},{"inputs":[{"internalType":"string","name":"saleId","type":"string"},{"internalType":"address payable","name":"_paymentSettlementAddress","type":"address"}],"name":"updatepaymentSettlementAddress","outputs":[],"stateMutability":"nonpayable","type":"function"},{"inputs":[{"internalType":"string","name":"saleId","type":"string"},{"internalType":"address payable","name":"_taxSettlementAddress","type":"address"}],"name":"updatetaxSettlementAddress","outputs":[],"stateMutability":"nonpayable","type":"function"},{"inputs":[],"name":"withdraw","outputs":[],"stateMutability":"nonpayable","type":"function"},{"stateMutability":"payable","type":"receive"}],"evm":{"bytecode":{"linkReferences":{},"object":"60806040523480156200001157600080fd5b50604051620059da380380620059da8339810160408190526200003491620001ca565b6001600081815581546001600160a01b031916339081179092556040518291907f8be0079c531659141344cd1fd0a4f28419497f9722a3daafe3b4186f6b6457e0908290a3506001600160a01b038516620000d65760405162461bcd60e51b815260206004820152601860248201527f496e76616c696420506c6174666f726d2041646472657373000000000000000060448201526064015b60405180910390fd5b6127108461ffff16106200013b5760405162461bcd60e51b815260206004820152602560248201527f706c6174666f726d4665652073686f756c64206265206c657373207468616e20604482015264031303030360dc1b6064820152608401620000cd565b6007805461ffff909516600160a01b9081026001600160b01b03199096166001600160a01b039788161795909517905560098054600880549488166001600160a01b0319958616179055919095166001600160401b03909316909302166001600160e01b0319909216919091171790556200025b565b6001600160a01b0381168114620001c757600080fd5b50565b600080600080600060a08688031215620001e357600080fd5b8551620001f081620001b1565b602087015190955061ffff811681146200020957600080fd5b60408701519094506001600160401b03811681146200022757600080fd5b60608701519093506200023a81620001b1565b60808701519092506200024d81620001b1565b809150509295509295909350565b61576f806200026b6000396000f3fe6080604052600436106101435760003560e01c806377dec6c3116100b0578063cbc9a9411161006c578063cbc9a941146104be578063df354bdd146104de578063dfa12f791461050c578063e8ac841f1461052c578063f2fde38b1461054c578063fd114f081461056c57005b806377dec6c3146102db5780638da5cb5b146103d15780638f9f193f146103f9578063a68b91ab14610419578063acecf9de1461047e578063bf9afc181461049e57005b80633ccfd60b116100ff5780633ccfd60b146102235780634b9804b2146102385780636d73e66914610258578063705e3f6c14610278578063715018a614610298578063773fe986146102ad57005b806301ffc9a71461014c57806319e4367c1461018157806324d7806c146101a15780632977f78a146101c15780632d345670146101e157806331ae450b1461020157005b3661014a57005b005b34801561015857600080fd5b5061016c610167366004614222565b61058c565b60405190151581526020015b60405180910390f35b34801561018d57600080fd5b5061014a61019c366004614271565b6105c3565b3480156101ad57600080fd5b5061016c6101bc3660046142ae565b610679565b3480156101cd57600080fd5b5061014a6101dc3660046143a9565b6106b2565b3480156101ed57600080fd5b5061014a6101fc3660046142ae565b61082f565b34801561020d57600080fd5b506102166108af565b6040516101789190614421565b34801561022f57600080fd5b5061014a61095d565b34801561024457600080fd5b5061014a6102533660046142ae565b610a72565b34801561026457600080fd5b5061014a6102733660046142ae565b610b48565b34801561028457600080fd5b5061014a6102933660046142ae565b610bc2565b3480156102a457600080fd5b5061014a610c9a565b3480156102b957600080fd5b506102cd6102c8366004614434565b610d0e565b604051610178929190614490565b3480156102e757600080fd5b506103bd6102f63660046143a9565b8051808201602090810180516004825292820193820193909320919092528054600182015460028301546040805160c08101825260058601546001600160a01b039081168252600687015481169782019790975260078601548088169282019290925261ffff600160a01b9283900481166060830152600887015480891660808401528390041660a0820152600990950154958416956001600160401b0391909404811694928116939192919081169060ff600160401b8204811691600160481b90041688565b604051610178989796959493929190614585565b3480156103dd57600080fd5b506001546040516001600160a01b039091168152602001610178565b34801561040557600080fd5b5061014a6104143660046142ae565b610d96565b34801561042557600080fd5b50600754600854600954604080516001600160a01b038086168252600160a01b9586900461ffff166020830152938416918101919091529181166060830152919091046001600160401b0316608082015260a001610178565b61049161048c3660046145f8565b610e58565b60405161017891906146d8565b3480156104aa57600080fd5b5061014a6104b9366004614733565b61136c565b3480156104ca57600080fd5b5061014a6104d9366004614799565b611467565b3480156104ea57600080fd5b506104fe6104f93660046147b6565b61153a565b6040516101789291906147f7565b34801561051857600080fd5b5061014a610527366004614878565b61162a565b34801561053857600080fd5b5061014a610547366004614733565b6117ba565b34801561055857600080fd5b5061014a6105673660046142ae565b6118b5565b34801561057857600080fd5b5061014a61058736600461492f565b6119a0565b60006001600160e01b03198216632a9f3abf60e11b14806105bd57506301ffc9a760e01b6001600160e01b03198316145b92915050565b336105d66001546001600160a01b031690565b6001600160a01b031614806105f157506105f160023361216d565b6106165760405162461bcd60e51b815260040161060d906149a0565b60405180910390fd5b6001600160401b0381161580159061064357506009546001600160401b03828116600160a01b9092041614155b61064c57600080fd5b600980546001600160401b03909216600160a01b0267ffffffffffffffff60a01b19909216919091179055565b6000816001600160a01b03166106976001546001600160a01b031690565b6001600160a01b031614806105bd57506105bd60028361216d565b336106c56001546001600160a01b031690565b6001600160a01b031614806106e057506106e060023361216d565b6106fc5760405162461bcd60e51b815260040161060d906149a0565b60068160405161070c9190614a08565b9081526040519081900360200190205460ff1661073b5760405162461bcd60e51b815260040161060d90614a24565b60048160405161074b9190614a08565b90815260405190819003602001902080546001600160e01b031916815560018101805467ffffffffffffffff191690556000600282018190556107916003830182614155565b61079f600483016000614155565b506005810180546001600160a01b031990811690915560068201805490911690556007810180546001600160b01b03199081169091556008820180549091169055600901805469ffffffffffffffffffff191690556040517f09fced985ff97f7dac8f320b7d834e3862ae0274970ffe3dc0d84de5a453899590610824908390614aad565b60405180910390a150565b6001546001600160a01b031633146108595760405162461bcd60e51b815260040161060d90614ac0565b61086460028261216d565b156108ac5760405133906001600160a01b038316907f7c0c3c84c67c85fcac635147348bfe374c24a1a93d0366d1cfe9d8853cbf89d590600090a36108aa600282612192565b505b50565b60606108bb60026121a7565b6001600160401b038111156108d2576108d26142cb565b6040519080825280602002602001820160405280156108fb578160200160208202803683370190505b50905060005b61090b60026121a7565b8110156109595761091d6002826121b1565b82828151811061092f5761092f614af5565b6001600160a01b03909216602092830291909101909101528061095181614b21565b915050610901565b5090565b336109706001546001600160a01b031690565b6001600160a01b0316148061098b575061098b60023361216d565b6109a75760405162461bcd60e51b815260040161060d906149a0565b6040805160008082526020820192839052913391829147916109c891614a08565b60006040518083038185875af1925050503d8060008114610a05576040519150601f19603f3d011682016040523d82523d6000602084013e610a0a565b606091505b505080925050816108aa5760405162461bcd60e51b815260206004820152602c60248201527f776974686472617720746f2077697468647261772066756e64732e20506c656160448201526b39b2903a393c9030b3b0b4b760a11b606482015260840161060d565b33610a856001546001600160a01b031690565b6001600160a01b03161480610aa05750610aa060023361216d565b610abc5760405162461bcd60e51b815260040161060d906149a0565b6001600160a01b038116610b265760405162461bcd60e51b815260206004820152602b60248201527f726f79616c747920636f6e74726163742073686f756c64206e6f74206265206160448201526a646472657373207a65726f60a81b606482015260840161060d565b600980546001600160a01b0319166001600160a01b0392909216919091179055565b6001546001600160a01b03163314610b725760405162461bcd60e51b815260040161060d90614ac0565b610b7d60028261216d565b6108ac5760405133906001600160a01b038316907f7e1a1a08d52e4ba0e21554733d66165fd5151f99460116223d9e3a608eec5cb190600090a36108aa6002826121bd565b33610bd56001546001600160a01b031690565b6001600160a01b03161480610bf05750610bf060023361216d565b610c0c5760405162461bcd60e51b815260040161060d906149a0565b6001600160a01b038116610c785760405162461bcd60e51b815260206004820152602d60248201527f70726963656665656420636f6e74726163742073686f756c64206e6f7420626560448201526c2061646472657373207a65726f60981b606482015260840161060d565b600880546001600160a01b0319166001600160a01b0392909216919091179055565b6001546001600160a01b03163314610cc45760405162461bcd60e51b815260040161060d90614ac0565b6001546040516000916001600160a01b0316907f8be0079c531659141344cd1fd0a4f28419497f9722a3daafe3b4186f6b6457e0908390a3600180546001600160a01b0319169055565b600954604051636e44a72f60e01b81526001600160a01b038481166004830152602482018490526060928392911690636e44a72f90604401600060405180830381865afa158015610d63573d6000803e3d6000fd5b505050506040513d6000823e601f3d908101601f19168201604052610d8b9190810190614bc8565b909590945092505050565b33610da96001546001600160a01b031690565b6001600160a01b03161480610dc45750610dc460023361216d565b610de05760405162461bcd60e51b815260040161060d906149a0565b6001600160a01b038116610e365760405162461bcd60e51b815260206004820152601860248201527f496e76616c696420506c6174666f726d20416464726573730000000000000000604482015260640161060d565b600780546001600160a01b0319166001600160a01b0392909216919091179055565b6060600260005403610eac5760405162461bcd60e51b815260206004820152601f60248201527f5265656e7472616e637947756172643a207265656e7472616e742063616c6c00604482015260640161060d565b600260009081558351604051600491610ec491614a08565b90815260408051918290036020908101832060c08401835260058101546001600160a01b039081168552600682015481169285019290925260078101548083168585015261ffff600160a01b918290048116606087015260089092015492831660808601529091041660a083015285519051919250600091600491610f4891614a08565b9081526040805191829003602090810183206101408401835280546001600160a01b03811685526001600160401b03600160a01b909104811685840152600182015416848401526002810154606085015260038101805484518185028101850190955280855291936080860193909290830182828015610fe757602002820191906000526020600020905b815481526020019060010190808311610fd3575b505050505081526020016004820180548060200260200160405190810160405280929190818152602001828054801561104957602002820191906000526020600020905b81546001600160a01b0316815260019091019060200180831161102b575b50505091835250506040805160c08101825260058401546001600160a01b0390811682526006850154811660208381019190915260078601548083168486015261ffff600160a01b918290048116606080870191909152600889015494851660808701529190930490921660a084015284019190915260098401546001600160401b038116928401929092529091019060ff600160401b9091041660018111156110f5576110f5614544565b600181111561110657611106614544565b81526020016009820160099054906101000a900460ff16600181111561112e5761112e614544565b600181111561113f5761113f614544565b90525085516040519192506006916111579190614a08565b9081526040519081900360200190205460ff166111865760405162461bcd60e51b815260040161060d90614c8c565b61118f33610679565b806111a6575060808501516001600160a01b031633145b6112295760405162461bcd60e51b815260206004820152604860248201527f4f6e6c7920746865206275796572206f722061646d696e206f72206f776e657260448201527f206f66207468697320636f6e74726163742063616e2063616c6c207468697320606482015267333ab731ba34b7b760c11b608482015260a40161060d565b6000806112748760000151886040015189606001516001600160401b03168a60a001516001600160401b03168b60c001518b8d60e0015161126a9190614cb6565b8d608001516121d2565b915091506112b787600001518860200151838a608001518b604001518c606001516001600160401b03168d60a001516001600160401b03168a6101000151612c4c565b945085156112d3576112d33385602001518960c00151896136ac565b6113038760000151838960e001516112eb9190614cc9565b848a60c001518b604001518a878a61010001516137b0565b806001600160a01b03167f92347fd034deb76ed77249b761aec05c6302665f18922499f245dde63bcb0d1f8887878a87888e60e001516113439190614cc9565b60405161135596959493929190614cdc565b60405180910390a250505050600160005592915050565b3361137f6001546001600160a01b031690565b6001600160a01b0316148061139a575061139a60023361216d565b6113b65760405162461bcd60e51b815260040161060d906149a0565b600683836040516113c8929190614dc3565b9081526040519081900360200190205460ff166113f75760405162461bcd60e51b815260040161060d90614c8c565b6001600160a01b03811661141d5760405162461bcd60e51b815260040161060d90614dd3565b8060048484604051611430929190614dc3565b90815260405190819003602001902060060180546001600160a01b03929092166001600160a01b0319909216919091179055505050565b3361147a6001546001600160a01b031690565b6001600160a01b03161480611495575061149560023361216d565b6114b15760405162461bcd60e51b815260040161060d906149a0565b6127108161ffff16106115185760405162461bcd60e51b815260206004820152602960248201527f706c6174666f726d4665652073686f756c64206e6f74206265206d6f72652074604482015268068616e2031303030360bc1b606482015260840161060d565b6007805461ffff909216600160a01b0261ffff60a01b19909216919091179055565b6060806004848460405161154f929190614dc3565b90815260408051918290036020908101832060030180548083028501830190935282845291908301828280156115a457602002820191906000526020600020905b815481526020019060010190808311611590575b50505050509150600484846040516115bd929190614dc3565b908152604080519182900360209081018320600401805480830285018301909352828452919083018282801561161c57602002820191906000526020600020905b81546001600160a01b031681526001909101906020018083116115fe575b505050505090509250929050565b3361163d6001546001600160a01b031690565b6001600160a01b03161480611658575061165860023361216d565b6116745760405162461bcd60e51b815260040161060d906149a0565b60068888604051611686929190614dc3565b9081526040519081900360200190205460ff166116b55760405162461bcd60e51b815260040161060d90614c8c565b8083146116d45760405162461bcd60e51b815260040161060d90614e30565b85600489896040516116e7929190614dc3565b908152604051908190036020019020600901805469ff0000000000000000001916600160481b83600181111561171f5761171f614544565b0217905550838360048a8a604051611738929190614dc3565b90815260200160405180910390206003019190611756929190614173565b50818160048a8a60405161176b929190614dc3565b908152602001604051809103902060040191906117899291906141ba565b50846004898960405161179d929190614dc3565b908152604051908190036020019020600201555050505050505050565b336117cd6001546001600160a01b031690565b6001600160a01b031614806117e857506117e860023361216d565b6118045760405162461bcd60e51b815260040161060d906149a0565b60068383604051611816929190614dc3565b9081526040519081900360200190205460ff166118455760405162461bcd60e51b815260040161060d90614c8c565b6001600160a01b03811661186b5760405162461bcd60e51b815260040161060d90614dd3565b806004848460405161187e929190614dc3565b90815260405190819003602001902060050180546001600160a01b03929092166001600160a01b0319909216919091179055505050565b6001546001600160a01b031633146118df5760405162461bcd60e51b815260040161060d90614ac0565b6001600160a01b0381166119445760405162461bcd60e51b815260206004820152602660248201527f4f776e61626c653a206e6577206f776e657220697320746865207a65726f206160448201526564647265737360d01b606482015260840161060d565b6001546040516001600160a01b038084169216907f8be0079c531659141344cd1fd0a4f28419497f9722a3daafe3b4186f6b6457e090600090a3600180546001600160a01b0319166001600160a01b0392909216919091179055565b336119b36001546001600160a01b031690565b6001600160a01b031614806119ce57506119ce60023361216d565b6119ea5760405162461bcd60e51b815260040161060d906149a0565b600682826040516119fc929190614dc3565b9081526040519081900360200190205460ff1615611a2c5760405162461bcd60e51b815260040161060d90614a24565b6000611a4061014085016101208601614799565b61ffff1615611a8857611a5b61018085016101608601614799565b611a6d61014086016101208701614799565b611a779190614e8d565b611a819082614e8d565b9050611abf565b611a9a61018085016101608601614799565b600754611ab29190600160a01b900461ffff16614e8d565b611abc9082614e8d565b90505b6127108161ffff1610611b305760405162461bcd60e51b815260206004820152603360248201527f54686520746f74616c2066656520626173697320706f696e742073686f756c646044820152720206265206c657373207468616e20313030303606c1b606482015260840161060d565b6000611b426040860160208701614271565b6001600160401b0316118015611b7057506000611b656060860160408701614271565b6001600160401b0316115b15611c4157611b856040850160208601614271565b6001600160401b0316611b9e6060860160408701614271565b6001600160401b03161015611c415760405162461bcd60e51b815260206004820152605f60248201527f54686973206973206e6f7420612076616c6964204e4654207374617274206f7260448201527f20656e6420746f6b656e2049442e20506c65617365207665726966792074686160648201527f74207468652072616e67652070726f766964656420697320636f727265637400608482015260a40161060d565b611c4e6080850185614ea8565b9050611c5d60a0860186614ea8565b905014611c7c5760405162461bcd60e51b815260040161060d90614e30565b6000611c906101c086016101a08701614ef1565b6001811115611ca157611ca1614544565b03611dcd57611cb86101a085016101808601614271565b6001600160401b0316600003611d1a5760405162461bcd60e51b815260206004820152602160248201527f73686f756c642070726f76696465206d617843617020666f72206d696e74696e6044820152606760f81b606482015260840161060d565b611d2a6040850160208601614271565b6001600160401b0316158015611d565750611d4b6060850160408601614271565b6001600160401b0316155b611dc85760405162461bcd60e51b815260206004820152603d60248201527f546865204e46547374617274746f6b656e696420616e64204e4654656e64746f60448201527f6b656e69642073686f756c64206265203020666f72206d696e74696e67000000606482015260840161060d565b611e45565b611ddf6101a085016101808601614271565b6001600160401b031615611e455760405162461bcd60e51b815260206004820152602760248201527f6d61784361702073686f756c64206265203020666f72207072656d696e74656460448201526620746f6b656e7360c81b606482015260840161060d565b611e5260208501856142ae565b6040516301ffc9a760e01b81526001600160a01b0391909116906301ffc9a790611e87906380ac58cd60e01b90600401614f0e565b602060405180830381865afa158015611ea4573d6000803e3d6000fd5b505050506040513d601f19601f82011682018060405250810190611ec89190614f23565b80611f515750611edb60208501856142ae565b6040516301ffc9a760e01b81526001600160a01b0391909116906301ffc9a790611f1090636cdb3d1360e11b90600401614f0e565b602060405180830381865afa158015611f2d573d6000803e3d6000fd5b505050506040513d601f19601f82011682018060405250810190611f519190614f23565b611fc35760405162461bcd60e51b815260206004820152603e60248201527f73686f756c642070726f76696465206f6e6c7920737570706f7274656420636f60448201527f6e747261637420696e746572666163657320455243203732312f313135350000606482015260840161060d565b6000611fd560e0860160c087016142ae565b6001600160a01b0316036120465760405162461bcd60e51b815260206004820152603260248201527f73686f756c642070726f766964652076616c69642077616c6c65742061646472604482015271195cdcc8199bdc881cd95d1d1b195b595b9d60721b606482015260840161060d565b6000612059610100860160e087016142ae565b6001600160a01b0316036120ce5760405162461bcd60e51b815260206004820152603660248201527f73686f756c642070726f766964652076616c69642077616c6c65742061646472604482015275195cdcc8199bdc881d185e081cd95d1d1b195b595b9d60521b606482015260840161060d565b83600484846040516120e1929190614dc3565b9081526040519081900360200190206120fa82826151ba565b905050600160068484604051612111929190614dc3565b908152604051908190036020018120805492151560ff19909316929092179091557f5e497450a6bb5270282292fab91de64cb64f3e379288c411a7eab0f283afbbf59061215f908690615436565b60405180910390a150505050565b6001600160a01b038116600090815260018301602052604081205415155b9392505050565b600061218b836001600160a01b0384166139b9565b60006105bd825490565b600061218b8383613ab3565b600061218b836001600160a01b038416613add565b600080600060048a6040516121e79190614a08565b9081526040805191829003602090810183206101408401835280546001600160a01b03811685526001600160401b03600160a01b90910481168584015260018201541684840152600281015460608501526003810180548451818502810185019095528085529193608086019390929083018282801561228657602002820191906000526020600020905b815481526020019060010190808311612272575b50505050508152602001600482018054806020026020016040519081016040528092919081815260200182805480156122e857602002820191906000526020600020905b81546001600160a01b031681526001909101906020018083116122ca575b50505091835250506040805160c08101825260058401546001600160a01b0390811682526006850154811660208381019190915260078601548083168486015261ffff600160a01b918290048116606080870191909152600889015494851660808701529190930490921660a084015284019190915260098401546001600160401b038116928401929092529091019060ff600160401b90910416600181111561239457612394614544565b60018111156123a5576123a5614544565b81526020016009820160099054906101000a900460ff1660018111156123cd576123cd614544565b60018111156123de576123de614544565b90525060208101519091506001600160401b031615801561240c5750600081604001516001600160401b0316115b156124435780604001516001600160401b031689111561243e5760405162461bcd60e51b815260040161060d90615562565b612512565b600081602001516001600160401b031611801561246b575060408101516001600160401b0316155b1561249d5780602001516001600160401b031689101561243e5760405162461bcd60e51b815260040161060d90615562565b600081602001516001600160401b03161180156124c75750600081604001516001600160401b0316115b156125125780602001516001600160401b031689101580156124f6575080604001516001600160401b03168911155b6125125760405162461bcd60e51b815260040161060d90615562565b805191506000816101200151600181111561252f5761252f614544565b036125b6576008546060820151604051630748060b60e31b815260048101919091526001600160a01b03888116602483015290911690633a40305890604401602060405180830381865afa15801561258b573d6000803e3d6000fd5b505050506040513d601f19601f820116820180604052508101906125af91906155d7565b9250612653565b600181610120015160018111156125cf576125cf614544565b036126535760005b8160a001515181101561265157866001600160a01b03168260a00151828151811061260457612604614af5565b60200260200101516001600160a01b03160361263f578160800151818151811061263057612630614af5565b60200260200101519350612651565b8061264981614b21565b9150506125d7565b505b826000036126bc5760405162461bcd60e51b815260206004820152603060248201527f506c656173652070726f766964652076616c696420737570706f72746564204560448201526f524332302f455448206164647265737360801b606482015260840161060d565b600081610100015160018111156126d5576126d5614544565b0361292f57600954600160a01b90046001600160401b03168711156127985760405162461bcd60e51b815260206004820152606760248201527f546865206d6178696d756d207175616e7469747920616c6c6f77656420746f2060448201527f7075726368617365206174206f6e652074696d652073686f756c64206e6f742060648201527f6265206d6f7265207468616e20646566696e656420696e206d6178313135355160848201526675616e7469747960c81b60a482015260c40161060d565b6040516301ffc9a760e01b81526001600160a01b038316906301ffc9a7906127cb906380ac58cd60e01b90600401614f0e565b602060405180830381865afa1580156127e8573d6000803e3d6000fd5b505050506040513d601f19601f8201168201806040525081019061280c9190614f23565b156128225761281b8884614f7f565b925061295a565b6040516301ffc9a760e01b81526001600160a01b038316906301ffc9a79061285590636cdb3d1360e11b90600401614f0e565b602060405180830381865afa158015612872573d6000803e3d6000fd5b505050506040513d601f19601f820116820180604052508101906128969190614f23565b1561292a5760405163bd85b03960e01b8152600481018a90526001600160a01b0383169063bd85b03990602401602060405180830381865afa1580156128e0573d6000803e3d6000fd5b505050506040513d601f19601f8201168201806040525081019061290491906155d7565b60000361292057866129168985614f7f565b61281b9190614f7f565b61281b8784614f7f565b61295a565b6001816101000151600181111561294857612948614544565b0361295a576129578784614f7f565b92505b6001600160a01b038616612a1f5784341480156129775750828510155b612a1a5760405162461bcd60e51b815260206004820152606260248201527f496e73756666696369656e742066756e6473206f7220696e76616c696420616d60448201527f6f756e742e20596f75206e65656420746f207061737320612076616c6964206160648201527f6d6f756e7420746f20636f6d706c6574652074686973207472616e736163746960848201526137b760f11b60a482015260c40161060d565b612c3f565b6040516370a0823160e01b81526001600160a01b0385811660048301528691908816906370a0823190602401602060405180830381865afa158015612a68573d6000803e3d6000fd5b505050506040513d601f19601f82011682018060405250810190612a8c91906155d7565b10158015612a9a5750828510155b612b285760405162461bcd60e51b815260206004820152605360248201527f496e73756666696369656e742066756e64732e20596f752073686f756c64206860448201527f6176652073756666696369656e742062616c616e636520746f20636f6d706c656064820152723a32903a3434b9903a3930b739b0b1ba34b7b760691b608482015260a40161060d565b604051636eb1769f60e11b81526001600160a01b03858116600483015230602483015286919088169063dd62ed3e90604401602060405180830381865afa158015612b77573d6000803e3d6000fd5b505050506040513d601f19601f82011682018060405250810190612b9b91906155d7565b1015612c3f5760405162461bcd60e51b815260206004820152606160248201527f496e73756666696369656e7420617070726f76616c2066726f6d20616e20455260448201527f43323020546f6b656e2e20506c656173652070726f7669646520617070726f7660648201527f616c20746f207468697320636f6e747261637420616e642074727920616761696084820152603760f91b60a482015260c40161060d565b5097509795505050505050565b6040516301ffc9a760e01b81526060906001600160a01b038816906301ffc9a790612c82906380ac58cd60e01b90600401614f0e565b602060405180830381865afa158015612c9f573d6000803e3d6000fd5b505050506040513d601f19601f82011682018060405250810190612cc39190614f23565b1561302d576001826001811115612cdc57612cdc614544565b03612e32576040516331a9108f60e11b8152600481018690526001600160a01b03808a169190891690636352211e90602401602060405180830381865afa158015612d2b573d6000803e3d6000fd5b505050506040513d601f19601f82011682018060405250810190612d4f91906155f0565b6001600160a01b031614612dc35760405162461bcd60e51b815260206004820152603560248201527f496e76616c6964204e4654204f776e657220416464726573732e20506c656173604482015274329031b432b1b59030b732103a393c9030b3b0b4b760591b606482015260840161060d565b604051632142170760e11b81526001600160a01b0389811660048301528781166024830152604482018790528816906342842e0e90606401600060405180830381600087803b158015612e1557600080fd5b505af1158015612e29573d6000803e3d6000fd5b505050506136a0565b6000826001811115612e4657612e46614544565b0361302857600489604051612e5b9190614a08565b908152604051908190036020018120600901546001600160401b0316908590600590612e88908d90614a08565b908152602001604051809103902054612ea19190614cb6565b1115612f615760405162461bcd60e51b815260206004820152607760248201527f546865206d6178696d756d207175616e7469747920616c6c6f77656420746f2060448201527f70757263686173652045524337323120746f6b656e20686173206265656e207360648201527f6f6c64206f75742e20506c6561736520636f6e74616374207468652073616c6560848201527f206f776e657220666f72206d6f72652064657461696c7300000000000000000060a482015260c40161060d565b60405163e00aab4b60e01b81526001600160a01b03878116600483015261ffff8616602483015288169063e00aab4b906044016000604051808303816000875af1158015612fb3573d6000803e3d6000fd5b505050506040513d6000823e601f3d908101601f19168201604052612fdb919081019061560d565b90508360058a604051612fee9190614a08565b9081526020016040518091039020546130079190614cb6565b60058a6040516130179190614a08565b908152604051908190036020019020555b6136a0565b6040516301ffc9a760e01b81526001600160a01b038816906301ffc9a79061306090636cdb3d1360e11b90600401614f0e565b602060405180830381865afa15801561307d573d6000803e3d6000fd5b505050506040513d601f19601f820116820180604052508101906130a19190614f23565b156136a05760018260018111156130ba576130ba614544565b0361323257604051627eeac760e11b81526001600160a01b038981166004830152602482018790526000919089169062fdd58e90604401602060405180830381865afa15801561310e573d6000803e3d6000fd5b505050506040513d601f19601f8201168201806040525081019061313291906155d7565b90508084111580156131445750600084115b6131a25760405162461bcd60e51b815260206004820152602960248201527f496e73756666696369656e7420746f6b656e2062616c616e63652066726f6d206044820152683a34329037bbb732b960b91b606482015260840161060d565b604051637921219560e11b81526001600160a01b038a811660048301528881166024830152604482018890526064820186905260a06084830152600260a483015261060f60f31b60c483015289169063f242432a9060e401600060405180830381600087803b15801561321457600080fd5b505af1158015613228573d6000803e3d6000fd5b50505050506136a0565b600082600181111561324657613246614544565b036136a057604080516001808252818301909252600091602080830190803683370190505090506000856001600160401b03811115613287576132876142cb565b6040519080825280602002602001820160405280156132b0578160200160208202803683370190505b509050606088836000815181106132c9576132c9614af5565b60200260200101906001600160a01b031690816001600160a01b03168152505085826000815181106132fd576132fd614af5565b602090810291909101015260405163bd85b03960e01b8152600481018990526001600160a01b038b169063bd85b03990602401602060405180830381865afa15801561334d573d6000803e3d6000fd5b505050506040513d601f19601f8201168201806040525081019061337191906155d7565b6000036135855760048c6040516133889190614a08565b908152604051908190036020018120600901546001600160401b0316906005906133b3908f90614a08565b908152602001604051809103902054106134815760405162461bcd60e51b815260206004820152607860248201527f546865206d6178696d756d207175616e7469747920616c6c6f77656420746f2060448201527f7075726368617365204552433131353520746f6b656e20686173206265656e2060648201527f736f6c64206f75742e20506c6561736520636f6e74616374207468652073616c60848201527f65206f776e657220666f72206d6f72652064657461696c73000000000000000060a482015260c40161060d565b60005b878110156134bc578683828151811061349f5761349f614af5565b6020908102919091010152806134b481614b21565b915050613484565b50604051634637423960e11b81526001600160a01b038b1690638c6e8472906134ed90869086908690600401615641565b6000604051808303816000875af115801561350c573d6000803e3d6000fd5b505050506040513d6000823e601f3d908101601f19168201604052613534919081019061560d565b93508660058d6040516135479190614a08565b9081526020016040518091039020546135609190614cb6565b60058d6040516135709190614a08565b9081526040519081900360200190205561369c565b60405163bd85b03960e01b8152600481018990526000906001600160a01b038c169063bd85b03990602401602060405180830381865afa1580156135cd573d6000803e3d6000fd5b505050506040513d601f19601f820116820180604052508101906135f191906155d7565b111561369c5760408051600180825281830190925260009160208083019080368337019050509050888160008151811061362d5761362d614af5565b60209081029190910101526040516339b2213760e21b81526001600160a01b038c169063e6c884dc90613668908790859088906004016156c8565b600060405180830381600087803b15801561368257600080fd5b505af1158015613696573d6000803e3d6000fd5b50505050505b5050505b98975050505050505050565b60006001600160a01b03831661379457604080516000815260208101918290526001600160a01b0386169184916136e291614a08565b60006040518083038185875af1925050503d806000811461371f576040519150601f19603f3d011682016040523d82523d6000602084013e613724565b606091505b5050809150508061378f5760405162461bcd60e51b815260206004820152602f60248201527f756e61626c6520746f206465626974206e61746976652062616c616e6365207060448201526e3632b0b9b2903a393c9030b3b0b4b760891b606482015260840161060d565b6137a9565b6137a96001600160a01b038416868685613b2c565b5050505050565b60006004896040516137c29190614a08565b90815260408051918290036020908101832060c08401835260058101546001600160a01b0390811685526006820154811692850192909252600781015480831693850184905261ffff600160a01b918290048116606087015260089092015492831660808601529091041660a08301529091506000901580159061384e57506000826060015161ffff16115b156138955761389033836040015189612710866060015161ffff168d6138749190614f7f565b61387e9190615701565b6138889086614cb6565b9450846136ac565b6138ef565b6007546001600160a01b0316158015906138bb5750600754600160a01b900461ffff1615155b156138ef576007546138ef9033906001600160a01b038116908a906127109061387490600160a01b900461ffff168e614f7f565b60808201516001600160a01b031615801590613913575060008260a0015161ffff16115b15613980576127108260a0015161ffff168961392f9190614f7f565b6139399190615701565b6139439082614cb6565b9050613980338360800151898c6127108760a0015161ffff168e6139679190614f7f565b6139719190615701565b61397b9190614cb6565b6136ac565b61398a8189614cc9565b975061399b338787878c8c89613b8c565b97506139ad338360000151898b6136ac565b50505050505050505050565b60008181526001830160205260408120548015613aa25760006139dd600183614cc9565b85549091506000906139f190600190614cc9565b9050818114613a56576000866000018281548110613a1157613a11614af5565b9060005260206000200154905080876000018481548110613a3457613a34614af5565b6000918252602080832090910192909255918252600188019052604090208390555b8554869080613a6757613a67615723565b6001900381819060005260206000200160009055905585600101600086815260200190815260200160002060009055600193505050506105bd565b60009150506105bd565b5092915050565b6000826000018281548110613aca57613aca614af5565b9060005260206000200154905092915050565b6000818152600183016020526040812054613b24575081546001818101845560008481526020808220909301849055845484825282860190935260409020919091556105bd565b5060006105bd565b604080516001600160a01b0385811660248301528416604482015260648082018490528251808303909101815260849091019091526020810180516001600160e01b03166323b872dd60e01b179052613b86908590613d3e565b50505050565b60006001826001811115613ba257613ba2614544565b03613bbb57613bb48886898787613e15565b9050613d33565b6000826001811115613bcf57613bcf614544565b03613d33576040516301ffc9a760e01b81526001600160a01b038616906301ffc9a790613c0790636cdb3d1360e11b90600401614f0e565b602060405180830381865afa158015613c24573d6000803e3d6000fd5b505050506040513d601f19601f82011682018060405250810190613c489190614f23565b8015613cbd575060405163bd85b03960e01b8152600481018890526000906001600160a01b0387169063bd85b03990602401602060405180830381865afa158015613c97573d6000803e3d6000fd5b505050506040513d601f19601f82011682018060405250810190613cbb91906155d7565b115b15613ccf57613bb48886898787613e15565b8551613cdb9085615701565b93506000805b8751811015613d3057613d108a888a8481518110613d0157613d01614af5565b60200260200101518989613e15565b9150613d1c8284614cb6565b925080613d2881614b21565b915050613ce1565b50505b979650505050505050565b6000613d93826040518060400160405280602081526020017f5361666545524332303a206c6f772d6c6576656c2063616c6c206661696c6564815250856001600160a01b0316613fed9092919063ffffffff16565b805190915015613e105780806020019051810190613db19190614f23565b613e105760405162461bcd60e51b815260206004820152602a60248201527f5361666545524332303a204552433230206f7065726174696f6e20646964206e6044820152691bdd081cdd58d8d9595960b21b606482015260840161060d565b505050565b600954604051636e44a72f60e01b81526001600160a01b038681166004830152602482018690526000928592849283928392911690636e44a72f90604401600060405180830381865afa158015613e70573d6000803e3d6000fd5b505050506040513d6000823e601f3d908101601f19168201604052613e989190810190614bc8565b815191935091506000819003613eb5578795505050505050613fe4565b60005b81811015613fdb576000848281518110613ed457613ed4614af5565b602002602001015190506127108a858481518110613ef457613ef4614af5565b6020026020010151613f069190614f7f565b613f109190615701565b955085871015613f705760405162461bcd60e51b815260206004820152602560248201527f696e736f6c76656e743a20756e61626c6520746f20636f6d706c65746520726f60448201526479616c747960d81b606482015260840161060d565b613f7c8d828b896136ac565b604080516001600160a01b038e81168252602082018e90528316818301526060810188905290517f866e6ef8682ddf5f1025e64dfdb45527077f7be70fa9ef680b7ffd8cf4ab9c509181900360800190a1509484900394600101613eb8565b50939450505050505b95945050505050565b6060613ffc8484600085614004565b949350505050565b6060824710156140655760405162461bcd60e51b815260206004820152602660248201527f416464726573733a20696e73756666696369656e742062616c616e636520666f6044820152651c8818d85b1b60d21b606482015260840161060d565b843b6140b35760405162461bcd60e51b815260206004820152601d60248201527f416464726573733a2063616c6c20746f206e6f6e2d636f6e7472616374000000604482015260640161060d565b600080866001600160a01b031685876040516140cf9190614a08565b60006040518083038185875af1925050503d806000811461410c576040519150601f19603f3d011682016040523d82523d6000602084013e614111565b606091505b5091509150613d338282866060831561412b57508161218b565b82511561413b5782518084602001fd5b8160405162461bcd60e51b815260040161060d9190614aad565b50805460008255906000526020600020908101906108ac919061420d565b8280548282559060005260206000209081019282156141ae579160200282015b828111156141ae578235825591602001919060010190614193565b5061095992915061420d565b8280548282559060005260206000209081019282156141ae579160200282015b828111156141ae5781546001600160a01b0319166001600160a01b038435161782556020909201916001909101906141da565b5b80821115610959576000815560010161420e565b60006020828403121561423457600080fd5b81356001600160e01b03198116811461218b57600080fd5b6001600160401b03811681146108ac57600080fd5b803561426c8161424c565b919050565b60006020828403121561428357600080fd5b813561218b8161424c565b6001600160a01b03811681146108ac57600080fd5b803561426c8161428e565b6000602082840312156142c057600080fd5b813561218b8161428e565b634e487b7160e01b600052604160045260246000fd5b60405161010081016001600160401b0381118282101715614304576143046142cb565b60405290565b604051601f8201601f191681016001600160401b0381118282101715614332576143326142cb565b604052919050565b600082601f83011261434b57600080fd5b81356001600160401b03811115614364576143646142cb565b614377601f8201601f191660200161430a565b81815284602083860101111561438c57600080fd5b816020850160208301376000918101602001919091529392505050565b6000602082840312156143bb57600080fd5b81356001600160401b038111156143d157600080fd5b613ffc8482850161433a565b600081518084526020808501945080840160005b838110156144165781516001600160a01b0316875295820195908201906001016143f1565b509495945050505050565b60208152600061218b60208301846143dd565b6000806040838503121561444757600080fd5b82356144528161428e565b946020939093013593505050565b600081518084526020808501945080840160005b8381101561441657815187529582019590820190600101614474565b604080825283519082018190526000906020906060840190828701845b828110156144d25781516001600160a01b0316845292840192908401906001016144ad565b505050838103828501526144e68186614460565b9695505050505050565b60018060a01b03808251168352806020830151166020840152806040830151166040840152606082015161ffff80821660608601528260808501511660808601528060a08501511660a08601525050505050565b634e487b7160e01b600052602160045260246000fd5b600281106108ac57634e487b7160e01b600052602160045260246000fd5b6145818161455a565b9052565b6001600160a01b03891681526001600160401b0388811660208301528781166040830152606082018790526101a08201906145c360808401886144f0565b85166101408301526145d48461455a565b836101608301526145e48361455a565b826101808301529998505050505050505050565b6000806040838503121561460b57600080fd5b82356001600160401b038082111561462257600080fd5b90840190610100828703121561463757600080fd5b61463f6142e1565b82358281111561464e57600080fd5b61465a8882860161433a565b825250614669602084016142a3565b60208201526040830135604082015261468460608401614261565b6060820152614695608084016142a3565b60808201526146a660a08401614261565b60a08201526146b760c084016142a3565b60c082015260e0928301359281019290925250946020939093013593505050565b60208152600061218b6020830184614460565b60008083601f8401126146fd57600080fd5b5081356001600160401b0381111561471457600080fd5b60208301915083602082850101111561472c57600080fd5b9250929050565b60008060006040848603121561474857600080fd5b83356001600160401b0381111561475e57600080fd5b61476a868287016146eb565b909450925050602084013561477e8161428e565b809150509250925092565b61ffff811681146108ac57600080fd5b6000602082840312156147ab57600080fd5b813561218b81614789565b600080602083850312156147c957600080fd5b82356001600160401b038111156147df57600080fd5b6147eb858286016146eb565b90969095509350505050565b60408152600061480a6040830185614460565b8281036020840152613fe481856143dd565b600281106108ac57600080fd5b803561426c8161481c565b60008083601f84011261484657600080fd5b5081356001600160401b0381111561485d57600080fd5b6020830191508360208260051b850101111561472c57600080fd5b60008060008060008060008060a0898b03121561489457600080fd5b88356001600160401b03808211156148ab57600080fd5b6148b78c838d016146eb565b909a50985060208b013591506148cc8261481c565b90965060408a0135955060608a013590808211156148e957600080fd5b6148f58c838d01614834565b909650945060808b013591508082111561490e57600080fd5b5061491b8b828c01614834565b999c989b5096995094979396929594505050565b60008060006040848603121561494457600080fd5b83356001600160401b038082111561495b57600080fd5b908501906101e0828803121561497057600080fd5b9093506020850135908082111561498657600080fd5b50614993868287016146eb565b9497909650939450505050565b60208082526024908201527f41646d696e436f6e74726f6c3a204d757374206265206f776e6572206f7220616040820152633236b4b760e11b606082015260800190565b60005b838110156149ff5781810151838201526020016149e7565b50506000910152565b60008251614a1a8184602087016149e4565b9190910192915050565b60208082526037908201527f7468652073616c65496420796f75206861766520656e7465726564206973206960408201527f6e76616c69642e20506c656173652076616c6964617465000000000000000000606082015260800190565b60008151808452614a998160208601602086016149e4565b601f01601f19169290920160200192915050565b60208152600061218b6020830184614a81565b6020808252818101527f4f776e61626c653a2063616c6c6572206973206e6f7420746865206f776e6572604082015260600190565b634e487b7160e01b600052603260045260246000fd5b634e487b7160e01b600052601160045260246000fd5b600060018201614b3357614b33614b0b565b5060010190565b60006001600160401b03821115614b5357614b536142cb565b5060051b60200190565b600082601f830112614b6e57600080fd5b81516020614b83614b7e83614b3a565b61430a565b82815260059290921b84018101918181019086841115614ba257600080fd5b8286015b84811015614bbd5780518352918301918301614ba6565b509695505050505050565b60008060408385031215614bdb57600080fd5b82516001600160401b0380821115614bf257600080fd5b818501915085601f830112614c0657600080fd5b81516020614c16614b7e83614b3a565b82815260059290921b84018101918181019089841115614c3557600080fd5b948201945b83861015614c5c578551614c4d8161428e565b82529482019490820190614c3a565b91880151919650909350505080821115614c7557600080fd5b50614c8285828601614b5d565b9150509250929050565b60208082526010908201526f756e737570706f727465642073616c6560801b604082015260600190565b808201808211156105bd576105bd614b0b565b818103818111156105bd576105bd614b0b565b600061016080835288516101008083860152614cfc610260860183614a81565b60208c01516001600160a01b031661018087015260408c01516101a087015260608c01516001600160401b03166101c087015260808c01519093509150614d4f6101e08601836001600160a01b03169052565b60a08b01516001600160401b031661020086015260c08b01516001600160a01b03811661022087015260e08c015161024087015285840360208701529150614d97838b614460565b9350614da6604086018a6144f0565b840196909652506101208201939093526101400152949350505050565b8183823760009101908152919050565b60208082526038908201527f73686f756c64206e6f74206265207a65726f2061646472657373206f7220707260408201527f6576696f757320736574746c656d656e74206164726573730000000000000000606082015260800190565b60208082526038908201527f73686f756c642070726f7669646520657175616c206c656e67746820696e207060408201527f7269636520616e64207061796d656e7420616464726573730000000000000000606082015260800190565b61ffff818116838216019080821115613aac57613aac614b0b565b6000808335601e19843603018112614ebf57600080fd5b8301803591506001600160401b03821115614ed957600080fd5b6020019150600581901b360382131561472c57600080fd5b600060208284031215614f0357600080fd5b813561218b8161481c565b6001600160e01b031991909116815260200190565b600060208284031215614f3557600080fd5b8151801515811461218b57600080fd5b600081356105bd8161428e565b80546001600160a01b0319166001600160a01b0392909216919091179055565b600081356105bd8161424c565b80820281158282048414176105bd576105bd614b0b565b81831015613e10576000818152602081208481019084015b80821015614fc457828255600182019150614fae565b505050505050565b6001600160401b03831115614fe357614fe36142cb565b600160401b831115614ff757614ff76142cb565b8054838255615007848284614f96565b50818160005260208060002060005b868110156150305783358282015592820192600101615016565b50505050505050565b6001600160401b03831115615050576150506142cb565b600160401b831115615064576150646142cb565b8054838255615074848284614f96565b50818160005260208060002060005b868110156150305783356150968161428e565b8282015592820192600101615083565b805461ffff60a01b191660a09290921b61ffff60a01b16919091179055565b81356150d08161428e565b6150da8183614f52565b5060208201356150e98161428e565b6150f68160018401614f52565b506002810160408301356151098161428e565b6151138183614f52565b50606083013561512281614789565b61512c81836150a6565b50506003810160808301356151408161428e565b61514a8183614f52565b5060a083013561515981614789565b613b8681836150a6565b600081356105bd8161481c565b6151798261455a565b805460ff60401b8360401b1660ff60401b198216178255505050565b61519e8261455a565b805460ff60481b8360481b1660ff60481b198216178255505050565b6151cc6151c683614f45565b82614f52565b6152076151db60208401614f72565b82805467ffffffffffffffff60a01b191660a09290921b67ffffffffffffffff60a01b16919091179055565b61523761521660408401614f72565b600183016001600160401b0382166001600160401b03198254161781555050565b6060820135600282015561524e6080830183614ea8565b61525c818360038601614fcc565b505061526b60a0830183614ea8565b615279818360048601615039565b505061528b60c08301600583016150c5565b600981016152bd61529f6101808501614f72565b825467ffffffffffffffff19166001600160401b0391909116178255565b6152d36152cd6101a08501615163565b82615170565b613e106152e36101c08501615163565b82615195565b6000808335601e1984360301811261530057600080fd5b83016020810192503590506001600160401b0381111561531f57600080fd5b8060051b360382131561472c57600080fd5b81835260006001600160fb1b0383111561534a57600080fd5b8260051b80836020870137939093016020019392505050565b8183526000602080850194508260005b858110156144165781356153868161428e565b6001600160a01b031687529582019590820190600101615373565b80356153ac8161428e565b6001600160a01b0390811683526020820135906153c88261428e565b90811660208401526040820135906153df8261428e565b90811660408401526060820135906153f682614789565b61ffff91821660608501526080830135916154108361428e565b918116608085015260a08301359161542783614789565b80831660a08601525050505050565b602081526154576020820161544a846142a3565b6001600160a01b03169052565b600061546560208401614261565b6001600160401b03811660408401525061548160408401614261565b6001600160401b038116606084015250606083013560808301526154a860808401846152e9565b6101e08060a08601526154c061020086018385615331565b92506154cf60a08701876152e9565b868503601f190160c088015292506154e8848483615363565b9350506154fb60e0860160c088016153a1565b6155086101808701614261565b91506101a0615521818701846001600160401b03169052565b61552c818801614829565b9250506101c061553e81870184614578565b615549818801614829565b92505061555881860183614578565b5090949350505050565b6020808252604f908201527f54686973206973206e6f7420612076616c696420746f6b656e49642e20506c6560408201527f6173652076657269667920746861742074686520746f6b656e49642070726f7660608201526e1a591959081a5cc818dbdc9c9958dd608a1b608082015260a00190565b6000602082840312156155e957600080fd5b5051919050565b60006020828403121561560257600080fd5b815161218b8161428e565b60006020828403121561561f57600080fd5b81516001600160401b0381111561563557600080fd5b613ffc84828501614b5d565b60608152600061565460608301866143dd565b6020838203818501526156678287614460565b915083820360408501528185518084528284019150828160051b85010183880160005b838110156156b857601f198784030185526156a6838351614a81565b9486019492509085019060010161568a565b50909a9950505050505050505050565b6060815260006156db60608301866143dd565b82810360208401526156ed8186614460565b905082810360408401526144e68185614460565b60008261571e57634e487b7160e01b600052601260045260246000fd5b500490565b634e487b7160e01b600052603160045260246000fdfea2646970667358221220d92e2e7834791ea5d6f4730efd4f5c0da3b045813df5bb9536faeaf268c434e064736f6c63430008110033","opcodes":"PUSH1 0x80 PUSH1 0x40 MSTORE CALLVALUE DUP1 ISZERO PUSH3 0x11 JUMPI PUSH1 0x0 DUP1 REVERT JUMPDEST POP PUSH1 0x40 MLOAD PUSH3 0x59DA CODESIZE SUB DUP1 PUSH3 0x59DA DUP4 CODECOPY DUP2 ADD PUSH1 0x40 DUP2 SWAP1 MSTORE PUSH3 0x34 SWAP2 PUSH3 0x1CA JUMP JUMPDEST PUSH1 0x1 PUSH1 0x0 DUP2 DUP2 SSTORE DUP2 SLOAD PUSH1 0x1 PUSH1 0x1 PUSH1 0xA0 SHL SUB NOT AND CALLER SWAP1 DUP2 OR SWAP1 SWAP3 SSTORE PUSH1 0x40 MLOAD DUP3 SWAP2 SWAP1 PUSH32 0x8BE0079C531659141344CD1FD0A4F28419497F9722A3DAAFE3B4186F6B6457E0 SWAP1 DUP3 SWAP1 LOG3 POP PUSH1 0x1 PUSH1 0x1 PUSH1 0xA0 SHL SUB DUP6 AND PUSH3 0xD6 JUMPI PUSH1 0x40 MLOAD PUSH3 0x461BCD PUSH1 0xE5 SHL DUP2 MSTORE PUSH1 0x20 PUSH1 0x4 DUP3 ADD MSTORE PUSH1 0x18 PUSH1 0x24 DUP3 ADD MSTORE PUSH32 0x496E76616C696420506C6174666F726D20416464726573730000000000000000 PUSH1 0x44 DUP3 ADD MSTORE PUSH1 0x64 ADD JUMPDEST PUSH1 0x40 MLOAD DUP1 SWAP2 SUB SWAP1 REVERT JUMPDEST PUSH2 0x2710 DUP5 PUSH2 0xFFFF AND LT PUSH3 0x13B JUMPI PUSH1 0x40 MLOAD PUSH3 0x461BCD PUSH1 0xE5 SHL DUP2 MSTORE PUSH1 0x20 PUSH1 0x4 DUP3 ADD MSTORE PUSH1 0x25 PUSH1 0x24 DUP3 ADD MSTORE PUSH32 0x706C6174666F726D4665652073686F756C64206265206C657373207468616E20 PUSH1 0x44 DUP3 ADD MSTORE PUSH5 0x313030303 PUSH1 0xDC SHL PUSH1 0x64 DUP3 ADD MSTORE PUSH1 0x84 ADD PUSH3 0xCD JUMP JUMPDEST PUSH1 0x7 DUP1 SLOAD PUSH2 0xFFFF SWAP1 SWAP6 AND PUSH1 0x1 PUSH1 0xA0 SHL SWAP1 DUP2 MUL PUSH1 0x1 PUSH1 0x1 PUSH1 0xB0 SHL SUB NOT SWAP1 SWAP7 AND PUSH1 0x1 PUSH1 0x1 PUSH1 0xA0 SHL SUB SWAP8 DUP9 AND OR SWAP6 SWAP1 SWAP6 OR SWAP1 SSTORE PUSH1 0x9 DUP1 SLOAD PUSH1 0x8 DUP1 SLOAD SWAP5 DUP9 AND PUSH1 0x1 PUSH1 0x1 PUSH1 0xA0 SHL SUB NOT SWAP6 DUP7 AND OR SWAP1 SSTORE SWAP2 SWAP1 SWAP6 AND PUSH1 0x1 PUSH1 0x1 PUSH1 0x40 SHL SUB SWAP1 SWAP4 AND SWAP1 SWAP4 MUL AND PUSH1 0x1 PUSH1 0x1 PUSH1 0xE0 SHL SUB NOT SWAP1 SWAP3 AND SWAP2 SWAP1 SWAP2 OR OR SWAP1 SSTORE PUSH3 0x25B JUMP JUMPDEST PUSH1 0x1 PUSH1 0x1 PUSH1 0xA0 SHL SUB DUP2 AND DUP2 EQ PUSH3 0x1C7 JUMPI PUSH1 0x0 DUP1 REVERT JUMPDEST POP JUMP JUMPDEST PUSH1 0x0 DUP1 PUSH1 0x0 DUP1 PUSH1 0x0 PUSH1 0xA0 DUP7 DUP9 SUB SLT ISZERO PUSH3 0x1E3 JUMPI PUSH1 0x0 DUP1 REVERT JUMPDEST DUP6 MLOAD PUSH3 0x1F0 DUP2 PUSH3 0x1B1 JUMP JUMPDEST PUSH1 0x20 DUP8 ADD MLOAD SWAP1 SWAP6 POP PUSH2 0xFFFF DUP2 AND DUP2 EQ PUSH3 0x209 JUMPI PUSH1 0x0 DUP1 REVERT JUMPDEST PUSH1 0x40 DUP8 ADD MLOAD SWAP1 SWAP5 POP PUSH1 0x1 PUSH1 0x1 PUSH1 0x40 SHL SUB DUP2 AND DUP2 EQ PUSH3 0x227 JUMPI PUSH1 0x0 DUP1 REVERT JUMPDEST PUSH1 0x60 DUP8 ADD MLOAD SWAP1 SWAP4 POP PUSH3 0x23A DUP2 PUSH3 0x1B1 JUMP JUMPDEST PUSH1 0x80 DUP8 ADD MLOAD SWAP1 SWAP3 POP PUSH3 0x24D DUP2 PUSH3 0x1B1 JUMP JUMPDEST DUP1 SWAP2 POP POP SWAP3 SWAP6 POP SWAP3 SWAP6 SWAP1 SWAP4 POP JUMP JUMPDEST PUSH2 0x576F DUP1 PUSH3 0x26B PUSH1 0x0 CODECOPY PUSH1 0x0 RETURN INVALID PUSH1 0x80 PUSH1 0x40 MSTORE PUSH1 0x4 CALLDATASIZE LT PUSH2 0x143 JUMPI PUSH1 0x0 CALLDATALOAD PUSH1 0xE0 SHR DUP1 PUSH4 0x77DEC6C3 GT PUSH2 0xB0 JUMPI DUP1 PUSH4 0xCBC9A941 GT PUSH2 0x6C JUMPI DUP1 PUSH4 0xCBC9A941 EQ PUSH2 0x4BE JUMPI DUP1 PUSH4 0xDF354BDD EQ PUSH2 0x4DE JUMPI DUP1 PUSH4 0xDFA12F79 EQ PUSH2 0x50C JUMPI DUP1 PUSH4 0xE8AC841F EQ PUSH2 0x52C JUMPI DUP1 PUSH4 0xF2FDE38B EQ PUSH2 0x54C JUMPI DUP1 PUSH4 0xFD114F08 EQ PUSH2 0x56C JUMPI STOP JUMPDEST DUP1 PUSH4 0x77DEC6C3 EQ PUSH2 0x2DB JUMPI DUP1 PUSH4 0x8DA5CB5B EQ PUSH2 0x3D1 JUMPI DUP1 PUSH4 0x8F9F193F EQ PUSH2 0x3F9 JUMPI DUP1 PUSH4 0xA68B91AB EQ PUSH2 0x419 JUMPI DUP1 PUSH4 0xACECF9DE EQ PUSH2 0x47E JUMPI DUP1 PUSH4 0xBF9AFC18 EQ PUSH2 0x49E JUMPI STOP JUMPDEST DUP1 PUSH4 0x3CCFD60B GT PUSH2 0xFF JUMPI DUP1 PUSH4 0x3CCFD60B EQ PUSH2 0x223 JUMPI DUP1 PUSH4 0x4B9804B2 EQ PUSH2 0x238 JUMPI DUP1 PUSH4 0x6D73E669 EQ PUSH2 0x258 JUMPI DUP1 PUSH4 0x705E3F6C EQ PUSH2 0x278 JUMPI DUP1 PUSH4 0x715018A6 EQ PUSH2 0x298 JUMPI DUP1 PUSH4 0x773FE986 EQ PUSH2 0x2AD JUMPI STOP JUMPDEST DUP1 PUSH4 0x1FFC9A7 EQ PUSH2 0x14C JUMPI DUP1 PUSH4 0x19E4367C EQ PUSH2 0x181 JUMPI DUP1 PUSH4 0x24D7806C EQ PUSH2 0x1A1 JUMPI DUP1 PUSH4 0x2977F78A EQ PUSH2 0x1C1 JUMPI DUP1 PUSH4 0x2D345670 EQ PUSH2 0x1E1 JUMPI DUP1 PUSH4 0x31AE450B EQ PUSH2 0x201 JUMPI STOP JUMPDEST CALLDATASIZE PUSH2 0x14A JUMPI STOP JUMPDEST STOP JUMPDEST CALLVALUE DUP1 ISZERO PUSH2 0x158 JUMPI PUSH1 0x0 DUP1 REVERT JUMPDEST POP PUSH2 0x16C PUSH2 0x167 CALLDATASIZE PUSH1 0x4 PUSH2 0x4222 JUMP JUMPDEST PUSH2 0x58C JUMP JUMPDEST PUSH1 0x40 MLOAD SWAP1 ISZERO ISZERO DUP2 MSTORE PUSH1 0x20 ADD JUMPDEST PUSH1 0x40 MLOAD DUP1 SWAP2 SUB SWAP1 RETURN JUMPDEST CALLVALUE DUP1 ISZERO PUSH2 0x18D JUMPI PUSH1 0x0 DUP1 REVERT JUMPDEST POP PUSH2 0x14A PUSH2 0x19C CALLDATASIZE PUSH1 0x4 PUSH2 0x4271 JUMP JUMPDEST PUSH2 0x5C3 JUMP JUMPDEST CALLVALUE DUP1 ISZERO PUSH2 0x1AD JUMPI PUSH1 0x0 DUP1 REVERT JUMPDEST POP PUSH2 0x16C PUSH2 0x1BC CALLDATASIZE PUSH1 0x4 PUSH2 0x42AE JUMP JUMPDEST PUSH2 0x679 JUMP JUMPDEST CALLVALUE DUP1 ISZERO PUSH2 0x1CD JUMPI PUSH1 0x0 DUP1 REVERT JUMPDEST POP PUSH2 0x14A PUSH2 0x1DC CALLDATASIZE PUSH1 0x4 PUSH2 0x43A9 JUMP JUMPDEST PUSH2 0x6B2 JUMP JUMPDEST CALLVALUE DUP1 ISZERO PUSH2 0x1ED JUMPI PUSH1 0x0 DUP1 REVERT JUMPDEST POP PUSH2 0x14A PUSH2 0x1FC CALLDATASIZE PUSH1 0x4 PUSH2 0x42AE JUMP JUMPDEST PUSH2 0x82F JUMP JUMPDEST CALLVALUE DUP1 ISZERO PUSH2 0x20D JUMPI PUSH1 0x0 DUP1 REVERT JUMPDEST POP PUSH2 0x216 PUSH2 0x8AF JUMP JUMPDEST PUSH1 0x40 MLOAD PUSH2 0x178 SWAP2 SWAP1 PUSH2 0x4421 JUMP JUMPDEST CALLVALUE DUP1 ISZERO PUSH2 0x22F JUMPI PUSH1 0x0 DUP1 REVERT JUMPDEST POP PUSH2 0x14A PUSH2 0x95D JUMP JUMPDEST CALLVALUE DUP1 ISZERO PUSH2 0x244 JUMPI PUSH1 0x0 DUP1 REVERT JUMPDEST POP PUSH2 0x14A PUSH2 0x253 CALLDATASIZE PUSH1 0x4 PUSH2 0x42AE JUMP JUMPDEST PUSH2 0xA72 JUMP JUMPDEST CALLVALUE DUP1 ISZERO PUSH2 0x264 JUMPI PUSH1 0x0 DUP1 REVERT JUMPDEST POP PUSH2 0x14A PUSH2 0x273 CALLDATASIZE PUSH1 0x4 PUSH2 0x42AE JUMP JUMPDEST PUSH2 0xB48 JUMP JUMPDEST CALLVALUE DUP1 ISZERO PUSH2 0x284 JUMPI PUSH1 0x0 DUP1 REVERT JUMPDEST POP PUSH2 0x14A PUSH2 0x293 CALLDATASIZE PUSH1 0x4 PUSH2 0x42AE JUMP JUMPDEST PUSH2 0xBC2 JUMP JUMPDEST CALLVALUE DUP1 ISZERO PUSH2 0x2A4 JUMPI PUSH1 0x0 DUP1 REVERT JUMPDEST POP PUSH2 0x14A PUSH2 0xC9A JUMP JUMPDEST CALLVALUE DUP1 ISZERO PUSH2 0x2B9 JUMPI PUSH1 0x0 DUP1 REVERT JUMPDEST POP PUSH2 0x2CD PUSH2 0x2C8 CALLDATASIZE PUSH1 0x4 PUSH2 0x4434 JUMP JUMPDEST PUSH2 0xD0E JUMP JUMPDEST PUSH1 0x40 MLOAD PUSH2 0x178 SWAP3 SWAP2 SWAP1 PUSH2 0x4490 JUMP JUMPDEST CALLVALUE DUP1 ISZERO PUSH2 0x2E7 JUMPI PUSH1 0x0 DUP1 REVERT JUMPDEST POP PUSH2 0x3BD PUSH2 0x2F6 CALLDATASIZE PUSH1 0x4 PUSH2 0x43A9 JUMP JUMPDEST DUP1 MLOAD DUP1 DUP3 ADD PUSH1 0x20 SWAP1 DUP2 ADD DUP1 MLOAD PUSH1 0x4 DUP3 MSTORE SWAP3 DUP3 ADD SWAP4 DUP3 ADD SWAP4 SWAP1 SWAP4 KECCAK256 SWAP2 SWAP1 SWAP3 MSTORE DUP1 SLOAD PUSH1 0x1 DUP3 ADD SLOAD PUSH1 0x2 DUP4 ADD SLOAD PUSH1 0x40 DUP1 MLOAD PUSH1 0xC0 DUP2 ADD DUP3 MSTORE PUSH1 0x5 DUP7 ADD SLOAD PUSH1 0x1 PUSH1 0x1 PUSH1 0xA0 SHL SUB SWAP1 DUP2 AND DUP3 MSTORE PUSH1 0x6 DUP8 ADD SLOAD DUP2 AND SWAP8 DUP3 ADD SWAP8 SWAP1 SWAP8 MSTORE PUSH1 0x7 DUP7 ADD SLOAD DUP1 DUP9 AND SWAP3 DUP3 ADD SWAP3 SWAP1 SWAP3 MSTORE PUSH2 0xFFFF PUSH1 0x1 PUSH1 0xA0 SHL SWAP3 DUP4 SWAP1 DIV DUP2 AND PUSH1 0x60 DUP4 ADD MSTORE PUSH1 0x8 DUP8 ADD SLOAD DUP1 DUP10 AND PUSH1 0x80 DUP5 ADD MSTORE DUP4 SWAP1 DIV AND PUSH1 0xA0 DUP3 ADD MSTORE PUSH1 0x9 SWAP1 SWAP6 ADD SLOAD SWAP6 DUP5 AND SWAP6 PUSH1 0x1 PUSH1 0x1 PUSH1 0x40 SHL SUB SWAP2 SWAP1 SWAP5 DIV DUP2 AND SWAP5 SWAP3 DUP2 AND SWAP4 SWAP2 SWAP3 SWAP2 SWAP1 DUP2 AND SWAP1 PUSH1 0xFF PUSH1 0x1 PUSH1 0x40 SHL DUP3 DIV DUP2 AND SWAP2 PUSH1 0x1 PUSH1 0x48 SHL SWAP1 DIV AND DUP9 JUMP JUMPDEST PUSH1 0x40 MLOAD PUSH2 0x178 SWAP9 SWAP8 SWAP7 SWAP6 SWAP5 SWAP4 SWAP3 SWAP2 SWAP1 PUSH2 0x4585 JUMP JUMPDEST CALLVALUE DUP1 ISZERO PUSH2 0x3DD JUMPI PUSH1 0x0 DUP1 REVERT JUMPDEST POP PUSH1 0x1 SLOAD PUSH1 0x40 MLOAD PUSH1 0x1 PUSH1 0x1 PUSH1 0xA0 SHL SUB SWAP1 SWAP2 AND DUP2 MSTORE PUSH1 0x20 ADD PUSH2 0x178 JUMP JUMPDEST CALLVALUE DUP1 ISZERO PUSH2 0x405 JUMPI PUSH1 0x0 DUP1 REVERT JUMPDEST POP PUSH2 0x14A PUSH2 0x414 CALLDATASIZE PUSH1 0x4 PUSH2 0x42AE JUMP JUMPDEST PUSH2 0xD96 JUMP JUMPDEST CALLVALUE DUP1 ISZERO PUSH2 0x425 JUMPI PUSH1 0x0 DUP1 REVERT JUMPDEST POP PUSH1 0x7 SLOAD PUSH1 0x8 SLOAD PUSH1 0x9 SLOAD PUSH1 0x40 DUP1 MLOAD PUSH1 0x1 PUSH1 0x1 PUSH1 0xA0 SHL SUB DUP1 DUP7 AND DUP3 MSTORE PUSH1 0x1 PUSH1 0xA0 SHL SWAP6 DUP7 SWAP1 DIV PUSH2 0xFFFF AND PUSH1 0x20 DUP4 ADD MSTORE SWAP4 DUP5 AND SWAP2 DUP2 ADD SWAP2 SWAP1 SWAP2 MSTORE SWAP2 DUP2 AND PUSH1 0x60 DUP4 ADD MSTORE SWAP2 SWAP1 SWAP2 DIV PUSH1 0x1 PUSH1 0x1 PUSH1 0x40 SHL SUB AND PUSH1 0x80 DUP3 ADD MSTORE PUSH1 0xA0 ADD PUSH2 0x178 JUMP JUMPDEST PUSH2 0x491 PUSH2 0x48C CALLDATASIZE PUSH1 0x4 PUSH2 0x45F8 JUMP JUMPDEST PUSH2 0xE58 JUMP JUMPDEST PUSH1 0x40 MLOAD PUSH2 0x178 SWAP2 SWAP1 PUSH2 0x46D8 JUMP JUMPDEST CALLVALUE DUP1 ISZERO PUSH2 0x4AA JUMPI PUSH1 0x0 DUP1 REVERT JUMPDEST POP PUSH2 0x14A PUSH2 0x4B9 CALLDATASIZE PUSH1 0x4 PUSH2 0x4733 JUMP JUMPDEST PUSH2 0x136C JUMP JUMPDEST CALLVALUE DUP1 ISZERO PUSH2 0x4CA JUMPI PUSH1 0x0 DUP1 REVERT JUMPDEST POP PUSH2 0x14A PUSH2 0x4D9 CALLDATASIZE PUSH1 0x4 PUSH2 0x4799 JUMP JUMPDEST PUSH2 0x1467 JUMP JUMPDEST CALLVALUE DUP1 ISZERO PUSH2 0x4EA JUMPI PUSH1 0x0 DUP1 REVERT JUMPDEST POP PUSH2 0x4FE PUSH2 0x4F9 CALLDATASIZE PUSH1 0x4 PUSH2 0x47B6 JUMP JUMPDEST PUSH2 0x153A JUMP JUMPDEST PUSH1 0x40 MLOAD PUSH2 0x178 SWAP3 SWAP2 SWAP1 PUSH2 0x47F7 JUMP JUMPDEST CALLVALUE DUP1 ISZERO PUSH2 0x518 JUMPI PUSH1 0x0 DUP1 REVERT JUMPDEST POP PUSH2 0x14A PUSH2 0x527 CALLDATASIZE PUSH1 0x4 PUSH2 0x4878 JUMP JUMPDEST PUSH2 0x162A JUMP JUMPDEST CALLVALUE DUP1 ISZERO PUSH2 0x538 JUMPI PUSH1 0x0 DUP1 REVERT JUMPDEST POP PUSH2 0x14A PUSH2 0x547 CALLDATASIZE PUSH1 0x4 PUSH2 0x4733 JUMP JUMPDEST PUSH2 0x17BA JUMP JUMPDEST CALLVALUE DUP1 ISZERO PUSH2 0x558 JUMPI PUSH1 0x0 DUP1 REVERT JUMPDEST POP PUSH2 0x14A PUSH2 0x567 CALLDATASIZE PUSH1 0x4 PUSH2 0x42AE JUMP JUMPDEST PUSH2 0x18B5 JUMP JUMPDEST CALLVALUE DUP1 ISZERO PUSH2 0x578 JUMPI PUSH1 0x0 DUP1 REVERT JUMPDEST POP PUSH2 0x14A PUSH2 0x587 CALLDATASIZE PUSH1 0x4 PUSH2 0x492F JUMP JUMPDEST PUSH2 0x19A0 JUMP JUMPDEST PUSH1 0x0 PUSH1 0x1 PUSH1 0x1 PUSH1 0xE0 SHL SUB NOT DUP3 AND PUSH4 0x2A9F3ABF PUSH1 0xE1 SHL EQ DUP1 PUSH2 0x5BD JUMPI POP PUSH4 0x1FFC9A7 PUSH1 0xE0 SHL PUSH1 0x1 PUSH1 0x1 PUSH1 0xE0 SHL SUB NOT DUP4 AND EQ JUMPDEST SWAP3 SWAP2 POP POP JUMP JUMPDEST CALLER PUSH2 0x5D6 PUSH1 0x1 SLOAD PUSH1 0x1 PUSH1 0x1 PUSH1 0xA0 SHL SUB AND SWAP1 JUMP JUMPDEST PUSH1 0x1 PUSH1 0x1 PUSH1 0xA0 SHL SUB AND EQ DUP1 PUSH2 0x5F1 JUMPI POP PUSH2 0x5F1 PUSH1 0x2 CALLER PUSH2 0x216D JUMP JUMPDEST PUSH2 0x616 JUMPI PUSH1 0x40 MLOAD PUSH3 0x461BCD PUSH1 0xE5 SHL DUP2 MSTORE PUSH1 0x4 ADD PUSH2 0x60D SWAP1 PUSH2 0x49A0 JUMP JUMPDEST PUSH1 0x40 MLOAD DUP1 SWAP2 SUB SWAP1 REVERT JUMPDEST PUSH1 0x1 PUSH1 0x1 PUSH1 0x40 SHL SUB DUP2 AND ISZERO DUP1 ISZERO SWAP1 PUSH2 0x643 JUMPI POP PUSH1 0x9 SLOAD PUSH1 0x1 PUSH1 0x1 PUSH1 0x40 SHL SUB DUP3 DUP2 AND PUSH1 0x1 PUSH1 0xA0 SHL SWAP1 SWAP3 DIV AND EQ ISZERO JUMPDEST PUSH2 0x64C JUMPI PUSH1 0x0 DUP1 REVERT JUMPDEST PUSH1 0x9 DUP1 SLOAD PUSH1 0x1 PUSH1 0x1 PUSH1 0x40 SHL SUB SWAP1 SWAP3 AND PUSH1 0x1 PUSH1 0xA0 SHL MUL PUSH8 0xFFFFFFFFFFFFFFFF PUSH1 0xA0 SHL NOT SWAP1 SWAP3 AND SWAP2 SWAP1 SWAP2 OR SWAP1 SSTORE JUMP JUMPDEST PUSH1 0x0 DUP2 PUSH1 0x1 PUSH1 0x1 PUSH1 0xA0 SHL SUB AND PUSH2 0x697 PUSH1 0x1 SLOAD PUSH1 0x1 PUSH1 0x1 PUSH1 0xA0 SHL SUB AND SWAP1 JUMP JUMPDEST PUSH1 0x1 PUSH1 0x1 PUSH1 0xA0 SHL SUB AND EQ DUP1 PUSH2 0x5BD JUMPI POP PUSH2 0x5BD PUSH1 0x2 DUP4 PUSH2 0x216D JUMP JUMPDEST CALLER PUSH2 0x6C5 PUSH1 0x1 SLOAD PUSH1 0x1 PUSH1 0x1 PUSH1 0xA0 SHL SUB AND SWAP1 JUMP JUMPDEST PUSH1 0x1 PUSH1 0x1 PUSH1 0xA0 SHL SUB AND EQ DUP1 PUSH2 0x6E0 JUMPI POP PUSH2 0x6E0 PUSH1 0x2 CALLER PUSH2 0x216D JUMP JUMPDEST PUSH2 0x6FC JUMPI PUSH1 0x40 MLOAD PUSH3 0x461BCD PUSH1 0xE5 SHL DUP2 MSTORE PUSH1 0x4 ADD PUSH2 0x60D SWAP1 PUSH2 0x49A0 JUMP JUMPDEST PUSH1 0x6 DUP2 PUSH1 0x40 MLOAD PUSH2 0x70C SWAP2 SWAP1 PUSH2 0x4A08 JUMP JUMPDEST SWAP1 DUP2 MSTORE PUSH1 0x40 MLOAD SWAP1 DUP2 SWAP1 SUB PUSH1 0x20 ADD SWAP1 KECCAK256 SLOAD PUSH1 0xFF AND PUSH2 0x73B JUMPI PUSH1 0x40 MLOAD PUSH3 0x461BCD PUSH1 0xE5 SHL DUP2 MSTORE PUSH1 0x4 ADD PUSH2 0x60D SWAP1 PUSH2 0x4A24 JUMP JUMPDEST PUSH1 0x4 DUP2 PUSH1 0x40 MLOAD PUSH2 0x74B SWAP2 SWAP1 PUSH2 0x4A08 JUMP JUMPDEST SWAP1 DUP2 MSTORE PUSH1 0x40 MLOAD SWAP1 DUP2 SWAP1 SUB PUSH1 0x20 ADD SWAP1 KECCAK256 DUP1 SLOAD PUSH1 0x1 PUSH1 0x1 PUSH1 0xE0 SHL SUB NOT AND DUP2 SSTORE PUSH1 0x1 DUP2 ADD DUP1 SLOAD PUSH8 0xFFFFFFFFFFFFFFFF NOT AND SWAP1 SSTORE PUSH1 0x0 PUSH1 0x2 DUP3 ADD DUP2 SWAP1 SSTORE PUSH2 0x791 PUSH1 0x3 DUP4 ADD DUP3 PUSH2 0x4155 JUMP JUMPDEST PUSH2 0x79F PUSH1 0x4 DUP4 ADD PUSH1 0x0 PUSH2 0x4155 JUMP JUMPDEST POP PUSH1 0x5 DUP2 ADD DUP1 SLOAD PUSH1 0x1 PUSH1 0x1 PUSH1 0xA0 SHL SUB NOT SWAP1 DUP2 AND SWAP1 SWAP2 SSTORE PUSH1 0x6 DUP3 ADD DUP1 SLOAD SWAP1 SWAP2 AND SWAP1 SSTORE PUSH1 0x7 DUP2 ADD DUP1 SLOAD PUSH1 0x1 PUSH1 0x1 PUSH1 0xB0 SHL SUB NOT SWAP1 DUP2 AND SWAP1 SWAP2 SSTORE PUSH1 0x8 DUP3 ADD DUP1 SLOAD SWAP1 SWAP2 AND SWAP1 SSTORE PUSH1 0x9 ADD DUP1 SLOAD PUSH10 0xFFFFFFFFFFFFFFFFFFFF NOT AND SWAP1 SSTORE PUSH1 0x40 MLOAD PUSH32 0x9FCED985FF97F7DAC8F320B7D834E3862AE0274970FFE3DC0D84DE5A4538995 SWAP1 PUSH2 0x824 SWAP1 DUP4 SWAP1 PUSH2 0x4AAD JUMP JUMPDEST PUSH1 0x40 MLOAD DUP1 SWAP2 SUB SWAP1 LOG1 POP JUMP JUMPDEST PUSH1 0x1 SLOAD PUSH1 0x1 PUSH1 0x1 PUSH1 0xA0 SHL SUB AND CALLER EQ PUSH2 0x859 JUMPI PUSH1 0x40 MLOAD PUSH3 0x461BCD PUSH1 0xE5 SHL DUP2 MSTORE PUSH1 0x4 ADD PUSH2 0x60D SWAP1 PUSH2 0x4AC0 JUMP JUMPDEST PUSH2 0x864 PUSH1 0x2 DUP3 PUSH2 0x216D JUMP JUMPDEST ISZERO PUSH2 0x8AC JUMPI PUSH1 0x40 MLOAD CALLER SWAP1 PUSH1 0x1 PUSH1 0x1 PUSH1 0xA0 SHL SUB DUP4 AND SWAP1 PUSH32 0x7C0C3C84C67C85FCAC635147348BFE374C24A1A93D0366D1CFE9D8853CBF89D5 SWAP1 PUSH1 0x0 SWAP1 LOG3 PUSH2 0x8AA PUSH1 0x2 DUP3 PUSH2 0x2192 JUMP JUMPDEST POP JUMPDEST POP JUMP JUMPDEST PUSH1 0x60 PUSH2 0x8BB PUSH1 0x2 PUSH2 0x21A7 JUMP JUMPDEST PUSH1 0x1 PUSH1 0x1 PUSH1 0x40 SHL SUB DUP2 GT ISZERO PUSH2 0x8D2 JUMPI PUSH2 0x8D2 PUSH2 0x42CB JUMP JUMPDEST PUSH1 0x40 MLOAD SWAP1 DUP1 DUP3 MSTORE DUP1 PUSH1 0x20 MUL PUSH1 0x20 ADD DUP3 ADD PUSH1 0x40 MSTORE DUP1 ISZERO PUSH2 0x8FB JUMPI DUP2 PUSH1 0x20 ADD PUSH1 0x20 DUP3 MUL DUP1 CALLDATASIZE DUP4 CALLDATACOPY ADD SWAP1 POP JUMPDEST POP SWAP1 POP PUSH1 0x0 JUMPDEST PUSH2 0x90B PUSH1 0x2 PUSH2 0x21A7 JUMP JUMPDEST DUP2 LT ISZERO PUSH2 0x959 JUMPI PUSH2 0x91D PUSH1 0x2 DUP3 PUSH2 0x21B1 JUMP JUMPDEST DUP3 DUP3 DUP2 MLOAD DUP2 LT PUSH2 0x92F JUMPI PUSH2 0x92F PUSH2 0x4AF5 JUMP JUMPDEST PUSH1 0x1 PUSH1 0x1 PUSH1 0xA0 SHL SUB SWAP1 SWAP3 AND PUSH1 0x20 SWAP3 DUP4 MUL SWAP2 SWAP1 SWAP2 ADD SWAP1 SWAP2 ADD MSTORE DUP1 PUSH2 0x951 DUP2 PUSH2 0x4B21 JUMP JUMPDEST SWAP2 POP POP PUSH2 0x901 JUMP JUMPDEST POP SWAP1 JUMP JUMPDEST CALLER PUSH2 0x970 PUSH1 0x1 SLOAD PUSH1 0x1 PUSH1 0x1 PUSH1 0xA0 SHL SUB AND SWAP1 JUMP JUMPDEST PUSH1 0x1 PUSH1 0x1 PUSH1 0xA0 SHL SUB AND EQ DUP1 PUSH2 0x98B JUMPI POP PUSH2 0x98B PUSH1 0x2 CALLER PUSH2 0x216D JUMP JUMPDEST PUSH2 0x9A7 JUMPI PUSH1 0x40 MLOAD PUSH3 0x461BCD PUSH1 0xE5 SHL DUP2 MSTORE PUSH1 0x4 ADD PUSH2 0x60D SWAP1 PUSH2 0x49A0 JUMP JUMPDEST PUSH1 0x40 DUP1 MLOAD PUSH1 0x0 DUP1 DUP3 MSTORE PUSH1 0x20 DUP3 ADD SWAP3 DUP4 SWAP1 MSTORE SWAP2 CALLER SWAP2 DUP3 SWAP2 SELFBALANCE SWAP2 PUSH2 0x9C8 SWAP2 PUSH2 0x4A08 JUMP JUMPDEST PUSH1 0x0 PUSH1 0x40 MLOAD DUP1 DUP4 SUB DUP2 DUP6 DUP8 GAS CALL SWAP3 POP POP POP RETURNDATASIZE DUP1 PUSH1 0x0 DUP2 EQ PUSH2 0xA05 JUMPI PUSH1 0x40 MLOAD SWAP2 POP PUSH1 0x1F NOT PUSH1 0x3F RETURNDATASIZE ADD AND DUP3 ADD PUSH1 0x40 MSTORE RETURNDATASIZE DUP3 MSTORE RETURNDATASIZE PUSH1 0x0 PUSH1 0x20 DUP5 ADD RETURNDATACOPY PUSH2 0xA0A JUMP JUMPDEST PUSH1 0x60 SWAP2 POP JUMPDEST POP POP DUP1 SWAP3 POP POP DUP2 PUSH2 0x8AA JUMPI PUSH1 0x40 MLOAD PUSH3 0x461BCD PUSH1 0xE5 SHL DUP2 MSTORE PUSH1 0x20 PUSH1 0x4 DUP3 ADD MSTORE PUSH1 0x2C PUSH1 0x24 DUP3 ADD MSTORE PUSH32 0x776974686472617720746F2077697468647261772066756E64732E20506C6561 PUSH1 0x44 DUP3 ADD MSTORE PUSH12 0x39B2903A393C9030B3B0B4B7 PUSH1 0xA1 SHL PUSH1 0x64 DUP3 ADD MSTORE PUSH1 0x84 ADD PUSH2 0x60D JUMP JUMPDEST CALLER PUSH2 0xA85 PUSH1 0x1 SLOAD PUSH1 0x1 PUSH1 0x1 PUSH1 0xA0 SHL SUB AND SWAP1 JUMP JUMPDEST PUSH1 0x1 PUSH1 0x1 PUSH1 0xA0 SHL SUB AND EQ DUP1 PUSH2 0xAA0 JUMPI POP PUSH2 0xAA0 PUSH1 0x2 CALLER PUSH2 0x216D JUMP JUMPDEST PUSH2 0xABC JUMPI PUSH1 0x40 MLOAD PUSH3 0x461BCD PUSH1 0xE5 SHL DUP2 MSTORE PUSH1 0x4 ADD PUSH2 0x60D SWAP1 PUSH2 0x49A0 JUMP JUMPDEST PUSH1 0x1 PUSH1 0x1 PUSH1 0xA0 SHL SUB DUP2 AND PUSH2 0xB26 JUMPI PUSH1 0x40 MLOAD PUSH3 0x461BCD PUSH1 0xE5 SHL DUP2 MSTORE PUSH1 0x20 PUSH1 0x4 DUP3 ADD MSTORE PUSH1 0x2B PUSH1 0x24 DUP3 ADD MSTORE PUSH32 0x726F79616C747920636F6E74726163742073686F756C64206E6F742062652061 PUSH1 0x44 DUP3 ADD MSTORE PUSH11 0x646472657373207A65726F PUSH1 0xA8 SHL PUSH1 0x64 DUP3 ADD MSTORE PUSH1 0x84 ADD PUSH2 0x60D JUMP JUMPDEST PUSH1 0x9 DUP1 SLOAD PUSH1 0x1 PUSH1 0x1 PUSH1 0xA0 SHL SUB NOT AND PUSH1 0x1 PUSH1 0x1 PUSH1 0xA0 SHL SUB SWAP3 SWAP1 SWAP3 AND SWAP2 SWAP1 SWAP2 OR SWAP1 SSTORE JUMP JUMPDEST PUSH1 0x1 SLOAD PUSH1 0x1 PUSH1 0x1 PUSH1 0xA0 SHL SUB AND CALLER EQ PUSH2 0xB72 JUMPI PUSH1 0x40 MLOAD PUSH3 0x461BCD PUSH1 0xE5 SHL DUP2 MSTORE PUSH1 0x4 ADD PUSH2 0x60D SWAP1 PUSH2 0x4AC0 JUMP JUMPDEST PUSH2 0xB7D PUSH1 0x2 DUP3 PUSH2 0x216D JUMP JUMPDEST PUSH2 0x8AC JUMPI PUSH1 0x40 MLOAD CALLER SWAP1 PUSH1 0x1 PUSH1 0x1 PUSH1 0xA0 SHL SUB DUP4 AND SWAP1 PUSH32 0x7E1A1A08D52E4BA0E21554733D66165FD5151F99460116223D9E3A608EEC5CB1 SWAP1 PUSH1 0x0 SWAP1 LOG3 PUSH2 0x8AA PUSH1 0x2 DUP3 PUSH2 0x21BD JUMP JUMPDEST CALLER PUSH2 0xBD5 PUSH1 0x1 SLOAD PUSH1 0x1 PUSH1 0x1 PUSH1 0xA0 SHL SUB AND SWAP1 JUMP JUMPDEST PUSH1 0x1 PUSH1 0x1 PUSH1 0xA0 SHL SUB AND EQ DUP1 PUSH2 0xBF0 JUMPI POP PUSH2 0xBF0 PUSH1 0x2 CALLER PUSH2 0x216D JUMP JUMPDEST PUSH2 0xC0C JUMPI PUSH1 0x40 MLOAD PUSH3 0x461BCD PUSH1 0xE5 SHL DUP2 MSTORE PUSH1 0x4 ADD PUSH2 0x60D SWAP1 PUSH2 0x49A0 JUMP JUMPDEST PUSH1 0x1 PUSH1 0x1 PUSH1 0xA0 SHL SUB DUP2 AND PUSH2 0xC78 JUMPI PUSH1 0x40 MLOAD PUSH3 0x461BCD PUSH1 0xE5 SHL DUP2 MSTORE PUSH1 0x20 PUSH1 0x4 DUP3 ADD MSTORE PUSH1 0x2D PUSH1 0x24 DUP3 ADD MSTORE PUSH32 0x70726963656665656420636F6E74726163742073686F756C64206E6F74206265 PUSH1 0x44 DUP3 ADD MSTORE PUSH13 0x2061646472657373207A65726F PUSH1 0x98 SHL PUSH1 0x64 DUP3 ADD MSTORE PUSH1 0x84 ADD PUSH2 0x60D JUMP JUMPDEST PUSH1 0x8 DUP1 SLOAD PUSH1 0x1 PUSH1 0x1 PUSH1 0xA0 SHL SUB NOT AND PUSH1 0x1 PUSH1 0x1 PUSH1 0xA0 SHL SUB SWAP3 SWAP1 SWAP3 AND SWAP2 SWAP1 SWAP2 OR SWAP1 SSTORE JUMP JUMPDEST PUSH1 0x1 SLOAD PUSH1 0x1 PUSH1 0x1 PUSH1 0xA0 SHL SUB AND CALLER EQ PUSH2 0xCC4 JUMPI PUSH1 0x40 MLOAD PUSH3 0x461BCD PUSH1 0xE5 SHL DUP2 MSTORE PUSH1 0x4 ADD PUSH2 0x60D SWAP1 PUSH2 0x4AC0 JUMP JUMPDEST PUSH1 0x1 SLOAD PUSH1 0x40 MLOAD PUSH1 0x0 SWAP2 PUSH1 0x1 PUSH1 0x1 PUSH1 0xA0 SHL SUB AND SWAP1 PUSH32 0x8BE0079C531659141344CD1FD0A4F28419497F9722A3DAAFE3B4186F6B6457E0 SWAP1 DUP4 SWAP1 LOG3 PUSH1 0x1 DUP1 SLOAD PUSH1 0x1 PUSH1 0x1 PUSH1 0xA0 SHL SUB NOT AND SWAP1 SSTORE JUMP JUMPDEST PUSH1 0x9 SLOAD PUSH1 0x40 MLOAD PUSH4 0x6E44A72F PUSH1 0xE0 SHL DUP2 MSTORE PUSH1 0x1 PUSH1 0x1 PUSH1 0xA0 SHL SUB DUP5 DUP2 AND PUSH1 0x4 DUP4 ADD MSTORE PUSH1 0x24 DUP3 ADD DUP5 SWAP1 MSTORE PUSH1 0x60 SWAP3 DUP4 SWAP3 SWAP2 AND SWAP1 PUSH4 0x6E44A72F SWAP1 PUSH1 0x44 ADD PUSH1 0x0 PUSH1 0x40 MLOAD DUP1 DUP4 SUB DUP2 DUP7 GAS STATICCALL ISZERO DUP1 ISZERO PUSH2 0xD63 JUMPI RETURNDATASIZE PUSH1 0x0 DUP1 RETURNDATACOPY RETURNDATASIZE PUSH1 0x0 REVERT JUMPDEST POP POP POP POP PUSH1 0x40 MLOAD RETURNDATASIZE PUSH1 0x0 DUP3 RETURNDATACOPY PUSH1 0x1F RETURNDATASIZE SWAP1 DUP2 ADD PUSH1 0x1F NOT AND DUP3 ADD PUSH1 0x40 MSTORE PUSH2 0xD8B SWAP2 SWAP1 DUP2 ADD SWAP1 PUSH2 0x4BC8 JUMP JUMPDEST SWAP1 SWAP6 SWAP1 SWAP5 POP SWAP3 POP POP POP JUMP JUMPDEST CALLER PUSH2 0xDA9 PUSH1 0x1 SLOAD PUSH1 0x1 PUSH1 0x1 PUSH1 0xA0 SHL SUB AND SWAP1 JUMP JUMPDEST PUSH1 0x1 PUSH1 0x1 PUSH1 0xA0 SHL SUB AND EQ DUP1 PUSH2 0xDC4 JUMPI POP PUSH2 0xDC4 PUSH1 0x2 CALLER PUSH2 0x216D JUMP JUMPDEST PUSH2 0xDE0 JUMPI PUSH1 0x40 MLOAD PUSH3 0x461BCD PUSH1 0xE5 SHL DUP2 MSTORE PUSH1 0x4 ADD PUSH2 0x60D SWAP1 PUSH2 0x49A0 JUMP JUMPDEST PUSH1 0x1 PUSH1 0x1 PUSH1 0xA0 SHL SUB DUP2 AND PUSH2 0xE36 JUMPI PUSH1 0x40 MLOAD PUSH3 0x461BCD PUSH1 0xE5 SHL DUP2 MSTORE PUSH1 0x20 PUSH1 0x4 DUP3 ADD MSTORE PUSH1 0x18 PUSH1 0x24 DUP3 ADD MSTORE PUSH32 0x496E76616C696420506C6174666F726D20416464726573730000000000000000 PUSH1 0x44 DUP3 ADD MSTORE PUSH1 0x64 ADD PUSH2 0x60D JUMP JUMPDEST PUSH1 0x7 DUP1 SLOAD PUSH1 0x1 PUSH1 0x1 PUSH1 0xA0 SHL SUB NOT AND PUSH1 0x1 PUSH1 0x1 PUSH1 0xA0 SHL SUB SWAP3 SWAP1 SWAP3 AND SWAP2 SWAP1 SWAP2 OR SWAP1 SSTORE JUMP JUMPDEST PUSH1 0x60 PUSH1 0x2 PUSH1 0x0 SLOAD SUB PUSH2 0xEAC JUMPI PUSH1 0x40 MLOAD PUSH3 0x461BCD PUSH1 0xE5 SHL DUP2 MSTORE PUSH1 0x20 PUSH1 0x4 DUP3 ADD MSTORE PUSH1 0x1F PUSH1 0x24 DUP3 ADD MSTORE PUSH32 0x5265656E7472616E637947756172643A207265656E7472616E742063616C6C00 PUSH1 0x44 DUP3 ADD MSTORE PUSH1 0x64 ADD PUSH2 0x60D JUMP JUMPDEST PUSH1 0x2 PUSH1 0x0 SWAP1 DUP2 SSTORE DUP4 MLOAD PUSH1 0x40 MLOAD PUSH1 0x4 SWAP2 PUSH2 0xEC4 SWAP2 PUSH2 0x4A08 JUMP JUMPDEST SWAP1 DUP2 MSTORE PUSH1 0x40 DUP1 MLOAD SWAP2 DUP3 SWAP1 SUB PUSH1 0x20 SWAP1 DUP2 ADD DUP4 KECCAK256 PUSH1 0xC0 DUP5 ADD DUP4 MSTORE PUSH1 0x5 DUP2 ADD SLOAD PUSH1 0x1 PUSH1 0x1 PUSH1 0xA0 SHL SUB SWAP1 DUP2 AND DUP6 MSTORE PUSH1 0x6 DUP3 ADD SLOAD DUP2 AND SWAP3 DUP6 ADD SWAP3 SWAP1 SWAP3 MSTORE PUSH1 0x7 DUP2 ADD SLOAD DUP1 DUP4 AND DUP6 DUP6 ADD MSTORE PUSH2 0xFFFF PUSH1 0x1 PUSH1 0xA0 SHL SWAP2 DUP3 SWAP1 DIV DUP2 AND PUSH1 0x60 DUP8 ADD MSTORE PUSH1 0x8 SWAP1 SWAP3 ADD SLOAD SWAP3 DUP4 AND PUSH1 0x80 DUP7 ADD MSTORE SWAP1 SWAP2 DIV AND PUSH1 0xA0 DUP4 ADD MSTORE DUP6 MLOAD SWAP1 MLOAD SWAP2 SWAP3 POP PUSH1 0x0 SWAP2 PUSH1 0x4 SWAP2 PUSH2 0xF48 SWAP2 PUSH2 0x4A08 JUMP JUMPDEST SWAP1 DUP2 MSTORE PUSH1 0x40 DUP1 MLOAD SWAP2 DUP3 SWAP1 SUB PUSH1 0x20 SWAP1 DUP2 ADD DUP4 KECCAK256 PUSH2 0x140 DUP5 ADD DUP4 MSTORE DUP1 SLOAD PUSH1 0x1 PUSH1 0x1 PUSH1 0xA0 SHL SUB DUP2 AND DUP6 MSTORE PUSH1 0x1 PUSH1 0x1 PUSH1 0x40 SHL SUB PUSH1 0x1 PUSH1 0xA0 SHL SWAP1 SWAP2 DIV DUP2 AND DUP6 DUP5 ADD MSTORE PUSH1 0x1 DUP3 ADD SLOAD AND DUP5 DUP5 ADD MSTORE PUSH1 0x2 DUP2 ADD SLOAD PUSH1 0x60 DUP6 ADD MSTORE PUSH1 0x3 DUP2 ADD DUP1 SLOAD DUP5 MLOAD DUP2 DUP6 MUL DUP2 ADD DUP6 ADD SWAP1 SWAP6 MSTORE DUP1 DUP6 MSTORE SWAP2 SWAP4 PUSH1 0x80 DUP7 ADD SWAP4 SWAP1 SWAP3 SWAP1 DUP4 ADD DUP3 DUP3 DUP1 ISZERO PUSH2 0xFE7 JUMPI PUSH1 0x20 MUL DUP3 ADD SWAP2 SWAP1 PUSH1 0x0 MSTORE PUSH1 0x20 PUSH1 0x0 KECCAK256 SWAP1 JUMPDEST DUP2 SLOAD DUP2 MSTORE PUSH1 0x20 ADD SWAP1 PUSH1 0x1 ADD SWAP1 DUP1 DUP4 GT PUSH2 0xFD3 JUMPI JUMPDEST POP POP POP POP POP DUP2 MSTORE PUSH1 0x20 ADD PUSH1 0x4 DUP3 ADD DUP1 SLOAD DUP1 PUSH1 0x20 MUL PUSH1 0x20 ADD PUSH1 0x40 MLOAD SWAP1 DUP2 ADD PUSH1 0x40 MSTORE DUP1 SWAP3 SWAP2 SWAP1 DUP2 DUP2 MSTORE PUSH1 0x20 ADD DUP3 DUP1 SLOAD DUP1 ISZERO PUSH2 0x1049 JUMPI PUSH1 0x20 MUL DUP3 ADD SWAP2 SWAP1 PUSH1 0x0 MSTORE PUSH1 0x20 PUSH1 0x0 KECCAK256 SWAP1 JUMPDEST DUP2 SLOAD PUSH1 0x1 PUSH1 0x1 PUSH1 0xA0 SHL SUB AND DUP2 MSTORE PUSH1 0x1 SWAP1 SWAP2 ADD SWAP1 PUSH1 0x20 ADD DUP1 DUP4 GT PUSH2 0x102B JUMPI JUMPDEST POP POP POP SWAP2 DUP4 MSTORE POP POP PUSH1 0x40 DUP1 MLOAD PUSH1 0xC0 DUP2 ADD DUP3 MSTORE PUSH1 0x5 DUP5 ADD SLOAD PUSH1 0x1 PUSH1 0x1 PUSH1 0xA0 SHL SUB SWAP1 DUP2 AND DUP3 MSTORE PUSH1 0x6 DUP6 ADD SLOAD DUP2 AND PUSH1 0x20 DUP4 DUP2 ADD SWAP2 SWAP1 SWAP2 MSTORE PUSH1 0x7 DUP7 ADD SLOAD DUP1 DUP4 AND DUP5 DUP7 ADD MSTORE PUSH2 0xFFFF PUSH1 0x1 PUSH1 0xA0 SHL SWAP2 DUP3 SWAP1 DIV DUP2 AND PUSH1 0x60 DUP1 DUP8 ADD SWAP2 SWAP1 SWAP2 MSTORE PUSH1 0x8 DUP10 ADD SLOAD SWAP5 DUP6 AND PUSH1 0x80 DUP8 ADD MSTORE SWAP2 SWAP1 SWAP4 DIV SWAP1 SWAP3 AND PUSH1 0xA0 DUP5 ADD MSTORE DUP5 ADD SWAP2 SWAP1 SWAP2 MSTORE PUSH1 0x9 DUP5 ADD SLOAD PUSH1 0x1 PUSH1 0x1 PUSH1 0x40 SHL SUB DUP2 AND SWAP3 DUP5 ADD SWAP3 SWAP1 SWAP3 MSTORE SWAP1 SWAP2 ADD SWAP1 PUSH1 0xFF PUSH1 0x1 PUSH1 0x40 SHL SWAP1 SWAP2 DIV AND PUSH1 0x1 DUP2 GT ISZERO PUSH2 0x10F5 JUMPI PUSH2 0x10F5 PUSH2 0x4544 JUMP JUMPDEST PUSH1 0x1 DUP2 GT ISZERO PUSH2 0x1106 JUMPI PUSH2 0x1106 PUSH2 0x4544 JUMP JUMPDEST DUP2 MSTORE PUSH1 0x20 ADD PUSH1 0x9 DUP3 ADD PUSH1 0x9 SWAP1 SLOAD SWAP1 PUSH2 0x100 EXP SWAP1 DIV PUSH1 0xFF AND PUSH1 0x1 DUP2 GT ISZERO PUSH2 0x112E JUMPI PUSH2 0x112E PUSH2 0x4544 JUMP JUMPDEST PUSH1 0x1 DUP2 GT ISZERO PUSH2 0x113F JUMPI PUSH2 0x113F PUSH2 0x4544 JUMP JUMPDEST SWAP1 MSTORE POP DUP6 MLOAD PUSH1 0x40 MLOAD SWAP2 SWAP3 POP PUSH1 0x6 SWAP2 PUSH2 0x1157 SWAP2 SWAP1 PUSH2 0x4A08 JUMP JUMPDEST SWAP1 DUP2 MSTORE PUSH1 0x40 MLOAD SWAP1 DUP2 SWAP1 SUB PUSH1 0x20 ADD SWAP1 KECCAK256 SLOAD PUSH1 0xFF AND PUSH2 0x1186 JUMPI PUSH1 0x40 MLOAD PUSH3 0x461BCD PUSH1 0xE5 SHL DUP2 MSTORE PUSH1 0x4 ADD PUSH2 0x60D SWAP1 PUSH2 0x4C8C JUMP JUMPDEST PUSH2 0x118F CALLER PUSH2 0x679 JUMP JUMPDEST DUP1 PUSH2 0x11A6 JUMPI POP PUSH1 0x80 DUP6 ADD MLOAD PUSH1 0x1 PUSH1 0x1 PUSH1 0xA0 SHL SUB AND CALLER EQ JUMPDEST PUSH2 0x1229 JUMPI PUSH1 0x40 MLOAD PUSH3 0x461BCD PUSH1 0xE5 SHL DUP2 MSTORE PUSH1 0x20 PUSH1 0x4 DUP3 ADD MSTORE PUSH1 0x48 PUSH1 0x24 DUP3 ADD MSTORE PUSH32 0x4F6E6C7920746865206275796572206F722061646D696E206F72206F776E6572 PUSH1 0x44 DUP3 ADD MSTORE PUSH32 0x206F66207468697320636F6E74726163742063616E2063616C6C207468697320 PUSH1 0x64 DUP3 ADD MSTORE PUSH8 0x333AB731BA34B7B7 PUSH1 0xC1 SHL PUSH1 0x84 DUP3 ADD MSTORE PUSH1 0xA4 ADD PUSH2 0x60D JUMP JUMPDEST PUSH1 0x0 DUP1 PUSH2 0x1274 DUP8 PUSH1 0x0 ADD MLOAD DUP9 PUSH1 0x40 ADD MLOAD DUP10 PUSH1 0x60 ADD MLOAD PUSH1 0x1 PUSH1 0x1 PUSH1 0x40 SHL SUB AND DUP11 PUSH1 0xA0 ADD MLOAD PUSH1 0x1 PUSH1 0x1 PUSH1 0x40 SHL SUB AND DUP12 PUSH1 0xC0 ADD MLOAD DUP12 DUP14 PUSH1 0xE0 ADD MLOAD PUSH2 0x126A SWAP2 SWAP1 PUSH2 0x4CB6 JUMP JUMPDEST DUP14 PUSH1 0x80 ADD MLOAD PUSH2 0x21D2 JUMP JUMPDEST SWAP2 POP SWAP2 POP PUSH2 0x12B7 DUP8 PUSH1 0x0 ADD MLOAD DUP9 PUSH1 0x20 ADD MLOAD DUP4 DUP11 PUSH1 0x80 ADD MLOAD DUP12 PUSH1 0x40 ADD MLOAD DUP13 PUSH1 0x60 ADD MLOAD PUSH1 0x1 PUSH1 0x1 PUSH1 0x40 SHL SUB AND DUP14 PUSH1 0xA0 ADD MLOAD PUSH1 0x1 PUSH1 0x1 PUSH1 0x40 SHL SUB AND DUP11 PUSH2 0x100 ADD MLOAD PUSH2 0x2C4C JUMP JUMPDEST SWAP5 POP DUP6 ISZERO PUSH2 0x12D3 JUMPI PUSH2 0x12D3 CALLER DUP6 PUSH1 0x20 ADD MLOAD DUP10 PUSH1 0xC0 ADD MLOAD DUP10 PUSH2 0x36AC JUMP JUMPDEST PUSH2 0x1303 DUP8 PUSH1 0x0 ADD MLOAD DUP4 DUP10 PUSH1 0xE0 ADD MLOAD PUSH2 0x12EB SWAP2 SWAP1 PUSH2 0x4CC9 JUMP JUMPDEST DUP5 DUP11 PUSH1 0xC0 ADD MLOAD DUP12 PUSH1 0x40 ADD MLOAD DUP11 DUP8 DUP11 PUSH2 0x100 ADD MLOAD PUSH2 0x37B0 JUMP JUMPDEST DUP1 PUSH1 0x1 PUSH1 0x1 PUSH1 0xA0 SHL SUB AND PUSH32 0x92347FD034DEB76ED77249B761AEC05C6302665F18922499F245DDE63BCB0D1F DUP9 DUP8 DUP8 DUP11 DUP8 DUP9 DUP15 PUSH1 0xE0 ADD MLOAD PUSH2 0x1343 SWAP2 SWAP1 PUSH2 0x4CC9 JUMP JUMPDEST PUSH1 0x40 MLOAD PUSH2 0x1355 SWAP7 SWAP6 SWAP5 SWAP4 SWAP3 SWAP2 SWAP1 PUSH2 0x4CDC JUMP JUMPDEST PUSH1 0x40 MLOAD DUP1 SWAP2 SUB SWAP1 LOG2 POP POP POP POP PUSH1 0x1 PUSH1 0x0 SSTORE SWAP3 SWAP2 POP POP JUMP JUMPDEST CALLER PUSH2 0x137F PUSH1 0x1 SLOAD PUSH1 0x1 PUSH1 0x1 PUSH1 0xA0 SHL SUB AND SWAP1 JUMP JUMPDEST PUSH1 0x1 PUSH1 0x1 PUSH1 0xA0 SHL SUB AND EQ DUP1 PUSH2 0x139A JUMPI POP PUSH2 0x139A PUSH1 0x2 CALLER PUSH2 0x216D JUMP JUMPDEST PUSH2 0x13B6 JUMPI PUSH1 0x40 MLOAD PUSH3 0x461BCD PUSH1 0xE5 SHL DUP2 MSTORE PUSH1 0x4 ADD PUSH2 0x60D SWAP1 PUSH2 0x49A0 JUMP JUMPDEST PUSH1 0x6 DUP4 DUP4 PUSH1 0x40 MLOAD PUSH2 0x13C8 SWAP3 SWAP2 SWAP1 PUSH2 0x4DC3 JUMP JUMPDEST SWAP1 DUP2 MSTORE PUSH1 0x40 MLOAD SWAP1 DUP2 SWAP1 SUB PUSH1 0x20 ADD SWAP1 KECCAK256 SLOAD PUSH1 0xFF AND PUSH2 0x13F7 JUMPI PUSH1 0x40 MLOAD PUSH3 0x461BCD PUSH1 0xE5 SHL DUP2 MSTORE PUSH1 0x4 ADD PUSH2 0x60D SWAP1 PUSH2 0x4C8C JUMP JUMPDEST PUSH1 0x1 PUSH1 0x1 PUSH1 0xA0 SHL SUB DUP2 AND PUSH2 0x141D JUMPI PUSH1 0x40 MLOAD PUSH3 0x461BCD PUSH1 0xE5 SHL DUP2 MSTORE PUSH1 0x4 ADD PUSH2 0x60D SWAP1 PUSH2 0x4DD3 JUMP JUMPDEST DUP1 PUSH1 0x4 DUP5 DUP5 PUSH1 0x40 MLOAD PUSH2 0x1430 SWAP3 SWAP2 SWAP1 PUSH2 0x4DC3 JUMP JUMPDEST SWAP1 DUP2 MSTORE PUSH1 0x40 MLOAD SWAP1 DUP2 SWAP1 SUB PUSH1 0x20 ADD SWAP1 KECCAK256 PUSH1 0x6 ADD DUP1 SLOAD PUSH1 0x1 PUSH1 0x1 PUSH1 0xA0 SHL SUB SWAP3 SWAP1 SWAP3 AND PUSH1 0x1 PUSH1 0x1 PUSH1 0xA0 SHL SUB NOT SWAP1 SWAP3 AND SWAP2 SWAP1 SWAP2 OR SWAP1 SSTORE POP POP POP JUMP JUMPDEST CALLER PUSH2 0x147A PUSH1 0x1 SLOAD PUSH1 0x1 PUSH1 0x1 PUSH1 0xA0 SHL SUB AND SWAP1 JUMP JUMPDEST PUSH1 0x1 PUSH1 0x1 PUSH1 0xA0 SHL SUB AND EQ DUP1 PUSH2 0x1495 JUMPI POP PUSH2 0x1495 PUSH1 0x2 CALLER PUSH2 0x216D JUMP JUMPDEST PUSH2 0x14B1 JUMPI PUSH1 0x40 MLOAD PUSH3 0x461BCD PUSH1 0xE5 SHL DUP2 MSTORE PUSH1 0x4 ADD PUSH2 0x60D SWAP1 PUSH2 0x49A0 JUMP JUMPDEST PUSH2 0x2710 DUP2 PUSH2 0xFFFF AND LT PUSH2 0x1518 JUMPI PUSH1 0x40 MLOAD PUSH3 0x461BCD PUSH1 0xE5 SHL DUP2 MSTORE PUSH1 0x20 PUSH1 0x4 DUP3 ADD MSTORE PUSH1 0x29 PUSH1 0x24 DUP3 ADD MSTORE PUSH32 0x706C6174666F726D4665652073686F756C64206E6F74206265206D6F72652074 PUSH1 0x44 DUP3 ADD MSTORE PUSH9 0x68616E20313030303 PUSH1 0xBC SHL PUSH1 0x64 DUP3 ADD MSTORE PUSH1 0x84 ADD PUSH2 0x60D JUMP JUMPDEST PUSH1 0x7 DUP1 SLOAD PUSH2 0xFFFF SWAP1 SWAP3 AND PUSH1 0x1 PUSH1 0xA0 SHL MUL PUSH2 0xFFFF PUSH1 0xA0 SHL NOT SWAP1 SWAP3 AND SWAP2 SWAP1 SWAP2 OR SWAP1 SSTORE JUMP JUMPDEST PUSH1 0x60 DUP1 PUSH1 0x4 DUP5 DUP5 PUSH1 0x40 MLOAD PUSH2 0x154F SWAP3 SWAP2 SWAP1 PUSH2 0x4DC3 JUMP JUMPDEST SWAP1 DUP2 MSTORE PUSH1 0x40 DUP1 MLOAD SWAP2 DUP3 SWAP1 SUB PUSH1 0x20 SWAP1 DUP2 ADD DUP4 KECCAK256 PUSH1 0x3 ADD DUP1 SLOAD DUP1 DUP4 MUL DUP6 ADD DUP4 ADD SWAP1 SWAP4 MSTORE DUP3 DUP5 MSTORE SWAP2 SWAP1 DUP4 ADD DUP3 DUP3 DUP1 ISZERO PUSH2 0x15A4 JUMPI PUSH1 0x20 MUL DUP3 ADD SWAP2 SWAP1 PUSH1 0x0 MSTORE PUSH1 0x20 PUSH1 0x0 KECCAK256 SWAP1 JUMPDEST DUP2 SLOAD DUP2 MSTORE PUSH1 0x20 ADD SWAP1 PUSH1 0x1 ADD SWAP1 DUP1 DUP4 GT PUSH2 0x1590 JUMPI JUMPDEST POP POP POP POP POP SWAP2 POP PUSH1 0x4 DUP5 DUP5 PUSH1 0x40 MLOAD PUSH2 0x15BD SWAP3 SWAP2 SWAP1 PUSH2 0x4DC3 JUMP JUMPDEST SWAP1 DUP2 MSTORE PUSH1 0x40 DUP1 MLOAD SWAP2 DUP3 SWAP1 SUB PUSH1 0x20 SWAP1 DUP2 ADD DUP4 KECCAK256 PUSH1 0x4 ADD DUP1 SLOAD DUP1 DUP4 MUL DUP6 ADD DUP4 ADD SWAP1 SWAP4 MSTORE DUP3 DUP5 MSTORE SWAP2 SWAP1 DUP4 ADD DUP3 DUP3 DUP1 ISZERO PUSH2 0x161C JUMPI PUSH1 0x20 MUL DUP3 ADD SWAP2 SWAP1 PUSH1 0x0 MSTORE PUSH1 0x20 PUSH1 0x0 KECCAK256 SWAP1 JUMPDEST DUP2 SLOAD PUSH1 0x1 PUSH1 0x1 PUSH1 0xA0 SHL SUB AND DUP2 MSTORE PUSH1 0x1 SWAP1 SWAP2 ADD SWAP1 PUSH1 0x20 ADD DUP1 DUP4 GT PUSH2 0x15FE JUMPI JUMPDEST POP POP POP POP POP SWAP1 POP SWAP3 POP SWAP3 SWAP1 POP JUMP JUMPDEST CALLER PUSH2 0x163D PUSH1 0x1 SLOAD PUSH1 0x1 PUSH1 0x1 PUSH1 0xA0 SHL SUB AND SWAP1 JUMP JUMPDEST PUSH1 0x1 PUSH1 0x1 PUSH1 0xA0 SHL SUB AND EQ DUP1 PUSH2 0x1658 JUMPI POP PUSH2 0x1658 PUSH1 0x2 CALLER PUSH2 0x216D JUMP JUMPDEST PUSH2 0x1674 JUMPI PUSH1 0x40 MLOAD PUSH3 0x461BCD PUSH1 0xE5 SHL DUP2 MSTORE PUSH1 0x4 ADD PUSH2 0x60D SWAP1 PUSH2 0x49A0 JUMP JUMPDEST PUSH1 0x6 DUP9 DUP9 PUSH1 0x40 MLOAD PUSH2 0x1686 SWAP3 SWAP2 SWAP1 PUSH2 0x4DC3 JUMP JUMPDEST SWAP1 DUP2 MSTORE PUSH1 0x40 MLOAD SWAP1 DUP2 SWAP1 SUB PUSH1 0x20 ADD SWAP1 KECCAK256 SLOAD PUSH1 0xFF AND PUSH2 0x16B5 JUMPI PUSH1 0x40 MLOAD PUSH3 0x461BCD PUSH1 0xE5 SHL DUP2 MSTORE PUSH1 0x4 ADD PUSH2 0x60D SWAP1 PUSH2 0x4C8C JUMP JUMPDEST DUP1 DUP4 EQ PUSH2 0x16D4 JUMPI PUSH1 0x40 MLOAD PUSH3 0x461BCD PUSH1 0xE5 SHL DUP2 MSTORE PUSH1 0x4 ADD PUSH2 0x60D SWAP1 PUSH2 0x4E30 JUMP JUMPDEST DUP6 PUSH1 0x4 DUP10 DUP10 PUSH1 0x40 MLOAD PUSH2 0x16E7 SWAP3 SWAP2 SWAP1 PUSH2 0x4DC3 JUMP JUMPDEST SWAP1 DUP2 MSTORE PUSH1 0x40 MLOAD SWAP1 DUP2 SWAP1 SUB PUSH1 0x20 ADD SWAP1 KECCAK256 PUSH1 0x9 ADD DUP1 SLOAD PUSH10 0xFF000000000000000000 NOT AND PUSH1 0x1 PUSH1 0x48 SHL DUP4 PUSH1 0x1 DUP2 GT ISZERO PUSH2 0x171F JUMPI PUSH2 0x171F PUSH2 0x4544 JUMP JUMPDEST MUL OR SWAP1 SSTORE POP DUP4 DUP4 PUSH1 0x4 DUP11 DUP11 PUSH1 0x40 MLOAD PUSH2 0x1738 SWAP3 SWAP2 SWAP1 PUSH2 0x4DC3 JUMP JUMPDEST SWAP1 DUP2 MSTORE PUSH1 0x20 ADD PUSH1 0x40 MLOAD DUP1 SWAP2 SUB SWAP1 KECCAK256 PUSH1 0x3 ADD SWAP2 SWAP1 PUSH2 0x1756 SWAP3 SWAP2 SWAP1 PUSH2 0x4173 JUMP JUMPDEST POP DUP2 DUP2 PUSH1 0x4 DUP11 DUP11 PUSH1 0x40 MLOAD PUSH2 0x176B SWAP3 SWAP2 SWAP1 PUSH2 0x4DC3 JUMP JUMPDEST SWAP1 DUP2 MSTORE PUSH1 0x20 ADD PUSH1 0x40 MLOAD DUP1 SWAP2 SUB SWAP1 KECCAK256 PUSH1 0x4 ADD SWAP2 SWAP1 PUSH2 0x1789 SWAP3 SWAP2 SWAP1 PUSH2 0x41BA JUMP JUMPDEST POP DUP5 PUSH1 0x4 DUP10 DUP10 PUSH1 0x40 MLOAD PUSH2 0x179D SWAP3 SWAP2 SWAP1 PUSH2 0x4DC3 JUMP JUMPDEST SWAP1 DUP2 MSTORE PUSH1 0x40 MLOAD SWAP1 DUP2 SWAP1 SUB PUSH1 0x20 ADD SWAP1 KECCAK256 PUSH1 0x2 ADD SSTORE POP POP POP POP POP POP POP POP JUMP JUMPDEST CALLER PUSH2 0x17CD PUSH1 0x1 SLOAD PUSH1 0x1 PUSH1 0x1 PUSH1 0xA0 SHL SUB AND SWAP1 JUMP JUMPDEST PUSH1 0x1 PUSH1 0x1 PUSH1 0xA0 SHL SUB AND EQ DUP1 PUSH2 0x17E8 JUMPI POP PUSH2 0x17E8 PUSH1 0x2 CALLER PUSH2 0x216D JUMP JUMPDEST PUSH2 0x1804 JUMPI PUSH1 0x40 MLOAD PUSH3 0x461BCD PUSH1 0xE5 SHL DUP2 MSTORE PUSH1 0x4 ADD PUSH2 0x60D SWAP1 PUSH2 0x49A0 JUMP JUMPDEST PUSH1 0x6 DUP4 DUP4 PUSH1 0x40 MLOAD PUSH2 0x1816 SWAP3 SWAP2 SWAP1 PUSH2 0x4DC3 JUMP JUMPDEST SWAP1 DUP2 MSTORE PUSH1 0x40 MLOAD SWAP1 DUP2 SWAP1 SUB PUSH1 0x20 ADD SWAP1 KECCAK256 SLOAD PUSH1 0xFF AND PUSH2 0x1845 JUMPI PUSH1 0x40 MLOAD PUSH3 0x461BCD PUSH1 0xE5 SHL DUP2 MSTORE PUSH1 0x4 ADD PUSH2 0x60D SWAP1 PUSH2 0x4C8C JUMP JUMPDEST PUSH1 0x1 PUSH1 0x1 PUSH1 0xA0 SHL SUB DUP2 AND PUSH2 0x186B JUMPI PUSH1 0x40 MLOAD PUSH3 0x461BCD PUSH1 0xE5 SHL DUP2 MSTORE PUSH1 0x4 ADD PUSH2 0x60D SWAP1 PUSH2 0x4DD3 JUMP JUMPDEST DUP1 PUSH1 0x4 DUP5 DUP5 PUSH1 0x40 MLOAD PUSH2 0x187E SWAP3 SWAP2 SWAP1 PUSH2 0x4DC3 JUMP JUMPDEST SWAP1 DUP2 MSTORE PUSH1 0x40 MLOAD SWAP1 DUP2 SWAP1 SUB PUSH1 0x20 ADD SWAP1 KECCAK256 PUSH1 0x5 ADD DUP1 SLOAD PUSH1 0x1 PUSH1 0x1 PUSH1 0xA0 SHL SUB SWAP3 SWAP1 SWAP3 AND PUSH1 0x1 PUSH1 0x1 PUSH1 0xA0 SHL SUB NOT SWAP1 SWAP3 AND SWAP2 SWAP1 SWAP2 OR SWAP1 SSTORE POP POP POP JUMP JUMPDEST PUSH1 0x1 SLOAD PUSH1 0x1 PUSH1 0x1 PUSH1 0xA0 SHL SUB AND CALLER EQ PUSH2 0x18DF JUMPI PUSH1 0x40 MLOAD PUSH3 0x461BCD PUSH1 0xE5 SHL DUP2 MSTORE PUSH1 0x4 ADD PUSH2 0x60D SWAP1 PUSH2 0x4AC0 JUMP JUMPDEST PUSH1 0x1 PUSH1 0x1 PUSH1 0xA0 SHL SUB DUP2 AND PUSH2 0x1944 JUMPI PUSH1 0x40 MLOAD PUSH3 0x461BCD PUSH1 0xE5 SHL DUP2 MSTORE PUSH1 0x20 PUSH1 0x4 DUP3 ADD MSTORE PUSH1 0x26 PUSH1 0x24 DUP3 ADD MSTORE PUSH32 0x4F776E61626C653A206E6577206F776E657220697320746865207A65726F2061 PUSH1 0x44 DUP3 ADD MSTORE PUSH6 0x646472657373 PUSH1 0xD0 SHL PUSH1 0x64 DUP3 ADD MSTORE PUSH1 0x84 ADD PUSH2 0x60D JUMP JUMPDEST PUSH1 0x1 SLOAD PUSH1 0x40 MLOAD PUSH1 0x1 PUSH1 0x1 PUSH1 0xA0 SHL SUB DUP1 DUP5 AND SWAP3 AND SWAP1 PUSH32 0x8BE0079C531659141344CD1FD0A4F28419497F9722A3DAAFE3B4186F6B6457E0 SWAP1 PUSH1 0x0 SWAP1 LOG3 PUSH1 0x1 DUP1 SLOAD PUSH1 0x1 PUSH1 0x1 PUSH1 0xA0 SHL SUB NOT AND PUSH1 0x1 PUSH1 0x1 PUSH1 0xA0 SHL SUB SWAP3 SWAP1 SWAP3 AND SWAP2 SWAP1 SWAP2 OR SWAP1 SSTORE JUMP JUMPDEST CALLER PUSH2 0x19B3 PUSH1 0x1 SLOAD PUSH1 0x1 PUSH1 0x1 PUSH1 0xA0 SHL SUB AND SWAP1 JUMP JUMPDEST PUSH1 0x1 PUSH1 0x1 PUSH1 0xA0 SHL SUB AND EQ DUP1 PUSH2 0x19CE JUMPI POP PUSH2 0x19CE PUSH1 0x2 CALLER PUSH2 0x216D JUMP JUMPDEST PUSH2 0x19EA JUMPI PUSH1 0x40 MLOAD PUSH3 0x461BCD PUSH1 0xE5 SHL DUP2 MSTORE PUSH1 0x4 ADD PUSH2 0x60D SWAP1 PUSH2 0x49A0 JUMP JUMPDEST PUSH1 0x6 DUP3 DUP3 PUSH1 0x40 MLOAD PUSH2 0x19FC SWAP3 SWAP2 SWAP1 PUSH2 0x4DC3 JUMP JUMPDEST SWAP1 DUP2 MSTORE PUSH1 0x40 MLOAD SWAP1 DUP2 SWAP1 SUB PUSH1 0x20 ADD SWAP1 KECCAK256 SLOAD PUSH1 0xFF AND ISZERO PUSH2 0x1A2C JUMPI PUSH1 0x40 MLOAD PUSH3 0x461BCD PUSH1 0xE5 SHL DUP2 MSTORE PUSH1 0x4 ADD PUSH2 0x60D SWAP1 PUSH2 0x4A24 JUMP JUMPDEST PUSH1 0x0 PUSH2 0x1A40 PUSH2 0x140 DUP6 ADD PUSH2 0x120 DUP7 ADD PUSH2 0x4799 JUMP JUMPDEST PUSH2 0xFFFF AND ISZERO PUSH2 0x1A88 JUMPI PUSH2 0x1A5B PUSH2 0x180 DUP6 ADD PUSH2 0x160 DUP7 ADD PUSH2 0x4799 JUMP JUMPDEST PUSH2 0x1A6D PUSH2 0x140 DUP7 ADD PUSH2 0x120 DUP8 ADD PUSH2 0x4799 JUMP JUMPDEST PUSH2 0x1A77 SWAP2 SWAP1 PUSH2 0x4E8D JUMP JUMPDEST PUSH2 0x1A81 SWAP1 DUP3 PUSH2 0x4E8D JUMP JUMPDEST SWAP1 POP PUSH2 0x1ABF JUMP JUMPDEST PUSH2 0x1A9A PUSH2 0x180 DUP6 ADD PUSH2 0x160 DUP7 ADD PUSH2 0x4799 JUMP JUMPDEST PUSH1 0x7 SLOAD PUSH2 0x1AB2 SWAP2 SWAP1 PUSH1 0x1 PUSH1 0xA0 SHL SWAP1 DIV PUSH2 0xFFFF AND PUSH2 0x4E8D JUMP JUMPDEST PUSH2 0x1ABC SWAP1 DUP3 PUSH2 0x4E8D JUMP JUMPDEST SWAP1 POP JUMPDEST PUSH2 0x2710 DUP2 PUSH2 0xFFFF AND LT PUSH2 0x1B30 JUMPI PUSH1 0x40 MLOAD PUSH3 0x461BCD PUSH1 0xE5 SHL DUP2 MSTORE PUSH1 0x20 PUSH1 0x4 DUP3 ADD MSTORE PUSH1 0x33 PUSH1 0x24 DUP3 ADD MSTORE PUSH32 0x54686520746F74616C2066656520626173697320706F696E742073686F756C64 PUSH1 0x44 DUP3 ADD MSTORE PUSH19 0x206265206C657373207468616E20313030303 PUSH1 0x6C SHL PUSH1 0x64 DUP3 ADD MSTORE PUSH1 0x84 ADD PUSH2 0x60D JUMP JUMPDEST PUSH1 0x0 PUSH2 0x1B42 PUSH1 0x40 DUP7 ADD PUSH1 0x20 DUP8 ADD PUSH2 0x4271 JUMP JUMPDEST PUSH1 0x1 PUSH1 0x1 PUSH1 0x40 SHL SUB AND GT DUP1 ISZERO PUSH2 0x1B70 JUMPI POP PUSH1 0x0 PUSH2 0x1B65 PUSH1 0x60 DUP7 ADD PUSH1 0x40 DUP8 ADD PUSH2 0x4271 JUMP JUMPDEST PUSH1 0x1 PUSH1 0x1 PUSH1 0x40 SHL SUB AND GT JUMPDEST ISZERO PUSH2 0x1C41 JUMPI PUSH2 0x1B85 PUSH1 0x40 DUP6 ADD PUSH1 0x20 DUP7 ADD PUSH2 0x4271 JUMP JUMPDEST PUSH1 0x1 PUSH1 0x1 PUSH1 0x40 SHL SUB AND PUSH2 0x1B9E PUSH1 0x60 DUP7 ADD PUSH1 0x40 DUP8 ADD PUSH2 0x4271 JUMP JUMPDEST PUSH1 0x1 PUSH1 0x1 PUSH1 0x40 SHL SUB AND LT ISZERO PUSH2 0x1C41 JUMPI PUSH1 0x40 MLOAD PUSH3 0x461BCD PUSH1 0xE5 SHL DUP2 MSTORE PUSH1 0x20 PUSH1 0x4 DUP3 ADD MSTORE PUSH1 0x5F PUSH1 0x24 DUP3 ADD MSTORE PUSH32 0x54686973206973206E6F7420612076616C6964204E4654207374617274206F72 PUSH1 0x44 DUP3 ADD MSTORE PUSH32 0x20656E6420746F6B656E2049442E20506C656173652076657269667920746861 PUSH1 0x64 DUP3 ADD MSTORE PUSH32 0x74207468652072616E67652070726F766964656420697320636F727265637400 PUSH1 0x84 DUP3 ADD MSTORE PUSH1 0xA4 ADD PUSH2 0x60D JUMP JUMPDEST PUSH2 0x1C4E PUSH1 0x80 DUP6 ADD DUP6 PUSH2 0x4EA8 JUMP JUMPDEST SWAP1 POP PUSH2 0x1C5D PUSH1 0xA0 DUP7 ADD DUP7 PUSH2 0x4EA8 JUMP JUMPDEST SWAP1 POP EQ PUSH2 0x1C7C JUMPI PUSH1 0x40 MLOAD PUSH3 0x461BCD PUSH1 0xE5 SHL DUP2 MSTORE PUSH1 0x4 ADD PUSH2 0x60D SWAP1 PUSH2 0x4E30 JUMP JUMPDEST PUSH1 0x0 PUSH2 0x1C90 PUSH2 0x1C0 DUP7 ADD PUSH2 0x1A0 DUP8 ADD PUSH2 0x4EF1 JUMP JUMPDEST PUSH1 0x1 DUP2 GT ISZERO PUSH2 0x1CA1 JUMPI PUSH2 0x1CA1 PUSH2 0x4544 JUMP JUMPDEST SUB PUSH2 0x1DCD JUMPI PUSH2 0x1CB8 PUSH2 0x1A0 DUP6 ADD PUSH2 0x180 DUP7 ADD PUSH2 0x4271 JUMP JUMPDEST PUSH1 0x1 PUSH1 0x1 PUSH1 0x40 SHL SUB AND PUSH1 0x0 SUB PUSH2 0x1D1A JUMPI PUSH1 0x40 MLOAD PUSH3 0x461BCD PUSH1 0xE5 SHL DUP2 MSTORE PUSH1 0x20 PUSH1 0x4 DUP3 ADD MSTORE PUSH1 0x21 PUSH1 0x24 DUP3 ADD MSTORE PUSH32 0x73686F756C642070726F76696465206D617843617020666F72206D696E74696E PUSH1 0x44 DUP3 ADD MSTORE PUSH1 0x67 PUSH1 0xF8 SHL PUSH1 0x64 DUP3 ADD MSTORE PUSH1 0x84 ADD PUSH2 0x60D JUMP JUMPDEST PUSH2 0x1D2A PUSH1 0x40 DUP6 ADD PUSH1 0x20 DUP7 ADD PUSH2 0x4271 JUMP JUMPDEST PUSH1 0x1 PUSH1 0x1 PUSH1 0x40 SHL SUB AND ISZERO DUP1 ISZERO PUSH2 0x1D56 JUMPI POP PUSH2 0x1D4B PUSH1 0x60 DUP6 ADD PUSH1 0x40 DUP7 ADD PUSH2 0x4271 JUMP JUMPDEST PUSH1 0x1 PUSH1 0x1 PUSH1 0x40 SHL SUB AND ISZERO JUMPDEST PUSH2 0x1DC8 JUMPI PUSH1 0x40 MLOAD PUSH3 0x461BCD PUSH1 0xE5 SHL DUP2 MSTORE PUSH1 0x20 PUSH1 0x4 DUP3 ADD MSTORE PUSH1 0x3D PUSH1 0x24 DUP3 ADD MSTORE PUSH32 0x546865204E46547374617274746F6B656E696420616E64204E4654656E64746F PUSH1 0x44 DUP3 ADD MSTORE PUSH32 0x6B656E69642073686F756C64206265203020666F72206D696E74696E67000000 PUSH1 0x64 DUP3 ADD MSTORE PUSH1 0x84 ADD PUSH2 0x60D JUMP JUMPDEST PUSH2 0x1E45 JUMP JUMPDEST PUSH2 0x1DDF PUSH2 0x1A0 DUP6 ADD PUSH2 0x180 DUP7 ADD PUSH2 0x4271 JUMP JUMPDEST PUSH1 0x1 PUSH1 0x1 PUSH1 0x40 SHL SUB AND ISZERO PUSH2 0x1E45 JUMPI PUSH1 0x40 MLOAD PUSH3 0x461BCD PUSH1 0xE5 SHL DUP2 MSTORE PUSH1 0x20 PUSH1 0x4 DUP3 ADD MSTORE PUSH1 0x27 PUSH1 0x24 DUP3 ADD MSTORE PUSH32 0x6D61784361702073686F756C64206265203020666F72207072656D696E746564 PUSH1 0x44 DUP3 ADD MSTORE PUSH7 0x20746F6B656E73 PUSH1 0xC8 SHL PUSH1 0x64 DUP3 ADD MSTORE PUSH1 0x84 ADD PUSH2 0x60D JUMP JUMPDEST PUSH2 0x1E52 PUSH1 0x20 DUP6 ADD DUP6 PUSH2 0x42AE JUMP JUMPDEST PUSH1 0x40 MLOAD PUSH4 0x1FFC9A7 PUSH1 0xE0 SHL DUP2 MSTORE PUSH1 0x1 PUSH1 0x1 PUSH1 0xA0 SHL SUB SWAP2 SWAP1 SWAP2 AND SWAP1 PUSH4 0x1FFC9A7 SWAP1 PUSH2 0x1E87 SWAP1 PUSH4 0x80AC58CD PUSH1 0xE0 SHL SWAP1 PUSH1 0x4 ADD PUSH2 0x4F0E JUMP JUMPDEST PUSH1 0x20 PUSH1 0x40 MLOAD DUP1 DUP4 SUB DUP2 DUP7 GAS STATICCALL ISZERO DUP1 ISZERO PUSH2 0x1EA4 JUMPI RETURNDATASIZE PUSH1 0x0 DUP1 RETURNDATACOPY RETURNDATASIZE PUSH1 0x0 REVERT JUMPDEST POP POP POP POP PUSH1 0x40 MLOAD RETURNDATASIZE PUSH1 0x1F NOT PUSH1 0x1F DUP3 ADD AND DUP3 ADD DUP1 PUSH1 0x40 MSTORE POP DUP2 ADD SWAP1 PUSH2 0x1EC8 SWAP2 SWAP1 PUSH2 0x4F23 JUMP JUMPDEST DUP1 PUSH2 0x1F51 JUMPI POP PUSH2 0x1EDB PUSH1 0x20 DUP6 ADD DUP6 PUSH2 0x42AE JUMP JUMPDEST PUSH1 0x40 MLOAD PUSH4 0x1FFC9A7 PUSH1 0xE0 SHL DUP2 MSTORE PUSH1 0x1 PUSH1 0x1 PUSH1 0xA0 SHL SUB SWAP2 SWAP1 SWAP2 AND SWAP1 PUSH4 0x1FFC9A7 SWAP1 PUSH2 0x1F10 SWAP1 PUSH4 0x6CDB3D13 PUSH1 0xE1 SHL SWAP1 PUSH1 0x4 ADD PUSH2 0x4F0E JUMP JUMPDEST PUSH1 0x20 PUSH1 0x40 MLOAD DUP1 DUP4 SUB DUP2 DUP7 GAS STATICCALL ISZERO DUP1 ISZERO PUSH2 0x1F2D JUMPI RETURNDATASIZE PUSH1 0x0 DUP1 RETURNDATACOPY RETURNDATASIZE PUSH1 0x0 REVERT JUMPDEST POP POP POP POP PUSH1 0x40 MLOAD RETURNDATASIZE PUSH1 0x1F NOT PUSH1 0x1F DUP3 ADD AND DUP3 ADD DUP1 PUSH1 0x40 MSTORE POP DUP2 ADD SWAP1 PUSH2 0x1F51 SWAP2 SWAP1 PUSH2 0x4F23 JUMP JUMPDEST PUSH2 0x1FC3 JUMPI PUSH1 0x40 MLOAD PUSH3 0x461BCD PUSH1 0xE5 SHL DUP2 MSTORE PUSH1 0x20 PUSH1 0x4 DUP3 ADD MSTORE PUSH1 0x3E PUSH1 0x24 DUP3 ADD MSTORE PUSH32 0x73686F756C642070726F76696465206F6E6C7920737570706F7274656420636F PUSH1 0x44 DUP3 ADD MSTORE PUSH32 0x6E747261637420696E746572666163657320455243203732312F313135350000 PUSH1 0x64 DUP3 ADD MSTORE PUSH1 0x84 ADD PUSH2 0x60D JUMP JUMPDEST PUSH1 0x0 PUSH2 0x1FD5 PUSH1 0xE0 DUP7 ADD PUSH1 0xC0 DUP8 ADD PUSH2 0x42AE JUMP JUMPDEST PUSH1 0x1 PUSH1 0x1 PUSH1 0xA0 SHL SUB AND SUB PUSH2 0x2046 JUMPI PUSH1 0x40 MLOAD PUSH3 0x461BCD PUSH1 0xE5 SHL DUP2 MSTORE PUSH1 0x20 PUSH1 0x4 DUP3 ADD MSTORE PUSH1 0x32 PUSH1 0x24 DUP3 ADD MSTORE PUSH32 0x73686F756C642070726F766964652076616C69642077616C6C65742061646472 PUSH1 0x44 DUP3 ADD MSTORE PUSH18 0x195CDCC8199BDC881CD95D1D1B195B595B9D PUSH1 0x72 SHL PUSH1 0x64 DUP3 ADD MSTORE PUSH1 0x84 ADD PUSH2 0x60D JUMP JUMPDEST PUSH1 0x0 PUSH2 0x2059 PUSH2 0x100 DUP7 ADD PUSH1 0xE0 DUP8 ADD PUSH2 0x42AE JUMP JUMPDEST PUSH1 0x1 PUSH1 0x1 PUSH1 0xA0 SHL SUB AND SUB PUSH2 0x20CE JUMPI PUSH1 0x40 MLOAD PUSH3 0x461BCD PUSH1 0xE5 SHL DUP2 MSTORE PUSH1 0x20 PUSH1 0x4 DUP3 ADD MSTORE PUSH1 0x36 PUSH1 0x24 DUP3 ADD MSTORE PUSH32 0x73686F756C642070726F766964652076616C69642077616C6C65742061646472 PUSH1 0x44 DUP3 ADD MSTORE PUSH22 0x195CDCC8199BDC881D185E081CD95D1D1B195B595B9D PUSH1 0x52 SHL PUSH1 0x64 DUP3 ADD MSTORE PUSH1 0x84 ADD PUSH2 0x60D JUMP JUMPDEST DUP4 PUSH1 0x4 DUP5 DUP5 PUSH1 0x40 MLOAD PUSH2 0x20E1 SWAP3 SWAP2 SWAP1 PUSH2 0x4DC3 JUMP JUMPDEST SWAP1 DUP2 MSTORE PUSH1 0x40 MLOAD SWAP1 DUP2 SWAP1 SUB PUSH1 0x20 ADD SWAP1 KECCAK256 PUSH2 0x20FA DUP3 DUP3 PUSH2 0x51BA JUMP JUMPDEST SWAP1 POP POP PUSH1 0x1 PUSH1 0x6 DUP5 DUP5 PUSH1 0x40 MLOAD PUSH2 0x2111 SWAP3 SWAP2 SWAP1 PUSH2 0x4DC3 JUMP JUMPDEST SWAP1 DUP2 MSTORE PUSH1 0x40 MLOAD SWAP1 DUP2 SWAP1 SUB PUSH1 0x20 ADD DUP2 KECCAK256 DUP1 SLOAD SWAP3 ISZERO ISZERO PUSH1 0xFF NOT SWAP1 SWAP4 AND SWAP3 SWAP1 SWAP3 OR SWAP1 SWAP2 SSTORE PUSH32 0x5E497450A6BB5270282292FAB91DE64CB64F3E379288C411A7EAB0F283AFBBF5 SWAP1 PUSH2 0x215F SWAP1 DUP7 SWAP1 PUSH2 0x5436 JUMP JUMPDEST PUSH1 0x40 MLOAD DUP1 SWAP2 SUB SWAP1 LOG1 POP POP POP POP JUMP JUMPDEST PUSH1 0x1 PUSH1 0x1 PUSH1 0xA0 SHL SUB DUP2 AND PUSH1 0x0 SWAP1 DUP2 MSTORE PUSH1 0x1 DUP4 ADD PUSH1 0x20 MSTORE PUSH1 0x40 DUP2 KECCAK256 SLOAD ISZERO ISZERO JUMPDEST SWAP4 SWAP3 POP POP POP JUMP JUMPDEST PUSH1 0x0 PUSH2 0x218B DUP4 PUSH1 0x1 PUSH1 0x1 PUSH1 0xA0 SHL SUB DUP5 AND PUSH2 0x39B9 JUMP JUMPDEST PUSH1 0x0 PUSH2 0x5BD DUP3 SLOAD SWAP1 JUMP JUMPDEST PUSH1 0x0 PUSH2 0x218B DUP4 DUP4 PUSH2 0x3AB3 JUMP JUMPDEST PUSH1 0x0 PUSH2 0x218B DUP4 PUSH1 0x1 PUSH1 0x1 PUSH1 0xA0 SHL SUB DUP5 AND PUSH2 0x3ADD JUMP JUMPDEST PUSH1 0x0 DUP1 PUSH1 0x0 PUSH1 0x4 DUP11 PUSH1 0x40 MLOAD PUSH2 0x21E7 SWAP2 SWAP1 PUSH2 0x4A08 JUMP JUMPDEST SWAP1 DUP2 MSTORE PUSH1 0x40 DUP1 MLOAD SWAP2 DUP3 SWAP1 SUB PUSH1 0x20 SWAP1 DUP2 ADD DUP4 KECCAK256 PUSH2 0x140 DUP5 ADD DUP4 MSTORE DUP1 SLOAD PUSH1 0x1 PUSH1 0x1 PUSH1 0xA0 SHL SUB DUP2 AND DUP6 MSTORE PUSH1 0x1 PUSH1 0x1 PUSH1 0x40 SHL SUB PUSH1 0x1 PUSH1 0xA0 SHL SWAP1 SWAP2 DIV DUP2 AND DUP6 DUP5 ADD MSTORE PUSH1 0x1 DUP3 ADD SLOAD AND DUP5 DUP5 ADD MSTORE PUSH1 0x2 DUP2 ADD SLOAD PUSH1 0x60 DUP6 ADD MSTORE PUSH1 0x3 DUP2 ADD DUP1 SLOAD DUP5 MLOAD DUP2 DUP6 MUL DUP2 ADD DUP6 ADD SWAP1 SWAP6 MSTORE DUP1 DUP6 MSTORE SWAP2 SWAP4 PUSH1 0x80 DUP7 ADD SWAP4 SWAP1 SWAP3 SWAP1 DUP4 ADD DUP3 DUP3 DUP1 ISZERO PUSH2 0x2286 JUMPI PUSH1 0x20 MUL DUP3 ADD SWAP2 SWAP1 PUSH1 0x0 MSTORE PUSH1 0x20 PUSH1 0x0 KECCAK256 SWAP1 JUMPDEST DUP2 SLOAD DUP2 MSTORE PUSH1 0x20 ADD SWAP1 PUSH1 0x1 ADD SWAP1 DUP1 DUP4 GT PUSH2 0x2272 JUMPI JUMPDEST POP POP POP POP POP DUP2 MSTORE PUSH1 0x20 ADD PUSH1 0x4 DUP3 ADD DUP1 SLOAD DUP1 PUSH1 0x20 MUL PUSH1 0x20 ADD PUSH1 0x40 MLOAD SWAP1 DUP2 ADD PUSH1 0x40 MSTORE DUP1 SWAP3 SWAP2 SWAP1 DUP2 DUP2 MSTORE PUSH1 0x20 ADD DUP3 DUP1 SLOAD DUP1 ISZERO PUSH2 0x22E8 JUMPI PUSH1 0x20 MUL DUP3 ADD SWAP2 SWAP1 PUSH1 0x0 MSTORE PUSH1 0x20 PUSH1 0x0 KECCAK256 SWAP1 JUMPDEST DUP2 SLOAD PUSH1 0x1 PUSH1 0x1 PUSH1 0xA0 SHL SUB AND DUP2 MSTORE PUSH1 0x1 SWAP1 SWAP2 ADD SWAP1 PUSH1 0x20 ADD DUP1 DUP4 GT PUSH2 0x22CA JUMPI JUMPDEST POP POP POP SWAP2 DUP4 MSTORE POP POP PUSH1 0x40 DUP1 MLOAD PUSH1 0xC0 DUP2 ADD DUP3 MSTORE PUSH1 0x5 DUP5 ADD SLOAD PUSH1 0x1 PUSH1 0x1 PUSH1 0xA0 SHL SUB SWAP1 DUP2 AND DUP3 MSTORE PUSH1 0x6 DUP6 ADD SLOAD DUP2 AND PUSH1 0x20 DUP4 DUP2 ADD SWAP2 SWAP1 SWAP2 MSTORE PUSH1 0x7 DUP7 ADD SLOAD DUP1 DUP4 AND DUP5 DUP7 ADD MSTORE PUSH2 0xFFFF PUSH1 0x1 PUSH1 0xA0 SHL SWAP2 DUP3 SWAP1 DIV DUP2 AND PUSH1 0x60 DUP1 DUP8 ADD SWAP2 SWAP1 SWAP2 MSTORE PUSH1 0x8 DUP10 ADD SLOAD SWAP5 DUP6 AND PUSH1 0x80 DUP8 ADD MSTORE SWAP2 SWAP1 SWAP4 DIV SWAP1 SWAP3 AND PUSH1 0xA0 DUP5 ADD MSTORE DUP5 ADD SWAP2 SWAP1 SWAP2 MSTORE PUSH1 0x9 DUP5 ADD SLOAD PUSH1 0x1 PUSH1 0x1 PUSH1 0x40 SHL SUB DUP2 AND SWAP3 DUP5 ADD SWAP3 SWAP1 SWAP3 MSTORE SWAP1 SWAP2 ADD SWAP1 PUSH1 0xFF PUSH1 0x1 PUSH1 0x40 SHL SWAP1 SWAP2 DIV AND PUSH1 0x1 DUP2 GT ISZERO PUSH2 0x2394 JUMPI PUSH2 0x2394 PUSH2 0x4544 JUMP JUMPDEST PUSH1 0x1 DUP2 GT ISZERO PUSH2 0x23A5 JUMPI PUSH2 0x23A5 PUSH2 0x4544 JUMP JUMPDEST DUP2 MSTORE PUSH1 0x20 ADD PUSH1 0x9 DUP3 ADD PUSH1 0x9 SWAP1 SLOAD SWAP1 PUSH2 0x100 EXP SWAP1 DIV PUSH1 0xFF AND PUSH1 0x1 DUP2 GT ISZERO PUSH2 0x23CD JUMPI PUSH2 0x23CD PUSH2 0x4544 JUMP JUMPDEST PUSH1 0x1 DUP2 GT ISZERO PUSH2 0x23DE JUMPI PUSH2 0x23DE PUSH2 0x4544 JUMP JUMPDEST SWAP1 MSTORE POP PUSH1 0x20 DUP2 ADD MLOAD SWAP1 SWAP2 POP PUSH1 0x1 PUSH1 0x1 PUSH1 0x40 SHL SUB AND ISZERO DUP1 ISZERO PUSH2 0x240C JUMPI POP PUSH1 0x0 DUP2 PUSH1 0x40 ADD MLOAD PUSH1 0x1 PUSH1 0x1 PUSH1 0x40 SHL SUB AND GT JUMPDEST ISZERO PUSH2 0x2443 JUMPI DUP1 PUSH1 0x40 ADD MLOAD PUSH1 0x1 PUSH1 0x1 PUSH1 0x40 SHL SUB AND DUP10 GT ISZERO PUSH2 0x243E JUMPI PUSH1 0x40 MLOAD PUSH3 0x461BCD PUSH1 0xE5 SHL DUP2 MSTORE PUSH1 0x4 ADD PUSH2 0x60D SWAP1 PUSH2 0x5562 JUMP JUMPDEST PUSH2 0x2512 JUMP JUMPDEST PUSH1 0x0 DUP2 PUSH1 0x20 ADD MLOAD PUSH1 0x1 PUSH1 0x1 PUSH1 0x40 SHL SUB AND GT DUP1 ISZERO PUSH2 0x246B JUMPI POP PUSH1 0x40 DUP2 ADD MLOAD PUSH1 0x1 PUSH1 0x1 PUSH1 0x40 SHL SUB AND ISZERO JUMPDEST ISZERO PUSH2 0x249D JUMPI DUP1 PUSH1 0x20 ADD MLOAD PUSH1 0x1 PUSH1 0x1 PUSH1 0x40 SHL SUB AND DUP10 LT ISZERO PUSH2 0x243E JUMPI PUSH1 0x40 MLOAD PUSH3 0x461BCD PUSH1 0xE5 SHL DUP2 MSTORE PUSH1 0x4 ADD PUSH2 0x60D SWAP1 PUSH2 0x5562 JUMP JUMPDEST PUSH1 0x0 DUP2 PUSH1 0x20 ADD MLOAD PUSH1 0x1 PUSH1 0x1 PUSH1 0x40 SHL SUB AND GT DUP1 ISZERO PUSH2 0x24C7 JUMPI POP PUSH1 0x0 DUP2 PUSH1 0x40 ADD MLOAD PUSH1 0x1 PUSH1 0x1 PUSH1 0x40 SHL SUB AND GT JUMPDEST ISZERO PUSH2 0x2512 JUMPI DUP1 PUSH1 0x20 ADD MLOAD PUSH1 0x1 PUSH1 0x1 PUSH1 0x40 SHL SUB AND DUP10 LT ISZERO DUP1 ISZERO PUSH2 0x24F6 JUMPI POP DUP1 PUSH1 0x40 ADD MLOAD PUSH1 0x1 PUSH1 0x1 PUSH1 0x40 SHL SUB AND DUP10 GT ISZERO JUMPDEST PUSH2 0x2512 JUMPI PUSH1 0x40 MLOAD PUSH3 0x461BCD PUSH1 0xE5 SHL DUP2 MSTORE PUSH1 0x4 ADD PUSH2 0x60D SWAP1 PUSH2 0x5562 JUMP JUMPDEST DUP1 MLOAD SWAP2 POP PUSH1 0x0 DUP2 PUSH2 0x120 ADD MLOAD PUSH1 0x1 DUP2 GT ISZERO PUSH2 0x252F JUMPI PUSH2 0x252F PUSH2 0x4544 JUMP JUMPDEST SUB PUSH2 0x25B6 JUMPI PUSH1 0x8 SLOAD PUSH1 0x60 DUP3 ADD MLOAD PUSH1 0x40 MLOAD PUSH4 0x748060B PUSH1 0xE3 SHL DUP2 MSTORE PUSH1 0x4 DUP2 ADD SWAP2 SWAP1 SWAP2 MSTORE PUSH1 0x1 PUSH1 0x1 PUSH1 0xA0 SHL SUB DUP9 DUP2 AND PUSH1 0x24 DUP4 ADD MSTORE SWAP1 SWAP2 AND SWAP1 PUSH4 0x3A403058 SWAP1 PUSH1 0x44 ADD PUSH1 0x20 PUSH1 0x40 MLOAD DUP1 DUP4 SUB DUP2 DUP7 GAS STATICCALL ISZERO DUP1 ISZERO PUSH2 0x258B JUMPI RETURNDATASIZE PUSH1 0x0 DUP1 RETURNDATACOPY RETURNDATASIZE PUSH1 0x0 REVERT JUMPDEST POP POP POP POP PUSH1 0x40 MLOAD RETURNDATASIZE PUSH1 0x1F NOT PUSH1 0x1F DUP3 ADD AND DUP3 ADD DUP1 PUSH1 0x40 MSTORE POP DUP2 ADD SWAP1 PUSH2 0x25AF SWAP2 SWAP1 PUSH2 0x55D7 JUMP JUMPDEST SWAP3 POP PUSH2 0x2653 JUMP JUMPDEST PUSH1 0x1 DUP2 PUSH2 0x120 ADD MLOAD PUSH1 0x1 DUP2 GT ISZERO PUSH2 0x25CF JUMPI PUSH2 0x25CF PUSH2 0x4544 JUMP JUMPDEST SUB PUSH2 0x2653 JUMPI PUSH1 0x0 JUMPDEST DUP2 PUSH1 0xA0 ADD MLOAD MLOAD DUP2 LT ISZERO PUSH2 0x2651 JUMPI DUP7 PUSH1 0x1 PUSH1 0x1 PUSH1 0xA0 SHL SUB AND DUP3 PUSH1 0xA0 ADD MLOAD DUP3 DUP2 MLOAD DUP2 LT PUSH2 0x2604 JUMPI PUSH2 0x2604 PUSH2 0x4AF5 JUMP JUMPDEST PUSH1 0x20 MUL PUSH1 0x20 ADD ADD MLOAD PUSH1 0x1 PUSH1 0x1 PUSH1 0xA0 SHL SUB AND SUB PUSH2 0x263F JUMPI DUP2 PUSH1 0x80 ADD MLOAD DUP2 DUP2 MLOAD DUP2 LT PUSH2 0x2630 JUMPI PUSH2 0x2630 PUSH2 0x4AF5 JUMP JUMPDEST PUSH1 0x20 MUL PUSH1 0x20 ADD ADD MLOAD SWAP4 POP PUSH2 0x2651 JUMP JUMPDEST DUP1 PUSH2 0x2649 DUP2 PUSH2 0x4B21 JUMP JUMPDEST SWAP2 POP POP PUSH2 0x25D7 JUMP JUMPDEST POP JUMPDEST DUP3 PUSH1 0x0 SUB PUSH2 0x26BC JUMPI PUSH1 0x40 MLOAD PUSH3 0x461BCD PUSH1 0xE5 SHL DUP2 MSTORE PUSH1 0x20 PUSH1 0x4 DUP3 ADD MSTORE PUSH1 0x30 PUSH1 0x24 DUP3 ADD MSTORE PUSH32 0x506C656173652070726F766964652076616C696420737570706F727465642045 PUSH1 0x44 DUP3 ADD MSTORE PUSH16 0x524332302F4554482061646472657373 PUSH1 0x80 SHL PUSH1 0x64 DUP3 ADD MSTORE PUSH1 0x84 ADD PUSH2 0x60D JUMP JUMPDEST PUSH1 0x0 DUP2 PUSH2 0x100 ADD MLOAD PUSH1 0x1 DUP2 GT ISZERO PUSH2 0x26D5 JUMPI PUSH2 0x26D5 PUSH2 0x4544 JUMP JUMPDEST SUB PUSH2 0x292F JUMPI PUSH1 0x9 SLOAD PUSH1 0x1 PUSH1 0xA0 SHL SWAP1 DIV PUSH1 0x1 PUSH1 0x1 PUSH1 0x40 SHL SUB AND DUP8 GT ISZERO PUSH2 0x2798 JUMPI PUSH1 0x40 MLOAD PUSH3 0x461BCD PUSH1 0xE5 SHL DUP2 MSTORE PUSH1 0x20 PUSH1 0x4 DUP3 ADD MSTORE PUSH1 0x67 PUSH1 0x24 DUP3 ADD MSTORE PUSH32 0x546865206D6178696D756D207175616E7469747920616C6C6F77656420746F20 PUSH1 0x44 DUP3 ADD MSTORE PUSH32 0x7075726368617365206174206F6E652074696D652073686F756C64206E6F7420 PUSH1 0x64 DUP3 ADD MSTORE PUSH32 0x6265206D6F7265207468616E20646566696E656420696E206D61783131353551 PUSH1 0x84 DUP3 ADD MSTORE PUSH7 0x75616E74697479 PUSH1 0xC8 SHL PUSH1 0xA4 DUP3 ADD MSTORE PUSH1 0xC4 ADD PUSH2 0x60D JUMP JUMPDEST PUSH1 0x40 MLOAD PUSH4 0x1FFC9A7 PUSH1 0xE0 SHL DUP2 MSTORE PUSH1 0x1 PUSH1 0x1 PUSH1 0xA0 SHL SUB DUP4 AND SWAP1 PUSH4 0x1FFC9A7 SWAP1 PUSH2 0x27CB SWAP1 PUSH4 0x80AC58CD PUSH1 0xE0 SHL SWAP1 PUSH1 0x4 ADD PUSH2 0x4F0E JUMP JUMPDEST PUSH1 0x20 PUSH1 0x40 MLOAD DUP1 DUP4 SUB DUP2 DUP7 GAS STATICCALL ISZERO DUP1 ISZERO PUSH2 0x27E8 JUMPI RETURNDATASIZE PUSH1 0x0 DUP1 RETURNDATACOPY RETURNDATASIZE PUSH1 0x0 REVERT JUMPDEST POP POP POP POP PUSH1 0x40 MLOAD RETURNDATASIZE PUSH1 0x1F NOT PUSH1 0x1F DUP3 ADD AND DUP3 ADD DUP1 PUSH1 0x40 MSTORE POP DUP2 ADD SWAP1 PUSH2 0x280C SWAP2 SWAP1 PUSH2 0x4F23 JUMP JUMPDEST ISZERO PUSH2 0x2822 JUMPI PUSH2 0x281B DUP9 DUP5 PUSH2 0x4F7F JUMP JUMPDEST SWAP3 POP PUSH2 0x295A JUMP JUMPDEST PUSH1 0x40 MLOAD PUSH4 0x1FFC9A7 PUSH1 0xE0 SHL DUP2 MSTORE PUSH1 0x1 PUSH1 0x1 PUSH1 0xA0 SHL SUB DUP4 AND SWAP1 PUSH4 0x1FFC9A7 SWAP1 PUSH2 0x2855 SWAP1 PUSH4 0x6CDB3D13 PUSH1 0xE1 SHL SWAP1 PUSH1 0x4 ADD PUSH2 0x4F0E JUMP JUMPDEST PUSH1 0x20 PUSH1 0x40 MLOAD DUP1 DUP4 SUB DUP2 DUP7 GAS STATICCALL ISZERO DUP1 ISZERO PUSH2 0x2872 JUMPI RETURNDATASIZE PUSH1 0x0 DUP1 RETURNDATACOPY RETURNDATASIZE PUSH1 0x0 REVERT JUMPDEST POP POP POP POP PUSH1 0x40 MLOAD RETURNDATASIZE PUSH1 0x1F NOT PUSH1 0x1F DUP3 ADD AND DUP3 ADD DUP1 PUSH1 0x40 MSTORE POP DUP2 ADD SWAP1 PUSH2 0x2896 SWAP2 SWAP1 PUSH2 0x4F23 JUMP JUMPDEST ISZERO PUSH2 0x292A JUMPI PUSH1 0x40 MLOAD PUSH4 0xBD85B039 PUSH1 0xE0 SHL DUP2 MSTORE PUSH1 0x4 DUP2 ADD DUP11 SWAP1 MSTORE PUSH1 0x1 PUSH1 0x1 PUSH1 0xA0 SHL SUB DUP4 AND SWAP1 PUSH4 0xBD85B039 SWAP1 PUSH1 0x24 ADD PUSH1 0x20 PUSH1 0x40 MLOAD DUP1 DUP4 SUB DUP2 DUP7 GAS STATICCALL ISZERO DUP1 ISZERO PUSH2 0x28E0 JUMPI RETURNDATASIZE PUSH1 0x0 DUP1 RETURNDATACOPY RETURNDATASIZE PUSH1 0x0 REVERT JUMPDEST POP POP POP POP PUSH1 0x40 MLOAD RETURNDATASIZE PUSH1 0x1F NOT PUSH1 0x1F DUP3 ADD AND DUP3 ADD DUP1 PUSH1 0x40 MSTORE POP DUP2 ADD SWAP1 PUSH2 0x2904 SWAP2 SWAP1 PUSH2 0x55D7 JUMP JUMPDEST PUSH1 0x0 SUB PUSH2 0x2920 JUMPI DUP7 PUSH2 0x2916 DUP10 DUP6 PUSH2 0x4F7F JUMP JUMPDEST PUSH2 0x281B SWAP2 SWAP1 PUSH2 0x4F7F JUMP JUMPDEST PUSH2 0x281B DUP8 DUP5 PUSH2 0x4F7F JUMP JUMPDEST PUSH2 0x295A JUMP JUMPDEST PUSH1 0x1 DUP2 PUSH2 0x100 ADD MLOAD PUSH1 0x1 DUP2 GT ISZERO PUSH2 0x2948 JUMPI PUSH2 0x2948 PUSH2 0x4544 JUMP JUMPDEST SUB PUSH2 0x295A JUMPI PUSH2 0x2957 DUP8 DUP5 PUSH2 0x4F7F JUMP JUMPDEST SWAP3 POP JUMPDEST PUSH1 0x1 PUSH1 0x1 PUSH1 0xA0 SHL SUB DUP7 AND PUSH2 0x2A1F JUMPI DUP5 CALLVALUE EQ DUP1 ISZERO PUSH2 0x2977 JUMPI POP DUP3 DUP6 LT ISZERO JUMPDEST PUSH2 0x2A1A JUMPI PUSH1 0x40 MLOAD PUSH3 0x461BCD PUSH1 0xE5 SHL DUP2 MSTORE PUSH1 0x20 PUSH1 0x4 DUP3 ADD MSTORE PUSH1 0x62 PUSH1 0x24 DUP3 ADD MSTORE PUSH32 0x496E73756666696369656E742066756E6473206F7220696E76616C696420616D PUSH1 0x44 DUP3 ADD MSTORE PUSH32 0x6F756E742E20596F75206E65656420746F207061737320612076616C69642061 PUSH1 0x64 DUP3 ADD MSTORE PUSH32 0x6D6F756E7420746F20636F6D706C6574652074686973207472616E7361637469 PUSH1 0x84 DUP3 ADD MSTORE PUSH2 0x37B7 PUSH1 0xF1 SHL PUSH1 0xA4 DUP3 ADD MSTORE PUSH1 0xC4 ADD PUSH2 0x60D JUMP JUMPDEST PUSH2 0x2C3F JUMP JUMPDEST PUSH1 0x40 MLOAD PUSH4 0x70A08231 PUSH1 0xE0 SHL DUP2 MSTORE PUSH1 0x1 PUSH1 0x1 PUSH1 0xA0 SHL SUB DUP6 DUP2 AND PUSH1 0x4 DUP4 ADD MSTORE DUP7 SWAP2 SWAP1 DUP9 AND SWAP1 PUSH4 0x70A08231 SWAP1 PUSH1 0x24 ADD PUSH1 0x20 PUSH1 0x40 MLOAD DUP1 DUP4 SUB DUP2 DUP7 GAS STATICCALL ISZERO DUP1 ISZERO PUSH2 0x2A68 JUMPI RETURNDATASIZE PUSH1 0x0 DUP1 RETURNDATACOPY RETURNDATASIZE PUSH1 0x0 REVERT JUMPDEST POP POP POP POP PUSH1 0x40 MLOAD RETURNDATASIZE PUSH1 0x1F NOT PUSH1 0x1F DUP3 ADD AND DUP3 ADD DUP1 PUSH1 0x40 MSTORE POP DUP2 ADD SWAP1 PUSH2 0x2A8C SWAP2 SWAP1 PUSH2 0x55D7 JUMP JUMPDEST LT ISZERO DUP1 ISZERO PUSH2 0x2A9A JUMPI POP DUP3 DUP6 LT ISZERO JUMPDEST PUSH2 0x2B28 JUMPI PUSH1 0x40 MLOAD PUSH3 0x461BCD PUSH1 0xE5 SHL DUP2 MSTORE PUSH1 0x20 PUSH1 0x4 DUP3 ADD MSTORE PUSH1 0x53 PUSH1 0x24 DUP3 ADD MSTORE PUSH32 0x496E73756666696369656E742066756E64732E20596F752073686F756C642068 PUSH1 0x44 DUP3 ADD MSTORE PUSH32 0x6176652073756666696369656E742062616C616E636520746F20636F6D706C65 PUSH1 0x64 DUP3 ADD MSTORE PUSH19 0x3A32903A3434B9903A3930B739B0B1BA34B7B7 PUSH1 0x69 SHL PUSH1 0x84 DUP3 ADD MSTORE PUSH1 0xA4 ADD PUSH2 0x60D JUMP JUMPDEST PUSH1 0x40 MLOAD PUSH4 0x6EB1769F PUSH1 0xE1 SHL DUP2 MSTORE PUSH1 0x1 PUSH1 0x1 PUSH1 0xA0 SHL SUB DUP6 DUP2 AND PUSH1 0x4 DUP4 ADD MSTORE ADDRESS PUSH1 0x24 DUP4 ADD MSTORE DUP7 SWAP2 SWAP1 DUP9 AND SWAP1 PUSH4 0xDD62ED3E SWAP1 PUSH1 0x44 ADD PUSH1 0x20 PUSH1 0x40 MLOAD DUP1 DUP4 SUB DUP2 DUP7 GAS STATICCALL ISZERO DUP1 ISZERO PUSH2 0x2B77 JUMPI RETURNDATASIZE PUSH1 0x0 DUP1 RETURNDATACOPY RETURNDATASIZE PUSH1 0x0 REVERT JUMPDEST POP POP POP POP PUSH1 0x40 MLOAD RETURNDATASIZE PUSH1 0x1F NOT PUSH1 0x1F DUP3 ADD AND DUP3 ADD DUP1 PUSH1 0x40 MSTORE POP DUP2 ADD SWAP1 PUSH2 0x2B9B SWAP2 SWAP1 PUSH2 0x55D7 JUMP JUMPDEST LT ISZERO PUSH2 0x2C3F JUMPI PUSH1 0x40 MLOAD PUSH3 0x461BCD PUSH1 0xE5 SHL DUP2 MSTORE PUSH1 0x20 PUSH1 0x4 DUP3 ADD MSTORE PUSH1 0x61 PUSH1 0x24 DUP3 ADD MSTORE PUSH32 0x496E73756666696369656E7420617070726F76616C2066726F6D20616E204552 PUSH1 0x44 DUP3 ADD MSTORE PUSH32 0x43323020546F6B656E2E20506C656173652070726F7669646520617070726F76 PUSH1 0x64 DUP3 ADD MSTORE PUSH32 0x616C20746F207468697320636F6E747261637420616E64207472792061676169 PUSH1 0x84 DUP3 ADD MSTORE PUSH1 0x37 PUSH1 0xF9 SHL PUSH1 0xA4 DUP3 ADD MSTORE PUSH1 0xC4 ADD PUSH2 0x60D JUMP JUMPDEST POP SWAP8 POP SWAP8 SWAP6 POP POP POP POP POP POP JUMP JUMPDEST PUSH1 0x40 MLOAD PUSH4 0x1FFC9A7 PUSH1 0xE0 SHL DUP2 MSTORE PUSH1 0x60 SWAP1 PUSH1 0x1 PUSH1 0x1 PUSH1 0xA0 SHL SUB DUP9 AND SWAP1 PUSH4 0x1FFC9A7 SWAP1 PUSH2 0x2C82 SWAP1 PUSH4 0x80AC58CD PUSH1 0xE0 SHL SWAP1 PUSH1 0x4 ADD PUSH2 0x4F0E JUMP JUMPDEST PUSH1 0x20 PUSH1 0x40 MLOAD DUP1 DUP4 SUB DUP2 DUP7 GAS STATICCALL ISZERO DUP1 ISZERO PUSH2 0x2C9F JUMPI RETURNDATASIZE PUSH1 0x0 DUP1 RETURNDATACOPY RETURNDATASIZE PUSH1 0x0 REVERT JUMPDEST POP POP POP POP PUSH1 0x40 MLOAD RETURNDATASIZE PUSH1 0x1F NOT PUSH1 0x1F DUP3 ADD AND DUP3 ADD DUP1 PUSH1 0x40 MSTORE POP DUP2 ADD SWAP1 PUSH2 0x2CC3 SWAP2 SWAP1 PUSH2 0x4F23 JUMP JUMPDEST ISZERO PUSH2 0x302D JUMPI PUSH1 0x1 DUP3 PUSH1 0x1 DUP2 GT ISZERO PUSH2 0x2CDC JUMPI PUSH2 0x2CDC PUSH2 0x4544 JUMP JUMPDEST SUB PUSH2 0x2E32 JUMPI PUSH1 0x40 MLOAD PUSH4 0x31A9108F PUSH1 0xE1 SHL DUP2 MSTORE PUSH1 0x4 DUP2 ADD DUP7 SWAP1 MSTORE PUSH1 0x1 PUSH1 0x1 PUSH1 0xA0 SHL SUB DUP1 DUP11 AND SWAP2 SWAP1 DUP10 AND SWAP1 PUSH4 0x6352211E SWAP1 PUSH1 0x24 ADD PUSH1 0x20 PUSH1 0x40 MLOAD DUP1 DUP4 SUB DUP2 DUP7 GAS STATICCALL ISZERO DUP1 ISZERO PUSH2 0x2D2B JUMPI RETURNDATASIZE PUSH1 0x0 DUP1 RETURNDATACOPY RETURNDATASIZE PUSH1 0x0 REVERT JUMPDEST POP POP POP POP PUSH1 0x40 MLOAD RETURNDATASIZE PUSH1 0x1F NOT PUSH1 0x1F DUP3 ADD AND DUP3 ADD DUP1 PUSH1 0x40 MSTORE POP DUP2 ADD SWAP1 PUSH2 0x2D4F SWAP2 SWAP1 PUSH2 0x55F0 JUMP JUMPDEST PUSH1 0x1 PUSH1 0x1 PUSH1 0xA0 SHL SUB AND EQ PUSH2 0x2DC3 JUMPI PUSH1 0x40 MLOAD PUSH3 0x461BCD PUSH1 0xE5 SHL DUP2 MSTORE PUSH1 0x20 PUSH1 0x4 DUP3 ADD MSTORE PUSH1 0x35 PUSH1 0x24 DUP3 ADD MSTORE PUSH32 0x496E76616C6964204E4654204F776E657220416464726573732E20506C656173 PUSH1 0x44 DUP3 ADD MSTORE PUSH21 0x329031B432B1B59030B732103A393C9030B3B0B4B7 PUSH1 0x59 SHL PUSH1 0x64 DUP3 ADD MSTORE PUSH1 0x84 ADD PUSH2 0x60D JUMP JUMPDEST PUSH1 0x40 MLOAD PUSH4 0x21421707 PUSH1 0xE1 SHL DUP2 MSTORE PUSH1 0x1 PUSH1 0x1 PUSH1 0xA0 SHL SUB DUP10 DUP2 AND PUSH1 0x4 DUP4 ADD MSTORE DUP8 DUP2 AND PUSH1 0x24 DUP4 ADD MSTORE PUSH1 0x44 DUP3 ADD DUP8 SWAP1 MSTORE DUP9 AND SWAP1 PUSH4 0x42842E0E SWAP1 PUSH1 0x64 ADD PUSH1 0x0 PUSH1 0x40 MLOAD DUP1 DUP4 SUB DUP2 PUSH1 0x0 DUP8 DUP1 EXTCODESIZE ISZERO DUP1 ISZERO PUSH2 0x2E15 JUMPI PUSH1 0x0 DUP1 REVERT JUMPDEST POP GAS CALL ISZERO DUP1 ISZERO PUSH2 0x2E29 JUMPI RETURNDATASIZE PUSH1 0x0 DUP1 RETURNDATACOPY RETURNDATASIZE PUSH1 0x0 REVERT JUMPDEST POP POP POP POP PUSH2 0x36A0 JUMP JUMPDEST PUSH1 0x0 DUP3 PUSH1 0x1 DUP2 GT ISZERO PUSH2 0x2E46 JUMPI PUSH2 0x2E46 PUSH2 0x4544 JUMP JUMPDEST SUB PUSH2 0x3028 JUMPI PUSH1 0x4 DUP10 PUSH1 0x40 MLOAD PUSH2 0x2E5B SWAP2 SWAP1 PUSH2 0x4A08 JUMP JUMPDEST SWAP1 DUP2 MSTORE PUSH1 0x40 MLOAD SWAP1 DUP2 SWAP1 SUB PUSH1 0x20 ADD DUP2 KECCAK256 PUSH1 0x9 ADD SLOAD PUSH1 0x1 PUSH1 0x1 PUSH1 0x40 SHL SUB AND SWAP1 DUP6 SWAP1 PUSH1 0x5 SWAP1 PUSH2 0x2E88 SWAP1 DUP14 SWAP1 PUSH2 0x4A08 JUMP JUMPDEST SWAP1 DUP2 MSTORE PUSH1 0x20 ADD PUSH1 0x40 MLOAD DUP1 SWAP2 SUB SWAP1 KECCAK256 SLOAD PUSH2 0x2EA1 SWAP2 SWAP1 PUSH2 0x4CB6 JUMP JUMPDEST GT ISZERO PUSH2 0x2F61 JUMPI PUSH1 0x40 MLOAD PUSH3 0x461BCD PUSH1 0xE5 SHL DUP2 MSTORE PUSH1 0x20 PUSH1 0x4 DUP3 ADD MSTORE PUSH1 0x77 PUSH1 0x24 DUP3 ADD MSTORE PUSH32 0x546865206D6178696D756D207175616E7469747920616C6C6F77656420746F20 PUSH1 0x44 DUP3 ADD MSTORE PUSH32 0x70757263686173652045524337323120746F6B656E20686173206265656E2073 PUSH1 0x64 DUP3 ADD MSTORE PUSH32 0x6F6C64206F75742E20506C6561736520636F6E74616374207468652073616C65 PUSH1 0x84 DUP3 ADD MSTORE PUSH32 0x206F776E657220666F72206D6F72652064657461696C73000000000000000000 PUSH1 0xA4 DUP3 ADD MSTORE PUSH1 0xC4 ADD PUSH2 0x60D JUMP JUMPDEST PUSH1 0x40 MLOAD PUSH4 0xE00AAB4B PUSH1 0xE0 SHL DUP2 MSTORE PUSH1 0x1 PUSH1 0x1 PUSH1 0xA0 SHL SUB DUP8 DUP2 AND PUSH1 0x4 DUP4 ADD MSTORE PUSH2 0xFFFF DUP7 AND PUSH1 0x24 DUP4 ADD MSTORE DUP9 AND SWAP1 PUSH4 0xE00AAB4B SWAP1 PUSH1 0x44 ADD PUSH1 0x0 PUSH1 0x40 MLOAD DUP1 DUP4 SUB DUP2 PUSH1 0x0 DUP8 GAS CALL ISZERO DUP1 ISZERO PUSH2 0x2FB3 JUMPI RETURNDATASIZE PUSH1 0x0 DUP1 RETURNDATACOPY RETURNDATASIZE PUSH1 0x0 REVERT JUMPDEST POP POP POP POP PUSH1 0x40 MLOAD RETURNDATASIZE PUSH1 0x0 DUP3 RETURNDATACOPY PUSH1 0x1F RETURNDATASIZE SWAP1 DUP2 ADD PUSH1 0x1F NOT AND DUP3 ADD PUSH1 0x40 MSTORE PUSH2 0x2FDB SWAP2 SWAP1 DUP2 ADD SWAP1 PUSH2 0x560D JUMP JUMPDEST SWAP1 POP DUP4 PUSH1 0x5 DUP11 PUSH1 0x40 MLOAD PUSH2 0x2FEE SWAP2 SWAP1 PUSH2 0x4A08 JUMP JUMPDEST SWAP1 DUP2 MSTORE PUSH1 0x20 ADD PUSH1 0x40 MLOAD DUP1 SWAP2 SUB SWAP1 KECCAK256 SLOAD PUSH2 0x3007 SWAP2 SWAP1 PUSH2 0x4CB6 JUMP JUMPDEST PUSH1 0x5 DUP11 PUSH1 0x40 MLOAD PUSH2 0x3017 SWAP2 SWAP1 PUSH2 0x4A08 JUMP JUMPDEST SWAP1 DUP2 MSTORE PUSH1 0x40 MLOAD SWAP1 DUP2 SWAP1 SUB PUSH1 0x20 ADD SWAP1 KECCAK256 SSTORE JUMPDEST PUSH2 0x36A0 JUMP JUMPDEST PUSH1 0x40 MLOAD PUSH4 0x1FFC9A7 PUSH1 0xE0 SHL DUP2 MSTORE PUSH1 0x1 PUSH1 0x1 PUSH1 0xA0 SHL SUB DUP9 AND SWAP1 PUSH4 0x1FFC9A7 SWAP1 PUSH2 0x3060 SWAP1 PUSH4 0x6CDB3D13 PUSH1 0xE1 SHL SWAP1 PUSH1 0x4 ADD PUSH2 0x4F0E JUMP JUMPDEST PUSH1 0x20 PUSH1 0x40 MLOAD DUP1 DUP4 SUB DUP2 DUP7 GAS STATICCALL ISZERO DUP1 ISZERO PUSH2 0x307D JUMPI RETURNDATASIZE PUSH1 0x0 DUP1 RETURNDATACOPY RETURNDATASIZE PUSH1 0x0 REVERT JUMPDEST POP POP POP POP PUSH1 0x40 MLOAD RETURNDATASIZE PUSH1 0x1F NOT PUSH1 0x1F DUP3 ADD AND DUP3 ADD DUP1 PUSH1 0x40 MSTORE POP DUP2 ADD SWAP1 PUSH2 0x30A1 SWAP2 SWAP1 PUSH2 0x4F23 JUMP JUMPDEST ISZERO PUSH2 0x36A0 JUMPI PUSH1 0x1 DUP3 PUSH1 0x1 DUP2 GT ISZERO PUSH2 0x30BA JUMPI PUSH2 0x30BA PUSH2 0x4544 JUMP JUMPDEST SUB PUSH2 0x3232 JUMPI PUSH1 0x40 MLOAD PUSH3 0x7EEAC7 PUSH1 0xE1 SHL DUP2 MSTORE PUSH1 0x1 PUSH1 0x1 PUSH1 0xA0 SHL SUB DUP10 DUP2 AND PUSH1 0x4 DUP4 ADD MSTORE PUSH1 0x24 DUP3 ADD DUP8 SWAP1 MSTORE PUSH1 0x0 SWAP2 SWAP1 DUP10 AND SWAP1 PUSH3 0xFDD58E SWAP1 PUSH1 0x44 ADD PUSH1 0x20 PUSH1 0x40 MLOAD DUP1 DUP4 SUB DUP2 DUP7 GAS STATICCALL ISZERO DUP1 ISZERO PUSH2 0x310E JUMPI RETURNDATASIZE PUSH1 0x0 DUP1 RETURNDATACOPY RETURNDATASIZE PUSH1 0x0 REVERT JUMPDEST POP POP POP POP PUSH1 0x40 MLOAD RETURNDATASIZE PUSH1 0x1F NOT PUSH1 0x1F DUP3 ADD AND DUP3 ADD DUP1 PUSH1 0x40 MSTORE POP DUP2 ADD SWAP1 PUSH2 0x3132 SWAP2 SWAP1 PUSH2 0x55D7 JUMP JUMPDEST SWAP1 POP DUP1 DUP5 GT ISZERO DUP1 ISZERO PUSH2 0x3144 JUMPI POP PUSH1 0x0 DUP5 GT JUMPDEST PUSH2 0x31A2 JUMPI PUSH1 0x40 MLOAD PUSH3 0x461BCD PUSH1 0xE5 SHL DUP2 MSTORE PUSH1 0x20 PUSH1 0x4 DUP3 ADD MSTORE PUSH1 0x29 PUSH1 0x24 DUP3 ADD MSTORE PUSH32 0x496E73756666696369656E7420746F6B656E2062616C616E63652066726F6D20 PUSH1 0x44 DUP3 ADD MSTORE PUSH9 0x3A34329037BBB732B9 PUSH1 0xB9 SHL PUSH1 0x64 DUP3 ADD MSTORE PUSH1 0x84 ADD PUSH2 0x60D JUMP JUMPDEST PUSH1 0x40 MLOAD PUSH4 0x79212195 PUSH1 0xE1 SHL DUP2 MSTORE PUSH1 0x1 PUSH1 0x1 PUSH1 0xA0 SHL SUB DUP11 DUP2 AND PUSH1 0x4 DUP4 ADD MSTORE DUP9 DUP2 AND PUSH1 0x24 DUP4 ADD MSTORE PUSH1 0x44 DUP3 ADD DUP9 SWAP1 MSTORE PUSH1 0x64 DUP3 ADD DUP7 SWAP1 MSTORE PUSH1 0xA0 PUSH1 0x84 DUP4 ADD MSTORE PUSH1 0x2 PUSH1 0xA4 DUP4 ADD MSTORE PUSH2 0x60F PUSH1 0xF3 SHL PUSH1 0xC4 DUP4 ADD MSTORE DUP10 AND SWAP1 PUSH4 0xF242432A SWAP1 PUSH1 0xE4 ADD PUSH1 0x0 PUSH1 0x40 MLOAD DUP1 DUP4 SUB DUP2 PUSH1 0x0 DUP8 DUP1 EXTCODESIZE ISZERO DUP1 ISZERO PUSH2 0x3214 JUMPI PUSH1 0x0 DUP1 REVERT JUMPDEST POP GAS CALL ISZERO DUP1 ISZERO PUSH2 0x3228 JUMPI RETURNDATASIZE PUSH1 0x0 DUP1 RETURNDATACOPY RETURNDATASIZE PUSH1 0x0 REVERT JUMPDEST POP POP POP POP POP PUSH2 0x36A0 JUMP JUMPDEST PUSH1 0x0 DUP3 PUSH1 0x1 DUP2 GT ISZERO PUSH2 0x3246 JUMPI PUSH2 0x3246 PUSH2 0x4544 JUMP JUMPDEST SUB PUSH2 0x36A0 JUMPI PUSH1 0x40 DUP1 MLOAD PUSH1 0x1 DUP1 DUP3 MSTORE DUP2 DUP4 ADD SWAP1 SWAP3 MSTORE PUSH1 0x0 SWAP2 PUSH1 0x20 DUP1 DUP4 ADD SWAP1 DUP1 CALLDATASIZE DUP4 CALLDATACOPY ADD SWAP1 POP POP SWAP1 POP PUSH1 0x0 DUP6 PUSH1 0x1 PUSH1 0x1 PUSH1 0x40 SHL SUB DUP2 GT ISZERO PUSH2 0x3287 JUMPI PUSH2 0x3287 PUSH2 0x42CB JUMP JUMPDEST PUSH1 0x40 MLOAD SWAP1 DUP1 DUP3 MSTORE DUP1 PUSH1 0x20 MUL PUSH1 0x20 ADD DUP3 ADD PUSH1 0x40 MSTORE DUP1 ISZERO PUSH2 0x32B0 JUMPI DUP2 PUSH1 0x20 ADD PUSH1 0x20 DUP3 MUL DUP1 CALLDATASIZE DUP4 CALLDATACOPY ADD SWAP1 POP JUMPDEST POP SWAP1 POP PUSH1 0x60 DUP9 DUP4 PUSH1 0x0 DUP2 MLOAD DUP2 LT PUSH2 0x32C9 JUMPI PUSH2 0x32C9 PUSH2 0x4AF5 JUMP JUMPDEST PUSH1 0x20 MUL PUSH1 0x20 ADD ADD SWAP1 PUSH1 0x1 PUSH1 0x1 PUSH1 0xA0 SHL SUB AND SWAP1 DUP2 PUSH1 0x1 PUSH1 0x1 PUSH1 0xA0 SHL SUB AND DUP2 MSTORE POP POP DUP6 DUP3 PUSH1 0x0 DUP2 MLOAD DUP2 LT PUSH2 0x32FD JUMPI PUSH2 0x32FD PUSH2 0x4AF5 JUMP JUMPDEST PUSH1 0x20 SWAP1 DUP2 MUL SWAP2 SWAP1 SWAP2 ADD ADD MSTORE PUSH1 0x40 MLOAD PUSH4 0xBD85B039 PUSH1 0xE0 SHL DUP2 MSTORE PUSH1 0x4 DUP2 ADD DUP10 SWAP1 MSTORE PUSH1 0x1 PUSH1 0x1 PUSH1 0xA0 SHL SUB DUP12 AND SWAP1 PUSH4 0xBD85B039 SWAP1 PUSH1 0x24 ADD PUSH1 0x20 PUSH1 0x40 MLOAD DUP1 DUP4 SUB DUP2 DUP7 GAS STATICCALL ISZERO DUP1 ISZERO PUSH2 0x334D JUMPI RETURNDATASIZE PUSH1 0x0 DUP1 RETURNDATACOPY RETURNDATASIZE PUSH1 0x0 REVERT JUMPDEST POP POP POP POP PUSH1 0x40 MLOAD RETURNDATASIZE PUSH1 0x1F NOT PUSH1 0x1F DUP3 ADD AND DUP3 ADD DUP1 PUSH1 0x40 MSTORE POP DUP2 ADD SWAP1 PUSH2 0x3371 SWAP2 SWAP1 PUSH2 0x55D7 JUMP JUMPDEST PUSH1 0x0 SUB PUSH2 0x3585 JUMPI PUSH1 0x4 DUP13 PUSH1 0x40 MLOAD PUSH2 0x3388 SWAP2 SWAP1 PUSH2 0x4A08 JUMP JUMPDEST SWAP1 DUP2 MSTORE PUSH1 0x40 MLOAD SWAP1 DUP2 SWAP1 SUB PUSH1 0x20 ADD DUP2 KECCAK256 PUSH1 0x9 ADD SLOAD PUSH1 0x1 PUSH1 0x1 PUSH1 0x40 SHL SUB AND SWAP1 PUSH1 0x5 SWAP1 PUSH2 0x33B3 SWAP1 DUP16 SWAP1 PUSH2 0x4A08 JUMP JUMPDEST SWAP1 DUP2 MSTORE PUSH1 0x20 ADD PUSH1 0x40 MLOAD DUP1 SWAP2 SUB SWAP1 KECCAK256 SLOAD LT PUSH2 0x3481 JUMPI PUSH1 0x40 MLOAD PUSH3 0x461BCD PUSH1 0xE5 SHL DUP2 MSTORE PUSH1 0x20 PUSH1 0x4 DUP3 ADD MSTORE PUSH1 0x78 PUSH1 0x24 DUP3 ADD MSTORE PUSH32 0x546865206D6178696D756D207175616E7469747920616C6C6F77656420746F20 PUSH1 0x44 DUP3 ADD MSTORE PUSH32 0x7075726368617365204552433131353520746F6B656E20686173206265656E20 PUSH1 0x64 DUP3 ADD MSTORE PUSH32 0x736F6C64206F75742E20506C6561736520636F6E74616374207468652073616C PUSH1 0x84 DUP3 ADD MSTORE PUSH32 0x65206F776E657220666F72206D6F72652064657461696C730000000000000000 PUSH1 0xA4 DUP3 ADD MSTORE PUSH1 0xC4 ADD PUSH2 0x60D JUMP JUMPDEST PUSH1 0x0 JUMPDEST DUP8 DUP2 LT ISZERO PUSH2 0x34BC JUMPI DUP7 DUP4 DUP3 DUP2 MLOAD DUP2 LT PUSH2 0x349F JUMPI PUSH2 0x349F PUSH2 0x4AF5 JUMP JUMPDEST PUSH1 0x20 SWAP1 DUP2 MUL SWAP2 SWAP1 SWAP2 ADD ADD MSTORE DUP1 PUSH2 0x34B4 DUP2 PUSH2 0x4B21 JUMP JUMPDEST SWAP2 POP POP PUSH2 0x3484 JUMP JUMPDEST POP PUSH1 0x40 MLOAD PUSH4 0x46374239 PUSH1 0xE1 SHL DUP2 MSTORE PUSH1 0x1 PUSH1 0x1 PUSH1 0xA0 SHL SUB DUP12 AND SWAP1 PUSH4 0x8C6E8472 SWAP1 PUSH2 0x34ED SWAP1 DUP7 SWAP1 DUP7 SWAP1 DUP7 SWAP1 PUSH1 0x4 ADD PUSH2 0x5641 JUMP JUMPDEST PUSH1 0x0 PUSH1 0x40 MLOAD DUP1 DUP4 SUB DUP2 PUSH1 0x0 DUP8 GAS CALL ISZERO DUP1 ISZERO PUSH2 0x350C JUMPI RETURNDATASIZE PUSH1 0x0 DUP1 RETURNDATACOPY RETURNDATASIZE PUSH1 0x0 REVERT JUMPDEST POP POP POP POP PUSH1 0x40 MLOAD RETURNDATASIZE PUSH1 0x0 DUP3 RETURNDATACOPY PUSH1 0x1F RETURNDATASIZE SWAP1 DUP2 ADD PUSH1 0x1F NOT AND DUP3 ADD PUSH1 0x40 MSTORE PUSH2 0x3534 SWAP2 SWAP1 DUP2 ADD SWAP1 PUSH2 0x560D JUMP JUMPDEST SWAP4 POP DUP7 PUSH1 0x5 DUP14 PUSH1 0x40 MLOAD PUSH2 0x3547 SWAP2 SWAP1 PUSH2 0x4A08 JUMP JUMPDEST SWAP1 DUP2 MSTORE PUSH1 0x20 ADD PUSH1 0x40 MLOAD DUP1 SWAP2 SUB SWAP1 KECCAK256 SLOAD PUSH2 0x3560 SWAP2 SWAP1 PUSH2 0x4CB6 JUMP JUMPDEST PUSH1 0x5 DUP14 PUSH1 0x40 MLOAD PUSH2 0x3570 SWAP2 SWAP1 PUSH2 0x4A08 JUMP JUMPDEST SWAP1 DUP2 MSTORE PUSH1 0x40 MLOAD SWAP1 DUP2 SWAP1 SUB PUSH1 0x20 ADD SWAP1 KECCAK256 SSTORE PUSH2 0x369C JUMP JUMPDEST PUSH1 0x40 MLOAD PUSH4 0xBD85B039 PUSH1 0xE0 SHL DUP2 MSTORE PUSH1 0x4 DUP2 ADD DUP10 SWAP1 MSTORE PUSH1 0x0 SWAP1 PUSH1 0x1 PUSH1 0x1 PUSH1 0xA0 SHL SUB DUP13 AND SWAP1 PUSH4 0xBD85B039 SWAP1 PUSH1 0x24 ADD PUSH1 0x20 PUSH1 0x40 MLOAD DUP1 DUP4 SUB DUP2 DUP7 GAS STATICCALL ISZERO DUP1 ISZERO PUSH2 0x35CD JUMPI RETURNDATASIZE PUSH1 0x0 DUP1 RETURNDATACOPY RETURNDATASIZE PUSH1 0x0 REVERT JUMPDEST POP POP POP POP PUSH1 0x40 MLOAD RETURNDATASIZE PUSH1 0x1F NOT PUSH1 0x1F DUP3 ADD AND DUP3 ADD DUP1 PUSH1 0x40 MSTORE POP DUP2 ADD SWAP1 PUSH2 0x35F1 SWAP2 SWAP1 PUSH2 0x55D7 JUMP JUMPDEST GT ISZERO PUSH2 0x369C JUMPI PUSH1 0x40 DUP1 MLOAD PUSH1 0x1 DUP1 DUP3 MSTORE DUP2 DUP4 ADD SWAP1 SWAP3 MSTORE PUSH1 0x0 SWAP2 PUSH1 0x20 DUP1 DUP4 ADD SWAP1 DUP1 CALLDATASIZE DUP4 CALLDATACOPY ADD SWAP1 POP POP SWAP1 POP DUP9 DUP2 PUSH1 0x0 DUP2 MLOAD DUP2 LT PUSH2 0x362D JUMPI PUSH2 0x362D PUSH2 0x4AF5 JUMP JUMPDEST PUSH1 0x20 SWAP1 DUP2 MUL SWAP2 SWAP1 SWAP2 ADD ADD MSTORE PUSH1 0x40 MLOAD PUSH4 0x39B22137 PUSH1 0xE2 SHL DUP2 MSTORE PUSH1 0x1 PUSH1 0x1 PUSH1 0xA0 SHL SUB DUP13 AND SWAP1 PUSH4 0xE6C884DC SWAP1 PUSH2 0x3668 SWAP1 DUP8 SWAP1 DUP6 SWAP1 DUP9 SWAP1 PUSH1 0x4 ADD PUSH2 0x56C8 JUMP JUMPDEST PUSH1 0x0 PUSH1 0x40 MLOAD DUP1 DUP4 SUB DUP2 PUSH1 0x0 DUP8 DUP1 EXTCODESIZE ISZERO DUP1 ISZERO PUSH2 0x3682 JUMPI PUSH1 0x0 DUP1 REVERT JUMPDEST POP GAS CALL ISZERO DUP1 ISZERO PUSH2 0x3696 JUMPI RETURNDATASIZE PUSH1 0x0 DUP1 RETURNDATACOPY RETURNDATASIZE PUSH1 0x0 REVERT JUMPDEST POP POP POP POP POP JUMPDEST POP POP POP JUMPDEST SWAP9 SWAP8 POP POP POP POP POP POP POP POP JUMP JUMPDEST PUSH1 0x0 PUSH1 0x1 PUSH1 0x1 PUSH1 0xA0 SHL SUB DUP4 AND PUSH2 0x3794 JUMPI PUSH1 0x40 DUP1 MLOAD PUSH1 0x0 DUP2 MSTORE PUSH1 0x20 DUP2 ADD SWAP2 DUP3 SWAP1 MSTORE PUSH1 0x1 PUSH1 0x1 PUSH1 0xA0 SHL SUB DUP7 AND SWAP2 DUP5 SWAP2 PUSH2 0x36E2 SWAP2 PUSH2 0x4A08 JUMP JUMPDEST PUSH1 0x0 PUSH1 0x40 MLOAD DUP1 DUP4 SUB DUP2 DUP6 DUP8 GAS CALL SWAP3 POP POP POP RETURNDATASIZE DUP1 PUSH1 0x0 DUP2 EQ PUSH2 0x371F JUMPI PUSH1 0x40 MLOAD SWAP2 POP PUSH1 0x1F NOT PUSH1 0x3F RETURNDATASIZE ADD AND DUP3 ADD PUSH1 0x40 MSTORE RETURNDATASIZE DUP3 MSTORE RETURNDATASIZE PUSH1 0x0 PUSH1 0x20 DUP5 ADD RETURNDATACOPY PUSH2 0x3724 JUMP JUMPDEST PUSH1 0x60 SWAP2 POP JUMPDEST POP POP DUP1 SWAP2 POP POP DUP1 PUSH2 0x378F JUMPI PUSH1 0x40 MLOAD PUSH3 0x461BCD PUSH1 0xE5 SHL DUP2 MSTORE PUSH1 0x20 PUSH1 0x4 DUP3 ADD MSTORE PUSH1 0x2F PUSH1 0x24 DUP3 ADD MSTORE PUSH32 0x756E61626C6520746F206465626974206E61746976652062616C616E63652070 PUSH1 0x44 DUP3 ADD MSTORE PUSH15 0x3632B0B9B2903A393C9030B3B0B4B7 PUSH1 0x89 SHL PUSH1 0x64 DUP3 ADD MSTORE PUSH1 0x84 ADD PUSH2 0x60D JUMP JUMPDEST PUSH2 0x37A9 JUMP JUMPDEST PUSH2 0x37A9 PUSH1 0x1 PUSH1 0x1 PUSH1 0xA0 SHL SUB DUP5 AND DUP7 DUP7 DUP6 PUSH2 0x3B2C JUMP JUMPDEST POP POP POP POP POP JUMP JUMPDEST PUSH1 0x0 PUSH1 0x4 DUP10 PUSH1 0x40 MLOAD PUSH2 0x37C2 SWAP2 SWAP1 PUSH2 0x4A08 JUMP JUMPDEST SWAP1 DUP2 MSTORE PUSH1 0x40 DUP1 MLOAD SWAP2 DUP3 SWAP1 SUB PUSH1 0x20 SWAP1 DUP2 ADD DUP4 KECCAK256 PUSH1 0xC0 DUP5 ADD DUP4 MSTORE PUSH1 0x5 DUP2 ADD SLOAD PUSH1 0x1 PUSH1 0x1 PUSH1 0xA0 SHL SUB SWAP1 DUP2 AND DUP6 MSTORE PUSH1 0x6 DUP3 ADD SLOAD DUP2 AND SWAP3 DUP6 ADD SWAP3 SWAP1 SWAP3 MSTORE PUSH1 0x7 DUP2 ADD SLOAD DUP1 DUP4 AND SWAP4 DUP6 ADD DUP5 SWAP1 MSTORE PUSH2 0xFFFF PUSH1 0x1 PUSH1 0xA0 SHL SWAP2 DUP3 SWAP1 DIV DUP2 AND PUSH1 0x60 DUP8 ADD MSTORE PUSH1 0x8 SWAP1 SWAP3 ADD SLOAD SWAP3 DUP4 AND PUSH1 0x80 DUP7 ADD MSTORE SWAP1 SWAP2 DIV AND PUSH1 0xA0 DUP4 ADD MSTORE SWAP1 SWAP2 POP PUSH1 0x0 SWAP1 ISZERO DUP1 ISZERO SWAP1 PUSH2 0x384E JUMPI POP PUSH1 0x0 DUP3 PUSH1 0x60 ADD MLOAD PUSH2 0xFFFF AND GT JUMPDEST ISZERO PUSH2 0x3895 JUMPI PUSH2 0x3890 CALLER DUP4 PUSH1 0x40 ADD MLOAD DUP10 PUSH2 0x2710 DUP7 PUSH1 0x60 ADD MLOAD PUSH2 0xFFFF AND DUP14 PUSH2 0x3874 SWAP2 SWAP1 PUSH2 0x4F7F JUMP JUMPDEST PUSH2 0x387E SWAP2 SWAP1 PUSH2 0x5701 JUMP JUMPDEST PUSH2 0x3888 SWAP1 DUP7 PUSH2 0x4CB6 JUMP JUMPDEST SWAP5 POP DUP5 PUSH2 0x36AC JUMP JUMPDEST PUSH2 0x38EF JUMP JUMPDEST PUSH1 0x7 SLOAD PUSH1 0x1 PUSH1 0x1 PUSH1 0xA0 SHL SUB AND ISZERO DUP1 ISZERO SWAP1 PUSH2 0x38BB JUMPI POP PUSH1 0x7 SLOAD PUSH1 0x1 PUSH1 0xA0 SHL SWAP1 DIV PUSH2 0xFFFF AND ISZERO ISZERO JUMPDEST ISZERO PUSH2 0x38EF JUMPI PUSH1 0x7 SLOAD PUSH2 0x38EF SWAP1 CALLER SWAP1 PUSH1 0x1 PUSH1 0x1 PUSH1 0xA0 SHL SUB DUP2 AND SWAP1 DUP11 SWAP1 PUSH2 0x2710 SWAP1 PUSH2 0x3874 SWAP1 PUSH1 0x1 PUSH1 0xA0 SHL SWAP1 DIV PUSH2 0xFFFF AND DUP15 PUSH2 0x4F7F JUMP JUMPDEST PUSH1 0x80 DUP3 ADD MLOAD PUSH1 0x1 PUSH1 0x1 PUSH1 0xA0 SHL SUB AND ISZERO DUP1 ISZERO SWAP1 PUSH2 0x3913 JUMPI POP PUSH1 0x0 DUP3 PUSH1 0xA0 ADD MLOAD PUSH2 0xFFFF AND GT JUMPDEST ISZERO PUSH2 0x3980 JUMPI PUSH2 0x2710 DUP3 PUSH1 0xA0 ADD MLOAD PUSH2 0xFFFF AND DUP10 PUSH2 0x392F SWAP2 SWAP1 PUSH2 0x4F7F JUMP JUMPDEST PUSH2 0x3939 SWAP2 SWAP1 PUSH2 0x5701 JUMP JUMPDEST PUSH2 0x3943 SWAP1 DUP3 PUSH2 0x4CB6 JUMP JUMPDEST SWAP1 POP PUSH2 0x3980 CALLER DUP4 PUSH1 0x80 ADD MLOAD DUP10 DUP13 PUSH2 0x2710 DUP8 PUSH1 0xA0 ADD MLOAD PUSH2 0xFFFF AND DUP15 PUSH2 0x3967 SWAP2 SWAP1 PUSH2 0x4F7F JUMP JUMPDEST PUSH2 0x3971 SWAP2 SWAP1 PUSH2 0x5701 JUMP JUMPDEST PUSH2 0x397B SWAP2 SWAP1 PUSH2 0x4CB6 JUMP JUMPDEST PUSH2 0x36AC JUMP JUMPDEST PUSH2 0x398A DUP2 DUP10 PUSH2 0x4CC9 JUMP JUMPDEST SWAP8 POP PUSH2 0x399B CALLER DUP8 DUP8 DUP8 DUP13 DUP13 DUP10 PUSH2 0x3B8C JUMP JUMPDEST SWAP8 POP PUSH2 0x39AD CALLER DUP4 PUSH1 0x0 ADD MLOAD DUP10 DUP12 PUSH2 0x36AC JUMP JUMPDEST POP POP POP POP POP POP POP POP POP POP JUMP JUMPDEST PUSH1 0x0 DUP2 DUP2 MSTORE PUSH1 0x1 DUP4 ADD PUSH1 0x20 MSTORE PUSH1 0x40 DUP2 KECCAK256 SLOAD DUP1 ISZERO PUSH2 0x3AA2 JUMPI PUSH1 0x0 PUSH2 0x39DD PUSH1 0x1 DUP4 PUSH2 0x4CC9 JUMP JUMPDEST DUP6 SLOAD SWAP1 SWAP2 POP PUSH1 0x0 SWAP1 PUSH2 0x39F1 SWAP1 PUSH1 0x1 SWAP1 PUSH2 0x4CC9 JUMP JUMPDEST SWAP1 POP DUP2 DUP2 EQ PUSH2 0x3A56 JUMPI PUSH1 0x0 DUP7 PUSH1 0x0 ADD DUP3 DUP2 SLOAD DUP2 LT PUSH2 0x3A11 JUMPI PUSH2 0x3A11 PUSH2 0x4AF5 JUMP JUMPDEST SWAP1 PUSH1 0x0 MSTORE PUSH1 0x20 PUSH1 0x0 KECCAK256 ADD SLOAD SWAP1 POP DUP1 DUP8 PUSH1 0x0 ADD DUP5 DUP2 SLOAD DUP2 LT PUSH2 0x3A34 JUMPI PUSH2 0x3A34 PUSH2 0x4AF5 JUMP JUMPDEST PUSH1 0x0 SWAP2 DUP3 MSTORE PUSH1 0x20 DUP1 DUP4 KECCAK256 SWAP1 SWAP2 ADD SWAP3 SWAP1 SWAP3 SSTORE SWAP2 DUP3 MSTORE PUSH1 0x1 DUP9 ADD SWAP1 MSTORE PUSH1 0x40 SWAP1 KECCAK256 DUP4 SWAP1 SSTORE JUMPDEST DUP6 SLOAD DUP7 SWAP1 DUP1 PUSH2 0x3A67 JUMPI PUSH2 0x3A67 PUSH2 0x5723 JUMP JUMPDEST PUSH1 0x1 SWAP1 SUB DUP2 DUP2 SWAP1 PUSH1 0x0 MSTORE PUSH1 0x20 PUSH1 0x0 KECCAK256 ADD PUSH1 0x0 SWAP1 SSTORE SWAP1 SSTORE DUP6 PUSH1 0x1 ADD PUSH1 0x0 DUP7 DUP2 MSTORE PUSH1 0x20 ADD SWAP1 DUP2 MSTORE PUSH1 0x20 ADD PUSH1 0x0 KECCAK256 PUSH1 0x0 SWAP1 SSTORE PUSH1 0x1 SWAP4 POP POP POP POP PUSH2 0x5BD JUMP JUMPDEST PUSH1 0x0 SWAP2 POP POP PUSH2 0x5BD JUMP JUMPDEST POP SWAP3 SWAP2 POP POP JUMP JUMPDEST PUSH1 0x0 DUP3 PUSH1 0x0 ADD DUP3 DUP2 SLOAD DUP2 LT PUSH2 0x3ACA JUMPI PUSH2 0x3ACA PUSH2 0x4AF5 JUMP JUMPDEST SWAP1 PUSH1 0x0 MSTORE PUSH1 0x20 PUSH1 0x0 KECCAK256 ADD SLOAD SWAP1 POP SWAP3 SWAP2 POP POP JUMP JUMPDEST PUSH1 0x0 DUP2 DUP2 MSTORE PUSH1 0x1 DUP4 ADD PUSH1 0x20 MSTORE PUSH1 0x40 DUP2 KECCAK256 SLOAD PUSH2 0x3B24 JUMPI POP DUP2 SLOAD PUSH1 0x1 DUP2 DUP2 ADD DUP5 SSTORE PUSH1 0x0 DUP5 DUP2 MSTORE PUSH1 0x20 DUP1 DUP3 KECCAK256 SWAP1 SWAP4 ADD DUP5 SWAP1 SSTORE DUP5 SLOAD DUP5 DUP3 MSTORE DUP3 DUP7 ADD SWAP1 SWAP4 MSTORE PUSH1 0x40 SWAP1 KECCAK256 SWAP2 SWAP1 SWAP2 SSTORE PUSH2 0x5BD JUMP JUMPDEST POP PUSH1 0x0 PUSH2 0x5BD JUMP JUMPDEST PUSH1 0x40 DUP1 MLOAD PUSH1 0x1 PUSH1 0x1 PUSH1 0xA0 SHL SUB DUP6 DUP2 AND PUSH1 0x24 DUP4 ADD MSTORE DUP5 AND PUSH1 0x44 DUP3 ADD MSTORE PUSH1 0x64 DUP1 DUP3 ADD DUP5 SWAP1 MSTORE DUP3 MLOAD DUP1 DUP4 SUB SWAP1 SWAP2 ADD DUP2 MSTORE PUSH1 0x84 SWAP1 SWAP2 ADD SWAP1 SWAP2 MSTORE PUSH1 0x20 DUP2 ADD DUP1 MLOAD PUSH1 0x1 PUSH1 0x1 PUSH1 0xE0 SHL SUB AND PUSH4 0x23B872DD PUSH1 0xE0 SHL OR SWAP1 MSTORE PUSH2 0x3B86 SWAP1 DUP6 SWAP1 PUSH2 0x3D3E JUMP JUMPDEST POP POP POP POP JUMP JUMPDEST PUSH1 0x0 PUSH1 0x1 DUP3 PUSH1 0x1 DUP2 GT ISZERO PUSH2 0x3BA2 JUMPI PUSH2 0x3BA2 PUSH2 0x4544 JUMP JUMPDEST SUB PUSH2 0x3BBB JUMPI PUSH2 0x3BB4 DUP9 DUP7 DUP10 DUP8 DUP8 PUSH2 0x3E15 JUMP JUMPDEST SWAP1 POP PUSH2 0x3D33 JUMP JUMPDEST PUSH1 0x0 DUP3 PUSH1 0x1 DUP2 GT ISZERO PUSH2 0x3BCF JUMPI PUSH2 0x3BCF PUSH2 0x4544 JUMP JUMPDEST SUB PUSH2 0x3D33 JUMPI PUSH1 0x40 MLOAD PUSH4 0x1FFC9A7 PUSH1 0xE0 SHL DUP2 MSTORE PUSH1 0x1 PUSH1 0x1 PUSH1 0xA0 SHL SUB DUP7 AND SWAP1 PUSH4 0x1FFC9A7 SWAP1 PUSH2 0x3C07 SWAP1 PUSH4 0x6CDB3D13 PUSH1 0xE1 SHL SWAP1 PUSH1 0x4 ADD PUSH2 0x4F0E JUMP JUMPDEST PUSH1 0x20 PUSH1 0x40 MLOAD DUP1 DUP4 SUB DUP2 DUP7 GAS STATICCALL ISZERO DUP1 ISZERO PUSH2 0x3C24 JUMPI RETURNDATASIZE PUSH1 0x0 DUP1 RETURNDATACOPY RETURNDATASIZE PUSH1 0x0 REVERT JUMPDEST POP POP POP POP PUSH1 0x40 MLOAD RETURNDATASIZE PUSH1 0x1F NOT PUSH1 0x1F DUP3 ADD AND DUP3 ADD DUP1 PUSH1 0x40 MSTORE POP DUP2 ADD SWAP1 PUSH2 0x3C48 SWAP2 SWAP1 PUSH2 0x4F23 JUMP JUMPDEST DUP1 ISZERO PUSH2 0x3CBD JUMPI POP PUSH1 0x40 MLOAD PUSH4 0xBD85B039 PUSH1 0xE0 SHL DUP2 MSTORE PUSH1 0x4 DUP2 ADD DUP9 SWAP1 MSTORE PUSH1 0x0 SWAP1 PUSH1 0x1 PUSH1 0x1 PUSH1 0xA0 SHL SUB DUP8 AND SWAP1 PUSH4 0xBD85B039 SWAP1 PUSH1 0x24 ADD PUSH1 0x20 PUSH1 0x40 MLOAD DUP1 DUP4 SUB DUP2 DUP7 GAS STATICCALL ISZERO DUP1 ISZERO PUSH2 0x3C97 JUMPI RETURNDATASIZE PUSH1 0x0 DUP1 RETURNDATACOPY RETURNDATASIZE PUSH1 0x0 REVERT JUMPDEST POP POP POP POP PUSH1 0x40 MLOAD RETURNDATASIZE PUSH1 0x1F NOT PUSH1 0x1F DUP3 ADD AND DUP3 ADD DUP1 PUSH1 0x40 MSTORE POP DUP2 ADD SWAP1 PUSH2 0x3CBB SWAP2 SWAP1 PUSH2 0x55D7 JUMP JUMPDEST GT JUMPDEST ISZERO PUSH2 0x3CCF JUMPI PUSH2 0x3BB4 DUP9 DUP7 DUP10 DUP8 DUP8 PUSH2 0x3E15 JUMP JUMPDEST DUP6 MLOAD PUSH2 0x3CDB SWAP1 DUP6 PUSH2 0x5701 JUMP JUMPDEST SWAP4 POP PUSH1 0x0 DUP1 JUMPDEST DUP8 MLOAD DUP2 LT ISZERO PUSH2 0x3D30 JUMPI PUSH2 0x3D10 DUP11 DUP9 DUP11 DUP5 DUP2 MLOAD DUP2 LT PUSH2 0x3D01 JUMPI PUSH2 0x3D01 PUSH2 0x4AF5 JUMP JUMPDEST PUSH1 0x20 MUL PUSH1 0x20 ADD ADD MLOAD DUP10 DUP10 PUSH2 0x3E15 JUMP JUMPDEST SWAP2 POP PUSH2 0x3D1C DUP3 DUP5 PUSH2 0x4CB6 JUMP JUMPDEST SWAP3 POP DUP1 PUSH2 0x3D28 DUP2 PUSH2 0x4B21 JUMP JUMPDEST SWAP2 POP POP PUSH2 0x3CE1 JUMP JUMPDEST POP POP JUMPDEST SWAP8 SWAP7 POP POP POP POP POP POP POP JUMP JUMPDEST PUSH1 0x0 PUSH2 0x3D93 DUP3 PUSH1 0x40 MLOAD DUP1 PUSH1 0x40 ADD PUSH1 0x40 MSTORE DUP1 PUSH1 0x20 DUP2 MSTORE PUSH1 0x20 ADD PUSH32 0x5361666545524332303A206C6F772D6C6576656C2063616C6C206661696C6564 DUP2 MSTORE POP DUP6 PUSH1 0x1 PUSH1 0x1 PUSH1 0xA0 SHL SUB AND PUSH2 0x3FED SWAP1 SWAP3 SWAP2 SWAP1 PUSH4 0xFFFFFFFF AND JUMP JUMPDEST DUP1 MLOAD SWAP1 SWAP2 POP ISZERO PUSH2 0x3E10 JUMPI DUP1 DUP1 PUSH1 0x20 ADD SWAP1 MLOAD DUP2 ADD SWAP1 PUSH2 0x3DB1 SWAP2 SWAP1 PUSH2 0x4F23 JUMP JUMPDEST PUSH2 0x3E10 JUMPI PUSH1 0x40 MLOAD PUSH3 0x461BCD PUSH1 0xE5 SHL DUP2 MSTORE PUSH1 0x20 PUSH1 0x4 DUP3 ADD MSTORE PUSH1 0x2A PUSH1 0x24 DUP3 ADD MSTORE PUSH32 0x5361666545524332303A204552433230206F7065726174696F6E20646964206E PUSH1 0x44 DUP3 ADD MSTORE PUSH10 0x1BDD081CDD58D8D95959 PUSH1 0xB2 SHL PUSH1 0x64 DUP3 ADD MSTORE PUSH1 0x84 ADD PUSH2 0x60D JUMP JUMPDEST POP POP POP JUMP JUMPDEST PUSH1 0x9 SLOAD PUSH1 0x40 MLOAD PUSH4 0x6E44A72F PUSH1 0xE0 SHL DUP2 MSTORE PUSH1 0x1 PUSH1 0x1 PUSH1 0xA0 SHL SUB DUP7 DUP2 AND PUSH1 0x4 DUP4 ADD MSTORE PUSH1 0x24 DUP3 ADD DUP7 SWAP1 MSTORE PUSH1 0x0 SWAP3 DUP6 SWAP3 DUP5 SWAP3 DUP4 SWAP3 DUP4 SWAP3 SWAP2 AND SWAP1 PUSH4 0x6E44A72F SWAP1 PUSH1 0x44 ADD PUSH1 0x0 PUSH1 0x40 MLOAD DUP1 DUP4 SUB DUP2 DUP7 GAS STATICCALL ISZERO DUP1 ISZERO PUSH2 0x3E70 JUMPI RETURNDATASIZE PUSH1 0x0 DUP1 RETURNDATACOPY RETURNDATASIZE PUSH1 0x0 REVERT JUMPDEST POP POP POP POP PUSH1 0x40 MLOAD RETURNDATASIZE PUSH1 0x0 DUP3 RETURNDATACOPY PUSH1 0x1F RETURNDATASIZE SWAP1 DUP2 ADD PUSH1 0x1F NOT AND DUP3 ADD PUSH1 0x40 MSTORE PUSH2 0x3E98 SWAP2 SWAP1 DUP2 ADD SWAP1 PUSH2 0x4BC8 JUMP JUMPDEST DUP2 MLOAD SWAP2 SWAP4 POP SWAP2 POP PUSH1 0x0 DUP2 SWAP1 SUB PUSH2 0x3EB5 JUMPI DUP8 SWAP6 POP POP POP POP POP POP PUSH2 0x3FE4 JUMP JUMPDEST PUSH1 0x0 JUMPDEST DUP2 DUP2 LT ISZERO PUSH2 0x3FDB JUMPI PUSH1 0x0 DUP5 DUP3 DUP2 MLOAD DUP2 LT PUSH2 0x3ED4 JUMPI PUSH2 0x3ED4 PUSH2 0x4AF5 JUMP JUMPDEST PUSH1 0x20 MUL PUSH1 0x20 ADD ADD MLOAD SWAP1 POP PUSH2 0x2710 DUP11 DUP6 DUP5 DUP2 MLOAD DUP2 LT PUSH2 0x3EF4 JUMPI PUSH2 0x3EF4 PUSH2 0x4AF5 JUMP JUMPDEST PUSH1 0x20 MUL PUSH1 0x20 ADD ADD MLOAD PUSH2 0x3F06 SWAP2 SWAP1 PUSH2 0x4F7F JUMP JUMPDEST PUSH2 0x3F10 SWAP2 SWAP1 PUSH2 0x5701 JUMP JUMPDEST SWAP6 POP DUP6 DUP8 LT ISZERO PUSH2 0x3F70 JUMPI PUSH1 0x40 MLOAD PUSH3 0x461BCD PUSH1 0xE5 SHL DUP2 MSTORE PUSH1 0x20 PUSH1 0x4 DUP3 ADD MSTORE PUSH1 0x25 PUSH1 0x24 DUP3 ADD MSTORE PUSH32 0x696E736F6C76656E743A20756E61626C6520746F20636F6D706C65746520726F PUSH1 0x44 DUP3 ADD MSTORE PUSH5 0x79616C7479 PUSH1 0xD8 SHL PUSH1 0x64 DUP3 ADD MSTORE PUSH1 0x84 ADD PUSH2 0x60D JUMP JUMPDEST PUSH2 0x3F7C DUP14 DUP3 DUP12 DUP10 PUSH2 0x36AC JUMP JUMPDEST PUSH1 0x40 DUP1 MLOAD PUSH1 0x1 PUSH1 0x1 PUSH1 0xA0 SHL SUB DUP15 DUP2 AND DUP3 MSTORE PUSH1 0x20 DUP3 ADD DUP15 SWAP1 MSTORE DUP4 AND DUP2 DUP4 ADD MSTORE PUSH1 0x60 DUP2 ADD DUP9 SWAP1 MSTORE SWAP1 MLOAD PUSH32 0x866E6EF8682DDF5F1025E64DFDB45527077F7BE70FA9EF680B7FFD8CF4AB9C50 SWAP2 DUP2 SWAP1 SUB PUSH1 0x80 ADD SWAP1 LOG1 POP SWAP5 DUP5 SWAP1 SUB SWAP5 PUSH1 0x1 ADD PUSH2 0x3EB8 JUMP JUMPDEST POP SWAP4 SWAP5 POP POP POP POP POP JUMPDEST SWAP6 SWAP5 POP POP POP POP POP JUMP JUMPDEST PUSH1 0x60 PUSH2 0x3FFC DUP5 DUP5 PUSH1 0x0 DUP6 PUSH2 0x4004 JUMP JUMPDEST SWAP5 SWAP4 POP POP POP POP JUMP JUMPDEST PUSH1 0x60 DUP3 SELFBALANCE LT ISZERO PUSH2 0x4065 JUMPI PUSH1 0x40 MLOAD PUSH3 0x461BCD PUSH1 0xE5 SHL DUP2 MSTORE PUSH1 0x20 PUSH1 0x4 DUP3 ADD MSTORE PUSH1 0x26 PUSH1 0x24 DUP3 ADD MSTORE PUSH32 0x416464726573733A20696E73756666696369656E742062616C616E636520666F PUSH1 0x44 DUP3 ADD MSTORE PUSH6 0x1C8818D85B1B PUSH1 0xD2 SHL PUSH1 0x64 DUP3 ADD MSTORE PUSH1 0x84 ADD PUSH2 0x60D JUMP JUMPDEST DUP5 EXTCODESIZE PUSH2 0x40B3 JUMPI PUSH1 0x40 MLOAD PUSH3 0x461BCD PUSH1 0xE5 SHL DUP2 MSTORE PUSH1 0x20 PUSH1 0x4 DUP3 ADD MSTORE PUSH1 0x1D PUSH1 0x24 DUP3 ADD MSTORE PUSH32 0x416464726573733A2063616C6C20746F206E6F6E2D636F6E7472616374000000 PUSH1 0x44 DUP3 ADD MSTORE PUSH1 0x64 ADD PUSH2 0x60D JUMP JUMPDEST PUSH1 0x0 DUP1 DUP7 PUSH1 0x1 PUSH1 0x1 PUSH1 0xA0 SHL SUB AND DUP6 DUP8 PUSH1 0x40 MLOAD PUSH2 0x40CF SWAP2 SWAP1 PUSH2 0x4A08 JUMP JUMPDEST PUSH1 0x0 PUSH1 0x40 MLOAD DUP1 DUP4 SUB DUP2 DUP6 DUP8 GAS CALL SWAP3 POP POP POP RETURNDATASIZE DUP1 PUSH1 0x0 DUP2 EQ PUSH2 0x410C JUMPI PUSH1 0x40 MLOAD SWAP2 POP PUSH1 0x1F NOT PUSH1 0x3F RETURNDATASIZE ADD AND DUP3 ADD PUSH1 0x40 MSTORE RETURNDATASIZE DUP3 MSTORE RETURNDATASIZE PUSH1 0x0 PUSH1 0x20 DUP5 ADD RETURNDATACOPY PUSH2 0x4111 JUMP JUMPDEST PUSH1 0x60 SWAP2 POP JUMPDEST POP SWAP2 POP SWAP2 POP PUSH2 0x3D33 DUP3 DUP3 DUP7 PUSH1 0x60 DUP4 ISZERO PUSH2 0x412B JUMPI POP DUP2 PUSH2 0x218B JUMP JUMPDEST DUP3 MLOAD ISZERO PUSH2 0x413B JUMPI DUP3 MLOAD DUP1 DUP5 PUSH1 0x20 ADD REVERT JUMPDEST DUP2 PUSH1 0x40 MLOAD PUSH3 0x461BCD PUSH1 0xE5 SHL DUP2 MSTORE PUSH1 0x4 ADD PUSH2 0x60D SWAP2 SWAP1 PUSH2 0x4AAD JUMP JUMPDEST POP DUP1 SLOAD PUSH1 0x0 DUP3 SSTORE SWAP1 PUSH1 0x0 MSTORE PUSH1 0x20 PUSH1 0x0 KECCAK256 SWAP1 DUP2 ADD SWAP1 PUSH2 0x8AC SWAP2 SWAP1 PUSH2 0x420D JUMP JUMPDEST DUP3 DUP1 SLOAD DUP3 DUP3 SSTORE SWAP1 PUSH1 0x0 MSTORE PUSH1 0x20 PUSH1 0x0 KECCAK256 SWAP1 DUP2 ADD SWAP3 DUP3 ISZERO PUSH2 0x41AE JUMPI SWAP2 PUSH1 0x20 MUL DUP3 ADD JUMPDEST DUP3 DUP2 GT ISZERO PUSH2 0x41AE JUMPI DUP3 CALLDATALOAD DUP3 SSTORE SWAP2 PUSH1 0x20 ADD SWAP2 SWAP1 PUSH1 0x1 ADD SWAP1 PUSH2 0x4193 JUMP JUMPDEST POP PUSH2 0x959 SWAP3 SWAP2 POP PUSH2 0x420D JUMP JUMPDEST DUP3 DUP1 SLOAD DUP3 DUP3 SSTORE SWAP1 PUSH1 0x0 MSTORE PUSH1 0x20 PUSH1 0x0 KECCAK256 SWAP1 DUP2 ADD SWAP3 DUP3 ISZERO PUSH2 0x41AE JUMPI SWAP2 PUSH1 0x20 MUL DUP3 ADD JUMPDEST DUP3 DUP2 GT ISZERO PUSH2 0x41AE JUMPI DUP2 SLOAD PUSH1 0x1 PUSH1 0x1 PUSH1 0xA0 SHL SUB NOT AND PUSH1 0x1 PUSH1 0x1 PUSH1 0xA0 SHL SUB DUP5 CALLDATALOAD AND OR DUP3 SSTORE PUSH1 0x20 SWAP1 SWAP3 ADD SWAP2 PUSH1 0x1 SWAP1 SWAP2 ADD SWAP1 PUSH2 0x41DA JUMP JUMPDEST JUMPDEST DUP1 DUP3 GT ISZERO PUSH2 0x959 JUMPI PUSH1 0x0 DUP2 SSTORE PUSH1 0x1 ADD PUSH2 0x420E JUMP JUMPDEST PUSH1 0x0 PUSH1 0x20 DUP3 DUP5 SUB SLT ISZERO PUSH2 0x4234 JUMPI PUSH1 0x0 DUP1 REVERT JUMPDEST DUP2 CALLDATALOAD PUSH1 0x1 PUSH1 0x1 PUSH1 0xE0 SHL SUB NOT DUP2 AND DUP2 EQ PUSH2 0x218B JUMPI PUSH1 0x0 DUP1 REVERT JUMPDEST PUSH1 0x1 PUSH1 0x1 PUSH1 0x40 SHL SUB DUP2 AND DUP2 EQ PUSH2 0x8AC JUMPI PUSH1 0x0 DUP1 REVERT JUMPDEST DUP1 CALLDATALOAD PUSH2 0x426C DUP2 PUSH2 0x424C JUMP JUMPDEST SWAP2 SWAP1 POP JUMP JUMPDEST PUSH1 0x0 PUSH1 0x20 DUP3 DUP5 SUB SLT ISZERO PUSH2 0x4283 JUMPI PUSH1 0x0 DUP1 REVERT JUMPDEST DUP2 CALLDATALOAD PUSH2 0x218B DUP2 PUSH2 0x424C JUMP JUMPDEST PUSH1 0x1 PUSH1 0x1 PUSH1 0xA0 SHL SUB DUP2 AND DUP2 EQ PUSH2 0x8AC JUMPI PUSH1 0x0 DUP1 REVERT JUMPDEST DUP1 CALLDATALOAD PUSH2 0x426C DUP2 PUSH2 0x428E JUMP JUMPDEST PUSH1 0x0 PUSH1 0x20 DUP3 DUP5 SUB SLT ISZERO PUSH2 0x42C0 JUMPI PUSH1 0x0 DUP1 REVERT JUMPDEST DUP2 CALLDATALOAD PUSH2 0x218B DUP2 PUSH2 0x428E JUMP JUMPDEST PUSH4 0x4E487B71 PUSH1 0xE0 SHL PUSH1 0x0 MSTORE PUSH1 0x41 PUSH1 0x4 MSTORE PUSH1 0x24 PUSH1 0x0 REVERT JUMPDEST PUSH1 0x40 MLOAD PUSH2 0x100 DUP2 ADD PUSH1 0x1 PUSH1 0x1 PUSH1 0x40 SHL SUB DUP2 GT DUP3 DUP3 LT OR ISZERO PUSH2 0x4304 JUMPI PUSH2 0x4304 PUSH2 0x42CB JUMP JUMPDEST PUSH1 0x40 MSTORE SWAP1 JUMP JUMPDEST PUSH1 0x40 MLOAD PUSH1 0x1F DUP3 ADD PUSH1 0x1F NOT AND DUP2 ADD PUSH1 0x1 PUSH1 0x1 PUSH1 0x40 SHL SUB DUP2 GT DUP3 DUP3 LT OR ISZERO PUSH2 0x4332 JUMPI PUSH2 0x4332 PUSH2 0x42CB JUMP JUMPDEST PUSH1 0x40 MSTORE SWAP2 SWAP1 POP JUMP JUMPDEST PUSH1 0x0 DUP3 PUSH1 0x1F DUP4 ADD SLT PUSH2 0x434B JUMPI PUSH1 0x0 DUP1 REVERT JUMPDEST DUP2 CALLDATALOAD PUSH1 0x1 PUSH1 0x1 PUSH1 0x40 SHL SUB DUP2 GT ISZERO PUSH2 0x4364 JUMPI PUSH2 0x4364 PUSH2 0x42CB JUMP JUMPDEST PUSH2 0x4377 PUSH1 0x1F DUP3 ADD PUSH1 0x1F NOT AND PUSH1 0x20 ADD PUSH2 0x430A JUMP JUMPDEST DUP2 DUP2 MSTORE DUP5 PUSH1 0x20 DUP4 DUP7 ADD ADD GT ISZERO PUSH2 0x438C JUMPI PUSH1 0x0 DUP1 REVERT JUMPDEST DUP2 PUSH1 0x20 DUP6 ADD PUSH1 0x20 DUP4 ADD CALLDATACOPY PUSH1 0x0 SWAP2 DUP2 ADD PUSH1 0x20 ADD SWAP2 SWAP1 SWAP2 MSTORE SWAP4 SWAP3 POP POP POP JUMP JUMPDEST PUSH1 0x0 PUSH1 0x20 DUP3 DUP5 SUB SLT ISZERO PUSH2 0x43BB JUMPI PUSH1 0x0 DUP1 REVERT JUMPDEST DUP2 CALLDATALOAD PUSH1 0x1 PUSH1 0x1 PUSH1 0x40 SHL SUB DUP2 GT ISZERO PUSH2 0x43D1 JUMPI PUSH1 0x0 DUP1 REVERT JUMPDEST PUSH2 0x3FFC DUP5 DUP3 DUP6 ADD PUSH2 0x433A JUMP JUMPDEST PUSH1 0x0 DUP2 MLOAD DUP1 DUP5 MSTORE PUSH1 0x20 DUP1 DUP6 ADD SWAP5 POP DUP1 DUP5 ADD PUSH1 0x0 JUMPDEST DUP4 DUP2 LT ISZERO PUSH2 0x4416 JUMPI DUP2 MLOAD PUSH1 0x1 PUSH1 0x1 PUSH1 0xA0 SHL SUB AND DUP8 MSTORE SWAP6 DUP3 ADD SWAP6 SWAP1 DUP3 ADD SWAP1 PUSH1 0x1 ADD PUSH2 0x43F1 JUMP JUMPDEST POP SWAP5 SWAP6 SWAP5 POP POP POP POP POP JUMP JUMPDEST PUSH1 0x20 DUP2 MSTORE PUSH1 0x0 PUSH2 0x218B PUSH1 0x20 DUP4 ADD DUP5 PUSH2 0x43DD JUMP JUMPDEST PUSH1 0x0 DUP1 PUSH1 0x40 DUP4 DUP6 SUB SLT ISZERO PUSH2 0x4447 JUMPI PUSH1 0x0 DUP1 REVERT JUMPDEST DUP3 CALLDATALOAD PUSH2 0x4452 DUP2 PUSH2 0x428E JUMP JUMPDEST SWAP5 PUSH1 0x20 SWAP4 SWAP1 SWAP4 ADD CALLDATALOAD SWAP4 POP POP POP JUMP JUMPDEST PUSH1 0x0 DUP2 MLOAD DUP1 DUP5 MSTORE PUSH1 0x20 DUP1 DUP6 ADD SWAP5 POP DUP1 DUP5 ADD PUSH1 0x0 JUMPDEST DUP4 DUP2 LT ISZERO PUSH2 0x4416 JUMPI DUP2 MLOAD DUP8 MSTORE SWAP6 DUP3 ADD SWAP6 SWAP1 DUP3 ADD SWAP1 PUSH1 0x1 ADD PUSH2 0x4474 JUMP JUMPDEST PUSH1 0x40 DUP1 DUP3 MSTORE DUP4 MLOAD SWAP1 DUP3 ADD DUP2 SWAP1 MSTORE PUSH1 0x0 SWAP1 PUSH1 0x20 SWAP1 PUSH1 0x60 DUP5 ADD SWAP1 DUP3 DUP8 ADD DUP5 JUMPDEST DUP3 DUP2 LT ISZERO PUSH2 0x44D2 JUMPI DUP2 MLOAD PUSH1 0x1 PUSH1 0x1 PUSH1 0xA0 SHL SUB AND DUP5 MSTORE SWAP3 DUP5 ADD SWAP3 SWAP1 DUP5 ADD SWAP1 PUSH1 0x1 ADD PUSH2 0x44AD JUMP JUMPDEST POP POP POP DUP4 DUP2 SUB DUP3 DUP6 ADD MSTORE PUSH2 0x44E6 DUP2 DUP7 PUSH2 0x4460 JUMP JUMPDEST SWAP7 SWAP6 POP POP POP POP POP POP JUMP JUMPDEST PUSH1 0x1 DUP1 PUSH1 0xA0 SHL SUB DUP1 DUP3 MLOAD AND DUP4 MSTORE DUP1 PUSH1 0x20 DUP4 ADD MLOAD AND PUSH1 0x20 DUP5 ADD MSTORE DUP1 PUSH1 0x40 DUP4 ADD MLOAD AND PUSH1 0x40 DUP5 ADD MSTORE PUSH1 0x60 DUP3 ADD MLOAD PUSH2 0xFFFF DUP1 DUP3 AND PUSH1 0x60 DUP7 ADD MSTORE DUP3 PUSH1 0x80 DUP6 ADD MLOAD AND PUSH1 0x80 DUP7 ADD MSTORE DUP1 PUSH1 0xA0 DUP6 ADD MLOAD AND PUSH1 0xA0 DUP7 ADD MSTORE POP POP POP POP POP JUMP JUMPDEST PUSH4 0x4E487B71 PUSH1 0xE0 SHL PUSH1 0x0 MSTORE PUSH1 0x21 PUSH1 0x4 MSTORE PUSH1 0x24 PUSH1 0x0 REVERT JUMPDEST PUSH1 0x2 DUP2 LT PUSH2 0x8AC JUMPI PUSH4 0x4E487B71 PUSH1 0xE0 SHL PUSH1 0x0 MSTORE PUSH1 0x21 PUSH1 0x4 MSTORE PUSH1 0x24 PUSH1 0x0 REVERT JUMPDEST PUSH2 0x4581 DUP2 PUSH2 0x455A JUMP JUMPDEST SWAP1 MSTORE JUMP JUMPDEST PUSH1 0x1 PUSH1 0x1 PUSH1 0xA0 SHL SUB DUP10 AND DUP2 MSTORE PUSH1 0x1 PUSH1 0x1 PUSH1 0x40 SHL SUB DUP9 DUP2 AND PUSH1 0x20 DUP4 ADD MSTORE DUP8 DUP2 AND PUSH1 0x40 DUP4 ADD MSTORE PUSH1 0x60 DUP3 ADD DUP8 SWAP1 MSTORE PUSH2 0x1A0 DUP3 ADD SWAP1 PUSH2 0x45C3 PUSH1 0x80 DUP5 ADD DUP9 PUSH2 0x44F0 JUMP JUMPDEST DUP6 AND PUSH2 0x140 DUP4 ADD MSTORE PUSH2 0x45D4 DUP5 PUSH2 0x455A JUMP JUMPDEST DUP4 PUSH2 0x160 DUP4 ADD MSTORE PUSH2 0x45E4 DUP4 PUSH2 0x455A JUMP JUMPDEST DUP3 PUSH2 0x180 DUP4 ADD MSTORE SWAP10 SWAP9 POP POP POP POP POP POP POP POP POP JUMP JUMPDEST PUSH1 0x0 DUP1 PUSH1 0x40 DUP4 DUP6 SUB SLT ISZERO PUSH2 0x460B JUMPI PUSH1 0x0 DUP1 REVERT JUMPDEST DUP3 CALLDATALOAD PUSH1 0x1 PUSH1 0x1 PUSH1 0x40 SHL SUB DUP1 DUP3 GT ISZERO PUSH2 0x4622 JUMPI PUSH1 0x0 DUP1 REVERT JUMPDEST SWAP1 DUP5 ADD SWAP1 PUSH2 0x100 DUP3 DUP8 SUB SLT ISZERO PUSH2 0x4637 JUMPI PUSH1 0x0 DUP1 REVERT JUMPDEST PUSH2 0x463F PUSH2 0x42E1 JUMP JUMPDEST DUP3 CALLDATALOAD DUP3 DUP2 GT ISZERO PUSH2 0x464E JUMPI PUSH1 0x0 DUP1 REVERT JUMPDEST PUSH2 0x465A DUP9 DUP3 DUP7 ADD PUSH2 0x433A JUMP JUMPDEST DUP3 MSTORE POP PUSH2 0x4669 PUSH1 0x20 DUP5 ADD PUSH2 0x42A3 JUMP JUMPDEST PUSH1 0x20 DUP3 ADD MSTORE PUSH1 0x40 DUP4 ADD CALLDATALOAD PUSH1 0x40 DUP3 ADD MSTORE PUSH2 0x4684 PUSH1 0x60 DUP5 ADD PUSH2 0x4261 JUMP JUMPDEST PUSH1 0x60 DUP3 ADD MSTORE PUSH2 0x4695 PUSH1 0x80 DUP5 ADD PUSH2 0x42A3 JUMP JUMPDEST PUSH1 0x80 DUP3 ADD MSTORE PUSH2 0x46A6 PUSH1 0xA0 DUP5 ADD PUSH2 0x4261 JUMP JUMPDEST PUSH1 0xA0 DUP3 ADD MSTORE PUSH2 0x46B7 PUSH1 0xC0 DUP5 ADD PUSH2 0x42A3 JUMP JUMPDEST PUSH1 0xC0 DUP3 ADD MSTORE PUSH1 0xE0 SWAP3 DUP4 ADD CALLDATALOAD SWAP3 DUP2 ADD SWAP3 SWAP1 SWAP3 MSTORE POP SWAP5 PUSH1 0x20 SWAP4 SWAP1 SWAP4 ADD CALLDATALOAD SWAP4 POP POP POP JUMP JUMPDEST PUSH1 0x20 DUP2 MSTORE PUSH1 0x0 PUSH2 0x218B PUSH1 0x20 DUP4 ADD DUP5 PUSH2 0x4460 JUMP JUMPDEST PUSH1 0x0 DUP1 DUP4 PUSH1 0x1F DUP5 ADD SLT PUSH2 0x46FD JUMPI PUSH1 0x0 DUP1 REVERT JUMPDEST POP DUP2 CALLDATALOAD PUSH1 0x1 PUSH1 0x1 PUSH1 0x40 SHL SUB DUP2 GT ISZERO PUSH2 0x4714 JUMPI PUSH1 0x0 DUP1 REVERT JUMPDEST PUSH1 0x20 DUP4 ADD SWAP2 POP DUP4 PUSH1 0x20 DUP3 DUP6 ADD ADD GT ISZERO PUSH2 0x472C JUMPI PUSH1 0x0 DUP1 REVERT JUMPDEST SWAP3 POP SWAP3 SWAP1 POP JUMP JUMPDEST PUSH1 0x0 DUP1 PUSH1 0x0 PUSH1 0x40 DUP5 DUP7 SUB SLT ISZERO PUSH2 0x4748 JUMPI PUSH1 0x0 DUP1 REVERT JUMPDEST DUP4 CALLDATALOAD PUSH1 0x1 PUSH1 0x1 PUSH1 0x40 SHL SUB DUP2 GT ISZERO PUSH2 0x475E JUMPI PUSH1 0x0 DUP1 REVERT JUMPDEST PUSH2 0x476A DUP7 DUP3 DUP8 ADD PUSH2 0x46EB JUMP JUMPDEST SWAP1 SWAP5 POP SWAP3 POP POP PUSH1 0x20 DUP5 ADD CALLDATALOAD PUSH2 0x477E DUP2 PUSH2 0x428E JUMP JUMPDEST DUP1 SWAP2 POP POP SWAP3 POP SWAP3 POP SWAP3 JUMP JUMPDEST PUSH2 0xFFFF DUP2 AND DUP2 EQ PUSH2 0x8AC JUMPI PUSH1 0x0 DUP1 REVERT JUMPDEST PUSH1 0x0 PUSH1 0x20 DUP3 DUP5 SUB SLT ISZERO PUSH2 0x47AB JUMPI PUSH1 0x0 DUP1 REVERT JUMPDEST DUP2 CALLDATALOAD PUSH2 0x218B DUP2 PUSH2 0x4789 JUMP JUMPDEST PUSH1 0x0 DUP1 PUSH1 0x20 DUP4 DUP6 SUB SLT ISZERO PUSH2 0x47C9 JUMPI PUSH1 0x0 DUP1 REVERT JUMPDEST DUP3 CALLDATALOAD PUSH1 0x1 PUSH1 0x1 PUSH1 0x40 SHL SUB DUP2 GT ISZERO PUSH2 0x47DF JUMPI PUSH1 0x0 DUP1 REVERT JUMPDEST PUSH2 0x47EB DUP6 DUP3 DUP7 ADD PUSH2 0x46EB JUMP JUMPDEST SWAP1 SWAP7 SWAP1 SWAP6 POP SWAP4 POP POP POP POP JUMP JUMPDEST PUSH1 0x40 DUP2 MSTORE PUSH1 0x0 PUSH2 0x480A PUSH1 0x40 DUP4 ADD DUP6 PUSH2 0x4460 JUMP JUMPDEST DUP3 DUP2 SUB PUSH1 0x20 DUP5 ADD MSTORE PUSH2 0x3FE4 DUP2 DUP6 PUSH2 0x43DD JUMP JUMPDEST PUSH1 0x2 DUP2 LT PUSH2 0x8AC JUMPI PUSH1 0x0 DUP1 REVERT JUMPDEST DUP1 CALLDATALOAD PUSH2 0x426C DUP2 PUSH2 0x481C JUMP JUMPDEST PUSH1 0x0 DUP1 DUP4 PUSH1 0x1F DUP5 ADD SLT PUSH2 0x4846 JUMPI PUSH1 0x0 DUP1 REVERT JUMPDEST POP DUP2 CALLDATALOAD PUSH1 0x1 PUSH1 0x1 PUSH1 0x40 SHL SUB DUP2 GT ISZERO PUSH2 0x485D JUMPI PUSH1 0x0 DUP1 REVERT JUMPDEST PUSH1 0x20 DUP4 ADD SWAP2 POP DUP4 PUSH1 0x20 DUP3 PUSH1 0x5 SHL DUP6 ADD ADD GT ISZERO PUSH2 0x472C JUMPI PUSH1 0x0 DUP1 REVERT JUMPDEST PUSH1 0x0 DUP1 PUSH1 0x0 DUP1 PUSH1 0x0 DUP1 PUSH1 0x0 DUP1 PUSH1 0xA0 DUP10 DUP12 SUB SLT ISZERO PUSH2 0x4894 JUMPI PUSH1 0x0 DUP1 REVERT JUMPDEST DUP9 CALLDATALOAD PUSH1 0x1 PUSH1 0x1 PUSH1 0x40 SHL SUB DUP1 DUP3 GT ISZERO PUSH2 0x48AB JUMPI PUSH1 0x0 DUP1 REVERT JUMPDEST PUSH2 0x48B7 DUP13 DUP4 DUP14 ADD PUSH2 0x46EB JUMP JUMPDEST SWAP1 SWAP11 POP SWAP9 POP PUSH1 0x20 DUP12 ADD CALLDATALOAD SWAP2 POP PUSH2 0x48CC DUP3 PUSH2 0x481C JUMP JUMPDEST SWAP1 SWAP7 POP PUSH1 0x40 DUP11 ADD CALLDATALOAD SWAP6 POP PUSH1 0x60 DUP11 ADD CALLDATALOAD SWAP1 DUP1 DUP3 GT ISZERO PUSH2 0x48E9 JUMPI PUSH1 0x0 DUP1 REVERT JUMPDEST PUSH2 0x48F5 DUP13 DUP4 DUP14 ADD PUSH2 0x4834 JUMP JUMPDEST SWAP1 SWAP7 POP SWAP5 POP PUSH1 0x80 DUP12 ADD CALLDATALOAD SWAP2 POP DUP1 DUP3 GT ISZERO PUSH2 0x490E JUMPI PUSH1 0x0 DUP1 REVERT JUMPDEST POP PUSH2 0x491B DUP12 DUP3 DUP13 ADD PUSH2 0x4834 JUMP JUMPDEST SWAP10 SWAP13 SWAP9 SWAP12 POP SWAP7 SWAP10 POP SWAP5 SWAP8 SWAP4 SWAP7 SWAP3 SWAP6 SWAP5 POP POP POP JUMP JUMPDEST PUSH1 0x0 DUP1 PUSH1 0x0 PUSH1 0x40 DUP5 DUP7 SUB SLT ISZERO PUSH2 0x4944 JUMPI PUSH1 0x0 DUP1 REVERT JUMPDEST DUP4 CALLDATALOAD PUSH1 0x1 PUSH1 0x1 PUSH1 0x40 SHL SUB DUP1 DUP3 GT ISZERO PUSH2 0x495B JUMPI PUSH1 0x0 DUP1 REVERT JUMPDEST SWAP1 DUP6 ADD SWAP1 PUSH2 0x1E0 DUP3 DUP9 SUB SLT ISZERO PUSH2 0x4970 JUMPI PUSH1 0x0 DUP1 REVERT JUMPDEST SWAP1 SWAP4 POP PUSH1 0x20 DUP6 ADD CALLDATALOAD SWAP1 DUP1 DUP3 GT ISZERO PUSH2 0x4986 JUMPI PUSH1 0x0 DUP1 REVERT JUMPDEST POP PUSH2 0x4993 DUP7 DUP3 DUP8 ADD PUSH2 0x46EB JUMP JUMPDEST SWAP5 SWAP8 SWAP1 SWAP7 POP SWAP4 SWAP5 POP POP POP POP JUMP JUMPDEST PUSH1 0x20 DUP1 DUP3 MSTORE PUSH1 0x24 SWAP1 DUP3 ADD MSTORE PUSH32 0x41646D696E436F6E74726F6C3A204D757374206265206F776E6572206F722061 PUSH1 0x40 DUP3 ADD MSTORE PUSH4 0x3236B4B7 PUSH1 0xE1 SHL PUSH1 0x60 DUP3 ADD MSTORE PUSH1 0x80 ADD SWAP1 JUMP JUMPDEST PUSH1 0x0 JUMPDEST DUP4 DUP2 LT ISZERO PUSH2 0x49FF JUMPI DUP2 DUP2 ADD MLOAD DUP4 DUP3 ADD MSTORE PUSH1 0x20 ADD PUSH2 0x49E7 JUMP JUMPDEST POP POP PUSH1 0x0 SWAP2 ADD MSTORE JUMP JUMPDEST PUSH1 0x0 DUP3 MLOAD PUSH2 0x4A1A DUP2 DUP5 PUSH1 0x20 DUP8 ADD PUSH2 0x49E4 JUMP JUMPDEST SWAP2 SWAP1 SWAP2 ADD SWAP3 SWAP2 POP POP JUMP JUMPDEST PUSH1 0x20 DUP1 DUP3 MSTORE PUSH1 0x37 SWAP1 DUP3 ADD MSTORE PUSH32 0x7468652073616C65496420796F75206861766520656E74657265642069732069 PUSH1 0x40 DUP3 ADD MSTORE PUSH32 0x6E76616C69642E20506C656173652076616C6964617465000000000000000000 PUSH1 0x60 DUP3 ADD MSTORE PUSH1 0x80 ADD SWAP1 JUMP JUMPDEST PUSH1 0x0 DUP2 MLOAD DUP1 DUP5 MSTORE PUSH2 0x4A99 DUP2 PUSH1 0x20 DUP7 ADD PUSH1 0x20 DUP7 ADD PUSH2 0x49E4 JUMP JUMPDEST PUSH1 0x1F ADD PUSH1 0x1F NOT AND SWAP3 SWAP1 SWAP3 ADD PUSH1 0x20 ADD SWAP3 SWAP2 POP POP JUMP JUMPDEST PUSH1 0x20 DUP2 MSTORE PUSH1 0x0 PUSH2 0x218B PUSH1 0x20 DUP4 ADD DUP5 PUSH2 0x4A81 JUMP JUMPDEST PUSH1 0x20 DUP1 DUP3 MSTORE DUP2 DUP2 ADD MSTORE PUSH32 0x4F776E61626C653A2063616C6C6572206973206E6F7420746865206F776E6572 PUSH1 0x40 DUP3 ADD MSTORE PUSH1 0x60 ADD SWAP1 JUMP JUMPDEST PUSH4 0x4E487B71 PUSH1 0xE0 SHL PUSH1 0x0 MSTORE PUSH1 0x32 PUSH1 0x4 MSTORE PUSH1 0x24 PUSH1 0x0 REVERT JUMPDEST PUSH4 0x4E487B71 PUSH1 0xE0 SHL PUSH1 0x0 MSTORE PUSH1 0x11 PUSH1 0x4 MSTORE PUSH1 0x24 PUSH1 0x0 REVERT JUMPDEST PUSH1 0x0 PUSH1 0x1 DUP3 ADD PUSH2 0x4B33 JUMPI PUSH2 0x4B33 PUSH2 0x4B0B JUMP JUMPDEST POP PUSH1 0x1 ADD SWAP1 JUMP JUMPDEST PUSH1 0x0 PUSH1 0x1 PUSH1 0x1 PUSH1 0x40 SHL SUB DUP3 GT ISZERO PUSH2 0x4B53 JUMPI PUSH2 0x4B53 PUSH2 0x42CB JUMP JUMPDEST POP PUSH1 0x5 SHL PUSH1 0x20 ADD SWAP1 JUMP JUMPDEST PUSH1 0x0 DUP3 PUSH1 0x1F DUP4 ADD SLT PUSH2 0x4B6E JUMPI PUSH1 0x0 DUP1 REVERT JUMPDEST DUP2 MLOAD PUSH1 0x20 PUSH2 0x4B83 PUSH2 0x4B7E DUP4 PUSH2 0x4B3A JUMP JUMPDEST PUSH2 0x430A JUMP JUMPDEST DUP3 DUP2 MSTORE PUSH1 0x5 SWAP3 SWAP1 SWAP3 SHL DUP5 ADD DUP2 ADD SWAP2 DUP2 DUP2 ADD SWAP1 DUP7 DUP5 GT ISZERO PUSH2 0x4BA2 JUMPI PUSH1 0x0 DUP1 REVERT JUMPDEST DUP3 DUP7 ADD JUMPDEST DUP5 DUP2 LT ISZERO PUSH2 0x4BBD JUMPI DUP1 MLOAD DUP4 MSTORE SWAP2 DUP4 ADD SWAP2 DUP4 ADD PUSH2 0x4BA6 JUMP JUMPDEST POP SWAP7 SWAP6 POP POP POP POP POP POP JUMP JUMPDEST PUSH1 0x0 DUP1 PUSH1 0x40 DUP4 DUP6 SUB SLT ISZERO PUSH2 0x4BDB JUMPI PUSH1 0x0 DUP1 REVERT JUMPDEST DUP3 MLOAD PUSH1 0x1 PUSH1 0x1 PUSH1 0x40 SHL SUB DUP1 DUP3 GT ISZERO PUSH2 0x4BF2 JUMPI PUSH1 0x0 DUP1 REVERT JUMPDEST DUP2 DUP6 ADD SWAP2 POP DUP6 PUSH1 0x1F DUP4 ADD SLT PUSH2 0x4C06 JUMPI PUSH1 0x0 DUP1 REVERT JUMPDEST DUP2 MLOAD PUSH1 0x20 PUSH2 0x4C16 PUSH2 0x4B7E DUP4 PUSH2 0x4B3A JUMP JUMPDEST DUP3 DUP2 MSTORE PUSH1 0x5 SWAP3 SWAP1 SWAP3 SHL DUP5 ADD DUP2 ADD SWAP2 DUP2 DUP2 ADD SWAP1 DUP10 DUP5 GT ISZERO PUSH2 0x4C35 JUMPI PUSH1 0x0 DUP1 REVERT JUMPDEST SWAP5 DUP3 ADD SWAP5 JUMPDEST DUP4 DUP7 LT ISZERO PUSH2 0x4C5C JUMPI DUP6 MLOAD PUSH2 0x4C4D DUP2 PUSH2 0x428E JUMP JUMPDEST DUP3 MSTORE SWAP5 DUP3 ADD SWAP5 SWAP1 DUP3 ADD SWAP1 PUSH2 0x4C3A JUMP JUMPDEST SWAP2 DUP9 ADD MLOAD SWAP2 SWAP7 POP SWAP1 SWAP4 POP POP POP DUP1 DUP3 GT ISZERO PUSH2 0x4C75 JUMPI PUSH1 0x0 DUP1 REVERT JUMPDEST POP PUSH2 0x4C82 DUP6 DUP3 DUP7 ADD PUSH2 0x4B5D JUMP JUMPDEST SWAP2 POP POP SWAP3 POP SWAP3 SWAP1 POP JUMP JUMPDEST PUSH1 0x20 DUP1 DUP3 MSTORE PUSH1 0x10 SWAP1 DUP3 ADD MSTORE PUSH16 0x756E737570706F727465642073616C65 PUSH1 0x80 SHL PUSH1 0x40 DUP3 ADD MSTORE PUSH1 0x60 ADD SWAP1 JUMP JUMPDEST DUP1 DUP3 ADD DUP1 DUP3 GT ISZERO PUSH2 0x5BD JUMPI PUSH2 0x5BD PUSH2 0x4B0B JUMP JUMPDEST DUP2 DUP2 SUB DUP2 DUP2 GT ISZERO PUSH2 0x5BD JUMPI PUSH2 0x5BD PUSH2 0x4B0B JUMP JUMPDEST PUSH1 0x0 PUSH2 0x160 DUP1 DUP4 MSTORE DUP9 MLOAD PUSH2 0x100 DUP1 DUP4 DUP7 ADD MSTORE PUSH2 0x4CFC PUSH2 0x260 DUP7 ADD DUP4 PUSH2 0x4A81 JUMP JUMPDEST PUSH1 0x20 DUP13 ADD MLOAD PUSH1 0x1 PUSH1 0x1 PUSH1 0xA0 SHL SUB AND PUSH2 0x180 DUP8 ADD MSTORE PUSH1 0x40 DUP13 ADD MLOAD PUSH2 0x1A0 DUP8 ADD MSTORE PUSH1 0x60 DUP13 ADD MLOAD PUSH1 0x1 PUSH1 0x1 PUSH1 0x40 SHL SUB AND PUSH2 0x1C0 DUP8 ADD MSTORE PUSH1 0x80 DUP13 ADD MLOAD SWAP1 SWAP4 POP SWAP2 POP PUSH2 0x4D4F PUSH2 0x1E0 DUP7 ADD DUP4 PUSH1 0x1 PUSH1 0x1 PUSH1 0xA0 SHL SUB AND SWAP1 MSTORE JUMP JUMPDEST PUSH1 0xA0 DUP12 ADD MLOAD PUSH1 0x1 PUSH1 0x1 PUSH1 0x40 SHL SUB AND PUSH2 0x200 DUP7 ADD MSTORE PUSH1 0xC0 DUP12 ADD MLOAD PUSH1 0x1 PUSH1 0x1 PUSH1 0xA0 SHL SUB DUP2 AND PUSH2 0x220 DUP8 ADD MSTORE PUSH1 0xE0 DUP13 ADD MLOAD PUSH2 0x240 DUP8 ADD MSTORE DUP6 DUP5 SUB PUSH1 0x20 DUP8 ADD MSTORE SWAP2 POP PUSH2 0x4D97 DUP4 DUP12 PUSH2 0x4460 JUMP JUMPDEST SWAP4 POP PUSH2 0x4DA6 PUSH1 0x40 DUP7 ADD DUP11 PUSH2 0x44F0 JUMP JUMPDEST DUP5 ADD SWAP7 SWAP1 SWAP7 MSTORE POP PUSH2 0x120 DUP3 ADD SWAP4 SWAP1 SWAP4 MSTORE PUSH2 0x140 ADD MSTORE SWAP5 SWAP4 POP POP POP POP JUMP JUMPDEST DUP2 DUP4 DUP3 CALLDATACOPY PUSH1 0x0 SWAP2 ADD SWAP1 DUP2 MSTORE SWAP2 SWAP1 POP JUMP JUMPDEST PUSH1 0x20 DUP1 DUP3 MSTORE PUSH1 0x38 SWAP1 DUP3 ADD MSTORE PUSH32 0x73686F756C64206E6F74206265207A65726F2061646472657373206F72207072 PUSH1 0x40 DUP3 ADD MSTORE PUSH32 0x6576696F757320736574746C656D656E74206164726573730000000000000000 PUSH1 0x60 DUP3 ADD MSTORE PUSH1 0x80 ADD SWAP1 JUMP JUMPDEST PUSH1 0x20 DUP1 DUP3 MSTORE PUSH1 0x38 SWAP1 DUP3 ADD MSTORE PUSH32 0x73686F756C642070726F7669646520657175616C206C656E67746820696E2070 PUSH1 0x40 DUP3 ADD MSTORE PUSH32 0x7269636520616E64207061796D656E7420616464726573730000000000000000 PUSH1 0x60 DUP3 ADD MSTORE PUSH1 0x80 ADD SWAP1 JUMP JUMPDEST PUSH2 0xFFFF DUP2 DUP2 AND DUP4 DUP3 AND ADD SWAP1 DUP1 DUP3 GT ISZERO PUSH2 0x3AAC JUMPI PUSH2 0x3AAC PUSH2 0x4B0B JUMP JUMPDEST PUSH1 0x0 DUP1 DUP4 CALLDATALOAD PUSH1 0x1E NOT DUP5 CALLDATASIZE SUB ADD DUP2 SLT PUSH2 0x4EBF JUMPI PUSH1 0x0 DUP1 REVERT JUMPDEST DUP4 ADD DUP1 CALLDATALOAD SWAP2 POP PUSH1 0x1 PUSH1 0x1 PUSH1 0x40 SHL SUB DUP3 GT ISZERO PUSH2 0x4ED9 JUMPI PUSH1 0x0 DUP1 REVERT JUMPDEST PUSH1 0x20 ADD SWAP2 POP PUSH1 0x5 DUP2 SWAP1 SHL CALLDATASIZE SUB DUP3 SGT ISZERO PUSH2 0x472C JUMPI PUSH1 0x0 DUP1 REVERT JUMPDEST PUSH1 0x0 PUSH1 0x20 DUP3 DUP5 SUB SLT ISZERO PUSH2 0x4F03 JUMPI PUSH1 0x0 DUP1 REVERT JUMPDEST DUP2 CALLDATALOAD PUSH2 0x218B DUP2 PUSH2 0x481C JUMP JUMPDEST PUSH1 0x1 PUSH1 0x1 PUSH1 0xE0 SHL SUB NOT SWAP2 SWAP1 SWAP2 AND DUP2 MSTORE PUSH1 0x20 ADD SWAP1 JUMP JUMPDEST PUSH1 0x0 PUSH1 0x20 DUP3 DUP5 SUB SLT ISZERO PUSH2 0x4F35 JUMPI PUSH1 0x0 DUP1 REVERT JUMPDEST DUP2 MLOAD DUP1 ISZERO ISZERO DUP2 EQ PUSH2 0x218B JUMPI PUSH1 0x0 DUP1 REVERT JUMPDEST PUSH1 0x0 DUP2 CALLDATALOAD PUSH2 0x5BD DUP2 PUSH2 0x428E JUMP JUMPDEST DUP1 SLOAD PUSH1 0x1 PUSH1 0x1 PUSH1 0xA0 SHL SUB NOT AND PUSH1 0x1 PUSH1 0x1 PUSH1 0xA0 SHL SUB SWAP3 SWAP1 SWAP3 AND SWAP2 SWAP1 SWAP2 OR SWAP1 SSTORE JUMP JUMPDEST PUSH1 0x0 DUP2 CALLDATALOAD PUSH2 0x5BD DUP2 PUSH2 0x424C JUMP JUMPDEST DUP1 DUP3 MUL DUP2 ISZERO DUP3 DUP3 DIV DUP5 EQ OR PUSH2 0x5BD JUMPI PUSH2 0x5BD PUSH2 0x4B0B JUMP JUMPDEST DUP2 DUP4 LT ISZERO PUSH2 0x3E10 JUMPI PUSH1 0x0 DUP2 DUP2 MSTORE PUSH1 0x20 DUP2 KECCAK256 DUP5 DUP2 ADD SWAP1 DUP5 ADD JUMPDEST DUP1 DUP3 LT ISZERO PUSH2 0x4FC4 JUMPI DUP3 DUP3 SSTORE PUSH1 0x1 DUP3 ADD SWAP2 POP PUSH2 0x4FAE JUMP JUMPDEST POP POP POP POP POP POP JUMP JUMPDEST PUSH1 0x1 PUSH1 0x1 PUSH1 0x40 SHL SUB DUP4 GT ISZERO PUSH2 0x4FE3 JUMPI PUSH2 0x4FE3 PUSH2 0x42CB JUMP JUMPDEST PUSH1 0x1 PUSH1 0x40 SHL DUP4 GT ISZERO PUSH2 0x4FF7 JUMPI PUSH2 0x4FF7 PUSH2 0x42CB JUMP JUMPDEST DUP1 SLOAD DUP4 DUP3 SSTORE PUSH2 0x5007 DUP5 DUP3 DUP5 PUSH2 0x4F96 JUMP JUMPDEST POP DUP2 DUP2 PUSH1 0x0 MSTORE PUSH1 0x20 DUP1 PUSH1 0x0 KECCAK256 PUSH1 0x0 JUMPDEST DUP7 DUP2 LT ISZERO PUSH2 0x5030 JUMPI DUP4 CALLDATALOAD DUP3 DUP3 ADD SSTORE SWAP3 DUP3 ADD SWAP3 PUSH1 0x1 ADD PUSH2 0x5016 JUMP JUMPDEST POP POP POP POP POP POP POP JUMP JUMPDEST PUSH1 0x1 PUSH1 0x1 PUSH1 0x40 SHL SUB DUP4 GT ISZERO PUSH2 0x5050 JUMPI PUSH2 0x5050 PUSH2 0x42CB JUMP JUMPDEST PUSH1 0x1 PUSH1 0x40 SHL DUP4 GT ISZERO PUSH2 0x5064 JUMPI PUSH2 0x5064 PUSH2 0x42CB JUMP JUMPDEST DUP1 SLOAD DUP4 DUP3 SSTORE PUSH2 0x5074 DUP5 DUP3 DUP5 PUSH2 0x4F96 JUMP JUMPDEST POP DUP2 DUP2 PUSH1 0x0 MSTORE PUSH1 0x20 DUP1 PUSH1 0x0 KECCAK256 PUSH1 0x0 JUMPDEST DUP7 DUP2 LT ISZERO PUSH2 0x5030 JUMPI DUP4 CALLDATALOAD PUSH2 0x5096 DUP2 PUSH2 0x428E JUMP JUMPDEST DUP3 DUP3 ADD SSTORE SWAP3 DUP3 ADD SWAP3 PUSH1 0x1 ADD PUSH2 0x5083 JUMP JUMPDEST DUP1 SLOAD PUSH2 0xFFFF PUSH1 0xA0 SHL NOT AND PUSH1 0xA0 SWAP3 SWAP1 SWAP3 SHL PUSH2 0xFFFF PUSH1 0xA0 SHL AND SWAP2 SWAP1 SWAP2 OR SWAP1 SSTORE JUMP JUMPDEST DUP2 CALLDATALOAD PUSH2 0x50D0 DUP2 PUSH2 0x428E JUMP JUMPDEST PUSH2 0x50DA DUP2 DUP4 PUSH2 0x4F52 JUMP JUMPDEST POP PUSH1 0x20 DUP3 ADD CALLDATALOAD PUSH2 0x50E9 DUP2 PUSH2 0x428E JUMP JUMPDEST PUSH2 0x50F6 DUP2 PUSH1 0x1 DUP5 ADD PUSH2 0x4F52 JUMP JUMPDEST POP PUSH1 0x2 DUP2 ADD PUSH1 0x40 DUP4 ADD CALLDATALOAD PUSH2 0x5109 DUP2 PUSH2 0x428E JUMP JUMPDEST PUSH2 0x5113 DUP2 DUP4 PUSH2 0x4F52 JUMP JUMPDEST POP PUSH1 0x60 DUP4 ADD CALLDATALOAD PUSH2 0x5122 DUP2 PUSH2 0x4789 JUMP JUMPDEST PUSH2 0x512C DUP2 DUP4 PUSH2 0x50A6 JUMP JUMPDEST POP POP PUSH1 0x3 DUP2 ADD PUSH1 0x80 DUP4 ADD CALLDATALOAD PUSH2 0x5140 DUP2 PUSH2 0x428E JUMP JUMPDEST PUSH2 0x514A DUP2 DUP4 PUSH2 0x4F52 JUMP JUMPDEST POP PUSH1 0xA0 DUP4 ADD CALLDATALOAD PUSH2 0x5159 DUP2 PUSH2 0x4789 JUMP JUMPDEST PUSH2 0x3B86 DUP2 DUP4 PUSH2 0x50A6 JUMP JUMPDEST PUSH1 0x0 DUP2 CALLDATALOAD PUSH2 0x5BD DUP2 PUSH2 0x481C JUMP JUMPDEST PUSH2 0x5179 DUP3 PUSH2 0x455A JUMP JUMPDEST DUP1 SLOAD PUSH1 0xFF PUSH1 0x40 SHL DUP4 PUSH1 0x40 SHL AND PUSH1 0xFF PUSH1 0x40 SHL NOT DUP3 AND OR DUP3 SSTORE POP POP POP JUMP JUMPDEST PUSH2 0x519E DUP3 PUSH2 0x455A JUMP JUMPDEST DUP1 SLOAD PUSH1 0xFF PUSH1 0x48 SHL DUP4 PUSH1 0x48 SHL AND PUSH1 0xFF PUSH1 0x48 SHL NOT DUP3 AND OR DUP3 SSTORE POP POP POP JUMP JUMPDEST PUSH2 0x51CC PUSH2 0x51C6 DUP4 PUSH2 0x4F45 JUMP JUMPDEST DUP3 PUSH2 0x4F52 JUMP JUMPDEST PUSH2 0x5207 PUSH2 0x51DB PUSH1 0x20 DUP5 ADD PUSH2 0x4F72 JUMP JUMPDEST DUP3 DUP1 SLOAD PUSH8 0xFFFFFFFFFFFFFFFF PUSH1 0xA0 SHL NOT AND PUSH1 0xA0 SWAP3 SWAP1 SWAP3 SHL PUSH8 0xFFFFFFFFFFFFFFFF PUSH1 0xA0 SHL AND SWAP2 SWAP1 SWAP2 OR SWAP1 SSTORE JUMP JUMPDEST PUSH2 0x5237 PUSH2 0x5216 PUSH1 0x40 DUP5 ADD PUSH2 0x4F72 JUMP JUMPDEST PUSH1 0x1 DUP4 ADD PUSH1 0x1 PUSH1 0x1 PUSH1 0x40 SHL SUB DUP3 AND PUSH1 0x1 PUSH1 0x1 PUSH1 0x40 SHL SUB NOT DUP3 SLOAD AND OR DUP2 SSTORE POP POP JUMP JUMPDEST PUSH1 0x60 DUP3 ADD CALLDATALOAD PUSH1 0x2 DUP3 ADD SSTORE PUSH2 0x524E PUSH1 0x80 DUP4 ADD DUP4 PUSH2 0x4EA8 JUMP JUMPDEST PUSH2 0x525C DUP2 DUP4 PUSH1 0x3 DUP7 ADD PUSH2 0x4FCC JUMP JUMPDEST POP POP PUSH2 0x526B PUSH1 0xA0 DUP4 ADD DUP4 PUSH2 0x4EA8 JUMP JUMPDEST PUSH2 0x5279 DUP2 DUP4 PUSH1 0x4 DUP7 ADD PUSH2 0x5039 JUMP JUMPDEST POP POP PUSH2 0x528B PUSH1 0xC0 DUP4 ADD PUSH1 0x5 DUP4 ADD PUSH2 0x50C5 JUMP JUMPDEST PUSH1 0x9 DUP2 ADD PUSH2 0x52BD PUSH2 0x529F PUSH2 0x180 DUP6 ADD PUSH2 0x4F72 JUMP JUMPDEST DUP3 SLOAD PUSH8 0xFFFFFFFFFFFFFFFF NOT AND PUSH1 0x1 PUSH1 0x1 PUSH1 0x40 SHL SUB SWAP2 SWAP1 SWAP2 AND OR DUP3 SSTORE JUMP JUMPDEST PUSH2 0x52D3 PUSH2 0x52CD PUSH2 0x1A0 DUP6 ADD PUSH2 0x5163 JUMP JUMPDEST DUP3 PUSH2 0x5170 JUMP JUMPDEST PUSH2 0x3E10 PUSH2 0x52E3 PUSH2 0x1C0 DUP6 ADD PUSH2 0x5163 JUMP JUMPDEST DUP3 PUSH2 0x5195 JUMP JUMPDEST PUSH1 0x0 DUP1 DUP4 CALLDATALOAD PUSH1 0x1E NOT DUP5 CALLDATASIZE SUB ADD DUP2 SLT PUSH2 0x5300 JUMPI PUSH1 0x0 DUP1 REVERT JUMPDEST DUP4 ADD PUSH1 0x20 DUP2 ADD SWAP3 POP CALLDATALOAD SWAP1 POP PUSH1 0x1 PUSH1 0x1 PUSH1 0x40 SHL SUB DUP2 GT ISZERO PUSH2 0x531F JUMPI PUSH1 0x0 DUP1 REVERT JUMPDEST DUP1 PUSH1 0x5 SHL CALLDATASIZE SUB DUP3 SGT ISZERO PUSH2 0x472C JUMPI PUSH1 0x0 DUP1 REVERT JUMPDEST DUP2 DUP4 MSTORE PUSH1 0x0 PUSH1 0x1 PUSH1 0x1 PUSH1 0xFB SHL SUB DUP4 GT ISZERO PUSH2 0x534A JUMPI PUSH1 0x0 DUP1 REVERT JUMPDEST DUP3 PUSH1 0x5 SHL DUP1 DUP4 PUSH1 0x20 DUP8 ADD CALLDATACOPY SWAP4 SWAP1 SWAP4 ADD PUSH1 0x20 ADD SWAP4 SWAP3 POP POP POP JUMP JUMPDEST DUP2 DUP4 MSTORE PUSH1 0x0 PUSH1 0x20 DUP1 DUP6 ADD SWAP5 POP DUP3 PUSH1 0x0 JUMPDEST DUP6 DUP2 LT ISZERO PUSH2 0x4416 JUMPI DUP2 CALLDATALOAD PUSH2 0x5386 DUP2 PUSH2 0x428E JUMP JUMPDEST PUSH1 0x1 PUSH1 0x1 PUSH1 0xA0 SHL SUB AND DUP8 MSTORE SWAP6 DUP3 ADD SWAP6 SWAP1 DUP3 ADD SWAP1 PUSH1 0x1 ADD PUSH2 0x5373 JUMP JUMPDEST DUP1 CALLDATALOAD PUSH2 0x53AC DUP2 PUSH2 0x428E JUMP JUMPDEST PUSH1 0x1 PUSH1 0x1 PUSH1 0xA0 SHL SUB SWAP1 DUP2 AND DUP4 MSTORE PUSH1 0x20 DUP3 ADD CALLDATALOAD SWAP1 PUSH2 0x53C8 DUP3 PUSH2 0x428E JUMP JUMPDEST SWAP1 DUP2 AND PUSH1 0x20 DUP5 ADD MSTORE PUSH1 0x40 DUP3 ADD CALLDATALOAD SWAP1 PUSH2 0x53DF DUP3 PUSH2 0x428E JUMP JUMPDEST SWAP1 DUP2 AND PUSH1 0x40 DUP5 ADD MSTORE PUSH1 0x60 DUP3 ADD CALLDATALOAD SWAP1 PUSH2 0x53F6 DUP3 PUSH2 0x4789 JUMP JUMPDEST PUSH2 0xFFFF SWAP2 DUP3 AND PUSH1 0x60 DUP6 ADD MSTORE PUSH1 0x80 DUP4 ADD CALLDATALOAD SWAP2 PUSH2 0x5410 DUP4 PUSH2 0x428E JUMP JUMPDEST SWAP2 DUP2 AND PUSH1 0x80 DUP6 ADD MSTORE PUSH1 0xA0 DUP4 ADD CALLDATALOAD SWAP2 PUSH2 0x5427 DUP4 PUSH2 0x4789 JUMP JUMPDEST DUP1 DUP4 AND PUSH1 0xA0 DUP7 ADD MSTORE POP POP POP POP POP JUMP JUMPDEST PUSH1 0x20 DUP2 MSTORE PUSH2 0x5457 PUSH1 0x20 DUP3 ADD PUSH2 0x544A DUP5 PUSH2 0x42A3 JUMP JUMPDEST PUSH1 0x1 PUSH1 0x1 PUSH1 0xA0 SHL SUB AND SWAP1 MSTORE JUMP JUMPDEST PUSH1 0x0 PUSH2 0x5465 PUSH1 0x20 DUP5 ADD PUSH2 0x4261 JUMP JUMPDEST PUSH1 0x1 PUSH1 0x1 PUSH1 0x40 SHL SUB DUP2 AND PUSH1 0x40 DUP5 ADD MSTORE POP PUSH2 0x5481 PUSH1 0x40 DUP5 ADD PUSH2 0x4261 JUMP JUMPDEST PUSH1 0x1 PUSH1 0x1 PUSH1 0x40 SHL SUB DUP2 AND PUSH1 0x60 DUP5 ADD MSTORE POP PUSH1 0x60 DUP4 ADD CALLDATALOAD PUSH1 0x80 DUP4 ADD MSTORE PUSH2 0x54A8 PUSH1 0x80 DUP5 ADD DUP5 PUSH2 0x52E9 JUMP JUMPDEST PUSH2 0x1E0 DUP1 PUSH1 0xA0 DUP7 ADD MSTORE PUSH2 0x54C0 PUSH2 0x200 DUP7 ADD DUP4 DUP6 PUSH2 0x5331 JUMP JUMPDEST SWAP3 POP PUSH2 0x54CF PUSH1 0xA0 DUP8 ADD DUP8 PUSH2 0x52E9 JUMP JUMPDEST DUP7 DUP6 SUB PUSH1 0x1F NOT ADD PUSH1 0xC0 DUP9 ADD MSTORE SWAP3 POP PUSH2 0x54E8 DUP5 DUP5 DUP4 PUSH2 0x5363 JUMP JUMPDEST SWAP4 POP POP PUSH2 0x54FB PUSH1 0xE0 DUP7 ADD PUSH1 0xC0 DUP9 ADD PUSH2 0x53A1 JUMP JUMPDEST PUSH2 0x5508 PUSH2 0x180 DUP8 ADD PUSH2 0x4261 JUMP JUMPDEST SWAP2 POP PUSH2 0x1A0 PUSH2 0x5521 DUP2 DUP8 ADD DUP5 PUSH1 0x1 PUSH1 0x1 PUSH1 0x40 SHL SUB AND SWAP1 MSTORE JUMP JUMPDEST PUSH2 0x552C DUP2 DUP9 ADD PUSH2 0x4829 JUMP JUMPDEST SWAP3 POP POP PUSH2 0x1C0 PUSH2 0x553E DUP2 DUP8 ADD DUP5 PUSH2 0x4578 JUMP JUMPDEST PUSH2 0x5549 DUP2 DUP9 ADD PUSH2 0x4829 JUMP JUMPDEST SWAP3 POP POP PUSH2 0x5558 DUP2 DUP7 ADD DUP4 PUSH2 0x4578 JUMP JUMPDEST POP SWAP1 SWAP5 SWAP4 POP POP POP POP JUMP JUMPDEST PUSH1 0x20 DUP1 DUP3 MSTORE PUSH1 0x4F SWAP1 DUP3 ADD MSTORE PUSH32 0x54686973206973206E6F7420612076616C696420746F6B656E49642E20506C65 PUSH1 0x40 DUP3 ADD MSTORE PUSH32 0x6173652076657269667920746861742074686520746F6B656E49642070726F76 PUSH1 0x60 DUP3 ADD MSTORE PUSH15 0x1A591959081A5CC818DBDC9C9958DD PUSH1 0x8A SHL PUSH1 0x80 DUP3 ADD MSTORE PUSH1 0xA0 ADD SWAP1 JUMP JUMPDEST PUSH1 0x0 PUSH1 0x20 DUP3 DUP5 SUB SLT ISZERO PUSH2 0x55E9 JUMPI PUSH1 0x0 DUP1 REVERT JUMPDEST POP MLOAD SWAP2 SWAP1 POP JUMP JUMPDEST PUSH1 0x0 PUSH1 0x20 DUP3 DUP5 SUB SLT ISZERO PUSH2 0x5602 JUMPI PUSH1 0x0 DUP1 REVERT JUMPDEST DUP2 MLOAD PUSH2 0x218B DUP2 PUSH2 0x428E JUMP JUMPDEST PUSH1 0x0 PUSH1 0x20 DUP3 DUP5 SUB SLT ISZERO PUSH2 0x561F JUMPI PUSH1 0x0 DUP1 REVERT JUMPDEST DUP2 MLOAD PUSH1 0x1 PUSH1 0x1 PUSH1 0x40 SHL SUB DUP2 GT ISZERO PUSH2 0x5635 JUMPI PUSH1 0x0 DUP1 REVERT JUMPDEST PUSH2 0x3FFC DUP5 DUP3 DUP6 ADD PUSH2 0x4B5D JUMP JUMPDEST PUSH1 0x60 DUP2 MSTORE PUSH1 0x0 PUSH2 0x5654 PUSH1 0x60 DUP4 ADD DUP7 PUSH2 0x43DD JUMP JUMPDEST PUSH1 0x20 DUP4 DUP3 SUB DUP2 DUP6 ADD MSTORE PUSH2 0x5667 DUP3 DUP8 PUSH2 0x4460 JUMP JUMPDEST SWAP2 POP DUP4 DUP3 SUB PUSH1 0x40 DUP6 ADD MSTORE DUP2 DUP6 MLOAD DUP1 DUP5 MSTORE DUP3 DUP5 ADD SWAP2 POP DUP3 DUP2 PUSH1 0x5 SHL DUP6 ADD ADD DUP4 DUP9 ADD PUSH1 0x0 JUMPDEST DUP4 DUP2 LT ISZERO PUSH2 0x56B8 JUMPI PUSH1 0x1F NOT DUP8 DUP5 SUB ADD DUP6 MSTORE PUSH2 0x56A6 DUP4 DUP4 MLOAD PUSH2 0x4A81 JUMP JUMPDEST SWAP5 DUP7 ADD SWAP5 SWAP3 POP SWAP1 DUP6 ADD SWAP1 PUSH1 0x1 ADD PUSH2 0x568A JUMP JUMPDEST POP SWAP1 SWAP11 SWAP10 POP POP POP POP POP POP POP POP POP POP JUMP JUMPDEST PUSH1 0x60 DUP2 MSTORE PUSH1 0x0 PUSH2 0x56DB PUSH1 0x60 DUP4 ADD DUP7 PUSH2 0x43DD JUMP JUMPDEST DUP3 DUP2 SUB PUSH1 0x20 DUP5 ADD MSTORE PUSH2 0x56ED DUP2 DUP7 PUSH2 0x4460 JUMP JUMPDEST SWAP1 POP DUP3 DUP2 SUB PUSH1 0x40 DUP5 ADD MSTORE PUSH2 0x44E6 DUP2 DUP6 PUSH2 0x4460 JUMP JUMPDEST PUSH1 0x0 DUP3 PUSH2 0x571E JUMPI PUSH4 0x4E487B71 PUSH1 0xE0 SHL PUSH1 0x0 MSTORE PUSH1 0x12 PUSH1 0x4 MSTORE PUSH1 0x24 PUSH1 0x0 REVERT JUMPDEST POP DIV SWAP1 JUMP JUMPDEST PUSH4 0x4E487B71 PUSH1 0xE0 SHL PUSH1 0x0 MSTORE PUSH1 0x31 PUSH1 0x4 MSTORE PUSH1 0x24 PUSH1 0x0 REVERT INVALID LOG2 PUSH5 0x6970667358 0x22 SLT KECCAK256 0xD9 0x2E 0x2E PUSH25 0x34791EA5D6F4730EFD4F5C0DA3B045813DF5BB9536FAEAF268 0xC4 CALLVALUE 0xE0 PUSH5 0x736F6C6343 STOP ADDMOD GT STOP CALLER "},"methodIdentifiers":{"approveAdmin(address)":"6d73e669","buy((string,address,uint256,uint64,address,uint64,address,uint256),uint256)":"acecf9de","cancelSale(string)":"2977f78a","createSale((address,uint64,uint64,uint256,uint256[],address[],(address,address,address,uint16,address,uint16),uint64,uint8,uint8),string)":"fd114f08","getAdmins()":"31ae450b","getContractData()":"a68b91ab","getListingPrice(string)":"df354bdd","getRoyaltyInfo(address,uint256)":"773fe986","isAdmin(address)":"24d7806c","listings(string)":"77dec6c3","owner()":"8da5cb5b","renounceOwnership()":"715018a6","revokeAdmin(address)":"2d345670","supportsInterface(bytes4)":"01ffc9a7","transferOwnership(address)":"f2fde38b","updatePayment(string,uint8,uint256,uint256[],address[])":"dfa12f79","updatePlatformAddress(address)":"8f9f193f","updatePlatformFeePercentage(uint16)":"cbc9a941","updatePricefeedContract(address)":"705e3f6c","updateRoyaltyContract(address)":"4b9804b2","updatemax1155Quantity(uint64)":"19e4367c","updatepaymentSettlementAddress(string,address)":"e8ac841f","updatetaxSettlementAddress(string,address)":"bf9afc18","withdraw()":"3ccfd60b"}}}}}