{
  "_format": "hh-sol-artifact-1",
  "contractName": "ERC721BurnRedeemSet",
  "sourceName": "contracts/manifold/creator-core-extensions/redeem/ERC721/ERC721BurnRedeemSet.sol",
  "abi": [
    {
      "inputs": [
        {
          "internalType": "address",
          "name": "creator",
          "type": "address"
        },
        {
          "components": [
            {
              "internalType": "address",
              "name": "tokenAddress",
              "type": "address"
            },
            {
              "internalType": "uint256",
              "name": "minTokenId",
              "type": "uint256"
            },
            {
              "internalType": "uint256",
              "name": "maxTokenId",
              "type": "uint256"
            }
          ],
          "internalType": "struct IRedeemSetBase.RedemptionItem[]",
          "name": "redemptionSet",
          "type": "tuple[]"
        },
        {
          "internalType": "uint16",
          "name": "redemptionMax",
          "type": "uint16"
        }
      ],
      "stateMutability": "nonpayable",
      "type": "constructor"
    },
    {
      "anonymous": false,
      "inputs": [
        {
          "indexed": true,
          "internalType": "address",
          "name": "account",
          "type": "address"
        },
        {
          "indexed": true,
          "internalType": "address",
          "name": "sender",
          "type": "address"
        }
      ],
      "name": "AdminApproved",
      "type": "event"
    },
    {
      "anonymous": false,
      "inputs": [
        {
          "indexed": true,
          "internalType": "address",
          "name": "account",
          "type": "address"
        },
        {
          "indexed": true,
          "internalType": "address",
          "name": "sender",
          "type": "address"
        }
      ],
      "name": "AdminRevoked",
      "type": "event"
    },
    {
      "anonymous": false,
      "inputs": [
        {
          "indexed": true,
          "internalType": "address",
          "name": "previousOwner",
          "type": "address"
        },
        {
          "indexed": true,
          "internalType": "address",
          "name": "newOwner",
          "type": "address"
        }
      ],
      "name": "OwnershipTransferred",
      "type": "event"
    },
    {
      "anonymous": false,
      "inputs": [
        {
          "indexed": false,
          "internalType": "address",
          "name": "tokenAddress",
          "type": "address"
        },
        {
          "indexed": false,
          "internalType": "uint256",
          "name": "minTokenId",
          "type": "uint256"
        },
        {
          "indexed": false,
          "internalType": "uint256",
          "name": "maxTokenId",
          "type": "uint256"
        }
      ],
      "name": "RedeemSetApprovedTokenRange",
      "type": "event"
    },
    {
      "inputs": [
        {
          "internalType": "address",
          "name": "admin",
          "type": "address"
        }
      ],
      "name": "approveAdmin",
      "outputs": [],
      "stateMutability": "nonpayable",
      "type": "function"
    },
    {
      "inputs": [],
      "name": "creatorContract",
      "outputs": [
        {
          "internalType": "address",
          "name": "",
          "type": "address"
        }
      ],
      "stateMutability": "view",
      "type": "function"
    },
    {
      "inputs": [],
      "name": "getAdmins",
      "outputs": [
        {
          "internalType": "address[]",
          "name": "admins",
          "type": "address[]"
        }
      ],
      "stateMutability": "view",
      "type": "function"
    },
    {
      "inputs": [],
      "name": "getRedemptionSet",
      "outputs": [
        {
          "components": [
            {
              "internalType": "address",
              "name": "tokenAddress",
              "type": "address"
            },
            {
              "internalType": "uint256",
              "name": "minTokenId",
              "type": "uint256"
            },
            {
              "internalType": "uint256",
              "name": "maxTokenId",
              "type": "uint256"
            }
          ],
          "internalType": "struct IRedeemSetBase.RedemptionItem[]",
          "name": "",
          "type": "tuple[]"
        }
      ],
      "stateMutability": "view",
      "type": "function"
    },
    {
      "inputs": [
        {
          "internalType": "address",
          "name": "admin",
          "type": "address"
        }
      ],
      "name": "isAdmin",
      "outputs": [
        {
          "internalType": "bool",
          "name": "",
          "type": "bool"
        }
      ],
      "stateMutability": "view",
      "type": "function"
    },
    {
      "inputs": [
        {
          "internalType": "uint256",
          "name": "tokenId",
          "type": "uint256"
        }
      ],
      "name": "mintNumber",
      "outputs": [
        {
          "internalType": "uint256",
          "name": "",
          "type": "uint256"
        }
      ],
      "stateMutability": "view",
      "type": "function"
    },
    {
      "inputs": [],
      "name": "mintedTokens",
      "outputs": [
        {
          "internalType": "uint256[]",
          "name": "",
          "type": "uint256[]"
        }
      ],
      "stateMutability": "view",
      "type": "function"
    },
    {
      "inputs": [
        {
          "internalType": "address",
          "name": "",
          "type": "address"
        },
        {
          "internalType": "address",
          "name": "from",
          "type": "address"
        },
        {
          "internalType": "uint256[]",
          "name": "ids",
          "type": "uint256[]"
        },
        {
          "internalType": "uint256[]",
          "name": "values",
          "type": "uint256[]"
        },
        {
          "internalType": "bytes",
          "name": "data",
          "type": "bytes"
        }
      ],
      "name": "onERC1155BatchReceived",
      "outputs": [
        {
          "internalType": "bytes4",
          "name": "",
          "type": "bytes4"
        }
      ],
      "stateMutability": "nonpayable",
      "type": "function"
    },
    {
      "inputs": [
        {
          "internalType": "address",
          "name": "",
          "type": "address"
        },
        {
          "internalType": "address",
          "name": "",
          "type": "address"
        },
        {
          "internalType": "uint256",
          "name": "",
          "type": "uint256"
        },
        {
          "internalType": "uint256",
          "name": "",
          "type": "uint256"
        },
        {
          "internalType": "bytes",
          "name": "",
          "type": "bytes"
        }
      ],
      "name": "onERC1155Received",
      "outputs": [
        {
          "internalType": "bytes4",
          "name": "",
          "type": "bytes4"
        }
      ],
      "stateMutability": "pure",
      "type": "function"
    },
    {
      "inputs": [],
      "name": "owner",
      "outputs": [
        {
          "internalType": "address",
          "name": "",
          "type": "address"
        }
      ],
      "stateMutability": "view",
      "type": "function"
    },
    {
      "inputs": [
        {
          "internalType": "address",
          "name": "contract_",
          "type": "address"
        },
        {
          "internalType": "uint256",
          "name": "tokenId",
          "type": "uint256"
        }
      ],
      "name": "recoverERC721",
      "outputs": [],
      "stateMutability": "nonpayable",
      "type": "function"
    },
    {
      "inputs": [
        {
          "internalType": "address[]",
          "name": "contracts",
          "type": "address[]"
        },
        {
          "internalType": "uint256[]",
          "name": "tokenIds",
          "type": "uint256[]"
        }
      ],
      "name": "redeemERC721",
      "outputs": [],
      "stateMutability": "nonpayable",
      "type": "function"
    },
    {
      "inputs": [],
      "name": "redemptionMax",
      "outputs": [
        {
          "internalType": "uint16",
          "name": "",
          "type": "uint16"
        }
      ],
      "stateMutability": "view",
      "type": "function"
    },
    {
      "inputs": [],
      "name": "redemptionRemaining",
      "outputs": [
        {
          "internalType": "uint16",
          "name": "",
          "type": "uint16"
        }
      ],
      "stateMutability": "view",
      "type": "function"
    },
    {
      "inputs": [],
      "name": "renounceOwnership",
      "outputs": [],
      "stateMutability": "nonpayable",
      "type": "function"
    },
    {
      "inputs": [
        {
          "internalType": "address",
          "name": "admin",
          "type": "address"
        }
      ],
      "name": "revokeAdmin",
      "outputs": [],
      "stateMutability": "nonpayable",
      "type": "function"
    },
    {
      "inputs": [
        {
          "internalType": "address",
          "name": "contract_",
          "type": "address"
        },
        {
          "internalType": "uint256",
          "name": "tokenId",
          "type": "uint256"
        },
        {
          "internalType": "address",
          "name": "recoverer",
          "type": "address"
        }
      ],
      "name": "setERC721Recoverable",
      "outputs": [],
      "stateMutability": "nonpayable",
      "type": "function"
    },
    {
      "inputs": [
        {
          "internalType": "bytes4",
          "name": "interfaceId",
          "type": "bytes4"
        }
      ],
      "name": "supportsInterface",
      "outputs": [
        {
          "internalType": "bool",
          "name": "",
          "type": "bool"
        }
      ],
      "stateMutability": "view",
      "type": "function"
    },
    {
      "inputs": [
        {
          "internalType": "address",
          "name": "newOwner",
          "type": "address"
        }
      ],
      "name": "transferOwnership",
      "outputs": [],
      "stateMutability": "nonpayable",
      "type": "function"
    }
  ],
  "bytecode": "0x60806040523480156200001157600080fd5b506040516200280e3803806200280e8339810160408190526200003491620005b6565b8282828260016000819055506200005e81639088c20760e01b6200022260201b6200124a1760201c565b80620000835750620000838163478c853060e01b6200022260201b6200124a1760201c565b620000e35760405162461bcd60e51b81526020600482015260416024820152600080516020620027ce8339815191526044820152600080516020620027ee8339815191526064820152606560f81b608482015260a4015b60405180910390fd5b600180546001600160a01b0319166001600160a01b039290921691909117905560006200010d3390565b600280546001600160a01b0319166001600160a01b038316908117909155604051919250906000907f8be0079c531659141344cd1fd0a4f28419497f9722a3daafe3b4186f6b6457e0908290a3506200017983639088c20760e01b6200022260201b6200124a1760201c565b806200019e57506200019e8363478c853060e01b6200022260201b6200124a1760201c565b620001fa5760405162461bcd60e51b81526020600482015260416024820152600080516020620027ce8339815191526044820152600080516020620027ee8339815191526064820152606560f81b608482015260a401620000da565b6006805461ffff191661ffff831617905562000216826200024c565b50505050505062000762565b60006200022f83620003e8565b801562000243575062000243838362000420565b90505b92915050565b60005b8151811015620003e4576000828281518110620002705762000270620006c8565b60200260200101519050806040015181602001511115620002e55760405162461bcd60e51b815260206004820152602860248201527f52656465656d3a206d696e206d757374206265206c657373206f7220657175616044820152670d840e8de40dac2f60c31b6064820152608401620000da565b60058054600181018255600091909152815160039091027f036b6384b5eca791c62761152d0c79bb0604c104a5fb6f4eb0703f3154bb3db0810180546001600160a01b039093166001600160a01b0319909316831790556020808401517f036b6384b5eca791c62761152d0c79bb0604c104a5fb6f4eb0703f3154bb3db183018190556040808601517f036b6384b5eca791c62761152d0c79bb0604c104a5fb6f4eb0703f3154bb3db29094018490558051948552918401528201527f9d5a4a7e610aaed00c155fe1d7bee706f869f4edb8b04433c9b9c2291bcd31039060600160405180910390a15080620003db81620006de565b9150506200024f565b5050565b6000620003fd826301ffc9a760e01b62000420565b801562000246575062000419826001600160e01b031962000420565b1592915050565b604080516001600160e01b0319831660248083019190915282518083039091018152604490910182526020810180516001600160e01b03166301ffc9a760e01b179052905160009190829081906001600160a01b03871690617530906200048990869062000706565b6000604051808303818686fa925050503d8060008114620004c7576040519150601f19603f3d011682016040523d82523d6000602084013e620004cc565b606091505b5091509150602081511015620004e9576000935050505062000246565b8180156200050857508080602001905181019062000508919062000737565b9695505050505050565b80516001600160a01b03811681146200052a57600080fd5b919050565b634e487b7160e01b600052604160045260246000fd5b604051606081016001600160401b03811182821017156200056a576200056a6200052f565b60405290565b604051601f8201601f191681016001600160401b03811182821017156200059b576200059b6200052f565b604052919050565b805161ffff811681146200052a57600080fd5b60008060006060808587031215620005cd57600080fd5b620005d88562000512565b602086810151919550906001600160401b0380821115620005f857600080fd5b818801915088601f8301126200060d57600080fd5b8151818111156200062257620006226200052f565b62000632848260051b0162000570565b818152848101925090850283018401908a8211156200065057600080fd5b928401925b81841015620006a85785848c0312156200066f5760008081fd5b6200067962000545565b620006848562000512565b81528486015186820152604080860151908201528352928501929184019162000655565b809750505050505050620006bf60408501620005a3565b90509250925092565b634e487b7160e01b600052603260045260246000fd5b600060018201620006ff57634e487b7160e01b600052601160045260246000fd5b5060010190565b6000825160005b818110156200072957602081860181015185830152016200070d565b506000920191825250919050565b6000602082840312156200074a57600080fd5b815180151581146200075b57600080fd5b9392505050565b61205c80620007726000396000f3fe608060405234801561001057600080fd5b50600436106101215760003560e01c8063715018a6116100ad578063bc197c8111610071578063bc197c8114610253578063d3e3ac8c1461027f578063f23a6e6114610292578063f2fde38b146102a5578063f79f20b5146102b857600080fd5b8063715018a614610206578063819d4cc61461020e5780638d75fe05146102215780638da5cb5b14610236578063ac4cc1481461024757600080fd5b806331ae450b116100f457806331ae450b146101915780633dae35ce146101a657806344a28bb7146101cb5780636c2ab4ba146101e05780636d73e669146101f357600080fd5b806301ffc9a71461012657806304c9fdb01461014e57806324d7806c146101695780632d3456701461017c575b600080fd5b6101396101343660046119c8565b6102e6565b60405190151581526020015b60405180910390f35b61015661032c565b60405161ffff9091168152602001610145565b610139610177366004611a07565b61034d565b61018f61018a366004611a07565b610386565b005b61019961040f565b6040516101459190611a24565b6001546001600160a01b03165b6040516001600160a01b039091168152602001610145565b6101d36104be565b6040516101459190611a71565b61018f6101ee366004611ad3565b610540565b61018f610201366004611a07565b610669565b61018f6106e3565b61018f61021c366004611b15565b610757565b610229610837565b6040516101459190611b41565b6002546001600160a01b03166101b3565b60065461ffff16610156565b610266610261366004611c07565b61088f565b6040516001600160e01b03199091168152602001610145565b61018f61028d366004611cc6565b610b9a565b6102666102a0366004611d32565b611145565b61018f6102b3366004611a07565b61115f565b6102d86102c6366004611dae565b60009081526008602052604090205490565b604051908152602001610145565b60006001600160e01b031982166303e5454f60e41b148061031757506001600160e01b03198216630271189760e51b145b8061032657506103268261126d565b92915050565b6006546000906103489061ffff62010000820481169116611ddd565b905090565b6000816001600160a01b031661036b6002546001600160a01b031690565b6001600160a01b0316148061032657506103266003836112a1565b6002546001600160a01b031633146103b95760405162461bcd60e51b81526004016103b090611df8565b60405180910390fd5b6103c46003826112a1565b1561040c5760405133906001600160a01b038316907f7c0c3c84c67c85fcac635147348bfe374c24a1a93d0366d1cfe9d8853cbf89d590600090a361040a6003826112c3565b505b50565b606061041b60036112d8565b67ffffffffffffffff81111561043357610433611e2d565b60405190808252806020026020018201604052801561045c578160200160208202803683370190505b50905060005b61046c60036112d8565b8110156104ba5761047e6003826112e2565b82828151811061049057610490611e43565b6001600160a01b0390921660209283029190910190910152806104b281611e59565b915050610462565b5090565b60606005805480602002602001604051908101604052809291908181526020016000905b82821015610537576000848152602090819020604080516060810182526003860290920180546001600160a01b03168352600180820154848601526002909101549183019190915290835290920191016104e2565b50505050905090565b336105536002546001600160a01b031690565b6001600160a01b0316148061056e575061056e6003336112a1565b6105c65760405162461bcd60e51b8152602060048201526024808201527f41646d696e436f6e74726f6c3a204d757374206265206f776e6572206f7220616044820152633236b4b760e11b60648201526084016103b0565b6105d7836380ac58cd60e01b61124a565b61062e5760405162461bcd60e51b815260206004820152602260248201527f4275726e52656465656d3a204d75737420696d706c656d656e74204945524337604482015261323160f01b60648201526084016103b0565b6001600160a01b0392831660009081526009602090815260408083209483529390529190912080546001600160a01b03191691909216179055565b6002546001600160a01b031633146106935760405162461bcd60e51b81526004016103b090611df8565b61069e6003826112a1565b61040c5760405133906001600160a01b038316907f7e1a1a08d52e4ba0e21554733d66165fd5151f99460116223d9e3a608eec5cb190600090a361040a6003826112ee565b6002546001600160a01b0316331461070d5760405162461bcd60e51b81526004016103b090611df8565b6002546040516000916001600160a01b0316907f8be0079c531659141344cd1fd0a4f28419497f9722a3daafe3b4186f6b6457e0908390a3600280546001600160a01b0319169055565b6001600160a01b038083166000908152600960209081526040808320858452909152902054163381146107cc5760405162461bcd60e51b815260206004820152601d60248201527f4275726e52656465656d3a205065726d697373696f6e2064656e69656400000060448201526064016103b0565b604051632142170760e11b8152306004820152336024820152604481018390526001600160a01b038416906342842e0e90606401600060405180830381600087803b15801561081a57600080fd5b505af115801561082e573d6000803e3d6000fd5b50505050505050565b6060600780548060200260200160405190810160405280929190818152602001828054801561088557602002820191906000526020600020905b815481526020019060010190808311610871575b5050505050905090565b60006002600054036108e35760405162461bcd60e51b815260206004820152601f60248201527f5265656e7472616e637947756172643a207265656e7472616e742063616c6c0060448201526064016103b0565b60026000558584146109375760405162461bcd60e51b815260206004820152601960248201527f4275726e52656465656d3a20496e76616c696420696e7075740000000000000060448201526064016103b0565b60008667ffffffffffffffff81111561095257610952611e2d565b60405190808252806020026020018201604052801561097b578160200160208202803683370190505b50905060005b87811015610a415786868281811061099b5761099b611e43565b90506020020135600114610a045760405162461bcd60e51b815260206004820152602a60248201527f4275726e52656465656d3a2043616e206f6e6c7920757365206f6e65206f662060448201526932b0b1b4103a37b5b2b760b11b60648201526084016103b0565b33828281518110610a1757610a17611e43565b6001600160a01b039092166020928302919091019091015280610a3981611e59565b915050610981565b50610a7f8189898080602002602001604051908101604052809392919081815260200183836020028082843760009201919091525061130392505050565b610a9b5760405162461bcd60e51b81526004016103b090611e72565b604051631759616b60e11b81523390632eb2c2d690610ace90309061dead908d908d908d908d908d908d90600401611edb565b600060405180830381600087803b158015610ae857600080fd5b505af1925050508015610af9575060015b610b75573d808015610b27576040519150601f19603f3d011682016040523d82523d6000602084013e610b2c565b606091505b5060405162461bcd60e51b815260206004820152601860248201527f4275726e52656465656d3a204275726e206661696c757265000000000000000060448201526064016103b0565b610b7e89611542565b505060016000555063bc197c8160e01b98975050505050505050565b600260005403610bec5760405162461bcd60e51b815260206004820152601f60248201527f5265656e7472616e637947756172643a207265656e7472616e742063616c6c0060448201526064016103b0565b6002600055828114610c405760405162461bcd60e51b815260206004820152601e60248201527f4275726e52656465656d3a20496e76616c696420706172616d6574657273000060448201526064016103b0565b610cad8484808060200260200160405190810160405280939291908181526020018383602002808284376000920191909152505060408051602080880282810182019093528782529093508792508691829185019084908082843760009201919091525061130392505050565b610cc95760405162461bcd60e51b81526004016103b090611e72565b60005b8381101561112f57848482818110610ce657610ce6611e43565b9050602002016020810190610cfb9190611a07565b6001600160a01b0316636352211e848484818110610d1b57610d1b611e43565b905060200201356040518263ffffffff1660e01b8152600401610d4091815260200190565b602060405180830381865afa925050508015610d79575060408051601f3d908101601f19168201909252610d7691810190611f55565b60015b610df5573d808015610da7576040519150601f19603f3d011682016040523d82523d6000602084013e610dac565b606091505b5060405162461bcd60e51b815260206004820152601e60248201527f4275726e52656465656d3a2042616420746f6b656e20636f6e7472616374000060448201526064016103b0565b6001600160a01b0381163314610e4d5760405162461bcd60e51b815260206004820181905260248201527f4275726e52656465656d3a2043616c6c6572206d757374206f776e204e46547360448201526064016103b0565b50848482818110610e6057610e60611e43565b9050602002016020810190610e759190611a07565b60405163e985e9c560e01b81523360048201523060248201526001600160a01b03919091169063e985e9c590604401602060405180830381865afa158015610ec1573d6000803e3d6000fd5b505050506040513d601f19601f82011682018060405250810190610ee59190611f72565b61103c57848482818110610efb57610efb611e43565b9050602002016020810190610f109190611a07565b6001600160a01b031663081812fc848484818110610f3057610f30611e43565b905060200201356040518263ffffffff1660e01b8152600401610f5591815260200190565b602060405180830381865afa925050508015610f8e575060408051601f3d908101601f19168201909252610f8b91810190611f55565b60015b610fbc573d808015610da7576040519150601f19603f3d011682016040523d82523d6000602084013e610dac565b6001600160a01b038116301461103a5760405162461bcd60e51b815260206004820152603760248201527f4275726e52656465656d3a20436f6e7472616374206d7573742062652067697660448201527f656e20617070726f76616c20746f206275726e204e465400000000000000000060648201526084016103b0565b505b84848281811061104e5761104e611e43565b90506020020160208101906110639190611a07565b6001600160a01b03166323b872dd3361dead86868681811061108757611087611e43565b6040516001600160e01b031960e088901b1681526001600160a01b03958616600482015294909316602485015250602090910201356044820152606401600060405180830381600087803b1580156110de57600080fd5b505af19250505080156110ef575060015b61111d573d808015610b27576040519150601f19603f3d011682016040523d82523d6000602084013e610b2c565b8061112781611e59565b915050610ccc565b5061113933611542565b50506001600055505050565b600060405162461bcd60e51b81526004016103b090611e72565b6002546001600160a01b031633146111895760405162461bcd60e51b81526004016103b090611df8565b6001600160a01b0381166111ee5760405162461bcd60e51b815260206004820152602660248201527f4f776e61626c653a206e6577206f776e657220697320746865207a65726f206160448201526564647265737360d01b60648201526084016103b0565b6002546040516001600160a01b038084169216907f8be0079c531659141344cd1fd0a4f28419497f9722a3daafe3b4186f6b6457e090600090a3600280546001600160a01b0319166001600160a01b0392909216919091179055565b600061125583611649565b80156112665750611266838361167c565b9392505050565b60006001600160e01b03198216631a4dfc4960e31b1480611292575061129282611765565b8061032657506103268261178a565b6001600160a01b03811660009081526001830160205260408120541515611266565b6000611266836001600160a01b0384166117af565b6000610326825490565b600061126683836118a9565b6000611266836001600160a01b0384166118d3565b8051600554600091146113685760405162461bcd60e51b815260206004820152602760248201527f496e636f7272656374206e756d626572206f66204e465473206265696e672072604482015266195919595b595960ca1b60648201526084016103b0565b60055460009067ffffffffffffffff81111561138657611386611e2d565b6040519080825280602002602001820160405280156113af578160200160208202803683370190505b50905060005b84518110156114ef5760005b6005548110156114dc576000600582815481106113e0576113e0611e43565b600091825260209182902060408051606081018252600390930290910180546001600160a01b03168084526001820154948401949094526002015490820152885190925088908590811061143657611436611e43565b60200260200101516001600160a01b03161480156114715750806020015186848151811061146657611466611e43565b602002602001015110155b801561149a5750806040015186848151811061148f5761148f611e43565b602002602001015111155b156114c95760018483815181106114b3576114b3611e43565b91151560209283029190910190910152506114dc565b50806114d481611e59565b9150506113c1565b50806114e781611e59565b9150506113b5565b5060005b81518110156115375781818151811061150e5761150e611e43565b602002602001015161152557600092505050610326565b8061152f81611e59565b9150506114f3565b506001949350505050565b60065460009061ffff8082166201000090920416106115a35760405162461bcd60e51b815260206004820181905260248201527f52656465656d3a204e6f20726564656d7074696f6e732072656d61696e696e6760448201526064016103b0565b6006805462010000900461ffff169060026115bd83611f94565b91906101000a81548161ffff021916908361ffff1602179055505060006115f483600660029054906101000a900461ffff16611922565b60078054600181019091557fa66cc928b5edb82af9bd49922954155ab7b0942694bea4ce44661d9a8736c6880181905560065460008281526008602052604090206201000090910461ffff1690559392505050565b600061165c826301ffc9a760e01b61167c565b80156103265750611675826001600160e01b031961167c565b1592915050565b604080516001600160e01b0319831660248083019190915282518083039091018152604490910182526020810180516001600160e01b03166301ffc9a760e01b179052905160009190829081906001600160a01b03871690617530906116e3908690611fb5565b6000604051808303818686fa925050503d806000811461171f576040519150601f19603f3d011682016040523d82523d6000602084013e611724565b606091505b509150915060208151101561173f5760009350505050610326565b81801561175b57508080602001905181019061175b9190611f72565b9695505050505050565b60006001600160e01b031982166344a28bb760e01b1480610326575061032682611993565b60006001600160e01b03198216637005caad60e01b1480610326575061032682611765565b600081815260018301602052604081205480156118985760006117d3600183611fe4565b85549091506000906117e790600190611fe4565b905081811461184c57600086600001828154811061180757611807611e43565b906000526020600020015490508087600001848154811061182a5761182a611e43565b6000918252602080832090910192909255918252600188019052604090208390555b855486908061185d5761185d611ff7565b600190038181906000526020600020016000905590558560010160008681526020019081526020016000206000905560019350505050610326565b6000915050610326565b5092915050565b60008260000182815481106118c0576118c0611e43565b9060005260206000200154905092915050565b600081815260018301602052604081205461191a57508154600181810184556000848152602080822090930184905584548482528286019093526040902091909155610326565b506000610326565b600154604051630525194b60e31b81526001600160a01b0384811660048301526000921690632928ca58906024016020604051808303816000875af115801561196f573d6000803e3d6000fd5b505050506040513d601f19601f82011682018060405250810190611266919061200d565b60006001600160e01b03198216632a9f3abf60e11b148061032657506301ffc9a760e01b6001600160e01b0319831614610326565b6000602082840312156119da57600080fd5b81356001600160e01b03198116811461126657600080fd5b6001600160a01b038116811461040c57600080fd5b600060208284031215611a1957600080fd5b8135611266816119f2565b6020808252825182820181905260009190848201906040850190845b81811015611a655783516001600160a01b031683529284019291840191600101611a40565b50909695505050505050565b602080825282518282018190526000919060409081850190868401855b82811015611ac657815180516001600160a01b0316855286810151878601528501518585015260609093019290850190600101611a8e565b5091979650505050505050565b600080600060608486031215611ae857600080fd5b8335611af3816119f2565b9250602084013591506040840135611b0a816119f2565b809150509250925092565b60008060408385031215611b2857600080fd5b8235611b33816119f2565b946020939093013593505050565b6020808252825182820181905260009190848201906040850190845b81811015611a6557835183529284019291840191600101611b5d565b60008083601f840112611b8b57600080fd5b50813567ffffffffffffffff811115611ba357600080fd5b6020830191508360208260051b8501011115611bbe57600080fd5b9250929050565b60008083601f840112611bd757600080fd5b50813567ffffffffffffffff811115611bef57600080fd5b602083019150836020828501011115611bbe57600080fd5b60008060008060008060008060a0898b031215611c2357600080fd5b8835611c2e816119f2565b97506020890135611c3e816119f2565b9650604089013567ffffffffffffffff80821115611c5b57600080fd5b611c678c838d01611b79565b909850965060608b0135915080821115611c8057600080fd5b611c8c8c838d01611b79565b909650945060808b0135915080821115611ca557600080fd5b50611cb28b828c01611bc5565b999c989b5096995094979396929594505050565b60008060008060408587031215611cdc57600080fd5b843567ffffffffffffffff80821115611cf457600080fd5b611d0088838901611b79565b90965094506020870135915080821115611d1957600080fd5b50611d2687828801611b79565b95989497509550505050565b60008060008060008060a08789031215611d4b57600080fd5b8635611d56816119f2565b95506020870135611d66816119f2565b94506040870135935060608701359250608087013567ffffffffffffffff811115611d9057600080fd5b611d9c89828a01611bc5565b979a9699509497509295939492505050565b600060208284031215611dc057600080fd5b5035919050565b634e487b7160e01b600052601160045260246000fd5b61ffff8281168282160390808211156118a2576118a2611dc7565b6020808252818101527f4f776e61626c653a2063616c6c6572206973206e6f7420746865206f776e6572604082015260600190565b634e487b7160e01b600052604160045260246000fd5b634e487b7160e01b600052603260045260246000fd5b600060018201611e6b57611e6b611dc7565b5060010190565b6020808252601a908201527f4275726e52656465656d3a20496e636f6d706c65746520736574000000000000604082015260600190565b81835260006001600160fb1b03831115611ec257600080fd5b8260051b80836020870137939093016020019392505050565b6001600160a01b0389811682528816602082015260a060408201819052600090611f08908301888a611ea9565b8281036060840152611f1b818789611ea9565b90508281036080840152838152838560208301376000602085830101526020601f19601f8601168201019150509998505050505050505050565b600060208284031215611f6757600080fd5b8151611266816119f2565b600060208284031215611f8457600080fd5b8151801515811461126657600080fd5b600061ffff808316818103611fab57611fab611dc7565b6001019392505050565b6000825160005b81811015611fd65760208186018101518583015201611fbc565b506000920191825250919050565b8181038181111561032657610326611dc7565b634e487b7160e01b600052603160045260246000fd5b60006020828403121561201f57600080fd5b505191905056fea26469706673582212201029019083c0b01271cf8b2c06450589187fa4f50b487d07f5cf8c5b6af49a9c64736f6c6343000811003352656465656d3a204d696e74696e672072657761726420636f6e7472616374206d75737420696d706c656d656e74204945524337323143726561746f72436f72",
  "linkReferences": {},
  "deployedLinkReferences": {}
}