{
  "_format": "hh-sol-artifact-1",
  "contractName": "PriceFeed",
  "sourceName": "contracts/mojito/PriceFeed.sol",
  "abi": [
    {
      "inputs": [
        {
          "internalType": "address[]",
          "name": "priceFeedAddress",
          "type": "address[]"
        },
        {
          "internalType": "address[]",
          "name": "currencyAddress",
          "type": "address[]"
        }
      ],
      "stateMutability": "nonpayable",
      "type": "constructor"
    },
    {
      "inputs": [
        {
          "internalType": "address",
          "name": "currencyAddress",
          "type": "address"
        }
      ],
      "name": "getLatestPrice",
      "outputs": [
        {
          "internalType": "int256",
          "name": "",
          "type": "int256"
        },
        {
          "internalType": "uint8",
          "name": "",
          "type": "uint8"
        }
      ],
      "stateMutability": "view",
      "type": "function"
    },
    {
      "inputs": [
        {
          "internalType": "address[]",
          "name": "priceFeedAddress",
          "type": "address[]"
        },
        {
          "internalType": "address[]",
          "name": "currencyAddress",
          "type": "address[]"
        }
      ],
      "name": "updatePriceFeedAddress",
      "outputs": [],
      "stateMutability": "nonpayable",
      "type": "function"
    }
  ],
  "bytecode": "0x608060405234801561001057600080fd5b5060405161078538038061078583398101604081905261002f916101f9565b80518251146100845760405162461bcd60e51b815260206004820181905260248201527f417272617973206d7573742068617665207468652073616d65206c656e677468604482015260640160405180910390fd5b60005b825181101561011e578281815181106100a2576100a261025c565b60200260200101516000808484815181106100bf576100bf61025c565b60200260200101516001600160a01b03166001600160a01b0316815260200190815260200160002060006101000a8154816001600160a01b0302191690836001600160a01b03160217905550808061011690610272565b915050610087565b505050610299565b634e487b7160e01b600052604160045260246000fd5b80516001600160a01b038116811461015357600080fd5b919050565b600082601f83011261016957600080fd5b815160206001600160401b038083111561018557610185610126565b8260051b604051601f19603f830116810181811084821117156101aa576101aa610126565b6040529384528581018301938381019250878511156101c857600080fd5b83870191505b848210156101ee576101df8261013c565b835291830191908301906101ce565b979650505050505050565b6000806040838503121561020c57600080fd5b82516001600160401b038082111561022357600080fd5b61022f86838701610158565b9350602085015191508082111561024557600080fd5b5061025285828601610158565b9150509250929050565b634e487b7160e01b600052603260045260246000fd5b60006001820161029257634e487b7160e01b600052601160045260246000fd5b5060010190565b6104dd806102a86000396000f3fe608060405234801561001057600080fd5b50600436106100365760003560e01c806316345f181461003b578063fe8c153914610069575b600080fd5b61004e61004936600461029f565b61007e565b6040805192835260ff90911660208301520160405180910390f35b61007c610077366004610379565b61018f565b005b6001600160a01b03808216600090815260208190526040808220548151633fabe5a360e21b81529151929384938493929091169163feaf968c9160048083019260a09291908290030181865afa1580156100dc573d6000803e3d6000fd5b505050506040513d601f19601f8201168201806040525081019061010091906103f7565b5050506001600160a01b0380871660009081526020818152604080832054815163313ce56760e01b81529151959750929550919092169263313ce567926004808401939192918290030181865afa15801561015f573d6000803e3d6000fd5b505050506040513d601f19601f820116820180604052508101906101839190610447565b91959194509092505050565b80518251146101e45760405162461bcd60e51b815260206004820181905260248201527f417272617973206d7573742068617665207468652073616d65206c656e677468604482015260640160405180910390fd5b60005b825181101561027e578281815181106102025761020261046a565b602002602001015160008084848151811061021f5761021f61046a565b60200260200101516001600160a01b03166001600160a01b0316815260200190815260200160002060006101000a8154816001600160a01b0302191690836001600160a01b03160217905550808061027690610480565b9150506101e7565b505050565b80356001600160a01b038116811461029a57600080fd5b919050565b6000602082840312156102b157600080fd5b6102ba82610283565b9392505050565b634e487b7160e01b600052604160045260246000fd5b600082601f8301126102e857600080fd5b8135602067ffffffffffffffff80831115610305576103056102c1565b8260051b604051601f19603f8301168101818110848211171561032a5761032a6102c1565b60405293845285810183019383810192508785111561034857600080fd5b83870191505b8482101561036e5761035f82610283565b8352918301919083019061034e565b979650505050505050565b6000806040838503121561038c57600080fd5b823567ffffffffffffffff808211156103a457600080fd5b6103b0868387016102d7565b935060208501359150808211156103c657600080fd5b506103d3858286016102d7565b9150509250929050565b805169ffffffffffffffffffff8116811461029a57600080fd5b600080600080600060a0868803121561040f57600080fd5b610418866103dd565b945060208601519350604086015192506060860151915061043b608087016103dd565b90509295509295909350565b60006020828403121561045957600080fd5b815160ff811681146102ba57600080fd5b634e487b7160e01b600052603260045260246000fd5b6000600182016104a057634e487b7160e01b600052601160045260246000fd5b506001019056fea26469706673582212209fdfbe1bd97dd9fc096d39d18fdad56adadfb8e410a15aeb32da30f09058741f64736f6c63430008110033",
  "linkReferences": {},
  "deployedLinkReferences": {}
}