{
  "_format": "hh-sol-artifact-1",
  "contractName": "StorageAccessible",
  "sourceName": "contracts/gnosis/common/StorageAccessible.sol",
  "abi": [
    {
      "inputs": [
        {
          "internalType": "uint256",
          "name": "offset",
          "type": "uint256"
        },
        {
          "internalType": "uint256",
          "name": "length",
          "type": "uint256"
        }
      ],
      "name": "getStorageAt",
      "outputs": [
        {
          "internalType": "bytes",
          "name": "",
          "type": "bytes"
        }
      ],
      "stateMutability": "view",
      "type": "function"
    },
    {
      "inputs": [
        {
          "internalType": "address",
          "name": "targetContract",
          "type": "address"
        },
        {
          "internalType": "bytes",
          "name": "calldataPayload",
          "type": "bytes"
        }
      ],
      "name": "simulate",
      "outputs": [
        {
          "internalType": "bytes",
          "name": "",
          "type": "bytes"
        }
      ],
      "stateMutability": "nonpayable",
      "type": "function"
    }
  ],
  "bytecode": "0x608060405234801561001057600080fd5b50610365806100206000396000f3fe608060405234801561001057600080fd5b50600436106100365760003560e01c80635624b25b1461003b578063bd61951d14610064575b600080fd5b61004e610049366004610191565b610077565b60405161005b91906101d7565b60405180910390f35b61004e61007236600461020a565b6100ff565b606060006100868360206102b1565b67ffffffffffffffff81111561009e5761009e6102c8565b6040519080825280601f01601f1916602001820160405280156100c8576020820181803683370190505b50905060005b838110156100f55784810154602080830284010152806100ed816102de565b9150506100ce565b5090505b92915050565b6060600080856001600160a01b0316858560405161011e9291906102f7565b600060405180830381855af49150503d8060008114610159576040519150601f19603f3d011682016040523d82523d6000602084013e61015e565b606091505b509150915060008183604051602001610178929190610307565b6040516020818303038152906040529050805160208201fd5b600080604083850312156101a457600080fd5b50508035926020909101359150565b60005b838110156101ce5781810151838201526020016101b6565b50506000910152565b60208152600082518060208401526101f68160408501602087016101b3565b601f01601f19169190910160400192915050565b60008060006040848603121561021f57600080fd5b83356001600160a01b038116811461023657600080fd5b9250602084013567ffffffffffffffff8082111561025357600080fd5b818601915086601f83011261026757600080fd5b81358181111561027657600080fd5b87602082850101111561028857600080fd5b6020830194508093505050509250925092565b634e487b7160e01b600052601160045260246000fd5b80820281158282048414176100f9576100f961029b565b634e487b7160e01b600052604160045260246000fd5b6000600182016102f0576102f061029b565b5060010190565b8183823760009101908152919050565b600083516103198184602088016101b3565b92151560f81b919092019081526001019291505056fea264697066735822122064d21a95eee8d1721c241d36ecc6ae1605fcc0dd4542900ddc1c5f7ee9f236e764736f6c63430008110033",
  "linkReferences": {},
  "deployedLinkReferences": {}
}