{
  "_format": "hh-sol-artifact-1",
  "contractName": "ERC721Airdrop",
  "sourceName": "contracts/manifold/creator-core-extensions/airdrop/ERC721Airdrop.sol",
  "abi": [
    {
      "inputs": [
        {
          "internalType": "address",
          "name": "creator",
          "type": "address"
        }
      ],
      "stateMutability": "nonpayable",
      "type": "constructor"
    },
    {
      "anonymous": false,
      "inputs": [
        {
          "indexed": true,
          "internalType": "address",
          "name": "account",
          "type": "address"
        },
        {
          "indexed": true,
          "internalType": "address",
          "name": "sender",
          "type": "address"
        }
      ],
      "name": "AdminApproved",
      "type": "event"
    },
    {
      "anonymous": false,
      "inputs": [
        {
          "indexed": true,
          "internalType": "address",
          "name": "account",
          "type": "address"
        },
        {
          "indexed": true,
          "internalType": "address",
          "name": "sender",
          "type": "address"
        }
      ],
      "name": "AdminRevoked",
      "type": "event"
    },
    {
      "anonymous": false,
      "inputs": [
        {
          "indexed": true,
          "internalType": "address",
          "name": "previousOwner",
          "type": "address"
        },
        {
          "indexed": true,
          "internalType": "address",
          "name": "newOwner",
          "type": "address"
        }
      ],
      "name": "OwnershipTransferred",
      "type": "event"
    },
    {
      "inputs": [
        {
          "internalType": "address[]",
          "name": "to",
          "type": "address[]"
        }
      ],
      "name": "airdrop",
      "outputs": [],
      "stateMutability": "nonpayable",
      "type": "function"
    },
    {
      "inputs": [
        {
          "internalType": "address[]",
          "name": "to",
          "type": "address[]"
        },
        {
          "internalType": "string[]",
          "name": "uris",
          "type": "string[]"
        }
      ],
      "name": "airdrop",
      "outputs": [],
      "stateMutability": "nonpayable",
      "type": "function"
    },
    {
      "inputs": [
        {
          "internalType": "address",
          "name": "admin",
          "type": "address"
        }
      ],
      "name": "approveAdmin",
      "outputs": [],
      "stateMutability": "nonpayable",
      "type": "function"
    },
    {
      "inputs": [],
      "name": "creatorContract",
      "outputs": [
        {
          "internalType": "address",
          "name": "",
          "type": "address"
        }
      ],
      "stateMutability": "view",
      "type": "function"
    },
    {
      "inputs": [],
      "name": "getAdmins",
      "outputs": [
        {
          "internalType": "address[]",
          "name": "admins",
          "type": "address[]"
        }
      ],
      "stateMutability": "view",
      "type": "function"
    },
    {
      "inputs": [
        {
          "internalType": "address",
          "name": "admin",
          "type": "address"
        }
      ],
      "name": "isAdmin",
      "outputs": [
        {
          "internalType": "bool",
          "name": "",
          "type": "bool"
        }
      ],
      "stateMutability": "view",
      "type": "function"
    },
    {
      "inputs": [],
      "name": "owner",
      "outputs": [
        {
          "internalType": "address",
          "name": "",
          "type": "address"
        }
      ],
      "stateMutability": "view",
      "type": "function"
    },
    {
      "inputs": [],
      "name": "renounceOwnership",
      "outputs": [],
      "stateMutability": "nonpayable",
      "type": "function"
    },
    {
      "inputs": [
        {
          "internalType": "address",
          "name": "admin",
          "type": "address"
        }
      ],
      "name": "revokeAdmin",
      "outputs": [],
      "stateMutability": "nonpayable",
      "type": "function"
    },
    {
      "inputs": [
        {
          "internalType": "string",
          "name": "uri",
          "type": "string"
        }
      ],
      "name": "setBaseTokenURI",
      "outputs": [],
      "stateMutability": "nonpayable",
      "type": "function"
    },
    {
      "inputs": [
        {
          "internalType": "string",
          "name": "uri",
          "type": "string"
        },
        {
          "internalType": "bool",
          "name": "identical",
          "type": "bool"
        }
      ],
      "name": "setBaseTokenURI",
      "outputs": [],
      "stateMutability": "nonpayable",
      "type": "function"
    },
    {
      "inputs": [
        {
          "internalType": "uint256",
          "name": "tokenId",
          "type": "uint256"
        },
        {
          "internalType": "string",
          "name": "uri",
          "type": "string"
        }
      ],
      "name": "setTokenURI",
      "outputs": [],
      "stateMutability": "nonpayable",
      "type": "function"
    },
    {
      "inputs": [
        {
          "internalType": "uint256[]",
          "name": "tokenIds",
          "type": "uint256[]"
        },
        {
          "internalType": "string[]",
          "name": "uris",
          "type": "string[]"
        }
      ],
      "name": "setTokenURI",
      "outputs": [],
      "stateMutability": "nonpayable",
      "type": "function"
    },
    {
      "inputs": [
        {
          "internalType": "string",
          "name": "prefix",
          "type": "string"
        }
      ],
      "name": "setTokenURIPrefix",
      "outputs": [],
      "stateMutability": "nonpayable",
      "type": "function"
    },
    {
      "inputs": [
        {
          "internalType": "bytes4",
          "name": "interfaceId",
          "type": "bytes4"
        }
      ],
      "name": "supportsInterface",
      "outputs": [
        {
          "internalType": "bool",
          "name": "",
          "type": "bool"
        }
      ],
      "stateMutability": "view",
      "type": "function"
    },
    {
      "inputs": [
        {
          "internalType": "address",
          "name": "newOwner",
          "type": "address"
        }
      ],
      "name": "transferOwnership",
      "outputs": [],
      "stateMutability": "nonpayable",
      "type": "function"
    }
  ],
  "bytecode": "0x60806040523480156200001157600080fd5b5060405162001803380380620018038339810160408190526200003491620002ca565b806200005381639088c20760e01b6200017660201b62000b671760201c565b80620000785750620000788163478c853060e01b6200017660201b62000b671760201c565b620000f95760405162461bcd60e51b815260206004820152604160248201527f52656465656d3a204d696e74696e672072657761726420636f6e74726163742060448201527f6d75737420696d706c656d656e74204945524337323143726561746f72436f726064820152606560f81b608482015260a40160405180910390fd5b600080546001600160a01b0319166001600160a01b0392909216919091178155620001213390565b600180546001600160a01b0319166001600160a01b038316908117909155604051919250906000907f8be0079c531659141344cd1fd0a4f28419497f9722a3daafe3b4186f6b6457e0908290a3505062000351565b60006200018383620001a0565b8015620001975750620001978383620001d8565b90505b92915050565b6000620001b5826301ffc9a760e01b620001d8565b80156200019a5750620001d1826001600160e01b0319620001d8565b1592915050565b604080516001600160e01b0319831660248083019190915282518083039091018152604490910182526020810180516001600160e01b03166301ffc9a760e01b179052905160009190829081906001600160a01b038716906175309062000241908690620002fc565b6000604051808303818686fa925050503d80600081146200027f576040519150601f19603f3d011682016040523d82523d6000602084013e62000284565b606091505b5091509150602081511015620002a157600093505050506200019a565b818015620002c0575080806020019051810190620002c091906200032d565b9695505050505050565b600060208284031215620002dd57600080fd5b81516001600160a01b0381168114620002f557600080fd5b9392505050565b6000825160005b818110156200031f576020818601810151858301520162000303565b506000920191825250919050565b6000602082840312156200034057600080fd5b81518015158114620002f557600080fd5b6114a280620003616000396000f3fe608060405234801561001057600080fd5b50600436106101005760003560e01c8063715018a6116100975780639eabbeb2116100665780639eabbeb214610207578063aafb2d441461021a578063e54269331461022d578063f2fde38b1461024057600080fd5b8063715018a6146101c8578063729ad39e146101d05780638da5cb5b146101e357806399e0dd7c146101f457600080fd5b806330176e13116100d357806330176e131461016857806331ae450b1461017b5780633dae35ce146101905780636d73e669146101b557600080fd5b806301ffc9a714610105578063162094c41461012d57806324d7806c146101425780632d34567014610155575b600080fd5b610118610113366004610e74565b610253565b60405190151581526020015b60405180910390f35b61014061013b366004610ee7565b61028a565b005b610118610150366004610f33565b610348565b610140610163366004610f33565b610381565b610140610176366004610f5c565b610401565b6101836104b3565b6040516101249190610f9e565b6000546001600160a01b03165b6040516001600160a01b039091168152602001610124565b6101406101c3366004610f33565b610562565b6101406105dc565b6101406101de366004611030565b610650565b6001546001600160a01b031661019d565b610140610202366004610f5c565b61075f565b610140610215366004611066565b6107db565b610140610228366004611066565b610946565b61014061023b3660046110e0565b6109fe565b61014061024e366004610f33565b610a7c565b60006001600160e01b03198216632a9f3abf60e11b148061028457506301ffc9a760e01b6001600160e01b03198316145b92915050565b3361029d6001546001600160a01b031690565b6001600160a01b031614806102b857506102b8600233610b8a565b6102dd5760405162461bcd60e51b81526004016102d490611137565b60405180910390fd5b60005460405163749544fb60e11b81526001600160a01b039091169063e92a89f690610311908690869086906004016111a4565b600060405180830381600087803b15801561032b57600080fd5b505af115801561033f573d6000803e3d6000fd5b50505050505050565b6000816001600160a01b03166103666001546001600160a01b031690565b6001600160a01b031614806102845750610284600283610b8a565b6001546001600160a01b031633146103ab5760405162461bcd60e51b81526004016102d4906111c7565b6103b6600282610b8a565b156103fe5760405133906001600160a01b038316907f7c0c3c84c67c85fcac635147348bfe374c24a1a93d0366d1cfe9d8853cbf89d590600090a36103fc600282610bac565b505b50565b336104146001546001600160a01b031690565b6001600160a01b0316148061042f575061042f600233610b8a565b61044b5760405162461bcd60e51b81526004016102d490611137565b6000546040516307cc269760e31b81526001600160a01b0390911690633e6134b89061047d90859085906004016111fc565b600060405180830381600087803b15801561049757600080fd5b505af11580156104ab573d6000803e3d6000fd5b505050505050565b60606104bf6002610bc1565b67ffffffffffffffff8111156104d7576104d7611218565b604051908082528060200260200182016040528015610500578160200160208202803683370190505b50905060005b6105106002610bc1565b81101561055e57610522600282610bcb565b8282815181106105345761053461122e565b6001600160a01b0390921660209283029190910190910152806105568161125a565b915050610506565b5090565b6001546001600160a01b0316331461058c5760405162461bcd60e51b81526004016102d4906111c7565b610597600282610b8a565b6103fe5760405133906001600160a01b038316907f7e1a1a08d52e4ba0e21554733d66165fd5151f99460116223d9e3a608eec5cb190600090a36103fc600282610bd7565b6001546001600160a01b031633146106065760405162461bcd60e51b81526004016102d4906111c7565b6001546040516000916001600160a01b0316907f8be0079c531659141344cd1fd0a4f28419497f9722a3daafe3b4186f6b6457e0908390a3600180546001600160a01b0319169055565b336106636001546001600160a01b031690565b6001600160a01b0316148061067e575061067e600233610b8a565b61069a5760405162461bcd60e51b81526004016102d490611137565b60005b8181101561075a576000546001600160a01b0316632928ca588484848181106106c8576106c861122e565b90506020020160208101906106dd9190610f33565b6040516001600160e01b031960e084901b1681526001600160a01b0390911660048201526024016020604051808303816000875af1158015610723573d6000803e3d6000fd5b505050506040513d601f19601f820116820180604052508101906107479190611273565b50806107528161125a565b91505061069d565b505050565b336107726001546001600160a01b031690565b6001600160a01b0316148061078d575061078d600233610b8a565b6107a95760405162461bcd60e51b81526004016102d490611137565b60005460405163066d1e9d60e41b81526001600160a01b03909116906366d1e9d09061047d90859085906004016111fc565b336107ee6001546001600160a01b031690565b6001600160a01b031614806108095750610809600233610b8a565b6108255760405162461bcd60e51b81526004016102d490611137565b8281146108645760405162461bcd60e51b815260206004820152600d60248201526c125b9d985b1a59081a5b9c1d5d609a1b60448201526064016102d4565b60005b8381101561093f576000546001600160a01b031663fe2e1f588686848181106108925761089261122e565b90506020020160208101906108a79190610f33565b8585858181106108b9576108b961122e565b90506020028101906108cb919061128c565b6040518463ffffffff1660e01b81526004016108e9939291906112d3565b6020604051808303816000875af1158015610908573d6000803e3d6000fd5b505050506040513d601f19601f8201168201806040525081019061092c9190611273565b50806109378161125a565b915050610867565b5050505050565b336109596001546001600160a01b031690565b6001600160a01b031614806109745750610974600233610b8a565b6109905760405162461bcd60e51b81526004016102d490611137565b6000546040516361e5bc6b60e01b81526001600160a01b03909116906361e5bc6b906109c69087908790879087906004016112f8565b600060405180830381600087803b1580156109e057600080fd5b505af11580156109f4573d6000803e3d6000fd5b5050505050505050565b33610a116001546001600160a01b031690565b6001600160a01b03161480610a2c5750610a2c600233610b8a565b610a485760405162461bcd60e51b81526004016102d490611137565b60005460405163105b981960e31b81526001600160a01b03909116906382dcc0c890610311908690869086906004016113d1565b6001546001600160a01b03163314610aa65760405162461bcd60e51b81526004016102d4906111c7565b6001600160a01b038116610b0b5760405162461bcd60e51b815260206004820152602660248201527f4f776e61626c653a206e6577206f776e657220697320746865207a65726f206160448201526564647265737360d01b60648201526084016102d4565b6001546040516001600160a01b038084169216907f8be0079c531659141344cd1fd0a4f28419497f9722a3daafe3b4186f6b6457e090600090a3600180546001600160a01b0319166001600160a01b0392909216919091179055565b6000610b7283610bec565b8015610b835750610b838383610c1f565b9392505050565b6001600160a01b03811660009081526001830160205260408120541515610b83565b6000610b83836001600160a01b038416610d08565b6000610284825490565b6000610b838383610dfb565b6000610b83836001600160a01b038416610e25565b6000610bff826301ffc9a760e01b610c1f565b80156102845750610c18826001600160e01b0319610c1f565b1592915050565b604080516001600160e01b0319831660248083019190915282518083039091018152604490910182526020810180516001600160e01b03166301ffc9a760e01b179052905160009190829081906001600160a01b0387169061753090610c869086906113f7565b6000604051808303818686fa925050503d8060008114610cc2576040519150601f19603f3d011682016040523d82523d6000602084013e610cc7565b606091505b5091509150602081511015610ce25760009350505050610284565b818015610cfe575080806020019051810190610cfe9190611426565b9695505050505050565b60008181526001830160205260408120548015610df1576000610d2c600183611443565b8554909150600090610d4090600190611443565b9050818114610da5576000866000018281548110610d6057610d6061122e565b9060005260206000200154905080876000018481548110610d8357610d8361122e565b6000918252602080832090910192909255918252600188019052604090208390555b8554869080610db657610db6611456565b600190038181906000526020600020016000905590558560010160008681526020019081526020016000206000905560019350505050610284565b6000915050610284565b6000826000018281548110610e1257610e1261122e565b9060005260206000200154905092915050565b6000818152600183016020526040812054610e6c57508154600181810184556000848152602080822090930184905584548482528286019093526040902091909155610284565b506000610284565b600060208284031215610e8657600080fd5b81356001600160e01b031981168114610b8357600080fd5b60008083601f840112610eb057600080fd5b50813567ffffffffffffffff811115610ec857600080fd5b602083019150836020828501011115610ee057600080fd5b9250929050565b600080600060408486031215610efc57600080fd5b83359250602084013567ffffffffffffffff811115610f1a57600080fd5b610f2686828701610e9e565b9497909650939450505050565b600060208284031215610f4557600080fd5b81356001600160a01b0381168114610b8357600080fd5b60008060208385031215610f6f57600080fd5b823567ffffffffffffffff811115610f8657600080fd5b610f9285828601610e9e565b90969095509350505050565b6020808252825182820181905260009190848201906040850190845b81811015610fdf5783516001600160a01b031683529284019291840191600101610fba565b50909695505050505050565b60008083601f840112610ffd57600080fd5b50813567ffffffffffffffff81111561101557600080fd5b6020830191508360208260051b8501011115610ee057600080fd5b6000806020838503121561104357600080fd5b823567ffffffffffffffff81111561105a57600080fd5b610f9285828601610feb565b6000806000806040858703121561107c57600080fd5b843567ffffffffffffffff8082111561109457600080fd5b6110a088838901610feb565b909650945060208701359150808211156110b957600080fd5b506110c687828801610feb565b95989497509550505050565b80151581146103fe57600080fd5b6000806000604084860312156110f557600080fd5b833567ffffffffffffffff81111561110c57600080fd5b61111886828701610e9e565b909450925050602084013561112c816110d2565b809150509250925092565b60208082526024908201527f41646d696e436f6e74726f6c3a204d757374206265206f776e6572206f7220616040820152633236b4b760e11b606082015260800190565b81835281816020850137506000828201602090810191909152601f909101601f19169091010190565b8381526040602082015260006111be60408301848661117b565b95945050505050565b6020808252818101527f4f776e61626c653a2063616c6c6572206973206e6f7420746865206f776e6572604082015260600190565b60208152600061121060208301848661117b565b949350505050565b634e487b7160e01b600052604160045260246000fd5b634e487b7160e01b600052603260045260246000fd5b634e487b7160e01b600052601160045260246000fd5b60006001820161126c5761126c611244565b5060010190565b60006020828403121561128557600080fd5b5051919050565b6000808335601e198436030181126112a357600080fd5b83018035915067ffffffffffffffff8211156112be57600080fd5b602001915036819003821315610ee057600080fd5b6001600160a01b03841681526040602082018190526000906111be908301848661117b565b6040808252810184905260006001600160fb1b0385111561131857600080fd5b8460051b808760608501378083019050606081016020606085840301818601528186835260808401905060808760051b85010192508760005b888110156113c157858503607f190183528135368b9003601e1901811261137757600080fd5b8a01848101903567ffffffffffffffff81111561139357600080fd5b8036038213156113a257600080fd5b6113ad87828461117b565b965050509183019190830190600101611351565b50929a9950505050505050505050565b6040815260006113e560408301858761117b565b90508215156020830152949350505050565b6000825160005b8181101561141857602081860181015185830152016113fe565b506000920191825250919050565b60006020828403121561143857600080fd5b8151610b83816110d2565b8181038181111561028457610284611244565b634e487b7160e01b600052603160045260246000fdfea2646970667358221220ea433a8d1e8d60025bf33b88399b88040c75780f8a5756b5bf8beb5341da975f64736f6c63430008110033",
  "linkReferences": {},
  "deployedLinkReferences": {}
}