{
  "_format": "hh-sol-artifact-1",
  "contractName": "GeneNFT",
  "sourceName": "contracts/mojito/GeneNFT.sol",
  "abi": [
    {
      "inputs": [
        {
          "internalType": "string",
          "name": "name",
          "type": "string"
        },
        {
          "internalType": "string",
          "name": "symbol",
          "type": "string"
        },
        {
          "internalType": "string",
          "name": "contractBaseURI",
          "type": "string"
        }
      ],
      "stateMutability": "nonpayable",
      "type": "constructor"
    },
    {
      "anonymous": false,
      "inputs": [
        {
          "indexed": true,
          "internalType": "address",
          "name": "owner",
          "type": "address"
        },
        {
          "indexed": true,
          "internalType": "address",
          "name": "approved",
          "type": "address"
        },
        {
          "indexed": true,
          "internalType": "uint256",
          "name": "tokenId",
          "type": "uint256"
        }
      ],
      "name": "Approval",
      "type": "event"
    },
    {
      "anonymous": false,
      "inputs": [
        {
          "indexed": true,
          "internalType": "address",
          "name": "owner",
          "type": "address"
        },
        {
          "indexed": true,
          "internalType": "address",
          "name": "operator",
          "type": "address"
        },
        {
          "indexed": false,
          "internalType": "bool",
          "name": "approved",
          "type": "bool"
        }
      ],
      "name": "ApprovalForAll",
      "type": "event"
    },
    {
      "anonymous": false,
      "inputs": [
        {
          "indexed": true,
          "internalType": "bytes32",
          "name": "role",
          "type": "bytes32"
        },
        {
          "indexed": true,
          "internalType": "bytes32",
          "name": "previousAdminRole",
          "type": "bytes32"
        },
        {
          "indexed": true,
          "internalType": "bytes32",
          "name": "newAdminRole",
          "type": "bytes32"
        }
      ],
      "name": "RoleAdminChanged",
      "type": "event"
    },
    {
      "anonymous": false,
      "inputs": [
        {
          "indexed": true,
          "internalType": "bytes32",
          "name": "role",
          "type": "bytes32"
        },
        {
          "indexed": true,
          "internalType": "address",
          "name": "account",
          "type": "address"
        },
        {
          "indexed": true,
          "internalType": "address",
          "name": "sender",
          "type": "address"
        }
      ],
      "name": "RoleGranted",
      "type": "event"
    },
    {
      "anonymous": false,
      "inputs": [
        {
          "indexed": true,
          "internalType": "bytes32",
          "name": "role",
          "type": "bytes32"
        },
        {
          "indexed": true,
          "internalType": "address",
          "name": "account",
          "type": "address"
        },
        {
          "indexed": true,
          "internalType": "address",
          "name": "sender",
          "type": "address"
        }
      ],
      "name": "RoleRevoked",
      "type": "event"
    },
    {
      "anonymous": false,
      "inputs": [
        {
          "indexed": true,
          "internalType": "address",
          "name": "from",
          "type": "address"
        },
        {
          "indexed": true,
          "internalType": "address",
          "name": "to",
          "type": "address"
        },
        {
          "indexed": true,
          "internalType": "uint256",
          "name": "tokenId",
          "type": "uint256"
        }
      ],
      "name": "Transfer",
      "type": "event"
    },
    {
      "inputs": [],
      "name": "ADMIN_ROLE",
      "outputs": [
        {
          "internalType": "bytes32",
          "name": "",
          "type": "bytes32"
        }
      ],
      "stateMutability": "view",
      "type": "function"
    },
    {
      "inputs": [],
      "name": "DEFAULT_ADMIN_ROLE",
      "outputs": [
        {
          "internalType": "bytes32",
          "name": "",
          "type": "bytes32"
        }
      ],
      "stateMutability": "view",
      "type": "function"
    },
    {
      "inputs": [
        {
          "internalType": "address",
          "name": "adminAddress",
          "type": "address"
        }
      ],
      "name": "addAdmin",
      "outputs": [],
      "stateMutability": "nonpayable",
      "type": "function"
    },
    {
      "inputs": [
        {
          "internalType": "address",
          "name": "to",
          "type": "address"
        },
        {
          "internalType": "uint256",
          "name": "tokenId",
          "type": "uint256"
        }
      ],
      "name": "approve",
      "outputs": [],
      "stateMutability": "nonpayable",
      "type": "function"
    },
    {
      "inputs": [
        {
          "internalType": "address",
          "name": "owner",
          "type": "address"
        }
      ],
      "name": "balanceOf",
      "outputs": [
        {
          "internalType": "uint256",
          "name": "",
          "type": "uint256"
        }
      ],
      "stateMutability": "view",
      "type": "function"
    },
    {
      "inputs": [
        {
          "internalType": "uint256",
          "name": "",
          "type": "uint256"
        }
      ],
      "name": "gene",
      "outputs": [
        {
          "internalType": "bytes32",
          "name": "",
          "type": "bytes32"
        }
      ],
      "stateMutability": "view",
      "type": "function"
    },
    {
      "inputs": [
        {
          "internalType": "uint256",
          "name": "tokenId",
          "type": "uint256"
        }
      ],
      "name": "getApproved",
      "outputs": [
        {
          "internalType": "address",
          "name": "",
          "type": "address"
        }
      ],
      "stateMutability": "view",
      "type": "function"
    },
    {
      "inputs": [
        {
          "internalType": "bytes32",
          "name": "role",
          "type": "bytes32"
        }
      ],
      "name": "getRoleAdmin",
      "outputs": [
        {
          "internalType": "bytes32",
          "name": "",
          "type": "bytes32"
        }
      ],
      "stateMutability": "view",
      "type": "function"
    },
    {
      "inputs": [
        {
          "internalType": "bytes32",
          "name": "role",
          "type": "bytes32"
        },
        {
          "internalType": "address",
          "name": "account",
          "type": "address"
        }
      ],
      "name": "grantRole",
      "outputs": [],
      "stateMutability": "nonpayable",
      "type": "function"
    },
    {
      "inputs": [
        {
          "internalType": "bytes32",
          "name": "role",
          "type": "bytes32"
        },
        {
          "internalType": "address",
          "name": "account",
          "type": "address"
        }
      ],
      "name": "hasRole",
      "outputs": [
        {
          "internalType": "bool",
          "name": "",
          "type": "bool"
        }
      ],
      "stateMutability": "view",
      "type": "function"
    },
    {
      "inputs": [
        {
          "internalType": "address",
          "name": "owner",
          "type": "address"
        },
        {
          "internalType": "address",
          "name": "operator",
          "type": "address"
        }
      ],
      "name": "isApprovedForAll",
      "outputs": [
        {
          "internalType": "bool",
          "name": "",
          "type": "bool"
        }
      ],
      "stateMutability": "view",
      "type": "function"
    },
    {
      "inputs": [
        {
          "internalType": "address",
          "name": "mintTo",
          "type": "address"
        }
      ],
      "name": "mintToken",
      "outputs": [
        {
          "internalType": "uint256",
          "name": "",
          "type": "uint256"
        }
      ],
      "stateMutability": "nonpayable",
      "type": "function"
    },
    {
      "inputs": [],
      "name": "name",
      "outputs": [
        {
          "internalType": "string",
          "name": "",
          "type": "string"
        }
      ],
      "stateMutability": "view",
      "type": "function"
    },
    {
      "inputs": [
        {
          "internalType": "uint256",
          "name": "tokenId",
          "type": "uint256"
        }
      ],
      "name": "ownerOf",
      "outputs": [
        {
          "internalType": "address",
          "name": "",
          "type": "address"
        }
      ],
      "stateMutability": "view",
      "type": "function"
    },
    {
      "inputs": [
        {
          "internalType": "address",
          "name": "adminAddress",
          "type": "address"
        }
      ],
      "name": "removeAdmin",
      "outputs": [],
      "stateMutability": "nonpayable",
      "type": "function"
    },
    {
      "inputs": [
        {
          "internalType": "bytes32",
          "name": "role",
          "type": "bytes32"
        },
        {
          "internalType": "address",
          "name": "account",
          "type": "address"
        }
      ],
      "name": "renounceRole",
      "outputs": [],
      "stateMutability": "nonpayable",
      "type": "function"
    },
    {
      "inputs": [
        {
          "internalType": "bytes32",
          "name": "role",
          "type": "bytes32"
        },
        {
          "internalType": "address",
          "name": "account",
          "type": "address"
        }
      ],
      "name": "revokeRole",
      "outputs": [],
      "stateMutability": "nonpayable",
      "type": "function"
    },
    {
      "inputs": [
        {
          "internalType": "address",
          "name": "from",
          "type": "address"
        },
        {
          "internalType": "address",
          "name": "to",
          "type": "address"
        },
        {
          "internalType": "uint256",
          "name": "tokenId",
          "type": "uint256"
        }
      ],
      "name": "safeTransferFrom",
      "outputs": [],
      "stateMutability": "nonpayable",
      "type": "function"
    },
    {
      "inputs": [
        {
          "internalType": "address",
          "name": "from",
          "type": "address"
        },
        {
          "internalType": "address",
          "name": "to",
          "type": "address"
        },
        {
          "internalType": "uint256",
          "name": "tokenId",
          "type": "uint256"
        },
        {
          "internalType": "bytes",
          "name": "_data",
          "type": "bytes"
        }
      ],
      "name": "safeTransferFrom",
      "outputs": [],
      "stateMutability": "nonpayable",
      "type": "function"
    },
    {
      "inputs": [],
      "name": "saleIsActive",
      "outputs": [
        {
          "internalType": "bool",
          "name": "",
          "type": "bool"
        }
      ],
      "stateMutability": "view",
      "type": "function"
    },
    {
      "inputs": [],
      "name": "saleStart",
      "outputs": [],
      "stateMutability": "nonpayable",
      "type": "function"
    },
    {
      "inputs": [],
      "name": "saleStop",
      "outputs": [],
      "stateMutability": "nonpayable",
      "type": "function"
    },
    {
      "inputs": [
        {
          "internalType": "address",
          "name": "operator",
          "type": "address"
        },
        {
          "internalType": "bool",
          "name": "approved",
          "type": "bool"
        }
      ],
      "name": "setApprovalForAll",
      "outputs": [],
      "stateMutability": "nonpayable",
      "type": "function"
    },
    {
      "inputs": [
        {
          "internalType": "string",
          "name": "baseURI_",
          "type": "string"
        }
      ],
      "name": "setBaseURI",
      "outputs": [],
      "stateMutability": "nonpayable",
      "type": "function"
    },
    {
      "inputs": [
        {
          "internalType": "bytes4",
          "name": "interfaceId",
          "type": "bytes4"
        }
      ],
      "name": "supportsInterface",
      "outputs": [
        {
          "internalType": "bool",
          "name": "",
          "type": "bool"
        }
      ],
      "stateMutability": "view",
      "type": "function"
    },
    {
      "inputs": [],
      "name": "symbol",
      "outputs": [
        {
          "internalType": "string",
          "name": "",
          "type": "string"
        }
      ],
      "stateMutability": "view",
      "type": "function"
    },
    {
      "inputs": [
        {
          "internalType": "uint256",
          "name": "tokenId",
          "type": "uint256"
        }
      ],
      "name": "tokenURI",
      "outputs": [
        {
          "internalType": "string",
          "name": "",
          "type": "string"
        }
      ],
      "stateMutability": "view",
      "type": "function"
    },
    {
      "inputs": [
        {
          "internalType": "address",
          "name": "from",
          "type": "address"
        },
        {
          "internalType": "address",
          "name": "to",
          "type": "address"
        },
        {
          "internalType": "uint256",
          "name": "tokenId",
          "type": "uint256"
        }
      ],
      "name": "transferFrom",
      "outputs": [],
      "stateMutability": "nonpayable",
      "type": "function"
    }
  ],
  "bytecode": "0x6080604052600b805460ff191690553480156200001b57600080fd5b50604051620022a4380380620022a48339810160408190526200003e9162000281565b828260006200004e8382620003a1565b5060016200005d8282620003a1565b505050620000816000805160206200228483398151915233620000b460201b60201c565b6200009c6000805160206200228483398151915280620000c4565b6009620000aa8282620003a1565b505050506200046d565b620000c0828262000118565b5050565b600082815260076020526040902060010154819060405184907fbd79b86ffe0ab8e8776151514217cd7cacd52c909f66475c3af44e129f0b00ff90600090a460009182526007602052604090912060010155565b60008281526007602090815260408083206001600160a01b038516845290915290205460ff16620000c05760008281526007602090815260408083206001600160a01b03851684529091529020805460ff19166001179055620001783390565b6001600160a01b0316816001600160a01b0316837f2f8788117e7eff1d82e926ec794901d17c78024a50270940304540a733656f0d60405160405180910390a45050565b634e487b7160e01b600052604160045260246000fd5b600082601f830112620001e457600080fd5b81516001600160401b0380821115620002015762000201620001bc565b604051601f8301601f19908116603f011681019082821181831017156200022c576200022c620001bc565b816040528381526020925086838588010111156200024957600080fd5b600091505b838210156200026d57858201830151818301840152908201906200024e565b600093810190920192909252949350505050565b6000806000606084860312156200029757600080fd5b83516001600160401b0380821115620002af57600080fd5b620002bd87838801620001d2565b94506020860151915080821115620002d457600080fd5b620002e287838801620001d2565b93506040860151915080821115620002f957600080fd5b506200030886828701620001d2565b9150509250925092565b600181811c908216806200032757607f821691505b6020821081036200034857634e487b7160e01b600052602260045260246000fd5b50919050565b601f8211156200039c57600081815260208120601f850160051c81016020861015620003775750805b601f850160051c820191505b81811015620003985782815560010162000383565b5050505b505050565b81516001600160401b03811115620003bd57620003bd620001bc565b620003d581620003ce845462000312565b846200034e565b602080601f8311600181146200040d5760008415620003f45750858301515b600019600386901b1c1916600185901b17855562000398565b600085815260208120601f198616915b828110156200043e578886015182559484019460019091019084016200041d565b50858210156200045d5787850151600019600388901b60f8161c191681555b5050505050600190811b01905550565b611e07806200047d6000396000f3fe608060405234801561001057600080fd5b50600436106101c45760003560e01c806370a08231116100f9578063ab0bcc4111610097578063d547741f11610071578063d547741f146103b6578063e985e9c5146103c9578063eb8d244414610405578063efcb32151461041257600080fd5b8063ab0bcc4114610388578063b88d4fde14610390578063c87b56dd146103a357600080fd5b806391d14854116100d357806391d148541461035257806395d89b4114610365578063a217fddf1461036d578063a22cb4651461037557600080fd5b806370a082311461032257806375b238fc146103355780638078059c1461034a57600080fd5b8063248a9ca31161016657806342842e0e1161014057806342842e0e146102d657806355f804b3146102e95780636352211e146102fc578063704802751461030f57600080fd5b8063248a9ca31461028d5780632f2ff15d146102b057806336568abe146102c357600080fd5b8063081812fc116101a2578063081812fc14610227578063095ea7b3146102525780631785f53c1461026757806323b872dd1461027a57600080fd5b806301173a74146101c957806301ffc9a7146101ef57806306fdde0314610212575b600080fd5b6101dc6101d7366004611781565b610432565b6040519081526020015b60405180910390f35b6102026101fd3660046117b2565b6104e3565b60405190151581526020016101e6565b61021a6104f4565b6040516101e6919061181f565b61023a610235366004611832565b610586565b6040516001600160a01b0390911681526020016101e6565b61026561026036600461184b565b61061b565b005b610265610275366004611781565b610730565b610265610288366004611875565b61076c565b6101dc61029b366004611832565b60009081526007602052604090206001015490565b6102656102be3660046118b1565b61079d565b6102656102d13660046118b1565b61082c565b6102656102e4366004611875565b6108a6565b6102656102f7366004611969565b6108c1565b61023a61030a366004611832565b6108ee565b61026561031d366004611781565b610965565b6101dc610330366004611781565b61099e565b6101dc600080516020611db283398151915281565b610265610a25565b6102026103603660046118b1565b610a99565b61021a610ac4565b6101dc600081565b6102656103833660046119b2565b610ad3565b610265610ade565b61026561039e3660046119ee565b610b5a565b61021a6103b1366004611832565b610b92565b6102656103c43660046118b1565b610d0b565b6102026103d7366004611a6a565b6001600160a01b03918216600090815260056020908152604080832093909416825291909152205460ff1690565b600b546102029060ff1681565b6101dc610420366004611832565b600a6020526000908152604090205481565b600061044c600080516020611db283398151915233610a99565b61045557600080fd5b600b5460ff166104b65760405162461bcd60e51b815260206004820152602160248201527f53616c65206d7573742062652061637469766520746f206d696e7420746f6b656044820152603760f91b60648201526084015b60405180910390fd5b6104c4600880546001019055565b60006104cf60085490565b90506104db8382610d8b565b90505b919050565b60006104ee82610da5565b92915050565b60606000805461050390611a94565b80601f016020809104026020016040519081016040528092919081815260200182805461052f90611a94565b801561057c5780601f106105515761010080835404028352916020019161057c565b820191906000526020600020905b81548152906001019060200180831161055f57829003601f168201915b5050505050905090565b6000818152600260205260408120546001600160a01b03166105ff5760405162461bcd60e51b815260206004820152602c60248201527f4552433732313a20617070726f76656420717565727920666f72206e6f6e657860448201526b34b9ba32b73a103a37b5b2b760a11b60648201526084016104ad565b506000908152600460205260409020546001600160a01b031690565b6000610626826108ee565b9050806001600160a01b0316836001600160a01b0316036106935760405162461bcd60e51b815260206004820152602160248201527f4552433732313a20617070726f76616c20746f2063757272656e74206f776e656044820152603960f91b60648201526084016104ad565b336001600160a01b03821614806106af57506106af81336103d7565b6107215760405162461bcd60e51b815260206004820152603860248201527f4552433732313a20617070726f76652063616c6c6572206973206e6f74206f7760448201527f6e6572206e6f7220617070726f76656420666f7220616c6c000000000000000060648201526084016104ad565b61072b8383610dca565b505050565b610748600080516020611db283398151915233610a99565b61075157600080fd5b610769600080516020611db283398151915282610d0b565b50565b6107763382610e38565b6107925760405162461bcd60e51b81526004016104ad90611ace565b61072b838383610f2b565b6000828152600760205260409020600101546107ba905b33610a99565b61081e5760405162461bcd60e51b815260206004820152602f60248201527f416363657373436f6e74726f6c3a2073656e646572206d75737420626520616e60448201526e0818591b5a5b881d1bc819dc985b9d608a1b60648201526084016104ad565b61082882826110cb565b5050565b6001600160a01b038116331461089c5760405162461bcd60e51b815260206004820152602f60248201527f416363657373436f6e74726f6c3a2063616e206f6e6c792072656e6f756e636560448201526e103937b632b9903337b91039b2b63360891b60648201526084016104ad565b6108288282611151565b61072b83838360405180602001604052806000815250610b5a565b6108d9600080516020611db283398151915233610a99565b6108e257600080fd5b60096108288282611b6d565b6000818152600260205260408120546001600160a01b0316806104db5760405162461bcd60e51b815260206004820152602960248201527f4552433732313a206f776e657220717565727920666f72206e6f6e657869737460448201526832b73a103a37b5b2b760b91b60648201526084016104ad565b61097d600080516020611db283398151915233610a99565b61098657600080fd5b610769600080516020611db28339815191528261079d565b60006001600160a01b038216610a095760405162461bcd60e51b815260206004820152602a60248201527f4552433732313a2062616c616e636520717565727920666f7220746865207a65604482015269726f206164647265737360b01b60648201526084016104ad565b506001600160a01b031660009081526003602052604090205490565b610a3d600080516020611db283398151915233610a99565b610a4657600080fd5b600b5460ff16610a8d5760405162461bcd60e51b815260206004820152601260248201527153616c65206973206e6f742061637469766560701b60448201526064016104ad565b600b805460ff19169055565b60009182526007602090815260408084206001600160a01b0393909316845291905290205460ff1690565b60606001805461050390611a94565b6108283383836111b8565b610af6600080516020611db283398151915233610a99565b610aff57600080fd5b600b5460ff1615610b4b5760405162461bcd60e51b815260206004820152601660248201527553616c6520697320616c72656164792061637469766560501b60448201526064016104ad565b600b805460ff19166001179055565b610b643383610e38565b610b805760405162461bcd60e51b81526004016104ad90611ace565b610b8c84848484611286565b50505050565b6000818152600260205260409020546060906001600160a01b0316610c135760405162461bcd60e51b815260206004820152603160248201527f45524337323155524953746f726167653a2055524920717565727920666f72206044820152703737b732bc34b9ba32b73a103a37b5b2b760791b60648201526084016104ad565b60008281526006602052604081208054610c2c90611a94565b80601f0160208091040260200160405190810160405280929190818152602001828054610c5890611a94565b8015610ca55780601f10610c7a57610100808354040283529160200191610ca5565b820191906000526020600020905b815481529060010190602001808311610c8857829003601f168201915b505050505090506000610cb66112b9565b90508051600003610cc8575092915050565b815115610cfa578082604051602001610ce2929190611c2d565b60405160208183030381529060405292505050919050565b610d03846112c8565b949350505050565b600082815260076020526040902060010154610d26906107b4565b61089c5760405162461bcd60e51b815260206004820152603060248201527f416363657373436f6e74726f6c3a2073656e646572206d75737420626520616e60448201526f2061646d696e20746f207265766f6b6560801b60648201526084016104ad565b6108288282604051806020016040528060008152506113a3565b60006001600160e01b03198216637965db0b60e01b14806104ee57506104ee826113d6565b600081815260046020526040902080546001600160a01b0319166001600160a01b0384169081179091558190610dff826108ee565b6001600160a01b03167f8c5be1e5ebec7d5bd14f71427d1e84f3dd0314c0f7b2291e5b200ac8c7c3b92560405160405180910390a45050565b6000818152600260205260408120546001600160a01b0316610eb15760405162461bcd60e51b815260206004820152602c60248201527f4552433732313a206f70657261746f7220717565727920666f72206e6f6e657860448201526b34b9ba32b73a103a37b5b2b760a11b60648201526084016104ad565b6000610ebc836108ee565b9050806001600160a01b0316846001600160a01b03161480610ef75750836001600160a01b0316610eec84610586565b6001600160a01b0316145b80610d0357506001600160a01b0380821660009081526005602090815260408083209388168352929052205460ff16610d03565b826001600160a01b0316610f3e826108ee565b6001600160a01b031614610fa65760405162461bcd60e51b815260206004820152602960248201527f4552433732313a207472616e73666572206f6620746f6b656e2074686174206960448201526839903737ba1037bbb760b91b60648201526084016104ad565b6001600160a01b0382166110085760405162461bcd60e51b8152602060048201526024808201527f4552433732313a207472616e7366657220746f20746865207a65726f206164646044820152637265737360e01b60648201526084016104ad565b611013600082610dca565b6001600160a01b038316600090815260036020526040812080546001929061103c908490611c72565b90915550506001600160a01b038216600090815260036020526040812080546001929061106a908490611c85565b909155505060008181526002602052604080822080546001600160a01b0319166001600160a01b0386811691821790925591518493918716917fddf252ad1be2c89b69c2b068fc378daa952ba7f163c4a11628f55a4df523b3ef91a4505050565b6110d58282610a99565b6108285760008281526007602090815260408083206001600160a01b03851684529091529020805460ff1916600117905561110d3390565b6001600160a01b0316816001600160a01b0316837f2f8788117e7eff1d82e926ec794901d17c78024a50270940304540a733656f0d60405160405180910390a45050565b61115b8282610a99565b156108285760008281526007602090815260408083206001600160a01b0385168085529252808320805460ff1916905551339285917ff6391f5c32d9c69d2a47ea670b442974b53935d1edc7fd64eb21e047a839171b9190a45050565b816001600160a01b0316836001600160a01b0316036112195760405162461bcd60e51b815260206004820152601960248201527f4552433732313a20617070726f766520746f2063616c6c65720000000000000060448201526064016104ad565b6001600160a01b03838116600081815260056020908152604080832094871680845294825291829020805460ff191686151590811790915591519182527f17307eab39ab6107e8899845ad3d59bd9653f200f220920489ca2b5937696c31910160405180910390a3505050565b611291848484610f2b565b61129d84848484611426565b610b8c5760405162461bcd60e51b81526004016104ad90611c98565b60606009805461050390611a94565b6000818152600260205260409020546060906001600160a01b03166113475760405162461bcd60e51b815260206004820152602f60248201527f4552433732314d657461646174613a2055524920717565727920666f72206e6f60448201526e3732bc34b9ba32b73a103a37b5b2b760891b60648201526084016104ad565b60006113516112b9565b90506000815111611371576040518060200160405280600081525061139c565b8061137b84611527565b60405160200161138c929190611c2d565b6040516020818303038152906040525b9392505050565b6113ad8383611628565b6113ba6000848484611426565b61072b5760405162461bcd60e51b81526004016104ad90611c98565b60006001600160e01b031982166380ac58cd60e01b148061140757506001600160e01b03198216635b5e139f60e01b145b806104ee57506301ffc9a760e01b6001600160e01b03198316146104ee565b60006001600160a01b0384163b1561151c57604051630a85bd0160e11b81526001600160a01b0385169063150b7a029061146a903390899088908890600401611cea565b6020604051808303816000875af19250505080156114a5575060408051601f3d908101601f191682019092526114a291810190611d27565b60015b611502573d8080156114d3576040519150601f19603f3d011682016040523d82523d6000602084013e6114d8565b606091505b5080516000036114fa5760405162461bcd60e51b81526004016104ad90611c98565b805181602001fd5b6001600160e01b031916630a85bd0160e11b149050610d03565b506001949350505050565b60608160000361154e5750506040805180820190915260018152600360fc1b602082015290565b8160005b8115611578578061156281611d44565b91506115719050600a83611d73565b9150611552565b60008167ffffffffffffffff811115611593576115936118dd565b6040519080825280601f01601f1916602001820160405280156115bd576020820181803683370190505b5090505b8415610d03576115d2600183611c72565b91506115df600a86611d87565b6115ea906030611c85565b60f81b8183815181106115ff576115ff611d9b565b60200101906001600160f81b031916908160001a905350611621600a86611d73565b94506115c1565b6001600160a01b03821661167e5760405162461bcd60e51b815260206004820181905260248201527f4552433732313a206d696e7420746f20746865207a65726f206164647265737360448201526064016104ad565b6000818152600260205260409020546001600160a01b0316156116e35760405162461bcd60e51b815260206004820152601c60248201527f4552433732313a20746f6b656e20616c7265616479206d696e7465640000000060448201526064016104ad565b6001600160a01b038216600090815260036020526040812080546001929061170c908490611c85565b909155505060008181526002602052604080822080546001600160a01b0319166001600160a01b03861690811790915590518392907fddf252ad1be2c89b69c2b068fc378daa952ba7f163c4a11628f55a4df523b3ef908290a45050565b80356001600160a01b03811681146104de57600080fd5b60006020828403121561179357600080fd5b61139c8261176a565b6001600160e01b03198116811461076957600080fd5b6000602082840312156117c457600080fd5b813561139c8161179c565b60005b838110156117ea5781810151838201526020016117d2565b50506000910152565b6000815180845261180b8160208601602086016117cf565b601f01601f19169290920160200192915050565b60208152600061139c60208301846117f3565b60006020828403121561184457600080fd5b5035919050565b6000806040838503121561185e57600080fd5b6118678361176a565b946020939093013593505050565b60008060006060848603121561188a57600080fd5b6118938461176a565b92506118a16020850161176a565b9150604084013590509250925092565b600080604083850312156118c457600080fd5b823591506118d46020840161176a565b90509250929050565b634e487b7160e01b600052604160045260246000fd5b600067ffffffffffffffff8084111561190e5761190e6118dd565b604051601f8501601f19908116603f01168101908282118183101715611936576119366118dd565b8160405280935085815286868601111561194f57600080fd5b858560208301376000602087830101525050509392505050565b60006020828403121561197b57600080fd5b813567ffffffffffffffff81111561199257600080fd5b8201601f810184136119a357600080fd5b610d03848235602084016118f3565b600080604083850312156119c557600080fd5b6119ce8361176a565b9150602083013580151581146119e357600080fd5b809150509250929050565b60008060008060808587031215611a0457600080fd5b611a0d8561176a565b9350611a1b6020860161176a565b925060408501359150606085013567ffffffffffffffff811115611a3e57600080fd5b8501601f81018713611a4f57600080fd5b611a5e878235602084016118f3565b91505092959194509250565b60008060408385031215611a7d57600080fd5b611a868361176a565b91506118d46020840161176a565b600181811c90821680611aa857607f821691505b602082108103611ac857634e487b7160e01b600052602260045260246000fd5b50919050565b60208082526031908201527f4552433732313a207472616e736665722063616c6c6572206973206e6f74206f6040820152701ddb995c881b9bdc88185c1c1c9bdd9959607a1b606082015260800190565b601f82111561072b57600081815260208120601f850160051c81016020861015611b465750805b601f850160051c820191505b81811015611b6557828155600101611b52565b505050505050565b815167ffffffffffffffff811115611b8757611b876118dd565b611b9b81611b958454611a94565b84611b1f565b602080601f831160018114611bd05760008415611bb85750858301515b600019600386901b1c1916600185901b178555611b65565b600085815260208120601f198616915b82811015611bff57888601518255948401946001909101908401611be0565b5085821015611c1d5787850151600019600388901b60f8161c191681555b5050505050600190811b01905550565b60008351611c3f8184602088016117cf565b835190830190611c538183602088016117cf565b01949350505050565b634e487b7160e01b600052601160045260246000fd5b818103818111156104ee576104ee611c5c565b808201808211156104ee576104ee611c5c565b60208082526032908201527f4552433732313a207472616e7366657220746f206e6f6e20455243373231526560408201527131b2b4bb32b91034b6b83632b6b2b73a32b960711b606082015260800190565b6001600160a01b0385811682528416602082015260408101839052608060608201819052600090611d1d908301846117f3565b9695505050505050565b600060208284031215611d3957600080fd5b815161139c8161179c565b600060018201611d5657611d56611c5c565b5060010190565b634e487b7160e01b600052601260045260246000fd5b600082611d8257611d82611d5d565b500490565b600082611d9657611d96611d5d565b500690565b634e487b7160e01b600052603260045260246000fdfea49807205ce4d355092ef5a8a18f56e8913cf4a201fbe287825b095693c21775a26469706673582212206f35b299d9ab5ac2c117e98eb4785c7d0270de7b86380404aab20269fb38a53064736f6c63430008110033a49807205ce4d355092ef5a8a18f56e8913cf4a201fbe287825b095693c21775",
  "linkReferences": {},
  "deployedLinkReferences": {}
}