{
  "_format": "hh-sol-artifact-1",
  "contractName": "ERC721WithEIP2981",
  "sourceName": "contracts/manifold/royalty-registry/token/ERC721.sol",
  "abi": [
    {
      "inputs": [
        {
          "internalType": "string",
          "name": "name_",
          "type": "string"
        },
        {
          "internalType": "string",
          "name": "symbol_",
          "type": "string"
        }
      ],
      "stateMutability": "nonpayable",
      "type": "constructor"
    },
    {
      "anonymous": false,
      "inputs": [
        {
          "indexed": true,
          "internalType": "address",
          "name": "owner",
          "type": "address"
        },
        {
          "indexed": true,
          "internalType": "address",
          "name": "approved",
          "type": "address"
        },
        {
          "indexed": true,
          "internalType": "uint256",
          "name": "tokenId",
          "type": "uint256"
        }
      ],
      "name": "Approval",
      "type": "event"
    },
    {
      "anonymous": false,
      "inputs": [
        {
          "indexed": true,
          "internalType": "address",
          "name": "owner",
          "type": "address"
        },
        {
          "indexed": true,
          "internalType": "address",
          "name": "operator",
          "type": "address"
        },
        {
          "indexed": false,
          "internalType": "bool",
          "name": "approved",
          "type": "bool"
        }
      ],
      "name": "ApprovalForAll",
      "type": "event"
    },
    {
      "anonymous": false,
      "inputs": [
        {
          "indexed": false,
          "internalType": "address",
          "name": "recipient",
          "type": "address"
        },
        {
          "indexed": false,
          "internalType": "uint16",
          "name": "bps",
          "type": "uint16"
        }
      ],
      "name": "DefaultRoyaltySet",
      "type": "event"
    },
    {
      "anonymous": false,
      "inputs": [
        {
          "indexed": true,
          "internalType": "address",
          "name": "previousOwner",
          "type": "address"
        },
        {
          "indexed": true,
          "internalType": "address",
          "name": "newOwner",
          "type": "address"
        }
      ],
      "name": "OwnershipTransferred",
      "type": "event"
    },
    {
      "anonymous": false,
      "inputs": [
        {
          "indexed": false,
          "internalType": "uint256",
          "name": "tokenId",
          "type": "uint256"
        }
      ],
      "name": "TokenRoyaltyRemoved",
      "type": "event"
    },
    {
      "anonymous": false,
      "inputs": [
        {
          "indexed": false,
          "internalType": "uint256",
          "name": "tokenId",
          "type": "uint256"
        },
        {
          "indexed": false,
          "internalType": "address",
          "name": "recipient",
          "type": "address"
        },
        {
          "indexed": false,
          "internalType": "uint16",
          "name": "bps",
          "type": "uint16"
        }
      ],
      "name": "TokenRoyaltySet",
      "type": "event"
    },
    {
      "anonymous": false,
      "inputs": [
        {
          "indexed": true,
          "internalType": "address",
          "name": "from",
          "type": "address"
        },
        {
          "indexed": true,
          "internalType": "address",
          "name": "to",
          "type": "address"
        },
        {
          "indexed": true,
          "internalType": "uint256",
          "name": "tokenId",
          "type": "uint256"
        }
      ],
      "name": "Transfer",
      "type": "event"
    },
    {
      "inputs": [
        {
          "internalType": "address",
          "name": "to",
          "type": "address"
        },
        {
          "internalType": "uint256",
          "name": "tokenId",
          "type": "uint256"
        }
      ],
      "name": "approve",
      "outputs": [],
      "stateMutability": "nonpayable",
      "type": "function"
    },
    {
      "inputs": [
        {
          "internalType": "address",
          "name": "owner",
          "type": "address"
        }
      ],
      "name": "balanceOf",
      "outputs": [
        {
          "internalType": "uint256",
          "name": "",
          "type": "uint256"
        }
      ],
      "stateMutability": "view",
      "type": "function"
    },
    {
      "inputs": [],
      "name": "defaultRoyalty",
      "outputs": [
        {
          "internalType": "address",
          "name": "recipient",
          "type": "address"
        },
        {
          "internalType": "uint16",
          "name": "bps",
          "type": "uint16"
        }
      ],
      "stateMutability": "view",
      "type": "function"
    },
    {
      "inputs": [
        {
          "internalType": "uint256",
          "name": "tokenId",
          "type": "uint256"
        }
      ],
      "name": "getApproved",
      "outputs": [
        {
          "internalType": "address",
          "name": "",
          "type": "address"
        }
      ],
      "stateMutability": "view",
      "type": "function"
    },
    {
      "inputs": [],
      "name": "getTokenRoyaltiesCount",
      "outputs": [
        {
          "internalType": "uint256",
          "name": "",
          "type": "uint256"
        }
      ],
      "stateMutability": "view",
      "type": "function"
    },
    {
      "inputs": [
        {
          "internalType": "uint256",
          "name": "index",
          "type": "uint256"
        }
      ],
      "name": "getTokenRoyaltyByIndex",
      "outputs": [
        {
          "components": [
            {
              "internalType": "uint256",
              "name": "tokenId",
              "type": "uint256"
            },
            {
              "internalType": "address",
              "name": "recipient",
              "type": "address"
            },
            {
              "internalType": "uint16",
              "name": "bps",
              "type": "uint16"
            }
          ],
          "internalType": "struct IEIP2981RoyaltyOverride.TokenRoyaltyConfig",
          "name": "",
          "type": "tuple"
        }
      ],
      "stateMutability": "view",
      "type": "function"
    },
    {
      "inputs": [
        {
          "internalType": "address",
          "name": "owner",
          "type": "address"
        },
        {
          "internalType": "address",
          "name": "operator",
          "type": "address"
        }
      ],
      "name": "isApprovedForAll",
      "outputs": [
        {
          "internalType": "bool",
          "name": "",
          "type": "bool"
        }
      ],
      "stateMutability": "view",
      "type": "function"
    },
    {
      "inputs": [],
      "name": "name",
      "outputs": [
        {
          "internalType": "string",
          "name": "",
          "type": "string"
        }
      ],
      "stateMutability": "view",
      "type": "function"
    },
    {
      "inputs": [],
      "name": "owner",
      "outputs": [
        {
          "internalType": "address",
          "name": "",
          "type": "address"
        }
      ],
      "stateMutability": "view",
      "type": "function"
    },
    {
      "inputs": [
        {
          "internalType": "uint256",
          "name": "tokenId",
          "type": "uint256"
        }
      ],
      "name": "ownerOf",
      "outputs": [
        {
          "internalType": "address",
          "name": "",
          "type": "address"
        }
      ],
      "stateMutability": "view",
      "type": "function"
    },
    {
      "inputs": [],
      "name": "renounceOwnership",
      "outputs": [],
      "stateMutability": "nonpayable",
      "type": "function"
    },
    {
      "inputs": [
        {
          "internalType": "uint256",
          "name": "tokenId",
          "type": "uint256"
        },
        {
          "internalType": "uint256",
          "name": "value",
          "type": "uint256"
        }
      ],
      "name": "royaltyInfo",
      "outputs": [
        {
          "internalType": "address",
          "name": "",
          "type": "address"
        },
        {
          "internalType": "uint256",
          "name": "",
          "type": "uint256"
        }
      ],
      "stateMutability": "view",
      "type": "function"
    },
    {
      "inputs": [
        {
          "internalType": "address",
          "name": "from",
          "type": "address"
        },
        {
          "internalType": "address",
          "name": "to",
          "type": "address"
        },
        {
          "internalType": "uint256",
          "name": "tokenId",
          "type": "uint256"
        }
      ],
      "name": "safeTransferFrom",
      "outputs": [],
      "stateMutability": "nonpayable",
      "type": "function"
    },
    {
      "inputs": [
        {
          "internalType": "address",
          "name": "from",
          "type": "address"
        },
        {
          "internalType": "address",
          "name": "to",
          "type": "address"
        },
        {
          "internalType": "uint256",
          "name": "tokenId",
          "type": "uint256"
        },
        {
          "internalType": "bytes",
          "name": "_data",
          "type": "bytes"
        }
      ],
      "name": "safeTransferFrom",
      "outputs": [],
      "stateMutability": "nonpayable",
      "type": "function"
    },
    {
      "inputs": [
        {
          "internalType": "address",
          "name": "operator",
          "type": "address"
        },
        {
          "internalType": "bool",
          "name": "approved",
          "type": "bool"
        }
      ],
      "name": "setApprovalForAll",
      "outputs": [],
      "stateMutability": "nonpayable",
      "type": "function"
    },
    {
      "inputs": [
        {
          "components": [
            {
              "internalType": "address",
              "name": "recipient",
              "type": "address"
            },
            {
              "internalType": "uint16",
              "name": "bps",
              "type": "uint16"
            }
          ],
          "internalType": "struct IEIP2981RoyaltyOverride.TokenRoyalty",
          "name": "royalty",
          "type": "tuple"
        }
      ],
      "name": "setDefaultRoyalty",
      "outputs": [],
      "stateMutability": "nonpayable",
      "type": "function"
    },
    {
      "inputs": [
        {
          "components": [
            {
              "internalType": "uint256",
              "name": "tokenId",
              "type": "uint256"
            },
            {
              "internalType": "address",
              "name": "recipient",
              "type": "address"
            },
            {
              "internalType": "uint16",
              "name": "bps",
              "type": "uint16"
            }
          ],
          "internalType": "struct IEIP2981RoyaltyOverride.TokenRoyaltyConfig[]",
          "name": "royaltyConfigs",
          "type": "tuple[]"
        }
      ],
      "name": "setTokenRoyalties",
      "outputs": [],
      "stateMutability": "nonpayable",
      "type": "function"
    },
    {
      "inputs": [
        {
          "internalType": "bytes4",
          "name": "interfaceId",
          "type": "bytes4"
        }
      ],
      "name": "supportsInterface",
      "outputs": [
        {
          "internalType": "bool",
          "name": "",
          "type": "bool"
        }
      ],
      "stateMutability": "view",
      "type": "function"
    },
    {
      "inputs": [],
      "name": "symbol",
      "outputs": [
        {
          "internalType": "string",
          "name": "",
          "type": "string"
        }
      ],
      "stateMutability": "view",
      "type": "function"
    },
    {
      "inputs": [
        {
          "internalType": "uint256",
          "name": "tokenId",
          "type": "uint256"
        }
      ],
      "name": "tokenURI",
      "outputs": [
        {
          "internalType": "string",
          "name": "",
          "type": "string"
        }
      ],
      "stateMutability": "view",
      "type": "function"
    },
    {
      "inputs": [
        {
          "internalType": "address",
          "name": "from",
          "type": "address"
        },
        {
          "internalType": "address",
          "name": "to",
          "type": "address"
        },
        {
          "internalType": "uint256",
          "name": "tokenId",
          "type": "uint256"
        }
      ],
      "name": "transferFrom",
      "outputs": [],
      "stateMutability": "nonpayable",
      "type": "function"
    },
    {
      "inputs": [
        {
          "internalType": "address",
          "name": "newOwner",
          "type": "address"
        }
      ],
      "name": "transferOwnership",
      "outputs": [],
      "stateMutability": "nonpayable",
      "type": "function"
    }
  ],
  "bytecode": "0x60806040523480156200001157600080fd5b506040516200211638038062002116833981016040819052620000349162000187565b8181600062000044838262000280565b50600162000053828262000280565b505050600062000068620000be60201b60201c565b600a80546001600160a01b0319166001600160a01b038316908117909155604051919250906000907f8be0079c531659141344cd1fd0a4f28419497f9722a3daafe3b4186f6b6457e0908290a35050506200034c565b3390565b634e487b7160e01b600052604160045260246000fd5b600082601f830112620000ea57600080fd5b81516001600160401b0380821115620001075762000107620000c2565b604051601f8301601f19908116603f01168101908282118183101715620001325762000132620000c2565b816040528381526020925086838588010111156200014f57600080fd5b600091505b8382101562000173578582018301518183018401529082019062000154565b600093810190920192909252949350505050565b600080604083850312156200019b57600080fd5b82516001600160401b0380821115620001b357600080fd5b620001c186838701620000d8565b93506020850151915080821115620001d857600080fd5b50620001e785828601620000d8565b9150509250929050565b600181811c908216806200020657607f821691505b6020821081036200022757634e487b7160e01b600052602260045260246000fd5b50919050565b601f8211156200027b57600081815260208120601f850160051c81016020861015620002565750805b601f850160051c820191505b81811015620002775782815560010162000262565b5050505b505050565b81516001600160401b038111156200029c576200029c620000c2565b620002b481620002ad8454620001f1565b846200022d565b602080601f831160018114620002ec5760008415620002d35750858301515b600019600386901b1c1916600185901b17855562000277565b600085815260208120601f198616915b828110156200031d57888601518255948401946001909101908401620002fc565b50858210156200033c5787850151600019600388901b60f8161c191681555b5050505050600190811b01905550565b611dba806200035c6000396000f3fe608060405234801561001057600080fd5b50600436106101425760003560e01c8063715018a6116100b8578063a22cb4651161007c578063a22cb46514610310578063b88d4fde14610323578063c87b56dd14610336578063e985e9c514610349578063ef60ceaf1461035c578063f2fde38b1461036f57600080fd5b8063715018a6146102a55780637885fdc7146102ad5780637e980342146102ef5780638da5cb5b146102f757806395d89b411461030857600080fd5b806323b872dd1161010a57806323b872dd146102065780632a55205a1461021957806342842e0e1461024b5780635136dcc71461025e5780636352211e1461027157806370a082311461028457600080fd5b806301ffc9a7146101475780630653aca51461016f57806306fdde03146101b1578063081812fc146101c6578063095ea7b3146101f1575b600080fd5b61015a6101553660046116ec565b610382565b60405190151581526020015b60405180910390f35b61018261017d366004611709565b6103a2565b60408051825181526020808401516001600160a01b0316908201529181015161ffff1690820152606001610166565b6101b9610427565b6040516101669190611772565b6101d96101d4366004611709565b6104b9565b6040516001600160a01b039091168152602001610166565b6102046101ff3660046117a1565b610553565b005b6102046102143660046117cb565b610668565b61022c610227366004611807565b610699565b604080516001600160a01b039093168352602083019190915201610166565b6102046102593660046117cb565b61075e565b61020461026c366004611829565b610779565b6101d961027f366004611709565b610802565b61029761029236600461189e565b610879565b604051908152602001610166565b610204610900565b6006546102cd906001600160a01b03811690600160a01b900461ffff1682565b604080516001600160a01b03909316835261ffff909116602083015201610166565b610297610974565b600a546001600160a01b03166101d9565b6101b9610985565b61020461031e3660046118b9565b610994565b61020461033136600461193c565b61099f565b6101b9610344366004611709565b6109d7565b61015a6103573660046119fc565b610abf565b61020461036a366004611a2f565b610aed565b61020461037d36600461189e565b610b31565b600061038d82610c1c565b8061039c575061039c82610c6c565b92915050565b60408051606081018252600080825260208201819052918101829052906103ca600884610cac565b6000818152600760209081526040918290208251808401845290546001600160a01b03808216835261ffff600160a01b90920482168385019081528551606081018752968752925116928501929092525116908201529392505050565b60606000805461043690611a47565b80601f016020809104026020016040519081016040528092919081815260200182805461046290611a47565b80156104af5780601f10610484576101008083540402835291602001916104af565b820191906000526020600020905b81548152906001019060200180831161049257829003601f168201915b5050505050905090565b6000818152600260205260408120546001600160a01b03166105375760405162461bcd60e51b815260206004820152602c60248201527f4552433732313a20617070726f76656420717565727920666f72206e6f6e657860448201526b34b9ba32b73a103a37b5b2b760a11b60648201526084015b60405180910390fd5b506000908152600460205260409020546001600160a01b031690565b600061055e82610802565b9050806001600160a01b0316836001600160a01b0316036105cb5760405162461bcd60e51b815260206004820152602160248201527f4552433732313a20617070726f76616c20746f2063757272656e74206f776e656044820152603960f91b606482015260840161052e565b336001600160a01b03821614806105e757506105e78133610abf565b6106595760405162461bcd60e51b815260206004820152603860248201527f4552433732313a20617070726f76652063616c6c6572206973206e6f74206f7760448201527f6e6572206e6f7220617070726f76656420666f7220616c6c0000000000000000606482015260840161052e565b6106638383610cb8565b505050565b6106723382610d26565b61068e5760405162461bcd60e51b815260040161052e90611a7b565b610663838383610dfd565b60008281526007602052604081205481906001600160a01b0316156106fe576000848152600760205260409020546001600160a01b03811690612710906106eb90600160a01b900461ffff1686611ae2565b6106f59190611b0f565b91509150610757565b6006546001600160a01b0316158015906107245750600654600160a01b900461ffff1615155b15610750576006546001600160a01b03811690612710906106eb90600160a01b900461ffff1686611ae2565b5060009050805b9250929050565b6106638383836040518060200160405280600081525061099f565b600a546001600160a01b031633146107a35760405162461bcd60e51b815260040161052e90611b23565b6107fe8282808060200260200160405190810160405280939291908181526020016000905b828210156107f4576107e560608302860136819003810190611b6a565b815260200190600101906107c8565b5050505050610f9d565b5050565b6000818152600260205260408120546001600160a01b03168061039c5760405162461bcd60e51b815260206004820152602960248201527f4552433732313a206f776e657220717565727920666f72206e6f6e657869737460448201526832b73a103a37b5b2b760b91b606482015260840161052e565b60006001600160a01b0382166108e45760405162461bcd60e51b815260206004820152602a60248201527f4552433732313a2062616c616e636520717565727920666f7220746865207a65604482015269726f206164647265737360b01b606482015260840161052e565b506001600160a01b031660009081526003602052604090205490565b600a546001600160a01b0316331461092a5760405162461bcd60e51b815260040161052e90611b23565b600a546040516000916001600160a01b0316907f8be0079c531659141344cd1fd0a4f28419497f9722a3daafe3b4186f6b6457e0908390a3600a80546001600160a01b0319169055565b60006109806008611162565b905090565b60606001805461043690611a47565b6107fe33838361116c565b6109a93383610d26565b6109c55760405162461bcd60e51b815260040161052e90611a7b565b6109d18484848461123a565b50505050565b6000818152600260205260409020546060906001600160a01b0316610a565760405162461bcd60e51b815260206004820152602f60248201527f4552433732314d657461646174613a2055524920717565727920666f72206e6f60448201526e3732bc34b9ba32b73a103a37b5b2b760891b606482015260840161052e565b6000610a6d60408051602081019091526000815290565b90506000815111610a8d5760405180602001604052806000815250610ab8565b80610a978461126d565b604051602001610aa8929190611bcf565b6040516020818303038152906040525b9392505050565b6001600160a01b03918216600090815260056020908152604080832093909416825291909152205460ff1690565b600a546001600160a01b03163314610b175760405162461bcd60e51b815260040161052e90611b23565b610b2e610b2936839003830183611bfe565b61136e565b50565b600a546001600160a01b03163314610b5b5760405162461bcd60e51b815260040161052e90611b23565b6001600160a01b038116610bc05760405162461bcd60e51b815260206004820152602660248201527f4f776e61626c653a206e6577206f776e657220697320746865207a65726f206160448201526564647265737360d01b606482015260840161052e565b600a546040516001600160a01b038084169216907f8be0079c531659141344cd1fd0a4f28419497f9722a3daafe3b4186f6b6457e090600090a3600a80546001600160a01b0319166001600160a01b0392909216919091179055565b60006001600160e01b031982166380ac58cd60e01b1480610c4d57506001600160e01b03198216635b5e139f60e01b145b8061039c57506301ffc9a760e01b6001600160e01b031983161461039c565b60006001600160e01b0319821663152a902d60e11b1480610c9d57506001600160e01b0319821663c69dbd8f60e01b145b8061039c575061039c82610c1c565b6000610ab88383611451565b600081815260046020526040902080546001600160a01b0319166001600160a01b0384169081179091558190610ced82610802565b6001600160a01b03167f8c5be1e5ebec7d5bd14f71427d1e84f3dd0314c0f7b2291e5b200ac8c7c3b92560405160405180910390a45050565b6000818152600260205260408120546001600160a01b0316610d9f5760405162461bcd60e51b815260206004820152602c60248201527f4552433732313a206f70657261746f7220717565727920666f72206e6f6e657860448201526b34b9ba32b73a103a37b5b2b760a11b606482015260840161052e565b6000610daa83610802565b9050806001600160a01b0316846001600160a01b03161480610de55750836001600160a01b0316610dda846104b9565b6001600160a01b0316145b80610df55750610df58185610abf565b949350505050565b826001600160a01b0316610e1082610802565b6001600160a01b031614610e785760405162461bcd60e51b815260206004820152602960248201527f4552433732313a207472616e73666572206f6620746f6b656e2074686174206960448201526839903737ba1037bbb760b91b606482015260840161052e565b6001600160a01b038216610eda5760405162461bcd60e51b8152602060048201526024808201527f4552433732313a207472616e7366657220746f20746865207a65726f206164646044820152637265737360e01b606482015260840161052e565b610ee5600082610cb8565b6001600160a01b0383166000908152600360205260408120805460019290610f0e908490611c59565b90915550506001600160a01b0382166000908152600360205260408120805460019290610f3c908490611c6c565b909155505060008181526002602052604080822080546001600160a01b0319166001600160a01b0386811691821790925591518493918716917fddf252ad1be2c89b69c2b068fc378daa952ba7f163c4a11628f55a4df523b3ef91a4505050565b60005b81518110156107fe576000828281518110610fbd57610fbd611c7f565b60200260200101519050612710816040015161ffff161061100e5760405162461bcd60e51b815260206004820152600b60248201526a496e76616c69642062707360a81b604482015260640161052e565b60208101516001600160a01b0316611087578051600090815260076020526040902080546001600160b01b0319169055805161104c9060089061147b565b5080516040519081527fa2870857763bd9ae76c957f869f16b31c18dd3bb4c7b4d3a4496dc5c57c657f99060200160405180910390a161114f565b6040805180820182526020808401516001600160a01b0390811683528484015161ffff90811683850190815286516000908152600790945294909220925183549451909216600160a01b026001600160b01b031990941691161791909117905580516110f590600890611487565b50805160208083015160408085015181519485526001600160a01b039092169284019290925261ffff1682820152517f389b70fb0887f01e83784eb1c4c589f740eca53b00ed0f45e41db5d079719abb9181900360600190a15b508061115a81611c95565b915050610fa0565b600061039c825490565b816001600160a01b0316836001600160a01b0316036111cd5760405162461bcd60e51b815260206004820152601960248201527f4552433732313a20617070726f766520746f2063616c6c657200000000000000604482015260640161052e565b6001600160a01b03838116600081815260056020908152604080832094871680845294825291829020805460ff191686151590811790915591519182527f17307eab39ab6107e8899845ad3d59bd9653f200f220920489ca2b5937696c31910160405180910390a3505050565b611245848484610dfd565b61125184848484611493565b6109d15760405162461bcd60e51b815260040161052e90611cae565b6060816000036112945750506040805180820190915260018152600360fc1b602082015290565b8160005b81156112be57806112a881611c95565b91506112b79050600a83611b0f565b9150611298565b60008167ffffffffffffffff8111156112d9576112d96118f5565b6040519080825280601f01601f191660200182016040528015611303576020820181803683370190505b5090505b8415610df557611318600183611c59565b9150611325600a86611d00565b611330906030611c6c565b60f81b81838151811061134557611345611c7f565b60200101906001600160f81b031916908160001a905350611367600a86611b0f565b9450611307565b612710816020015161ffff16106113b55760405162461bcd60e51b815260206004820152600b60248201526a496e76616c69642062707360a81b604482015260640161052e565b60408051808201825282516001600160a01b03168082526020808501805161ffff169190930181905260068054600160a01b9092026001600160b01b03199092169092171790558251905191517f2c5ea6e4103e78cb101e796fb2dace540362fc542cbff5145eaa24af7dd8fe419261144692916001600160a01b0392909216825261ffff16602082015260400190565b60405180910390a150565b600082600001828154811061146857611468611c7f565b9060005260206000200154905092915050565b6000610ab88383611594565b6000610ab88383611687565b60006001600160a01b0384163b1561158957604051630a85bd0160e11b81526001600160a01b0385169063150b7a02906114d7903390899088908890600401611d14565b6020604051808303816000875af1925050508015611512575060408051601f3d908101601f1916820190925261150f91810190611d51565b60015b61156f573d808015611540576040519150601f19603f3d011682016040523d82523d6000602084013e611545565b606091505b5080516000036115675760405162461bcd60e51b815260040161052e90611cae565b805181602001fd5b6001600160e01b031916630a85bd0160e11b149050610df5565b506001949350505050565b6000818152600183016020526040812054801561167d5760006115b8600183611c59565b85549091506000906115cc90600190611c59565b90508181146116315760008660000182815481106115ec576115ec611c7f565b906000526020600020015490508087600001848154811061160f5761160f611c7f565b6000918252602080832090910192909255918252600188019052604090208390555b855486908061164257611642611d6e565b60019003818190600052602060002001600090559055856001016000868152602001908152602001600020600090556001935050505061039c565b600091505061039c565b60008181526001830160205260408120546116ce5750815460018181018455600084815260208082209093018490558454848252828601909352604090209190915561039c565b50600061039c565b6001600160e01b031981168114610b2e57600080fd5b6000602082840312156116fe57600080fd5b8135610ab8816116d6565b60006020828403121561171b57600080fd5b5035919050565b60005b8381101561173d578181015183820152602001611725565b50506000910152565b6000815180845261175e816020860160208601611722565b601f01601f19169290920160200192915050565b602081526000610ab86020830184611746565b80356001600160a01b038116811461179c57600080fd5b919050565b600080604083850312156117b457600080fd5b6117bd83611785565b946020939093013593505050565b6000806000606084860312156117e057600080fd5b6117e984611785565b92506117f760208501611785565b9150604084013590509250925092565b6000806040838503121561181a57600080fd5b50508035926020909101359150565b6000806020838503121561183c57600080fd5b823567ffffffffffffffff8082111561185457600080fd5b818501915085601f83011261186857600080fd5b81358181111561187757600080fd5b86602060608302850101111561188c57600080fd5b60209290920196919550909350505050565b6000602082840312156118b057600080fd5b610ab882611785565b600080604083850312156118cc57600080fd5b6118d583611785565b9150602083013580151581146118ea57600080fd5b809150509250929050565b634e487b7160e01b600052604160045260246000fd5b604051601f8201601f1916810167ffffffffffffffff81118282101715611934576119346118f5565b604052919050565b6000806000806080858703121561195257600080fd5b61195b85611785565b9350602061196a818701611785565b935060408601359250606086013567ffffffffffffffff8082111561198e57600080fd5b818801915088601f8301126119a257600080fd5b8135818111156119b4576119b46118f5565b6119c6601f8201601f1916850161190b565b915080825289848285010111156119dc57600080fd5b808484018584013760008482840101525080935050505092959194509250565b60008060408385031215611a0f57600080fd5b611a1883611785565b9150611a2660208401611785565b90509250929050565b600060408284031215611a4157600080fd5b50919050565b600181811c90821680611a5b57607f821691505b602082108103611a4157634e487b7160e01b600052602260045260246000fd5b60208082526031908201527f4552433732313a207472616e736665722063616c6c6572206973206e6f74206f6040820152701ddb995c881b9bdc88185c1c1c9bdd9959607a1b606082015260800190565b634e487b7160e01b600052601160045260246000fd5b808202811582820484141761039c5761039c611acc565b634e487b7160e01b600052601260045260246000fd5b600082611b1e57611b1e611af9565b500490565b6020808252818101527f4f776e61626c653a2063616c6c6572206973206e6f7420746865206f776e6572604082015260600190565b803561ffff8116811461179c57600080fd5b600060608284031215611b7c57600080fd5b6040516060810181811067ffffffffffffffff82111715611b9f57611b9f6118f5565b60405282358152611bb260208401611785565b6020820152611bc360408401611b58565b60408201529392505050565b60008351611be1818460208801611722565b835190830190611bf5818360208801611722565b01949350505050565b600060408284031215611c1057600080fd5b6040516040810181811067ffffffffffffffff82111715611c3357611c336118f5565b604052611c3f83611785565b8152611c4d60208401611b58565b60208201529392505050565b8181038181111561039c5761039c611acc565b8082018082111561039c5761039c611acc565b634e487b7160e01b600052603260045260246000fd5b600060018201611ca757611ca7611acc565b5060010190565b60208082526032908201527f4552433732313a207472616e7366657220746f206e6f6e20455243373231526560408201527131b2b4bb32b91034b6b83632b6b2b73a32b960711b606082015260800190565b600082611d0f57611d0f611af9565b500690565b6001600160a01b0385811682528416602082015260408101839052608060608201819052600090611d4790830184611746565b9695505050505050565b600060208284031215611d6357600080fd5b8151610ab8816116d6565b634e487b7160e01b600052603160045260246000fdfea26469706673582212202132e2797a17d5b1eaf7808ecaaca8c1ff1ffab49dc401cecdad9ce18216ae9664736f6c63430008110033",
  "linkReferences": {},
  "deployedLinkReferences": {}
}