{
  "_format": "hh-sol-artifact-1",
  "contractName": "MockERC1155CreatorMintPermissions",
  "sourceName": "contracts/manifold/creator-core/mocks/MockERC1155CreatorMintPermissions.sol",
  "abi": [
    {
      "inputs": [
        {
          "internalType": "address",
          "name": "creator_",
          "type": "address"
        }
      ],
      "stateMutability": "nonpayable",
      "type": "constructor"
    },
    {
      "anonymous": false,
      "inputs": [
        {
          "indexed": true,
          "internalType": "address",
          "name": "account",
          "type": "address"
        },
        {
          "indexed": true,
          "internalType": "address",
          "name": "sender",
          "type": "address"
        }
      ],
      "name": "AdminApproved",
      "type": "event"
    },
    {
      "anonymous": false,
      "inputs": [
        {
          "indexed": true,
          "internalType": "address",
          "name": "account",
          "type": "address"
        },
        {
          "indexed": true,
          "internalType": "address",
          "name": "sender",
          "type": "address"
        }
      ],
      "name": "AdminRevoked",
      "type": "event"
    },
    {
      "anonymous": false,
      "inputs": [
        {
          "indexed": true,
          "internalType": "address",
          "name": "previousOwner",
          "type": "address"
        },
        {
          "indexed": true,
          "internalType": "address",
          "name": "newOwner",
          "type": "address"
        }
      ],
      "name": "OwnershipTransferred",
      "type": "event"
    },
    {
      "inputs": [
        {
          "internalType": "address",
          "name": "admin",
          "type": "address"
        }
      ],
      "name": "approveAdmin",
      "outputs": [],
      "stateMutability": "nonpayable",
      "type": "function"
    },
    {
      "inputs": [
        {
          "internalType": "address",
          "name": "extension",
          "type": "address"
        },
        {
          "internalType": "address[]",
          "name": "to",
          "type": "address[]"
        },
        {
          "internalType": "uint256[]",
          "name": "tokenIds",
          "type": "uint256[]"
        },
        {
          "internalType": "uint256[]",
          "name": "amounts",
          "type": "uint256[]"
        }
      ],
      "name": "approveMint",
      "outputs": [],
      "stateMutability": "nonpayable",
      "type": "function"
    },
    {
      "inputs": [],
      "name": "getAdmins",
      "outputs": [
        {
          "internalType": "address[]",
          "name": "admins",
          "type": "address[]"
        }
      ],
      "stateMutability": "view",
      "type": "function"
    },
    {
      "inputs": [
        {
          "internalType": "address",
          "name": "admin",
          "type": "address"
        }
      ],
      "name": "isAdmin",
      "outputs": [
        {
          "internalType": "bool",
          "name": "",
          "type": "bool"
        }
      ],
      "stateMutability": "view",
      "type": "function"
    },
    {
      "inputs": [],
      "name": "owner",
      "outputs": [
        {
          "internalType": "address",
          "name": "",
          "type": "address"
        }
      ],
      "stateMutability": "view",
      "type": "function"
    },
    {
      "inputs": [],
      "name": "renounceOwnership",
      "outputs": [],
      "stateMutability": "nonpayable",
      "type": "function"
    },
    {
      "inputs": [
        {
          "internalType": "address",
          "name": "admin",
          "type": "address"
        }
      ],
      "name": "revokeAdmin",
      "outputs": [],
      "stateMutability": "nonpayable",
      "type": "function"
    },
    {
      "inputs": [
        {
          "internalType": "bool",
          "name": "enabled",
          "type": "bool"
        }
      ],
      "name": "setApproveEnabled",
      "outputs": [],
      "stateMutability": "nonpayable",
      "type": "function"
    },
    {
      "inputs": [
        {
          "internalType": "bytes4",
          "name": "interfaceId",
          "type": "bytes4"
        }
      ],
      "name": "supportsInterface",
      "outputs": [
        {
          "internalType": "bool",
          "name": "",
          "type": "bool"
        }
      ],
      "stateMutability": "view",
      "type": "function"
    },
    {
      "inputs": [
        {
          "internalType": "address",
          "name": "newOwner",
          "type": "address"
        }
      ],
      "name": "transferOwnership",
      "outputs": [],
      "stateMutability": "nonpayable",
      "type": "function"
    }
  ],
  "bytecode": "0x60a06040523480156200001157600080fd5b5060405162000f4e38038062000f4e833981016040819052620000349162000263565b600080546001600160a01b031916339081178255604051839282917f8be0079c531659141344cd1fd0a4f28419497f9722a3daafe3b4186f6b6457e0908290a35062000093816301f4921160e61b6200010f60201b620005771760201c565b620000ef5760405162461bcd60e51b815260206004820152602260248201527f4d75737420696d706c656d656e7420494552433131353543726561746f72436f604482015261726560f01b606482015260840160405180910390fd5b6001600160a01b0316608052506003805460ff19166001179055620002ea565b60006200011c8362000139565b801562000130575062000130838362000171565b90505b92915050565b60006200014e826301ffc9a760e01b62000171565b80156200013357506200016a826001600160e01b031962000171565b1592915050565b604080516001600160e01b0319831660248083019190915282518083039091018152604490910182526020810180516001600160e01b03166301ffc9a760e01b179052905160009190829081906001600160a01b0387169061753090620001da90869062000295565b6000604051808303818686fa925050503d806000811462000218576040519150601f19603f3d011682016040523d82523d6000602084013e6200021d565b606091505b50915091506020815110156200023a576000935050505062000133565b81801562000259575080806020019051810190620002599190620002c6565b9695505050505050565b6000602082840312156200027657600080fd5b81516001600160a01b03811681146200028e57600080fd5b9392505050565b6000825160005b81811015620002b857602081860181015185830152016200029c565b506000920191825250919050565b600060208284031215620002d957600080fd5b815180151581146200028e57600080fd5b608051610c4862000306600039600061063c0152610c486000f3fe608060405234801561001057600080fd5b506004361061009e5760003560e01c8063715018a611610066578063715018a61461011b5780638da5cb5b14610123578063d9accf921461013e578063f1d4552e1461015f578063f2fde38b1461017257600080fd5b806301ffc9a7146100a357806324d7806c146100cb5780632d345670146100de57806331ae450b146100f35780636d73e66914610108575b600080fd5b6100b66100b136600461093d565b610185565b60405190151581526020015b60405180910390f35b6100b66100d9366004610983565b6101b0565b6100f16100ec366004610983565b6101e9565b005b6100fb610272565b6040516100c2919061099e565b6100f1610116366004610983565b610321565b6100f161039b565b6000546040516001600160a01b0390911681526020016100c2565b6100f161014c3660046109f9565b6003805460ff1916911515919091179055565b6100f161016d366004610a62565b61040f565b6100f1610180366004610983565b61048d565b60006001600160e01b031982166378ea2a9760e11b14806101aa57506101aa8261059a565b92915050565b6000816001600160a01b03166101ce6000546001600160a01b031690565b6001600160a01b031614806101aa57506101aa6001836105cf565b6000546001600160a01b0316331461021c5760405162461bcd60e51b815260040161021390610b0d565b60405180910390fd5b6102276001826105cf565b1561026f5760405133906001600160a01b038316907f7c0c3c84c67c85fcac635147348bfe374c24a1a93d0366d1cfe9d8853cbf89d590600090a361026d6001826105f1565b505b50565b606061027e6001610606565b67ffffffffffffffff81111561029657610296610b42565b6040519080825280602002602001820160405280156102bf578160200160208202803683370190505b50905060005b6102cf6001610606565b81101561031d576102e1600182610610565b8282815181106102f3576102f3610b58565b6001600160a01b03909216602092830291909101909101528061031581610b84565b9150506102c5565b5090565b6000546001600160a01b0316331461034b5760405162461bcd60e51b815260040161021390610b0d565b6103566001826105cf565b61026f5760405133906001600160a01b038316907f7e1a1a08d52e4ba0e21554733d66165fd5151f99460116223d9e3a608eec5cb190600090a361026d60018261061c565b6000546001600160a01b031633146103c55760405162461bcd60e51b815260040161021390610b0d565b600080546040516001600160a01b03909116907f8be0079c531659141344cd1fd0a4f28419497f9722a3daafe3b4186f6b6457e0908390a3600080546001600160a01b0319169055565b61041e87878787878787610631565b60035460ff166104845760405162461bcd60e51b815260206004820152602b60248201527f4d6f636b4552433131353543726561746f724d696e745065726d697373696f6e60448201526a1cce88111a5cd8589b195960aa1b6064820152608401610213565b50505050505050565b6000546001600160a01b031633146104b75760405162461bcd60e51b815260040161021390610b0d565b6001600160a01b03811661051c5760405162461bcd60e51b815260206004820152602660248201527f4f776e61626c653a206e6577206f776e657220697320746865207a65726f206160448201526564647265737360d01b6064820152608401610213565b600080546040516001600160a01b03808516939216917f8be0079c531659141344cd1fd0a4f28419497f9722a3daafe3b4186f6b6457e091a3600080546001600160a01b0319166001600160a01b0392909216919091179055565b6000610582836106b5565b8015610593575061059383836106e8565b9392505050565b60006001600160e01b03198216632a9f3abf60e11b14806101aa57506301ffc9a760e01b6001600160e01b03198316146101aa565b6001600160a01b03811660009081526001830160205260408120541515610593565b6000610593836001600160a01b0384166107d1565b60006101aa825490565b600061059383836108c4565b6000610593836001600160a01b0384166108ee565b336001600160a01b037f000000000000000000000000000000000000000000000000000000000000000016146104845760405162461bcd60e51b815260206004820152602360248201527f43616e206f6e6c792062652063616c6c656420627920746f6b656e20637265616044820152623a37b960e91b6064820152608401610213565b60006106c8826301ffc9a760e01b6106e8565b80156101aa57506106e1826001600160e01b03196106e8565b1592915050565b604080516001600160e01b0319831660248083019190915282518083039091018152604490910182526020810180516001600160e01b03166301ffc9a760e01b179052905160009190829081906001600160a01b038716906175309061074f908690610b9d565b6000604051808303818686fa925050503d806000811461078b576040519150601f19603f3d011682016040523d82523d6000602084013e610790565b606091505b50915091506020815110156107ab57600093505050506101aa565b8180156107c75750808060200190518101906107c79190610bcc565b9695505050505050565b600081815260018301602052604081205480156108ba5760006107f5600183610be9565b855490915060009061080990600190610be9565b905081811461086e57600086600001828154811061082957610829610b58565b906000526020600020015490508087600001848154811061084c5761084c610b58565b6000918252602080832090910192909255918252600188019052604090208390555b855486908061087f5761087f610bfc565b6001900381819060005260206000200160009055905585600101600086815260200190815260200160002060009055600193505050506101aa565b60009150506101aa565b60008260000182815481106108db576108db610b58565b9060005260206000200154905092915050565b6000818152600183016020526040812054610935575081546001818101845560008481526020808220909301849055845484825282860190935260409020919091556101aa565b5060006101aa565b60006020828403121561094f57600080fd5b81356001600160e01b03198116811461059357600080fd5b80356001600160a01b038116811461097e57600080fd5b919050565b60006020828403121561099557600080fd5b61059382610967565b6020808252825182820181905260009190848201906040850190845b818110156109df5783516001600160a01b0316835292840192918401916001016109ba565b50909695505050505050565b801515811461026f57600080fd5b600060208284031215610a0b57600080fd5b8135610593816109eb565b60008083601f840112610a2857600080fd5b50813567ffffffffffffffff811115610a4057600080fd5b6020830191508360208260051b8501011115610a5b57600080fd5b9250929050565b60008060008060008060006080888a031215610a7d57600080fd5b610a8688610967565b9650602088013567ffffffffffffffff80821115610aa357600080fd5b610aaf8b838c01610a16565b909850965060408a0135915080821115610ac857600080fd5b610ad48b838c01610a16565b909650945060608a0135915080821115610aed57600080fd5b50610afa8a828b01610a16565b989b979a50959850939692959293505050565b6020808252818101527f4f776e61626c653a2063616c6c6572206973206e6f7420746865206f776e6572604082015260600190565b634e487b7160e01b600052604160045260246000fd5b634e487b7160e01b600052603260045260246000fd5b634e487b7160e01b600052601160045260246000fd5b600060018201610b9657610b96610b6e565b5060010190565b6000825160005b81811015610bbe5760208186018101518583015201610ba4565b506000920191825250919050565b600060208284031215610bde57600080fd5b8151610593816109eb565b818103818111156101aa576101aa610b6e565b634e487b7160e01b600052603160045260246000fdfea26469706673582212208805de6ac044cf9c556dc4dd2ce34585bed0b12a490eeee42292810c9933861464736f6c63430008110033",
  "linkReferences": {},
  "deployedLinkReferences": {}
}