{
  "_format": "hh-sol-artifact-1",
  "contractName": "MockERC1155CreatorExtensionOverride",
  "sourceName": "contracts/manifold/creator-core/mocks/MockERC1155CreatorExtensionOverride.sol",
  "abi": [
    {
      "inputs": [
        {
          "internalType": "address",
          "name": "creator",
          "type": "address"
        }
      ],
      "stateMutability": "nonpayable",
      "type": "constructor"
    },
    {
      "anonymous": false,
      "inputs": [
        {
          "indexed": true,
          "internalType": "address",
          "name": "account",
          "type": "address"
        },
        {
          "indexed": true,
          "internalType": "address",
          "name": "sender",
          "type": "address"
        }
      ],
      "name": "AdminApproved",
      "type": "event"
    },
    {
      "anonymous": false,
      "inputs": [
        {
          "indexed": true,
          "internalType": "address",
          "name": "account",
          "type": "address"
        },
        {
          "indexed": true,
          "internalType": "address",
          "name": "sender",
          "type": "address"
        }
      ],
      "name": "AdminRevoked",
      "type": "event"
    },
    {
      "anonymous": false,
      "inputs": [
        {
          "indexed": true,
          "internalType": "address",
          "name": "previousOwner",
          "type": "address"
        },
        {
          "indexed": true,
          "internalType": "address",
          "name": "newOwner",
          "type": "address"
        }
      ],
      "name": "OwnershipTransferred",
      "type": "event"
    },
    {
      "inputs": [
        {
          "internalType": "address",
          "name": "admin",
          "type": "address"
        }
      ],
      "name": "approveAdmin",
      "outputs": [],
      "stateMutability": "nonpayable",
      "type": "function"
    },
    {
      "inputs": [
        {
          "internalType": "address",
          "name": "",
          "type": "address"
        },
        {
          "internalType": "address",
          "name": "",
          "type": "address"
        },
        {
          "internalType": "uint256[]",
          "name": "",
          "type": "uint256[]"
        },
        {
          "internalType": "uint256[]",
          "name": "",
          "type": "uint256[]"
        }
      ],
      "name": "approveTransfer",
      "outputs": [
        {
          "internalType": "bool",
          "name": "",
          "type": "bool"
        }
      ],
      "stateMutability": "view",
      "type": "function"
    },
    {
      "inputs": [],
      "name": "getAdmins",
      "outputs": [
        {
          "internalType": "address[]",
          "name": "admins",
          "type": "address[]"
        }
      ],
      "stateMutability": "view",
      "type": "function"
    },
    {
      "inputs": [
        {
          "internalType": "address",
          "name": "admin",
          "type": "address"
        }
      ],
      "name": "isAdmin",
      "outputs": [
        {
          "internalType": "bool",
          "name": "",
          "type": "bool"
        }
      ],
      "stateMutability": "view",
      "type": "function"
    },
    {
      "inputs": [],
      "name": "owner",
      "outputs": [
        {
          "internalType": "address",
          "name": "",
          "type": "address"
        }
      ],
      "stateMutability": "view",
      "type": "function"
    },
    {
      "inputs": [],
      "name": "renounceOwnership",
      "outputs": [],
      "stateMutability": "nonpayable",
      "type": "function"
    },
    {
      "inputs": [
        {
          "internalType": "address",
          "name": "admin",
          "type": "address"
        }
      ],
      "name": "revokeAdmin",
      "outputs": [],
      "stateMutability": "nonpayable",
      "type": "function"
    },
    {
      "inputs": [
        {
          "internalType": "bool",
          "name": "enabled",
          "type": "bool"
        }
      ],
      "name": "setApproveEnabled",
      "outputs": [],
      "stateMutability": "nonpayable",
      "type": "function"
    },
    {
      "inputs": [
        {
          "internalType": "address",
          "name": "creator",
          "type": "address"
        },
        {
          "internalType": "bool",
          "name": "enabled",
          "type": "bool"
        }
      ],
      "name": "setApproveTransfer",
      "outputs": [],
      "stateMutability": "nonpayable",
      "type": "function"
    },
    {
      "inputs": [
        {
          "internalType": "string",
          "name": "uri",
          "type": "string"
        }
      ],
      "name": "setTokenURI",
      "outputs": [],
      "stateMutability": "nonpayable",
      "type": "function"
    },
    {
      "inputs": [
        {
          "internalType": "bytes4",
          "name": "interfaceId",
          "type": "bytes4"
        }
      ],
      "name": "supportsInterface",
      "outputs": [
        {
          "internalType": "bool",
          "name": "",
          "type": "bool"
        }
      ],
      "stateMutability": "view",
      "type": "function"
    },
    {
      "inputs": [
        {
          "internalType": "address[]",
          "name": "to",
          "type": "address[]"
        },
        {
          "internalType": "uint256[]",
          "name": "amounts",
          "type": "uint256[]"
        },
        {
          "internalType": "string[]",
          "name": "uris",
          "type": "string[]"
        }
      ],
      "name": "testMintNew",
      "outputs": [],
      "stateMutability": "nonpayable",
      "type": "function"
    },
    {
      "inputs": [
        {
          "internalType": "address",
          "name": "creator",
          "type": "address"
        },
        {
          "internalType": "uint256",
          "name": "",
          "type": "uint256"
        }
      ],
      "name": "tokenURI",
      "outputs": [
        {
          "internalType": "string",
          "name": "",
          "type": "string"
        }
      ],
      "stateMutability": "view",
      "type": "function"
    },
    {
      "inputs": [
        {
          "internalType": "address",
          "name": "newOwner",
          "type": "address"
        }
      ],
      "name": "transferOwnership",
      "outputs": [],
      "stateMutability": "nonpayable",
      "type": "function"
    }
  ],
  "bytecode": "0x608060405234801561001057600080fd5b5060405161147d38038061147d83398101604081905261002f91610095565b600080546001600160a01b031916339081178255604051909182917f8be0079c531659141344cd1fd0a4f28419497f9722a3daafe3b4186f6b6457e0908290a350600580546001600160a01b0319166001600160a01b03929092169190911790556100c5565b6000602082840312156100a757600080fd5b81516001600160a01b03811681146100be57600080fd5b9392505050565b6113a9806100d46000396000f3fe608060405234801561001057600080fd5b50600436106100ea5760003560e01c8063715018a61161008c578063d9accf9211610066578063d9accf92146101ce578063e0df5b6f146101ef578063e9dc637514610202578063f2fde38b1461022257600080fd5b8063715018a61461018d578063883da933146101955780638da5cb5b146101b357600080fd5b80632d345670116100c85780632d3456701461013f57806331ae450b146101525780634aec8cc5146101675780636d73e6691461017a57600080fd5b806301ffc9a7146100ef5780631b95a2271461011757806324d7806c1461012c575b600080fd5b6101026100fd366004610bd6565b610235565b60405190151581526020015b60405180910390f35b61012a610125366004610c2a565b610260565b005b61010261013a366004610c61565b6103ba565b61012a61014d366004610c61565b6103f3565b61015a610473565b60405161010e9190610c7c565b61012a610175366004610d15565b610522565b61012a610188366004610c61565b6105ac565b61012a610626565b6101026101a3366004610daf565b60035460ff169695505050505050565b6000546040516001600160a01b03909116815260200161010e565b61012a6101dc366004610e21565b6003805460ff1916911515919091179055565b61012a6101fd366004610e3e565b61069a565b610215610210366004610eb0565b6106ac565b60405161010e9190610efe565b61012a610230366004610c61565b610789565b60006001600160e01b0319821663e9dc637560e01b148061025a575061025a82610873565b92915050565b336102736000546001600160a01b031690565b6001600160a01b0316148061028e575061028e600133610898565b6102eb5760405162461bcd60e51b8152602060048201526024808201527f41646d696e436f6e74726f6c3a204d757374206265206f776e6572206f7220616044820152633236b4b760e11b60648201526084015b60405180910390fd5b6102fc826301f4921160e61b6108bd565b61035b5760405162461bcd60e51b815260206004820152602a60248201527f63726561746f72206d75737420696d706c656d656e7420494552433131353543604482015269726561746f72436f726560b01b60648201526084016102e2565b604051635606467d60e11b815281151560048201526001600160a01b0383169063ac0c8cfa90602401600060405180830381600087803b15801561039e57600080fd5b505af11580156103b2573d6000803e3d6000fd5b505050505050565b6000816001600160a01b03166103d86000546001600160a01b031690565b6001600160a01b0316148061025a575061025a600183610898565b6000546001600160a01b0316331461041d5760405162461bcd60e51b81526004016102e290610f31565b610428600182610898565b156104705760405133906001600160a01b038316907f7c0c3c84c67c85fcac635147348bfe374c24a1a93d0366d1cfe9d8853cbf89d590600090a361046e6001826108d9565b505b50565b606061047f60016108ee565b67ffffffffffffffff81111561049757610497610f66565b6040519080825280602002602001820160405280156104c0578160200160208202803683370190505b50905060005b6104d060016108ee565b81101561051e576104e26001826108f8565b8282815181106104f4576104f4610f7c565b6001600160a01b03909216602092830291909101909101528061051681610fa8565b9150506104c6565b5090565b600554604051634637423960e11b81526001600160a01b0390911690638c6e84729061055c9089908990899089908990899060040161107c565b6000604051808303816000875af115801561057b573d6000803e3d6000fd5b505050506040513d6000823e601f3d908101601f191682016040526105a39190810190611112565b50505050505050565b6000546001600160a01b031633146105d65760405162461bcd60e51b81526004016102e290610f31565b6105e1600182610898565b6104705760405133906001600160a01b038316907f7e1a1a08d52e4ba0e21554733d66165fd5151f99460116223d9e3a608eec5cb190600090a361046e600182610904565b6000546001600160a01b031633146106505760405162461bcd60e51b81526004016102e290610f31565b600080546040516001600160a01b03909116907f8be0079c531659141344cd1fd0a4f28419497f9722a3daafe3b4186f6b6457e0908390a3600080546001600160a01b0319169055565b60046106a7828483611250565b505050565b6005546060906001600160a01b038481169116146106f65760405162461bcd60e51b8152602060048201526007602482015266125b9d985b1a5960ca1b60448201526064016102e2565b60048054610703906111d0565b80601f016020809104026020016040519081016040528092919081815260200182805461072f906111d0565b801561077c5780601f106107515761010080835404028352916020019161077c565b820191906000526020600020905b81548152906001019060200180831161075f57829003601f168201915b5050505050905092915050565b6000546001600160a01b031633146107b35760405162461bcd60e51b81526004016102e290610f31565b6001600160a01b0381166108185760405162461bcd60e51b815260206004820152602660248201527f4f776e61626c653a206e6577206f776e657220697320746865207a65726f206160448201526564647265737360d01b60648201526084016102e2565b600080546040516001600160a01b03808516939216917f8be0079c531659141344cd1fd0a4f28419497f9722a3daafe3b4186f6b6457e091a3600080546001600160a01b0319166001600160a01b0392909216919091179055565b60006001600160e01b031982166324ea02c560e21b148061025a575061025a82610919565b6001600160a01b038116600090815260018301602052604081205415155b9392505050565b60006108c88361094e565b80156108b657506108b68383610981565b60006108b6836001600160a01b038416610a6a565b600061025a825490565b60006108b68383610b5d565b60006108b6836001600160a01b038416610b87565b60006001600160e01b03198216632a9f3abf60e11b148061025a57506301ffc9a760e01b6001600160e01b031983161461025a565b6000610961826301ffc9a760e01b610981565b801561025a575061097a826001600160e01b0319610981565b1592915050565b604080516001600160e01b0319831660248083019190915282518083039091018152604490910182526020810180516001600160e01b03166301ffc9a760e01b179052905160009190829081906001600160a01b03871690617530906109e8908690611311565b6000604051808303818686fa925050503d8060008114610a24576040519150601f19603f3d011682016040523d82523d6000602084013e610a29565b606091505b5091509150602081511015610a44576000935050505061025a565b818015610a60575080806020019051810190610a60919061132d565b9695505050505050565b60008181526001830160205260408120548015610b53576000610a8e60018361134a565b8554909150600090610aa29060019061134a565b9050818114610b07576000866000018281548110610ac257610ac2610f7c565b9060005260206000200154905080876000018481548110610ae557610ae5610f7c565b6000918252602080832090910192909255918252600188019052604090208390555b8554869080610b1857610b1861135d565b60019003818190600052602060002001600090559055856001016000868152602001908152602001600020600090556001935050505061025a565b600091505061025a565b6000826000018281548110610b7457610b74610f7c565b9060005260206000200154905092915050565b6000818152600183016020526040812054610bce5750815460018181018455600084815260208082209093018490558454848252828601909352604090209190915561025a565b50600061025a565b600060208284031215610be857600080fd5b81356001600160e01b0319811681146108b657600080fd5b80356001600160a01b0381168114610c1757600080fd5b919050565b801515811461047057600080fd5b60008060408385031215610c3d57600080fd5b610c4683610c00565b91506020830135610c5681610c1c565b809150509250929050565b600060208284031215610c7357600080fd5b6108b682610c00565b6020808252825182820181905260009190848201906040850190845b81811015610cbd5783516001600160a01b031683529284019291840191600101610c98565b50909695505050505050565b60008083601f840112610cdb57600080fd5b50813567ffffffffffffffff811115610cf357600080fd5b6020830191508360208260051b8501011115610d0e57600080fd5b9250929050565b60008060008060008060608789031215610d2e57600080fd5b863567ffffffffffffffff80821115610d4657600080fd5b610d528a838b01610cc9565b90985096506020890135915080821115610d6b57600080fd5b610d778a838b01610cc9565b90965094506040890135915080821115610d9057600080fd5b50610d9d89828a01610cc9565b979a9699509497509295939492505050565b60008060008060008060808789031215610dc857600080fd5b610dd187610c00565b9550610ddf60208801610c00565b9450604087013567ffffffffffffffff80821115610dfc57600080fd5b610e088a838b01610cc9565b90965094506060890135915080821115610d9057600080fd5b600060208284031215610e3357600080fd5b81356108b681610c1c565b60008060208385031215610e5157600080fd5b823567ffffffffffffffff80821115610e6957600080fd5b818501915085601f830112610e7d57600080fd5b813581811115610e8c57600080fd5b866020828501011115610e9e57600080fd5b60209290920196919550909350505050565b60008060408385031215610ec357600080fd5b610ecc83610c00565b946020939093013593505050565b60005b83811015610ef5578181015183820152602001610edd565b50506000910152565b6020815260008251806020840152610f1d816040850160208701610eda565b601f01601f19169190910160400192915050565b6020808252818101527f4f776e61626c653a2063616c6c6572206973206e6f7420746865206f776e6572604082015260600190565b634e487b7160e01b600052604160045260246000fd5b634e487b7160e01b600052603260045260246000fd5b634e487b7160e01b600052601160045260246000fd5b600060018201610fba57610fba610f92565b5060010190565b81835281816020850137506000828201602090810191909152601f909101601f19169091010190565b81835260006020808501808196508560051b810191508460005b8781101561106f5782840389528135601e1988360301811261102557600080fd5b8701858101903567ffffffffffffffff81111561104157600080fd5b80360382131561105057600080fd5b61105b868284610fc1565b9a87019a9550505090840190600101611004565b5091979650505050505050565b6060808252810186905260008760808301825b898110156110bd576001600160a01b036110a884610c00565b1682526020928301929091019060010161108f565b5083810360208501528681526001600160fb1b038711156110dd57600080fd5b8660051b91508188602083013701828103602090810160408501526111059082018587610fea565b9998505050505050505050565b6000602080838503121561112557600080fd5b825167ffffffffffffffff8082111561113d57600080fd5b818501915085601f83011261115157600080fd5b81518181111561116357611163610f66565b8060051b604051601f19603f8301168101818110858211171561118857611188610f66565b6040529182528482019250838101850191888311156111a657600080fd5b938501935b828510156111c4578451845293850193928501926111ab565b98975050505050505050565b600181811c908216806111e457607f821691505b60208210810361120457634e487b7160e01b600052602260045260246000fd5b50919050565b601f8211156106a757600081815260208120601f850160051c810160208610156112315750805b601f850160051c820191505b818110156103b25782815560010161123d565b67ffffffffffffffff83111561126857611268610f66565b61127c8361127683546111d0565b8361120a565b6000601f8411600181146112b057600085156112985750838201355b600019600387901b1c1916600186901b17835561130a565b600083815260209020601f19861690835b828110156112e157868501358255602094850194600190920191016112c1565b50868210156112fe5760001960f88860031b161c19848701351681555b505060018560011b0183555b5050505050565b60008251611323818460208701610eda565b9190910192915050565b60006020828403121561133f57600080fd5b81516108b681610c1c565b8181038181111561025a5761025a610f92565b634e487b7160e01b600052603160045260246000fdfea26469706673582212204ac6921c59c2010f1d9a629eb2f2e14eea58c636b9d7814ac914bdb568bb4ce464736f6c63430008110033",
  "linkReferences": {},
  "deployedLinkReferences": {}
}