{
  "_format": "hh-sol-artifact-1",
  "contractName": "EIP2981RoyaltyOverrideCloneable",
  "sourceName": "contracts/manifold/royalty-registry/overrides/RoyaltyOverrideCloneable.sol",
  "abi": [
    {
      "anonymous": false,
      "inputs": [
        {
          "indexed": false,
          "internalType": "address",
          "name": "recipient",
          "type": "address"
        },
        {
          "indexed": false,
          "internalType": "uint16",
          "name": "bps",
          "type": "uint16"
        }
      ],
      "name": "DefaultRoyaltySet",
      "type": "event"
    },
    {
      "anonymous": false,
      "inputs": [
        {
          "indexed": true,
          "internalType": "address",
          "name": "previousOwner",
          "type": "address"
        },
        {
          "indexed": true,
          "internalType": "address",
          "name": "newOwner",
          "type": "address"
        }
      ],
      "name": "OwnershipTransferred",
      "type": "event"
    },
    {
      "anonymous": false,
      "inputs": [
        {
          "indexed": false,
          "internalType": "uint256",
          "name": "tokenId",
          "type": "uint256"
        }
      ],
      "name": "TokenRoyaltyRemoved",
      "type": "event"
    },
    {
      "anonymous": false,
      "inputs": [
        {
          "indexed": false,
          "internalType": "uint256",
          "name": "tokenId",
          "type": "uint256"
        },
        {
          "indexed": false,
          "internalType": "address",
          "name": "recipient",
          "type": "address"
        },
        {
          "indexed": false,
          "internalType": "uint16",
          "name": "bps",
          "type": "uint16"
        }
      ],
      "name": "TokenRoyaltySet",
      "type": "event"
    },
    {
      "inputs": [],
      "name": "defaultRoyalty",
      "outputs": [
        {
          "internalType": "address",
          "name": "recipient",
          "type": "address"
        },
        {
          "internalType": "uint16",
          "name": "bps",
          "type": "uint16"
        }
      ],
      "stateMutability": "view",
      "type": "function"
    },
    {
      "inputs": [],
      "name": "getTokenRoyaltiesCount",
      "outputs": [
        {
          "internalType": "uint256",
          "name": "",
          "type": "uint256"
        }
      ],
      "stateMutability": "view",
      "type": "function"
    },
    {
      "inputs": [
        {
          "internalType": "uint256",
          "name": "index",
          "type": "uint256"
        }
      ],
      "name": "getTokenRoyaltyByIndex",
      "outputs": [
        {
          "components": [
            {
              "internalType": "uint256",
              "name": "tokenId",
              "type": "uint256"
            },
            {
              "internalType": "address",
              "name": "recipient",
              "type": "address"
            },
            {
              "internalType": "uint16",
              "name": "bps",
              "type": "uint16"
            }
          ],
          "internalType": "struct IEIP2981RoyaltyOverride.TokenRoyaltyConfig",
          "name": "",
          "type": "tuple"
        }
      ],
      "stateMutability": "view",
      "type": "function"
    },
    {
      "inputs": [],
      "name": "initialize",
      "outputs": [],
      "stateMutability": "nonpayable",
      "type": "function"
    },
    {
      "inputs": [],
      "name": "owner",
      "outputs": [
        {
          "internalType": "address",
          "name": "",
          "type": "address"
        }
      ],
      "stateMutability": "view",
      "type": "function"
    },
    {
      "inputs": [],
      "name": "renounceOwnership",
      "outputs": [],
      "stateMutability": "nonpayable",
      "type": "function"
    },
    {
      "inputs": [
        {
          "internalType": "uint256",
          "name": "tokenId",
          "type": "uint256"
        },
        {
          "internalType": "uint256",
          "name": "value",
          "type": "uint256"
        }
      ],
      "name": "royaltyInfo",
      "outputs": [
        {
          "internalType": "address",
          "name": "",
          "type": "address"
        },
        {
          "internalType": "uint256",
          "name": "",
          "type": "uint256"
        }
      ],
      "stateMutability": "view",
      "type": "function"
    },
    {
      "inputs": [
        {
          "components": [
            {
              "internalType": "address",
              "name": "recipient",
              "type": "address"
            },
            {
              "internalType": "uint16",
              "name": "bps",
              "type": "uint16"
            }
          ],
          "internalType": "struct IEIP2981RoyaltyOverride.TokenRoyalty",
          "name": "royalty",
          "type": "tuple"
        }
      ],
      "name": "setDefaultRoyalty",
      "outputs": [],
      "stateMutability": "nonpayable",
      "type": "function"
    },
    {
      "inputs": [
        {
          "components": [
            {
              "internalType": "uint256",
              "name": "tokenId",
              "type": "uint256"
            },
            {
              "internalType": "address",
              "name": "recipient",
              "type": "address"
            },
            {
              "internalType": "uint16",
              "name": "bps",
              "type": "uint16"
            }
          ],
          "internalType": "struct IEIP2981RoyaltyOverride.TokenRoyaltyConfig[]",
          "name": "royaltyConfigs",
          "type": "tuple[]"
        }
      ],
      "name": "setTokenRoyalties",
      "outputs": [],
      "stateMutability": "nonpayable",
      "type": "function"
    },
    {
      "inputs": [
        {
          "internalType": "bytes4",
          "name": "interfaceId",
          "type": "bytes4"
        }
      ],
      "name": "supportsInterface",
      "outputs": [
        {
          "internalType": "bool",
          "name": "",
          "type": "bool"
        }
      ],
      "stateMutability": "view",
      "type": "function"
    },
    {
      "inputs": [
        {
          "internalType": "address",
          "name": "newOwner",
          "type": "address"
        }
      ],
      "name": "transferOwnership",
      "outputs": [],
      "stateMutability": "nonpayable",
      "type": "function"
    }
  ],
  "bytecode": "0x608060405234801561001057600080fd5b50610f0d806100206000396000f3fe608060405234801561001057600080fd5b50600436106100a95760003560e01c80637885fdc7116100715780637885fdc7146101675780637e980342146101a95780638129fc1c146101bf5780638da5cb5b146101c7578063ef60ceaf146101e2578063f2fde38b146101f557600080fd5b806301ffc9a7146100ae5780630653aca5146100d65780632a55205a146101185780635136dcc71461014a578063715018a61461015f575b600080fd5b6100c16100bc366004610b96565b610208565b60405190151581526020015b60405180910390f35b6100e96100e4366004610bc0565b61025a565b60408051825181526020808401516001600160a01b0316908201529181015161ffff16908201526060016100cd565b61012b610126366004610bd9565b6102df565b604080516001600160a01b0390931683526020830191909152016100cd565b61015d610158366004610bfb565b6103a4565b005b61015d610436565b600054610187906001600160a01b03811690600160a01b900461ffff1682565b604080516001600160a01b03909316835261ffff9091166020830152016100cd565b6101b161046c565b6040519081526020016100cd565b61015d61047d565b6037546040516001600160a01b0390911681526020016100cd565b61015d6101f0366004610c70565b6104f1565b61015d610203366004610ca4565b610532565b60006001600160e01b0319821663152a902d60e11b148061023957506001600160e01b0319821663c69dbd8f60e01b145b8061025457506301ffc9a760e01b6001600160e01b03198316145b92915050565b60408051606081018252600080825260208201819052918101829052906102826002846105ca565b6000818152600160209081526040918290208251808401845290546001600160a01b03808216835261ffff600160a01b90920482168385019081528551606081018752968752925116928501929092525116908201529392505050565b60008281526001602052604081205481906001600160a01b031615610344576000848152600160205260409020546001600160a01b038116906127109061033190600160a01b900461ffff1686610cd5565b61033b9190610cec565b9150915061039d565b6000546001600160a01b03161580159061036a5750600054600160a01b900461ffff1615155b15610396576000546001600160a01b038116906127109061033190600160a01b900461ffff1686610cd5565b5060009050805b9250929050565b6037546001600160a01b031633146103d75760405162461bcd60e51b81526004016103ce90610d0e565b60405180910390fd5b6104328282808060200260200160405190810160405280939291908181526020016000905b828210156104285761041960608302860136819003810190610d55565b815260200190600101906103fc565b50505050506105dd565b5050565b6037546001600160a01b031633146104605760405162461bcd60e51b81526004016103ce90610d0e565b61046a60006107a2565b565b600061047860026107f4565b905090565b600454610100900460ff1680610496575060045460ff16155b6104b25760405162461bcd60e51b81526004016103ce90610dc8565b600454610100900460ff161580156104d4576004805461ffff19166101011790555b6104dc6107fe565b80156104ee576004805461ff00191690555b50565b6037546001600160a01b0316331461051b5760405162461bcd60e51b81526004016103ce90610d0e565b6104ee61052d36839003830183610e16565b610865565b6037546001600160a01b0316331461055c5760405162461bcd60e51b81526004016103ce90610d0e565b6001600160a01b0381166105c15760405162461bcd60e51b815260206004820152602660248201527f4f776e61626c653a206e6577206f776e657220697320746865207a65726f206160448201526564647265737360d01b60648201526084016103ce565b6104ee816107a2565b60006105d68383610948565b9392505050565b60005b81518110156104325760008282815181106105fd576105fd610e7f565b60200260200101519050612710816040015161ffff161061064e5760405162461bcd60e51b815260206004820152600b60248201526a496e76616c69642062707360a81b60448201526064016103ce565b60208101516001600160a01b03166106c7578051600090815260016020526040902080546001600160b01b0319169055805161068c90600290610972565b5080516040519081527fa2870857763bd9ae76c957f869f16b31c18dd3bb4c7b4d3a4496dc5c57c657f99060200160405180910390a161078f565b6040805180820182526020808401516001600160a01b0390811683528484015161ffff90811683850190815286516000908152600190945294909220925183549451909216600160a01b026001600160b01b031990941691161791909117905580516107359060029061097e565b50805160208083015160408085015181519485526001600160a01b039092169284019290925261ffff1682820152517f389b70fb0887f01e83784eb1c4c589f740eca53b00ed0f45e41db5d079719abb9181900360600190a15b508061079a81610e95565b9150506105e0565b603780546001600160a01b038381166001600160a01b0319831681179093556040519116919082907f8be0079c531659141344cd1fd0a4f28419497f9722a3daafe3b4186f6b6457e090600090a35050565b6000610254825490565b600454610100900460ff1680610817575060045460ff16155b6108335760405162461bcd60e51b81526004016103ce90610dc8565b600454610100900460ff16158015610855576004805461ffff19166101011790555b61085d61098a565b6104dc6109f4565b612710816020015161ffff16106108ac5760405162461bcd60e51b815260206004820152600b60248201526a496e76616c69642062707360a81b60448201526064016103ce565b60408051808201825282516001600160a01b03168082526020808501805161ffff169190930181905260008054600160a01b9092026001600160b01b03199092169092171790558251905191517f2c5ea6e4103e78cb101e796fb2dace540362fc542cbff5145eaa24af7dd8fe419261093d92916001600160a01b0392909216825261ffff16602082015260400190565b60405180910390a150565b600082600001828154811061095f5761095f610e7f565b9060005260206000200154905092915050565b60006105d68383610a54565b60006105d68383610b47565b600454610100900460ff16806109a3575060045460ff16155b6109bf5760405162461bcd60e51b81526004016103ce90610dc8565b600454610100900460ff161580156104dc576004805461ffff191661010117905580156104ee576004805461ff001916905550565b600454610100900460ff1680610a0d575060045460ff16155b610a295760405162461bcd60e51b81526004016103ce90610dc8565b600454610100900460ff16158015610a4b576004805461ffff19166101011790555b6104dc336107a2565b60008181526001830160205260408120548015610b3d576000610a78600183610eae565b8554909150600090610a8c90600190610eae565b9050818114610af1576000866000018281548110610aac57610aac610e7f565b9060005260206000200154905080876000018481548110610acf57610acf610e7f565b6000918252602080832090910192909255918252600188019052604090208390555b8554869080610b0257610b02610ec1565b600190038181906000526020600020016000905590558560010160008681526020019081526020016000206000905560019350505050610254565b6000915050610254565b6000818152600183016020526040812054610b8e57508154600181810184556000848152602080822090930184905584548482528286019093526040902091909155610254565b506000610254565b600060208284031215610ba857600080fd5b81356001600160e01b0319811681146105d657600080fd5b600060208284031215610bd257600080fd5b5035919050565b60008060408385031215610bec57600080fd5b50508035926020909101359150565b60008060208385031215610c0e57600080fd5b823567ffffffffffffffff80821115610c2657600080fd5b818501915085601f830112610c3a57600080fd5b813581811115610c4957600080fd5b866020606083028501011115610c5e57600080fd5b60209290920196919550909350505050565b600060408284031215610c8257600080fd5b50919050565b80356001600160a01b0381168114610c9f57600080fd5b919050565b600060208284031215610cb657600080fd5b6105d682610c88565b634e487b7160e01b600052601160045260246000fd5b808202811582820484141761025457610254610cbf565b600082610d0957634e487b7160e01b600052601260045260246000fd5b500490565b6020808252818101527f4f776e61626c653a2063616c6c6572206973206e6f7420746865206f776e6572604082015260600190565b803561ffff81168114610c9f57600080fd5b600060608284031215610d6757600080fd5b6040516060810181811067ffffffffffffffff82111715610d9857634e487b7160e01b600052604160045260246000fd5b60405282358152610dab60208401610c88565b6020820152610dbc60408401610d43565b60408201529392505050565b6020808252602e908201527f496e697469616c697a61626c653a20636f6e747261637420697320616c72656160408201526d191e481a5b9a5d1a585b1a5e995960921b606082015260800190565b600060408284031215610e2857600080fd5b6040516040810181811067ffffffffffffffff82111715610e5957634e487b7160e01b600052604160045260246000fd5b604052610e6583610c88565b8152610e7360208401610d43565b60208201529392505050565b634e487b7160e01b600052603260045260246000fd5b600060018201610ea757610ea7610cbf565b5060010190565b8181038181111561025457610254610cbf565b634e487b7160e01b600052603160045260246000fdfea26469706673582212204cad64881a1ebeae677027502ab5cae5d493b511042c2362d3aa44d32c6762bb64736f6c63430008110033",
  "linkReferences": {},
  "deployedLinkReferences": {}
}