{
  "_format": "hh-sol-artifact-1",
  "contractName": "MockERC721",
  "sourceName": "contracts/manifold/creator-core/mocks/MockERC721.sol",
  "abi": [
    {
      "inputs": [
        {
          "internalType": "string",
          "name": "_name",
          "type": "string"
        },
        {
          "internalType": "string",
          "name": "_symbol",
          "type": "string"
        }
      ],
      "stateMutability": "nonpayable",
      "type": "constructor"
    },
    {
      "anonymous": false,
      "inputs": [
        {
          "indexed": true,
          "internalType": "address",
          "name": "owner",
          "type": "address"
        },
        {
          "indexed": true,
          "internalType": "address",
          "name": "approved",
          "type": "address"
        },
        {
          "indexed": true,
          "internalType": "uint256",
          "name": "tokenId",
          "type": "uint256"
        }
      ],
      "name": "Approval",
      "type": "event"
    },
    {
      "anonymous": false,
      "inputs": [
        {
          "indexed": true,
          "internalType": "address",
          "name": "owner",
          "type": "address"
        },
        {
          "indexed": true,
          "internalType": "address",
          "name": "operator",
          "type": "address"
        },
        {
          "indexed": false,
          "internalType": "bool",
          "name": "approved",
          "type": "bool"
        }
      ],
      "name": "ApprovalForAll",
      "type": "event"
    },
    {
      "anonymous": false,
      "inputs": [
        {
          "indexed": true,
          "internalType": "address",
          "name": "from",
          "type": "address"
        },
        {
          "indexed": true,
          "internalType": "address",
          "name": "to",
          "type": "address"
        },
        {
          "indexed": true,
          "internalType": "uint256",
          "name": "tokenId",
          "type": "uint256"
        }
      ],
      "name": "Transfer",
      "type": "event"
    },
    {
      "inputs": [
        {
          "internalType": "address",
          "name": "to",
          "type": "address"
        },
        {
          "internalType": "uint256",
          "name": "tokenId",
          "type": "uint256"
        }
      ],
      "name": "approve",
      "outputs": [],
      "stateMutability": "nonpayable",
      "type": "function"
    },
    {
      "inputs": [
        {
          "internalType": "address",
          "name": "owner",
          "type": "address"
        }
      ],
      "name": "balanceOf",
      "outputs": [
        {
          "internalType": "uint256",
          "name": "",
          "type": "uint256"
        }
      ],
      "stateMutability": "view",
      "type": "function"
    },
    {
      "inputs": [
        {
          "internalType": "uint256",
          "name": "tokenId",
          "type": "uint256"
        }
      ],
      "name": "getApproved",
      "outputs": [
        {
          "internalType": "address",
          "name": "",
          "type": "address"
        }
      ],
      "stateMutability": "view",
      "type": "function"
    },
    {
      "inputs": [
        {
          "internalType": "address",
          "name": "owner",
          "type": "address"
        },
        {
          "internalType": "address",
          "name": "operator",
          "type": "address"
        }
      ],
      "name": "isApprovedForAll",
      "outputs": [
        {
          "internalType": "bool",
          "name": "",
          "type": "bool"
        }
      ],
      "stateMutability": "view",
      "type": "function"
    },
    {
      "inputs": [],
      "name": "name",
      "outputs": [
        {
          "internalType": "string",
          "name": "",
          "type": "string"
        }
      ],
      "stateMutability": "view",
      "type": "function"
    },
    {
      "inputs": [
        {
          "internalType": "uint256",
          "name": "tokenId",
          "type": "uint256"
        }
      ],
      "name": "ownerOf",
      "outputs": [
        {
          "internalType": "address",
          "name": "",
          "type": "address"
        }
      ],
      "stateMutability": "view",
      "type": "function"
    },
    {
      "inputs": [
        {
          "internalType": "address",
          "name": "from",
          "type": "address"
        },
        {
          "internalType": "address",
          "name": "to",
          "type": "address"
        },
        {
          "internalType": "uint256",
          "name": "tokenId",
          "type": "uint256"
        }
      ],
      "name": "safeTransferFrom",
      "outputs": [],
      "stateMutability": "nonpayable",
      "type": "function"
    },
    {
      "inputs": [
        {
          "internalType": "address",
          "name": "from",
          "type": "address"
        },
        {
          "internalType": "address",
          "name": "to",
          "type": "address"
        },
        {
          "internalType": "uint256",
          "name": "tokenId",
          "type": "uint256"
        },
        {
          "internalType": "bytes",
          "name": "_data",
          "type": "bytes"
        }
      ],
      "name": "safeTransferFrom",
      "outputs": [],
      "stateMutability": "nonpayable",
      "type": "function"
    },
    {
      "inputs": [
        {
          "internalType": "address",
          "name": "operator",
          "type": "address"
        },
        {
          "internalType": "bool",
          "name": "approved",
          "type": "bool"
        }
      ],
      "name": "setApprovalForAll",
      "outputs": [],
      "stateMutability": "nonpayable",
      "type": "function"
    },
    {
      "inputs": [
        {
          "internalType": "bytes4",
          "name": "interfaceId",
          "type": "bytes4"
        }
      ],
      "name": "supportsInterface",
      "outputs": [
        {
          "internalType": "bool",
          "name": "",
          "type": "bool"
        }
      ],
      "stateMutability": "view",
      "type": "function"
    },
    {
      "inputs": [],
      "name": "symbol",
      "outputs": [
        {
          "internalType": "string",
          "name": "",
          "type": "string"
        }
      ],
      "stateMutability": "view",
      "type": "function"
    },
    {
      "inputs": [
        {
          "internalType": "address",
          "name": "to",
          "type": "address"
        },
        {
          "internalType": "uint256",
          "name": "tokenId",
          "type": "uint256"
        }
      ],
      "name": "testMint",
      "outputs": [],
      "stateMutability": "nonpayable",
      "type": "function"
    },
    {
      "inputs": [
        {
          "internalType": "uint256",
          "name": "tokenId",
          "type": "uint256"
        }
      ],
      "name": "tokenURI",
      "outputs": [
        {
          "internalType": "string",
          "name": "",
          "type": "string"
        }
      ],
      "stateMutability": "view",
      "type": "function"
    },
    {
      "inputs": [
        {
          "internalType": "address",
          "name": "from",
          "type": "address"
        },
        {
          "internalType": "address",
          "name": "to",
          "type": "address"
        },
        {
          "internalType": "uint256",
          "name": "tokenId",
          "type": "uint256"
        }
      ],
      "name": "transferFrom",
      "outputs": [],
      "stateMutability": "nonpayable",
      "type": "function"
    }
  ],
  "bytecode": "0x60806040523480156200001157600080fd5b506040516200169738038062001697833981016040819052620000349162000123565b818160006200004483826200021c565b5060016200005382826200021c565b5050505050620002e8565b634e487b7160e01b600052604160045260246000fd5b600082601f8301126200008657600080fd5b81516001600160401b0380821115620000a357620000a36200005e565b604051601f8301601f19908116603f01168101908282118183101715620000ce57620000ce6200005e565b81604052838152602092508683858801011115620000eb57600080fd5b600091505b838210156200010f5785820183015181830184015290820190620000f0565b600093810190920192909252949350505050565b600080604083850312156200013757600080fd5b82516001600160401b03808211156200014f57600080fd5b6200015d8683870162000074565b935060208501519150808211156200017457600080fd5b50620001838582860162000074565b9150509250929050565b600181811c90821680620001a257607f821691505b602082108103620001c357634e487b7160e01b600052602260045260246000fd5b50919050565b601f8211156200021757600081815260208120601f850160051c81016020861015620001f25750805b601f850160051c820191505b818110156200021357828155600101620001fe565b5050505b505050565b81516001600160401b038111156200023857620002386200005e565b62000250816200024984546200018d565b84620001c9565b602080601f8311600181146200028857600084156200026f5750858301515b600019600386901b1c1916600185901b17855562000213565b600085815260208120601f198616915b82811015620002b95788860151825594840194600190910190840162000298565b5085821015620002d85787850151600019600388901b60f8161c191681555b5050505050600190811b01905550565b61139f80620002f86000396000f3fe608060405234801561001057600080fd5b50600436106100ea5760003560e01c806370a082311161008c578063b88d4fde11610066578063b88d4fde146101e1578063c87b56dd146101f4578063e985e9c514610207578063f28e093d1461021a57600080fd5b806370a08231146101a557806395d89b41146101c6578063a22cb465146101ce57600080fd5b8063095ea7b3116100c8578063095ea7b31461015757806323b872dd1461016c57806342842e0e1461017f5780636352211e1461019257600080fd5b806301ffc9a7146100ef57806306fdde0314610117578063081812fc1461012c575b600080fd5b6101026100fd366004610ec3565b61022d565b60405190151581526020015b60405180910390f35b61011f61027f565b60405161010e9190610f30565b61013f61013a366004610f43565b610311565b6040516001600160a01b03909116815260200161010e565b61016a610165366004610f78565b6103ab565b005b61016a61017a366004610fa2565b6104c0565b61016a61018d366004610fa2565b6104f1565b61013f6101a0366004610f43565b61050c565b6101b86101b3366004610fde565b610583565b60405190815260200161010e565b61011f61060a565b61016a6101dc366004610ff9565b610619565b61016a6101ef36600461104b565b610628565b61011f610202366004610f43565b610660565b610102610215366004611127565b610748565b61016a610228366004610f78565b610776565b60006001600160e01b031982166380ac58cd60e01b148061025e57506001600160e01b03198216635b5e139f60e01b145b8061027957506301ffc9a760e01b6001600160e01b03198316145b92915050565b60606000805461028e9061115a565b80601f01602080910402602001604051908101604052809291908181526020018280546102ba9061115a565b80156103075780601f106102dc57610100808354040283529160200191610307565b820191906000526020600020905b8154815290600101906020018083116102ea57829003601f168201915b5050505050905090565b6000818152600260205260408120546001600160a01b031661038f5760405162461bcd60e51b815260206004820152602c60248201527f4552433732313a20617070726f76656420717565727920666f72206e6f6e657860448201526b34b9ba32b73a103a37b5b2b760a11b60648201526084015b60405180910390fd5b506000908152600460205260409020546001600160a01b031690565b60006103b68261050c565b9050806001600160a01b0316836001600160a01b0316036104235760405162461bcd60e51b815260206004820152602160248201527f4552433732313a20617070726f76616c20746f2063757272656e74206f776e656044820152603960f91b6064820152608401610386565b336001600160a01b038216148061043f575061043f8133610748565b6104b15760405162461bcd60e51b815260206004820152603860248201527f4552433732313a20617070726f76652063616c6c6572206973206e6f74206f7760448201527f6e6572206e6f7220617070726f76656420666f7220616c6c00000000000000006064820152608401610386565b6104bb8383610780565b505050565b6104ca33826107ee565b6104e65760405162461bcd60e51b815260040161038690611194565b6104bb8383836108c5565b6104bb83838360405180602001604052806000815250610628565b6000818152600260205260408120546001600160a01b0316806102795760405162461bcd60e51b815260206004820152602960248201527f4552433732313a206f776e657220717565727920666f72206e6f6e657869737460448201526832b73a103a37b5b2b760b91b6064820152608401610386565b60006001600160a01b0382166105ee5760405162461bcd60e51b815260206004820152602a60248201527f4552433732313a2062616c616e636520717565727920666f7220746865207a65604482015269726f206164647265737360b01b6064820152608401610386565b506001600160a01b031660009081526003602052604090205490565b60606001805461028e9061115a565b610624338383610a65565b5050565b61063233836107ee565b61064e5760405162461bcd60e51b815260040161038690611194565b61065a84848484610b33565b50505050565b6000818152600260205260409020546060906001600160a01b03166106df5760405162461bcd60e51b815260206004820152602f60248201527f4552433732314d657461646174613a2055524920717565727920666f72206e6f60448201526e3732bc34b9ba32b73a103a37b5b2b760891b6064820152608401610386565b60006106f660408051602081019091526000815290565b905060008151116107165760405180602001604052806000815250610741565b8061072084610b66565b6040516020016107319291906111e5565b6040516020818303038152906040525b9392505050565b6001600160a01b03918216600090815260056020908152604080832093909416825291909152205460ff1690565b6106248282610c67565b600081815260046020526040902080546001600160a01b0319166001600160a01b03841690811790915581906107b58261050c565b6001600160a01b03167f8c5be1e5ebec7d5bd14f71427d1e84f3dd0314c0f7b2291e5b200ac8c7c3b92560405160405180910390a45050565b6000818152600260205260408120546001600160a01b03166108675760405162461bcd60e51b815260206004820152602c60248201527f4552433732313a206f70657261746f7220717565727920666f72206e6f6e657860448201526b34b9ba32b73a103a37b5b2b760a11b6064820152608401610386565b60006108728361050c565b9050806001600160a01b0316846001600160a01b031614806108ad5750836001600160a01b03166108a284610311565b6001600160a01b0316145b806108bd57506108bd8185610748565b949350505050565b826001600160a01b03166108d88261050c565b6001600160a01b0316146109405760405162461bcd60e51b815260206004820152602960248201527f4552433732313a207472616e73666572206f6620746f6b656e2074686174206960448201526839903737ba1037bbb760b91b6064820152608401610386565b6001600160a01b0382166109a25760405162461bcd60e51b8152602060048201526024808201527f4552433732313a207472616e7366657220746f20746865207a65726f206164646044820152637265737360e01b6064820152608401610386565b6109ad600082610780565b6001600160a01b03831660009081526003602052604081208054600192906109d690849061122a565b90915550506001600160a01b0382166000908152600360205260408120805460019290610a0490849061123d565b909155505060008181526002602052604080822080546001600160a01b0319166001600160a01b0386811691821790925591518493918716917fddf252ad1be2c89b69c2b068fc378daa952ba7f163c4a11628f55a4df523b3ef91a4505050565b816001600160a01b0316836001600160a01b031603610ac65760405162461bcd60e51b815260206004820152601960248201527f4552433732313a20617070726f766520746f2063616c6c6572000000000000006044820152606401610386565b6001600160a01b03838116600081815260056020908152604080832094871680845294825291829020805460ff191686151590811790915591519182527f17307eab39ab6107e8899845ad3d59bd9653f200f220920489ca2b5937696c31910160405180910390a3505050565b610b3e8484846108c5565b610b4a84848484610da9565b61065a5760405162461bcd60e51b815260040161038690611250565b606081600003610b8d5750506040805180820190915260018152600360fc1b602082015290565b8160005b8115610bb75780610ba1816112a2565b9150610bb09050600a836112d1565b9150610b91565b60008167ffffffffffffffff811115610bd257610bd2611035565b6040519080825280601f01601f191660200182016040528015610bfc576020820181803683370190505b5090505b84156108bd57610c1160018361122a565b9150610c1e600a866112e5565b610c2990603061123d565b60f81b818381518110610c3e57610c3e6112f9565b60200101906001600160f81b031916908160001a905350610c60600a866112d1565b9450610c00565b6001600160a01b038216610cbd5760405162461bcd60e51b815260206004820181905260248201527f4552433732313a206d696e7420746f20746865207a65726f20616464726573736044820152606401610386565b6000818152600260205260409020546001600160a01b031615610d225760405162461bcd60e51b815260206004820152601c60248201527f4552433732313a20746f6b656e20616c7265616479206d696e746564000000006044820152606401610386565b6001600160a01b0382166000908152600360205260408120805460019290610d4b90849061123d565b909155505060008181526002602052604080822080546001600160a01b0319166001600160a01b03861690811790915590518392907fddf252ad1be2c89b69c2b068fc378daa952ba7f163c4a11628f55a4df523b3ef908290a45050565b60006001600160a01b0384163b15610e9f57604051630a85bd0160e11b81526001600160a01b0385169063150b7a0290610ded90339089908890889060040161130f565b6020604051808303816000875af1925050508015610e28575060408051601f3d908101601f19168201909252610e259181019061134c565b60015b610e85573d808015610e56576040519150601f19603f3d011682016040523d82523d6000602084013e610e5b565b606091505b508051600003610e7d5760405162461bcd60e51b815260040161038690611250565b805181602001fd5b6001600160e01b031916630a85bd0160e11b1490506108bd565b506001949350505050565b6001600160e01b031981168114610ec057600080fd5b50565b600060208284031215610ed557600080fd5b813561074181610eaa565b60005b83811015610efb578181015183820152602001610ee3565b50506000910152565b60008151808452610f1c816020860160208601610ee0565b601f01601f19169290920160200192915050565b6020815260006107416020830184610f04565b600060208284031215610f5557600080fd5b5035919050565b80356001600160a01b0381168114610f7357600080fd5b919050565b60008060408385031215610f8b57600080fd5b610f9483610f5c565b946020939093013593505050565b600080600060608486031215610fb757600080fd5b610fc084610f5c565b9250610fce60208501610f5c565b9150604084013590509250925092565b600060208284031215610ff057600080fd5b61074182610f5c565b6000806040838503121561100c57600080fd5b61101583610f5c565b91506020830135801515811461102a57600080fd5b809150509250929050565b634e487b7160e01b600052604160045260246000fd5b6000806000806080858703121561106157600080fd5b61106a85610f5c565b935061107860208601610f5c565b925060408501359150606085013567ffffffffffffffff8082111561109c57600080fd5b818701915087601f8301126110b057600080fd5b8135818111156110c2576110c2611035565b604051601f8201601f19908116603f011681019083821181831017156110ea576110ea611035565b816040528281528a602084870101111561110357600080fd5b82602086016020830137600060208483010152809550505050505092959194509250565b6000806040838503121561113a57600080fd5b61114383610f5c565b915061115160208401610f5c565b90509250929050565b600181811c9082168061116e57607f821691505b60208210810361118e57634e487b7160e01b600052602260045260246000fd5b50919050565b60208082526031908201527f4552433732313a207472616e736665722063616c6c6572206973206e6f74206f6040820152701ddb995c881b9bdc88185c1c1c9bdd9959607a1b606082015260800190565b600083516111f7818460208801610ee0565b83519083019061120b818360208801610ee0565b01949350505050565b634e487b7160e01b600052601160045260246000fd5b8181038181111561027957610279611214565b8082018082111561027957610279611214565b60208082526032908201527f4552433732313a207472616e7366657220746f206e6f6e20455243373231526560408201527131b2b4bb32b91034b6b83632b6b2b73a32b960711b606082015260800190565b6000600182016112b4576112b4611214565b5060010190565b634e487b7160e01b600052601260045260246000fd5b6000826112e0576112e06112bb565b500490565b6000826112f4576112f46112bb565b500690565b634e487b7160e01b600052603260045260246000fd5b6001600160a01b038581168252841660208201526040810183905260806060820181905260009061134290830184610f04565b9695505050505050565b60006020828403121561135e57600080fd5b815161074181610eaa56fea26469706673582212205b5ac005dc2ad9605d1595dff47658fb461f21c74cb318f6218b6ddca7abe79364736f6c63430008110033",
  "linkReferences": {},
  "deployedLinkReferences": {}
}