{
  "_format": "hh-sol-artifact-1",
  "contractName": "StringsTest",
  "sourceName": "contracts/tests/StringsTest.sol",
  "abi": [
    {
      "inputs": [],
      "stateMutability": "nonpayable",
      "type": "constructor"
    },
    {
      "inputs": [
        {
          "internalType": "string",
          "name": "str",
          "type": "string"
        },
        {
          "internalType": "uint256",
          "name": "num",
          "type": "uint256"
        }
      ],
      "name": "concatStrAndNum",
      "outputs": [
        {
          "internalType": "string",
          "name": "",
          "type": "string"
        }
      ],
      "stateMutability": "view",
      "type": "function"
    },
    {
      "inputs": [
        {
          "internalType": "uint256",
          "name": "num",
          "type": "uint256"
        }
      ],
      "name": "uint2str",
      "outputs": [
        {
          "internalType": "string",
          "name": "",
          "type": "string"
        }
      ],
      "stateMutability": "view",
      "type": "function"
    }
  ],
  "bytecode": "0x608060405234801561001057600080fd5b50610718806100206000396000f3fe608060405234801561001057600080fd5b50600436106100365760003560e01c80636e98717b1461003b578063f76f950e14610064575b600080fd5b61004e610049366004610530565b610077565b60405161005b91906105a8565b60405180910390f35b61004e6100723660046105f6565b6100cb565b60606100c384848080601f0160208091040260200160405190810160405280939291908181526020018383808284376000920191909152506100be92508691506100dc9050565b610208565b949350505050565b60606100d6826100dc565b92915050565b6060816000036101035750506040805180820190915260018152600360fc1b602082015290565b8160005b811561012d578061011781610625565b91506101269050600a8361063e565b9150610107565b60008167ffffffffffffffff81111561014857610148610660565b6040519080825280601f01601f191660200182016040528015610172576020820181803683370190505b509050815b85156101ff57610188600182610676565b90506000610197600a8861063e565b6101a290600a610689565b6101ac9088610676565b6101b79060306106a0565b905060008160f81b9050808484815181106101d4576101d46106b9565b60200101906001600160f81b031916908160001a9053506101f6600a8961063e565b97505050610177565b50949350505050565b6060610244838360405180602001604052806000815250604051806020016040528060008152506040518060200160405280600081525061024b565b9392505050565b805182518451865188516060948a948a948a948a948a9460009490939092909161027591906106cf565b61027f91906106cf565b61028991906106cf565b61029391906106cf565b67ffffffffffffffff8111156102ab576102ab610660565b6040519080825280601f01601f1916602001820160405280156102d5576020820181803683370190505b509050806000805b885181101561034d578881815181106102f8576102f86106b9565b01602001516001600160f81b031916838361031281610625565b945081518110610324576103246106b9565b60200101906001600160f81b031916908160001a9053508061034581610625565b9150506102dd565b5060005b87518110156103c15787818151811061036c5761036c6106b9565b01602001516001600160f81b031916838361038681610625565b945081518110610398576103986106b9565b60200101906001600160f81b031916908160001a905350806103b981610625565b915050610351565b5060005b8651811015610435578681815181106103e0576103e06106b9565b01602001516001600160f81b03191683836103fa81610625565b94508151811061040c5761040c6106b9565b60200101906001600160f81b031916908160001a9053508061042d81610625565b9150506103c5565b5060005b85518110156104a957858181518110610454576104546106b9565b01602001516001600160f81b031916838361046e81610625565b945081518110610480576104806106b9565b60200101906001600160f81b031916908160001a905350806104a181610625565b915050610439565b5060005b845181101561051d578481815181106104c8576104c86106b9565b01602001516001600160f81b03191683836104e281610625565b9450815181106104f4576104f46106b9565b60200101906001600160f81b031916908160001a9053508061051581610625565b9150506104ad565b50909d9c50505050505050505050505050565b60008060006040848603121561054557600080fd5b833567ffffffffffffffff8082111561055d57600080fd5b818601915086601f83011261057157600080fd5b81358181111561058057600080fd5b87602082850101111561059257600080fd5b6020928301989097509590910135949350505050565b600060208083528351808285015260005b818110156105d5578581018301518582016040015282016105b9565b506000604082860101526040601f19601f8301168501019250505092915050565b60006020828403121561060857600080fd5b5035919050565b634e487b7160e01b600052601160045260246000fd5b6000600182016106375761063761060f565b5060010190565b60008261065b57634e487b7160e01b600052601260045260246000fd5b500490565b634e487b7160e01b600052604160045260246000fd5b818103818111156100d6576100d661060f565b80820281158282048414176100d6576100d661060f565b60ff81811683821601908111156100d6576100d661060f565b634e487b7160e01b600052603260045260246000fd5b808201808211156100d6576100d661060f56fea2646970667358221220ee21ceac3aed0b373f4c781011695f7e26612f8f8522937af3dab156958c3f8964736f6c63430008110033",
  "linkReferences": {},
  "deployedLinkReferences": {}
}