{
  "_format": "hh-sol-artifact-1",
  "contractName": "FeedData",
  "sourceName": "contracts/mojito/sothebys/FeedData.sol",
  "abi": [
    {
      "inputs": [
        {
          "internalType": "address[]",
          "name": "priceFeedAddress",
          "type": "address[]"
        },
        {
          "internalType": "address[]",
          "name": "currencyAddress",
          "type": "address[]"
        },
        {
          "internalType": "uint256[]",
          "name": "heartbeat",
          "type": "uint256[]"
        },
        {
          "internalType": "address",
          "name": "_admin",
          "type": "address"
        }
      ],
      "stateMutability": "nonpayable",
      "type": "constructor"
    },
    {
      "inputs": [],
      "name": "admin",
      "outputs": [
        {
          "internalType": "address",
          "name": "",
          "type": "address"
        }
      ],
      "stateMutability": "view",
      "type": "function"
    },
    {
      "inputs": [
        {
          "internalType": "uint256",
          "name": "amount",
          "type": "uint256"
        },
        {
          "internalType": "address",
          "name": "fiat",
          "type": "address"
        }
      ],
      "name": "getLatestPrice",
      "outputs": [
        {
          "internalType": "uint256",
          "name": "value",
          "type": "uint256"
        }
      ],
      "stateMutability": "view",
      "type": "function"
    },
    {
      "inputs": [],
      "name": "owner",
      "outputs": [
        {
          "internalType": "address",
          "name": "",
          "type": "address"
        }
      ],
      "stateMutability": "view",
      "type": "function"
    },
    {
      "inputs": [
        {
          "internalType": "address[]",
          "name": "priceFeedAddress",
          "type": "address[]"
        },
        {
          "internalType": "address[]",
          "name": "currencyAddress",
          "type": "address[]"
        }
      ],
      "name": "updatePriceFeedAddress",
      "outputs": [],
      "stateMutability": "nonpayable",
      "type": "function"
    },
    {
      "inputs": [
        {
          "internalType": "address",
          "name": "currencyAddress",
          "type": "address"
        },
        {
          "internalType": "uint256",
          "name": "heartBeat",
          "type": "uint256"
        }
      ],
      "name": "updateheartbeat",
      "outputs": [],
      "stateMutability": "nonpayable",
      "type": "function"
    }
  ],
  "bytecode": "0x60a06040523480156200001157600080fd5b5060405162000c7838038062000c788339810160408190526200003491620002d5565b8251845114801562000047575081518451145b620000985760405162461bcd60e51b815260206004820181905260248201527f417272617973206d7573742068617665207468652073616d65206c656e677468604482015260640160405180910390fd5b60005b84518110156200019e57848181518110620000ba57620000ba620003d4565b6020026020010151600080868481518110620000da57620000da620003d4565b60200260200101516001600160a01b03166001600160a01b0316815260200190815260200160002060006101000a8154816001600160a01b0302191690836001600160a01b031602179055508281815181106200013b576200013b620003d4565b6020026020010151600160008684815181106200015c576200015c620003d4565b60200260200101516001600160a01b03166001600160a01b031681526020019081526020016000208190555080806200019590620003ea565b9150506200009b565b5033608052600280546001600160a01b0319166001600160a01b03929092169190911790555062000412915050565b634e487b7160e01b600052604160045260246000fd5b604051601f8201601f191681016001600160401b03811182821017156200020e576200020e620001cd565b604052919050565b60006001600160401b03821115620002325762000232620001cd565b5060051b60200190565b80516001600160a01b03811681146200025457600080fd5b919050565b600082601f8301126200026b57600080fd5b81516020620002846200027e8362000216565b620001e3565b82815260059290921b84018101918181019086841115620002a457600080fd5b8286015b84811015620002ca57620002bc816200023c565b8352918301918301620002a8565b509695505050505050565b60008060008060808587031215620002ec57600080fd5b84516001600160401b03808211156200030457600080fd5b620003128883890162000259565b95506020915081870151818111156200032a57600080fd5b6200033889828a0162000259565b9550506040870151818111156200034e57600080fd5b87019050601f810188136200036257600080fd5b8051620003736200027e8262000216565b81815260059190911b8201830190838101908a8311156200039357600080fd5b928401925b82841015620003b35783518252928401929084019062000398565b8096505050505050620003c9606086016200023c565b905092959194509250565b634e487b7160e01b600052603260045260246000fd5b6000600182016200040b57634e487b7160e01b600052601160045260246000fd5b5060010190565b60805161083d6200043b60003960008181609c0152818161011b015261040e015261083d6000f3fe608060405234801561001057600080fd5b50600436106100575760003560e01c80630acdf8601461005c5780633a403058146100715780638da5cb5b14610097578063f851a440146100d6578063fe8c1539146100e9575b600080fd5b61006f61006a366004610558565b6100fc565b005b61008461007f366004610582565b61017e565b6040519081526020015b60405180910390f35b6100be7f000000000000000000000000000000000000000000000000000000000000000081565b6040516001600160a01b03909116815260200161008e565b6002546100be906001600160a01b031681565b61006f6100f7366004610666565b6103ef565b6002546001600160a01b031633148061013d5750336001600160a01b037f000000000000000000000000000000000000000000000000000000000000000016145b6101625760405162461bcd60e51b8152600401610159906106ca565b60405180910390fd5b6001600160a01b03909116600090815260016020526040902055565b6001600160a01b0381811660009081526020819052604081205490911661022c5760405162461bcd60e51b815260206004820152605660248201527f436861696e6c696e6b46656564206973206e6f7420617661696c61626c652e2060448201527f506c656173652070726f766964652076616c696420636861696e6c696e6b20736064820152757570706f72746564204552433230206164647265737360501b608482015260a401610159565b6001600160a01b03808316600090815260208190526040808220548151633fabe5a360e21b815291519293849391169163feaf968c9160048083019260a09291908290030181865afa158015610286573d6000803e3d6000fd5b505050506040513d601f19601f820116820180604052508101906102aa9190610726565b69ffffffffffffffffffff169450505092505060016000856001600160a01b03166001600160a01b031681526020019081526020016000205460000361033c5760405162461bcd60e51b815260206004820152602160248201527f7570646174652068656172746265617420666f72207468652063757272656e636044820152607960f81b6064820152608401610159565b6001600160a01b03841660009081526001602052604090205461035f908261078c565b4211156103c15760405162461bcd60e51b815260206004820152602a60248201527f636861696e666565642064617461206e6f74207570646174656420696e20646560448201526972697665642074696d6560b01b6064820152608401610159565b6000826103d9876a52b7d2dcc80cd2e400000061079f565b6103e391906107b6565b93505050505b92915050565b6002546001600160a01b03163314806104305750336001600160a01b037f000000000000000000000000000000000000000000000000000000000000000016145b61044c5760405162461bcd60e51b8152600401610159906106ca565b805182511461049d5760405162461bcd60e51b815260206004820181905260248201527f417272617973206d7573742068617665207468652073616d65206c656e6774686044820152606401610159565b60005b8251811015610537578281815181106104bb576104bb6107d8565b60200260200101516000808484815181106104d8576104d86107d8565b60200260200101516001600160a01b03166001600160a01b0316815260200190815260200160002060006101000a8154816001600160a01b0302191690836001600160a01b03160217905550808061052f906107ee565b9150506104a0565b505050565b80356001600160a01b038116811461055357600080fd5b919050565b6000806040838503121561056b57600080fd5b6105748361053c565b946020939093013593505050565b6000806040838503121561059557600080fd5b823591506105a56020840161053c565b90509250929050565b634e487b7160e01b600052604160045260246000fd5b600082601f8301126105d557600080fd5b8135602067ffffffffffffffff808311156105f2576105f26105ae565b8260051b604051601f19603f83011681018181108482111715610617576106176105ae565b60405293845285810183019383810192508785111561063557600080fd5b83870191505b8482101561065b5761064c8261053c565b8352918301919083019061063b565b979650505050505050565b6000806040838503121561067957600080fd5b823567ffffffffffffffff8082111561069157600080fd5b61069d868387016105c4565b935060208501359150808211156106b357600080fd5b506106c0858286016105c4565b9150509250929050565b60208082526022908201527f73686f756c642062652063616c6c6564206279206f776e6572206f722061646d60408201526134b760f11b606082015260800190565b805169ffffffffffffffffffff8116811461055357600080fd5b600080600080600060a0868803121561073e57600080fd5b6107478661070c565b945060208601519350604086015192506060860151915061076a6080870161070c565b90509295509295909350565b634e487b7160e01b600052601160045260246000fd5b808201808211156103e9576103e9610776565b80820281158282048414176103e9576103e9610776565b6000826107d357634e487b7160e01b600052601260045260246000fd5b500490565b634e487b7160e01b600052603260045260246000fd5b60006001820161080057610800610776565b506001019056fea26469706673582212201d7b7825fa585f940c0a98456eb06303fa7068f373090898c9de9e56c2b9b2f164736f6c63430008110033",
  "linkReferences": {},
  "deployedLinkReferences": {}
}