{
  "_format": "hh-sol-artifact-1",
  "contractName": "ZoraProtocolFeeSettings",
  "sourceName": "contracts/backup/zora-v3/auxiliary/ZoraProtocolFeeSettings/ZoraProtocolFeeSettings.sol",
  "abi": [
    {
      "inputs": [],
      "stateMutability": "nonpayable",
      "type": "constructor"
    },
    {
      "anonymous": false,
      "inputs": [
        {
          "indexed": true,
          "internalType": "address",
          "name": "owner",
          "type": "address"
        },
        {
          "indexed": true,
          "internalType": "address",
          "name": "approved",
          "type": "address"
        },
        {
          "indexed": true,
          "internalType": "uint256",
          "name": "tokenId",
          "type": "uint256"
        }
      ],
      "name": "Approval",
      "type": "event"
    },
    {
      "anonymous": false,
      "inputs": [
        {
          "indexed": true,
          "internalType": "address",
          "name": "owner",
          "type": "address"
        },
        {
          "indexed": true,
          "internalType": "address",
          "name": "operator",
          "type": "address"
        },
        {
          "indexed": false,
          "internalType": "bool",
          "name": "approved",
          "type": "bool"
        }
      ],
      "name": "ApprovalForAll",
      "type": "event"
    },
    {
      "anonymous": false,
      "inputs": [
        {
          "indexed": true,
          "internalType": "address",
          "name": "newMetadata",
          "type": "address"
        }
      ],
      "name": "MetadataUpdated",
      "type": "event"
    },
    {
      "anonymous": false,
      "inputs": [
        {
          "indexed": true,
          "internalType": "address",
          "name": "newOwner",
          "type": "address"
        }
      ],
      "name": "OwnerUpdated",
      "type": "event"
    },
    {
      "anonymous": false,
      "inputs": [
        {
          "indexed": true,
          "internalType": "address",
          "name": "module",
          "type": "address"
        },
        {
          "indexed": false,
          "internalType": "address",
          "name": "feeRecipient",
          "type": "address"
        },
        {
          "indexed": false,
          "internalType": "uint16",
          "name": "feeBps",
          "type": "uint16"
        }
      ],
      "name": "ProtocolFeeUpdated",
      "type": "event"
    },
    {
      "anonymous": false,
      "inputs": [
        {
          "indexed": true,
          "internalType": "address",
          "name": "from",
          "type": "address"
        },
        {
          "indexed": true,
          "internalType": "address",
          "name": "to",
          "type": "address"
        },
        {
          "indexed": true,
          "internalType": "uint256",
          "name": "tokenId",
          "type": "uint256"
        }
      ],
      "name": "Transfer",
      "type": "event"
    },
    {
      "inputs": [
        {
          "internalType": "address",
          "name": "to",
          "type": "address"
        },
        {
          "internalType": "uint256",
          "name": "tokenId",
          "type": "uint256"
        }
      ],
      "name": "approve",
      "outputs": [],
      "stateMutability": "nonpayable",
      "type": "function"
    },
    {
      "inputs": [
        {
          "internalType": "address",
          "name": "owner",
          "type": "address"
        }
      ],
      "name": "balanceOf",
      "outputs": [
        {
          "internalType": "uint256",
          "name": "",
          "type": "uint256"
        }
      ],
      "stateMutability": "view",
      "type": "function"
    },
    {
      "inputs": [
        {
          "internalType": "uint256",
          "name": "tokenId",
          "type": "uint256"
        }
      ],
      "name": "getApproved",
      "outputs": [
        {
          "internalType": "address",
          "name": "",
          "type": "address"
        }
      ],
      "stateMutability": "view",
      "type": "function"
    },
    {
      "inputs": [
        {
          "internalType": "address",
          "name": "_module",
          "type": "address"
        },
        {
          "internalType": "uint256",
          "name": "_amount",
          "type": "uint256"
        }
      ],
      "name": "getFeeAmount",
      "outputs": [
        {
          "internalType": "uint256",
          "name": "",
          "type": "uint256"
        }
      ],
      "stateMutability": "view",
      "type": "function"
    },
    {
      "inputs": [
        {
          "internalType": "address",
          "name": "_minter",
          "type": "address"
        },
        {
          "internalType": "address",
          "name": "_metadata",
          "type": "address"
        }
      ],
      "name": "init",
      "outputs": [],
      "stateMutability": "nonpayable",
      "type": "function"
    },
    {
      "inputs": [
        {
          "internalType": "address",
          "name": "owner",
          "type": "address"
        },
        {
          "internalType": "address",
          "name": "operator",
          "type": "address"
        }
      ],
      "name": "isApprovedForAll",
      "outputs": [
        {
          "internalType": "bool",
          "name": "",
          "type": "bool"
        }
      ],
      "stateMutability": "view",
      "type": "function"
    },
    {
      "inputs": [],
      "name": "metadata",
      "outputs": [
        {
          "internalType": "address",
          "name": "",
          "type": "address"
        }
      ],
      "stateMutability": "view",
      "type": "function"
    },
    {
      "inputs": [
        {
          "internalType": "address",
          "name": "_to",
          "type": "address"
        },
        {
          "internalType": "address",
          "name": "_module",
          "type": "address"
        }
      ],
      "name": "mint",
      "outputs": [
        {
          "internalType": "uint256",
          "name": "",
          "type": "uint256"
        }
      ],
      "stateMutability": "nonpayable",
      "type": "function"
    },
    {
      "inputs": [],
      "name": "minter",
      "outputs": [
        {
          "internalType": "address",
          "name": "",
          "type": "address"
        }
      ],
      "stateMutability": "view",
      "type": "function"
    },
    {
      "inputs": [
        {
          "internalType": "address",
          "name": "",
          "type": "address"
        }
      ],
      "name": "moduleFeeSetting",
      "outputs": [
        {
          "internalType": "uint16",
          "name": "feeBps",
          "type": "uint16"
        },
        {
          "internalType": "address",
          "name": "feeRecipient",
          "type": "address"
        }
      ],
      "stateMutability": "view",
      "type": "function"
    },
    {
      "inputs": [
        {
          "internalType": "address",
          "name": "_module",
          "type": "address"
        }
      ],
      "name": "moduleToTokenId",
      "outputs": [
        {
          "internalType": "uint256",
          "name": "",
          "type": "uint256"
        }
      ],
      "stateMutability": "pure",
      "type": "function"
    },
    {
      "inputs": [],
      "name": "name",
      "outputs": [
        {
          "internalType": "string",
          "name": "",
          "type": "string"
        }
      ],
      "stateMutability": "view",
      "type": "function"
    },
    {
      "inputs": [],
      "name": "owner",
      "outputs": [
        {
          "internalType": "address",
          "name": "",
          "type": "address"
        }
      ],
      "stateMutability": "view",
      "type": "function"
    },
    {
      "inputs": [
        {
          "internalType": "uint256",
          "name": "tokenId",
          "type": "uint256"
        }
      ],
      "name": "ownerOf",
      "outputs": [
        {
          "internalType": "address",
          "name": "",
          "type": "address"
        }
      ],
      "stateMutability": "view",
      "type": "function"
    },
    {
      "inputs": [
        {
          "internalType": "address",
          "name": "from",
          "type": "address"
        },
        {
          "internalType": "address",
          "name": "to",
          "type": "address"
        },
        {
          "internalType": "uint256",
          "name": "tokenId",
          "type": "uint256"
        }
      ],
      "name": "safeTransferFrom",
      "outputs": [],
      "stateMutability": "nonpayable",
      "type": "function"
    },
    {
      "inputs": [
        {
          "internalType": "address",
          "name": "from",
          "type": "address"
        },
        {
          "internalType": "address",
          "name": "to",
          "type": "address"
        },
        {
          "internalType": "uint256",
          "name": "tokenId",
          "type": "uint256"
        },
        {
          "internalType": "bytes",
          "name": "_data",
          "type": "bytes"
        }
      ],
      "name": "safeTransferFrom",
      "outputs": [],
      "stateMutability": "nonpayable",
      "type": "function"
    },
    {
      "inputs": [
        {
          "internalType": "address",
          "name": "operator",
          "type": "address"
        },
        {
          "internalType": "bool",
          "name": "approved",
          "type": "bool"
        }
      ],
      "name": "setApprovalForAll",
      "outputs": [],
      "stateMutability": "nonpayable",
      "type": "function"
    },
    {
      "inputs": [
        {
          "internalType": "address",
          "name": "_module",
          "type": "address"
        },
        {
          "internalType": "address",
          "name": "_feeRecipient",
          "type": "address"
        },
        {
          "internalType": "uint16",
          "name": "_feeBps",
          "type": "uint16"
        }
      ],
      "name": "setFeeParams",
      "outputs": [],
      "stateMutability": "nonpayable",
      "type": "function"
    },
    {
      "inputs": [
        {
          "internalType": "address",
          "name": "_metadata",
          "type": "address"
        }
      ],
      "name": "setMetadata",
      "outputs": [],
      "stateMutability": "nonpayable",
      "type": "function"
    },
    {
      "inputs": [
        {
          "internalType": "address",
          "name": "_owner",
          "type": "address"
        }
      ],
      "name": "setOwner",
      "outputs": [],
      "stateMutability": "nonpayable",
      "type": "function"
    },
    {
      "inputs": [
        {
          "internalType": "bytes4",
          "name": "interfaceId",
          "type": "bytes4"
        }
      ],
      "name": "supportsInterface",
      "outputs": [
        {
          "internalType": "bool",
          "name": "",
          "type": "bool"
        }
      ],
      "stateMutability": "view",
      "type": "function"
    },
    {
      "inputs": [],
      "name": "symbol",
      "outputs": [
        {
          "internalType": "string",
          "name": "",
          "type": "string"
        }
      ],
      "stateMutability": "view",
      "type": "function"
    },
    {
      "inputs": [
        {
          "internalType": "uint256",
          "name": "_tokenId",
          "type": "uint256"
        }
      ],
      "name": "tokenIdToModule",
      "outputs": [
        {
          "internalType": "address",
          "name": "",
          "type": "address"
        }
      ],
      "stateMutability": "pure",
      "type": "function"
    },
    {
      "inputs": [
        {
          "internalType": "uint256",
          "name": "_tokenId",
          "type": "uint256"
        }
      ],
      "name": "tokenURI",
      "outputs": [
        {
          "internalType": "string",
          "name": "",
          "type": "string"
        }
      ],
      "stateMutability": "view",
      "type": "function"
    },
    {
      "inputs": [
        {
          "internalType": "address",
          "name": "from",
          "type": "address"
        },
        {
          "internalType": "address",
          "name": "to",
          "type": "address"
        },
        {
          "internalType": "uint256",
          "name": "tokenId",
          "type": "uint256"
        }
      ],
      "name": "transferFrom",
      "outputs": [],
      "stateMutability": "nonpayable",
      "type": "function"
    }
  ],
  "bytecode": "0x60806040523480156200001157600080fd5b506040518060400160405280601681526020017f5a4f5241204d6f64756c65204665652053776974636800000000000000000000815250604051806040016040528060048152602001632d27a92360e11b81525081600090816200007691906200018e565b5060016200008582826200018e565b50505062000099336200009f60201b60201c565b6200025a565b600780546001600160a01b0319166001600160a01b0383169081179091556040517f4ffd725fc4a22075e9ec71c59edf9c38cdeb588a91b24fc5b61388c5be41282b90600090a250565b634e487b7160e01b600052604160045260246000fd5b600181811c908216806200011457607f821691505b6020821081036200013557634e487b7160e01b600052602260045260246000fd5b50919050565b601f8211156200018957600081815260208120601f850160051c81016020861015620001645750805b601f850160051c820191505b81811015620001855782815560010162000170565b5050505b505050565b81516001600160401b03811115620001aa57620001aa620000e9565b620001c281620001bb8454620000ff565b846200013b565b602080601f831160018114620001fa5760008415620001e15750858301515b600019600386901b1c1916600185901b17855562000185565b600085815260208120601f198616915b828110156200022b578886015182559484019460019091019084016200020a565b50858210156200024a5787850151600019600388901b60f8161c191681555b5050505050600190811b01905550565b6119f1806200026a6000396000f3fe608060405234801561001057600080fd5b50600436106101735760003560e01c806370a08231116100de578063af066de311610097578063e985e9c511610071578063e985e9c514610384578063ee1fe2ad146103c0578063f09a4016146103d3578063f3cb8385146103e657600080fd5b8063af066de31461034b578063b88d4fde1461035e578063c87b56dd1461037157600080fd5b806370a082311461029957806386ab6fb9146102ac5780638da5cb5b1461030357806395d89b4114610316578063965d21981461031e578063a22cb4651461033857600080fd5b806323b872dd1161013057806323b872dd1461021b578063392f37e91461022e57806342842e0e1461024157806361b485f6146102545780636352211e14610275578063662f03321461028857600080fd5b806301ffc9a71461017857806306fdde03146101a057806307546172146101b5578063081812fc146101e0578063095ea7b3146101f357806313af403514610208575b600080fd5b61018b61018636600461148b565b6103f9565b60405190151581526020015b60405180910390f35b6101a861044b565b60405161019791906114f8565b6008546101c8906001600160a01b031681565b6040516001600160a01b039091168152602001610197565b6101c86101ee36600461150b565b6104dd565b610206610201366004611540565b610577565b005b61020661021636600461156a565b61068c565b610206610229366004611585565b6106e7565b6006546101c8906001600160a01b031681565b61020661024f366004611585565b610718565b610267610262366004611540565b610733565b604051908152602001610197565b6101c861028336600461150b565b61076f565b6101c861029636600461150b565b90565b6102676102a736600461156a565b6107e6565b6102e16102ba36600461156a565b60096020526000908152604090205461ffff8116906201000090046001600160a01b031682565b6040805161ffff90931683526001600160a01b03909116602083015201610197565b6007546101c8906001600160a01b031681565b6101a861086d565b61026761032c36600461156a565b6001600160a01b031690565b6102066103463660046115c1565b61087c565b6102066103593660046115fd565b61088b565b61020661036c3660046116ba565b610a7b565b6101a861037f36600461150b565b610ab3565b61018b610392366004611765565b6001600160a01b03918216600090815260056020908152604080832093909416825291909152205460ff1690565b6102676103ce366004611765565b610c07565b6102066103e1366004611765565b610c6a565b6102066103f436600461156a565b610d3d565b60006001600160e01b031982166380ac58cd60e01b148061042a57506001600160e01b03198216635b5e139f60e01b145b8061044557506301ffc9a760e01b6001600160e01b03198316145b92915050565b60606000805461045a90611798565b80601f016020809104026020016040519081016040528092919081815260200182805461048690611798565b80156104d35780601f106104a8576101008083540402835291602001916104d3565b820191906000526020600020905b8154815290600101906020018083116104b657829003601f168201915b5050505050905090565b6000818152600260205260408120546001600160a01b031661055b5760405162461bcd60e51b815260206004820152602c60248201527f4552433732313a20617070726f76656420717565727920666f72206e6f6e657860448201526b34b9ba32b73a103a37b5b2b760a11b60648201526084015b60405180910390fd5b506000908152600460205260409020546001600160a01b031690565b60006105828261076f565b9050806001600160a01b0316836001600160a01b0316036105ef5760405162461bcd60e51b815260206004820152602160248201527f4552433732313a20617070726f76616c20746f2063757272656e74206f776e656044820152603960f91b6064820152608401610552565b336001600160a01b038216148061060b575061060b8133610392565b61067d5760405162461bcd60e51b815260206004820152603860248201527f4552433732313a20617070726f76652063616c6c6572206973206e6f74206f7760448201527f6e6572206e6f7220617070726f76656420666f7220616c6c00000000000000006064820152608401610552565b6106878383610d98565b505050565b6007546001600160a01b031633146106db5760405162461bcd60e51b815260206004820152601260248201527139b2ba27bbb732b91037b7363ca7bbb732b960711b6044820152606401610552565b6106e481610e06565b50565b6106f13382610e50565b61070d5760405162461bcd60e51b8152600401610552906117d2565b610687838383610f47565b61068783838360405180602001604052806000815250610a7b565b6001600160a01b0382166000908152600960205260408120546127109061075e9061ffff1684611839565b6107689190611850565b9392505050565b6000818152600260205260408120546001600160a01b0316806104455760405162461bcd60e51b815260206004820152602960248201527f4552433732313a206f776e657220717565727920666f72206e6f6e657869737460448201526832b73a103a37b5b2b760b91b6064820152608401610552565b60006001600160a01b0382166108515760405162461bcd60e51b815260206004820152602a60248201527f4552433732313a2062616c616e636520717565727920666f7220746865207a65604482015269726f206164647265737360b01b6064820152608401610552565b506001600160a01b031660009081526003602052604090205490565b60606001805461045a90611798565b6108873383836110e7565b5050565b826001600160a01b038116336108a08261076f565b6001600160a01b0316146108e85760405162461bcd60e51b815260206004820152600f60248201526e37b7363ca6b7b23ab632a7bbb732b960891b6044820152606401610552565b6127108361ffff1611156109485760405162461bcd60e51b815260206004820152602160248201527f736574466565506172616d73206d7573742073657420666565203c3d203130306044820152602560f81b6064820152608401610552565b6001600160a01b038416151580610961575061ffff8316155b6109e35760405162461bcd60e51b815260206004820152604760248201527f736574466565506172616d732066656520726563697069656e742063616e6e6f60448201527f74206265203020616464726573732069662066656520697320677265617465726064820152660207468616e20360cc1b608482015260a401610552565b60408051808201825261ffff8581168083526001600160a01b0388811660208086018281528c841660008181526009845289902097518854925190951662010000026001600160b01b03199092169490961693909317929092179094558451938452830152917f13a20b316cfe128c34302b82770e84718519ea467fbd984b426aaae5513c79c1910160405180910390a25050505050565b610a853383610e50565b610aa15760405162461bcd60e51b8152600401610552906117d2565b610aad848484846111b5565b50505050565b6000818152600260205260409020546060906001600160a01b0316610b325760405162461bcd60e51b815260206004820152602f60248201527f4552433732314d657461646174613a2055524920717565727920666f72206e6f60448201526e3732bc34b9ba32b73a103a37b5b2b760891b6064820152608401610552565b6006546001600160a01b0316610b965760405162461bcd60e51b815260206004820152602360248201527f4552433732314d657461646174613a206e6f206d65746164617461206164647260448201526265737360e81b6064820152608401610552565b60065460405163c87b56dd60e01b8152600481018490526001600160a01b039091169063c87b56dd90602401600060405180830381865afa158015610bdf573d6000803e3d6000fd5b505050506040513d6000823e601f3d908101601f191682016040526104459190810190611872565b6008546000906001600160a01b03163314610c565760405162461bcd60e51b815260206004820152600f60248201526e36b4b73a1037b7363ca6b4b73a32b960891b6044820152606401610552565b6001600160a01b03821661076884826111e8565b6007546001600160a01b03163314610cb65760405162461bcd60e51b815260206004820152600f60248201526e34b734ba1037b7363c9037bbb732b960891b6044820152606401610552565b6008546001600160a01b031615610d0f5760405162461bcd60e51b815260206004820152601860248201527f696e697420616c726561647920696e697469616c697a656400000000000000006044820152606401610552565b600880546001600160a01b039384166001600160a01b03199182161790915560068054929093169116179055565b6007546001600160a01b03163314610d8f5760405162461bcd60e51b815260206004820152601560248201527439b2ba26b2ba30b230ba309037b7363ca7bbb732b960591b6044820152606401610552565b6106e48161132a565b600081815260046020526040902080546001600160a01b0319166001600160a01b0384169081179091558190610dcd8261076f565b6001600160a01b03167f8c5be1e5ebec7d5bd14f71427d1e84f3dd0314c0f7b2291e5b200ac8c7c3b92560405160405180910390a45050565b600780546001600160a01b0319166001600160a01b0383169081179091556040517f4ffd725fc4a22075e9ec71c59edf9c38cdeb588a91b24fc5b61388c5be41282b90600090a250565b6000818152600260205260408120546001600160a01b0316610ec95760405162461bcd60e51b815260206004820152602c60248201527f4552433732313a206f70657261746f7220717565727920666f72206e6f6e657860448201526b34b9ba32b73a103a37b5b2b760a11b6064820152608401610552565b6000610ed48361076f565b9050806001600160a01b0316846001600160a01b03161480610f0f5750836001600160a01b0316610f04846104dd565b6001600160a01b0316145b80610f3f57506001600160a01b0380821660009081526005602090815260408083209388168352929052205460ff165b949350505050565b826001600160a01b0316610f5a8261076f565b6001600160a01b031614610fc25760405162461bcd60e51b815260206004820152602960248201527f4552433732313a207472616e73666572206f6620746f6b656e2074686174206960448201526839903737ba1037bbb760b91b6064820152608401610552565b6001600160a01b0382166110245760405162461bcd60e51b8152602060048201526024808201527f4552433732313a207472616e7366657220746f20746865207a65726f206164646044820152637265737360e01b6064820152608401610552565b61102f600082610d98565b6001600160a01b03831660009081526003602052604081208054600192906110589084906118e9565b90915550506001600160a01b03821660009081526003602052604081208054600192906110869084906118fc565b909155505060008181526002602052604080822080546001600160a01b0319166001600160a01b0386811691821790925591518493918716917fddf252ad1be2c89b69c2b068fc378daa952ba7f163c4a11628f55a4df523b3ef91a4505050565b816001600160a01b0316836001600160a01b0316036111485760405162461bcd60e51b815260206004820152601960248201527f4552433732313a20617070726f766520746f2063616c6c6572000000000000006044820152606401610552565b6001600160a01b03838116600081815260056020908152604080832094871680845294825291829020805460ff191686151590811790915591519182527f17307eab39ab6107e8899845ad3d59bd9653f200f220920489ca2b5937696c31910160405180910390a3505050565b6111c0848484610f47565b6111cc84848484611374565b610aad5760405162461bcd60e51b81526004016105529061190f565b6001600160a01b03821661123e5760405162461bcd60e51b815260206004820181905260248201527f4552433732313a206d696e7420746f20746865207a65726f20616464726573736044820152606401610552565b6000818152600260205260409020546001600160a01b0316156112a35760405162461bcd60e51b815260206004820152601c60248201527f4552433732313a20746f6b656e20616c7265616479206d696e746564000000006044820152606401610552565b6001600160a01b03821660009081526003602052604081208054600192906112cc9084906118fc565b909155505060008181526002602052604080822080546001600160a01b0319166001600160a01b03861690811790915590518392907fddf252ad1be2c89b69c2b068fc378daa952ba7f163c4a11628f55a4df523b3ef908290a45050565b600680546001600160a01b0319166001600160a01b0383169081179091556040517fe08224dc11618a1e23016c28d3fb80e30630f4df34d9f95890fe9ce89a85d07e90600090a250565b60006001600160a01b0384163b1561146a57604051630a85bd0160e11b81526001600160a01b0385169063150b7a02906113b8903390899088908890600401611961565b6020604051808303816000875af19250505080156113f3575060408051601f3d908101601f191682019092526113f09181019061199e565b60015b611450573d808015611421576040519150601f19603f3d011682016040523d82523d6000602084013e611426565b606091505b5080516000036114485760405162461bcd60e51b81526004016105529061190f565b805181602001fd5b6001600160e01b031916630a85bd0160e11b149050610f3f565b506001949350505050565b6001600160e01b0319811681146106e457600080fd5b60006020828403121561149d57600080fd5b813561076881611475565b60005b838110156114c35781810151838201526020016114ab565b50506000910152565b600081518084526114e48160208601602086016114a8565b601f01601f19169290920160200192915050565b60208152600061076860208301846114cc565b60006020828403121561151d57600080fd5b5035919050565b80356001600160a01b038116811461153b57600080fd5b919050565b6000806040838503121561155357600080fd5b61155c83611524565b946020939093013593505050565b60006020828403121561157c57600080fd5b61076882611524565b60008060006060848603121561159a57600080fd5b6115a384611524565b92506115b160208501611524565b9150604084013590509250925092565b600080604083850312156115d457600080fd5b6115dd83611524565b9150602083013580151581146115f257600080fd5b809150509250929050565b60008060006060848603121561161257600080fd5b61161b84611524565b925061162960208501611524565b9150604084013561ffff8116811461164057600080fd5b809150509250925092565b634e487b7160e01b600052604160045260246000fd5b604051601f8201601f1916810167ffffffffffffffff8111828210171561168a5761168a61164b565b604052919050565b600067ffffffffffffffff8211156116ac576116ac61164b565b50601f01601f191660200190565b600080600080608085870312156116d057600080fd5b6116d985611524565b93506116e760208601611524565b925060408501359150606085013567ffffffffffffffff81111561170a57600080fd5b8501601f8101871361171b57600080fd5b803561172e61172982611692565b611661565b81815288602083850101111561174357600080fd5b8160208401602083013760006020838301015280935050505092959194509250565b6000806040838503121561177857600080fd5b61178183611524565b915061178f60208401611524565b90509250929050565b600181811c908216806117ac57607f821691505b6020821081036117cc57634e487b7160e01b600052602260045260246000fd5b50919050565b60208082526031908201527f4552433732313a207472616e736665722063616c6c6572206973206e6f74206f6040820152701ddb995c881b9bdc88185c1c1c9bdd9959607a1b606082015260800190565b634e487b7160e01b600052601160045260246000fd5b808202811582820484141761044557610445611823565b60008261186d57634e487b7160e01b600052601260045260246000fd5b500490565b60006020828403121561188457600080fd5b815167ffffffffffffffff81111561189b57600080fd5b8201601f810184136118ac57600080fd5b80516118ba61172982611692565b8181528560208385010111156118cf57600080fd5b6118e08260208301602086016114a8565b95945050505050565b8181038181111561044557610445611823565b8082018082111561044557610445611823565b60208082526032908201527f4552433732313a207472616e7366657220746f206e6f6e20455243373231526560408201527131b2b4bb32b91034b6b83632b6b2b73a32b960711b606082015260800190565b6001600160a01b0385811682528416602082015260408101839052608060608201819052600090611994908301846114cc565b9695505050505050565b6000602082840312156119b057600080fd5b81516107688161147556fea264697066735822122080a155f844cf87ba0cb0942d4eca78c03362bc2fc5c03bee42fcffb9faf3d95b64736f6c63430008110033",
  "linkReferences": {},
  "deployedLinkReferences": {}
}