{
  "_format": "hh-sol-artifact-1",
  "contractName": "GnosisSafeProxyFactory",
  "sourceName": "contracts/gnosis/proxies/GnosisSafeProxyFactory.sol",
  "abi": [
    {
      "anonymous": false,
      "inputs": [
        {
          "indexed": false,
          "internalType": "contract GnosisSafeProxy",
          "name": "proxy",
          "type": "address"
        }
      ],
      "name": "ProxyCreation",
      "type": "event"
    },
    {
      "inputs": [
        {
          "internalType": "address",
          "name": "_singleton",
          "type": "address"
        },
        {
          "internalType": "bytes",
          "name": "initializer",
          "type": "bytes"
        },
        {
          "internalType": "uint256",
          "name": "saltNonce",
          "type": "uint256"
        }
      ],
      "name": "calculateCreateProxyWithNonceAddress",
      "outputs": [
        {
          "internalType": "contract GnosisSafeProxy",
          "name": "proxy",
          "type": "address"
        }
      ],
      "stateMutability": "nonpayable",
      "type": "function"
    },
    {
      "inputs": [
        {
          "internalType": "address",
          "name": "singleton",
          "type": "address"
        },
        {
          "internalType": "bytes",
          "name": "data",
          "type": "bytes"
        }
      ],
      "name": "createProxy",
      "outputs": [
        {
          "internalType": "contract GnosisSafeProxy",
          "name": "proxy",
          "type": "address"
        }
      ],
      "stateMutability": "nonpayable",
      "type": "function"
    },
    {
      "inputs": [
        {
          "internalType": "address",
          "name": "_singleton",
          "type": "address"
        },
        {
          "internalType": "bytes",
          "name": "initializer",
          "type": "bytes"
        },
        {
          "internalType": "uint256",
          "name": "saltNonce",
          "type": "uint256"
        },
        {
          "internalType": "contract IProxyCreationCallback",
          "name": "callback",
          "type": "address"
        }
      ],
      "name": "createProxyWithCallback",
      "outputs": [
        {
          "internalType": "contract GnosisSafeProxy",
          "name": "proxy",
          "type": "address"
        }
      ],
      "stateMutability": "nonpayable",
      "type": "function"
    },
    {
      "inputs": [
        {
          "internalType": "address",
          "name": "_singleton",
          "type": "address"
        },
        {
          "internalType": "bytes",
          "name": "initializer",
          "type": "bytes"
        },
        {
          "internalType": "uint256",
          "name": "saltNonce",
          "type": "uint256"
        }
      ],
      "name": "createProxyWithNonce",
      "outputs": [
        {
          "internalType": "contract GnosisSafeProxy",
          "name": "proxy",
          "type": "address"
        }
      ],
      "stateMutability": "nonpayable",
      "type": "function"
    },
    {
      "inputs": [],
      "name": "proxyCreationCode",
      "outputs": [
        {
          "internalType": "bytes",
          "name": "",
          "type": "bytes"
        }
      ],
      "stateMutability": "pure",
      "type": "function"
    },
    {
      "inputs": [],
      "name": "proxyRuntimeCode",
      "outputs": [
        {
          "internalType": "bytes",
          "name": "",
          "type": "bytes"
        }
      ],
      "stateMutability": "pure",
      "type": "function"
    }
  ],
  "bytecode": "0x608060405234801561001057600080fd5b506109f9806100206000396000f3fe608060405234801561001057600080fd5b50600436106100625760003560e01c80631688f0b9146100675780632500510e1461009757806353e5d935146100aa57806361b69abd146100bf578063addacc0f146100d2578063d18af54d146100da575b600080fd5b61007a61007536600461056d565b6100ed565b6040516001600160a01b0390911681526020015b60405180910390f35b61007a6100a53660046105c6565b610161565b6100b26101f6565b60405161008e91906106a1565b61007a6100cd3660046106bb565b610220565b6100b26102c2565b61007a6100e836600461070b565b6102d4565b60006100fa8484846103aa565b83519091501561011e5760008060008551602087016000865af10361011e57600080fd5b6040516001600160a01b03821681527fa38789425dbeee0239e16ff2d2567e31720127fbc6430758c1a4efc6aef29f809060200160405180910390a19392505050565b60006101a58585858080601f0160208091040260200160405190810160405280939291908181526020018383808284376000920191909152508792506103aa915050565b6040516bffffffffffffffffffffffff19606083901b16602082015290915060340160408051601f198184030181529082905262461bcd60e51b82526101ed916004016106a1565b60405180910390fd5b60606040518060200161020890610499565b601f1982820381018352601f90910116604052919050565b60008260405161022f90610499565b6001600160a01b039091168152602001604051809103906000f08015801561025b573d6000803e3d6000fd5b508251909150156102805760008060008451602086016000865af10361028057600080fd5b6040516001600160a01b03821681527fa38789425dbeee0239e16ff2d2567e31720127fbc6430758c1a4efc6aef29f809060200160405180910390a192915050565b606060405180602001610208906104a6565b600080838360405160200161030592919091825260601b6bffffffffffffffffffffffff1916602082015260340190565b6040516020818303038152906040528051906020012060001c905061032b8686836100ed565b91506001600160a01b038316156103a1576040516303ca56a360e31b81526001600160a01b03841690631e52b5189061036e9085908a908a908a90600401610777565b600060405180830381600087803b15801561038857600080fd5b505af115801561039c573d6000803e3d6000fd5b505050505b50949350505050565b6000808380519060200120836040516020016103d0929190918252602082015260400190565b6040516020818303038152906040528051906020012090506000604051806020016103fa90610499565b601f1982820381018352601f90910116604081905261042791906001600160a01b038916906020016107b4565b6040516020818303038152906040529050818151826020016000f592506001600160a01b0383166104905760405162461bcd60e51b815260206004820152601360248201527210dc99585d194c8818d85b1b0819985a5b1959606a1b60448201526064016101ed565b50509392505050565b610172806107d783390190565b607b8061094983390190565b6001600160a01b03811681146104c757600080fd5b50565b634e487b7160e01b600052604160045260246000fd5b600082601f8301126104f157600080fd5b813567ffffffffffffffff8082111561050c5761050c6104ca565b604051601f8301601f19908116603f01168101908282118183101715610534576105346104ca565b8160405283815286602085880101111561054d57600080fd5b836020870160208301376000602085830101528094505050505092915050565b60008060006060848603121561058257600080fd5b833561058d816104b2565b9250602084013567ffffffffffffffff8111156105a957600080fd5b6105b5868287016104e0565b925050604084013590509250925092565b600080600080606085870312156105dc57600080fd5b84356105e7816104b2565b9350602085013567ffffffffffffffff8082111561060457600080fd5b818701915087601f83011261061857600080fd5b81358181111561062757600080fd5b88602082850101111561063957600080fd5b95986020929092019750949560400135945092505050565b60005b8381101561066c578181015183820152602001610654565b50506000910152565b6000815180845261068d816020860160208601610651565b601f01601f19169290920160200192915050565b6020815260006106b46020830184610675565b9392505050565b600080604083850312156106ce57600080fd5b82356106d9816104b2565b9150602083013567ffffffffffffffff8111156106f557600080fd5b610701858286016104e0565b9150509250929050565b6000806000806080858703121561072157600080fd5b843561072c816104b2565b9350602085013567ffffffffffffffff81111561074857600080fd5b610754878288016104e0565b93505060408501359150606085013561076c816104b2565b939692955090935050565b6001600160a01b038581168252841660208201526080604082018190526000906107a390830185610675565b905082606083015295945050505050565b600083516107c6818460208801610651565b919091019182525060200191905056fe608060405234801561001057600080fd5b5060405161017238038061017283398101604081905261002f916100b9565b6001600160a01b0381166100945760405162461bcd60e51b815260206004820152602260248201527f496e76616c69642073696e676c65746f6e20616464726573732070726f766964604482015261195960f21b606482015260840160405180910390fd5b600080546001600160a01b0319166001600160a01b03929092169190911790556100e9565b6000602082840312156100cb57600080fd5b81516001600160a01b03811681146100e257600080fd5b9392505050565b607b806100f76000396000f3fe6080604052600080546001600160a01b0316632cf35bc960e11b823501602757808252602082f35b3682833781823684845af490503d82833e806040573d82fd5b503d81f3fea26469706673582212202a82020ee2d81eb9cb2da64661cbaa888f3daef06b1b83b098cc0c3c369d47c364736f6c634300081100336080604052600080546001600160a01b0316632cf35bc960e11b823501602757808252602082f35b3682833781823684845af490503d82833e806040573d82fd5b503d81f3fea26469706673582212202a82020ee2d81eb9cb2da64661cbaa888f3daef06b1b83b098cc0c3c369d47c364736f6c63430008110033a26469706673582212201c292429a2fe16fcdcd93be216ba8ca99fe85767caa5247f0a6a14037f11ed5c64736f6c63430008110033",
  "linkReferences": {},
  "deployedLinkReferences": {}
}