{
  "_format": "hh-sol-artifact-1",
  "contractName": "ERC777PresetFixedSupplyUpgradeable",
  "sourceName": "contracts/openzeppelin-upgradeable/token/ERC777/presets/ERC777PresetFixedSupplyUpgradeable.sol",
  "abi": [
    {
      "anonymous": false,
      "inputs": [
        {
          "indexed": true,
          "internalType": "address",
          "name": "owner",
          "type": "address"
        },
        {
          "indexed": true,
          "internalType": "address",
          "name": "spender",
          "type": "address"
        },
        {
          "indexed": false,
          "internalType": "uint256",
          "name": "value",
          "type": "uint256"
        }
      ],
      "name": "Approval",
      "type": "event"
    },
    {
      "anonymous": false,
      "inputs": [
        {
          "indexed": true,
          "internalType": "address",
          "name": "operator",
          "type": "address"
        },
        {
          "indexed": true,
          "internalType": "address",
          "name": "tokenHolder",
          "type": "address"
        }
      ],
      "name": "AuthorizedOperator",
      "type": "event"
    },
    {
      "anonymous": false,
      "inputs": [
        {
          "indexed": true,
          "internalType": "address",
          "name": "operator",
          "type": "address"
        },
        {
          "indexed": true,
          "internalType": "address",
          "name": "from",
          "type": "address"
        },
        {
          "indexed": false,
          "internalType": "uint256",
          "name": "amount",
          "type": "uint256"
        },
        {
          "indexed": false,
          "internalType": "bytes",
          "name": "data",
          "type": "bytes"
        },
        {
          "indexed": false,
          "internalType": "bytes",
          "name": "operatorData",
          "type": "bytes"
        }
      ],
      "name": "Burned",
      "type": "event"
    },
    {
      "anonymous": false,
      "inputs": [
        {
          "indexed": true,
          "internalType": "address",
          "name": "operator",
          "type": "address"
        },
        {
          "indexed": true,
          "internalType": "address",
          "name": "to",
          "type": "address"
        },
        {
          "indexed": false,
          "internalType": "uint256",
          "name": "amount",
          "type": "uint256"
        },
        {
          "indexed": false,
          "internalType": "bytes",
          "name": "data",
          "type": "bytes"
        },
        {
          "indexed": false,
          "internalType": "bytes",
          "name": "operatorData",
          "type": "bytes"
        }
      ],
      "name": "Minted",
      "type": "event"
    },
    {
      "anonymous": false,
      "inputs": [
        {
          "indexed": true,
          "internalType": "address",
          "name": "operator",
          "type": "address"
        },
        {
          "indexed": true,
          "internalType": "address",
          "name": "tokenHolder",
          "type": "address"
        }
      ],
      "name": "RevokedOperator",
      "type": "event"
    },
    {
      "anonymous": false,
      "inputs": [
        {
          "indexed": true,
          "internalType": "address",
          "name": "operator",
          "type": "address"
        },
        {
          "indexed": true,
          "internalType": "address",
          "name": "from",
          "type": "address"
        },
        {
          "indexed": true,
          "internalType": "address",
          "name": "to",
          "type": "address"
        },
        {
          "indexed": false,
          "internalType": "uint256",
          "name": "amount",
          "type": "uint256"
        },
        {
          "indexed": false,
          "internalType": "bytes",
          "name": "data",
          "type": "bytes"
        },
        {
          "indexed": false,
          "internalType": "bytes",
          "name": "operatorData",
          "type": "bytes"
        }
      ],
      "name": "Sent",
      "type": "event"
    },
    {
      "anonymous": false,
      "inputs": [
        {
          "indexed": true,
          "internalType": "address",
          "name": "from",
          "type": "address"
        },
        {
          "indexed": true,
          "internalType": "address",
          "name": "to",
          "type": "address"
        },
        {
          "indexed": false,
          "internalType": "uint256",
          "name": "value",
          "type": "uint256"
        }
      ],
      "name": "Transfer",
      "type": "event"
    },
    {
      "inputs": [
        {
          "internalType": "address",
          "name": "holder",
          "type": "address"
        },
        {
          "internalType": "address",
          "name": "spender",
          "type": "address"
        }
      ],
      "name": "allowance",
      "outputs": [
        {
          "internalType": "uint256",
          "name": "",
          "type": "uint256"
        }
      ],
      "stateMutability": "view",
      "type": "function"
    },
    {
      "inputs": [
        {
          "internalType": "address",
          "name": "spender",
          "type": "address"
        },
        {
          "internalType": "uint256",
          "name": "value",
          "type": "uint256"
        }
      ],
      "name": "approve",
      "outputs": [
        {
          "internalType": "bool",
          "name": "",
          "type": "bool"
        }
      ],
      "stateMutability": "nonpayable",
      "type": "function"
    },
    {
      "inputs": [
        {
          "internalType": "address",
          "name": "operator",
          "type": "address"
        }
      ],
      "name": "authorizeOperator",
      "outputs": [],
      "stateMutability": "nonpayable",
      "type": "function"
    },
    {
      "inputs": [
        {
          "internalType": "address",
          "name": "tokenHolder",
          "type": "address"
        }
      ],
      "name": "balanceOf",
      "outputs": [
        {
          "internalType": "uint256",
          "name": "",
          "type": "uint256"
        }
      ],
      "stateMutability": "view",
      "type": "function"
    },
    {
      "inputs": [
        {
          "internalType": "uint256",
          "name": "amount",
          "type": "uint256"
        },
        {
          "internalType": "bytes",
          "name": "data",
          "type": "bytes"
        }
      ],
      "name": "burn",
      "outputs": [],
      "stateMutability": "nonpayable",
      "type": "function"
    },
    {
      "inputs": [],
      "name": "decimals",
      "outputs": [
        {
          "internalType": "uint8",
          "name": "",
          "type": "uint8"
        }
      ],
      "stateMutability": "pure",
      "type": "function"
    },
    {
      "inputs": [],
      "name": "defaultOperators",
      "outputs": [
        {
          "internalType": "address[]",
          "name": "",
          "type": "address[]"
        }
      ],
      "stateMutability": "view",
      "type": "function"
    },
    {
      "inputs": [],
      "name": "granularity",
      "outputs": [
        {
          "internalType": "uint256",
          "name": "",
          "type": "uint256"
        }
      ],
      "stateMutability": "view",
      "type": "function"
    },
    {
      "inputs": [
        {
          "internalType": "string",
          "name": "name",
          "type": "string"
        },
        {
          "internalType": "string",
          "name": "symbol",
          "type": "string"
        },
        {
          "internalType": "address[]",
          "name": "defaultOperators",
          "type": "address[]"
        },
        {
          "internalType": "uint256",
          "name": "initialSupply",
          "type": "uint256"
        },
        {
          "internalType": "address",
          "name": "owner",
          "type": "address"
        }
      ],
      "name": "initialize",
      "outputs": [],
      "stateMutability": "nonpayable",
      "type": "function"
    },
    {
      "inputs": [
        {
          "internalType": "address",
          "name": "operator",
          "type": "address"
        },
        {
          "internalType": "address",
          "name": "tokenHolder",
          "type": "address"
        }
      ],
      "name": "isOperatorFor",
      "outputs": [
        {
          "internalType": "bool",
          "name": "",
          "type": "bool"
        }
      ],
      "stateMutability": "view",
      "type": "function"
    },
    {
      "inputs": [],
      "name": "name",
      "outputs": [
        {
          "internalType": "string",
          "name": "",
          "type": "string"
        }
      ],
      "stateMutability": "view",
      "type": "function"
    },
    {
      "inputs": [
        {
          "internalType": "address",
          "name": "account",
          "type": "address"
        },
        {
          "internalType": "uint256",
          "name": "amount",
          "type": "uint256"
        },
        {
          "internalType": "bytes",
          "name": "data",
          "type": "bytes"
        },
        {
          "internalType": "bytes",
          "name": "operatorData",
          "type": "bytes"
        }
      ],
      "name": "operatorBurn",
      "outputs": [],
      "stateMutability": "nonpayable",
      "type": "function"
    },
    {
      "inputs": [
        {
          "internalType": "address",
          "name": "sender",
          "type": "address"
        },
        {
          "internalType": "address",
          "name": "recipient",
          "type": "address"
        },
        {
          "internalType": "uint256",
          "name": "amount",
          "type": "uint256"
        },
        {
          "internalType": "bytes",
          "name": "data",
          "type": "bytes"
        },
        {
          "internalType": "bytes",
          "name": "operatorData",
          "type": "bytes"
        }
      ],
      "name": "operatorSend",
      "outputs": [],
      "stateMutability": "nonpayable",
      "type": "function"
    },
    {
      "inputs": [
        {
          "internalType": "address",
          "name": "operator",
          "type": "address"
        }
      ],
      "name": "revokeOperator",
      "outputs": [],
      "stateMutability": "nonpayable",
      "type": "function"
    },
    {
      "inputs": [
        {
          "internalType": "address",
          "name": "recipient",
          "type": "address"
        },
        {
          "internalType": "uint256",
          "name": "amount",
          "type": "uint256"
        },
        {
          "internalType": "bytes",
          "name": "data",
          "type": "bytes"
        }
      ],
      "name": "send",
      "outputs": [],
      "stateMutability": "nonpayable",
      "type": "function"
    },
    {
      "inputs": [],
      "name": "symbol",
      "outputs": [
        {
          "internalType": "string",
          "name": "",
          "type": "string"
        }
      ],
      "stateMutability": "view",
      "type": "function"
    },
    {
      "inputs": [],
      "name": "totalSupply",
      "outputs": [
        {
          "internalType": "uint256",
          "name": "",
          "type": "uint256"
        }
      ],
      "stateMutability": "view",
      "type": "function"
    },
    {
      "inputs": [
        {
          "internalType": "address",
          "name": "recipient",
          "type": "address"
        },
        {
          "internalType": "uint256",
          "name": "amount",
          "type": "uint256"
        }
      ],
      "name": "transfer",
      "outputs": [
        {
          "internalType": "bool",
          "name": "",
          "type": "bool"
        }
      ],
      "stateMutability": "nonpayable",
      "type": "function"
    },
    {
      "inputs": [
        {
          "internalType": "address",
          "name": "holder",
          "type": "address"
        },
        {
          "internalType": "address",
          "name": "recipient",
          "type": "address"
        },
        {
          "internalType": "uint256",
          "name": "amount",
          "type": "uint256"
        }
      ],
      "name": "transferFrom",
      "outputs": [
        {
          "internalType": "bool",
          "name": "",
          "type": "bool"
        }
      ],
      "stateMutability": "nonpayable",
      "type": "function"
    }
  ],
  "bytecode": "0x608060405234801561001057600080fd5b5061203a806100206000396000f3fe608060405234801561001057600080fd5b50600436106101215760003560e01c8063768f950a116100ad578063d95b637111610071578063d95b637114610249578063dd62ed3e1461025c578063fad8b32a14610295578063fc673c4f146102a8578063fe9d9303146102bb57600080fd5b8063768f950a146101f5578063959b8c3f1461020857806395d89b411461021b5780639bd9bbc614610223578063a9059cbb1461023657600080fd5b806323b872dd116100f457806323b872dd1461018e578063313ce567146101a1578063556f0dc7146101b057806362ad1b83146101b757806370a08231146101cc57600080fd5b806306e485381461012657806306fdde0314610144578063095ea7b31461015957806318160ddd1461017c575b600080fd5b61012e6102ce565b60405161013b91906117c4565b60405180910390f35b61014c610330565b60405161013b9190611857565b61016c61016736600461188f565b6103b9565b604051901515815260200161013b565b6034545b60405190815260200161013b565b61016c61019c3660046118bb565b6103d3565b6040516012815260200161013b565b6001610180565b6101ca6101c53660046119b3565b61059c565b005b6101806101da366004611a46565b6001600160a01b031660009081526033602052604090205490565b6101ca610203366004611a63565b6105d8565b6101ca610216366004611a46565b610656565b61014c610773565b6101ca610231366004611b76565b610782565b61016c61024436600461188f565b6107a5565b61016c610257366004611bcf565b610858565b61018061026a366004611bcf565b6001600160a01b039182166000908152603b6020908152604080832093909416825291909152205490565b6101ca6102a3366004611a46565b6108fa565b6101ca6102b6366004611c08565b610a15565b6101ca6102c9366004611c88565b610a4d565b6060603780548060200260200160405190810160405280929190818152602001828054801561032657602002820191906000526020600020905b81546001600160a01b03168152600190910190602001808311610308575b5050505050905090565b60606035805461033f90611ccf565b80601f016020809104026020016040519081016040528092919081815260200182805461036b90611ccf565b80156103265780601f1061038d57610100808354040283529160200191610326565b820191906000526020600020905b81548152906001019060200180831161039b57509395945050505050565b6000336103c7818585610a6c565b60019150505b92915050565b60006001600160a01b0383166104045760405162461bcd60e51b81526004016103fb90611d09565b60405180910390fd5b6001600160a01b0384166104695760405162461bcd60e51b815260206004820152602660248201527f4552433737373a207472616e736665722066726f6d20746865207a65726f206160448201526564647265737360d01b60648201526084016103fb565b600033905061049a818686866040518060200160405280600081525060405180602001604052806000815250610b93565b6104c6818686866040518060200160405280600081525060405180602001604052806000815250610cbb565b6001600160a01b038086166000908152603b60209081526040808320938516835292905220548381101561054e5760405162461bcd60e51b815260206004820152602960248201527f4552433737373a207472616e7366657220616d6f756e74206578636565647320604482015268616c6c6f77616e636560b81b60648201526084016103fb565b610562868361055d8785611d63565b610a6c565b6105908287878760405180602001604052806000815250604051806020016040528060008152506000610e21565b50600195945050505050565b6105a63386610858565b6105c25760405162461bcd60e51b81526004016103fb90611d76565b6105d185858585856001610fe6565b5050505050565b600054610100900460ff16806105f1575060005460ff16155b61060d5760405162461bcd60e51b81526004016103fb90611dc2565b600054610100900460ff1615801561062f576000805461ffff19166101011790555b61063c86868686866110c9565b801561064e576000805461ff00191690555b505050505050565b6001600160a01b03811633036106ba5760405162461bcd60e51b8152602060048201526024808201527f4552433737373a20617574686f72697a696e672073656c66206173206f70657260448201526330ba37b960e11b60648201526084016103fb565b6001600160a01b03811660009081526038602052604090205460ff161561070b57336000908152603a602090815260408083206001600160a01b03851684529091529020805460ff1916905561073a565b3360009081526039602090815260408083206001600160a01b03851684529091529020805460ff191660011790555b60405133906001600160a01b038316907ff4caeb2d6ca8932a215a353d0703c326ec2d81fc68170f320eb2ab49e9df61f990600090a350565b60606036805461033f90611ccf565b6107a033848484604051806020016040528060008152506001610fe6565b505050565b60006001600160a01b0383166107cd5760405162461bcd60e51b81526004016103fb90611d09565b60003390506107fe818286866040518060200160405280600081525060405180602001604052806000815250610b93565b61082a818286866040518060200160405280600081525060405180602001604052806000815250610cbb565b6103c78182868660405180602001604052806000815250604051806020016040528060008152506000610e21565b6000816001600160a01b0316836001600160a01b031614806108c357506001600160a01b03831660009081526038602052604090205460ff1680156108c357506001600160a01b038083166000908152603a602090815260408083209387168352929052205460ff16155b806108f357506001600160a01b0380831660009081526039602090815260408083209387168352929052205460ff165b9392505050565b336001600160a01b0382160361095c5760405162461bcd60e51b815260206004820152602160248201527f4552433737373a207265766f6b696e672073656c66206173206f70657261746f6044820152603960f91b60648201526084016103fb565b6001600160a01b03811660009081526038602052604090205460ff16156109b057336000908152603a602090815260408083206001600160a01b03851684529091529020805460ff191660011790556109dc565b3360009081526039602090815260408083206001600160a01b03851684529091529020805460ff191690555b60405133906001600160a01b038316907f50546e66e5f44d728365dc3908c63bc5cfeeab470722c1677e3073a6ac294aa190600090a350565b610a1f3385610858565b610a3b5760405162461bcd60e51b81526004016103fb90611d76565b610a4784848484611140565b50505050565b610a6833838360405180602001604052806000815250611140565b5050565b6001600160a01b038316610ad05760405162461bcd60e51b815260206004820152602560248201527f4552433737373a20617070726f76652066726f6d20746865207a65726f206164604482015264647265737360d81b60648201526084016103fb565b6001600160a01b038216610b325760405162461bcd60e51b815260206004820152602360248201527f4552433737373a20617070726f766520746f20746865207a65726f206164647260448201526265737360e81b60648201526084016103fb565b6001600160a01b038381166000818152603b602090815260408083209487168084529482529182902085905590518481527f8c5be1e5ebec7d5bd14f71427d1e84f3dd0314c0f7b2291e5b200ac8c7c3b925910160405180910390a3505050565b60405163555ddc6560e11b81526001600160a01b03861660048201527f29ddb589b1fb5fc7cf394961c1adf5f8c6454761adf795e67fe149f658abe8956024820152600090731820a4b7618bde71dce8cdc73aab6c95905fad249063aabbb8ca90604401602060405180830381865afa158015610c14573d6000803e3d6000fd5b505050506040513d601f19601f82011682018060405250810190610c389190611e10565b90506001600160a01b03811615610cb257604051633ad5cbc160e11b81526001600160a01b038216906375ab978290610c7f908a908a908a908a908a908a90600401611e2d565b600060405180830381600087803b158015610c9957600080fd5b505af1158015610cad573d6000803e3d6000fd5b505050505b50505050505050565b6001600160a01b03851660009081526033602052604090205483811015610d345760405162461bcd60e51b815260206004820152602760248201527f4552433737373a207472616e7366657220616d6f756e7420657863656564732060448201526662616c616e636560c81b60648201526084016103fb565b6001600160a01b03808716600090815260336020526040808220878503905591871681529081208054869290610d6b908490611e87565b92505081905550846001600160a01b0316866001600160a01b0316886001600160a01b03167f06b541ddaa720db2b10a4d0cdac39b8d360425fc073085fac19bc82614677987878787604051610dc393929190611e9a565b60405180910390a4846001600160a01b0316866001600160a01b03167fddf252ad1be2c89b69c2b068fc378daa952ba7f163c4a11628f55a4df523b3ef86604051610e1091815260200190565b60405180910390a350505050505050565b60405163555ddc6560e11b81526001600160a01b03861660048201527fb281fc8c12954d22544db45de3159a39272895b169a852b314f9cc762e44c53b6024820152600090731820a4b7618bde71dce8cdc73aab6c95905fad249063aabbb8ca90604401602060405180830381865afa158015610ea2573d6000803e3d6000fd5b505050506040513d601f19601f82011682018060405250810190610ec69190611e10565b90506001600160a01b03811615610f42576040516223de2960e01b81526001600160a01b038216906223de2990610f0b908b908b908b908b908b908b90600401611e2d565b600060405180830381600087803b158015610f2557600080fd5b505af1158015610f39573d6000803e3d6000fd5b50505050610fdc565b8115610fdc576001600160a01b0386163b15610fdc5760405162461bcd60e51b815260206004820152604d60248201527f4552433737373a20746f6b656e20726563697069656e7420636f6e747261637460448201527f20686173206e6f20696d706c656d656e74657220666f7220455243373737546f60648201526c1ad95b9cd49958da5c1a595b9d609a1b608482015260a4016103fb565b5050505050505050565b6001600160a01b0386166110475760405162461bcd60e51b815260206004820152602260248201527f4552433737373a2073656e642066726f6d20746865207a65726f206164647265604482015261737360f01b60648201526084016103fb565b6001600160a01b03851661109d5760405162461bcd60e51b815260206004820181905260248201527f4552433737373a2073656e6420746f20746865207a65726f206164647265737360448201526064016103fb565b336110ac818888888888610b93565b6110ba818888888888610cbb565b610cb281888888888888610e21565b600054610100900460ff16806110e2575060005460ff16155b6110fe5760405162461bcd60e51b81526004016103fb90611dc2565b600054610100900460ff16158015611120576000805461ffff19166101011790555b6111286112f5565b611133868686611361565b61063c8686868686611588565b6001600160a01b0384166111a15760405162461bcd60e51b815260206004820152602260248201527f4552433737373a206275726e2066726f6d20746865207a65726f206164647265604482015261737360f01b60648201526084016103fb565b336111b181866000878787610b93565b6001600160a01b038516600090815260336020526040902054848110156112265760405162461bcd60e51b815260206004820152602360248201527f4552433737373a206275726e20616d6f756e7420657863656564732062616c616044820152626e636560e81b60648201526084016103fb565b6001600160a01b0386166000908152603360205260408120868303905560348054879290611255908490611d63565b92505081905550856001600160a01b0316826001600160a01b03167fa78a9be3a7b862d26933ad85fb11d80ef66b8f972d7cbba06621d583943a40988787876040516112a393929190611e9a565b60405180910390a36040518581526000906001600160a01b038816907fddf252ad1be2c89b69c2b068fc378daa952ba7f163c4a11628f55a4df523b3ef906020015b60405180910390a3505050505050565b600054610100900460ff168061130e575060005460ff16155b61132a5760405162461bcd60e51b81526004016103fb90611dc2565b600054610100900460ff1615801561134c576000805461ffff19166101011790555b801561135e576000805461ff00191690555b50565b600054610100900460ff168061137a575060005460ff16155b6113965760405162461bcd60e51b81526004016103fb90611dc2565b600054610100900460ff161580156113b8576000805461ffff19166101011790555b60356113c48582611f15565b5060366113d18482611f15565b5081516113e590603790602085019061174a565b5060005b825181101561144e5760016038600085848151811061140a5761140a611fd5565b6020908102919091018101516001600160a01b03168252810191909152604001600020805460ff19169115159190911790558061144681611feb565b9150506113e9565b506040516329965a1d60e01b815230600482018190527fac7fbab5f54a3ca8194167523c6753bfeb96a445279294b6125b68cce217705460248301526044820152731820a4b7618bde71dce8cdc73aab6c95905fad24906329965a1d90606401600060405180830381600087803b1580156114c857600080fd5b505af11580156114dc573d6000803e3d6000fd5b50506040516329965a1d60e01b815230600482018190527faea199e31a596269b42cdafd93407f14436db6e4cad65417994c2eb37381e05a60248301526044820152731820a4b7618bde71dce8cdc73aab6c95905fad2492506329965a1d9150606401600060405180830381600087803b15801561155957600080fd5b505af115801561156d573d6000803e3d6000fd5b505050508015610a47576000805461ff001916905550505050565b600054610100900460ff16806115a1575060005460ff16155b6115bd5760405162461bcd60e51b81526004016103fb90611dc2565b600054610100900460ff161580156115df576000805461ffff19166101011790555b61063c82846040518060200160405280600081525060405180602001604052806000815250610a478484848460016001600160a01b0385166116635760405162461bcd60e51b815260206004820181905260248201527f4552433737373a206d696e7420746f20746865207a65726f206164647265737360448201526064016103fb565b6000339050846034600082825461167a9190611e87565b90915550506001600160a01b038616600090815260336020526040812080548792906116a7908490611e87565b909155506116bd90508160008888888888610e21565b856001600160a01b0316816001600160a01b03167f2fe5be0146f74c5bce36c0b80911af6c7d86ff27e89d5cfa61fc681327954e5d87878760405161170493929190611e9a565b60405180910390a36040518581526001600160a01b038716906000907fddf252ad1be2c89b69c2b068fc378daa952ba7f163c4a11628f55a4df523b3ef906020016112e5565b82805482825590600052602060002090810192821561179f579160200282015b8281111561179f57825182546001600160a01b0319166001600160a01b0390911617825560209092019160019091019061176a565b506117ab9291506117af565b5090565b5b808211156117ab57600081556001016117b0565b6020808252825182820181905260009190848201906040850190845b818110156118055783516001600160a01b0316835292840192918401916001016117e0565b50909695505050505050565b6000815180845260005b818110156118375760208185018101518683018201520161181b565b506000602082860101526020601f19601f83011685010191505092915050565b6020815260006108f36020830184611811565b6001600160a01b038116811461135e57600080fd5b803561188a8161186a565b919050565b600080604083850312156118a257600080fd5b82356118ad8161186a565b946020939093013593505050565b6000806000606084860312156118d057600080fd5b83356118db8161186a565b925060208401356118eb8161186a565b929592945050506040919091013590565b634e487b7160e01b600052604160045260246000fd5b604051601f8201601f1916810167ffffffffffffffff8111828210171561193b5761193b6118fc565b604052919050565b600082601f83011261195457600080fd5b813567ffffffffffffffff81111561196e5761196e6118fc565b611981601f8201601f1916602001611912565b81815284602083860101111561199657600080fd5b816020850160208301376000918101602001919091529392505050565b600080600080600060a086880312156119cb57600080fd5b85356119d68161186a565b945060208601356119e68161186a565b935060408601359250606086013567ffffffffffffffff80821115611a0a57600080fd5b611a1689838a01611943565b93506080880135915080821115611a2c57600080fd5b50611a3988828901611943565b9150509295509295909350565b600060208284031215611a5857600080fd5b81356108f38161186a565b600080600080600060a08688031215611a7b57600080fd5b853567ffffffffffffffff80821115611a9357600080fd5b611a9f89838a01611943565b9650602091508188013581811115611ab657600080fd5b611ac28a828b01611943565b965050604088013581811115611ad757600080fd5b8801601f81018a13611ae857600080fd5b803582811115611afa57611afa6118fc565b8060051b9250611b0b848401611912565b818152928201840192848101908c851115611b2557600080fd5b928501925b84841015611b4f5783359250611b3f8361186a565b8282529285019290850190611b2a565b975050505060608801359350611b6a9150506080870161187f565b90509295509295909350565b600080600060608486031215611b8b57600080fd5b8335611b968161186a565b925060208401359150604084013567ffffffffffffffff811115611bb957600080fd5b611bc586828701611943565b9150509250925092565b60008060408385031215611be257600080fd5b8235611bed8161186a565b91506020830135611bfd8161186a565b809150509250929050565b60008060008060808587031215611c1e57600080fd5b8435611c298161186a565b935060208501359250604085013567ffffffffffffffff80821115611c4d57600080fd5b611c5988838901611943565b93506060870135915080821115611c6f57600080fd5b50611c7c87828801611943565b91505092959194509250565b60008060408385031215611c9b57600080fd5b82359150602083013567ffffffffffffffff811115611cb957600080fd5b611cc585828601611943565b9150509250929050565b600181811c90821680611ce357607f821691505b602082108103611d0357634e487b7160e01b600052602260045260246000fd5b50919050565b60208082526024908201527f4552433737373a207472616e7366657220746f20746865207a65726f206164646040820152637265737360e01b606082015260800190565b634e487b7160e01b600052601160045260246000fd5b818103818111156103cd576103cd611d4d565b6020808252602c908201527f4552433737373a2063616c6c6572206973206e6f7420616e206f70657261746f60408201526b39103337b9103437b63232b960a11b606082015260800190565b6020808252602e908201527f496e697469616c697a61626c653a20636f6e747261637420697320616c72656160408201526d191e481a5b9a5d1a585b1a5e995960921b606082015260800190565b600060208284031215611e2257600080fd5b81516108f38161186a565b6001600160a01b0387811682528681166020830152851660408201526060810184905260c060808201819052600090611e6890830185611811565b82810360a0840152611e7a8185611811565b9998505050505050505050565b808201808211156103cd576103cd611d4d565b838152606060208201526000611eb36060830185611811565b8281036040840152611ec58185611811565b9695505050505050565b601f8211156107a057600081815260208120601f850160051c81016020861015611ef65750805b601f850160051c820191505b8181101561064e57828155600101611f02565b815167ffffffffffffffff811115611f2f57611f2f6118fc565b611f4381611f3d8454611ccf565b84611ecf565b602080601f831160018114611f785760008415611f605750858301515b600019600386901b1c1916600185901b17855561064e565b600085815260208120601f198616915b82811015611fa757888601518255948401946001909101908401611f88565b5085821015611fc55787850151600019600388901b60f8161c191681555b5050505050600190811b01905550565b634e487b7160e01b600052603260045260246000fd5b600060018201611ffd57611ffd611d4d565b506001019056fea26469706673582212202dc4da5da02b084baedb37e4b81cdd21eafa52470ac79b6139150863b2224c1d64736f6c63430008110033",
  "linkReferences": {},
  "deployedLinkReferences": {}
}