{
	"data": {
		"bytecode": {
			"linkReferences": {},
			"object": "6080604052600060cc5534801561001557600080fd5b506001606555615df2806200002b6000396000f3fe608060405234801561001057600080fd5b50600436106102345760003560e01c80636d73e669116101375780636d73e66914610455578063715018a6146104685780638129fc1c1461047057806382dcc0c81461047857806383b7db631461048b5780638c6e8472146104935780638da5cb5b146104a657806399e0dd7c146104ae578063a22cb465146104c1578063aafb2d44146104d4578063ac0c8cfa146104e7578063b0fe87c9146104fa578063b9c4d9fb1461050d578063bb3bafd614610520578063bd85b03914610541578063ce8aee9d14610561578063d5a06d4c14610520578063e6c884dc14610574578063e92a89f614610587578063e985e9c51461059a578063f0cdc499146105ad578063f242432a146105c0578063f2fde38b146105d3578063feeb5a9a146105e657600080fd5b8062fdd58e1461023957806301ffc9a71461025f57806302e7afb7146102825780630e89341c146102975780630ebd4c7f146102b7578063162094c4146102d757806320e4afe2146102ea578063239be317146102fd57806324d7806c146103285780632a55205a1461033b5780632d3456701461035c5780632eb2c2d61461036f57806330176e13146103825780633071a0f91461039557806331ae450b146103a8578063332dd1ae146103bd5780633db0f8ab146103d05780633e6134b8146103e35780633f0f37f6146103f65780634e1273f41461040957806361e5bc6b1461041c57806366d1e9d01461042f578063695c96e614610442575b600080fd5b61024c610247366004614758565b6105f9565b6040519081526020015b60405180910390f35b61027261026d36600461479a565b610695565b6040519015158152602001610256565b6102956102903660046147b7565b6106be565b005b6102aa6102a53660046147d4565b61070a565b604051610256919061483d565b6102ca6102c53660046147d4565b610715565b604051610256919061488b565b6102956102e53660046148df565b610776565b6102956102f836600461496e565b6107c6565b61031061030b3660046147d4565b61081a565b6040516001600160a01b039091168152602001610256565b6102726103363660046147b7565b610825565b61034e6103493660046149e7565b610854565b604051610256929190614a09565b61029561036a3660046147b7565b61086d565b61029561037d366004614b85565b6108f1565b610295610390366004614c32565b610981565b6102956103a3366004614c73565b610a00565b6103b0610a7c565b6040516102569190614ce7565b6102956103cb366004614cfa565b610b2a565b6102956103de366004614d65565b610b77565b6102956103f1366004614c32565b610c94565b610295610404366004614de8565b610cc7565b6102ca610417366004614e4f565b610d3c565b61029561042a366004614f1b565b610e65565b61029561043d366004614c32565b610f10565b610295610450366004614f76565b610f41565b6102956104633660046147b7565b611105565b610295611184565b6102956111bf565b61029561048636600461500f565b61124a565b6103b061127c565b6102ca6104a1366004614f76565b611326565b610310611400565b6102956104bc366004614c32565b61140f565b6102956104cf366004615065565b611459565b6102956104e2366004614f1b565b611464565b6102956104f536600461509e565b611528565b6102956105083660046150bb565b61164e565b6103b061051b3660046147d4565b61169b565b61053361052e3660046147d4565b611705565b6040516102569291906150fa565b61024c61054f3660046147d4565b600090815260dc602052604090205490565b61029561056f3660046147b7565b6117c4565b610295610582366004614f76565b61180d565b6102956105953660046148df565b6119b1565b6102726105a8366004615128565b6119e3565b6102956105bb366004615128565b611a11565b6102956105ce366004615156565b611a5b565b6102956105e13660046147b7565b611ae2565b6102ca6105f4366004614f76565b611b7f565b60006001600160a01b03831661066a5760405162461bcd60e51b815260206004820152602b60248201527f455243313135353a2062616c616e636520717565727920666f7220746865207a60448201526a65726f206164647265737360a81b60648201526084015b60405180910390fd5b506000818152609a602090815260408083206001600160a01b03861684529091529020545b92915050565b60006106a082611c5d565b806106af57506106af82611c82565b8061068f575061068f82611cc2565b336106c7611400565b6001600160a01b031614806106e257506106e2606633611ce7565b6106fe5760405162461bcd60e51b8152600401610661906151be565b61070781611d0c565b50565b606061068f82611e03565b60606107208261207d565b80548060200260200160405190810160405280929190818152602001828054801561076a57602002820191906000526020600020905b815481526020019060010190808311610756575b50505050509050919050565b3361077f611400565b6001600160a01b0316148061079a575061079a606633611ce7565b6107b65760405162461bcd60e51b8152600401610661906151be565b6107c1838383612109565b505050565b336107cf611400565b6001600160a01b031614806107ea57506107ea606633611ce7565b6108065760405162461bcd60e51b8152600401610661906151be565b6108138585858585612158565b5050505050565b600061068f82612257565b6000816001600160a01b0316610839611400565b6001600160a01b0316148061068f575061068f606683611ce7565b60008061086184846122e4565b915091505b9250929050565b33610876611400565b6001600160a01b03161461089c5760405162461bcd60e51b815260040161066190615202565b6108a7606682611ce7565b156107075760405133906001600160a01b038316907f7c0c3c84c67c85fcac635147348bfe374c24a1a93d0366d1cfe9d8853cbf89d590600090a36108ed6066826123ce565b5050565b6001600160a01b03851633148061090d575061090d85336119e3565b6109745760405162461bcd60e51b815260206004820152603260248201527f455243313135353a207472616e736665722063616c6c6572206973206e6f74206044820152711bdddb995c881b9bdc88185c1c1c9bdd995960721b6064820152608401610661565b61081385858585856123e3565b3361098a611400565b6001600160a01b031614806109a557506109a5606633611ce7565b6109c15760405162461bcd60e51b8152600401610661906151be565b6108ed82828080601f01602080910402602001604051908101604052809392919081815260200183838082843760009201919091525061257e92505050565b33610a09611400565b6001600160a01b03161480610a245750610a24606633611ce7565b610a405760405162461bcd60e51b8152600401610661906151be565b82610a4c60cf82611ce7565b15610a695760405162461bcd60e51b815260040161066190615237565b610a768484846000612597565b50505050565b6060610a8860666126d1565b6001600160401b03811115610a9f57610a9f614a22565b604051908082528060200260200182016040528015610ac8578160200160208202803683370190505b50905060005b610ad860666126d1565b811015610b2657610aea6066826126db565b828281518110610afc57610afc615266565b6001600160a01b039092166020928302919091019091015280610b1e81615292565b915050610ace565b5090565b33610b33611400565b6001600160a01b03161480610b4e5750610b4e606633611ce7565b610b6a5760405162461bcd60e51b8152600401610661906151be565b610a7630858585856126e7565b600260655403610b995760405162461bcd60e51b8152600401610661906152ab565b60026065556001600160a01b038316331480610bba5750610bba83336119e3565b610c065760405162461bcd60e51b815260206004820181905260248201527f43616c6c6572206973206e6f74206f776e6572206e6f7220617070726f7665646044820152606401610661565b8051825114610c275760405162461bcd60e51b8152600401610661906152e2565b8151600103610c7457610c6f8383600081518110610c4757610c47615266565b602002602001015183600081518110610c6257610c62615266565b6020026020010151612845565b610c7f565b610c7f838383612878565b610c8a8383836128fa565b5050600160655550565b610c9f60cd33611ce7565b610cbb5760405162461bcd60e51b815260040161066190615309565b6108ed82826000612a6e565b33610cd0611400565b6001600160a01b03161480610ceb5750610ceb606633611ce7565b610d075760405162461bcd60e51b8152600401610661906151be565b83610d1360cf82611ce7565b15610d305760405162461bcd60e51b815260040161066190615237565b61081385858585612597565b60608151835114610da15760405162461bcd60e51b815260206004820152602960248201527f455243313135353a206163636f756e747320616e6420696473206c656e677468604482015268040dad2e6dac2e8c6d60bb1b6064820152608401610661565b600083516001600160401b03811115610dbc57610dbc614a22565b604051908082528060200260200182016040528015610de5578160200160208202803683370190505b50905060005b8451811015610e5d57610e30858281518110610e0957610e09615266565b6020026020010151858381518110610e2357610e23615266565b60200260200101516105f9565b828281518110610e4257610e42615266565b6020908102919091010152610e5681615292565b9050610deb565b509392505050565b610e7060cd33611ce7565b610e8c5760405162461bcd60e51b815260040161066190615309565b82518114610eac5760405162461bcd60e51b8152600401610661906152e2565b60005b8351811015610a7657610efe848281518110610ecd57610ecd615266565b6020026020010151848484818110610ee757610ee7615266565b9050602002810190610ef9919061533f565b612aab565b80610f0881615292565b915050610eaf565b610f1b60cd33611ce7565b610f375760405162461bcd60e51b815260040161066190615309565b6108ed8282612ae1565b600260655403610f635760405162461bcd60e51b8152600401610661906152ab565b600260655533610f71611400565b6001600160a01b03161480610f8c5750610f8c606633611ce7565b610fa85760405162461bcd60e51b8152600401610661906151be565b60005b83811015611058573060d36000878785818110610fca57610fca615266565b60209081029290920135835250810191909152604001600020546001600160a01b0316146110465760405162461bcd60e51b815260206004820152602360248201527f4120746f6b656e20776173206372656174656420627920616e20657874656e7360448201526234b7b760e91b6064820152608401610661565b8061105081615292565b915050610fab565b506110f83087878080602002602001604051908101604052809392919081815260200183836020028082843760009201919091525050604080516020808b0282810182019093528a82529093508a92508991829185019084908082843760009201919091525050604080516020808a02828101820190935289825290935089925088918291850190849080828437600092019190915250612afb92505050565b5050600160655550505050565b3361110e611400565b6001600160a01b0316146111345760405162461bcd60e51b815260040161066190615202565b61113f606682611ce7565b6107075760405133906001600160a01b038316907f7e1a1a08d52e4ba0e21554733d66165fd5151f99460116223d9e3a608eec5cb190600090a36108ed606682612ddd565b3361118d611400565b6001600160a01b0316146111b35760405162461bcd60e51b815260040161066190615202565b6111bd6000612df2565b565b600054610100900460ff16806111d8575060005460ff16155b6111f45760405162461bcd60e51b815260040161066190615385565b600054610100900460ff16158015611216576000805461ffff19166101011790555b61122e60405180602001604052806000815250612e44565b611236612ec9565b8015610707576000805461ff001916905550565b61125560cd33611ce7565b6112715760405162461bcd60e51b815260040161066190615309565b6107c1838383612a6e565b606061128860cd6126d1565b6001600160401b0381111561129f5761129f614a22565b6040519080825280602002602001820160405280156112c8578160200160208202803683370190505b50905060005b6112d860cd6126d1565b811015610b26576112ea60cd826126db565b8282815181106112fc576112fc615266565b6001600160a01b03909216602092830291909101909101528061131e81615292565b9150506112ce565b606060026065540361134a5760405162461bcd60e51b8152600401610661906152ab565b600260655561135a60cd33611ce7565b6113765760405162461bcd60e51b815260040161066190615309565b6113f03388888080602002602001604051908101604052809392919081815260200183836020028082843760009201919091525050604080516020808c0282810182019093528b82529093508b92508a9182918501908490808284376000920191909152506113eb92508891508990506153d3565b612f30565b6001606555979650505050505050565b6033546001600160a01b031690565b33611418611400565b6001600160a01b031614806114335750611433606633611ce7565b61144f5760405162461bcd60e51b8152600401610661906151be565b6108ed82826132df565b6108ed3383836132f9565b3361146d611400565b6001600160a01b031614806114885750611488606633611ce7565b6114a45760405162461bcd60e51b8152600401610661906151be565b825181146114c45760405162461bcd60e51b8152600401610661906152e2565b60005b8351811015610a76576115168482815181106114e5576114e5615266565b60200260200101518484848181106114ff576114ff615266565b9050602002810190611511919061533f565b612109565b8061152081615292565b9150506114c7565b61153360cd33611ce7565b61154f5760405162461bcd60e51b815260040161066190615309565b8015806115685750611568336324ea02c560e21b6133d9565b6115dc576040805162461bcd60e51b81526020600482015260248101919091527f457874656e73696f6e206d75737420696d706c656d656e74204945524331313560448201527f3543726561746f72457874656e73696f6e417070726f76655472616e736665726064820152608401610661565b33600090815260d2602052604090205460ff161515811515146107075733600081815260d26020908152604091829020805460ff191685151590811790915591519182527f072a7592283e2c2d1d56d21517ff6013325e0f55483f4828373ff4d98b0a1a36910160405180910390a250565b33611657611400565b6001600160a01b031614806116725750611672606633611ce7565b61168e5760405162461bcd60e51b8152600401610661906151be565b61081385858585856126e7565b60606116a6826133f5565b80548060200260200160405190810160405280929190818152602001828054801561076a57602002820191906000526020600020905b81546001600160a01b031681526001909101906020018083116116dc5750505050509050919050565b60608061171183613481565b81546040805160208084028201810190925282815291849183018282801561176257602002820191906000526020600020905b81546001600160a01b03168152600190910190602001808311611744575b50505050509150808054806020026020016040519081016040528092919081815260200182805480156117b457602002820191906000526020600020905b8154815260200190600101908083116117a0575b5050505050905091509150915091565b336117cd611400565b6001600160a01b031614806117e857506117e8606633611ce7565b6118045760405162461bcd60e51b8152600401610661906151be565b6107078161349f565b60026065540361182f5760405162461bcd60e51b8152600401610661906152ab565b600260655561183f60cd33611ce7565b61185b5760405162461bcd60e51b815260040161066190615309565b60005b83811015611911573360d3600087878581811061187d5761187d615266565b60209081029290920135835250810191909152604001600020546001600160a01b0316146118ff5760405162461bcd60e51b815260206004820152602960248201527f4120746f6b656e20776173206e6f74206372656174656420627920746869732060448201526832bc3a32b739b4b7b760b91b6064820152608401610661565b8061190981615292565b91505061185e565b506110f83387878080602002602001604051908101604052809392919081815260200183836020028082843760009201919091525050604080516020808b0282810182019093528a82529093508a92508991829185019084908082843760009201919091525050604080516020808a02828101820190935289825290935089925088918291850190849080828437600092019190915250612afb92505050565b6119bc60cd33611ce7565b6119d85760405162461bcd60e51b815260040161066190615309565b6107c1838383612aab565b6001600160a01b039182166000908152609b6020908152604080832093909416825291909152205460ff1690565b33611a1a611400565b6001600160a01b03161480611a355750611a35606633611ce7565b611a515760405162461bcd60e51b8152600401610661906151be565b6108ed82826134f0565b6001600160a01b038516331480611a775750611a7785336119e3565b611ad55760405162461bcd60e51b815260206004820152602960248201527f455243313135353a2063616c6c6572206973206e6f74206f776e6572206e6f7260448201526808185c1c1c9bdd995960ba1b6064820152608401610661565b6108138585858585613619565b33611aeb611400565b6001600160a01b031614611b115760405162461bcd60e51b815260040161066190615202565b6001600160a01b038116611b765760405162461bcd60e51b815260206004820152602660248201527f4f776e61626c653a206e6577206f776e657220697320746865207a65726f206160448201526564647265737360d01b6064820152608401610661565b61070781612df2565b6060600260655403611ba35760405162461bcd60e51b8152600401610661906152ab565b600260655533611bb1611400565b6001600160a01b03161480611bcc5750611bcc606633611ce7565b611be85760405162461bcd60e51b8152600401610661906151be565b6113f03088888080602002602001604051908101604052809392919081815260200183836020028082843760009201919091525050604080516020808c0282810182019093528b82529093508b92508a9182918501908490808284376000920191909152506113eb92508891508990506153d3565b60006001600160e01b031982166301f4921160e61b148061068f575061068f82613737565b60006001600160e01b03198216636cdb3d1360e11b1480611cb357506001600160e01b031982166303a24d0760e21b145b8061068f575061068f826137cd565b60006001600160e01b03198216632a9f3abf60e11b148061068f575061068f826137cd565b6001600160a01b038116600090815260018301602052604081205415155b9392505050565b306001600160a01b03821603611d605760405162461bcd60e51b815260206004820152601960248201527821b0b73737ba10313630b1b5b634b9ba103cb7bab939b2b63360391b6044820152606401610661565b611d6b60cd82611ce7565b15611db35760405133906001600160a01b038316907fd19cf84cf0fec6bec9ddfa29c63adf83a55707c712f32c8285d6180a7890147990600090a3611db160cd826123ce565b505b611dbe60cf82611ce7565b6107075760405133906001600160a01b038316907f05ac7bc5a606cd92a63365f9fda244499b9add0526b22d99937b6bd88181059c90600090a36108ed60cf82612ddd565b600081815260d360205260409020546060906001600160a01b0316611e2960cf82611ce7565b15611e465760405162461bcd60e51b815260040161066190615237565b600083815260d7602052604090208054611e5f90615464565b159050611f79576001600160a01b038116600090815260d6602052604090208054611e8990615464565b159050611eda576001600160a01b038116600090815260d66020908152604080832086845260d78352928190209051611ec393920161550b565b604051602081830303815290604052915050919050565b600083815260d7602052604090208054611ef390615464565b80601f0160208091040260200160405190810160405280929190818152602001828054611f1f90615464565b8015611f6c5780601f10611f4157610100808354040283529160200191611f6c565b820191906000526020600020905b815481529060010190602001808311611f4f57829003601f168201915b5050505050915050919050565b611f8a8163e9dc637560e01b6133d9565b156120025760405163e9dc637560e01b81526001600160a01b0382169063e9dc637590611fbd9030908790600401614a09565b600060405180830381865afa158015611fda573d6000803e3d6000fd5b505050506040513d6000823e601f3d908101601f19168201604052611d059190810190615520565b6001600160a01b038116600090815260d5602052604090205460ff16612054576001600160a01b038116600090815260d460205260409020612043846137e3565b604051602001611ec3929190615597565b6001600160a01b038116600090815260d4602052604090208054611ef390615464565b50919050565b600081815260db6020526040812054156120a35750600090815260db6020526040902090565b600082815260d360209081526040808320546001600160a01b0316835260d9909152902054156120f55750600090815260d360209081526040808320546001600160a01b0316835260d9909152902090565b505030600090815260d96020526040902090565b600083815260d360205260409020546001600160a01b0316301461213f5760405162461bcd60e51b8152600401610661906155bc565b600083815260d760205260409020610a7682848361563e565b8281146121775760405162461bcd60e51b8152600401610661906152e2565b6000805b828110156121bb5783838281811061219557612195615266565b90506020020135826121a791906156f7565b9150806121b381615292565b91505061217b565b5061271081106121dd5760405162461bcd60e51b81526004016106619061570a565b600086815260da602052604090206121f6908686614694565b50600086815260db602052604090206122109084846146f3565b50857fabb46fe0761d77584bde75697647804ffd8113abd4d8d06bc664150395eccdee86868686604051612247949392919061573b565b60405180910390a2505050505050565b600081815260d360205260409020546001600160a01b03163081036122b75760405162461bcd60e51b815260206004820152601660248201527527379032bc3a32b739b4b7b7103337b9103a37b5b2b760511b6044820152606401610661565b6122c260cf82611ce7565b156122df5760405162461bcd60e51b815260040161066190615237565b919050565b60008060006122f2856133f5565b8054909150600110156123465760405162461bcd60e51b815260206004820152601c60248201527b26b7b932903a3430b71018903937bcb0b63a3c903932b1b2b4bb32b960211b6044820152606401610661565b805460000361235c573060009250925050610866565b8060008154811061236f5761236f615266565b6000918252602090912001546001600160a01b0316612710856123918861207d565b6000815481106123a3576123a3615266565b90600052602060002001546123b891906157b9565b6123c291906157e6565b92509250509250929050565b6000611d05836001600160a01b0384166138eb565b81518351146124045760405162461bcd60e51b8152600401610661906157fa565b6001600160a01b03841661242a5760405162461bcd60e51b815260040161066190615842565b336124398187878787876139de565b60005b845181101561252257600085828151811061245957612459615266565b60200260200101519050600085838151811061247757612477615266565b6020908102919091018101516000848152609a835260408082206001600160a01b038e1683529093529190912054909150818110156124c85760405162461bcd60e51b815260040161066190615887565b6000838152609a602090815260408083206001600160a01b038e8116855292528083208585039055908b168252812080548492906125079084906156f7565b925050819055505050508061251b90615292565b905061243c565b50846001600160a01b0316866001600160a01b0316826001600160a01b0316600080516020615d7d83398151915287876040516125609291906158d1565b60405180910390a46125768187878787876139ea565b505050505050565b30600090815260d4602052604090206108ed82826158e4565b306001600160a01b038516036125e25760405162461bcd60e51b815260206004820152601060248201526f10dc99585d1bdc8e88125b9d985b1a5960821b6044820152606401610661565b6001600160a01b0384163b6126475760405162461bcd60e51b815260206004820152602560248201527f43726561746f723a20457874656e73696f6e206d757374206265206120636f6e6044820152641d1c9858dd60da1b6064820152608401610661565b61265260cd85611ce7565b610a76576001600160a01b038416600090815260d46020526040902061267983858361563e565b506001600160a01b038416600081815260d56020526040808220805460ff1916851515179055513392917fd8cb8ba4086944eabf43c5535b7712015e4d4c714b24bf812c040ea5b7a3e42a91a361081360cd85612ddd565b600061068f825490565b6000611d058383613b45565b8281146127065760405162461bcd60e51b8152600401610661906152e2565b6000805b8281101561274a5783838281811061272457612724615266565b905060200201358261273691906156f7565b91508061274281615292565b91505061270a565b50612710811061276c5760405162461bcd60e51b81526004016106619061570a565b6001600160a01b038616600090815260d86020526040902061278f908686614694565b506001600160a01b038616600090815260d9602052604090206127b39084846146f3565b50306001600160a01b03871603612806577f2b6849d5976d799a5b0ca4dfd6b40a3d7afe9ea72c091fa01a958594f9a2659b858585856040516127f9949392919061573b565b60405180910390a1612576565b856001600160a01b03167f535a93d2cb000582c0ebeaa9be4890ec6a287f98eb2df00c54c300612fd78d8f86868686604051612247949392919061573b565b612850838383613b6f565b600082815260dc60205260408120805483929061286e90849061599d565b9091555050505050565b612883838383613c62565b60005b8251811015610a76578181815181106128a1576128a1615266565b602002602001015160dc60008584815181106128bf576128bf615266565b6020026020010151815260200190815260200160002060008282546128e4919061599d565b909155506128f3905081615292565b9050612886565b600082511161291b5760405162461bcd60e51b8152600401610661906152e2565b600060d360008460008151811061293457612934615266565b6020026020010151815260200190815260200160002060009054906101000a90046001600160a01b0316905060005b83518110156129df57816001600160a01b031660d3600086848151811061298c5761298c615266565b6020908102919091018101518252810191909152604001600020546001600160a01b0316146129cd5760405162461bcd60e51b8152600401610661906159b0565b806129d781615292565b915050612963565b506001600160a01b0381163014610a7657612a01816303dc6f6560e51b6133d9565b15610a76576040516303dc6f6560e51b81526001600160a01b03821690637b8deca090612a36908790879087906004016159e6565b600060405180830381600087803b158015612a5057600080fd5b505af1158015612a64573d6000803e3d6000fd5b5050505050505050565b33600090815260d460205260409020612a8883858361563e565b5033600090815260d560205260409020805460ff19169115159190911790555050565b600083815260d360205260409020546001600160a01b0316331461213f5760405162461bcd60e51b8152600401610661906155bc565b33600090815260d6602052604090206107c182848361563e565b6001600160a01b0384163014612b1657612b16838383613de1565b82516001148015612b28575081516001145b8015612b35575080516001145b15612bdc57612bd783600081518110612b5057612b50615266565b602002602001015183600081518110612b6b57612b6b615266565b602002602001015183600081518110612b8657612b86615266565b602002602001015160006001600160401b03811115612ba757612ba7614a22565b6040519080825280601f01601f191660200182016040528015612bd1576020820181803683370190505b50613e70565b610a76565b82516001148015612bee575080518251145b15612c5c57612bd783600081518110612c0957612c09615266565b6020026020010151838360006001600160401b03811115612c2c57612c2c614a22565b6040519080825280601f01601f191660200182016040528015612c56576020820181803683370190505b50613ea5565b81516001148015612c6e575080516001145b15612ce25760005b8351811015612cdc57612cca848281518110612c9457612c94615266565b602002602001015184600081518110612caf57612caf615266565b602002602001015184600081518110612b8657612b86615266565b80612cd481615292565b915050612c76565b50610a76565b81516001148015612cf4575080518351145b15612d615760005b8351811015612cdc57612d4f848281518110612d1a57612d1a615266565b602002602001015184600081518110612d3557612d35615266565b6020026020010151848481518110612b8657612b86615266565b80612d5981615292565b915050612cfc565b81518351148015612d73575080518351145b15612dc55760005b8351811015612cdc57612db3848281518110612d9957612d99615266565b6020026020010151848381518110612d3557612d35615266565b80612dbd81615292565b915050612d7b565b60405162461bcd60e51b8152600401610661906152e2565b6000611d05836001600160a01b038416613f28565b603380546001600160a01b038381166001600160a01b0319831681179093556040519116919082907f8be0079c531659141344cd1fd0a4f28419497f9722a3daafe3b4186f6b6457e090600090a35050565b600054610100900460ff1680612e5d575060005460ff16155b612e795760405162461bcd60e51b815260040161066190615385565b600054610100900460ff16158015612e9b576000805461ffff19166101011790555b612ea3613f77565b612eab613f77565b612eb482613fe1565b80156108ed576000805461ff00191690555050565b600054610100900460ff1680612ee2575060005460ff16155b612efe5760405162461bcd60e51b815260040161066190615385565b600054610100900460ff16158015612f20576000805461ffff19166101011790555b612f28613f77565b611236614041565b6060600184511115612f9b5760408051600180825281830190925290602080830190803683370190505090506001825111158015612f7a5750825160011480612f7a575082518451145b612f965760405162461bcd60e51b8152600401610661906152e2565b61300d565b82516001600160401b03811115612fb457612fb4614a22565b604051908082528060200260200182016040528015612fdd578160200160208202803683370190505b509050815160001480612ff1575081518351145b61300d5760405162461bcd60e51b8152600401610661906152e2565b60005b815181101561308e5760cc805490600061302983615292565b919050555060cc5482828151811061304357613043615266565b60209081029190910181019190915260cc54600090815260d39091526040902080546001600160a01b0319166001600160a01b0388161790558061308681615292565b915050613010565b506001600160a01b03851630146130aa576130aa848285613de1565b835160011480156130bc575080516001145b156131125761310d846000815181106130d7576130d7615266565b6020026020010151826000815181106130f2576130f2615266565b602002602001015185600081518110612b8657612b86615266565b613235565b6001845111156131fc5782516001036131945760005b845181101561318e5761317c85828151811061314657613146615266565b60200260200101518360008151811061316157613161615266565b602002602001015186600081518110612b8657612b86615266565b8061318681615292565b915050613128565b50613235565b60005b845181101561318e576131ea8582815181106131b5576131b5615266565b6020026020010151836000815181106131d0576131d0615266565b6020026020010151868481518110612b8657612b86615266565b806131f481615292565b915050613197565b6132358460008151811061321257613212615266565b6020026020010151828560006001600160401b03811115612c2c57612c2c614a22565b60005b81518110156132d65782518110801561326b5750600083828151811061326057613260615266565b602002602001015151115b156132c45782818151811061328257613282615266565b602002602001015160d760008484815181106132a0576132a0615266565b6020026020010151815260200190815260200160002090816132c291906158e4565b505b806132ce81615292565b915050613238565b50949350505050565b30600090815260d6602052604090206107c182848361563e565b816001600160a01b0316836001600160a01b03160361336c5760405162461bcd60e51b815260206004820152602960248201527f455243313135353a2073657474696e6720617070726f76616c20737461747573604482015268103337b91039b2b63360b91b6064820152608401610661565b6001600160a01b038381166000818152609b6020908152604080832094871680845294825291829020805460ff191686151590811790915591519182527f17307eab39ab6107e8899845ad3d59bd9653f200f220920489ca2b5937696c31910160405180910390a3505050565b60006133e4836140a1565b8015611d055750611d0583836140d4565b600081815260da60205260408120541561341b5750600090815260da6020526040902090565b600082815260d360209081526040808320546001600160a01b0316835260d89091529020541561346d5750600090815260d360209081526040808320546001600160a01b0316835260d8909152902090565b505030600090815260d86020526040902090565b60008061348d836133f5565b6134968461207d565b91509150915091565b6134aa60cd82611ce7565b156107075760405133906001600160a01b038316907fd19cf84cf0fec6bec9ddfa29c63adf83a55707c712f32c8285d6180a7890147990600090a36108ed60cd826123ce565b6134fb60cd83611ce7565b61353b5760405162461bcd60e51b815260206004820152601160248201527024b73b30b634b21032bc3a32b739b4b7b760791b6044820152606401610661565b6001600160a01b038116158061355d575061355d816378ea2a9760e11b6133d9565b61359b5760405162461bcd60e51b815260206004820152600f60248201526e496e76616c6964206164647265737360881b6044820152606401610661565b6001600160a01b03828116600090815260d160205260409020548116908216146108ed576001600160a01b03828116600081815260d1602052604080822080546001600160a01b031916948616948517905551339392917f6a835c4fcf7e0d398db3762332fdaa1471814ad39f1e2d6d0b3fdabf8efee3e091a45050565b6001600160a01b03841661363f5760405162461bcd60e51b815260040161066190615842565b3361365e81878761364f886141bd565b613658886141bd565b876139de565b6000848152609a602090815260408083206001600160a01b038a168452909152902054838110156136a15760405162461bcd60e51b815260040161066190615887565b6000858152609a602090815260408083206001600160a01b038b81168552925280832087850390559088168252812080548692906136e09084906156f7565b909155505060408051868152602081018690526001600160a01b03808916928a82169291861691600080516020615d9d833981519152910160405180910390a461372e828888888888614208565b50505050505050565b60006001600160e01b031982166328f10a2160e01b148061375c575061375c82611c82565b8061377757506001600160e01b03198216635d9dd7eb60e11b145b8061379257506001600160e01b03198216632dde656160e21b145b806137ad57506001600160e01b031982166335681b5360e21b145b8061068f57506001600160e01b0319821663152a902d60e11b1492915050565b6001600160e01b0319166301ffc9a760e01b1490565b60608160000361380a5750506040805180820190915260018152600360fc1b602082015290565b8160005b8115613834578061381e81615292565b915061382d9050600a836157e6565b915061380e565b6000816001600160401b0381111561384e5761384e614a22565b6040519080825280601f01601f191660200182016040528015613878576020820181803683370190505b5090505b84156138e35761388d60018361599d565b915061389a600a86615a1c565b6138a59060306156f7565b60f81b8183815181106138ba576138ba615266565b60200101906001600160f81b031916908160001a9053506138dc600a866157e6565b945061387c565b949350505050565b600081815260018301602052604081205480156139d457600061390f60018361599d565b85549091506000906139239060019061599d565b905081811461398857600086600001828154811061394357613943615266565b906000526020600020015490508087600001848154811061396657613966615266565b6000918252602080832090910192909255918252600188019052604090208390555b855486908061399957613999615a30565b60019003818190600052602060002001600090559055856001016000868152602001908152602001600020600090556001935050505061068f565b600091505061068f565b612576858585856142c3565b6001600160a01b0384163b156125765760405163bc197c8160e01b81526001600160a01b0385169063bc197c8190613a2e9089908990889088908890600401615a46565b6020604051808303816000875af1925050508015613a69575060408051601f3d908101601f19168201909252613a6691810190615aa4565b60015b613b1557613a75615ac1565b806308c379a003613aae5750613a89615add565b80613a945750613ab0565b8060405162461bcd60e51b8152600401610661919061483d565b505b60405162461bcd60e51b815260206004820152603460248201527f455243313135353a207472616e7366657220746f206e6f6e20455243313135356044820152732932b1b2b4bb32b91034b6b83632b6b2b73a32b960611b6064820152608401610661565b6001600160e01b0319811663bc197c8160e01b1461372e5760405162461bcd60e51b815260040161066190615b66565b6000826000018281548110613b5c57613b5c615266565b9060005260206000200154905092915050565b6001600160a01b038316613b955760405162461bcd60e51b815260040161066190615bae565b33613bc481856000613ba6876141bd565b613baf876141bd565b604051806020016040528060008152506139de565b6000838152609a602090815260408083206001600160a01b038816845290915290205482811015613c075760405162461bcd60e51b815260040161066190615bf1565b6000848152609a602090815260408083206001600160a01b0389811680865291845282852088870390558251898152938401889052909290861691600080516020615d9d833981519152910160405180910390a45050505050565b6001600160a01b038316613c885760405162461bcd60e51b815260040161066190615bae565b8051825114613ca95760405162461bcd60e51b8152600401610661906157fa565b6000339050613ccc818560008686604051806020016040528060008152506139de565b60005b8351811015613d94576000848281518110613cec57613cec615266565b602002602001015190506000848381518110613d0a57613d0a615266565b6020908102919091018101516000848152609a835260408082206001600160a01b038c168352909352919091205490915081811015613d5b5760405162461bcd60e51b815260040161066190615bf1565b6000928352609a602090815260408085206001600160a01b038b1686529091529092209103905580613d8c81615292565b915050613ccf565b5060006001600160a01b0316846001600160a01b0316826001600160a01b0316600080516020615d7d8339815191528686604051613dd39291906158d1565b60405180910390a450505050565b33600090815260d160205260409020546001600160a01b0316156107c15733600081815260d16020526040908190205490516378ea2a9760e11b81526001600160a01b039091169163f1d4552e91613e429190879087908790600401615c35565b600060405180830381600087803b158015613e5c57600080fd5b505af115801561372e573d6000803e3d6000fd5b613e7c84848484614488565b600083815260dc602052604081208054849290613e9a9084906156f7565b909155505050505050565b613eb18484848461453f565b60005b835181101561081357828181518110613ecf57613ecf615266565b602002602001015160dc6000868481518110613eed57613eed615266565b602002602001015181526020019081526020016000206000828254613f1291906156f7565b90915550613f21905081615292565b9050613eb4565b6000818152600183016020526040812054613f6f5750815460018181018455600084815260208082209093018490558454848252828601909352604090209190915561068f565b50600061068f565b600054610100900460ff1680613f90575060005460ff16155b613fac5760405162461bcd60e51b815260040161066190615385565b600054610100900460ff16158015611236576000805461ffff19166101011790558015610707576000805461ff001916905550565b600054610100900460ff1680613ffa575060005460ff16155b6140165760405162461bcd60e51b815260040161066190615385565b600054610100900460ff16158015614038576000805461ffff19166101011790555b612eb482614688565b600054610100900460ff168061405a575060005460ff16155b6140765760405162461bcd60e51b815260040161066190615385565b600054610100900460ff16158015614098576000805461ffff19166101011790555b61123633612df2565b60006140b4826301ffc9a760e01b6140d4565b801561068f57506140cd826001600160e01b03196140d4565b1592915050565b604080516001600160e01b0319831660248083019190915282518083039091018152604490910182526020810180516001600160e01b03166301ffc9a760e01b179052905160009190829081906001600160a01b038716906175309061413b908690615c8a565b6000604051808303818686fa925050503d8060008114614177576040519150601f19603f3d011682016040523d82523d6000602084013e61417c565b606091505b5091509150602081511015614197576000935050505061068f565b8180156141b35750808060200190518101906141b39190615ca6565b9695505050505050565b604080516001808252818301909252606091600091906020808301908036833701905050905082816000815181106141f7576141f7615266565b602090810291909101015292915050565b6001600160a01b0384163b156125765760405163f23a6e6160e01b81526001600160a01b0385169063f23a6e619061424c9089908990889088908890600401615cc3565b6020604051808303816000875af1925050508015614287575060408051601f3d908101601f1916820190925261428491810190615aa4565b60015b61429357613a75615ac1565b6001600160e01b0319811663f23a6e6160e01b1461372e5760405162461bcd60e51b815260040161066190615b66565b60008251116142e45760405162461bcd60e51b8152600401610661906152e2565b600060d36000846000815181106142fd576142fd615266565b6020026020010151815260200190815260200160002060009054906101000a90046001600160a01b0316905060005b83518110156143a857816001600160a01b031660d3600086848151811061435557614355615266565b6020908102919091018101518252810191909152604001600020546001600160a01b0316146143965760405162461bcd60e51b8152600401610661906159b0565b806143a081615292565b91505061432c565b506001600160a01b038116600090815260d2602052604090205460ff16156108135760405163883da93360e01b81526001600160a01b0382169063883da933906143fc908890889088908890600401615cfd565b6020604051808303816000875af115801561441b573d6000803e3d6000fd5b505050506040513d601f19601f8201168201806040525081019061443f9190615ca6565b6108135760405162461bcd60e51b815260206004820152601a602482015279457874656e73696f6e20617070726f76616c206661696c75726560301b6044820152606401610661565b6001600160a01b0384166144ae5760405162461bcd60e51b815260040161066190615d3b565b336144bf8160008761364f886141bd565b6000848152609a602090815260408083206001600160a01b0389168452909152812080548592906144f19084906156f7565b909155505060408051858152602081018590526001600160a01b038088169260009291851691600080516020615d9d833981519152910160405180910390a461081381600087878787614208565b6001600160a01b0384166145655760405162461bcd60e51b815260040161066190615d3b565b81518351146145865760405162461bcd60e51b8152600401610661906157fa565b33614596816000878787876139de565b60005b8451811015614632578381815181106145b4576145b4615266565b6020026020010151609a60008784815181106145d2576145d2615266565b602002602001015181526020019081526020016000206000886001600160a01b03166001600160a01b03168152602001908152602001600020600082825461461a91906156f7565b9091555081905061462a81615292565b915050614599565b50846001600160a01b031660006001600160a01b0316826001600160a01b0316600080516020615d7d83398151915287876040516146719291906158d1565b60405180910390a4610813816000878787876139ea565b609c6108ed82826158e4565b8280548282559060005260206000209081019282156146e7579160200282015b828111156146e75781546001600160a01b0319166001600160a01b038435161782556020909201916001909101906146b4565b50610b2692915061472e565b8280548282559060005260206000209081019282156146e7579160200282015b828111156146e7578235825591602001919060010190614713565b5b80821115610b26576000815560010161472f565b6001600160a01b038116811461070757600080fd5b6000806040838503121561476b57600080fd5b823561477681614743565b946020939093013593505050565b6001600160e01b03198116811461070757600080fd5b6000602082840312156147ac57600080fd5b8135611d0581614784565b6000602082840312156147c957600080fd5b8135611d0581614743565b6000602082840312156147e657600080fd5b5035919050565b60005b838110156148085781810151838201526020016147f0565b50506000910152565b600081518084526148298160208601602086016147ed565b601f01601f19169290920160200192915050565b602081526000611d056020830184614811565b600081518084526020808501945080840160005b8381101561488057815187529582019590820190600101614864565b509495945050505050565b602081526000611d056020830184614850565b60008083601f8401126148b057600080fd5b5081356001600160401b038111156148c757600080fd5b60208301915083602082850101111561086657600080fd5b6000806000604084860312156148f457600080fd5b8335925060208401356001600160401b0381111561491157600080fd5b61491d8682870161489e565b9497909650939450505050565b60008083601f84011261493c57600080fd5b5081356001600160401b0381111561495357600080fd5b6020830191508360208260051b850101111561086657600080fd5b60008060008060006060868803121561498657600080fd5b8535945060208601356001600160401b03808211156149a457600080fd5b6149b089838a0161492a565b909650945060408801359150808211156149c957600080fd5b506149d68882890161492a565b969995985093965092949392505050565b600080604083850312156149fa57600080fd5b50508035926020909101359150565b6001600160a01b03929092168252602082015260400190565b634e487b7160e01b600052604160045260246000fd5b601f8201601f191681016001600160401b0381118282101715614a5d57614a5d614a22565b6040525050565b60006001600160401b03821115614a7d57614a7d614a22565b5060051b60200190565b600082601f830112614a9857600080fd5b81356020614aa582614a64565b604051614ab28282614a38565b83815260059390931b8501820192828101915086841115614ad257600080fd5b8286015b84811015614aed5780358352918301918301614ad6565b509695505050505050565b60006001600160401b03821115614b1157614b11614a22565b50601f01601f191660200190565b6000614b2a83614af8565b604051614b378282614a38565b809250848152858585011115614b4c57600080fd5b8484602083013760006020868301015250509392505050565b600082601f830112614b7657600080fd5b611d0583833560208501614b1f565b600080600080600060a08688031215614b9d57600080fd5b8535614ba881614743565b94506020860135614bb881614743565b935060408601356001600160401b0380821115614bd457600080fd5b614be089838a01614a87565b94506060880135915080821115614bf657600080fd5b614c0289838a01614a87565b93506080880135915080821115614c1857600080fd5b50614c2588828901614b65565b9150509295509295909350565b60008060208385031215614c4557600080fd5b82356001600160401b03811115614c5b57600080fd5b614c678582860161489e565b90969095509350505050565b600080600060408486031215614c8857600080fd5b8335614c9381614743565b925060208401356001600160401b0381111561491157600080fd5b600081518084526020808501945080840160005b838110156148805781516001600160a01b031687529582019590820190600101614cc2565b602081526000611d056020830184614cae565b60008060008060408587031215614d1057600080fd5b84356001600160401b0380821115614d2757600080fd5b614d338883890161492a565b90965094506020870135915080821115614d4c57600080fd5b50614d598782880161492a565b95989497509550505050565b600080600060608486031215614d7a57600080fd5b8335614d8581614743565b925060208401356001600160401b0380821115614da157600080fd5b614dad87838801614a87565b93506040860135915080821115614dc357600080fd5b50614dd086828701614a87565b9150509250925092565b801515811461070757600080fd5b60008060008060608587031215614dfe57600080fd5b8435614e0981614743565b935060208501356001600160401b03811115614e2457600080fd5b614e308782880161489e565b9094509250506040850135614e4481614dda565b939692955090935050565b60008060408385031215614e6257600080fd5b82356001600160401b0380821115614e7957600080fd5b818501915085601f830112614e8d57600080fd5b81356020614e9a82614a64565b604051614ea78282614a38565b83815260059390931b8501820192828101915089841115614ec757600080fd5b948201945b83861015614eee578535614edf81614743565b82529482019490820190614ecc565b96505086013592505080821115614f0457600080fd5b50614f1185828601614a87565b9150509250929050565b600080600060408486031215614f3057600080fd5b83356001600160401b0380821115614f4757600080fd5b614f5387838801614a87565b94506020860135915080821115614f6957600080fd5b5061491d8682870161492a565b60008060008060008060608789031215614f8f57600080fd5b86356001600160401b0380821115614fa657600080fd5b614fb28a838b0161492a565b90985096506020890135915080821115614fcb57600080fd5b614fd78a838b0161492a565b90965094506040890135915080821115614ff057600080fd5b50614ffd89828a0161492a565b979a9699509497509295939492505050565b60008060006040848603121561502457600080fd5b83356001600160401b0381111561503a57600080fd5b6150468682870161489e565b909450925050602084013561505a81614dda565b809150509250925092565b6000806040838503121561507857600080fd5b823561508381614743565b9150602083013561509381614dda565b809150509250929050565b6000602082840312156150b057600080fd5b8135611d0581614dda565b6000806000806000606086880312156150d357600080fd5b85356150de81614743565b945060208601356001600160401b03808211156149a457600080fd5b60408152600061510d6040830185614cae565b828103602084015261511f8185614850565b95945050505050565b6000806040838503121561513b57600080fd5b823561514681614743565b9150602083013561509381614743565b600080600080600060a0868803121561516e57600080fd5b853561517981614743565b9450602086013561518981614743565b9350604086013592506060860135915060808601356001600160401b038111156151b257600080fd5b614c2588828901614b65565b60208082526024908201527f41646d696e436f6e74726f6c3a204d757374206265206f776e6572206f7220616040820152633236b4b760e11b606082015260800190565b6020808252818101527f4f776e61626c653a2063616c6c6572206973206e6f7420746865206f776e6572604082015260600190565b602080825260159082015274115e1d195b9cda5bdb88189b1858dadb1a5cdd1959605a1b604082015260600190565b634e487b7160e01b600052603260045260246000fd5b634e487b7160e01b600052601160045260246000fd5b6000600182016152a4576152a461527c565b5060010190565b6020808252601f908201527f5265656e7472616e637947756172643a207265656e7472616e742063616c6c00604082015260600190565b6020808252600d908201526c125b9d985b1a59081a5b9c1d5d609a1b604082015260600190565b6020808252601c908201527b26bab9ba103132903932b3b4b9ba32b932b21032bc3a32b739b4b7b760211b604082015260600190565b6000808335601e1984360301811261535657600080fd5b8301803591506001600160401b0382111561537057600080fd5b60200191503681900382131561086657600080fd5b6020808252602e908201527f496e697469616c697a61626c653a20636f6e747261637420697320616c72656160408201526d191e481a5b9a5d1a585b1a5e995960921b606082015260800190565b60006153de83614a64565b6040516153eb8282614a38565b84815260208082019250600586901b85013681111561540957600080fd5b855b818110156154585780356001600160401b0381111561542a5760008081fd5b870136601f82011261543c5760008081fd5b61544a368235868401614b1f565b86525093820193820161540b565b50919695505050505050565b600181811c9082168061547857607f821691505b60208210810361207757634e487b7160e01b600052602260045260246000fd5b600081546154a581615464565b600182811680156154bd57600181146154d257615501565b60ff1984168752821515830287019450615501565b8560005260208060002060005b858110156154f85781548a8201529084019082016154df565b50505082870194505b5050505092915050565b60006138e361551a8386615498565b84615498565b60006020828403121561553257600080fd5b81516001600160401b0381111561554857600080fd5b8201601f8101841361555957600080fd5b805161556481614af8565b6040516155718282614a38565b82815286602084860101111561558657600080fd5b6141b38360208301602087016147ed565b60006155a38285615498565b83516155b38183602088016147ed565b01949350505050565b6020808252600d908201526c24b73b30b634b2103a37b5b2b760991b604082015260600190565b601f8211156107c157600081815260208120601f850160051c8101602086101561560a5750805b601f850160051c820191505b8181101561257657828155600101615616565b600019600383901b1c191660019190911b1790565b6001600160401b0383111561565557615655614a22565b615669836156638354615464565b836155e3565b6000601f84116001811461569757600085156156855750838201355b61568f8682615629565b845550610813565b600083815260209020601f19861690835b828110156156c857868501358255602094850194600190920191016156a8565b50868210156156e55760001960f88860031b161c19848701351681555b505060018560011b0183555050505050565b8082018082111561068f5761068f61527c565b602080825260179082015276496e76616c696420746f74616c20726f79616c7469657360481b604082015260600190565b6040808252810184905260008560608301825b8781101561577e57823561576181614743565b6001600160a01b031682526020928301929091019060010161574e565b5083810360208501528481526001600160fb1b0385111561579e57600080fd5b8460051b915081866020830137016020019695505050505050565b808202811582820484141761068f5761068f61527c565b634e487b7160e01b600052601260045260246000fd5b6000826157f5576157f56157d0565b500490565b60208082526028908201527f455243313135353a2069647320616e6420616d6f756e7473206c656e677468206040820152670dad2e6dac2e8c6d60c31b606082015260800190565b60208082526025908201527f455243313135353a207472616e7366657220746f20746865207a65726f206164604082015264647265737360d81b606082015260800190565b6020808252602a908201527f455243313135353a20696e73756666696369656e742062616c616e636520666f60408201526939103a3930b739b332b960b11b606082015260800190565b60408152600061510d6040830185614850565b81516001600160401b038111156158fd576158fd614a22565b6159118161590b8454615464565b846155e3565b602080601f831160018114615940576000841561592e5750858301515b6159388582615629565b865550612576565b600085815260208120601f198616915b8281101561596f57888601518255948401946001909101908401615950565b508582101561598d5787850151600019600388901b60f8161c191681555b5050505050600190811b01905550565b8181038181111561068f5761068f61527c565b6020808252601c908201527b4d69736d61746368656420746f6b656e206f726967696e61746f727360201b604082015260600190565b6001600160a01b0384168152606060208201819052600090615a0a90830185614850565b82810360408401526141b38185614850565b600082615a2b57615a2b6157d0565b500690565b634e487b7160e01b600052603160045260246000fd5b6001600160a01b0386811682528516602082015260a060408201819052600090615a7290830186614850565b8281036060840152615a848186614850565b90508281036080840152615a988185614811565b98975050505050505050565b600060208284031215615ab657600080fd5b8151611d0581614784565b600060033d1115615ada5760046000803e5060005160e01c5b90565b600060443d1015615aeb5790565b6040516003193d81016004833e81513d6001600160401b038160248401118184111715615b1a57505050505090565b8285019150815181811115615b325750505050505090565b843d8701016020828501011115615b4c5750505050505090565b615b5b60208286010187614a38565b509095945050505050565b60208082526028908201527f455243313135353a204552433131353552656365697665722072656a656374656040820152676420746f6b656e7360c01b606082015260800190565b60208082526023908201527f455243313135353a206275726e2066726f6d20746865207a65726f206164647260408201526265737360e81b606082015260800190565b60208082526024908201527f455243313135353a206275726e20616d6f756e7420657863656564732062616c604082015263616e636560e01b606082015260800190565b6001600160a01b0385168152608060208201819052600090615c5990830186614cae565b8281036040840152615c6b8186614850565b90508281036060840152615c7f8185614850565b979650505050505050565b60008251615c9c8184602087016147ed565b9190910192915050565b600060208284031215615cb857600080fd5b8151611d0581614dda565b6001600160a01b03868116825285166020820152604081018490526060810183905260a060808201819052600090615c7f90830184614811565b6001600160a01b03858116825284166020820152608060408201819052600090615d2990830185614850565b8281036060840152615c7f8185614850565b60208082526021908201527f455243313135353a206d696e7420746f20746865207a65726f206164647265736040820152607360f81b60608201526080019056fe4a39dc06d4c0dbc64b70af90fd698a233a518aa5d07e595d983b8c0526c8f7fbc3d58168c5ae7397731d063d5bbf3d657854427343f4c083240f7aacaa2d0f62a26469706673582212208e8c8b6b3c940d23fe24f0a02fc8277fe2ea531a976ec08e693a1985825cc1b964736f6c63430008110033",
			"opcodes": "PUSH1 0x80 PUSH1 0x40 MSTORE PUSH1 0x0 PUSH1 0xCC SSTORE CALLVALUE DUP1 ISZERO PUSH2 0x15 JUMPI PUSH1 0x0 DUP1 REVERT JUMPDEST POP PUSH1 0x1 PUSH1 0x65 SSTORE PUSH2 0x5DF2 DUP1 PUSH3 0x2B PUSH1 0x0 CODECOPY PUSH1 0x0 RETURN INVALID PUSH1 0x80 PUSH1 0x40 MSTORE CALLVALUE DUP1 ISZERO PUSH2 0x10 JUMPI PUSH1 0x0 DUP1 REVERT JUMPDEST POP PUSH1 0x4 CALLDATASIZE LT PUSH2 0x234 JUMPI PUSH1 0x0 CALLDATALOAD PUSH1 0xE0 SHR DUP1 PUSH4 0x6D73E669 GT PUSH2 0x137 JUMPI DUP1 PUSH4 0x6D73E669 EQ PUSH2 0x455 JUMPI DUP1 PUSH4 0x715018A6 EQ PUSH2 0x468 JUMPI DUP1 PUSH4 0x8129FC1C EQ PUSH2 0x470 JUMPI DUP1 PUSH4 0x82DCC0C8 EQ PUSH2 0x478 JUMPI DUP1 PUSH4 0x83B7DB63 EQ PUSH2 0x48B JUMPI DUP1 PUSH4 0x8C6E8472 EQ PUSH2 0x493 JUMPI DUP1 PUSH4 0x8DA5CB5B EQ PUSH2 0x4A6 JUMPI DUP1 PUSH4 0x99E0DD7C EQ PUSH2 0x4AE JUMPI DUP1 PUSH4 0xA22CB465 EQ PUSH2 0x4C1 JUMPI DUP1 PUSH4 0xAAFB2D44 EQ PUSH2 0x4D4 JUMPI DUP1 PUSH4 0xAC0C8CFA EQ PUSH2 0x4E7 JUMPI DUP1 PUSH4 0xB0FE87C9 EQ PUSH2 0x4FA JUMPI DUP1 PUSH4 0xB9C4D9FB EQ PUSH2 0x50D JUMPI DUP1 PUSH4 0xBB3BAFD6 EQ PUSH2 0x520 JUMPI DUP1 PUSH4 0xBD85B039 EQ PUSH2 0x541 JUMPI DUP1 PUSH4 0xCE8AEE9D EQ PUSH2 0x561 JUMPI DUP1 PUSH4 0xD5A06D4C EQ PUSH2 0x520 JUMPI DUP1 PUSH4 0xE6C884DC EQ PUSH2 0x574 JUMPI DUP1 PUSH4 0xE92A89F6 EQ PUSH2 0x587 JUMPI DUP1 PUSH4 0xE985E9C5 EQ PUSH2 0x59A JUMPI DUP1 PUSH4 0xF0CDC499 EQ PUSH2 0x5AD JUMPI DUP1 PUSH4 0xF242432A EQ PUSH2 0x5C0 JUMPI DUP1 PUSH4 0xF2FDE38B EQ PUSH2 0x5D3 JUMPI DUP1 PUSH4 0xFEEB5A9A EQ PUSH2 0x5E6 JUMPI PUSH1 0x0 DUP1 REVERT JUMPDEST DUP1 PUSH3 0xFDD58E EQ PUSH2 0x239 JUMPI DUP1 PUSH4 0x1FFC9A7 EQ PUSH2 0x25F JUMPI DUP1 PUSH4 0x2E7AFB7 EQ PUSH2 0x282 JUMPI DUP1 PUSH4 0xE89341C EQ PUSH2 0x297 JUMPI DUP1 PUSH4 0xEBD4C7F EQ PUSH2 0x2B7 JUMPI DUP1 PUSH4 0x162094C4 EQ PUSH2 0x2D7 JUMPI DUP1 PUSH4 0x20E4AFE2 EQ PUSH2 0x2EA JUMPI DUP1 PUSH4 0x239BE317 EQ PUSH2 0x2FD JUMPI DUP1 PUSH4 0x24D7806C EQ PUSH2 0x328 JUMPI DUP1 PUSH4 0x2A55205A EQ PUSH2 0x33B JUMPI DUP1 PUSH4 0x2D345670 EQ PUSH2 0x35C JUMPI DUP1 PUSH4 0x2EB2C2D6 EQ PUSH2 0x36F JUMPI DUP1 PUSH4 0x30176E13 EQ PUSH2 0x382 JUMPI DUP1 PUSH4 0x3071A0F9 EQ PUSH2 0x395 JUMPI DUP1 PUSH4 0x31AE450B EQ PUSH2 0x3A8 JUMPI DUP1 PUSH4 0x332DD1AE EQ PUSH2 0x3BD JUMPI DUP1 PUSH4 0x3DB0F8AB EQ PUSH2 0x3D0 JUMPI DUP1 PUSH4 0x3E6134B8 EQ PUSH2 0x3E3 JUMPI DUP1 PUSH4 0x3F0F37F6 EQ PUSH2 0x3F6 JUMPI DUP1 PUSH4 0x4E1273F4 EQ PUSH2 0x409 JUMPI DUP1 PUSH4 0x61E5BC6B EQ PUSH2 0x41C JUMPI DUP1 PUSH4 0x66D1E9D0 EQ PUSH2 0x42F JUMPI DUP1 PUSH4 0x695C96E6 EQ PUSH2 0x442 JUMPI JUMPDEST PUSH1 0x0 DUP1 REVERT JUMPDEST PUSH2 0x24C PUSH2 0x247 CALLDATASIZE PUSH1 0x4 PUSH2 0x4758 JUMP JUMPDEST PUSH2 0x5F9 JUMP JUMPDEST PUSH1 0x40 MLOAD SWAP1 DUP2 MSTORE PUSH1 0x20 ADD JUMPDEST PUSH1 0x40 MLOAD DUP1 SWAP2 SUB SWAP1 RETURN JUMPDEST PUSH2 0x272 PUSH2 0x26D CALLDATASIZE PUSH1 0x4 PUSH2 0x479A JUMP JUMPDEST PUSH2 0x695 JUMP JUMPDEST PUSH1 0x40 MLOAD SWAP1 ISZERO ISZERO DUP2 MSTORE PUSH1 0x20 ADD PUSH2 0x256 JUMP JUMPDEST PUSH2 0x295 PUSH2 0x290 CALLDATASIZE PUSH1 0x4 PUSH2 0x47B7 JUMP JUMPDEST PUSH2 0x6BE JUMP JUMPDEST STOP JUMPDEST PUSH2 0x2AA PUSH2 0x2A5 CALLDATASIZE PUSH1 0x4 PUSH2 0x47D4 JUMP JUMPDEST PUSH2 0x70A JUMP JUMPDEST PUSH1 0x40 MLOAD PUSH2 0x256 SWAP2 SWAP1 PUSH2 0x483D JUMP JUMPDEST PUSH2 0x2CA PUSH2 0x2C5 CALLDATASIZE PUSH1 0x4 PUSH2 0x47D4 JUMP JUMPDEST PUSH2 0x715 JUMP JUMPDEST PUSH1 0x40 MLOAD PUSH2 0x256 SWAP2 SWAP1 PUSH2 0x488B JUMP JUMPDEST PUSH2 0x295 PUSH2 0x2E5 CALLDATASIZE PUSH1 0x4 PUSH2 0x48DF JUMP JUMPDEST PUSH2 0x776 JUMP JUMPDEST PUSH2 0x295 PUSH2 0x2F8 CALLDATASIZE PUSH1 0x4 PUSH2 0x496E JUMP JUMPDEST PUSH2 0x7C6 JUMP JUMPDEST PUSH2 0x310 PUSH2 0x30B CALLDATASIZE PUSH1 0x4 PUSH2 0x47D4 JUMP JUMPDEST PUSH2 0x81A JUMP JUMPDEST PUSH1 0x40 MLOAD PUSH1 0x1 PUSH1 0x1 PUSH1 0xA0 SHL SUB SWAP1 SWAP2 AND DUP2 MSTORE PUSH1 0x20 ADD PUSH2 0x256 JUMP JUMPDEST PUSH2 0x272 PUSH2 0x336 CALLDATASIZE PUSH1 0x4 PUSH2 0x47B7 JUMP JUMPDEST PUSH2 0x825 JUMP JUMPDEST PUSH2 0x34E PUSH2 0x349 CALLDATASIZE PUSH1 0x4 PUSH2 0x49E7 JUMP JUMPDEST PUSH2 0x854 JUMP JUMPDEST PUSH1 0x40 MLOAD PUSH2 0x256 SWAP3 SWAP2 SWAP1 PUSH2 0x4A09 JUMP JUMPDEST PUSH2 0x295 PUSH2 0x36A CALLDATASIZE PUSH1 0x4 PUSH2 0x47B7 JUMP JUMPDEST PUSH2 0x86D JUMP JUMPDEST PUSH2 0x295 PUSH2 0x37D CALLDATASIZE PUSH1 0x4 PUSH2 0x4B85 JUMP JUMPDEST PUSH2 0x8F1 JUMP JUMPDEST PUSH2 0x295 PUSH2 0x390 CALLDATASIZE PUSH1 0x4 PUSH2 0x4C32 JUMP JUMPDEST PUSH2 0x981 JUMP JUMPDEST PUSH2 0x295 PUSH2 0x3A3 CALLDATASIZE PUSH1 0x4 PUSH2 0x4C73 JUMP JUMPDEST PUSH2 0xA00 JUMP JUMPDEST PUSH2 0x3B0 PUSH2 0xA7C JUMP JUMPDEST PUSH1 0x40 MLOAD PUSH2 0x256 SWAP2 SWAP1 PUSH2 0x4CE7 JUMP JUMPDEST PUSH2 0x295 PUSH2 0x3CB CALLDATASIZE PUSH1 0x4 PUSH2 0x4CFA JUMP JUMPDEST PUSH2 0xB2A JUMP JUMPDEST PUSH2 0x295 PUSH2 0x3DE CALLDATASIZE PUSH1 0x4 PUSH2 0x4D65 JUMP JUMPDEST PUSH2 0xB77 JUMP JUMPDEST PUSH2 0x295 PUSH2 0x3F1 CALLDATASIZE PUSH1 0x4 PUSH2 0x4C32 JUMP JUMPDEST PUSH2 0xC94 JUMP JUMPDEST PUSH2 0x295 PUSH2 0x404 CALLDATASIZE PUSH1 0x4 PUSH2 0x4DE8 JUMP JUMPDEST PUSH2 0xCC7 JUMP JUMPDEST PUSH2 0x2CA PUSH2 0x417 CALLDATASIZE PUSH1 0x4 PUSH2 0x4E4F JUMP JUMPDEST PUSH2 0xD3C JUMP JUMPDEST PUSH2 0x295 PUSH2 0x42A CALLDATASIZE PUSH1 0x4 PUSH2 0x4F1B JUMP JUMPDEST PUSH2 0xE65 JUMP JUMPDEST PUSH2 0x295 PUSH2 0x43D CALLDATASIZE PUSH1 0x4 PUSH2 0x4C32 JUMP JUMPDEST PUSH2 0xF10 JUMP JUMPDEST PUSH2 0x295 PUSH2 0x450 CALLDATASIZE PUSH1 0x4 PUSH2 0x4F76 JUMP JUMPDEST PUSH2 0xF41 JUMP JUMPDEST PUSH2 0x295 PUSH2 0x463 CALLDATASIZE PUSH1 0x4 PUSH2 0x47B7 JUMP JUMPDEST PUSH2 0x1105 JUMP JUMPDEST PUSH2 0x295 PUSH2 0x1184 JUMP JUMPDEST PUSH2 0x295 PUSH2 0x11BF JUMP JUMPDEST PUSH2 0x295 PUSH2 0x486 CALLDATASIZE PUSH1 0x4 PUSH2 0x500F JUMP JUMPDEST PUSH2 0x124A JUMP JUMPDEST PUSH2 0x3B0 PUSH2 0x127C JUMP JUMPDEST PUSH2 0x2CA PUSH2 0x4A1 CALLDATASIZE PUSH1 0x4 PUSH2 0x4F76 JUMP JUMPDEST PUSH2 0x1326 JUMP JUMPDEST PUSH2 0x310 PUSH2 0x1400 JUMP JUMPDEST PUSH2 0x295 PUSH2 0x4BC CALLDATASIZE PUSH1 0x4 PUSH2 0x4C32 JUMP JUMPDEST PUSH2 0x140F JUMP JUMPDEST PUSH2 0x295 PUSH2 0x4CF CALLDATASIZE PUSH1 0x4 PUSH2 0x5065 JUMP JUMPDEST PUSH2 0x1459 JUMP JUMPDEST PUSH2 0x295 PUSH2 0x4E2 CALLDATASIZE PUSH1 0x4 PUSH2 0x4F1B JUMP JUMPDEST PUSH2 0x1464 JUMP JUMPDEST PUSH2 0x295 PUSH2 0x4F5 CALLDATASIZE PUSH1 0x4 PUSH2 0x509E JUMP JUMPDEST PUSH2 0x1528 JUMP JUMPDEST PUSH2 0x295 PUSH2 0x508 CALLDATASIZE PUSH1 0x4 PUSH2 0x50BB JUMP JUMPDEST PUSH2 0x164E JUMP JUMPDEST PUSH2 0x3B0 PUSH2 0x51B CALLDATASIZE PUSH1 0x4 PUSH2 0x47D4 JUMP JUMPDEST PUSH2 0x169B JUMP JUMPDEST PUSH2 0x533 PUSH2 0x52E CALLDATASIZE PUSH1 0x4 PUSH2 0x47D4 JUMP JUMPDEST PUSH2 0x1705 JUMP JUMPDEST PUSH1 0x40 MLOAD PUSH2 0x256 SWAP3 SWAP2 SWAP1 PUSH2 0x50FA JUMP JUMPDEST PUSH2 0x24C PUSH2 0x54F CALLDATASIZE PUSH1 0x4 PUSH2 0x47D4 JUMP JUMPDEST PUSH1 0x0 SWAP1 DUP2 MSTORE PUSH1 0xDC PUSH1 0x20 MSTORE PUSH1 0x40 SWAP1 KECCAK256 SLOAD SWAP1 JUMP JUMPDEST PUSH2 0x295 PUSH2 0x56F CALLDATASIZE PUSH1 0x4 PUSH2 0x47B7 JUMP JUMPDEST PUSH2 0x17C4 JUMP JUMPDEST PUSH2 0x295 PUSH2 0x582 CALLDATASIZE PUSH1 0x4 PUSH2 0x4F76 JUMP JUMPDEST PUSH2 0x180D JUMP JUMPDEST PUSH2 0x295 PUSH2 0x595 CALLDATASIZE PUSH1 0x4 PUSH2 0x48DF JUMP JUMPDEST PUSH2 0x19B1 JUMP JUMPDEST PUSH2 0x272 PUSH2 0x5A8 CALLDATASIZE PUSH1 0x4 PUSH2 0x5128 JUMP JUMPDEST PUSH2 0x19E3 JUMP JUMPDEST PUSH2 0x295 PUSH2 0x5BB CALLDATASIZE PUSH1 0x4 PUSH2 0x5128 JUMP JUMPDEST PUSH2 0x1A11 JUMP JUMPDEST PUSH2 0x295 PUSH2 0x5CE CALLDATASIZE PUSH1 0x4 PUSH2 0x5156 JUMP JUMPDEST PUSH2 0x1A5B JUMP JUMPDEST PUSH2 0x295 PUSH2 0x5E1 CALLDATASIZE PUSH1 0x4 PUSH2 0x47B7 JUMP JUMPDEST PUSH2 0x1AE2 JUMP JUMPDEST PUSH2 0x2CA PUSH2 0x5F4 CALLDATASIZE PUSH1 0x4 PUSH2 0x4F76 JUMP JUMPDEST PUSH2 0x1B7F JUMP JUMPDEST PUSH1 0x0 PUSH1 0x1 PUSH1 0x1 PUSH1 0xA0 SHL SUB DUP4 AND PUSH2 0x66A JUMPI PUSH1 0x40 MLOAD PUSH3 0x461BCD PUSH1 0xE5 SHL DUP2 MSTORE PUSH1 0x20 PUSH1 0x4 DUP3 ADD MSTORE PUSH1 0x2B PUSH1 0x24 DUP3 ADD MSTORE PUSH32 0x455243313135353A2062616C616E636520717565727920666F7220746865207A PUSH1 0x44 DUP3 ADD MSTORE PUSH11 0x65726F2061646472657373 PUSH1 0xA8 SHL PUSH1 0x64 DUP3 ADD MSTORE PUSH1 0x84 ADD JUMPDEST PUSH1 0x40 MLOAD DUP1 SWAP2 SUB SWAP1 REVERT JUMPDEST POP PUSH1 0x0 DUP2 DUP2 MSTORE PUSH1 0x9A PUSH1 0x20 SWAP1 DUP2 MSTORE PUSH1 0x40 DUP1 DUP4 KECCAK256 PUSH1 0x1 PUSH1 0x1 PUSH1 0xA0 SHL SUB DUP7 AND DUP5 MSTORE SWAP1 SWAP2 MSTORE SWAP1 KECCAK256 SLOAD JUMPDEST SWAP3 SWAP2 POP POP JUMP JUMPDEST PUSH1 0x0 PUSH2 0x6A0 DUP3 PUSH2 0x1C5D JUMP JUMPDEST DUP1 PUSH2 0x6AF JUMPI POP PUSH2 0x6AF DUP3 PUSH2 0x1C82 JUMP JUMPDEST DUP1 PUSH2 0x68F JUMPI POP PUSH2 0x68F DUP3 PUSH2 0x1CC2 JUMP JUMPDEST CALLER PUSH2 0x6C7 PUSH2 0x1400 JUMP JUMPDEST PUSH1 0x1 PUSH1 0x1 PUSH1 0xA0 SHL SUB AND EQ DUP1 PUSH2 0x6E2 JUMPI POP PUSH2 0x6E2 PUSH1 0x66 CALLER PUSH2 0x1CE7 JUMP JUMPDEST PUSH2 0x6FE JUMPI PUSH1 0x40 MLOAD PUSH3 0x461BCD PUSH1 0xE5 SHL DUP2 MSTORE PUSH1 0x4 ADD PUSH2 0x661 SWAP1 PUSH2 0x51BE JUMP JUMPDEST PUSH2 0x707 DUP2 PUSH2 0x1D0C JUMP JUMPDEST POP JUMP JUMPDEST PUSH1 0x60 PUSH2 0x68F DUP3 PUSH2 0x1E03 JUMP JUMPDEST PUSH1 0x60 PUSH2 0x720 DUP3 PUSH2 0x207D JUMP JUMPDEST DUP1 SLOAD DUP1 PUSH1 0x20 MUL PUSH1 0x20 ADD PUSH1 0x40 MLOAD SWAP1 DUP2 ADD PUSH1 0x40 MSTORE DUP1 SWAP3 SWAP2 SWAP1 DUP2 DUP2 MSTORE PUSH1 0x20 ADD DUP3 DUP1 SLOAD DUP1 ISZERO PUSH2 0x76A JUMPI PUSH1 0x20 MUL DUP3 ADD SWAP2 SWAP1 PUSH1 0x0 MSTORE PUSH1 0x20 PUSH1 0x0 KECCAK256 SWAP1 JUMPDEST DUP2 SLOAD DUP2 MSTORE PUSH1 0x20 ADD SWAP1 PUSH1 0x1 ADD SWAP1 DUP1 DUP4 GT PUSH2 0x756 JUMPI JUMPDEST POP POP POP POP POP SWAP1 POP SWAP2 SWAP1 POP JUMP JUMPDEST CALLER PUSH2 0x77F PUSH2 0x1400 JUMP JUMPDEST PUSH1 0x1 PUSH1 0x1 PUSH1 0xA0 SHL SUB AND EQ DUP1 PUSH2 0x79A JUMPI POP PUSH2 0x79A PUSH1 0x66 CALLER PUSH2 0x1CE7 JUMP JUMPDEST PUSH2 0x7B6 JUMPI PUSH1 0x40 MLOAD PUSH3 0x461BCD PUSH1 0xE5 SHL DUP2 MSTORE PUSH1 0x4 ADD PUSH2 0x661 SWAP1 PUSH2 0x51BE JUMP JUMPDEST PUSH2 0x7C1 DUP4 DUP4 DUP4 PUSH2 0x2109 JUMP JUMPDEST POP POP POP JUMP JUMPDEST CALLER PUSH2 0x7CF PUSH2 0x1400 JUMP JUMPDEST PUSH1 0x1 PUSH1 0x1 PUSH1 0xA0 SHL SUB AND EQ DUP1 PUSH2 0x7EA JUMPI POP PUSH2 0x7EA PUSH1 0x66 CALLER PUSH2 0x1CE7 JUMP JUMPDEST PUSH2 0x806 JUMPI PUSH1 0x40 MLOAD PUSH3 0x461BCD PUSH1 0xE5 SHL DUP2 MSTORE PUSH1 0x4 ADD PUSH2 0x661 SWAP1 PUSH2 0x51BE JUMP JUMPDEST PUSH2 0x813 DUP6 DUP6 DUP6 DUP6 DUP6 PUSH2 0x2158 JUMP JUMPDEST POP POP POP POP POP JUMP JUMPDEST PUSH1 0x0 PUSH2 0x68F DUP3 PUSH2 0x2257 JUMP JUMPDEST PUSH1 0x0 DUP2 PUSH1 0x1 PUSH1 0x1 PUSH1 0xA0 SHL SUB AND PUSH2 0x839 PUSH2 0x1400 JUMP JUMPDEST PUSH1 0x1 PUSH1 0x1 PUSH1 0xA0 SHL SUB AND EQ DUP1 PUSH2 0x68F JUMPI POP PUSH2 0x68F PUSH1 0x66 DUP4 PUSH2 0x1CE7 JUMP JUMPDEST PUSH1 0x0 DUP1 PUSH2 0x861 DUP5 DUP5 PUSH2 0x22E4 JUMP JUMPDEST SWAP2 POP SWAP2 POP JUMPDEST SWAP3 POP SWAP3 SWAP1 POP JUMP JUMPDEST CALLER PUSH2 0x876 PUSH2 0x1400 JUMP JUMPDEST PUSH1 0x1 PUSH1 0x1 PUSH1 0xA0 SHL SUB AND EQ PUSH2 0x89C JUMPI PUSH1 0x40 MLOAD PUSH3 0x461BCD PUSH1 0xE5 SHL DUP2 MSTORE PUSH1 0x4 ADD PUSH2 0x661 SWAP1 PUSH2 0x5202 JUMP JUMPDEST PUSH2 0x8A7 PUSH1 0x66 DUP3 PUSH2 0x1CE7 JUMP JUMPDEST ISZERO PUSH2 0x707 JUMPI PUSH1 0x40 MLOAD CALLER SWAP1 PUSH1 0x1 PUSH1 0x1 PUSH1 0xA0 SHL SUB DUP4 AND SWAP1 PUSH32 0x7C0C3C84C67C85FCAC635147348BFE374C24A1A93D0366D1CFE9D8853CBF89D5 SWAP1 PUSH1 0x0 SWAP1 LOG3 PUSH2 0x8ED PUSH1 0x66 DUP3 PUSH2 0x23CE JUMP JUMPDEST POP POP JUMP JUMPDEST PUSH1 0x1 PUSH1 0x1 PUSH1 0xA0 SHL SUB DUP6 AND CALLER EQ DUP1 PUSH2 0x90D JUMPI POP PUSH2 0x90D DUP6 CALLER PUSH2 0x19E3 JUMP JUMPDEST PUSH2 0x974 JUMPI PUSH1 0x40 MLOAD PUSH3 0x461BCD PUSH1 0xE5 SHL DUP2 MSTORE PUSH1 0x20 PUSH1 0x4 DUP3 ADD MSTORE PUSH1 0x32 PUSH1 0x24 DUP3 ADD MSTORE PUSH32 0x455243313135353A207472616E736665722063616C6C6572206973206E6F7420 PUSH1 0x44 DUP3 ADD MSTORE PUSH18 0x1BDDDB995C881B9BDC88185C1C1C9BDD9959 PUSH1 0x72 SHL PUSH1 0x64 DUP3 ADD MSTORE PUSH1 0x84 ADD PUSH2 0x661 JUMP JUMPDEST PUSH2 0x813 DUP6 DUP6 DUP6 DUP6 DUP6 PUSH2 0x23E3 JUMP JUMPDEST CALLER PUSH2 0x98A PUSH2 0x1400 JUMP JUMPDEST PUSH1 0x1 PUSH1 0x1 PUSH1 0xA0 SHL SUB AND EQ DUP1 PUSH2 0x9A5 JUMPI POP PUSH2 0x9A5 PUSH1 0x66 CALLER PUSH2 0x1CE7 JUMP JUMPDEST PUSH2 0x9C1 JUMPI PUSH1 0x40 MLOAD PUSH3 0x461BCD PUSH1 0xE5 SHL DUP2 MSTORE PUSH1 0x4 ADD PUSH2 0x661 SWAP1 PUSH2 0x51BE JUMP JUMPDEST PUSH2 0x8ED DUP3 DUP3 DUP1 DUP1 PUSH1 0x1F ADD PUSH1 0x20 DUP1 SWAP2 DIV MUL PUSH1 0x20 ADD PUSH1 0x40 MLOAD SWAP1 DUP2 ADD PUSH1 0x40 MSTORE DUP1 SWAP4 SWAP3 SWAP2 SWAP1 DUP2 DUP2 MSTORE PUSH1 0x20 ADD DUP4 DUP4 DUP1 DUP3 DUP5 CALLDATACOPY PUSH1 0x0 SWAP3 ADD SWAP2 SWAP1 SWAP2 MSTORE POP PUSH2 0x257E SWAP3 POP POP POP JUMP JUMPDEST CALLER PUSH2 0xA09 PUSH2 0x1400 JUMP JUMPDEST PUSH1 0x1 PUSH1 0x1 PUSH1 0xA0 SHL SUB AND EQ DUP1 PUSH2 0xA24 JUMPI POP PUSH2 0xA24 PUSH1 0x66 CALLER PUSH2 0x1CE7 JUMP JUMPDEST PUSH2 0xA40 JUMPI PUSH1 0x40 MLOAD PUSH3 0x461BCD PUSH1 0xE5 SHL DUP2 MSTORE PUSH1 0x4 ADD PUSH2 0x661 SWAP1 PUSH2 0x51BE JUMP JUMPDEST DUP3 PUSH2 0xA4C PUSH1 0xCF DUP3 PUSH2 0x1CE7 JUMP JUMPDEST ISZERO PUSH2 0xA69 JUMPI PUSH1 0x40 MLOAD PUSH3 0x461BCD PUSH1 0xE5 SHL DUP2 MSTORE PUSH1 0x4 ADD PUSH2 0x661 SWAP1 PUSH2 0x5237 JUMP JUMPDEST PUSH2 0xA76 DUP5 DUP5 DUP5 PUSH1 0x0 PUSH2 0x2597 JUMP JUMPDEST POP POP POP POP JUMP JUMPDEST PUSH1 0x60 PUSH2 0xA88 PUSH1 0x66 PUSH2 0x26D1 JUMP JUMPDEST PUSH1 0x1 PUSH1 0x1 PUSH1 0x40 SHL SUB DUP2 GT ISZERO PUSH2 0xA9F JUMPI PUSH2 0xA9F PUSH2 0x4A22 JUMP JUMPDEST PUSH1 0x40 MLOAD SWAP1 DUP1 DUP3 MSTORE DUP1 PUSH1 0x20 MUL PUSH1 0x20 ADD DUP3 ADD PUSH1 0x40 MSTORE DUP1 ISZERO PUSH2 0xAC8 JUMPI DUP2 PUSH1 0x20 ADD PUSH1 0x20 DUP3 MUL DUP1 CALLDATASIZE DUP4 CALLDATACOPY ADD SWAP1 POP JUMPDEST POP SWAP1 POP PUSH1 0x0 JUMPDEST PUSH2 0xAD8 PUSH1 0x66 PUSH2 0x26D1 JUMP JUMPDEST DUP2 LT ISZERO PUSH2 0xB26 JUMPI PUSH2 0xAEA PUSH1 0x66 DUP3 PUSH2 0x26DB JUMP JUMPDEST DUP3 DUP3 DUP2 MLOAD DUP2 LT PUSH2 0xAFC JUMPI PUSH2 0xAFC PUSH2 0x5266 JUMP JUMPDEST PUSH1 0x1 PUSH1 0x1 PUSH1 0xA0 SHL SUB SWAP1 SWAP3 AND PUSH1 0x20 SWAP3 DUP4 MUL SWAP2 SWAP1 SWAP2 ADD SWAP1 SWAP2 ADD MSTORE DUP1 PUSH2 0xB1E DUP2 PUSH2 0x5292 JUMP JUMPDEST SWAP2 POP POP PUSH2 0xACE JUMP JUMPDEST POP SWAP1 JUMP JUMPDEST CALLER PUSH2 0xB33 PUSH2 0x1400 JUMP JUMPDEST PUSH1 0x1 PUSH1 0x1 PUSH1 0xA0 SHL SUB AND EQ DUP1 PUSH2 0xB4E JUMPI POP PUSH2 0xB4E PUSH1 0x66 CALLER PUSH2 0x1CE7 JUMP JUMPDEST PUSH2 0xB6A JUMPI PUSH1 0x40 MLOAD PUSH3 0x461BCD PUSH1 0xE5 SHL DUP2 MSTORE PUSH1 0x4 ADD PUSH2 0x661 SWAP1 PUSH2 0x51BE JUMP JUMPDEST PUSH2 0xA76 ADDRESS DUP6 DUP6 DUP6 DUP6 PUSH2 0x26E7 JUMP JUMPDEST PUSH1 0x2 PUSH1 0x65 SLOAD SUB PUSH2 0xB99 JUMPI PUSH1 0x40 MLOAD PUSH3 0x461BCD PUSH1 0xE5 SHL DUP2 MSTORE PUSH1 0x4 ADD PUSH2 0x661 SWAP1 PUSH2 0x52AB JUMP JUMPDEST PUSH1 0x2 PUSH1 0x65 SSTORE PUSH1 0x1 PUSH1 0x1 PUSH1 0xA0 SHL SUB DUP4 AND CALLER EQ DUP1 PUSH2 0xBBA JUMPI POP PUSH2 0xBBA DUP4 CALLER PUSH2 0x19E3 JUMP JUMPDEST PUSH2 0xC06 JUMPI PUSH1 0x40 MLOAD PUSH3 0x461BCD PUSH1 0xE5 SHL DUP2 MSTORE PUSH1 0x20 PUSH1 0x4 DUP3 ADD DUP2 SWAP1 MSTORE PUSH1 0x24 DUP3 ADD MSTORE PUSH32 0x43616C6C6572206973206E6F74206F776E6572206E6F7220617070726F766564 PUSH1 0x44 DUP3 ADD MSTORE PUSH1 0x64 ADD PUSH2 0x661 JUMP JUMPDEST DUP1 MLOAD DUP3 MLOAD EQ PUSH2 0xC27 JUMPI PUSH1 0x40 MLOAD PUSH3 0x461BCD PUSH1 0xE5 SHL DUP2 MSTORE PUSH1 0x4 ADD PUSH2 0x661 SWAP1 PUSH2 0x52E2 JUMP JUMPDEST DUP2 MLOAD PUSH1 0x1 SUB PUSH2 0xC74 JUMPI PUSH2 0xC6F DUP4 DUP4 PUSH1 0x0 DUP2 MLOAD DUP2 LT PUSH2 0xC47 JUMPI PUSH2 0xC47 PUSH2 0x5266 JUMP JUMPDEST PUSH1 0x20 MUL PUSH1 0x20 ADD ADD MLOAD DUP4 PUSH1 0x0 DUP2 MLOAD DUP2 LT PUSH2 0xC62 JUMPI PUSH2 0xC62 PUSH2 0x5266 JUMP JUMPDEST PUSH1 0x20 MUL PUSH1 0x20 ADD ADD MLOAD PUSH2 0x2845 JUMP JUMPDEST PUSH2 0xC7F JUMP JUMPDEST PUSH2 0xC7F DUP4 DUP4 DUP4 PUSH2 0x2878 JUMP JUMPDEST PUSH2 0xC8A DUP4 DUP4 DUP4 PUSH2 0x28FA JUMP JUMPDEST POP POP PUSH1 0x1 PUSH1 0x65 SSTORE POP JUMP JUMPDEST PUSH2 0xC9F PUSH1 0xCD CALLER PUSH2 0x1CE7 JUMP JUMPDEST PUSH2 0xCBB JUMPI PUSH1 0x40 MLOAD PUSH3 0x461BCD PUSH1 0xE5 SHL DUP2 MSTORE PUSH1 0x4 ADD PUSH2 0x661 SWAP1 PUSH2 0x5309 JUMP JUMPDEST PUSH2 0x8ED DUP3 DUP3 PUSH1 0x0 PUSH2 0x2A6E JUMP JUMPDEST CALLER PUSH2 0xCD0 PUSH2 0x1400 JUMP JUMPDEST PUSH1 0x1 PUSH1 0x1 PUSH1 0xA0 SHL SUB AND EQ DUP1 PUSH2 0xCEB JUMPI POP PUSH2 0xCEB PUSH1 0x66 CALLER PUSH2 0x1CE7 JUMP JUMPDEST PUSH2 0xD07 JUMPI PUSH1 0x40 MLOAD PUSH3 0x461BCD PUSH1 0xE5 SHL DUP2 MSTORE PUSH1 0x4 ADD PUSH2 0x661 SWAP1 PUSH2 0x51BE JUMP JUMPDEST DUP4 PUSH2 0xD13 PUSH1 0xCF DUP3 PUSH2 0x1CE7 JUMP JUMPDEST ISZERO PUSH2 0xD30 JUMPI PUSH1 0x40 MLOAD PUSH3 0x461BCD PUSH1 0xE5 SHL DUP2 MSTORE PUSH1 0x4 ADD PUSH2 0x661 SWAP1 PUSH2 0x5237 JUMP JUMPDEST PUSH2 0x813 DUP6 DUP6 DUP6 DUP6 PUSH2 0x2597 JUMP JUMPDEST PUSH1 0x60 DUP2 MLOAD DUP4 MLOAD EQ PUSH2 0xDA1 JUMPI PUSH1 0x40 MLOAD PUSH3 0x461BCD PUSH1 0xE5 SHL DUP2 MSTORE PUSH1 0x20 PUSH1 0x4 DUP3 ADD MSTORE PUSH1 0x29 PUSH1 0x24 DUP3 ADD MSTORE PUSH32 0x455243313135353A206163636F756E747320616E6420696473206C656E677468 PUSH1 0x44 DUP3 ADD MSTORE PUSH9 0x40DAD2E6DAC2E8C6D PUSH1 0xBB SHL PUSH1 0x64 DUP3 ADD MSTORE PUSH1 0x84 ADD PUSH2 0x661 JUMP JUMPDEST PUSH1 0x0 DUP4 MLOAD PUSH1 0x1 PUSH1 0x1 PUSH1 0x40 SHL SUB DUP2 GT ISZERO PUSH2 0xDBC JUMPI PUSH2 0xDBC PUSH2 0x4A22 JUMP JUMPDEST PUSH1 0x40 MLOAD SWAP1 DUP1 DUP3 MSTORE DUP1 PUSH1 0x20 MUL PUSH1 0x20 ADD DUP3 ADD PUSH1 0x40 MSTORE DUP1 ISZERO PUSH2 0xDE5 JUMPI DUP2 PUSH1 0x20 ADD PUSH1 0x20 DUP3 MUL DUP1 CALLDATASIZE DUP4 CALLDATACOPY ADD SWAP1 POP JUMPDEST POP SWAP1 POP PUSH1 0x0 JUMPDEST DUP5 MLOAD DUP2 LT ISZERO PUSH2 0xE5D JUMPI PUSH2 0xE30 DUP6 DUP3 DUP2 MLOAD DUP2 LT PUSH2 0xE09 JUMPI PUSH2 0xE09 PUSH2 0x5266 JUMP JUMPDEST PUSH1 0x20 MUL PUSH1 0x20 ADD ADD MLOAD DUP6 DUP4 DUP2 MLOAD DUP2 LT PUSH2 0xE23 JUMPI PUSH2 0xE23 PUSH2 0x5266 JUMP JUMPDEST PUSH1 0x20 MUL PUSH1 0x20 ADD ADD MLOAD PUSH2 0x5F9 JUMP JUMPDEST DUP3 DUP3 DUP2 MLOAD DUP2 LT PUSH2 0xE42 JUMPI PUSH2 0xE42 PUSH2 0x5266 JUMP JUMPDEST PUSH1 0x20 SWAP1 DUP2 MUL SWAP2 SWAP1 SWAP2 ADD ADD MSTORE PUSH2 0xE56 DUP2 PUSH2 0x5292 JUMP JUMPDEST SWAP1 POP PUSH2 0xDEB JUMP JUMPDEST POP SWAP4 SWAP3 POP POP POP JUMP JUMPDEST PUSH2 0xE70 PUSH1 0xCD CALLER PUSH2 0x1CE7 JUMP JUMPDEST PUSH2 0xE8C JUMPI PUSH1 0x40 MLOAD PUSH3 0x461BCD PUSH1 0xE5 SHL DUP2 MSTORE PUSH1 0x4 ADD PUSH2 0x661 SWAP1 PUSH2 0x5309 JUMP JUMPDEST DUP3 MLOAD DUP2 EQ PUSH2 0xEAC JUMPI PUSH1 0x40 MLOAD PUSH3 0x461BCD PUSH1 0xE5 SHL DUP2 MSTORE PUSH1 0x4 ADD PUSH2 0x661 SWAP1 PUSH2 0x52E2 JUMP JUMPDEST PUSH1 0x0 JUMPDEST DUP4 MLOAD DUP2 LT ISZERO PUSH2 0xA76 JUMPI PUSH2 0xEFE DUP5 DUP3 DUP2 MLOAD DUP2 LT PUSH2 0xECD JUMPI PUSH2 0xECD PUSH2 0x5266 JUMP JUMPDEST PUSH1 0x20 MUL PUSH1 0x20 ADD ADD MLOAD DUP5 DUP5 DUP5 DUP2 DUP2 LT PUSH2 0xEE7 JUMPI PUSH2 0xEE7 PUSH2 0x5266 JUMP JUMPDEST SWAP1 POP PUSH1 0x20 MUL DUP2 ADD SWAP1 PUSH2 0xEF9 SWAP2 SWAP1 PUSH2 0x533F JUMP JUMPDEST PUSH2 0x2AAB JUMP JUMPDEST DUP1 PUSH2 0xF08 DUP2 PUSH2 0x5292 JUMP JUMPDEST SWAP2 POP POP PUSH2 0xEAF JUMP JUMPDEST PUSH2 0xF1B PUSH1 0xCD CALLER PUSH2 0x1CE7 JUMP JUMPDEST PUSH2 0xF37 JUMPI PUSH1 0x40 MLOAD PUSH3 0x461BCD PUSH1 0xE5 SHL DUP2 MSTORE PUSH1 0x4 ADD PUSH2 0x661 SWAP1 PUSH2 0x5309 JUMP JUMPDEST PUSH2 0x8ED DUP3 DUP3 PUSH2 0x2AE1 JUMP JUMPDEST PUSH1 0x2 PUSH1 0x65 SLOAD SUB PUSH2 0xF63 JUMPI PUSH1 0x40 MLOAD PUSH3 0x461BCD PUSH1 0xE5 SHL DUP2 MSTORE PUSH1 0x4 ADD PUSH2 0x661 SWAP1 PUSH2 0x52AB JUMP JUMPDEST PUSH1 0x2 PUSH1 0x65 SSTORE CALLER PUSH2 0xF71 PUSH2 0x1400 JUMP JUMPDEST PUSH1 0x1 PUSH1 0x1 PUSH1 0xA0 SHL SUB AND EQ DUP1 PUSH2 0xF8C JUMPI POP PUSH2 0xF8C PUSH1 0x66 CALLER PUSH2 0x1CE7 JUMP JUMPDEST PUSH2 0xFA8 JUMPI PUSH1 0x40 MLOAD PUSH3 0x461BCD PUSH1 0xE5 SHL DUP2 MSTORE PUSH1 0x4 ADD PUSH2 0x661 SWAP1 PUSH2 0x51BE JUMP JUMPDEST PUSH1 0x0 JUMPDEST DUP4 DUP2 LT ISZERO PUSH2 0x1058 JUMPI ADDRESS PUSH1 0xD3 PUSH1 0x0 DUP8 DUP8 DUP6 DUP2 DUP2 LT PUSH2 0xFCA JUMPI PUSH2 0xFCA PUSH2 0x5266 JUMP JUMPDEST PUSH1 0x20 SWAP1 DUP2 MUL SWAP3 SWAP1 SWAP3 ADD CALLDATALOAD DUP4 MSTORE POP DUP2 ADD SWAP2 SWAP1 SWAP2 MSTORE PUSH1 0x40 ADD PUSH1 0x0 KECCAK256 SLOAD PUSH1 0x1 PUSH1 0x1 PUSH1 0xA0 SHL SUB AND EQ PUSH2 0x1046 JUMPI PUSH1 0x40 MLOAD PUSH3 0x461BCD PUSH1 0xE5 SHL DUP2 MSTORE PUSH1 0x20 PUSH1 0x4 DUP3 ADD MSTORE PUSH1 0x23 PUSH1 0x24 DUP3 ADD MSTORE PUSH32 0x4120746F6B656E20776173206372656174656420627920616E20657874656E73 PUSH1 0x44 DUP3 ADD MSTORE PUSH3 0x34B7B7 PUSH1 0xE9 SHL PUSH1 0x64 DUP3 ADD MSTORE PUSH1 0x84 ADD PUSH2 0x661 JUMP JUMPDEST DUP1 PUSH2 0x1050 DUP2 PUSH2 0x5292 JUMP JUMPDEST SWAP2 POP POP PUSH2 0xFAB JUMP JUMPDEST POP PUSH2 0x10F8 ADDRESS DUP8 DUP8 DUP1 DUP1 PUSH1 0x20 MUL PUSH1 0x20 ADD PUSH1 0x40 MLOAD SWAP1 DUP2 ADD PUSH1 0x40 MSTORE DUP1 SWAP4 SWAP3 SWAP2 SWAP1 DUP2 DUP2 MSTORE PUSH1 0x20 ADD DUP4 DUP4 PUSH1 0x20 MUL DUP1 DUP3 DUP5 CALLDATACOPY PUSH1 0x0 SWAP3 ADD SWAP2 SWAP1 SWAP2 MSTORE POP POP PUSH1 0x40 DUP1 MLOAD PUSH1 0x20 DUP1 DUP12 MUL DUP3 DUP2 ADD DUP3 ADD SWAP1 SWAP4 MSTORE DUP11 DUP3 MSTORE SWAP1 SWAP4 POP DUP11 SWAP3 POP DUP10 SWAP2 DUP3 SWAP2 DUP6 ADD SWAP1 DUP5 SWAP1 DUP1 DUP3 DUP5 CALLDATACOPY PUSH1 0x0 SWAP3 ADD SWAP2 SWAP1 SWAP2 MSTORE POP POP PUSH1 0x40 DUP1 MLOAD PUSH1 0x20 DUP1 DUP11 MUL DUP3 DUP2 ADD DUP3 ADD SWAP1 SWAP4 MSTORE DUP10 DUP3 MSTORE SWAP1 SWAP4 POP DUP10 SWAP3 POP DUP9 SWAP2 DUP3 SWAP2 DUP6 ADD SWAP1 DUP5 SWAP1 DUP1 DUP3 DUP5 CALLDATACOPY PUSH1 0x0 SWAP3 ADD SWAP2 SWAP1 SWAP2 MSTORE POP PUSH2 0x2AFB SWAP3 POP POP POP JUMP JUMPDEST POP POP PUSH1 0x1 PUSH1 0x65 SSTORE POP POP POP POP JUMP JUMPDEST CALLER PUSH2 0x110E PUSH2 0x1400 JUMP JUMPDEST PUSH1 0x1 PUSH1 0x1 PUSH1 0xA0 SHL SUB AND EQ PUSH2 0x1134 JUMPI PUSH1 0x40 MLOAD PUSH3 0x461BCD PUSH1 0xE5 SHL DUP2 MSTORE PUSH1 0x4 ADD PUSH2 0x661 SWAP1 PUSH2 0x5202 JUMP JUMPDEST PUSH2 0x113F PUSH1 0x66 DUP3 PUSH2 0x1CE7 JUMP JUMPDEST PUSH2 0x707 JUMPI PUSH1 0x40 MLOAD CALLER SWAP1 PUSH1 0x1 PUSH1 0x1 PUSH1 0xA0 SHL SUB DUP4 AND SWAP1 PUSH32 0x7E1A1A08D52E4BA0E21554733D66165FD5151F99460116223D9E3A608EEC5CB1 SWAP1 PUSH1 0x0 SWAP1 LOG3 PUSH2 0x8ED PUSH1 0x66 DUP3 PUSH2 0x2DDD JUMP JUMPDEST CALLER PUSH2 0x118D PUSH2 0x1400 JUMP JUMPDEST PUSH1 0x1 PUSH1 0x1 PUSH1 0xA0 SHL SUB AND EQ PUSH2 0x11B3 JUMPI PUSH1 0x40 MLOAD PUSH3 0x461BCD PUSH1 0xE5 SHL DUP2 MSTORE PUSH1 0x4 ADD PUSH2 0x661 SWAP1 PUSH2 0x5202 JUMP JUMPDEST PUSH2 0x11BD PUSH1 0x0 PUSH2 0x2DF2 JUMP JUMPDEST JUMP JUMPDEST PUSH1 0x0 SLOAD PUSH2 0x100 SWAP1 DIV PUSH1 0xFF AND DUP1 PUSH2 0x11D8 JUMPI POP PUSH1 0x0 SLOAD PUSH1 0xFF AND ISZERO JUMPDEST PUSH2 0x11F4 JUMPI PUSH1 0x40 MLOAD PUSH3 0x461BCD PUSH1 0xE5 SHL DUP2 MSTORE PUSH1 0x4 ADD PUSH2 0x661 SWAP1 PUSH2 0x5385 JUMP JUMPDEST PUSH1 0x0 SLOAD PUSH2 0x100 SWAP1 DIV PUSH1 0xFF AND ISZERO DUP1 ISZERO PUSH2 0x1216 JUMPI PUSH1 0x0 DUP1 SLOAD PUSH2 0xFFFF NOT AND PUSH2 0x101 OR SWAP1 SSTORE JUMPDEST PUSH2 0x122E PUSH1 0x40 MLOAD DUP1 PUSH1 0x20 ADD PUSH1 0x40 MSTORE DUP1 PUSH1 0x0 DUP2 MSTORE POP PUSH2 0x2E44 JUMP JUMPDEST PUSH2 0x1236 PUSH2 0x2EC9 JUMP JUMPDEST DUP1 ISZERO PUSH2 0x707 JUMPI PUSH1 0x0 DUP1 SLOAD PUSH2 0xFF00 NOT AND SWAP1 SSTORE POP JUMP JUMPDEST PUSH2 0x1255 PUSH1 0xCD CALLER PUSH2 0x1CE7 JUMP JUMPDEST PUSH2 0x1271 JUMPI PUSH1 0x40 MLOAD PUSH3 0x461BCD PUSH1 0xE5 SHL DUP2 MSTORE PUSH1 0x4 ADD PUSH2 0x661 SWAP1 PUSH2 0x5309 JUMP JUMPDEST PUSH2 0x7C1 DUP4 DUP4 DUP4 PUSH2 0x2A6E JUMP JUMPDEST PUSH1 0x60 PUSH2 0x1288 PUSH1 0xCD PUSH2 0x26D1 JUMP JUMPDEST PUSH1 0x1 PUSH1 0x1 PUSH1 0x40 SHL SUB DUP2 GT ISZERO PUSH2 0x129F JUMPI PUSH2 0x129F PUSH2 0x4A22 JUMP JUMPDEST PUSH1 0x40 MLOAD SWAP1 DUP1 DUP3 MSTORE DUP1 PUSH1 0x20 MUL PUSH1 0x20 ADD DUP3 ADD PUSH1 0x40 MSTORE DUP1 ISZERO PUSH2 0x12C8 JUMPI DUP2 PUSH1 0x20 ADD PUSH1 0x20 DUP3 MUL DUP1 CALLDATASIZE DUP4 CALLDATACOPY ADD SWAP1 POP JUMPDEST POP SWAP1 POP PUSH1 0x0 JUMPDEST PUSH2 0x12D8 PUSH1 0xCD PUSH2 0x26D1 JUMP JUMPDEST DUP2 LT ISZERO PUSH2 0xB26 JUMPI PUSH2 0x12EA PUSH1 0xCD DUP3 PUSH2 0x26DB JUMP JUMPDEST DUP3 DUP3 DUP2 MLOAD DUP2 LT PUSH2 0x12FC JUMPI PUSH2 0x12FC PUSH2 0x5266 JUMP JUMPDEST PUSH1 0x1 PUSH1 0x1 PUSH1 0xA0 SHL SUB SWAP1 SWAP3 AND PUSH1 0x20 SWAP3 DUP4 MUL SWAP2 SWAP1 SWAP2 ADD SWAP1 SWAP2 ADD MSTORE DUP1 PUSH2 0x131E DUP2 PUSH2 0x5292 JUMP JUMPDEST SWAP2 POP POP PUSH2 0x12CE JUMP JUMPDEST PUSH1 0x60 PUSH1 0x2 PUSH1 0x65 SLOAD SUB PUSH2 0x134A JUMPI PUSH1 0x40 MLOAD PUSH3 0x461BCD PUSH1 0xE5 SHL DUP2 MSTORE PUSH1 0x4 ADD PUSH2 0x661 SWAP1 PUSH2 0x52AB JUMP JUMPDEST PUSH1 0x2 PUSH1 0x65 SSTORE PUSH2 0x135A PUSH1 0xCD CALLER PUSH2 0x1CE7 JUMP JUMPDEST PUSH2 0x1376 JUMPI PUSH1 0x40 MLOAD PUSH3 0x461BCD PUSH1 0xE5 SHL DUP2 MSTORE PUSH1 0x4 ADD PUSH2 0x661 SWAP1 PUSH2 0x5309 JUMP JUMPDEST PUSH2 0x13F0 CALLER DUP9 DUP9 DUP1 DUP1 PUSH1 0x20 MUL PUSH1 0x20 ADD PUSH1 0x40 MLOAD SWAP1 DUP2 ADD PUSH1 0x40 MSTORE DUP1 SWAP4 SWAP3 SWAP2 SWAP1 DUP2 DUP2 MSTORE PUSH1 0x20 ADD DUP4 DUP4 PUSH1 0x20 MUL DUP1 DUP3 DUP5 CALLDATACOPY PUSH1 0x0 SWAP3 ADD SWAP2 SWAP1 SWAP2 MSTORE POP POP PUSH1 0x40 DUP1 MLOAD PUSH1 0x20 DUP1 DUP13 MUL DUP3 DUP2 ADD DUP3 ADD SWAP1 SWAP4 MSTORE DUP12 DUP3 MSTORE SWAP1 SWAP4 POP DUP12 SWAP3 POP DUP11 SWAP2 DUP3 SWAP2 DUP6 ADD SWAP1 DUP5 SWAP1 DUP1 DUP3 DUP5 CALLDATACOPY PUSH1 0x0 SWAP3 ADD SWAP2 SWAP1 SWAP2 MSTORE POP PUSH2 0x13EB SWAP3 POP DUP9 SWAP2 POP DUP10 SWAP1 POP PUSH2 0x53D3 JUMP JUMPDEST PUSH2 0x2F30 JUMP JUMPDEST PUSH1 0x1 PUSH1 0x65 SSTORE SWAP8 SWAP7 POP POP POP POP POP POP POP JUMP JUMPDEST PUSH1 0x33 SLOAD PUSH1 0x1 PUSH1 0x1 PUSH1 0xA0 SHL SUB AND SWAP1 JUMP JUMPDEST CALLER PUSH2 0x1418 PUSH2 0x1400 JUMP JUMPDEST PUSH1 0x1 PUSH1 0x1 PUSH1 0xA0 SHL SUB AND EQ DUP1 PUSH2 0x1433 JUMPI POP PUSH2 0x1433 PUSH1 0x66 CALLER PUSH2 0x1CE7 JUMP JUMPDEST PUSH2 0x144F JUMPI PUSH1 0x40 MLOAD PUSH3 0x461BCD PUSH1 0xE5 SHL DUP2 MSTORE PUSH1 0x4 ADD PUSH2 0x661 SWAP1 PUSH2 0x51BE JUMP JUMPDEST PUSH2 0x8ED DUP3 DUP3 PUSH2 0x32DF JUMP JUMPDEST PUSH2 0x8ED CALLER DUP4 DUP4 PUSH2 0x32F9 JUMP JUMPDEST CALLER PUSH2 0x146D PUSH2 0x1400 JUMP JUMPDEST PUSH1 0x1 PUSH1 0x1 PUSH1 0xA0 SHL SUB AND EQ DUP1 PUSH2 0x1488 JUMPI POP PUSH2 0x1488 PUSH1 0x66 CALLER PUSH2 0x1CE7 JUMP JUMPDEST PUSH2 0x14A4 JUMPI PUSH1 0x40 MLOAD PUSH3 0x461BCD PUSH1 0xE5 SHL DUP2 MSTORE PUSH1 0x4 ADD PUSH2 0x661 SWAP1 PUSH2 0x51BE JUMP JUMPDEST DUP3 MLOAD DUP2 EQ PUSH2 0x14C4 JUMPI PUSH1 0x40 MLOAD PUSH3 0x461BCD PUSH1 0xE5 SHL DUP2 MSTORE PUSH1 0x4 ADD PUSH2 0x661 SWAP1 PUSH2 0x52E2 JUMP JUMPDEST PUSH1 0x0 JUMPDEST DUP4 MLOAD DUP2 LT ISZERO PUSH2 0xA76 JUMPI PUSH2 0x1516 DUP5 DUP3 DUP2 MLOAD DUP2 LT PUSH2 0x14E5 JUMPI PUSH2 0x14E5 PUSH2 0x5266 JUMP JUMPDEST PUSH1 0x20 MUL PUSH1 0x20 ADD ADD MLOAD DUP5 DUP5 DUP5 DUP2 DUP2 LT PUSH2 0x14FF JUMPI PUSH2 0x14FF PUSH2 0x5266 JUMP JUMPDEST SWAP1 POP PUSH1 0x20 MUL DUP2 ADD SWAP1 PUSH2 0x1511 SWAP2 SWAP1 PUSH2 0x533F JUMP JUMPDEST PUSH2 0x2109 JUMP JUMPDEST DUP1 PUSH2 0x1520 DUP2 PUSH2 0x5292 JUMP JUMPDEST SWAP2 POP POP PUSH2 0x14C7 JUMP JUMPDEST PUSH2 0x1533 PUSH1 0xCD CALLER PUSH2 0x1CE7 JUMP JUMPDEST PUSH2 0x154F JUMPI PUSH1 0x40 MLOAD PUSH3 0x461BCD PUSH1 0xE5 SHL DUP2 MSTORE PUSH1 0x4 ADD PUSH2 0x661 SWAP1 PUSH2 0x5309 JUMP JUMPDEST DUP1 ISZERO DUP1 PUSH2 0x1568 JUMPI POP PUSH2 0x1568 CALLER PUSH4 0x24EA02C5 PUSH1 0xE2 SHL PUSH2 0x33D9 JUMP JUMPDEST PUSH2 0x15DC JUMPI PUSH1 0x40 DUP1 MLOAD PUSH3 0x461BCD PUSH1 0xE5 SHL DUP2 MSTORE PUSH1 0x20 PUSH1 0x4 DUP3 ADD MSTORE PUSH1 0x24 DUP2 ADD SWAP2 SWAP1 SWAP2 MSTORE PUSH32 0x457874656E73696F6E206D75737420696D706C656D656E742049455243313135 PUSH1 0x44 DUP3 ADD MSTORE PUSH32 0x3543726561746F72457874656E73696F6E417070726F76655472616E73666572 PUSH1 0x64 DUP3 ADD MSTORE PUSH1 0x84 ADD PUSH2 0x661 JUMP JUMPDEST CALLER PUSH1 0x0 SWAP1 DUP2 MSTORE PUSH1 0xD2 PUSH1 0x20 MSTORE PUSH1 0x40 SWAP1 KECCAK256 SLOAD PUSH1 0xFF AND ISZERO ISZERO DUP2 ISZERO ISZERO EQ PUSH2 0x707 JUMPI CALLER PUSH1 0x0 DUP2 DUP2 MSTORE PUSH1 0xD2 PUSH1 0x20 SWAP1 DUP2 MSTORE PUSH1 0x40 SWAP2 DUP3 SWAP1 KECCAK256 DUP1 SLOAD PUSH1 0xFF NOT AND DUP6 ISZERO ISZERO SWAP1 DUP2 OR SWAP1 SWAP2 SSTORE SWAP2 MLOAD SWAP2 DUP3 MSTORE PUSH32 0x72A7592283E2C2D1D56D21517FF6013325E0F55483F4828373FF4D98B0A1A36 SWAP2 ADD PUSH1 0x40 MLOAD DUP1 SWAP2 SUB SWAP1 LOG2 POP JUMP JUMPDEST CALLER PUSH2 0x1657 PUSH2 0x1400 JUMP JUMPDEST PUSH1 0x1 PUSH1 0x1 PUSH1 0xA0 SHL SUB AND EQ DUP1 PUSH2 0x1672 JUMPI POP PUSH2 0x1672 PUSH1 0x66 CALLER PUSH2 0x1CE7 JUMP JUMPDEST PUSH2 0x168E JUMPI PUSH1 0x40 MLOAD PUSH3 0x461BCD PUSH1 0xE5 SHL DUP2 MSTORE PUSH1 0x4 ADD PUSH2 0x661 SWAP1 PUSH2 0x51BE JUMP JUMPDEST PUSH2 0x813 DUP6 DUP6 DUP6 DUP6 DUP6 PUSH2 0x26E7 JUMP JUMPDEST PUSH1 0x60 PUSH2 0x16A6 DUP3 PUSH2 0x33F5 JUMP JUMPDEST DUP1 SLOAD DUP1 PUSH1 0x20 MUL PUSH1 0x20 ADD PUSH1 0x40 MLOAD SWAP1 DUP2 ADD PUSH1 0x40 MSTORE DUP1 SWAP3 SWAP2 SWAP1 DUP2 DUP2 MSTORE PUSH1 0x20 ADD DUP3 DUP1 SLOAD DUP1 ISZERO PUSH2 0x76A JUMPI PUSH1 0x20 MUL DUP3 ADD SWAP2 SWAP1 PUSH1 0x0 MSTORE PUSH1 0x20 PUSH1 0x0 KECCAK256 SWAP1 JUMPDEST DUP2 SLOAD PUSH1 0x1 PUSH1 0x1 PUSH1 0xA0 SHL SUB AND DUP2 MSTORE PUSH1 0x1 SWAP1 SWAP2 ADD SWAP1 PUSH1 0x20 ADD DUP1 DUP4 GT PUSH2 0x16DC JUMPI POP POP POP POP POP SWAP1 POP SWAP2 SWAP1 POP JUMP JUMPDEST PUSH1 0x60 DUP1 PUSH2 0x1711 DUP4 PUSH2 0x3481 JUMP JUMPDEST DUP2 SLOAD PUSH1 0x40 DUP1 MLOAD PUSH1 0x20 DUP1 DUP5 MUL DUP3 ADD DUP2 ADD SWAP1 SWAP3 MSTORE DUP3 DUP2 MSTORE SWAP2 DUP5 SWAP2 DUP4 ADD DUP3 DUP3 DUP1 ISZERO PUSH2 0x1762 JUMPI PUSH1 0x20 MUL DUP3 ADD SWAP2 SWAP1 PUSH1 0x0 MSTORE PUSH1 0x20 PUSH1 0x0 KECCAK256 SWAP1 JUMPDEST DUP2 SLOAD PUSH1 0x1 PUSH1 0x1 PUSH1 0xA0 SHL SUB AND DUP2 MSTORE PUSH1 0x1 SWAP1 SWAP2 ADD SWAP1 PUSH1 0x20 ADD DUP1 DUP4 GT PUSH2 0x1744 JUMPI JUMPDEST POP POP POP POP POP SWAP2 POP DUP1 DUP1 SLOAD DUP1 PUSH1 0x20 MUL PUSH1 0x20 ADD PUSH1 0x40 MLOAD SWAP1 DUP2 ADD PUSH1 0x40 MSTORE DUP1 SWAP3 SWAP2 SWAP1 DUP2 DUP2 MSTORE PUSH1 0x20 ADD DUP3 DUP1 SLOAD DUP1 ISZERO PUSH2 0x17B4 JUMPI PUSH1 0x20 MUL DUP3 ADD SWAP2 SWAP1 PUSH1 0x0 MSTORE PUSH1 0x20 PUSH1 0x0 KECCAK256 SWAP1 JUMPDEST DUP2 SLOAD DUP2 MSTORE PUSH1 0x20 ADD SWAP1 PUSH1 0x1 ADD SWAP1 DUP1 DUP4 GT PUSH2 0x17A0 JUMPI JUMPDEST POP POP POP POP POP SWAP1 POP SWAP2 POP SWAP2 POP SWAP2 POP SWAP2 JUMP JUMPDEST CALLER PUSH2 0x17CD PUSH2 0x1400 JUMP JUMPDEST PUSH1 0x1 PUSH1 0x1 PUSH1 0xA0 SHL SUB AND EQ DUP1 PUSH2 0x17E8 JUMPI POP PUSH2 0x17E8 PUSH1 0x66 CALLER PUSH2 0x1CE7 JUMP JUMPDEST PUSH2 0x1804 JUMPI PUSH1 0x40 MLOAD PUSH3 0x461BCD PUSH1 0xE5 SHL DUP2 MSTORE PUSH1 0x4 ADD PUSH2 0x661 SWAP1 PUSH2 0x51BE JUMP JUMPDEST PUSH2 0x707 DUP2 PUSH2 0x349F JUMP JUMPDEST PUSH1 0x2 PUSH1 0x65 SLOAD SUB PUSH2 0x182F JUMPI PUSH1 0x40 MLOAD PUSH3 0x461BCD PUSH1 0xE5 SHL DUP2 MSTORE PUSH1 0x4 ADD PUSH2 0x661 SWAP1 PUSH2 0x52AB JUMP JUMPDEST PUSH1 0x2 PUSH1 0x65 SSTORE PUSH2 0x183F PUSH1 0xCD CALLER PUSH2 0x1CE7 JUMP JUMPDEST PUSH2 0x185B JUMPI PUSH1 0x40 MLOAD PUSH3 0x461BCD PUSH1 0xE5 SHL DUP2 MSTORE PUSH1 0x4 ADD PUSH2 0x661 SWAP1 PUSH2 0x5309 JUMP JUMPDEST PUSH1 0x0 JUMPDEST DUP4 DUP2 LT ISZERO PUSH2 0x1911 JUMPI CALLER PUSH1 0xD3 PUSH1 0x0 DUP8 DUP8 DUP6 DUP2 DUP2 LT PUSH2 0x187D JUMPI PUSH2 0x187D PUSH2 0x5266 JUMP JUMPDEST PUSH1 0x20 SWAP1 DUP2 MUL SWAP3 SWAP1 SWAP3 ADD CALLDATALOAD DUP4 MSTORE POP DUP2 ADD SWAP2 SWAP1 SWAP2 MSTORE PUSH1 0x40 ADD PUSH1 0x0 KECCAK256 SLOAD PUSH1 0x1 PUSH1 0x1 PUSH1 0xA0 SHL SUB AND EQ PUSH2 0x18FF JUMPI PUSH1 0x40 MLOAD PUSH3 0x461BCD PUSH1 0xE5 SHL DUP2 MSTORE PUSH1 0x20 PUSH1 0x4 DUP3 ADD MSTORE PUSH1 0x29 PUSH1 0x24 DUP3 ADD MSTORE PUSH32 0x4120746F6B656E20776173206E6F742063726561746564206279207468697320 PUSH1 0x44 DUP3 ADD MSTORE PUSH9 0x32BC3A32B739B4B7B7 PUSH1 0xB9 SHL PUSH1 0x64 DUP3 ADD MSTORE PUSH1 0x84 ADD PUSH2 0x661 JUMP JUMPDEST DUP1 PUSH2 0x1909 DUP2 PUSH2 0x5292 JUMP JUMPDEST SWAP2 POP POP PUSH2 0x185E JUMP JUMPDEST POP PUSH2 0x10F8 CALLER DUP8 DUP8 DUP1 DUP1 PUSH1 0x20 MUL PUSH1 0x20 ADD PUSH1 0x40 MLOAD SWAP1 DUP2 ADD PUSH1 0x40 MSTORE DUP1 SWAP4 SWAP3 SWAP2 SWAP1 DUP2 DUP2 MSTORE PUSH1 0x20 ADD DUP4 DUP4 PUSH1 0x20 MUL DUP1 DUP3 DUP5 CALLDATACOPY PUSH1 0x0 SWAP3 ADD SWAP2 SWAP1 SWAP2 MSTORE POP POP PUSH1 0x40 DUP1 MLOAD PUSH1 0x20 DUP1 DUP12 MUL DUP3 DUP2 ADD DUP3 ADD SWAP1 SWAP4 MSTORE DUP11 DUP3 MSTORE SWAP1 SWAP4 POP DUP11 SWAP3 POP DUP10 SWAP2 DUP3 SWAP2 DUP6 ADD SWAP1 DUP5 SWAP1 DUP1 DUP3 DUP5 CALLDATACOPY PUSH1 0x0 SWAP3 ADD SWAP2 SWAP1 SWAP2 MSTORE POP POP PUSH1 0x40 DUP1 MLOAD PUSH1 0x20 DUP1 DUP11 MUL DUP3 DUP2 ADD DUP3 ADD SWAP1 SWAP4 MSTORE DUP10 DUP3 MSTORE SWAP1 SWAP4 POP DUP10 SWAP3 POP DUP9 SWAP2 DUP3 SWAP2 DUP6 ADD SWAP1 DUP5 SWAP1 DUP1 DUP3 DUP5 CALLDATACOPY PUSH1 0x0 SWAP3 ADD SWAP2 SWAP1 SWAP2 MSTORE POP PUSH2 0x2AFB SWAP3 POP POP POP JUMP JUMPDEST PUSH2 0x19BC PUSH1 0xCD CALLER PUSH2 0x1CE7 JUMP JUMPDEST PUSH2 0x19D8 JUMPI PUSH1 0x40 MLOAD PUSH3 0x461BCD PUSH1 0xE5 SHL DUP2 MSTORE PUSH1 0x4 ADD PUSH2 0x661 SWAP1 PUSH2 0x5309 JUMP JUMPDEST PUSH2 0x7C1 DUP4 DUP4 DUP4 PUSH2 0x2AAB JUMP JUMPDEST PUSH1 0x1 PUSH1 0x1 PUSH1 0xA0 SHL SUB SWAP2 DUP3 AND PUSH1 0x0 SWAP1 DUP2 MSTORE PUSH1 0x9B PUSH1 0x20 SWAP1 DUP2 MSTORE PUSH1 0x40 DUP1 DUP4 KECCAK256 SWAP4 SWAP1 SWAP5 AND DUP3 MSTORE SWAP2 SWAP1 SWAP2 MSTORE KECCAK256 SLOAD PUSH1 0xFF AND SWAP1 JUMP JUMPDEST CALLER PUSH2 0x1A1A PUSH2 0x1400 JUMP JUMPDEST PUSH1 0x1 PUSH1 0x1 PUSH1 0xA0 SHL SUB AND EQ DUP1 PUSH2 0x1A35 JUMPI POP PUSH2 0x1A35 PUSH1 0x66 CALLER PUSH2 0x1CE7 JUMP JUMPDEST PUSH2 0x1A51 JUMPI PUSH1 0x40 MLOAD PUSH3 0x461BCD PUSH1 0xE5 SHL DUP2 MSTORE PUSH1 0x4 ADD PUSH2 0x661 SWAP1 PUSH2 0x51BE JUMP JUMPDEST PUSH2 0x8ED DUP3 DUP3 PUSH2 0x34F0 JUMP JUMPDEST PUSH1 0x1 PUSH1 0x1 PUSH1 0xA0 SHL SUB DUP6 AND CALLER EQ DUP1 PUSH2 0x1A77 JUMPI POP PUSH2 0x1A77 DUP6 CALLER PUSH2 0x19E3 JUMP JUMPDEST PUSH2 0x1AD5 JUMPI PUSH1 0x40 MLOAD PUSH3 0x461BCD PUSH1 0xE5 SHL DUP2 MSTORE PUSH1 0x20 PUSH1 0x4 DUP3 ADD MSTORE PUSH1 0x29 PUSH1 0x24 DUP3 ADD MSTORE PUSH32 0x455243313135353A2063616C6C6572206973206E6F74206F776E6572206E6F72 PUSH1 0x44 DUP3 ADD MSTORE PUSH9 0x8185C1C1C9BDD9959 PUSH1 0xBA SHL PUSH1 0x64 DUP3 ADD MSTORE PUSH1 0x84 ADD PUSH2 0x661 JUMP JUMPDEST PUSH2 0x813 DUP6 DUP6 DUP6 DUP6 DUP6 PUSH2 0x3619 JUMP JUMPDEST CALLER PUSH2 0x1AEB PUSH2 0x1400 JUMP JUMPDEST PUSH1 0x1 PUSH1 0x1 PUSH1 0xA0 SHL SUB AND EQ PUSH2 0x1B11 JUMPI PUSH1 0x40 MLOAD PUSH3 0x461BCD PUSH1 0xE5 SHL DUP2 MSTORE PUSH1 0x4 ADD PUSH2 0x661 SWAP1 PUSH2 0x5202 JUMP JUMPDEST PUSH1 0x1 PUSH1 0x1 PUSH1 0xA0 SHL SUB DUP2 AND PUSH2 0x1B76 JUMPI PUSH1 0x40 MLOAD PUSH3 0x461BCD PUSH1 0xE5 SHL DUP2 MSTORE PUSH1 0x20 PUSH1 0x4 DUP3 ADD MSTORE PUSH1 0x26 PUSH1 0x24 DUP3 ADD MSTORE PUSH32 0x4F776E61626C653A206E6577206F776E657220697320746865207A65726F2061 PUSH1 0x44 DUP3 ADD MSTORE PUSH6 0x646472657373 PUSH1 0xD0 SHL PUSH1 0x64 DUP3 ADD MSTORE PUSH1 0x84 ADD PUSH2 0x661 JUMP JUMPDEST PUSH2 0x707 DUP2 PUSH2 0x2DF2 JUMP JUMPDEST PUSH1 0x60 PUSH1 0x2 PUSH1 0x65 SLOAD SUB PUSH2 0x1BA3 JUMPI PUSH1 0x40 MLOAD PUSH3 0x461BCD PUSH1 0xE5 SHL DUP2 MSTORE PUSH1 0x4 ADD PUSH2 0x661 SWAP1 PUSH2 0x52AB JUMP JUMPDEST PUSH1 0x2 PUSH1 0x65 SSTORE CALLER PUSH2 0x1BB1 PUSH2 0x1400 JUMP JUMPDEST PUSH1 0x1 PUSH1 0x1 PUSH1 0xA0 SHL SUB AND EQ DUP1 PUSH2 0x1BCC JUMPI POP PUSH2 0x1BCC PUSH1 0x66 CALLER PUSH2 0x1CE7 JUMP JUMPDEST PUSH2 0x1BE8 JUMPI PUSH1 0x40 MLOAD PUSH3 0x461BCD PUSH1 0xE5 SHL DUP2 MSTORE PUSH1 0x4 ADD PUSH2 0x661 SWAP1 PUSH2 0x51BE JUMP JUMPDEST PUSH2 0x13F0 ADDRESS DUP9 DUP9 DUP1 DUP1 PUSH1 0x20 MUL PUSH1 0x20 ADD PUSH1 0x40 MLOAD SWAP1 DUP2 ADD PUSH1 0x40 MSTORE DUP1 SWAP4 SWAP3 SWAP2 SWAP1 DUP2 DUP2 MSTORE PUSH1 0x20 ADD DUP4 DUP4 PUSH1 0x20 MUL DUP1 DUP3 DUP5 CALLDATACOPY PUSH1 0x0 SWAP3 ADD SWAP2 SWAP1 SWAP2 MSTORE POP POP PUSH1 0x40 DUP1 MLOAD PUSH1 0x20 DUP1 DUP13 MUL DUP3 DUP2 ADD DUP3 ADD SWAP1 SWAP4 MSTORE DUP12 DUP3 MSTORE SWAP1 SWAP4 POP DUP12 SWAP3 POP DUP11 SWAP2 DUP3 SWAP2 DUP6 ADD SWAP1 DUP5 SWAP1 DUP1 DUP3 DUP5 CALLDATACOPY PUSH1 0x0 SWAP3 ADD SWAP2 SWAP1 SWAP2 MSTORE POP PUSH2 0x13EB SWAP3 POP DUP9 SWAP2 POP DUP10 SWAP1 POP PUSH2 0x53D3 JUMP JUMPDEST PUSH1 0x0 PUSH1 0x1 PUSH1 0x1 PUSH1 0xE0 SHL SUB NOT DUP3 AND PUSH4 0x1F49211 PUSH1 0xE6 SHL EQ DUP1 PUSH2 0x68F JUMPI POP PUSH2 0x68F DUP3 PUSH2 0x3737 JUMP JUMPDEST PUSH1 0x0 PUSH1 0x1 PUSH1 0x1 PUSH1 0xE0 SHL SUB NOT DUP3 AND PUSH4 0x6CDB3D13 PUSH1 0xE1 SHL EQ DUP1 PUSH2 0x1CB3 JUMPI POP PUSH1 0x1 PUSH1 0x1 PUSH1 0xE0 SHL SUB NOT DUP3 AND PUSH4 0x3A24D07 PUSH1 0xE2 SHL EQ JUMPDEST DUP1 PUSH2 0x68F JUMPI POP PUSH2 0x68F DUP3 PUSH2 0x37CD JUMP JUMPDEST PUSH1 0x0 PUSH1 0x1 PUSH1 0x1 PUSH1 0xE0 SHL SUB NOT DUP3 AND PUSH4 0x2A9F3ABF PUSH1 0xE1 SHL EQ DUP1 PUSH2 0x68F JUMPI POP PUSH2 0x68F DUP3 PUSH2 0x37CD JUMP JUMPDEST PUSH1 0x1 PUSH1 0x1 PUSH1 0xA0 SHL SUB DUP2 AND PUSH1 0x0 SWAP1 DUP2 MSTORE PUSH1 0x1 DUP4 ADD PUSH1 0x20 MSTORE PUSH1 0x40 DUP2 KECCAK256 SLOAD ISZERO ISZERO JUMPDEST SWAP4 SWAP3 POP POP POP JUMP JUMPDEST ADDRESS PUSH1 0x1 PUSH1 0x1 PUSH1 0xA0 SHL SUB DUP3 AND SUB PUSH2 0x1D60 JUMPI PUSH1 0x40 MLOAD PUSH3 0x461BCD PUSH1 0xE5 SHL DUP2 MSTORE PUSH1 0x20 PUSH1 0x4 DUP3 ADD MSTORE PUSH1 0x19 PUSH1 0x24 DUP3 ADD MSTORE PUSH25 0x21B0B73737BA10313630B1B5B634B9BA103CB7BAB939B2B633 PUSH1 0x39 SHL PUSH1 0x44 DUP3 ADD MSTORE PUSH1 0x64 ADD PUSH2 0x661 JUMP JUMPDEST PUSH2 0x1D6B PUSH1 0xCD DUP3 PUSH2 0x1CE7 JUMP JUMPDEST ISZERO PUSH2 0x1DB3 JUMPI PUSH1 0x40 MLOAD CALLER SWAP1 PUSH1 0x1 PUSH1 0x1 PUSH1 0xA0 SHL SUB DUP4 AND SWAP1 PUSH32 0xD19CF84CF0FEC6BEC9DDFA29C63ADF83A55707C712F32C8285D6180A78901479 SWAP1 PUSH1 0x0 SWAP1 LOG3 PUSH2 0x1DB1 PUSH1 0xCD DUP3 PUSH2 0x23CE JUMP JUMPDEST POP JUMPDEST PUSH2 0x1DBE PUSH1 0xCF DUP3 PUSH2 0x1CE7 JUMP JUMPDEST PUSH2 0x707 JUMPI PUSH1 0x40 MLOAD CALLER SWAP1 PUSH1 0x1 PUSH1 0x1 PUSH1 0xA0 SHL SUB DUP4 AND SWAP1 PUSH32 0x5AC7BC5A606CD92A63365F9FDA244499B9ADD0526B22D99937B6BD88181059C SWAP1 PUSH1 0x0 SWAP1 LOG3 PUSH2 0x8ED PUSH1 0xCF DUP3 PUSH2 0x2DDD JUMP JUMPDEST PUSH1 0x0 DUP2 DUP2 MSTORE PUSH1 0xD3 PUSH1 0x20 MSTORE PUSH1 0x40 SWAP1 KECCAK256 SLOAD PUSH1 0x60 SWAP1 PUSH1 0x1 PUSH1 0x1 PUSH1 0xA0 SHL SUB AND PUSH2 0x1E29 PUSH1 0xCF DUP3 PUSH2 0x1CE7 JUMP JUMPDEST ISZERO PUSH2 0x1E46 JUMPI PUSH1 0x40 MLOAD PUSH3 0x461BCD PUSH1 0xE5 SHL DUP2 MSTORE PUSH1 0x4 ADD PUSH2 0x661 SWAP1 PUSH2 0x5237 JUMP JUMPDEST PUSH1 0x0 DUP4 DUP2 MSTORE PUSH1 0xD7 PUSH1 0x20 MSTORE PUSH1 0x40 SWAP1 KECCAK256 DUP1 SLOAD PUSH2 0x1E5F SWAP1 PUSH2 0x5464 JUMP JUMPDEST ISZERO SWAP1 POP PUSH2 0x1F79 JUMPI PUSH1 0x1 PUSH1 0x1 PUSH1 0xA0 SHL SUB DUP2 AND PUSH1 0x0 SWAP1 DUP2 MSTORE PUSH1 0xD6 PUSH1 0x20 MSTORE PUSH1 0x40 SWAP1 KECCAK256 DUP1 SLOAD PUSH2 0x1E89 SWAP1 PUSH2 0x5464 JUMP JUMPDEST ISZERO SWAP1 POP PUSH2 0x1EDA JUMPI PUSH1 0x1 PUSH1 0x1 PUSH1 0xA0 SHL SUB DUP2 AND PUSH1 0x0 SWAP1 DUP2 MSTORE PUSH1 0xD6 PUSH1 0x20 SWAP1 DUP2 MSTORE PUSH1 0x40 DUP1 DUP4 KECCAK256 DUP7 DUP5 MSTORE PUSH1 0xD7 DUP4 MSTORE SWAP3 DUP2 SWAP1 KECCAK256 SWAP1 MLOAD PUSH2 0x1EC3 SWAP4 SWAP3 ADD PUSH2 0x550B JUMP JUMPDEST PUSH1 0x40 MLOAD PUSH1 0x20 DUP2 DUP4 SUB SUB DUP2 MSTORE SWAP1 PUSH1 0x40 MSTORE SWAP2 POP POP SWAP2 SWAP1 POP JUMP JUMPDEST PUSH1 0x0 DUP4 DUP2 MSTORE PUSH1 0xD7 PUSH1 0x20 MSTORE PUSH1 0x40 SWAP1 KECCAK256 DUP1 SLOAD PUSH2 0x1EF3 SWAP1 PUSH2 0x5464 JUMP JUMPDEST DUP1 PUSH1 0x1F ADD PUSH1 0x20 DUP1 SWAP2 DIV MUL PUSH1 0x20 ADD PUSH1 0x40 MLOAD SWAP1 DUP2 ADD PUSH1 0x40 MSTORE DUP1 SWAP3 SWAP2 SWAP1 DUP2 DUP2 MSTORE PUSH1 0x20 ADD DUP3 DUP1 SLOAD PUSH2 0x1F1F SWAP1 PUSH2 0x5464 JUMP JUMPDEST DUP1 ISZERO PUSH2 0x1F6C JUMPI DUP1 PUSH1 0x1F LT PUSH2 0x1F41 JUMPI PUSH2 0x100 DUP1 DUP4 SLOAD DIV MUL DUP4 MSTORE SWAP2 PUSH1 0x20 ADD SWAP2 PUSH2 0x1F6C JUMP JUMPDEST DUP3 ADD SWAP2 SWAP1 PUSH1 0x0 MSTORE PUSH1 0x20 PUSH1 0x0 KECCAK256 SWAP1 JUMPDEST DUP2 SLOAD DUP2 MSTORE SWAP1 PUSH1 0x1 ADD SWAP1 PUSH1 0x20 ADD DUP1 DUP4 GT PUSH2 0x1F4F JUMPI DUP3 SWAP1 SUB PUSH1 0x1F AND DUP3 ADD SWAP2 JUMPDEST POP POP POP POP POP SWAP2 POP POP SWAP2 SWAP1 POP JUMP JUMPDEST PUSH2 0x1F8A DUP2 PUSH4 0xE9DC6375 PUSH1 0xE0 SHL PUSH2 0x33D9 JUMP JUMPDEST ISZERO PUSH2 0x2002 JUMPI PUSH1 0x40 MLOAD PUSH4 0xE9DC6375 PUSH1 0xE0 SHL DUP2 MSTORE PUSH1 0x1 PUSH1 0x1 PUSH1 0xA0 SHL SUB DUP3 AND SWAP1 PUSH4 0xE9DC6375 SWAP1 PUSH2 0x1FBD SWAP1 ADDRESS SWAP1 DUP8 SWAP1 PUSH1 0x4 ADD PUSH2 0x4A09 JUMP JUMPDEST PUSH1 0x0 PUSH1 0x40 MLOAD DUP1 DUP4 SUB DUP2 DUP7 GAS STATICCALL ISZERO DUP1 ISZERO PUSH2 0x1FDA JUMPI RETURNDATASIZE PUSH1 0x0 DUP1 RETURNDATACOPY RETURNDATASIZE PUSH1 0x0 REVERT JUMPDEST POP POP POP POP PUSH1 0x40 MLOAD RETURNDATASIZE PUSH1 0x0 DUP3 RETURNDATACOPY PUSH1 0x1F RETURNDATASIZE SWAP1 DUP2 ADD PUSH1 0x1F NOT AND DUP3 ADD PUSH1 0x40 MSTORE PUSH2 0x1D05 SWAP2 SWAP1 DUP2 ADD SWAP1 PUSH2 0x5520 JUMP JUMPDEST PUSH1 0x1 PUSH1 0x1 PUSH1 0xA0 SHL SUB DUP2 AND PUSH1 0x0 SWAP1 DUP2 MSTORE PUSH1 0xD5 PUSH1 0x20 MSTORE PUSH1 0x40 SWAP1 KECCAK256 SLOAD PUSH1 0xFF AND PUSH2 0x2054 JUMPI PUSH1 0x1 PUSH1 0x1 PUSH1 0xA0 SHL SUB DUP2 AND PUSH1 0x0 SWAP1 DUP2 MSTORE PUSH1 0xD4 PUSH1 0x20 MSTORE PUSH1 0x40 SWAP1 KECCAK256 PUSH2 0x2043 DUP5 PUSH2 0x37E3 JUMP JUMPDEST PUSH1 0x40 MLOAD PUSH1 0x20 ADD PUSH2 0x1EC3 SWAP3 SWAP2 SWAP1 PUSH2 0x5597 JUMP JUMPDEST PUSH1 0x1 PUSH1 0x1 PUSH1 0xA0 SHL SUB DUP2 AND PUSH1 0x0 SWAP1 DUP2 MSTORE PUSH1 0xD4 PUSH1 0x20 MSTORE PUSH1 0x40 SWAP1 KECCAK256 DUP1 SLOAD PUSH2 0x1EF3 SWAP1 PUSH2 0x5464 JUMP JUMPDEST POP SWAP2 SWAP1 POP JUMP JUMPDEST PUSH1 0x0 DUP2 DUP2 MSTORE PUSH1 0xDB PUSH1 0x20 MSTORE PUSH1 0x40 DUP2 KECCAK256 SLOAD ISZERO PUSH2 0x20A3 JUMPI POP PUSH1 0x0 SWAP1 DUP2 MSTORE PUSH1 0xDB PUSH1 0x20 MSTORE PUSH1 0x40 SWAP1 KECCAK256 SWAP1 JUMP JUMPDEST PUSH1 0x0 DUP3 DUP2 MSTORE PUSH1 0xD3 PUSH1 0x20 SWAP1 DUP2 MSTORE PUSH1 0x40 DUP1 DUP4 KECCAK256 SLOAD PUSH1 0x1 PUSH1 0x1 PUSH1 0xA0 SHL SUB AND DUP4 MSTORE PUSH1 0xD9 SWAP1 SWAP2 MSTORE SWAP1 KECCAK256 SLOAD ISZERO PUSH2 0x20F5 JUMPI POP PUSH1 0x0 SWAP1 DUP2 MSTORE PUSH1 0xD3 PUSH1 0x20 SWAP1 DUP2 MSTORE PUSH1 0x40 DUP1 DUP4 KECCAK256 SLOAD PUSH1 0x1 PUSH1 0x1 PUSH1 0xA0 SHL SUB AND DUP4 MSTORE PUSH1 0xD9 SWAP1 SWAP2 MSTORE SWAP1 KECCAK256 SWAP1 JUMP JUMPDEST POP POP ADDRESS PUSH1 0x0 SWAP1 DUP2 MSTORE PUSH1 0xD9 PUSH1 0x20 MSTORE PUSH1 0x40 SWAP1 KECCAK256 SWAP1 JUMP JUMPDEST PUSH1 0x0 DUP4 DUP2 MSTORE PUSH1 0xD3 PUSH1 0x20 MSTORE PUSH1 0x40 SWAP1 KECCAK256 SLOAD PUSH1 0x1 PUSH1 0x1 PUSH1 0xA0 SHL SUB AND ADDRESS EQ PUSH2 0x213F JUMPI PUSH1 0x40 MLOAD PUSH3 0x461BCD PUSH1 0xE5 SHL DUP2 MSTORE PUSH1 0x4 ADD PUSH2 0x661 SWAP1 PUSH2 0x55BC JUMP JUMPDEST PUSH1 0x0 DUP4 DUP2 MSTORE PUSH1 0xD7 PUSH1 0x20 MSTORE PUSH1 0x40 SWAP1 KECCAK256 PUSH2 0xA76 DUP3 DUP5 DUP4 PUSH2 0x563E JUMP JUMPDEST DUP3 DUP2 EQ PUSH2 0x2177 JUMPI PUSH1 0x40 MLOAD PUSH3 0x461BCD PUSH1 0xE5 SHL DUP2 MSTORE PUSH1 0x4 ADD PUSH2 0x661 SWAP1 PUSH2 0x52E2 JUMP JUMPDEST PUSH1 0x0 DUP1 JUMPDEST DUP3 DUP2 LT ISZERO PUSH2 0x21BB JUMPI DUP4 DUP4 DUP3 DUP2 DUP2 LT PUSH2 0x2195 JUMPI PUSH2 0x2195 PUSH2 0x5266 JUMP JUMPDEST SWAP1 POP PUSH1 0x20 MUL ADD CALLDATALOAD DUP3 PUSH2 0x21A7 SWAP2 SWAP1 PUSH2 0x56F7 JUMP JUMPDEST SWAP2 POP DUP1 PUSH2 0x21B3 DUP2 PUSH2 0x5292 JUMP JUMPDEST SWAP2 POP POP PUSH2 0x217B JUMP JUMPDEST POP PUSH2 0x2710 DUP2 LT PUSH2 0x21DD JUMPI PUSH1 0x40 MLOAD PUSH3 0x461BCD PUSH1 0xE5 SHL DUP2 MSTORE PUSH1 0x4 ADD PUSH2 0x661 SWAP1 PUSH2 0x570A JUMP JUMPDEST PUSH1 0x0 DUP7 DUP2 MSTORE PUSH1 0xDA PUSH1 0x20 MSTORE PUSH1 0x40 SWAP1 KECCAK256 PUSH2 0x21F6 SWAP1 DUP7 DUP7 PUSH2 0x4694 JUMP JUMPDEST POP PUSH1 0x0 DUP7 DUP2 MSTORE PUSH1 0xDB PUSH1 0x20 MSTORE PUSH1 0x40 SWAP1 KECCAK256 PUSH2 0x2210 SWAP1 DUP5 DUP5 PUSH2 0x46F3 JUMP JUMPDEST POP DUP6 PUSH32 0xABB46FE0761D77584BDE75697647804FFD8113ABD4D8D06BC664150395ECCDEE DUP7 DUP7 DUP7 DUP7 PUSH1 0x40 MLOAD PUSH2 0x2247 SWAP5 SWAP4 SWAP3 SWAP2 SWAP1 PUSH2 0x573B JUMP JUMPDEST PUSH1 0x40 MLOAD DUP1 SWAP2 SUB SWAP1 LOG2 POP POP POP POP POP POP JUMP JUMPDEST PUSH1 0x0 DUP2 DUP2 MSTORE PUSH1 0xD3 PUSH1 0x20 MSTORE PUSH1 0x40 SWAP1 KECCAK256 SLOAD PUSH1 0x1 PUSH1 0x1 PUSH1 0xA0 SHL SUB AND ADDRESS DUP2 SUB PUSH2 0x22B7 JUMPI PUSH1 0x40 MLOAD PUSH3 0x461BCD PUSH1 0xE5 SHL DUP2 MSTORE PUSH1 0x20 PUSH1 0x4 DUP3 ADD MSTORE PUSH1 0x16 PUSH1 0x24 DUP3 ADD MSTORE PUSH22 0x27379032BC3A32B739B4B7B7103337B9103A37B5B2B7 PUSH1 0x51 SHL PUSH1 0x44 DUP3 ADD MSTORE PUSH1 0x64 ADD PUSH2 0x661 JUMP JUMPDEST PUSH2 0x22C2 PUSH1 0xCF DUP3 PUSH2 0x1CE7 JUMP JUMPDEST ISZERO PUSH2 0x22DF JUMPI PUSH1 0x40 MLOAD PUSH3 0x461BCD PUSH1 0xE5 SHL DUP2 MSTORE PUSH1 0x4 ADD PUSH2 0x661 SWAP1 PUSH2 0x5237 JUMP JUMPDEST SWAP2 SWAP1 POP JUMP JUMPDEST PUSH1 0x0 DUP1 PUSH1 0x0 PUSH2 0x22F2 DUP6 PUSH2 0x33F5 JUMP JUMPDEST DUP1 SLOAD SWAP1 SWAP2 POP PUSH1 0x1 LT ISZERO PUSH2 0x2346 JUMPI PUSH1 0x40 MLOAD PUSH3 0x461BCD PUSH1 0xE5 SHL DUP2 MSTORE PUSH1 0x20 PUSH1 0x4 DUP3 ADD MSTORE PUSH1 0x1C PUSH1 0x24 DUP3 ADD MSTORE PUSH28 0x26B7B932903A3430B71018903937BCB0B63A3C903932B1B2B4BB32B9 PUSH1 0x21 SHL PUSH1 0x44 DUP3 ADD MSTORE PUSH1 0x64 ADD PUSH2 0x661 JUMP JUMPDEST DUP1 SLOAD PUSH1 0x0 SUB PUSH2 0x235C JUMPI ADDRESS PUSH1 0x0 SWAP3 POP SWAP3 POP POP PUSH2 0x866 JUMP JUMPDEST DUP1 PUSH1 0x0 DUP2 SLOAD DUP2 LT PUSH2 0x236F JUMPI PUSH2 0x236F PUSH2 0x5266 JUMP JUMPDEST PUSH1 0x0 SWAP2 DUP3 MSTORE PUSH1 0x20 SWAP1 SWAP2 KECCAK256 ADD SLOAD PUSH1 0x1 PUSH1 0x1 PUSH1 0xA0 SHL SUB AND PUSH2 0x2710 DUP6 PUSH2 0x2391 DUP9 PUSH2 0x207D JUMP JUMPDEST PUSH1 0x0 DUP2 SLOAD DUP2 LT PUSH2 0x23A3 JUMPI PUSH2 0x23A3 PUSH2 0x5266 JUMP JUMPDEST SWAP1 PUSH1 0x0 MSTORE PUSH1 0x20 PUSH1 0x0 KECCAK256 ADD SLOAD PUSH2 0x23B8 SWAP2 SWAP1 PUSH2 0x57B9 JUMP JUMPDEST PUSH2 0x23C2 SWAP2 SWAP1 PUSH2 0x57E6 JUMP JUMPDEST SWAP3 POP SWAP3 POP POP SWAP3 POP SWAP3 SWAP1 POP JUMP JUMPDEST PUSH1 0x0 PUSH2 0x1D05 DUP4 PUSH1 0x1 PUSH1 0x1 PUSH1 0xA0 SHL SUB DUP5 AND PUSH2 0x38EB JUMP JUMPDEST DUP2 MLOAD DUP4 MLOAD EQ PUSH2 0x2404 JUMPI PUSH1 0x40 MLOAD PUSH3 0x461BCD PUSH1 0xE5 SHL DUP2 MSTORE PUSH1 0x4 ADD PUSH2 0x661 SWAP1 PUSH2 0x57FA JUMP JUMPDEST PUSH1 0x1 PUSH1 0x1 PUSH1 0xA0 SHL SUB DUP5 AND PUSH2 0x242A JUMPI PUSH1 0x40 MLOAD PUSH3 0x461BCD PUSH1 0xE5 SHL DUP2 MSTORE PUSH1 0x4 ADD PUSH2 0x661 SWAP1 PUSH2 0x5842 JUMP JUMPDEST CALLER PUSH2 0x2439 DUP2 DUP8 DUP8 DUP8 DUP8 DUP8 PUSH2 0x39DE JUMP JUMPDEST PUSH1 0x0 JUMPDEST DUP5 MLOAD DUP2 LT ISZERO PUSH2 0x2522 JUMPI PUSH1 0x0 DUP6 DUP3 DUP2 MLOAD DUP2 LT PUSH2 0x2459 JUMPI PUSH2 0x2459 PUSH2 0x5266 JUMP JUMPDEST PUSH1 0x20 MUL PUSH1 0x20 ADD ADD MLOAD SWAP1 POP PUSH1 0x0 DUP6 DUP4 DUP2 MLOAD DUP2 LT PUSH2 0x2477 JUMPI PUSH2 0x2477 PUSH2 0x5266 JUMP JUMPDEST PUSH1 0x20 SWAP1 DUP2 MUL SWAP2 SWAP1 SWAP2 ADD DUP2 ADD MLOAD PUSH1 0x0 DUP5 DUP2 MSTORE PUSH1 0x9A DUP4 MSTORE PUSH1 0x40 DUP1 DUP3 KECCAK256 PUSH1 0x1 PUSH1 0x1 PUSH1 0xA0 SHL SUB DUP15 AND DUP4 MSTORE SWAP1 SWAP4 MSTORE SWAP2 SWAP1 SWAP2 KECCAK256 SLOAD SWAP1 SWAP2 POP DUP2 DUP2 LT ISZERO PUSH2 0x24C8 JUMPI PUSH1 0x40 MLOAD PUSH3 0x461BCD PUSH1 0xE5 SHL DUP2 MSTORE PUSH1 0x4 ADD PUSH2 0x661 SWAP1 PUSH2 0x5887 JUMP JUMPDEST PUSH1 0x0 DUP4 DUP2 MSTORE PUSH1 0x9A PUSH1 0x20 SWAP1 DUP2 MSTORE PUSH1 0x40 DUP1 DUP4 KECCAK256 PUSH1 0x1 PUSH1 0x1 PUSH1 0xA0 SHL SUB DUP15 DUP2 AND DUP6 MSTORE SWAP3 MSTORE DUP1 DUP4 KECCAK256 DUP6 DUP6 SUB SWAP1 SSTORE SWAP1 DUP12 AND DUP3 MSTORE DUP2 KECCAK256 DUP1 SLOAD DUP5 SWAP3 SWAP1 PUSH2 0x2507 SWAP1 DUP5 SWAP1 PUSH2 0x56F7 JUMP JUMPDEST SWAP3 POP POP DUP2 SWAP1 SSTORE POP POP POP POP DUP1 PUSH2 0x251B SWAP1 PUSH2 0x5292 JUMP JUMPDEST SWAP1 POP PUSH2 0x243C JUMP JUMPDEST POP DUP5 PUSH1 0x1 PUSH1 0x1 PUSH1 0xA0 SHL SUB AND DUP7 PUSH1 0x1 PUSH1 0x1 PUSH1 0xA0 SHL SUB AND DUP3 PUSH1 0x1 PUSH1 0x1 PUSH1 0xA0 SHL SUB AND PUSH1 0x0 DUP1 MLOAD PUSH1 0x20 PUSH2 0x5D7D DUP4 CODECOPY DUP2 MLOAD SWAP2 MSTORE DUP8 DUP8 PUSH1 0x40 MLOAD PUSH2 0x2560 SWAP3 SWAP2 SWAP1 PUSH2 0x58D1 JUMP JUMPDEST PUSH1 0x40 MLOAD DUP1 SWAP2 SUB SWAP1 LOG4 PUSH2 0x2576 DUP2 DUP8 DUP8 DUP8 DUP8 DUP8 PUSH2 0x39EA JUMP JUMPDEST POP POP POP POP POP POP JUMP JUMPDEST ADDRESS PUSH1 0x0 SWAP1 DUP2 MSTORE PUSH1 0xD4 PUSH1 0x20 MSTORE PUSH1 0x40 SWAP1 KECCAK256 PUSH2 0x8ED DUP3 DUP3 PUSH2 0x58E4 JUMP JUMPDEST ADDRESS PUSH1 0x1 PUSH1 0x1 PUSH1 0xA0 SHL SUB DUP6 AND SUB PUSH2 0x25E2 JUMPI PUSH1 0x40 MLOAD PUSH3 0x461BCD PUSH1 0xE5 SHL DUP2 MSTORE PUSH1 0x20 PUSH1 0x4 DUP3 ADD MSTORE PUSH1 0x10 PUSH1 0x24 DUP3 ADD MSTORE PUSH16 0x10DC99585D1BDC8E88125B9D985B1A59 PUSH1 0x82 SHL PUSH1 0x44 DUP3 ADD MSTORE PUSH1 0x64 ADD PUSH2 0x661 JUMP JUMPDEST PUSH1 0x1 PUSH1 0x1 PUSH1 0xA0 SHL SUB DUP5 AND EXTCODESIZE PUSH2 0x2647 JUMPI PUSH1 0x40 MLOAD PUSH3 0x461BCD PUSH1 0xE5 SHL DUP2 MSTORE PUSH1 0x20 PUSH1 0x4 DUP3 ADD MSTORE PUSH1 0x25 PUSH1 0x24 DUP3 ADD MSTORE PUSH32 0x43726561746F723A20457874656E73696F6E206D757374206265206120636F6E PUSH1 0x44 DUP3 ADD MSTORE PUSH5 0x1D1C9858DD PUSH1 0xDA SHL PUSH1 0x64 DUP3 ADD MSTORE PUSH1 0x84 ADD PUSH2 0x661 JUMP JUMPDEST PUSH2 0x2652 PUSH1 0xCD DUP6 PUSH2 0x1CE7 JUMP JUMPDEST PUSH2 0xA76 JUMPI PUSH1 0x1 PUSH1 0x1 PUSH1 0xA0 SHL SUB DUP5 AND PUSH1 0x0 SWAP1 DUP2 MSTORE PUSH1 0xD4 PUSH1 0x20 MSTORE PUSH1 0x40 SWAP1 KECCAK256 PUSH2 0x2679 DUP4 DUP6 DUP4 PUSH2 0x563E JUMP JUMPDEST POP PUSH1 0x1 PUSH1 0x1 PUSH1 0xA0 SHL SUB DUP5 AND PUSH1 0x0 DUP2 DUP2 MSTORE PUSH1 0xD5 PUSH1 0x20 MSTORE PUSH1 0x40 DUP1 DUP3 KECCAK256 DUP1 SLOAD PUSH1 0xFF NOT AND DUP6 ISZERO ISZERO OR SWAP1 SSTORE MLOAD CALLER SWAP3 SWAP2 PUSH32 0xD8CB8BA4086944EABF43C5535B7712015E4D4C714B24BF812C040EA5B7A3E42A SWAP2 LOG3 PUSH2 0x813 PUSH1 0xCD DUP6 PUSH2 0x2DDD JUMP JUMPDEST PUSH1 0x0 PUSH2 0x68F DUP3 SLOAD SWAP1 JUMP JUMPDEST PUSH1 0x0 PUSH2 0x1D05 DUP4 DUP4 PUSH2 0x3B45 JUMP JUMPDEST DUP3 DUP2 EQ PUSH2 0x2706 JUMPI PUSH1 0x40 MLOAD PUSH3 0x461BCD PUSH1 0xE5 SHL DUP2 MSTORE PUSH1 0x4 ADD PUSH2 0x661 SWAP1 PUSH2 0x52E2 JUMP JUMPDEST PUSH1 0x0 DUP1 JUMPDEST DUP3 DUP2 LT ISZERO PUSH2 0x274A JUMPI DUP4 DUP4 DUP3 DUP2 DUP2 LT PUSH2 0x2724 JUMPI PUSH2 0x2724 PUSH2 0x5266 JUMP JUMPDEST SWAP1 POP PUSH1 0x20 MUL ADD CALLDATALOAD DUP3 PUSH2 0x2736 SWAP2 SWAP1 PUSH2 0x56F7 JUMP JUMPDEST SWAP2 POP DUP1 PUSH2 0x2742 DUP2 PUSH2 0x5292 JUMP JUMPDEST SWAP2 POP POP PUSH2 0x270A JUMP JUMPDEST POP PUSH2 0x2710 DUP2 LT PUSH2 0x276C JUMPI PUSH1 0x40 MLOAD PUSH3 0x461BCD PUSH1 0xE5 SHL DUP2 MSTORE PUSH1 0x4 ADD PUSH2 0x661 SWAP1 PUSH2 0x570A JUMP JUMPDEST PUSH1 0x1 PUSH1 0x1 PUSH1 0xA0 SHL SUB DUP7 AND PUSH1 0x0 SWAP1 DUP2 MSTORE PUSH1 0xD8 PUSH1 0x20 MSTORE PUSH1 0x40 SWAP1 KECCAK256 PUSH2 0x278F SWAP1 DUP7 DUP7 PUSH2 0x4694 JUMP JUMPDEST POP PUSH1 0x1 PUSH1 0x1 PUSH1 0xA0 SHL SUB DUP7 AND PUSH1 0x0 SWAP1 DUP2 MSTORE PUSH1 0xD9 PUSH1 0x20 MSTORE PUSH1 0x40 SWAP1 KECCAK256 PUSH2 0x27B3 SWAP1 DUP5 DUP5 PUSH2 0x46F3 JUMP JUMPDEST POP ADDRESS PUSH1 0x1 PUSH1 0x1 PUSH1 0xA0 SHL SUB DUP8 AND SUB PUSH2 0x2806 JUMPI PUSH32 0x2B6849D5976D799A5B0CA4DFD6B40A3D7AFE9EA72C091FA01A958594F9A2659B DUP6 DUP6 DUP6 DUP6 PUSH1 0x40 MLOAD PUSH2 0x27F9 SWAP5 SWAP4 SWAP3 SWAP2 SWAP1 PUSH2 0x573B JUMP JUMPDEST PUSH1 0x40 MLOAD DUP1 SWAP2 SUB SWAP1 LOG1 PUSH2 0x2576 JUMP JUMPDEST DUP6 PUSH1 0x1 PUSH1 0x1 PUSH1 0xA0 SHL SUB AND PUSH32 0x535A93D2CB000582C0EBEAA9BE4890EC6A287F98EB2DF00C54C300612FD78D8F DUP7 DUP7 DUP7 DUP7 PUSH1 0x40 MLOAD PUSH2 0x2247 SWAP5 SWAP4 SWAP3 SWAP2 SWAP1 PUSH2 0x573B JUMP JUMPDEST PUSH2 0x2850 DUP4 DUP4 DUP4 PUSH2 0x3B6F JUMP JUMPDEST PUSH1 0x0 DUP3 DUP2 MSTORE PUSH1 0xDC PUSH1 0x20 MSTORE PUSH1 0x40 DUP2 KECCAK256 DUP1 SLOAD DUP4 SWAP3 SWAP1 PUSH2 0x286E SWAP1 DUP5 SWAP1 PUSH2 0x599D JUMP JUMPDEST SWAP1 SWAP2 SSTORE POP POP POP POP POP JUMP JUMPDEST PUSH2 0x2883 DUP4 DUP4 DUP4 PUSH2 0x3C62 JUMP JUMPDEST PUSH1 0x0 JUMPDEST DUP3 MLOAD DUP2 LT ISZERO PUSH2 0xA76 JUMPI DUP2 DUP2 DUP2 MLOAD DUP2 LT PUSH2 0x28A1 JUMPI PUSH2 0x28A1 PUSH2 0x5266 JUMP JUMPDEST PUSH1 0x20 MUL PUSH1 0x20 ADD ADD MLOAD PUSH1 0xDC PUSH1 0x0 DUP6 DUP5 DUP2 MLOAD DUP2 LT PUSH2 0x28BF JUMPI PUSH2 0x28BF PUSH2 0x5266 JUMP JUMPDEST PUSH1 0x20 MUL PUSH1 0x20 ADD ADD MLOAD DUP2 MSTORE PUSH1 0x20 ADD SWAP1 DUP2 MSTORE PUSH1 0x20 ADD PUSH1 0x0 KECCAK256 PUSH1 0x0 DUP3 DUP3 SLOAD PUSH2 0x28E4 SWAP2 SWAP1 PUSH2 0x599D JUMP JUMPDEST SWAP1 SWAP2 SSTORE POP PUSH2 0x28F3 SWAP1 POP DUP2 PUSH2 0x5292 JUMP JUMPDEST SWAP1 POP PUSH2 0x2886 JUMP JUMPDEST PUSH1 0x0 DUP3 MLOAD GT PUSH2 0x291B JUMPI PUSH1 0x40 MLOAD PUSH3 0x461BCD PUSH1 0xE5 SHL DUP2 MSTORE PUSH1 0x4 ADD PUSH2 0x661 SWAP1 PUSH2 0x52E2 JUMP JUMPDEST PUSH1 0x0 PUSH1 0xD3 PUSH1 0x0 DUP5 PUSH1 0x0 DUP2 MLOAD DUP2 LT PUSH2 0x2934 JUMPI PUSH2 0x2934 PUSH2 0x5266 JUMP JUMPDEST PUSH1 0x20 MUL PUSH1 0x20 ADD ADD MLOAD DUP2 MSTORE PUSH1 0x20 ADD SWAP1 DUP2 MSTORE PUSH1 0x20 ADD PUSH1 0x0 KECCAK256 PUSH1 0x0 SWAP1 SLOAD SWAP1 PUSH2 0x100 EXP SWAP1 DIV PUSH1 0x1 PUSH1 0x1 PUSH1 0xA0 SHL SUB AND SWAP1 POP PUSH1 0x0 JUMPDEST DUP4 MLOAD DUP2 LT ISZERO PUSH2 0x29DF JUMPI DUP2 PUSH1 0x1 PUSH1 0x1 PUSH1 0xA0 SHL SUB AND PUSH1 0xD3 PUSH1 0x0 DUP7 DUP5 DUP2 MLOAD DUP2 LT PUSH2 0x298C JUMPI PUSH2 0x298C PUSH2 0x5266 JUMP JUMPDEST PUSH1 0x20 SWAP1 DUP2 MUL SWAP2 SWAP1 SWAP2 ADD DUP2 ADD MLOAD DUP3 MSTORE DUP2 ADD SWAP2 SWAP1 SWAP2 MSTORE PUSH1 0x40 ADD PUSH1 0x0 KECCAK256 SLOAD PUSH1 0x1 PUSH1 0x1 PUSH1 0xA0 SHL SUB AND EQ PUSH2 0x29CD JUMPI PUSH1 0x40 MLOAD PUSH3 0x461BCD PUSH1 0xE5 SHL DUP2 MSTORE PUSH1 0x4 ADD PUSH2 0x661 SWAP1 PUSH2 0x59B0 JUMP JUMPDEST DUP1 PUSH2 0x29D7 DUP2 PUSH2 0x5292 JUMP JUMPDEST SWAP2 POP POP PUSH2 0x2963 JUMP JUMPDEST POP PUSH1 0x1 PUSH1 0x1 PUSH1 0xA0 SHL SUB DUP2 AND ADDRESS EQ PUSH2 0xA76 JUMPI PUSH2 0x2A01 DUP2 PUSH4 0x3DC6F65 PUSH1 0xE5 SHL PUSH2 0x33D9 JUMP JUMPDEST ISZERO PUSH2 0xA76 JUMPI PUSH1 0x40 MLOAD PUSH4 0x3DC6F65 PUSH1 0xE5 SHL DUP2 MSTORE PUSH1 0x1 PUSH1 0x1 PUSH1 0xA0 SHL SUB DUP3 AND SWAP1 PUSH4 0x7B8DECA0 SWAP1 PUSH2 0x2A36 SWAP1 DUP8 SWAP1 DUP8 SWAP1 DUP8 SWAP1 PUSH1 0x4 ADD PUSH2 0x59E6 JUMP JUMPDEST PUSH1 0x0 PUSH1 0x40 MLOAD DUP1 DUP4 SUB DUP2 PUSH1 0x0 DUP8 DUP1 EXTCODESIZE ISZERO DUP1 ISZERO PUSH2 0x2A50 JUMPI PUSH1 0x0 DUP1 REVERT JUMPDEST POP GAS CALL ISZERO DUP1 ISZERO PUSH2 0x2A64 JUMPI RETURNDATASIZE PUSH1 0x0 DUP1 RETURNDATACOPY RETURNDATASIZE PUSH1 0x0 REVERT JUMPDEST POP POP POP POP POP POP POP POP JUMP JUMPDEST CALLER PUSH1 0x0 SWAP1 DUP2 MSTORE PUSH1 0xD4 PUSH1 0x20 MSTORE PUSH1 0x40 SWAP1 KECCAK256 PUSH2 0x2A88 DUP4 DUP6 DUP4 PUSH2 0x563E JUMP JUMPDEST POP CALLER PUSH1 0x0 SWAP1 DUP2 MSTORE PUSH1 0xD5 PUSH1 0x20 MSTORE PUSH1 0x40 SWAP1 KECCAK256 DUP1 SLOAD PUSH1 0xFF NOT AND SWAP2 ISZERO ISZERO SWAP2 SWAP1 SWAP2 OR SWAP1 SSTORE POP POP JUMP JUMPDEST PUSH1 0x0 DUP4 DUP2 MSTORE PUSH1 0xD3 PUSH1 0x20 MSTORE PUSH1 0x40 SWAP1 KECCAK256 SLOAD PUSH1 0x1 PUSH1 0x1 PUSH1 0xA0 SHL SUB AND CALLER EQ PUSH2 0x213F JUMPI PUSH1 0x40 MLOAD PUSH3 0x461BCD PUSH1 0xE5 SHL DUP2 MSTORE PUSH1 0x4 ADD PUSH2 0x661 SWAP1 PUSH2 0x55BC JUMP JUMPDEST CALLER PUSH1 0x0 SWAP1 DUP2 MSTORE PUSH1 0xD6 PUSH1 0x20 MSTORE PUSH1 0x40 SWAP1 KECCAK256 PUSH2 0x7C1 DUP3 DUP5 DUP4 PUSH2 0x563E JUMP JUMPDEST PUSH1 0x1 PUSH1 0x1 PUSH1 0xA0 SHL SUB DUP5 AND ADDRESS EQ PUSH2 0x2B16 JUMPI PUSH2 0x2B16 DUP4 DUP4 DUP4 PUSH2 0x3DE1 JUMP JUMPDEST DUP3 MLOAD PUSH1 0x1 EQ DUP1 ISZERO PUSH2 0x2B28 JUMPI POP DUP2 MLOAD PUSH1 0x1 EQ JUMPDEST DUP1 ISZERO PUSH2 0x2B35 JUMPI POP DUP1 MLOAD PUSH1 0x1 EQ JUMPDEST ISZERO PUSH2 0x2BDC JUMPI PUSH2 0x2BD7 DUP4 PUSH1 0x0 DUP2 MLOAD DUP2 LT PUSH2 0x2B50 JUMPI PUSH2 0x2B50 PUSH2 0x5266 JUMP JUMPDEST PUSH1 0x20 MUL PUSH1 0x20 ADD ADD MLOAD DUP4 PUSH1 0x0 DUP2 MLOAD DUP2 LT PUSH2 0x2B6B JUMPI PUSH2 0x2B6B PUSH2 0x5266 JUMP JUMPDEST PUSH1 0x20 MUL PUSH1 0x20 ADD ADD MLOAD DUP4 PUSH1 0x0 DUP2 MLOAD DUP2 LT PUSH2 0x2B86 JUMPI PUSH2 0x2B86 PUSH2 0x5266 JUMP JUMPDEST PUSH1 0x20 MUL PUSH1 0x20 ADD ADD MLOAD PUSH1 0x0 PUSH1 0x1 PUSH1 0x1 PUSH1 0x40 SHL SUB DUP2 GT ISZERO PUSH2 0x2BA7 JUMPI PUSH2 0x2BA7 PUSH2 0x4A22 JUMP JUMPDEST PUSH1 0x40 MLOAD SWAP1 DUP1 DUP3 MSTORE DUP1 PUSH1 0x1F ADD PUSH1 0x1F NOT AND PUSH1 0x20 ADD DUP3 ADD PUSH1 0x40 MSTORE DUP1 ISZERO PUSH2 0x2BD1 JUMPI PUSH1 0x20 DUP3 ADD DUP2 DUP1 CALLDATASIZE DUP4 CALLDATACOPY ADD SWAP1 POP JUMPDEST POP PUSH2 0x3E70 JUMP JUMPDEST PUSH2 0xA76 JUMP JUMPDEST DUP3 MLOAD PUSH1 0x1 EQ DUP1 ISZERO PUSH2 0x2BEE JUMPI POP DUP1 MLOAD DUP3 MLOAD EQ JUMPDEST ISZERO PUSH2 0x2C5C JUMPI PUSH2 0x2BD7 DUP4 PUSH1 0x0 DUP2 MLOAD DUP2 LT PUSH2 0x2C09 JUMPI PUSH2 0x2C09 PUSH2 0x5266 JUMP JUMPDEST PUSH1 0x20 MUL PUSH1 0x20 ADD ADD MLOAD DUP4 DUP4 PUSH1 0x0 PUSH1 0x1 PUSH1 0x1 PUSH1 0x40 SHL SUB DUP2 GT ISZERO PUSH2 0x2C2C JUMPI PUSH2 0x2C2C PUSH2 0x4A22 JUMP JUMPDEST PUSH1 0x40 MLOAD SWAP1 DUP1 DUP3 MSTORE DUP1 PUSH1 0x1F ADD PUSH1 0x1F NOT AND PUSH1 0x20 ADD DUP3 ADD PUSH1 0x40 MSTORE DUP1 ISZERO PUSH2 0x2C56 JUMPI PUSH1 0x20 DUP3 ADD DUP2 DUP1 CALLDATASIZE DUP4 CALLDATACOPY ADD SWAP1 POP JUMPDEST POP PUSH2 0x3EA5 JUMP JUMPDEST DUP2 MLOAD PUSH1 0x1 EQ DUP1 ISZERO PUSH2 0x2C6E JUMPI POP DUP1 MLOAD PUSH1 0x1 EQ JUMPDEST ISZERO PUSH2 0x2CE2 JUMPI PUSH1 0x0 JUMPDEST DUP4 MLOAD DUP2 LT ISZERO PUSH2 0x2CDC JUMPI PUSH2 0x2CCA DUP5 DUP3 DUP2 MLOAD DUP2 LT PUSH2 0x2C94 JUMPI PUSH2 0x2C94 PUSH2 0x5266 JUMP JUMPDEST PUSH1 0x20 MUL PUSH1 0x20 ADD ADD MLOAD DUP5 PUSH1 0x0 DUP2 MLOAD DUP2 LT PUSH2 0x2CAF JUMPI PUSH2 0x2CAF PUSH2 0x5266 JUMP JUMPDEST PUSH1 0x20 MUL PUSH1 0x20 ADD ADD MLOAD DUP5 PUSH1 0x0 DUP2 MLOAD DUP2 LT PUSH2 0x2B86 JUMPI PUSH2 0x2B86 PUSH2 0x5266 JUMP JUMPDEST DUP1 PUSH2 0x2CD4 DUP2 PUSH2 0x5292 JUMP JUMPDEST SWAP2 POP POP PUSH2 0x2C76 JUMP JUMPDEST POP PUSH2 0xA76 JUMP JUMPDEST DUP2 MLOAD PUSH1 0x1 EQ DUP1 ISZERO PUSH2 0x2CF4 JUMPI POP DUP1 MLOAD DUP4 MLOAD EQ JUMPDEST ISZERO PUSH2 0x2D61 JUMPI PUSH1 0x0 JUMPDEST DUP4 MLOAD DUP2 LT ISZERO PUSH2 0x2CDC JUMPI PUSH2 0x2D4F DUP5 DUP3 DUP2 MLOAD DUP2 LT PUSH2 0x2D1A JUMPI PUSH2 0x2D1A PUSH2 0x5266 JUMP JUMPDEST PUSH1 0x20 MUL PUSH1 0x20 ADD ADD MLOAD DUP5 PUSH1 0x0 DUP2 MLOAD DUP2 LT PUSH2 0x2D35 JUMPI PUSH2 0x2D35 PUSH2 0x5266 JUMP JUMPDEST PUSH1 0x20 MUL PUSH1 0x20 ADD ADD MLOAD DUP5 DUP5 DUP2 MLOAD DUP2 LT PUSH2 0x2B86 JUMPI PUSH2 0x2B86 PUSH2 0x5266 JUMP JUMPDEST DUP1 PUSH2 0x2D59 DUP2 PUSH2 0x5292 JUMP JUMPDEST SWAP2 POP POP PUSH2 0x2CFC JUMP JUMPDEST DUP2 MLOAD DUP4 MLOAD EQ DUP1 ISZERO PUSH2 0x2D73 JUMPI POP DUP1 MLOAD DUP4 MLOAD EQ JUMPDEST ISZERO PUSH2 0x2DC5 JUMPI PUSH1 0x0 JUMPDEST DUP4 MLOAD DUP2 LT ISZERO PUSH2 0x2CDC JUMPI PUSH2 0x2DB3 DUP5 DUP3 DUP2 MLOAD DUP2 LT PUSH2 0x2D99 JUMPI PUSH2 0x2D99 PUSH2 0x5266 JUMP JUMPDEST PUSH1 0x20 MUL PUSH1 0x20 ADD ADD MLOAD DUP5 DUP4 DUP2 MLOAD DUP2 LT PUSH2 0x2D35 JUMPI PUSH2 0x2D35 PUSH2 0x5266 JUMP JUMPDEST DUP1 PUSH2 0x2DBD DUP2 PUSH2 0x5292 JUMP JUMPDEST SWAP2 POP POP PUSH2 0x2D7B JUMP JUMPDEST PUSH1 0x40 MLOAD PUSH3 0x461BCD PUSH1 0xE5 SHL DUP2 MSTORE PUSH1 0x4 ADD PUSH2 0x661 SWAP1 PUSH2 0x52E2 JUMP JUMPDEST PUSH1 0x0 PUSH2 0x1D05 DUP4 PUSH1 0x1 PUSH1 0x1 PUSH1 0xA0 SHL SUB DUP5 AND PUSH2 0x3F28 JUMP JUMPDEST PUSH1 0x33 DUP1 SLOAD PUSH1 0x1 PUSH1 0x1 PUSH1 0xA0 SHL SUB DUP4 DUP2 AND PUSH1 0x1 PUSH1 0x1 PUSH1 0xA0 SHL SUB NOT DUP4 AND DUP2 OR SWAP1 SWAP4 SSTORE PUSH1 0x40 MLOAD SWAP2 AND SWAP2 SWAP1 DUP3 SWAP1 PUSH32 0x8BE0079C531659141344CD1FD0A4F28419497F9722A3DAAFE3B4186F6B6457E0 SWAP1 PUSH1 0x0 SWAP1 LOG3 POP POP JUMP JUMPDEST PUSH1 0x0 SLOAD PUSH2 0x100 SWAP1 DIV PUSH1 0xFF AND DUP1 PUSH2 0x2E5D JUMPI POP PUSH1 0x0 SLOAD PUSH1 0xFF AND ISZERO JUMPDEST PUSH2 0x2E79 JUMPI PUSH1 0x40 MLOAD PUSH3 0x461BCD PUSH1 0xE5 SHL DUP2 MSTORE PUSH1 0x4 ADD PUSH2 0x661 SWAP1 PUSH2 0x5385 JUMP JUMPDEST PUSH1 0x0 SLOAD PUSH2 0x100 SWAP1 DIV PUSH1 0xFF AND ISZERO DUP1 ISZERO PUSH2 0x2E9B JUMPI PUSH1 0x0 DUP1 SLOAD PUSH2 0xFFFF NOT AND PUSH2 0x101 OR SWAP1 SSTORE JUMPDEST PUSH2 0x2EA3 PUSH2 0x3F77 JUMP JUMPDEST PUSH2 0x2EAB PUSH2 0x3F77 JUMP JUMPDEST PUSH2 0x2EB4 DUP3 PUSH2 0x3FE1 JUMP JUMPDEST DUP1 ISZERO PUSH2 0x8ED JUMPI PUSH1 0x0 DUP1 SLOAD PUSH2 0xFF00 NOT AND SWAP1 SSTORE POP POP JUMP JUMPDEST PUSH1 0x0 SLOAD PUSH2 0x100 SWAP1 DIV PUSH1 0xFF AND DUP1 PUSH2 0x2EE2 JUMPI POP PUSH1 0x0 SLOAD PUSH1 0xFF AND ISZERO JUMPDEST PUSH2 0x2EFE JUMPI PUSH1 0x40 MLOAD PUSH3 0x461BCD PUSH1 0xE5 SHL DUP2 MSTORE PUSH1 0x4 ADD PUSH2 0x661 SWAP1 PUSH2 0x5385 JUMP JUMPDEST PUSH1 0x0 SLOAD PUSH2 0x100 SWAP1 DIV PUSH1 0xFF AND ISZERO DUP1 ISZERO PUSH2 0x2F20 JUMPI PUSH1 0x0 DUP1 SLOAD PUSH2 0xFFFF NOT AND PUSH2 0x101 OR SWAP1 SSTORE JUMPDEST PUSH2 0x2F28 PUSH2 0x3F77 JUMP JUMPDEST PUSH2 0x1236 PUSH2 0x4041 JUMP JUMPDEST PUSH1 0x60 PUSH1 0x1 DUP5 MLOAD GT ISZERO PUSH2 0x2F9B JUMPI PUSH1 0x40 DUP1 MLOAD PUSH1 0x1 DUP1 DUP3 MSTORE DUP2 DUP4 ADD SWAP1 SWAP3 MSTORE SWAP1 PUSH1 0x20 DUP1 DUP4 ADD SWAP1 DUP1 CALLDATASIZE DUP4 CALLDATACOPY ADD SWAP1 POP POP SWAP1 POP PUSH1 0x1 DUP3 MLOAD GT ISZERO DUP1 ISZERO PUSH2 0x2F7A JUMPI POP DUP3 MLOAD PUSH1 0x1 EQ DUP1 PUSH2 0x2F7A JUMPI POP DUP3 MLOAD DUP5 MLOAD EQ JUMPDEST PUSH2 0x2F96 JUMPI PUSH1 0x40 MLOAD PUSH3 0x461BCD PUSH1 0xE5 SHL DUP2 MSTORE PUSH1 0x4 ADD PUSH2 0x661 SWAP1 PUSH2 0x52E2 JUMP JUMPDEST PUSH2 0x300D JUMP JUMPDEST DUP3 MLOAD PUSH1 0x1 PUSH1 0x1 PUSH1 0x40 SHL SUB DUP2 GT ISZERO PUSH2 0x2FB4 JUMPI PUSH2 0x2FB4 PUSH2 0x4A22 JUMP JUMPDEST PUSH1 0x40 MLOAD SWAP1 DUP1 DUP3 MSTORE DUP1 PUSH1 0x20 MUL PUSH1 0x20 ADD DUP3 ADD PUSH1 0x40 MSTORE DUP1 ISZERO PUSH2 0x2FDD JUMPI DUP2 PUSH1 0x20 ADD PUSH1 0x20 DUP3 MUL DUP1 CALLDATASIZE DUP4 CALLDATACOPY ADD SWAP1 POP JUMPDEST POP SWAP1 POP DUP2 MLOAD PUSH1 0x0 EQ DUP1 PUSH2 0x2FF1 JUMPI POP DUP2 MLOAD DUP4 MLOAD EQ JUMPDEST PUSH2 0x300D JUMPI PUSH1 0x40 MLOAD PUSH3 0x461BCD PUSH1 0xE5 SHL DUP2 MSTORE PUSH1 0x4 ADD PUSH2 0x661 SWAP1 PUSH2 0x52E2 JUMP JUMPDEST PUSH1 0x0 JUMPDEST DUP2 MLOAD DUP2 LT ISZERO PUSH2 0x308E JUMPI PUSH1 0xCC DUP1 SLOAD SWAP1 PUSH1 0x0 PUSH2 0x3029 DUP4 PUSH2 0x5292 JUMP JUMPDEST SWAP2 SWAP1 POP SSTORE POP PUSH1 0xCC SLOAD DUP3 DUP3 DUP2 MLOAD DUP2 LT PUSH2 0x3043 JUMPI PUSH2 0x3043 PUSH2 0x5266 JUMP JUMPDEST PUSH1 0x20 SWAP1 DUP2 MUL SWAP2 SWAP1 SWAP2 ADD DUP2 ADD SWAP2 SWAP1 SWAP2 MSTORE PUSH1 0xCC SLOAD PUSH1 0x0 SWAP1 DUP2 MSTORE PUSH1 0xD3 SWAP1 SWAP2 MSTORE PUSH1 0x40 SWAP1 KECCAK256 DUP1 SLOAD PUSH1 0x1 PUSH1 0x1 PUSH1 0xA0 SHL SUB NOT AND PUSH1 0x1 PUSH1 0x1 PUSH1 0xA0 SHL SUB DUP9 AND OR SWAP1 SSTORE DUP1 PUSH2 0x3086 DUP2 PUSH2 0x5292 JUMP JUMPDEST SWAP2 POP POP PUSH2 0x3010 JUMP JUMPDEST POP PUSH1 0x1 PUSH1 0x1 PUSH1 0xA0 SHL SUB DUP6 AND ADDRESS EQ PUSH2 0x30AA JUMPI PUSH2 0x30AA DUP5 DUP3 DUP6 PUSH2 0x3DE1 JUMP JUMPDEST DUP4 MLOAD PUSH1 0x1 EQ DUP1 ISZERO PUSH2 0x30BC JUMPI POP DUP1 MLOAD PUSH1 0x1 EQ JUMPDEST ISZERO PUSH2 0x3112 JUMPI PUSH2 0x310D DUP5 PUSH1 0x0 DUP2 MLOAD DUP2 LT PUSH2 0x30D7 JUMPI PUSH2 0x30D7 PUSH2 0x5266 JUMP JUMPDEST PUSH1 0x20 MUL PUSH1 0x20 ADD ADD MLOAD DUP3 PUSH1 0x0 DUP2 MLOAD DUP2 LT PUSH2 0x30F2 JUMPI PUSH2 0x30F2 PUSH2 0x5266 JUMP JUMPDEST PUSH1 0x20 MUL PUSH1 0x20 ADD ADD MLOAD DUP6 PUSH1 0x0 DUP2 MLOAD DUP2 LT PUSH2 0x2B86 JUMPI PUSH2 0x2B86 PUSH2 0x5266 JUMP JUMPDEST PUSH2 0x3235 JUMP JUMPDEST PUSH1 0x1 DUP5 MLOAD GT ISZERO PUSH2 0x31FC JUMPI DUP3 MLOAD PUSH1 0x1 SUB PUSH2 0x3194 JUMPI PUSH1 0x0 JUMPDEST DUP5 MLOAD DUP2 LT ISZERO PUSH2 0x318E JUMPI PUSH2 0x317C DUP6 DUP3 DUP2 MLOAD DUP2 LT PUSH2 0x3146 JUMPI PUSH2 0x3146 PUSH2 0x5266 JUMP JUMPDEST PUSH1 0x20 MUL PUSH1 0x20 ADD ADD MLOAD DUP4 PUSH1 0x0 DUP2 MLOAD DUP2 LT PUSH2 0x3161 JUMPI PUSH2 0x3161 PUSH2 0x5266 JUMP JUMPDEST PUSH1 0x20 MUL PUSH1 0x20 ADD ADD MLOAD DUP7 PUSH1 0x0 DUP2 MLOAD DUP2 LT PUSH2 0x2B86 JUMPI PUSH2 0x2B86 PUSH2 0x5266 JUMP JUMPDEST DUP1 PUSH2 0x3186 DUP2 PUSH2 0x5292 JUMP JUMPDEST SWAP2 POP POP PUSH2 0x3128 JUMP JUMPDEST POP PUSH2 0x3235 JUMP JUMPDEST PUSH1 0x0 JUMPDEST DUP5 MLOAD DUP2 LT ISZERO PUSH2 0x318E JUMPI PUSH2 0x31EA DUP6 DUP3 DUP2 MLOAD DUP2 LT PUSH2 0x31B5 JUMPI PUSH2 0x31B5 PUSH2 0x5266 JUMP JUMPDEST PUSH1 0x20 MUL PUSH1 0x20 ADD ADD MLOAD DUP4 PUSH1 0x0 DUP2 MLOAD DUP2 LT PUSH2 0x31D0 JUMPI PUSH2 0x31D0 PUSH2 0x5266 JUMP JUMPDEST PUSH1 0x20 MUL PUSH1 0x20 ADD ADD MLOAD DUP7 DUP5 DUP2 MLOAD DUP2 LT PUSH2 0x2B86 JUMPI PUSH2 0x2B86 PUSH2 0x5266 JUMP JUMPDEST DUP1 PUSH2 0x31F4 DUP2 PUSH2 0x5292 JUMP JUMPDEST SWAP2 POP POP PUSH2 0x3197 JUMP JUMPDEST PUSH2 0x3235 DUP5 PUSH1 0x0 DUP2 MLOAD DUP2 LT PUSH2 0x3212 JUMPI PUSH2 0x3212 PUSH2 0x5266 JUMP JUMPDEST PUSH1 0x20 MUL PUSH1 0x20 ADD ADD MLOAD DUP3 DUP6 PUSH1 0x0 PUSH1 0x1 PUSH1 0x1 PUSH1 0x40 SHL SUB DUP2 GT ISZERO PUSH2 0x2C2C JUMPI PUSH2 0x2C2C PUSH2 0x4A22 JUMP JUMPDEST PUSH1 0x0 JUMPDEST DUP2 MLOAD DUP2 LT ISZERO PUSH2 0x32D6 JUMPI DUP3 MLOAD DUP2 LT DUP1 ISZERO PUSH2 0x326B JUMPI POP PUSH1 0x0 DUP4 DUP3 DUP2 MLOAD DUP2 LT PUSH2 0x3260 JUMPI PUSH2 0x3260 PUSH2 0x5266 JUMP JUMPDEST PUSH1 0x20 MUL PUSH1 0x20 ADD ADD MLOAD MLOAD GT JUMPDEST ISZERO PUSH2 0x32C4 JUMPI DUP3 DUP2 DUP2 MLOAD DUP2 LT PUSH2 0x3282 JUMPI PUSH2 0x3282 PUSH2 0x5266 JUMP JUMPDEST PUSH1 0x20 MUL PUSH1 0x20 ADD ADD MLOAD PUSH1 0xD7 PUSH1 0x0 DUP5 DUP5 DUP2 MLOAD DUP2 LT PUSH2 0x32A0 JUMPI PUSH2 0x32A0 PUSH2 0x5266 JUMP JUMPDEST PUSH1 0x20 MUL PUSH1 0x20 ADD ADD MLOAD DUP2 MSTORE PUSH1 0x20 ADD SWAP1 DUP2 MSTORE PUSH1 0x20 ADD PUSH1 0x0 KECCAK256 SWAP1 DUP2 PUSH2 0x32C2 SWAP2 SWAP1 PUSH2 0x58E4 JUMP JUMPDEST POP JUMPDEST DUP1 PUSH2 0x32CE DUP2 PUSH2 0x5292 JUMP JUMPDEST SWAP2 POP POP PUSH2 0x3238 JUMP JUMPDEST POP SWAP5 SWAP4 POP POP POP POP JUMP JUMPDEST ADDRESS PUSH1 0x0 SWAP1 DUP2 MSTORE PUSH1 0xD6 PUSH1 0x20 MSTORE PUSH1 0x40 SWAP1 KECCAK256 PUSH2 0x7C1 DUP3 DUP5 DUP4 PUSH2 0x563E JUMP JUMPDEST DUP2 PUSH1 0x1 PUSH1 0x1 PUSH1 0xA0 SHL SUB AND DUP4 PUSH1 0x1 PUSH1 0x1 PUSH1 0xA0 SHL SUB AND SUB PUSH2 0x336C JUMPI PUSH1 0x40 MLOAD PUSH3 0x461BCD PUSH1 0xE5 SHL DUP2 MSTORE PUSH1 0x20 PUSH1 0x4 DUP3 ADD MSTORE PUSH1 0x29 PUSH1 0x24 DUP3 ADD MSTORE PUSH32 0x455243313135353A2073657474696E6720617070726F76616C20737461747573 PUSH1 0x44 DUP3 ADD MSTORE PUSH9 0x103337B91039B2B633 PUSH1 0xB9 SHL PUSH1 0x64 DUP3 ADD MSTORE PUSH1 0x84 ADD PUSH2 0x661 JUMP JUMPDEST PUSH1 0x1 PUSH1 0x1 PUSH1 0xA0 SHL SUB DUP4 DUP2 AND PUSH1 0x0 DUP2 DUP2 MSTORE PUSH1 0x9B PUSH1 0x20 SWAP1 DUP2 MSTORE PUSH1 0x40 DUP1 DUP4 KECCAK256 SWAP5 DUP8 AND DUP1 DUP5 MSTORE SWAP5 DUP3 MSTORE SWAP2 DUP3 SWAP1 KECCAK256 DUP1 SLOAD PUSH1 0xFF NOT AND DUP7 ISZERO ISZERO SWAP1 DUP2 OR SWAP1 SWAP2 SSTORE SWAP2 MLOAD SWAP2 DUP3 MSTORE PUSH32 0x17307EAB39AB6107E8899845AD3D59BD9653F200F220920489CA2B5937696C31 SWAP2 ADD PUSH1 0x40 MLOAD DUP1 SWAP2 SUB SWAP1 LOG3 POP POP POP JUMP JUMPDEST PUSH1 0x0 PUSH2 0x33E4 DUP4 PUSH2 0x40A1 JUMP JUMPDEST DUP1 ISZERO PUSH2 0x1D05 JUMPI POP PUSH2 0x1D05 DUP4 DUP4 PUSH2 0x40D4 JUMP JUMPDEST PUSH1 0x0 DUP2 DUP2 MSTORE PUSH1 0xDA PUSH1 0x20 MSTORE PUSH1 0x40 DUP2 KECCAK256 SLOAD ISZERO PUSH2 0x341B JUMPI POP PUSH1 0x0 SWAP1 DUP2 MSTORE PUSH1 0xDA PUSH1 0x20 MSTORE PUSH1 0x40 SWAP1 KECCAK256 SWAP1 JUMP JUMPDEST PUSH1 0x0 DUP3 DUP2 MSTORE PUSH1 0xD3 PUSH1 0x20 SWAP1 DUP2 MSTORE PUSH1 0x40 DUP1 DUP4 KECCAK256 SLOAD PUSH1 0x1 PUSH1 0x1 PUSH1 0xA0 SHL SUB AND DUP4 MSTORE PUSH1 0xD8 SWAP1 SWAP2 MSTORE SWAP1 KECCAK256 SLOAD ISZERO PUSH2 0x346D JUMPI POP PUSH1 0x0 SWAP1 DUP2 MSTORE PUSH1 0xD3 PUSH1 0x20 SWAP1 DUP2 MSTORE PUSH1 0x40 DUP1 DUP4 KECCAK256 SLOAD PUSH1 0x1 PUSH1 0x1 PUSH1 0xA0 SHL SUB AND DUP4 MSTORE PUSH1 0xD8 SWAP1 SWAP2 MSTORE SWAP1 KECCAK256 SWAP1 JUMP JUMPDEST POP POP ADDRESS PUSH1 0x0 SWAP1 DUP2 MSTORE PUSH1 0xD8 PUSH1 0x20 MSTORE PUSH1 0x40 SWAP1 KECCAK256 SWAP1 JUMP JUMPDEST PUSH1 0x0 DUP1 PUSH2 0x348D DUP4 PUSH2 0x33F5 JUMP JUMPDEST PUSH2 0x3496 DUP5 PUSH2 0x207D JUMP JUMPDEST SWAP2 POP SWAP2 POP SWAP2 POP SWAP2 JUMP JUMPDEST PUSH2 0x34AA PUSH1 0xCD DUP3 PUSH2 0x1CE7 JUMP JUMPDEST ISZERO PUSH2 0x707 JUMPI PUSH1 0x40 MLOAD CALLER SWAP1 PUSH1 0x1 PUSH1 0x1 PUSH1 0xA0 SHL SUB DUP4 AND SWAP1 PUSH32 0xD19CF84CF0FEC6BEC9DDFA29C63ADF83A55707C712F32C8285D6180A78901479 SWAP1 PUSH1 0x0 SWAP1 LOG3 PUSH2 0x8ED PUSH1 0xCD DUP3 PUSH2 0x23CE JUMP JUMPDEST PUSH2 0x34FB PUSH1 0xCD DUP4 PUSH2 0x1CE7 JUMP JUMPDEST PUSH2 0x353B JUMPI PUSH1 0x40 MLOAD PUSH3 0x461BCD PUSH1 0xE5 SHL DUP2 MSTORE PUSH1 0x20 PUSH1 0x4 DUP3 ADD MSTORE PUSH1 0x11 PUSH1 0x24 DUP3 ADD MSTORE PUSH17 0x24B73B30B634B21032BC3A32B739B4B7B7 PUSH1 0x79 SHL PUSH1 0x44 DUP3 ADD MSTORE PUSH1 0x64 ADD PUSH2 0x661 JUMP JUMPDEST PUSH1 0x1 PUSH1 0x1 PUSH1 0xA0 SHL SUB DUP2 AND ISZERO DUP1 PUSH2 0x355D JUMPI POP PUSH2 0x355D DUP2 PUSH4 0x78EA2A97 PUSH1 0xE1 SHL PUSH2 0x33D9 JUMP JUMPDEST PUSH2 0x359B JUMPI PUSH1 0x40 MLOAD PUSH3 0x461BCD PUSH1 0xE5 SHL DUP2 MSTORE PUSH1 0x20 PUSH1 0x4 DUP3 ADD MSTORE PUSH1 0xF PUSH1 0x24 DUP3 ADD MSTORE PUSH15 0x496E76616C69642061646472657373 PUSH1 0x88 SHL PUSH1 0x44 DUP3 ADD MSTORE PUSH1 0x64 ADD PUSH2 0x661 JUMP JUMPDEST PUSH1 0x1 PUSH1 0x1 PUSH1 0xA0 SHL SUB DUP3 DUP2 AND PUSH1 0x0 SWAP1 DUP2 MSTORE PUSH1 0xD1 PUSH1 0x20 MSTORE PUSH1 0x40 SWAP1 KECCAK256 SLOAD DUP2 AND SWAP1 DUP3 AND EQ PUSH2 0x8ED JUMPI PUSH1 0x1 PUSH1 0x1 PUSH1 0xA0 SHL SUB DUP3 DUP2 AND PUSH1 0x0 DUP2 DUP2 MSTORE PUSH1 0xD1 PUSH1 0x20 MSTORE PUSH1 0x40 DUP1 DUP3 KECCAK256 DUP1 SLOAD PUSH1 0x1 PUSH1 0x1 PUSH1 0xA0 SHL SUB NOT AND SWAP5 DUP7 AND SWAP5 DUP6 OR SWAP1 SSTORE MLOAD CALLER SWAP4 SWAP3 SWAP2 PUSH32 0x6A835C4FCF7E0D398DB3762332FDAA1471814AD39F1E2D6D0B3FDABF8EFEE3E0 SWAP2 LOG4 POP POP JUMP JUMPDEST PUSH1 0x1 PUSH1 0x1 PUSH1 0xA0 SHL SUB DUP5 AND PUSH2 0x363F JUMPI PUSH1 0x40 MLOAD PUSH3 0x461BCD PUSH1 0xE5 SHL DUP2 MSTORE PUSH1 0x4 ADD PUSH2 0x661 SWAP1 PUSH2 0x5842 JUMP JUMPDEST CALLER PUSH2 0x365E DUP2 DUP8 DUP8 PUSH2 0x364F DUP9 PUSH2 0x41BD JUMP JUMPDEST PUSH2 0x3658 DUP9 PUSH2 0x41BD JUMP JUMPDEST DUP8 PUSH2 0x39DE JUMP JUMPDEST PUSH1 0x0 DUP5 DUP2 MSTORE PUSH1 0x9A PUSH1 0x20 SWAP1 DUP2 MSTORE PUSH1 0x40 DUP1 DUP4 KECCAK256 PUSH1 0x1 PUSH1 0x1 PUSH1 0xA0 SHL SUB DUP11 AND DUP5 MSTORE SWAP1 SWAP2 MSTORE SWAP1 KECCAK256 SLOAD DUP4 DUP2 LT ISZERO PUSH2 0x36A1 JUMPI PUSH1 0x40 MLOAD PUSH3 0x461BCD PUSH1 0xE5 SHL DUP2 MSTORE PUSH1 0x4 ADD PUSH2 0x661 SWAP1 PUSH2 0x5887 JUMP JUMPDEST PUSH1 0x0 DUP6 DUP2 MSTORE PUSH1 0x9A PUSH1 0x20 SWAP1 DUP2 MSTORE PUSH1 0x40 DUP1 DUP4 KECCAK256 PUSH1 0x1 PUSH1 0x1 PUSH1 0xA0 SHL SUB DUP12 DUP2 AND DUP6 MSTORE SWAP3 MSTORE DUP1 DUP4 KECCAK256 DUP8 DUP6 SUB SWAP1 SSTORE SWAP1 DUP9 AND DUP3 MSTORE DUP2 KECCAK256 DUP1 SLOAD DUP7 SWAP3 SWAP1 PUSH2 0x36E0 SWAP1 DUP5 SWAP1 PUSH2 0x56F7 JUMP JUMPDEST SWAP1 SWAP2 SSTORE POP POP PUSH1 0x40 DUP1 MLOAD DUP7 DUP2 MSTORE PUSH1 0x20 DUP2 ADD DUP7 SWAP1 MSTORE PUSH1 0x1 PUSH1 0x1 PUSH1 0xA0 SHL SUB DUP1 DUP10 AND SWAP3 DUP11 DUP3 AND SWAP3 SWAP2 DUP7 AND SWAP2 PUSH1 0x0 DUP1 MLOAD PUSH1 0x20 PUSH2 0x5D9D DUP4 CODECOPY DUP2 MLOAD SWAP2 MSTORE SWAP2 ADD PUSH1 0x40 MLOAD DUP1 SWAP2 SUB SWAP1 LOG4 PUSH2 0x372E DUP3 DUP9 DUP9 DUP9 DUP9 DUP9 PUSH2 0x4208 JUMP JUMPDEST POP POP POP POP POP POP POP JUMP JUMPDEST PUSH1 0x0 PUSH1 0x1 PUSH1 0x1 PUSH1 0xE0 SHL SUB NOT DUP3 AND PUSH4 0x28F10A21 PUSH1 0xE0 SHL EQ DUP1 PUSH2 0x375C JUMPI POP PUSH2 0x375C DUP3 PUSH2 0x1C82 JUMP JUMPDEST DUP1 PUSH2 0x3777 JUMPI POP PUSH1 0x1 PUSH1 0x1 PUSH1 0xE0 SHL SUB NOT DUP3 AND PUSH4 0x5D9DD7EB PUSH1 0xE1 SHL EQ JUMPDEST DUP1 PUSH2 0x3792 JUMPI POP PUSH1 0x1 PUSH1 0x1 PUSH1 0xE0 SHL SUB NOT DUP3 AND PUSH4 0x2DDE6561 PUSH1 0xE2 SHL EQ JUMPDEST DUP1 PUSH2 0x37AD JUMPI POP PUSH1 0x1 PUSH1 0x1 PUSH1 0xE0 SHL SUB NOT DUP3 AND PUSH4 0x35681B53 PUSH1 0xE2 SHL EQ JUMPDEST DUP1 PUSH2 0x68F JUMPI POP PUSH1 0x1 PUSH1 0x1 PUSH1 0xE0 SHL SUB NOT DUP3 AND PUSH4 0x152A902D PUSH1 0xE1 SHL EQ SWAP3 SWAP2 POP POP JUMP JUMPDEST PUSH1 0x1 PUSH1 0x1 PUSH1 0xE0 SHL SUB NOT AND PUSH4 0x1FFC9A7 PUSH1 0xE0 SHL EQ SWAP1 JUMP JUMPDEST PUSH1 0x60 DUP2 PUSH1 0x0 SUB PUSH2 0x380A JUMPI POP POP PUSH1 0x40 DUP1 MLOAD DUP1 DUP3 ADD SWAP1 SWAP2 MSTORE PUSH1 0x1 DUP2 MSTORE PUSH1 0x3 PUSH1 0xFC SHL PUSH1 0x20 DUP3 ADD MSTORE SWAP1 JUMP JUMPDEST DUP2 PUSH1 0x0 JUMPDEST DUP2 ISZERO PUSH2 0x3834 JUMPI DUP1 PUSH2 0x381E DUP2 PUSH2 0x5292 JUMP JUMPDEST SWAP2 POP PUSH2 0x382D SWAP1 POP PUSH1 0xA DUP4 PUSH2 0x57E6 JUMP JUMPDEST SWAP2 POP PUSH2 0x380E JUMP JUMPDEST PUSH1 0x0 DUP2 PUSH1 0x1 PUSH1 0x1 PUSH1 0x40 SHL SUB DUP2 GT ISZERO PUSH2 0x384E JUMPI PUSH2 0x384E PUSH2 0x4A22 JUMP JUMPDEST PUSH1 0x40 MLOAD SWAP1 DUP1 DUP3 MSTORE DUP1 PUSH1 0x1F ADD PUSH1 0x1F NOT AND PUSH1 0x20 ADD DUP3 ADD PUSH1 0x40 MSTORE DUP1 ISZERO PUSH2 0x3878 JUMPI PUSH1 0x20 DUP3 ADD DUP2 DUP1 CALLDATASIZE DUP4 CALLDATACOPY ADD SWAP1 POP JUMPDEST POP SWAP1 POP JUMPDEST DUP5 ISZERO PUSH2 0x38E3 JUMPI PUSH2 0x388D PUSH1 0x1 DUP4 PUSH2 0x599D JUMP JUMPDEST SWAP2 POP PUSH2 0x389A PUSH1 0xA DUP7 PUSH2 0x5A1C JUMP JUMPDEST PUSH2 0x38A5 SWAP1 PUSH1 0x30 PUSH2 0x56F7 JUMP JUMPDEST PUSH1 0xF8 SHL DUP2 DUP4 DUP2 MLOAD DUP2 LT PUSH2 0x38BA JUMPI PUSH2 0x38BA PUSH2 0x5266 JUMP JUMPDEST PUSH1 0x20 ADD ADD SWAP1 PUSH1 0x1 PUSH1 0x1 PUSH1 0xF8 SHL SUB NOT AND SWAP1 DUP2 PUSH1 0x0 BYTE SWAP1 MSTORE8 POP PUSH2 0x38DC PUSH1 0xA DUP7 PUSH2 0x57E6 JUMP JUMPDEST SWAP5 POP PUSH2 0x387C JUMP JUMPDEST SWAP5 SWAP4 POP POP POP POP JUMP JUMPDEST PUSH1 0x0 DUP2 DUP2 MSTORE PUSH1 0x1 DUP4 ADD PUSH1 0x20 MSTORE PUSH1 0x40 DUP2 KECCAK256 SLOAD DUP1 ISZERO PUSH2 0x39D4 JUMPI PUSH1 0x0 PUSH2 0x390F PUSH1 0x1 DUP4 PUSH2 0x599D JUMP JUMPDEST DUP6 SLOAD SWAP1 SWAP2 POP PUSH1 0x0 SWAP1 PUSH2 0x3923 SWAP1 PUSH1 0x1 SWAP1 PUSH2 0x599D JUMP JUMPDEST SWAP1 POP DUP2 DUP2 EQ PUSH2 0x3988 JUMPI PUSH1 0x0 DUP7 PUSH1 0x0 ADD DUP3 DUP2 SLOAD DUP2 LT PUSH2 0x3943 JUMPI PUSH2 0x3943 PUSH2 0x5266 JUMP JUMPDEST SWAP1 PUSH1 0x0 MSTORE PUSH1 0x20 PUSH1 0x0 KECCAK256 ADD SLOAD SWAP1 POP DUP1 DUP8 PUSH1 0x0 ADD DUP5 DUP2 SLOAD DUP2 LT PUSH2 0x3966 JUMPI PUSH2 0x3966 PUSH2 0x5266 JUMP JUMPDEST PUSH1 0x0 SWAP2 DUP3 MSTORE PUSH1 0x20 DUP1 DUP4 KECCAK256 SWAP1 SWAP2 ADD SWAP3 SWAP1 SWAP3 SSTORE SWAP2 DUP3 MSTORE PUSH1 0x1 DUP9 ADD SWAP1 MSTORE PUSH1 0x40 SWAP1 KECCAK256 DUP4 SWAP1 SSTORE JUMPDEST DUP6 SLOAD DUP7 SWAP1 DUP1 PUSH2 0x3999 JUMPI PUSH2 0x3999 PUSH2 0x5A30 JUMP JUMPDEST PUSH1 0x1 SWAP1 SUB DUP2 DUP2 SWAP1 PUSH1 0x0 MSTORE PUSH1 0x20 PUSH1 0x0 KECCAK256 ADD PUSH1 0x0 SWAP1 SSTORE SWAP1 SSTORE DUP6 PUSH1 0x1 ADD PUSH1 0x0 DUP7 DUP2 MSTORE PUSH1 0x20 ADD SWAP1 DUP2 MSTORE PUSH1 0x20 ADD PUSH1 0x0 KECCAK256 PUSH1 0x0 SWAP1 SSTORE PUSH1 0x1 SWAP4 POP POP POP POP PUSH2 0x68F JUMP JUMPDEST PUSH1 0x0 SWAP2 POP POP PUSH2 0x68F JUMP JUMPDEST PUSH2 0x2576 DUP6 DUP6 DUP6 DUP6 PUSH2 0x42C3 JUMP JUMPDEST PUSH1 0x1 PUSH1 0x1 PUSH1 0xA0 SHL SUB DUP5 AND EXTCODESIZE ISZERO PUSH2 0x2576 JUMPI PUSH1 0x40 MLOAD PUSH4 0xBC197C81 PUSH1 0xE0 SHL DUP2 MSTORE PUSH1 0x1 PUSH1 0x1 PUSH1 0xA0 SHL SUB DUP6 AND SWAP1 PUSH4 0xBC197C81 SWAP1 PUSH2 0x3A2E SWAP1 DUP10 SWAP1 DUP10 SWAP1 DUP9 SWAP1 DUP9 SWAP1 DUP9 SWAP1 PUSH1 0x4 ADD PUSH2 0x5A46 JUMP JUMPDEST PUSH1 0x20 PUSH1 0x40 MLOAD DUP1 DUP4 SUB DUP2 PUSH1 0x0 DUP8 GAS CALL SWAP3 POP POP POP DUP1 ISZERO PUSH2 0x3A69 JUMPI POP PUSH1 0x40 DUP1 MLOAD PUSH1 0x1F RETURNDATASIZE SWAP1 DUP2 ADD PUSH1 0x1F NOT AND DUP3 ADD SWAP1 SWAP3 MSTORE PUSH2 0x3A66 SWAP2 DUP2 ADD SWAP1 PUSH2 0x5AA4 JUMP JUMPDEST PUSH1 0x1 JUMPDEST PUSH2 0x3B15 JUMPI PUSH2 0x3A75 PUSH2 0x5AC1 JUMP JUMPDEST DUP1 PUSH4 0x8C379A0 SUB PUSH2 0x3AAE JUMPI POP PUSH2 0x3A89 PUSH2 0x5ADD JUMP JUMPDEST DUP1 PUSH2 0x3A94 JUMPI POP PUSH2 0x3AB0 JUMP JUMPDEST DUP1 PUSH1 0x40 MLOAD PUSH3 0x461BCD PUSH1 0xE5 SHL DUP2 MSTORE PUSH1 0x4 ADD PUSH2 0x661 SWAP2 SWAP1 PUSH2 0x483D JUMP JUMPDEST POP JUMPDEST PUSH1 0x40 MLOAD PUSH3 0x461BCD PUSH1 0xE5 SHL DUP2 MSTORE PUSH1 0x20 PUSH1 0x4 DUP3 ADD MSTORE PUSH1 0x34 PUSH1 0x24 DUP3 ADD MSTORE PUSH32 0x455243313135353A207472616E7366657220746F206E6F6E2045524331313535 PUSH1 0x44 DUP3 ADD MSTORE PUSH20 0x2932B1B2B4BB32B91034B6B83632B6B2B73A32B9 PUSH1 0x61 SHL PUSH1 0x64 DUP3 ADD MSTORE PUSH1 0x84 ADD PUSH2 0x661 JUMP JUMPDEST PUSH1 0x1 PUSH1 0x1 PUSH1 0xE0 SHL SUB NOT DUP2 AND PUSH4 0xBC197C81 PUSH1 0xE0 SHL EQ PUSH2 0x372E JUMPI PUSH1 0x40 MLOAD PUSH3 0x461BCD PUSH1 0xE5 SHL DUP2 MSTORE PUSH1 0x4 ADD PUSH2 0x661 SWAP1 PUSH2 0x5B66 JUMP JUMPDEST PUSH1 0x0 DUP3 PUSH1 0x0 ADD DUP3 DUP2 SLOAD DUP2 LT PUSH2 0x3B5C JUMPI PUSH2 0x3B5C PUSH2 0x5266 JUMP JUMPDEST SWAP1 PUSH1 0x0 MSTORE PUSH1 0x20 PUSH1 0x0 KECCAK256 ADD SLOAD SWAP1 POP SWAP3 SWAP2 POP POP JUMP JUMPDEST PUSH1 0x1 PUSH1 0x1 PUSH1 0xA0 SHL SUB DUP4 AND PUSH2 0x3B95 JUMPI PUSH1 0x40 MLOAD PUSH3 0x461BCD PUSH1 0xE5 SHL DUP2 MSTORE PUSH1 0x4 ADD PUSH2 0x661 SWAP1 PUSH2 0x5BAE JUMP JUMPDEST CALLER PUSH2 0x3BC4 DUP2 DUP6 PUSH1 0x0 PUSH2 0x3BA6 DUP8 PUSH2 0x41BD JUMP JUMPDEST PUSH2 0x3BAF DUP8 PUSH2 0x41BD JUMP JUMPDEST PUSH1 0x40 MLOAD DUP1 PUSH1 0x20 ADD PUSH1 0x40 MSTORE DUP1 PUSH1 0x0 DUP2 MSTORE POP PUSH2 0x39DE JUMP JUMPDEST PUSH1 0x0 DUP4 DUP2 MSTORE PUSH1 0x9A PUSH1 0x20 SWAP1 DUP2 MSTORE PUSH1 0x40 DUP1 DUP4 KECCAK256 PUSH1 0x1 PUSH1 0x1 PUSH1 0xA0 SHL SUB DUP9 AND DUP5 MSTORE SWAP1 SWAP2 MSTORE SWAP1 KECCAK256 SLOAD DUP3 DUP2 LT ISZERO PUSH2 0x3C07 JUMPI PUSH1 0x40 MLOAD PUSH3 0x461BCD PUSH1 0xE5 SHL DUP2 MSTORE PUSH1 0x4 ADD PUSH2 0x661 SWAP1 PUSH2 0x5BF1 JUMP JUMPDEST PUSH1 0x0 DUP5 DUP2 MSTORE PUSH1 0x9A PUSH1 0x20 SWAP1 DUP2 MSTORE PUSH1 0x40 DUP1 DUP4 KECCAK256 PUSH1 0x1 PUSH1 0x1 PUSH1 0xA0 SHL SUB DUP10 DUP2 AND DUP1 DUP7 MSTORE SWAP2 DUP5 MSTORE DUP3 DUP6 KECCAK256 DUP9 DUP8 SUB SWAP1 SSTORE DUP3 MLOAD DUP10 DUP2 MSTORE SWAP4 DUP5 ADD DUP9 SWAP1 MSTORE SWAP1 SWAP3 SWAP1 DUP7 AND SWAP2 PUSH1 0x0 DUP1 MLOAD PUSH1 0x20 PUSH2 0x5D9D DUP4 CODECOPY DUP2 MLOAD SWAP2 MSTORE SWAP2 ADD PUSH1 0x40 MLOAD DUP1 SWAP2 SUB SWAP1 LOG4 POP POP POP POP POP JUMP JUMPDEST PUSH1 0x1 PUSH1 0x1 PUSH1 0xA0 SHL SUB DUP4 AND PUSH2 0x3C88 JUMPI PUSH1 0x40 MLOAD PUSH3 0x461BCD PUSH1 0xE5 SHL DUP2 MSTORE PUSH1 0x4 ADD PUSH2 0x661 SWAP1 PUSH2 0x5BAE JUMP JUMPDEST DUP1 MLOAD DUP3 MLOAD EQ PUSH2 0x3CA9 JUMPI PUSH1 0x40 MLOAD PUSH3 0x461BCD PUSH1 0xE5 SHL DUP2 MSTORE PUSH1 0x4 ADD PUSH2 0x661 SWAP1 PUSH2 0x57FA JUMP JUMPDEST PUSH1 0x0 CALLER SWAP1 POP PUSH2 0x3CCC DUP2 DUP6 PUSH1 0x0 DUP7 DUP7 PUSH1 0x40 MLOAD DUP1 PUSH1 0x20 ADD PUSH1 0x40 MSTORE DUP1 PUSH1 0x0 DUP2 MSTORE POP PUSH2 0x39DE JUMP JUMPDEST PUSH1 0x0 JUMPDEST DUP4 MLOAD DUP2 LT ISZERO PUSH2 0x3D94 JUMPI PUSH1 0x0 DUP5 DUP3 DUP2 MLOAD DUP2 LT PUSH2 0x3CEC JUMPI PUSH2 0x3CEC PUSH2 0x5266 JUMP JUMPDEST PUSH1 0x20 MUL PUSH1 0x20 ADD ADD MLOAD SWAP1 POP PUSH1 0x0 DUP5 DUP4 DUP2 MLOAD DUP2 LT PUSH2 0x3D0A JUMPI PUSH2 0x3D0A PUSH2 0x5266 JUMP JUMPDEST PUSH1 0x20 SWAP1 DUP2 MUL SWAP2 SWAP1 SWAP2 ADD DUP2 ADD MLOAD PUSH1 0x0 DUP5 DUP2 MSTORE PUSH1 0x9A DUP4 MSTORE PUSH1 0x40 DUP1 DUP3 KECCAK256 PUSH1 0x1 PUSH1 0x1 PUSH1 0xA0 SHL SUB DUP13 AND DUP4 MSTORE SWAP1 SWAP4 MSTORE SWAP2 SWAP1 SWAP2 KECCAK256 SLOAD SWAP1 SWAP2 POP DUP2 DUP2 LT ISZERO PUSH2 0x3D5B JUMPI PUSH1 0x40 MLOAD PUSH3 0x461BCD PUSH1 0xE5 SHL DUP2 MSTORE PUSH1 0x4 ADD PUSH2 0x661 SWAP1 PUSH2 0x5BF1 JUMP JUMPDEST PUSH1 0x0 SWAP3 DUP4 MSTORE PUSH1 0x9A PUSH1 0x20 SWAP1 DUP2 MSTORE PUSH1 0x40 DUP1 DUP6 KECCAK256 PUSH1 0x1 PUSH1 0x1 PUSH1 0xA0 SHL SUB DUP12 AND DUP7 MSTORE SWAP1 SWAP2 MSTORE SWAP1 SWAP3 KECCAK256 SWAP2 SUB SWAP1 SSTORE DUP1 PUSH2 0x3D8C DUP2 PUSH2 0x5292 JUMP JUMPDEST SWAP2 POP POP PUSH2 0x3CCF JUMP JUMPDEST POP PUSH1 0x0 PUSH1 0x1 PUSH1 0x1 PUSH1 0xA0 SHL SUB AND DUP5 PUSH1 0x1 PUSH1 0x1 PUSH1 0xA0 SHL SUB AND DUP3 PUSH1 0x1 PUSH1 0x1 PUSH1 0xA0 SHL SUB AND PUSH1 0x0 DUP1 MLOAD PUSH1 0x20 PUSH2 0x5D7D DUP4 CODECOPY DUP2 MLOAD SWAP2 MSTORE DUP7 DUP7 PUSH1 0x40 MLOAD PUSH2 0x3DD3 SWAP3 SWAP2 SWAP1 PUSH2 0x58D1 JUMP JUMPDEST PUSH1 0x40 MLOAD DUP1 SWAP2 SUB SWAP1 LOG4 POP POP POP POP JUMP JUMPDEST CALLER PUSH1 0x0 SWAP1 DUP2 MSTORE PUSH1 0xD1 PUSH1 0x20 MSTORE PUSH1 0x40 SWAP1 KECCAK256 SLOAD PUSH1 0x1 PUSH1 0x1 PUSH1 0xA0 SHL SUB AND ISZERO PUSH2 0x7C1 JUMPI CALLER PUSH1 0x0 DUP2 DUP2 MSTORE PUSH1 0xD1 PUSH1 0x20 MSTORE PUSH1 0x40 SWAP1 DUP2 SWAP1 KECCAK256 SLOAD SWAP1 MLOAD PUSH4 0x78EA2A97 PUSH1 0xE1 SHL DUP2 MSTORE PUSH1 0x1 PUSH1 0x1 PUSH1 0xA0 SHL SUB SWAP1 SWAP2 AND SWAP2 PUSH4 0xF1D4552E SWAP2 PUSH2 0x3E42 SWAP2 SWAP1 DUP8 SWAP1 DUP8 SWAP1 DUP8 SWAP1 PUSH1 0x4 ADD PUSH2 0x5C35 JUMP JUMPDEST PUSH1 0x0 PUSH1 0x40 MLOAD DUP1 DUP4 SUB DUP2 PUSH1 0x0 DUP8 DUP1 EXTCODESIZE ISZERO DUP1 ISZERO PUSH2 0x3E5C JUMPI PUSH1 0x0 DUP1 REVERT JUMPDEST POP GAS CALL ISZERO DUP1 ISZERO PUSH2 0x372E JUMPI RETURNDATASIZE PUSH1 0x0 DUP1 RETURNDATACOPY RETURNDATASIZE PUSH1 0x0 REVERT JUMPDEST PUSH2 0x3E7C DUP5 DUP5 DUP5 DUP5 PUSH2 0x4488 JUMP JUMPDEST PUSH1 0x0 DUP4 DUP2 MSTORE PUSH1 0xDC PUSH1 0x20 MSTORE PUSH1 0x40 DUP2 KECCAK256 DUP1 SLOAD DUP5 SWAP3 SWAP1 PUSH2 0x3E9A SWAP1 DUP5 SWAP1 PUSH2 0x56F7 JUMP JUMPDEST SWAP1 SWAP2 SSTORE POP POP POP POP POP POP JUMP JUMPDEST PUSH2 0x3EB1 DUP5 DUP5 DUP5 DUP5 PUSH2 0x453F JUMP JUMPDEST PUSH1 0x0 JUMPDEST DUP4 MLOAD DUP2 LT ISZERO PUSH2 0x813 JUMPI DUP3 DUP2 DUP2 MLOAD DUP2 LT PUSH2 0x3ECF JUMPI PUSH2 0x3ECF PUSH2 0x5266 JUMP JUMPDEST PUSH1 0x20 MUL PUSH1 0x20 ADD ADD MLOAD PUSH1 0xDC PUSH1 0x0 DUP7 DUP5 DUP2 MLOAD DUP2 LT PUSH2 0x3EED JUMPI PUSH2 0x3EED PUSH2 0x5266 JUMP JUMPDEST PUSH1 0x20 MUL PUSH1 0x20 ADD ADD MLOAD DUP2 MSTORE PUSH1 0x20 ADD SWAP1 DUP2 MSTORE PUSH1 0x20 ADD PUSH1 0x0 KECCAK256 PUSH1 0x0 DUP3 DUP3 SLOAD PUSH2 0x3F12 SWAP2 SWAP1 PUSH2 0x56F7 JUMP JUMPDEST SWAP1 SWAP2 SSTORE POP PUSH2 0x3F21 SWAP1 POP DUP2 PUSH2 0x5292 JUMP JUMPDEST SWAP1 POP PUSH2 0x3EB4 JUMP JUMPDEST PUSH1 0x0 DUP2 DUP2 MSTORE PUSH1 0x1 DUP4 ADD PUSH1 0x20 MSTORE PUSH1 0x40 DUP2 KECCAK256 SLOAD PUSH2 0x3F6F JUMPI POP DUP2 SLOAD PUSH1 0x1 DUP2 DUP2 ADD DUP5 SSTORE PUSH1 0x0 DUP5 DUP2 MSTORE PUSH1 0x20 DUP1 DUP3 KECCAK256 SWAP1 SWAP4 ADD DUP5 SWAP1 SSTORE DUP5 SLOAD DUP5 DUP3 MSTORE DUP3 DUP7 ADD SWAP1 SWAP4 MSTORE PUSH1 0x40 SWAP1 KECCAK256 SWAP2 SWAP1 SWAP2 SSTORE PUSH2 0x68F JUMP JUMPDEST POP PUSH1 0x0 PUSH2 0x68F JUMP JUMPDEST PUSH1 0x0 SLOAD PUSH2 0x100 SWAP1 DIV PUSH1 0xFF AND DUP1 PUSH2 0x3F90 JUMPI POP PUSH1 0x0 SLOAD PUSH1 0xFF AND ISZERO JUMPDEST PUSH2 0x3FAC JUMPI PUSH1 0x40 MLOAD PUSH3 0x461BCD PUSH1 0xE5 SHL DUP2 MSTORE PUSH1 0x4 ADD PUSH2 0x661 SWAP1 PUSH2 0x5385 JUMP JUMPDEST PUSH1 0x0 SLOAD PUSH2 0x100 SWAP1 DIV PUSH1 0xFF AND ISZERO DUP1 ISZERO PUSH2 0x1236 JUMPI PUSH1 0x0 DUP1 SLOAD PUSH2 0xFFFF NOT AND PUSH2 0x101 OR SWAP1 SSTORE DUP1 ISZERO PUSH2 0x707 JUMPI PUSH1 0x0 DUP1 SLOAD PUSH2 0xFF00 NOT AND SWAP1 SSTORE POP JUMP JUMPDEST PUSH1 0x0 SLOAD PUSH2 0x100 SWAP1 DIV PUSH1 0xFF AND DUP1 PUSH2 0x3FFA JUMPI POP PUSH1 0x0 SLOAD PUSH1 0xFF AND ISZERO JUMPDEST PUSH2 0x4016 JUMPI PUSH1 0x40 MLOAD PUSH3 0x461BCD PUSH1 0xE5 SHL DUP2 MSTORE PUSH1 0x4 ADD PUSH2 0x661 SWAP1 PUSH2 0x5385 JUMP JUMPDEST PUSH1 0x0 SLOAD PUSH2 0x100 SWAP1 DIV PUSH1 0xFF AND ISZERO DUP1 ISZERO PUSH2 0x4038 JUMPI PUSH1 0x0 DUP1 SLOAD PUSH2 0xFFFF NOT AND PUSH2 0x101 OR SWAP1 SSTORE JUMPDEST PUSH2 0x2EB4 DUP3 PUSH2 0x4688 JUMP JUMPDEST PUSH1 0x0 SLOAD PUSH2 0x100 SWAP1 DIV PUSH1 0xFF AND DUP1 PUSH2 0x405A JUMPI POP PUSH1 0x0 SLOAD PUSH1 0xFF AND ISZERO JUMPDEST PUSH2 0x4076 JUMPI PUSH1 0x40 MLOAD PUSH3 0x461BCD PUSH1 0xE5 SHL DUP2 MSTORE PUSH1 0x4 ADD PUSH2 0x661 SWAP1 PUSH2 0x5385 JUMP JUMPDEST PUSH1 0x0 SLOAD PUSH2 0x100 SWAP1 DIV PUSH1 0xFF AND ISZERO DUP1 ISZERO PUSH2 0x4098 JUMPI PUSH1 0x0 DUP1 SLOAD PUSH2 0xFFFF NOT AND PUSH2 0x101 OR SWAP1 SSTORE JUMPDEST PUSH2 0x1236 CALLER PUSH2 0x2DF2 JUMP JUMPDEST PUSH1 0x0 PUSH2 0x40B4 DUP3 PUSH4 0x1FFC9A7 PUSH1 0xE0 SHL PUSH2 0x40D4 JUMP JUMPDEST DUP1 ISZERO PUSH2 0x68F JUMPI POP PUSH2 0x40CD DUP3 PUSH1 0x1 PUSH1 0x1 PUSH1 0xE0 SHL SUB NOT PUSH2 0x40D4 JUMP JUMPDEST ISZERO SWAP3 SWAP2 POP POP JUMP JUMPDEST PUSH1 0x40 DUP1 MLOAD PUSH1 0x1 PUSH1 0x1 PUSH1 0xE0 SHL SUB NOT DUP4 AND PUSH1 0x24 DUP1 DUP4 ADD SWAP2 SWAP1 SWAP2 MSTORE DUP3 MLOAD DUP1 DUP4 SUB SWAP1 SWAP2 ADD DUP2 MSTORE PUSH1 0x44 SWAP1 SWAP2 ADD DUP3 MSTORE PUSH1 0x20 DUP2 ADD DUP1 MLOAD PUSH1 0x1 PUSH1 0x1 PUSH1 0xE0 SHL SUB AND PUSH4 0x1FFC9A7 PUSH1 0xE0 SHL OR SWAP1 MSTORE SWAP1 MLOAD PUSH1 0x0 SWAP2 SWAP1 DUP3 SWAP1 DUP2 SWAP1 PUSH1 0x1 PUSH1 0x1 PUSH1 0xA0 SHL SUB DUP8 AND SWAP1 PUSH2 0x7530 SWAP1 PUSH2 0x413B SWAP1 DUP7 SWAP1 PUSH2 0x5C8A JUMP JUMPDEST PUSH1 0x0 PUSH1 0x40 MLOAD DUP1 DUP4 SUB DUP2 DUP7 DUP7 STATICCALL SWAP3 POP POP POP RETURNDATASIZE DUP1 PUSH1 0x0 DUP2 EQ PUSH2 0x4177 JUMPI PUSH1 0x40 MLOAD SWAP2 POP PUSH1 0x1F NOT PUSH1 0x3F RETURNDATASIZE ADD AND DUP3 ADD PUSH1 0x40 MSTORE RETURNDATASIZE DUP3 MSTORE RETURNDATASIZE PUSH1 0x0 PUSH1 0x20 DUP5 ADD RETURNDATACOPY PUSH2 0x417C JUMP JUMPDEST PUSH1 0x60 SWAP2 POP JUMPDEST POP SWAP2 POP SWAP2 POP PUSH1 0x20 DUP2 MLOAD LT ISZERO PUSH2 0x4197 JUMPI PUSH1 0x0 SWAP4 POP POP POP POP PUSH2 0x68F JUMP JUMPDEST DUP2 DUP1 ISZERO PUSH2 0x41B3 JUMPI POP DUP1 DUP1 PUSH1 0x20 ADD SWAP1 MLOAD DUP2 ADD SWAP1 PUSH2 0x41B3 SWAP2 SWAP1 PUSH2 0x5CA6 JUMP JUMPDEST SWAP7 SWAP6 POP POP POP POP POP POP JUMP JUMPDEST PUSH1 0x40 DUP1 MLOAD PUSH1 0x1 DUP1 DUP3 MSTORE DUP2 DUP4 ADD SWAP1 SWAP3 MSTORE PUSH1 0x60 SWAP2 PUSH1 0x0 SWAP2 SWAP1 PUSH1 0x20 DUP1 DUP4 ADD SWAP1 DUP1 CALLDATASIZE DUP4 CALLDATACOPY ADD SWAP1 POP POP SWAP1 POP DUP3 DUP2 PUSH1 0x0 DUP2 MLOAD DUP2 LT PUSH2 0x41F7 JUMPI PUSH2 0x41F7 PUSH2 0x5266 JUMP JUMPDEST PUSH1 0x20 SWAP1 DUP2 MUL SWAP2 SWAP1 SWAP2 ADD ADD MSTORE SWAP3 SWAP2 POP POP JUMP JUMPDEST PUSH1 0x1 PUSH1 0x1 PUSH1 0xA0 SHL SUB DUP5 AND EXTCODESIZE ISZERO PUSH2 0x2576 JUMPI PUSH1 0x40 MLOAD PUSH4 0xF23A6E61 PUSH1 0xE0 SHL DUP2 MSTORE PUSH1 0x1 PUSH1 0x1 PUSH1 0xA0 SHL SUB DUP6 AND SWAP1 PUSH4 0xF23A6E61 SWAP1 PUSH2 0x424C SWAP1 DUP10 SWAP1 DUP10 SWAP1 DUP9 SWAP1 DUP9 SWAP1 DUP9 SWAP1 PUSH1 0x4 ADD PUSH2 0x5CC3 JUMP JUMPDEST PUSH1 0x20 PUSH1 0x40 MLOAD DUP1 DUP4 SUB DUP2 PUSH1 0x0 DUP8 GAS CALL SWAP3 POP POP POP DUP1 ISZERO PUSH2 0x4287 JUMPI POP PUSH1 0x40 DUP1 MLOAD PUSH1 0x1F RETURNDATASIZE SWAP1 DUP2 ADD PUSH1 0x1F NOT AND DUP3 ADD SWAP1 SWAP3 MSTORE PUSH2 0x4284 SWAP2 DUP2 ADD SWAP1 PUSH2 0x5AA4 JUMP JUMPDEST PUSH1 0x1 JUMPDEST PUSH2 0x4293 JUMPI PUSH2 0x3A75 PUSH2 0x5AC1 JUMP JUMPDEST PUSH1 0x1 PUSH1 0x1 PUSH1 0xE0 SHL SUB NOT DUP2 AND PUSH4 0xF23A6E61 PUSH1 0xE0 SHL EQ PUSH2 0x372E JUMPI PUSH1 0x40 MLOAD PUSH3 0x461BCD PUSH1 0xE5 SHL DUP2 MSTORE PUSH1 0x4 ADD PUSH2 0x661 SWAP1 PUSH2 0x5B66 JUMP JUMPDEST PUSH1 0x0 DUP3 MLOAD GT PUSH2 0x42E4 JUMPI PUSH1 0x40 MLOAD PUSH3 0x461BCD PUSH1 0xE5 SHL DUP2 MSTORE PUSH1 0x4 ADD PUSH2 0x661 SWAP1 PUSH2 0x52E2 JUMP JUMPDEST PUSH1 0x0 PUSH1 0xD3 PUSH1 0x0 DUP5 PUSH1 0x0 DUP2 MLOAD DUP2 LT PUSH2 0x42FD JUMPI PUSH2 0x42FD PUSH2 0x5266 JUMP JUMPDEST PUSH1 0x20 MUL PUSH1 0x20 ADD ADD MLOAD DUP2 MSTORE PUSH1 0x20 ADD SWAP1 DUP2 MSTORE PUSH1 0x20 ADD PUSH1 0x0 KECCAK256 PUSH1 0x0 SWAP1 SLOAD SWAP1 PUSH2 0x100 EXP SWAP1 DIV PUSH1 0x1 PUSH1 0x1 PUSH1 0xA0 SHL SUB AND SWAP1 POP PUSH1 0x0 JUMPDEST DUP4 MLOAD DUP2 LT ISZERO PUSH2 0x43A8 JUMPI DUP2 PUSH1 0x1 PUSH1 0x1 PUSH1 0xA0 SHL SUB AND PUSH1 0xD3 PUSH1 0x0 DUP7 DUP5 DUP2 MLOAD DUP2 LT PUSH2 0x4355 JUMPI PUSH2 0x4355 PUSH2 0x5266 JUMP JUMPDEST PUSH1 0x20 SWAP1 DUP2 MUL SWAP2 SWAP1 SWAP2 ADD DUP2 ADD MLOAD DUP3 MSTORE DUP2 ADD SWAP2 SWAP1 SWAP2 MSTORE PUSH1 0x40 ADD PUSH1 0x0 KECCAK256 SLOAD PUSH1 0x1 PUSH1 0x1 PUSH1 0xA0 SHL SUB AND EQ PUSH2 0x4396 JUMPI PUSH1 0x40 MLOAD PUSH3 0x461BCD PUSH1 0xE5 SHL DUP2 MSTORE PUSH1 0x4 ADD PUSH2 0x661 SWAP1 PUSH2 0x59B0 JUMP JUMPDEST DUP1 PUSH2 0x43A0 DUP2 PUSH2 0x5292 JUMP JUMPDEST SWAP2 POP POP PUSH2 0x432C JUMP JUMPDEST POP PUSH1 0x1 PUSH1 0x1 PUSH1 0xA0 SHL SUB DUP2 AND PUSH1 0x0 SWAP1 DUP2 MSTORE PUSH1 0xD2 PUSH1 0x20 MSTORE PUSH1 0x40 SWAP1 KECCAK256 SLOAD PUSH1 0xFF AND ISZERO PUSH2 0x813 JUMPI PUSH1 0x40 MLOAD PUSH4 0x883DA933 PUSH1 0xE0 SHL DUP2 MSTORE PUSH1 0x1 PUSH1 0x1 PUSH1 0xA0 SHL SUB DUP3 AND SWAP1 PUSH4 0x883DA933 SWAP1 PUSH2 0x43FC SWAP1 DUP9 SWAP1 DUP9 SWAP1 DUP9 SWAP1 DUP9 SWAP1 PUSH1 0x4 ADD PUSH2 0x5CFD JUMP JUMPDEST PUSH1 0x20 PUSH1 0x40 MLOAD DUP1 DUP4 SUB DUP2 PUSH1 0x0 DUP8 GAS CALL ISZERO DUP1 ISZERO PUSH2 0x441B JUMPI RETURNDATASIZE PUSH1 0x0 DUP1 RETURNDATACOPY RETURNDATASIZE PUSH1 0x0 REVERT JUMPDEST POP POP POP POP PUSH1 0x40 MLOAD RETURNDATASIZE PUSH1 0x1F NOT PUSH1 0x1F DUP3 ADD AND DUP3 ADD DUP1 PUSH1 0x40 MSTORE POP DUP2 ADD SWAP1 PUSH2 0x443F SWAP2 SWAP1 PUSH2 0x5CA6 JUMP JUMPDEST PUSH2 0x813 JUMPI PUSH1 0x40 MLOAD PUSH3 0x461BCD PUSH1 0xE5 SHL DUP2 MSTORE PUSH1 0x20 PUSH1 0x4 DUP3 ADD MSTORE PUSH1 0x1A PUSH1 0x24 DUP3 ADD MSTORE PUSH26 0x457874656E73696F6E20617070726F76616C206661696C757265 PUSH1 0x30 SHL PUSH1 0x44 DUP3 ADD MSTORE PUSH1 0x64 ADD PUSH2 0x661 JUMP JUMPDEST PUSH1 0x1 PUSH1 0x1 PUSH1 0xA0 SHL SUB DUP5 AND PUSH2 0x44AE JUMPI PUSH1 0x40 MLOAD PUSH3 0x461BCD PUSH1 0xE5 SHL DUP2 MSTORE PUSH1 0x4 ADD PUSH2 0x661 SWAP1 PUSH2 0x5D3B JUMP JUMPDEST CALLER PUSH2 0x44BF DUP2 PUSH1 0x0 DUP8 PUSH2 0x364F DUP9 PUSH2 0x41BD JUMP JUMPDEST PUSH1 0x0 DUP5 DUP2 MSTORE PUSH1 0x9A PUSH1 0x20 SWAP1 DUP2 MSTORE PUSH1 0x40 DUP1 DUP4 KECCAK256 PUSH1 0x1 PUSH1 0x1 PUSH1 0xA0 SHL SUB DUP10 AND DUP5 MSTORE SWAP1 SWAP2 MSTORE DUP2 KECCAK256 DUP1 SLOAD DUP6 SWAP3 SWAP1 PUSH2 0x44F1 SWAP1 DUP5 SWAP1 PUSH2 0x56F7 JUMP JUMPDEST SWAP1 SWAP2 SSTORE POP POP PUSH1 0x40 DUP1 MLOAD DUP6 DUP2 MSTORE PUSH1 0x20 DUP2 ADD DUP6 SWAP1 MSTORE PUSH1 0x1 PUSH1 0x1 PUSH1 0xA0 SHL SUB DUP1 DUP9 AND SWAP3 PUSH1 0x0 SWAP3 SWAP2 DUP6 AND SWAP2 PUSH1 0x0 DUP1 MLOAD PUSH1 0x20 PUSH2 0x5D9D DUP4 CODECOPY DUP2 MLOAD SWAP2 MSTORE SWAP2 ADD PUSH1 0x40 MLOAD DUP1 SWAP2 SUB SWAP1 LOG4 PUSH2 0x813 DUP2 PUSH1 0x0 DUP8 DUP8 DUP8 DUP8 PUSH2 0x4208 JUMP JUMPDEST PUSH1 0x1 PUSH1 0x1 PUSH1 0xA0 SHL SUB DUP5 AND PUSH2 0x4565 JUMPI PUSH1 0x40 MLOAD PUSH3 0x461BCD PUSH1 0xE5 SHL DUP2 MSTORE PUSH1 0x4 ADD PUSH2 0x661 SWAP1 PUSH2 0x5D3B JUMP JUMPDEST DUP2 MLOAD DUP4 MLOAD EQ PUSH2 0x4586 JUMPI PUSH1 0x40 MLOAD PUSH3 0x461BCD PUSH1 0xE5 SHL DUP2 MSTORE PUSH1 0x4 ADD PUSH2 0x661 SWAP1 PUSH2 0x57FA JUMP JUMPDEST CALLER PUSH2 0x4596 DUP2 PUSH1 0x0 DUP8 DUP8 DUP8 DUP8 PUSH2 0x39DE JUMP JUMPDEST PUSH1 0x0 JUMPDEST DUP5 MLOAD DUP2 LT ISZERO PUSH2 0x4632 JUMPI DUP4 DUP2 DUP2 MLOAD DUP2 LT PUSH2 0x45B4 JUMPI PUSH2 0x45B4 PUSH2 0x5266 JUMP JUMPDEST PUSH1 0x20 MUL PUSH1 0x20 ADD ADD MLOAD PUSH1 0x9A PUSH1 0x0 DUP8 DUP5 DUP2 MLOAD DUP2 LT PUSH2 0x45D2 JUMPI PUSH2 0x45D2 PUSH2 0x5266 JUMP JUMPDEST PUSH1 0x20 MUL PUSH1 0x20 ADD ADD MLOAD DUP2 MSTORE PUSH1 0x20 ADD SWAP1 DUP2 MSTORE PUSH1 0x20 ADD PUSH1 0x0 KECCAK256 PUSH1 0x0 DUP9 PUSH1 0x1 PUSH1 0x1 PUSH1 0xA0 SHL SUB AND PUSH1 0x1 PUSH1 0x1 PUSH1 0xA0 SHL SUB AND DUP2 MSTORE PUSH1 0x20 ADD SWAP1 DUP2 MSTORE PUSH1 0x20 ADD PUSH1 0x0 KECCAK256 PUSH1 0x0 DUP3 DUP3 SLOAD PUSH2 0x461A SWAP2 SWAP1 PUSH2 0x56F7 JUMP JUMPDEST SWAP1 SWAP2 SSTORE POP DUP2 SWAP1 POP PUSH2 0x462A DUP2 PUSH2 0x5292 JUMP JUMPDEST SWAP2 POP POP PUSH2 0x4599 JUMP JUMPDEST POP DUP5 PUSH1 0x1 PUSH1 0x1 PUSH1 0xA0 SHL SUB AND PUSH1 0x0 PUSH1 0x1 PUSH1 0x1 PUSH1 0xA0 SHL SUB AND DUP3 PUSH1 0x1 PUSH1 0x1 PUSH1 0xA0 SHL SUB AND PUSH1 0x0 DUP1 MLOAD PUSH1 0x20 PUSH2 0x5D7D DUP4 CODECOPY DUP2 MLOAD SWAP2 MSTORE DUP8 DUP8 PUSH1 0x40 MLOAD PUSH2 0x4671 SWAP3 SWAP2 SWAP1 PUSH2 0x58D1 JUMP JUMPDEST PUSH1 0x40 MLOAD DUP1 SWAP2 SUB SWAP1 LOG4 PUSH2 0x813 DUP2 PUSH1 0x0 DUP8 DUP8 DUP8 DUP8 PUSH2 0x39EA JUMP JUMPDEST PUSH1 0x9C PUSH2 0x8ED DUP3 DUP3 PUSH2 0x58E4 JUMP JUMPDEST DUP3 DUP1 SLOAD DUP3 DUP3 SSTORE SWAP1 PUSH1 0x0 MSTORE PUSH1 0x20 PUSH1 0x0 KECCAK256 SWAP1 DUP2 ADD SWAP3 DUP3 ISZERO PUSH2 0x46E7 JUMPI SWAP2 PUSH1 0x20 MUL DUP3 ADD JUMPDEST DUP3 DUP2 GT ISZERO PUSH2 0x46E7 JUMPI DUP2 SLOAD PUSH1 0x1 PUSH1 0x1 PUSH1 0xA0 SHL SUB NOT AND PUSH1 0x1 PUSH1 0x1 PUSH1 0xA0 SHL SUB DUP5 CALLDATALOAD AND OR DUP3 SSTORE PUSH1 0x20 SWAP1 SWAP3 ADD SWAP2 PUSH1 0x1 SWAP1 SWAP2 ADD SWAP1 PUSH2 0x46B4 JUMP JUMPDEST POP PUSH2 0xB26 SWAP3 SWAP2 POP PUSH2 0x472E JUMP JUMPDEST DUP3 DUP1 SLOAD DUP3 DUP3 SSTORE SWAP1 PUSH1 0x0 MSTORE PUSH1 0x20 PUSH1 0x0 KECCAK256 SWAP1 DUP2 ADD SWAP3 DUP3 ISZERO PUSH2 0x46E7 JUMPI SWAP2 PUSH1 0x20 MUL DUP3 ADD JUMPDEST DUP3 DUP2 GT ISZERO PUSH2 0x46E7 JUMPI DUP3 CALLDATALOAD DUP3 SSTORE SWAP2 PUSH1 0x20 ADD SWAP2 SWAP1 PUSH1 0x1 ADD SWAP1 PUSH2 0x4713 JUMP JUMPDEST JUMPDEST DUP1 DUP3 GT ISZERO PUSH2 0xB26 JUMPI PUSH1 0x0 DUP2 SSTORE PUSH1 0x1 ADD PUSH2 0x472F JUMP JUMPDEST PUSH1 0x1 PUSH1 0x1 PUSH1 0xA0 SHL SUB DUP2 AND DUP2 EQ PUSH2 0x707 JUMPI PUSH1 0x0 DUP1 REVERT JUMPDEST PUSH1 0x0 DUP1 PUSH1 0x40 DUP4 DUP6 SUB SLT ISZERO PUSH2 0x476B JUMPI PUSH1 0x0 DUP1 REVERT JUMPDEST DUP3 CALLDATALOAD PUSH2 0x4776 DUP2 PUSH2 0x4743 JUMP JUMPDEST SWAP5 PUSH1 0x20 SWAP4 SWAP1 SWAP4 ADD CALLDATALOAD SWAP4 POP POP POP JUMP JUMPDEST PUSH1 0x1 PUSH1 0x1 PUSH1 0xE0 SHL SUB NOT DUP2 AND DUP2 EQ PUSH2 0x707 JUMPI PUSH1 0x0 DUP1 REVERT JUMPDEST PUSH1 0x0 PUSH1 0x20 DUP3 DUP5 SUB SLT ISZERO PUSH2 0x47AC JUMPI PUSH1 0x0 DUP1 REVERT JUMPDEST DUP2 CALLDATALOAD PUSH2 0x1D05 DUP2 PUSH2 0x4784 JUMP JUMPDEST PUSH1 0x0 PUSH1 0x20 DUP3 DUP5 SUB SLT ISZERO PUSH2 0x47C9 JUMPI PUSH1 0x0 DUP1 REVERT JUMPDEST DUP2 CALLDATALOAD PUSH2 0x1D05 DUP2 PUSH2 0x4743 JUMP JUMPDEST PUSH1 0x0 PUSH1 0x20 DUP3 DUP5 SUB SLT ISZERO PUSH2 0x47E6 JUMPI PUSH1 0x0 DUP1 REVERT JUMPDEST POP CALLDATALOAD SWAP2 SWAP1 POP JUMP JUMPDEST PUSH1 0x0 JUMPDEST DUP4 DUP2 LT ISZERO PUSH2 0x4808 JUMPI DUP2 DUP2 ADD MLOAD DUP4 DUP3 ADD MSTORE PUSH1 0x20 ADD PUSH2 0x47F0 JUMP JUMPDEST POP POP PUSH1 0x0 SWAP2 ADD MSTORE JUMP JUMPDEST PUSH1 0x0 DUP2 MLOAD DUP1 DUP5 MSTORE PUSH2 0x4829 DUP2 PUSH1 0x20 DUP7 ADD PUSH1 0x20 DUP7 ADD PUSH2 0x47ED JUMP JUMPDEST PUSH1 0x1F ADD PUSH1 0x1F NOT AND SWAP3 SWAP1 SWAP3 ADD PUSH1 0x20 ADD SWAP3 SWAP2 POP POP JUMP JUMPDEST PUSH1 0x20 DUP2 MSTORE PUSH1 0x0 PUSH2 0x1D05 PUSH1 0x20 DUP4 ADD DUP5 PUSH2 0x4811 JUMP JUMPDEST PUSH1 0x0 DUP2 MLOAD DUP1 DUP5 MSTORE PUSH1 0x20 DUP1 DUP6 ADD SWAP5 POP DUP1 DUP5 ADD PUSH1 0x0 JUMPDEST DUP4 DUP2 LT ISZERO PUSH2 0x4880 JUMPI DUP2 MLOAD DUP8 MSTORE SWAP6 DUP3 ADD SWAP6 SWAP1 DUP3 ADD SWAP1 PUSH1 0x1 ADD PUSH2 0x4864 JUMP JUMPDEST POP SWAP5 SWAP6 SWAP5 POP POP POP POP POP JUMP JUMPDEST PUSH1 0x20 DUP2 MSTORE PUSH1 0x0 PUSH2 0x1D05 PUSH1 0x20 DUP4 ADD DUP5 PUSH2 0x4850 JUMP JUMPDEST PUSH1 0x0 DUP1 DUP4 PUSH1 0x1F DUP5 ADD SLT PUSH2 0x48B0 JUMPI PUSH1 0x0 DUP1 REVERT JUMPDEST POP DUP2 CALLDATALOAD PUSH1 0x1 PUSH1 0x1 PUSH1 0x40 SHL SUB DUP2 GT ISZERO PUSH2 0x48C7 JUMPI PUSH1 0x0 DUP1 REVERT JUMPDEST PUSH1 0x20 DUP4 ADD SWAP2 POP DUP4 PUSH1 0x20 DUP3 DUP6 ADD ADD GT ISZERO PUSH2 0x866 JUMPI PUSH1 0x0 DUP1 REVERT JUMPDEST PUSH1 0x0 DUP1 PUSH1 0x0 PUSH1 0x40 DUP5 DUP7 SUB SLT ISZERO PUSH2 0x48F4 JUMPI PUSH1 0x0 DUP1 REVERT JUMPDEST DUP4 CALLDATALOAD SWAP3 POP PUSH1 0x20 DUP5 ADD CALLDATALOAD PUSH1 0x1 PUSH1 0x1 PUSH1 0x40 SHL SUB DUP2 GT ISZERO PUSH2 0x4911 JUMPI PUSH1 0x0 DUP1 REVERT JUMPDEST PUSH2 0x491D DUP7 DUP3 DUP8 ADD PUSH2 0x489E JUMP JUMPDEST SWAP5 SWAP8 SWAP1 SWAP7 POP SWAP4 SWAP5 POP POP POP POP JUMP JUMPDEST PUSH1 0x0 DUP1 DUP4 PUSH1 0x1F DUP5 ADD SLT PUSH2 0x493C JUMPI PUSH1 0x0 DUP1 REVERT JUMPDEST POP DUP2 CALLDATALOAD PUSH1 0x1 PUSH1 0x1 PUSH1 0x40 SHL SUB DUP2 GT ISZERO PUSH2 0x4953 JUMPI PUSH1 0x0 DUP1 REVERT JUMPDEST PUSH1 0x20 DUP4 ADD SWAP2 POP DUP4 PUSH1 0x20 DUP3 PUSH1 0x5 SHL DUP6 ADD ADD GT ISZERO PUSH2 0x866 JUMPI PUSH1 0x0 DUP1 REVERT JUMPDEST PUSH1 0x0 DUP1 PUSH1 0x0 DUP1 PUSH1 0x0 PUSH1 0x60 DUP7 DUP9 SUB SLT ISZERO PUSH2 0x4986 JUMPI PUSH1 0x0 DUP1 REVERT JUMPDEST DUP6 CALLDATALOAD SWAP5 POP PUSH1 0x20 DUP7 ADD CALLDATALOAD PUSH1 0x1 PUSH1 0x1 PUSH1 0x40 SHL SUB DUP1 DUP3 GT ISZERO PUSH2 0x49A4 JUMPI PUSH1 0x0 DUP1 REVERT JUMPDEST PUSH2 0x49B0 DUP10 DUP4 DUP11 ADD PUSH2 0x492A JUMP JUMPDEST SWAP1 SWAP7 POP SWAP5 POP PUSH1 0x40 DUP9 ADD CALLDATALOAD SWAP2 POP DUP1 DUP3 GT ISZERO PUSH2 0x49C9 JUMPI PUSH1 0x0 DUP1 REVERT JUMPDEST POP PUSH2 0x49D6 DUP9 DUP3 DUP10 ADD PUSH2 0x492A JUMP JUMPDEST SWAP7 SWAP10 SWAP6 SWAP9 POP SWAP4 SWAP7 POP SWAP3 SWAP5 SWAP4 SWAP3 POP POP POP JUMP JUMPDEST PUSH1 0x0 DUP1 PUSH1 0x40 DUP4 DUP6 SUB SLT ISZERO PUSH2 0x49FA JUMPI PUSH1 0x0 DUP1 REVERT JUMPDEST POP POP DUP1 CALLDATALOAD SWAP3 PUSH1 0x20 SWAP1 SWAP2 ADD CALLDATALOAD SWAP2 POP JUMP JUMPDEST PUSH1 0x1 PUSH1 0x1 PUSH1 0xA0 SHL SUB SWAP3 SWAP1 SWAP3 AND DUP3 MSTORE PUSH1 0x20 DUP3 ADD MSTORE PUSH1 0x40 ADD SWAP1 JUMP JUMPDEST PUSH4 0x4E487B71 PUSH1 0xE0 SHL PUSH1 0x0 MSTORE PUSH1 0x41 PUSH1 0x4 MSTORE PUSH1 0x24 PUSH1 0x0 REVERT JUMPDEST PUSH1 0x1F DUP3 ADD PUSH1 0x1F NOT AND DUP2 ADD PUSH1 0x1 PUSH1 0x1 PUSH1 0x40 SHL SUB DUP2 GT DUP3 DUP3 LT OR ISZERO PUSH2 0x4A5D JUMPI PUSH2 0x4A5D PUSH2 0x4A22 JUMP JUMPDEST PUSH1 0x40 MSTORE POP POP JUMP JUMPDEST PUSH1 0x0 PUSH1 0x1 PUSH1 0x1 PUSH1 0x40 SHL SUB DUP3 GT ISZERO PUSH2 0x4A7D JUMPI PUSH2 0x4A7D PUSH2 0x4A22 JUMP JUMPDEST POP PUSH1 0x5 SHL PUSH1 0x20 ADD SWAP1 JUMP JUMPDEST PUSH1 0x0 DUP3 PUSH1 0x1F DUP4 ADD SLT PUSH2 0x4A98 JUMPI PUSH1 0x0 DUP1 REVERT JUMPDEST DUP2 CALLDATALOAD PUSH1 0x20 PUSH2 0x4AA5 DUP3 PUSH2 0x4A64 JUMP JUMPDEST PUSH1 0x40 MLOAD PUSH2 0x4AB2 DUP3 DUP3 PUSH2 0x4A38 JUMP JUMPDEST DUP4 DUP2 MSTORE PUSH1 0x5 SWAP4 SWAP1 SWAP4 SHL DUP6 ADD DUP3 ADD SWAP3 DUP3 DUP2 ADD SWAP2 POP DUP7 DUP5 GT ISZERO PUSH2 0x4AD2 JUMPI PUSH1 0x0 DUP1 REVERT JUMPDEST DUP3 DUP7 ADD JUMPDEST DUP5 DUP2 LT ISZERO PUSH2 0x4AED JUMPI DUP1 CALLDATALOAD DUP4 MSTORE SWAP2 DUP4 ADD SWAP2 DUP4 ADD PUSH2 0x4AD6 JUMP JUMPDEST POP SWAP7 SWAP6 POP POP POP POP POP POP JUMP JUMPDEST PUSH1 0x0 PUSH1 0x1 PUSH1 0x1 PUSH1 0x40 SHL SUB DUP3 GT ISZERO PUSH2 0x4B11 JUMPI PUSH2 0x4B11 PUSH2 0x4A22 JUMP JUMPDEST POP PUSH1 0x1F ADD PUSH1 0x1F NOT AND PUSH1 0x20 ADD SWAP1 JUMP JUMPDEST PUSH1 0x0 PUSH2 0x4B2A DUP4 PUSH2 0x4AF8 JUMP JUMPDEST PUSH1 0x40 MLOAD PUSH2 0x4B37 DUP3 DUP3 PUSH2 0x4A38 JUMP JUMPDEST DUP1 SWAP3 POP DUP5 DUP2 MSTORE DUP6 DUP6 DUP6 ADD GT ISZERO PUSH2 0x4B4C JUMPI PUSH1 0x0 DUP1 REVERT JUMPDEST DUP5 DUP5 PUSH1 0x20 DUP4 ADD CALLDATACOPY PUSH1 0x0 PUSH1 0x20 DUP7 DUP4 ADD ADD MSTORE POP POP SWAP4 SWAP3 POP POP POP JUMP JUMPDEST PUSH1 0x0 DUP3 PUSH1 0x1F DUP4 ADD SLT PUSH2 0x4B76 JUMPI PUSH1 0x0 DUP1 REVERT JUMPDEST PUSH2 0x1D05 DUP4 DUP4 CALLDATALOAD PUSH1 0x20 DUP6 ADD PUSH2 0x4B1F JUMP JUMPDEST PUSH1 0x0 DUP1 PUSH1 0x0 DUP1 PUSH1 0x0 PUSH1 0xA0 DUP7 DUP9 SUB SLT ISZERO PUSH2 0x4B9D JUMPI PUSH1 0x0 DUP1 REVERT JUMPDEST DUP6 CALLDATALOAD PUSH2 0x4BA8 DUP2 PUSH2 0x4743 JUMP JUMPDEST SWAP5 POP PUSH1 0x20 DUP7 ADD CALLDATALOAD PUSH2 0x4BB8 DUP2 PUSH2 0x4743 JUMP JUMPDEST SWAP4 POP PUSH1 0x40 DUP7 ADD CALLDATALOAD PUSH1 0x1 PUSH1 0x1 PUSH1 0x40 SHL SUB DUP1 DUP3 GT ISZERO PUSH2 0x4BD4 JUMPI PUSH1 0x0 DUP1 REVERT JUMPDEST PUSH2 0x4BE0 DUP10 DUP4 DUP11 ADD PUSH2 0x4A87 JUMP JUMPDEST SWAP5 POP PUSH1 0x60 DUP9 ADD CALLDATALOAD SWAP2 POP DUP1 DUP3 GT ISZERO PUSH2 0x4BF6 JUMPI PUSH1 0x0 DUP1 REVERT JUMPDEST PUSH2 0x4C02 DUP10 DUP4 DUP11 ADD PUSH2 0x4A87 JUMP JUMPDEST SWAP4 POP PUSH1 0x80 DUP9 ADD CALLDATALOAD SWAP2 POP DUP1 DUP3 GT ISZERO PUSH2 0x4C18 JUMPI PUSH1 0x0 DUP1 REVERT JUMPDEST POP PUSH2 0x4C25 DUP9 DUP3 DUP10 ADD PUSH2 0x4B65 JUMP JUMPDEST SWAP2 POP POP SWAP3 SWAP6 POP SWAP3 SWAP6 SWAP1 SWAP4 POP JUMP JUMPDEST PUSH1 0x0 DUP1 PUSH1 0x20 DUP4 DUP6 SUB SLT ISZERO PUSH2 0x4C45 JUMPI PUSH1 0x0 DUP1 REVERT JUMPDEST DUP3 CALLDATALOAD PUSH1 0x1 PUSH1 0x1 PUSH1 0x40 SHL SUB DUP2 GT ISZERO PUSH2 0x4C5B JUMPI PUSH1 0x0 DUP1 REVERT JUMPDEST PUSH2 0x4C67 DUP6 DUP3 DUP7 ADD PUSH2 0x489E JUMP JUMPDEST SWAP1 SWAP7 SWAP1 SWAP6 POP SWAP4 POP POP POP POP JUMP JUMPDEST PUSH1 0x0 DUP1 PUSH1 0x0 PUSH1 0x40 DUP5 DUP7 SUB SLT ISZERO PUSH2 0x4C88 JUMPI PUSH1 0x0 DUP1 REVERT JUMPDEST DUP4 CALLDATALOAD PUSH2 0x4C93 DUP2 PUSH2 0x4743 JUMP JUMPDEST SWAP3 POP PUSH1 0x20 DUP5 ADD CALLDATALOAD PUSH1 0x1 PUSH1 0x1 PUSH1 0x40 SHL SUB DUP2 GT ISZERO PUSH2 0x4911 JUMPI PUSH1 0x0 DUP1 REVERT JUMPDEST PUSH1 0x0 DUP2 MLOAD DUP1 DUP5 MSTORE PUSH1 0x20 DUP1 DUP6 ADD SWAP5 POP DUP1 DUP5 ADD PUSH1 0x0 JUMPDEST DUP4 DUP2 LT ISZERO PUSH2 0x4880 JUMPI DUP2 MLOAD PUSH1 0x1 PUSH1 0x1 PUSH1 0xA0 SHL SUB AND DUP8 MSTORE SWAP6 DUP3 ADD SWAP6 SWAP1 DUP3 ADD SWAP1 PUSH1 0x1 ADD PUSH2 0x4CC2 JUMP JUMPDEST PUSH1 0x20 DUP2 MSTORE PUSH1 0x0 PUSH2 0x1D05 PUSH1 0x20 DUP4 ADD DUP5 PUSH2 0x4CAE JUMP JUMPDEST PUSH1 0x0 DUP1 PUSH1 0x0 DUP1 PUSH1 0x40 DUP6 DUP8 SUB SLT ISZERO PUSH2 0x4D10 JUMPI PUSH1 0x0 DUP1 REVERT JUMPDEST DUP5 CALLDATALOAD PUSH1 0x1 PUSH1 0x1 PUSH1 0x40 SHL SUB DUP1 DUP3 GT ISZERO PUSH2 0x4D27 JUMPI PUSH1 0x0 DUP1 REVERT JUMPDEST PUSH2 0x4D33 DUP9 DUP4 DUP10 ADD PUSH2 0x492A JUMP JUMPDEST SWAP1 SWAP7 POP SWAP5 POP PUSH1 0x20 DUP8 ADD CALLDATALOAD SWAP2 POP DUP1 DUP3 GT ISZERO PUSH2 0x4D4C JUMPI PUSH1 0x0 DUP1 REVERT JUMPDEST POP PUSH2 0x4D59 DUP8 DUP3 DUP9 ADD PUSH2 0x492A JUMP JUMPDEST SWAP6 SWAP9 SWAP5 SWAP8 POP SWAP6 POP POP POP POP JUMP JUMPDEST PUSH1 0x0 DUP1 PUSH1 0x0 PUSH1 0x60 DUP5 DUP7 SUB SLT ISZERO PUSH2 0x4D7A JUMPI PUSH1 0x0 DUP1 REVERT JUMPDEST DUP4 CALLDATALOAD PUSH2 0x4D85 DUP2 PUSH2 0x4743 JUMP JUMPDEST SWAP3 POP PUSH1 0x20 DUP5 ADD CALLDATALOAD PUSH1 0x1 PUSH1 0x1 PUSH1 0x40 SHL SUB DUP1 DUP3 GT ISZERO PUSH2 0x4DA1 JUMPI PUSH1 0x0 DUP1 REVERT JUMPDEST PUSH2 0x4DAD DUP8 DUP4 DUP9 ADD PUSH2 0x4A87 JUMP JUMPDEST SWAP4 POP PUSH1 0x40 DUP7 ADD CALLDATALOAD SWAP2 POP DUP1 DUP3 GT ISZERO PUSH2 0x4DC3 JUMPI PUSH1 0x0 DUP1 REVERT JUMPDEST POP PUSH2 0x4DD0 DUP7 DUP3 DUP8 ADD PUSH2 0x4A87 JUMP JUMPDEST SWAP2 POP POP SWAP3 POP SWAP3 POP SWAP3 JUMP JUMPDEST DUP1 ISZERO ISZERO DUP2 EQ PUSH2 0x707 JUMPI PUSH1 0x0 DUP1 REVERT JUMPDEST PUSH1 0x0 DUP1 PUSH1 0x0 DUP1 PUSH1 0x60 DUP6 DUP8 SUB SLT ISZERO PUSH2 0x4DFE JUMPI PUSH1 0x0 DUP1 REVERT JUMPDEST DUP5 CALLDATALOAD PUSH2 0x4E09 DUP2 PUSH2 0x4743 JUMP JUMPDEST SWAP4 POP PUSH1 0x20 DUP6 ADD CALLDATALOAD PUSH1 0x1 PUSH1 0x1 PUSH1 0x40 SHL SUB DUP2 GT ISZERO PUSH2 0x4E24 JUMPI PUSH1 0x0 DUP1 REVERT JUMPDEST PUSH2 0x4E30 DUP8 DUP3 DUP9 ADD PUSH2 0x489E JUMP JUMPDEST SWAP1 SWAP5 POP SWAP3 POP POP PUSH1 0x40 DUP6 ADD CALLDATALOAD PUSH2 0x4E44 DUP2 PUSH2 0x4DDA JUMP JUMPDEST SWAP4 SWAP7 SWAP3 SWAP6 POP SWAP1 SWAP4 POP POP JUMP JUMPDEST PUSH1 0x0 DUP1 PUSH1 0x40 DUP4 DUP6 SUB SLT ISZERO PUSH2 0x4E62 JUMPI PUSH1 0x0 DUP1 REVERT JUMPDEST DUP3 CALLDATALOAD PUSH1 0x1 PUSH1 0x1 PUSH1 0x40 SHL SUB DUP1 DUP3 GT ISZERO PUSH2 0x4E79 JUMPI PUSH1 0x0 DUP1 REVERT JUMPDEST DUP2 DUP6 ADD SWAP2 POP DUP6 PUSH1 0x1F DUP4 ADD SLT PUSH2 0x4E8D JUMPI PUSH1 0x0 DUP1 REVERT JUMPDEST DUP2 CALLDATALOAD PUSH1 0x20 PUSH2 0x4E9A DUP3 PUSH2 0x4A64 JUMP JUMPDEST PUSH1 0x40 MLOAD PUSH2 0x4EA7 DUP3 DUP3 PUSH2 0x4A38 JUMP JUMPDEST DUP4 DUP2 MSTORE PUSH1 0x5 SWAP4 SWAP1 SWAP4 SHL DUP6 ADD DUP3 ADD SWAP3 DUP3 DUP2 ADD SWAP2 POP DUP10 DUP5 GT ISZERO PUSH2 0x4EC7 JUMPI PUSH1 0x0 DUP1 REVERT JUMPDEST SWAP5 DUP3 ADD SWAP5 JUMPDEST DUP4 DUP7 LT ISZERO PUSH2 0x4EEE JUMPI DUP6 CALLDATALOAD PUSH2 0x4EDF DUP2 PUSH2 0x4743 JUMP JUMPDEST DUP3 MSTORE SWAP5 DUP3 ADD SWAP5 SWAP1 DUP3 ADD SWAP1 PUSH2 0x4ECC JUMP JUMPDEST SWAP7 POP POP DUP7 ADD CALLDATALOAD SWAP3 POP POP DUP1 DUP3 GT ISZERO PUSH2 0x4F04 JUMPI PUSH1 0x0 DUP1 REVERT JUMPDEST POP PUSH2 0x4F11 DUP6 DUP3 DUP7 ADD PUSH2 0x4A87 JUMP JUMPDEST SWAP2 POP POP SWAP3 POP SWAP3 SWAP1 POP JUMP JUMPDEST PUSH1 0x0 DUP1 PUSH1 0x0 PUSH1 0x40 DUP5 DUP7 SUB SLT ISZERO PUSH2 0x4F30 JUMPI PUSH1 0x0 DUP1 REVERT JUMPDEST DUP4 CALLDATALOAD PUSH1 0x1 PUSH1 0x1 PUSH1 0x40 SHL SUB DUP1 DUP3 GT ISZERO PUSH2 0x4F47 JUMPI PUSH1 0x0 DUP1 REVERT JUMPDEST PUSH2 0x4F53 DUP8 DUP4 DUP9 ADD PUSH2 0x4A87 JUMP JUMPDEST SWAP5 POP PUSH1 0x20 DUP7 ADD CALLDATALOAD SWAP2 POP DUP1 DUP3 GT ISZERO PUSH2 0x4F69 JUMPI PUSH1 0x0 DUP1 REVERT JUMPDEST POP PUSH2 0x491D DUP7 DUP3 DUP8 ADD PUSH2 0x492A JUMP JUMPDEST PUSH1 0x0 DUP1 PUSH1 0x0 DUP1 PUSH1 0x0 DUP1 PUSH1 0x60 DUP8 DUP10 SUB SLT ISZERO PUSH2 0x4F8F JUMPI PUSH1 0x0 DUP1 REVERT JUMPDEST DUP7 CALLDATALOAD PUSH1 0x1 PUSH1 0x1 PUSH1 0x40 SHL SUB DUP1 DUP3 GT ISZERO PUSH2 0x4FA6 JUMPI PUSH1 0x0 DUP1 REVERT JUMPDEST PUSH2 0x4FB2 DUP11 DUP4 DUP12 ADD PUSH2 0x492A JUMP JUMPDEST SWAP1 SWAP9 POP SWAP7 POP PUSH1 0x20 DUP10 ADD CALLDATALOAD SWAP2 POP DUP1 DUP3 GT ISZERO PUSH2 0x4FCB JUMPI PUSH1 0x0 DUP1 REVERT JUMPDEST PUSH2 0x4FD7 DUP11 DUP4 DUP12 ADD PUSH2 0x492A JUMP JUMPDEST SWAP1 SWAP7 POP SWAP5 POP PUSH1 0x40 DUP10 ADD CALLDATALOAD SWAP2 POP DUP1 DUP3 GT ISZERO PUSH2 0x4FF0 JUMPI PUSH1 0x0 DUP1 REVERT JUMPDEST POP PUSH2 0x4FFD DUP10 DUP3 DUP11 ADD PUSH2 0x492A JUMP JUMPDEST SWAP8 SWAP11 SWAP7 SWAP10 POP SWAP5 SWAP8 POP SWAP3 SWAP6 SWAP4 SWAP5 SWAP3 POP POP POP JUMP JUMPDEST PUSH1 0x0 DUP1 PUSH1 0x0 PUSH1 0x40 DUP5 DUP7 SUB SLT ISZERO PUSH2 0x5024 JUMPI PUSH1 0x0 DUP1 REVERT JUMPDEST DUP4 CALLDATALOAD PUSH1 0x1 PUSH1 0x1 PUSH1 0x40 SHL SUB DUP2 GT ISZERO PUSH2 0x503A JUMPI PUSH1 0x0 DUP1 REVERT JUMPDEST PUSH2 0x5046 DUP7 DUP3 DUP8 ADD PUSH2 0x489E JUMP JUMPDEST SWAP1 SWAP5 POP SWAP3 POP POP PUSH1 0x20 DUP5 ADD CALLDATALOAD PUSH2 0x505A DUP2 PUSH2 0x4DDA JUMP JUMPDEST DUP1 SWAP2 POP POP SWAP3 POP SWAP3 POP SWAP3 JUMP JUMPDEST PUSH1 0x0 DUP1 PUSH1 0x40 DUP4 DUP6 SUB SLT ISZERO PUSH2 0x5078 JUMPI PUSH1 0x0 DUP1 REVERT JUMPDEST DUP3 CALLDATALOAD PUSH2 0x5083 DUP2 PUSH2 0x4743 JUMP JUMPDEST SWAP2 POP PUSH1 0x20 DUP4 ADD CALLDATALOAD PUSH2 0x5093 DUP2 PUSH2 0x4DDA JUMP JUMPDEST DUP1 SWAP2 POP POP SWAP3 POP SWAP3 SWAP1 POP JUMP JUMPDEST PUSH1 0x0 PUSH1 0x20 DUP3 DUP5 SUB SLT ISZERO PUSH2 0x50B0 JUMPI PUSH1 0x0 DUP1 REVERT JUMPDEST DUP2 CALLDATALOAD PUSH2 0x1D05 DUP2 PUSH2 0x4DDA JUMP JUMPDEST PUSH1 0x0 DUP1 PUSH1 0x0 DUP1 PUSH1 0x0 PUSH1 0x60 DUP7 DUP9 SUB SLT ISZERO PUSH2 0x50D3 JUMPI PUSH1 0x0 DUP1 REVERT JUMPDEST DUP6 CALLDATALOAD PUSH2 0x50DE DUP2 PUSH2 0x4743 JUMP JUMPDEST SWAP5 POP PUSH1 0x20 DUP7 ADD CALLDATALOAD PUSH1 0x1 PUSH1 0x1 PUSH1 0x40 SHL SUB DUP1 DUP3 GT ISZERO PUSH2 0x49A4 JUMPI PUSH1 0x0 DUP1 REVERT JUMPDEST PUSH1 0x40 DUP2 MSTORE PUSH1 0x0 PUSH2 0x510D PUSH1 0x40 DUP4 ADD DUP6 PUSH2 0x4CAE JUMP JUMPDEST DUP3 DUP2 SUB PUSH1 0x20 DUP5 ADD MSTORE PUSH2 0x511F DUP2 DUP6 PUSH2 0x4850 JUMP JUMPDEST SWAP6 SWAP5 POP POP POP POP POP JUMP JUMPDEST PUSH1 0x0 DUP1 PUSH1 0x40 DUP4 DUP6 SUB SLT ISZERO PUSH2 0x513B JUMPI PUSH1 0x0 DUP1 REVERT JUMPDEST DUP3 CALLDATALOAD PUSH2 0x5146 DUP2 PUSH2 0x4743 JUMP JUMPDEST SWAP2 POP PUSH1 0x20 DUP4 ADD CALLDATALOAD PUSH2 0x5093 DUP2 PUSH2 0x4743 JUMP JUMPDEST PUSH1 0x0 DUP1 PUSH1 0x0 DUP1 PUSH1 0x0 PUSH1 0xA0 DUP7 DUP9 SUB SLT ISZERO PUSH2 0x516E JUMPI PUSH1 0x0 DUP1 REVERT JUMPDEST DUP6 CALLDATALOAD PUSH2 0x5179 DUP2 PUSH2 0x4743 JUMP JUMPDEST SWAP5 POP PUSH1 0x20 DUP7 ADD CALLDATALOAD PUSH2 0x5189 DUP2 PUSH2 0x4743 JUMP JUMPDEST SWAP4 POP PUSH1 0x40 DUP7 ADD CALLDATALOAD SWAP3 POP PUSH1 0x60 DUP7 ADD CALLDATALOAD SWAP2 POP PUSH1 0x80 DUP7 ADD CALLDATALOAD PUSH1 0x1 PUSH1 0x1 PUSH1 0x40 SHL SUB DUP2 GT ISZERO PUSH2 0x51B2 JUMPI PUSH1 0x0 DUP1 REVERT JUMPDEST PUSH2 0x4C25 DUP9 DUP3 DUP10 ADD PUSH2 0x4B65 JUMP JUMPDEST PUSH1 0x20 DUP1 DUP3 MSTORE PUSH1 0x24 SWAP1 DUP3 ADD MSTORE PUSH32 0x41646D696E436F6E74726F6C3A204D757374206265206F776E6572206F722061 PUSH1 0x40 DUP3 ADD MSTORE PUSH4 0x3236B4B7 PUSH1 0xE1 SHL PUSH1 0x60 DUP3 ADD MSTORE PUSH1 0x80 ADD SWAP1 JUMP JUMPDEST PUSH1 0x20 DUP1 DUP3 MSTORE DUP2 DUP2 ADD MSTORE PUSH32 0x4F776E61626C653A2063616C6C6572206973206E6F7420746865206F776E6572 PUSH1 0x40 DUP3 ADD MSTORE PUSH1 0x60 ADD SWAP1 JUMP JUMPDEST PUSH1 0x20 DUP1 DUP3 MSTORE PUSH1 0x15 SWAP1 DUP3 ADD MSTORE PUSH21 0x115E1D195B9CDA5BDB88189B1858DADB1A5CDD1959 PUSH1 0x5A SHL PUSH1 0x40 DUP3 ADD MSTORE PUSH1 0x60 ADD SWAP1 JUMP JUMPDEST PUSH4 0x4E487B71 PUSH1 0xE0 SHL PUSH1 0x0 MSTORE PUSH1 0x32 PUSH1 0x4 MSTORE PUSH1 0x24 PUSH1 0x0 REVERT JUMPDEST PUSH4 0x4E487B71 PUSH1 0xE0 SHL PUSH1 0x0 MSTORE PUSH1 0x11 PUSH1 0x4 MSTORE PUSH1 0x24 PUSH1 0x0 REVERT JUMPDEST PUSH1 0x0 PUSH1 0x1 DUP3 ADD PUSH2 0x52A4 JUMPI PUSH2 0x52A4 PUSH2 0x527C JUMP JUMPDEST POP PUSH1 0x1 ADD SWAP1 JUMP JUMPDEST PUSH1 0x20 DUP1 DUP3 MSTORE PUSH1 0x1F SWAP1 DUP3 ADD MSTORE PUSH32 0x5265656E7472616E637947756172643A207265656E7472616E742063616C6C00 PUSH1 0x40 DUP3 ADD MSTORE PUSH1 0x60 ADD SWAP1 JUMP JUMPDEST PUSH1 0x20 DUP1 DUP3 MSTORE PUSH1 0xD SWAP1 DUP3 ADD MSTORE PUSH13 0x125B9D985B1A59081A5B9C1D5D PUSH1 0x9A SHL PUSH1 0x40 DUP3 ADD MSTORE PUSH1 0x60 ADD SWAP1 JUMP JUMPDEST PUSH1 0x20 DUP1 DUP3 MSTORE PUSH1 0x1C SWAP1 DUP3 ADD MSTORE PUSH28 0x26BAB9BA103132903932B3B4B9BA32B932B21032BC3A32B739B4B7B7 PUSH1 0x21 SHL PUSH1 0x40 DUP3 ADD MSTORE PUSH1 0x60 ADD SWAP1 JUMP JUMPDEST PUSH1 0x0 DUP1 DUP4 CALLDATALOAD PUSH1 0x1E NOT DUP5 CALLDATASIZE SUB ADD DUP2 SLT PUSH2 0x5356 JUMPI PUSH1 0x0 DUP1 REVERT JUMPDEST DUP4 ADD DUP1 CALLDATALOAD SWAP2 POP PUSH1 0x1 PUSH1 0x1 PUSH1 0x40 SHL SUB DUP3 GT ISZERO PUSH2 0x5370 JUMPI PUSH1 0x0 DUP1 REVERT JUMPDEST PUSH1 0x20 ADD SWAP2 POP CALLDATASIZE DUP2 SWAP1 SUB DUP3 SGT ISZERO PUSH2 0x866 JUMPI PUSH1 0x0 DUP1 REVERT JUMPDEST PUSH1 0x20 DUP1 DUP3 MSTORE PUSH1 0x2E SWAP1 DUP3 ADD MSTORE PUSH32 0x496E697469616C697A61626C653A20636F6E747261637420697320616C726561 PUSH1 0x40 DUP3 ADD MSTORE PUSH14 0x191E481A5B9A5D1A585B1A5E9959 PUSH1 0x92 SHL PUSH1 0x60 DUP3 ADD MSTORE PUSH1 0x80 ADD SWAP1 JUMP JUMPDEST PUSH1 0x0 PUSH2 0x53DE DUP4 PUSH2 0x4A64 JUMP JUMPDEST PUSH1 0x40 MLOAD PUSH2 0x53EB DUP3 DUP3 PUSH2 0x4A38 JUMP JUMPDEST DUP5 DUP2 MSTORE PUSH1 0x20 DUP1 DUP3 ADD SWAP3 POP PUSH1 0x5 DUP7 SWAP1 SHL DUP6 ADD CALLDATASIZE DUP2 GT ISZERO PUSH2 0x5409 JUMPI PUSH1 0x0 DUP1 REVERT JUMPDEST DUP6 JUMPDEST DUP2 DUP2 LT ISZERO PUSH2 0x5458 JUMPI DUP1 CALLDATALOAD PUSH1 0x1 PUSH1 0x1 PUSH1 0x40 SHL SUB DUP2 GT ISZERO PUSH2 0x542A JUMPI PUSH1 0x0 DUP1 DUP2 REVERT JUMPDEST DUP8 ADD CALLDATASIZE PUSH1 0x1F DUP3 ADD SLT PUSH2 0x543C JUMPI PUSH1 0x0 DUP1 DUP2 REVERT JUMPDEST PUSH2 0x544A CALLDATASIZE DUP3 CALLDATALOAD DUP7 DUP5 ADD PUSH2 0x4B1F JUMP JUMPDEST DUP7 MSTORE POP SWAP4 DUP3 ADD SWAP4 DUP3 ADD PUSH2 0x540B JUMP JUMPDEST POP SWAP2 SWAP7 SWAP6 POP POP POP POP POP POP JUMP JUMPDEST PUSH1 0x1 DUP2 DUP2 SHR SWAP1 DUP3 AND DUP1 PUSH2 0x5478 JUMPI PUSH1 0x7F DUP3 AND SWAP2 POP JUMPDEST PUSH1 0x20 DUP3 LT DUP2 SUB PUSH2 0x2077 JUMPI PUSH4 0x4E487B71 PUSH1 0xE0 SHL PUSH1 0x0 MSTORE PUSH1 0x22 PUSH1 0x4 MSTORE PUSH1 0x24 PUSH1 0x0 REVERT JUMPDEST PUSH1 0x0 DUP2 SLOAD PUSH2 0x54A5 DUP2 PUSH2 0x5464 JUMP JUMPDEST PUSH1 0x1 DUP3 DUP2 AND DUP1 ISZERO PUSH2 0x54BD JUMPI PUSH1 0x1 DUP2 EQ PUSH2 0x54D2 JUMPI PUSH2 0x5501 JUMP JUMPDEST PUSH1 0xFF NOT DUP5 AND DUP8 MSTORE DUP3 ISZERO ISZERO DUP4 MUL DUP8 ADD SWAP5 POP PUSH2 0x5501 JUMP JUMPDEST DUP6 PUSH1 0x0 MSTORE PUSH1 0x20 DUP1 PUSH1 0x0 KECCAK256 PUSH1 0x0 JUMPDEST DUP6 DUP2 LT ISZERO PUSH2 0x54F8 JUMPI DUP2 SLOAD DUP11 DUP3 ADD MSTORE SWAP1 DUP5 ADD SWAP1 DUP3 ADD PUSH2 0x54DF JUMP JUMPDEST POP POP POP DUP3 DUP8 ADD SWAP5 POP JUMPDEST POP POP POP POP SWAP3 SWAP2 POP POP JUMP JUMPDEST PUSH1 0x0 PUSH2 0x38E3 PUSH2 0x551A DUP4 DUP7 PUSH2 0x5498 JUMP JUMPDEST DUP5 PUSH2 0x5498 JUMP JUMPDEST PUSH1 0x0 PUSH1 0x20 DUP3 DUP5 SUB SLT ISZERO PUSH2 0x5532 JUMPI PUSH1 0x0 DUP1 REVERT JUMPDEST DUP2 MLOAD PUSH1 0x1 PUSH1 0x1 PUSH1 0x40 SHL SUB DUP2 GT ISZERO PUSH2 0x5548 JUMPI PUSH1 0x0 DUP1 REVERT JUMPDEST DUP3 ADD PUSH1 0x1F DUP2 ADD DUP5 SGT PUSH2 0x5559 JUMPI PUSH1 0x0 DUP1 REVERT JUMPDEST DUP1 MLOAD PUSH2 0x5564 DUP2 PUSH2 0x4AF8 JUMP JUMPDEST PUSH1 0x40 MLOAD PUSH2 0x5571 DUP3 DUP3 PUSH2 0x4A38 JUMP JUMPDEST DUP3 DUP2 MSTORE DUP7 PUSH1 0x20 DUP5 DUP7 ADD ADD GT ISZERO PUSH2 0x5586 JUMPI PUSH1 0x0 DUP1 REVERT JUMPDEST PUSH2 0x41B3 DUP4 PUSH1 0x20 DUP4 ADD PUSH1 0x20 DUP8 ADD PUSH2 0x47ED JUMP JUMPDEST PUSH1 0x0 PUSH2 0x55A3 DUP3 DUP6 PUSH2 0x5498 JUMP JUMPDEST DUP4 MLOAD PUSH2 0x55B3 DUP2 DUP4 PUSH1 0x20 DUP9 ADD PUSH2 0x47ED JUMP JUMPDEST ADD SWAP5 SWAP4 POP POP POP POP JUMP JUMPDEST PUSH1 0x20 DUP1 DUP3 MSTORE PUSH1 0xD SWAP1 DUP3 ADD MSTORE PUSH13 0x24B73B30B634B2103A37B5B2B7 PUSH1 0x99 SHL PUSH1 0x40 DUP3 ADD MSTORE PUSH1 0x60 ADD SWAP1 JUMP JUMPDEST PUSH1 0x1F DUP3 GT ISZERO PUSH2 0x7C1 JUMPI PUSH1 0x0 DUP2 DUP2 MSTORE PUSH1 0x20 DUP2 KECCAK256 PUSH1 0x1F DUP6 ADD PUSH1 0x5 SHR DUP2 ADD PUSH1 0x20 DUP7 LT ISZERO PUSH2 0x560A JUMPI POP DUP1 JUMPDEST PUSH1 0x1F DUP6 ADD PUSH1 0x5 SHR DUP3 ADD SWAP2 POP JUMPDEST DUP2 DUP2 LT ISZERO PUSH2 0x2576 JUMPI DUP3 DUP2 SSTORE PUSH1 0x1 ADD PUSH2 0x5616 JUMP JUMPDEST PUSH1 0x0 NOT PUSH1 0x3 DUP4 SWAP1 SHL SHR NOT AND PUSH1 0x1 SWAP2 SWAP1 SWAP2 SHL OR SWAP1 JUMP JUMPDEST PUSH1 0x1 PUSH1 0x1 PUSH1 0x40 SHL SUB DUP4 GT ISZERO PUSH2 0x5655 JUMPI PUSH2 0x5655 PUSH2 0x4A22 JUMP JUMPDEST PUSH2 0x5669 DUP4 PUSH2 0x5663 DUP4 SLOAD PUSH2 0x5464 JUMP JUMPDEST DUP4 PUSH2 0x55E3 JUMP JUMPDEST PUSH1 0x0 PUSH1 0x1F DUP5 GT PUSH1 0x1 DUP2 EQ PUSH2 0x5697 JUMPI PUSH1 0x0 DUP6 ISZERO PUSH2 0x5685 JUMPI POP DUP4 DUP3 ADD CALLDATALOAD JUMPDEST PUSH2 0x568F DUP7 DUP3 PUSH2 0x5629 JUMP JUMPDEST DUP5 SSTORE POP PUSH2 0x813 JUMP JUMPDEST PUSH1 0x0 DUP4 DUP2 MSTORE PUSH1 0x20 SWAP1 KECCAK256 PUSH1 0x1F NOT DUP7 AND SWAP1 DUP4 JUMPDEST DUP3 DUP2 LT ISZERO PUSH2 0x56C8 JUMPI DUP7 DUP6 ADD CALLDATALOAD DUP3 SSTORE PUSH1 0x20 SWAP5 DUP6 ADD SWAP5 PUSH1 0x1 SWAP1 SWAP3 ADD SWAP2 ADD PUSH2 0x56A8 JUMP JUMPDEST POP DUP7 DUP3 LT ISZERO PUSH2 0x56E5 JUMPI PUSH1 0x0 NOT PUSH1 0xF8 DUP9 PUSH1 0x3 SHL AND SHR NOT DUP5 DUP8 ADD CALLDATALOAD AND DUP2 SSTORE JUMPDEST POP POP PUSH1 0x1 DUP6 PUSH1 0x1 SHL ADD DUP4 SSTORE POP POP POP POP POP JUMP JUMPDEST DUP1 DUP3 ADD DUP1 DUP3 GT ISZERO PUSH2 0x68F JUMPI PUSH2 0x68F PUSH2 0x527C JUMP JUMPDEST PUSH1 0x20 DUP1 DUP3 MSTORE PUSH1 0x17 SWAP1 DUP3 ADD MSTORE PUSH23 0x496E76616C696420746F74616C20726F79616C74696573 PUSH1 0x48 SHL PUSH1 0x40 DUP3 ADD MSTORE PUSH1 0x60 ADD SWAP1 JUMP JUMPDEST PUSH1 0x40 DUP1 DUP3 MSTORE DUP2 ADD DUP5 SWAP1 MSTORE PUSH1 0x0 DUP6 PUSH1 0x60 DUP4 ADD DUP3 JUMPDEST DUP8 DUP2 LT ISZERO PUSH2 0x577E JUMPI DUP3 CALLDATALOAD PUSH2 0x5761 DUP2 PUSH2 0x4743 JUMP JUMPDEST PUSH1 0x1 PUSH1 0x1 PUSH1 0xA0 SHL SUB AND DUP3 MSTORE PUSH1 0x20 SWAP3 DUP4 ADD SWAP3 SWAP1 SWAP2 ADD SWAP1 PUSH1 0x1 ADD PUSH2 0x574E JUMP JUMPDEST POP DUP4 DUP2 SUB PUSH1 0x20 DUP6 ADD MSTORE DUP5 DUP2 MSTORE PUSH1 0x1 PUSH1 0x1 PUSH1 0xFB SHL SUB DUP6 GT ISZERO PUSH2 0x579E JUMPI PUSH1 0x0 DUP1 REVERT JUMPDEST DUP5 PUSH1 0x5 SHL SWAP2 POP DUP2 DUP7 PUSH1 0x20 DUP4 ADD CALLDATACOPY ADD PUSH1 0x20 ADD SWAP7 SWAP6 POP POP POP POP POP POP JUMP JUMPDEST DUP1 DUP3 MUL DUP2 ISZERO DUP3 DUP3 DIV DUP5 EQ OR PUSH2 0x68F JUMPI PUSH2 0x68F PUSH2 0x527C JUMP JUMPDEST PUSH4 0x4E487B71 PUSH1 0xE0 SHL PUSH1 0x0 MSTORE PUSH1 0x12 PUSH1 0x4 MSTORE PUSH1 0x24 PUSH1 0x0 REVERT JUMPDEST PUSH1 0x0 DUP3 PUSH2 0x57F5 JUMPI PUSH2 0x57F5 PUSH2 0x57D0 JUMP JUMPDEST POP DIV SWAP1 JUMP JUMPDEST PUSH1 0x20 DUP1 DUP3 MSTORE PUSH1 0x28 SWAP1 DUP3 ADD MSTORE PUSH32 0x455243313135353A2069647320616E6420616D6F756E7473206C656E67746820 PUSH1 0x40 DUP3 ADD MSTORE PUSH8 0xDAD2E6DAC2E8C6D PUSH1 0xC3 SHL PUSH1 0x60 DUP3 ADD MSTORE PUSH1 0x80 ADD SWAP1 JUMP JUMPDEST PUSH1 0x20 DUP1 DUP3 MSTORE PUSH1 0x25 SWAP1 DUP3 ADD MSTORE PUSH32 0x455243313135353A207472616E7366657220746F20746865207A65726F206164 PUSH1 0x40 DUP3 ADD MSTORE PUSH5 0x6472657373 PUSH1 0xD8 SHL PUSH1 0x60 DUP3 ADD MSTORE PUSH1 0x80 ADD SWAP1 JUMP JUMPDEST PUSH1 0x20 DUP1 DUP3 MSTORE PUSH1 0x2A SWAP1 DUP3 ADD MSTORE PUSH32 0x455243313135353A20696E73756666696369656E742062616C616E636520666F PUSH1 0x40 DUP3 ADD MSTORE PUSH10 0x39103A3930B739B332B9 PUSH1 0xB1 SHL PUSH1 0x60 DUP3 ADD MSTORE PUSH1 0x80 ADD SWAP1 JUMP JUMPDEST PUSH1 0x40 DUP2 MSTORE PUSH1 0x0 PUSH2 0x510D PUSH1 0x40 DUP4 ADD DUP6 PUSH2 0x4850 JUMP JUMPDEST DUP2 MLOAD PUSH1 0x1 PUSH1 0x1 PUSH1 0x40 SHL SUB DUP2 GT ISZERO PUSH2 0x58FD JUMPI PUSH2 0x58FD PUSH2 0x4A22 JUMP JUMPDEST PUSH2 0x5911 DUP2 PUSH2 0x590B DUP5 SLOAD PUSH2 0x5464 JUMP JUMPDEST DUP5 PUSH2 0x55E3 JUMP JUMPDEST PUSH1 0x20 DUP1 PUSH1 0x1F DUP4 GT PUSH1 0x1 DUP2 EQ PUSH2 0x5940 JUMPI PUSH1 0x0 DUP5 ISZERO PUSH2 0x592E JUMPI POP DUP6 DUP4 ADD MLOAD JUMPDEST PUSH2 0x5938 DUP6 DUP3 PUSH2 0x5629 JUMP JUMPDEST DUP7 SSTORE POP PUSH2 0x2576 JUMP JUMPDEST PUSH1 0x0 DUP6 DUP2 MSTORE PUSH1 0x20 DUP2 KECCAK256 PUSH1 0x1F NOT DUP7 AND SWAP2 JUMPDEST DUP3 DUP2 LT ISZERO PUSH2 0x596F JUMPI DUP9 DUP7 ADD MLOAD DUP3 SSTORE SWAP5 DUP5 ADD SWAP5 PUSH1 0x1 SWAP1 SWAP2 ADD SWAP1 DUP5 ADD PUSH2 0x5950 JUMP JUMPDEST POP DUP6 DUP3 LT ISZERO PUSH2 0x598D JUMPI DUP8 DUP6 ADD MLOAD PUSH1 0x0 NOT PUSH1 0x3 DUP9 SWAP1 SHL PUSH1 0xF8 AND SHR NOT AND DUP2 SSTORE JUMPDEST POP POP POP POP POP PUSH1 0x1 SWAP1 DUP2 SHL ADD SWAP1 SSTORE POP JUMP JUMPDEST DUP2 DUP2 SUB DUP2 DUP2 GT ISZERO PUSH2 0x68F JUMPI PUSH2 0x68F PUSH2 0x527C JUMP JUMPDEST PUSH1 0x20 DUP1 DUP3 MSTORE PUSH1 0x1C SWAP1 DUP3 ADD MSTORE PUSH28 0x4D69736D61746368656420746F6B656E206F726967696E61746F7273 PUSH1 0x20 SHL PUSH1 0x40 DUP3 ADD MSTORE PUSH1 0x60 ADD SWAP1 JUMP JUMPDEST PUSH1 0x1 PUSH1 0x1 PUSH1 0xA0 SHL SUB DUP5 AND DUP2 MSTORE PUSH1 0x60 PUSH1 0x20 DUP3 ADD DUP2 SWAP1 MSTORE PUSH1 0x0 SWAP1 PUSH2 0x5A0A SWAP1 DUP4 ADD DUP6 PUSH2 0x4850 JUMP JUMPDEST DUP3 DUP2 SUB PUSH1 0x40 DUP5 ADD MSTORE PUSH2 0x41B3 DUP2 DUP6 PUSH2 0x4850 JUMP JUMPDEST PUSH1 0x0 DUP3 PUSH2 0x5A2B JUMPI PUSH2 0x5A2B PUSH2 0x57D0 JUMP JUMPDEST POP MOD SWAP1 JUMP JUMPDEST PUSH4 0x4E487B71 PUSH1 0xE0 SHL PUSH1 0x0 MSTORE PUSH1 0x31 PUSH1 0x4 MSTORE PUSH1 0x24 PUSH1 0x0 REVERT JUMPDEST PUSH1 0x1 PUSH1 0x1 PUSH1 0xA0 SHL SUB DUP7 DUP2 AND DUP3 MSTORE DUP6 AND PUSH1 0x20 DUP3 ADD MSTORE PUSH1 0xA0 PUSH1 0x40 DUP3 ADD DUP2 SWAP1 MSTORE PUSH1 0x0 SWAP1 PUSH2 0x5A72 SWAP1 DUP4 ADD DUP7 PUSH2 0x4850 JUMP JUMPDEST DUP3 DUP2 SUB PUSH1 0x60 DUP5 ADD MSTORE PUSH2 0x5A84 DUP2 DUP7 PUSH2 0x4850 JUMP JUMPDEST SWAP1 POP DUP3 DUP2 SUB PUSH1 0x80 DUP5 ADD MSTORE PUSH2 0x5A98 DUP2 DUP6 PUSH2 0x4811 JUMP JUMPDEST SWAP9 SWAP8 POP POP POP POP POP POP POP POP JUMP JUMPDEST PUSH1 0x0 PUSH1 0x20 DUP3 DUP5 SUB SLT ISZERO PUSH2 0x5AB6 JUMPI PUSH1 0x0 DUP1 REVERT JUMPDEST DUP2 MLOAD PUSH2 0x1D05 DUP2 PUSH2 0x4784 JUMP JUMPDEST PUSH1 0x0 PUSH1 0x3 RETURNDATASIZE GT ISZERO PUSH2 0x5ADA JUMPI PUSH1 0x4 PUSH1 0x0 DUP1 RETURNDATACOPY POP PUSH1 0x0 MLOAD PUSH1 0xE0 SHR JUMPDEST SWAP1 JUMP JUMPDEST PUSH1 0x0 PUSH1 0x44 RETURNDATASIZE LT ISZERO PUSH2 0x5AEB JUMPI SWAP1 JUMP JUMPDEST PUSH1 0x40 MLOAD PUSH1 0x3 NOT RETURNDATASIZE DUP2 ADD PUSH1 0x4 DUP4 RETURNDATACOPY DUP2 MLOAD RETURNDATASIZE PUSH1 0x1 PUSH1 0x1 PUSH1 0x40 SHL SUB DUP2 PUSH1 0x24 DUP5 ADD GT DUP2 DUP5 GT OR ISZERO PUSH2 0x5B1A JUMPI POP POP POP POP POP SWAP1 JUMP JUMPDEST DUP3 DUP6 ADD SWAP2 POP DUP2 MLOAD DUP2 DUP2 GT ISZERO PUSH2 0x5B32 JUMPI POP POP POP POP POP POP SWAP1 JUMP JUMPDEST DUP5 RETURNDATASIZE DUP8 ADD ADD PUSH1 0x20 DUP3 DUP6 ADD ADD GT ISZERO PUSH2 0x5B4C JUMPI POP POP POP POP POP POP SWAP1 JUMP JUMPDEST PUSH2 0x5B5B PUSH1 0x20 DUP3 DUP7 ADD ADD DUP8 PUSH2 0x4A38 JUMP JUMPDEST POP SWAP1 SWAP6 SWAP5 POP POP POP POP POP JUMP JUMPDEST PUSH1 0x20 DUP1 DUP3 MSTORE PUSH1 0x28 SWAP1 DUP3 ADD MSTORE PUSH32 0x455243313135353A204552433131353552656365697665722072656A65637465 PUSH1 0x40 DUP3 ADD MSTORE PUSH8 0x6420746F6B656E73 PUSH1 0xC0 SHL PUSH1 0x60 DUP3 ADD MSTORE PUSH1 0x80 ADD SWAP1 JUMP JUMPDEST PUSH1 0x20 DUP1 DUP3 MSTORE PUSH1 0x23 SWAP1 DUP3 ADD MSTORE PUSH32 0x455243313135353A206275726E2066726F6D20746865207A65726F2061646472 PUSH1 0x40 DUP3 ADD MSTORE PUSH3 0x657373 PUSH1 0xE8 SHL PUSH1 0x60 DUP3 ADD MSTORE PUSH1 0x80 ADD SWAP1 JUMP JUMPDEST PUSH1 0x20 DUP1 DUP3 MSTORE PUSH1 0x24 SWAP1 DUP3 ADD MSTORE PUSH32 0x455243313135353A206275726E20616D6F756E7420657863656564732062616C PUSH1 0x40 DUP3 ADD MSTORE PUSH4 0x616E6365 PUSH1 0xE0 SHL PUSH1 0x60 DUP3 ADD MSTORE PUSH1 0x80 ADD SWAP1 JUMP JUMPDEST PUSH1 0x1 PUSH1 0x1 PUSH1 0xA0 SHL SUB DUP6 AND DUP2 MSTORE PUSH1 0x80 PUSH1 0x20 DUP3 ADD DUP2 SWAP1 MSTORE PUSH1 0x0 SWAP1 PUSH2 0x5C59 SWAP1 DUP4 ADD DUP7 PUSH2 0x4CAE JUMP JUMPDEST DUP3 DUP2 SUB PUSH1 0x40 DUP5 ADD MSTORE PUSH2 0x5C6B DUP2 DUP7 PUSH2 0x4850 JUMP JUMPDEST SWAP1 POP DUP3 DUP2 SUB PUSH1 0x60 DUP5 ADD MSTORE PUSH2 0x5C7F DUP2 DUP6 PUSH2 0x4850 JUMP JUMPDEST SWAP8 SWAP7 POP POP POP POP POP POP POP JUMP JUMPDEST PUSH1 0x0 DUP3 MLOAD PUSH2 0x5C9C DUP2 DUP5 PUSH1 0x20 DUP8 ADD PUSH2 0x47ED JUMP JUMPDEST SWAP2 SWAP1 SWAP2 ADD SWAP3 SWAP2 POP POP JUMP JUMPDEST PUSH1 0x0 PUSH1 0x20 DUP3 DUP5 SUB SLT ISZERO PUSH2 0x5CB8 JUMPI PUSH1 0x0 DUP1 REVERT JUMPDEST DUP2 MLOAD PUSH2 0x1D05 DUP2 PUSH2 0x4DDA JUMP JUMPDEST PUSH1 0x1 PUSH1 0x1 PUSH1 0xA0 SHL SUB DUP7 DUP2 AND DUP3 MSTORE DUP6 AND PUSH1 0x20 DUP3 ADD MSTORE PUSH1 0x40 DUP2 ADD DUP5 SWAP1 MSTORE PUSH1 0x60 DUP2 ADD DUP4 SWAP1 MSTORE PUSH1 0xA0 PUSH1 0x80 DUP3 ADD DUP2 SWAP1 MSTORE PUSH1 0x0 SWAP1 PUSH2 0x5C7F SWAP1 DUP4 ADD DUP5 PUSH2 0x4811 JUMP JUMPDEST PUSH1 0x1 PUSH1 0x1 PUSH1 0xA0 SHL SUB DUP6 DUP2 AND DUP3 MSTORE DUP5 AND PUSH1 0x20 DUP3 ADD MSTORE PUSH1 0x80 PUSH1 0x40 DUP3 ADD DUP2 SWAP1 MSTORE PUSH1 0x0 SWAP1 PUSH2 0x5D29 SWAP1 DUP4 ADD DUP6 PUSH2 0x4850 JUMP JUMPDEST DUP3 DUP2 SUB PUSH1 0x60 DUP5 ADD MSTORE PUSH2 0x5C7F DUP2 DUP6 PUSH2 0x4850 JUMP JUMPDEST PUSH1 0x20 DUP1 DUP3 MSTORE PUSH1 0x21 SWAP1 DUP3 ADD MSTORE PUSH32 0x455243313135353A206D696E7420746F20746865207A65726F20616464726573 PUSH1 0x40 DUP3 ADD MSTORE PUSH1 0x73 PUSH1 0xF8 SHL PUSH1 0x60 DUP3 ADD MSTORE PUSH1 0x80 ADD SWAP1 JUMP INVALID 0x4A CODECOPY 0xDC MOD 0xD4 0xC0 0xDB 0xC6 0x4B PUSH17 0xAF90FD698A233A518AA5D07E595D983B8C SDIV 0x26 0xC8 0xF7 0xFB 0xC3 0xD5 DUP2 PUSH9 0xC5AE7397731D063D5B 0xBF RETURNDATASIZE PUSH6 0x7854427343F4 0xC0 DUP4 0x24 0xF PUSH27 0xACAA2D0F62A26469706673582212208E8C8B6B3C940D23FE24F0A0 0x2F 0xC8 0x27 PUSH32 0xE2EA531A976EC08E693A1985825CC1B964736F6C634300081100330000000000 "
		},
		"gasEstimates": {
			"creation": {
				"codeDepositCost": "4810000",
				"executionCost": "32779",
				"totalCost": "4842779"
			},
			"external": {
				"approveAdmin(address)": "infinite",
				"balanceOf(address,uint256)": "2674",
				"balanceOfBatch(address[],uint256[])": "infinite",
				"blacklistExtension(address)": "infinite",
				"burn(address,uint256[],uint256[])": "infinite",
				"getAdmins()": "infinite",
				"getExtensions()": "infinite",
				"getFeeBps(uint256)": "infinite",
				"getFeeRecipients(uint256)": "infinite",
				"getFees(uint256)": "infinite",
				"getRoyalties(uint256)": "infinite",
				"initialize()": "infinite",
				"isAdmin(address)": "infinite",
				"isApprovedForAll(address,address)": "infinite",
				"mintBaseExisting(address[],uint256[],uint256[])": "infinite",
				"mintBaseNew(address[],uint256[],string[])": "infinite",
				"mintExtensionExisting(address[],uint256[],uint256[])": "infinite",
				"mintExtensionNew(address[],uint256[],string[])": "infinite",
				"owner()": "2478",
				"registerExtension(address,string)": "infinite",
				"registerExtension(address,string,bool)": "infinite",
				"renounceOwnership()": "28184",
				"revokeAdmin(address)": "infinite",
				"royaltyInfo(uint256,uint256)": "infinite",
				"safeBatchTransferFrom(address,address,uint256[],uint256[],bytes)": "infinite",
				"safeTransferFrom(address,address,uint256,uint256,bytes)": "infinite",
				"setApprovalForAll(address,bool)": "infinite",
				"setApproveTransferExtension(bool)": "infinite",
				"setBaseTokenURI(string)": "infinite",
				"setBaseTokenURIExtension(string)": "infinite",
				"setBaseTokenURIExtension(string,bool)": "infinite",
				"setMintPermissions(address,address)": "infinite",
				"setRoyalties(address[],uint256[])": "infinite",
				"setRoyalties(uint256,address[],uint256[])": "infinite",
				"setRoyaltiesExtension(address,address[],uint256[])": "infinite",
				"setTokenURI(uint256,string)": "infinite",
				"setTokenURI(uint256[],string[])": "infinite",
				"setTokenURIExtension(uint256,string)": "infinite",
				"setTokenURIExtension(uint256[],string[])": "infinite",
				"setTokenURIPrefix(string)": "infinite",
				"setTokenURIPrefixExtension(string)": "infinite",
				"supportsInterface(bytes4)": "infinite",
				"tokenExtension(uint256)": "5002",
				"totalSupply(uint256)": "2735",
				"transferOwnership(address)": "infinite",
				"unregisterExtension(address)": "infinite",
				"uri(uint256)": "infinite"
			},
			"internal": {
				"_beforeTokenTransfer(address,address,address,uint256[] memory,uint256[] memory,bytes memory)": "infinite",
				"_burn(address,uint256,uint256)": "infinite",
				"_burnBatch(address,uint256[] memory,uint256[] memory)": "infinite",
				"_mint(address,uint256,uint256,bytes memory)": "infinite",
				"_mintBatch(address,uint256[] memory,uint256[] memory,bytes memory)": "infinite",
				"_mintExisting(address,address[] memory,uint256[] memory,uint256[] memory)": "infinite",
				"_mintNew(address,address[] memory,uint256[] memory,string memory[] memory)": "infinite"
			}
		},
		"methodIdentifiers": {
			"approveAdmin(address)": "6d73e669",
			"balanceOf(address,uint256)": "00fdd58e",
			"balanceOfBatch(address[],uint256[])": "4e1273f4",
			"blacklistExtension(address)": "02e7afb7",
			"burn(address,uint256[],uint256[])": "3db0f8ab",
			"getAdmins()": "31ae450b",
			"getExtensions()": "83b7db63",
			"getFeeBps(uint256)": "0ebd4c7f",
			"getFeeRecipients(uint256)": "b9c4d9fb",
			"getFees(uint256)": "d5a06d4c",
			"getRoyalties(uint256)": "bb3bafd6",
			"initialize()": "8129fc1c",
			"isAdmin(address)": "24d7806c",
			"isApprovedForAll(address,address)": "e985e9c5",
			"mintBaseExisting(address[],uint256[],uint256[])": "695c96e6",
			"mintBaseNew(address[],uint256[],string[])": "feeb5a9a",
			"mintExtensionExisting(address[],uint256[],uint256[])": "e6c884dc",
			"mintExtensionNew(address[],uint256[],string[])": "8c6e8472",
			"owner()": "8da5cb5b",
			"registerExtension(address,string)": "3071a0f9",
			"registerExtension(address,string,bool)": "3f0f37f6",
			"renounceOwnership()": "715018a6",
			"revokeAdmin(address)": "2d345670",
			"royaltyInfo(uint256,uint256)": "2a55205a",
			"safeBatchTransferFrom(address,address,uint256[],uint256[],bytes)": "2eb2c2d6",
			"safeTransferFrom(address,address,uint256,uint256,bytes)": "f242432a",
			"setApprovalForAll(address,bool)": "a22cb465",
			"setApproveTransferExtension(bool)": "ac0c8cfa",
			"setBaseTokenURI(string)": "30176e13",
			"setBaseTokenURIExtension(string)": "3e6134b8",
			"setBaseTokenURIExtension(string,bool)": "82dcc0c8",
			"setMintPermissions(address,address)": "f0cdc499",
			"setRoyalties(address[],uint256[])": "332dd1ae",
			"setRoyalties(uint256,address[],uint256[])": "20e4afe2",
			"setRoyaltiesExtension(address,address[],uint256[])": "b0fe87c9",
			"setTokenURI(uint256,string)": "162094c4",
			"setTokenURI(uint256[],string[])": "aafb2d44",
			"setTokenURIExtension(uint256,string)": "e92a89f6",
			"setTokenURIExtension(uint256[],string[])": "61e5bc6b",
			"setTokenURIPrefix(string)": "99e0dd7c",
			"setTokenURIPrefixExtension(string)": "66d1e9d0",
			"supportsInterface(bytes4)": "01ffc9a7",
			"tokenExtension(uint256)": "239be317",
			"totalSupply(uint256)": "bd85b039",
			"transferOwnership(address)": "f2fde38b",
			"unregisterExtension(address)": "ce8aee9d",
			"uri(uint256)": "0e89341c"
		}
	},
	"abi": [
		{
			"anonymous": false,
			"inputs": [
				{
					"indexed": true,
					"internalType": "address",
					"name": "account",
					"type": "address"
				},
				{
					"indexed": true,
					"internalType": "address",
					"name": "sender",
					"type": "address"
				}
			],
			"name": "AdminApproved",
			"type": "event"
		},
		{
			"anonymous": false,
			"inputs": [
				{
					"indexed": true,
					"internalType": "address",
					"name": "account",
					"type": "address"
				},
				{
					"indexed": true,
					"internalType": "address",
					"name": "sender",
					"type": "address"
				}
			],
			"name": "AdminRevoked",
			"type": "event"
		},
		{
			"anonymous": false,
			"inputs": [
				{
					"indexed": true,
					"internalType": "address",
					"name": "account",
					"type": "address"
				},
				{
					"indexed": true,
					"internalType": "address",
					"name": "operator",
					"type": "address"
				},
				{
					"indexed": false,
					"internalType": "bool",
					"name": "approved",
					"type": "bool"
				}
			],
			"name": "ApprovalForAll",
			"type": "event"
		},
		{
			"anonymous": false,
			"inputs": [
				{
					"indexed": false,
					"internalType": "address payable[]",
					"name": "receivers",
					"type": "address[]"
				},
				{
					"indexed": false,
					"internalType": "uint256[]",
					"name": "basisPoints",
					"type": "uint256[]"
				}
			],
			"name": "DefaultRoyaltiesUpdated",
			"type": "event"
		},
		{
			"anonymous": false,
			"inputs": [
				{
					"indexed": true,
					"internalType": "address",
					"name": "extension",
					"type": "address"
				},
				{
					"indexed": false,
					"internalType": "bool",
					"name": "enabled",
					"type": "bool"
				}
			],
			"name": "ExtensionApproveTransferUpdated",
			"type": "event"
		},
		{
			"anonymous": false,
			"inputs": [
				{
					"indexed": true,
					"internalType": "address",
					"name": "extension",
					"type": "address"
				},
				{
					"indexed": true,
					"internalType": "address",
					"name": "sender",
					"type": "address"
				}
			],
			"name": "ExtensionBlacklisted",
			"type": "event"
		},
		{
			"anonymous": false,
			"inputs": [
				{
					"indexed": true,
					"internalType": "address",
					"name": "extension",
					"type": "address"
				},
				{
					"indexed": true,
					"internalType": "address",
					"name": "sender",
					"type": "address"
				}
			],
			"name": "ExtensionRegistered",
			"type": "event"
		},
		{
			"anonymous": false,
			"inputs": [
				{
					"indexed": true,
					"internalType": "address",
					"name": "extension",
					"type": "address"
				},
				{
					"indexed": false,
					"internalType": "address payable[]",
					"name": "receivers",
					"type": "address[]"
				},
				{
					"indexed": false,
					"internalType": "uint256[]",
					"name": "basisPoints",
					"type": "uint256[]"
				}
			],
			"name": "ExtensionRoyaltiesUpdated",
			"type": "event"
		},
		{
			"anonymous": false,
			"inputs": [
				{
					"indexed": true,
					"internalType": "address",
					"name": "extension",
					"type": "address"
				},
				{
					"indexed": true,
					"internalType": "address",
					"name": "sender",
					"type": "address"
				}
			],
			"name": "ExtensionUnregistered",
			"type": "event"
		},
		{
			"anonymous": false,
			"inputs": [
				{
					"indexed": true,
					"internalType": "address",
					"name": "extension",
					"type": "address"
				},
				{
					"indexed": true,
					"internalType": "address",
					"name": "permissions",
					"type": "address"
				},
				{
					"indexed": true,
					"internalType": "address",
					"name": "sender",
					"type": "address"
				}
			],
			"name": "MintPermissionsUpdated",
			"type": "event"
		},
		{
			"anonymous": false,
			"inputs": [
				{
					"indexed": true,
					"internalType": "address",
					"name": "previousOwner",
					"type": "address"
				},
				{
					"indexed": true,
					"internalType": "address",
					"name": "newOwner",
					"type": "address"
				}
			],
			"name": "OwnershipTransferred",
			"type": "event"
		},
		{
			"anonymous": false,
			"inputs": [
				{
					"indexed": true,
					"internalType": "uint256",
					"name": "tokenId",
					"type": "uint256"
				},
				{
					"indexed": false,
					"internalType": "address payable[]",
					"name": "receivers",
					"type": "address[]"
				},
				{
					"indexed": false,
					"internalType": "uint256[]",
					"name": "basisPoints",
					"type": "uint256[]"
				}
			],
			"name": "RoyaltiesUpdated",
			"type": "event"
		},
		{
			"anonymous": false,
			"inputs": [
				{
					"indexed": true,
					"internalType": "address",
					"name": "operator",
					"type": "address"
				},
				{
					"indexed": true,
					"internalType": "address",
					"name": "from",
					"type": "address"
				},
				{
					"indexed": true,
					"internalType": "address",
					"name": "to",
					"type": "address"
				},
				{
					"indexed": false,
					"internalType": "uint256[]",
					"name": "ids",
					"type": "uint256[]"
				},
				{
					"indexed": false,
					"internalType": "uint256[]",
					"name": "values",
					"type": "uint256[]"
				}
			],
			"name": "TransferBatch",
			"type": "event"
		},
		{
			"anonymous": false,
			"inputs": [
				{
					"indexed": true,
					"internalType": "address",
					"name": "operator",
					"type": "address"
				},
				{
					"indexed": true,
					"internalType": "address",
					"name": "from",
					"type": "address"
				},
				{
					"indexed": true,
					"internalType": "address",
					"name": "to",
					"type": "address"
				},
				{
					"indexed": false,
					"internalType": "uint256",
					"name": "id",
					"type": "uint256"
				},
				{
					"indexed": false,
					"internalType": "uint256",
					"name": "value",
					"type": "uint256"
				}
			],
			"name": "TransferSingle",
			"type": "event"
		},
		{
			"anonymous": false,
			"inputs": [
				{
					"indexed": false,
					"internalType": "string",
					"name": "value",
					"type": "string"
				},
				{
					"indexed": true,
					"internalType": "uint256",
					"name": "id",
					"type": "uint256"
				}
			],
			"name": "URI",
			"type": "event"
		},
		{
			"inputs": [
				{
					"internalType": "address",
					"name": "admin",
					"type": "address"
				}
			],
			"name": "approveAdmin",
			"outputs": [],
			"stateMutability": "nonpayable",
			"type": "function"
		},
		{
			"inputs": [
				{
					"internalType": "address",
					"name": "account",
					"type": "address"
				},
				{
					"internalType": "uint256",
					"name": "id",
					"type": "uint256"
				}
			],
			"name": "balanceOf",
			"outputs": [
				{
					"internalType": "uint256",
					"name": "",
					"type": "uint256"
				}
			],
			"stateMutability": "view",
			"type": "function"
		},
		{
			"inputs": [
				{
					"internalType": "address[]",
					"name": "accounts",
					"type": "address[]"
				},
				{
					"internalType": "uint256[]",
					"name": "ids",
					"type": "uint256[]"
				}
			],
			"name": "balanceOfBatch",
			"outputs": [
				{
					"internalType": "uint256[]",
					"name": "",
					"type": "uint256[]"
				}
			],
			"stateMutability": "view",
			"type": "function"
		},
		{
			"inputs": [
				{
					"internalType": "address",
					"name": "extension",
					"type": "address"
				}
			],
			"name": "blacklistExtension",
			"outputs": [],
			"stateMutability": "nonpayable",
			"type": "function"
		},
		{
			"inputs": [
				{
					"internalType": "address",
					"name": "account",
					"type": "address"
				},
				{
					"internalType": "uint256[]",
					"name": "tokenIds",
					"type": "uint256[]"
				},
				{
					"internalType": "uint256[]",
					"name": "amounts",
					"type": "uint256[]"
				}
			],
			"name": "burn",
			"outputs": [],
			"stateMutability": "nonpayable",
			"type": "function"
		},
		{
			"inputs": [],
			"name": "getAdmins",
			"outputs": [
				{
					"internalType": "address[]",
					"name": "admins",
					"type": "address[]"
				}
			],
			"stateMutability": "view",
			"type": "function"
		},
		{
			"inputs": [],
			"name": "getExtensions",
			"outputs": [
				{
					"internalType": "address[]",
					"name": "extensions",
					"type": "address[]"
				}
			],
			"stateMutability": "view",
			"type": "function"
		},
		{
			"inputs": [
				{
					"internalType": "uint256",
					"name": "tokenId",
					"type": "uint256"
				}
			],
			"name": "getFeeBps",
			"outputs": [
				{
					"internalType": "uint256[]",
					"name": "",
					"type": "uint256[]"
				}
			],
			"stateMutability": "view",
			"type": "function"
		},
		{
			"inputs": [
				{
					"internalType": "uint256",
					"name": "tokenId",
					"type": "uint256"
				}
			],
			"name": "getFeeRecipients",
			"outputs": [
				{
					"internalType": "address payable[]",
					"name": "",
					"type": "address[]"
				}
			],
			"stateMutability": "view",
			"type": "function"
		},
		{
			"inputs": [
				{
					"internalType": "uint256",
					"name": "tokenId",
					"type": "uint256"
				}
			],
			"name": "getFees",
			"outputs": [
				{
					"internalType": "address payable[]",
					"name": "",
					"type": "address[]"
				},
				{
					"internalType": "uint256[]",
					"name": "",
					"type": "uint256[]"
				}
			],
			"stateMutability": "view",
			"type": "function"
		},
		{
			"inputs": [
				{
					"internalType": "uint256",
					"name": "tokenId",
					"type": "uint256"
				}
			],
			"name": "getRoyalties",
			"outputs": [
				{
					"internalType": "address payable[]",
					"name": "",
					"type": "address[]"
				},
				{
					"internalType": "uint256[]",
					"name": "",
					"type": "uint256[]"
				}
			],
			"stateMutability": "view",
			"type": "function"
		},
		{
			"inputs": [],
			"name": "initialize",
			"outputs": [],
			"stateMutability": "nonpayable",
			"type": "function"
		},
		{
			"inputs": [
				{
					"internalType": "address",
					"name": "admin",
					"type": "address"
				}
			],
			"name": "isAdmin",
			"outputs": [
				{
					"internalType": "bool",
					"name": "",
					"type": "bool"
				}
			],
			"stateMutability": "view",
			"type": "function"
		},
		{
			"inputs": [
				{
					"internalType": "address",
					"name": "account",
					"type": "address"
				},
				{
					"internalType": "address",
					"name": "operator",
					"type": "address"
				}
			],
			"name": "isApprovedForAll",
			"outputs": [
				{
					"internalType": "bool",
					"name": "",
					"type": "bool"
				}
			],
			"stateMutability": "view",
			"type": "function"
		},
		{
			"inputs": [
				{
					"internalType": "address[]",
					"name": "to",
					"type": "address[]"
				},
				{
					"internalType": "uint256[]",
					"name": "tokenIds",
					"type": "uint256[]"
				},
				{
					"internalType": "uint256[]",
					"name": "amounts",
					"type": "uint256[]"
				}
			],
			"name": "mintBaseExisting",
			"outputs": [],
			"stateMutability": "nonpayable",
			"type": "function"
		},
		{
			"inputs": [
				{
					"internalType": "address[]",
					"name": "to",
					"type": "address[]"
				},
				{
					"internalType": "uint256[]",
					"name": "amounts",
					"type": "uint256[]"
				},
				{
					"internalType": "string[]",
					"name": "uris",
					"type": "string[]"
				}
			],
			"name": "mintBaseNew",
			"outputs": [
				{
					"internalType": "uint256[]",
					"name": "",
					"type": "uint256[]"
				}
			],
			"stateMutability": "nonpayable",
			"type": "function"
		},
		{
			"inputs": [
				{
					"internalType": "address[]",
					"name": "to",
					"type": "address[]"
				},
				{
					"internalType": "uint256[]",
					"name": "tokenIds",
					"type": "uint256[]"
				},
				{
					"internalType": "uint256[]",
					"name": "amounts",
					"type": "uint256[]"
				}
			],
			"name": "mintExtensionExisting",
			"outputs": [],
			"stateMutability": "nonpayable",
			"type": "function"
		},
		{
			"inputs": [
				{
					"internalType": "address[]",
					"name": "to",
					"type": "address[]"
				},
				{
					"internalType": "uint256[]",
					"name": "amounts",
					"type": "uint256[]"
				},
				{
					"internalType": "string[]",
					"name": "uris",
					"type": "string[]"
				}
			],
			"name": "mintExtensionNew",
			"outputs": [
				{
					"internalType": "uint256[]",
					"name": "tokenIds",
					"type": "uint256[]"
				}
			],
			"stateMutability": "nonpayable",
			"type": "function"
		},
		{
			"inputs": [],
			"name": "owner",
			"outputs": [
				{
					"internalType": "address",
					"name": "",
					"type": "address"
				}
			],
			"stateMutability": "view",
			"type": "function"
		},
		{
			"inputs": [
				{
					"internalType": "address",
					"name": "extension",
					"type": "address"
				},
				{
					"internalType": "string",
					"name": "baseURI",
					"type": "string"
				}
			],
			"name": "registerExtension",
			"outputs": [],
			"stateMutability": "nonpayable",
			"type": "function"
		},
		{
			"inputs": [
				{
					"internalType": "address",
					"name": "extension",
					"type": "address"
				},
				{
					"internalType": "string",
					"name": "baseURI",
					"type": "string"
				},
				{
					"internalType": "bool",
					"name": "baseURIIdentical",
					"type": "bool"
				}
			],
			"name": "registerExtension",
			"outputs": [],
			"stateMutability": "nonpayable",
			"type": "function"
		},
		{
			"inputs": [],
			"name": "renounceOwnership",
			"outputs": [],
			"stateMutability": "nonpayable",
			"type": "function"
		},
		{
			"inputs": [
				{
					"internalType": "address",
					"name": "admin",
					"type": "address"
				}
			],
			"name": "revokeAdmin",
			"outputs": [],
			"stateMutability": "nonpayable",
			"type": "function"
		},
		{
			"inputs": [
				{
					"internalType": "uint256",
					"name": "tokenId",
					"type": "uint256"
				},
				{
					"internalType": "uint256",
					"name": "value",
					"type": "uint256"
				}
			],
			"name": "royaltyInfo",
			"outputs": [
				{
					"internalType": "address",
					"name": "",
					"type": "address"
				},
				{
					"internalType": "uint256",
					"name": "",
					"type": "uint256"
				}
			],
			"stateMutability": "view",
			"type": "function"
		},
		{
			"inputs": [
				{
					"internalType": "address",
					"name": "from",
					"type": "address"
				},
				{
					"internalType": "address",
					"name": "to",
					"type": "address"
				},
				{
					"internalType": "uint256[]",
					"name": "ids",
					"type": "uint256[]"
				},
				{
					"internalType": "uint256[]",
					"name": "amounts",
					"type": "uint256[]"
				},
				{
					"internalType": "bytes",
					"name": "data",
					"type": "bytes"
				}
			],
			"name": "safeBatchTransferFrom",
			"outputs": [],
			"stateMutability": "nonpayable",
			"type": "function"
		},
		{
			"inputs": [
				{
					"internalType": "address",
					"name": "from",
					"type": "address"
				},
				{
					"internalType": "address",
					"name": "to",
					"type": "address"
				},
				{
					"internalType": "uint256",
					"name": "id",
					"type": "uint256"
				},
				{
					"internalType": "uint256",
					"name": "amount",
					"type": "uint256"
				},
				{
					"internalType": "bytes",
					"name": "data",
					"type": "bytes"
				}
			],
			"name": "safeTransferFrom",
			"outputs": [],
			"stateMutability": "nonpayable",
			"type": "function"
		},
		{
			"inputs": [
				{
					"internalType": "address",
					"name": "operator",
					"type": "address"
				},
				{
					"internalType": "bool",
					"name": "approved",
					"type": "bool"
				}
			],
			"name": "setApprovalForAll",
			"outputs": [],
			"stateMutability": "nonpayable",
			"type": "function"
		},
		{
			"inputs": [
				{
					"internalType": "bool",
					"name": "enabled",
					"type": "bool"
				}
			],
			"name": "setApproveTransferExtension",
			"outputs": [],
			"stateMutability": "nonpayable",
			"type": "function"
		},
		{
			"inputs": [
				{
					"internalType": "string",
					"name": "uri_",
					"type": "string"
				}
			],
			"name": "setBaseTokenURI",
			"outputs": [],
			"stateMutability": "nonpayable",
			"type": "function"
		},
		{
			"inputs": [
				{
					"internalType": "string",
					"name": "uri_",
					"type": "string"
				}
			],
			"name": "setBaseTokenURIExtension",
			"outputs": [],
			"stateMutability": "nonpayable",
			"type": "function"
		},
		{
			"inputs": [
				{
					"internalType": "string",
					"name": "uri_",
					"type": "string"
				},
				{
					"internalType": "bool",
					"name": "identical",
					"type": "bool"
				}
			],
			"name": "setBaseTokenURIExtension",
			"outputs": [],
			"stateMutability": "nonpayable",
			"type": "function"
		},
		{
			"inputs": [
				{
					"internalType": "address",
					"name": "extension",
					"type": "address"
				},
				{
					"internalType": "address",
					"name": "permissions",
					"type": "address"
				}
			],
			"name": "setMintPermissions",
			"outputs": [],
			"stateMutability": "nonpayable",
			"type": "function"
		},
		{
			"inputs": [
				{
					"internalType": "uint256",
					"name": "tokenId",
					"type": "uint256"
				},
				{
					"internalType": "address payable[]",
					"name": "receivers",
					"type": "address[]"
				},
				{
					"internalType": "uint256[]",
					"name": "basisPoints",
					"type": "uint256[]"
				}
			],
			"name": "setRoyalties",
			"outputs": [],
			"stateMutability": "nonpayable",
			"type": "function"
		},
		{
			"inputs": [
				{
					"internalType": "address payable[]",
					"name": "receivers",
					"type": "address[]"
				},
				{
					"internalType": "uint256[]",
					"name": "basisPoints",
					"type": "uint256[]"
				}
			],
			"name": "setRoyalties",
			"outputs": [],
			"stateMutability": "nonpayable",
			"type": "function"
		},
		{
			"inputs": [
				{
					"internalType": "address",
					"name": "extension",
					"type": "address"
				},
				{
					"internalType": "address payable[]",
					"name": "receivers",
					"type": "address[]"
				},
				{
					"internalType": "uint256[]",
					"name": "basisPoints",
					"type": "uint256[]"
				}
			],
			"name": "setRoyaltiesExtension",
			"outputs": [],
			"stateMutability": "nonpayable",
			"type": "function"
		},
		{
			"inputs": [
				{
					"internalType": "uint256",
					"name": "tokenId",
					"type": "uint256"
				},
				{
					"internalType": "string",
					"name": "uri_",
					"type": "string"
				}
			],
			"name": "setTokenURI",
			"outputs": [],
			"stateMutability": "nonpayable",
			"type": "function"
		},
		{
			"inputs": [
				{
					"internalType": "uint256[]",
					"name": "tokenIds",
					"type": "uint256[]"
				},
				{
					"internalType": "string[]",
					"name": "uris",
					"type": "string[]"
				}
			],
			"name": "setTokenURI",
			"outputs": [],
			"stateMutability": "nonpayable",
			"type": "function"
		},
		{
			"inputs": [
				{
					"internalType": "uint256[]",
					"name": "tokenIds",
					"type": "uint256[]"
				},
				{
					"internalType": "string[]",
					"name": "uris",
					"type": "string[]"
				}
			],
			"name": "setTokenURIExtension",
			"outputs": [],
			"stateMutability": "nonpayable",
			"type": "function"
		},
		{
			"inputs": [
				{
					"internalType": "uint256",
					"name": "tokenId",
					"type": "uint256"
				},
				{
					"internalType": "string",
					"name": "uri_",
					"type": "string"
				}
			],
			"name": "setTokenURIExtension",
			"outputs": [],
			"stateMutability": "nonpayable",
			"type": "function"
		},
		{
			"inputs": [
				{
					"internalType": "string",
					"name": "prefix",
					"type": "string"
				}
			],
			"name": "setTokenURIPrefix",
			"outputs": [],
			"stateMutability": "nonpayable",
			"type": "function"
		},
		{
			"inputs": [
				{
					"internalType": "string",
					"name": "prefix",
					"type": "string"
				}
			],
			"name": "setTokenURIPrefixExtension",
			"outputs": [],
			"stateMutability": "nonpayable",
			"type": "function"
		},
		{
			"inputs": [
				{
					"internalType": "bytes4",
					"name": "interfaceId",
					"type": "bytes4"
				}
			],
			"name": "supportsInterface",
			"outputs": [
				{
					"internalType": "bool",
					"name": "",
					"type": "bool"
				}
			],
			"stateMutability": "view",
			"type": "function"
		},
		{
			"inputs": [
				{
					"internalType": "uint256",
					"name": "tokenId",
					"type": "uint256"
				}
			],
			"name": "tokenExtension",
			"outputs": [
				{
					"internalType": "address",
					"name": "",
					"type": "address"
				}
			],
			"stateMutability": "view",
			"type": "function"
		},
		{
			"inputs": [
				{
					"internalType": "uint256",
					"name": "tokenId",
					"type": "uint256"
				}
			],
			"name": "totalSupply",
			"outputs": [
				{
					"internalType": "uint256",
					"name": "",
					"type": "uint256"
				}
			],
			"stateMutability": "view",
			"type": "function"
		},
		{
			"inputs": [
				{
					"internalType": "address",
					"name": "newOwner",
					"type": "address"
				}
			],
			"name": "transferOwnership",
			"outputs": [],
			"stateMutability": "nonpayable",
			"type": "function"
		},
		{
			"inputs": [
				{
					"internalType": "address",
					"name": "extension",
					"type": "address"
				}
			],
			"name": "unregisterExtension",
			"outputs": [],
			"stateMutability": "nonpayable",
			"type": "function"
		},
		{
			"inputs": [
				{
					"internalType": "uint256",
					"name": "tokenId",
					"type": "uint256"
				}
			],
			"name": "uri",
			"outputs": [
				{
					"internalType": "string",
					"name": "",
					"type": "string"
				}
			],
			"stateMutability": "view",
			"type": "function"
		}
	]
}