{
	"data": {
		"bytecode": {
			"linkReferences": {},
			"object": "6080604052600060cc5534801561001557600080fd5b5060016065556151d68061002a6000396000f3fe608060405234801561001057600080fd5b50600436106102ad5760003560e01c80636d73e66911610173578063ad2d0ddd116100d4578063ad2d0ddd146105ed578063b0fe87c914610600578063b88d4fde14610613578063b9c4d9fb14610626578063bb3bafd614610646578063c87b56dd14610667578063ce8aee9d1461067a578063d5a06d4c14610646578063e00aab4b1461068d578063e92a89f6146106a0578063e985e9c5146106b3578063f0cdc499146106c6578063f2fde38b146106d9578063fe2e1f58146106ec57600080fd5b80636d73e6691461050f57806370a0823114610522578063715018a61461053557806372ff03d31461053d5780637884af44146105505780637aa15f161461056357806382dcc0c81461057657806383b7db63146105895780638da5cb5b1461059157806395d89b411461059957806399e0dd7c146105a1578063a22cb465146105b4578063aafb2d44146105c7578063ac0c8cfa146105da57600080fd5b80632d3456701161021d5780632d3456701461040357806330176e13146104165780633071a0f91461042957806331ae450b1461043c578063332dd1ae1461045157806338e52e78146104645780633e6134b8146104775780633f0f37f61461048a57806342842e0e1461049d57806342966c68146104b05780634cd88b76146104c357806361e5bc6b146104d65780636352211e146104e957806366d1e9d0146104fc57600080fd5b806301ffc9a7146102b257806302e7afb7146102da57806306fdde03146102ef578063081812fc14610304578063095ea7b31461032f5780630ebd4c7f14610342578063162094c41461036257806320e4afe214610375578063239be3171461038857806323b872dd1461039b57806324d7806c146103ae5780632928ca58146103c15780632a55205a146103e2575b600080fd5b6102c56102c036600461401f565b6106ff565b60405190151581526020015b60405180910390f35b6102ed6102e8366004614051565b61072e565b005b6102f7610783565b6040516102d191906140be565b6103176103123660046140d1565b610815565b6040516001600160a01b0390911681526020016102d1565b6102ed61033d3660046140ea565b61089d565b6103556103503660046140d1565b6109ad565b6040516102d19190614151565b6102ed6103703660046141a5565b610a33565b6102ed610383366004614234565b610a7e565b6103176103963660046140d1565b610af7565b6102ed6103a93660046142ad565b610b27565b6102c56103bc366004614051565b610b58565b6103d46103cf366004614051565b610b87565b6040519081526020016102d1565b6103f56103f03660046142ee565b610bfb565b6040516102d1929190614310565b6102ed610411366004614051565b610c39565b6102ed610424366004614329565b610cbd565b6102ed61043736600461436a565b610d3c565b610444610db8565b6040516102d191906143a5565b6102ed61045f3660046143f2565b610e66565b61035561047236600461445d565b610eb3565b6102ed610485366004614329565b610ff0565b6102ed6104983660046144b2565b611023565b6102ed6104ab3660046142ad565b611098565b6102ed6104be3660046140d1565b6110b3565b6102ed6104d13660046145e4565b611159565b6102ed6104e4366004614647565b6111d8565b6103176104f73660046140d1565b611283565b6102ed61050a366004614329565b6112fa565b6102ed61051d366004614051565b61132b565b6103d4610530366004614051565b6113aa565b6102ed611431565b6103d461054b366004614051565b61146c565b6103d461055e36600461436a565b6114ee565b61035561057136600461445d565b6115a4565b6102ed610584366004614706565b6116ed565b61044461171f565b6103176117c9565b6102f76117d8565b6102ed6105af366004614329565b6117e7565b6102ed6105c236600461475c565b611831565b6102ed6105d5366004614647565b61183c565b6102ed6105e8366004614795565b611900565b6103556105fb3660046147b2565b611a24565b6102ed61060e3660046147e7565b611b40565b6102ed610621366004614826565b611b8d565b6106396106343660046140d1565b611bbf565b6040516102d191906148de565b6106596106543660046140d1565b611c4e565b6040516102d19291906148f1565b6102f76106753660046140d1565b611d32565b6102ed610688366004614051565b611d62565b61035561069b3660046147b2565b611dab565b6102ed6106ae3660046141a5565b611ea2565b6102c56106c136600461491f565b611ed4565b6102ed6106d436600461491f565b611f02565b6102ed6106e7366004614051565b611f4c565b6103d46106fa36600461436a565b611fe9565b600061070a82612079565b806107195750610719826120be565b806107285750610728826120fe565b92915050565b336107376117c9565b6001600160a01b031614806107525750610752606633612123565b6107775760405162461bcd60e51b815260040161076e9061494d565b60405180910390fd5b61078081612148565b50565b6060609a805461079290614991565b80601f01602080910402602001604051908101604052809291908181526020018280546107be90614991565b801561080b5780601f106107e05761010080835404028352916020019161080b565b820191906000526020600020905b8154815290600101906020018083116107ee57829003601f168201915b5050505050905090565b60006108208261223f565b6108815760405162461bcd60e51b815260206004820152602c60248201527f4552433732313a20617070726f76656420717565727920666f72206e6f6e657860448201526b34b9ba32b73a103a37b5b2b760a11b606482015260840161076e565b506000908152609e60205260409020546001600160a01b031690565b60006108a882611283565b9050806001600160a01b0316836001600160a01b0316036109155760405162461bcd60e51b815260206004820152602160248201527f4552433732313a20617070726f76616c20746f2063757272656e74206f776e656044820152603960f91b606482015260840161076e565b336001600160a01b038216148061093157506109318133611ed4565b61099e5760405162461bcd60e51b815260206004820152603860248201527f4552433732313a20617070726f76652063616c6c6572206973206e6f74206f776044820152771b995c881b9bdc88185c1c1c9bdd995908199bdc88185b1b60421b606482015260840161076e565b6109a8838361225c565b505050565b60606109b88261223f565b6109d45760405162461bcd60e51b815260040161076e906149c5565b6109dd826122ca565b805480602002602001604051908101604052809291908181526020018280548015610a2757602002820191906000526020600020905b815481526020019060010190808311610a13575b50505050509050919050565b33610a3c6117c9565b6001600160a01b03161480610a575750610a57606633612123565b610a735760405162461bcd60e51b815260040161076e9061494d565b6109a8838383612356565b33610a876117c9565b6001600160a01b03161480610aa25750610aa2606633612123565b610abe5760405162461bcd60e51b815260040161076e9061494d565b610ac78561223f565b610ae35760405162461bcd60e51b815260040161076e906149c5565b610af085858585856123a5565b5050505050565b6000610b028261223f565b610b1e5760405162461bcd60e51b815260040161076e906149c5565b610728826124a4565b610b313382612531565b610b4d5760405162461bcd60e51b815260040161076e906149f0565b6109a88383836125fb565b6000816001600160a01b0316610b6c6117c9565b6001600160a01b031614806107285750610728606683612123565b6000600260655403610bab5760405162461bcd60e51b815260040161076e90614a41565b6002606555610bbb60cd33612123565b610bd75760405162461bcd60e51b815260040161076e90614a78565b610bf08260405180602001604052806000815250612794565b600160655592915050565b600080610c078461223f565b610c235760405162461bcd60e51b815260040161076e906149c5565b610c2d8484612807565b915091505b9250929050565b33610c426117c9565b6001600160a01b031614610c685760405162461bcd60e51b815260040161076e90614aae565b610c73606682612123565b156107805760405133906001600160a01b038316907f7c0c3c84c67c85fcac635147348bfe374c24a1a93d0366d1cfe9d8853cbf89d590600090a3610cb96066826128f1565b5050565b33610cc66117c9565b6001600160a01b03161480610ce15750610ce1606633612123565b610cfd5760405162461bcd60e51b815260040161076e9061494d565b610cb982828080601f01602080910402602001604051908101604052809392919081815260200183838082843760009201919091525061290692505050565b33610d456117c9565b6001600160a01b03161480610d605750610d60606633612123565b610d7c5760405162461bcd60e51b815260040161076e9061494d565b82610d8860cf82612123565b15610da55760405162461bcd60e51b815260040161076e90614ae3565b610db2848484600061291f565b50505050565b6060610dc46066612a59565b6001600160401b03811115610ddb57610ddb614519565b604051908082528060200260200182016040528015610e04578160200160208202803683370190505b50905060005b610e146066612a59565b811015610e6257610e26606682612a63565b828281518110610e3857610e38614b12565b6001600160a01b039092166020928302919091019091015280610e5a81614b3e565b915050610e0a565b5090565b33610e6f6117c9565b6001600160a01b03161480610e8a5750610e8a606633612123565b610ea65760405162461bcd60e51b815260040161076e9061494d565b610db23085858585612a6f565b6060600260655403610ed75760405162461bcd60e51b815260040161076e90614a41565b6002606555610ee760cd33612123565b610f035760405162461bcd60e51b815260040161076e90614a78565b816001600160401b03811115610f1b57610f1b614519565b604051908082528060200260200182016040528015610f44578160200160208202803683370190505b50905060005b82811015610fe357610fb485858584818110610f6857610f68614b12565b9050602002810190610f7a9190614b57565b8080601f01602080910402602001604051908101604052809392919081815260200183838082843760009201919091525061279492505050565b828281518110610fc657610fc6614b12565b602090810291909101015280610fdb81614b3e565b915050610f4a565b5060016065559392505050565b610ffb60cd33612123565b6110175760405162461bcd60e51b815260040161076e90614a78565b610cb982826000612bd5565b3361102c6117c9565b6001600160a01b031614806110475750611047606633612123565b6110635760405162461bcd60e51b815260040161076e9061494d565b8361106f60cf82612123565b1561108c5760405162461bcd60e51b815260040161076e90614ae3565b610af08585858561291f565b6109a883838360405180602001604052806000815250611b8d565b6002606554036110d55760405162461bcd60e51b815260040161076e90614a41565b60026065556110e43382612531565b6111305760405162461bcd60e51b815260206004820181905260248201527f43616c6c6572206973206e6f74206f776e6572206e6f7220617070726f766564604482015260640161076e565b600061113b82611283565b905061114682612c12565b6111508183612ca7565b50506001606555565b600054610100900460ff1680611172575060005460ff16155b61118e5760405162461bcd60e51b815260040161076e90614b9d565b600054610100900460ff161580156111b0576000805461ffff19166101011790555b6111ba8383612dbb565b6111c2612e2c565b80156109a8576000805461ff0019169055505050565b6111e360cd33612123565b6111ff5760405162461bcd60e51b815260040161076e90614a78565b8251811461121f5760405162461bcd60e51b815260040161076e90614beb565b60005b8351811015610db25761127184828151811061124057611240614b12565b602002602001015184848481811061125a5761125a614b12565b905060200281019061126c9190614b57565b612ea7565b8061127b81614b3e565b915050611222565b6000818152609c60205260408120546001600160a01b0316806107285760405162461bcd60e51b815260206004820152602960248201527f4552433732313a206f776e657220717565727920666f72206e6f6e657869737460448201526832b73a103a37b5b2b760b91b606482015260840161076e565b61130560cd33612123565b6113215760405162461bcd60e51b815260040161076e90614a78565b610cb98282612edd565b336113346117c9565b6001600160a01b03161461135a5760405162461bcd60e51b815260040161076e90614aae565b611365606682612123565b6107805760405133906001600160a01b038316907f7e1a1a08d52e4ba0e21554733d66165fd5151f99460116223d9e3a608eec5cb190600090a3610cb9606682612ef7565b60006001600160a01b0382166114155760405162461bcd60e51b815260206004820152602a60248201527f4552433732313a2062616c616e636520717565727920666f7220746865207a65604482015269726f206164647265737360b01b606482015260840161076e565b506001600160a01b03166000908152609d602052604090205490565b3361143a6117c9565b6001600160a01b0316146114605760405162461bcd60e51b815260040161076e90614aae565b61146a6000612f0c565b565b60006002606554036114905760405162461bcd60e51b815260040161076e90614a41565b60026065553361149e6117c9565b6001600160a01b031614806114b957506114b9606633612123565b6114d55760405162461bcd60e51b815260040161076e9061494d565b610bf08260405180602001604052806000815250612f5e565b60006002606554036115125760405162461bcd60e51b815260040161076e90614a41565b6002606555336115206117c9565b6001600160a01b0316148061153b575061153b606633612123565b6115575760405162461bcd60e51b815260040161076e9061494d565b6115978484848080601f016020809104026020016040519081016040528093929190818152602001838380828437600092019190915250612f5e92505050565b6001606555949350505050565b60606002606554036115c85760405162461bcd60e51b815260040161076e90614a41565b6002606555336115d66117c9565b6001600160a01b031614806115f157506115f1606633612123565b61160d5760405162461bcd60e51b815260040161076e9061494d565b816001600160401b0381111561162557611625614519565b60405190808252806020026020018201604052801561164e578160200160208202803683370190505b50905060005b82811015610fe3576116be8585858481811061167257611672614b12565b90506020028101906116849190614b57565b8080601f016020809104026020016040519081016040528093929190818152602001838380828437600092019190915250612f5e92505050565b8282815181106116d0576116d0614b12565b6020908102919091010152806116e581614b3e565b915050611654565b6116f860cd33612123565b6117145760405162461bcd60e51b815260040161076e90614a78565b6109a8838383612bd5565b606061172b60cd612a59565b6001600160401b0381111561174257611742614519565b60405190808252806020026020018201604052801561176b578160200160208202803683370190505b50905060005b61177b60cd612a59565b811015610e625761178d60cd82612a63565b82828151811061179f5761179f614b12565b6001600160a01b0390921660209283029190910190910152806117c181614b3e565b915050611771565b6033546001600160a01b031690565b6060609b805461079290614991565b336117f06117c9565b6001600160a01b0316148061180b575061180b606633612123565b6118275760405162461bcd60e51b815260040161076e9061494d565b610cb98282612fa1565b610cb9338383612fbb565b336118456117c9565b6001600160a01b031614806118605750611860606633612123565b61187c5760405162461bcd60e51b815260040161076e9061494d565b8251811461189c5760405162461bcd60e51b815260040161076e90614beb565b60005b8351811015610db2576118ee8482815181106118bd576118bd614b12565b60200260200101518484848181106118d7576118d7614b12565b90506020028101906118e99190614b57565b612356565b806118f881614b3e565b91505061189f565b61190b60cd33612123565b6119275760405162461bcd60e51b815260040161076e90614a78565b801580611940575061194033634ce6d51160e11b613085565b6119b25760405162461bcd60e51b815260206004820152603f60248201527f457874656e73696f6e206d75737420696d706c656d656e74204945524337323160448201527f43726561746f72457874656e73696f6e417070726f76655472616e7366657200606482015260840161076e565b33600090815260d2602052604090205460ff161515811515146107805733600081815260d26020908152604091829020805460ff191685151590811790915591519182527f072a7592283e2c2d1d56d21517ff6013325e0f55483f4828373ff4d98b0a1a36910160405180910390a250565b6060600260655403611a485760405162461bcd60e51b815260040161076e90614a41565b600260655533611a566117c9565b6001600160a01b03161480611a715750611a71606633612123565b611a8d5760405162461bcd60e51b815260040161076e9061494d565b8161ffff166001600160401b03811115611aa957611aa9614519565b604051908082528060200260200182016040528015611ad2578160200160208202803683370190505b50905060005b8261ffff168161ffff161015611b3457611b018460405180602001604052806000815250612f5e565b828261ffff1681518110611b1757611b17614b12565b602090810291909101015280611b2c81614c12565b915050611ad8565b50600160655592915050565b33611b496117c9565b6001600160a01b03161480611b645750611b64606633612123565b611b805760405162461bcd60e51b815260040161076e9061494d565b610af08585858585612a6f565b611b973383612531565b611bb35760405162461bcd60e51b815260040161076e906149f0565b610db2848484846130a1565b6060611bca8261223f565b611be65760405162461bcd60e51b815260040161076e906149c5565b611bef826130d4565b805480602002602001604051908101604052809291908181526020018280548015610a2757602002820191906000526020600020905b81546001600160a01b03168152600190910190602001808311611c255750505050509050919050565b606080611c5a8361223f565b611c765760405162461bcd60e51b815260040161076e906149c5565b611c7f83613160565b815460408051602080840282018101909252828152918491830182828015611cd057602002820191906000526020600020905b81546001600160a01b03168152600190910190602001808311611cb2575b5050505050915080805480602002602001604051908101604052809291908181526020018280548015611d2257602002820191906000526020600020905b815481526020019060010190808311611d0e575b5050505050905091509150915091565b6060611d3d8261223f565b611d595760405162461bcd60e51b815260040161076e906149c5565b6107288261317e565b33611d6b6117c9565b6001600160a01b03161480611d865750611d86606633612123565b611da25760405162461bcd60e51b815260040161076e9061494d565b610780816133f8565b6060600260655403611dcf5760405162461bcd60e51b815260040161076e90614a41565b6002606555611ddf60cd33612123565b611dfb5760405162461bcd60e51b815260040161076e90614a78565b8161ffff166001600160401b03811115611e1757611e17614519565b604051908082528060200260200182016040528015611e40578160200160208202803683370190505b50905060005b8261ffff168161ffff161015611b3457611e6f8460405180602001604052806000815250612794565b828261ffff1681518110611e8557611e85614b12565b602090810291909101015280611e9a81614c12565b915050611e46565b611ead60cd33612123565b611ec95760405162461bcd60e51b815260040161076e90614a78565b6109a8838383612ea7565b6001600160a01b039182166000908152609f6020908152604080832093909416825291909152205460ff1690565b33611f0b6117c9565b6001600160a01b03161480611f265750611f26606633612123565b611f425760405162461bcd60e51b815260040161076e9061494d565b610cb98282613449565b33611f556117c9565b6001600160a01b031614611f7b5760405162461bcd60e51b815260040161076e90614aae565b6001600160a01b038116611fe05760405162461bcd60e51b815260206004820152602660248201527f4f776e61626c653a206e6577206f776e657220697320746865207a65726f206160448201526564647265737360d01b606482015260840161076e565b61078081612f0c565b600060026065540361200d5760405162461bcd60e51b815260040161076e90614a41565b600260655561201d60cd33612123565b6120395760405162461bcd60e51b815260040161076e90614a78565b6115978484848080601f01602080910402602001604051908101604052809392919081815260200183838082843760009201919091525061279492505050565b60006001600160e01b03198216639088c20760e01b148061209e575061209e8261357e565b8061072857506001600160e01b03198216631e05385b60e31b1492915050565b60006001600160e01b031982166380ac58cd60e01b14806120ef57506001600160e01b03198216635b5e139f60e01b145b80610728575061072882613614565b60006001600160e01b03198216632a9f3abf60e11b1480610728575061072882613614565b6001600160a01b038116600090815260018301602052604081205415155b9392505050565b306001600160a01b0382160361219c5760405162461bcd60e51b815260206004820152601960248201527821b0b73737ba10313630b1b5b634b9ba103cb7bab939b2b63360391b604482015260640161076e565b6121a760cd82612123565b156121ef5760405133906001600160a01b038316907fd19cf84cf0fec6bec9ddfa29c63adf83a55707c712f32c8285d6180a7890147990600090a36121ed60cd826128f1565b505b6121fa60cf82612123565b6107805760405133906001600160a01b038316907f05ac7bc5a606cd92a63365f9fda244499b9add0526b22d99937b6bd88181059c90600090a3610cb960cf82612ef7565b6000908152609c60205260409020546001600160a01b0316151590565b6000818152609e6020526040902080546001600160a01b0319166001600160a01b038416908117909155819061229182611283565b6001600160a01b03167f8c5be1e5ebec7d5bd14f71427d1e84f3dd0314c0f7b2291e5b200ac8c7c3b92560405160405180910390a45050565b600081815260db6020526040812054156122f05750600090815260db6020526040902090565b600082815260d360209081526040808320546001600160a01b0316835260d9909152902054156123425750600090815260d360209081526040808320546001600160a01b0316835260d9909152902090565b505030600090815260d96020526040902090565b600083815260d360205260409020546001600160a01b0316301461238c5760405162461bcd60e51b815260040161076e90614c33565b600083815260d760205260409020610db2828483614cb5565b8281146123c45760405162461bcd60e51b815260040161076e90614beb565b6000805b82811015612408578383828181106123e2576123e2614b12565b90506020020135826123f49190614d6e565b91508061240081614b3e565b9150506123c8565b50612710811061242a5760405162461bcd60e51b815260040161076e90614d81565b600086815260da60205260409020612443908686613f24565b50600086815260db6020526040902061245d908484613f83565b50857fabb46fe0761d77584bde75697647804ffd8113abd4d8d06bc664150395eccdee868686866040516124949493929190614db2565b60405180910390a2505050505050565b600081815260d360205260409020546001600160a01b03163081036125045760405162461bcd60e51b815260206004820152601660248201527527379032bc3a32b739b4b7b7103337b9103a37b5b2b760511b604482015260640161076e565b61250f60cf82612123565b1561252c5760405162461bcd60e51b815260040161076e90614ae3565b919050565b600061253c8261223f565b61259d5760405162461bcd60e51b815260206004820152602c60248201527f4552433732313a206f70657261746f7220717565727920666f72206e6f6e657860448201526b34b9ba32b73a103a37b5b2b760a11b606482015260840161076e565b60006125a883611283565b9050806001600160a01b0316846001600160a01b031614806125e35750836001600160a01b03166125d884610815565b6001600160a01b0316145b806125f357506125f38185611ed4565b949350505050565b826001600160a01b031661260e82611283565b6001600160a01b0316146126765760405162461bcd60e51b815260206004820152602960248201527f4552433732313a207472616e73666572206f6620746f6b656e2074686174206960448201526839903737ba1037bbb760b91b606482015260840161076e565b6001600160a01b0382166126d85760405162461bcd60e51b8152602060048201526024808201527f4552433732313a207472616e7366657220746f20746865207a65726f206164646044820152637265737360e01b606482015260840161076e565b6126e383838361362a565b6126ee60008261225c565b6001600160a01b0383166000908152609d60205260408120805460019290612717908490614e30565b90915550506001600160a01b0382166000908152609d60205260408120805460019290612745908490614d6e565b90915550506000818152609c602052604080822080546001600160a01b0319166001600160a01b03868116918217909255915184939187169160008051602061518183398151915291a4505050565b60cc8054600091826127a583614b3e565b919050555060cc5490506127b98382613635565b600081815260d36020526040902080546001600160a01b031916331790556127e183826136c2565b81511561280257600081815260d7602052604090206128008382614e43565b505b610728565b6000806000612815856130d4565b8054909150600110156128695760405162461bcd60e51b815260206004820152601c60248201527b26b7b932903a3430b71018903937bcb0b63a3c903932b1b2b4bb32b960211b604482015260640161076e565b805460000361287f573060009250925050610c32565b8060008154811061289257612892614b12565b6000918252602090912001546001600160a01b0316612710856128b4886122ca565b6000815481106128c6576128c6614b12565b90600052602060002001546128db9190614efc565b6128e59190614f29565b92509250509250929050565b6000612141836001600160a01b0384166136dc565b30600090815260d460205260409020610cb98282614e43565b306001600160a01b0385160361296a5760405162461bcd60e51b815260206004820152601060248201526f10dc99585d1bdc8e88125b9d985b1a5960821b604482015260640161076e565b6001600160a01b0384163b6129cf5760405162461bcd60e51b815260206004820152602560248201527f43726561746f723a20457874656e73696f6e206d757374206265206120636f6e6044820152641d1c9858dd60da1b606482015260840161076e565b6129da60cd85612123565b610db2576001600160a01b038416600090815260d460205260409020612a01838583614cb5565b506001600160a01b038416600081815260d56020526040808220805460ff1916851515179055513392917fd8cb8ba4086944eabf43c5535b7712015e4d4c714b24bf812c040ea5b7a3e42a91a3610af060cd85612ef7565b6000610728825490565b600061214183836137cf565b828114612a8e5760405162461bcd60e51b815260040161076e90614beb565b6000805b82811015612ad257838382818110612aac57612aac614b12565b9050602002013582612abe9190614d6e565b915080612aca81614b3e565b915050612a92565b506127108110612af45760405162461bcd60e51b815260040161076e90614d81565b6001600160a01b038616600090815260d860205260409020612b17908686613f24565b506001600160a01b038616600090815260d960205260409020612b3b908484613f83565b50306001600160a01b03871603612b8e577f2b6849d5976d799a5b0ca4dfd6b40a3d7afe9ea72c091fa01a958594f9a2659b85858585604051612b819493929190614db2565b60405180910390a1612bcd565b856001600160a01b03167f535a93d2cb000582c0ebeaa9be4890ec6a287f98eb2df00c54c300612fd78d8f868686866040516124949493929190614db2565b505050505050565b33600090815260d460205260409020612bef838583614cb5565b5033600090815260d560205260409020805460ff19169115159190911790555050565b6000612c1d82611283565b9050612c2b8160008461362a565b612c3660008361225c565b6001600160a01b0381166000908152609d60205260408120805460019290612c5f908490614e30565b90915550506000828152609c602052604080822080546001600160a01b0319169055518391906001600160a01b03841690600080516020615181833981519152908390a45050565b600081815260d360205260409020546001600160a01b03163014612d6557600081815260d36020526040902054612cee906001600160a01b03166311686e4b60e21b613085565b15612d6557600081815260d36020526040908190205490516311686e4b60e21b81526001600160a01b03909116906345a1b92c90612d329085908590600401614310565b600060405180830381600087803b158015612d4c57600080fd5b505af1158015612d60573d6000803e3d6000fd5b505050505b600081815260d7602052604090208054612d7e90614991565b159050612d9c57600081815260d760205260408120612d9c91613fbe565b600090815260d36020526040902080546001600160a01b031916905550565b600054610100900460ff1680612dd4575060005460ff16155b612df05760405162461bcd60e51b815260040161076e90614b9d565b600054610100900460ff16158015612e12576000805461ffff19166101011790555b612e1a6137f9565b612e226137f9565b6111c28383613863565b600054610100900460ff1680612e45575060005460ff16155b612e615760405162461bcd60e51b815260040161076e90614b9d565b600054610100900460ff16158015612e83576000805461ffff19166101011790555b612e8b6137f9565b612e936138ea565b8015610780576000805461ff001916905550565b600083815260d360205260409020546001600160a01b0316331461238c5760405162461bcd60e51b815260040161076e90614c33565b33600090815260d6602052604090206109a8828483614cb5565b6000612141836001600160a01b03841661394a565b603380546001600160a01b038381166001600160a01b0319831681179093556040519116919082907f8be0079c531659141344cd1fd0a4f28419497f9722a3daafe3b4186f6b6457e090600090a35050565b60cc805460009182612f6f83614b3e565b909155505060cc54600081815260d36020526040902080546001600160a01b0319163017905590506127e183826136c2565b30600090815260d6602052604090206109a8828483614cb5565b816001600160a01b0316836001600160a01b0316036130185760405162461bcd60e51b815260206004820152601960248201527822a9219b99189d1030b8383937bb32903a379031b0b63632b960391b604482015260640161076e565b6001600160a01b038381166000818152609f6020908152604080832094871680845294825291829020805460ff191686151590811790915591519182527f17307eab39ab6107e8899845ad3d59bd9653f200f220920489ca2b5937696c31910160405180910390a3505050565b600061309083613999565b8015612141575061214183836139cc565b6130ac8484846125fb565b6130b884848484613ab5565b610db25760405162461bcd60e51b815260040161076e90614f3d565b600081815260da6020526040812054156130fa5750600090815260da6020526040902090565b600082815260d360209081526040808320546001600160a01b0316835260d89091529020541561314c5750600090815260d360209081526040808320546001600160a01b0316835260d8909152902090565b505030600090815260d86020526040902090565b60008061316c836130d4565b613175846122ca565b91509150915091565b600081815260d360205260409020546060906001600160a01b03166131a460cf82612123565b156131c15760405162461bcd60e51b815260040161076e90614ae3565b600083815260d76020526040902080546131da90614991565b1590506132f4576001600160a01b038116600090815260d660205260409020805461320490614991565b159050613255576001600160a01b038116600090815260d66020908152604080832086845260d7835292819020905161323e939201615002565b604051602081830303815290604052915050919050565b600083815260d760205260409020805461326e90614991565b80601f016020809104026020016040519081016040528092919081815260200182805461329a90614991565b80156132e75780601f106132bc576101008083540402835291602001916132e7565b820191906000526020600020905b8154815290600101906020018083116132ca57829003601f168201915b5050505050915050919050565b6133058163e9dc637560e01b613085565b1561337d5760405163e9dc637560e01b81526001600160a01b0382169063e9dc6375906133389030908790600401614310565b600060405180830381865afa158015613355573d6000803e3d6000fd5b505050506040513d6000823e601f3d908101601f191682016040526121419190810190615017565b6001600160a01b038116600090815260d5602052604090205460ff166133cf576001600160a01b038116600090815260d4602052604090206133be84613bb6565b60405160200161323e929190615084565b6001600160a01b038116600090815260d460205260409020805461326e90614991565b50919050565b61340360cd82612123565b156107805760405133906001600160a01b038316907fd19cf84cf0fec6bec9ddfa29c63adf83a55707c712f32c8285d6180a7890147990600090a3610cb960cd826128f1565b61345460cd83612123565b6134a05760405162461bcd60e51b815260206004820152601e60248201527f43726561746f72436f72653a20496e76616c696420657874656e73696f6e0000604482015260640161076e565b6001600160a01b03811615806134c257506134c281631e05385b60e31b613085565b6135005760405162461bcd60e51b815260206004820152600f60248201526e496e76616c6964206164647265737360881b604482015260640161076e565b6001600160a01b03828116600090815260d16020526040902054811690821614610cb9576001600160a01b03828116600081815260d1602052604080822080546001600160a01b031916948616948517905551339392917f6a835c4fcf7e0d398db3762332fdaa1471814ad39f1e2d6d0b3fdabf8efee3e091a45050565b60006001600160e01b031982166328f10a2160e01b14806135a357506135a3826120be565b806135be57506001600160e01b03198216635d9dd7eb60e11b145b806135d957506001600160e01b03198216632dde656160e21b145b806135f457506001600160e01b031982166335681b5360e21b145b8061072857506001600160e01b0319821663152a902d60e11b1492915050565b6001600160e01b0319166301ffc9a760e01b1490565b6109a8838383613cb6565b33600090815260d160205260409020546001600160a01b031615610cb95733600081815260d1602052604090819020549051631e05385b60e31b81526001600160a01b039091169163f029c2d8916136949190869086906004016150a9565b600060405180830381600087803b1580156136ae57600080fd5b505af1158015612bcd573d6000803e3d6000fd5b610cb9828260405180602001604052806000815250613dc5565b600081815260018301602052604081205480156137c5576000613700600183614e30565b855490915060009061371490600190614e30565b905081811461377957600086600001828154811061373457613734614b12565b906000526020600020015490508087600001848154811061375757613757614b12565b6000918252602080832090910192909255918252600188019052604090208390555b855486908061378a5761378a6150cd565b600190038181906000526020600020016000905590558560010160008681526020019081526020016000206000905560019350505050610728565b6000915050610728565b60008260000182815481106137e6576137e6614b12565b9060005260206000200154905092915050565b600054610100900460ff1680613812575060005460ff16155b61382e5760405162461bcd60e51b815260040161076e90614b9d565b600054610100900460ff16158015612e93576000805461ffff19166101011790558015610780576000805461ff001916905550565b600054610100900460ff168061387c575060005460ff16155b6138985760405162461bcd60e51b815260040161076e90614b9d565b600054610100900460ff161580156138ba576000805461ffff19166101011790555b609a6138c68482614e43565b50609b6138d38382614e43565b5080156109a8576000805461ff0019169055505050565b600054610100900460ff1680613903575060005460ff16155b61391f5760405162461bcd60e51b815260040161076e90614b9d565b600054610100900460ff16158015613941576000805461ffff19166101011790555b612e9333612f0c565b600081815260018301602052604081205461399157508154600181810184556000848152602080822090930184905584548482528286019093526040902091909155610728565b506000610728565b60006139ac826301ffc9a760e01b6139cc565b801561072857506139c5826001600160e01b03196139cc565b1592915050565b604080516001600160e01b0319831660248083019190915282518083039091018152604490910182526020810180516001600160e01b03166301ffc9a760e01b179052905160009190829081906001600160a01b0387169061753090613a339086906150e3565b6000604051808303818686fa925050503d8060008114613a6f576040519150601f19603f3d011682016040523d82523d6000602084013e613a74565b606091505b5091509150602081511015613a8f5760009350505050610728565b818015613aab575080806020019051810190613aab91906150ff565b9695505050505050565b60006001600160a01b0384163b15613bab57604051630a85bd0160e11b81526001600160a01b0385169063150b7a0290613af990339089908890889060040161511c565b6020604051808303816000875af1925050508015613b34575060408051601f3d908101601f19168201909252613b319181019061514f565b60015b613b91573d808015613b62576040519150601f19603f3d011682016040523d82523d6000602084013e613b67565b606091505b508051600003613b895760405162461bcd60e51b815260040161076e90614f3d565b805181602001fd5b6001600160e01b031916630a85bd0160e11b1490506125f3565b506001949350505050565b606081600003613bdd5750506040805180820190915260018152600360fc1b602082015290565b8160005b8115613c075780613bf181614b3e565b9150613c009050600a83614f29565b9150613be1565b6000816001600160401b03811115613c2157613c21614519565b6040519080825280601f01601f191660200182016040528015613c4b576020820181803683370190505b5090505b84156125f357613c60600183614e30565b9150613c6d600a8661516c565b613c78906030614d6e565b60f81b818381518110613c8d57613c8d614b12565b60200101906001600160f81b031916908160001a905350613caf600a86614f29565b9450613c4f565b600081815260d360209081526040808320546001600160a01b0316835260d290915290205460ff16156109a857600081815260d3602052604090819020549051638258080560e01b81526001600160a01b0390911690638258080590613d24908690869086906004016150a9565b6020604051808303816000875af1158015613d43573d6000803e3d6000fd5b505050506040513d601f19601f82011682018060405250810190613d6791906150ff565b6109a85760405162461bcd60e51b815260206004820152602960248201527f45524337323143726561746f723a20457874656e73696f6e20617070726f76616044820152686c206661696c75726560b81b606482015260840161076e565b613dcf8383613df8565b613ddc6000848484613ab5565b6109a85760405162461bcd60e51b815260040161076e90614f3d565b6001600160a01b038216613e4e5760405162461bcd60e51b815260206004820181905260248201527f4552433732313a206d696e7420746f20746865207a65726f2061646472657373604482015260640161076e565b613e578161223f565b15613ea35760405162461bcd60e51b815260206004820152601c60248201527b115490cdcc8c4e881d1bdad95b88185b1c9958591e481b5a5b9d195960221b604482015260640161076e565b613eaf6000838361362a565b6001600160a01b0382166000908152609d60205260408120805460019290613ed8908490614d6e565b90915550506000818152609c602052604080822080546001600160a01b0319166001600160a01b0386169081179091559051839290600080516020615181833981519152908290a45050565b828054828255906000526020600020908101928215613f77579160200282015b82811115613f775781546001600160a01b0319166001600160a01b03843516178255602090920191600190910190613f44565b50610e62929150613ff4565b828054828255906000526020600020908101928215613f77579160200282015b82811115613f77578235825591602001919060010190613fa3565b508054613fca90614991565b6000825580601f10613fda575050565b601f01602090049060005260206000209081019061078091905b5b80821115610e625760008155600101613ff5565b6001600160e01b03198116811461078057600080fd5b60006020828403121561403157600080fd5b813561214181614009565b6001600160a01b038116811461078057600080fd5b60006020828403121561406357600080fd5b81356121418161403c565b60005b83811015614089578181015183820152602001614071565b50506000910152565b600081518084526140aa81602086016020860161406e565b601f01601f19169290920160200192915050565b6020815260006121416020830184614092565b6000602082840312156140e357600080fd5b5035919050565b600080604083850312156140fd57600080fd5b82356141088161403c565b946020939093013593505050565b600081518084526020808501945080840160005b838110156141465781518752958201959082019060010161412a565b509495945050505050565b6020815260006121416020830184614116565b60008083601f84011261417657600080fd5b5081356001600160401b0381111561418d57600080fd5b602083019150836020828501011115610c3257600080fd5b6000806000604084860312156141ba57600080fd5b8335925060208401356001600160401b038111156141d757600080fd5b6141e386828701614164565b9497909650939450505050565b60008083601f84011261420257600080fd5b5081356001600160401b0381111561421957600080fd5b6020830191508360208260051b8501011115610c3257600080fd5b60008060008060006060868803121561424c57600080fd5b8535945060208601356001600160401b038082111561426a57600080fd5b61427689838a016141f0565b9096509450604088013591508082111561428f57600080fd5b5061429c888289016141f0565b969995985093965092949392505050565b6000806000606084860312156142c257600080fd5b83356142cd8161403c565b925060208401356142dd8161403c565b929592945050506040919091013590565b6000806040838503121561430157600080fd5b50508035926020909101359150565b6001600160a01b03929092168252602082015260400190565b6000806020838503121561433c57600080fd5b82356001600160401b0381111561435257600080fd5b61435e85828601614164565b90969095509350505050565b60008060006040848603121561437f57600080fd5b833561438a8161403c565b925060208401356001600160401b038111156141d757600080fd5b6020808252825182820181905260009190848201906040850190845b818110156143e65783516001600160a01b0316835292840192918401916001016143c1565b50909695505050505050565b6000806000806040858703121561440857600080fd5b84356001600160401b038082111561441f57600080fd5b61442b888389016141f0565b9096509450602087013591508082111561444457600080fd5b50614451878288016141f0565b95989497509550505050565b60008060006040848603121561447257600080fd5b833561447d8161403c565b925060208401356001600160401b0381111561449857600080fd5b6141e3868287016141f0565b801515811461078057600080fd5b600080600080606085870312156144c857600080fd5b84356144d38161403c565b935060208501356001600160401b038111156144ee57600080fd5b6144fa87828801614164565b909450925050604085013561450e816144a4565b939692955090935050565b634e487b7160e01b600052604160045260246000fd5b604051601f8201601f191681016001600160401b038111828210171561455757614557614519565b604052919050565b60006001600160401b0382111561457857614578614519565b50601f01601f191660200190565b60006145996145948461455f565b61452f565b90508281528383830111156145ad57600080fd5b828260208301376000602084830101529392505050565b600082601f8301126145d557600080fd5b61214183833560208501614586565b600080604083850312156145f757600080fd5b82356001600160401b038082111561460e57600080fd5b61461a868387016145c4565b9350602085013591508082111561463057600080fd5b5061463d858286016145c4565b9150509250929050565b60008060006040848603121561465c57600080fd5b83356001600160401b038082111561467357600080fd5b818601915086601f83011261468757600080fd5b813560208282111561469b5761469b614519565b8160051b6146aa82820161452f565b928352848101820192828101908b8511156146c457600080fd5b958301955b848710156146e2578635825295830195908301906146c9565b98505050870135925050808211156146f957600080fd5b506141e3868287016141f0565b60008060006040848603121561471b57600080fd5b83356001600160401b0381111561473157600080fd5b61473d86828701614164565b9094509250506020840135614751816144a4565b809150509250925092565b6000806040838503121561476f57600080fd5b823561477a8161403c565b9150602083013561478a816144a4565b809150509250929050565b6000602082840312156147a757600080fd5b8135612141816144a4565b600080604083850312156147c557600080fd5b82356147d08161403c565b9150602083013561ffff8116811461478a57600080fd5b6000806000806000606086880312156147ff57600080fd5b853561480a8161403c565b945060208601356001600160401b038082111561426a57600080fd5b6000806000806080858703121561483c57600080fd5b84356148478161403c565b935060208501356148578161403c565b92506040850135915060608501356001600160401b0381111561487957600080fd5b8501601f8101871361488a57600080fd5b61489987823560208401614586565b91505092959194509250565b600081518084526020808501945080840160005b838110156141465781516001600160a01b0316875295820195908201906001016148b9565b60208152600061214160208301846148a5565b60408152600061490460408301856148a5565b82810360208401526149168185614116565b95945050505050565b6000806040838503121561493257600080fd5b823561493d8161403c565b9150602083013561478a8161403c565b60208082526024908201527f41646d696e436f6e74726f6c3a204d757374206265206f776e6572206f7220616040820152633236b4b760e11b606082015260800190565b600181811c908216806149a557607f821691505b6020821081036133f257634e487b7160e01b600052602260045260246000fd5b6020808252601190820152702737b732bc34b9ba32b73a103a37b5b2b760791b604082015260600190565b60208082526031908201527f4552433732313a207472616e736665722063616c6c6572206973206e6f74206f6040820152701ddb995c881b9bdc88185c1c1c9bdd9959607a1b606082015260800190565b6020808252601f908201527f5265656e7472616e637947756172643a207265656e7472616e742063616c6c00604082015260600190565b6020808252601c908201527b26bab9ba103132903932b3b4b9ba32b932b21032bc3a32b739b4b7b760211b604082015260600190565b6020808252818101527f4f776e61626c653a2063616c6c6572206973206e6f7420746865206f776e6572604082015260600190565b602080825260159082015274115e1d195b9cda5bdb88189b1858dadb1a5cdd1959605a1b604082015260600190565b634e487b7160e01b600052603260045260246000fd5b634e487b7160e01b600052601160045260246000fd5b600060018201614b5057614b50614b28565b5060010190565b6000808335601e19843603018112614b6e57600080fd5b8301803591506001600160401b03821115614b8857600080fd5b602001915036819003821315610c3257600080fd5b6020808252602e908201527f496e697469616c697a61626c653a20636f6e747261637420697320616c72656160408201526d191e481a5b9a5d1a585b1a5e995960921b606082015260800190565b6020808252600d908201526c125b9d985b1a59081a5b9c1d5d609a1b604082015260600190565b600061ffff808316818103614c2957614c29614b28565b6001019392505050565b6020808252600d908201526c24b73b30b634b2103a37b5b2b760991b604082015260600190565b601f8211156109a857600081815260208120601f850160051c81016020861015614c815750805b601f850160051c820191505b81811015612bcd57828155600101614c8d565b600019600383901b1c191660019190911b1790565b6001600160401b03831115614ccc57614ccc614519565b614ce083614cda8354614991565b83614c5a565b6000601f841160018114614d0e5760008515614cfc5750838201355b614d068682614ca0565b845550610af0565b600083815260209020601f19861690835b82811015614d3f5786850135825560209485019460019092019101614d1f565b5086821015614d5c5760001960f88860031b161c19848701351681555b505060018560011b0183555050505050565b8082018082111561072857610728614b28565b602080825260179082015276496e76616c696420746f74616c20726f79616c7469657360481b604082015260600190565b6040808252810184905260008560608301825b87811015614df5578235614dd88161403c565b6001600160a01b0316825260209283019290910190600101614dc5565b5083810360208501528481526001600160fb1b03851115614e1557600080fd5b8460051b915081866020830137016020019695505050505050565b8181038181111561072857610728614b28565b81516001600160401b03811115614e5c57614e5c614519565b614e7081614e6a8454614991565b84614c5a565b602080601f831160018114614e9f5760008415614e8d5750858301515b614e978582614ca0565b865550612bcd565b600085815260208120601f198616915b82811015614ece57888601518255948401946001909101908401614eaf565b5085821015614eec5787850151600019600388901b60f8161c191681555b5050505050600190811b01905550565b808202811582820484141761072857610728614b28565b634e487b7160e01b600052601260045260246000fd5b600082614f3857614f38614f13565b500490565b60208082526032908201527f4552433732313a207472616e7366657220746f206e6f6e20455243373231526560408201527131b2b4bb32b91034b6b83632b6b2b73a32b960711b606082015260800190565b60008154614f9c81614991565b60018281168015614fb45760018114614fc957614ff8565b60ff1984168752821515830287019450614ff8565b8560005260208060002060005b85811015614fef5781548a820152908401908201614fd6565b50505082870194505b5050505092915050565b60006125f36150118386614f8f565b84614f8f565b60006020828403121561502957600080fd5b81516001600160401b0381111561503f57600080fd5b8201601f8101841361505057600080fd5b805161505e6145948261455f565b81815285602083850101111561507357600080fd5b61491682602083016020860161406e565b60006150908285614f8f565b83516150a081836020880161406e565b01949350505050565b6001600160a01b039384168152919092166020820152604081019190915260600190565b634e487b7160e01b600052603160045260246000fd5b600082516150f581846020870161406e565b9190910192915050565b60006020828403121561511157600080fd5b8151612141816144a4565b6001600160a01b0385811682528416602082015260408101839052608060608201819052600090613aab90830184614092565b60006020828403121561516157600080fd5b815161214181614009565b60008261517b5761517b614f13565b50069056feddf252ad1be2c89b69c2b068fc378daa952ba7f163c4a11628f55a4df523b3efa26469706673582212202cb282b1b20cae933e09b1ace34342aed79a7acf22193a207c55f42cc49c71c964736f6c63430008110033",
			"opcodes": "PUSH1 0x80 PUSH1 0x40 MSTORE PUSH1 0x0 PUSH1 0xCC SSTORE CALLVALUE DUP1 ISZERO PUSH2 0x15 JUMPI PUSH1 0x0 DUP1 REVERT JUMPDEST POP PUSH1 0x1 PUSH1 0x65 SSTORE PUSH2 0x51D6 DUP1 PUSH2 0x2A PUSH1 0x0 CODECOPY PUSH1 0x0 RETURN INVALID PUSH1 0x80 PUSH1 0x40 MSTORE CALLVALUE DUP1 ISZERO PUSH2 0x10 JUMPI PUSH1 0x0 DUP1 REVERT JUMPDEST POP PUSH1 0x4 CALLDATASIZE LT PUSH2 0x2AD JUMPI PUSH1 0x0 CALLDATALOAD PUSH1 0xE0 SHR DUP1 PUSH4 0x6D73E669 GT PUSH2 0x173 JUMPI DUP1 PUSH4 0xAD2D0DDD GT PUSH2 0xD4 JUMPI DUP1 PUSH4 0xAD2D0DDD EQ PUSH2 0x5ED JUMPI DUP1 PUSH4 0xB0FE87C9 EQ PUSH2 0x600 JUMPI DUP1 PUSH4 0xB88D4FDE EQ PUSH2 0x613 JUMPI DUP1 PUSH4 0xB9C4D9FB EQ PUSH2 0x626 JUMPI DUP1 PUSH4 0xBB3BAFD6 EQ PUSH2 0x646 JUMPI DUP1 PUSH4 0xC87B56DD EQ PUSH2 0x667 JUMPI DUP1 PUSH4 0xCE8AEE9D EQ PUSH2 0x67A JUMPI DUP1 PUSH4 0xD5A06D4C EQ PUSH2 0x646 JUMPI DUP1 PUSH4 0xE00AAB4B EQ PUSH2 0x68D JUMPI DUP1 PUSH4 0xE92A89F6 EQ PUSH2 0x6A0 JUMPI DUP1 PUSH4 0xE985E9C5 EQ PUSH2 0x6B3 JUMPI DUP1 PUSH4 0xF0CDC499 EQ PUSH2 0x6C6 JUMPI DUP1 PUSH4 0xF2FDE38B EQ PUSH2 0x6D9 JUMPI DUP1 PUSH4 0xFE2E1F58 EQ PUSH2 0x6EC JUMPI PUSH1 0x0 DUP1 REVERT JUMPDEST DUP1 PUSH4 0x6D73E669 EQ PUSH2 0x50F JUMPI DUP1 PUSH4 0x70A08231 EQ PUSH2 0x522 JUMPI DUP1 PUSH4 0x715018A6 EQ PUSH2 0x535 JUMPI DUP1 PUSH4 0x72FF03D3 EQ PUSH2 0x53D JUMPI DUP1 PUSH4 0x7884AF44 EQ PUSH2 0x550 JUMPI DUP1 PUSH4 0x7AA15F16 EQ PUSH2 0x563 JUMPI DUP1 PUSH4 0x82DCC0C8 EQ PUSH2 0x576 JUMPI DUP1 PUSH4 0x83B7DB63 EQ PUSH2 0x589 JUMPI DUP1 PUSH4 0x8DA5CB5B EQ PUSH2 0x591 JUMPI DUP1 PUSH4 0x95D89B41 EQ PUSH2 0x599 JUMPI DUP1 PUSH4 0x99E0DD7C EQ PUSH2 0x5A1 JUMPI DUP1 PUSH4 0xA22CB465 EQ PUSH2 0x5B4 JUMPI DUP1 PUSH4 0xAAFB2D44 EQ PUSH2 0x5C7 JUMPI DUP1 PUSH4 0xAC0C8CFA EQ PUSH2 0x5DA JUMPI PUSH1 0x0 DUP1 REVERT JUMPDEST DUP1 PUSH4 0x2D345670 GT PUSH2 0x21D JUMPI DUP1 PUSH4 0x2D345670 EQ PUSH2 0x403 JUMPI DUP1 PUSH4 0x30176E13 EQ PUSH2 0x416 JUMPI DUP1 PUSH4 0x3071A0F9 EQ PUSH2 0x429 JUMPI DUP1 PUSH4 0x31AE450B EQ PUSH2 0x43C JUMPI DUP1 PUSH4 0x332DD1AE EQ PUSH2 0x451 JUMPI DUP1 PUSH4 0x38E52E78 EQ PUSH2 0x464 JUMPI DUP1 PUSH4 0x3E6134B8 EQ PUSH2 0x477 JUMPI DUP1 PUSH4 0x3F0F37F6 EQ PUSH2 0x48A JUMPI DUP1 PUSH4 0x42842E0E EQ PUSH2 0x49D JUMPI DUP1 PUSH4 0x42966C68 EQ PUSH2 0x4B0 JUMPI DUP1 PUSH4 0x4CD88B76 EQ PUSH2 0x4C3 JUMPI DUP1 PUSH4 0x61E5BC6B EQ PUSH2 0x4D6 JUMPI DUP1 PUSH4 0x6352211E EQ PUSH2 0x4E9 JUMPI DUP1 PUSH4 0x66D1E9D0 EQ PUSH2 0x4FC JUMPI PUSH1 0x0 DUP1 REVERT JUMPDEST DUP1 PUSH4 0x1FFC9A7 EQ PUSH2 0x2B2 JUMPI DUP1 PUSH4 0x2E7AFB7 EQ PUSH2 0x2DA JUMPI DUP1 PUSH4 0x6FDDE03 EQ PUSH2 0x2EF JUMPI DUP1 PUSH4 0x81812FC EQ PUSH2 0x304 JUMPI DUP1 PUSH4 0x95EA7B3 EQ PUSH2 0x32F JUMPI DUP1 PUSH4 0xEBD4C7F EQ PUSH2 0x342 JUMPI DUP1 PUSH4 0x162094C4 EQ PUSH2 0x362 JUMPI DUP1 PUSH4 0x20E4AFE2 EQ PUSH2 0x375 JUMPI DUP1 PUSH4 0x239BE317 EQ PUSH2 0x388 JUMPI DUP1 PUSH4 0x23B872DD EQ PUSH2 0x39B JUMPI DUP1 PUSH4 0x24D7806C EQ PUSH2 0x3AE JUMPI DUP1 PUSH4 0x2928CA58 EQ PUSH2 0x3C1 JUMPI DUP1 PUSH4 0x2A55205A EQ PUSH2 0x3E2 JUMPI JUMPDEST PUSH1 0x0 DUP1 REVERT JUMPDEST PUSH2 0x2C5 PUSH2 0x2C0 CALLDATASIZE PUSH1 0x4 PUSH2 0x401F JUMP JUMPDEST PUSH2 0x6FF JUMP JUMPDEST PUSH1 0x40 MLOAD SWAP1 ISZERO ISZERO DUP2 MSTORE PUSH1 0x20 ADD JUMPDEST PUSH1 0x40 MLOAD DUP1 SWAP2 SUB SWAP1 RETURN JUMPDEST PUSH2 0x2ED PUSH2 0x2E8 CALLDATASIZE PUSH1 0x4 PUSH2 0x4051 JUMP JUMPDEST PUSH2 0x72E JUMP JUMPDEST STOP JUMPDEST PUSH2 0x2F7 PUSH2 0x783 JUMP JUMPDEST PUSH1 0x40 MLOAD PUSH2 0x2D1 SWAP2 SWAP1 PUSH2 0x40BE JUMP JUMPDEST PUSH2 0x317 PUSH2 0x312 CALLDATASIZE PUSH1 0x4 PUSH2 0x40D1 JUMP JUMPDEST PUSH2 0x815 JUMP JUMPDEST PUSH1 0x40 MLOAD PUSH1 0x1 PUSH1 0x1 PUSH1 0xA0 SHL SUB SWAP1 SWAP2 AND DUP2 MSTORE PUSH1 0x20 ADD PUSH2 0x2D1 JUMP JUMPDEST PUSH2 0x2ED PUSH2 0x33D CALLDATASIZE PUSH1 0x4 PUSH2 0x40EA JUMP JUMPDEST PUSH2 0x89D JUMP JUMPDEST PUSH2 0x355 PUSH2 0x350 CALLDATASIZE PUSH1 0x4 PUSH2 0x40D1 JUMP JUMPDEST PUSH2 0x9AD JUMP JUMPDEST PUSH1 0x40 MLOAD PUSH2 0x2D1 SWAP2 SWAP1 PUSH2 0x4151 JUMP JUMPDEST PUSH2 0x2ED PUSH2 0x370 CALLDATASIZE PUSH1 0x4 PUSH2 0x41A5 JUMP JUMPDEST PUSH2 0xA33 JUMP JUMPDEST PUSH2 0x2ED PUSH2 0x383 CALLDATASIZE PUSH1 0x4 PUSH2 0x4234 JUMP JUMPDEST PUSH2 0xA7E JUMP JUMPDEST PUSH2 0x317 PUSH2 0x396 CALLDATASIZE PUSH1 0x4 PUSH2 0x40D1 JUMP JUMPDEST PUSH2 0xAF7 JUMP JUMPDEST PUSH2 0x2ED PUSH2 0x3A9 CALLDATASIZE PUSH1 0x4 PUSH2 0x42AD JUMP JUMPDEST PUSH2 0xB27 JUMP JUMPDEST PUSH2 0x2C5 PUSH2 0x3BC CALLDATASIZE PUSH1 0x4 PUSH2 0x4051 JUMP JUMPDEST PUSH2 0xB58 JUMP JUMPDEST PUSH2 0x3D4 PUSH2 0x3CF CALLDATASIZE PUSH1 0x4 PUSH2 0x4051 JUMP JUMPDEST PUSH2 0xB87 JUMP JUMPDEST PUSH1 0x40 MLOAD SWAP1 DUP2 MSTORE PUSH1 0x20 ADD PUSH2 0x2D1 JUMP JUMPDEST PUSH2 0x3F5 PUSH2 0x3F0 CALLDATASIZE PUSH1 0x4 PUSH2 0x42EE JUMP JUMPDEST PUSH2 0xBFB JUMP JUMPDEST PUSH1 0x40 MLOAD PUSH2 0x2D1 SWAP3 SWAP2 SWAP1 PUSH2 0x4310 JUMP JUMPDEST PUSH2 0x2ED PUSH2 0x411 CALLDATASIZE PUSH1 0x4 PUSH2 0x4051 JUMP JUMPDEST PUSH2 0xC39 JUMP JUMPDEST PUSH2 0x2ED PUSH2 0x424 CALLDATASIZE PUSH1 0x4 PUSH2 0x4329 JUMP JUMPDEST PUSH2 0xCBD JUMP JUMPDEST PUSH2 0x2ED PUSH2 0x437 CALLDATASIZE PUSH1 0x4 PUSH2 0x436A JUMP JUMPDEST PUSH2 0xD3C JUMP JUMPDEST PUSH2 0x444 PUSH2 0xDB8 JUMP JUMPDEST PUSH1 0x40 MLOAD PUSH2 0x2D1 SWAP2 SWAP1 PUSH2 0x43A5 JUMP JUMPDEST PUSH2 0x2ED PUSH2 0x45F CALLDATASIZE PUSH1 0x4 PUSH2 0x43F2 JUMP JUMPDEST PUSH2 0xE66 JUMP JUMPDEST PUSH2 0x355 PUSH2 0x472 CALLDATASIZE PUSH1 0x4 PUSH2 0x445D JUMP JUMPDEST PUSH2 0xEB3 JUMP JUMPDEST PUSH2 0x2ED PUSH2 0x485 CALLDATASIZE PUSH1 0x4 PUSH2 0x4329 JUMP JUMPDEST PUSH2 0xFF0 JUMP JUMPDEST PUSH2 0x2ED PUSH2 0x498 CALLDATASIZE PUSH1 0x4 PUSH2 0x44B2 JUMP JUMPDEST PUSH2 0x1023 JUMP JUMPDEST PUSH2 0x2ED PUSH2 0x4AB CALLDATASIZE PUSH1 0x4 PUSH2 0x42AD JUMP JUMPDEST PUSH2 0x1098 JUMP JUMPDEST PUSH2 0x2ED PUSH2 0x4BE CALLDATASIZE PUSH1 0x4 PUSH2 0x40D1 JUMP JUMPDEST PUSH2 0x10B3 JUMP JUMPDEST PUSH2 0x2ED PUSH2 0x4D1 CALLDATASIZE PUSH1 0x4 PUSH2 0x45E4 JUMP JUMPDEST PUSH2 0x1159 JUMP JUMPDEST PUSH2 0x2ED PUSH2 0x4E4 CALLDATASIZE PUSH1 0x4 PUSH2 0x4647 JUMP JUMPDEST PUSH2 0x11D8 JUMP JUMPDEST PUSH2 0x317 PUSH2 0x4F7 CALLDATASIZE PUSH1 0x4 PUSH2 0x40D1 JUMP JUMPDEST PUSH2 0x1283 JUMP JUMPDEST PUSH2 0x2ED PUSH2 0x50A CALLDATASIZE PUSH1 0x4 PUSH2 0x4329 JUMP JUMPDEST PUSH2 0x12FA JUMP JUMPDEST PUSH2 0x2ED PUSH2 0x51D CALLDATASIZE PUSH1 0x4 PUSH2 0x4051 JUMP JUMPDEST PUSH2 0x132B JUMP JUMPDEST PUSH2 0x3D4 PUSH2 0x530 CALLDATASIZE PUSH1 0x4 PUSH2 0x4051 JUMP JUMPDEST PUSH2 0x13AA JUMP JUMPDEST PUSH2 0x2ED PUSH2 0x1431 JUMP JUMPDEST PUSH2 0x3D4 PUSH2 0x54B CALLDATASIZE PUSH1 0x4 PUSH2 0x4051 JUMP JUMPDEST PUSH2 0x146C JUMP JUMPDEST PUSH2 0x3D4 PUSH2 0x55E CALLDATASIZE PUSH1 0x4 PUSH2 0x436A JUMP JUMPDEST PUSH2 0x14EE JUMP JUMPDEST PUSH2 0x355 PUSH2 0x571 CALLDATASIZE PUSH1 0x4 PUSH2 0x445D JUMP JUMPDEST PUSH2 0x15A4 JUMP JUMPDEST PUSH2 0x2ED PUSH2 0x584 CALLDATASIZE PUSH1 0x4 PUSH2 0x4706 JUMP JUMPDEST PUSH2 0x16ED JUMP JUMPDEST PUSH2 0x444 PUSH2 0x171F JUMP JUMPDEST PUSH2 0x317 PUSH2 0x17C9 JUMP JUMPDEST PUSH2 0x2F7 PUSH2 0x17D8 JUMP JUMPDEST PUSH2 0x2ED PUSH2 0x5AF CALLDATASIZE PUSH1 0x4 PUSH2 0x4329 JUMP JUMPDEST PUSH2 0x17E7 JUMP JUMPDEST PUSH2 0x2ED PUSH2 0x5C2 CALLDATASIZE PUSH1 0x4 PUSH2 0x475C JUMP JUMPDEST PUSH2 0x1831 JUMP JUMPDEST PUSH2 0x2ED PUSH2 0x5D5 CALLDATASIZE PUSH1 0x4 PUSH2 0x4647 JUMP JUMPDEST PUSH2 0x183C JUMP JUMPDEST PUSH2 0x2ED PUSH2 0x5E8 CALLDATASIZE PUSH1 0x4 PUSH2 0x4795 JUMP JUMPDEST PUSH2 0x1900 JUMP JUMPDEST PUSH2 0x355 PUSH2 0x5FB CALLDATASIZE PUSH1 0x4 PUSH2 0x47B2 JUMP JUMPDEST PUSH2 0x1A24 JUMP JUMPDEST PUSH2 0x2ED PUSH2 0x60E CALLDATASIZE PUSH1 0x4 PUSH2 0x47E7 JUMP JUMPDEST PUSH2 0x1B40 JUMP JUMPDEST PUSH2 0x2ED PUSH2 0x621 CALLDATASIZE PUSH1 0x4 PUSH2 0x4826 JUMP JUMPDEST PUSH2 0x1B8D JUMP JUMPDEST PUSH2 0x639 PUSH2 0x634 CALLDATASIZE PUSH1 0x4 PUSH2 0x40D1 JUMP JUMPDEST PUSH2 0x1BBF JUMP JUMPDEST PUSH1 0x40 MLOAD PUSH2 0x2D1 SWAP2 SWAP1 PUSH2 0x48DE JUMP JUMPDEST PUSH2 0x659 PUSH2 0x654 CALLDATASIZE PUSH1 0x4 PUSH2 0x40D1 JUMP JUMPDEST PUSH2 0x1C4E JUMP JUMPDEST PUSH1 0x40 MLOAD PUSH2 0x2D1 SWAP3 SWAP2 SWAP1 PUSH2 0x48F1 JUMP JUMPDEST PUSH2 0x2F7 PUSH2 0x675 CALLDATASIZE PUSH1 0x4 PUSH2 0x40D1 JUMP JUMPDEST PUSH2 0x1D32 JUMP JUMPDEST PUSH2 0x2ED PUSH2 0x688 CALLDATASIZE PUSH1 0x4 PUSH2 0x4051 JUMP JUMPDEST PUSH2 0x1D62 JUMP JUMPDEST PUSH2 0x355 PUSH2 0x69B CALLDATASIZE PUSH1 0x4 PUSH2 0x47B2 JUMP JUMPDEST PUSH2 0x1DAB JUMP JUMPDEST PUSH2 0x2ED PUSH2 0x6AE CALLDATASIZE PUSH1 0x4 PUSH2 0x41A5 JUMP JUMPDEST PUSH2 0x1EA2 JUMP JUMPDEST PUSH2 0x2C5 PUSH2 0x6C1 CALLDATASIZE PUSH1 0x4 PUSH2 0x491F JUMP JUMPDEST PUSH2 0x1ED4 JUMP JUMPDEST PUSH2 0x2ED PUSH2 0x6D4 CALLDATASIZE PUSH1 0x4 PUSH2 0x491F JUMP JUMPDEST PUSH2 0x1F02 JUMP JUMPDEST PUSH2 0x2ED PUSH2 0x6E7 CALLDATASIZE PUSH1 0x4 PUSH2 0x4051 JUMP JUMPDEST PUSH2 0x1F4C JUMP JUMPDEST PUSH2 0x3D4 PUSH2 0x6FA CALLDATASIZE PUSH1 0x4 PUSH2 0x436A JUMP JUMPDEST PUSH2 0x1FE9 JUMP JUMPDEST PUSH1 0x0 PUSH2 0x70A DUP3 PUSH2 0x2079 JUMP JUMPDEST DUP1 PUSH2 0x719 JUMPI POP PUSH2 0x719 DUP3 PUSH2 0x20BE JUMP JUMPDEST DUP1 PUSH2 0x728 JUMPI POP PUSH2 0x728 DUP3 PUSH2 0x20FE JUMP JUMPDEST SWAP3 SWAP2 POP POP JUMP JUMPDEST CALLER PUSH2 0x737 PUSH2 0x17C9 JUMP JUMPDEST PUSH1 0x1 PUSH1 0x1 PUSH1 0xA0 SHL SUB AND EQ DUP1 PUSH2 0x752 JUMPI POP PUSH2 0x752 PUSH1 0x66 CALLER PUSH2 0x2123 JUMP JUMPDEST PUSH2 0x777 JUMPI PUSH1 0x40 MLOAD PUSH3 0x461BCD PUSH1 0xE5 SHL DUP2 MSTORE PUSH1 0x4 ADD PUSH2 0x76E SWAP1 PUSH2 0x494D JUMP JUMPDEST PUSH1 0x40 MLOAD DUP1 SWAP2 SUB SWAP1 REVERT JUMPDEST PUSH2 0x780 DUP2 PUSH2 0x2148 JUMP JUMPDEST POP JUMP JUMPDEST PUSH1 0x60 PUSH1 0x9A DUP1 SLOAD PUSH2 0x792 SWAP1 PUSH2 0x4991 JUMP JUMPDEST DUP1 PUSH1 0x1F ADD PUSH1 0x20 DUP1 SWAP2 DIV MUL PUSH1 0x20 ADD PUSH1 0x40 MLOAD SWAP1 DUP2 ADD PUSH1 0x40 MSTORE DUP1 SWAP3 SWAP2 SWAP1 DUP2 DUP2 MSTORE PUSH1 0x20 ADD DUP3 DUP1 SLOAD PUSH2 0x7BE SWAP1 PUSH2 0x4991 JUMP JUMPDEST DUP1 ISZERO PUSH2 0x80B JUMPI DUP1 PUSH1 0x1F LT PUSH2 0x7E0 JUMPI PUSH2 0x100 DUP1 DUP4 SLOAD DIV MUL DUP4 MSTORE SWAP2 PUSH1 0x20 ADD SWAP2 PUSH2 0x80B JUMP JUMPDEST DUP3 ADD SWAP2 SWAP1 PUSH1 0x0 MSTORE PUSH1 0x20 PUSH1 0x0 KECCAK256 SWAP1 JUMPDEST DUP2 SLOAD DUP2 MSTORE SWAP1 PUSH1 0x1 ADD SWAP1 PUSH1 0x20 ADD DUP1 DUP4 GT PUSH2 0x7EE JUMPI DUP3 SWAP1 SUB PUSH1 0x1F AND DUP3 ADD SWAP2 JUMPDEST POP POP POP POP POP SWAP1 POP SWAP1 JUMP JUMPDEST PUSH1 0x0 PUSH2 0x820 DUP3 PUSH2 0x223F JUMP JUMPDEST PUSH2 0x881 JUMPI PUSH1 0x40 MLOAD PUSH3 0x461BCD PUSH1 0xE5 SHL DUP2 MSTORE PUSH1 0x20 PUSH1 0x4 DUP3 ADD MSTORE PUSH1 0x2C PUSH1 0x24 DUP3 ADD MSTORE PUSH32 0x4552433732313A20617070726F76656420717565727920666F72206E6F6E6578 PUSH1 0x44 DUP3 ADD MSTORE PUSH12 0x34B9BA32B73A103A37B5B2B7 PUSH1 0xA1 SHL PUSH1 0x64 DUP3 ADD MSTORE PUSH1 0x84 ADD PUSH2 0x76E JUMP JUMPDEST POP PUSH1 0x0 SWAP1 DUP2 MSTORE PUSH1 0x9E PUSH1 0x20 MSTORE PUSH1 0x40 SWAP1 KECCAK256 SLOAD PUSH1 0x1 PUSH1 0x1 PUSH1 0xA0 SHL SUB AND SWAP1 JUMP JUMPDEST PUSH1 0x0 PUSH2 0x8A8 DUP3 PUSH2 0x1283 JUMP JUMPDEST SWAP1 POP DUP1 PUSH1 0x1 PUSH1 0x1 PUSH1 0xA0 SHL SUB AND DUP4 PUSH1 0x1 PUSH1 0x1 PUSH1 0xA0 SHL SUB AND SUB PUSH2 0x915 JUMPI PUSH1 0x40 MLOAD PUSH3 0x461BCD PUSH1 0xE5 SHL DUP2 MSTORE PUSH1 0x20 PUSH1 0x4 DUP3 ADD MSTORE PUSH1 0x21 PUSH1 0x24 DUP3 ADD MSTORE PUSH32 0x4552433732313A20617070726F76616C20746F2063757272656E74206F776E65 PUSH1 0x44 DUP3 ADD MSTORE PUSH1 0x39 PUSH1 0xF9 SHL PUSH1 0x64 DUP3 ADD MSTORE PUSH1 0x84 ADD PUSH2 0x76E JUMP JUMPDEST CALLER PUSH1 0x1 PUSH1 0x1 PUSH1 0xA0 SHL SUB DUP3 AND EQ DUP1 PUSH2 0x931 JUMPI POP PUSH2 0x931 DUP2 CALLER PUSH2 0x1ED4 JUMP JUMPDEST PUSH2 0x99E JUMPI PUSH1 0x40 MLOAD PUSH3 0x461BCD PUSH1 0xE5 SHL DUP2 MSTORE PUSH1 0x20 PUSH1 0x4 DUP3 ADD MSTORE PUSH1 0x38 PUSH1 0x24 DUP3 ADD MSTORE PUSH32 0x4552433732313A20617070726F76652063616C6C6572206973206E6F74206F77 PUSH1 0x44 DUP3 ADD MSTORE PUSH24 0x1B995C881B9BDC88185C1C1C9BDD995908199BDC88185B1B PUSH1 0x42 SHL PUSH1 0x64 DUP3 ADD MSTORE PUSH1 0x84 ADD PUSH2 0x76E JUMP JUMPDEST PUSH2 0x9A8 DUP4 DUP4 PUSH2 0x225C JUMP JUMPDEST POP POP POP JUMP JUMPDEST PUSH1 0x60 PUSH2 0x9B8 DUP3 PUSH2 0x223F JUMP JUMPDEST PUSH2 0x9D4 JUMPI PUSH1 0x40 MLOAD PUSH3 0x461BCD PUSH1 0xE5 SHL DUP2 MSTORE PUSH1 0x4 ADD PUSH2 0x76E SWAP1 PUSH2 0x49C5 JUMP JUMPDEST PUSH2 0x9DD DUP3 PUSH2 0x22CA JUMP JUMPDEST DUP1 SLOAD DUP1 PUSH1 0x20 MUL PUSH1 0x20 ADD PUSH1 0x40 MLOAD SWAP1 DUP2 ADD PUSH1 0x40 MSTORE DUP1 SWAP3 SWAP2 SWAP1 DUP2 DUP2 MSTORE PUSH1 0x20 ADD DUP3 DUP1 SLOAD DUP1 ISZERO PUSH2 0xA27 JUMPI PUSH1 0x20 MUL DUP3 ADD SWAP2 SWAP1 PUSH1 0x0 MSTORE PUSH1 0x20 PUSH1 0x0 KECCAK256 SWAP1 JUMPDEST DUP2 SLOAD DUP2 MSTORE PUSH1 0x20 ADD SWAP1 PUSH1 0x1 ADD SWAP1 DUP1 DUP4 GT PUSH2 0xA13 JUMPI JUMPDEST POP POP POP POP POP SWAP1 POP SWAP2 SWAP1 POP JUMP JUMPDEST CALLER PUSH2 0xA3C PUSH2 0x17C9 JUMP JUMPDEST PUSH1 0x1 PUSH1 0x1 PUSH1 0xA0 SHL SUB AND EQ DUP1 PUSH2 0xA57 JUMPI POP PUSH2 0xA57 PUSH1 0x66 CALLER PUSH2 0x2123 JUMP JUMPDEST PUSH2 0xA73 JUMPI PUSH1 0x40 MLOAD PUSH3 0x461BCD PUSH1 0xE5 SHL DUP2 MSTORE PUSH1 0x4 ADD PUSH2 0x76E SWAP1 PUSH2 0x494D JUMP JUMPDEST PUSH2 0x9A8 DUP4 DUP4 DUP4 PUSH2 0x2356 JUMP JUMPDEST CALLER PUSH2 0xA87 PUSH2 0x17C9 JUMP JUMPDEST PUSH1 0x1 PUSH1 0x1 PUSH1 0xA0 SHL SUB AND EQ DUP1 PUSH2 0xAA2 JUMPI POP PUSH2 0xAA2 PUSH1 0x66 CALLER PUSH2 0x2123 JUMP JUMPDEST PUSH2 0xABE JUMPI PUSH1 0x40 MLOAD PUSH3 0x461BCD PUSH1 0xE5 SHL DUP2 MSTORE PUSH1 0x4 ADD PUSH2 0x76E SWAP1 PUSH2 0x494D JUMP JUMPDEST PUSH2 0xAC7 DUP6 PUSH2 0x223F JUMP JUMPDEST PUSH2 0xAE3 JUMPI PUSH1 0x40 MLOAD PUSH3 0x461BCD PUSH1 0xE5 SHL DUP2 MSTORE PUSH1 0x4 ADD PUSH2 0x76E SWAP1 PUSH2 0x49C5 JUMP JUMPDEST PUSH2 0xAF0 DUP6 DUP6 DUP6 DUP6 DUP6 PUSH2 0x23A5 JUMP JUMPDEST POP POP POP POP POP JUMP JUMPDEST PUSH1 0x0 PUSH2 0xB02 DUP3 PUSH2 0x223F JUMP JUMPDEST PUSH2 0xB1E JUMPI PUSH1 0x40 MLOAD PUSH3 0x461BCD PUSH1 0xE5 SHL DUP2 MSTORE PUSH1 0x4 ADD PUSH2 0x76E SWAP1 PUSH2 0x49C5 JUMP JUMPDEST PUSH2 0x728 DUP3 PUSH2 0x24A4 JUMP JUMPDEST PUSH2 0xB31 CALLER DUP3 PUSH2 0x2531 JUMP JUMPDEST PUSH2 0xB4D JUMPI PUSH1 0x40 MLOAD PUSH3 0x461BCD PUSH1 0xE5 SHL DUP2 MSTORE PUSH1 0x4 ADD PUSH2 0x76E SWAP1 PUSH2 0x49F0 JUMP JUMPDEST PUSH2 0x9A8 DUP4 DUP4 DUP4 PUSH2 0x25FB JUMP JUMPDEST PUSH1 0x0 DUP2 PUSH1 0x1 PUSH1 0x1 PUSH1 0xA0 SHL SUB AND PUSH2 0xB6C PUSH2 0x17C9 JUMP JUMPDEST PUSH1 0x1 PUSH1 0x1 PUSH1 0xA0 SHL SUB AND EQ DUP1 PUSH2 0x728 JUMPI POP PUSH2 0x728 PUSH1 0x66 DUP4 PUSH2 0x2123 JUMP JUMPDEST PUSH1 0x0 PUSH1 0x2 PUSH1 0x65 SLOAD SUB PUSH2 0xBAB JUMPI PUSH1 0x40 MLOAD PUSH3 0x461BCD PUSH1 0xE5 SHL DUP2 MSTORE PUSH1 0x4 ADD PUSH2 0x76E SWAP1 PUSH2 0x4A41 JUMP JUMPDEST PUSH1 0x2 PUSH1 0x65 SSTORE PUSH2 0xBBB PUSH1 0xCD CALLER PUSH2 0x2123 JUMP JUMPDEST PUSH2 0xBD7 JUMPI PUSH1 0x40 MLOAD PUSH3 0x461BCD PUSH1 0xE5 SHL DUP2 MSTORE PUSH1 0x4 ADD PUSH2 0x76E SWAP1 PUSH2 0x4A78 JUMP JUMPDEST PUSH2 0xBF0 DUP3 PUSH1 0x40 MLOAD DUP1 PUSH1 0x20 ADD PUSH1 0x40 MSTORE DUP1 PUSH1 0x0 DUP2 MSTORE POP PUSH2 0x2794 JUMP JUMPDEST PUSH1 0x1 PUSH1 0x65 SSTORE SWAP3 SWAP2 POP POP JUMP JUMPDEST PUSH1 0x0 DUP1 PUSH2 0xC07 DUP5 PUSH2 0x223F JUMP JUMPDEST PUSH2 0xC23 JUMPI PUSH1 0x40 MLOAD PUSH3 0x461BCD PUSH1 0xE5 SHL DUP2 MSTORE PUSH1 0x4 ADD PUSH2 0x76E SWAP1 PUSH2 0x49C5 JUMP JUMPDEST PUSH2 0xC2D DUP5 DUP5 PUSH2 0x2807 JUMP JUMPDEST SWAP2 POP SWAP2 POP JUMPDEST SWAP3 POP SWAP3 SWAP1 POP JUMP JUMPDEST CALLER PUSH2 0xC42 PUSH2 0x17C9 JUMP JUMPDEST PUSH1 0x1 PUSH1 0x1 PUSH1 0xA0 SHL SUB AND EQ PUSH2 0xC68 JUMPI PUSH1 0x40 MLOAD PUSH3 0x461BCD PUSH1 0xE5 SHL DUP2 MSTORE PUSH1 0x4 ADD PUSH2 0x76E SWAP1 PUSH2 0x4AAE JUMP JUMPDEST PUSH2 0xC73 PUSH1 0x66 DUP3 PUSH2 0x2123 JUMP JUMPDEST ISZERO PUSH2 0x780 JUMPI PUSH1 0x40 MLOAD CALLER SWAP1 PUSH1 0x1 PUSH1 0x1 PUSH1 0xA0 SHL SUB DUP4 AND SWAP1 PUSH32 0x7C0C3C84C67C85FCAC635147348BFE374C24A1A93D0366D1CFE9D8853CBF89D5 SWAP1 PUSH1 0x0 SWAP1 LOG3 PUSH2 0xCB9 PUSH1 0x66 DUP3 PUSH2 0x28F1 JUMP JUMPDEST POP POP JUMP JUMPDEST CALLER PUSH2 0xCC6 PUSH2 0x17C9 JUMP JUMPDEST PUSH1 0x1 PUSH1 0x1 PUSH1 0xA0 SHL SUB AND EQ DUP1 PUSH2 0xCE1 JUMPI POP PUSH2 0xCE1 PUSH1 0x66 CALLER PUSH2 0x2123 JUMP JUMPDEST PUSH2 0xCFD JUMPI PUSH1 0x40 MLOAD PUSH3 0x461BCD PUSH1 0xE5 SHL DUP2 MSTORE PUSH1 0x4 ADD PUSH2 0x76E SWAP1 PUSH2 0x494D JUMP JUMPDEST PUSH2 0xCB9 DUP3 DUP3 DUP1 DUP1 PUSH1 0x1F ADD PUSH1 0x20 DUP1 SWAP2 DIV MUL PUSH1 0x20 ADD PUSH1 0x40 MLOAD SWAP1 DUP2 ADD PUSH1 0x40 MSTORE DUP1 SWAP4 SWAP3 SWAP2 SWAP1 DUP2 DUP2 MSTORE PUSH1 0x20 ADD DUP4 DUP4 DUP1 DUP3 DUP5 CALLDATACOPY PUSH1 0x0 SWAP3 ADD SWAP2 SWAP1 SWAP2 MSTORE POP PUSH2 0x2906 SWAP3 POP POP POP JUMP JUMPDEST CALLER PUSH2 0xD45 PUSH2 0x17C9 JUMP JUMPDEST PUSH1 0x1 PUSH1 0x1 PUSH1 0xA0 SHL SUB AND EQ DUP1 PUSH2 0xD60 JUMPI POP PUSH2 0xD60 PUSH1 0x66 CALLER PUSH2 0x2123 JUMP JUMPDEST PUSH2 0xD7C JUMPI PUSH1 0x40 MLOAD PUSH3 0x461BCD PUSH1 0xE5 SHL DUP2 MSTORE PUSH1 0x4 ADD PUSH2 0x76E SWAP1 PUSH2 0x494D JUMP JUMPDEST DUP3 PUSH2 0xD88 PUSH1 0xCF DUP3 PUSH2 0x2123 JUMP JUMPDEST ISZERO PUSH2 0xDA5 JUMPI PUSH1 0x40 MLOAD PUSH3 0x461BCD PUSH1 0xE5 SHL DUP2 MSTORE PUSH1 0x4 ADD PUSH2 0x76E SWAP1 PUSH2 0x4AE3 JUMP JUMPDEST PUSH2 0xDB2 DUP5 DUP5 DUP5 PUSH1 0x0 PUSH2 0x291F JUMP JUMPDEST POP POP POP POP JUMP JUMPDEST PUSH1 0x60 PUSH2 0xDC4 PUSH1 0x66 PUSH2 0x2A59 JUMP JUMPDEST PUSH1 0x1 PUSH1 0x1 PUSH1 0x40 SHL SUB DUP2 GT ISZERO PUSH2 0xDDB JUMPI PUSH2 0xDDB PUSH2 0x4519 JUMP JUMPDEST PUSH1 0x40 MLOAD SWAP1 DUP1 DUP3 MSTORE DUP1 PUSH1 0x20 MUL PUSH1 0x20 ADD DUP3 ADD PUSH1 0x40 MSTORE DUP1 ISZERO PUSH2 0xE04 JUMPI DUP2 PUSH1 0x20 ADD PUSH1 0x20 DUP3 MUL DUP1 CALLDATASIZE DUP4 CALLDATACOPY ADD SWAP1 POP JUMPDEST POP SWAP1 POP PUSH1 0x0 JUMPDEST PUSH2 0xE14 PUSH1 0x66 PUSH2 0x2A59 JUMP JUMPDEST DUP2 LT ISZERO PUSH2 0xE62 JUMPI PUSH2 0xE26 PUSH1 0x66 DUP3 PUSH2 0x2A63 JUMP JUMPDEST DUP3 DUP3 DUP2 MLOAD DUP2 LT PUSH2 0xE38 JUMPI PUSH2 0xE38 PUSH2 0x4B12 JUMP JUMPDEST PUSH1 0x1 PUSH1 0x1 PUSH1 0xA0 SHL SUB SWAP1 SWAP3 AND PUSH1 0x20 SWAP3 DUP4 MUL SWAP2 SWAP1 SWAP2 ADD SWAP1 SWAP2 ADD MSTORE DUP1 PUSH2 0xE5A DUP2 PUSH2 0x4B3E JUMP JUMPDEST SWAP2 POP POP PUSH2 0xE0A JUMP JUMPDEST POP SWAP1 JUMP JUMPDEST CALLER PUSH2 0xE6F PUSH2 0x17C9 JUMP JUMPDEST PUSH1 0x1 PUSH1 0x1 PUSH1 0xA0 SHL SUB AND EQ DUP1 PUSH2 0xE8A JUMPI POP PUSH2 0xE8A PUSH1 0x66 CALLER PUSH2 0x2123 JUMP JUMPDEST PUSH2 0xEA6 JUMPI PUSH1 0x40 MLOAD PUSH3 0x461BCD PUSH1 0xE5 SHL DUP2 MSTORE PUSH1 0x4 ADD PUSH2 0x76E SWAP1 PUSH2 0x494D JUMP JUMPDEST PUSH2 0xDB2 ADDRESS DUP6 DUP6 DUP6 DUP6 PUSH2 0x2A6F JUMP JUMPDEST PUSH1 0x60 PUSH1 0x2 PUSH1 0x65 SLOAD SUB PUSH2 0xED7 JUMPI PUSH1 0x40 MLOAD PUSH3 0x461BCD PUSH1 0xE5 SHL DUP2 MSTORE PUSH1 0x4 ADD PUSH2 0x76E SWAP1 PUSH2 0x4A41 JUMP JUMPDEST PUSH1 0x2 PUSH1 0x65 SSTORE PUSH2 0xEE7 PUSH1 0xCD CALLER PUSH2 0x2123 JUMP JUMPDEST PUSH2 0xF03 JUMPI PUSH1 0x40 MLOAD PUSH3 0x461BCD PUSH1 0xE5 SHL DUP2 MSTORE PUSH1 0x4 ADD PUSH2 0x76E SWAP1 PUSH2 0x4A78 JUMP JUMPDEST DUP2 PUSH1 0x1 PUSH1 0x1 PUSH1 0x40 SHL SUB DUP2 GT ISZERO PUSH2 0xF1B JUMPI PUSH2 0xF1B PUSH2 0x4519 JUMP JUMPDEST PUSH1 0x40 MLOAD SWAP1 DUP1 DUP3 MSTORE DUP1 PUSH1 0x20 MUL PUSH1 0x20 ADD DUP3 ADD PUSH1 0x40 MSTORE DUP1 ISZERO PUSH2 0xF44 JUMPI DUP2 PUSH1 0x20 ADD PUSH1 0x20 DUP3 MUL DUP1 CALLDATASIZE DUP4 CALLDATACOPY ADD SWAP1 POP JUMPDEST POP SWAP1 POP PUSH1 0x0 JUMPDEST DUP3 DUP2 LT ISZERO PUSH2 0xFE3 JUMPI PUSH2 0xFB4 DUP6 DUP6 DUP6 DUP5 DUP2 DUP2 LT PUSH2 0xF68 JUMPI PUSH2 0xF68 PUSH2 0x4B12 JUMP JUMPDEST SWAP1 POP PUSH1 0x20 MUL DUP2 ADD SWAP1 PUSH2 0xF7A SWAP2 SWAP1 PUSH2 0x4B57 JUMP JUMPDEST DUP1 DUP1 PUSH1 0x1F ADD PUSH1 0x20 DUP1 SWAP2 DIV MUL PUSH1 0x20 ADD PUSH1 0x40 MLOAD SWAP1 DUP2 ADD PUSH1 0x40 MSTORE DUP1 SWAP4 SWAP3 SWAP2 SWAP1 DUP2 DUP2 MSTORE PUSH1 0x20 ADD DUP4 DUP4 DUP1 DUP3 DUP5 CALLDATACOPY PUSH1 0x0 SWAP3 ADD SWAP2 SWAP1 SWAP2 MSTORE POP PUSH2 0x2794 SWAP3 POP POP POP JUMP JUMPDEST DUP3 DUP3 DUP2 MLOAD DUP2 LT PUSH2 0xFC6 JUMPI PUSH2 0xFC6 PUSH2 0x4B12 JUMP JUMPDEST PUSH1 0x20 SWAP1 DUP2 MUL SWAP2 SWAP1 SWAP2 ADD ADD MSTORE DUP1 PUSH2 0xFDB DUP2 PUSH2 0x4B3E JUMP JUMPDEST SWAP2 POP POP PUSH2 0xF4A JUMP JUMPDEST POP PUSH1 0x1 PUSH1 0x65 SSTORE SWAP4 SWAP3 POP POP POP JUMP JUMPDEST PUSH2 0xFFB PUSH1 0xCD CALLER PUSH2 0x2123 JUMP JUMPDEST PUSH2 0x1017 JUMPI PUSH1 0x40 MLOAD PUSH3 0x461BCD PUSH1 0xE5 SHL DUP2 MSTORE PUSH1 0x4 ADD PUSH2 0x76E SWAP1 PUSH2 0x4A78 JUMP JUMPDEST PUSH2 0xCB9 DUP3 DUP3 PUSH1 0x0 PUSH2 0x2BD5 JUMP JUMPDEST CALLER PUSH2 0x102C PUSH2 0x17C9 JUMP JUMPDEST PUSH1 0x1 PUSH1 0x1 PUSH1 0xA0 SHL SUB AND EQ DUP1 PUSH2 0x1047 JUMPI POP PUSH2 0x1047 PUSH1 0x66 CALLER PUSH2 0x2123 JUMP JUMPDEST PUSH2 0x1063 JUMPI PUSH1 0x40 MLOAD PUSH3 0x461BCD PUSH1 0xE5 SHL DUP2 MSTORE PUSH1 0x4 ADD PUSH2 0x76E SWAP1 PUSH2 0x494D JUMP JUMPDEST DUP4 PUSH2 0x106F PUSH1 0xCF DUP3 PUSH2 0x2123 JUMP JUMPDEST ISZERO PUSH2 0x108C JUMPI PUSH1 0x40 MLOAD PUSH3 0x461BCD PUSH1 0xE5 SHL DUP2 MSTORE PUSH1 0x4 ADD PUSH2 0x76E SWAP1 PUSH2 0x4AE3 JUMP JUMPDEST PUSH2 0xAF0 DUP6 DUP6 DUP6 DUP6 PUSH2 0x291F JUMP JUMPDEST PUSH2 0x9A8 DUP4 DUP4 DUP4 PUSH1 0x40 MLOAD DUP1 PUSH1 0x20 ADD PUSH1 0x40 MSTORE DUP1 PUSH1 0x0 DUP2 MSTORE POP PUSH2 0x1B8D JUMP JUMPDEST PUSH1 0x2 PUSH1 0x65 SLOAD SUB PUSH2 0x10D5 JUMPI PUSH1 0x40 MLOAD PUSH3 0x461BCD PUSH1 0xE5 SHL DUP2 MSTORE PUSH1 0x4 ADD PUSH2 0x76E SWAP1 PUSH2 0x4A41 JUMP JUMPDEST PUSH1 0x2 PUSH1 0x65 SSTORE PUSH2 0x10E4 CALLER DUP3 PUSH2 0x2531 JUMP JUMPDEST PUSH2 0x1130 JUMPI PUSH1 0x40 MLOAD PUSH3 0x461BCD PUSH1 0xE5 SHL DUP2 MSTORE PUSH1 0x20 PUSH1 0x4 DUP3 ADD DUP2 SWAP1 MSTORE PUSH1 0x24 DUP3 ADD MSTORE PUSH32 0x43616C6C6572206973206E6F74206F776E6572206E6F7220617070726F766564 PUSH1 0x44 DUP3 ADD MSTORE PUSH1 0x64 ADD PUSH2 0x76E JUMP JUMPDEST PUSH1 0x0 PUSH2 0x113B DUP3 PUSH2 0x1283 JUMP JUMPDEST SWAP1 POP PUSH2 0x1146 DUP3 PUSH2 0x2C12 JUMP JUMPDEST PUSH2 0x1150 DUP2 DUP4 PUSH2 0x2CA7 JUMP JUMPDEST POP POP PUSH1 0x1 PUSH1 0x65 SSTORE JUMP JUMPDEST PUSH1 0x0 SLOAD PUSH2 0x100 SWAP1 DIV PUSH1 0xFF AND DUP1 PUSH2 0x1172 JUMPI POP PUSH1 0x0 SLOAD PUSH1 0xFF AND ISZERO JUMPDEST PUSH2 0x118E JUMPI PUSH1 0x40 MLOAD PUSH3 0x461BCD PUSH1 0xE5 SHL DUP2 MSTORE PUSH1 0x4 ADD PUSH2 0x76E SWAP1 PUSH2 0x4B9D JUMP JUMPDEST PUSH1 0x0 SLOAD PUSH2 0x100 SWAP1 DIV PUSH1 0xFF AND ISZERO DUP1 ISZERO PUSH2 0x11B0 JUMPI PUSH1 0x0 DUP1 SLOAD PUSH2 0xFFFF NOT AND PUSH2 0x101 OR SWAP1 SSTORE JUMPDEST PUSH2 0x11BA DUP4 DUP4 PUSH2 0x2DBB JUMP JUMPDEST PUSH2 0x11C2 PUSH2 0x2E2C JUMP JUMPDEST DUP1 ISZERO PUSH2 0x9A8 JUMPI PUSH1 0x0 DUP1 SLOAD PUSH2 0xFF00 NOT AND SWAP1 SSTORE POP POP POP JUMP JUMPDEST PUSH2 0x11E3 PUSH1 0xCD CALLER PUSH2 0x2123 JUMP JUMPDEST PUSH2 0x11FF JUMPI PUSH1 0x40 MLOAD PUSH3 0x461BCD PUSH1 0xE5 SHL DUP2 MSTORE PUSH1 0x4 ADD PUSH2 0x76E SWAP1 PUSH2 0x4A78 JUMP JUMPDEST DUP3 MLOAD DUP2 EQ PUSH2 0x121F JUMPI PUSH1 0x40 MLOAD PUSH3 0x461BCD PUSH1 0xE5 SHL DUP2 MSTORE PUSH1 0x4 ADD PUSH2 0x76E SWAP1 PUSH2 0x4BEB JUMP JUMPDEST PUSH1 0x0 JUMPDEST DUP4 MLOAD DUP2 LT ISZERO PUSH2 0xDB2 JUMPI PUSH2 0x1271 DUP5 DUP3 DUP2 MLOAD DUP2 LT PUSH2 0x1240 JUMPI PUSH2 0x1240 PUSH2 0x4B12 JUMP JUMPDEST PUSH1 0x20 MUL PUSH1 0x20 ADD ADD MLOAD DUP5 DUP5 DUP5 DUP2 DUP2 LT PUSH2 0x125A JUMPI PUSH2 0x125A PUSH2 0x4B12 JUMP JUMPDEST SWAP1 POP PUSH1 0x20 MUL DUP2 ADD SWAP1 PUSH2 0x126C SWAP2 SWAP1 PUSH2 0x4B57 JUMP JUMPDEST PUSH2 0x2EA7 JUMP JUMPDEST DUP1 PUSH2 0x127B DUP2 PUSH2 0x4B3E JUMP JUMPDEST SWAP2 POP POP PUSH2 0x1222 JUMP JUMPDEST PUSH1 0x0 DUP2 DUP2 MSTORE PUSH1 0x9C PUSH1 0x20 MSTORE PUSH1 0x40 DUP2 KECCAK256 SLOAD PUSH1 0x1 PUSH1 0x1 PUSH1 0xA0 SHL SUB AND DUP1 PUSH2 0x728 JUMPI PUSH1 0x40 MLOAD PUSH3 0x461BCD PUSH1 0xE5 SHL DUP2 MSTORE PUSH1 0x20 PUSH1 0x4 DUP3 ADD MSTORE PUSH1 0x29 PUSH1 0x24 DUP3 ADD MSTORE PUSH32 0x4552433732313A206F776E657220717565727920666F72206E6F6E6578697374 PUSH1 0x44 DUP3 ADD MSTORE PUSH9 0x32B73A103A37B5B2B7 PUSH1 0xB9 SHL PUSH1 0x64 DUP3 ADD MSTORE PUSH1 0x84 ADD PUSH2 0x76E JUMP JUMPDEST PUSH2 0x1305 PUSH1 0xCD CALLER PUSH2 0x2123 JUMP JUMPDEST PUSH2 0x1321 JUMPI PUSH1 0x40 MLOAD PUSH3 0x461BCD PUSH1 0xE5 SHL DUP2 MSTORE PUSH1 0x4 ADD PUSH2 0x76E SWAP1 PUSH2 0x4A78 JUMP JUMPDEST PUSH2 0xCB9 DUP3 DUP3 PUSH2 0x2EDD JUMP JUMPDEST CALLER PUSH2 0x1334 PUSH2 0x17C9 JUMP JUMPDEST PUSH1 0x1 PUSH1 0x1 PUSH1 0xA0 SHL SUB AND EQ PUSH2 0x135A JUMPI PUSH1 0x40 MLOAD PUSH3 0x461BCD PUSH1 0xE5 SHL DUP2 MSTORE PUSH1 0x4 ADD PUSH2 0x76E SWAP1 PUSH2 0x4AAE JUMP JUMPDEST PUSH2 0x1365 PUSH1 0x66 DUP3 PUSH2 0x2123 JUMP JUMPDEST PUSH2 0x780 JUMPI PUSH1 0x40 MLOAD CALLER SWAP1 PUSH1 0x1 PUSH1 0x1 PUSH1 0xA0 SHL SUB DUP4 AND SWAP1 PUSH32 0x7E1A1A08D52E4BA0E21554733D66165FD5151F99460116223D9E3A608EEC5CB1 SWAP1 PUSH1 0x0 SWAP1 LOG3 PUSH2 0xCB9 PUSH1 0x66 DUP3 PUSH2 0x2EF7 JUMP JUMPDEST PUSH1 0x0 PUSH1 0x1 PUSH1 0x1 PUSH1 0xA0 SHL SUB DUP3 AND PUSH2 0x1415 JUMPI PUSH1 0x40 MLOAD PUSH3 0x461BCD PUSH1 0xE5 SHL DUP2 MSTORE PUSH1 0x20 PUSH1 0x4 DUP3 ADD MSTORE PUSH1 0x2A PUSH1 0x24 DUP3 ADD MSTORE PUSH32 0x4552433732313A2062616C616E636520717565727920666F7220746865207A65 PUSH1 0x44 DUP3 ADD MSTORE PUSH10 0x726F2061646472657373 PUSH1 0xB0 SHL PUSH1 0x64 DUP3 ADD MSTORE PUSH1 0x84 ADD PUSH2 0x76E JUMP JUMPDEST POP PUSH1 0x1 PUSH1 0x1 PUSH1 0xA0 SHL SUB AND PUSH1 0x0 SWAP1 DUP2 MSTORE PUSH1 0x9D PUSH1 0x20 MSTORE PUSH1 0x40 SWAP1 KECCAK256 SLOAD SWAP1 JUMP JUMPDEST CALLER PUSH2 0x143A PUSH2 0x17C9 JUMP JUMPDEST PUSH1 0x1 PUSH1 0x1 PUSH1 0xA0 SHL SUB AND EQ PUSH2 0x1460 JUMPI PUSH1 0x40 MLOAD PUSH3 0x461BCD PUSH1 0xE5 SHL DUP2 MSTORE PUSH1 0x4 ADD PUSH2 0x76E SWAP1 PUSH2 0x4AAE JUMP JUMPDEST PUSH2 0x146A PUSH1 0x0 PUSH2 0x2F0C JUMP JUMPDEST JUMP JUMPDEST PUSH1 0x0 PUSH1 0x2 PUSH1 0x65 SLOAD SUB PUSH2 0x1490 JUMPI PUSH1 0x40 MLOAD PUSH3 0x461BCD PUSH1 0xE5 SHL DUP2 MSTORE PUSH1 0x4 ADD PUSH2 0x76E SWAP1 PUSH2 0x4A41 JUMP JUMPDEST PUSH1 0x2 PUSH1 0x65 SSTORE CALLER PUSH2 0x149E PUSH2 0x17C9 JUMP JUMPDEST PUSH1 0x1 PUSH1 0x1 PUSH1 0xA0 SHL SUB AND EQ DUP1 PUSH2 0x14B9 JUMPI POP PUSH2 0x14B9 PUSH1 0x66 CALLER PUSH2 0x2123 JUMP JUMPDEST PUSH2 0x14D5 JUMPI PUSH1 0x40 MLOAD PUSH3 0x461BCD PUSH1 0xE5 SHL DUP2 MSTORE PUSH1 0x4 ADD PUSH2 0x76E SWAP1 PUSH2 0x494D JUMP JUMPDEST PUSH2 0xBF0 DUP3 PUSH1 0x40 MLOAD DUP1 PUSH1 0x20 ADD PUSH1 0x40 MSTORE DUP1 PUSH1 0x0 DUP2 MSTORE POP PUSH2 0x2F5E JUMP JUMPDEST PUSH1 0x0 PUSH1 0x2 PUSH1 0x65 SLOAD SUB PUSH2 0x1512 JUMPI PUSH1 0x40 MLOAD PUSH3 0x461BCD PUSH1 0xE5 SHL DUP2 MSTORE PUSH1 0x4 ADD PUSH2 0x76E SWAP1 PUSH2 0x4A41 JUMP JUMPDEST PUSH1 0x2 PUSH1 0x65 SSTORE CALLER PUSH2 0x1520 PUSH2 0x17C9 JUMP JUMPDEST PUSH1 0x1 PUSH1 0x1 PUSH1 0xA0 SHL SUB AND EQ DUP1 PUSH2 0x153B JUMPI POP PUSH2 0x153B PUSH1 0x66 CALLER PUSH2 0x2123 JUMP JUMPDEST PUSH2 0x1557 JUMPI PUSH1 0x40 MLOAD PUSH3 0x461BCD PUSH1 0xE5 SHL DUP2 MSTORE PUSH1 0x4 ADD PUSH2 0x76E SWAP1 PUSH2 0x494D JUMP JUMPDEST PUSH2 0x1597 DUP5 DUP5 DUP5 DUP1 DUP1 PUSH1 0x1F ADD PUSH1 0x20 DUP1 SWAP2 DIV MUL PUSH1 0x20 ADD PUSH1 0x40 MLOAD SWAP1 DUP2 ADD PUSH1 0x40 MSTORE DUP1 SWAP4 SWAP3 SWAP2 SWAP1 DUP2 DUP2 MSTORE PUSH1 0x20 ADD DUP4 DUP4 DUP1 DUP3 DUP5 CALLDATACOPY PUSH1 0x0 SWAP3 ADD SWAP2 SWAP1 SWAP2 MSTORE POP PUSH2 0x2F5E SWAP3 POP POP POP JUMP JUMPDEST PUSH1 0x1 PUSH1 0x65 SSTORE SWAP5 SWAP4 POP POP POP POP JUMP JUMPDEST PUSH1 0x60 PUSH1 0x2 PUSH1 0x65 SLOAD SUB PUSH2 0x15C8 JUMPI PUSH1 0x40 MLOAD PUSH3 0x461BCD PUSH1 0xE5 SHL DUP2 MSTORE PUSH1 0x4 ADD PUSH2 0x76E SWAP1 PUSH2 0x4A41 JUMP JUMPDEST PUSH1 0x2 PUSH1 0x65 SSTORE CALLER PUSH2 0x15D6 PUSH2 0x17C9 JUMP JUMPDEST PUSH1 0x1 PUSH1 0x1 PUSH1 0xA0 SHL SUB AND EQ DUP1 PUSH2 0x15F1 JUMPI POP PUSH2 0x15F1 PUSH1 0x66 CALLER PUSH2 0x2123 JUMP JUMPDEST PUSH2 0x160D JUMPI PUSH1 0x40 MLOAD PUSH3 0x461BCD PUSH1 0xE5 SHL DUP2 MSTORE PUSH1 0x4 ADD PUSH2 0x76E SWAP1 PUSH2 0x494D JUMP JUMPDEST DUP2 PUSH1 0x1 PUSH1 0x1 PUSH1 0x40 SHL SUB DUP2 GT ISZERO PUSH2 0x1625 JUMPI PUSH2 0x1625 PUSH2 0x4519 JUMP JUMPDEST PUSH1 0x40 MLOAD SWAP1 DUP1 DUP3 MSTORE DUP1 PUSH1 0x20 MUL PUSH1 0x20 ADD DUP3 ADD PUSH1 0x40 MSTORE DUP1 ISZERO PUSH2 0x164E JUMPI DUP2 PUSH1 0x20 ADD PUSH1 0x20 DUP3 MUL DUP1 CALLDATASIZE DUP4 CALLDATACOPY ADD SWAP1 POP JUMPDEST POP SWAP1 POP PUSH1 0x0 JUMPDEST DUP3 DUP2 LT ISZERO PUSH2 0xFE3 JUMPI PUSH2 0x16BE DUP6 DUP6 DUP6 DUP5 DUP2 DUP2 LT PUSH2 0x1672 JUMPI PUSH2 0x1672 PUSH2 0x4B12 JUMP JUMPDEST SWAP1 POP PUSH1 0x20 MUL DUP2 ADD SWAP1 PUSH2 0x1684 SWAP2 SWAP1 PUSH2 0x4B57 JUMP JUMPDEST DUP1 DUP1 PUSH1 0x1F ADD PUSH1 0x20 DUP1 SWAP2 DIV MUL PUSH1 0x20 ADD PUSH1 0x40 MLOAD SWAP1 DUP2 ADD PUSH1 0x40 MSTORE DUP1 SWAP4 SWAP3 SWAP2 SWAP1 DUP2 DUP2 MSTORE PUSH1 0x20 ADD DUP4 DUP4 DUP1 DUP3 DUP5 CALLDATACOPY PUSH1 0x0 SWAP3 ADD SWAP2 SWAP1 SWAP2 MSTORE POP PUSH2 0x2F5E SWAP3 POP POP POP JUMP JUMPDEST DUP3 DUP3 DUP2 MLOAD DUP2 LT PUSH2 0x16D0 JUMPI PUSH2 0x16D0 PUSH2 0x4B12 JUMP JUMPDEST PUSH1 0x20 SWAP1 DUP2 MUL SWAP2 SWAP1 SWAP2 ADD ADD MSTORE DUP1 PUSH2 0x16E5 DUP2 PUSH2 0x4B3E JUMP JUMPDEST SWAP2 POP POP PUSH2 0x1654 JUMP JUMPDEST PUSH2 0x16F8 PUSH1 0xCD CALLER PUSH2 0x2123 JUMP JUMPDEST PUSH2 0x1714 JUMPI PUSH1 0x40 MLOAD PUSH3 0x461BCD PUSH1 0xE5 SHL DUP2 MSTORE PUSH1 0x4 ADD PUSH2 0x76E SWAP1 PUSH2 0x4A78 JUMP JUMPDEST PUSH2 0x9A8 DUP4 DUP4 DUP4 PUSH2 0x2BD5 JUMP JUMPDEST PUSH1 0x60 PUSH2 0x172B PUSH1 0xCD PUSH2 0x2A59 JUMP JUMPDEST PUSH1 0x1 PUSH1 0x1 PUSH1 0x40 SHL SUB DUP2 GT ISZERO PUSH2 0x1742 JUMPI PUSH2 0x1742 PUSH2 0x4519 JUMP JUMPDEST PUSH1 0x40 MLOAD SWAP1 DUP1 DUP3 MSTORE DUP1 PUSH1 0x20 MUL PUSH1 0x20 ADD DUP3 ADD PUSH1 0x40 MSTORE DUP1 ISZERO PUSH2 0x176B JUMPI DUP2 PUSH1 0x20 ADD PUSH1 0x20 DUP3 MUL DUP1 CALLDATASIZE DUP4 CALLDATACOPY ADD SWAP1 POP JUMPDEST POP SWAP1 POP PUSH1 0x0 JUMPDEST PUSH2 0x177B PUSH1 0xCD PUSH2 0x2A59 JUMP JUMPDEST DUP2 LT ISZERO PUSH2 0xE62 JUMPI PUSH2 0x178D PUSH1 0xCD DUP3 PUSH2 0x2A63 JUMP JUMPDEST DUP3 DUP3 DUP2 MLOAD DUP2 LT PUSH2 0x179F JUMPI PUSH2 0x179F PUSH2 0x4B12 JUMP JUMPDEST PUSH1 0x1 PUSH1 0x1 PUSH1 0xA0 SHL SUB SWAP1 SWAP3 AND PUSH1 0x20 SWAP3 DUP4 MUL SWAP2 SWAP1 SWAP2 ADD SWAP1 SWAP2 ADD MSTORE DUP1 PUSH2 0x17C1 DUP2 PUSH2 0x4B3E JUMP JUMPDEST SWAP2 POP POP PUSH2 0x1771 JUMP JUMPDEST PUSH1 0x33 SLOAD PUSH1 0x1 PUSH1 0x1 PUSH1 0xA0 SHL SUB AND SWAP1 JUMP JUMPDEST PUSH1 0x60 PUSH1 0x9B DUP1 SLOAD PUSH2 0x792 SWAP1 PUSH2 0x4991 JUMP JUMPDEST CALLER PUSH2 0x17F0 PUSH2 0x17C9 JUMP JUMPDEST PUSH1 0x1 PUSH1 0x1 PUSH1 0xA0 SHL SUB AND EQ DUP1 PUSH2 0x180B JUMPI POP PUSH2 0x180B PUSH1 0x66 CALLER PUSH2 0x2123 JUMP JUMPDEST PUSH2 0x1827 JUMPI PUSH1 0x40 MLOAD PUSH3 0x461BCD PUSH1 0xE5 SHL DUP2 MSTORE PUSH1 0x4 ADD PUSH2 0x76E SWAP1 PUSH2 0x494D JUMP JUMPDEST PUSH2 0xCB9 DUP3 DUP3 PUSH2 0x2FA1 JUMP JUMPDEST PUSH2 0xCB9 CALLER DUP4 DUP4 PUSH2 0x2FBB JUMP JUMPDEST CALLER PUSH2 0x1845 PUSH2 0x17C9 JUMP JUMPDEST PUSH1 0x1 PUSH1 0x1 PUSH1 0xA0 SHL SUB AND EQ DUP1 PUSH2 0x1860 JUMPI POP PUSH2 0x1860 PUSH1 0x66 CALLER PUSH2 0x2123 JUMP JUMPDEST PUSH2 0x187C JUMPI PUSH1 0x40 MLOAD PUSH3 0x461BCD PUSH1 0xE5 SHL DUP2 MSTORE PUSH1 0x4 ADD PUSH2 0x76E SWAP1 PUSH2 0x494D JUMP JUMPDEST DUP3 MLOAD DUP2 EQ PUSH2 0x189C JUMPI PUSH1 0x40 MLOAD PUSH3 0x461BCD PUSH1 0xE5 SHL DUP2 MSTORE PUSH1 0x4 ADD PUSH2 0x76E SWAP1 PUSH2 0x4BEB JUMP JUMPDEST PUSH1 0x0 JUMPDEST DUP4 MLOAD DUP2 LT ISZERO PUSH2 0xDB2 JUMPI PUSH2 0x18EE DUP5 DUP3 DUP2 MLOAD DUP2 LT PUSH2 0x18BD JUMPI PUSH2 0x18BD PUSH2 0x4B12 JUMP JUMPDEST PUSH1 0x20 MUL PUSH1 0x20 ADD ADD MLOAD DUP5 DUP5 DUP5 DUP2 DUP2 LT PUSH2 0x18D7 JUMPI PUSH2 0x18D7 PUSH2 0x4B12 JUMP JUMPDEST SWAP1 POP PUSH1 0x20 MUL DUP2 ADD SWAP1 PUSH2 0x18E9 SWAP2 SWAP1 PUSH2 0x4B57 JUMP JUMPDEST PUSH2 0x2356 JUMP JUMPDEST DUP1 PUSH2 0x18F8 DUP2 PUSH2 0x4B3E JUMP JUMPDEST SWAP2 POP POP PUSH2 0x189F JUMP JUMPDEST PUSH2 0x190B PUSH1 0xCD CALLER PUSH2 0x2123 JUMP JUMPDEST PUSH2 0x1927 JUMPI PUSH1 0x40 MLOAD PUSH3 0x461BCD PUSH1 0xE5 SHL DUP2 MSTORE PUSH1 0x4 ADD PUSH2 0x76E SWAP1 PUSH2 0x4A78 JUMP JUMPDEST DUP1 ISZERO DUP1 PUSH2 0x1940 JUMPI POP PUSH2 0x1940 CALLER PUSH4 0x4CE6D511 PUSH1 0xE1 SHL PUSH2 0x3085 JUMP JUMPDEST PUSH2 0x19B2 JUMPI PUSH1 0x40 MLOAD PUSH3 0x461BCD PUSH1 0xE5 SHL DUP2 MSTORE PUSH1 0x20 PUSH1 0x4 DUP3 ADD MSTORE PUSH1 0x3F PUSH1 0x24 DUP3 ADD MSTORE PUSH32 0x457874656E73696F6E206D75737420696D706C656D656E742049455243373231 PUSH1 0x44 DUP3 ADD MSTORE PUSH32 0x43726561746F72457874656E73696F6E417070726F76655472616E7366657200 PUSH1 0x64 DUP3 ADD MSTORE PUSH1 0x84 ADD PUSH2 0x76E JUMP JUMPDEST CALLER PUSH1 0x0 SWAP1 DUP2 MSTORE PUSH1 0xD2 PUSH1 0x20 MSTORE PUSH1 0x40 SWAP1 KECCAK256 SLOAD PUSH1 0xFF AND ISZERO ISZERO DUP2 ISZERO ISZERO EQ PUSH2 0x780 JUMPI CALLER PUSH1 0x0 DUP2 DUP2 MSTORE PUSH1 0xD2 PUSH1 0x20 SWAP1 DUP2 MSTORE PUSH1 0x40 SWAP2 DUP3 SWAP1 KECCAK256 DUP1 SLOAD PUSH1 0xFF NOT AND DUP6 ISZERO ISZERO SWAP1 DUP2 OR SWAP1 SWAP2 SSTORE SWAP2 MLOAD SWAP2 DUP3 MSTORE PUSH32 0x72A7592283E2C2D1D56D21517FF6013325E0F55483F4828373FF4D98B0A1A36 SWAP2 ADD PUSH1 0x40 MLOAD DUP1 SWAP2 SUB SWAP1 LOG2 POP JUMP JUMPDEST PUSH1 0x60 PUSH1 0x2 PUSH1 0x65 SLOAD SUB PUSH2 0x1A48 JUMPI PUSH1 0x40 MLOAD PUSH3 0x461BCD PUSH1 0xE5 SHL DUP2 MSTORE PUSH1 0x4 ADD PUSH2 0x76E SWAP1 PUSH2 0x4A41 JUMP JUMPDEST PUSH1 0x2 PUSH1 0x65 SSTORE CALLER PUSH2 0x1A56 PUSH2 0x17C9 JUMP JUMPDEST PUSH1 0x1 PUSH1 0x1 PUSH1 0xA0 SHL SUB AND EQ DUP1 PUSH2 0x1A71 JUMPI POP PUSH2 0x1A71 PUSH1 0x66 CALLER PUSH2 0x2123 JUMP JUMPDEST PUSH2 0x1A8D JUMPI PUSH1 0x40 MLOAD PUSH3 0x461BCD PUSH1 0xE5 SHL DUP2 MSTORE PUSH1 0x4 ADD PUSH2 0x76E SWAP1 PUSH2 0x494D JUMP JUMPDEST DUP2 PUSH2 0xFFFF AND PUSH1 0x1 PUSH1 0x1 PUSH1 0x40 SHL SUB DUP2 GT ISZERO PUSH2 0x1AA9 JUMPI PUSH2 0x1AA9 PUSH2 0x4519 JUMP JUMPDEST PUSH1 0x40 MLOAD SWAP1 DUP1 DUP3 MSTORE DUP1 PUSH1 0x20 MUL PUSH1 0x20 ADD DUP3 ADD PUSH1 0x40 MSTORE DUP1 ISZERO PUSH2 0x1AD2 JUMPI DUP2 PUSH1 0x20 ADD PUSH1 0x20 DUP3 MUL DUP1 CALLDATASIZE DUP4 CALLDATACOPY ADD SWAP1 POP JUMPDEST POP SWAP1 POP PUSH1 0x0 JUMPDEST DUP3 PUSH2 0xFFFF AND DUP2 PUSH2 0xFFFF AND LT ISZERO PUSH2 0x1B34 JUMPI PUSH2 0x1B01 DUP5 PUSH1 0x40 MLOAD DUP1 PUSH1 0x20 ADD PUSH1 0x40 MSTORE DUP1 PUSH1 0x0 DUP2 MSTORE POP PUSH2 0x2F5E JUMP JUMPDEST DUP3 DUP3 PUSH2 0xFFFF AND DUP2 MLOAD DUP2 LT PUSH2 0x1B17 JUMPI PUSH2 0x1B17 PUSH2 0x4B12 JUMP JUMPDEST PUSH1 0x20 SWAP1 DUP2 MUL SWAP2 SWAP1 SWAP2 ADD ADD MSTORE DUP1 PUSH2 0x1B2C DUP2 PUSH2 0x4C12 JUMP JUMPDEST SWAP2 POP POP PUSH2 0x1AD8 JUMP JUMPDEST POP PUSH1 0x1 PUSH1 0x65 SSTORE SWAP3 SWAP2 POP POP JUMP JUMPDEST CALLER PUSH2 0x1B49 PUSH2 0x17C9 JUMP JUMPDEST PUSH1 0x1 PUSH1 0x1 PUSH1 0xA0 SHL SUB AND EQ DUP1 PUSH2 0x1B64 JUMPI POP PUSH2 0x1B64 PUSH1 0x66 CALLER PUSH2 0x2123 JUMP JUMPDEST PUSH2 0x1B80 JUMPI PUSH1 0x40 MLOAD PUSH3 0x461BCD PUSH1 0xE5 SHL DUP2 MSTORE PUSH1 0x4 ADD PUSH2 0x76E SWAP1 PUSH2 0x494D JUMP JUMPDEST PUSH2 0xAF0 DUP6 DUP6 DUP6 DUP6 DUP6 PUSH2 0x2A6F JUMP JUMPDEST PUSH2 0x1B97 CALLER DUP4 PUSH2 0x2531 JUMP JUMPDEST PUSH2 0x1BB3 JUMPI PUSH1 0x40 MLOAD PUSH3 0x461BCD PUSH1 0xE5 SHL DUP2 MSTORE PUSH1 0x4 ADD PUSH2 0x76E SWAP1 PUSH2 0x49F0 JUMP JUMPDEST PUSH2 0xDB2 DUP5 DUP5 DUP5 DUP5 PUSH2 0x30A1 JUMP JUMPDEST PUSH1 0x60 PUSH2 0x1BCA DUP3 PUSH2 0x223F JUMP JUMPDEST PUSH2 0x1BE6 JUMPI PUSH1 0x40 MLOAD PUSH3 0x461BCD PUSH1 0xE5 SHL DUP2 MSTORE PUSH1 0x4 ADD PUSH2 0x76E SWAP1 PUSH2 0x49C5 JUMP JUMPDEST PUSH2 0x1BEF DUP3 PUSH2 0x30D4 JUMP JUMPDEST DUP1 SLOAD DUP1 PUSH1 0x20 MUL PUSH1 0x20 ADD PUSH1 0x40 MLOAD SWAP1 DUP2 ADD PUSH1 0x40 MSTORE DUP1 SWAP3 SWAP2 SWAP1 DUP2 DUP2 MSTORE PUSH1 0x20 ADD DUP3 DUP1 SLOAD DUP1 ISZERO PUSH2 0xA27 JUMPI PUSH1 0x20 MUL DUP3 ADD SWAP2 SWAP1 PUSH1 0x0 MSTORE PUSH1 0x20 PUSH1 0x0 KECCAK256 SWAP1 JUMPDEST DUP2 SLOAD PUSH1 0x1 PUSH1 0x1 PUSH1 0xA0 SHL SUB AND DUP2 MSTORE PUSH1 0x1 SWAP1 SWAP2 ADD SWAP1 PUSH1 0x20 ADD DUP1 DUP4 GT PUSH2 0x1C25 JUMPI POP POP POP POP POP SWAP1 POP SWAP2 SWAP1 POP JUMP JUMPDEST PUSH1 0x60 DUP1 PUSH2 0x1C5A DUP4 PUSH2 0x223F JUMP JUMPDEST PUSH2 0x1C76 JUMPI PUSH1 0x40 MLOAD PUSH3 0x461BCD PUSH1 0xE5 SHL DUP2 MSTORE PUSH1 0x4 ADD PUSH2 0x76E SWAP1 PUSH2 0x49C5 JUMP JUMPDEST PUSH2 0x1C7F DUP4 PUSH2 0x3160 JUMP JUMPDEST DUP2 SLOAD PUSH1 0x40 DUP1 MLOAD PUSH1 0x20 DUP1 DUP5 MUL DUP3 ADD DUP2 ADD SWAP1 SWAP3 MSTORE DUP3 DUP2 MSTORE SWAP2 DUP5 SWAP2 DUP4 ADD DUP3 DUP3 DUP1 ISZERO PUSH2 0x1CD0 JUMPI PUSH1 0x20 MUL DUP3 ADD SWAP2 SWAP1 PUSH1 0x0 MSTORE PUSH1 0x20 PUSH1 0x0 KECCAK256 SWAP1 JUMPDEST DUP2 SLOAD PUSH1 0x1 PUSH1 0x1 PUSH1 0xA0 SHL SUB AND DUP2 MSTORE PUSH1 0x1 SWAP1 SWAP2 ADD SWAP1 PUSH1 0x20 ADD DUP1 DUP4 GT PUSH2 0x1CB2 JUMPI JUMPDEST POP POP POP POP POP SWAP2 POP DUP1 DUP1 SLOAD DUP1 PUSH1 0x20 MUL PUSH1 0x20 ADD PUSH1 0x40 MLOAD SWAP1 DUP2 ADD PUSH1 0x40 MSTORE DUP1 SWAP3 SWAP2 SWAP1 DUP2 DUP2 MSTORE PUSH1 0x20 ADD DUP3 DUP1 SLOAD DUP1 ISZERO PUSH2 0x1D22 JUMPI PUSH1 0x20 MUL DUP3 ADD SWAP2 SWAP1 PUSH1 0x0 MSTORE PUSH1 0x20 PUSH1 0x0 KECCAK256 SWAP1 JUMPDEST DUP2 SLOAD DUP2 MSTORE PUSH1 0x20 ADD SWAP1 PUSH1 0x1 ADD SWAP1 DUP1 DUP4 GT PUSH2 0x1D0E JUMPI JUMPDEST POP POP POP POP POP SWAP1 POP SWAP2 POP SWAP2 POP SWAP2 POP SWAP2 JUMP JUMPDEST PUSH1 0x60 PUSH2 0x1D3D DUP3 PUSH2 0x223F JUMP JUMPDEST PUSH2 0x1D59 JUMPI PUSH1 0x40 MLOAD PUSH3 0x461BCD PUSH1 0xE5 SHL DUP2 MSTORE PUSH1 0x4 ADD PUSH2 0x76E SWAP1 PUSH2 0x49C5 JUMP JUMPDEST PUSH2 0x728 DUP3 PUSH2 0x317E JUMP JUMPDEST CALLER PUSH2 0x1D6B PUSH2 0x17C9 JUMP JUMPDEST PUSH1 0x1 PUSH1 0x1 PUSH1 0xA0 SHL SUB AND EQ DUP1 PUSH2 0x1D86 JUMPI POP PUSH2 0x1D86 PUSH1 0x66 CALLER PUSH2 0x2123 JUMP JUMPDEST PUSH2 0x1DA2 JUMPI PUSH1 0x40 MLOAD PUSH3 0x461BCD PUSH1 0xE5 SHL DUP2 MSTORE PUSH1 0x4 ADD PUSH2 0x76E SWAP1 PUSH2 0x494D JUMP JUMPDEST PUSH2 0x780 DUP2 PUSH2 0x33F8 JUMP JUMPDEST PUSH1 0x60 PUSH1 0x2 PUSH1 0x65 SLOAD SUB PUSH2 0x1DCF JUMPI PUSH1 0x40 MLOAD PUSH3 0x461BCD PUSH1 0xE5 SHL DUP2 MSTORE PUSH1 0x4 ADD PUSH2 0x76E SWAP1 PUSH2 0x4A41 JUMP JUMPDEST PUSH1 0x2 PUSH1 0x65 SSTORE PUSH2 0x1DDF PUSH1 0xCD CALLER PUSH2 0x2123 JUMP JUMPDEST PUSH2 0x1DFB JUMPI PUSH1 0x40 MLOAD PUSH3 0x461BCD PUSH1 0xE5 SHL DUP2 MSTORE PUSH1 0x4 ADD PUSH2 0x76E SWAP1 PUSH2 0x4A78 JUMP JUMPDEST DUP2 PUSH2 0xFFFF AND PUSH1 0x1 PUSH1 0x1 PUSH1 0x40 SHL SUB DUP2 GT ISZERO PUSH2 0x1E17 JUMPI PUSH2 0x1E17 PUSH2 0x4519 JUMP JUMPDEST PUSH1 0x40 MLOAD SWAP1 DUP1 DUP3 MSTORE DUP1 PUSH1 0x20 MUL PUSH1 0x20 ADD DUP3 ADD PUSH1 0x40 MSTORE DUP1 ISZERO PUSH2 0x1E40 JUMPI DUP2 PUSH1 0x20 ADD PUSH1 0x20 DUP3 MUL DUP1 CALLDATASIZE DUP4 CALLDATACOPY ADD SWAP1 POP JUMPDEST POP SWAP1 POP PUSH1 0x0 JUMPDEST DUP3 PUSH2 0xFFFF AND DUP2 PUSH2 0xFFFF AND LT ISZERO PUSH2 0x1B34 JUMPI PUSH2 0x1E6F DUP5 PUSH1 0x40 MLOAD DUP1 PUSH1 0x20 ADD PUSH1 0x40 MSTORE DUP1 PUSH1 0x0 DUP2 MSTORE POP PUSH2 0x2794 JUMP JUMPDEST DUP3 DUP3 PUSH2 0xFFFF AND DUP2 MLOAD DUP2 LT PUSH2 0x1E85 JUMPI PUSH2 0x1E85 PUSH2 0x4B12 JUMP JUMPDEST PUSH1 0x20 SWAP1 DUP2 MUL SWAP2 SWAP1 SWAP2 ADD ADD MSTORE DUP1 PUSH2 0x1E9A DUP2 PUSH2 0x4C12 JUMP JUMPDEST SWAP2 POP POP PUSH2 0x1E46 JUMP JUMPDEST PUSH2 0x1EAD PUSH1 0xCD CALLER PUSH2 0x2123 JUMP JUMPDEST PUSH2 0x1EC9 JUMPI PUSH1 0x40 MLOAD PUSH3 0x461BCD PUSH1 0xE5 SHL DUP2 MSTORE PUSH1 0x4 ADD PUSH2 0x76E SWAP1 PUSH2 0x4A78 JUMP JUMPDEST PUSH2 0x9A8 DUP4 DUP4 DUP4 PUSH2 0x2EA7 JUMP JUMPDEST PUSH1 0x1 PUSH1 0x1 PUSH1 0xA0 SHL SUB SWAP2 DUP3 AND PUSH1 0x0 SWAP1 DUP2 MSTORE PUSH1 0x9F PUSH1 0x20 SWAP1 DUP2 MSTORE PUSH1 0x40 DUP1 DUP4 KECCAK256 SWAP4 SWAP1 SWAP5 AND DUP3 MSTORE SWAP2 SWAP1 SWAP2 MSTORE KECCAK256 SLOAD PUSH1 0xFF AND SWAP1 JUMP JUMPDEST CALLER PUSH2 0x1F0B PUSH2 0x17C9 JUMP JUMPDEST PUSH1 0x1 PUSH1 0x1 PUSH1 0xA0 SHL SUB AND EQ DUP1 PUSH2 0x1F26 JUMPI POP PUSH2 0x1F26 PUSH1 0x66 CALLER PUSH2 0x2123 JUMP JUMPDEST PUSH2 0x1F42 JUMPI PUSH1 0x40 MLOAD PUSH3 0x461BCD PUSH1 0xE5 SHL DUP2 MSTORE PUSH1 0x4 ADD PUSH2 0x76E SWAP1 PUSH2 0x494D JUMP JUMPDEST PUSH2 0xCB9 DUP3 DUP3 PUSH2 0x3449 JUMP JUMPDEST CALLER PUSH2 0x1F55 PUSH2 0x17C9 JUMP JUMPDEST PUSH1 0x1 PUSH1 0x1 PUSH1 0xA0 SHL SUB AND EQ PUSH2 0x1F7B JUMPI PUSH1 0x40 MLOAD PUSH3 0x461BCD PUSH1 0xE5 SHL DUP2 MSTORE PUSH1 0x4 ADD PUSH2 0x76E SWAP1 PUSH2 0x4AAE JUMP JUMPDEST PUSH1 0x1 PUSH1 0x1 PUSH1 0xA0 SHL SUB DUP2 AND PUSH2 0x1FE0 JUMPI PUSH1 0x40 MLOAD PUSH3 0x461BCD PUSH1 0xE5 SHL DUP2 MSTORE PUSH1 0x20 PUSH1 0x4 DUP3 ADD MSTORE PUSH1 0x26 PUSH1 0x24 DUP3 ADD MSTORE PUSH32 0x4F776E61626C653A206E6577206F776E657220697320746865207A65726F2061 PUSH1 0x44 DUP3 ADD MSTORE PUSH6 0x646472657373 PUSH1 0xD0 SHL PUSH1 0x64 DUP3 ADD MSTORE PUSH1 0x84 ADD PUSH2 0x76E JUMP JUMPDEST PUSH2 0x780 DUP2 PUSH2 0x2F0C JUMP JUMPDEST PUSH1 0x0 PUSH1 0x2 PUSH1 0x65 SLOAD SUB PUSH2 0x200D JUMPI PUSH1 0x40 MLOAD PUSH3 0x461BCD PUSH1 0xE5 SHL DUP2 MSTORE PUSH1 0x4 ADD PUSH2 0x76E SWAP1 PUSH2 0x4A41 JUMP JUMPDEST PUSH1 0x2 PUSH1 0x65 SSTORE PUSH2 0x201D PUSH1 0xCD CALLER PUSH2 0x2123 JUMP JUMPDEST PUSH2 0x2039 JUMPI PUSH1 0x40 MLOAD PUSH3 0x461BCD PUSH1 0xE5 SHL DUP2 MSTORE PUSH1 0x4 ADD PUSH2 0x76E SWAP1 PUSH2 0x4A78 JUMP JUMPDEST PUSH2 0x1597 DUP5 DUP5 DUP5 DUP1 DUP1 PUSH1 0x1F ADD PUSH1 0x20 DUP1 SWAP2 DIV MUL PUSH1 0x20 ADD PUSH1 0x40 MLOAD SWAP1 DUP2 ADD PUSH1 0x40 MSTORE DUP1 SWAP4 SWAP3 SWAP2 SWAP1 DUP2 DUP2 MSTORE PUSH1 0x20 ADD DUP4 DUP4 DUP1 DUP3 DUP5 CALLDATACOPY PUSH1 0x0 SWAP3 ADD SWAP2 SWAP1 SWAP2 MSTORE POP PUSH2 0x2794 SWAP3 POP POP POP JUMP JUMPDEST PUSH1 0x0 PUSH1 0x1 PUSH1 0x1 PUSH1 0xE0 SHL SUB NOT DUP3 AND PUSH4 0x9088C207 PUSH1 0xE0 SHL EQ DUP1 PUSH2 0x209E JUMPI POP PUSH2 0x209E DUP3 PUSH2 0x357E JUMP JUMPDEST DUP1 PUSH2 0x728 JUMPI POP PUSH1 0x1 PUSH1 0x1 PUSH1 0xE0 SHL SUB NOT DUP3 AND PUSH4 0x1E05385B PUSH1 0xE3 SHL EQ SWAP3 SWAP2 POP POP JUMP JUMPDEST PUSH1 0x0 PUSH1 0x1 PUSH1 0x1 PUSH1 0xE0 SHL SUB NOT DUP3 AND PUSH4 0x80AC58CD PUSH1 0xE0 SHL EQ DUP1 PUSH2 0x20EF JUMPI POP PUSH1 0x1 PUSH1 0x1 PUSH1 0xE0 SHL SUB NOT DUP3 AND PUSH4 0x5B5E139F PUSH1 0xE0 SHL EQ JUMPDEST DUP1 PUSH2 0x728 JUMPI POP PUSH2 0x728 DUP3 PUSH2 0x3614 JUMP JUMPDEST PUSH1 0x0 PUSH1 0x1 PUSH1 0x1 PUSH1 0xE0 SHL SUB NOT DUP3 AND PUSH4 0x2A9F3ABF PUSH1 0xE1 SHL EQ DUP1 PUSH2 0x728 JUMPI POP PUSH2 0x728 DUP3 PUSH2 0x3614 JUMP JUMPDEST PUSH1 0x1 PUSH1 0x1 PUSH1 0xA0 SHL SUB DUP2 AND PUSH1 0x0 SWAP1 DUP2 MSTORE PUSH1 0x1 DUP4 ADD PUSH1 0x20 MSTORE PUSH1 0x40 DUP2 KECCAK256 SLOAD ISZERO ISZERO JUMPDEST SWAP4 SWAP3 POP POP POP JUMP JUMPDEST ADDRESS PUSH1 0x1 PUSH1 0x1 PUSH1 0xA0 SHL SUB DUP3 AND SUB PUSH2 0x219C JUMPI PUSH1 0x40 MLOAD PUSH3 0x461BCD PUSH1 0xE5 SHL DUP2 MSTORE PUSH1 0x20 PUSH1 0x4 DUP3 ADD MSTORE PUSH1 0x19 PUSH1 0x24 DUP3 ADD MSTORE PUSH25 0x21B0B73737BA10313630B1B5B634B9BA103CB7BAB939B2B633 PUSH1 0x39 SHL PUSH1 0x44 DUP3 ADD MSTORE PUSH1 0x64 ADD PUSH2 0x76E JUMP JUMPDEST PUSH2 0x21A7 PUSH1 0xCD DUP3 PUSH2 0x2123 JUMP JUMPDEST ISZERO PUSH2 0x21EF JUMPI PUSH1 0x40 MLOAD CALLER SWAP1 PUSH1 0x1 PUSH1 0x1 PUSH1 0xA0 SHL SUB DUP4 AND SWAP1 PUSH32 0xD19CF84CF0FEC6BEC9DDFA29C63ADF83A55707C712F32C8285D6180A78901479 SWAP1 PUSH1 0x0 SWAP1 LOG3 PUSH2 0x21ED PUSH1 0xCD DUP3 PUSH2 0x28F1 JUMP JUMPDEST POP JUMPDEST PUSH2 0x21FA PUSH1 0xCF DUP3 PUSH2 0x2123 JUMP JUMPDEST PUSH2 0x780 JUMPI PUSH1 0x40 MLOAD CALLER SWAP1 PUSH1 0x1 PUSH1 0x1 PUSH1 0xA0 SHL SUB DUP4 AND SWAP1 PUSH32 0x5AC7BC5A606CD92A63365F9FDA244499B9ADD0526B22D99937B6BD88181059C SWAP1 PUSH1 0x0 SWAP1 LOG3 PUSH2 0xCB9 PUSH1 0xCF DUP3 PUSH2 0x2EF7 JUMP JUMPDEST PUSH1 0x0 SWAP1 DUP2 MSTORE PUSH1 0x9C PUSH1 0x20 MSTORE PUSH1 0x40 SWAP1 KECCAK256 SLOAD PUSH1 0x1 PUSH1 0x1 PUSH1 0xA0 SHL SUB AND ISZERO ISZERO SWAP1 JUMP JUMPDEST PUSH1 0x0 DUP2 DUP2 MSTORE PUSH1 0x9E PUSH1 0x20 MSTORE PUSH1 0x40 SWAP1 KECCAK256 DUP1 SLOAD PUSH1 0x1 PUSH1 0x1 PUSH1 0xA0 SHL SUB NOT AND PUSH1 0x1 PUSH1 0x1 PUSH1 0xA0 SHL SUB DUP5 AND SWAP1 DUP2 OR SWAP1 SWAP2 SSTORE DUP2 SWAP1 PUSH2 0x2291 DUP3 PUSH2 0x1283 JUMP JUMPDEST PUSH1 0x1 PUSH1 0x1 PUSH1 0xA0 SHL SUB AND PUSH32 0x8C5BE1E5EBEC7D5BD14F71427D1E84F3DD0314C0F7B2291E5B200AC8C7C3B925 PUSH1 0x40 MLOAD PUSH1 0x40 MLOAD DUP1 SWAP2 SUB SWAP1 LOG4 POP POP JUMP JUMPDEST PUSH1 0x0 DUP2 DUP2 MSTORE PUSH1 0xDB PUSH1 0x20 MSTORE PUSH1 0x40 DUP2 KECCAK256 SLOAD ISZERO PUSH2 0x22F0 JUMPI POP PUSH1 0x0 SWAP1 DUP2 MSTORE PUSH1 0xDB PUSH1 0x20 MSTORE PUSH1 0x40 SWAP1 KECCAK256 SWAP1 JUMP JUMPDEST PUSH1 0x0 DUP3 DUP2 MSTORE PUSH1 0xD3 PUSH1 0x20 SWAP1 DUP2 MSTORE PUSH1 0x40 DUP1 DUP4 KECCAK256 SLOAD PUSH1 0x1 PUSH1 0x1 PUSH1 0xA0 SHL SUB AND DUP4 MSTORE PUSH1 0xD9 SWAP1 SWAP2 MSTORE SWAP1 KECCAK256 SLOAD ISZERO PUSH2 0x2342 JUMPI POP PUSH1 0x0 SWAP1 DUP2 MSTORE PUSH1 0xD3 PUSH1 0x20 SWAP1 DUP2 MSTORE PUSH1 0x40 DUP1 DUP4 KECCAK256 SLOAD PUSH1 0x1 PUSH1 0x1 PUSH1 0xA0 SHL SUB AND DUP4 MSTORE PUSH1 0xD9 SWAP1 SWAP2 MSTORE SWAP1 KECCAK256 SWAP1 JUMP JUMPDEST POP POP ADDRESS PUSH1 0x0 SWAP1 DUP2 MSTORE PUSH1 0xD9 PUSH1 0x20 MSTORE PUSH1 0x40 SWAP1 KECCAK256 SWAP1 JUMP JUMPDEST PUSH1 0x0 DUP4 DUP2 MSTORE PUSH1 0xD3 PUSH1 0x20 MSTORE PUSH1 0x40 SWAP1 KECCAK256 SLOAD PUSH1 0x1 PUSH1 0x1 PUSH1 0xA0 SHL SUB AND ADDRESS EQ PUSH2 0x238C JUMPI PUSH1 0x40 MLOAD PUSH3 0x461BCD PUSH1 0xE5 SHL DUP2 MSTORE PUSH1 0x4 ADD PUSH2 0x76E SWAP1 PUSH2 0x4C33 JUMP JUMPDEST PUSH1 0x0 DUP4 DUP2 MSTORE PUSH1 0xD7 PUSH1 0x20 MSTORE PUSH1 0x40 SWAP1 KECCAK256 PUSH2 0xDB2 DUP3 DUP5 DUP4 PUSH2 0x4CB5 JUMP JUMPDEST DUP3 DUP2 EQ PUSH2 0x23C4 JUMPI PUSH1 0x40 MLOAD PUSH3 0x461BCD PUSH1 0xE5 SHL DUP2 MSTORE PUSH1 0x4 ADD PUSH2 0x76E SWAP1 PUSH2 0x4BEB JUMP JUMPDEST PUSH1 0x0 DUP1 JUMPDEST DUP3 DUP2 LT ISZERO PUSH2 0x2408 JUMPI DUP4 DUP4 DUP3 DUP2 DUP2 LT PUSH2 0x23E2 JUMPI PUSH2 0x23E2 PUSH2 0x4B12 JUMP JUMPDEST SWAP1 POP PUSH1 0x20 MUL ADD CALLDATALOAD DUP3 PUSH2 0x23F4 SWAP2 SWAP1 PUSH2 0x4D6E JUMP JUMPDEST SWAP2 POP DUP1 PUSH2 0x2400 DUP2 PUSH2 0x4B3E JUMP JUMPDEST SWAP2 POP POP PUSH2 0x23C8 JUMP JUMPDEST POP PUSH2 0x2710 DUP2 LT PUSH2 0x242A JUMPI PUSH1 0x40 MLOAD PUSH3 0x461BCD PUSH1 0xE5 SHL DUP2 MSTORE PUSH1 0x4 ADD PUSH2 0x76E SWAP1 PUSH2 0x4D81 JUMP JUMPDEST PUSH1 0x0 DUP7 DUP2 MSTORE PUSH1 0xDA PUSH1 0x20 MSTORE PUSH1 0x40 SWAP1 KECCAK256 PUSH2 0x2443 SWAP1 DUP7 DUP7 PUSH2 0x3F24 JUMP JUMPDEST POP PUSH1 0x0 DUP7 DUP2 MSTORE PUSH1 0xDB PUSH1 0x20 MSTORE PUSH1 0x40 SWAP1 KECCAK256 PUSH2 0x245D SWAP1 DUP5 DUP5 PUSH2 0x3F83 JUMP JUMPDEST POP DUP6 PUSH32 0xABB46FE0761D77584BDE75697647804FFD8113ABD4D8D06BC664150395ECCDEE DUP7 DUP7 DUP7 DUP7 PUSH1 0x40 MLOAD PUSH2 0x2494 SWAP5 SWAP4 SWAP3 SWAP2 SWAP1 PUSH2 0x4DB2 JUMP JUMPDEST PUSH1 0x40 MLOAD DUP1 SWAP2 SUB SWAP1 LOG2 POP POP POP POP POP POP JUMP JUMPDEST PUSH1 0x0 DUP2 DUP2 MSTORE PUSH1 0xD3 PUSH1 0x20 MSTORE PUSH1 0x40 SWAP1 KECCAK256 SLOAD PUSH1 0x1 PUSH1 0x1 PUSH1 0xA0 SHL SUB AND ADDRESS DUP2 SUB PUSH2 0x2504 JUMPI PUSH1 0x40 MLOAD PUSH3 0x461BCD PUSH1 0xE5 SHL DUP2 MSTORE PUSH1 0x20 PUSH1 0x4 DUP3 ADD MSTORE PUSH1 0x16 PUSH1 0x24 DUP3 ADD MSTORE PUSH22 0x27379032BC3A32B739B4B7B7103337B9103A37B5B2B7 PUSH1 0x51 SHL PUSH1 0x44 DUP3 ADD MSTORE PUSH1 0x64 ADD PUSH2 0x76E JUMP JUMPDEST PUSH2 0x250F PUSH1 0xCF DUP3 PUSH2 0x2123 JUMP JUMPDEST ISZERO PUSH2 0x252C JUMPI PUSH1 0x40 MLOAD PUSH3 0x461BCD PUSH1 0xE5 SHL DUP2 MSTORE PUSH1 0x4 ADD PUSH2 0x76E SWAP1 PUSH2 0x4AE3 JUMP JUMPDEST SWAP2 SWAP1 POP JUMP JUMPDEST PUSH1 0x0 PUSH2 0x253C DUP3 PUSH2 0x223F JUMP JUMPDEST PUSH2 0x259D JUMPI PUSH1 0x40 MLOAD PUSH3 0x461BCD PUSH1 0xE5 SHL DUP2 MSTORE PUSH1 0x20 PUSH1 0x4 DUP3 ADD MSTORE PUSH1 0x2C PUSH1 0x24 DUP3 ADD MSTORE PUSH32 0x4552433732313A206F70657261746F7220717565727920666F72206E6F6E6578 PUSH1 0x44 DUP3 ADD MSTORE PUSH12 0x34B9BA32B73A103A37B5B2B7 PUSH1 0xA1 SHL PUSH1 0x64 DUP3 ADD MSTORE PUSH1 0x84 ADD PUSH2 0x76E JUMP JUMPDEST PUSH1 0x0 PUSH2 0x25A8 DUP4 PUSH2 0x1283 JUMP JUMPDEST SWAP1 POP DUP1 PUSH1 0x1 PUSH1 0x1 PUSH1 0xA0 SHL SUB AND DUP5 PUSH1 0x1 PUSH1 0x1 PUSH1 0xA0 SHL SUB AND EQ DUP1 PUSH2 0x25E3 JUMPI POP DUP4 PUSH1 0x1 PUSH1 0x1 PUSH1 0xA0 SHL SUB AND PUSH2 0x25D8 DUP5 PUSH2 0x815 JUMP JUMPDEST PUSH1 0x1 PUSH1 0x1 PUSH1 0xA0 SHL SUB AND EQ JUMPDEST DUP1 PUSH2 0x25F3 JUMPI POP PUSH2 0x25F3 DUP2 DUP6 PUSH2 0x1ED4 JUMP JUMPDEST SWAP5 SWAP4 POP POP POP POP JUMP JUMPDEST DUP3 PUSH1 0x1 PUSH1 0x1 PUSH1 0xA0 SHL SUB AND PUSH2 0x260E DUP3 PUSH2 0x1283 JUMP JUMPDEST PUSH1 0x1 PUSH1 0x1 PUSH1 0xA0 SHL SUB AND EQ PUSH2 0x2676 JUMPI PUSH1 0x40 MLOAD PUSH3 0x461BCD PUSH1 0xE5 SHL DUP2 MSTORE PUSH1 0x20 PUSH1 0x4 DUP3 ADD MSTORE PUSH1 0x29 PUSH1 0x24 DUP3 ADD MSTORE PUSH32 0x4552433732313A207472616E73666572206F6620746F6B656E20746861742069 PUSH1 0x44 DUP3 ADD MSTORE PUSH9 0x39903737BA1037BBB7 PUSH1 0xB9 SHL PUSH1 0x64 DUP3 ADD MSTORE PUSH1 0x84 ADD PUSH2 0x76E JUMP JUMPDEST PUSH1 0x1 PUSH1 0x1 PUSH1 0xA0 SHL SUB DUP3 AND PUSH2 0x26D8 JUMPI PUSH1 0x40 MLOAD PUSH3 0x461BCD PUSH1 0xE5 SHL DUP2 MSTORE PUSH1 0x20 PUSH1 0x4 DUP3 ADD MSTORE PUSH1 0x24 DUP1 DUP3 ADD MSTORE PUSH32 0x4552433732313A207472616E7366657220746F20746865207A65726F20616464 PUSH1 0x44 DUP3 ADD MSTORE PUSH4 0x72657373 PUSH1 0xE0 SHL PUSH1 0x64 DUP3 ADD MSTORE PUSH1 0x84 ADD PUSH2 0x76E JUMP JUMPDEST PUSH2 0x26E3 DUP4 DUP4 DUP4 PUSH2 0x362A JUMP JUMPDEST PUSH2 0x26EE PUSH1 0x0 DUP3 PUSH2 0x225C JUMP JUMPDEST PUSH1 0x1 PUSH1 0x1 PUSH1 0xA0 SHL SUB DUP4 AND PUSH1 0x0 SWAP1 DUP2 MSTORE PUSH1 0x9D PUSH1 0x20 MSTORE PUSH1 0x40 DUP2 KECCAK256 DUP1 SLOAD PUSH1 0x1 SWAP3 SWAP1 PUSH2 0x2717 SWAP1 DUP5 SWAP1 PUSH2 0x4E30 JUMP JUMPDEST SWAP1 SWAP2 SSTORE POP POP PUSH1 0x1 PUSH1 0x1 PUSH1 0xA0 SHL SUB DUP3 AND PUSH1 0x0 SWAP1 DUP2 MSTORE PUSH1 0x9D PUSH1 0x20 MSTORE PUSH1 0x40 DUP2 KECCAK256 DUP1 SLOAD PUSH1 0x1 SWAP3 SWAP1 PUSH2 0x2745 SWAP1 DUP5 SWAP1 PUSH2 0x4D6E JUMP JUMPDEST SWAP1 SWAP2 SSTORE POP POP PUSH1 0x0 DUP2 DUP2 MSTORE PUSH1 0x9C PUSH1 0x20 MSTORE PUSH1 0x40 DUP1 DUP3 KECCAK256 DUP1 SLOAD PUSH1 0x1 PUSH1 0x1 PUSH1 0xA0 SHL SUB NOT AND PUSH1 0x1 PUSH1 0x1 PUSH1 0xA0 SHL SUB DUP7 DUP2 AND SWAP2 DUP3 OR SWAP1 SWAP3 SSTORE SWAP2 MLOAD DUP5 SWAP4 SWAP2 DUP8 AND SWAP2 PUSH1 0x0 DUP1 MLOAD PUSH1 0x20 PUSH2 0x5181 DUP4 CODECOPY DUP2 MLOAD SWAP2 MSTORE SWAP2 LOG4 POP POP POP JUMP JUMPDEST PUSH1 0xCC DUP1 SLOAD PUSH1 0x0 SWAP2 DUP3 PUSH2 0x27A5 DUP4 PUSH2 0x4B3E JUMP JUMPDEST SWAP2 SWAP1 POP SSTORE POP PUSH1 0xCC SLOAD SWAP1 POP PUSH2 0x27B9 DUP4 DUP3 PUSH2 0x3635 JUMP JUMPDEST PUSH1 0x0 DUP2 DUP2 MSTORE PUSH1 0xD3 PUSH1 0x20 MSTORE PUSH1 0x40 SWAP1 KECCAK256 DUP1 SLOAD PUSH1 0x1 PUSH1 0x1 PUSH1 0xA0 SHL SUB NOT AND CALLER OR SWAP1 SSTORE PUSH2 0x27E1 DUP4 DUP3 PUSH2 0x36C2 JUMP JUMPDEST DUP2 MLOAD ISZERO PUSH2 0x2802 JUMPI PUSH1 0x0 DUP2 DUP2 MSTORE PUSH1 0xD7 PUSH1 0x20 MSTORE PUSH1 0x40 SWAP1 KECCAK256 PUSH2 0x2800 DUP4 DUP3 PUSH2 0x4E43 JUMP JUMPDEST POP JUMPDEST PUSH2 0x728 JUMP JUMPDEST PUSH1 0x0 DUP1 PUSH1 0x0 PUSH2 0x2815 DUP6 PUSH2 0x30D4 JUMP JUMPDEST DUP1 SLOAD SWAP1 SWAP2 POP PUSH1 0x1 LT ISZERO PUSH2 0x2869 JUMPI PUSH1 0x40 MLOAD PUSH3 0x461BCD PUSH1 0xE5 SHL DUP2 MSTORE PUSH1 0x20 PUSH1 0x4 DUP3 ADD MSTORE PUSH1 0x1C PUSH1 0x24 DUP3 ADD MSTORE PUSH28 0x26B7B932903A3430B71018903937BCB0B63A3C903932B1B2B4BB32B9 PUSH1 0x21 SHL PUSH1 0x44 DUP3 ADD MSTORE PUSH1 0x64 ADD PUSH2 0x76E JUMP JUMPDEST DUP1 SLOAD PUSH1 0x0 SUB PUSH2 0x287F JUMPI ADDRESS PUSH1 0x0 SWAP3 POP SWAP3 POP POP PUSH2 0xC32 JUMP JUMPDEST DUP1 PUSH1 0x0 DUP2 SLOAD DUP2 LT PUSH2 0x2892 JUMPI PUSH2 0x2892 PUSH2 0x4B12 JUMP JUMPDEST PUSH1 0x0 SWAP2 DUP3 MSTORE PUSH1 0x20 SWAP1 SWAP2 KECCAK256 ADD SLOAD PUSH1 0x1 PUSH1 0x1 PUSH1 0xA0 SHL SUB AND PUSH2 0x2710 DUP6 PUSH2 0x28B4 DUP9 PUSH2 0x22CA JUMP JUMPDEST PUSH1 0x0 DUP2 SLOAD DUP2 LT PUSH2 0x28C6 JUMPI PUSH2 0x28C6 PUSH2 0x4B12 JUMP JUMPDEST SWAP1 PUSH1 0x0 MSTORE PUSH1 0x20 PUSH1 0x0 KECCAK256 ADD SLOAD PUSH2 0x28DB SWAP2 SWAP1 PUSH2 0x4EFC JUMP JUMPDEST PUSH2 0x28E5 SWAP2 SWAP1 PUSH2 0x4F29 JUMP JUMPDEST SWAP3 POP SWAP3 POP POP SWAP3 POP SWAP3 SWAP1 POP JUMP JUMPDEST PUSH1 0x0 PUSH2 0x2141 DUP4 PUSH1 0x1 PUSH1 0x1 PUSH1 0xA0 SHL SUB DUP5 AND PUSH2 0x36DC JUMP JUMPDEST ADDRESS PUSH1 0x0 SWAP1 DUP2 MSTORE PUSH1 0xD4 PUSH1 0x20 MSTORE PUSH1 0x40 SWAP1 KECCAK256 PUSH2 0xCB9 DUP3 DUP3 PUSH2 0x4E43 JUMP JUMPDEST ADDRESS PUSH1 0x1 PUSH1 0x1 PUSH1 0xA0 SHL SUB DUP6 AND SUB PUSH2 0x296A JUMPI PUSH1 0x40 MLOAD PUSH3 0x461BCD PUSH1 0xE5 SHL DUP2 MSTORE PUSH1 0x20 PUSH1 0x4 DUP3 ADD MSTORE PUSH1 0x10 PUSH1 0x24 DUP3 ADD MSTORE PUSH16 0x10DC99585D1BDC8E88125B9D985B1A59 PUSH1 0x82 SHL PUSH1 0x44 DUP3 ADD MSTORE PUSH1 0x64 ADD PUSH2 0x76E JUMP JUMPDEST PUSH1 0x1 PUSH1 0x1 PUSH1 0xA0 SHL SUB DUP5 AND EXTCODESIZE PUSH2 0x29CF JUMPI PUSH1 0x40 MLOAD PUSH3 0x461BCD PUSH1 0xE5 SHL DUP2 MSTORE PUSH1 0x20 PUSH1 0x4 DUP3 ADD MSTORE PUSH1 0x25 PUSH1 0x24 DUP3 ADD MSTORE PUSH32 0x43726561746F723A20457874656E73696F6E206D757374206265206120636F6E PUSH1 0x44 DUP3 ADD MSTORE PUSH5 0x1D1C9858DD PUSH1 0xDA SHL PUSH1 0x64 DUP3 ADD MSTORE PUSH1 0x84 ADD PUSH2 0x76E JUMP JUMPDEST PUSH2 0x29DA PUSH1 0xCD DUP6 PUSH2 0x2123 JUMP JUMPDEST PUSH2 0xDB2 JUMPI PUSH1 0x1 PUSH1 0x1 PUSH1 0xA0 SHL SUB DUP5 AND PUSH1 0x0 SWAP1 DUP2 MSTORE PUSH1 0xD4 PUSH1 0x20 MSTORE PUSH1 0x40 SWAP1 KECCAK256 PUSH2 0x2A01 DUP4 DUP6 DUP4 PUSH2 0x4CB5 JUMP JUMPDEST POP PUSH1 0x1 PUSH1 0x1 PUSH1 0xA0 SHL SUB DUP5 AND PUSH1 0x0 DUP2 DUP2 MSTORE PUSH1 0xD5 PUSH1 0x20 MSTORE PUSH1 0x40 DUP1 DUP3 KECCAK256 DUP1 SLOAD PUSH1 0xFF NOT AND DUP6 ISZERO ISZERO OR SWAP1 SSTORE MLOAD CALLER SWAP3 SWAP2 PUSH32 0xD8CB8BA4086944EABF43C5535B7712015E4D4C714B24BF812C040EA5B7A3E42A SWAP2 LOG3 PUSH2 0xAF0 PUSH1 0xCD DUP6 PUSH2 0x2EF7 JUMP JUMPDEST PUSH1 0x0 PUSH2 0x728 DUP3 SLOAD SWAP1 JUMP JUMPDEST PUSH1 0x0 PUSH2 0x2141 DUP4 DUP4 PUSH2 0x37CF JUMP JUMPDEST DUP3 DUP2 EQ PUSH2 0x2A8E JUMPI PUSH1 0x40 MLOAD PUSH3 0x461BCD PUSH1 0xE5 SHL DUP2 MSTORE PUSH1 0x4 ADD PUSH2 0x76E SWAP1 PUSH2 0x4BEB JUMP JUMPDEST PUSH1 0x0 DUP1 JUMPDEST DUP3 DUP2 LT ISZERO PUSH2 0x2AD2 JUMPI DUP4 DUP4 DUP3 DUP2 DUP2 LT PUSH2 0x2AAC JUMPI PUSH2 0x2AAC PUSH2 0x4B12 JUMP JUMPDEST SWAP1 POP PUSH1 0x20 MUL ADD CALLDATALOAD DUP3 PUSH2 0x2ABE SWAP2 SWAP1 PUSH2 0x4D6E JUMP JUMPDEST SWAP2 POP DUP1 PUSH2 0x2ACA DUP2 PUSH2 0x4B3E JUMP JUMPDEST SWAP2 POP POP PUSH2 0x2A92 JUMP JUMPDEST POP PUSH2 0x2710 DUP2 LT PUSH2 0x2AF4 JUMPI PUSH1 0x40 MLOAD PUSH3 0x461BCD PUSH1 0xE5 SHL DUP2 MSTORE PUSH1 0x4 ADD PUSH2 0x76E SWAP1 PUSH2 0x4D81 JUMP JUMPDEST PUSH1 0x1 PUSH1 0x1 PUSH1 0xA0 SHL SUB DUP7 AND PUSH1 0x0 SWAP1 DUP2 MSTORE PUSH1 0xD8 PUSH1 0x20 MSTORE PUSH1 0x40 SWAP1 KECCAK256 PUSH2 0x2B17 SWAP1 DUP7 DUP7 PUSH2 0x3F24 JUMP JUMPDEST POP PUSH1 0x1 PUSH1 0x1 PUSH1 0xA0 SHL SUB DUP7 AND PUSH1 0x0 SWAP1 DUP2 MSTORE PUSH1 0xD9 PUSH1 0x20 MSTORE PUSH1 0x40 SWAP1 KECCAK256 PUSH2 0x2B3B SWAP1 DUP5 DUP5 PUSH2 0x3F83 JUMP JUMPDEST POP ADDRESS PUSH1 0x1 PUSH1 0x1 PUSH1 0xA0 SHL SUB DUP8 AND SUB PUSH2 0x2B8E JUMPI PUSH32 0x2B6849D5976D799A5B0CA4DFD6B40A3D7AFE9EA72C091FA01A958594F9A2659B DUP6 DUP6 DUP6 DUP6 PUSH1 0x40 MLOAD PUSH2 0x2B81 SWAP5 SWAP4 SWAP3 SWAP2 SWAP1 PUSH2 0x4DB2 JUMP JUMPDEST PUSH1 0x40 MLOAD DUP1 SWAP2 SUB SWAP1 LOG1 PUSH2 0x2BCD JUMP JUMPDEST DUP6 PUSH1 0x1 PUSH1 0x1 PUSH1 0xA0 SHL SUB AND PUSH32 0x535A93D2CB000582C0EBEAA9BE4890EC6A287F98EB2DF00C54C300612FD78D8F DUP7 DUP7 DUP7 DUP7 PUSH1 0x40 MLOAD PUSH2 0x2494 SWAP5 SWAP4 SWAP3 SWAP2 SWAP1 PUSH2 0x4DB2 JUMP JUMPDEST POP POP POP POP POP POP JUMP JUMPDEST CALLER PUSH1 0x0 SWAP1 DUP2 MSTORE PUSH1 0xD4 PUSH1 0x20 MSTORE PUSH1 0x40 SWAP1 KECCAK256 PUSH2 0x2BEF DUP4 DUP6 DUP4 PUSH2 0x4CB5 JUMP JUMPDEST POP CALLER PUSH1 0x0 SWAP1 DUP2 MSTORE PUSH1 0xD5 PUSH1 0x20 MSTORE PUSH1 0x40 SWAP1 KECCAK256 DUP1 SLOAD PUSH1 0xFF NOT AND SWAP2 ISZERO ISZERO SWAP2 SWAP1 SWAP2 OR SWAP1 SSTORE POP POP JUMP JUMPDEST PUSH1 0x0 PUSH2 0x2C1D DUP3 PUSH2 0x1283 JUMP JUMPDEST SWAP1 POP PUSH2 0x2C2B DUP2 PUSH1 0x0 DUP5 PUSH2 0x362A JUMP JUMPDEST PUSH2 0x2C36 PUSH1 0x0 DUP4 PUSH2 0x225C JUMP JUMPDEST PUSH1 0x1 PUSH1 0x1 PUSH1 0xA0 SHL SUB DUP2 AND PUSH1 0x0 SWAP1 DUP2 MSTORE PUSH1 0x9D PUSH1 0x20 MSTORE PUSH1 0x40 DUP2 KECCAK256 DUP1 SLOAD PUSH1 0x1 SWAP3 SWAP1 PUSH2 0x2C5F SWAP1 DUP5 SWAP1 PUSH2 0x4E30 JUMP JUMPDEST SWAP1 SWAP2 SSTORE POP POP PUSH1 0x0 DUP3 DUP2 MSTORE PUSH1 0x9C PUSH1 0x20 MSTORE PUSH1 0x40 DUP1 DUP3 KECCAK256 DUP1 SLOAD PUSH1 0x1 PUSH1 0x1 PUSH1 0xA0 SHL SUB NOT AND SWAP1 SSTORE MLOAD DUP4 SWAP2 SWAP1 PUSH1 0x1 PUSH1 0x1 PUSH1 0xA0 SHL SUB DUP5 AND SWAP1 PUSH1 0x0 DUP1 MLOAD PUSH1 0x20 PUSH2 0x5181 DUP4 CODECOPY DUP2 MLOAD SWAP2 MSTORE SWAP1 DUP4 SWAP1 LOG4 POP POP JUMP JUMPDEST PUSH1 0x0 DUP2 DUP2 MSTORE PUSH1 0xD3 PUSH1 0x20 MSTORE PUSH1 0x40 SWAP1 KECCAK256 SLOAD PUSH1 0x1 PUSH1 0x1 PUSH1 0xA0 SHL SUB AND ADDRESS EQ PUSH2 0x2D65 JUMPI PUSH1 0x0 DUP2 DUP2 MSTORE PUSH1 0xD3 PUSH1 0x20 MSTORE PUSH1 0x40 SWAP1 KECCAK256 SLOAD PUSH2 0x2CEE SWAP1 PUSH1 0x1 PUSH1 0x1 PUSH1 0xA0 SHL SUB AND PUSH4 0x11686E4B PUSH1 0xE2 SHL PUSH2 0x3085 JUMP JUMPDEST ISZERO PUSH2 0x2D65 JUMPI PUSH1 0x0 DUP2 DUP2 MSTORE PUSH1 0xD3 PUSH1 0x20 MSTORE PUSH1 0x40 SWAP1 DUP2 SWAP1 KECCAK256 SLOAD SWAP1 MLOAD PUSH4 0x11686E4B PUSH1 0xE2 SHL DUP2 MSTORE PUSH1 0x1 PUSH1 0x1 PUSH1 0xA0 SHL SUB SWAP1 SWAP2 AND SWAP1 PUSH4 0x45A1B92C SWAP1 PUSH2 0x2D32 SWAP1 DUP6 SWAP1 DUP6 SWAP1 PUSH1 0x4 ADD PUSH2 0x4310 JUMP JUMPDEST PUSH1 0x0 PUSH1 0x40 MLOAD DUP1 DUP4 SUB DUP2 PUSH1 0x0 DUP8 DUP1 EXTCODESIZE ISZERO DUP1 ISZERO PUSH2 0x2D4C JUMPI PUSH1 0x0 DUP1 REVERT JUMPDEST POP GAS CALL ISZERO DUP1 ISZERO PUSH2 0x2D60 JUMPI RETURNDATASIZE PUSH1 0x0 DUP1 RETURNDATACOPY RETURNDATASIZE PUSH1 0x0 REVERT JUMPDEST POP POP POP POP JUMPDEST PUSH1 0x0 DUP2 DUP2 MSTORE PUSH1 0xD7 PUSH1 0x20 MSTORE PUSH1 0x40 SWAP1 KECCAK256 DUP1 SLOAD PUSH2 0x2D7E SWAP1 PUSH2 0x4991 JUMP JUMPDEST ISZERO SWAP1 POP PUSH2 0x2D9C JUMPI PUSH1 0x0 DUP2 DUP2 MSTORE PUSH1 0xD7 PUSH1 0x20 MSTORE PUSH1 0x40 DUP2 KECCAK256 PUSH2 0x2D9C SWAP2 PUSH2 0x3FBE JUMP JUMPDEST PUSH1 0x0 SWAP1 DUP2 MSTORE PUSH1 0xD3 PUSH1 0x20 MSTORE PUSH1 0x40 SWAP1 KECCAK256 DUP1 SLOAD PUSH1 0x1 PUSH1 0x1 PUSH1 0xA0 SHL SUB NOT AND SWAP1 SSTORE POP JUMP JUMPDEST PUSH1 0x0 SLOAD PUSH2 0x100 SWAP1 DIV PUSH1 0xFF AND DUP1 PUSH2 0x2DD4 JUMPI POP PUSH1 0x0 SLOAD PUSH1 0xFF AND ISZERO JUMPDEST PUSH2 0x2DF0 JUMPI PUSH1 0x40 MLOAD PUSH3 0x461BCD PUSH1 0xE5 SHL DUP2 MSTORE PUSH1 0x4 ADD PUSH2 0x76E SWAP1 PUSH2 0x4B9D JUMP JUMPDEST PUSH1 0x0 SLOAD PUSH2 0x100 SWAP1 DIV PUSH1 0xFF AND ISZERO DUP1 ISZERO PUSH2 0x2E12 JUMPI PUSH1 0x0 DUP1 SLOAD PUSH2 0xFFFF NOT AND PUSH2 0x101 OR SWAP1 SSTORE JUMPDEST PUSH2 0x2E1A PUSH2 0x37F9 JUMP JUMPDEST PUSH2 0x2E22 PUSH2 0x37F9 JUMP JUMPDEST PUSH2 0x11C2 DUP4 DUP4 PUSH2 0x3863 JUMP JUMPDEST PUSH1 0x0 SLOAD PUSH2 0x100 SWAP1 DIV PUSH1 0xFF AND DUP1 PUSH2 0x2E45 JUMPI POP PUSH1 0x0 SLOAD PUSH1 0xFF AND ISZERO JUMPDEST PUSH2 0x2E61 JUMPI PUSH1 0x40 MLOAD PUSH3 0x461BCD PUSH1 0xE5 SHL DUP2 MSTORE PUSH1 0x4 ADD PUSH2 0x76E SWAP1 PUSH2 0x4B9D JUMP JUMPDEST PUSH1 0x0 SLOAD PUSH2 0x100 SWAP1 DIV PUSH1 0xFF AND ISZERO DUP1 ISZERO PUSH2 0x2E83 JUMPI PUSH1 0x0 DUP1 SLOAD PUSH2 0xFFFF NOT AND PUSH2 0x101 OR SWAP1 SSTORE JUMPDEST PUSH2 0x2E8B PUSH2 0x37F9 JUMP JUMPDEST PUSH2 0x2E93 PUSH2 0x38EA JUMP JUMPDEST DUP1 ISZERO PUSH2 0x780 JUMPI PUSH1 0x0 DUP1 SLOAD PUSH2 0xFF00 NOT AND SWAP1 SSTORE POP JUMP JUMPDEST PUSH1 0x0 DUP4 DUP2 MSTORE PUSH1 0xD3 PUSH1 0x20 MSTORE PUSH1 0x40 SWAP1 KECCAK256 SLOAD PUSH1 0x1 PUSH1 0x1 PUSH1 0xA0 SHL SUB AND CALLER EQ PUSH2 0x238C JUMPI PUSH1 0x40 MLOAD PUSH3 0x461BCD PUSH1 0xE5 SHL DUP2 MSTORE PUSH1 0x4 ADD PUSH2 0x76E SWAP1 PUSH2 0x4C33 JUMP JUMPDEST CALLER PUSH1 0x0 SWAP1 DUP2 MSTORE PUSH1 0xD6 PUSH1 0x20 MSTORE PUSH1 0x40 SWAP1 KECCAK256 PUSH2 0x9A8 DUP3 DUP5 DUP4 PUSH2 0x4CB5 JUMP JUMPDEST PUSH1 0x0 PUSH2 0x2141 DUP4 PUSH1 0x1 PUSH1 0x1 PUSH1 0xA0 SHL SUB DUP5 AND PUSH2 0x394A JUMP JUMPDEST PUSH1 0x33 DUP1 SLOAD PUSH1 0x1 PUSH1 0x1 PUSH1 0xA0 SHL SUB DUP4 DUP2 AND PUSH1 0x1 PUSH1 0x1 PUSH1 0xA0 SHL SUB NOT DUP4 AND DUP2 OR SWAP1 SWAP4 SSTORE PUSH1 0x40 MLOAD SWAP2 AND SWAP2 SWAP1 DUP3 SWAP1 PUSH32 0x8BE0079C531659141344CD1FD0A4F28419497F9722A3DAAFE3B4186F6B6457E0 SWAP1 PUSH1 0x0 SWAP1 LOG3 POP POP JUMP JUMPDEST PUSH1 0xCC DUP1 SLOAD PUSH1 0x0 SWAP2 DUP3 PUSH2 0x2F6F DUP4 PUSH2 0x4B3E JUMP JUMPDEST SWAP1 SWAP2 SSTORE POP POP PUSH1 0xCC SLOAD PUSH1 0x0 DUP2 DUP2 MSTORE PUSH1 0xD3 PUSH1 0x20 MSTORE PUSH1 0x40 SWAP1 KECCAK256 DUP1 SLOAD PUSH1 0x1 PUSH1 0x1 PUSH1 0xA0 SHL SUB NOT AND ADDRESS OR SWAP1 SSTORE SWAP1 POP PUSH2 0x27E1 DUP4 DUP3 PUSH2 0x36C2 JUMP JUMPDEST ADDRESS PUSH1 0x0 SWAP1 DUP2 MSTORE PUSH1 0xD6 PUSH1 0x20 MSTORE PUSH1 0x40 SWAP1 KECCAK256 PUSH2 0x9A8 DUP3 DUP5 DUP4 PUSH2 0x4CB5 JUMP JUMPDEST DUP2 PUSH1 0x1 PUSH1 0x1 PUSH1 0xA0 SHL SUB AND DUP4 PUSH1 0x1 PUSH1 0x1 PUSH1 0xA0 SHL SUB AND SUB PUSH2 0x3018 JUMPI PUSH1 0x40 MLOAD PUSH3 0x461BCD PUSH1 0xE5 SHL DUP2 MSTORE PUSH1 0x20 PUSH1 0x4 DUP3 ADD MSTORE PUSH1 0x19 PUSH1 0x24 DUP3 ADD MSTORE PUSH25 0x22A9219B99189D1030B8383937BB32903A379031B0B63632B9 PUSH1 0x39 SHL PUSH1 0x44 DUP3 ADD MSTORE PUSH1 0x64 ADD PUSH2 0x76E JUMP JUMPDEST PUSH1 0x1 PUSH1 0x1 PUSH1 0xA0 SHL SUB DUP4 DUP2 AND PUSH1 0x0 DUP2 DUP2 MSTORE PUSH1 0x9F PUSH1 0x20 SWAP1 DUP2 MSTORE PUSH1 0x40 DUP1 DUP4 KECCAK256 SWAP5 DUP8 AND DUP1 DUP5 MSTORE SWAP5 DUP3 MSTORE SWAP2 DUP3 SWAP1 KECCAK256 DUP1 SLOAD PUSH1 0xFF NOT AND DUP7 ISZERO ISZERO SWAP1 DUP2 OR SWAP1 SWAP2 SSTORE SWAP2 MLOAD SWAP2 DUP3 MSTORE PUSH32 0x17307EAB39AB6107E8899845AD3D59BD9653F200F220920489CA2B5937696C31 SWAP2 ADD PUSH1 0x40 MLOAD DUP1 SWAP2 SUB SWAP1 LOG3 POP POP POP JUMP JUMPDEST PUSH1 0x0 PUSH2 0x3090 DUP4 PUSH2 0x3999 JUMP JUMPDEST DUP1 ISZERO PUSH2 0x2141 JUMPI POP PUSH2 0x2141 DUP4 DUP4 PUSH2 0x39CC JUMP JUMPDEST PUSH2 0x30AC DUP5 DUP5 DUP5 PUSH2 0x25FB JUMP JUMPDEST PUSH2 0x30B8 DUP5 DUP5 DUP5 DUP5 PUSH2 0x3AB5 JUMP JUMPDEST PUSH2 0xDB2 JUMPI PUSH1 0x40 MLOAD PUSH3 0x461BCD PUSH1 0xE5 SHL DUP2 MSTORE PUSH1 0x4 ADD PUSH2 0x76E SWAP1 PUSH2 0x4F3D JUMP JUMPDEST PUSH1 0x0 DUP2 DUP2 MSTORE PUSH1 0xDA PUSH1 0x20 MSTORE PUSH1 0x40 DUP2 KECCAK256 SLOAD ISZERO PUSH2 0x30FA JUMPI POP PUSH1 0x0 SWAP1 DUP2 MSTORE PUSH1 0xDA PUSH1 0x20 MSTORE PUSH1 0x40 SWAP1 KECCAK256 SWAP1 JUMP JUMPDEST PUSH1 0x0 DUP3 DUP2 MSTORE PUSH1 0xD3 PUSH1 0x20 SWAP1 DUP2 MSTORE PUSH1 0x40 DUP1 DUP4 KECCAK256 SLOAD PUSH1 0x1 PUSH1 0x1 PUSH1 0xA0 SHL SUB AND DUP4 MSTORE PUSH1 0xD8 SWAP1 SWAP2 MSTORE SWAP1 KECCAK256 SLOAD ISZERO PUSH2 0x314C JUMPI POP PUSH1 0x0 SWAP1 DUP2 MSTORE PUSH1 0xD3 PUSH1 0x20 SWAP1 DUP2 MSTORE PUSH1 0x40 DUP1 DUP4 KECCAK256 SLOAD PUSH1 0x1 PUSH1 0x1 PUSH1 0xA0 SHL SUB AND DUP4 MSTORE PUSH1 0xD8 SWAP1 SWAP2 MSTORE SWAP1 KECCAK256 SWAP1 JUMP JUMPDEST POP POP ADDRESS PUSH1 0x0 SWAP1 DUP2 MSTORE PUSH1 0xD8 PUSH1 0x20 MSTORE PUSH1 0x40 SWAP1 KECCAK256 SWAP1 JUMP JUMPDEST PUSH1 0x0 DUP1 PUSH2 0x316C DUP4 PUSH2 0x30D4 JUMP JUMPDEST PUSH2 0x3175 DUP5 PUSH2 0x22CA JUMP JUMPDEST SWAP2 POP SWAP2 POP SWAP2 POP SWAP2 JUMP JUMPDEST PUSH1 0x0 DUP2 DUP2 MSTORE PUSH1 0xD3 PUSH1 0x20 MSTORE PUSH1 0x40 SWAP1 KECCAK256 SLOAD PUSH1 0x60 SWAP1 PUSH1 0x1 PUSH1 0x1 PUSH1 0xA0 SHL SUB AND PUSH2 0x31A4 PUSH1 0xCF DUP3 PUSH2 0x2123 JUMP JUMPDEST ISZERO PUSH2 0x31C1 JUMPI PUSH1 0x40 MLOAD PUSH3 0x461BCD PUSH1 0xE5 SHL DUP2 MSTORE PUSH1 0x4 ADD PUSH2 0x76E SWAP1 PUSH2 0x4AE3 JUMP JUMPDEST PUSH1 0x0 DUP4 DUP2 MSTORE PUSH1 0xD7 PUSH1 0x20 MSTORE PUSH1 0x40 SWAP1 KECCAK256 DUP1 SLOAD PUSH2 0x31DA SWAP1 PUSH2 0x4991 JUMP JUMPDEST ISZERO SWAP1 POP PUSH2 0x32F4 JUMPI PUSH1 0x1 PUSH1 0x1 PUSH1 0xA0 SHL SUB DUP2 AND PUSH1 0x0 SWAP1 DUP2 MSTORE PUSH1 0xD6 PUSH1 0x20 MSTORE PUSH1 0x40 SWAP1 KECCAK256 DUP1 SLOAD PUSH2 0x3204 SWAP1 PUSH2 0x4991 JUMP JUMPDEST ISZERO SWAP1 POP PUSH2 0x3255 JUMPI PUSH1 0x1 PUSH1 0x1 PUSH1 0xA0 SHL SUB DUP2 AND PUSH1 0x0 SWAP1 DUP2 MSTORE PUSH1 0xD6 PUSH1 0x20 SWAP1 DUP2 MSTORE PUSH1 0x40 DUP1 DUP4 KECCAK256 DUP7 DUP5 MSTORE PUSH1 0xD7 DUP4 MSTORE SWAP3 DUP2 SWAP1 KECCAK256 SWAP1 MLOAD PUSH2 0x323E SWAP4 SWAP3 ADD PUSH2 0x5002 JUMP JUMPDEST PUSH1 0x40 MLOAD PUSH1 0x20 DUP2 DUP4 SUB SUB DUP2 MSTORE SWAP1 PUSH1 0x40 MSTORE SWAP2 POP POP SWAP2 SWAP1 POP JUMP JUMPDEST PUSH1 0x0 DUP4 DUP2 MSTORE PUSH1 0xD7 PUSH1 0x20 MSTORE PUSH1 0x40 SWAP1 KECCAK256 DUP1 SLOAD PUSH2 0x326E SWAP1 PUSH2 0x4991 JUMP JUMPDEST DUP1 PUSH1 0x1F ADD PUSH1 0x20 DUP1 SWAP2 DIV MUL PUSH1 0x20 ADD PUSH1 0x40 MLOAD SWAP1 DUP2 ADD PUSH1 0x40 MSTORE DUP1 SWAP3 SWAP2 SWAP1 DUP2 DUP2 MSTORE PUSH1 0x20 ADD DUP3 DUP1 SLOAD PUSH2 0x329A SWAP1 PUSH2 0x4991 JUMP JUMPDEST DUP1 ISZERO PUSH2 0x32E7 JUMPI DUP1 PUSH1 0x1F LT PUSH2 0x32BC JUMPI PUSH2 0x100 DUP1 DUP4 SLOAD DIV MUL DUP4 MSTORE SWAP2 PUSH1 0x20 ADD SWAP2 PUSH2 0x32E7 JUMP JUMPDEST DUP3 ADD SWAP2 SWAP1 PUSH1 0x0 MSTORE PUSH1 0x20 PUSH1 0x0 KECCAK256 SWAP1 JUMPDEST DUP2 SLOAD DUP2 MSTORE SWAP1 PUSH1 0x1 ADD SWAP1 PUSH1 0x20 ADD DUP1 DUP4 GT PUSH2 0x32CA JUMPI DUP3 SWAP1 SUB PUSH1 0x1F AND DUP3 ADD SWAP2 JUMPDEST POP POP POP POP POP SWAP2 POP POP SWAP2 SWAP1 POP JUMP JUMPDEST PUSH2 0x3305 DUP2 PUSH4 0xE9DC6375 PUSH1 0xE0 SHL PUSH2 0x3085 JUMP JUMPDEST ISZERO PUSH2 0x337D JUMPI PUSH1 0x40 MLOAD PUSH4 0xE9DC6375 PUSH1 0xE0 SHL DUP2 MSTORE PUSH1 0x1 PUSH1 0x1 PUSH1 0xA0 SHL SUB DUP3 AND SWAP1 PUSH4 0xE9DC6375 SWAP1 PUSH2 0x3338 SWAP1 ADDRESS SWAP1 DUP8 SWAP1 PUSH1 0x4 ADD PUSH2 0x4310 JUMP JUMPDEST PUSH1 0x0 PUSH1 0x40 MLOAD DUP1 DUP4 SUB DUP2 DUP7 GAS STATICCALL ISZERO DUP1 ISZERO PUSH2 0x3355 JUMPI RETURNDATASIZE PUSH1 0x0 DUP1 RETURNDATACOPY RETURNDATASIZE PUSH1 0x0 REVERT JUMPDEST POP POP POP POP PUSH1 0x40 MLOAD RETURNDATASIZE PUSH1 0x0 DUP3 RETURNDATACOPY PUSH1 0x1F RETURNDATASIZE SWAP1 DUP2 ADD PUSH1 0x1F NOT AND DUP3 ADD PUSH1 0x40 MSTORE PUSH2 0x2141 SWAP2 SWAP1 DUP2 ADD SWAP1 PUSH2 0x5017 JUMP JUMPDEST PUSH1 0x1 PUSH1 0x1 PUSH1 0xA0 SHL SUB DUP2 AND PUSH1 0x0 SWAP1 DUP2 MSTORE PUSH1 0xD5 PUSH1 0x20 MSTORE PUSH1 0x40 SWAP1 KECCAK256 SLOAD PUSH1 0xFF AND PUSH2 0x33CF JUMPI PUSH1 0x1 PUSH1 0x1 PUSH1 0xA0 SHL SUB DUP2 AND PUSH1 0x0 SWAP1 DUP2 MSTORE PUSH1 0xD4 PUSH1 0x20 MSTORE PUSH1 0x40 SWAP1 KECCAK256 PUSH2 0x33BE DUP5 PUSH2 0x3BB6 JUMP JUMPDEST PUSH1 0x40 MLOAD PUSH1 0x20 ADD PUSH2 0x323E SWAP3 SWAP2 SWAP1 PUSH2 0x5084 JUMP JUMPDEST PUSH1 0x1 PUSH1 0x1 PUSH1 0xA0 SHL SUB DUP2 AND PUSH1 0x0 SWAP1 DUP2 MSTORE PUSH1 0xD4 PUSH1 0x20 MSTORE PUSH1 0x40 SWAP1 KECCAK256 DUP1 SLOAD PUSH2 0x326E SWAP1 PUSH2 0x4991 JUMP JUMPDEST POP SWAP2 SWAP1 POP JUMP JUMPDEST PUSH2 0x3403 PUSH1 0xCD DUP3 PUSH2 0x2123 JUMP JUMPDEST ISZERO PUSH2 0x780 JUMPI PUSH1 0x40 MLOAD CALLER SWAP1 PUSH1 0x1 PUSH1 0x1 PUSH1 0xA0 SHL SUB DUP4 AND SWAP1 PUSH32 0xD19CF84CF0FEC6BEC9DDFA29C63ADF83A55707C712F32C8285D6180A78901479 SWAP1 PUSH1 0x0 SWAP1 LOG3 PUSH2 0xCB9 PUSH1 0xCD DUP3 PUSH2 0x28F1 JUMP JUMPDEST PUSH2 0x3454 PUSH1 0xCD DUP4 PUSH2 0x2123 JUMP JUMPDEST PUSH2 0x34A0 JUMPI PUSH1 0x40 MLOAD PUSH3 0x461BCD PUSH1 0xE5 SHL DUP2 MSTORE PUSH1 0x20 PUSH1 0x4 DUP3 ADD MSTORE PUSH1 0x1E PUSH1 0x24 DUP3 ADD MSTORE PUSH32 0x43726561746F72436F72653A20496E76616C696420657874656E73696F6E0000 PUSH1 0x44 DUP3 ADD MSTORE PUSH1 0x64 ADD PUSH2 0x76E JUMP JUMPDEST PUSH1 0x1 PUSH1 0x1 PUSH1 0xA0 SHL SUB DUP2 AND ISZERO DUP1 PUSH2 0x34C2 JUMPI POP PUSH2 0x34C2 DUP2 PUSH4 0x1E05385B PUSH1 0xE3 SHL PUSH2 0x3085 JUMP JUMPDEST PUSH2 0x3500 JUMPI PUSH1 0x40 MLOAD PUSH3 0x461BCD PUSH1 0xE5 SHL DUP2 MSTORE PUSH1 0x20 PUSH1 0x4 DUP3 ADD MSTORE PUSH1 0xF PUSH1 0x24 DUP3 ADD MSTORE PUSH15 0x496E76616C69642061646472657373 PUSH1 0x88 SHL PUSH1 0x44 DUP3 ADD MSTORE PUSH1 0x64 ADD PUSH2 0x76E JUMP JUMPDEST PUSH1 0x1 PUSH1 0x1 PUSH1 0xA0 SHL SUB DUP3 DUP2 AND PUSH1 0x0 SWAP1 DUP2 MSTORE PUSH1 0xD1 PUSH1 0x20 MSTORE PUSH1 0x40 SWAP1 KECCAK256 SLOAD DUP2 AND SWAP1 DUP3 AND EQ PUSH2 0xCB9 JUMPI PUSH1 0x1 PUSH1 0x1 PUSH1 0xA0 SHL SUB DUP3 DUP2 AND PUSH1 0x0 DUP2 DUP2 MSTORE PUSH1 0xD1 PUSH1 0x20 MSTORE PUSH1 0x40 DUP1 DUP3 KECCAK256 DUP1 SLOAD PUSH1 0x1 PUSH1 0x1 PUSH1 0xA0 SHL SUB NOT AND SWAP5 DUP7 AND SWAP5 DUP6 OR SWAP1 SSTORE MLOAD CALLER SWAP4 SWAP3 SWAP2 PUSH32 0x6A835C4FCF7E0D398DB3762332FDAA1471814AD39F1E2D6D0B3FDABF8EFEE3E0 SWAP2 LOG4 POP POP JUMP JUMPDEST PUSH1 0x0 PUSH1 0x1 PUSH1 0x1 PUSH1 0xE0 SHL SUB NOT DUP3 AND PUSH4 0x28F10A21 PUSH1 0xE0 SHL EQ DUP1 PUSH2 0x35A3 JUMPI POP PUSH2 0x35A3 DUP3 PUSH2 0x20BE JUMP JUMPDEST DUP1 PUSH2 0x35BE JUMPI POP PUSH1 0x1 PUSH1 0x1 PUSH1 0xE0 SHL SUB NOT DUP3 AND PUSH4 0x5D9DD7EB PUSH1 0xE1 SHL EQ JUMPDEST DUP1 PUSH2 0x35D9 JUMPI POP PUSH1 0x1 PUSH1 0x1 PUSH1 0xE0 SHL SUB NOT DUP3 AND PUSH4 0x2DDE6561 PUSH1 0xE2 SHL EQ JUMPDEST DUP1 PUSH2 0x35F4 JUMPI POP PUSH1 0x1 PUSH1 0x1 PUSH1 0xE0 SHL SUB NOT DUP3 AND PUSH4 0x35681B53 PUSH1 0xE2 SHL EQ JUMPDEST DUP1 PUSH2 0x728 JUMPI POP PUSH1 0x1 PUSH1 0x1 PUSH1 0xE0 SHL SUB NOT DUP3 AND PUSH4 0x152A902D PUSH1 0xE1 SHL EQ SWAP3 SWAP2 POP POP JUMP JUMPDEST PUSH1 0x1 PUSH1 0x1 PUSH1 0xE0 SHL SUB NOT AND PUSH4 0x1FFC9A7 PUSH1 0xE0 SHL EQ SWAP1 JUMP JUMPDEST PUSH2 0x9A8 DUP4 DUP4 DUP4 PUSH2 0x3CB6 JUMP JUMPDEST CALLER PUSH1 0x0 SWAP1 DUP2 MSTORE PUSH1 0xD1 PUSH1 0x20 MSTORE PUSH1 0x40 SWAP1 KECCAK256 SLOAD PUSH1 0x1 PUSH1 0x1 PUSH1 0xA0 SHL SUB AND ISZERO PUSH2 0xCB9 JUMPI CALLER PUSH1 0x0 DUP2 DUP2 MSTORE PUSH1 0xD1 PUSH1 0x20 MSTORE PUSH1 0x40 SWAP1 DUP2 SWAP1 KECCAK256 SLOAD SWAP1 MLOAD PUSH4 0x1E05385B PUSH1 0xE3 SHL DUP2 MSTORE PUSH1 0x1 PUSH1 0x1 PUSH1 0xA0 SHL SUB SWAP1 SWAP2 AND SWAP2 PUSH4 0xF029C2D8 SWAP2 PUSH2 0x3694 SWAP2 SWAP1 DUP7 SWAP1 DUP7 SWAP1 PUSH1 0x4 ADD PUSH2 0x50A9 JUMP JUMPDEST PUSH1 0x0 PUSH1 0x40 MLOAD DUP1 DUP4 SUB DUP2 PUSH1 0x0 DUP8 DUP1 EXTCODESIZE ISZERO DUP1 ISZERO PUSH2 0x36AE JUMPI PUSH1 0x0 DUP1 REVERT JUMPDEST POP GAS CALL ISZERO DUP1 ISZERO PUSH2 0x2BCD JUMPI RETURNDATASIZE PUSH1 0x0 DUP1 RETURNDATACOPY RETURNDATASIZE PUSH1 0x0 REVERT JUMPDEST PUSH2 0xCB9 DUP3 DUP3 PUSH1 0x40 MLOAD DUP1 PUSH1 0x20 ADD PUSH1 0x40 MSTORE DUP1 PUSH1 0x0 DUP2 MSTORE POP PUSH2 0x3DC5 JUMP JUMPDEST PUSH1 0x0 DUP2 DUP2 MSTORE PUSH1 0x1 DUP4 ADD PUSH1 0x20 MSTORE PUSH1 0x40 DUP2 KECCAK256 SLOAD DUP1 ISZERO PUSH2 0x37C5 JUMPI PUSH1 0x0 PUSH2 0x3700 PUSH1 0x1 DUP4 PUSH2 0x4E30 JUMP JUMPDEST DUP6 SLOAD SWAP1 SWAP2 POP PUSH1 0x0 SWAP1 PUSH2 0x3714 SWAP1 PUSH1 0x1 SWAP1 PUSH2 0x4E30 JUMP JUMPDEST SWAP1 POP DUP2 DUP2 EQ PUSH2 0x3779 JUMPI PUSH1 0x0 DUP7 PUSH1 0x0 ADD DUP3 DUP2 SLOAD DUP2 LT PUSH2 0x3734 JUMPI PUSH2 0x3734 PUSH2 0x4B12 JUMP JUMPDEST SWAP1 PUSH1 0x0 MSTORE PUSH1 0x20 PUSH1 0x0 KECCAK256 ADD SLOAD SWAP1 POP DUP1 DUP8 PUSH1 0x0 ADD DUP5 DUP2 SLOAD DUP2 LT PUSH2 0x3757 JUMPI PUSH2 0x3757 PUSH2 0x4B12 JUMP JUMPDEST PUSH1 0x0 SWAP2 DUP3 MSTORE PUSH1 0x20 DUP1 DUP4 KECCAK256 SWAP1 SWAP2 ADD SWAP3 SWAP1 SWAP3 SSTORE SWAP2 DUP3 MSTORE PUSH1 0x1 DUP9 ADD SWAP1 MSTORE PUSH1 0x40 SWAP1 KECCAK256 DUP4 SWAP1 SSTORE JUMPDEST DUP6 SLOAD DUP7 SWAP1 DUP1 PUSH2 0x378A JUMPI PUSH2 0x378A PUSH2 0x50CD JUMP JUMPDEST PUSH1 0x1 SWAP1 SUB DUP2 DUP2 SWAP1 PUSH1 0x0 MSTORE PUSH1 0x20 PUSH1 0x0 KECCAK256 ADD PUSH1 0x0 SWAP1 SSTORE SWAP1 SSTORE DUP6 PUSH1 0x1 ADD PUSH1 0x0 DUP7 DUP2 MSTORE PUSH1 0x20 ADD SWAP1 DUP2 MSTORE PUSH1 0x20 ADD PUSH1 0x0 KECCAK256 PUSH1 0x0 SWAP1 SSTORE PUSH1 0x1 SWAP4 POP POP POP POP PUSH2 0x728 JUMP JUMPDEST PUSH1 0x0 SWAP2 POP POP PUSH2 0x728 JUMP JUMPDEST PUSH1 0x0 DUP3 PUSH1 0x0 ADD DUP3 DUP2 SLOAD DUP2 LT PUSH2 0x37E6 JUMPI PUSH2 0x37E6 PUSH2 0x4B12 JUMP JUMPDEST SWAP1 PUSH1 0x0 MSTORE PUSH1 0x20 PUSH1 0x0 KECCAK256 ADD SLOAD SWAP1 POP SWAP3 SWAP2 POP POP JUMP JUMPDEST PUSH1 0x0 SLOAD PUSH2 0x100 SWAP1 DIV PUSH1 0xFF AND DUP1 PUSH2 0x3812 JUMPI POP PUSH1 0x0 SLOAD PUSH1 0xFF AND ISZERO JUMPDEST PUSH2 0x382E JUMPI PUSH1 0x40 MLOAD PUSH3 0x461BCD PUSH1 0xE5 SHL DUP2 MSTORE PUSH1 0x4 ADD PUSH2 0x76E SWAP1 PUSH2 0x4B9D JUMP JUMPDEST PUSH1 0x0 SLOAD PUSH2 0x100 SWAP1 DIV PUSH1 0xFF AND ISZERO DUP1 ISZERO PUSH2 0x2E93 JUMPI PUSH1 0x0 DUP1 SLOAD PUSH2 0xFFFF NOT AND PUSH2 0x101 OR SWAP1 SSTORE DUP1 ISZERO PUSH2 0x780 JUMPI PUSH1 0x0 DUP1 SLOAD PUSH2 0xFF00 NOT AND SWAP1 SSTORE POP JUMP JUMPDEST PUSH1 0x0 SLOAD PUSH2 0x100 SWAP1 DIV PUSH1 0xFF AND DUP1 PUSH2 0x387C JUMPI POP PUSH1 0x0 SLOAD PUSH1 0xFF AND ISZERO JUMPDEST PUSH2 0x3898 JUMPI PUSH1 0x40 MLOAD PUSH3 0x461BCD PUSH1 0xE5 SHL DUP2 MSTORE PUSH1 0x4 ADD PUSH2 0x76E SWAP1 PUSH2 0x4B9D JUMP JUMPDEST PUSH1 0x0 SLOAD PUSH2 0x100 SWAP1 DIV PUSH1 0xFF AND ISZERO DUP1 ISZERO PUSH2 0x38BA JUMPI PUSH1 0x0 DUP1 SLOAD PUSH2 0xFFFF NOT AND PUSH2 0x101 OR SWAP1 SSTORE JUMPDEST PUSH1 0x9A PUSH2 0x38C6 DUP5 DUP3 PUSH2 0x4E43 JUMP JUMPDEST POP PUSH1 0x9B PUSH2 0x38D3 DUP4 DUP3 PUSH2 0x4E43 JUMP JUMPDEST POP DUP1 ISZERO PUSH2 0x9A8 JUMPI PUSH1 0x0 DUP1 SLOAD PUSH2 0xFF00 NOT AND SWAP1 SSTORE POP POP POP JUMP JUMPDEST PUSH1 0x0 SLOAD PUSH2 0x100 SWAP1 DIV PUSH1 0xFF AND DUP1 PUSH2 0x3903 JUMPI POP PUSH1 0x0 SLOAD PUSH1 0xFF AND ISZERO JUMPDEST PUSH2 0x391F JUMPI PUSH1 0x40 MLOAD PUSH3 0x461BCD PUSH1 0xE5 SHL DUP2 MSTORE PUSH1 0x4 ADD PUSH2 0x76E SWAP1 PUSH2 0x4B9D JUMP JUMPDEST PUSH1 0x0 SLOAD PUSH2 0x100 SWAP1 DIV PUSH1 0xFF AND ISZERO DUP1 ISZERO PUSH2 0x3941 JUMPI PUSH1 0x0 DUP1 SLOAD PUSH2 0xFFFF NOT AND PUSH2 0x101 OR SWAP1 SSTORE JUMPDEST PUSH2 0x2E93 CALLER PUSH2 0x2F0C JUMP JUMPDEST PUSH1 0x0 DUP2 DUP2 MSTORE PUSH1 0x1 DUP4 ADD PUSH1 0x20 MSTORE PUSH1 0x40 DUP2 KECCAK256 SLOAD PUSH2 0x3991 JUMPI POP DUP2 SLOAD PUSH1 0x1 DUP2 DUP2 ADD DUP5 SSTORE PUSH1 0x0 DUP5 DUP2 MSTORE PUSH1 0x20 DUP1 DUP3 KECCAK256 SWAP1 SWAP4 ADD DUP5 SWAP1 SSTORE DUP5 SLOAD DUP5 DUP3 MSTORE DUP3 DUP7 ADD SWAP1 SWAP4 MSTORE PUSH1 0x40 SWAP1 KECCAK256 SWAP2 SWAP1 SWAP2 SSTORE PUSH2 0x728 JUMP JUMPDEST POP PUSH1 0x0 PUSH2 0x728 JUMP JUMPDEST PUSH1 0x0 PUSH2 0x39AC DUP3 PUSH4 0x1FFC9A7 PUSH1 0xE0 SHL PUSH2 0x39CC JUMP JUMPDEST DUP1 ISZERO PUSH2 0x728 JUMPI POP PUSH2 0x39C5 DUP3 PUSH1 0x1 PUSH1 0x1 PUSH1 0xE0 SHL SUB NOT PUSH2 0x39CC JUMP JUMPDEST ISZERO SWAP3 SWAP2 POP POP JUMP JUMPDEST PUSH1 0x40 DUP1 MLOAD PUSH1 0x1 PUSH1 0x1 PUSH1 0xE0 SHL SUB NOT DUP4 AND PUSH1 0x24 DUP1 DUP4 ADD SWAP2 SWAP1 SWAP2 MSTORE DUP3 MLOAD DUP1 DUP4 SUB SWAP1 SWAP2 ADD DUP2 MSTORE PUSH1 0x44 SWAP1 SWAP2 ADD DUP3 MSTORE PUSH1 0x20 DUP2 ADD DUP1 MLOAD PUSH1 0x1 PUSH1 0x1 PUSH1 0xE0 SHL SUB AND PUSH4 0x1FFC9A7 PUSH1 0xE0 SHL OR SWAP1 MSTORE SWAP1 MLOAD PUSH1 0x0 SWAP2 SWAP1 DUP3 SWAP1 DUP2 SWAP1 PUSH1 0x1 PUSH1 0x1 PUSH1 0xA0 SHL SUB DUP8 AND SWAP1 PUSH2 0x7530 SWAP1 PUSH2 0x3A33 SWAP1 DUP7 SWAP1 PUSH2 0x50E3 JUMP JUMPDEST PUSH1 0x0 PUSH1 0x40 MLOAD DUP1 DUP4 SUB DUP2 DUP7 DUP7 STATICCALL SWAP3 POP POP POP RETURNDATASIZE DUP1 PUSH1 0x0 DUP2 EQ PUSH2 0x3A6F JUMPI PUSH1 0x40 MLOAD SWAP2 POP PUSH1 0x1F NOT PUSH1 0x3F RETURNDATASIZE ADD AND DUP3 ADD PUSH1 0x40 MSTORE RETURNDATASIZE DUP3 MSTORE RETURNDATASIZE PUSH1 0x0 PUSH1 0x20 DUP5 ADD RETURNDATACOPY PUSH2 0x3A74 JUMP JUMPDEST PUSH1 0x60 SWAP2 POP JUMPDEST POP SWAP2 POP SWAP2 POP PUSH1 0x20 DUP2 MLOAD LT ISZERO PUSH2 0x3A8F JUMPI PUSH1 0x0 SWAP4 POP POP POP POP PUSH2 0x728 JUMP JUMPDEST DUP2 DUP1 ISZERO PUSH2 0x3AAB JUMPI POP DUP1 DUP1 PUSH1 0x20 ADD SWAP1 MLOAD DUP2 ADD SWAP1 PUSH2 0x3AAB SWAP2 SWAP1 PUSH2 0x50FF JUMP JUMPDEST SWAP7 SWAP6 POP POP POP POP POP POP JUMP JUMPDEST PUSH1 0x0 PUSH1 0x1 PUSH1 0x1 PUSH1 0xA0 SHL SUB DUP5 AND EXTCODESIZE ISZERO PUSH2 0x3BAB JUMPI PUSH1 0x40 MLOAD PUSH4 0xA85BD01 PUSH1 0xE1 SHL DUP2 MSTORE PUSH1 0x1 PUSH1 0x1 PUSH1 0xA0 SHL SUB DUP6 AND SWAP1 PUSH4 0x150B7A02 SWAP1 PUSH2 0x3AF9 SWAP1 CALLER SWAP1 DUP10 SWAP1 DUP9 SWAP1 DUP9 SWAP1 PUSH1 0x4 ADD PUSH2 0x511C JUMP JUMPDEST PUSH1 0x20 PUSH1 0x40 MLOAD DUP1 DUP4 SUB DUP2 PUSH1 0x0 DUP8 GAS CALL SWAP3 POP POP POP DUP1 ISZERO PUSH2 0x3B34 JUMPI POP PUSH1 0x40 DUP1 MLOAD PUSH1 0x1F RETURNDATASIZE SWAP1 DUP2 ADD PUSH1 0x1F NOT AND DUP3 ADD SWAP1 SWAP3 MSTORE PUSH2 0x3B31 SWAP2 DUP2 ADD SWAP1 PUSH2 0x514F JUMP JUMPDEST PUSH1 0x1 JUMPDEST PUSH2 0x3B91 JUMPI RETURNDATASIZE DUP1 DUP1 ISZERO PUSH2 0x3B62 JUMPI PUSH1 0x40 MLOAD SWAP2 POP PUSH1 0x1F NOT PUSH1 0x3F RETURNDATASIZE ADD AND DUP3 ADD PUSH1 0x40 MSTORE RETURNDATASIZE DUP3 MSTORE RETURNDATASIZE PUSH1 0x0 PUSH1 0x20 DUP5 ADD RETURNDATACOPY PUSH2 0x3B67 JUMP JUMPDEST PUSH1 0x60 SWAP2 POP JUMPDEST POP DUP1 MLOAD PUSH1 0x0 SUB PUSH2 0x3B89 JUMPI PUSH1 0x40 MLOAD PUSH3 0x461BCD PUSH1 0xE5 SHL DUP2 MSTORE PUSH1 0x4 ADD PUSH2 0x76E SWAP1 PUSH2 0x4F3D JUMP JUMPDEST DUP1 MLOAD DUP2 PUSH1 0x20 ADD REVERT JUMPDEST PUSH1 0x1 PUSH1 0x1 PUSH1 0xE0 SHL SUB NOT AND PUSH4 0xA85BD01 PUSH1 0xE1 SHL EQ SWAP1 POP PUSH2 0x25F3 JUMP JUMPDEST POP PUSH1 0x1 SWAP5 SWAP4 POP POP POP POP JUMP JUMPDEST PUSH1 0x60 DUP2 PUSH1 0x0 SUB PUSH2 0x3BDD JUMPI POP POP PUSH1 0x40 DUP1 MLOAD DUP1 DUP3 ADD SWAP1 SWAP2 MSTORE PUSH1 0x1 DUP2 MSTORE PUSH1 0x3 PUSH1 0xFC SHL PUSH1 0x20 DUP3 ADD MSTORE SWAP1 JUMP JUMPDEST DUP2 PUSH1 0x0 JUMPDEST DUP2 ISZERO PUSH2 0x3C07 JUMPI DUP1 PUSH2 0x3BF1 DUP2 PUSH2 0x4B3E JUMP JUMPDEST SWAP2 POP PUSH2 0x3C00 SWAP1 POP PUSH1 0xA DUP4 PUSH2 0x4F29 JUMP JUMPDEST SWAP2 POP PUSH2 0x3BE1 JUMP JUMPDEST PUSH1 0x0 DUP2 PUSH1 0x1 PUSH1 0x1 PUSH1 0x40 SHL SUB DUP2 GT ISZERO PUSH2 0x3C21 JUMPI PUSH2 0x3C21 PUSH2 0x4519 JUMP JUMPDEST PUSH1 0x40 MLOAD SWAP1 DUP1 DUP3 MSTORE DUP1 PUSH1 0x1F ADD PUSH1 0x1F NOT AND PUSH1 0x20 ADD DUP3 ADD PUSH1 0x40 MSTORE DUP1 ISZERO PUSH2 0x3C4B JUMPI PUSH1 0x20 DUP3 ADD DUP2 DUP1 CALLDATASIZE DUP4 CALLDATACOPY ADD SWAP1 POP JUMPDEST POP SWAP1 POP JUMPDEST DUP5 ISZERO PUSH2 0x25F3 JUMPI PUSH2 0x3C60 PUSH1 0x1 DUP4 PUSH2 0x4E30 JUMP JUMPDEST SWAP2 POP PUSH2 0x3C6D PUSH1 0xA DUP7 PUSH2 0x516C JUMP JUMPDEST PUSH2 0x3C78 SWAP1 PUSH1 0x30 PUSH2 0x4D6E JUMP JUMPDEST PUSH1 0xF8 SHL DUP2 DUP4 DUP2 MLOAD DUP2 LT PUSH2 0x3C8D JUMPI PUSH2 0x3C8D PUSH2 0x4B12 JUMP JUMPDEST PUSH1 0x20 ADD ADD SWAP1 PUSH1 0x1 PUSH1 0x1 PUSH1 0xF8 SHL SUB NOT AND SWAP1 DUP2 PUSH1 0x0 BYTE SWAP1 MSTORE8 POP PUSH2 0x3CAF PUSH1 0xA DUP7 PUSH2 0x4F29 JUMP JUMPDEST SWAP5 POP PUSH2 0x3C4F JUMP JUMPDEST PUSH1 0x0 DUP2 DUP2 MSTORE PUSH1 0xD3 PUSH1 0x20 SWAP1 DUP2 MSTORE PUSH1 0x40 DUP1 DUP4 KECCAK256 SLOAD PUSH1 0x1 PUSH1 0x1 PUSH1 0xA0 SHL SUB AND DUP4 MSTORE PUSH1 0xD2 SWAP1 SWAP2 MSTORE SWAP1 KECCAK256 SLOAD PUSH1 0xFF AND ISZERO PUSH2 0x9A8 JUMPI PUSH1 0x0 DUP2 DUP2 MSTORE PUSH1 0xD3 PUSH1 0x20 MSTORE PUSH1 0x40 SWAP1 DUP2 SWAP1 KECCAK256 SLOAD SWAP1 MLOAD PUSH4 0x82580805 PUSH1 0xE0 SHL DUP2 MSTORE PUSH1 0x1 PUSH1 0x1 PUSH1 0xA0 SHL SUB SWAP1 SWAP2 AND SWAP1 PUSH4 0x82580805 SWAP1 PUSH2 0x3D24 SWAP1 DUP7 SWAP1 DUP7 SWAP1 DUP7 SWAP1 PUSH1 0x4 ADD PUSH2 0x50A9 JUMP JUMPDEST PUSH1 0x20 PUSH1 0x40 MLOAD DUP1 DUP4 SUB DUP2 PUSH1 0x0 DUP8 GAS CALL ISZERO DUP1 ISZERO PUSH2 0x3D43 JUMPI RETURNDATASIZE PUSH1 0x0 DUP1 RETURNDATACOPY RETURNDATASIZE PUSH1 0x0 REVERT JUMPDEST POP POP POP POP PUSH1 0x40 MLOAD RETURNDATASIZE PUSH1 0x1F NOT PUSH1 0x1F DUP3 ADD AND DUP3 ADD DUP1 PUSH1 0x40 MSTORE POP DUP2 ADD SWAP1 PUSH2 0x3D67 SWAP2 SWAP1 PUSH2 0x50FF JUMP JUMPDEST PUSH2 0x9A8 JUMPI PUSH1 0x40 MLOAD PUSH3 0x461BCD PUSH1 0xE5 SHL DUP2 MSTORE PUSH1 0x20 PUSH1 0x4 DUP3 ADD MSTORE PUSH1 0x29 PUSH1 0x24 DUP3 ADD MSTORE PUSH32 0x45524337323143726561746F723A20457874656E73696F6E20617070726F7661 PUSH1 0x44 DUP3 ADD MSTORE PUSH9 0x6C206661696C757265 PUSH1 0xB8 SHL PUSH1 0x64 DUP3 ADD MSTORE PUSH1 0x84 ADD PUSH2 0x76E JUMP JUMPDEST PUSH2 0x3DCF DUP4 DUP4 PUSH2 0x3DF8 JUMP JUMPDEST PUSH2 0x3DDC PUSH1 0x0 DUP5 DUP5 DUP5 PUSH2 0x3AB5 JUMP JUMPDEST PUSH2 0x9A8 JUMPI PUSH1 0x40 MLOAD PUSH3 0x461BCD PUSH1 0xE5 SHL DUP2 MSTORE PUSH1 0x4 ADD PUSH2 0x76E SWAP1 PUSH2 0x4F3D JUMP JUMPDEST PUSH1 0x1 PUSH1 0x1 PUSH1 0xA0 SHL SUB DUP3 AND PUSH2 0x3E4E JUMPI PUSH1 0x40 MLOAD PUSH3 0x461BCD PUSH1 0xE5 SHL DUP2 MSTORE PUSH1 0x20 PUSH1 0x4 DUP3 ADD DUP2 SWAP1 MSTORE PUSH1 0x24 DUP3 ADD MSTORE PUSH32 0x4552433732313A206D696E7420746F20746865207A65726F2061646472657373 PUSH1 0x44 DUP3 ADD MSTORE PUSH1 0x64 ADD PUSH2 0x76E JUMP JUMPDEST PUSH2 0x3E57 DUP2 PUSH2 0x223F JUMP JUMPDEST ISZERO PUSH2 0x3EA3 JUMPI PUSH1 0x40 MLOAD PUSH3 0x461BCD PUSH1 0xE5 SHL DUP2 MSTORE PUSH1 0x20 PUSH1 0x4 DUP3 ADD MSTORE PUSH1 0x1C PUSH1 0x24 DUP3 ADD MSTORE PUSH28 0x115490CDCC8C4E881D1BDAD95B88185B1C9958591E481B5A5B9D1959 PUSH1 0x22 SHL PUSH1 0x44 DUP3 ADD MSTORE PUSH1 0x64 ADD PUSH2 0x76E JUMP JUMPDEST PUSH2 0x3EAF PUSH1 0x0 DUP4 DUP4 PUSH2 0x362A JUMP JUMPDEST PUSH1 0x1 PUSH1 0x1 PUSH1 0xA0 SHL SUB DUP3 AND PUSH1 0x0 SWAP1 DUP2 MSTORE PUSH1 0x9D PUSH1 0x20 MSTORE PUSH1 0x40 DUP2 KECCAK256 DUP1 SLOAD PUSH1 0x1 SWAP3 SWAP1 PUSH2 0x3ED8 SWAP1 DUP5 SWAP1 PUSH2 0x4D6E JUMP JUMPDEST SWAP1 SWAP2 SSTORE POP POP PUSH1 0x0 DUP2 DUP2 MSTORE PUSH1 0x9C PUSH1 0x20 MSTORE PUSH1 0x40 DUP1 DUP3 KECCAK256 DUP1 SLOAD PUSH1 0x1 PUSH1 0x1 PUSH1 0xA0 SHL SUB NOT AND PUSH1 0x1 PUSH1 0x1 PUSH1 0xA0 SHL SUB DUP7 AND SWAP1 DUP2 OR SWAP1 SWAP2 SSTORE SWAP1 MLOAD DUP4 SWAP3 SWAP1 PUSH1 0x0 DUP1 MLOAD PUSH1 0x20 PUSH2 0x5181 DUP4 CODECOPY DUP2 MLOAD SWAP2 MSTORE SWAP1 DUP3 SWAP1 LOG4 POP POP JUMP JUMPDEST DUP3 DUP1 SLOAD DUP3 DUP3 SSTORE SWAP1 PUSH1 0x0 MSTORE PUSH1 0x20 PUSH1 0x0 KECCAK256 SWAP1 DUP2 ADD SWAP3 DUP3 ISZERO PUSH2 0x3F77 JUMPI SWAP2 PUSH1 0x20 MUL DUP3 ADD JUMPDEST DUP3 DUP2 GT ISZERO PUSH2 0x3F77 JUMPI DUP2 SLOAD PUSH1 0x1 PUSH1 0x1 PUSH1 0xA0 SHL SUB NOT AND PUSH1 0x1 PUSH1 0x1 PUSH1 0xA0 SHL SUB DUP5 CALLDATALOAD AND OR DUP3 SSTORE PUSH1 0x20 SWAP1 SWAP3 ADD SWAP2 PUSH1 0x1 SWAP1 SWAP2 ADD SWAP1 PUSH2 0x3F44 JUMP JUMPDEST POP PUSH2 0xE62 SWAP3 SWAP2 POP PUSH2 0x3FF4 JUMP JUMPDEST DUP3 DUP1 SLOAD DUP3 DUP3 SSTORE SWAP1 PUSH1 0x0 MSTORE PUSH1 0x20 PUSH1 0x0 KECCAK256 SWAP1 DUP2 ADD SWAP3 DUP3 ISZERO PUSH2 0x3F77 JUMPI SWAP2 PUSH1 0x20 MUL DUP3 ADD JUMPDEST DUP3 DUP2 GT ISZERO PUSH2 0x3F77 JUMPI DUP3 CALLDATALOAD DUP3 SSTORE SWAP2 PUSH1 0x20 ADD SWAP2 SWAP1 PUSH1 0x1 ADD SWAP1 PUSH2 0x3FA3 JUMP JUMPDEST POP DUP1 SLOAD PUSH2 0x3FCA SWAP1 PUSH2 0x4991 JUMP JUMPDEST PUSH1 0x0 DUP3 SSTORE DUP1 PUSH1 0x1F LT PUSH2 0x3FDA JUMPI POP POP JUMP JUMPDEST PUSH1 0x1F ADD PUSH1 0x20 SWAP1 DIV SWAP1 PUSH1 0x0 MSTORE PUSH1 0x20 PUSH1 0x0 KECCAK256 SWAP1 DUP2 ADD SWAP1 PUSH2 0x780 SWAP2 SWAP1 JUMPDEST JUMPDEST DUP1 DUP3 GT ISZERO PUSH2 0xE62 JUMPI PUSH1 0x0 DUP2 SSTORE PUSH1 0x1 ADD PUSH2 0x3FF5 JUMP JUMPDEST PUSH1 0x1 PUSH1 0x1 PUSH1 0xE0 SHL SUB NOT DUP2 AND DUP2 EQ PUSH2 0x780 JUMPI PUSH1 0x0 DUP1 REVERT JUMPDEST PUSH1 0x0 PUSH1 0x20 DUP3 DUP5 SUB SLT ISZERO PUSH2 0x4031 JUMPI PUSH1 0x0 DUP1 REVERT JUMPDEST DUP2 CALLDATALOAD PUSH2 0x2141 DUP2 PUSH2 0x4009 JUMP JUMPDEST PUSH1 0x1 PUSH1 0x1 PUSH1 0xA0 SHL SUB DUP2 AND DUP2 EQ PUSH2 0x780 JUMPI PUSH1 0x0 DUP1 REVERT JUMPDEST PUSH1 0x0 PUSH1 0x20 DUP3 DUP5 SUB SLT ISZERO PUSH2 0x4063 JUMPI PUSH1 0x0 DUP1 REVERT JUMPDEST DUP2 CALLDATALOAD PUSH2 0x2141 DUP2 PUSH2 0x403C JUMP JUMPDEST PUSH1 0x0 JUMPDEST DUP4 DUP2 LT ISZERO PUSH2 0x4089 JUMPI DUP2 DUP2 ADD MLOAD DUP4 DUP3 ADD MSTORE PUSH1 0x20 ADD PUSH2 0x4071 JUMP JUMPDEST POP POP PUSH1 0x0 SWAP2 ADD MSTORE JUMP JUMPDEST PUSH1 0x0 DUP2 MLOAD DUP1 DUP5 MSTORE PUSH2 0x40AA DUP2 PUSH1 0x20 DUP7 ADD PUSH1 0x20 DUP7 ADD PUSH2 0x406E JUMP JUMPDEST PUSH1 0x1F ADD PUSH1 0x1F NOT AND SWAP3 SWAP1 SWAP3 ADD PUSH1 0x20 ADD SWAP3 SWAP2 POP POP JUMP JUMPDEST PUSH1 0x20 DUP2 MSTORE PUSH1 0x0 PUSH2 0x2141 PUSH1 0x20 DUP4 ADD DUP5 PUSH2 0x4092 JUMP JUMPDEST PUSH1 0x0 PUSH1 0x20 DUP3 DUP5 SUB SLT ISZERO PUSH2 0x40E3 JUMPI PUSH1 0x0 DUP1 REVERT JUMPDEST POP CALLDATALOAD SWAP2 SWAP1 POP JUMP JUMPDEST PUSH1 0x0 DUP1 PUSH1 0x40 DUP4 DUP6 SUB SLT ISZERO PUSH2 0x40FD JUMPI PUSH1 0x0 DUP1 REVERT JUMPDEST DUP3 CALLDATALOAD PUSH2 0x4108 DUP2 PUSH2 0x403C JUMP JUMPDEST SWAP5 PUSH1 0x20 SWAP4 SWAP1 SWAP4 ADD CALLDATALOAD SWAP4 POP POP POP JUMP JUMPDEST PUSH1 0x0 DUP2 MLOAD DUP1 DUP5 MSTORE PUSH1 0x20 DUP1 DUP6 ADD SWAP5 POP DUP1 DUP5 ADD PUSH1 0x0 JUMPDEST DUP4 DUP2 LT ISZERO PUSH2 0x4146 JUMPI DUP2 MLOAD DUP8 MSTORE SWAP6 DUP3 ADD SWAP6 SWAP1 DUP3 ADD SWAP1 PUSH1 0x1 ADD PUSH2 0x412A JUMP JUMPDEST POP SWAP5 SWAP6 SWAP5 POP POP POP POP POP JUMP JUMPDEST PUSH1 0x20 DUP2 MSTORE PUSH1 0x0 PUSH2 0x2141 PUSH1 0x20 DUP4 ADD DUP5 PUSH2 0x4116 JUMP JUMPDEST PUSH1 0x0 DUP1 DUP4 PUSH1 0x1F DUP5 ADD SLT PUSH2 0x4176 JUMPI PUSH1 0x0 DUP1 REVERT JUMPDEST POP DUP2 CALLDATALOAD PUSH1 0x1 PUSH1 0x1 PUSH1 0x40 SHL SUB DUP2 GT ISZERO PUSH2 0x418D JUMPI PUSH1 0x0 DUP1 REVERT JUMPDEST PUSH1 0x20 DUP4 ADD SWAP2 POP DUP4 PUSH1 0x20 DUP3 DUP6 ADD ADD GT ISZERO PUSH2 0xC32 JUMPI PUSH1 0x0 DUP1 REVERT JUMPDEST PUSH1 0x0 DUP1 PUSH1 0x0 PUSH1 0x40 DUP5 DUP7 SUB SLT ISZERO PUSH2 0x41BA JUMPI PUSH1 0x0 DUP1 REVERT JUMPDEST DUP4 CALLDATALOAD SWAP3 POP PUSH1 0x20 DUP5 ADD CALLDATALOAD PUSH1 0x1 PUSH1 0x1 PUSH1 0x40 SHL SUB DUP2 GT ISZERO PUSH2 0x41D7 JUMPI PUSH1 0x0 DUP1 REVERT JUMPDEST PUSH2 0x41E3 DUP7 DUP3 DUP8 ADD PUSH2 0x4164 JUMP JUMPDEST SWAP5 SWAP8 SWAP1 SWAP7 POP SWAP4 SWAP5 POP POP POP POP JUMP JUMPDEST PUSH1 0x0 DUP1 DUP4 PUSH1 0x1F DUP5 ADD SLT PUSH2 0x4202 JUMPI PUSH1 0x0 DUP1 REVERT JUMPDEST POP DUP2 CALLDATALOAD PUSH1 0x1 PUSH1 0x1 PUSH1 0x40 SHL SUB DUP2 GT ISZERO PUSH2 0x4219 JUMPI PUSH1 0x0 DUP1 REVERT JUMPDEST PUSH1 0x20 DUP4 ADD SWAP2 POP DUP4 PUSH1 0x20 DUP3 PUSH1 0x5 SHL DUP6 ADD ADD GT ISZERO PUSH2 0xC32 JUMPI PUSH1 0x0 DUP1 REVERT JUMPDEST PUSH1 0x0 DUP1 PUSH1 0x0 DUP1 PUSH1 0x0 PUSH1 0x60 DUP7 DUP9 SUB SLT ISZERO PUSH2 0x424C JUMPI PUSH1 0x0 DUP1 REVERT JUMPDEST DUP6 CALLDATALOAD SWAP5 POP PUSH1 0x20 DUP7 ADD CALLDATALOAD PUSH1 0x1 PUSH1 0x1 PUSH1 0x40 SHL SUB DUP1 DUP3 GT ISZERO PUSH2 0x426A JUMPI PUSH1 0x0 DUP1 REVERT JUMPDEST PUSH2 0x4276 DUP10 DUP4 DUP11 ADD PUSH2 0x41F0 JUMP JUMPDEST SWAP1 SWAP7 POP SWAP5 POP PUSH1 0x40 DUP9 ADD CALLDATALOAD SWAP2 POP DUP1 DUP3 GT ISZERO PUSH2 0x428F JUMPI PUSH1 0x0 DUP1 REVERT JUMPDEST POP PUSH2 0x429C DUP9 DUP3 DUP10 ADD PUSH2 0x41F0 JUMP JUMPDEST SWAP7 SWAP10 SWAP6 SWAP9 POP SWAP4 SWAP7 POP SWAP3 SWAP5 SWAP4 SWAP3 POP POP POP JUMP JUMPDEST PUSH1 0x0 DUP1 PUSH1 0x0 PUSH1 0x60 DUP5 DUP7 SUB SLT ISZERO PUSH2 0x42C2 JUMPI PUSH1 0x0 DUP1 REVERT JUMPDEST DUP4 CALLDATALOAD PUSH2 0x42CD DUP2 PUSH2 0x403C JUMP JUMPDEST SWAP3 POP PUSH1 0x20 DUP5 ADD CALLDATALOAD PUSH2 0x42DD DUP2 PUSH2 0x403C JUMP JUMPDEST SWAP3 SWAP6 SWAP3 SWAP5 POP POP POP PUSH1 0x40 SWAP2 SWAP1 SWAP2 ADD CALLDATALOAD SWAP1 JUMP JUMPDEST PUSH1 0x0 DUP1 PUSH1 0x40 DUP4 DUP6 SUB SLT ISZERO PUSH2 0x4301 JUMPI PUSH1 0x0 DUP1 REVERT JUMPDEST POP POP DUP1 CALLDATALOAD SWAP3 PUSH1 0x20 SWAP1 SWAP2 ADD CALLDATALOAD SWAP2 POP JUMP JUMPDEST PUSH1 0x1 PUSH1 0x1 PUSH1 0xA0 SHL SUB SWAP3 SWAP1 SWAP3 AND DUP3 MSTORE PUSH1 0x20 DUP3 ADD MSTORE PUSH1 0x40 ADD SWAP1 JUMP JUMPDEST PUSH1 0x0 DUP1 PUSH1 0x20 DUP4 DUP6 SUB SLT ISZERO PUSH2 0x433C JUMPI PUSH1 0x0 DUP1 REVERT JUMPDEST DUP3 CALLDATALOAD PUSH1 0x1 PUSH1 0x1 PUSH1 0x40 SHL SUB DUP2 GT ISZERO PUSH2 0x4352 JUMPI PUSH1 0x0 DUP1 REVERT JUMPDEST PUSH2 0x435E DUP6 DUP3 DUP7 ADD PUSH2 0x4164 JUMP JUMPDEST SWAP1 SWAP7 SWAP1 SWAP6 POP SWAP4 POP POP POP POP JUMP JUMPDEST PUSH1 0x0 DUP1 PUSH1 0x0 PUSH1 0x40 DUP5 DUP7 SUB SLT ISZERO PUSH2 0x437F JUMPI PUSH1 0x0 DUP1 REVERT JUMPDEST DUP4 CALLDATALOAD PUSH2 0x438A DUP2 PUSH2 0x403C JUMP JUMPDEST SWAP3 POP PUSH1 0x20 DUP5 ADD CALLDATALOAD PUSH1 0x1 PUSH1 0x1 PUSH1 0x40 SHL SUB DUP2 GT ISZERO PUSH2 0x41D7 JUMPI PUSH1 0x0 DUP1 REVERT JUMPDEST PUSH1 0x20 DUP1 DUP3 MSTORE DUP3 MLOAD DUP3 DUP3 ADD DUP2 SWAP1 MSTORE PUSH1 0x0 SWAP2 SWAP1 DUP5 DUP3 ADD SWAP1 PUSH1 0x40 DUP6 ADD SWAP1 DUP5 JUMPDEST DUP2 DUP2 LT ISZERO PUSH2 0x43E6 JUMPI DUP4 MLOAD PUSH1 0x1 PUSH1 0x1 PUSH1 0xA0 SHL SUB AND DUP4 MSTORE SWAP3 DUP5 ADD SWAP3 SWAP2 DUP5 ADD SWAP2 PUSH1 0x1 ADD PUSH2 0x43C1 JUMP JUMPDEST POP SWAP1 SWAP7 SWAP6 POP POP POP POP POP POP JUMP JUMPDEST PUSH1 0x0 DUP1 PUSH1 0x0 DUP1 PUSH1 0x40 DUP6 DUP8 SUB SLT ISZERO PUSH2 0x4408 JUMPI PUSH1 0x0 DUP1 REVERT JUMPDEST DUP5 CALLDATALOAD PUSH1 0x1 PUSH1 0x1 PUSH1 0x40 SHL SUB DUP1 DUP3 GT ISZERO PUSH2 0x441F JUMPI PUSH1 0x0 DUP1 REVERT JUMPDEST PUSH2 0x442B DUP9 DUP4 DUP10 ADD PUSH2 0x41F0 JUMP JUMPDEST SWAP1 SWAP7 POP SWAP5 POP PUSH1 0x20 DUP8 ADD CALLDATALOAD SWAP2 POP DUP1 DUP3 GT ISZERO PUSH2 0x4444 JUMPI PUSH1 0x0 DUP1 REVERT JUMPDEST POP PUSH2 0x4451 DUP8 DUP3 DUP9 ADD PUSH2 0x41F0 JUMP JUMPDEST SWAP6 SWAP9 SWAP5 SWAP8 POP SWAP6 POP POP POP POP JUMP JUMPDEST PUSH1 0x0 DUP1 PUSH1 0x0 PUSH1 0x40 DUP5 DUP7 SUB SLT ISZERO PUSH2 0x4472 JUMPI PUSH1 0x0 DUP1 REVERT JUMPDEST DUP4 CALLDATALOAD PUSH2 0x447D DUP2 PUSH2 0x403C JUMP JUMPDEST SWAP3 POP PUSH1 0x20 DUP5 ADD CALLDATALOAD PUSH1 0x1 PUSH1 0x1 PUSH1 0x40 SHL SUB DUP2 GT ISZERO PUSH2 0x4498 JUMPI PUSH1 0x0 DUP1 REVERT JUMPDEST PUSH2 0x41E3 DUP7 DUP3 DUP8 ADD PUSH2 0x41F0 JUMP JUMPDEST DUP1 ISZERO ISZERO DUP2 EQ PUSH2 0x780 JUMPI PUSH1 0x0 DUP1 REVERT JUMPDEST PUSH1 0x0 DUP1 PUSH1 0x0 DUP1 PUSH1 0x60 DUP6 DUP8 SUB SLT ISZERO PUSH2 0x44C8 JUMPI PUSH1 0x0 DUP1 REVERT JUMPDEST DUP5 CALLDATALOAD PUSH2 0x44D3 DUP2 PUSH2 0x403C JUMP JUMPDEST SWAP4 POP PUSH1 0x20 DUP6 ADD CALLDATALOAD PUSH1 0x1 PUSH1 0x1 PUSH1 0x40 SHL SUB DUP2 GT ISZERO PUSH2 0x44EE JUMPI PUSH1 0x0 DUP1 REVERT JUMPDEST PUSH2 0x44FA DUP8 DUP3 DUP9 ADD PUSH2 0x4164 JUMP JUMPDEST SWAP1 SWAP5 POP SWAP3 POP POP PUSH1 0x40 DUP6 ADD CALLDATALOAD PUSH2 0x450E DUP2 PUSH2 0x44A4 JUMP JUMPDEST SWAP4 SWAP7 SWAP3 SWAP6 POP SWAP1 SWAP4 POP POP JUMP JUMPDEST PUSH4 0x4E487B71 PUSH1 0xE0 SHL PUSH1 0x0 MSTORE PUSH1 0x41 PUSH1 0x4 MSTORE PUSH1 0x24 PUSH1 0x0 REVERT JUMPDEST PUSH1 0x40 MLOAD PUSH1 0x1F DUP3 ADD PUSH1 0x1F NOT AND DUP2 ADD PUSH1 0x1 PUSH1 0x1 PUSH1 0x40 SHL SUB DUP2 GT DUP3 DUP3 LT OR ISZERO PUSH2 0x4557 JUMPI PUSH2 0x4557 PUSH2 0x4519 JUMP JUMPDEST PUSH1 0x40 MSTORE SWAP2 SWAP1 POP JUMP JUMPDEST PUSH1 0x0 PUSH1 0x1 PUSH1 0x1 PUSH1 0x40 SHL SUB DUP3 GT ISZERO PUSH2 0x4578 JUMPI PUSH2 0x4578 PUSH2 0x4519 JUMP JUMPDEST POP PUSH1 0x1F ADD PUSH1 0x1F NOT AND PUSH1 0x20 ADD SWAP1 JUMP JUMPDEST PUSH1 0x0 PUSH2 0x4599 PUSH2 0x4594 DUP5 PUSH2 0x455F JUMP JUMPDEST PUSH2 0x452F JUMP JUMPDEST SWAP1 POP DUP3 DUP2 MSTORE DUP4 DUP4 DUP4 ADD GT ISZERO PUSH2 0x45AD JUMPI PUSH1 0x0 DUP1 REVERT JUMPDEST DUP3 DUP3 PUSH1 0x20 DUP4 ADD CALLDATACOPY PUSH1 0x0 PUSH1 0x20 DUP5 DUP4 ADD ADD MSTORE SWAP4 SWAP3 POP POP POP JUMP JUMPDEST PUSH1 0x0 DUP3 PUSH1 0x1F DUP4 ADD SLT PUSH2 0x45D5 JUMPI PUSH1 0x0 DUP1 REVERT JUMPDEST PUSH2 0x2141 DUP4 DUP4 CALLDATALOAD PUSH1 0x20 DUP6 ADD PUSH2 0x4586 JUMP JUMPDEST PUSH1 0x0 DUP1 PUSH1 0x40 DUP4 DUP6 SUB SLT ISZERO PUSH2 0x45F7 JUMPI PUSH1 0x0 DUP1 REVERT JUMPDEST DUP3 CALLDATALOAD PUSH1 0x1 PUSH1 0x1 PUSH1 0x40 SHL SUB DUP1 DUP3 GT ISZERO PUSH2 0x460E JUMPI PUSH1 0x0 DUP1 REVERT JUMPDEST PUSH2 0x461A DUP7 DUP4 DUP8 ADD PUSH2 0x45C4 JUMP JUMPDEST SWAP4 POP PUSH1 0x20 DUP6 ADD CALLDATALOAD SWAP2 POP DUP1 DUP3 GT ISZERO PUSH2 0x4630 JUMPI PUSH1 0x0 DUP1 REVERT JUMPDEST POP PUSH2 0x463D DUP6 DUP3 DUP7 ADD PUSH2 0x45C4 JUMP JUMPDEST SWAP2 POP POP SWAP3 POP SWAP3 SWAP1 POP JUMP JUMPDEST PUSH1 0x0 DUP1 PUSH1 0x0 PUSH1 0x40 DUP5 DUP7 SUB SLT ISZERO PUSH2 0x465C JUMPI PUSH1 0x0 DUP1 REVERT JUMPDEST DUP4 CALLDATALOAD PUSH1 0x1 PUSH1 0x1 PUSH1 0x40 SHL SUB DUP1 DUP3 GT ISZERO PUSH2 0x4673 JUMPI PUSH1 0x0 DUP1 REVERT JUMPDEST DUP2 DUP7 ADD SWAP2 POP DUP7 PUSH1 0x1F DUP4 ADD SLT PUSH2 0x4687 JUMPI PUSH1 0x0 DUP1 REVERT JUMPDEST DUP2 CALLDATALOAD PUSH1 0x20 DUP3 DUP3 GT ISZERO PUSH2 0x469B JUMPI PUSH2 0x469B PUSH2 0x4519 JUMP JUMPDEST DUP2 PUSH1 0x5 SHL PUSH2 0x46AA DUP3 DUP3 ADD PUSH2 0x452F JUMP JUMPDEST SWAP3 DUP4 MSTORE DUP5 DUP2 ADD DUP3 ADD SWAP3 DUP3 DUP2 ADD SWAP1 DUP12 DUP6 GT ISZERO PUSH2 0x46C4 JUMPI PUSH1 0x0 DUP1 REVERT JUMPDEST SWAP6 DUP4 ADD SWAP6 JUMPDEST DUP5 DUP8 LT ISZERO PUSH2 0x46E2 JUMPI DUP7 CALLDATALOAD DUP3 MSTORE SWAP6 DUP4 ADD SWAP6 SWAP1 DUP4 ADD SWAP1 PUSH2 0x46C9 JUMP JUMPDEST SWAP9 POP POP POP DUP8 ADD CALLDATALOAD SWAP3 POP POP DUP1 DUP3 GT ISZERO PUSH2 0x46F9 JUMPI PUSH1 0x0 DUP1 REVERT JUMPDEST POP PUSH2 0x41E3 DUP7 DUP3 DUP8 ADD PUSH2 0x41F0 JUMP JUMPDEST PUSH1 0x0 DUP1 PUSH1 0x0 PUSH1 0x40 DUP5 DUP7 SUB SLT ISZERO PUSH2 0x471B JUMPI PUSH1 0x0 DUP1 REVERT JUMPDEST DUP4 CALLDATALOAD PUSH1 0x1 PUSH1 0x1 PUSH1 0x40 SHL SUB DUP2 GT ISZERO PUSH2 0x4731 JUMPI PUSH1 0x0 DUP1 REVERT JUMPDEST PUSH2 0x473D DUP7 DUP3 DUP8 ADD PUSH2 0x4164 JUMP JUMPDEST SWAP1 SWAP5 POP SWAP3 POP POP PUSH1 0x20 DUP5 ADD CALLDATALOAD PUSH2 0x4751 DUP2 PUSH2 0x44A4 JUMP JUMPDEST DUP1 SWAP2 POP POP SWAP3 POP SWAP3 POP SWAP3 JUMP JUMPDEST PUSH1 0x0 DUP1 PUSH1 0x40 DUP4 DUP6 SUB SLT ISZERO PUSH2 0x476F JUMPI PUSH1 0x0 DUP1 REVERT JUMPDEST DUP3 CALLDATALOAD PUSH2 0x477A DUP2 PUSH2 0x403C JUMP JUMPDEST SWAP2 POP PUSH1 0x20 DUP4 ADD CALLDATALOAD PUSH2 0x478A DUP2 PUSH2 0x44A4 JUMP JUMPDEST DUP1 SWAP2 POP POP SWAP3 POP SWAP3 SWAP1 POP JUMP JUMPDEST PUSH1 0x0 PUSH1 0x20 DUP3 DUP5 SUB SLT ISZERO PUSH2 0x47A7 JUMPI PUSH1 0x0 DUP1 REVERT JUMPDEST DUP2 CALLDATALOAD PUSH2 0x2141 DUP2 PUSH2 0x44A4 JUMP JUMPDEST PUSH1 0x0 DUP1 PUSH1 0x40 DUP4 DUP6 SUB SLT ISZERO PUSH2 0x47C5 JUMPI PUSH1 0x0 DUP1 REVERT JUMPDEST DUP3 CALLDATALOAD PUSH2 0x47D0 DUP2 PUSH2 0x403C JUMP JUMPDEST SWAP2 POP PUSH1 0x20 DUP4 ADD CALLDATALOAD PUSH2 0xFFFF DUP2 AND DUP2 EQ PUSH2 0x478A JUMPI PUSH1 0x0 DUP1 REVERT JUMPDEST PUSH1 0x0 DUP1 PUSH1 0x0 DUP1 PUSH1 0x0 PUSH1 0x60 DUP7 DUP9 SUB SLT ISZERO PUSH2 0x47FF JUMPI PUSH1 0x0 DUP1 REVERT JUMPDEST DUP6 CALLDATALOAD PUSH2 0x480A DUP2 PUSH2 0x403C JUMP JUMPDEST SWAP5 POP PUSH1 0x20 DUP7 ADD CALLDATALOAD PUSH1 0x1 PUSH1 0x1 PUSH1 0x40 SHL SUB DUP1 DUP3 GT ISZERO PUSH2 0x426A JUMPI PUSH1 0x0 DUP1 REVERT JUMPDEST PUSH1 0x0 DUP1 PUSH1 0x0 DUP1 PUSH1 0x80 DUP6 DUP8 SUB SLT ISZERO PUSH2 0x483C JUMPI PUSH1 0x0 DUP1 REVERT JUMPDEST DUP5 CALLDATALOAD PUSH2 0x4847 DUP2 PUSH2 0x403C JUMP JUMPDEST SWAP4 POP PUSH1 0x20 DUP6 ADD CALLDATALOAD PUSH2 0x4857 DUP2 PUSH2 0x403C JUMP JUMPDEST SWAP3 POP PUSH1 0x40 DUP6 ADD CALLDATALOAD SWAP2 POP PUSH1 0x60 DUP6 ADD CALLDATALOAD PUSH1 0x1 PUSH1 0x1 PUSH1 0x40 SHL SUB DUP2 GT ISZERO PUSH2 0x4879 JUMPI PUSH1 0x0 DUP1 REVERT JUMPDEST DUP6 ADD PUSH1 0x1F DUP2 ADD DUP8 SGT PUSH2 0x488A JUMPI PUSH1 0x0 DUP1 REVERT JUMPDEST PUSH2 0x4899 DUP8 DUP3 CALLDATALOAD PUSH1 0x20 DUP5 ADD PUSH2 0x4586 JUMP JUMPDEST SWAP2 POP POP SWAP3 SWAP6 SWAP2 SWAP5 POP SWAP3 POP JUMP JUMPDEST PUSH1 0x0 DUP2 MLOAD DUP1 DUP5 MSTORE PUSH1 0x20 DUP1 DUP6 ADD SWAP5 POP DUP1 DUP5 ADD PUSH1 0x0 JUMPDEST DUP4 DUP2 LT ISZERO PUSH2 0x4146 JUMPI DUP2 MLOAD PUSH1 0x1 PUSH1 0x1 PUSH1 0xA0 SHL SUB AND DUP8 MSTORE SWAP6 DUP3 ADD SWAP6 SWAP1 DUP3 ADD SWAP1 PUSH1 0x1 ADD PUSH2 0x48B9 JUMP JUMPDEST PUSH1 0x20 DUP2 MSTORE PUSH1 0x0 PUSH2 0x2141 PUSH1 0x20 DUP4 ADD DUP5 PUSH2 0x48A5 JUMP JUMPDEST PUSH1 0x40 DUP2 MSTORE PUSH1 0x0 PUSH2 0x4904 PUSH1 0x40 DUP4 ADD DUP6 PUSH2 0x48A5 JUMP JUMPDEST DUP3 DUP2 SUB PUSH1 0x20 DUP5 ADD MSTORE PUSH2 0x4916 DUP2 DUP6 PUSH2 0x4116 JUMP JUMPDEST SWAP6 SWAP5 POP POP POP POP POP JUMP JUMPDEST PUSH1 0x0 DUP1 PUSH1 0x40 DUP4 DUP6 SUB SLT ISZERO PUSH2 0x4932 JUMPI PUSH1 0x0 DUP1 REVERT JUMPDEST DUP3 CALLDATALOAD PUSH2 0x493D DUP2 PUSH2 0x403C JUMP JUMPDEST SWAP2 POP PUSH1 0x20 DUP4 ADD CALLDATALOAD PUSH2 0x478A DUP2 PUSH2 0x403C JUMP JUMPDEST PUSH1 0x20 DUP1 DUP3 MSTORE PUSH1 0x24 SWAP1 DUP3 ADD MSTORE PUSH32 0x41646D696E436F6E74726F6C3A204D757374206265206F776E6572206F722061 PUSH1 0x40 DUP3 ADD MSTORE PUSH4 0x3236B4B7 PUSH1 0xE1 SHL PUSH1 0x60 DUP3 ADD MSTORE PUSH1 0x80 ADD SWAP1 JUMP JUMPDEST PUSH1 0x1 DUP2 DUP2 SHR SWAP1 DUP3 AND DUP1 PUSH2 0x49A5 JUMPI PUSH1 0x7F DUP3 AND SWAP2 POP JUMPDEST PUSH1 0x20 DUP3 LT DUP2 SUB PUSH2 0x33F2 JUMPI PUSH4 0x4E487B71 PUSH1 0xE0 SHL PUSH1 0x0 MSTORE PUSH1 0x22 PUSH1 0x4 MSTORE PUSH1 0x24 PUSH1 0x0 REVERT JUMPDEST PUSH1 0x20 DUP1 DUP3 MSTORE PUSH1 0x11 SWAP1 DUP3 ADD MSTORE PUSH17 0x2737B732BC34B9BA32B73A103A37B5B2B7 PUSH1 0x79 SHL PUSH1 0x40 DUP3 ADD MSTORE PUSH1 0x60 ADD SWAP1 JUMP JUMPDEST PUSH1 0x20 DUP1 DUP3 MSTORE PUSH1 0x31 SWAP1 DUP3 ADD MSTORE PUSH32 0x4552433732313A207472616E736665722063616C6C6572206973206E6F74206F PUSH1 0x40 DUP3 ADD MSTORE PUSH17 0x1DDB995C881B9BDC88185C1C1C9BDD9959 PUSH1 0x7A SHL PUSH1 0x60 DUP3 ADD MSTORE PUSH1 0x80 ADD SWAP1 JUMP JUMPDEST PUSH1 0x20 DUP1 DUP3 MSTORE PUSH1 0x1F SWAP1 DUP3 ADD MSTORE PUSH32 0x5265656E7472616E637947756172643A207265656E7472616E742063616C6C00 PUSH1 0x40 DUP3 ADD MSTORE PUSH1 0x60 ADD SWAP1 JUMP JUMPDEST PUSH1 0x20 DUP1 DUP3 MSTORE PUSH1 0x1C SWAP1 DUP3 ADD MSTORE PUSH28 0x26BAB9BA103132903932B3B4B9BA32B932B21032BC3A32B739B4B7B7 PUSH1 0x21 SHL PUSH1 0x40 DUP3 ADD MSTORE PUSH1 0x60 ADD SWAP1 JUMP JUMPDEST PUSH1 0x20 DUP1 DUP3 MSTORE DUP2 DUP2 ADD MSTORE PUSH32 0x4F776E61626C653A2063616C6C6572206973206E6F7420746865206F776E6572 PUSH1 0x40 DUP3 ADD MSTORE PUSH1 0x60 ADD SWAP1 JUMP JUMPDEST PUSH1 0x20 DUP1 DUP3 MSTORE PUSH1 0x15 SWAP1 DUP3 ADD MSTORE PUSH21 0x115E1D195B9CDA5BDB88189B1858DADB1A5CDD1959 PUSH1 0x5A SHL PUSH1 0x40 DUP3 ADD MSTORE PUSH1 0x60 ADD SWAP1 JUMP JUMPDEST PUSH4 0x4E487B71 PUSH1 0xE0 SHL PUSH1 0x0 MSTORE PUSH1 0x32 PUSH1 0x4 MSTORE PUSH1 0x24 PUSH1 0x0 REVERT JUMPDEST PUSH4 0x4E487B71 PUSH1 0xE0 SHL PUSH1 0x0 MSTORE PUSH1 0x11 PUSH1 0x4 MSTORE PUSH1 0x24 PUSH1 0x0 REVERT JUMPDEST PUSH1 0x0 PUSH1 0x1 DUP3 ADD PUSH2 0x4B50 JUMPI PUSH2 0x4B50 PUSH2 0x4B28 JUMP JUMPDEST POP PUSH1 0x1 ADD SWAP1 JUMP JUMPDEST PUSH1 0x0 DUP1 DUP4 CALLDATALOAD PUSH1 0x1E NOT DUP5 CALLDATASIZE SUB ADD DUP2 SLT PUSH2 0x4B6E JUMPI PUSH1 0x0 DUP1 REVERT JUMPDEST DUP4 ADD DUP1 CALLDATALOAD SWAP2 POP PUSH1 0x1 PUSH1 0x1 PUSH1 0x40 SHL SUB DUP3 GT ISZERO PUSH2 0x4B88 JUMPI PUSH1 0x0 DUP1 REVERT JUMPDEST PUSH1 0x20 ADD SWAP2 POP CALLDATASIZE DUP2 SWAP1 SUB DUP3 SGT ISZERO PUSH2 0xC32 JUMPI PUSH1 0x0 DUP1 REVERT JUMPDEST PUSH1 0x20 DUP1 DUP3 MSTORE PUSH1 0x2E SWAP1 DUP3 ADD MSTORE PUSH32 0x496E697469616C697A61626C653A20636F6E747261637420697320616C726561 PUSH1 0x40 DUP3 ADD MSTORE PUSH14 0x191E481A5B9A5D1A585B1A5E9959 PUSH1 0x92 SHL PUSH1 0x60 DUP3 ADD MSTORE PUSH1 0x80 ADD SWAP1 JUMP JUMPDEST PUSH1 0x20 DUP1 DUP3 MSTORE PUSH1 0xD SWAP1 DUP3 ADD MSTORE PUSH13 0x125B9D985B1A59081A5B9C1D5D PUSH1 0x9A SHL PUSH1 0x40 DUP3 ADD MSTORE PUSH1 0x60 ADD SWAP1 JUMP JUMPDEST PUSH1 0x0 PUSH2 0xFFFF DUP1 DUP4 AND DUP2 DUP2 SUB PUSH2 0x4C29 JUMPI PUSH2 0x4C29 PUSH2 0x4B28 JUMP JUMPDEST PUSH1 0x1 ADD SWAP4 SWAP3 POP POP POP JUMP JUMPDEST PUSH1 0x20 DUP1 DUP3 MSTORE PUSH1 0xD SWAP1 DUP3 ADD MSTORE PUSH13 0x24B73B30B634B2103A37B5B2B7 PUSH1 0x99 SHL PUSH1 0x40 DUP3 ADD MSTORE PUSH1 0x60 ADD SWAP1 JUMP JUMPDEST PUSH1 0x1F DUP3 GT ISZERO PUSH2 0x9A8 JUMPI PUSH1 0x0 DUP2 DUP2 MSTORE PUSH1 0x20 DUP2 KECCAK256 PUSH1 0x1F DUP6 ADD PUSH1 0x5 SHR DUP2 ADD PUSH1 0x20 DUP7 LT ISZERO PUSH2 0x4C81 JUMPI POP DUP1 JUMPDEST PUSH1 0x1F DUP6 ADD PUSH1 0x5 SHR DUP3 ADD SWAP2 POP JUMPDEST DUP2 DUP2 LT ISZERO PUSH2 0x2BCD JUMPI DUP3 DUP2 SSTORE PUSH1 0x1 ADD PUSH2 0x4C8D JUMP JUMPDEST PUSH1 0x0 NOT PUSH1 0x3 DUP4 SWAP1 SHL SHR NOT AND PUSH1 0x1 SWAP2 SWAP1 SWAP2 SHL OR SWAP1 JUMP JUMPDEST PUSH1 0x1 PUSH1 0x1 PUSH1 0x40 SHL SUB DUP4 GT ISZERO PUSH2 0x4CCC JUMPI PUSH2 0x4CCC PUSH2 0x4519 JUMP JUMPDEST PUSH2 0x4CE0 DUP4 PUSH2 0x4CDA DUP4 SLOAD PUSH2 0x4991 JUMP JUMPDEST DUP4 PUSH2 0x4C5A JUMP JUMPDEST PUSH1 0x0 PUSH1 0x1F DUP5 GT PUSH1 0x1 DUP2 EQ PUSH2 0x4D0E JUMPI PUSH1 0x0 DUP6 ISZERO PUSH2 0x4CFC JUMPI POP DUP4 DUP3 ADD CALLDATALOAD JUMPDEST PUSH2 0x4D06 DUP7 DUP3 PUSH2 0x4CA0 JUMP JUMPDEST DUP5 SSTORE POP PUSH2 0xAF0 JUMP JUMPDEST PUSH1 0x0 DUP4 DUP2 MSTORE PUSH1 0x20 SWAP1 KECCAK256 PUSH1 0x1F NOT DUP7 AND SWAP1 DUP4 JUMPDEST DUP3 DUP2 LT ISZERO PUSH2 0x4D3F JUMPI DUP7 DUP6 ADD CALLDATALOAD DUP3 SSTORE PUSH1 0x20 SWAP5 DUP6 ADD SWAP5 PUSH1 0x1 SWAP1 SWAP3 ADD SWAP2 ADD PUSH2 0x4D1F JUMP JUMPDEST POP DUP7 DUP3 LT ISZERO PUSH2 0x4D5C JUMPI PUSH1 0x0 NOT PUSH1 0xF8 DUP9 PUSH1 0x3 SHL AND SHR NOT DUP5 DUP8 ADD CALLDATALOAD AND DUP2 SSTORE JUMPDEST POP POP PUSH1 0x1 DUP6 PUSH1 0x1 SHL ADD DUP4 SSTORE POP POP POP POP POP JUMP JUMPDEST DUP1 DUP3 ADD DUP1 DUP3 GT ISZERO PUSH2 0x728 JUMPI PUSH2 0x728 PUSH2 0x4B28 JUMP JUMPDEST PUSH1 0x20 DUP1 DUP3 MSTORE PUSH1 0x17 SWAP1 DUP3 ADD MSTORE PUSH23 0x496E76616C696420746F74616C20726F79616C74696573 PUSH1 0x48 SHL PUSH1 0x40 DUP3 ADD MSTORE PUSH1 0x60 ADD SWAP1 JUMP JUMPDEST PUSH1 0x40 DUP1 DUP3 MSTORE DUP2 ADD DUP5 SWAP1 MSTORE PUSH1 0x0 DUP6 PUSH1 0x60 DUP4 ADD DUP3 JUMPDEST DUP8 DUP2 LT ISZERO PUSH2 0x4DF5 JUMPI DUP3 CALLDATALOAD PUSH2 0x4DD8 DUP2 PUSH2 0x403C JUMP JUMPDEST PUSH1 0x1 PUSH1 0x1 PUSH1 0xA0 SHL SUB AND DUP3 MSTORE PUSH1 0x20 SWAP3 DUP4 ADD SWAP3 SWAP1 SWAP2 ADD SWAP1 PUSH1 0x1 ADD PUSH2 0x4DC5 JUMP JUMPDEST POP DUP4 DUP2 SUB PUSH1 0x20 DUP6 ADD MSTORE DUP5 DUP2 MSTORE PUSH1 0x1 PUSH1 0x1 PUSH1 0xFB SHL SUB DUP6 GT ISZERO PUSH2 0x4E15 JUMPI PUSH1 0x0 DUP1 REVERT JUMPDEST DUP5 PUSH1 0x5 SHL SWAP2 POP DUP2 DUP7 PUSH1 0x20 DUP4 ADD CALLDATACOPY ADD PUSH1 0x20 ADD SWAP7 SWAP6 POP POP POP POP POP POP JUMP JUMPDEST DUP2 DUP2 SUB DUP2 DUP2 GT ISZERO PUSH2 0x728 JUMPI PUSH2 0x728 PUSH2 0x4B28 JUMP JUMPDEST DUP2 MLOAD PUSH1 0x1 PUSH1 0x1 PUSH1 0x40 SHL SUB DUP2 GT ISZERO PUSH2 0x4E5C JUMPI PUSH2 0x4E5C PUSH2 0x4519 JUMP JUMPDEST PUSH2 0x4E70 DUP2 PUSH2 0x4E6A DUP5 SLOAD PUSH2 0x4991 JUMP JUMPDEST DUP5 PUSH2 0x4C5A JUMP JUMPDEST PUSH1 0x20 DUP1 PUSH1 0x1F DUP4 GT PUSH1 0x1 DUP2 EQ PUSH2 0x4E9F JUMPI PUSH1 0x0 DUP5 ISZERO PUSH2 0x4E8D JUMPI POP DUP6 DUP4 ADD MLOAD JUMPDEST PUSH2 0x4E97 DUP6 DUP3 PUSH2 0x4CA0 JUMP JUMPDEST DUP7 SSTORE POP PUSH2 0x2BCD JUMP JUMPDEST PUSH1 0x0 DUP6 DUP2 MSTORE PUSH1 0x20 DUP2 KECCAK256 PUSH1 0x1F NOT DUP7 AND SWAP2 JUMPDEST DUP3 DUP2 LT ISZERO PUSH2 0x4ECE JUMPI DUP9 DUP7 ADD MLOAD DUP3 SSTORE SWAP5 DUP5 ADD SWAP5 PUSH1 0x1 SWAP1 SWAP2 ADD SWAP1 DUP5 ADD PUSH2 0x4EAF JUMP JUMPDEST POP DUP6 DUP3 LT ISZERO PUSH2 0x4EEC JUMPI DUP8 DUP6 ADD MLOAD PUSH1 0x0 NOT PUSH1 0x3 DUP9 SWAP1 SHL PUSH1 0xF8 AND SHR NOT AND DUP2 SSTORE JUMPDEST POP POP POP POP POP PUSH1 0x1 SWAP1 DUP2 SHL ADD SWAP1 SSTORE POP JUMP JUMPDEST DUP1 DUP3 MUL DUP2 ISZERO DUP3 DUP3 DIV DUP5 EQ OR PUSH2 0x728 JUMPI PUSH2 0x728 PUSH2 0x4B28 JUMP JUMPDEST PUSH4 0x4E487B71 PUSH1 0xE0 SHL PUSH1 0x0 MSTORE PUSH1 0x12 PUSH1 0x4 MSTORE PUSH1 0x24 PUSH1 0x0 REVERT JUMPDEST PUSH1 0x0 DUP3 PUSH2 0x4F38 JUMPI PUSH2 0x4F38 PUSH2 0x4F13 JUMP JUMPDEST POP DIV SWAP1 JUMP JUMPDEST PUSH1 0x20 DUP1 DUP3 MSTORE PUSH1 0x32 SWAP1 DUP3 ADD MSTORE PUSH32 0x4552433732313A207472616E7366657220746F206E6F6E204552433732315265 PUSH1 0x40 DUP3 ADD MSTORE PUSH18 0x31B2B4BB32B91034B6B83632B6B2B73A32B9 PUSH1 0x71 SHL PUSH1 0x60 DUP3 ADD MSTORE PUSH1 0x80 ADD SWAP1 JUMP JUMPDEST PUSH1 0x0 DUP2 SLOAD PUSH2 0x4F9C DUP2 PUSH2 0x4991 JUMP JUMPDEST PUSH1 0x1 DUP3 DUP2 AND DUP1 ISZERO PUSH2 0x4FB4 JUMPI PUSH1 0x1 DUP2 EQ PUSH2 0x4FC9 JUMPI PUSH2 0x4FF8 JUMP JUMPDEST PUSH1 0xFF NOT DUP5 AND DUP8 MSTORE DUP3 ISZERO ISZERO DUP4 MUL DUP8 ADD SWAP5 POP PUSH2 0x4FF8 JUMP JUMPDEST DUP6 PUSH1 0x0 MSTORE PUSH1 0x20 DUP1 PUSH1 0x0 KECCAK256 PUSH1 0x0 JUMPDEST DUP6 DUP2 LT ISZERO PUSH2 0x4FEF JUMPI DUP2 SLOAD DUP11 DUP3 ADD MSTORE SWAP1 DUP5 ADD SWAP1 DUP3 ADD PUSH2 0x4FD6 JUMP JUMPDEST POP POP POP DUP3 DUP8 ADD SWAP5 POP JUMPDEST POP POP POP POP SWAP3 SWAP2 POP POP JUMP JUMPDEST PUSH1 0x0 PUSH2 0x25F3 PUSH2 0x5011 DUP4 DUP7 PUSH2 0x4F8F JUMP JUMPDEST DUP5 PUSH2 0x4F8F JUMP JUMPDEST PUSH1 0x0 PUSH1 0x20 DUP3 DUP5 SUB SLT ISZERO PUSH2 0x5029 JUMPI PUSH1 0x0 DUP1 REVERT JUMPDEST DUP2 MLOAD PUSH1 0x1 PUSH1 0x1 PUSH1 0x40 SHL SUB DUP2 GT ISZERO PUSH2 0x503F JUMPI PUSH1 0x0 DUP1 REVERT JUMPDEST DUP3 ADD PUSH1 0x1F DUP2 ADD DUP5 SGT PUSH2 0x5050 JUMPI PUSH1 0x0 DUP1 REVERT JUMPDEST DUP1 MLOAD PUSH2 0x505E PUSH2 0x4594 DUP3 PUSH2 0x455F JUMP JUMPDEST DUP2 DUP2 MSTORE DUP6 PUSH1 0x20 DUP4 DUP6 ADD ADD GT ISZERO PUSH2 0x5073 JUMPI PUSH1 0x0 DUP1 REVERT JUMPDEST PUSH2 0x4916 DUP3 PUSH1 0x20 DUP4 ADD PUSH1 0x20 DUP7 ADD PUSH2 0x406E JUMP JUMPDEST PUSH1 0x0 PUSH2 0x5090 DUP3 DUP6 PUSH2 0x4F8F JUMP JUMPDEST DUP4 MLOAD PUSH2 0x50A0 DUP2 DUP4 PUSH1 0x20 DUP9 ADD PUSH2 0x406E JUMP JUMPDEST ADD SWAP5 SWAP4 POP POP POP POP JUMP JUMPDEST PUSH1 0x1 PUSH1 0x1 PUSH1 0xA0 SHL SUB SWAP4 DUP5 AND DUP2 MSTORE SWAP2 SWAP1 SWAP3 AND PUSH1 0x20 DUP3 ADD MSTORE PUSH1 0x40 DUP2 ADD SWAP2 SWAP1 SWAP2 MSTORE PUSH1 0x60 ADD SWAP1 JUMP JUMPDEST PUSH4 0x4E487B71 PUSH1 0xE0 SHL PUSH1 0x0 MSTORE PUSH1 0x31 PUSH1 0x4 MSTORE PUSH1 0x24 PUSH1 0x0 REVERT JUMPDEST PUSH1 0x0 DUP3 MLOAD PUSH2 0x50F5 DUP2 DUP5 PUSH1 0x20 DUP8 ADD PUSH2 0x406E JUMP JUMPDEST SWAP2 SWAP1 SWAP2 ADD SWAP3 SWAP2 POP POP JUMP JUMPDEST PUSH1 0x0 PUSH1 0x20 DUP3 DUP5 SUB SLT ISZERO PUSH2 0x5111 JUMPI PUSH1 0x0 DUP1 REVERT JUMPDEST DUP2 MLOAD PUSH2 0x2141 DUP2 PUSH2 0x44A4 JUMP JUMPDEST PUSH1 0x1 PUSH1 0x1 PUSH1 0xA0 SHL SUB DUP6 DUP2 AND DUP3 MSTORE DUP5 AND PUSH1 0x20 DUP3 ADD MSTORE PUSH1 0x40 DUP2 ADD DUP4 SWAP1 MSTORE PUSH1 0x80 PUSH1 0x60 DUP3 ADD DUP2 SWAP1 MSTORE PUSH1 0x0 SWAP1 PUSH2 0x3AAB SWAP1 DUP4 ADD DUP5 PUSH2 0x4092 JUMP JUMPDEST PUSH1 0x0 PUSH1 0x20 DUP3 DUP5 SUB SLT ISZERO PUSH2 0x5161 JUMPI PUSH1 0x0 DUP1 REVERT JUMPDEST DUP2 MLOAD PUSH2 0x2141 DUP2 PUSH2 0x4009 JUMP JUMPDEST PUSH1 0x0 DUP3 PUSH2 0x517B JUMPI PUSH2 0x517B PUSH2 0x4F13 JUMP JUMPDEST POP MOD SWAP1 JUMP INVALID 0xDD CALLCODE MSTORE 0xAD SHL 0xE2 0xC8 SWAP12 PUSH10 0xC2B068FC378DAA952BA7 CALL PUSH4 0xC4A11628 CREATE2 GAS 0x4D CREATE2 0x23 0xB3 0xEF LOG2 PUSH5 0x6970667358 0x22 SLT KECCAK256 0x2C 0xB2 DUP3 0xB1 0xB2 0xC 0xAE SWAP4 RETURNDATACOPY MULMOD 0xB1 0xAC 0xE3 NUMBER TIMESTAMP 0xAE 0xD7 SWAP11 PUSH27 0xCF22193A207C55F42CC49C71C964736F6C63430008110033000000 "
		},
		"gasEstimates": {
			"creation": {
				"codeDepositCost": "4190000",
				"executionCost": "31930",
				"totalCost": "4221930"
			},
			"external": {
				"approve(address,uint256)": "infinite",
				"approveAdmin(address)": "infinite",
				"balanceOf(address)": "2628",
				"blacklistExtension(address)": "infinite",
				"burn(uint256)": "infinite",
				"getAdmins()": "infinite",
				"getApproved(uint256)": "4821",
				"getExtensions()": "infinite",
				"getFeeBps(uint256)": "infinite",
				"getFeeRecipients(uint256)": "infinite",
				"getFees(uint256)": "infinite",
				"getRoyalties(uint256)": "infinite",
				"initialize(string,string)": "infinite",
				"isAdmin(address)": "infinite",
				"isApprovedForAll(address,address)": "infinite",
				"mintBase(address)": "infinite",
				"mintBase(address,string)": "infinite",
				"mintBaseBatch(address,string[])": "infinite",
				"mintBaseBatch(address,uint16)": "infinite",
				"mintExtension(address)": "infinite",
				"mintExtension(address,string)": "infinite",
				"mintExtensionBatch(address,string[])": "infinite",
				"mintExtensionBatch(address,uint16)": "infinite",
				"name()": "infinite",
				"owner()": "2545",
				"ownerOf(uint256)": "2843",
				"registerExtension(address,string)": "infinite",
				"registerExtension(address,string,bool)": "infinite",
				"renounceOwnership()": "28229",
				"revokeAdmin(address)": "infinite",
				"royaltyInfo(uint256,uint256)": "infinite",
				"safeTransferFrom(address,address,uint256)": "infinite",
				"safeTransferFrom(address,address,uint256,bytes)": "infinite",
				"setApprovalForAll(address,bool)": "infinite",
				"setApproveTransferExtension(bool)": "infinite",
				"setBaseTokenURI(string)": "infinite",
				"setBaseTokenURIExtension(string)": "infinite",
				"setBaseTokenURIExtension(string,bool)": "infinite",
				"setMintPermissions(address,address)": "infinite",
				"setRoyalties(address[],uint256[])": "infinite",
				"setRoyalties(uint256,address[],uint256[])": "infinite",
				"setRoyaltiesExtension(address,address[],uint256[])": "infinite",
				"setTokenURI(uint256,string)": "infinite",
				"setTokenURI(uint256[],string[])": "infinite",
				"setTokenURIExtension(uint256,string)": "infinite",
				"setTokenURIExtension(uint256[],string[])": "infinite",
				"setTokenURIPrefix(string)": "infinite",
				"setTokenURIPrefixExtension(string)": "infinite",
				"supportsInterface(bytes4)": "infinite",
				"symbol()": "infinite",
				"tokenExtension(uint256)": "7284",
				"tokenURI(uint256)": "infinite",
				"transferFrom(address,address,uint256)": "infinite",
				"transferOwnership(address)": "infinite",
				"unregisterExtension(address)": "infinite"
			},
			"internal": {
				"_beforeTokenTransfer(address,address,uint256)": "infinite",
				"_mintBase(address,string memory)": "infinite",
				"_mintExtension(address,string memory)": "infinite"
			}
		},
		"methodIdentifiers": {
			"approve(address,uint256)": "095ea7b3",
			"approveAdmin(address)": "6d73e669",
			"balanceOf(address)": "70a08231",
			"blacklistExtension(address)": "02e7afb7",
			"burn(uint256)": "42966c68",
			"getAdmins()": "31ae450b",
			"getApproved(uint256)": "081812fc",
			"getExtensions()": "83b7db63",
			"getFeeBps(uint256)": "0ebd4c7f",
			"getFeeRecipients(uint256)": "b9c4d9fb",
			"getFees(uint256)": "d5a06d4c",
			"getRoyalties(uint256)": "bb3bafd6",
			"initialize(string,string)": "4cd88b76",
			"isAdmin(address)": "24d7806c",
			"isApprovedForAll(address,address)": "e985e9c5",
			"mintBase(address)": "72ff03d3",
			"mintBase(address,string)": "7884af44",
			"mintBaseBatch(address,string[])": "7aa15f16",
			"mintBaseBatch(address,uint16)": "ad2d0ddd",
			"mintExtension(address)": "2928ca58",
			"mintExtension(address,string)": "fe2e1f58",
			"mintExtensionBatch(address,string[])": "38e52e78",
			"mintExtensionBatch(address,uint16)": "e00aab4b",
			"name()": "06fdde03",
			"owner()": "8da5cb5b",
			"ownerOf(uint256)": "6352211e",
			"registerExtension(address,string)": "3071a0f9",
			"registerExtension(address,string,bool)": "3f0f37f6",
			"renounceOwnership()": "715018a6",
			"revokeAdmin(address)": "2d345670",
			"royaltyInfo(uint256,uint256)": "2a55205a",
			"safeTransferFrom(address,address,uint256)": "42842e0e",
			"safeTransferFrom(address,address,uint256,bytes)": "b88d4fde",
			"setApprovalForAll(address,bool)": "a22cb465",
			"setApproveTransferExtension(bool)": "ac0c8cfa",
			"setBaseTokenURI(string)": "30176e13",
			"setBaseTokenURIExtension(string)": "3e6134b8",
			"setBaseTokenURIExtension(string,bool)": "82dcc0c8",
			"setMintPermissions(address,address)": "f0cdc499",
			"setRoyalties(address[],uint256[])": "332dd1ae",
			"setRoyalties(uint256,address[],uint256[])": "20e4afe2",
			"setRoyaltiesExtension(address,address[],uint256[])": "b0fe87c9",
			"setTokenURI(uint256,string)": "162094c4",
			"setTokenURI(uint256[],string[])": "aafb2d44",
			"setTokenURIExtension(uint256,string)": "e92a89f6",
			"setTokenURIExtension(uint256[],string[])": "61e5bc6b",
			"setTokenURIPrefix(string)": "99e0dd7c",
			"setTokenURIPrefixExtension(string)": "66d1e9d0",
			"supportsInterface(bytes4)": "01ffc9a7",
			"symbol()": "95d89b41",
			"tokenExtension(uint256)": "239be317",
			"tokenURI(uint256)": "c87b56dd",
			"transferFrom(address,address,uint256)": "23b872dd",
			"transferOwnership(address)": "f2fde38b",
			"unregisterExtension(address)": "ce8aee9d"
		}
	},
	"abi": [
		{
			"anonymous": false,
			"inputs": [
				{
					"indexed": true,
					"internalType": "address",
					"name": "account",
					"type": "address"
				},
				{
					"indexed": true,
					"internalType": "address",
					"name": "sender",
					"type": "address"
				}
			],
			"name": "AdminApproved",
			"type": "event"
		},
		{
			"anonymous": false,
			"inputs": [
				{
					"indexed": true,
					"internalType": "address",
					"name": "account",
					"type": "address"
				},
				{
					"indexed": true,
					"internalType": "address",
					"name": "sender",
					"type": "address"
				}
			],
			"name": "AdminRevoked",
			"type": "event"
		},
		{
			"anonymous": false,
			"inputs": [
				{
					"indexed": true,
					"internalType": "address",
					"name": "owner",
					"type": "address"
				},
				{
					"indexed": true,
					"internalType": "address",
					"name": "approved",
					"type": "address"
				},
				{
					"indexed": true,
					"internalType": "uint256",
					"name": "tokenId",
					"type": "uint256"
				}
			],
			"name": "Approval",
			"type": "event"
		},
		{
			"anonymous": false,
			"inputs": [
				{
					"indexed": true,
					"internalType": "address",
					"name": "owner",
					"type": "address"
				},
				{
					"indexed": true,
					"internalType": "address",
					"name": "operator",
					"type": "address"
				},
				{
					"indexed": false,
					"internalType": "bool",
					"name": "approved",
					"type": "bool"
				}
			],
			"name": "ApprovalForAll",
			"type": "event"
		},
		{
			"anonymous": false,
			"inputs": [
				{
					"indexed": false,
					"internalType": "address payable[]",
					"name": "receivers",
					"type": "address[]"
				},
				{
					"indexed": false,
					"internalType": "uint256[]",
					"name": "basisPoints",
					"type": "uint256[]"
				}
			],
			"name": "DefaultRoyaltiesUpdated",
			"type": "event"
		},
		{
			"anonymous": false,
			"inputs": [
				{
					"indexed": true,
					"internalType": "address",
					"name": "extension",
					"type": "address"
				},
				{
					"indexed": false,
					"internalType": "bool",
					"name": "enabled",
					"type": "bool"
				}
			],
			"name": "ExtensionApproveTransferUpdated",
			"type": "event"
		},
		{
			"anonymous": false,
			"inputs": [
				{
					"indexed": true,
					"internalType": "address",
					"name": "extension",
					"type": "address"
				},
				{
					"indexed": true,
					"internalType": "address",
					"name": "sender",
					"type": "address"
				}
			],
			"name": "ExtensionBlacklisted",
			"type": "event"
		},
		{
			"anonymous": false,
			"inputs": [
				{
					"indexed": true,
					"internalType": "address",
					"name": "extension",
					"type": "address"
				},
				{
					"indexed": true,
					"internalType": "address",
					"name": "sender",
					"type": "address"
				}
			],
			"name": "ExtensionRegistered",
			"type": "event"
		},
		{
			"anonymous": false,
			"inputs": [
				{
					"indexed": true,
					"internalType": "address",
					"name": "extension",
					"type": "address"
				},
				{
					"indexed": false,
					"internalType": "address payable[]",
					"name": "receivers",
					"type": "address[]"
				},
				{
					"indexed": false,
					"internalType": "uint256[]",
					"name": "basisPoints",
					"type": "uint256[]"
				}
			],
			"name": "ExtensionRoyaltiesUpdated",
			"type": "event"
		},
		{
			"anonymous": false,
			"inputs": [
				{
					"indexed": true,
					"internalType": "address",
					"name": "extension",
					"type": "address"
				},
				{
					"indexed": true,
					"internalType": "address",
					"name": "sender",
					"type": "address"
				}
			],
			"name": "ExtensionUnregistered",
			"type": "event"
		},
		{
			"anonymous": false,
			"inputs": [
				{
					"indexed": true,
					"internalType": "address",
					"name": "extension",
					"type": "address"
				},
				{
					"indexed": true,
					"internalType": "address",
					"name": "permissions",
					"type": "address"
				},
				{
					"indexed": true,
					"internalType": "address",
					"name": "sender",
					"type": "address"
				}
			],
			"name": "MintPermissionsUpdated",
			"type": "event"
		},
		{
			"anonymous": false,
			"inputs": [
				{
					"indexed": true,
					"internalType": "address",
					"name": "previousOwner",
					"type": "address"
				},
				{
					"indexed": true,
					"internalType": "address",
					"name": "newOwner",
					"type": "address"
				}
			],
			"name": "OwnershipTransferred",
			"type": "event"
		},
		{
			"anonymous": false,
			"inputs": [
				{
					"indexed": true,
					"internalType": "uint256",
					"name": "tokenId",
					"type": "uint256"
				},
				{
					"indexed": false,
					"internalType": "address payable[]",
					"name": "receivers",
					"type": "address[]"
				},
				{
					"indexed": false,
					"internalType": "uint256[]",
					"name": "basisPoints",
					"type": "uint256[]"
				}
			],
			"name": "RoyaltiesUpdated",
			"type": "event"
		},
		{
			"anonymous": false,
			"inputs": [
				{
					"indexed": true,
					"internalType": "address",
					"name": "from",
					"type": "address"
				},
				{
					"indexed": true,
					"internalType": "address",
					"name": "to",
					"type": "address"
				},
				{
					"indexed": true,
					"internalType": "uint256",
					"name": "tokenId",
					"type": "uint256"
				}
			],
			"name": "Transfer",
			"type": "event"
		},
		{
			"inputs": [
				{
					"internalType": "address",
					"name": "to",
					"type": "address"
				},
				{
					"internalType": "uint256",
					"name": "tokenId",
					"type": "uint256"
				}
			],
			"name": "approve",
			"outputs": [],
			"stateMutability": "nonpayable",
			"type": "function"
		},
		{
			"inputs": [
				{
					"internalType": "address",
					"name": "admin",
					"type": "address"
				}
			],
			"name": "approveAdmin",
			"outputs": [],
			"stateMutability": "nonpayable",
			"type": "function"
		},
		{
			"inputs": [
				{
					"internalType": "address",
					"name": "owner",
					"type": "address"
				}
			],
			"name": "balanceOf",
			"outputs": [
				{
					"internalType": "uint256",
					"name": "",
					"type": "uint256"
				}
			],
			"stateMutability": "view",
			"type": "function"
		},
		{
			"inputs": [
				{
					"internalType": "address",
					"name": "extension",
					"type": "address"
				}
			],
			"name": "blacklistExtension",
			"outputs": [],
			"stateMutability": "nonpayable",
			"type": "function"
		},
		{
			"inputs": [
				{
					"internalType": "uint256",
					"name": "tokenId",
					"type": "uint256"
				}
			],
			"name": "burn",
			"outputs": [],
			"stateMutability": "nonpayable",
			"type": "function"
		},
		{
			"inputs": [],
			"name": "getAdmins",
			"outputs": [
				{
					"internalType": "address[]",
					"name": "admins",
					"type": "address[]"
				}
			],
			"stateMutability": "view",
			"type": "function"
		},
		{
			"inputs": [
				{
					"internalType": "uint256",
					"name": "tokenId",
					"type": "uint256"
				}
			],
			"name": "getApproved",
			"outputs": [
				{
					"internalType": "address",
					"name": "",
					"type": "address"
				}
			],
			"stateMutability": "view",
			"type": "function"
		},
		{
			"inputs": [],
			"name": "getExtensions",
			"outputs": [
				{
					"internalType": "address[]",
					"name": "extensions",
					"type": "address[]"
				}
			],
			"stateMutability": "view",
			"type": "function"
		},
		{
			"inputs": [
				{
					"internalType": "uint256",
					"name": "tokenId",
					"type": "uint256"
				}
			],
			"name": "getFeeBps",
			"outputs": [
				{
					"internalType": "uint256[]",
					"name": "",
					"type": "uint256[]"
				}
			],
			"stateMutability": "view",
			"type": "function"
		},
		{
			"inputs": [
				{
					"internalType": "uint256",
					"name": "tokenId",
					"type": "uint256"
				}
			],
			"name": "getFeeRecipients",
			"outputs": [
				{
					"internalType": "address payable[]",
					"name": "",
					"type": "address[]"
				}
			],
			"stateMutability": "view",
			"type": "function"
		},
		{
			"inputs": [
				{
					"internalType": "uint256",
					"name": "tokenId",
					"type": "uint256"
				}
			],
			"name": "getFees",
			"outputs": [
				{
					"internalType": "address payable[]",
					"name": "",
					"type": "address[]"
				},
				{
					"internalType": "uint256[]",
					"name": "",
					"type": "uint256[]"
				}
			],
			"stateMutability": "view",
			"type": "function"
		},
		{
			"inputs": [
				{
					"internalType": "uint256",
					"name": "tokenId",
					"type": "uint256"
				}
			],
			"name": "getRoyalties",
			"outputs": [
				{
					"internalType": "address payable[]",
					"name": "",
					"type": "address[]"
				},
				{
					"internalType": "uint256[]",
					"name": "",
					"type": "uint256[]"
				}
			],
			"stateMutability": "view",
			"type": "function"
		},
		{
			"inputs": [
				{
					"internalType": "string",
					"name": "_name",
					"type": "string"
				},
				{
					"internalType": "string",
					"name": "_symbol",
					"type": "string"
				}
			],
			"name": "initialize",
			"outputs": [],
			"stateMutability": "nonpayable",
			"type": "function"
		},
		{
			"inputs": [
				{
					"internalType": "address",
					"name": "admin",
					"type": "address"
				}
			],
			"name": "isAdmin",
			"outputs": [
				{
					"internalType": "bool",
					"name": "",
					"type": "bool"
				}
			],
			"stateMutability": "view",
			"type": "function"
		},
		{
			"inputs": [
				{
					"internalType": "address",
					"name": "owner",
					"type": "address"
				},
				{
					"internalType": "address",
					"name": "operator",
					"type": "address"
				}
			],
			"name": "isApprovedForAll",
			"outputs": [
				{
					"internalType": "bool",
					"name": "",
					"type": "bool"
				}
			],
			"stateMutability": "view",
			"type": "function"
		},
		{
			"inputs": [
				{
					"internalType": "address",
					"name": "to",
					"type": "address"
				}
			],
			"name": "mintBase",
			"outputs": [
				{
					"internalType": "uint256",
					"name": "",
					"type": "uint256"
				}
			],
			"stateMutability": "nonpayable",
			"type": "function"
		},
		{
			"inputs": [
				{
					"internalType": "address",
					"name": "to",
					"type": "address"
				},
				{
					"internalType": "string",
					"name": "uri",
					"type": "string"
				}
			],
			"name": "mintBase",
			"outputs": [
				{
					"internalType": "uint256",
					"name": "",
					"type": "uint256"
				}
			],
			"stateMutability": "nonpayable",
			"type": "function"
		},
		{
			"inputs": [
				{
					"internalType": "address",
					"name": "to",
					"type": "address"
				},
				{
					"internalType": "string[]",
					"name": "uris",
					"type": "string[]"
				}
			],
			"name": "mintBaseBatch",
			"outputs": [
				{
					"internalType": "uint256[]",
					"name": "tokenIds",
					"type": "uint256[]"
				}
			],
			"stateMutability": "nonpayable",
			"type": "function"
		},
		{
			"inputs": [
				{
					"internalType": "address",
					"name": "to",
					"type": "address"
				},
				{
					"internalType": "uint16",
					"name": "count",
					"type": "uint16"
				}
			],
			"name": "mintBaseBatch",
			"outputs": [
				{
					"internalType": "uint256[]",
					"name": "tokenIds",
					"type": "uint256[]"
				}
			],
			"stateMutability": "nonpayable",
			"type": "function"
		},
		{
			"inputs": [
				{
					"internalType": "address",
					"name": "to",
					"type": "address"
				}
			],
			"name": "mintExtension",
			"outputs": [
				{
					"internalType": "uint256",
					"name": "",
					"type": "uint256"
				}
			],
			"stateMutability": "nonpayable",
			"type": "function"
		},
		{
			"inputs": [
				{
					"internalType": "address",
					"name": "to",
					"type": "address"
				},
				{
					"internalType": "string",
					"name": "uri",
					"type": "string"
				}
			],
			"name": "mintExtension",
			"outputs": [
				{
					"internalType": "uint256",
					"name": "",
					"type": "uint256"
				}
			],
			"stateMutability": "nonpayable",
			"type": "function"
		},
		{
			"inputs": [
				{
					"internalType": "address",
					"name": "to",
					"type": "address"
				},
				{
					"internalType": "string[]",
					"name": "uris",
					"type": "string[]"
				}
			],
			"name": "mintExtensionBatch",
			"outputs": [
				{
					"internalType": "uint256[]",
					"name": "tokenIds",
					"type": "uint256[]"
				}
			],
			"stateMutability": "nonpayable",
			"type": "function"
		},
		{
			"inputs": [
				{
					"internalType": "address",
					"name": "to",
					"type": "address"
				},
				{
					"internalType": "uint16",
					"name": "count",
					"type": "uint16"
				}
			],
			"name": "mintExtensionBatch",
			"outputs": [
				{
					"internalType": "uint256[]",
					"name": "tokenIds",
					"type": "uint256[]"
				}
			],
			"stateMutability": "nonpayable",
			"type": "function"
		},
		{
			"inputs": [],
			"name": "name",
			"outputs": [
				{
					"internalType": "string",
					"name": "",
					"type": "string"
				}
			],
			"stateMutability": "view",
			"type": "function"
		},
		{
			"inputs": [],
			"name": "owner",
			"outputs": [
				{
					"internalType": "address",
					"name": "",
					"type": "address"
				}
			],
			"stateMutability": "view",
			"type": "function"
		},
		{
			"inputs": [
				{
					"internalType": "uint256",
					"name": "tokenId",
					"type": "uint256"
				}
			],
			"name": "ownerOf",
			"outputs": [
				{
					"internalType": "address",
					"name": "",
					"type": "address"
				}
			],
			"stateMutability": "view",
			"type": "function"
		},
		{
			"inputs": [
				{
					"internalType": "address",
					"name": "extension",
					"type": "address"
				},
				{
					"internalType": "string",
					"name": "baseURI",
					"type": "string"
				}
			],
			"name": "registerExtension",
			"outputs": [],
			"stateMutability": "nonpayable",
			"type": "function"
		},
		{
			"inputs": [
				{
					"internalType": "address",
					"name": "extension",
					"type": "address"
				},
				{
					"internalType": "string",
					"name": "baseURI",
					"type": "string"
				},
				{
					"internalType": "bool",
					"name": "baseURIIdentical",
					"type": "bool"
				}
			],
			"name": "registerExtension",
			"outputs": [],
			"stateMutability": "nonpayable",
			"type": "function"
		},
		{
			"inputs": [],
			"name": "renounceOwnership",
			"outputs": [],
			"stateMutability": "nonpayable",
			"type": "function"
		},
		{
			"inputs": [
				{
					"internalType": "address",
					"name": "admin",
					"type": "address"
				}
			],
			"name": "revokeAdmin",
			"outputs": [],
			"stateMutability": "nonpayable",
			"type": "function"
		},
		{
			"inputs": [
				{
					"internalType": "uint256",
					"name": "tokenId",
					"type": "uint256"
				},
				{
					"internalType": "uint256",
					"name": "value",
					"type": "uint256"
				}
			],
			"name": "royaltyInfo",
			"outputs": [
				{
					"internalType": "address",
					"name": "",
					"type": "address"
				},
				{
					"internalType": "uint256",
					"name": "",
					"type": "uint256"
				}
			],
			"stateMutability": "view",
			"type": "function"
		},
		{
			"inputs": [
				{
					"internalType": "address",
					"name": "from",
					"type": "address"
				},
				{
					"internalType": "address",
					"name": "to",
					"type": "address"
				},
				{
					"internalType": "uint256",
					"name": "tokenId",
					"type": "uint256"
				}
			],
			"name": "safeTransferFrom",
			"outputs": [],
			"stateMutability": "nonpayable",
			"type": "function"
		},
		{
			"inputs": [
				{
					"internalType": "address",
					"name": "from",
					"type": "address"
				},
				{
					"internalType": "address",
					"name": "to",
					"type": "address"
				},
				{
					"internalType": "uint256",
					"name": "tokenId",
					"type": "uint256"
				},
				{
					"internalType": "bytes",
					"name": "_data",
					"type": "bytes"
				}
			],
			"name": "safeTransferFrom",
			"outputs": [],
			"stateMutability": "nonpayable",
			"type": "function"
		},
		{
			"inputs": [
				{
					"internalType": "address",
					"name": "operator",
					"type": "address"
				},
				{
					"internalType": "bool",
					"name": "approved",
					"type": "bool"
				}
			],
			"name": "setApprovalForAll",
			"outputs": [],
			"stateMutability": "nonpayable",
			"type": "function"
		},
		{
			"inputs": [
				{
					"internalType": "bool",
					"name": "enabled",
					"type": "bool"
				}
			],
			"name": "setApproveTransferExtension",
			"outputs": [],
			"stateMutability": "nonpayable",
			"type": "function"
		},
		{
			"inputs": [
				{
					"internalType": "string",
					"name": "uri",
					"type": "string"
				}
			],
			"name": "setBaseTokenURI",
			"outputs": [],
			"stateMutability": "nonpayable",
			"type": "function"
		},
		{
			"inputs": [
				{
					"internalType": "string",
					"name": "uri",
					"type": "string"
				}
			],
			"name": "setBaseTokenURIExtension",
			"outputs": [],
			"stateMutability": "nonpayable",
			"type": "function"
		},
		{
			"inputs": [
				{
					"internalType": "string",
					"name": "uri",
					"type": "string"
				},
				{
					"internalType": "bool",
					"name": "identical",
					"type": "bool"
				}
			],
			"name": "setBaseTokenURIExtension",
			"outputs": [],
			"stateMutability": "nonpayable",
			"type": "function"
		},
		{
			"inputs": [
				{
					"internalType": "address",
					"name": "extension",
					"type": "address"
				},
				{
					"internalType": "address",
					"name": "permissions",
					"type": "address"
				}
			],
			"name": "setMintPermissions",
			"outputs": [],
			"stateMutability": "nonpayable",
			"type": "function"
		},
		{
			"inputs": [
				{
					"internalType": "uint256",
					"name": "tokenId",
					"type": "uint256"
				},
				{
					"internalType": "address payable[]",
					"name": "receivers",
					"type": "address[]"
				},
				{
					"internalType": "uint256[]",
					"name": "basisPoints",
					"type": "uint256[]"
				}
			],
			"name": "setRoyalties",
			"outputs": [],
			"stateMutability": "nonpayable",
			"type": "function"
		},
		{
			"inputs": [
				{
					"internalType": "address payable[]",
					"name": "receivers",
					"type": "address[]"
				},
				{
					"internalType": "uint256[]",
					"name": "basisPoints",
					"type": "uint256[]"
				}
			],
			"name": "setRoyalties",
			"outputs": [],
			"stateMutability": "nonpayable",
			"type": "function"
		},
		{
			"inputs": [
				{
					"internalType": "address",
					"name": "extension",
					"type": "address"
				},
				{
					"internalType": "address payable[]",
					"name": "receivers",
					"type": "address[]"
				},
				{
					"internalType": "uint256[]",
					"name": "basisPoints",
					"type": "uint256[]"
				}
			],
			"name": "setRoyaltiesExtension",
			"outputs": [],
			"stateMutability": "nonpayable",
			"type": "function"
		},
		{
			"inputs": [
				{
					"internalType": "uint256",
					"name": "tokenId",
					"type": "uint256"
				},
				{
					"internalType": "string",
					"name": "uri",
					"type": "string"
				}
			],
			"name": "setTokenURI",
			"outputs": [],
			"stateMutability": "nonpayable",
			"type": "function"
		},
		{
			"inputs": [
				{
					"internalType": "uint256[]",
					"name": "tokenIds",
					"type": "uint256[]"
				},
				{
					"internalType": "string[]",
					"name": "uris",
					"type": "string[]"
				}
			],
			"name": "setTokenURI",
			"outputs": [],
			"stateMutability": "nonpayable",
			"type": "function"
		},
		{
			"inputs": [
				{
					"internalType": "uint256[]",
					"name": "tokenIds",
					"type": "uint256[]"
				},
				{
					"internalType": "string[]",
					"name": "uris",
					"type": "string[]"
				}
			],
			"name": "setTokenURIExtension",
			"outputs": [],
			"stateMutability": "nonpayable",
			"type": "function"
		},
		{
			"inputs": [
				{
					"internalType": "uint256",
					"name": "tokenId",
					"type": "uint256"
				},
				{
					"internalType": "string",
					"name": "uri",
					"type": "string"
				}
			],
			"name": "setTokenURIExtension",
			"outputs": [],
			"stateMutability": "nonpayable",
			"type": "function"
		},
		{
			"inputs": [
				{
					"internalType": "string",
					"name": "prefix",
					"type": "string"
				}
			],
			"name": "setTokenURIPrefix",
			"outputs": [],
			"stateMutability": "nonpayable",
			"type": "function"
		},
		{
			"inputs": [
				{
					"internalType": "string",
					"name": "prefix",
					"type": "string"
				}
			],
			"name": "setTokenURIPrefixExtension",
			"outputs": [],
			"stateMutability": "nonpayable",
			"type": "function"
		},
		{
			"inputs": [
				{
					"internalType": "bytes4",
					"name": "interfaceId",
					"type": "bytes4"
				}
			],
			"name": "supportsInterface",
			"outputs": [
				{
					"internalType": "bool",
					"name": "",
					"type": "bool"
				}
			],
			"stateMutability": "view",
			"type": "function"
		},
		{
			"inputs": [],
			"name": "symbol",
			"outputs": [
				{
					"internalType": "string",
					"name": "",
					"type": "string"
				}
			],
			"stateMutability": "view",
			"type": "function"
		},
		{
			"inputs": [
				{
					"internalType": "uint256",
					"name": "tokenId",
					"type": "uint256"
				}
			],
			"name": "tokenExtension",
			"outputs": [
				{
					"internalType": "address",
					"name": "",
					"type": "address"
				}
			],
			"stateMutability": "view",
			"type": "function"
		},
		{
			"inputs": [
				{
					"internalType": "uint256",
					"name": "tokenId",
					"type": "uint256"
				}
			],
			"name": "tokenURI",
			"outputs": [
				{
					"internalType": "string",
					"name": "",
					"type": "string"
				}
			],
			"stateMutability": "view",
			"type": "function"
		},
		{
			"inputs": [
				{
					"internalType": "address",
					"name": "from",
					"type": "address"
				},
				{
					"internalType": "address",
					"name": "to",
					"type": "address"
				},
				{
					"internalType": "uint256",
					"name": "tokenId",
					"type": "uint256"
				}
			],
			"name": "transferFrom",
			"outputs": [],
			"stateMutability": "nonpayable",
			"type": "function"
		},
		{
			"inputs": [
				{
					"internalType": "address",
					"name": "newOwner",
					"type": "address"
				}
			],
			"name": "transferOwnership",
			"outputs": [],
			"stateMutability": "nonpayable",
			"type": "function"
		},
		{
			"inputs": [
				{
					"internalType": "address",
					"name": "extension",
					"type": "address"
				}
			],
			"name": "unregisterExtension",
			"outputs": [],
			"stateMutability": "nonpayable",
			"type": "function"
		}
	]
}