{
  "_format": "hh-sol-artifact-1",
  "contractName": "ReserveAuctionCoreErc20",
  "sourceName": "contracts/backup/zora-v3/ReserveAuctionCoreErc20.sol",
  "abi": [
    {
      "inputs": [
        {
          "internalType": "address",
          "name": "_erc20TransferHelper",
          "type": "address"
        },
        {
          "internalType": "address",
          "name": "_erc721TransferHelper",
          "type": "address"
        },
        {
          "internalType": "address",
          "name": "_royaltyEngine",
          "type": "address"
        },
        {
          "internalType": "address",
          "name": "_protocolFeeSettings",
          "type": "address"
        },
        {
          "internalType": "address",
          "name": "_weth",
          "type": "address"
        }
      ],
      "stateMutability": "nonpayable",
      "type": "constructor"
    },
    {
      "anonymous": false,
      "inputs": [
        {
          "indexed": true,
          "internalType": "address",
          "name": "tokenContract",
          "type": "address"
        },
        {
          "indexed": true,
          "internalType": "uint256",
          "name": "tokenId",
          "type": "uint256"
        },
        {
          "indexed": false,
          "internalType": "bool",
          "name": "firstBid",
          "type": "bool"
        },
        {
          "indexed": false,
          "internalType": "bool",
          "name": "extended",
          "type": "bool"
        },
        {
          "components": [
            {
              "internalType": "address",
              "name": "seller",
              "type": "address"
            },
            {
              "internalType": "uint96",
              "name": "reservePrice",
              "type": "uint96"
            },
            {
              "internalType": "address",
              "name": "sellerFundsRecipient",
              "type": "address"
            },
            {
              "internalType": "uint96",
              "name": "highestBid",
              "type": "uint96"
            },
            {
              "internalType": "address",
              "name": "highestBidder",
              "type": "address"
            },
            {
              "internalType": "uint48",
              "name": "duration",
              "type": "uint48"
            },
            {
              "internalType": "uint48",
              "name": "startTime",
              "type": "uint48"
            },
            {
              "internalType": "address",
              "name": "currency",
              "type": "address"
            },
            {
              "internalType": "uint96",
              "name": "firstBidTime",
              "type": "uint96"
            }
          ],
          "indexed": false,
          "internalType": "struct ReserveAuctionCoreErc20.Auction",
          "name": "auction",
          "type": "tuple"
        }
      ],
      "name": "AuctionBid",
      "type": "event"
    },
    {
      "anonymous": false,
      "inputs": [
        {
          "indexed": true,
          "internalType": "address",
          "name": "tokenContract",
          "type": "address"
        },
        {
          "indexed": true,
          "internalType": "uint256",
          "name": "tokenId",
          "type": "uint256"
        },
        {
          "components": [
            {
              "internalType": "address",
              "name": "seller",
              "type": "address"
            },
            {
              "internalType": "uint96",
              "name": "reservePrice",
              "type": "uint96"
            },
            {
              "internalType": "address",
              "name": "sellerFundsRecipient",
              "type": "address"
            },
            {
              "internalType": "uint96",
              "name": "highestBid",
              "type": "uint96"
            },
            {
              "internalType": "address",
              "name": "highestBidder",
              "type": "address"
            },
            {
              "internalType": "uint48",
              "name": "duration",
              "type": "uint48"
            },
            {
              "internalType": "uint48",
              "name": "startTime",
              "type": "uint48"
            },
            {
              "internalType": "address",
              "name": "currency",
              "type": "address"
            },
            {
              "internalType": "uint96",
              "name": "firstBidTime",
              "type": "uint96"
            }
          ],
          "indexed": false,
          "internalType": "struct ReserveAuctionCoreErc20.Auction",
          "name": "auction",
          "type": "tuple"
        }
      ],
      "name": "AuctionCanceled",
      "type": "event"
    },
    {
      "anonymous": false,
      "inputs": [
        {
          "indexed": true,
          "internalType": "address",
          "name": "tokenContract",
          "type": "address"
        },
        {
          "indexed": true,
          "internalType": "uint256",
          "name": "tokenId",
          "type": "uint256"
        },
        {
          "components": [
            {
              "internalType": "address",
              "name": "seller",
              "type": "address"
            },
            {
              "internalType": "uint96",
              "name": "reservePrice",
              "type": "uint96"
            },
            {
              "internalType": "address",
              "name": "sellerFundsRecipient",
              "type": "address"
            },
            {
              "internalType": "uint96",
              "name": "highestBid",
              "type": "uint96"
            },
            {
              "internalType": "address",
              "name": "highestBidder",
              "type": "address"
            },
            {
              "internalType": "uint48",
              "name": "duration",
              "type": "uint48"
            },
            {
              "internalType": "uint48",
              "name": "startTime",
              "type": "uint48"
            },
            {
              "internalType": "address",
              "name": "currency",
              "type": "address"
            },
            {
              "internalType": "uint96",
              "name": "firstBidTime",
              "type": "uint96"
            }
          ],
          "indexed": false,
          "internalType": "struct ReserveAuctionCoreErc20.Auction",
          "name": "auction",
          "type": "tuple"
        }
      ],
      "name": "AuctionCreated",
      "type": "event"
    },
    {
      "anonymous": false,
      "inputs": [
        {
          "indexed": true,
          "internalType": "address",
          "name": "tokenContract",
          "type": "address"
        },
        {
          "indexed": true,
          "internalType": "uint256",
          "name": "tokenId",
          "type": "uint256"
        },
        {
          "components": [
            {
              "internalType": "address",
              "name": "seller",
              "type": "address"
            },
            {
              "internalType": "uint96",
              "name": "reservePrice",
              "type": "uint96"
            },
            {
              "internalType": "address",
              "name": "sellerFundsRecipient",
              "type": "address"
            },
            {
              "internalType": "uint96",
              "name": "highestBid",
              "type": "uint96"
            },
            {
              "internalType": "address",
              "name": "highestBidder",
              "type": "address"
            },
            {
              "internalType": "uint48",
              "name": "duration",
              "type": "uint48"
            },
            {
              "internalType": "uint48",
              "name": "startTime",
              "type": "uint48"
            },
            {
              "internalType": "address",
              "name": "currency",
              "type": "address"
            },
            {
              "internalType": "uint96",
              "name": "firstBidTime",
              "type": "uint96"
            }
          ],
          "indexed": false,
          "internalType": "struct ReserveAuctionCoreErc20.Auction",
          "name": "auction",
          "type": "tuple"
        }
      ],
      "name": "AuctionEnded",
      "type": "event"
    },
    {
      "anonymous": false,
      "inputs": [
        {
          "indexed": true,
          "internalType": "address",
          "name": "tokenContract",
          "type": "address"
        },
        {
          "indexed": true,
          "internalType": "uint256",
          "name": "tokenId",
          "type": "uint256"
        },
        {
          "components": [
            {
              "internalType": "address",
              "name": "seller",
              "type": "address"
            },
            {
              "internalType": "uint96",
              "name": "reservePrice",
              "type": "uint96"
            },
            {
              "internalType": "address",
              "name": "sellerFundsRecipient",
              "type": "address"
            },
            {
              "internalType": "uint96",
              "name": "highestBid",
              "type": "uint96"
            },
            {
              "internalType": "address",
              "name": "highestBidder",
              "type": "address"
            },
            {
              "internalType": "uint48",
              "name": "duration",
              "type": "uint48"
            },
            {
              "internalType": "uint48",
              "name": "startTime",
              "type": "uint48"
            },
            {
              "internalType": "address",
              "name": "currency",
              "type": "address"
            },
            {
              "internalType": "uint96",
              "name": "firstBidTime",
              "type": "uint96"
            }
          ],
          "indexed": false,
          "internalType": "struct ReserveAuctionCoreErc20.Auction",
          "name": "auction",
          "type": "tuple"
        }
      ],
      "name": "AuctionReservePriceUpdated",
      "type": "event"
    },
    {
      "anonymous": false,
      "inputs": [
        {
          "indexed": true,
          "internalType": "address",
          "name": "tokenContract",
          "type": "address"
        },
        {
          "indexed": true,
          "internalType": "uint256",
          "name": "tokenId",
          "type": "uint256"
        },
        {
          "indexed": false,
          "internalType": "address",
          "name": "recipient",
          "type": "address"
        },
        {
          "indexed": false,
          "internalType": "uint256",
          "name": "amount",
          "type": "uint256"
        }
      ],
      "name": "RoyaltyPayout",
      "type": "event"
    },
    {
      "inputs": [
        {
          "internalType": "address",
          "name": "_tokenContract",
          "type": "address"
        },
        {
          "internalType": "uint256",
          "name": "_tokenId",
          "type": "uint256"
        },
        {
          "internalType": "uint256",
          "name": "_amount",
          "type": "uint256"
        },
        {
          "internalType": "address",
          "name": "_payoutCurrency",
          "type": "address"
        }
      ],
      "name": "_handleRoyaltyEnginePayout",
      "outputs": [
        {
          "internalType": "uint256",
          "name": "",
          "type": "uint256"
        }
      ],
      "stateMutability": "payable",
      "type": "function"
    },
    {
      "inputs": [
        {
          "internalType": "address",
          "name": "",
          "type": "address"
        },
        {
          "internalType": "uint256",
          "name": "",
          "type": "uint256"
        }
      ],
      "name": "auctionForNFT",
      "outputs": [
        {
          "internalType": "address",
          "name": "seller",
          "type": "address"
        },
        {
          "internalType": "uint96",
          "name": "reservePrice",
          "type": "uint96"
        },
        {
          "internalType": "address",
          "name": "sellerFundsRecipient",
          "type": "address"
        },
        {
          "internalType": "uint96",
          "name": "highestBid",
          "type": "uint96"
        },
        {
          "internalType": "address",
          "name": "highestBidder",
          "type": "address"
        },
        {
          "internalType": "uint48",
          "name": "duration",
          "type": "uint48"
        },
        {
          "internalType": "uint48",
          "name": "startTime",
          "type": "uint48"
        },
        {
          "internalType": "address",
          "name": "currency",
          "type": "address"
        },
        {
          "internalType": "uint96",
          "name": "firstBidTime",
          "type": "uint96"
        }
      ],
      "stateMutability": "view",
      "type": "function"
    },
    {
      "inputs": [
        {
          "internalType": "address",
          "name": "_tokenContract",
          "type": "address"
        },
        {
          "internalType": "uint256",
          "name": "_tokenId",
          "type": "uint256"
        }
      ],
      "name": "cancelAuction",
      "outputs": [],
      "stateMutability": "nonpayable",
      "type": "function"
    },
    {
      "inputs": [
        {
          "internalType": "address",
          "name": "_tokenContract",
          "type": "address"
        },
        {
          "internalType": "uint256",
          "name": "_tokenId",
          "type": "uint256"
        },
        {
          "internalType": "uint256",
          "name": "_duration",
          "type": "uint256"
        },
        {
          "internalType": "uint256",
          "name": "_reservePrice",
          "type": "uint256"
        },
        {
          "internalType": "address",
          "name": "_sellerFundsRecipient",
          "type": "address"
        },
        {
          "internalType": "uint256",
          "name": "_startTime",
          "type": "uint256"
        },
        {
          "internalType": "address",
          "name": "_bidCurrency",
          "type": "address"
        }
      ],
      "name": "createAuction",
      "outputs": [],
      "stateMutability": "nonpayable",
      "type": "function"
    },
    {
      "inputs": [
        {
          "internalType": "address",
          "name": "_tokenContract",
          "type": "address"
        },
        {
          "internalType": "uint256",
          "name": "_tokenId",
          "type": "uint256"
        },
        {
          "internalType": "uint256",
          "name": "_amount",
          "type": "uint256"
        }
      ],
      "name": "createBid",
      "outputs": [],
      "stateMutability": "payable",
      "type": "function"
    },
    {
      "inputs": [],
      "name": "erc20TransferHelper",
      "outputs": [
        {
          "internalType": "contract ERC20TransferHelper",
          "name": "",
          "type": "address"
        }
      ],
      "stateMutability": "view",
      "type": "function"
    },
    {
      "inputs": [],
      "name": "erc721TransferHelper",
      "outputs": [
        {
          "internalType": "contract ERC721TransferHelper",
          "name": "",
          "type": "address"
        }
      ],
      "stateMutability": "view",
      "type": "function"
    },
    {
      "inputs": [],
      "name": "name",
      "outputs": [
        {
          "internalType": "string",
          "name": "",
          "type": "string"
        }
      ],
      "stateMutability": "view",
      "type": "function"
    },
    {
      "inputs": [],
      "name": "registrar",
      "outputs": [
        {
          "internalType": "address",
          "name": "",
          "type": "address"
        }
      ],
      "stateMutability": "view",
      "type": "function"
    },
    {
      "inputs": [
        {
          "internalType": "address",
          "name": "_tokenContract",
          "type": "address"
        },
        {
          "internalType": "uint256",
          "name": "_tokenId",
          "type": "uint256"
        },
        {
          "internalType": "uint256",
          "name": "_reservePrice",
          "type": "uint256"
        }
      ],
      "name": "setAuctionReservePrice",
      "outputs": [],
      "stateMutability": "nonpayable",
      "type": "function"
    },
    {
      "inputs": [
        {
          "internalType": "address",
          "name": "_royaltyEngine",
          "type": "address"
        }
      ],
      "name": "setRoyaltyEngineAddress",
      "outputs": [],
      "stateMutability": "nonpayable",
      "type": "function"
    },
    {
      "inputs": [
        {
          "internalType": "address",
          "name": "_tokenContract",
          "type": "address"
        },
        {
          "internalType": "uint256",
          "name": "_tokenId",
          "type": "uint256"
        }
      ],
      "name": "settleAuction",
      "outputs": [],
      "stateMutability": "nonpayable",
      "type": "function"
    },
    {
      "inputs": [
        {
          "internalType": "bytes4",
          "name": "_interfaceId",
          "type": "bytes4"
        }
      ],
      "name": "supportsInterface",
      "outputs": [
        {
          "internalType": "bool",
          "name": "",
          "type": "bool"
        }
      ],
      "stateMutability": "pure",
      "type": "function"
    }
  ],
  "bytecode": "0x6101206040523480156200001257600080fd5b5060405162002c2b38038062002c2b8339810160408190526200003591620001b5565b6040518060400160405280601b81526020017f526573657276652041756374696f6e20436f7265204552432d32300000000000815250838383876001600160a01b031663e3e606f06040518163ffffffff1660e01b8152600401602060405180830381865afa158015620000ad573d6000803e3d6000fd5b505050506040513d601f19601f82011682018060405250810190620000d3919062000235565b6001600160a01b0316632b20e3976040518163ffffffff1660e01b8152600401602060405180830381865afa15801562000111573d6000803e3d6000fd5b505050506040513d601f19601f8201168201806040525081019062000137919062000235565b600160008190556001600160a01b038b811660805292831660a05280546001600160a01b0319169483169490941790935590811660e0521660c052600262000180828262000301565b5050506001600160a01b039092166101005250620003cd915050565b6001600160a01b0381168114620001b257600080fd5b50565b600080600080600060a08688031215620001ce57600080fd5b8551620001db816200019c565b6020870151909550620001ee816200019c565b604087015190945062000201816200019c565b606087015190935062000214816200019c565b608087015190925062000227816200019c565b809150509295509295909350565b6000602082840312156200024857600080fd5b815162000255816200019c565b9392505050565b634e487b7160e01b600052604160045260246000fd5b600181811c908216806200028757607f821691505b602082108103620002a857634e487b7160e01b600052602260045260246000fd5b50919050565b601f821115620002fc57600081815260208120601f850160051c81016020861015620002d75750805b601f850160051c820191505b81811015620002f857828155600101620002e3565b5050505b505050565b81516001600160401b038111156200031d576200031d6200025c565b62000335816200032e845462000272565b84620002ae565b602080601f8311600181146200036d5760008415620003545750858301515b600019600386901b1c1916600185901b178555620002f8565b600085815260208120601f198616915b828110156200039e578886015182559484019460019091019084016200037d565b5085821015620003bd5787850151600019600388901b60f8161c191681555b5050505050600190811b01905550565b60805160a05160c05160e051610100516127f6620004356000396000818161036f015261152c01526000818161187101526119070152600081816101520152611055015260008181611a990152611b170152600081816101de0152611cb001526127f66000f3fe6080604052600436106100c25760003560e01c80638f9d32511161007f578063b249bb3011610059578063b249bb301461031d578063cbe98dba1461033d578063f7cd1d9b1461035d578063fba133d91461039157600080fd5b80638f9d3251146101cc5780639128c22c14610200578063a90832a11461022157600080fd5b806301ffc9a7146100c75780630366c34f146100fc57806306fdde031461011e5780632b20e397146101405780635138b08c1461018c578063859b97fe146101ac575b600080fd5b3480156100d357600080fd5b506100e76100e2366004612165565b6103a4565b60405190151581526020015b60405180910390f35b34801561010857600080fd5b5061011c6101173660046121a7565b6103db565b005b34801561012a57600080fd5b506101336108a1565b6040516100f3919061223d565b34801561014c57600080fd5b506101747f000000000000000000000000000000000000000000000000000000000000000081565b6040516001600160a01b0390911681526020016100f3565b34801561019857600080fd5b5061011c6101a7366004612270565b61092f565b3480156101b857600080fd5b5061011c6101c7366004612270565b610bda565b3480156101d857600080fd5b506101747f000000000000000000000000000000000000000000000000000000000000000081565b61021361020e36600461229c565b610e4a565b6040519081526020016100f3565b34801561022d57600080fd5b506102b761023c366004612270565b6003602081815260009384526040808520909152918352912080546001820154600283015492909301546001600160a01b03808316946001600160601b03600160a01b9485900481169582841695928390048216948185169465ffffffffffff858404811695600160d01b9094041693908216929091041689565b604080516001600160a01b039a8b1681526001600160601b03998a166020820152978a16908801529487166060870152928716608086015265ffffffffffff91821660a08601521660c084015290931660e08201529116610100820152610120016100f3565b34801561032957600080fd5b5061011c6103383660046122e6565b61104a565b34801561034957600080fd5b5061011c610358366004612303565b611176565b34801561036957600080fd5b506101747f000000000000000000000000000000000000000000000000000000000000000081565b61011c61039f366004612303565b611311565b60006001600160e01b031982166373c6ad2f60e11b14806103d557506301ffc9a760e01b6001600160e01b03198316145b92915050565b6002600054036104065760405162461bcd60e51b81526004016103fd90612338565b60405180910390fd5b600260009081556040516331a9108f60e11b8152600481018890526001600160a01b03891690636352211e90602401602060405180830381865afa158015610452573d6000803e3d6000fd5b505050506040513d601f19601f82011682018060405250810190610476919061236f565b9050336001600160a01b03821614806104fa575060405163e985e9c560e01b81526001600160a01b03828116600483015233602483015289169063e985e9c590604401602060405180830381865afa1580156104d6573d6000803e3d6000fd5b505050506040513d601f19601f820116820180604052508101906104fa919061238c565b6105465760405162461bcd60e51b815260206004820152601c60248201527f4f4e4c595f544f4b454e5f4f574e45525f4f525f4f50455241544f520000000060448201526064016103fd565b6001600160601b038511156105955760405162461bcd60e51b8152602060048201526015602482015274494e56414c49445f524553455256455f505249434560581b60448201526064016103fd565b6001600160a01b0384166105eb5760405162461bcd60e51b815260206004820152601760248201527f494e56414c49445f46554e44535f524543495049454e5400000000000000000060448201526064016103fd565b80600360008a6001600160a01b03166001600160a01b03168152602001908152602001600020600089815260200190815260200160002060000160006101000a8154816001600160a01b0302191690836001600160a01b0316021790555084600360008a6001600160a01b03166001600160a01b03168152602001908152602001600020600089815260200190815260200160002060000160146101000a8154816001600160601b0302191690836001600160601b0316021790555083600360008a6001600160a01b03166001600160a01b03168152602001908152602001600020600089815260200190815260200160002060010160006101000a8154816001600160a01b0302191690836001600160a01b0316021790555085600360008a6001600160a01b03166001600160a01b03168152602001908152602001600020600089815260200190815260200160002060020160146101000a81548165ffffffffffff021916908365ffffffffffff16021790555082600360008a6001600160a01b03166001600160a01b031681526020019081526020016000206000898152602001908152602001600020600201601a6101000a81548165ffffffffffff021916908365ffffffffffff16021790555081600360008a6001600160a01b03166001600160a01b03168152602001908152602001600020600089815260200190815260200160002060030160006101000a8154816001600160a01b0302191690836001600160a01b0316021790555086886001600160a01b03167f0c7b76bb4da29265d4d2c3b79cde43d3b7a45a5353e2ca5c8353b1e703a5b025600360008c6001600160a01b03166001600160a01b0316815260200190815260200160002060008b815260200190815260200160002060405161088a9190612417565b60405180910390a350506001600055505050505050565b600280546108ae90612426565b80601f01602080910402602001604051908101604052809291908181526020018280546108da90612426565b80156109275780601f106108fc57610100808354040283529160200191610927565b820191906000526020600020905b81548152906001019060200180831161090a57829003601f168201915b505050505081565b6002600054036109515760405162461bcd60e51b81526004016103fd90612338565b600260008181556001600160a01b0380851682526003602081815260408085208786528252808520815161012081018352815480871682526001600160601b03600160a01b91829004811695830195909552600183015480881694830194909452928390048416606082015296810154808616608089015265ffffffffffff838204811660a08a0152600160d01b9091041660c08801529092015492831660e0860152910416610100830181905290819003610a455760405162461bcd60e51b8152602060048201526013602482015272105550d51253d397d393d517d4d51054951151606a1b60448201526064016103fd565b60a0820151610a5c9065ffffffffffff1682612476565b421015610a9e5760405162461bcd60e51b815260206004820152601060248201526f20aaa1aa24a7a72fa727aa2fa7ab22a960811b60448201526064016103fd565b60008260e0015190506000610ac6868686606001516001600160601b031685620493e0611786565b509050610ad38183611848565b9050610ae78460400151828461c35061199d565b60808401516040516323b872dd60e01b81523060048201526001600160a01b03918216602482015260448101879052908716906323b872dd90606401600060405180830381600087803b158015610b3d57600080fd5b505af1158015610b51573d6000803e3d6000fd5b5050505084866001600160a01b03167f84042a9c30febd3a9f01ec941c4468830c511bca38f54ca7cb0d39e0c509f38786604051610b8f9190612489565b60405180910390a35050506001600160a01b03909216600090815260036020818152604080842094845293905291812081815560018082018390556002820183905592018190555550565b600260005403610bfc5760405162461bcd60e51b81526004016103fd90612338565b600260008181556001600160a01b038085168252600360208181526040808520878652825293849020845161012081018652815480861682526001600160601b03600160a01b91829004811694830194909452600183015480871697830197909752958690048316606082015295810154808516608088015265ffffffffffff868204811660a0890152600160d01b9091041660c08701529091015491821660e085015291900416610100820181905215610ceb5760405162461bcd60e51b815260206004820152600f60248201526e105550d51253d397d4d51054951151608a1b60448201526064016103fd565b80516001600160a01b0316331480610d7c57506040516331a9108f60e11b8152600481018390526001600160a01b03841690636352211e90602401602060405180830381865afa158015610d43573d6000803e3d6000fd5b505050506040513d601f19601f82011682018060405250810190610d67919061236f565b6001600160a01b0316336001600160a01b0316145b610dc85760405162461bcd60e51b815260206004820152601a60248201527f4f4e4c595f53454c4c45525f4f525f544f4b454e5f4f574e455200000000000060448201526064016103fd565b81836001600160a01b03167fc427141a129733bfc01de065c83055273f6480de1578dd76f04ac4ea9da29c7983604051610e029190612489565b60405180910390a3506001600160a01b039091166000908152600360208181526040808420948452939052918120818155600180820183905560028201839055920181905555565b6000333014610eb15760405162461bcd60e51b815260206004820152602d60248201527f5f68616e646c65526f79616c7479456e67696e655061796f7574206f6e6c792060448201526c73656c662063616c6c61626c6560981b60648201526084016103fd565b600154604051637a99dc0160e11b81526001600160a01b0387811660048301526024820187905260448201869052600092839291169063f533b802906064016000604051808303816000875af1158015610f0f573d6000803e3d6000fd5b505050506040513d6000823e601f3d908101601f19168201604052610f37919081019061263d565b815191935091506000819003610f5257859350505050611042565b85600080805b8481101561103857868181518110610f7257610f72612702565b60200260200101519250858181518110610f8e57610f8e612702565b6020026020010151915081841015610fd45760405162461bcd60e51b81526020600482015260096024820152681a5b9cdbdb1d995b9d60ba1b60448201526064016103fd565b610fe283838b61c35061199d565b604080516001600160a01b038581168252602082018590528d92908f16917f866e6ef8682ddf5f1025e64dfdb45527077f7be70fa9ef680b7ffd8cf4ab9c50910160405180910390a39281900392600101610f58565b5091955050505050505b949350505050565b336001600160a01b037f000000000000000000000000000000000000000000000000000000000000000016146110d15760405162461bcd60e51b815260206004820152602660248201527f736574526f79616c7479456e67696e6541646472657373206f6e6c792072656760448201526534b9ba3930b960d11b60648201526084016103fd565b6110e281636591fc0b60e11b611b63565b6111545760405162461bcd60e51b815260206004820152603d60248201527f736574526f79616c7479456e67696e6541646472657373206d757374206d617460448201527f63682049526f79616c7479456e67696e65563120696e7465726661636500000060648201526084016103fd565b600180546001600160a01b0319166001600160a01b0392909216919091179055565b6002600054036111985760405162461bcd60e51b81526004016103fd90612338565b600260009081556001600160a01b038416815260036020818152604080842086855290915290912090810154600160a01b90046001600160601b0316156112135760405162461bcd60e51b815260206004820152600f60248201526e105550d51253d397d4d51054951151608a1b60448201526064016103fd565b80546001600160a01b0316331461125a5760405162461bcd60e51b815260206004820152600b60248201526a27a7262cafa9a2a62622a960a91b60448201526064016103fd565b6001600160601b038211156112a95760405162461bcd60e51b8152602060048201526015602482015274494e56414c49445f524553455256455f505249434560581b60448201526064016103fd565b80546001600160601b038316600160a01b026001600160a01b0391821617825560405184918616907f20808ef80f8c2f5b1a3d878a90c1ea1d6823a630a74437b44e9d793a474526d4906112fe908590612417565b60405180910390a3505060016000555050565b6002600054036113335760405162461bcd60e51b81526004016103fd90612338565b600260009081556001600160a01b0380851682526003602090815260408084208685529091529091208054909116806113a75760405162461bcd60e51b8152602060048201526016602482015275105550d51253d397d113d154d7d393d517d1561254d560521b60448201526064016103fd565b6002820154600160d01b900465ffffffffffff164210156114005760405162461bcd60e51b8152602060048201526013602482015272105550d51253d397d393d517d4d51054951151606a1b60448201526064016103fd565b6001600160601b038311156114455760405162461bcd60e51b815260206004820152600b60248201526a1253959053125117d0925160aa1b60448201526064016103fd565b60038201546002830154600160a01b8083046001600160601b031692910465ffffffffffff16906001600160a01b0316600083810361158d578554600160a01b90046001600160601b03168710156114d75760405162461bcd60e51b8152602060048201526015602482015274149154d154959157d4149250d157d393d517d35155605a1b60448201526064016103fd565b506003850180546001600160a01b03908116600160a01b426001600160601b03160217909155604051630aed65f560e11b815289821660048201528582166024820152306044820152606481018990526001917f000000000000000000000000000000000000000000000000000000000000000016906315dacbea90608401600060405180830381600087803b15801561157057600080fd5b505af1158015611584573d6000803e3d6000fd5b505050506116a3565b6115978385612476565b42106115d45760405162461bcd60e51b815260206004820152600c60248201526b20aaa1aa24a7a72fa7ab22a960a11b60448201526064016103fd565b6001860154600160a01b90046001600160601b031660006064600a830204820190506001600160601b0381111561163e5760405162461bcd60e51b815260206004820152600e60248201526d13505617d0925117d4131050d15160921b60448201526064016103fd565b808910156116845760405162461bcd60e51b81526020600482015260136024820152721352539253555357d0925117d393d517d35155606a1b60448201526064016103fd565b60028801546116a0906001600160a01b0316838661c35061199d565b50505b6116ad8783611b86565b6001860180546001600160601b038916600160a01b026001600160a01b039091161790556002860180546001600160a01b031916331790556000428585010361038481101561172e5760028801805465ffffffffffff600160a01b8083048216610384869003019091160265ffffffffffff60a01b19909116179055600191505b898b6001600160a01b03167fb60e620d30d35b4740c1f72497332c381d0aa67d63c7e17ea8bfda742b0afe5485858c60405161176c93929190612718565b60405180910390a350506001600055505050505050505050565b6000808083158061179657505a84115b6117a057836117a2565b5a5b60405163244a308b60e21b81526001600160a01b03808b166004830152602482018a905260448201899052871660648201529091503090639128c22c90839060840160206040518083038160008887f193505050508015611820575060408051601f3d908101601f1916820190925261181d91810190612737565b60015b61183157856000925092505061183e565b92506001915061183e9050565b9550959350505050565b6040516330da42fb60e11b81523060048201526024810183905260009081906001600160a01b037f000000000000000000000000000000000000000000000000000000000000000016906361b485f690604401602060405180830381865afa1580156118b8573d6000803e3d6000fd5b505050506040513d601f19601f820116820180604052508101906118dc9190612737565b9050806000036118ef57839150506103d5565b6040516386ab6fb960e01b81523060048201526000907f00000000000000000000000000000000000000000000000000000000000000006001600160a01b0316906386ab6fb9906024016040805180830381865afa158015611955573d6000803e3d6000fd5b505050506040513d601f19601f820116820180604052508101906119799190612750565b91505061198a81838661c35061199d565b6119948286612791565b95945050505050565b8215806119b157506001600160a01b038416155b611b5d576001600160a01b038216611b495782471015611a1d5760405162461bcd60e51b815260206004820152602160248201527f5f68616e646c654f7574676f696e675472616e7366657220696e736f6c76656e6044820152601d60fa1b60648201526084016103fd565b6000811580611a2b57505a82115b611a355781611a37565b5a5b90506000856001600160a01b0316858390604051600060405180830381858888f193505050503d8060008114611a89576040519150601f19603f3d011682016040523d82523d6000602084013e611a8e565b606091505b5050905080611b42577f00000000000000000000000000000000000000000000000000000000000000006001600160a01b031663d0e30db0866040518263ffffffff1660e01b81526004016000604051808303818588803b158015611af257600080fd5b505af1158015611b06573d6000803e3d6000fd5b50611b429350506001600160a01b037f000000000000000000000000000000000000000000000000000000000000000016915088905087611e15565b5050611b5d565b611b5d6001600160a01b0383168585611e15565b50505050565b6000611b6e83611e6c565b8015611b7f5750611b7f8383611e9f565b9392505050565b6001600160a01b038116611c0e5781341015611c0a5760405162461bcd60e51b815260206004820152603b60248201527f5f68616e646c65496e636f6d696e675472616e73666572206d73672076616c7560448201527f65206c657373207468616e20657870656374656420616d6f756e74000000000060648201526084016103fd565b5050565b6040516370a0823160e01b815230600482015281906000906001600160a01b038316906370a0823190602401602060405180830381865afa158015611c57573d6000803e3d6000fd5b505050506040513d601f19601f82011682018060405250810190611c7b9190612737565b60405163d9fc4b6160e01b81526001600160a01b038581166004830152336024830152306044830152606482018790529192507f00000000000000000000000000000000000000000000000000000000000000009091169063d9fc4b6190608401600060405180830381600087803b158015611cf657600080fd5b505af1158015611d0a573d6000803e3d6000fd5b50506040516370a0823160e01b8152306004820152600092506001600160a01b03851691506370a0823190602401602060405180830381865afa158015611d55573d6000803e3d6000fd5b505050506040513d601f19601f82011682018060405250810190611d799190612737565b905080611d868684612476565b14611e0e5760405162461bcd60e51b815260206004820152604c60248201527f5f68616e646c65496e636f6d696e675472616e7366657220746f6b656e20747260448201527f616e736665722063616c6c20646964206e6f74207472616e736665722065787060648201526b1958dd195908185b5bdd5b9d60a21b608482015260a4016103fd565b5050505050565b604080516001600160a01b038416602482015260448082018490528251808303909101815260649091019091526020810180516001600160e01b031663a9059cbb60e01b179052611e67908490611f88565b505050565b6000611e7f826301ffc9a760e01b611e9f565b80156103d55750611e98826001600160e01b0319611e9f565b1592915050565b604080516001600160e01b0319831660248083019190915282518083039091018152604490910182526020810180516001600160e01b03166301ffc9a760e01b179052905160009190829081906001600160a01b0387169061753090611f069086906127a4565b6000604051808303818686fa925050503d8060008114611f42576040519150601f19603f3d011682016040523d82523d6000602084013e611f47565b606091505b5091509150602081511015611f6257600093505050506103d5565b818015611f7e575080806020019051810190611f7e919061238c565b9695505050505050565b6000611fdd826040518060400160405280602081526020017f5361666545524332303a206c6f772d6c6576656c2063616c6c206661696c6564815250856001600160a01b031661205a9092919063ffffffff16565b805190915015611e675780806020019051810190611ffb919061238c565b611e675760405162461bcd60e51b815260206004820152602a60248201527f5361666545524332303a204552433230206f7065726174696f6e20646964206e6044820152691bdd081cdd58d8d9595960b21b60648201526084016103fd565b6060611042848460008585843b6120b35760405162461bcd60e51b815260206004820152601d60248201527f416464726573733a2063616c6c20746f206e6f6e2d636f6e747261637400000060448201526064016103fd565b600080866001600160a01b031685876040516120cf91906127a4565b60006040518083038185875af1925050503d806000811461210c576040519150601f19603f3d011682016040523d82523d6000602084013e612111565b606091505b509150915061212182828661212c565b979650505050505050565b6060831561213b575081611b7f565b82511561214b5782518084602001fd5b8160405162461bcd60e51b81526004016103fd919061223d565b60006020828403121561217757600080fd5b81356001600160e01b031981168114611b7f57600080fd5b6001600160a01b03811681146121a457600080fd5b50565b600080600080600080600060e0888a0312156121c257600080fd5b87356121cd8161218f565b965060208801359550604088013594506060880135935060808801356121f28161218f565b925060a0880135915060c08801356122098161218f565b8091505092959891949750929550565b60005b8381101561223457818101518382015260200161221c565b50506000910152565b602081526000825180602084015261225c816040850160208701612219565b601f01601f19169190910160400192915050565b6000806040838503121561228357600080fd5b823561228e8161218f565b946020939093013593505050565b600080600080608085870312156122b257600080fd5b84356122bd8161218f565b9350602085013592506040850135915060608501356122db8161218f565b939692955090935050565b6000602082840312156122f857600080fd5b8135611b7f8161218f565b60008060006060848603121561231857600080fd5b83356123238161218f565b95602085013595506040909401359392505050565b6020808252601f908201527f5265656e7472616e637947756172643a207265656e7472616e742063616c6c00604082015260600190565b60006020828403121561238157600080fd5b8151611b7f8161218f565b60006020828403121561239e57600080fd5b81518015158114611b7f57600080fd5b80546001600160a01b03808216845260a091821c602085015260018301548082166040860152821c60608501526002830154808216608086015265ffffffffffff81841c168386015260d01c60c085015260039092015491821660e08401521c61010090910152565b61012081016103d582846123ae565b600181811c9082168061243a57607f821691505b60208210810361245a57634e487b7160e01b600052602260045260246000fd5b50919050565b634e487b7160e01b600052601160045260246000fd5b808201808211156103d5576103d5612460565b81516001600160a01b031681526020808301516001600160601b0316908201526040808301516101208301916124c9908401826001600160a01b03169052565b5060608301516124e460608401826001600160601b03169052565b5060808301516124ff60808401826001600160a01b03169052565b5060a083015161251960a084018265ffffffffffff169052565b5060c083015161253360c084018265ffffffffffff169052565b5060e083015161254e60e08401826001600160a01b03169052565b50610100928301516001600160601b0316919092015290565b634e487b7160e01b600052604160045260246000fd5b604051601f8201601f1916810167ffffffffffffffff811182821017156125a6576125a6612567565b604052919050565b600067ffffffffffffffff8211156125c8576125c8612567565b5060051b60200190565b600082601f8301126125e357600080fd5b815160206125f86125f3836125ae565b61257d565b82815260059290921b8401810191818101908684111561261757600080fd5b8286015b84811015612632578051835291830191830161261b565b509695505050505050565b6000806040838503121561265057600080fd5b825167ffffffffffffffff8082111561266857600080fd5b818501915085601f83011261267c57600080fd5b8151602061268c6125f3836125ae565b82815260059290921b840181019181810190898411156126ab57600080fd5b948201945b838610156126d25785516126c38161218f565b825294820194908201906126b0565b918801519196509093505050808211156126eb57600080fd5b506126f8858286016125d2565b9150509250929050565b634e487b7160e01b600052603260045260246000fd5b83151581528215156020820152610160810161104260408301846123ae565b60006020828403121561274957600080fd5b5051919050565b6000806040838503121561276357600080fd5b825161ffff8116811461277557600080fd5b60208401519092506127868161218f565b809150509250929050565b818103818111156103d5576103d5612460565b600082516127b6818460208701612219565b919091019291505056fea2646970667358221220650f069276cdaec1396ecc4200d458ddaa3a16fcae0699abf9e752771bf65b8f64736f6c63430008110033",
  "linkReferences": {},
  "deployedLinkReferences": {}
}