{
  "_format": "hh-sol-artifact-1",
  "contractName": "StandardizedZoraNFT",
  "sourceName": "contracts/mojito/StandardizedZoraNFT.sol",
  "abi": [
    {
      "inputs": [
        {
          "internalType": "string",
          "name": "name",
          "type": "string"
        },
        {
          "internalType": "string",
          "name": "symbol",
          "type": "string"
        },
        {
          "internalType": "string",
          "name": "_baseTokenURI",
          "type": "string"
        },
        {
          "internalType": "string",
          "name": "_baseTokenURISuffix",
          "type": "string"
        },
        {
          "internalType": "string",
          "name": "_contractMetadataURI",
          "type": "string"
        },
        {
          "internalType": "address",
          "name": "_marketContractAddr",
          "type": "address"
        },
        {
          "internalType": "address",
          "name": "_proxyRegistryAddress",
          "type": "address"
        }
      ],
      "stateMutability": "nonpayable",
      "type": "constructor"
    },
    {
      "anonymous": false,
      "inputs": [
        {
          "indexed": true,
          "internalType": "address",
          "name": "owner",
          "type": "address"
        },
        {
          "indexed": true,
          "internalType": "address",
          "name": "approved",
          "type": "address"
        },
        {
          "indexed": true,
          "internalType": "uint256",
          "name": "tokenId",
          "type": "uint256"
        }
      ],
      "name": "Approval",
      "type": "event"
    },
    {
      "anonymous": false,
      "inputs": [
        {
          "indexed": true,
          "internalType": "address",
          "name": "owner",
          "type": "address"
        },
        {
          "indexed": true,
          "internalType": "address",
          "name": "operator",
          "type": "address"
        },
        {
          "indexed": false,
          "internalType": "bool",
          "name": "approved",
          "type": "bool"
        }
      ],
      "name": "ApprovalForAll",
      "type": "event"
    },
    {
      "anonymous": false,
      "inputs": [
        {
          "indexed": true,
          "internalType": "address",
          "name": "previousOwner",
          "type": "address"
        },
        {
          "indexed": true,
          "internalType": "address",
          "name": "newOwner",
          "type": "address"
        }
      ],
      "name": "OwnershipTransferred",
      "type": "event"
    },
    {
      "anonymous": false,
      "inputs": [
        {
          "indexed": true,
          "internalType": "address",
          "name": "from",
          "type": "address"
        },
        {
          "indexed": true,
          "internalType": "address",
          "name": "to",
          "type": "address"
        },
        {
          "indexed": true,
          "internalType": "uint256",
          "name": "tokenId",
          "type": "uint256"
        }
      ],
      "name": "Transfer",
      "type": "event"
    },
    {
      "inputs": [],
      "name": "PERMIT_TYPEHASH",
      "outputs": [
        {
          "internalType": "bytes32",
          "name": "",
          "type": "bytes32"
        }
      ],
      "stateMutability": "view",
      "type": "function"
    },
    {
      "inputs": [
        {
          "internalType": "uint256",
          "name": "tokenId",
          "type": "uint256"
        },
        {
          "components": [
            {
              "internalType": "uint256",
              "name": "amount",
              "type": "uint256"
            },
            {
              "internalType": "address",
              "name": "currency",
              "type": "address"
            },
            {
              "internalType": "address",
              "name": "bidder",
              "type": "address"
            },
            {
              "internalType": "address",
              "name": "recipient",
              "type": "address"
            },
            {
              "components": [
                {
                  "internalType": "uint256",
                  "name": "value",
                  "type": "uint256"
                }
              ],
              "internalType": "struct Decimal.D256",
              "name": "sellOnShare",
              "type": "tuple"
            }
          ],
          "internalType": "struct IMarket.Bid",
          "name": "bid",
          "type": "tuple"
        }
      ],
      "name": "acceptBid",
      "outputs": [],
      "stateMutability": "nonpayable",
      "type": "function"
    },
    {
      "inputs": [
        {
          "internalType": "address",
          "name": "to",
          "type": "address"
        },
        {
          "internalType": "uint256",
          "name": "tokenId",
          "type": "uint256"
        }
      ],
      "name": "approve",
      "outputs": [],
      "stateMutability": "nonpayable",
      "type": "function"
    },
    {
      "inputs": [
        {
          "internalType": "uint256",
          "name": "tokenId",
          "type": "uint256"
        },
        {
          "internalType": "address",
          "name": "recipient",
          "type": "address"
        }
      ],
      "name": "auctionTransfer",
      "outputs": [],
      "stateMutability": "nonpayable",
      "type": "function"
    },
    {
      "inputs": [
        {
          "internalType": "address",
          "name": "owner",
          "type": "address"
        }
      ],
      "name": "balanceOf",
      "outputs": [
        {
          "internalType": "uint256",
          "name": "",
          "type": "uint256"
        }
      ],
      "stateMutability": "view",
      "type": "function"
    },
    {
      "inputs": [],
      "name": "baseURI",
      "outputs": [
        {
          "internalType": "string",
          "name": "",
          "type": "string"
        }
      ],
      "stateMutability": "view",
      "type": "function"
    },
    {
      "inputs": [
        {
          "internalType": "address",
          "name": "from",
          "type": "address"
        },
        {
          "internalType": "address",
          "name": "to",
          "type": "address"
        },
        {
          "internalType": "uint256[]",
          "name": "tokenIDs",
          "type": "uint256[]"
        }
      ],
      "name": "batchTransferFrom",
      "outputs": [],
      "stateMutability": "nonpayable",
      "type": "function"
    },
    {
      "inputs": [
        {
          "internalType": "uint256",
          "name": "tokenId",
          "type": "uint256"
        }
      ],
      "name": "burn",
      "outputs": [],
      "stateMutability": "nonpayable",
      "type": "function"
    },
    {
      "inputs": [],
      "name": "contractURI",
      "outputs": [
        {
          "internalType": "string",
          "name": "",
          "type": "string"
        }
      ],
      "stateMutability": "view",
      "type": "function"
    },
    {
      "inputs": [
        {
          "internalType": "uint256",
          "name": "tokenId",
          "type": "uint256"
        }
      ],
      "name": "getApproved",
      "outputs": [
        {
          "internalType": "address",
          "name": "",
          "type": "address"
        }
      ],
      "stateMutability": "view",
      "type": "function"
    },
    {
      "inputs": [
        {
          "internalType": "address",
          "name": "owner",
          "type": "address"
        },
        {
          "internalType": "address",
          "name": "operator",
          "type": "address"
        }
      ],
      "name": "isApprovedForAll",
      "outputs": [
        {
          "internalType": "bool",
          "name": "",
          "type": "bool"
        }
      ],
      "stateMutability": "view",
      "type": "function"
    },
    {
      "inputs": [],
      "name": "marketContract",
      "outputs": [
        {
          "internalType": "address",
          "name": "",
          "type": "address"
        }
      ],
      "stateMutability": "view",
      "type": "function"
    },
    {
      "inputs": [
        {
          "internalType": "address",
          "name": "to",
          "type": "address"
        },
        {
          "internalType": "uint256",
          "name": "amount",
          "type": "uint256"
        },
        {
          "components": [
            {
              "components": [
                {
                  "internalType": "uint256",
                  "name": "value",
                  "type": "uint256"
                }
              ],
              "internalType": "struct Decimal.D256",
              "name": "prevOwner",
              "type": "tuple"
            },
            {
              "components": [
                {
                  "internalType": "uint256",
                  "name": "value",
                  "type": "uint256"
                }
              ],
              "internalType": "struct Decimal.D256",
              "name": "creator",
              "type": "tuple"
            },
            {
              "components": [
                {
                  "internalType": "uint256",
                  "name": "value",
                  "type": "uint256"
                }
              ],
              "internalType": "struct Decimal.D256",
              "name": "owner",
              "type": "tuple"
            }
          ],
          "internalType": "struct IMarket.BidShares",
          "name": "bidShares",
          "type": "tuple"
        }
      ],
      "name": "mintBatchTo",
      "outputs": [],
      "stateMutability": "nonpayable",
      "type": "function"
    },
    {
      "inputs": [
        {
          "internalType": "address",
          "name": "to",
          "type": "address"
        },
        {
          "components": [
            {
              "components": [
                {
                  "internalType": "uint256",
                  "name": "value",
                  "type": "uint256"
                }
              ],
              "internalType": "struct Decimal.D256",
              "name": "prevOwner",
              "type": "tuple"
            },
            {
              "components": [
                {
                  "internalType": "uint256",
                  "name": "value",
                  "type": "uint256"
                }
              ],
              "internalType": "struct Decimal.D256",
              "name": "creator",
              "type": "tuple"
            },
            {
              "components": [
                {
                  "internalType": "uint256",
                  "name": "value",
                  "type": "uint256"
                }
              ],
              "internalType": "struct Decimal.D256",
              "name": "owner",
              "type": "tuple"
            }
          ],
          "internalType": "struct IMarket.BidShares",
          "name": "bidShares",
          "type": "tuple"
        }
      ],
      "name": "mintTo",
      "outputs": [],
      "stateMutability": "nonpayable",
      "type": "function"
    },
    {
      "inputs": [],
      "name": "name",
      "outputs": [
        {
          "internalType": "string",
          "name": "",
          "type": "string"
        }
      ],
      "stateMutability": "view",
      "type": "function"
    },
    {
      "inputs": [],
      "name": "owner",
      "outputs": [
        {
          "internalType": "address",
          "name": "",
          "type": "address"
        }
      ],
      "stateMutability": "view",
      "type": "function"
    },
    {
      "inputs": [
        {
          "internalType": "uint256[]",
          "name": "tokenIDs",
          "type": "uint256[]"
        },
        {
          "internalType": "address[]",
          "name": "bidders",
          "type": "address[]"
        }
      ],
      "name": "ownerBatchRemoveBids",
      "outputs": [],
      "stateMutability": "nonpayable",
      "type": "function"
    },
    {
      "inputs": [
        {
          "internalType": "uint256",
          "name": "tokenId",
          "type": "uint256"
        }
      ],
      "name": "ownerOf",
      "outputs": [
        {
          "internalType": "address",
          "name": "",
          "type": "address"
        }
      ],
      "stateMutability": "view",
      "type": "function"
    },
    {
      "inputs": [
        {
          "internalType": "uint256",
          "name": "tokenID",
          "type": "uint256"
        },
        {
          "internalType": "address",
          "name": "bidder",
          "type": "address"
        }
      ],
      "name": "ownerRemoveBid",
      "outputs": [],
      "stateMutability": "nonpayable",
      "type": "function"
    },
    {
      "inputs": [
        {
          "internalType": "address",
          "name": "spender",
          "type": "address"
        },
        {
          "internalType": "uint256",
          "name": "tokenId",
          "type": "uint256"
        },
        {
          "components": [
            {
              "internalType": "uint256",
              "name": "deadline",
              "type": "uint256"
            },
            {
              "internalType": "uint8",
              "name": "v",
              "type": "uint8"
            },
            {
              "internalType": "bytes32",
              "name": "r",
              "type": "bytes32"
            },
            {
              "internalType": "bytes32",
              "name": "s",
              "type": "bytes32"
            }
          ],
          "internalType": "struct IMedia.EIP712Signature",
          "name": "sig",
          "type": "tuple"
        }
      ],
      "name": "permit",
      "outputs": [],
      "stateMutability": "nonpayable",
      "type": "function"
    },
    {
      "inputs": [
        {
          "internalType": "address",
          "name": "",
          "type": "address"
        },
        {
          "internalType": "uint256",
          "name": "",
          "type": "uint256"
        }
      ],
      "name": "permitNonces",
      "outputs": [
        {
          "internalType": "uint256",
          "name": "",
          "type": "uint256"
        }
      ],
      "stateMutability": "view",
      "type": "function"
    },
    {
      "inputs": [
        {
          "internalType": "uint256",
          "name": "",
          "type": "uint256"
        }
      ],
      "name": "previousTokenOwners",
      "outputs": [
        {
          "internalType": "address",
          "name": "",
          "type": "address"
        }
      ],
      "stateMutability": "view",
      "type": "function"
    },
    {
      "inputs": [
        {
          "internalType": "uint256",
          "name": "tokenId",
          "type": "uint256"
        }
      ],
      "name": "removeAsk",
      "outputs": [],
      "stateMutability": "nonpayable",
      "type": "function"
    },
    {
      "inputs": [
        {
          "internalType": "uint256",
          "name": "tokenId",
          "type": "uint256"
        }
      ],
      "name": "removeBid",
      "outputs": [],
      "stateMutability": "nonpayable",
      "type": "function"
    },
    {
      "inputs": [],
      "name": "renounceOwnership",
      "outputs": [],
      "stateMutability": "nonpayable",
      "type": "function"
    },
    {
      "inputs": [
        {
          "internalType": "uint256",
          "name": "tokenId",
          "type": "uint256"
        }
      ],
      "name": "revokeApproval",
      "outputs": [],
      "stateMutability": "nonpayable",
      "type": "function"
    },
    {
      "inputs": [
        {
          "internalType": "address",
          "name": "from",
          "type": "address"
        },
        {
          "internalType": "address",
          "name": "to",
          "type": "address"
        },
        {
          "internalType": "uint256[]",
          "name": "tokenIDs",
          "type": "uint256[]"
        }
      ],
      "name": "safeBatchTransferFrom",
      "outputs": [],
      "stateMutability": "nonpayable",
      "type": "function"
    },
    {
      "inputs": [
        {
          "internalType": "address",
          "name": "from",
          "type": "address"
        },
        {
          "internalType": "address",
          "name": "to",
          "type": "address"
        },
        {
          "internalType": "uint256",
          "name": "tokenId",
          "type": "uint256"
        }
      ],
      "name": "safeTransferFrom",
      "outputs": [],
      "stateMutability": "nonpayable",
      "type": "function"
    },
    {
      "inputs": [
        {
          "internalType": "address",
          "name": "from",
          "type": "address"
        },
        {
          "internalType": "address",
          "name": "to",
          "type": "address"
        },
        {
          "internalType": "uint256",
          "name": "tokenId",
          "type": "uint256"
        },
        {
          "internalType": "bytes",
          "name": "_data",
          "type": "bytes"
        }
      ],
      "name": "safeTransferFrom",
      "outputs": [],
      "stateMutability": "nonpayable",
      "type": "function"
    },
    {
      "inputs": [
        {
          "internalType": "address",
          "name": "operator",
          "type": "address"
        },
        {
          "internalType": "bool",
          "name": "approved",
          "type": "bool"
        }
      ],
      "name": "setApprovalForAll",
      "outputs": [],
      "stateMutability": "nonpayable",
      "type": "function"
    },
    {
      "inputs": [
        {
          "internalType": "uint256",
          "name": "tokenId",
          "type": "uint256"
        },
        {
          "components": [
            {
              "internalType": "uint256",
              "name": "amount",
              "type": "uint256"
            },
            {
              "internalType": "address",
              "name": "currency",
              "type": "address"
            }
          ],
          "internalType": "struct IMarket.Ask",
          "name": "ask",
          "type": "tuple"
        }
      ],
      "name": "setAsk",
      "outputs": [],
      "stateMutability": "nonpayable",
      "type": "function"
    },
    {
      "inputs": [
        {
          "internalType": "uint256",
          "name": "tokenId",
          "type": "uint256"
        },
        {
          "components": [
            {
              "internalType": "uint256",
              "name": "amount",
              "type": "uint256"
            },
            {
              "internalType": "address",
              "name": "currency",
              "type": "address"
            },
            {
              "internalType": "address",
              "name": "bidder",
              "type": "address"
            },
            {
              "internalType": "address",
              "name": "recipient",
              "type": "address"
            },
            {
              "components": [
                {
                  "internalType": "uint256",
                  "name": "value",
                  "type": "uint256"
                }
              ],
              "internalType": "struct Decimal.D256",
              "name": "sellOnShare",
              "type": "tuple"
            }
          ],
          "internalType": "struct IMarket.Bid",
          "name": "bid",
          "type": "tuple"
        }
      ],
      "name": "setBid",
      "outputs": [],
      "stateMutability": "nonpayable",
      "type": "function"
    },
    {
      "inputs": [
        {
          "internalType": "bytes4",
          "name": "interfaceId",
          "type": "bytes4"
        }
      ],
      "name": "supportsInterface",
      "outputs": [
        {
          "internalType": "bool",
          "name": "",
          "type": "bool"
        }
      ],
      "stateMutability": "view",
      "type": "function"
    },
    {
      "inputs": [],
      "name": "symbol",
      "outputs": [
        {
          "internalType": "string",
          "name": "",
          "type": "string"
        }
      ],
      "stateMutability": "view",
      "type": "function"
    },
    {
      "inputs": [
        {
          "internalType": "uint256",
          "name": "index",
          "type": "uint256"
        }
      ],
      "name": "tokenByIndex",
      "outputs": [
        {
          "internalType": "uint256",
          "name": "",
          "type": "uint256"
        }
      ],
      "stateMutability": "view",
      "type": "function"
    },
    {
      "inputs": [
        {
          "internalType": "uint256",
          "name": "",
          "type": "uint256"
        }
      ],
      "name": "tokenCreators",
      "outputs": [
        {
          "internalType": "address",
          "name": "",
          "type": "address"
        }
      ],
      "stateMutability": "view",
      "type": "function"
    },
    {
      "inputs": [
        {
          "internalType": "address",
          "name": "owner",
          "type": "address"
        },
        {
          "internalType": "uint256",
          "name": "index",
          "type": "uint256"
        }
      ],
      "name": "tokenOfOwnerByIndex",
      "outputs": [
        {
          "internalType": "uint256",
          "name": "",
          "type": "uint256"
        }
      ],
      "stateMutability": "view",
      "type": "function"
    },
    {
      "inputs": [
        {
          "internalType": "uint256",
          "name": "tokenId",
          "type": "uint256"
        }
      ],
      "name": "tokenURI",
      "outputs": [
        {
          "internalType": "string",
          "name": "",
          "type": "string"
        }
      ],
      "stateMutability": "view",
      "type": "function"
    },
    {
      "inputs": [],
      "name": "totalSupply",
      "outputs": [
        {
          "internalType": "uint256",
          "name": "",
          "type": "uint256"
        }
      ],
      "stateMutability": "view",
      "type": "function"
    },
    {
      "inputs": [
        {
          "internalType": "address",
          "name": "from",
          "type": "address"
        },
        {
          "internalType": "address",
          "name": "to",
          "type": "address"
        },
        {
          "internalType": "uint256",
          "name": "tokenId",
          "type": "uint256"
        }
      ],
      "name": "transferFrom",
      "outputs": [],
      "stateMutability": "nonpayable",
      "type": "function"
    },
    {
      "inputs": [
        {
          "internalType": "address",
          "name": "newOwner",
          "type": "address"
        }
      ],
      "name": "transferOwnership",
      "outputs": [],
      "stateMutability": "nonpayable",
      "type": "function"
    },
    {
      "inputs": [
        {
          "internalType": "string",
          "name": "_baseTokenURI",
          "type": "string"
        }
      ],
      "name": "updateBaseURI",
      "outputs": [],
      "stateMutability": "nonpayable",
      "type": "function"
    },
    {
      "inputs": [
        {
          "internalType": "string",
          "name": "_baseTokenURISuffix",
          "type": "string"
        }
      ],
      "name": "updateBaseURISuffix",
      "outputs": [],
      "stateMutability": "nonpayable",
      "type": "function"
    },
    {
      "inputs": [
        {
          "internalType": "string",
          "name": "_contractMetadataURI",
          "type": "string"
        }
      ],
      "name": "updateContractURI",
      "outputs": [],
      "stateMutability": "nonpayable",
      "type": "function"
    }
  ],
  "bytecode": "0x60806040523480156200001157600080fd5b5060405162003fbe38038062003fbe8339810160408190526200003491620002d6565b868683828260076200004783826200046b565b5060086200005682826200046b565b50620000696380ac58cd60e01b6200016c565b6200007b63780e9d6360e01b6200016c565b50506001600b55600c80546001600160a01b0319166001600160a01b038316179055620000af635b5e139f60e01b6200016c565b5050506000620000c4620001f060201b60201c565b601280546001600160a01b0319166001600160a01b038316908117909155604051919250906000907f8be0079c531659141344cd1fd0a4f28419497f9722a3daafe3b4186f6b6457e0908290a35060146200012086826200046b565b5060156200012f85826200046b565b5060166200013e84826200046b565b50601380546001600160a01b0319166001600160a01b03929092169190911790555062000537945050505050565b6001600160e01b03198082169003620001cb5760405162461bcd60e51b815260206004820152601c60248201527f4552433136353a20696e76616c696420696e7465726661636520696400000000604482015260640160405180910390fd5b6001600160e01b0319166000908152602081905260409020805460ff19166001179055565b3390565b634e487b7160e01b600052604160045260246000fd5b600082601f8301126200021c57600080fd5b81516001600160401b0380821115620002395762000239620001f4565b604051601f8301601f19908116603f01168101908282118183101715620002645762000264620001f4565b816040528381526020925086838588010111156200028157600080fd5b600091505b83821015620002a5578582018301518183018401529082019062000286565b600093810190920192909252949350505050565b80516001600160a01b0381168114620002d157600080fd5b919050565b600080600080600080600060e0888a031215620002f257600080fd5b87516001600160401b03808211156200030a57600080fd5b620003188b838c016200020a565b985060208a01519150808211156200032f57600080fd5b6200033d8b838c016200020a565b975060408a01519150808211156200035457600080fd5b620003628b838c016200020a565b965060608a01519150808211156200037957600080fd5b620003878b838c016200020a565b955060808a01519150808211156200039e57600080fd5b50620003ad8a828b016200020a565b935050620003be60a08901620002b9565b9150620003ce60c08901620002b9565b905092959891949750929550565b600181811c90821680620003f157607f821691505b6020821081036200041257634e487b7160e01b600052602260045260246000fd5b50919050565b601f8211156200046657600081815260208120601f850160051c81016020861015620004415750805b601f850160051c820191505b8181101562000462578281556001016200044d565b5050505b505050565b81516001600160401b03811115620004875762000487620001f4565b6200049f81620004988454620003dc565b8462000418565b602080601f831160018114620004d75760008415620004be5750858301515b600019600386901b1c1916600185901b17855562000462565b600085815260208120601f198616915b828110156200050857888601518255948401946001909101908401620004e7565b5085821015620005275787850151600019600388901b60f8161c191681555b5050505050600190811b01905550565b613a7780620005476000396000f3fe608060405234801561001057600080fd5b50600436106102745760003560e01c8063715018a611610151578063ba339399116100c3578063e985e9c511610087578063e985e9c514610591578063f2fde38b146105a4578063f3993d11146105b7578063f6b630f0146105ca578063f8a0eeb6146105dd578063f8ccd5de146105f057600080fd5b8063ba33939914610527578063c87b56dd1461053a578063dfa686851461054d578063e0fd045f14610560578063e8a3d4851461058957600080fd5b80639d8e7260116101155780639d8e72601461049f578063a1794bcd146104c8578063a22cb465146104db578063b1e130fc146104ee578063b320f45914610501578063b88d4fde1461051457600080fd5b8063715018a6146104585780637e5b1e24146104605780638da5cb5b14610473578063931688cb1461048457806395d89b411461049757600080fd5b806330adf81f116101ea578063597be5c1116101ae578063597be5c1146103f15780635bf624221461040457806362f24b70146104175780636352211e1461042a5780636c0360eb1461043d57806370a082311461044557600080fd5b806330adf81f1461037e57806342842e0e146103a557806342966c68146103b85780634be9861a146103cb5780634f6ccce7146103de57600080fd5b80630e2a17781161023c5780630e2a17781461030957806318160ddd1461031c57806323b872dd1461033257806328220f35146103455780632f745c59146103585780633038416c1461036b57600080fd5b806301ffc9a714610279578063034601ec146102a157806306fdde03146102b6578063081812fc146102cb578063095ea7b3146102f6575b600080fd5b61028c610287366004612da9565b61061b565b60405190151581526020015b60405180910390f35b6102b46102af366004612e1f565b61065b565b005b6102be6106a2565b6040516102989190612ed3565b6102de6102d9366004612ee6565b610734565b6040516001600160a01b039091168152602001610298565b6102b4610304366004612eff565b6107c1565b6102b4610317366004612f71565b6108d6565b610324610ca6565b604051908152602001610298565b6102b4610340366004613010565b610cb7565b6102b4610353366004612ee6565b610ce8565b610324610366366004612eff565b610d92565b6102b4610379366004613051565b610dbb565b6103247f49ecf333e5b8c95c40fdafc95c1ad136e8914a8fb55e9dc8bb01eaa83a2df9ad81565b6102b46103b3366004613010565b610df2565b6102b46103c6366004612ee6565b610e0d565b6102b46103d93660046130c2565b610f1f565b6103246103ec366004612ee6565b610fd1565b6102b46103ff366004613104565b610fe7565b6102b4610412366004613184565b61104c565b6102b4610425366004613231565b61113c565b6102de610438366004612ee6565b611209565b6102be611231565b6103246104533660046132a6565b611240565b6102b46112cc565b6102b461046e366004613051565b611340565b6012546001600160a01b03166102de565b6102b4610492366004613051565b611377565b6102be6113ae565b6102de6104ad366004612ee6565b600d602052600090815260409020546001600160a01b031681565b600c546102de906001600160a01b031681565b6102b46104e93660046132c3565b6113bd565b6102b46104fc366004612ee6565b611481565b6102b461050f366004612ee6565b611533565b6102b46105223660046132f6565b6115ef565b6102b4610535366004613184565b611621565b6102be610548366004612ee6565b6116a2565b6102b461055b3660046133b9565b611826565b6102de61056e366004612ee6565b600e602052600090815260409020546001600160a01b031681565b6102be611a50565b61028c61059f366004613418565b611a5f565b6102b46105b23660046132a6565b611b1f565b6102b46105c5366004612e1f565b611c0a565b6102b46105d83660046130c2565b611c4a565b6102b46105eb366004613446565b611d00565b6103246105fe366004612eff565b601060209081526000928352604080842090915290825290205481565b60006301ffc9a760e01b6001600160e01b03198316148061065557506001600160e01b0319821660009081526020819052604090205460ff165b92915050565b60005b8181101561069b57610689858585858581811061067d5761067d61347c565b90506020020135610df2565b80610693816134a8565b91505061065e565b5050505050565b6060600780546106b1906134c1565b80601f01602080910402602001604051908101604052809291908181526020018280546106dd906134c1565b801561072a5780601f106106ff5761010080835404028352916020019161072a565b820191906000526020600020905b81548152906001019060200180831161070d57829003601f168201915b5050505050905090565b600061073f82611d3d565b6107a55760405162461bcd60e51b815260206004820152602c60248201527f4552433732313a20617070726f76656420717565727920666f72206e6f6e657860448201526b34b9ba32b73a103a37b5b2b760a11b60648201526084015b60405180910390fd5b506000908152600560205260409020546001600160a01b031690565b60006107cc82611209565b9050806001600160a01b0316836001600160a01b0316036108395760405162461bcd60e51b815260206004820152602160248201527f4552433732313a20617070726f76616c20746f2063757272656e74206f776e656044820152603960f91b606482015260840161079c565b336001600160a01b038216148061085557506108558133611a5f565b6108c75760405162461bcd60e51b815260206004820152603860248201527f4552433732313a20617070726f76652063616c6c6572206973206e6f74206f7760448201527f6e6572206e6f7220617070726f76656420666f7220616c6c0000000000000000606482015260840161079c565b6108d18383611d4a565b505050565b6002600b54036108f85760405162461bcd60e51b815260040161079c906134f5565b6002600b558161090781611d3d565b6109235760405162461bcd60e51b815260040161079c9061352c565b81511580610932575081514211155b61097e5760405162461bcd60e51b815260206004820152601960248201527f5a6f72614d656469613a205065726d6974206578706972656400000000000000604482015260640161079c565b6001600160a01b0384166109d45760405162461bcd60e51b815260206004820181905260248201527f5a6f72614d656469613a207370656e6465722063616e6e6f7420626520307830604482015260640161079c565b6000610aa460408051808201825260048152635a6f726160e01b6020918201528151808301835260018152603160f81b9082015281517f8b73c3c69bb8fe3d512ecc4cf759cc79239f7b179b0ffacaa9a75d522b39400f818301527f91beda2a71cae260ce24b7d0ba9253f7212b59cbe39b0f303ac34fac7c00047d818401527fc89efdaa54c0f20c7adf612882df0950f5a951637e0307cdcb4c672f298b8bc660608201524660808201523060a0808301919091528351808303909101815260c0909101909252815191012090565b90506000817f49ecf333e5b8c95c40fdafc95c1ad136e8914a8fb55e9dc8bb01eaa83a2df9ad8787601085610ad883611209565b6001600160a01b03168152602080820192909252604090810160009081208c82529092528120805491610b0a836134a8565b9091555088516040805160208101969096526001600160a01b03909416938501939093526060840191909152608083015260a082015260c00160405160208183030381529060405280519060200120604051602001610b8092919061190160f01b81526002810192909252602282015260420190565b604051602081830303815290604052805190602001209050600060018286602001518760400151886060015160405160008152602001604052604051610be2949392919093845260ff9290921660208401526040830152606082015260800190565b6020604051602081039080840390855afa158015610c04573d6000803e3d6000fd5b5050604051601f1901519150506001600160a01b03811615801590610c425750806001600160a01b0316610c3787611209565b6001600160a01b0316145b610c8e5760405162461bcd60e51b815260206004820152601c60248201527f5a6f72614d656469613a205369676e617475726520696e76616c696400000000604482015260640161079c565b610c988787611d4a565b50506001600b555050505050565b6000610cb26002611db8565b905090565b610cc13382611dc3565b610cdd5760405162461bcd60e51b815260040161079c90613563565b6108d1838383611e85565b6002600b5403610d0a5760405162461bcd60e51b815260040161079c906134f5565b6002600b553381610d1b8282611dc3565b610d375760405162461bcd60e51b815260040161079c906135b4565b600c546040516328220f3560e01b8152600481018590526001600160a01b03909116906328220f35906024015b600060405180830381600087803b158015610d7e57600080fd5b505af1158015610c98573d6000803e3d6000fd5b6001600160a01b0382166000908152600160205260408120610db49083611eee565b9392505050565b6012546001600160a01b03163314610de55760405162461bcd60e51b815260040161079c906135f5565b60156108d1828483613678565b6108d1838383604051806020016040528060008152506115ef565b6002600b5403610e2f5760405162461bcd60e51b815260040161079c906134f5565b6002600b5580610e3e81611d3d565b610e5a5760405162461bcd60e51b815260040161079c9061352c565b3382610e668282611dc3565b610e825760405162461bcd60e51b815260040161079c906135b4565b6000610e8d85611209565b6000868152600e60205260409020549091506001600160a01b03808316911614610f0a5760405162461bcd60e51b815260206004820152602860248201527f5a6f72614d656469613a206f776e6572206973206e6f742063726561746f72206044820152676f66206d6564696160c01b606482015260840161079c565b610f1385611efa565b50506001600b55505050565b6002600b5403610f415760405162461bcd60e51b815260040161079c906134f5565b6002600b558180610f5160115490565b11610f6e5760405162461bcd60e51b815260040161079c90613737565b6012546001600160a01b03163314610f985760405162461bcd60e51b815260040161079c906135f5565b600c5460405163776a083560e01b8152600481018590526001600160a01b0384811660248301529091169063776a083590604401610d64565b600080610fdf600284611f21565b509392505050565b6012546001600160a01b031633146110115760405162461bcd60e51b815260040161079c906135f5565b60005b82811015611046576110348461102f36859003850185613783565b611f3f565b8061103e816134a8565b915050611014565b50505050565b6002600b540361106e5760405162461bcd60e51b815260040161079c906134f5565b6002600b558161107d81611d3d565b6110995760405162461bcd60e51b815260040161079c9061352c565b81604001516001600160a01b0316336001600160a01b0316146111085760405162461bcd60e51b815260206004820152602160248201527f4d61726b65743a20426964646572206d757374206265206d73672073656e64656044820152603960f91b606482015260840161079c565b600c546040516317b6b0d360e31b81526001600160a01b039091169063bdb5869890610d6490869086903390600401613832565b6002600b540361115e5760405162461bcd60e51b815260040161079c906134f5565b6002600b55338261116f8282611dc3565b61118b5760405162461bcd60e51b815260040161079c906135b4565b600c5460405163062f24b760e41b8152600481018690528451602482015260208501516001600160a01b039081166044830152909116906362f24b70906064015b600060405180830381600087803b1580156111e657600080fd5b505af11580156111fa573d6000803e3d6000fd5b50506001600b55505050505050565b600061065582604051806060016040528060298152602001613a19602991396002919061203e565b6060600a80546106b1906134c1565b60006001600160a01b0382166112ab5760405162461bcd60e51b815260206004820152602a60248201527f4552433732313a2062616c616e636520717565727920666f7220746865207a65604482015269726f206164647265737360b01b606482015260840161079c565b6001600160a01b03821660009081526001602052604090206106559061204b565b6012546001600160a01b031633146112f65760405162461bcd60e51b815260040161079c906135f5565b6012546040516000916001600160a01b0316907f8be0079c531659141344cd1fd0a4f28419497f9722a3daafe3b4186f6b6457e0908390a3601280546001600160a01b0319169055565b6012546001600160a01b0316331461136a5760405162461bcd60e51b815260040161079c906135f5565b60166108d1828483613678565b6012546001600160a01b031633146113a15760405162461bcd60e51b815260040161079c906135f5565b60146108d1828483613678565b6060600880546106b1906134c1565b336001600160a01b038316036114155760405162461bcd60e51b815260206004820152601960248201527f4552433732313a20617070726f766520746f2063616c6c657200000000000000604482015260640161079c565b3360008181526006602090815260408083206001600160a01b03871680855290835292819020805460ff191686151590811790915590519081529192917f17307eab39ab6107e8899845ad3d59bd9653f200f220920489ca2b5937696c31910160405180910390a35050565b6002600b54036114a35760405162461bcd60e51b815260040161079c906134f5565b6002600b556114b181610734565b6001600160a01b0316336001600160a01b0316146115205760405162461bcd60e51b815260206004820152602660248201527f5a6f72614d656469613a2063616c6c6572206e6f7420617070726f766564206160448201526564647265737360d01b606482015260840161079c565b61152b600082611d4a565b506001600b55565b6002600b54036115555760405162461bcd60e51b815260040161079c906134f5565b6002600b55808061156560115490565b116115825760405162461bcd60e51b815260040161079c90613737565b600c5460405163776a083560e01b8152600481018490523360248201526001600160a01b039091169063776a083590604401600060405180830381600087803b1580156115ce57600080fd5b505af11580156115e2573d6000803e3d6000fd5b50506001600b5550505050565b6115f93383611dc3565b6116155760405162461bcd60e51b815260040161079c90613563565b61104684848484612055565b6002600b54036116435760405162461bcd60e51b815260040161079c906134f5565b6002600b5533826116548282611dc3565b6116705760405162461bcd60e51b815260040161079c906135b4565b600c5460405163ba33939960e01b81526001600160a01b039091169063ba339399906111cc908790879060040161385f565b606081806116af60115490565b116116cc5760405162461bcd60e51b815260040161079c90613737565b600061176a601480546116de906134c1565b80601f016020809104026020016040519081016040528092919081815260200182805461170a906134c1565b80156117575780601f1061172c57610100808354040283529160200191611757565b820191906000526020600020905b81548152906001019060200180831161173a57829003601f168201915b505050505061176586612088565b6121b3565b905060006015805461177b906134c1565b905011611788578061181c565b61181c8160158054611799906134c1565b80601f01602080910402602001604051908101604052809291908181526020018280546117c5906134c1565b80156118125780601f106117e757610100808354040283529160200191611812565b820191906000526020600020905b8154815290600101906020018083116117f557829003601f168201915b50505050506121b3565b9250505b50919050565b6002600b54036118485760405162461bcd60e51b815260040161079c906134f5565b6002600b556012546001600160a01b031633146118775760405162461bcd60e51b815260040161079c906135f5565b8281146118f65760405162461bcd60e51b815260206004820152604160248201527f5374616e64617264697a65645a6f72614e46543a20746f6b656e49647320616e60448201527f642062696464657273206d757374206265207468652073616d65206c656e67746064820152600d60fb1b608482015260a40161079c565b60005b83811015610f13576119228585838181106119165761191661347c565b90506020020135611d3d565b61198d5760405162461bcd60e51b815260206004820152603660248201527f5374616e64617264697a65645a6f72614e46543a20746f6b656e2077697468206044820152751d1a185d081a5908191bd95cc81b9bdd08195e1a5cdd60521b606482015260840161079c565b600c546001600160a01b031663776a08358686848181106119b0576119b061347c565b905060200201358585858181106119c9576119c961347c565b90506020020160208101906119de91906132a6565b6040516001600160e01b031960e085901b16815260048101929092526001600160a01b03166024820152604401600060405180830381600087803b158015611a2557600080fd5b505af1158015611a39573d6000803e3d6000fd5b505050508080611a48906134a8565b9150506118f9565b6060601680546106b1906134c1565b60135460405163c455279160e01b81526001600160a01b03848116600483015260009281169190841690829063c455279190602401602060405180830381865afa158015611ab1573d6000803e3d6000fd5b505050506040513d601f19601f82011682018060405250810190611ad59190613873565b6001600160a01b031603611aed576001915050610655565b6001600160a01b0380851660009081526006602090815260408083209387168352929052205460ff165b949350505050565b6012546001600160a01b03163314611b495760405162461bcd60e51b815260040161079c906135f5565b6001600160a01b038116611bae5760405162461bcd60e51b815260206004820152602660248201527f4f776e61626c653a206e6577206f776e657220697320746865207a65726f206160448201526564647265737360d01b606482015260840161079c565b6012546040516001600160a01b038084169216907f8be0079c531659141344cd1fd0a4f28419497f9722a3daafe3b4186f6b6457e090600090a3601280546001600160a01b0319166001600160a01b0392909216919091179055565b60005b8181101561069b57611c388585858585818110611c2c57611c2c61347c565b90506020020135610cb7565b80611c42816134a8565b915050611c0d565b600c546001600160a01b03163314611ca45760405162461bcd60e51b815260206004820152601f60248201527f5a6f72614d656469613a206f6e6c79206d61726b657420636f6e747261637400604482015260640161079c565b611cad82611209565b6000838152600d6020526040902080546001600160a01b0319166001600160a01b0392909216919091179055611cfc611ce583611209565b828460405180602001604052806000815250612055565b5050565b6012546001600160a01b03163314611d2a5760405162461bcd60e51b815260040161079c906135f5565b611cfc8261102f36849003840184613783565b60006106556002836121ef565b600081815260056020526040902080546001600160a01b0319166001600160a01b0384169081179091558190611d7f82611209565b6001600160a01b03167f8c5be1e5ebec7d5bd14f71427d1e84f3dd0314c0f7b2291e5b200ac8c7c3b92560405160405180910390a45050565b6000610655826121fb565b6000611dce82611d3d565b611e2f5760405162461bcd60e51b815260206004820152602c60248201527f4552433732313a206f70657261746f7220717565727920666f72206e6f6e657860448201526b34b9ba32b73a103a37b5b2b760a11b606482015260840161079c565b6000611e3a83611209565b9050806001600160a01b0316846001600160a01b03161480611e755750836001600160a01b0316611e6a84610734565b6001600160a01b0316145b80611b175750611b178185611a5f565b600c546040516328220f3560e01b8152600481018390526001600160a01b03909116906328220f3590602401600060405180830381600087803b158015611ecb57600080fd5b505af1158015611edf573d6000803e3d6000fd5b505050506108d1838383612206565b6000610db48383612387565b611f03816123b1565b6000908152600d6020526040902080546001600160a01b0319169055565b6000808080611f30868661246b565b909450925050505b9250929050565b6000611f4a60115490565b9050611f568382612496565b611f64601180546001019055565b6001600160a01b0383166000908152600f60205260409020611f8690826124b0565b506000818152600e6020908152604080832080546001600160a01b038881166001600160a01b03199283168117909355600d85529483902080549091169091179055600c5481516375aab41d60e11b815260048101869052865151602482015292860151516044840152908501515160648301529091169063eb55683a90608401600060405180830381600087803b15801561202157600080fd5b505af1158015612035573d6000803e3d6000fd5b50505050505050565b6000611b178484846124bc565b6000610655825490565b612060848484611e85565b61206c848484846124ff565b6110465760405162461bcd60e51b815260040161079c90613890565b6060816000036120af5750506040805180820190915260018152600360fc1b602082015290565b8160005b81156120d957806120c3816134a8565b91506120d29050600a836138e2565b91506120b3565b6000816001600160401b038111156120f3576120f3612f2b565b6040519080825280601f01601f19166020018201604052801561211d576020820181803683370190505b509050815b85156121aa57612133600182613904565b90506000612142600a886138e2565b61214d90600a613917565b6121579088613904565b61216290603061392e565b905060008160f81b90508084848151811061217f5761217f61347c565b60200101906001600160f81b031916908160001a9053506121a1600a896138e2565b97505050612122565b50949350505050565b6060610db483836040518060200160405280600081525060405180602001604052806000815250604051806020016040528060008152506125d0565b6000610db483836128b4565b60006106558261204b565b826001600160a01b031661221982611209565b6001600160a01b0316146122815760405162461bcd60e51b815260206004820152602960248201527f4552433732313a207472616e73666572206f6620746f6b656e2074686174206960448201526839903737ba1037bbb760b91b606482015260840161079c565b6001600160a01b0382166122e35760405162461bcd60e51b8152602060048201526024808201527f4552433732313a207472616e7366657220746f20746865207a65726f206164646044820152637265737360e01b606482015260840161079c565b6122ee600082611d4a565b6001600160a01b038316600090815260016020526040902061231090826128c0565b506001600160a01b038216600090815260016020526040902061233390826124b0565b50612340600282846128cc565b5080826001600160a01b0316846001600160a01b03167fddf252ad1be2c89b69c2b068fc378daa952ba7f163c4a11628f55a4df523b3ef60405160405180910390a4505050565b600082600001828154811061239e5761239e61347c565b9060005260206000200154905092915050565b60006123bc82611209565b90506123c9600083611d4a565b600082815260096020526040902080546123e2906134c1565b15905061240057600082815260096020526040812061240091612d3d565b6001600160a01b038116600090815260016020526040902061242290836128c0565b5061242e6002836128e2565b5060405182906000906001600160a01b038416907fddf252ad1be2c89b69c2b068fc378daa952ba7f163c4a11628f55a4df523b3ef908390a45050565b600080806124798585611eee565b600081815260029690960160205260409095205494959350505050565b611cfc8282604051806020016040528060008152506128ee565b6000610db48383612921565b6000828152600284016020526040812054801515806124e057506124e085856128b4565b83906121aa5760405162461bcd60e51b815260040161079c9190612ed3565b60006001600160a01b0384163b61251857506001611b17565b6000612599630a85bd0160e11b3388878760405160240161253c9493929190613947565b604051602081830303815290604052906001600160e01b0319166020820180516001600160e01b0383818316178352505050506040518060600160405280603281526020016139e7603291396001600160a01b0388169190612970565b90506000818060200190518101906125b19190613984565b6001600160e01b031916630a85bd0160e11b1492505050949350505050565b805182518451865188516060948a948a948a948a948a946000949093909290916125fa91906139a1565b61260491906139a1565b61260e91906139a1565b61261891906139a1565b6001600160401b0381111561262f5761262f612f2b565b6040519080825280601f01601f191660200182016040528015612659576020820181803683370190505b509050806000805b88518110156126d15788818151811061267c5761267c61347c565b01602001516001600160f81b0319168383612696816134a8565b9450815181106126a8576126a861347c565b60200101906001600160f81b031916908160001a905350806126c9816134a8565b915050612661565b5060005b8751811015612745578781815181106126f0576126f061347c565b01602001516001600160f81b031916838361270a816134a8565b94508151811061271c5761271c61347c565b60200101906001600160f81b031916908160001a9053508061273d816134a8565b9150506126d5565b5060005b86518110156127b9578681815181106127645761276461347c565b01602001516001600160f81b031916838361277e816134a8565b9450815181106127905761279061347c565b60200101906001600160f81b031916908160001a905350806127b1816134a8565b915050612749565b5060005b855181101561282d578581815181106127d8576127d861347c565b01602001516001600160f81b03191683836127f2816134a8565b9450815181106128045761280461347c565b60200101906001600160f81b031916908160001a90535080612825816134a8565b9150506127bd565b5060005b84518110156128a15784818151811061284c5761284c61347c565b01602001516001600160f81b0319168383612866816134a8565b9450815181106128785761287861347c565b60200101906001600160f81b031916908160001a90535080612899816134a8565b915050612831565b50909d9c50505050505050505050505050565b6000610db4838361297f565b6000610db48383612997565b6000611b1784846001600160a01b038516612a8a565b6000610db48383612aa7565b6128f88383612ac4565b61290560008484846124ff565b6108d15760405162461bcd60e51b815260040161079c90613890565b600081815260018301602052604081205461296857508154600181810184556000848152602080822090930184905584548482528286019093526040902091909155610655565b506000610655565b6060611b178484600085612bdc565b60008181526001830160205260408120541515610db4565b60008181526001830160205260408120548015612a805760006129bb600183613904565b85549091506000906129cf90600190613904565b9050818114612a345760008660000182815481106129ef576129ef61347c565b9060005260206000200154905080876000018481548110612a1257612a1261347c565b6000918252602080832090910192909255918252600188019052604090208390555b8554869080612a4557612a456139b4565b600190038181906000526020600020016000905590558560010160008681526020019081526020016000206000905560019350505050610655565b6000915050610655565b60008281526002840160205260408120829055611b1784846124b0565b60008181526002830160205260408120819055610db483836128c0565b6001600160a01b038216612b1a5760405162461bcd60e51b815260206004820181905260248201527f4552433732313a206d696e7420746f20746865207a65726f2061646472657373604482015260640161079c565b612b2381611d3d565b15612b705760405162461bcd60e51b815260206004820152601c60248201527f4552433732313a20746f6b656e20616c7265616479206d696e74656400000000604482015260640161079c565b6001600160a01b0382166000908152600160205260409020612b9290826124b0565b50612b9f600282846128cc565b5060405181906001600160a01b038416906000907fddf252ad1be2c89b69c2b068fc378daa952ba7f163c4a11628f55a4df523b3ef908290a45050565b606082471015612c3d5760405162461bcd60e51b815260206004820152602660248201527f416464726573733a20696e73756666696369656e742062616c616e636520666f6044820152651c8818d85b1b60d21b606482015260840161079c565b843b612c8b5760405162461bcd60e51b815260206004820152601d60248201527f416464726573733a2063616c6c20746f206e6f6e2d636f6e7472616374000000604482015260640161079c565b600080866001600160a01b03168587604051612ca791906139ca565b60006040518083038185875af1925050503d8060008114612ce4576040519150601f19603f3d011682016040523d82523d6000602084013e612ce9565b606091505b5091509150612cf9828286612d04565b979650505050505050565b60608315612d13575081610db4565b825115612d235782518084602001fd5b8160405162461bcd60e51b815260040161079c9190612ed3565b508054612d49906134c1565b6000825580601f10612d59575050565b601f016020900490600052602060002090810190612d779190612d7a565b50565b5b80821115612d8f5760008155600101612d7b565b5090565b6001600160e01b031981168114612d7757600080fd5b600060208284031215612dbb57600080fd5b8135610db481612d93565b6001600160a01b0381168114612d7757600080fd5b60008083601f840112612ded57600080fd5b5081356001600160401b03811115612e0457600080fd5b6020830191508360208260051b8501011115611f3857600080fd5b60008060008060608587031215612e3557600080fd5b8435612e4081612dc6565b93506020850135612e5081612dc6565b925060408501356001600160401b03811115612e6b57600080fd5b612e7787828801612ddb565b95989497509550505050565b60005b83811015612e9e578181015183820152602001612e86565b50506000910152565b60008151808452612ebf816020860160208601612e83565b601f01601f19169290920160200192915050565b602081526000610db46020830184612ea7565b600060208284031215612ef857600080fd5b5035919050565b60008060408385031215612f1257600080fd5b8235612f1d81612dc6565b946020939093013593505050565b634e487b7160e01b600052604160045260246000fd5b604051601f8201601f191681016001600160401b0381118282101715612f6957612f69612f2b565b604052919050565b600080600083850360c0811215612f8757600080fd5b8435612f9281612dc6565b9350602085013592506080603f1982011215612fad57600080fd5b50604051608081018181106001600160401b0382111715612fd057612fd0612f2b565b60409081528501358152606085013560ff81168114612fee57600080fd5b60208201526080850135604082015260a0909401356060850152509093909250565b60008060006060848603121561302557600080fd5b833561303081612dc6565b9250602084013561304081612dc6565b929592945050506040919091013590565b6000806020838503121561306457600080fd5b82356001600160401b038082111561307b57600080fd5b818501915085601f83011261308f57600080fd5b81358181111561309e57600080fd5b8660208285010111156130b057600080fd5b60209290920196919550909350505050565b600080604083850312156130d557600080fd5b8235915060208301356130e781612dc6565b809150509250929050565b60006060828403121561182057600080fd5b600080600060a0848603121561311957600080fd5b833561312481612dc6565b92506020840135915061313a85604086016130f2565b90509250925092565b60006020828403121561315557600080fd5b604051602081018181106001600160401b038211171561317757613177612f2b565b6040529135825250919050565b60008082840360c081121561319857600080fd5b8335925060a0601f19820112156131ae57600080fd5b5060405160a081018181106001600160401b03821117156131d1576131d1612f2b565b6040908152602085013582528401356131e981612dc6565b602082015260608401356131fc81612dc6565b6040820152608084013561320f81612dc6565b60608201526132218560a08601613143565b6080820152809150509250929050565b600080828403606081121561324557600080fd5b833592506040601f198201121561325b57600080fd5b50604051604081018181106001600160401b038211171561327e5761327e612f2b565b60409081526020850135825284013561329681612dc6565b6020820152919491935090915050565b6000602082840312156132b857600080fd5b8135610db481612dc6565b600080604083850312156132d657600080fd5b82356132e181612dc6565b9150602083013580151581146130e757600080fd5b6000806000806080858703121561330c57600080fd5b843561331781612dc6565b935060208581013561332881612dc6565b93506040860135925060608601356001600160401b038082111561334b57600080fd5b818801915088601f83011261335f57600080fd5b81358181111561337157613371612f2b565b613383601f8201601f19168501612f41565b9150808252898482850101111561339957600080fd5b808484018584013760008482840101525080935050505092959194509250565b600080600080604085870312156133cf57600080fd5b84356001600160401b03808211156133e657600080fd5b6133f288838901612ddb565b9096509450602087013591508082111561340b57600080fd5b50612e7787828801612ddb565b6000806040838503121561342b57600080fd5b823561343681612dc6565b915060208301356130e781612dc6565b6000806080838503121561345957600080fd5b823561346481612dc6565b915061347384602085016130f2565b90509250929050565b634e487b7160e01b600052603260045260246000fd5b634e487b7160e01b600052601160045260246000fd5b6000600182016134ba576134ba613492565b5060010190565b600181811c908216806134d557607f821691505b60208210810361182057634e487b7160e01b600052602260045260246000fd5b6020808252601f908201527f5265656e7472616e637947756172643a207265656e7472616e742063616c6c00604082015260600190565b6020808252601c908201527f5a6f72614d656469613a206e6f6e6578697374656e7420746f6b656e00000000604082015260600190565b60208082526031908201527f4552433732313a207472616e736665722063616c6c6572206973206e6f74206f6040820152701ddb995c881b9bdc88185c1c1c9bdd9959607a1b606082015260800190565b60208082526021908201527f5a6f72614d656469613a204f6e6c7920617070726f766564206f72206f776e656040820152603960f91b606082015260800190565b6020808252818101527f4f776e61626c653a2063616c6c6572206973206e6f7420746865206f776e6572604082015260600190565b601f8211156108d157600081815260208120601f850160051c810160208610156136515750805b601f850160051c820191505b818110156136705782815560010161365d565b505050505050565b6001600160401b0383111561368f5761368f612f2b565b6136a38361369d83546134c1565b8361362a565b6000601f8411600181146136d757600085156136bf5750838201355b600019600387901b1c1916600186901b17835561069b565b600083815260209020601f19861690835b8281101561370857868501358255602094850194600190920191016136e8565b50868210156137255760001960f88860031b161c19848701351681555b505060018560011b0183555050505050565b6020808252602c908201527f5a6f72614d656469613a20746f6b656e2077697468207468617420696420646f60408201526b195cc81b9bdd08195e1a5cdd60a21b606082015260800190565b60006060828403121561379557600080fd5b604051606081018181106001600160401b03821117156137b7576137b7612f2b565b6040526137c48484613143565b81526137d38460208501613143565b60208201526137e58460408501613143565b60408201529392505050565b805182526020808201516001600160a01b03908116918401919091526040808301518216908401526060808301519091169083015260809081015151910152565b83815260e0810161384660208301856137f1565b6001600160a01b039290921660c0919091015292915050565b82815260c08101610db460208301846137f1565b60006020828403121561388557600080fd5b8151610db481612dc6565b60208082526032908201527f4552433732313a207472616e7366657220746f206e6f6e20455243373231526560408201527131b2b4bb32b91034b6b83632b6b2b73a32b960711b606082015260800190565b6000826138ff57634e487b7160e01b600052601260045260246000fd5b500490565b8181038181111561065557610655613492565b808202811582820484141761065557610655613492565b60ff818116838216019081111561065557610655613492565b6001600160a01b038581168252841660208201526040810183905260806060820181905260009061397a90830184612ea7565b9695505050505050565b60006020828403121561399657600080fd5b8151610db481612d93565b8082018082111561065557610655613492565b634e487b7160e01b600052603160045260246000fd5b600082516139dc818460208701612e83565b919091019291505056fe4552433732313a207472616e7366657220746f206e6f6e20455243373231526563656976657220696d706c656d656e7465724552433732313a206f776e657220717565727920666f72206e6f6e6578697374656e7420746f6b656ea264697066735822122056a43eb1da2fbae08eb4070ce9ae8c3339c99a3625696931f4105b6d8ceb97bb64736f6c63430008110033",
  "linkReferences": {},
  "deployedLinkReferences": {}
}