{
  "_format": "hh-sol-artifact-1",
  "contractName": "Media",
  "sourceName": "contracts/backup/zora/Media.sol",
  "abi": [
    {
      "inputs": [
        {
          "internalType": "address",
          "name": "marketContractAddr",
          "type": "address"
        }
      ],
      "stateMutability": "nonpayable",
      "type": "constructor"
    },
    {
      "anonymous": false,
      "inputs": [
        {
          "indexed": true,
          "internalType": "address",
          "name": "owner",
          "type": "address"
        },
        {
          "indexed": true,
          "internalType": "address",
          "name": "approved",
          "type": "address"
        },
        {
          "indexed": true,
          "internalType": "uint256",
          "name": "tokenId",
          "type": "uint256"
        }
      ],
      "name": "Approval",
      "type": "event"
    },
    {
      "anonymous": false,
      "inputs": [
        {
          "indexed": true,
          "internalType": "address",
          "name": "owner",
          "type": "address"
        },
        {
          "indexed": true,
          "internalType": "address",
          "name": "operator",
          "type": "address"
        },
        {
          "indexed": false,
          "internalType": "bool",
          "name": "approved",
          "type": "bool"
        }
      ],
      "name": "ApprovalForAll",
      "type": "event"
    },
    {
      "anonymous": false,
      "inputs": [
        {
          "indexed": true,
          "internalType": "uint256",
          "name": "_tokenId",
          "type": "uint256"
        },
        {
          "indexed": false,
          "internalType": "address",
          "name": "owner",
          "type": "address"
        },
        {
          "indexed": false,
          "internalType": "string",
          "name": "_uri",
          "type": "string"
        }
      ],
      "name": "TokenMetadataURIUpdated",
      "type": "event"
    },
    {
      "anonymous": false,
      "inputs": [
        {
          "indexed": true,
          "internalType": "uint256",
          "name": "_tokenId",
          "type": "uint256"
        },
        {
          "indexed": false,
          "internalType": "address",
          "name": "owner",
          "type": "address"
        },
        {
          "indexed": false,
          "internalType": "string",
          "name": "_uri",
          "type": "string"
        }
      ],
      "name": "TokenURIUpdated",
      "type": "event"
    },
    {
      "anonymous": false,
      "inputs": [
        {
          "indexed": true,
          "internalType": "address",
          "name": "from",
          "type": "address"
        },
        {
          "indexed": true,
          "internalType": "address",
          "name": "to",
          "type": "address"
        },
        {
          "indexed": true,
          "internalType": "uint256",
          "name": "tokenId",
          "type": "uint256"
        }
      ],
      "name": "Transfer",
      "type": "event"
    },
    {
      "inputs": [],
      "name": "MINT_WITH_SIG_TYPEHASH",
      "outputs": [
        {
          "internalType": "bytes32",
          "name": "",
          "type": "bytes32"
        }
      ],
      "stateMutability": "view",
      "type": "function"
    },
    {
      "inputs": [],
      "name": "PERMIT_TYPEHASH",
      "outputs": [
        {
          "internalType": "bytes32",
          "name": "",
          "type": "bytes32"
        }
      ],
      "stateMutability": "view",
      "type": "function"
    },
    {
      "inputs": [
        {
          "internalType": "uint256",
          "name": "tokenId",
          "type": "uint256"
        },
        {
          "components": [
            {
              "internalType": "uint256",
              "name": "amount",
              "type": "uint256"
            },
            {
              "internalType": "address",
              "name": "currency",
              "type": "address"
            },
            {
              "internalType": "address",
              "name": "bidder",
              "type": "address"
            },
            {
              "internalType": "address",
              "name": "recipient",
              "type": "address"
            },
            {
              "components": [
                {
                  "internalType": "uint256",
                  "name": "value",
                  "type": "uint256"
                }
              ],
              "internalType": "struct Decimal.D256",
              "name": "sellOnShare",
              "type": "tuple"
            }
          ],
          "internalType": "struct IMarket.Bid",
          "name": "bid",
          "type": "tuple"
        }
      ],
      "name": "acceptBid",
      "outputs": [],
      "stateMutability": "nonpayable",
      "type": "function"
    },
    {
      "inputs": [
        {
          "internalType": "address",
          "name": "to",
          "type": "address"
        },
        {
          "internalType": "uint256",
          "name": "tokenId",
          "type": "uint256"
        }
      ],
      "name": "approve",
      "outputs": [],
      "stateMutability": "nonpayable",
      "type": "function"
    },
    {
      "inputs": [
        {
          "internalType": "uint256",
          "name": "tokenId",
          "type": "uint256"
        },
        {
          "internalType": "address",
          "name": "recipient",
          "type": "address"
        }
      ],
      "name": "auctionTransfer",
      "outputs": [],
      "stateMutability": "nonpayable",
      "type": "function"
    },
    {
      "inputs": [
        {
          "internalType": "address",
          "name": "owner",
          "type": "address"
        }
      ],
      "name": "balanceOf",
      "outputs": [
        {
          "internalType": "uint256",
          "name": "",
          "type": "uint256"
        }
      ],
      "stateMutability": "view",
      "type": "function"
    },
    {
      "inputs": [],
      "name": "baseURI",
      "outputs": [
        {
          "internalType": "string",
          "name": "",
          "type": "string"
        }
      ],
      "stateMutability": "view",
      "type": "function"
    },
    {
      "inputs": [
        {
          "internalType": "uint256",
          "name": "tokenId",
          "type": "uint256"
        }
      ],
      "name": "burn",
      "outputs": [],
      "stateMutability": "nonpayable",
      "type": "function"
    },
    {
      "inputs": [
        {
          "internalType": "uint256",
          "name": "tokenId",
          "type": "uint256"
        }
      ],
      "name": "getApproved",
      "outputs": [
        {
          "internalType": "address",
          "name": "",
          "type": "address"
        }
      ],
      "stateMutability": "view",
      "type": "function"
    },
    {
      "inputs": [
        {
          "internalType": "address",
          "name": "owner",
          "type": "address"
        },
        {
          "internalType": "address",
          "name": "operator",
          "type": "address"
        }
      ],
      "name": "isApprovedForAll",
      "outputs": [
        {
          "internalType": "bool",
          "name": "",
          "type": "bool"
        }
      ],
      "stateMutability": "view",
      "type": "function"
    },
    {
      "inputs": [],
      "name": "marketContract",
      "outputs": [
        {
          "internalType": "address",
          "name": "",
          "type": "address"
        }
      ],
      "stateMutability": "view",
      "type": "function"
    },
    {
      "inputs": [
        {
          "components": [
            {
              "internalType": "string",
              "name": "tokenURI",
              "type": "string"
            },
            {
              "internalType": "string",
              "name": "metadataURI",
              "type": "string"
            },
            {
              "internalType": "bytes32",
              "name": "contentHash",
              "type": "bytes32"
            },
            {
              "internalType": "bytes32",
              "name": "metadataHash",
              "type": "bytes32"
            }
          ],
          "internalType": "struct IMedia.MediaData",
          "name": "data",
          "type": "tuple"
        },
        {
          "components": [
            {
              "components": [
                {
                  "internalType": "uint256",
                  "name": "value",
                  "type": "uint256"
                }
              ],
              "internalType": "struct Decimal.D256",
              "name": "prevOwner",
              "type": "tuple"
            },
            {
              "components": [
                {
                  "internalType": "uint256",
                  "name": "value",
                  "type": "uint256"
                }
              ],
              "internalType": "struct Decimal.D256",
              "name": "creator",
              "type": "tuple"
            },
            {
              "components": [
                {
                  "internalType": "uint256",
                  "name": "value",
                  "type": "uint256"
                }
              ],
              "internalType": "struct Decimal.D256",
              "name": "owner",
              "type": "tuple"
            }
          ],
          "internalType": "struct IMarket.BidShares",
          "name": "bidShares",
          "type": "tuple"
        }
      ],
      "name": "mint",
      "outputs": [],
      "stateMutability": "nonpayable",
      "type": "function"
    },
    {
      "inputs": [
        {
          "internalType": "address",
          "name": "creator",
          "type": "address"
        },
        {
          "components": [
            {
              "internalType": "string",
              "name": "tokenURI",
              "type": "string"
            },
            {
              "internalType": "string",
              "name": "metadataURI",
              "type": "string"
            },
            {
              "internalType": "bytes32",
              "name": "contentHash",
              "type": "bytes32"
            },
            {
              "internalType": "bytes32",
              "name": "metadataHash",
              "type": "bytes32"
            }
          ],
          "internalType": "struct IMedia.MediaData",
          "name": "data",
          "type": "tuple"
        },
        {
          "components": [
            {
              "components": [
                {
                  "internalType": "uint256",
                  "name": "value",
                  "type": "uint256"
                }
              ],
              "internalType": "struct Decimal.D256",
              "name": "prevOwner",
              "type": "tuple"
            },
            {
              "components": [
                {
                  "internalType": "uint256",
                  "name": "value",
                  "type": "uint256"
                }
              ],
              "internalType": "struct Decimal.D256",
              "name": "creator",
              "type": "tuple"
            },
            {
              "components": [
                {
                  "internalType": "uint256",
                  "name": "value",
                  "type": "uint256"
                }
              ],
              "internalType": "struct Decimal.D256",
              "name": "owner",
              "type": "tuple"
            }
          ],
          "internalType": "struct IMarket.BidShares",
          "name": "bidShares",
          "type": "tuple"
        },
        {
          "components": [
            {
              "internalType": "uint256",
              "name": "deadline",
              "type": "uint256"
            },
            {
              "internalType": "uint8",
              "name": "v",
              "type": "uint8"
            },
            {
              "internalType": "bytes32",
              "name": "r",
              "type": "bytes32"
            },
            {
              "internalType": "bytes32",
              "name": "s",
              "type": "bytes32"
            }
          ],
          "internalType": "struct IMedia.EIP712Signature",
          "name": "sig",
          "type": "tuple"
        }
      ],
      "name": "mintWithSig",
      "outputs": [],
      "stateMutability": "nonpayable",
      "type": "function"
    },
    {
      "inputs": [
        {
          "internalType": "address",
          "name": "",
          "type": "address"
        }
      ],
      "name": "mintWithSigNonces",
      "outputs": [
        {
          "internalType": "uint256",
          "name": "",
          "type": "uint256"
        }
      ],
      "stateMutability": "view",
      "type": "function"
    },
    {
      "inputs": [],
      "name": "name",
      "outputs": [
        {
          "internalType": "string",
          "name": "",
          "type": "string"
        }
      ],
      "stateMutability": "view",
      "type": "function"
    },
    {
      "inputs": [
        {
          "internalType": "uint256",
          "name": "tokenId",
          "type": "uint256"
        }
      ],
      "name": "ownerOf",
      "outputs": [
        {
          "internalType": "address",
          "name": "",
          "type": "address"
        }
      ],
      "stateMutability": "view",
      "type": "function"
    },
    {
      "inputs": [
        {
          "internalType": "address",
          "name": "spender",
          "type": "address"
        },
        {
          "internalType": "uint256",
          "name": "tokenId",
          "type": "uint256"
        },
        {
          "components": [
            {
              "internalType": "uint256",
              "name": "deadline",
              "type": "uint256"
            },
            {
              "internalType": "uint8",
              "name": "v",
              "type": "uint8"
            },
            {
              "internalType": "bytes32",
              "name": "r",
              "type": "bytes32"
            },
            {
              "internalType": "bytes32",
              "name": "s",
              "type": "bytes32"
            }
          ],
          "internalType": "struct IMedia.EIP712Signature",
          "name": "sig",
          "type": "tuple"
        }
      ],
      "name": "permit",
      "outputs": [],
      "stateMutability": "nonpayable",
      "type": "function"
    },
    {
      "inputs": [
        {
          "internalType": "address",
          "name": "",
          "type": "address"
        },
        {
          "internalType": "uint256",
          "name": "",
          "type": "uint256"
        }
      ],
      "name": "permitNonces",
      "outputs": [
        {
          "internalType": "uint256",
          "name": "",
          "type": "uint256"
        }
      ],
      "stateMutability": "view",
      "type": "function"
    },
    {
      "inputs": [
        {
          "internalType": "uint256",
          "name": "",
          "type": "uint256"
        }
      ],
      "name": "previousTokenOwners",
      "outputs": [
        {
          "internalType": "address",
          "name": "",
          "type": "address"
        }
      ],
      "stateMutability": "view",
      "type": "function"
    },
    {
      "inputs": [
        {
          "internalType": "uint256",
          "name": "tokenId",
          "type": "uint256"
        }
      ],
      "name": "removeAsk",
      "outputs": [],
      "stateMutability": "nonpayable",
      "type": "function"
    },
    {
      "inputs": [
        {
          "internalType": "uint256",
          "name": "tokenId",
          "type": "uint256"
        }
      ],
      "name": "removeBid",
      "outputs": [],
      "stateMutability": "nonpayable",
      "type": "function"
    },
    {
      "inputs": [
        {
          "internalType": "uint256",
          "name": "tokenId",
          "type": "uint256"
        }
      ],
      "name": "revokeApproval",
      "outputs": [],
      "stateMutability": "nonpayable",
      "type": "function"
    },
    {
      "inputs": [
        {
          "internalType": "address",
          "name": "from",
          "type": "address"
        },
        {
          "internalType": "address",
          "name": "to",
          "type": "address"
        },
        {
          "internalType": "uint256",
          "name": "tokenId",
          "type": "uint256"
        }
      ],
      "name": "safeTransferFrom",
      "outputs": [],
      "stateMutability": "nonpayable",
      "type": "function"
    },
    {
      "inputs": [
        {
          "internalType": "address",
          "name": "from",
          "type": "address"
        },
        {
          "internalType": "address",
          "name": "to",
          "type": "address"
        },
        {
          "internalType": "uint256",
          "name": "tokenId",
          "type": "uint256"
        },
        {
          "internalType": "bytes",
          "name": "_data",
          "type": "bytes"
        }
      ],
      "name": "safeTransferFrom",
      "outputs": [],
      "stateMutability": "nonpayable",
      "type": "function"
    },
    {
      "inputs": [
        {
          "internalType": "address",
          "name": "operator",
          "type": "address"
        },
        {
          "internalType": "bool",
          "name": "approved",
          "type": "bool"
        }
      ],
      "name": "setApprovalForAll",
      "outputs": [],
      "stateMutability": "nonpayable",
      "type": "function"
    },
    {
      "inputs": [
        {
          "internalType": "uint256",
          "name": "tokenId",
          "type": "uint256"
        },
        {
          "components": [
            {
              "internalType": "uint256",
              "name": "amount",
              "type": "uint256"
            },
            {
              "internalType": "address",
              "name": "currency",
              "type": "address"
            }
          ],
          "internalType": "struct IMarket.Ask",
          "name": "ask",
          "type": "tuple"
        }
      ],
      "name": "setAsk",
      "outputs": [],
      "stateMutability": "nonpayable",
      "type": "function"
    },
    {
      "inputs": [
        {
          "internalType": "uint256",
          "name": "tokenId",
          "type": "uint256"
        },
        {
          "components": [
            {
              "internalType": "uint256",
              "name": "amount",
              "type": "uint256"
            },
            {
              "internalType": "address",
              "name": "currency",
              "type": "address"
            },
            {
              "internalType": "address",
              "name": "bidder",
              "type": "address"
            },
            {
              "internalType": "address",
              "name": "recipient",
              "type": "address"
            },
            {
              "components": [
                {
                  "internalType": "uint256",
                  "name": "value",
                  "type": "uint256"
                }
              ],
              "internalType": "struct Decimal.D256",
              "name": "sellOnShare",
              "type": "tuple"
            }
          ],
          "internalType": "struct IMarket.Bid",
          "name": "bid",
          "type": "tuple"
        }
      ],
      "name": "setBid",
      "outputs": [],
      "stateMutability": "nonpayable",
      "type": "function"
    },
    {
      "inputs": [
        {
          "internalType": "bytes4",
          "name": "interfaceId",
          "type": "bytes4"
        }
      ],
      "name": "supportsInterface",
      "outputs": [
        {
          "internalType": "bool",
          "name": "",
          "type": "bool"
        }
      ],
      "stateMutability": "view",
      "type": "function"
    },
    {
      "inputs": [],
      "name": "symbol",
      "outputs": [
        {
          "internalType": "string",
          "name": "",
          "type": "string"
        }
      ],
      "stateMutability": "view",
      "type": "function"
    },
    {
      "inputs": [
        {
          "internalType": "uint256",
          "name": "index",
          "type": "uint256"
        }
      ],
      "name": "tokenByIndex",
      "outputs": [
        {
          "internalType": "uint256",
          "name": "",
          "type": "uint256"
        }
      ],
      "stateMutability": "view",
      "type": "function"
    },
    {
      "inputs": [
        {
          "internalType": "uint256",
          "name": "",
          "type": "uint256"
        }
      ],
      "name": "tokenContentHashes",
      "outputs": [
        {
          "internalType": "bytes32",
          "name": "",
          "type": "bytes32"
        }
      ],
      "stateMutability": "view",
      "type": "function"
    },
    {
      "inputs": [
        {
          "internalType": "uint256",
          "name": "",
          "type": "uint256"
        }
      ],
      "name": "tokenCreators",
      "outputs": [
        {
          "internalType": "address",
          "name": "",
          "type": "address"
        }
      ],
      "stateMutability": "view",
      "type": "function"
    },
    {
      "inputs": [
        {
          "internalType": "uint256",
          "name": "",
          "type": "uint256"
        }
      ],
      "name": "tokenMetadataHashes",
      "outputs": [
        {
          "internalType": "bytes32",
          "name": "",
          "type": "bytes32"
        }
      ],
      "stateMutability": "view",
      "type": "function"
    },
    {
      "inputs": [
        {
          "internalType": "uint256",
          "name": "tokenId",
          "type": "uint256"
        }
      ],
      "name": "tokenMetadataURI",
      "outputs": [
        {
          "internalType": "string",
          "name": "",
          "type": "string"
        }
      ],
      "stateMutability": "view",
      "type": "function"
    },
    {
      "inputs": [
        {
          "internalType": "address",
          "name": "owner",
          "type": "address"
        },
        {
          "internalType": "uint256",
          "name": "index",
          "type": "uint256"
        }
      ],
      "name": "tokenOfOwnerByIndex",
      "outputs": [
        {
          "internalType": "uint256",
          "name": "",
          "type": "uint256"
        }
      ],
      "stateMutability": "view",
      "type": "function"
    },
    {
      "inputs": [
        {
          "internalType": "uint256",
          "name": "tokenId",
          "type": "uint256"
        }
      ],
      "name": "tokenURI",
      "outputs": [
        {
          "internalType": "string",
          "name": "",
          "type": "string"
        }
      ],
      "stateMutability": "view",
      "type": "function"
    },
    {
      "inputs": [],
      "name": "totalSupply",
      "outputs": [
        {
          "internalType": "uint256",
          "name": "",
          "type": "uint256"
        }
      ],
      "stateMutability": "view",
      "type": "function"
    },
    {
      "inputs": [
        {
          "internalType": "address",
          "name": "from",
          "type": "address"
        },
        {
          "internalType": "address",
          "name": "to",
          "type": "address"
        },
        {
          "internalType": "uint256",
          "name": "tokenId",
          "type": "uint256"
        }
      ],
      "name": "transferFrom",
      "outputs": [],
      "stateMutability": "nonpayable",
      "type": "function"
    },
    {
      "inputs": [
        {
          "internalType": "uint256",
          "name": "tokenId",
          "type": "uint256"
        },
        {
          "internalType": "string",
          "name": "metadataURI",
          "type": "string"
        }
      ],
      "name": "updateTokenMetadataURI",
      "outputs": [],
      "stateMutability": "nonpayable",
      "type": "function"
    },
    {
      "inputs": [
        {
          "internalType": "uint256",
          "name": "tokenId",
          "type": "uint256"
        },
        {
          "internalType": "string",
          "name": "tokenURI",
          "type": "string"
        }
      ],
      "name": "updateTokenURI",
      "outputs": [],
      "stateMutability": "nonpayable",
      "type": "function"
    }
  ],
  "bytecode": "0x60806040523480156200001157600080fd5b5060405162003c1938038062003c19833981016040819052620000349162000172565b604051806040016040528060048152602001635a6f726160e01b815250604051806040016040528060048152602001635a4f524160e01b81525081600790816200007f919062000249565b5060086200008e828262000249565b50620000a16380ac58cd60e01b620000ee565b620000b363780e9d6360e01b620000ee565b50506001600b55600c80546001600160a01b0319166001600160a01b038316179055620000e7632711173360e11b620000ee565b5062000315565b6001600160e01b031980821690036200014d5760405162461bcd60e51b815260206004820152601c60248201527f4552433136353a20696e76616c696420696e7465726661636520696400000000604482015260640160405180910390fd5b6001600160e01b0319166000908152602081905260409020805460ff19166001179055565b6000602082840312156200018557600080fd5b81516001600160a01b03811681146200019d57600080fd5b9392505050565b634e487b7160e01b600052604160045260246000fd5b600181811c90821680620001cf57607f821691505b602082108103620001f057634e487b7160e01b600052602260045260246000fd5b50919050565b601f8211156200024457600081815260208120601f850160051c810160208610156200021f5750805b601f850160051c820191505b8181101562000240578281556001016200022b565b5050505b505050565b81516001600160401b03811115620002655762000265620001a4565b6200027d81620002768454620001ba565b84620001f6565b602080601f831160018114620002b557600084156200029c5750858301515b600019600386901b1c1916600185901b17855562000240565b600085815260208120601f198616915b82811015620002e657888601518255948401946001909101908401620002c5565b5085821015620003055787850151600019600388901b60f8161c191681555b5050505050600190811b01905550565b6138f480620003256000396000f3fe608060405234801561001057600080fd5b50600436106102485760003560e01c80636352211e1161013b578063b320f459116100b8578063e0fd045f1161007c578063e0fd045f1461055c578063e985e9c514610585578063f6b630f0146105c1578063f8ccd5de146105d4578063fad32197146105ff57600080fd5b8063b320f459146104e9578063b88d4fde146104fc578063ba3393991461050f578063c87b56dd14610522578063de5236fb1461053557600080fd5b806395d89b41116100ff57806395d89b411461047f5780639d8e726014610487578063a1794bcd146104b0578063a22cb465146104c3578063b1e130fc146104d657600080fd5b80636352211e1461042b5780636c0360eb1461043e57806370a082311461044657806375682e79146104595780637a7a12021461046c57600080fd5b806323b872dd116101c957806342842e0e1161018d57806342842e0e146103cc57806342966c68146103df5780634f6ccce7146103f25780635bf624221461040557806362f24b701461041857600080fd5b806323b872dd1461035957806328220f351461036c5780632cca32371461037f5780632f745c591461039257806330adf81f146103a557600080fd5b80630bcd899b116102105780630bcd899b146102f85780630e2a177814610318578063157c3df91461032b57806318160ddd1461033e57806318e97fd11461034657600080fd5b806301ddc3b51461024d57806301ffc9a71461028057806306fdde03146102a3578063081812fc146102b8578063095ea7b3146102e3575b600080fd5b61026d61025b366004612c59565b60116020526000908152604090205481565b6040519081526020015b60405180910390f35b61029361028e366004612c88565b61061f565b6040519015158152602001610277565b6102ab61065f565b6040516102779190612cf5565b6102cb6102c6366004612c59565b6106f1565b6040516001600160a01b039091168152602001610277565b6102f66102f1366004612d24565b61077e565b005b61026d610306366004612d4e565b60156020526000908152604090205481565b6102f6610326366004612dfd565b610893565b6102ab610339366004612c59565b610b90565b61026d610c5a565b6102f6610354366004612e3a565b610c6b565b6102f6610367366004612eb6565b610e14565b6102f661037a366004612c59565b610e45565b6102f661038d3660046130bf565b610eef565b61026d6103a0366004612d24565b610f2a565b61026d7f49ecf333e5b8c95c40fdafc95c1ad136e8914a8fb55e9dc8bb01eaa83a2df9ad81565b6102f66103da366004612eb6565b610f53565b6102f66103ed366004612c59565b610f6e565b61026d610400366004612c59565b61107b565b6102f661041336600461310e565b611091565b6102f66104263660046131b8565b611181565b6102cb610439366004612c59565b61124e565b6102ab611276565b61026d610454366004612d4e565b611285565b6102f6610467366004612e3a565b611311565b6102f661047a36600461322e565b6114a1565b6102ab61170b565b6102cb610495366004612c59565b600d602052600090815260409020546001600160a01b031681565b600c546102cb906001600160a01b031681565b6102f66104d13660046132a0565b61171a565b6102f66104e4366004612c59565b6117de565b6102f66104f7366004612c59565b61188c565b6102f661050a3660046132dc565b611948565b6102f661051d36600461310e565b611980565b6102ab610530366004612c59565b611a01565b61026d7f2952e482b8e2b192305f87374d7af45dc2eafafe4f50d26a0c02e90f2fdbe14b81565b6102cb61056a366004612c59565b600e602052600090815260409020546001600160a01b031681565b610293610593366004613358565b6001600160a01b03918216600090815260066020908152604080832093909416825291909152205460ff1690565b6102f66105cf366004613382565b611acb565b61026d6105e2366004612d24565b601460209081526000928352604080842090915290825290205481565b61026d61060d366004612c59565b60106020526000908152604090205481565b60006301ffc9a760e01b6001600160e01b03198316148061065957506001600160e01b0319821660009081526020819052604090205460ff165b92915050565b60606007805461066e906133a5565b80601f016020809104026020016040519081016040528092919081815260200182805461069a906133a5565b80156106e75780601f106106bc576101008083540402835291602001916106e7565b820191906000526020600020905b8154815290600101906020018083116106ca57829003601f168201915b5050505050905090565b60006106fc82611b81565b6107625760405162461bcd60e51b815260206004820152602c60248201527f4552433732313a20617070726f76656420717565727920666f72206e6f6e657860448201526b34b9ba32b73a103a37b5b2b760a11b60648201526084015b60405180910390fd5b506000908152600560205260409020546001600160a01b031690565b60006107898261124e565b9050806001600160a01b0316836001600160a01b0316036107f65760405162461bcd60e51b815260206004820152602160248201527f4552433732313a20617070726f76616c20746f2063757272656e74206f776e656044820152603960f91b6064820152608401610759565b336001600160a01b038216148061081257506108128133610593565b6108845760405162461bcd60e51b815260206004820152603860248201527f4552433732313a20617070726f76652063616c6c6572206973206e6f74206f7760448201527f6e6572206e6f7220617070726f76656420666f7220616c6c00000000000000006064820152608401610759565b61088e8383611b8e565b505050565b6002600b54036108b55760405162461bcd60e51b8152600401610759906133d9565b6002600b55816108c481611b81565b6108e05760405162461bcd60e51b815260040161075990613410565b815115806108ef575081514211155b6109335760405162461bcd60e51b81526020600482015260156024820152741359591a584e8814195c9b5a5d08195e1c1a5c9959605a1b6044820152606401610759565b6001600160a01b0384166109895760405162461bcd60e51b815260206004820152601c60248201527f4d656469613a207370656e6465722063616e6e6f7420626520307830000000006044820152606401610759565b6000610993611bfc565b90506000817f49ecf333e5b8c95c40fdafc95c1ad136e8914a8fb55e9dc8bb01eaa83a2df9ad87876014856109c78361124e565b6001600160a01b03168152602080820192909252604090810160009081208c825290925281208054916109f98361345d565b9091555088516040805160208101969096526001600160a01b03909416938501939093526060840191909152608083015260a082015260c00160405160208183030381529060405280519060200120604051602001610a6f92919061190160f01b81526002810192909252602282015260420190565b604051602081830303815290604052805190602001209050600060018286602001518760400151886060015160405160008152602001604052604051610ad1949392919093845260ff9290921660208401526040830152606082015260800190565b6020604051602081039080840390855afa158015610af3573d6000803e3d6000fd5b5050604051601f1901519150506001600160a01b03811615801590610b315750806001600160a01b0316610b268761124e565b6001600160a01b0316145b610b785760405162461bcd60e51b81526020600482015260186024820152771359591a584e8814da59db985d1d5c99481a5b9d985b1a5960421b6044820152606401610759565b610b828787611b8e565b50506001600b555050505050565b60608180610b9d60165490565b11610bba5760405162461bcd60e51b815260040161075990613476565b60008381526012602052604090208054610bd3906133a5565b80601f0160208091040260200160405190810160405280929190818152602001828054610bff906133a5565b8015610c4c5780601f10610c2157610100808354040283529160200191610c4c565b820191906000526020600020905b815481529060010190602001808311610c2f57829003601f168201915b505050505091505b50919050565b6000610c666002611cc7565b905090565b6002600b5403610c8d5760405162461bcd60e51b8152600401610759906133d9565b6002600b553383610c9e8282611cd2565b610cba5760405162461bcd60e51b8152600401610759906134be565b600085815260106020526040812054869103610d335760405162461bcd60e51b815260206004820152603260248201527f4d656469613a20746f6b656e20646f6573206e6f7420686176652068617368206044820152711bd98818dc99585d19590818dbdb9d195b9d60721b6064820152608401610759565b84848080601f0160208091040260200160405190810160405280939291908181526020018383808284376000920182905250845190039250610d8a9150505760405162461bcd60e51b8152600401610759906134f5565b610dca8787878080601f016020809104026020016040519081016040528093929190818152602001838380828437600092019190915250611dbc92505050565b867f702fe2dc2dc0f68023540aa4a1e11811c0f29112f6ebf01e61b90538e4f29810338888604051610dfe9392919061353b565b60405180910390a250506001600b555050505050565b610e1e3382611cd2565b610e3a5760405162461bcd60e51b81526004016107599061357b565b61088e838383611e3e565b6002600b5403610e675760405162461bcd60e51b8152600401610759906133d9565b6002600b553381610e788282611cd2565b610e945760405162461bcd60e51b8152600401610759906134be565b600c546040516328220f3560e01b8152600481018590526001600160a01b03909116906328220f35906024015b600060405180830381600087803b158015610edb57600080fd5b505af1158015610b82573d6000803e3d6000fd5b6002600b5403610f115760405162461bcd60e51b8152600401610759906133d9565b6002600b55610f21338383611ea7565b50506001600b55565b6001600160a01b0382166000908152600160205260408120610f4c908361218c565b9392505050565b61088e83838360405180602001604052806000815250611948565b6002600b5403610f905760405162461bcd60e51b8152600401610759906133d9565b6002600b5580610f9f81611b81565b610fbb5760405162461bcd60e51b815260040161075990613410565b3382610fc78282611cd2565b610fe35760405162461bcd60e51b8152600401610759906134be565b6000610fee8561124e565b6000868152600e60205260409020549091506001600160a01b038083169116146110665760405162461bcd60e51b8152602060048201526024808201527f4d656469613a206f776e6572206973206e6f742063726561746f72206f66206d6044820152636564696160e01b6064820152608401610759565b61106f85612198565b50506001600b55505050565b60008061108960028461227a565b509392505050565b6002600b54036110b35760405162461bcd60e51b8152600401610759906133d9565b6002600b55816110c281611b81565b6110de5760405162461bcd60e51b815260040161075990613410565b81604001516001600160a01b0316336001600160a01b03161461114d5760405162461bcd60e51b815260206004820152602160248201527f4d61726b65743a20426964646572206d757374206265206d73672073656e64656044820152603960f91b6064820152608401610759565b600c546040516317b6b0d360e31b81526001600160a01b039091169063bdb5869890610ec19086908690339060040161360d565b6002600b54036111a35760405162461bcd60e51b8152600401610759906133d9565b6002600b5533826111b48282611cd2565b6111d05760405162461bcd60e51b8152600401610759906134be565b600c5460405163062f24b760e41b8152600481018690528451602482015260208501516001600160a01b039081166044830152909116906362f24b70906064015b600060405180830381600087803b15801561122b57600080fd5b505af115801561123f573d6000803e3d6000fd5b50506001600b55505050505050565b6000610659826040518060600160405280602981526020016138966029913960029190612296565b6060600a805461066e906133a5565b60006001600160a01b0382166112f05760405162461bcd60e51b815260206004820152602a60248201527f4552433732313a2062616c616e636520717565727920666f7220746865207a65604482015269726f206164647265737360b01b6064820152608401610759565b6001600160a01b0382166000908152600160205260409020610659906122a3565b6002600b54036113335760405162461bcd60e51b8152600401610759906133d9565b6002600b5533836113448282611cd2565b6113605760405162461bcd60e51b8152600401610759906134be565b6000858152601160205260408120548691036113d65760405162461bcd60e51b815260206004820152602f60248201527f4d656469613a20746f6b656e20646f6573206e6f74206861766520686173682060448201526e6f6620697473206d6574616461746160881b6064820152608401610759565b84848080601f016020809104026020016040519081016040528093929190818152602001838380828437600092018290525084519003925061142d9150505760405162461bcd60e51b8152600401610759906134f5565b61146d8787878080601f0160208091040260200160405190810160405280939291908181526020018383808284376000920191909152506122ad92505050565b867fe3df41127db820c79e5b8d541a63e40e3e97b9af96f7a50bded13091b70df9ae338888604051610dfe9392919061353b565b6002600b54036114c35760405162461bcd60e51b8152600401610759906133d9565b6002600b55805115806114d7575080514211155b6115235760405162461bcd60e51b815260206004820152601a60248201527f4d656469613a206d696e745769746853696720657870697265640000000000006044820152606401610759565b600061152d611bfc565b6040808601516060870151602080880151516001600160a01b038b16600090815260159092529381208054959650909486947f2952e482b8e2b192305f87374d7af45dc2eafafe4f50d26a0c02e90f2fdbe14b949392909190876115908361345d565b9091555088516040805160208101979097528601949094526060850192909252608084015260a083015260c082015260e001604051602081830303815290604052805190602001206040516020016115ff92919061190160f01b81526002810192909252602282015260420190565b604051602081830303815290604052805190602001209050600060018285602001518660400151876060015160405160008152602001604052604051611661949392919093845260ff9290921660208401526040830152606082015260800190565b6020604051602081039080840390855afa158015611683573d6000803e3d6000fd5b5050604051601f1901519150506001600160a01b038116158015906116b95750806001600160a01b0316876001600160a01b0316145b6117005760405162461bcd60e51b81526020600482015260186024820152771359591a584e8814da59db985d1d5c99481a5b9d985b1a5960421b6044820152606401610759565b610b82818787611ea7565b60606008805461066e906133a5565b336001600160a01b038316036117725760405162461bcd60e51b815260206004820152601960248201527f4552433732313a20617070726f766520746f2063616c6c6572000000000000006044820152606401610759565b3360008181526006602090815260408083206001600160a01b03871680855290835292819020805460ff191686151590811790915590519081529192917f17307eab39ab6107e8899845ad3d59bd9653f200f220920489ca2b5937696c31910160405180910390a35050565b6002600b54036118005760405162461bcd60e51b8152600401610759906133d9565b6002600b5561180e816106f1565b6001600160a01b0316336001600160a01b0316146118795760405162461bcd60e51b815260206004820152602260248201527f4d656469613a2063616c6c6572206e6f7420617070726f766564206164647265604482015261737360f01b6064820152608401610759565b611884600082611b8e565b506001600b55565b6002600b54036118ae5760405162461bcd60e51b8152600401610759906133d9565b6002600b5580806118be60165490565b116118db5760405162461bcd60e51b815260040161075990613476565b600c5460405163776a083560e01b8152600481018490523360248201526001600160a01b039091169063776a083590604401600060405180830381600087803b15801561192757600080fd5b505af115801561193b573d6000803e3d6000fd5b50506001600b5550505050565b6119523383611cd2565b61196e5760405162461bcd60e51b81526004016107599061357b565b61197a848484846122eb565b50505050565b6002600b54036119a25760405162461bcd60e51b8152600401610759906133d9565b6002600b5533826119b38282611cd2565b6119cf5760405162461bcd60e51b8152600401610759906134be565b600c5460405163ba33939960e01b81526001600160a01b039091169063ba33939990611211908790879060040161363a565b60608180611a0e60165490565b11611a2b5760405162461bcd60e51b815260040161075990613476565b60008381526009602052604081208054611a44906133a5565b80601f0160208091040260200160405190810160405280929190818152602001828054611a70906133a5565b8015611abd5780601f10611a9257610100808354040283529160200191611abd565b820191906000526020600020905b815481529060010190602001808311611aa057829003601f168201915b509398975050505050505050565b600c546001600160a01b03163314611b255760405162461bcd60e51b815260206004820152601b60248201527f4d656469613a206f6e6c79206d61726b657420636f6e747261637400000000006044820152606401610759565b611b2e8261124e565b6000838152600d6020526040902080546001600160a01b0319166001600160a01b0392909216919091179055611b7d611b668361124e565b8284604051806020016040528060008152506122eb565b5050565b600061065960028361231e565b600081815260056020526040902080546001600160a01b0319166001600160a01b0384169081179091558190611bc38261124e565b6001600160a01b03167f8c5be1e5ebec7d5bd14f71427d1e84f3dd0314c0f7b2291e5b200ac8c7c3b92560405160405180910390a45050565b60408051808201825260048152635a6f726160e01b6020918201528151808301835260018152603160f81b9082015281517f8b73c3c69bb8fe3d512ecc4cf759cc79239f7b179b0ffacaa9a75d522b39400f818301527f91beda2a71cae260ce24b7d0ba9253f7212b59cbe39b0f303ac34fac7c00047d818401527fc89efdaa54c0f20c7adf612882df0950f5a951637e0307cdcb4c672f298b8bc660608201524660808201523060a0808301919091528351808303909101815260c0909101909252815191012090565b60006106598261232a565b6000611cdd82611b81565b611d3e5760405162461bcd60e51b815260206004820152602c60248201527f4552433732313a206f70657261746f7220717565727920666f72206e6f6e657860448201526b34b9ba32b73a103a37b5b2b760a11b6064820152608401610759565b6000611d498361124e565b9050806001600160a01b0316846001600160a01b03161480611d845750836001600160a01b0316611d79846106f1565b6001600160a01b0316145b80611db457506001600160a01b0380821660009081526006602090815260408083209388168352929052205460ff165b949350505050565b611dc582611b81565b611e265760405162461bcd60e51b815260206004820152602c60248201527f4552433732314d657461646174613a2055524920736574206f66206e6f6e657860448201526b34b9ba32b73a103a37b5b2b760a11b6064820152608401610759565b600082815260096020526040902061088e828261369c565b600c546040516328220f3560e01b8152600481018390526001600160a01b03909116906328220f3590602401600060405180830381600087803b158015611e8457600080fd5b505af1158015611e98573d6000803e3d6000fd5b5050505061088e838383612335565b81518051600003611eca5760405162461bcd60e51b8152600401610759906134f5565b82602001518051600003611ef05760405162461bcd60e51b8152600401610759906134f5565b6040840151600003611f505760405162461bcd60e51b8152602060048201526024808201527f4d656469613a20636f6e74656e742068617368206d757374206265206e6f6e2d6044820152637a65726f60e01b6064820152608401610759565b60408085015160009081526013602052205460ff1615611fd85760405162461bcd60e51b815260206004820152603e60248201527f4d656469613a206120746f6b656e2068617320616c7265616479206265656e2060448201527f637265617465642077697468207468697320636f6e74656e74206861736800006064820152608401610759565b606084015160000361203a5760405162461bcd60e51b815260206004820152602560248201527f4d656469613a206d657461646174612068617368206d757374206265206e6f6e6044820152642d7a65726f60d81b6064820152608401610759565b600061204560165490565b905061205186826124b6565b61205f601680546001019055565b61206d8186604001516124d0565b61207b818660600151612509565b6120898186602001516122ad565b612097818660000151611dbc565b6001600160a01b0386166000908152600f602052604090206120b99082612542565b50604085810151600090815260136020908152828220805460ff19166001179055838252600e815282822080546001600160a01b038b81166001600160a01b03199283168117909355600d84529385902080549091169091179055600c5483516375aab41d60e11b8152600481018690528851516024820152918801515160448301529287015151606482015291169063eb55683a90608401600060405180830381600087803b15801561216c57600080fd5b505af1158015612180573d6000803e3d6000fd5b50505050505050505050565b6000610f4c838361254e565b600081815260096020526040812080546121b1906133a5565b80601f01602080910402602001604051908101604052809291908181526020018280546121dd906133a5565b801561222a5780601f106121ff5761010080835404028352916020019161222a565b820191906000526020600020905b81548152906001019060200180831161220d57829003601f168201915b5050505050905061223a82612578565b80511561225b576000828152600960205260409020612259828261369c565b505b506000908152600d6020526040902080546001600160a01b0319169055565b60008080806122898686612632565b9097909650945050505050565b6000611db484848461265d565b6000610659825490565b816122b781611b81565b6122d35760405162461bcd60e51b815260040161075990613410565b600083815260126020526040902061197a838261369c565b6122f6848484611e3e565b612302848484846126a9565b61197a5760405162461bcd60e51b81526004016107599061375c565b6000610f4c838361277a565b6000610659826122a3565b826001600160a01b03166123488261124e565b6001600160a01b0316146123b05760405162461bcd60e51b815260206004820152602960248201527f4552433732313a207472616e73666572206f6620746f6b656e2074686174206960448201526839903737ba1037bbb760b91b6064820152608401610759565b6001600160a01b0382166124125760405162461bcd60e51b8152602060048201526024808201527f4552433732313a207472616e7366657220746f20746865207a65726f206164646044820152637265737360e01b6064820152608401610759565b61241d600082611b8e565b6001600160a01b038316600090815260016020526040902061243f9082612786565b506001600160a01b03821660009081526001602052604090206124629082612542565b5061246f60028284612792565b5080826001600160a01b0316846001600160a01b03167fddf252ad1be2c89b69c2b068fc378daa952ba7f163c4a11628f55a4df523b3ef60405160405180910390a4505050565b611b7d8282604051806020016040528060008152506127a8565b816124da81611b81565b6124f65760405162461bcd60e51b815260040161075990613410565b5060009182526010602052604090912055565b8161251381611b81565b61252f5760405162461bcd60e51b815260040161075990613410565b5060009182526011602052604090912055565b6000610f4c83836127db565b6000826000018281548110612565576125656137ae565b9060005260206000200154905092915050565b60006125838261124e565b9050612590600083611b8e565b600082815260096020526040902080546125a9906133a5565b1590506125c75760008281526009602052604081206125c791612c03565b6001600160a01b03811660009081526001602052604090206125e99083612786565b506125f560028361282a565b5060405182906000906001600160a01b038416907fddf252ad1be2c89b69c2b068fc378daa952ba7f163c4a11628f55a4df523b3ef908390a45050565b60008080612640858561218c565b600081815260029690960160205260409095205494959350505050565b6000828152600284016020526040812054801515806126815750612681858561277a565b83906126a05760405162461bcd60e51b81526004016107599190612cf5565b50949350505050565b60006001600160a01b0384163b6126c257506001611db4565b6000612743630a85bd0160e11b338887876040516024016126e694939291906137c4565b604051602081830303815290604052906001600160e01b0319166020820180516001600160e01b038381831617835250505050604051806060016040528060328152602001613864603291396001600160a01b0388169190612836565b905060008180602001905181019061275b9190613801565b6001600160e01b031916630a85bd0160e11b1492505050949350505050565b6000610f4c8383612845565b6000610f4c838361285d565b6000611db484846001600160a01b038516612950565b6127b2838361296d565b6127bf60008484846126a9565b61088e5760405162461bcd60e51b81526004016107599061375c565b600081815260018301602052604081205461282257508154600181810184556000848152602080822090930184905584548482528286019093526040902091909155610659565b506000610659565b6000610f4c8383612a85565b6060611db48484600085612aa2565b60008181526001830160205260408120541515610f4c565b6000818152600183016020526040812054801561294657600061288160018361381e565b85549091506000906128959060019061381e565b90508181146128fa5760008660000182815481106128b5576128b56137ae565b90600052602060002001549050808760000184815481106128d8576128d86137ae565b6000918252602080832090910192909255918252600188019052604090208390555b855486908061290b5761290b613831565b600190038181906000526020600020016000905590558560010160008681526020019081526020016000206000905560019350505050610659565b6000915050610659565b60008281526002840160205260408120829055611db48484612542565b6001600160a01b0382166129c35760405162461bcd60e51b815260206004820181905260248201527f4552433732313a206d696e7420746f20746865207a65726f20616464726573736044820152606401610759565b6129cc81611b81565b15612a195760405162461bcd60e51b815260206004820152601c60248201527f4552433732313a20746f6b656e20616c7265616479206d696e746564000000006044820152606401610759565b6001600160a01b0382166000908152600160205260409020612a3b9082612542565b50612a4860028284612792565b5060405181906001600160a01b038416906000907fddf252ad1be2c89b69c2b068fc378daa952ba7f163c4a11628f55a4df523b3ef908290a45050565b60008181526002830160205260408120819055610f4c8383612786565b606082471015612b035760405162461bcd60e51b815260206004820152602660248201527f416464726573733a20696e73756666696369656e742062616c616e636520666f6044820152651c8818d85b1b60d21b6064820152608401610759565b843b612b515760405162461bcd60e51b815260206004820152601d60248201527f416464726573733a2063616c6c20746f206e6f6e2d636f6e74726163740000006044820152606401610759565b600080866001600160a01b03168587604051612b6d9190613847565b60006040518083038185875af1925050503d8060008114612baa576040519150601f19603f3d011682016040523d82523d6000602084013e612baf565b606091505b5091509150612bbf828286612bca565b979650505050505050565b60608315612bd9575081610f4c565b825115612be95782518084602001fd5b8160405162461bcd60e51b81526004016107599190612cf5565b508054612c0f906133a5565b6000825580601f10612c1f575050565b601f016020900490600052602060002090810190612c3d9190612c40565b50565b5b80821115612c555760008155600101612c41565b5090565b600060208284031215612c6b57600080fd5b5035919050565b6001600160e01b031981168114612c3d57600080fd5b600060208284031215612c9a57600080fd5b8135610f4c81612c72565b60005b83811015612cc0578181015183820152602001612ca8565b50506000910152565b60008151808452612ce1816020860160208601612ca5565b601f01601f19169290920160200192915050565b602081526000610f4c6020830184612cc9565b80356001600160a01b0381168114612d1f57600080fd5b919050565b60008060408385031215612d3757600080fd5b612d4083612d08565b946020939093013593505050565b600060208284031215612d6057600080fd5b610f4c82612d08565b634e487b7160e01b600052604160045260246000fd5b6040516080810167ffffffffffffffff81118282101715612da257612da2612d69565b60405290565b600060808284031215612dba57600080fd5b612dc2612d7f565b905081358152602082013560ff81168114612ddc57600080fd5b80602083015250604082013560408201526060820135606082015292915050565b600080600060c08486031215612e1257600080fd5b612e1b84612d08565b925060208401359150612e318560408601612da8565b90509250925092565b600080600060408486031215612e4f57600080fd5b83359250602084013567ffffffffffffffff80821115612e6e57600080fd5b818601915086601f830112612e8257600080fd5b813581811115612e9157600080fd5b876020828501011115612ea357600080fd5b6020830194508093505050509250925092565b600080600060608486031215612ecb57600080fd5b612ed484612d08565b9250612ee260208501612d08565b9150604084013590509250925092565b600067ffffffffffffffff80841115612f0d57612f0d612d69565b604051601f8501601f19908116603f01168101908282118183101715612f3557612f35612d69565b81604052809350858152868686011115612f4e57600080fd5b858560208301376000602087830101525050509392505050565b600082601f830112612f7957600080fd5b610f4c83833560208501612ef2565b600060808284031215612f9a57600080fd5b612fa2612d7f565b9050813567ffffffffffffffff80821115612fbc57600080fd5b612fc885838601612f68565b83526020840135915080821115612fde57600080fd5b50612feb84828501612f68565b602083015250604082013560408201526060820135606082015292915050565b60006020828403121561301d57600080fd5b6040516020810181811067ffffffffffffffff8211171561304057613040612d69565b6040529135825250919050565b60006060828403121561305f57600080fd5b6040516060810181811067ffffffffffffffff8211171561308257613082612d69565b604052905080613092848461300b565b81526130a1846020850161300b565b60208201526130b3846040850161300b565b60408201525092915050565b600080608083850312156130d257600080fd5b823567ffffffffffffffff8111156130e957600080fd5b6130f585828601612f88565b925050613105846020850161304d565b90509250929050565b60008082840360c081121561312257600080fd5b8335925060a0601f198201121561313857600080fd5b5060405160a0810181811067ffffffffffffffff8211171561315c5761315c612d69565b80604052506020840135815261317460408501612d08565b602082015261318560608501612d08565b604082015261319660808501612d08565b60608201526131a88560a0860161300b565b6080820152809150509250929050565b60008082840360608112156131cc57600080fd5b833592506040601f19820112156131e257600080fd5b506040516040810181811067ffffffffffffffff8211171561320657613206612d69565b80604052506020840135815261321e60408501612d08565b6020820152809150509250929050565b600080600080610120858703121561324557600080fd5b61324e85612d08565b9350602085013567ffffffffffffffff81111561326a57600080fd5b61327687828801612f88565b935050613286866040870161304d565b91506132958660a08701612da8565b905092959194509250565b600080604083850312156132b357600080fd5b6132bc83612d08565b9150602083013580151581146132d157600080fd5b809150509250929050565b600080600080608085870312156132f257600080fd5b6132fb85612d08565b935061330960208601612d08565b925060408501359150606085013567ffffffffffffffff81111561332c57600080fd5b8501601f8101871361333d57600080fd5b61334c87823560208401612ef2565b91505092959194509250565b6000806040838503121561336b57600080fd5b61337483612d08565b915061310560208401612d08565b6000806040838503121561339557600080fd5b8235915061310560208401612d08565b600181811c908216806133b957607f821691505b602082108103610c5457634e487b7160e01b600052602260045260246000fd5b6020808252601f908201527f5265656e7472616e637947756172643a207265656e7472616e742063616c6c00604082015260600190565b60208082526018908201527f4d656469613a206e6f6e6578697374656e7420746f6b656e0000000000000000604082015260600190565b634e487b7160e01b600052601160045260246000fd5b60006001820161346f5761346f613447565b5060010190565b60208082526028908201527f4d656469613a20746f6b656e2077697468207468617420696420646f6573206e6040820152671bdd08195e1a5cdd60c21b606082015260800190565b6020808252601d908201527f4d656469613a204f6e6c7920617070726f766564206f72206f776e6572000000604082015260600190565b60208082526026908201527f4d656469613a2073706563696669656420757269206d757374206265206e6f6e6040820152652d656d70747960d01b606082015260800190565b6001600160a01b03841681526040602082018190528101829052818360608301376000818301606090810191909152601f909201601f1916010192915050565b60208082526031908201527f4552433732313a207472616e736665722063616c6c6572206973206e6f74206f6040820152701ddb995c881b9bdc88185c1c1c9bdd9959607a1b606082015260800190565b805182526020808201516001600160a01b03908116918401919091526040808301518216908401526060808301519091169083015260809081015151910152565b83815260e0810161362160208301856135cc565b6001600160a01b039290921660c0919091015292915050565b82815260c08101610f4c60208301846135cc565b601f82111561088e57600081815260208120601f850160051c810160208610156136755750805b601f850160051c820191505b8181101561369457828155600101613681565b505050505050565b815167ffffffffffffffff8111156136b6576136b6612d69565b6136ca816136c484546133a5565b8461364e565b602080601f8311600181146136ff57600084156136e75750858301515b600019600386901b1c1916600185901b178555613694565b600085815260208120601f198616915b8281101561372e5788860151825594840194600190910190840161370f565b508582101561374c5787850151600019600388901b60f8161c191681555b5050505050600190811b01905550565b60208082526032908201527f4552433732313a207472616e7366657220746f206e6f6e20455243373231526560408201527131b2b4bb32b91034b6b83632b6b2b73a32b960711b606082015260800190565b634e487b7160e01b600052603260045260246000fd5b6001600160a01b03858116825284166020820152604081018390526080606082018190526000906137f790830184612cc9565b9695505050505050565b60006020828403121561381357600080fd5b8151610f4c81612c72565b8181038181111561065957610659613447565b634e487b7160e01b600052603160045260246000fd5b60008251613859818460208701612ca5565b919091019291505056fe4552433732313a207472616e7366657220746f206e6f6e20455243373231526563656976657220696d706c656d656e7465724552433732313a206f776e657220717565727920666f72206e6f6e6578697374656e7420746f6b656ea2646970667358221220e048fae1326d10793ab97683b233189ab94abb4668128da93ef3eab22938963064736f6c63430008110033",
  "linkReferences": {},
  "deployedLinkReferences": {}
}