{
	"data": {
		"bytecode": {
			"linkReferences": {},
			"object": "60806040523480156200001157600080fd5b5060405162006168380380620061688339810160408190526200003491620001ca565b6001600081815581546001600160a01b031916339081179092556040518291907f8be0079c531659141344cd1fd0a4f28419497f9722a3daafe3b4186f6b6457e0908290a3506001600160a01b038516620000d65760405162461bcd60e51b815260206004820152601860248201527f496e76616c696420506c6174666f726d2041646472657373000000000000000060448201526064015b60405180910390fd5b6127108461ffff16106200013b5760405162461bcd60e51b815260206004820152602560248201527f706c6174666f726d4665652073686f756c64206265206c657373207468616e20604482015264031303030360dc1b6064820152608401620000cd565b6007805461ffff909516600160a01b9081026001600160b01b03199096166001600160a01b039788161795909517905560098054600880549488166001600160a01b0319958616179055919095166001600160401b03909316909302166001600160e01b0319909216919091171790556200025b565b6001600160a01b0381168114620001c757600080fd5b50565b600080600080600060a08688031215620001e357600080fd5b8551620001f081620001b1565b602087015190955061ffff811681146200020957600080fd5b60408701519094506001600160401b03811681146200022757600080fd5b60608701519093506200023a81620001b1565b60808701519092506200024d81620001b1565b809150509295509295909350565b615efd806200026b6000396000f3fe6080604052600436106101ae5760003560e01c8063858a6dc8116100eb578063da20872a1161008f578063e0abca0b11610061578063e0abca0b1461066c578063e8ac841f1461068c578063f2fde38b146106ac578063fd114f08146106cc57005b8063da20872a146105de578063dbe55e56146105fe578063df354bdd1461061e578063dfa12f791461064c57005b8063acecf9de116100c8578063acecf9de14610549578063bf9afc1814610569578063cbc9a94114610589578063cdd78cfc146105a957005b8063858a6dc8146104b15780638da5cb5b146104f75780638f9f193f1461052957005b806349ef4dd9116101525780636d73e6691161012f5780636d73e66914610366578063705e3f6c14610386578063715018a6146103a657806377dec6c3146103bb57005b806349ef4dd9146102a35780634b9804b2146102e2578063676a7b771461030257005b80632977f78a1161018b5780632977f78a1461022c5780632d3456701461024c57806331ae450b1461026c5780633ccfd60b1461028e57005b806301ffc9a7146101b757806319e4367c146101ec57806324d7806c1461020c57005b366101b557005b005b3480156101c357600080fd5b506101d76101d236600461473c565b6106ec565b60405190151581526020015b60405180910390f35b3480156101f857600080fd5b506101b561020736600461478b565b610723565b34801561021857600080fd5b506101d76102273660046147c8565b6107d9565b34801561023857600080fd5b506101b56102473660046148c3565b610812565b34801561025857600080fd5b506101b56102673660046147c8565b6109aa565b34801561027857600080fd5b50610281610a2a565b6040516101e3919061493b565b34801561029a57600080fd5b506101b5610ad8565b3480156102af57600080fd5b506009546102ca90600160a01b90046001600160401b031681565b6040516001600160401b0390911681526020016101e3565b3480156102ee57600080fd5b506101b56102fd3660046147c8565b610bed565b34801561030e57600080fd5b5061032261031d366004614996565b610cc3565b6040805161ffff97881681526001600160a01b03968716602082015296909416938601939093529083166060850152821660808401521660a082015260c0016101e3565b34801561037257600080fd5b506101b56103813660046147c8565b610df8565b34801561039257600080fd5b506101b56103a13660046147c8565b610e72565b3480156103b257600080fd5b506101b5610f4a565b3480156103c757600080fd5b5061049d6103d63660046148c3565b8051808201602090810180516004825292820193820193909320919092528054600182015460028301546040805160c08101825260058601546001600160a01b039081168252600687015481169782019790975260078601548088169282019290925261ffff600160a01b9283900481166060830152600887015480891660808401528390041660a0820152600990950154958416956001600160401b0391909404811694928116939192919081169060ff600160401b8204811691600160481b90041688565b6040516101e3989796959493929190614a6c565b3480156104bd57600080fd5b506104e96104cc3660046148c3565b805160208183018101805160058252928201919093012091525481565b6040519081526020016101e3565b34801561050357600080fd5b506001546001600160a01b03165b6040516001600160a01b0390911681526020016101e3565b34801561053557600080fd5b506101b56105443660046147c8565b610fbe565b61055c610557366004614adf565b611080565b6040516101e39190614bef565b34801561057557600080fd5b506101b5610584366004614c02565b611594565b34801561059557600080fd5b506101b56105a4366004614c68565b6116cc565b3480156105b557600080fd5b506007546105cb90600160a01b900461ffff1681565b60405161ffff90911681526020016101e3565b3480156105ea57600080fd5b50600954610511906001600160a01b031681565b34801561060a57600080fd5b50600754610511906001600160a01b031681565b34801561062a57600080fd5b5061063e610639366004614996565b61179f565b6040516101e3929190614c85565b34801561065857600080fd5b506101b5610667366004614d06565b61188f565b34801561067857600080fd5b50600854610511906001600160a01b031681565b34801561069857600080fd5b506101b56106a7366004614c02565b611b13565b3480156106b857600080fd5b506101b56106c73660046147c8565b611c4b565b3480156106d857600080fd5b506101b56106e7366004614dbd565b611d36565b60006001600160e01b03198216632a9f3abf60e11b148061071d57506301ffc9a760e01b6001600160e01b03198316145b92915050565b336107366001546001600160a01b031690565b6001600160a01b031614806107515750610751600233612687565b6107765760405162461bcd60e51b815260040161076d90614e2e565b60405180910390fd5b6001600160401b038116158015906107a357506009546001600160401b03828116600160a01b9092041614155b6107ac57600080fd5b600980546001600160401b03909216600160a01b0267ffffffffffffffff60a01b19909216919091179055565b6000816001600160a01b03166107f76001546001600160a01b031690565b6001600160a01b0316148061071d575061071d600283612687565b336108256001546001600160a01b031690565b6001600160a01b031614806108405750610840600233612687565b61085c5760405162461bcd60e51b815260040161076d90614e2e565b60068160405161086c9190614e96565b9081526040519081900360200190205460ff1661089b5760405162461bcd60e51b815260040161076d90614eb2565b6004816040516108ab9190614e96565b90815260405190819003602001902080546001600160e01b031916815560018101805467ffffffffffffffff191690556000600282018190556108f1600383018261466f565b6108ff60048301600061466f565b506005810180546001600160a01b031990811690915560068201805490911690556007810180546001600160b01b03199081169091556008820180549091169055600901805469ffffffffffffffffffff191690556040517fb6992d42b041f638f739ef922a21d84585f8e61e8abcd7b93243c090f9ab957090600490610987908490614e96565b90815260405190819003602001812061099f91614f82565b60405180910390a150565b6001546001600160a01b031633146109d45760405162461bcd60e51b815260040161076d906150a7565b6109df600282612687565b15610a275760405133906001600160a01b038316907f7c0c3c84c67c85fcac635147348bfe374c24a1a93d0366d1cfe9d8853cbf89d590600090a3610a256002826126ac565b505b50565b6060610a3660026126c1565b6001600160401b03811115610a4d57610a4d6147e5565b604051908082528060200260200182016040528015610a76578160200160208202803683370190505b50905060005b610a8660026126c1565b811015610ad457610a986002826126cb565b828281518110610aaa57610aaa6150dc565b6001600160a01b039092166020928302919091019091015280610acc81615108565b915050610a7c565b5090565b33610aeb6001546001600160a01b031690565b6001600160a01b03161480610b065750610b06600233612687565b610b225760405162461bcd60e51b815260040161076d90614e2e565b604080516000808252602082019283905291339182914791610b4391614e96565b60006040518083038185875af1925050503d8060008114610b80576040519150601f19603f3d011682016040523d82523d6000602084013e610b85565b606091505b50508092505081610a255760405162461bcd60e51b815260206004820152602c60248201527f776974686472617720746f2077697468647261772066756e64732e20506c656160448201526b39b2903a393c9030b3b0b4b760a11b606482015260840161076d565b33610c006001546001600160a01b031690565b6001600160a01b03161480610c1b5750610c1b600233612687565b610c375760405162461bcd60e51b815260040161076d90614e2e565b6001600160a01b038116610ca15760405162461bcd60e51b815260206004820152602b60248201527f726f79616c747920636f6e74726163742073686f756c64206e6f74206265206160448201526a646472657373207a65726f60a81b606482015260840161076d565b600980546001600160a01b0319166001600160a01b0392909216919091179055565b60008060008060008060048888604051610cde929190615121565b9081526040519081900360200181206007015461ffff600160a01b909104169650600490610d0f908a908a90615121565b908152604051908190036020018120600701546001600160a01b03169550600490610d3d908a908a90615121565b9081526040519081900360200181206008015461ffff600160a01b909104169450600490610d6e908a908a90615121565b908152604051908190036020018120600801546001600160a01b03169350600490610d9c908a908a90615121565b908152604051908190036020018120600501546001600160a01b03169250600490610dca908a908a90615121565b908152604051908190036020019020600601549598949750929550909390926001600160a01b039091169150565b6001546001600160a01b03163314610e225760405162461bcd60e51b815260040161076d906150a7565b610e2d600282612687565b610a275760405133906001600160a01b038316907f7e1a1a08d52e4ba0e21554733d66165fd5151f99460116223d9e3a608eec5cb190600090a3610a256002826126d7565b33610e856001546001600160a01b031690565b6001600160a01b03161480610ea05750610ea0600233612687565b610ebc5760405162461bcd60e51b815260040161076d90614e2e565b6001600160a01b038116610f285760405162461bcd60e51b815260206004820152602d60248201527f70726963656665656420636f6e74726163742073686f756c64206e6f7420626560448201526c2061646472657373207a65726f60981b606482015260840161076d565b600880546001600160a01b0319166001600160a01b0392909216919091179055565b6001546001600160a01b03163314610f745760405162461bcd60e51b815260040161076d906150a7565b6001546040516000916001600160a01b0316907f8be0079c531659141344cd1fd0a4f28419497f9722a3daafe3b4186f6b6457e0908390a3600180546001600160a01b0319169055565b33610fd16001546001600160a01b031690565b6001600160a01b03161480610fec5750610fec600233612687565b6110085760405162461bcd60e51b815260040161076d90614e2e565b6001600160a01b03811661105e5760405162461bcd60e51b815260206004820152601860248201527f496e76616c696420506c6174666f726d20416464726573730000000000000000604482015260640161076d565b600780546001600160a01b0319166001600160a01b0392909216919091179055565b60606002600054036110d45760405162461bcd60e51b815260206004820152601f60248201527f5265656e7472616e637947756172643a207265656e7472616e742063616c6c00604482015260640161076d565b6002600090815583516040516004916110ec91614e96565b90815260408051918290036020908101832060c08401835260058101546001600160a01b039081168552600682015481169285019290925260078101548083168585015261ffff600160a01b918290048116606087015260089092015492831660808601529091041660a08301528551905191925060009160049161117091614e96565b9081526040805191829003602090810183206101408401835280546001600160a01b03811685526001600160401b03600160a01b90910481168584015260018201541684840152600281015460608501526003810180548451818502810185019095528085529193608086019390929083018282801561120f57602002820191906000526020600020905b8154815260200190600101908083116111fb575b505050505081526020016004820180548060200260200160405190810160405280929190818152602001828054801561127157602002820191906000526020600020905b81546001600160a01b03168152600190910190602001808311611253575b50505091835250506040805160c08101825260058401546001600160a01b0390811682526006850154811660208381019190915260078601548083168486015261ffff600160a01b918290048116606080870191909152600889015494851660808701529190930490921660a084015284019190915260098401546001600160401b038116928401929092529091019060ff600160401b90910416600181111561131d5761131d614a2b565b600181111561132e5761132e614a2b565b81526020016009820160099054906101000a900460ff16600181111561135657611356614a2b565b600181111561136757611367614a2b565b905250855160405191925060069161137f9190614e96565b9081526040519081900360200190205460ff166113ae5760405162461bcd60e51b815260040161076d90615131565b6113b7336107d9565b806113ce575060808501516001600160a01b031633145b6114515760405162461bcd60e51b815260206004820152604860248201527f4f6e6c7920746865206275796572206f722061646d696e206f72206f776e657260448201527f206f66207468697320636f6e74726163742063616e2063616c6c207468697320606482015267333ab731ba34b7b760c11b608482015260a40161076d565b60008061149c8760000151886040015189606001516001600160401b03168a60a001516001600160401b03168b60c001518b8d60e00151611492919061515b565b8d608001516126ec565b915091506114df87600001518860200151838a608001518b604001518c606001516001600160401b03168d60a001516001600160401b03168a6101000151613166565b945085156114fb576114fb3385602001518960c0015189613bc6565b61152b8760000151838960e00151611513919061516e565b848a60c001518b604001518a878a6101000151613cca565b806001600160a01b03167f92347fd034deb76ed77249b761aec05c6302665f18922499f245dde63bcb0d1f8887878a87888e60e0015161156b919061516e565b60405161157d969594939291906151ad565b60405180910390a250505050600160005592915050565b336115a76001546001600160a01b031690565b6001600160a01b031614806115c257506115c2600233612687565b6115de5760405162461bcd60e51b815260040161076d90614e2e565b600683836040516115f0929190615121565b9081526040519081900360200190205460ff1661161f5760405162461bcd60e51b815260040161076d90615131565b6001600160a01b03811615801590611666575060048383604051611644929190615121565b908152604051908190036020019020600601546001600160a01b038281169116145b6116825760405162461bcd60e51b815260040161076d90615294565b8060048484604051611695929190615121565b90815260405190819003602001902060060180546001600160a01b03929092166001600160a01b0319909216919091179055505050565b336116df6001546001600160a01b031690565b6001600160a01b031614806116fa57506116fa600233612687565b6117165760405162461bcd60e51b815260040161076d90614e2e565b6127108161ffff161061177d5760405162461bcd60e51b815260206004820152602960248201527f706c6174666f726d4665652073686f756c64206e6f74206265206d6f72652074604482015268068616e2031303030360bc1b606482015260840161076d565b6007805461ffff909216600160a01b0261ffff60a01b19909216919091179055565b606080600484846040516117b4929190615121565b908152604080519182900360209081018320600301805480830285018301909352828452919083018282801561180957602002820191906000526020600020905b8154815260200190600101908083116117f5575b5050505050915060048484604051611822929190615121565b908152604080519182900360209081018320600401805480830285018301909352828452919083018282801561188157602002820191906000526020600020905b81546001600160a01b03168152600190910190602001808311611863575b505050505090509250929050565b336118a26001546001600160a01b031690565b6001600160a01b031614806118bd57506118bd600233612687565b6118d95760405162461bcd60e51b815260040161076d90614e2e565b600688886040516118eb929190615121565b9081526040519081900360200190205460ff1661191a5760405162461bcd60e51b815260040161076d90615131565b856004898960405161192d929190615121565b908152604051908190036020019020600901805469ff0000000000000000001916600160481b83600181111561196557611965614a2b565b0217905550600186600181111561197e5761197e614a2b565b03611a815784156119a15760405162461bcd60e51b815260040161076d906152f1565b8083146119c05760405162461bcd60e51b815260040161076d9061534e565b60005b81811015611a7b5760008585838181106119df576119df6150dc565b9050602002013511611a035760405162461bcd60e51b815260040161076d906153ab565b848460048b8b604051611a17929190615121565b90815260200160405180910390206003019190611a3592919061468d565b50828260048b8b604051611a4a929190615121565b90815260200160405180910390206004019190611a689291906146d4565b5080611a7381615108565b9150506119c3565b50611b09565b6000866001811115611a9557611a95614a2b565b03611b095780158015611aa6575082155b611ac25760405162461bcd60e51b815260040161076d906153fe565b60008511611ae25760405162461bcd60e51b815260040161076d9061545b565b8460048989604051611af5929190615121565b908152604051908190036020019020600201555b5050505050505050565b33611b266001546001600160a01b031690565b6001600160a01b03161480611b415750611b41600233612687565b611b5d5760405162461bcd60e51b815260040161076d90614e2e565b60068383604051611b6f929190615121565b9081526040519081900360200190205460ff16611b9e5760405162461bcd60e51b815260040161076d90615131565b6001600160a01b03811615801590611be5575060048383604051611bc3929190615121565b908152604051908190036020019020600501546001600160a01b038281169116145b611c015760405162461bcd60e51b815260040161076d90615294565b8060048484604051611c14929190615121565b90815260405190819003602001902060050180546001600160a01b03929092166001600160a01b0319909216919091179055505050565b6001546001600160a01b03163314611c755760405162461bcd60e51b815260040161076d906150a7565b6001600160a01b038116611cda5760405162461bcd60e51b815260206004820152602660248201527f4f776e61626c653a206e6577206f776e657220697320746865207a65726f206160448201526564647265737360d01b606482015260840161076d565b6001546040516001600160a01b038084169216907f8be0079c531659141344cd1fd0a4f28419497f9722a3daafe3b4186f6b6457e090600090a3600180546001600160a01b0319166001600160a01b0392909216919091179055565b33611d496001546001600160a01b031690565b6001600160a01b03161480611d645750611d64600233612687565b611d805760405162461bcd60e51b815260040161076d90614e2e565b600260005403611dd25760405162461bcd60e51b815260206004820152601f60248201527f5265656e7472616e637947756172643a207265656e7472616e742063616c6c00604482015260640161076d565b60026000908155611deb61014085016101208601614c68565b61ffff1615611e3357611e0661018085016101608601614c68565b611e1861014086016101208701614c68565b611e2291906154ac565b611e2c90826154ac565b9050611e6a565b611e4561018085016101608601614c68565b600754611e5d9190600160a01b900461ffff166154ac565b611e6790826154ac565b90505b6127108161ffff1610611edb5760405162461bcd60e51b815260206004820152603360248201527f54686520746f74616c2066656520626173697320706f696e742073686f756c646044820152720206265206c657373207468616e20313030303606c1b606482015260840161076d565b6000611eed604086016020870161478b565b6001600160401b0316118015611f1b57506000611f10606086016040870161478b565b6001600160401b0316115b15611fec57611f30604085016020860161478b565b6001600160401b0316611f49606086016040870161478b565b6001600160401b03161015611fec5760405162461bcd60e51b815260206004820152605f60248201527f54686973206973206e6f7420612076616c6964204e4654207374617274206f7260448201527f20656e6420746f6b656e2049442e20506c65617365207665726966792074686160648201527f74207468652072616e67652070726f766964656420697320636f727265637400608482015260a40161076d565b60016120006101e086016101c087016154c7565b600181111561201157612011614a2b565b036120e7576060840135156120385760405162461bcd60e51b815260040161076d906152f1565b61204560808501856154e4565b905061205460a08601866154e4565b9050146120735760405162461bcd60e51b815260040161076d9061534e565b60005b61208360a08601866154e4565b90508110156120e157600061209b60808701876154e4565b838181106120ab576120ab6150dc565b90506020020135116120cf5760405162461bcd60e51b815260040161076d906153ab565b806120d981615108565b915050612076565b5061214f565b6120f460a08501856154e4565b159050801561210f575061210b60808501856154e4565b1590505b61212b5760405162461bcd60e51b815260040161076d906153fe565b600084606001351161214f5760405162461bcd60e51b815260040161076d9061545b565b60006121636101c086016101a087016154c7565b600181111561217457612174614a2b565b036122a05761218b6101a08501610180860161478b565b6001600160401b03166000036121ed5760405162461bcd60e51b815260206004820152602160248201527f73686f756c642070726f76696465206d617843617020666f72206d696e74696e6044820152606760f81b606482015260840161076d565b6121fd604085016020860161478b565b6001600160401b0316158015612229575061221e606085016040860161478b565b6001600160401b0316155b61229b5760405162461bcd60e51b815260206004820152603d60248201527f546865204e46547374617274746f6b656e696420616e64204e4654656e64746f60448201527f6b656e69642073686f756c64206265203020666f72206d696e74696e67000000606482015260840161076d565b612318565b6122b26101a08501610180860161478b565b6001600160401b0316156123185760405162461bcd60e51b815260206004820152602760248201527f6d61784361702073686f756c64206265203020666f72207072656d696e74656460448201526620746f6b656e7360c81b606482015260840161076d565b61232560208501856147c8565b6040516301ffc9a760e01b81526001600160a01b0391909116906301ffc9a79061235a906380ac58cd60e01b9060040161552d565b602060405180830381865afa158015612377573d6000803e3d6000fd5b505050506040513d601f19601f8201168201806040525081019061239b9190615542565b8061242457506123ae60208501856147c8565b6040516301ffc9a760e01b81526001600160a01b0391909116906301ffc9a7906123e390636cdb3d1360e11b9060040161552d565b602060405180830381865afa158015612400573d6000803e3d6000fd5b505050506040513d601f19601f820116820180604052508101906124249190615542565b6124965760405162461bcd60e51b815260206004820152603e60248201527f73686f756c642070726f76696465206f6e6c7920737570706f7274656420636f60448201527f6e747261637420696e746572666163657320455243203732312f313135350000606482015260840161076d565b60006124a860e0860160c087016147c8565b6001600160a01b0316036125195760405162461bcd60e51b815260206004820152603260248201527f73686f756c642070726f766964652076616c69642077616c6c65742061646472604482015271195cdcc8199bdc881cd95d1d1b195b595b9d60721b606482015260840161076d565b600061252c610100860160e087016147c8565b6001600160a01b0316036125a15760405162461bcd60e51b815260206004820152603660248201527f73686f756c642070726f766964652076616c69642077616c6c65742061646472604482015275195cdcc8199bdc881d185e081cd95d1d1b195b595b9d60521b606482015260840161076d565b600683836040516125b3929190615121565b9081526040519081900360200190205460ff16156125e35760405162461bcd60e51b815260040161076d90614eb2565b83600484846040516125f6929190615121565b90815260405190819003602001902061260f82826157d9565b905050600160068484604051612626929190615121565b908152604051908190036020018120805492151560ff19909316929092179091557f5e497450a6bb5270282292fab91de64cb64f3e379288c411a7eab0f283afbbf590612674908690615a55565b60405180910390a1505060016000555050565b6001600160a01b038116600090815260018301602052604081205415155b9392505050565b60006126a5836001600160a01b038416613ed3565b600061071d825490565b60006126a58383613fcd565b60006126a5836001600160a01b038416613ff7565b600080600060048a6040516127019190614e96565b9081526040805191829003602090810183206101408401835280546001600160a01b03811685526001600160401b03600160a01b9091048116858401526001820154168484015260028101546060850152600381018054845181850281018501909552808552919360808601939092908301828280156127a057602002820191906000526020600020905b81548152602001906001019080831161278c575b505050505081526020016004820180548060200260200160405190810160405280929190818152602001828054801561280257602002820191906000526020600020905b81546001600160a01b031681526001909101906020018083116127e4575b50505091835250506040805160c08101825260058401546001600160a01b0390811682526006850154811660208381019190915260078601548083168486015261ffff600160a01b918290048116606080870191909152600889015494851660808701529190930490921660a084015284019190915260098401546001600160401b038116928401929092529091019060ff600160401b9091041660018111156128ae576128ae614a2b565b60018111156128bf576128bf614a2b565b81526020016009820160099054906101000a900460ff1660018111156128e7576128e7614a2b565b60018111156128f8576128f8614a2b565b90525060208101519091506001600160401b03161580156129265750600081604001516001600160401b0316115b1561295d5780604001516001600160401b03168911156129585760405162461bcd60e51b815260040161076d90615b81565b612a2c565b600081602001516001600160401b0316118015612985575060408101516001600160401b0316155b156129b75780602001516001600160401b03168910156129585760405162461bcd60e51b815260040161076d90615b81565b600081602001516001600160401b03161180156129e15750600081604001516001600160401b0316115b15612a2c5780602001516001600160401b03168910158015612a10575080604001516001600160401b03168911155b612a2c5760405162461bcd60e51b815260040161076d90615b81565b8051915060008161012001516001811115612a4957612a49614a2b565b03612ad0576008546060820151604051630748060b60e31b815260048101919091526001600160a01b03888116602483015290911690633a40305890604401602060405180830381865afa158015612aa5573d6000803e3d6000fd5b505050506040513d601f19601f82011682018060405250810190612ac99190615bf6565b9250612b6d565b60018161012001516001811115612ae957612ae9614a2b565b03612b6d5760005b8160a0015151811015612b6b57866001600160a01b03168260a001518281518110612b1e57612b1e6150dc565b60200260200101516001600160a01b031603612b595781608001518181518110612b4a57612b4a6150dc565b60200260200101519350612b6b565b80612b6381615108565b915050612af1565b505b82600003612bd65760405162461bcd60e51b815260206004820152603060248201527f506c656173652070726f766964652076616c696420737570706f72746564204560448201526f524332302f455448206164647265737360801b606482015260840161076d565b60008161010001516001811115612bef57612bef614a2b565b03612e4957600954600160a01b90046001600160401b0316871115612cb25760405162461bcd60e51b815260206004820152606760248201527f546865206d6178696d756d207175616e7469747920616c6c6f77656420746f2060448201527f7075726368617365206174206f6e652074696d652073686f756c64206e6f742060648201527f6265206d6f7265207468616e20646566696e656420696e206d6178313135355160848201526675616e7469747960c81b60a482015260c40161076d565b6040516301ffc9a760e01b81526001600160a01b038316906301ffc9a790612ce5906380ac58cd60e01b9060040161552d565b602060405180830381865afa158015612d02573d6000803e3d6000fd5b505050506040513d601f19601f82011682018060405250810190612d269190615542565b15612d3c57612d35888461559e565b9250612e74565b6040516301ffc9a760e01b81526001600160a01b038316906301ffc9a790612d6f90636cdb3d1360e11b9060040161552d565b602060405180830381865afa158015612d8c573d6000803e3d6000fd5b505050506040513d601f19601f82011682018060405250810190612db09190615542565b15612e445760405163bd85b03960e01b8152600481018a90526001600160a01b0383169063bd85b03990602401602060405180830381865afa158015612dfa573d6000803e3d6000fd5b505050506040513d601f19601f82011682018060405250810190612e1e9190615bf6565b600003612e3a5786612e30898561559e565b612d35919061559e565b612d35878461559e565b612e74565b60018161010001516001811115612e6257612e62614a2b565b03612e7457612e71878461559e565b92505b6001600160a01b038616612f39578434148015612e915750828510155b612f345760405162461bcd60e51b815260206004820152606260248201527f496e73756666696369656e742066756e6473206f7220696e76616c696420616d60448201527f6f756e742e20596f75206e65656420746f207061737320612076616c6964206160648201527f6d6f756e7420746f20636f6d706c6574652074686973207472616e736163746960848201526137b760f11b60a482015260c40161076d565b613159565b6040516370a0823160e01b81526001600160a01b0385811660048301528691908816906370a0823190602401602060405180830381865afa158015612f82573d6000803e3d6000fd5b505050506040513d601f19601f82011682018060405250810190612fa69190615bf6565b10158015612fb45750828510155b6130425760405162461bcd60e51b815260206004820152605360248201527f496e73756666696369656e742066756e64732e20596f752073686f756c64206860448201527f6176652073756666696369656e742062616c616e636520746f20636f6d706c656064820152723a32903a3434b9903a3930b739b0b1ba34b7b760691b608482015260a40161076d565b604051636eb1769f60e11b81526001600160a01b03858116600483015230602483015286919088169063dd62ed3e90604401602060405180830381865afa158015613091573d6000803e3d6000fd5b505050506040513d601f19601f820116820180604052508101906130b59190615bf6565b10156131595760405162461bcd60e51b815260206004820152606160248201527f496e73756666696369656e7420617070726f76616c2066726f6d20616e20455260448201527f43323020546f6b656e2e20506c656173652070726f7669646520617070726f7660648201527f616c20746f207468697320636f6e747261637420616e642074727920616761696084820152603760f91b60a482015260c40161076d565b5097509795505050505050565b6040516301ffc9a760e01b81526060906001600160a01b038816906301ffc9a79061319c906380ac58cd60e01b9060040161552d565b602060405180830381865afa1580156131b9573d6000803e3d6000fd5b505050506040513d601f19601f820116820180604052508101906131dd9190615542565b156135475760018260018111156131f6576131f6614a2b565b0361334c576040516331a9108f60e11b8152600481018690526001600160a01b03808a169190891690636352211e90602401602060405180830381865afa158015613245573d6000803e3d6000fd5b505050506040513d601f19601f820116820180604052508101906132699190615c0f565b6001600160a01b0316146132dd5760405162461bcd60e51b815260206004820152603560248201527f496e76616c6964204e4654204f776e657220416464726573732e20506c656173604482015274329031b432b1b59030b732103a393c9030b3b0b4b760591b606482015260840161076d565b604051632142170760e11b81526001600160a01b0389811660048301528781166024830152604482018790528816906342842e0e90606401600060405180830381600087803b15801561332f57600080fd5b505af1158015613343573d6000803e3d6000fd5b50505050613bba565b600082600181111561336057613360614a2b565b03613542576004896040516133759190614e96565b908152604051908190036020018120600901546001600160401b03169085906005906133a2908d90614e96565b9081526020016040518091039020546133bb919061515b565b111561347b5760405162461bcd60e51b815260206004820152607760248201527f546865206d6178696d756d207175616e7469747920616c6c6f77656420746f2060448201527f70757263686173652045524337323120746f6b656e20686173206265656e207360648201527f6f6c64206f75742e20506c6561736520636f6e74616374207468652073616c6560848201527f206f776e657220666f72206d6f72652064657461696c7300000000000000000060a482015260c40161076d565b60405163e00aab4b60e01b81526001600160a01b03878116600483015261ffff8616602483015288169063e00aab4b906044016000604051808303816000875af11580156134cd573d6000803e3d6000fd5b505050506040513d6000823e601f3d908101601f191682016040526134f59190810190615cba565b90508360058a6040516135089190614e96565b908152602001604051809103902054613521919061515b565b60058a6040516135319190614e96565b908152604051908190036020019020555b613bba565b6040516301ffc9a760e01b81526001600160a01b038816906301ffc9a79061357a90636cdb3d1360e11b9060040161552d565b602060405180830381865afa158015613597573d6000803e3d6000fd5b505050506040513d601f19601f820116820180604052508101906135bb9190615542565b15613bba5760018260018111156135d4576135d4614a2b565b0361374c57604051627eeac760e11b81526001600160a01b038981166004830152602482018790526000919089169062fdd58e90604401602060405180830381865afa158015613628573d6000803e3d6000fd5b505050506040513d601f19601f8201168201806040525081019061364c9190615bf6565b905080841115801561365e5750600084115b6136bc5760405162461bcd60e51b815260206004820152602960248201527f496e73756666696369656e7420746f6b656e2062616c616e63652066726f6d206044820152683a34329037bbb732b960b91b606482015260840161076d565b604051637921219560e11b81526001600160a01b038a811660048301528881166024830152604482018890526064820186905260a06084830152600260a483015261060f60f31b60c483015289169063f242432a9060e401600060405180830381600087803b15801561372e57600080fd5b505af1158015613742573d6000803e3d6000fd5b5050505050613bba565b600082600181111561376057613760614a2b565b03613bba57604080516001808252818301909252600091602080830190803683370190505090506000856001600160401b038111156137a1576137a16147e5565b6040519080825280602002602001820160405280156137ca578160200160208202803683370190505b509050606088836000815181106137e3576137e36150dc565b60200260200101906001600160a01b031690816001600160a01b0316815250508582600081518110613817576138176150dc565b602090810291909101015260405163bd85b03960e01b8152600481018990526001600160a01b038b169063bd85b03990602401602060405180830381865afa158015613867573d6000803e3d6000fd5b505050506040513d601f19601f8201168201806040525081019061388b9190615bf6565b600003613a9f5760048c6040516138a29190614e96565b908152604051908190036020018120600901546001600160401b0316906005906138cd908f90614e96565b9081526020016040518091039020541061399b5760405162461bcd60e51b815260206004820152607860248201527f546865206d6178696d756d207175616e7469747920616c6c6f77656420746f2060448201527f7075726368617365204552433131353520746f6b656e20686173206265656e2060648201527f736f6c64206f75742e20506c6561736520636f6e74616374207468652073616c60848201527f65206f776e657220666f72206d6f72652064657461696c73000000000000000060a482015260c40161076d565b60005b878110156139d657868382815181106139b9576139b96150dc565b6020908102919091010152806139ce81615108565b91505061399e565b50604051634637423960e11b81526001600160a01b038b1690638c6e847290613a0790869086908690600401615cee565b6000604051808303816000875af1158015613a26573d6000803e3d6000fd5b505050506040513d6000823e601f3d908101601f19168201604052613a4e9190810190615cba565b93508660058d604051613a619190614e96565b908152602001604051809103902054613a7a919061515b565b60058d604051613a8a9190614e96565b90815260405190819003602001902055613bb6565b60405163bd85b03960e01b8152600481018990526000906001600160a01b038c169063bd85b03990602401602060405180830381865afa158015613ae7573d6000803e3d6000fd5b505050506040513d601f19601f82011682018060405250810190613b0b9190615bf6565b1115613bb657604080516001808252818301909252600091602080830190803683370190505090508881600081518110613b4757613b476150dc565b60209081029190910101526040516339b2213760e21b81526001600160a01b038c169063e6c884dc90613b8290879085908890600401615d75565b600060405180830381600087803b158015613b9c57600080fd5b505af1158015613bb0573d6000803e3d6000fd5b50505050505b5050505b98975050505050505050565b60006001600160a01b038316613cae57604080516000815260208101918290526001600160a01b038616918491613bfc91614e96565b60006040518083038185875af1925050503d8060008114613c39576040519150601f19603f3d011682016040523d82523d6000602084013e613c3e565b606091505b50508091505080613ca95760405162461bcd60e51b815260206004820152602f60248201527f756e61626c6520746f206465626974206e61746976652062616c616e6365207060448201526e3632b0b9b2903a393c9030b3b0b4b760891b606482015260840161076d565b613cc3565b613cc36001600160a01b038416868685614046565b5050505050565b6000600489604051613cdc9190614e96565b90815260408051918290036020908101832060c08401835260058101546001600160a01b0390811685526006820154811692850192909252600781015480831693850184905261ffff600160a01b918290048116606087015260089092015492831660808601529091041660a083015290915060009015801590613d6857506000826060015161ffff16115b15613daf57613daa33836040015189612710866060015161ffff168d613d8e919061559e565b613d989190615db8565b613da2908661515b565b945084613bc6565b613e09565b6007546001600160a01b031615801590613dd55750600754600160a01b900461ffff1615155b15613e0957600754613e099033906001600160a01b038116908a9061271090613d8e90600160a01b900461ffff168e61559e565b60808201516001600160a01b031615801590613e2d575060008260a0015161ffff16115b15613e9a576127108260a0015161ffff1689613e49919061559e565b613e539190615db8565b613e5d908261515b565b9050613e9a338360800151898c6127108760a0015161ffff168e613e81919061559e565b613e8b9190615db8565b613e95919061515b565b613bc6565b613ea4818961516e565b9750613eb5338787878c8c896140a6565b9750613ec7338360000151898b613bc6565b50505050505050505050565b60008181526001830160205260408120548015613fbc576000613ef760018361516e565b8554909150600090613f0b9060019061516e565b9050818114613f70576000866000018281548110613f2b57613f2b6150dc565b9060005260206000200154905080876000018481548110613f4e57613f4e6150dc565b6000918252602080832090910192909255918252600188019052604090208390555b8554869080613f8157613f81615dda565b60019003818190600052602060002001600090559055856001016000868152602001908152602001600020600090556001935050505061071d565b600091505061071d565b5092915050565b6000826000018281548110613fe457613fe46150dc565b9060005260206000200154905092915050565b600081815260018301602052604081205461403e5750815460018181018455600084815260208082209093018490558454848252828601909352604090209190915561071d565b50600061071d565b604080516001600160a01b0385811660248301528416604482015260648082018490528251808303909101815260849091019091526020810180516001600160e01b03166323b872dd60e01b1790526140a0908590614258565b50505050565b600060018260018111156140bc576140bc614a2b565b036140d5576140ce888689878761432f565b905061424d565b60008260018111156140e9576140e9614a2b565b0361424d576040516301ffc9a760e01b81526001600160a01b038616906301ffc9a79061412190636cdb3d1360e11b9060040161552d565b602060405180830381865afa15801561413e573d6000803e3d6000fd5b505050506040513d601f19601f820116820180604052508101906141629190615542565b80156141d7575060405163bd85b03960e01b8152600481018890526000906001600160a01b0387169063bd85b03990602401602060405180830381865afa1580156141b1573d6000803e3d6000fd5b505050506040513d601f19601f820116820180604052508101906141d59190615bf6565b115b156141e9576140ce888689878761432f565b85516141f59085615db8565b93506000805b875181101561424a5761422a8a888a848151811061421b5761421b6150dc565b6020026020010151898961432f565b9150614236828461515b565b92508061424281615108565b9150506141fb565b50505b979650505050505050565b60006142ad826040518060400160405280602081526020017f5361666545524332303a206c6f772d6c6576656c2063616c6c206661696c6564815250856001600160a01b03166145079092919063ffffffff16565b80519091501561432a57808060200190518101906142cb9190615542565b61432a5760405162461bcd60e51b815260206004820152602a60248201527f5361666545524332303a204552433230206f7065726174696f6e20646964206e6044820152691bdd081cdd58d8d9595960b21b606482015260840161076d565b505050565b600954604051636e44a72f60e01b81526001600160a01b038681166004830152602482018690526000928592849283928392911690636e44a72f90604401600060405180830381865afa15801561438a573d6000803e3d6000fd5b505050506040513d6000823e601f3d908101601f191682016040526143b29190810190615df0565b8151919350915060008190036143cf5787955050505050506144fe565b60005b818110156144f55760008482815181106143ee576143ee6150dc565b602002602001015190506127108a85848151811061440e5761440e6150dc565b6020026020010151614420919061559e565b61442a9190615db8565b95508587101561448a5760405162461bcd60e51b815260206004820152602560248201527f696e736f6c76656e743a20756e61626c6520746f20636f6d706c65746520726f60448201526479616c747960d81b606482015260840161076d565b6144968d828b89613bc6565b604080516001600160a01b038e81168252602082018e90528316818301526060810188905290517f866e6ef8682ddf5f1025e64dfdb45527077f7be70fa9ef680b7ffd8cf4ab9c509181900360800190a15094849003946001016143d2565b50939450505050505b95945050505050565b6060614516848460008561451e565b949350505050565b60608247101561457f5760405162461bcd60e51b815260206004820152602660248201527f416464726573733a20696e73756666696369656e742062616c616e636520666f6044820152651c8818d85b1b60d21b606482015260840161076d565b843b6145cd5760405162461bcd60e51b815260206004820152601d60248201527f416464726573733a2063616c6c20746f206e6f6e2d636f6e7472616374000000604482015260640161076d565b600080866001600160a01b031685876040516145e99190614e96565b60006040518083038185875af1925050503d8060008114614626576040519150601f19603f3d011682016040523d82523d6000602084013e61462b565b606091505b509150915061424d828286606083156146455750816126a5565b8251156146555782518084602001fd5b8160405162461bcd60e51b815260040161076d9190615eb4565b5080546000825590600052602060002090810190610a279190614727565b8280548282559060005260206000209081019282156146c8579160200282015b828111156146c85782358255916020019190600101906146ad565b50610ad4929150614727565b8280548282559060005260206000209081019282156146c8579160200282015b828111156146c85781546001600160a01b0319166001600160a01b038435161782556020909201916001909101906146f4565b5b80821115610ad45760008155600101614728565b60006020828403121561474e57600080fd5b81356001600160e01b0319811681146126a557600080fd5b6001600160401b0381168114610a2757600080fd5b803561478681614766565b919050565b60006020828403121561479d57600080fd5b81356126a581614766565b6001600160a01b0381168114610a2757600080fd5b8035614786816147a8565b6000602082840312156147da57600080fd5b81356126a5816147a8565b634e487b7160e01b600052604160045260246000fd5b60405161010081016001600160401b038111828210171561481e5761481e6147e5565b60405290565b604051601f8201601f191681016001600160401b038111828210171561484c5761484c6147e5565b604052919050565b600082601f83011261486557600080fd5b81356001600160401b0381111561487e5761487e6147e5565b614891601f8201601f1916602001614824565b8181528460208386010111156148a657600080fd5b816020850160208301376000918101602001919091529392505050565b6000602082840312156148d557600080fd5b81356001600160401b038111156148eb57600080fd5b61451684828501614854565b600081518084526020808501945080840160005b838110156149305781516001600160a01b03168752958201959082019060010161490b565b509495945050505050565b6020815260006126a560208301846148f7565b60008083601f84011261496057600080fd5b5081356001600160401b0381111561497757600080fd5b60208301915083602082850101111561498f57600080fd5b9250929050565b600080602083850312156149a957600080fd5b82356001600160401b038111156149bf57600080fd5b6149cb8582860161494e565b90969095509350505050565b60018060a01b03808251168352806020830151166020840152806040830151166040840152606082015161ffff80821660608601528260808501511660808601528060a08501511660a08601525050505050565b634e487b7160e01b600052602160045260246000fd5b60028110610a2757634e487b7160e01b600052602160045260246000fd5b614a6881614a41565b9052565b6001600160a01b03891681526001600160401b0388811660208301528781166040830152606082018790526101a0820190614aaa60808401886149d7565b8516610140830152614abb84614a41565b83610160830152614acb83614a41565b826101808301529998505050505050505050565b60008060408385031215614af257600080fd5b82356001600160401b0380821115614b0957600080fd5b908401906101008287031215614b1e57600080fd5b614b266147fb565b823582811115614b3557600080fd5b614b4188828601614854565b825250614b50602084016147bd565b602082015260408301356040820152614b6b6060840161477b565b6060820152614b7c608084016147bd565b6080820152614b8d60a0840161477b565b60a0820152614b9e60c084016147bd565b60c082015260e0928301359281019290925250946020939093013593505050565b600081518084526020808501945080840160005b8381101561493057815187529582019590820190600101614bd3565b6020815260006126a56020830184614bbf565b600080600060408486031215614c1757600080fd5b83356001600160401b03811115614c2d57600080fd5b614c398682870161494e565b9094509250506020840135614c4d816147a8565b809150509250925092565b61ffff81168114610a2757600080fd5b600060208284031215614c7a57600080fd5b81356126a581614c58565b604081526000614c986040830185614bbf565b82810360208401526144fe81856148f7565b60028110610a2757600080fd5b803561478681614caa565b60008083601f840112614cd457600080fd5b5081356001600160401b03811115614ceb57600080fd5b6020830191508360208260051b850101111561498f57600080fd5b60008060008060008060008060a0898b031215614d2257600080fd5b88356001600160401b0380821115614d3957600080fd5b614d458c838d0161494e565b909a50985060208b01359150614d5a82614caa565b90965060408a0135955060608a01359080821115614d7757600080fd5b614d838c838d01614cc2565b909650945060808b0135915080821115614d9c57600080fd5b50614da98b828c01614cc2565b999c989b5096995094979396929594505050565b600080600060408486031215614dd257600080fd5b83356001600160401b0380821115614de957600080fd5b908501906101e08288031215614dfe57600080fd5b90935060208501359080821115614e1457600080fd5b50614e218682870161494e565b9497909650939450505050565b60208082526024908201527f41646d696e436f6e74726f6c3a204d757374206265206f776e6572206f7220616040820152633236b4b760e11b606082015260800190565b60005b83811015614e8d578181015183820152602001614e75565b50506000910152565b60008251614ea8818460208701614e72565b9190910192915050565b60208082526037908201527f7468652073616c65496420796f75206861766520656e7465726564206973206960408201527f6e76616c69642e20506c656173652076616c6964617465000000000000000000606082015260800190565b6000815480845260208085019450836000528060002060005b8381101561493057815487529582019560019182019101614f28565b6000815480845260208085019450836000528060002060005b838110156149305781546001600160a01b031687529582019560019182019101614f5d565b60208082528254600091614fa99084016001600160a01b0383166001600160a01b03169052565b6001600160401b0360a091821c81166040850152600185015481166060850152600285015460808501526101e0918401829052614fed610200850160038701614f0f565b848103601f190160c08601526150068160048801614f44565b60058701546001600160a01b0390811660e088015260068801548116610100880152600788015480821661012089015261ffff60a091821c81166101408a015260088a01549283166101608a015291901c16610180870152905060098601546001600160401b03838216166101a087015261508b6101c0870160ff8360401c16614a5f565b61509d84870160ff8360481c16614a5f565b5095945050505050565b6020808252818101527f4f776e61626c653a2063616c6c6572206973206e6f7420746865206f776e6572604082015260600190565b634e487b7160e01b600052603260045260246000fd5b634e487b7160e01b600052601160045260246000fd5b60006001820161511a5761511a6150f2565b5060010190565b8183823760009101908152919050565b60208082526010908201526f756e737570706f727465642073616c6560801b604082015260600190565b8082018082111561071d5761071d6150f2565b8181038181111561071d5761071d6150f2565b60008151808452615199816020860160208601614e72565b601f01601f19169290920160200192915050565b6000610160808352885161010080838601526151cd610260860183615181565b60208c01516001600160a01b031661018087015260408c01516101a087015260608c01516001600160401b03166101c087015260808c015190935091506152206101e08601836001600160a01b03169052565b60a08b01516001600160401b031661020086015260c08b01516001600160a01b03811661022087015260e08c015161024087015285840360208701529150615268838b614bbf565b9350615277604086018a6149d7565b840196909652506101208201939093526101400152949350505050565b60208082526038908201527f73686f756c64206e6f74206265207a65726f2061646472657373206f7220707260408201527f6576696f757320736574746c656d656e74206164726573730000000000000000606082015260800190565b6020808252603d908201527f6d696e696d756d20666961742070726963652073686f756c64206265207a657260408201527f6f20696620746865207061796d656e74206973206f662063727970746f000000606082015260800190565b60208082526038908201527f73686f756c642070726f7669646520657175616c206c656e67746820696e207060408201527f7269636520616e64207061796d656e7420616464726573730000000000000000606082015260800190565b60208082526033908201527f6d696e696d756d20707269636520696e2063727970746f2073686f756c642062604082015272652067726561746572207468616e207a65726f60681b606082015260800190565b6020808252603f908201527f63727970746f207061796d656e742064657461696c732073686f756c6420626560408201527f206e756c6c20696620746865207061796d656e74206973206f66206669617400606082015260800190565b60208082526031908201527f6d696e696d756d20707269636520696e20666961742073686f756c642062652060408201527067726561746572207468616e207a65726f60781b606082015260800190565b61ffff818116838216019080821115613fc657613fc66150f2565b6000602082840312156154d957600080fd5b81356126a581614caa565b6000808335601e198436030181126154fb57600080fd5b8301803591506001600160401b0382111561551557600080fd5b6020019150600581901b360382131561498f57600080fd5b6001600160e01b031991909116815260200190565b60006020828403121561555457600080fd5b815180151581146126a557600080fd5b6000813561071d816147a8565b80546001600160a01b0319166001600160a01b0392909216919091179055565b6000813561071d81614766565b808202811582820484141761071d5761071d6150f2565b8183101561432a576000818152602081208481019084015b808210156155e3578282556001820191506155cd565b505050505050565b6001600160401b03831115615602576156026147e5565b600160401b831115615616576156166147e5565b80548382556156268482846155b5565b50818160005260208060002060005b8681101561564f5783358282015592820192600101615635565b50505050505050565b6001600160401b0383111561566f5761566f6147e5565b600160401b831115615683576156836147e5565b80548382556156938482846155b5565b50818160005260208060002060005b8681101561564f5783356156b5816147a8565b82820155928201926001016156a2565b805461ffff60a01b191660a09290921b61ffff60a01b16919091179055565b81356156ef816147a8565b6156f98183615571565b506020820135615708816147a8565b6157158160018401615571565b50600281016040830135615728816147a8565b6157328183615571565b50606083013561574181614c58565b61574b81836156c5565b505060038101608083013561575f816147a8565b6157698183615571565b5060a083013561577881614c58565b6140a081836156c5565b6000813561071d81614caa565b61579882614a41565b805460ff60401b8360401b1660ff60401b198216178255505050565b6157bd82614a41565b805460ff60481b8360481b1660ff60481b198216178255505050565b6157eb6157e583615564565b82615571565b6158266157fa60208401615591565b82805467ffffffffffffffff60a01b191660a09290921b67ffffffffffffffff60a01b16919091179055565b61585661583560408401615591565b600183016001600160401b0382166001600160401b03198254161781555050565b6060820135600282015561586d60808301836154e4565b61587b8183600386016155eb565b505061588a60a08301836154e4565b615898818360048601615658565b50506158aa60c08301600583016156e4565b600981016158dc6158be6101808501615591565b825467ffffffffffffffff19166001600160401b0391909116178255565b6158f26158ec6101a08501615782565b8261578f565b61432a6159026101c08501615782565b826157b4565b6000808335601e1984360301811261591f57600080fd5b83016020810192503590506001600160401b0381111561593e57600080fd5b8060051b360382131561498f57600080fd5b81835260006001600160fb1b0383111561596957600080fd5b8260051b80836020870137939093016020019392505050565b8183526000602080850194508260005b858110156149305781356159a5816147a8565b6001600160a01b031687529582019590820190600101615992565b80356159cb816147a8565b6001600160a01b0390811683526020820135906159e7826147a8565b90811660208401526040820135906159fe826147a8565b9081166040840152606082013590615a1582614c58565b61ffff9182166060850152608083013591615a2f836147a8565b918116608085015260a083013591615a4683614c58565b80831660a08601525050505050565b60208152615a7660208201615a69846147bd565b6001600160a01b03169052565b6000615a846020840161477b565b6001600160401b038116604084015250615aa06040840161477b565b6001600160401b03811660608401525060608301356080830152615ac76080840184615908565b6101e08060a0860152615adf61020086018385615950565b9250615aee60a0870187615908565b868503601f190160c08801529250615b07848483615982565b935050615b1a60e0860160c088016159c0565b615b27610180870161477b565b91506101a0615b40818701846001600160401b03169052565b615b4b818801614cb7565b9250506101c0615b5d81870184614a5f565b615b68818801614cb7565b925050615b7781860183614a5f565b5090949350505050565b6020808252604f908201527f54686973206973206e6f7420612076616c696420746f6b656e49642e20506c6560408201527f6173652076657269667920746861742074686520746f6b656e49642070726f7660608201526e1a591959081a5cc818dbdc9c9958dd608a1b608082015260a00190565b600060208284031215615c0857600080fd5b5051919050565b600060208284031215615c2157600080fd5b81516126a5816147a8565b60006001600160401b03821115615c4557615c456147e5565b5060051b60200190565b600082601f830112615c6057600080fd5b81516020615c75615c7083615c2c565b614824565b82815260059290921b84018101918181019086841115615c9457600080fd5b8286015b84811015615caf5780518352918301918301615c98565b509695505050505050565b600060208284031215615ccc57600080fd5b81516001600160401b03811115615ce257600080fd5b61451684828501615c4f565b606081526000615d0160608301866148f7565b602083820381850152615d148287614bbf565b915083820360408501528185518084528284019150828160051b85010183880160005b83811015615d6557601f19878403018552615d53838351615181565b94860194925090850190600101615d37565b50909a9950505050505050505050565b606081526000615d8860608301866148f7565b8281036020840152615d9a8186614bbf565b90508281036040840152615dae8185614bbf565b9695505050505050565b600082615dd557634e487b7160e01b600052601260045260246000fd5b500490565b634e487b7160e01b600052603160045260246000fd5b60008060408385031215615e0357600080fd5b82516001600160401b0380821115615e1a57600080fd5b818501915085601f830112615e2e57600080fd5b81516020615e3e615c7083615c2c565b82815260059290921b84018101918181019089841115615e5d57600080fd5b948201945b83861015615e84578551615e75816147a8565b82529482019490820190615e62565b91880151919650909350505080821115615e9d57600080fd5b50615eaa85828601615c4f565b9150509250929050565b6020815260006126a5602083018461518156fea2646970667358221220b4d13fa36632165aca3e5c4dd7e5c575fac81e3d8c385396f045bcd1df4d0ae964736f6c63430008110033",
			"opcodes": "PUSH1 0x80 PUSH1 0x40 MSTORE CALLVALUE DUP1 ISZERO PUSH3 0x11 JUMPI PUSH1 0x0 DUP1 REVERT JUMPDEST POP PUSH1 0x40 MLOAD PUSH3 0x6168 CODESIZE SUB DUP1 PUSH3 0x6168 DUP4 CODECOPY DUP2 ADD PUSH1 0x40 DUP2 SWAP1 MSTORE PUSH3 0x34 SWAP2 PUSH3 0x1CA JUMP JUMPDEST PUSH1 0x1 PUSH1 0x0 DUP2 DUP2 SSTORE DUP2 SLOAD PUSH1 0x1 PUSH1 0x1 PUSH1 0xA0 SHL SUB NOT AND CALLER SWAP1 DUP2 OR SWAP1 SWAP3 SSTORE PUSH1 0x40 MLOAD DUP3 SWAP2 SWAP1 PUSH32 0x8BE0079C531659141344CD1FD0A4F28419497F9722A3DAAFE3B4186F6B6457E0 SWAP1 DUP3 SWAP1 LOG3 POP PUSH1 0x1 PUSH1 0x1 PUSH1 0xA0 SHL SUB DUP6 AND PUSH3 0xD6 JUMPI PUSH1 0x40 MLOAD PUSH3 0x461BCD PUSH1 0xE5 SHL DUP2 MSTORE PUSH1 0x20 PUSH1 0x4 DUP3 ADD MSTORE PUSH1 0x18 PUSH1 0x24 DUP3 ADD MSTORE PUSH32 0x496E76616C696420506C6174666F726D20416464726573730000000000000000 PUSH1 0x44 DUP3 ADD MSTORE PUSH1 0x64 ADD JUMPDEST PUSH1 0x40 MLOAD DUP1 SWAP2 SUB SWAP1 REVERT JUMPDEST PUSH2 0x2710 DUP5 PUSH2 0xFFFF AND LT PUSH3 0x13B JUMPI PUSH1 0x40 MLOAD PUSH3 0x461BCD PUSH1 0xE5 SHL DUP2 MSTORE PUSH1 0x20 PUSH1 0x4 DUP3 ADD MSTORE PUSH1 0x25 PUSH1 0x24 DUP3 ADD MSTORE PUSH32 0x706C6174666F726D4665652073686F756C64206265206C657373207468616E20 PUSH1 0x44 DUP3 ADD MSTORE PUSH5 0x313030303 PUSH1 0xDC SHL PUSH1 0x64 DUP3 ADD MSTORE PUSH1 0x84 ADD PUSH3 0xCD JUMP JUMPDEST PUSH1 0x7 DUP1 SLOAD PUSH2 0xFFFF SWAP1 SWAP6 AND PUSH1 0x1 PUSH1 0xA0 SHL SWAP1 DUP2 MUL PUSH1 0x1 PUSH1 0x1 PUSH1 0xB0 SHL SUB NOT SWAP1 SWAP7 AND PUSH1 0x1 PUSH1 0x1 PUSH1 0xA0 SHL SUB SWAP8 DUP9 AND OR SWAP6 SWAP1 SWAP6 OR SWAP1 SSTORE PUSH1 0x9 DUP1 SLOAD PUSH1 0x8 DUP1 SLOAD SWAP5 DUP9 AND PUSH1 0x1 PUSH1 0x1 PUSH1 0xA0 SHL SUB NOT SWAP6 DUP7 AND OR SWAP1 SSTORE SWAP2 SWAP1 SWAP6 AND PUSH1 0x1 PUSH1 0x1 PUSH1 0x40 SHL SUB SWAP1 SWAP4 AND SWAP1 SWAP4 MUL AND PUSH1 0x1 PUSH1 0x1 PUSH1 0xE0 SHL SUB NOT SWAP1 SWAP3 AND SWAP2 SWAP1 SWAP2 OR OR SWAP1 SSTORE PUSH3 0x25B JUMP JUMPDEST PUSH1 0x1 PUSH1 0x1 PUSH1 0xA0 SHL SUB DUP2 AND DUP2 EQ PUSH3 0x1C7 JUMPI PUSH1 0x0 DUP1 REVERT JUMPDEST POP JUMP JUMPDEST PUSH1 0x0 DUP1 PUSH1 0x0 DUP1 PUSH1 0x0 PUSH1 0xA0 DUP7 DUP9 SUB SLT ISZERO PUSH3 0x1E3 JUMPI PUSH1 0x0 DUP1 REVERT JUMPDEST DUP6 MLOAD PUSH3 0x1F0 DUP2 PUSH3 0x1B1 JUMP JUMPDEST PUSH1 0x20 DUP8 ADD MLOAD SWAP1 SWAP6 POP PUSH2 0xFFFF DUP2 AND DUP2 EQ PUSH3 0x209 JUMPI PUSH1 0x0 DUP1 REVERT JUMPDEST PUSH1 0x40 DUP8 ADD MLOAD SWAP1 SWAP5 POP PUSH1 0x1 PUSH1 0x1 PUSH1 0x40 SHL SUB DUP2 AND DUP2 EQ PUSH3 0x227 JUMPI PUSH1 0x0 DUP1 REVERT JUMPDEST PUSH1 0x60 DUP8 ADD MLOAD SWAP1 SWAP4 POP PUSH3 0x23A DUP2 PUSH3 0x1B1 JUMP JUMPDEST PUSH1 0x80 DUP8 ADD MLOAD SWAP1 SWAP3 POP PUSH3 0x24D DUP2 PUSH3 0x1B1 JUMP JUMPDEST DUP1 SWAP2 POP POP SWAP3 SWAP6 POP SWAP3 SWAP6 SWAP1 SWAP4 POP JUMP JUMPDEST PUSH2 0x5EFD DUP1 PUSH3 0x26B PUSH1 0x0 CODECOPY PUSH1 0x0 RETURN INVALID PUSH1 0x80 PUSH1 0x40 MSTORE PUSH1 0x4 CALLDATASIZE LT PUSH2 0x1AE JUMPI PUSH1 0x0 CALLDATALOAD PUSH1 0xE0 SHR DUP1 PUSH4 0x858A6DC8 GT PUSH2 0xEB JUMPI DUP1 PUSH4 0xDA20872A GT PUSH2 0x8F JUMPI DUP1 PUSH4 0xE0ABCA0B GT PUSH2 0x61 JUMPI DUP1 PUSH4 0xE0ABCA0B EQ PUSH2 0x66C JUMPI DUP1 PUSH4 0xE8AC841F EQ PUSH2 0x68C JUMPI DUP1 PUSH4 0xF2FDE38B EQ PUSH2 0x6AC JUMPI DUP1 PUSH4 0xFD114F08 EQ PUSH2 0x6CC JUMPI STOP JUMPDEST DUP1 PUSH4 0xDA20872A EQ PUSH2 0x5DE JUMPI DUP1 PUSH4 0xDBE55E56 EQ PUSH2 0x5FE JUMPI DUP1 PUSH4 0xDF354BDD EQ PUSH2 0x61E JUMPI DUP1 PUSH4 0xDFA12F79 EQ PUSH2 0x64C JUMPI STOP JUMPDEST DUP1 PUSH4 0xACECF9DE GT PUSH2 0xC8 JUMPI DUP1 PUSH4 0xACECF9DE EQ PUSH2 0x549 JUMPI DUP1 PUSH4 0xBF9AFC18 EQ PUSH2 0x569 JUMPI DUP1 PUSH4 0xCBC9A941 EQ PUSH2 0x589 JUMPI DUP1 PUSH4 0xCDD78CFC EQ PUSH2 0x5A9 JUMPI STOP JUMPDEST DUP1 PUSH4 0x858A6DC8 EQ PUSH2 0x4B1 JUMPI DUP1 PUSH4 0x8DA5CB5B EQ PUSH2 0x4F7 JUMPI DUP1 PUSH4 0x8F9F193F EQ PUSH2 0x529 JUMPI STOP JUMPDEST DUP1 PUSH4 0x49EF4DD9 GT PUSH2 0x152 JUMPI DUP1 PUSH4 0x6D73E669 GT PUSH2 0x12F JUMPI DUP1 PUSH4 0x6D73E669 EQ PUSH2 0x366 JUMPI DUP1 PUSH4 0x705E3F6C EQ PUSH2 0x386 JUMPI DUP1 PUSH4 0x715018A6 EQ PUSH2 0x3A6 JUMPI DUP1 PUSH4 0x77DEC6C3 EQ PUSH2 0x3BB JUMPI STOP JUMPDEST DUP1 PUSH4 0x49EF4DD9 EQ PUSH2 0x2A3 JUMPI DUP1 PUSH4 0x4B9804B2 EQ PUSH2 0x2E2 JUMPI DUP1 PUSH4 0x676A7B77 EQ PUSH2 0x302 JUMPI STOP JUMPDEST DUP1 PUSH4 0x2977F78A GT PUSH2 0x18B JUMPI DUP1 PUSH4 0x2977F78A EQ PUSH2 0x22C JUMPI DUP1 PUSH4 0x2D345670 EQ PUSH2 0x24C JUMPI DUP1 PUSH4 0x31AE450B EQ PUSH2 0x26C JUMPI DUP1 PUSH4 0x3CCFD60B EQ PUSH2 0x28E JUMPI STOP JUMPDEST DUP1 PUSH4 0x1FFC9A7 EQ PUSH2 0x1B7 JUMPI DUP1 PUSH4 0x19E4367C EQ PUSH2 0x1EC JUMPI DUP1 PUSH4 0x24D7806C EQ PUSH2 0x20C JUMPI STOP JUMPDEST CALLDATASIZE PUSH2 0x1B5 JUMPI STOP JUMPDEST STOP JUMPDEST CALLVALUE DUP1 ISZERO PUSH2 0x1C3 JUMPI PUSH1 0x0 DUP1 REVERT JUMPDEST POP PUSH2 0x1D7 PUSH2 0x1D2 CALLDATASIZE PUSH1 0x4 PUSH2 0x473C JUMP JUMPDEST PUSH2 0x6EC JUMP JUMPDEST PUSH1 0x40 MLOAD SWAP1 ISZERO ISZERO DUP2 MSTORE PUSH1 0x20 ADD JUMPDEST PUSH1 0x40 MLOAD DUP1 SWAP2 SUB SWAP1 RETURN JUMPDEST CALLVALUE DUP1 ISZERO PUSH2 0x1F8 JUMPI PUSH1 0x0 DUP1 REVERT JUMPDEST POP PUSH2 0x1B5 PUSH2 0x207 CALLDATASIZE PUSH1 0x4 PUSH2 0x478B JUMP JUMPDEST PUSH2 0x723 JUMP JUMPDEST CALLVALUE DUP1 ISZERO PUSH2 0x218 JUMPI PUSH1 0x0 DUP1 REVERT JUMPDEST POP PUSH2 0x1D7 PUSH2 0x227 CALLDATASIZE PUSH1 0x4 PUSH2 0x47C8 JUMP JUMPDEST PUSH2 0x7D9 JUMP JUMPDEST CALLVALUE DUP1 ISZERO PUSH2 0x238 JUMPI PUSH1 0x0 DUP1 REVERT JUMPDEST POP PUSH2 0x1B5 PUSH2 0x247 CALLDATASIZE PUSH1 0x4 PUSH2 0x48C3 JUMP JUMPDEST PUSH2 0x812 JUMP JUMPDEST CALLVALUE DUP1 ISZERO PUSH2 0x258 JUMPI PUSH1 0x0 DUP1 REVERT JUMPDEST POP PUSH2 0x1B5 PUSH2 0x267 CALLDATASIZE PUSH1 0x4 PUSH2 0x47C8 JUMP JUMPDEST PUSH2 0x9AA JUMP JUMPDEST CALLVALUE DUP1 ISZERO PUSH2 0x278 JUMPI PUSH1 0x0 DUP1 REVERT JUMPDEST POP PUSH2 0x281 PUSH2 0xA2A JUMP JUMPDEST PUSH1 0x40 MLOAD PUSH2 0x1E3 SWAP2 SWAP1 PUSH2 0x493B JUMP JUMPDEST CALLVALUE DUP1 ISZERO PUSH2 0x29A JUMPI PUSH1 0x0 DUP1 REVERT JUMPDEST POP PUSH2 0x1B5 PUSH2 0xAD8 JUMP JUMPDEST CALLVALUE DUP1 ISZERO PUSH2 0x2AF JUMPI PUSH1 0x0 DUP1 REVERT JUMPDEST POP PUSH1 0x9 SLOAD PUSH2 0x2CA SWAP1 PUSH1 0x1 PUSH1 0xA0 SHL SWAP1 DIV PUSH1 0x1 PUSH1 0x1 PUSH1 0x40 SHL SUB AND DUP2 JUMP JUMPDEST PUSH1 0x40 MLOAD PUSH1 0x1 PUSH1 0x1 PUSH1 0x40 SHL SUB SWAP1 SWAP2 AND DUP2 MSTORE PUSH1 0x20 ADD PUSH2 0x1E3 JUMP JUMPDEST CALLVALUE DUP1 ISZERO PUSH2 0x2EE JUMPI PUSH1 0x0 DUP1 REVERT JUMPDEST POP PUSH2 0x1B5 PUSH2 0x2FD CALLDATASIZE PUSH1 0x4 PUSH2 0x47C8 JUMP JUMPDEST PUSH2 0xBED JUMP JUMPDEST CALLVALUE DUP1 ISZERO PUSH2 0x30E JUMPI PUSH1 0x0 DUP1 REVERT JUMPDEST POP PUSH2 0x322 PUSH2 0x31D CALLDATASIZE PUSH1 0x4 PUSH2 0x4996 JUMP JUMPDEST PUSH2 0xCC3 JUMP JUMPDEST PUSH1 0x40 DUP1 MLOAD PUSH2 0xFFFF SWAP8 DUP9 AND DUP2 MSTORE PUSH1 0x1 PUSH1 0x1 PUSH1 0xA0 SHL SUB SWAP7 DUP8 AND PUSH1 0x20 DUP3 ADD MSTORE SWAP7 SWAP1 SWAP5 AND SWAP4 DUP7 ADD SWAP4 SWAP1 SWAP4 MSTORE SWAP1 DUP4 AND PUSH1 0x60 DUP6 ADD MSTORE DUP3 AND PUSH1 0x80 DUP5 ADD MSTORE AND PUSH1 0xA0 DUP3 ADD MSTORE PUSH1 0xC0 ADD PUSH2 0x1E3 JUMP JUMPDEST CALLVALUE DUP1 ISZERO PUSH2 0x372 JUMPI PUSH1 0x0 DUP1 REVERT JUMPDEST POP PUSH2 0x1B5 PUSH2 0x381 CALLDATASIZE PUSH1 0x4 PUSH2 0x47C8 JUMP JUMPDEST PUSH2 0xDF8 JUMP JUMPDEST CALLVALUE DUP1 ISZERO PUSH2 0x392 JUMPI PUSH1 0x0 DUP1 REVERT JUMPDEST POP PUSH2 0x1B5 PUSH2 0x3A1 CALLDATASIZE PUSH1 0x4 PUSH2 0x47C8 JUMP JUMPDEST PUSH2 0xE72 JUMP JUMPDEST CALLVALUE DUP1 ISZERO PUSH2 0x3B2 JUMPI PUSH1 0x0 DUP1 REVERT JUMPDEST POP PUSH2 0x1B5 PUSH2 0xF4A JUMP JUMPDEST CALLVALUE DUP1 ISZERO PUSH2 0x3C7 JUMPI PUSH1 0x0 DUP1 REVERT JUMPDEST POP PUSH2 0x49D PUSH2 0x3D6 CALLDATASIZE PUSH1 0x4 PUSH2 0x48C3 JUMP JUMPDEST DUP1 MLOAD DUP1 DUP3 ADD PUSH1 0x20 SWAP1 DUP2 ADD DUP1 MLOAD PUSH1 0x4 DUP3 MSTORE SWAP3 DUP3 ADD SWAP4 DUP3 ADD SWAP4 SWAP1 SWAP4 KECCAK256 SWAP2 SWAP1 SWAP3 MSTORE DUP1 SLOAD PUSH1 0x1 DUP3 ADD SLOAD PUSH1 0x2 DUP4 ADD SLOAD PUSH1 0x40 DUP1 MLOAD PUSH1 0xC0 DUP2 ADD DUP3 MSTORE PUSH1 0x5 DUP7 ADD SLOAD PUSH1 0x1 PUSH1 0x1 PUSH1 0xA0 SHL SUB SWAP1 DUP2 AND DUP3 MSTORE PUSH1 0x6 DUP8 ADD SLOAD DUP2 AND SWAP8 DUP3 ADD SWAP8 SWAP1 SWAP8 MSTORE PUSH1 0x7 DUP7 ADD SLOAD DUP1 DUP9 AND SWAP3 DUP3 ADD SWAP3 SWAP1 SWAP3 MSTORE PUSH2 0xFFFF PUSH1 0x1 PUSH1 0xA0 SHL SWAP3 DUP4 SWAP1 DIV DUP2 AND PUSH1 0x60 DUP4 ADD MSTORE PUSH1 0x8 DUP8 ADD SLOAD DUP1 DUP10 AND PUSH1 0x80 DUP5 ADD MSTORE DUP4 SWAP1 DIV AND PUSH1 0xA0 DUP3 ADD MSTORE PUSH1 0x9 SWAP1 SWAP6 ADD SLOAD SWAP6 DUP5 AND SWAP6 PUSH1 0x1 PUSH1 0x1 PUSH1 0x40 SHL SUB SWAP2 SWAP1 SWAP5 DIV DUP2 AND SWAP5 SWAP3 DUP2 AND SWAP4 SWAP2 SWAP3 SWAP2 SWAP1 DUP2 AND SWAP1 PUSH1 0xFF PUSH1 0x1 PUSH1 0x40 SHL DUP3 DIV DUP2 AND SWAP2 PUSH1 0x1 PUSH1 0x48 SHL SWAP1 DIV AND DUP9 JUMP JUMPDEST PUSH1 0x40 MLOAD PUSH2 0x1E3 SWAP9 SWAP8 SWAP7 SWAP6 SWAP5 SWAP4 SWAP3 SWAP2 SWAP1 PUSH2 0x4A6C JUMP JUMPDEST CALLVALUE DUP1 ISZERO PUSH2 0x4BD JUMPI PUSH1 0x0 DUP1 REVERT JUMPDEST POP PUSH2 0x4E9 PUSH2 0x4CC CALLDATASIZE PUSH1 0x4 PUSH2 0x48C3 JUMP JUMPDEST DUP1 MLOAD PUSH1 0x20 DUP2 DUP4 ADD DUP2 ADD DUP1 MLOAD PUSH1 0x5 DUP3 MSTORE SWAP3 DUP3 ADD SWAP2 SWAP1 SWAP4 ADD KECCAK256 SWAP2 MSTORE SLOAD DUP2 JUMP JUMPDEST PUSH1 0x40 MLOAD SWAP1 DUP2 MSTORE PUSH1 0x20 ADD PUSH2 0x1E3 JUMP JUMPDEST CALLVALUE DUP1 ISZERO PUSH2 0x503 JUMPI PUSH1 0x0 DUP1 REVERT JUMPDEST POP PUSH1 0x1 SLOAD PUSH1 0x1 PUSH1 0x1 PUSH1 0xA0 SHL SUB AND JUMPDEST PUSH1 0x40 MLOAD PUSH1 0x1 PUSH1 0x1 PUSH1 0xA0 SHL SUB SWAP1 SWAP2 AND DUP2 MSTORE PUSH1 0x20 ADD PUSH2 0x1E3 JUMP JUMPDEST CALLVALUE DUP1 ISZERO PUSH2 0x535 JUMPI PUSH1 0x0 DUP1 REVERT JUMPDEST POP PUSH2 0x1B5 PUSH2 0x544 CALLDATASIZE PUSH1 0x4 PUSH2 0x47C8 JUMP JUMPDEST PUSH2 0xFBE JUMP JUMPDEST PUSH2 0x55C PUSH2 0x557 CALLDATASIZE PUSH1 0x4 PUSH2 0x4ADF JUMP JUMPDEST PUSH2 0x1080 JUMP JUMPDEST PUSH1 0x40 MLOAD PUSH2 0x1E3 SWAP2 SWAP1 PUSH2 0x4BEF JUMP JUMPDEST CALLVALUE DUP1 ISZERO PUSH2 0x575 JUMPI PUSH1 0x0 DUP1 REVERT JUMPDEST POP PUSH2 0x1B5 PUSH2 0x584 CALLDATASIZE PUSH1 0x4 PUSH2 0x4C02 JUMP JUMPDEST PUSH2 0x1594 JUMP JUMPDEST CALLVALUE DUP1 ISZERO PUSH2 0x595 JUMPI PUSH1 0x0 DUP1 REVERT JUMPDEST POP PUSH2 0x1B5 PUSH2 0x5A4 CALLDATASIZE PUSH1 0x4 PUSH2 0x4C68 JUMP JUMPDEST PUSH2 0x16CC JUMP JUMPDEST CALLVALUE DUP1 ISZERO PUSH2 0x5B5 JUMPI PUSH1 0x0 DUP1 REVERT JUMPDEST POP PUSH1 0x7 SLOAD PUSH2 0x5CB SWAP1 PUSH1 0x1 PUSH1 0xA0 SHL SWAP1 DIV PUSH2 0xFFFF AND DUP2 JUMP JUMPDEST PUSH1 0x40 MLOAD PUSH2 0xFFFF SWAP1 SWAP2 AND DUP2 MSTORE PUSH1 0x20 ADD PUSH2 0x1E3 JUMP JUMPDEST CALLVALUE DUP1 ISZERO PUSH2 0x5EA JUMPI PUSH1 0x0 DUP1 REVERT JUMPDEST POP PUSH1 0x9 SLOAD PUSH2 0x511 SWAP1 PUSH1 0x1 PUSH1 0x1 PUSH1 0xA0 SHL SUB AND DUP2 JUMP JUMPDEST CALLVALUE DUP1 ISZERO PUSH2 0x60A JUMPI PUSH1 0x0 DUP1 REVERT JUMPDEST POP PUSH1 0x7 SLOAD PUSH2 0x511 SWAP1 PUSH1 0x1 PUSH1 0x1 PUSH1 0xA0 SHL SUB AND DUP2 JUMP JUMPDEST CALLVALUE DUP1 ISZERO PUSH2 0x62A JUMPI PUSH1 0x0 DUP1 REVERT JUMPDEST POP PUSH2 0x63E PUSH2 0x639 CALLDATASIZE PUSH1 0x4 PUSH2 0x4996 JUMP JUMPDEST PUSH2 0x179F JUMP JUMPDEST PUSH1 0x40 MLOAD PUSH2 0x1E3 SWAP3 SWAP2 SWAP1 PUSH2 0x4C85 JUMP JUMPDEST CALLVALUE DUP1 ISZERO PUSH2 0x658 JUMPI PUSH1 0x0 DUP1 REVERT JUMPDEST POP PUSH2 0x1B5 PUSH2 0x667 CALLDATASIZE PUSH1 0x4 PUSH2 0x4D06 JUMP JUMPDEST PUSH2 0x188F JUMP JUMPDEST CALLVALUE DUP1 ISZERO PUSH2 0x678 JUMPI PUSH1 0x0 DUP1 REVERT JUMPDEST POP PUSH1 0x8 SLOAD PUSH2 0x511 SWAP1 PUSH1 0x1 PUSH1 0x1 PUSH1 0xA0 SHL SUB AND DUP2 JUMP JUMPDEST CALLVALUE DUP1 ISZERO PUSH2 0x698 JUMPI PUSH1 0x0 DUP1 REVERT JUMPDEST POP PUSH2 0x1B5 PUSH2 0x6A7 CALLDATASIZE PUSH1 0x4 PUSH2 0x4C02 JUMP JUMPDEST PUSH2 0x1B13 JUMP JUMPDEST CALLVALUE DUP1 ISZERO PUSH2 0x6B8 JUMPI PUSH1 0x0 DUP1 REVERT JUMPDEST POP PUSH2 0x1B5 PUSH2 0x6C7 CALLDATASIZE PUSH1 0x4 PUSH2 0x47C8 JUMP JUMPDEST PUSH2 0x1C4B JUMP JUMPDEST CALLVALUE DUP1 ISZERO PUSH2 0x6D8 JUMPI PUSH1 0x0 DUP1 REVERT JUMPDEST POP PUSH2 0x1B5 PUSH2 0x6E7 CALLDATASIZE PUSH1 0x4 PUSH2 0x4DBD JUMP JUMPDEST PUSH2 0x1D36 JUMP JUMPDEST PUSH1 0x0 PUSH1 0x1 PUSH1 0x1 PUSH1 0xE0 SHL SUB NOT DUP3 AND PUSH4 0x2A9F3ABF PUSH1 0xE1 SHL EQ DUP1 PUSH2 0x71D JUMPI POP PUSH4 0x1FFC9A7 PUSH1 0xE0 SHL PUSH1 0x1 PUSH1 0x1 PUSH1 0xE0 SHL SUB NOT DUP4 AND EQ JUMPDEST SWAP3 SWAP2 POP POP JUMP JUMPDEST CALLER PUSH2 0x736 PUSH1 0x1 SLOAD PUSH1 0x1 PUSH1 0x1 PUSH1 0xA0 SHL SUB AND SWAP1 JUMP JUMPDEST PUSH1 0x1 PUSH1 0x1 PUSH1 0xA0 SHL SUB AND EQ DUP1 PUSH2 0x751 JUMPI POP PUSH2 0x751 PUSH1 0x2 CALLER PUSH2 0x2687 JUMP JUMPDEST PUSH2 0x776 JUMPI PUSH1 0x40 MLOAD PUSH3 0x461BCD PUSH1 0xE5 SHL DUP2 MSTORE PUSH1 0x4 ADD PUSH2 0x76D SWAP1 PUSH2 0x4E2E JUMP JUMPDEST PUSH1 0x40 MLOAD DUP1 SWAP2 SUB SWAP1 REVERT JUMPDEST PUSH1 0x1 PUSH1 0x1 PUSH1 0x40 SHL SUB DUP2 AND ISZERO DUP1 ISZERO SWAP1 PUSH2 0x7A3 JUMPI POP PUSH1 0x9 SLOAD PUSH1 0x1 PUSH1 0x1 PUSH1 0x40 SHL SUB DUP3 DUP2 AND PUSH1 0x1 PUSH1 0xA0 SHL SWAP1 SWAP3 DIV AND EQ ISZERO JUMPDEST PUSH2 0x7AC JUMPI PUSH1 0x0 DUP1 REVERT JUMPDEST PUSH1 0x9 DUP1 SLOAD PUSH1 0x1 PUSH1 0x1 PUSH1 0x40 SHL SUB SWAP1 SWAP3 AND PUSH1 0x1 PUSH1 0xA0 SHL MUL PUSH8 0xFFFFFFFFFFFFFFFF PUSH1 0xA0 SHL NOT SWAP1 SWAP3 AND SWAP2 SWAP1 SWAP2 OR SWAP1 SSTORE JUMP JUMPDEST PUSH1 0x0 DUP2 PUSH1 0x1 PUSH1 0x1 PUSH1 0xA0 SHL SUB AND PUSH2 0x7F7 PUSH1 0x1 SLOAD PUSH1 0x1 PUSH1 0x1 PUSH1 0xA0 SHL SUB AND SWAP1 JUMP JUMPDEST PUSH1 0x1 PUSH1 0x1 PUSH1 0xA0 SHL SUB AND EQ DUP1 PUSH2 0x71D JUMPI POP PUSH2 0x71D PUSH1 0x2 DUP4 PUSH2 0x2687 JUMP JUMPDEST CALLER PUSH2 0x825 PUSH1 0x1 SLOAD PUSH1 0x1 PUSH1 0x1 PUSH1 0xA0 SHL SUB AND SWAP1 JUMP JUMPDEST PUSH1 0x1 PUSH1 0x1 PUSH1 0xA0 SHL SUB AND EQ DUP1 PUSH2 0x840 JUMPI POP PUSH2 0x840 PUSH1 0x2 CALLER PUSH2 0x2687 JUMP JUMPDEST PUSH2 0x85C JUMPI PUSH1 0x40 MLOAD PUSH3 0x461BCD PUSH1 0xE5 SHL DUP2 MSTORE PUSH1 0x4 ADD PUSH2 0x76D SWAP1 PUSH2 0x4E2E JUMP JUMPDEST PUSH1 0x6 DUP2 PUSH1 0x40 MLOAD PUSH2 0x86C SWAP2 SWAP1 PUSH2 0x4E96 JUMP JUMPDEST SWAP1 DUP2 MSTORE PUSH1 0x40 MLOAD SWAP1 DUP2 SWAP1 SUB PUSH1 0x20 ADD SWAP1 KECCAK256 SLOAD PUSH1 0xFF AND PUSH2 0x89B JUMPI PUSH1 0x40 MLOAD PUSH3 0x461BCD PUSH1 0xE5 SHL DUP2 MSTORE PUSH1 0x4 ADD PUSH2 0x76D SWAP1 PUSH2 0x4EB2 JUMP JUMPDEST PUSH1 0x4 DUP2 PUSH1 0x40 MLOAD PUSH2 0x8AB SWAP2 SWAP1 PUSH2 0x4E96 JUMP JUMPDEST SWAP1 DUP2 MSTORE PUSH1 0x40 MLOAD SWAP1 DUP2 SWAP1 SUB PUSH1 0x20 ADD SWAP1 KECCAK256 DUP1 SLOAD PUSH1 0x1 PUSH1 0x1 PUSH1 0xE0 SHL SUB NOT AND DUP2 SSTORE PUSH1 0x1 DUP2 ADD DUP1 SLOAD PUSH8 0xFFFFFFFFFFFFFFFF NOT AND SWAP1 SSTORE PUSH1 0x0 PUSH1 0x2 DUP3 ADD DUP2 SWAP1 SSTORE PUSH2 0x8F1 PUSH1 0x3 DUP4 ADD DUP3 PUSH2 0x466F JUMP JUMPDEST PUSH2 0x8FF PUSH1 0x4 DUP4 ADD PUSH1 0x0 PUSH2 0x466F JUMP JUMPDEST POP PUSH1 0x5 DUP2 ADD DUP1 SLOAD PUSH1 0x1 PUSH1 0x1 PUSH1 0xA0 SHL SUB NOT SWAP1 DUP2 AND SWAP1 SWAP2 SSTORE PUSH1 0x6 DUP3 ADD DUP1 SLOAD SWAP1 SWAP2 AND SWAP1 SSTORE PUSH1 0x7 DUP2 ADD DUP1 SLOAD PUSH1 0x1 PUSH1 0x1 PUSH1 0xB0 SHL SUB NOT SWAP1 DUP2 AND SWAP1 SWAP2 SSTORE PUSH1 0x8 DUP3 ADD DUP1 SLOAD SWAP1 SWAP2 AND SWAP1 SSTORE PUSH1 0x9 ADD DUP1 SLOAD PUSH10 0xFFFFFFFFFFFFFFFFFFFF NOT AND SWAP1 SSTORE PUSH1 0x40 MLOAD PUSH32 0xB6992D42B041F638F739EF922A21D84585F8E61E8ABCD7B93243C090F9AB9570 SWAP1 PUSH1 0x4 SWAP1 PUSH2 0x987 SWAP1 DUP5 SWAP1 PUSH2 0x4E96 JUMP JUMPDEST SWAP1 DUP2 MSTORE PUSH1 0x40 MLOAD SWAP1 DUP2 SWAP1 SUB PUSH1 0x20 ADD DUP2 KECCAK256 PUSH2 0x99F SWAP2 PUSH2 0x4F82 JUMP JUMPDEST PUSH1 0x40 MLOAD DUP1 SWAP2 SUB SWAP1 LOG1 POP JUMP JUMPDEST PUSH1 0x1 SLOAD PUSH1 0x1 PUSH1 0x1 PUSH1 0xA0 SHL SUB AND CALLER EQ PUSH2 0x9D4 JUMPI PUSH1 0x40 MLOAD PUSH3 0x461BCD PUSH1 0xE5 SHL DUP2 MSTORE PUSH1 0x4 ADD PUSH2 0x76D SWAP1 PUSH2 0x50A7 JUMP JUMPDEST PUSH2 0x9DF PUSH1 0x2 DUP3 PUSH2 0x2687 JUMP JUMPDEST ISZERO PUSH2 0xA27 JUMPI PUSH1 0x40 MLOAD CALLER SWAP1 PUSH1 0x1 PUSH1 0x1 PUSH1 0xA0 SHL SUB DUP4 AND SWAP1 PUSH32 0x7C0C3C84C67C85FCAC635147348BFE374C24A1A93D0366D1CFE9D8853CBF89D5 SWAP1 PUSH1 0x0 SWAP1 LOG3 PUSH2 0xA25 PUSH1 0x2 DUP3 PUSH2 0x26AC JUMP JUMPDEST POP JUMPDEST POP JUMP JUMPDEST PUSH1 0x60 PUSH2 0xA36 PUSH1 0x2 PUSH2 0x26C1 JUMP JUMPDEST PUSH1 0x1 PUSH1 0x1 PUSH1 0x40 SHL SUB DUP2 GT ISZERO PUSH2 0xA4D JUMPI PUSH2 0xA4D PUSH2 0x47E5 JUMP JUMPDEST PUSH1 0x40 MLOAD SWAP1 DUP1 DUP3 MSTORE DUP1 PUSH1 0x20 MUL PUSH1 0x20 ADD DUP3 ADD PUSH1 0x40 MSTORE DUP1 ISZERO PUSH2 0xA76 JUMPI DUP2 PUSH1 0x20 ADD PUSH1 0x20 DUP3 MUL DUP1 CALLDATASIZE DUP4 CALLDATACOPY ADD SWAP1 POP JUMPDEST POP SWAP1 POP PUSH1 0x0 JUMPDEST PUSH2 0xA86 PUSH1 0x2 PUSH2 0x26C1 JUMP JUMPDEST DUP2 LT ISZERO PUSH2 0xAD4 JUMPI PUSH2 0xA98 PUSH1 0x2 DUP3 PUSH2 0x26CB JUMP JUMPDEST DUP3 DUP3 DUP2 MLOAD DUP2 LT PUSH2 0xAAA JUMPI PUSH2 0xAAA PUSH2 0x50DC JUMP JUMPDEST PUSH1 0x1 PUSH1 0x1 PUSH1 0xA0 SHL SUB SWAP1 SWAP3 AND PUSH1 0x20 SWAP3 DUP4 MUL SWAP2 SWAP1 SWAP2 ADD SWAP1 SWAP2 ADD MSTORE DUP1 PUSH2 0xACC DUP2 PUSH2 0x5108 JUMP JUMPDEST SWAP2 POP POP PUSH2 0xA7C JUMP JUMPDEST POP SWAP1 JUMP JUMPDEST CALLER PUSH2 0xAEB PUSH1 0x1 SLOAD PUSH1 0x1 PUSH1 0x1 PUSH1 0xA0 SHL SUB AND SWAP1 JUMP JUMPDEST PUSH1 0x1 PUSH1 0x1 PUSH1 0xA0 SHL SUB AND EQ DUP1 PUSH2 0xB06 JUMPI POP PUSH2 0xB06 PUSH1 0x2 CALLER PUSH2 0x2687 JUMP JUMPDEST PUSH2 0xB22 JUMPI PUSH1 0x40 MLOAD PUSH3 0x461BCD PUSH1 0xE5 SHL DUP2 MSTORE PUSH1 0x4 ADD PUSH2 0x76D SWAP1 PUSH2 0x4E2E JUMP JUMPDEST PUSH1 0x40 DUP1 MLOAD PUSH1 0x0 DUP1 DUP3 MSTORE PUSH1 0x20 DUP3 ADD SWAP3 DUP4 SWAP1 MSTORE SWAP2 CALLER SWAP2 DUP3 SWAP2 SELFBALANCE SWAP2 PUSH2 0xB43 SWAP2 PUSH2 0x4E96 JUMP JUMPDEST PUSH1 0x0 PUSH1 0x40 MLOAD DUP1 DUP4 SUB DUP2 DUP6 DUP8 GAS CALL SWAP3 POP POP POP RETURNDATASIZE DUP1 PUSH1 0x0 DUP2 EQ PUSH2 0xB80 JUMPI PUSH1 0x40 MLOAD SWAP2 POP PUSH1 0x1F NOT PUSH1 0x3F RETURNDATASIZE ADD AND DUP3 ADD PUSH1 0x40 MSTORE RETURNDATASIZE DUP3 MSTORE RETURNDATASIZE PUSH1 0x0 PUSH1 0x20 DUP5 ADD RETURNDATACOPY PUSH2 0xB85 JUMP JUMPDEST PUSH1 0x60 SWAP2 POP JUMPDEST POP POP DUP1 SWAP3 POP POP DUP2 PUSH2 0xA25 JUMPI PUSH1 0x40 MLOAD PUSH3 0x461BCD PUSH1 0xE5 SHL DUP2 MSTORE PUSH1 0x20 PUSH1 0x4 DUP3 ADD MSTORE PUSH1 0x2C PUSH1 0x24 DUP3 ADD MSTORE PUSH32 0x776974686472617720746F2077697468647261772066756E64732E20506C6561 PUSH1 0x44 DUP3 ADD MSTORE PUSH12 0x39B2903A393C9030B3B0B4B7 PUSH1 0xA1 SHL PUSH1 0x64 DUP3 ADD MSTORE PUSH1 0x84 ADD PUSH2 0x76D JUMP JUMPDEST CALLER PUSH2 0xC00 PUSH1 0x1 SLOAD PUSH1 0x1 PUSH1 0x1 PUSH1 0xA0 SHL SUB AND SWAP1 JUMP JUMPDEST PUSH1 0x1 PUSH1 0x1 PUSH1 0xA0 SHL SUB AND EQ DUP1 PUSH2 0xC1B JUMPI POP PUSH2 0xC1B PUSH1 0x2 CALLER PUSH2 0x2687 JUMP JUMPDEST PUSH2 0xC37 JUMPI PUSH1 0x40 MLOAD PUSH3 0x461BCD PUSH1 0xE5 SHL DUP2 MSTORE PUSH1 0x4 ADD PUSH2 0x76D SWAP1 PUSH2 0x4E2E JUMP JUMPDEST PUSH1 0x1 PUSH1 0x1 PUSH1 0xA0 SHL SUB DUP2 AND PUSH2 0xCA1 JUMPI PUSH1 0x40 MLOAD PUSH3 0x461BCD PUSH1 0xE5 SHL DUP2 MSTORE PUSH1 0x20 PUSH1 0x4 DUP3 ADD MSTORE PUSH1 0x2B PUSH1 0x24 DUP3 ADD MSTORE PUSH32 0x726F79616C747920636F6E74726163742073686F756C64206E6F742062652061 PUSH1 0x44 DUP3 ADD MSTORE PUSH11 0x646472657373207A65726F PUSH1 0xA8 SHL PUSH1 0x64 DUP3 ADD MSTORE PUSH1 0x84 ADD PUSH2 0x76D JUMP JUMPDEST PUSH1 0x9 DUP1 SLOAD PUSH1 0x1 PUSH1 0x1 PUSH1 0xA0 SHL SUB NOT AND PUSH1 0x1 PUSH1 0x1 PUSH1 0xA0 SHL SUB SWAP3 SWAP1 SWAP3 AND SWAP2 SWAP1 SWAP2 OR SWAP1 SSTORE JUMP JUMPDEST PUSH1 0x0 DUP1 PUSH1 0x0 DUP1 PUSH1 0x0 DUP1 PUSH1 0x4 DUP9 DUP9 PUSH1 0x40 MLOAD PUSH2 0xCDE SWAP3 SWAP2 SWAP1 PUSH2 0x5121 JUMP JUMPDEST SWAP1 DUP2 MSTORE PUSH1 0x40 MLOAD SWAP1 DUP2 SWAP1 SUB PUSH1 0x20 ADD DUP2 KECCAK256 PUSH1 0x7 ADD SLOAD PUSH2 0xFFFF PUSH1 0x1 PUSH1 0xA0 SHL SWAP1 SWAP2 DIV AND SWAP7 POP PUSH1 0x4 SWAP1 PUSH2 0xD0F SWAP1 DUP11 SWAP1 DUP11 SWAP1 PUSH2 0x5121 JUMP JUMPDEST SWAP1 DUP2 MSTORE PUSH1 0x40 MLOAD SWAP1 DUP2 SWAP1 SUB PUSH1 0x20 ADD DUP2 KECCAK256 PUSH1 0x7 ADD SLOAD PUSH1 0x1 PUSH1 0x1 PUSH1 0xA0 SHL SUB AND SWAP6 POP PUSH1 0x4 SWAP1 PUSH2 0xD3D SWAP1 DUP11 SWAP1 DUP11 SWAP1 PUSH2 0x5121 JUMP JUMPDEST SWAP1 DUP2 MSTORE PUSH1 0x40 MLOAD SWAP1 DUP2 SWAP1 SUB PUSH1 0x20 ADD DUP2 KECCAK256 PUSH1 0x8 ADD SLOAD PUSH2 0xFFFF PUSH1 0x1 PUSH1 0xA0 SHL SWAP1 SWAP2 DIV AND SWAP5 POP PUSH1 0x4 SWAP1 PUSH2 0xD6E SWAP1 DUP11 SWAP1 DUP11 SWAP1 PUSH2 0x5121 JUMP JUMPDEST SWAP1 DUP2 MSTORE PUSH1 0x40 MLOAD SWAP1 DUP2 SWAP1 SUB PUSH1 0x20 ADD DUP2 KECCAK256 PUSH1 0x8 ADD SLOAD PUSH1 0x1 PUSH1 0x1 PUSH1 0xA0 SHL SUB AND SWAP4 POP PUSH1 0x4 SWAP1 PUSH2 0xD9C SWAP1 DUP11 SWAP1 DUP11 SWAP1 PUSH2 0x5121 JUMP JUMPDEST SWAP1 DUP2 MSTORE PUSH1 0x40 MLOAD SWAP1 DUP2 SWAP1 SUB PUSH1 0x20 ADD DUP2 KECCAK256 PUSH1 0x5 ADD SLOAD PUSH1 0x1 PUSH1 0x1 PUSH1 0xA0 SHL SUB AND SWAP3 POP PUSH1 0x4 SWAP1 PUSH2 0xDCA SWAP1 DUP11 SWAP1 DUP11 SWAP1 PUSH2 0x5121 JUMP JUMPDEST SWAP1 DUP2 MSTORE PUSH1 0x40 MLOAD SWAP1 DUP2 SWAP1 SUB PUSH1 0x20 ADD SWAP1 KECCAK256 PUSH1 0x6 ADD SLOAD SWAP6 SWAP9 SWAP5 SWAP8 POP SWAP3 SWAP6 POP SWAP1 SWAP4 SWAP1 SWAP3 PUSH1 0x1 PUSH1 0x1 PUSH1 0xA0 SHL SUB SWAP1 SWAP2 AND SWAP2 POP JUMP JUMPDEST PUSH1 0x1 SLOAD PUSH1 0x1 PUSH1 0x1 PUSH1 0xA0 SHL SUB AND CALLER EQ PUSH2 0xE22 JUMPI PUSH1 0x40 MLOAD PUSH3 0x461BCD PUSH1 0xE5 SHL DUP2 MSTORE PUSH1 0x4 ADD PUSH2 0x76D SWAP1 PUSH2 0x50A7 JUMP JUMPDEST PUSH2 0xE2D PUSH1 0x2 DUP3 PUSH2 0x2687 JUMP JUMPDEST PUSH2 0xA27 JUMPI PUSH1 0x40 MLOAD CALLER SWAP1 PUSH1 0x1 PUSH1 0x1 PUSH1 0xA0 SHL SUB DUP4 AND SWAP1 PUSH32 0x7E1A1A08D52E4BA0E21554733D66165FD5151F99460116223D9E3A608EEC5CB1 SWAP1 PUSH1 0x0 SWAP1 LOG3 PUSH2 0xA25 PUSH1 0x2 DUP3 PUSH2 0x26D7 JUMP JUMPDEST CALLER PUSH2 0xE85 PUSH1 0x1 SLOAD PUSH1 0x1 PUSH1 0x1 PUSH1 0xA0 SHL SUB AND SWAP1 JUMP JUMPDEST PUSH1 0x1 PUSH1 0x1 PUSH1 0xA0 SHL SUB AND EQ DUP1 PUSH2 0xEA0 JUMPI POP PUSH2 0xEA0 PUSH1 0x2 CALLER PUSH2 0x2687 JUMP JUMPDEST PUSH2 0xEBC JUMPI PUSH1 0x40 MLOAD PUSH3 0x461BCD PUSH1 0xE5 SHL DUP2 MSTORE PUSH1 0x4 ADD PUSH2 0x76D SWAP1 PUSH2 0x4E2E JUMP JUMPDEST PUSH1 0x1 PUSH1 0x1 PUSH1 0xA0 SHL SUB DUP2 AND PUSH2 0xF28 JUMPI PUSH1 0x40 MLOAD PUSH3 0x461BCD PUSH1 0xE5 SHL DUP2 MSTORE PUSH1 0x20 PUSH1 0x4 DUP3 ADD MSTORE PUSH1 0x2D PUSH1 0x24 DUP3 ADD MSTORE PUSH32 0x70726963656665656420636F6E74726163742073686F756C64206E6F74206265 PUSH1 0x44 DUP3 ADD MSTORE PUSH13 0x2061646472657373207A65726F PUSH1 0x98 SHL PUSH1 0x64 DUP3 ADD MSTORE PUSH1 0x84 ADD PUSH2 0x76D JUMP JUMPDEST PUSH1 0x8 DUP1 SLOAD PUSH1 0x1 PUSH1 0x1 PUSH1 0xA0 SHL SUB NOT AND PUSH1 0x1 PUSH1 0x1 PUSH1 0xA0 SHL SUB SWAP3 SWAP1 SWAP3 AND SWAP2 SWAP1 SWAP2 OR SWAP1 SSTORE JUMP JUMPDEST PUSH1 0x1 SLOAD PUSH1 0x1 PUSH1 0x1 PUSH1 0xA0 SHL SUB AND CALLER EQ PUSH2 0xF74 JUMPI PUSH1 0x40 MLOAD PUSH3 0x461BCD PUSH1 0xE5 SHL DUP2 MSTORE PUSH1 0x4 ADD PUSH2 0x76D SWAP1 PUSH2 0x50A7 JUMP JUMPDEST PUSH1 0x1 SLOAD PUSH1 0x40 MLOAD PUSH1 0x0 SWAP2 PUSH1 0x1 PUSH1 0x1 PUSH1 0xA0 SHL SUB AND SWAP1 PUSH32 0x8BE0079C531659141344CD1FD0A4F28419497F9722A3DAAFE3B4186F6B6457E0 SWAP1 DUP4 SWAP1 LOG3 PUSH1 0x1 DUP1 SLOAD PUSH1 0x1 PUSH1 0x1 PUSH1 0xA0 SHL SUB NOT AND SWAP1 SSTORE JUMP JUMPDEST CALLER PUSH2 0xFD1 PUSH1 0x1 SLOAD PUSH1 0x1 PUSH1 0x1 PUSH1 0xA0 SHL SUB AND SWAP1 JUMP JUMPDEST PUSH1 0x1 PUSH1 0x1 PUSH1 0xA0 SHL SUB AND EQ DUP1 PUSH2 0xFEC JUMPI POP PUSH2 0xFEC PUSH1 0x2 CALLER PUSH2 0x2687 JUMP JUMPDEST PUSH2 0x1008 JUMPI PUSH1 0x40 MLOAD PUSH3 0x461BCD PUSH1 0xE5 SHL DUP2 MSTORE PUSH1 0x4 ADD PUSH2 0x76D SWAP1 PUSH2 0x4E2E JUMP JUMPDEST PUSH1 0x1 PUSH1 0x1 PUSH1 0xA0 SHL SUB DUP2 AND PUSH2 0x105E JUMPI PUSH1 0x40 MLOAD PUSH3 0x461BCD PUSH1 0xE5 SHL DUP2 MSTORE PUSH1 0x20 PUSH1 0x4 DUP3 ADD MSTORE PUSH1 0x18 PUSH1 0x24 DUP3 ADD MSTORE PUSH32 0x496E76616C696420506C6174666F726D20416464726573730000000000000000 PUSH1 0x44 DUP3 ADD MSTORE PUSH1 0x64 ADD PUSH2 0x76D JUMP JUMPDEST PUSH1 0x7 DUP1 SLOAD PUSH1 0x1 PUSH1 0x1 PUSH1 0xA0 SHL SUB NOT AND PUSH1 0x1 PUSH1 0x1 PUSH1 0xA0 SHL SUB SWAP3 SWAP1 SWAP3 AND SWAP2 SWAP1 SWAP2 OR SWAP1 SSTORE JUMP JUMPDEST PUSH1 0x60 PUSH1 0x2 PUSH1 0x0 SLOAD SUB PUSH2 0x10D4 JUMPI PUSH1 0x40 MLOAD PUSH3 0x461BCD PUSH1 0xE5 SHL DUP2 MSTORE PUSH1 0x20 PUSH1 0x4 DUP3 ADD MSTORE PUSH1 0x1F PUSH1 0x24 DUP3 ADD MSTORE PUSH32 0x5265656E7472616E637947756172643A207265656E7472616E742063616C6C00 PUSH1 0x44 DUP3 ADD MSTORE PUSH1 0x64 ADD PUSH2 0x76D JUMP JUMPDEST PUSH1 0x2 PUSH1 0x0 SWAP1 DUP2 SSTORE DUP4 MLOAD PUSH1 0x40 MLOAD PUSH1 0x4 SWAP2 PUSH2 0x10EC SWAP2 PUSH2 0x4E96 JUMP JUMPDEST SWAP1 DUP2 MSTORE PUSH1 0x40 DUP1 MLOAD SWAP2 DUP3 SWAP1 SUB PUSH1 0x20 SWAP1 DUP2 ADD DUP4 KECCAK256 PUSH1 0xC0 DUP5 ADD DUP4 MSTORE PUSH1 0x5 DUP2 ADD SLOAD PUSH1 0x1 PUSH1 0x1 PUSH1 0xA0 SHL SUB SWAP1 DUP2 AND DUP6 MSTORE PUSH1 0x6 DUP3 ADD SLOAD DUP2 AND SWAP3 DUP6 ADD SWAP3 SWAP1 SWAP3 MSTORE PUSH1 0x7 DUP2 ADD SLOAD DUP1 DUP4 AND DUP6 DUP6 ADD MSTORE PUSH2 0xFFFF PUSH1 0x1 PUSH1 0xA0 SHL SWAP2 DUP3 SWAP1 DIV DUP2 AND PUSH1 0x60 DUP8 ADD MSTORE PUSH1 0x8 SWAP1 SWAP3 ADD SLOAD SWAP3 DUP4 AND PUSH1 0x80 DUP7 ADD MSTORE SWAP1 SWAP2 DIV AND PUSH1 0xA0 DUP4 ADD MSTORE DUP6 MLOAD SWAP1 MLOAD SWAP2 SWAP3 POP PUSH1 0x0 SWAP2 PUSH1 0x4 SWAP2 PUSH2 0x1170 SWAP2 PUSH2 0x4E96 JUMP JUMPDEST SWAP1 DUP2 MSTORE PUSH1 0x40 DUP1 MLOAD SWAP2 DUP3 SWAP1 SUB PUSH1 0x20 SWAP1 DUP2 ADD DUP4 KECCAK256 PUSH2 0x140 DUP5 ADD DUP4 MSTORE DUP1 SLOAD PUSH1 0x1 PUSH1 0x1 PUSH1 0xA0 SHL SUB DUP2 AND DUP6 MSTORE PUSH1 0x1 PUSH1 0x1 PUSH1 0x40 SHL SUB PUSH1 0x1 PUSH1 0xA0 SHL SWAP1 SWAP2 DIV DUP2 AND DUP6 DUP5 ADD MSTORE PUSH1 0x1 DUP3 ADD SLOAD AND DUP5 DUP5 ADD MSTORE PUSH1 0x2 DUP2 ADD SLOAD PUSH1 0x60 DUP6 ADD MSTORE PUSH1 0x3 DUP2 ADD DUP1 SLOAD DUP5 MLOAD DUP2 DUP6 MUL DUP2 ADD DUP6 ADD SWAP1 SWAP6 MSTORE DUP1 DUP6 MSTORE SWAP2 SWAP4 PUSH1 0x80 DUP7 ADD SWAP4 SWAP1 SWAP3 SWAP1 DUP4 ADD DUP3 DUP3 DUP1 ISZERO PUSH2 0x120F JUMPI PUSH1 0x20 MUL DUP3 ADD SWAP2 SWAP1 PUSH1 0x0 MSTORE PUSH1 0x20 PUSH1 0x0 KECCAK256 SWAP1 JUMPDEST DUP2 SLOAD DUP2 MSTORE PUSH1 0x20 ADD SWAP1 PUSH1 0x1 ADD SWAP1 DUP1 DUP4 GT PUSH2 0x11FB JUMPI JUMPDEST POP POP POP POP POP DUP2 MSTORE PUSH1 0x20 ADD PUSH1 0x4 DUP3 ADD DUP1 SLOAD DUP1 PUSH1 0x20 MUL PUSH1 0x20 ADD PUSH1 0x40 MLOAD SWAP1 DUP2 ADD PUSH1 0x40 MSTORE DUP1 SWAP3 SWAP2 SWAP1 DUP2 DUP2 MSTORE PUSH1 0x20 ADD DUP3 DUP1 SLOAD DUP1 ISZERO PUSH2 0x1271 JUMPI PUSH1 0x20 MUL DUP3 ADD SWAP2 SWAP1 PUSH1 0x0 MSTORE PUSH1 0x20 PUSH1 0x0 KECCAK256 SWAP1 JUMPDEST DUP2 SLOAD PUSH1 0x1 PUSH1 0x1 PUSH1 0xA0 SHL SUB AND DUP2 MSTORE PUSH1 0x1 SWAP1 SWAP2 ADD SWAP1 PUSH1 0x20 ADD DUP1 DUP4 GT PUSH2 0x1253 JUMPI JUMPDEST POP POP POP SWAP2 DUP4 MSTORE POP POP PUSH1 0x40 DUP1 MLOAD PUSH1 0xC0 DUP2 ADD DUP3 MSTORE PUSH1 0x5 DUP5 ADD SLOAD PUSH1 0x1 PUSH1 0x1 PUSH1 0xA0 SHL SUB SWAP1 DUP2 AND DUP3 MSTORE PUSH1 0x6 DUP6 ADD SLOAD DUP2 AND PUSH1 0x20 DUP4 DUP2 ADD SWAP2 SWAP1 SWAP2 MSTORE PUSH1 0x7 DUP7 ADD SLOAD DUP1 DUP4 AND DUP5 DUP7 ADD MSTORE PUSH2 0xFFFF PUSH1 0x1 PUSH1 0xA0 SHL SWAP2 DUP3 SWAP1 DIV DUP2 AND PUSH1 0x60 DUP1 DUP8 ADD SWAP2 SWAP1 SWAP2 MSTORE PUSH1 0x8 DUP10 ADD SLOAD SWAP5 DUP6 AND PUSH1 0x80 DUP8 ADD MSTORE SWAP2 SWAP1 SWAP4 DIV SWAP1 SWAP3 AND PUSH1 0xA0 DUP5 ADD MSTORE DUP5 ADD SWAP2 SWAP1 SWAP2 MSTORE PUSH1 0x9 DUP5 ADD SLOAD PUSH1 0x1 PUSH1 0x1 PUSH1 0x40 SHL SUB DUP2 AND SWAP3 DUP5 ADD SWAP3 SWAP1 SWAP3 MSTORE SWAP1 SWAP2 ADD SWAP1 PUSH1 0xFF PUSH1 0x1 PUSH1 0x40 SHL SWAP1 SWAP2 DIV AND PUSH1 0x1 DUP2 GT ISZERO PUSH2 0x131D JUMPI PUSH2 0x131D PUSH2 0x4A2B JUMP JUMPDEST PUSH1 0x1 DUP2 GT ISZERO PUSH2 0x132E JUMPI PUSH2 0x132E PUSH2 0x4A2B JUMP JUMPDEST DUP2 MSTORE PUSH1 0x20 ADD PUSH1 0x9 DUP3 ADD PUSH1 0x9 SWAP1 SLOAD SWAP1 PUSH2 0x100 EXP SWAP1 DIV PUSH1 0xFF AND PUSH1 0x1 DUP2 GT ISZERO PUSH2 0x1356 JUMPI PUSH2 0x1356 PUSH2 0x4A2B JUMP JUMPDEST PUSH1 0x1 DUP2 GT ISZERO PUSH2 0x1367 JUMPI PUSH2 0x1367 PUSH2 0x4A2B JUMP JUMPDEST SWAP1 MSTORE POP DUP6 MLOAD PUSH1 0x40 MLOAD SWAP2 SWAP3 POP PUSH1 0x6 SWAP2 PUSH2 0x137F SWAP2 SWAP1 PUSH2 0x4E96 JUMP JUMPDEST SWAP1 DUP2 MSTORE PUSH1 0x40 MLOAD SWAP1 DUP2 SWAP1 SUB PUSH1 0x20 ADD SWAP1 KECCAK256 SLOAD PUSH1 0xFF AND PUSH2 0x13AE JUMPI PUSH1 0x40 MLOAD PUSH3 0x461BCD PUSH1 0xE5 SHL DUP2 MSTORE PUSH1 0x4 ADD PUSH2 0x76D SWAP1 PUSH2 0x5131 JUMP JUMPDEST PUSH2 0x13B7 CALLER PUSH2 0x7D9 JUMP JUMPDEST DUP1 PUSH2 0x13CE JUMPI POP PUSH1 0x80 DUP6 ADD MLOAD PUSH1 0x1 PUSH1 0x1 PUSH1 0xA0 SHL SUB AND CALLER EQ JUMPDEST PUSH2 0x1451 JUMPI PUSH1 0x40 MLOAD PUSH3 0x461BCD PUSH1 0xE5 SHL DUP2 MSTORE PUSH1 0x20 PUSH1 0x4 DUP3 ADD MSTORE PUSH1 0x48 PUSH1 0x24 DUP3 ADD MSTORE PUSH32 0x4F6E6C7920746865206275796572206F722061646D696E206F72206F776E6572 PUSH1 0x44 DUP3 ADD MSTORE PUSH32 0x206F66207468697320636F6E74726163742063616E2063616C6C207468697320 PUSH1 0x64 DUP3 ADD MSTORE PUSH8 0x333AB731BA34B7B7 PUSH1 0xC1 SHL PUSH1 0x84 DUP3 ADD MSTORE PUSH1 0xA4 ADD PUSH2 0x76D JUMP JUMPDEST PUSH1 0x0 DUP1 PUSH2 0x149C DUP8 PUSH1 0x0 ADD MLOAD DUP9 PUSH1 0x40 ADD MLOAD DUP10 PUSH1 0x60 ADD MLOAD PUSH1 0x1 PUSH1 0x1 PUSH1 0x40 SHL SUB AND DUP11 PUSH1 0xA0 ADD MLOAD PUSH1 0x1 PUSH1 0x1 PUSH1 0x40 SHL SUB AND DUP12 PUSH1 0xC0 ADD MLOAD DUP12 DUP14 PUSH1 0xE0 ADD MLOAD PUSH2 0x1492 SWAP2 SWAP1 PUSH2 0x515B JUMP JUMPDEST DUP14 PUSH1 0x80 ADD MLOAD PUSH2 0x26EC JUMP JUMPDEST SWAP2 POP SWAP2 POP PUSH2 0x14DF DUP8 PUSH1 0x0 ADD MLOAD DUP9 PUSH1 0x20 ADD MLOAD DUP4 DUP11 PUSH1 0x80 ADD MLOAD DUP12 PUSH1 0x40 ADD MLOAD DUP13 PUSH1 0x60 ADD MLOAD PUSH1 0x1 PUSH1 0x1 PUSH1 0x40 SHL SUB AND DUP14 PUSH1 0xA0 ADD MLOAD PUSH1 0x1 PUSH1 0x1 PUSH1 0x40 SHL SUB AND DUP11 PUSH2 0x100 ADD MLOAD PUSH2 0x3166 JUMP JUMPDEST SWAP5 POP DUP6 ISZERO PUSH2 0x14FB JUMPI PUSH2 0x14FB CALLER DUP6 PUSH1 0x20 ADD MLOAD DUP10 PUSH1 0xC0 ADD MLOAD DUP10 PUSH2 0x3BC6 JUMP JUMPDEST PUSH2 0x152B DUP8 PUSH1 0x0 ADD MLOAD DUP4 DUP10 PUSH1 0xE0 ADD MLOAD PUSH2 0x1513 SWAP2 SWAP1 PUSH2 0x516E JUMP JUMPDEST DUP5 DUP11 PUSH1 0xC0 ADD MLOAD DUP12 PUSH1 0x40 ADD MLOAD DUP11 DUP8 DUP11 PUSH2 0x100 ADD MLOAD PUSH2 0x3CCA JUMP JUMPDEST DUP1 PUSH1 0x1 PUSH1 0x1 PUSH1 0xA0 SHL SUB AND PUSH32 0x92347FD034DEB76ED77249B761AEC05C6302665F18922499F245DDE63BCB0D1F DUP9 DUP8 DUP8 DUP11 DUP8 DUP9 DUP15 PUSH1 0xE0 ADD MLOAD PUSH2 0x156B SWAP2 SWAP1 PUSH2 0x516E JUMP JUMPDEST PUSH1 0x40 MLOAD PUSH2 0x157D SWAP7 SWAP6 SWAP5 SWAP4 SWAP3 SWAP2 SWAP1 PUSH2 0x51AD JUMP JUMPDEST PUSH1 0x40 MLOAD DUP1 SWAP2 SUB SWAP1 LOG2 POP POP POP POP PUSH1 0x1 PUSH1 0x0 SSTORE SWAP3 SWAP2 POP POP JUMP JUMPDEST CALLER PUSH2 0x15A7 PUSH1 0x1 SLOAD PUSH1 0x1 PUSH1 0x1 PUSH1 0xA0 SHL SUB AND SWAP1 JUMP JUMPDEST PUSH1 0x1 PUSH1 0x1 PUSH1 0xA0 SHL SUB AND EQ DUP1 PUSH2 0x15C2 JUMPI POP PUSH2 0x15C2 PUSH1 0x2 CALLER PUSH2 0x2687 JUMP JUMPDEST PUSH2 0x15DE JUMPI PUSH1 0x40 MLOAD PUSH3 0x461BCD PUSH1 0xE5 SHL DUP2 MSTORE PUSH1 0x4 ADD PUSH2 0x76D SWAP1 PUSH2 0x4E2E JUMP JUMPDEST PUSH1 0x6 DUP4 DUP4 PUSH1 0x40 MLOAD PUSH2 0x15F0 SWAP3 SWAP2 SWAP1 PUSH2 0x5121 JUMP JUMPDEST SWAP1 DUP2 MSTORE PUSH1 0x40 MLOAD SWAP1 DUP2 SWAP1 SUB PUSH1 0x20 ADD SWAP1 KECCAK256 SLOAD PUSH1 0xFF AND PUSH2 0x161F JUMPI PUSH1 0x40 MLOAD PUSH3 0x461BCD PUSH1 0xE5 SHL DUP2 MSTORE PUSH1 0x4 ADD PUSH2 0x76D SWAP1 PUSH2 0x5131 JUMP JUMPDEST PUSH1 0x1 PUSH1 0x1 PUSH1 0xA0 SHL SUB DUP2 AND ISZERO DUP1 ISZERO SWAP1 PUSH2 0x1666 JUMPI POP PUSH1 0x4 DUP4 DUP4 PUSH1 0x40 MLOAD PUSH2 0x1644 SWAP3 SWAP2 SWAP1 PUSH2 0x5121 JUMP JUMPDEST SWAP1 DUP2 MSTORE PUSH1 0x40 MLOAD SWAP1 DUP2 SWAP1 SUB PUSH1 0x20 ADD SWAP1 KECCAK256 PUSH1 0x6 ADD SLOAD PUSH1 0x1 PUSH1 0x1 PUSH1 0xA0 SHL SUB DUP3 DUP2 AND SWAP2 AND EQ JUMPDEST PUSH2 0x1682 JUMPI PUSH1 0x40 MLOAD PUSH3 0x461BCD PUSH1 0xE5 SHL DUP2 MSTORE PUSH1 0x4 ADD PUSH2 0x76D SWAP1 PUSH2 0x5294 JUMP JUMPDEST DUP1 PUSH1 0x4 DUP5 DUP5 PUSH1 0x40 MLOAD PUSH2 0x1695 SWAP3 SWAP2 SWAP1 PUSH2 0x5121 JUMP JUMPDEST SWAP1 DUP2 MSTORE PUSH1 0x40 MLOAD SWAP1 DUP2 SWAP1 SUB PUSH1 0x20 ADD SWAP1 KECCAK256 PUSH1 0x6 ADD DUP1 SLOAD PUSH1 0x1 PUSH1 0x1 PUSH1 0xA0 SHL SUB SWAP3 SWAP1 SWAP3 AND PUSH1 0x1 PUSH1 0x1 PUSH1 0xA0 SHL SUB NOT SWAP1 SWAP3 AND SWAP2 SWAP1 SWAP2 OR SWAP1 SSTORE POP POP POP JUMP JUMPDEST CALLER PUSH2 0x16DF PUSH1 0x1 SLOAD PUSH1 0x1 PUSH1 0x1 PUSH1 0xA0 SHL SUB AND SWAP1 JUMP JUMPDEST PUSH1 0x1 PUSH1 0x1 PUSH1 0xA0 SHL SUB AND EQ DUP1 PUSH2 0x16FA JUMPI POP PUSH2 0x16FA PUSH1 0x2 CALLER PUSH2 0x2687 JUMP JUMPDEST PUSH2 0x1716 JUMPI PUSH1 0x40 MLOAD PUSH3 0x461BCD PUSH1 0xE5 SHL DUP2 MSTORE PUSH1 0x4 ADD PUSH2 0x76D SWAP1 PUSH2 0x4E2E JUMP JUMPDEST PUSH2 0x2710 DUP2 PUSH2 0xFFFF AND LT PUSH2 0x177D JUMPI PUSH1 0x40 MLOAD PUSH3 0x461BCD PUSH1 0xE5 SHL DUP2 MSTORE PUSH1 0x20 PUSH1 0x4 DUP3 ADD MSTORE PUSH1 0x29 PUSH1 0x24 DUP3 ADD MSTORE PUSH32 0x706C6174666F726D4665652073686F756C64206E6F74206265206D6F72652074 PUSH1 0x44 DUP3 ADD MSTORE PUSH9 0x68616E20313030303 PUSH1 0xBC SHL PUSH1 0x64 DUP3 ADD MSTORE PUSH1 0x84 ADD PUSH2 0x76D JUMP JUMPDEST PUSH1 0x7 DUP1 SLOAD PUSH2 0xFFFF SWAP1 SWAP3 AND PUSH1 0x1 PUSH1 0xA0 SHL MUL PUSH2 0xFFFF PUSH1 0xA0 SHL NOT SWAP1 SWAP3 AND SWAP2 SWAP1 SWAP2 OR SWAP1 SSTORE JUMP JUMPDEST PUSH1 0x60 DUP1 PUSH1 0x4 DUP5 DUP5 PUSH1 0x40 MLOAD PUSH2 0x17B4 SWAP3 SWAP2 SWAP1 PUSH2 0x5121 JUMP JUMPDEST SWAP1 DUP2 MSTORE PUSH1 0x40 DUP1 MLOAD SWAP2 DUP3 SWAP1 SUB PUSH1 0x20 SWAP1 DUP2 ADD DUP4 KECCAK256 PUSH1 0x3 ADD DUP1 SLOAD DUP1 DUP4 MUL DUP6 ADD DUP4 ADD SWAP1 SWAP4 MSTORE DUP3 DUP5 MSTORE SWAP2 SWAP1 DUP4 ADD DUP3 DUP3 DUP1 ISZERO PUSH2 0x1809 JUMPI PUSH1 0x20 MUL DUP3 ADD SWAP2 SWAP1 PUSH1 0x0 MSTORE PUSH1 0x20 PUSH1 0x0 KECCAK256 SWAP1 JUMPDEST DUP2 SLOAD DUP2 MSTORE PUSH1 0x20 ADD SWAP1 PUSH1 0x1 ADD SWAP1 DUP1 DUP4 GT PUSH2 0x17F5 JUMPI JUMPDEST POP POP POP POP POP SWAP2 POP PUSH1 0x4 DUP5 DUP5 PUSH1 0x40 MLOAD PUSH2 0x1822 SWAP3 SWAP2 SWAP1 PUSH2 0x5121 JUMP JUMPDEST SWAP1 DUP2 MSTORE PUSH1 0x40 DUP1 MLOAD SWAP2 DUP3 SWAP1 SUB PUSH1 0x20 SWAP1 DUP2 ADD DUP4 KECCAK256 PUSH1 0x4 ADD DUP1 SLOAD DUP1 DUP4 MUL DUP6 ADD DUP4 ADD SWAP1 SWAP4 MSTORE DUP3 DUP5 MSTORE SWAP2 SWAP1 DUP4 ADD DUP3 DUP3 DUP1 ISZERO PUSH2 0x1881 JUMPI PUSH1 0x20 MUL DUP3 ADD SWAP2 SWAP1 PUSH1 0x0 MSTORE PUSH1 0x20 PUSH1 0x0 KECCAK256 SWAP1 JUMPDEST DUP2 SLOAD PUSH1 0x1 PUSH1 0x1 PUSH1 0xA0 SHL SUB AND DUP2 MSTORE PUSH1 0x1 SWAP1 SWAP2 ADD SWAP1 PUSH1 0x20 ADD DUP1 DUP4 GT PUSH2 0x1863 JUMPI JUMPDEST POP POP POP POP POP SWAP1 POP SWAP3 POP SWAP3 SWAP1 POP JUMP JUMPDEST CALLER PUSH2 0x18A2 PUSH1 0x1 SLOAD PUSH1 0x1 PUSH1 0x1 PUSH1 0xA0 SHL SUB AND SWAP1 JUMP JUMPDEST PUSH1 0x1 PUSH1 0x1 PUSH1 0xA0 SHL SUB AND EQ DUP1 PUSH2 0x18BD JUMPI POP PUSH2 0x18BD PUSH1 0x2 CALLER PUSH2 0x2687 JUMP JUMPDEST PUSH2 0x18D9 JUMPI PUSH1 0x40 MLOAD PUSH3 0x461BCD PUSH1 0xE5 SHL DUP2 MSTORE PUSH1 0x4 ADD PUSH2 0x76D SWAP1 PUSH2 0x4E2E JUMP JUMPDEST PUSH1 0x6 DUP9 DUP9 PUSH1 0x40 MLOAD PUSH2 0x18EB SWAP3 SWAP2 SWAP1 PUSH2 0x5121 JUMP JUMPDEST SWAP1 DUP2 MSTORE PUSH1 0x40 MLOAD SWAP1 DUP2 SWAP1 SUB PUSH1 0x20 ADD SWAP1 KECCAK256 SLOAD PUSH1 0xFF AND PUSH2 0x191A JUMPI PUSH1 0x40 MLOAD PUSH3 0x461BCD PUSH1 0xE5 SHL DUP2 MSTORE PUSH1 0x4 ADD PUSH2 0x76D SWAP1 PUSH2 0x5131 JUMP JUMPDEST DUP6 PUSH1 0x4 DUP10 DUP10 PUSH1 0x40 MLOAD PUSH2 0x192D SWAP3 SWAP2 SWAP1 PUSH2 0x5121 JUMP JUMPDEST SWAP1 DUP2 MSTORE PUSH1 0x40 MLOAD SWAP1 DUP2 SWAP1 SUB PUSH1 0x20 ADD SWAP1 KECCAK256 PUSH1 0x9 ADD DUP1 SLOAD PUSH10 0xFF000000000000000000 NOT AND PUSH1 0x1 PUSH1 0x48 SHL DUP4 PUSH1 0x1 DUP2 GT ISZERO PUSH2 0x1965 JUMPI PUSH2 0x1965 PUSH2 0x4A2B JUMP JUMPDEST MUL OR SWAP1 SSTORE POP PUSH1 0x1 DUP7 PUSH1 0x1 DUP2 GT ISZERO PUSH2 0x197E JUMPI PUSH2 0x197E PUSH2 0x4A2B JUMP JUMPDEST SUB PUSH2 0x1A81 JUMPI DUP5 ISZERO PUSH2 0x19A1 JUMPI PUSH1 0x40 MLOAD PUSH3 0x461BCD PUSH1 0xE5 SHL DUP2 MSTORE PUSH1 0x4 ADD PUSH2 0x76D SWAP1 PUSH2 0x52F1 JUMP JUMPDEST DUP1 DUP4 EQ PUSH2 0x19C0 JUMPI PUSH1 0x40 MLOAD PUSH3 0x461BCD PUSH1 0xE5 SHL DUP2 MSTORE PUSH1 0x4 ADD PUSH2 0x76D SWAP1 PUSH2 0x534E JUMP JUMPDEST PUSH1 0x0 JUMPDEST DUP2 DUP2 LT ISZERO PUSH2 0x1A7B JUMPI PUSH1 0x0 DUP6 DUP6 DUP4 DUP2 DUP2 LT PUSH2 0x19DF JUMPI PUSH2 0x19DF PUSH2 0x50DC JUMP JUMPDEST SWAP1 POP PUSH1 0x20 MUL ADD CALLDATALOAD GT PUSH2 0x1A03 JUMPI PUSH1 0x40 MLOAD PUSH3 0x461BCD PUSH1 0xE5 SHL DUP2 MSTORE PUSH1 0x4 ADD PUSH2 0x76D SWAP1 PUSH2 0x53AB JUMP JUMPDEST DUP5 DUP5 PUSH1 0x4 DUP12 DUP12 PUSH1 0x40 MLOAD PUSH2 0x1A17 SWAP3 SWAP2 SWAP1 PUSH2 0x5121 JUMP JUMPDEST SWAP1 DUP2 MSTORE PUSH1 0x20 ADD PUSH1 0x40 MLOAD DUP1 SWAP2 SUB SWAP1 KECCAK256 PUSH1 0x3 ADD SWAP2 SWAP1 PUSH2 0x1A35 SWAP3 SWAP2 SWAP1 PUSH2 0x468D JUMP JUMPDEST POP DUP3 DUP3 PUSH1 0x4 DUP12 DUP12 PUSH1 0x40 MLOAD PUSH2 0x1A4A SWAP3 SWAP2 SWAP1 PUSH2 0x5121 JUMP JUMPDEST SWAP1 DUP2 MSTORE PUSH1 0x20 ADD PUSH1 0x40 MLOAD DUP1 SWAP2 SUB SWAP1 KECCAK256 PUSH1 0x4 ADD SWAP2 SWAP1 PUSH2 0x1A68 SWAP3 SWAP2 SWAP1 PUSH2 0x46D4 JUMP JUMPDEST POP DUP1 PUSH2 0x1A73 DUP2 PUSH2 0x5108 JUMP JUMPDEST SWAP2 POP POP PUSH2 0x19C3 JUMP JUMPDEST POP PUSH2 0x1B09 JUMP JUMPDEST PUSH1 0x0 DUP7 PUSH1 0x1 DUP2 GT ISZERO PUSH2 0x1A95 JUMPI PUSH2 0x1A95 PUSH2 0x4A2B JUMP JUMPDEST SUB PUSH2 0x1B09 JUMPI DUP1 ISZERO DUP1 ISZERO PUSH2 0x1AA6 JUMPI POP DUP3 ISZERO JUMPDEST PUSH2 0x1AC2 JUMPI PUSH1 0x40 MLOAD PUSH3 0x461BCD PUSH1 0xE5 SHL DUP2 MSTORE PUSH1 0x4 ADD PUSH2 0x76D SWAP1 PUSH2 0x53FE JUMP JUMPDEST PUSH1 0x0 DUP6 GT PUSH2 0x1AE2 JUMPI PUSH1 0x40 MLOAD PUSH3 0x461BCD PUSH1 0xE5 SHL DUP2 MSTORE PUSH1 0x4 ADD PUSH2 0x76D SWAP1 PUSH2 0x545B JUMP JUMPDEST DUP5 PUSH1 0x4 DUP10 DUP10 PUSH1 0x40 MLOAD PUSH2 0x1AF5 SWAP3 SWAP2 SWAP1 PUSH2 0x5121 JUMP JUMPDEST SWAP1 DUP2 MSTORE PUSH1 0x40 MLOAD SWAP1 DUP2 SWAP1 SUB PUSH1 0x20 ADD SWAP1 KECCAK256 PUSH1 0x2 ADD SSTORE JUMPDEST POP POP POP POP POP POP POP POP JUMP JUMPDEST CALLER PUSH2 0x1B26 PUSH1 0x1 SLOAD PUSH1 0x1 PUSH1 0x1 PUSH1 0xA0 SHL SUB AND SWAP1 JUMP JUMPDEST PUSH1 0x1 PUSH1 0x1 PUSH1 0xA0 SHL SUB AND EQ DUP1 PUSH2 0x1B41 JUMPI POP PUSH2 0x1B41 PUSH1 0x2 CALLER PUSH2 0x2687 JUMP JUMPDEST PUSH2 0x1B5D JUMPI PUSH1 0x40 MLOAD PUSH3 0x461BCD PUSH1 0xE5 SHL DUP2 MSTORE PUSH1 0x4 ADD PUSH2 0x76D SWAP1 PUSH2 0x4E2E JUMP JUMPDEST PUSH1 0x6 DUP4 DUP4 PUSH1 0x40 MLOAD PUSH2 0x1B6F SWAP3 SWAP2 SWAP1 PUSH2 0x5121 JUMP JUMPDEST SWAP1 DUP2 MSTORE PUSH1 0x40 MLOAD SWAP1 DUP2 SWAP1 SUB PUSH1 0x20 ADD SWAP1 KECCAK256 SLOAD PUSH1 0xFF AND PUSH2 0x1B9E JUMPI PUSH1 0x40 MLOAD PUSH3 0x461BCD PUSH1 0xE5 SHL DUP2 MSTORE PUSH1 0x4 ADD PUSH2 0x76D SWAP1 PUSH2 0x5131 JUMP JUMPDEST PUSH1 0x1 PUSH1 0x1 PUSH1 0xA0 SHL SUB DUP2 AND ISZERO DUP1 ISZERO SWAP1 PUSH2 0x1BE5 JUMPI POP PUSH1 0x4 DUP4 DUP4 PUSH1 0x40 MLOAD PUSH2 0x1BC3 SWAP3 SWAP2 SWAP1 PUSH2 0x5121 JUMP JUMPDEST SWAP1 DUP2 MSTORE PUSH1 0x40 MLOAD SWAP1 DUP2 SWAP1 SUB PUSH1 0x20 ADD SWAP1 KECCAK256 PUSH1 0x5 ADD SLOAD PUSH1 0x1 PUSH1 0x1 PUSH1 0xA0 SHL SUB DUP3 DUP2 AND SWAP2 AND EQ JUMPDEST PUSH2 0x1C01 JUMPI PUSH1 0x40 MLOAD PUSH3 0x461BCD PUSH1 0xE5 SHL DUP2 MSTORE PUSH1 0x4 ADD PUSH2 0x76D SWAP1 PUSH2 0x5294 JUMP JUMPDEST DUP1 PUSH1 0x4 DUP5 DUP5 PUSH1 0x40 MLOAD PUSH2 0x1C14 SWAP3 SWAP2 SWAP1 PUSH2 0x5121 JUMP JUMPDEST SWAP1 DUP2 MSTORE PUSH1 0x40 MLOAD SWAP1 DUP2 SWAP1 SUB PUSH1 0x20 ADD SWAP1 KECCAK256 PUSH1 0x5 ADD DUP1 SLOAD PUSH1 0x1 PUSH1 0x1 PUSH1 0xA0 SHL SUB SWAP3 SWAP1 SWAP3 AND PUSH1 0x1 PUSH1 0x1 PUSH1 0xA0 SHL SUB NOT SWAP1 SWAP3 AND SWAP2 SWAP1 SWAP2 OR SWAP1 SSTORE POP POP POP JUMP JUMPDEST PUSH1 0x1 SLOAD PUSH1 0x1 PUSH1 0x1 PUSH1 0xA0 SHL SUB AND CALLER EQ PUSH2 0x1C75 JUMPI PUSH1 0x40 MLOAD PUSH3 0x461BCD PUSH1 0xE5 SHL DUP2 MSTORE PUSH1 0x4 ADD PUSH2 0x76D SWAP1 PUSH2 0x50A7 JUMP JUMPDEST PUSH1 0x1 PUSH1 0x1 PUSH1 0xA0 SHL SUB DUP2 AND PUSH2 0x1CDA JUMPI PUSH1 0x40 MLOAD PUSH3 0x461BCD PUSH1 0xE5 SHL DUP2 MSTORE PUSH1 0x20 PUSH1 0x4 DUP3 ADD MSTORE PUSH1 0x26 PUSH1 0x24 DUP3 ADD MSTORE PUSH32 0x4F776E61626C653A206E6577206F776E657220697320746865207A65726F2061 PUSH1 0x44 DUP3 ADD MSTORE PUSH6 0x646472657373 PUSH1 0xD0 SHL PUSH1 0x64 DUP3 ADD MSTORE PUSH1 0x84 ADD PUSH2 0x76D JUMP JUMPDEST PUSH1 0x1 SLOAD PUSH1 0x40 MLOAD PUSH1 0x1 PUSH1 0x1 PUSH1 0xA0 SHL SUB DUP1 DUP5 AND SWAP3 AND SWAP1 PUSH32 0x8BE0079C531659141344CD1FD0A4F28419497F9722A3DAAFE3B4186F6B6457E0 SWAP1 PUSH1 0x0 SWAP1 LOG3 PUSH1 0x1 DUP1 SLOAD PUSH1 0x1 PUSH1 0x1 PUSH1 0xA0 SHL SUB NOT AND PUSH1 0x1 PUSH1 0x1 PUSH1 0xA0 SHL SUB SWAP3 SWAP1 SWAP3 AND SWAP2 SWAP1 SWAP2 OR SWAP1 SSTORE JUMP JUMPDEST CALLER PUSH2 0x1D49 PUSH1 0x1 SLOAD PUSH1 0x1 PUSH1 0x1 PUSH1 0xA0 SHL SUB AND SWAP1 JUMP JUMPDEST PUSH1 0x1 PUSH1 0x1 PUSH1 0xA0 SHL SUB AND EQ DUP1 PUSH2 0x1D64 JUMPI POP PUSH2 0x1D64 PUSH1 0x2 CALLER PUSH2 0x2687 JUMP JUMPDEST PUSH2 0x1D80 JUMPI PUSH1 0x40 MLOAD PUSH3 0x461BCD PUSH1 0xE5 SHL DUP2 MSTORE PUSH1 0x4 ADD PUSH2 0x76D SWAP1 PUSH2 0x4E2E JUMP JUMPDEST PUSH1 0x2 PUSH1 0x0 SLOAD SUB PUSH2 0x1DD2 JUMPI PUSH1 0x40 MLOAD PUSH3 0x461BCD PUSH1 0xE5 SHL DUP2 MSTORE PUSH1 0x20 PUSH1 0x4 DUP3 ADD MSTORE PUSH1 0x1F PUSH1 0x24 DUP3 ADD MSTORE PUSH32 0x5265656E7472616E637947756172643A207265656E7472616E742063616C6C00 PUSH1 0x44 DUP3 ADD MSTORE PUSH1 0x64 ADD PUSH2 0x76D JUMP JUMPDEST PUSH1 0x2 PUSH1 0x0 SWAP1 DUP2 SSTORE PUSH2 0x1DEB PUSH2 0x140 DUP6 ADD PUSH2 0x120 DUP7 ADD PUSH2 0x4C68 JUMP JUMPDEST PUSH2 0xFFFF AND ISZERO PUSH2 0x1E33 JUMPI PUSH2 0x1E06 PUSH2 0x180 DUP6 ADD PUSH2 0x160 DUP7 ADD PUSH2 0x4C68 JUMP JUMPDEST PUSH2 0x1E18 PUSH2 0x140 DUP7 ADD PUSH2 0x120 DUP8 ADD PUSH2 0x4C68 JUMP JUMPDEST PUSH2 0x1E22 SWAP2 SWAP1 PUSH2 0x54AC JUMP JUMPDEST PUSH2 0x1E2C SWAP1 DUP3 PUSH2 0x54AC JUMP JUMPDEST SWAP1 POP PUSH2 0x1E6A JUMP JUMPDEST PUSH2 0x1E45 PUSH2 0x180 DUP6 ADD PUSH2 0x160 DUP7 ADD PUSH2 0x4C68 JUMP JUMPDEST PUSH1 0x7 SLOAD PUSH2 0x1E5D SWAP2 SWAP1 PUSH1 0x1 PUSH1 0xA0 SHL SWAP1 DIV PUSH2 0xFFFF AND PUSH2 0x54AC JUMP JUMPDEST PUSH2 0x1E67 SWAP1 DUP3 PUSH2 0x54AC JUMP JUMPDEST SWAP1 POP JUMPDEST PUSH2 0x2710 DUP2 PUSH2 0xFFFF AND LT PUSH2 0x1EDB JUMPI PUSH1 0x40 MLOAD PUSH3 0x461BCD PUSH1 0xE5 SHL DUP2 MSTORE PUSH1 0x20 PUSH1 0x4 DUP3 ADD MSTORE PUSH1 0x33 PUSH1 0x24 DUP3 ADD MSTORE PUSH32 0x54686520746F74616C2066656520626173697320706F696E742073686F756C64 PUSH1 0x44 DUP3 ADD MSTORE PUSH19 0x206265206C657373207468616E20313030303 PUSH1 0x6C SHL PUSH1 0x64 DUP3 ADD MSTORE PUSH1 0x84 ADD PUSH2 0x76D JUMP JUMPDEST PUSH1 0x0 PUSH2 0x1EED PUSH1 0x40 DUP7 ADD PUSH1 0x20 DUP8 ADD PUSH2 0x478B JUMP JUMPDEST PUSH1 0x1 PUSH1 0x1 PUSH1 0x40 SHL SUB AND GT DUP1 ISZERO PUSH2 0x1F1B JUMPI POP PUSH1 0x0 PUSH2 0x1F10 PUSH1 0x60 DUP7 ADD PUSH1 0x40 DUP8 ADD PUSH2 0x478B JUMP JUMPDEST PUSH1 0x1 PUSH1 0x1 PUSH1 0x40 SHL SUB AND GT JUMPDEST ISZERO PUSH2 0x1FEC JUMPI PUSH2 0x1F30 PUSH1 0x40 DUP6 ADD PUSH1 0x20 DUP7 ADD PUSH2 0x478B JUMP JUMPDEST PUSH1 0x1 PUSH1 0x1 PUSH1 0x40 SHL SUB AND PUSH2 0x1F49 PUSH1 0x60 DUP7 ADD PUSH1 0x40 DUP8 ADD PUSH2 0x478B JUMP JUMPDEST PUSH1 0x1 PUSH1 0x1 PUSH1 0x40 SHL SUB AND LT ISZERO PUSH2 0x1FEC JUMPI PUSH1 0x40 MLOAD PUSH3 0x461BCD PUSH1 0xE5 SHL DUP2 MSTORE PUSH1 0x20 PUSH1 0x4 DUP3 ADD MSTORE PUSH1 0x5F PUSH1 0x24 DUP3 ADD MSTORE PUSH32 0x54686973206973206E6F7420612076616C6964204E4654207374617274206F72 PUSH1 0x44 DUP3 ADD MSTORE PUSH32 0x20656E6420746F6B656E2049442E20506C656173652076657269667920746861 PUSH1 0x64 DUP3 ADD MSTORE PUSH32 0x74207468652072616E67652070726F766964656420697320636F727265637400 PUSH1 0x84 DUP3 ADD MSTORE PUSH1 0xA4 ADD PUSH2 0x76D JUMP JUMPDEST PUSH1 0x1 PUSH2 0x2000 PUSH2 0x1E0 DUP7 ADD PUSH2 0x1C0 DUP8 ADD PUSH2 0x54C7 JUMP JUMPDEST PUSH1 0x1 DUP2 GT ISZERO PUSH2 0x2011 JUMPI PUSH2 0x2011 PUSH2 0x4A2B JUMP JUMPDEST SUB PUSH2 0x20E7 JUMPI PUSH1 0x60 DUP5 ADD CALLDATALOAD ISZERO PUSH2 0x2038 JUMPI PUSH1 0x40 MLOAD PUSH3 0x461BCD PUSH1 0xE5 SHL DUP2 MSTORE PUSH1 0x4 ADD PUSH2 0x76D SWAP1 PUSH2 0x52F1 JUMP JUMPDEST PUSH2 0x2045 PUSH1 0x80 DUP6 ADD DUP6 PUSH2 0x54E4 JUMP JUMPDEST SWAP1 POP PUSH2 0x2054 PUSH1 0xA0 DUP7 ADD DUP7 PUSH2 0x54E4 JUMP JUMPDEST SWAP1 POP EQ PUSH2 0x2073 JUMPI PUSH1 0x40 MLOAD PUSH3 0x461BCD PUSH1 0xE5 SHL DUP2 MSTORE PUSH1 0x4 ADD PUSH2 0x76D SWAP1 PUSH2 0x534E JUMP JUMPDEST PUSH1 0x0 JUMPDEST PUSH2 0x2083 PUSH1 0xA0 DUP7 ADD DUP7 PUSH2 0x54E4 JUMP JUMPDEST SWAP1 POP DUP2 LT ISZERO PUSH2 0x20E1 JUMPI PUSH1 0x0 PUSH2 0x209B PUSH1 0x80 DUP8 ADD DUP8 PUSH2 0x54E4 JUMP JUMPDEST DUP4 DUP2 DUP2 LT PUSH2 0x20AB JUMPI PUSH2 0x20AB PUSH2 0x50DC JUMP JUMPDEST SWAP1 POP PUSH1 0x20 MUL ADD CALLDATALOAD GT PUSH2 0x20CF JUMPI PUSH1 0x40 MLOAD PUSH3 0x461BCD PUSH1 0xE5 SHL DUP2 MSTORE PUSH1 0x4 ADD PUSH2 0x76D SWAP1 PUSH2 0x53AB JUMP JUMPDEST DUP1 PUSH2 0x20D9 DUP2 PUSH2 0x5108 JUMP JUMPDEST SWAP2 POP POP PUSH2 0x2076 JUMP JUMPDEST POP PUSH2 0x214F JUMP JUMPDEST PUSH2 0x20F4 PUSH1 0xA0 DUP6 ADD DUP6 PUSH2 0x54E4 JUMP JUMPDEST ISZERO SWAP1 POP DUP1 ISZERO PUSH2 0x210F JUMPI POP PUSH2 0x210B PUSH1 0x80 DUP6 ADD DUP6 PUSH2 0x54E4 JUMP JUMPDEST ISZERO SWAP1 POP JUMPDEST PUSH2 0x212B JUMPI PUSH1 0x40 MLOAD PUSH3 0x461BCD PUSH1 0xE5 SHL DUP2 MSTORE PUSH1 0x4 ADD PUSH2 0x76D SWAP1 PUSH2 0x53FE JUMP JUMPDEST PUSH1 0x0 DUP5 PUSH1 0x60 ADD CALLDATALOAD GT PUSH2 0x214F JUMPI PUSH1 0x40 MLOAD PUSH3 0x461BCD PUSH1 0xE5 SHL DUP2 MSTORE PUSH1 0x4 ADD PUSH2 0x76D SWAP1 PUSH2 0x545B JUMP JUMPDEST PUSH1 0x0 PUSH2 0x2163 PUSH2 0x1C0 DUP7 ADD PUSH2 0x1A0 DUP8 ADD PUSH2 0x54C7 JUMP JUMPDEST PUSH1 0x1 DUP2 GT ISZERO PUSH2 0x2174 JUMPI PUSH2 0x2174 PUSH2 0x4A2B JUMP JUMPDEST SUB PUSH2 0x22A0 JUMPI PUSH2 0x218B PUSH2 0x1A0 DUP6 ADD PUSH2 0x180 DUP7 ADD PUSH2 0x478B JUMP JUMPDEST PUSH1 0x1 PUSH1 0x1 PUSH1 0x40 SHL SUB AND PUSH1 0x0 SUB PUSH2 0x21ED JUMPI PUSH1 0x40 MLOAD PUSH3 0x461BCD PUSH1 0xE5 SHL DUP2 MSTORE PUSH1 0x20 PUSH1 0x4 DUP3 ADD MSTORE PUSH1 0x21 PUSH1 0x24 DUP3 ADD MSTORE PUSH32 0x73686F756C642070726F76696465206D617843617020666F72206D696E74696E PUSH1 0x44 DUP3 ADD MSTORE PUSH1 0x67 PUSH1 0xF8 SHL PUSH1 0x64 DUP3 ADD MSTORE PUSH1 0x84 ADD PUSH2 0x76D JUMP JUMPDEST PUSH2 0x21FD PUSH1 0x40 DUP6 ADD PUSH1 0x20 DUP7 ADD PUSH2 0x478B JUMP JUMPDEST PUSH1 0x1 PUSH1 0x1 PUSH1 0x40 SHL SUB AND ISZERO DUP1 ISZERO PUSH2 0x2229 JUMPI POP PUSH2 0x221E PUSH1 0x60 DUP6 ADD PUSH1 0x40 DUP7 ADD PUSH2 0x478B JUMP JUMPDEST PUSH1 0x1 PUSH1 0x1 PUSH1 0x40 SHL SUB AND ISZERO JUMPDEST PUSH2 0x229B JUMPI PUSH1 0x40 MLOAD PUSH3 0x461BCD PUSH1 0xE5 SHL DUP2 MSTORE PUSH1 0x20 PUSH1 0x4 DUP3 ADD MSTORE PUSH1 0x3D PUSH1 0x24 DUP3 ADD MSTORE PUSH32 0x546865204E46547374617274746F6B656E696420616E64204E4654656E64746F PUSH1 0x44 DUP3 ADD MSTORE PUSH32 0x6B656E69642073686F756C64206265203020666F72206D696E74696E67000000 PUSH1 0x64 DUP3 ADD MSTORE PUSH1 0x84 ADD PUSH2 0x76D JUMP JUMPDEST PUSH2 0x2318 JUMP JUMPDEST PUSH2 0x22B2 PUSH2 0x1A0 DUP6 ADD PUSH2 0x180 DUP7 ADD PUSH2 0x478B JUMP JUMPDEST PUSH1 0x1 PUSH1 0x1 PUSH1 0x40 SHL SUB AND ISZERO PUSH2 0x2318 JUMPI PUSH1 0x40 MLOAD PUSH3 0x461BCD PUSH1 0xE5 SHL DUP2 MSTORE PUSH1 0x20 PUSH1 0x4 DUP3 ADD MSTORE PUSH1 0x27 PUSH1 0x24 DUP3 ADD MSTORE PUSH32 0x6D61784361702073686F756C64206265203020666F72207072656D696E746564 PUSH1 0x44 DUP3 ADD MSTORE PUSH7 0x20746F6B656E73 PUSH1 0xC8 SHL PUSH1 0x64 DUP3 ADD MSTORE PUSH1 0x84 ADD PUSH2 0x76D JUMP JUMPDEST PUSH2 0x2325 PUSH1 0x20 DUP6 ADD DUP6 PUSH2 0x47C8 JUMP JUMPDEST PUSH1 0x40 MLOAD PUSH4 0x1FFC9A7 PUSH1 0xE0 SHL DUP2 MSTORE PUSH1 0x1 PUSH1 0x1 PUSH1 0xA0 SHL SUB SWAP2 SWAP1 SWAP2 AND SWAP1 PUSH4 0x1FFC9A7 SWAP1 PUSH2 0x235A SWAP1 PUSH4 0x80AC58CD PUSH1 0xE0 SHL SWAP1 PUSH1 0x4 ADD PUSH2 0x552D JUMP JUMPDEST PUSH1 0x20 PUSH1 0x40 MLOAD DUP1 DUP4 SUB DUP2 DUP7 GAS STATICCALL ISZERO DUP1 ISZERO PUSH2 0x2377 JUMPI RETURNDATASIZE PUSH1 0x0 DUP1 RETURNDATACOPY RETURNDATASIZE PUSH1 0x0 REVERT JUMPDEST POP POP POP POP PUSH1 0x40 MLOAD RETURNDATASIZE PUSH1 0x1F NOT PUSH1 0x1F DUP3 ADD AND DUP3 ADD DUP1 PUSH1 0x40 MSTORE POP DUP2 ADD SWAP1 PUSH2 0x239B SWAP2 SWAP1 PUSH2 0x5542 JUMP JUMPDEST DUP1 PUSH2 0x2424 JUMPI POP PUSH2 0x23AE PUSH1 0x20 DUP6 ADD DUP6 PUSH2 0x47C8 JUMP JUMPDEST PUSH1 0x40 MLOAD PUSH4 0x1FFC9A7 PUSH1 0xE0 SHL DUP2 MSTORE PUSH1 0x1 PUSH1 0x1 PUSH1 0xA0 SHL SUB SWAP2 SWAP1 SWAP2 AND SWAP1 PUSH4 0x1FFC9A7 SWAP1 PUSH2 0x23E3 SWAP1 PUSH4 0x6CDB3D13 PUSH1 0xE1 SHL SWAP1 PUSH1 0x4 ADD PUSH2 0x552D JUMP JUMPDEST PUSH1 0x20 PUSH1 0x40 MLOAD DUP1 DUP4 SUB DUP2 DUP7 GAS STATICCALL ISZERO DUP1 ISZERO PUSH2 0x2400 JUMPI RETURNDATASIZE PUSH1 0x0 DUP1 RETURNDATACOPY RETURNDATASIZE PUSH1 0x0 REVERT JUMPDEST POP POP POP POP PUSH1 0x40 MLOAD RETURNDATASIZE PUSH1 0x1F NOT PUSH1 0x1F DUP3 ADD AND DUP3 ADD DUP1 PUSH1 0x40 MSTORE POP DUP2 ADD SWAP1 PUSH2 0x2424 SWAP2 SWAP1 PUSH2 0x5542 JUMP JUMPDEST PUSH2 0x2496 JUMPI PUSH1 0x40 MLOAD PUSH3 0x461BCD PUSH1 0xE5 SHL DUP2 MSTORE PUSH1 0x20 PUSH1 0x4 DUP3 ADD MSTORE PUSH1 0x3E PUSH1 0x24 DUP3 ADD MSTORE PUSH32 0x73686F756C642070726F76696465206F6E6C7920737570706F7274656420636F PUSH1 0x44 DUP3 ADD MSTORE PUSH32 0x6E747261637420696E746572666163657320455243203732312F313135350000 PUSH1 0x64 DUP3 ADD MSTORE PUSH1 0x84 ADD PUSH2 0x76D JUMP JUMPDEST PUSH1 0x0 PUSH2 0x24A8 PUSH1 0xE0 DUP7 ADD PUSH1 0xC0 DUP8 ADD PUSH2 0x47C8 JUMP JUMPDEST PUSH1 0x1 PUSH1 0x1 PUSH1 0xA0 SHL SUB AND SUB PUSH2 0x2519 JUMPI PUSH1 0x40 MLOAD PUSH3 0x461BCD PUSH1 0xE5 SHL DUP2 MSTORE PUSH1 0x20 PUSH1 0x4 DUP3 ADD MSTORE PUSH1 0x32 PUSH1 0x24 DUP3 ADD MSTORE PUSH32 0x73686F756C642070726F766964652076616C69642077616C6C65742061646472 PUSH1 0x44 DUP3 ADD MSTORE PUSH18 0x195CDCC8199BDC881CD95D1D1B195B595B9D PUSH1 0x72 SHL PUSH1 0x64 DUP3 ADD MSTORE PUSH1 0x84 ADD PUSH2 0x76D JUMP JUMPDEST PUSH1 0x0 PUSH2 0x252C PUSH2 0x100 DUP7 ADD PUSH1 0xE0 DUP8 ADD PUSH2 0x47C8 JUMP JUMPDEST PUSH1 0x1 PUSH1 0x1 PUSH1 0xA0 SHL SUB AND SUB PUSH2 0x25A1 JUMPI PUSH1 0x40 MLOAD PUSH3 0x461BCD PUSH1 0xE5 SHL DUP2 MSTORE PUSH1 0x20 PUSH1 0x4 DUP3 ADD MSTORE PUSH1 0x36 PUSH1 0x24 DUP3 ADD MSTORE PUSH32 0x73686F756C642070726F766964652076616C69642077616C6C65742061646472 PUSH1 0x44 DUP3 ADD MSTORE PUSH22 0x195CDCC8199BDC881D185E081CD95D1D1B195B595B9D PUSH1 0x52 SHL PUSH1 0x64 DUP3 ADD MSTORE PUSH1 0x84 ADD PUSH2 0x76D JUMP JUMPDEST PUSH1 0x6 DUP4 DUP4 PUSH1 0x40 MLOAD PUSH2 0x25B3 SWAP3 SWAP2 SWAP1 PUSH2 0x5121 JUMP JUMPDEST SWAP1 DUP2 MSTORE PUSH1 0x40 MLOAD SWAP1 DUP2 SWAP1 SUB PUSH1 0x20 ADD SWAP1 KECCAK256 SLOAD PUSH1 0xFF AND ISZERO PUSH2 0x25E3 JUMPI PUSH1 0x40 MLOAD PUSH3 0x461BCD PUSH1 0xE5 SHL DUP2 MSTORE PUSH1 0x4 ADD PUSH2 0x76D SWAP1 PUSH2 0x4EB2 JUMP JUMPDEST DUP4 PUSH1 0x4 DUP5 DUP5 PUSH1 0x40 MLOAD PUSH2 0x25F6 SWAP3 SWAP2 SWAP1 PUSH2 0x5121 JUMP JUMPDEST SWAP1 DUP2 MSTORE PUSH1 0x40 MLOAD SWAP1 DUP2 SWAP1 SUB PUSH1 0x20 ADD SWAP1 KECCAK256 PUSH2 0x260F DUP3 DUP3 PUSH2 0x57D9 JUMP JUMPDEST SWAP1 POP POP PUSH1 0x1 PUSH1 0x6 DUP5 DUP5 PUSH1 0x40 MLOAD PUSH2 0x2626 SWAP3 SWAP2 SWAP1 PUSH2 0x5121 JUMP JUMPDEST SWAP1 DUP2 MSTORE PUSH1 0x40 MLOAD SWAP1 DUP2 SWAP1 SUB PUSH1 0x20 ADD DUP2 KECCAK256 DUP1 SLOAD SWAP3 ISZERO ISZERO PUSH1 0xFF NOT SWAP1 SWAP4 AND SWAP3 SWAP1 SWAP3 OR SWAP1 SWAP2 SSTORE PUSH32 0x5E497450A6BB5270282292FAB91DE64CB64F3E379288C411A7EAB0F283AFBBF5 SWAP1 PUSH2 0x2674 SWAP1 DUP7 SWAP1 PUSH2 0x5A55 JUMP JUMPDEST PUSH1 0x40 MLOAD DUP1 SWAP2 SUB SWAP1 LOG1 POP POP PUSH1 0x1 PUSH1 0x0 SSTORE POP POP JUMP JUMPDEST PUSH1 0x1 PUSH1 0x1 PUSH1 0xA0 SHL SUB DUP2 AND PUSH1 0x0 SWAP1 DUP2 MSTORE PUSH1 0x1 DUP4 ADD PUSH1 0x20 MSTORE PUSH1 0x40 DUP2 KECCAK256 SLOAD ISZERO ISZERO JUMPDEST SWAP4 SWAP3 POP POP POP JUMP JUMPDEST PUSH1 0x0 PUSH2 0x26A5 DUP4 PUSH1 0x1 PUSH1 0x1 PUSH1 0xA0 SHL SUB DUP5 AND PUSH2 0x3ED3 JUMP JUMPDEST PUSH1 0x0 PUSH2 0x71D DUP3 SLOAD SWAP1 JUMP JUMPDEST PUSH1 0x0 PUSH2 0x26A5 DUP4 DUP4 PUSH2 0x3FCD JUMP JUMPDEST PUSH1 0x0 PUSH2 0x26A5 DUP4 PUSH1 0x1 PUSH1 0x1 PUSH1 0xA0 SHL SUB DUP5 AND PUSH2 0x3FF7 JUMP JUMPDEST PUSH1 0x0 DUP1 PUSH1 0x0 PUSH1 0x4 DUP11 PUSH1 0x40 MLOAD PUSH2 0x2701 SWAP2 SWAP1 PUSH2 0x4E96 JUMP JUMPDEST SWAP1 DUP2 MSTORE PUSH1 0x40 DUP1 MLOAD SWAP2 DUP3 SWAP1 SUB PUSH1 0x20 SWAP1 DUP2 ADD DUP4 KECCAK256 PUSH2 0x140 DUP5 ADD DUP4 MSTORE DUP1 SLOAD PUSH1 0x1 PUSH1 0x1 PUSH1 0xA0 SHL SUB DUP2 AND DUP6 MSTORE PUSH1 0x1 PUSH1 0x1 PUSH1 0x40 SHL SUB PUSH1 0x1 PUSH1 0xA0 SHL SWAP1 SWAP2 DIV DUP2 AND DUP6 DUP5 ADD MSTORE PUSH1 0x1 DUP3 ADD SLOAD AND DUP5 DUP5 ADD MSTORE PUSH1 0x2 DUP2 ADD SLOAD PUSH1 0x60 DUP6 ADD MSTORE PUSH1 0x3 DUP2 ADD DUP1 SLOAD DUP5 MLOAD DUP2 DUP6 MUL DUP2 ADD DUP6 ADD SWAP1 SWAP6 MSTORE DUP1 DUP6 MSTORE SWAP2 SWAP4 PUSH1 0x80 DUP7 ADD SWAP4 SWAP1 SWAP3 SWAP1 DUP4 ADD DUP3 DUP3 DUP1 ISZERO PUSH2 0x27A0 JUMPI PUSH1 0x20 MUL DUP3 ADD SWAP2 SWAP1 PUSH1 0x0 MSTORE PUSH1 0x20 PUSH1 0x0 KECCAK256 SWAP1 JUMPDEST DUP2 SLOAD DUP2 MSTORE PUSH1 0x20 ADD SWAP1 PUSH1 0x1 ADD SWAP1 DUP1 DUP4 GT PUSH2 0x278C JUMPI JUMPDEST POP POP POP POP POP DUP2 MSTORE PUSH1 0x20 ADD PUSH1 0x4 DUP3 ADD DUP1 SLOAD DUP1 PUSH1 0x20 MUL PUSH1 0x20 ADD PUSH1 0x40 MLOAD SWAP1 DUP2 ADD PUSH1 0x40 MSTORE DUP1 SWAP3 SWAP2 SWAP1 DUP2 DUP2 MSTORE PUSH1 0x20 ADD DUP3 DUP1 SLOAD DUP1 ISZERO PUSH2 0x2802 JUMPI PUSH1 0x20 MUL DUP3 ADD SWAP2 SWAP1 PUSH1 0x0 MSTORE PUSH1 0x20 PUSH1 0x0 KECCAK256 SWAP1 JUMPDEST DUP2 SLOAD PUSH1 0x1 PUSH1 0x1 PUSH1 0xA0 SHL SUB AND DUP2 MSTORE PUSH1 0x1 SWAP1 SWAP2 ADD SWAP1 PUSH1 0x20 ADD DUP1 DUP4 GT PUSH2 0x27E4 JUMPI JUMPDEST POP POP POP SWAP2 DUP4 MSTORE POP POP PUSH1 0x40 DUP1 MLOAD PUSH1 0xC0 DUP2 ADD DUP3 MSTORE PUSH1 0x5 DUP5 ADD SLOAD PUSH1 0x1 PUSH1 0x1 PUSH1 0xA0 SHL SUB SWAP1 DUP2 AND DUP3 MSTORE PUSH1 0x6 DUP6 ADD SLOAD DUP2 AND PUSH1 0x20 DUP4 DUP2 ADD SWAP2 SWAP1 SWAP2 MSTORE PUSH1 0x7 DUP7 ADD SLOAD DUP1 DUP4 AND DUP5 DUP7 ADD MSTORE PUSH2 0xFFFF PUSH1 0x1 PUSH1 0xA0 SHL SWAP2 DUP3 SWAP1 DIV DUP2 AND PUSH1 0x60 DUP1 DUP8 ADD SWAP2 SWAP1 SWAP2 MSTORE PUSH1 0x8 DUP10 ADD SLOAD SWAP5 DUP6 AND PUSH1 0x80 DUP8 ADD MSTORE SWAP2 SWAP1 SWAP4 DIV SWAP1 SWAP3 AND PUSH1 0xA0 DUP5 ADD MSTORE DUP5 ADD SWAP2 SWAP1 SWAP2 MSTORE PUSH1 0x9 DUP5 ADD SLOAD PUSH1 0x1 PUSH1 0x1 PUSH1 0x40 SHL SUB DUP2 AND SWAP3 DUP5 ADD SWAP3 SWAP1 SWAP3 MSTORE SWAP1 SWAP2 ADD SWAP1 PUSH1 0xFF PUSH1 0x1 PUSH1 0x40 SHL SWAP1 SWAP2 DIV AND PUSH1 0x1 DUP2 GT ISZERO PUSH2 0x28AE JUMPI PUSH2 0x28AE PUSH2 0x4A2B JUMP JUMPDEST PUSH1 0x1 DUP2 GT ISZERO PUSH2 0x28BF JUMPI PUSH2 0x28BF PUSH2 0x4A2B JUMP JUMPDEST DUP2 MSTORE PUSH1 0x20 ADD PUSH1 0x9 DUP3 ADD PUSH1 0x9 SWAP1 SLOAD SWAP1 PUSH2 0x100 EXP SWAP1 DIV PUSH1 0xFF AND PUSH1 0x1 DUP2 GT ISZERO PUSH2 0x28E7 JUMPI PUSH2 0x28E7 PUSH2 0x4A2B JUMP JUMPDEST PUSH1 0x1 DUP2 GT ISZERO PUSH2 0x28F8 JUMPI PUSH2 0x28F8 PUSH2 0x4A2B JUMP JUMPDEST SWAP1 MSTORE POP PUSH1 0x20 DUP2 ADD MLOAD SWAP1 SWAP2 POP PUSH1 0x1 PUSH1 0x1 PUSH1 0x40 SHL SUB AND ISZERO DUP1 ISZERO PUSH2 0x2926 JUMPI POP PUSH1 0x0 DUP2 PUSH1 0x40 ADD MLOAD PUSH1 0x1 PUSH1 0x1 PUSH1 0x40 SHL SUB AND GT JUMPDEST ISZERO PUSH2 0x295D JUMPI DUP1 PUSH1 0x40 ADD MLOAD PUSH1 0x1 PUSH1 0x1 PUSH1 0x40 SHL SUB AND DUP10 GT ISZERO PUSH2 0x2958 JUMPI PUSH1 0x40 MLOAD PUSH3 0x461BCD PUSH1 0xE5 SHL DUP2 MSTORE PUSH1 0x4 ADD PUSH2 0x76D SWAP1 PUSH2 0x5B81 JUMP JUMPDEST PUSH2 0x2A2C JUMP JUMPDEST PUSH1 0x0 DUP2 PUSH1 0x20 ADD MLOAD PUSH1 0x1 PUSH1 0x1 PUSH1 0x40 SHL SUB AND GT DUP1 ISZERO PUSH2 0x2985 JUMPI POP PUSH1 0x40 DUP2 ADD MLOAD PUSH1 0x1 PUSH1 0x1 PUSH1 0x40 SHL SUB AND ISZERO JUMPDEST ISZERO PUSH2 0x29B7 JUMPI DUP1 PUSH1 0x20 ADD MLOAD PUSH1 0x1 PUSH1 0x1 PUSH1 0x40 SHL SUB AND DUP10 LT ISZERO PUSH2 0x2958 JUMPI PUSH1 0x40 MLOAD PUSH3 0x461BCD PUSH1 0xE5 SHL DUP2 MSTORE PUSH1 0x4 ADD PUSH2 0x76D SWAP1 PUSH2 0x5B81 JUMP JUMPDEST PUSH1 0x0 DUP2 PUSH1 0x20 ADD MLOAD PUSH1 0x1 PUSH1 0x1 PUSH1 0x40 SHL SUB AND GT DUP1 ISZERO PUSH2 0x29E1 JUMPI POP PUSH1 0x0 DUP2 PUSH1 0x40 ADD MLOAD PUSH1 0x1 PUSH1 0x1 PUSH1 0x40 SHL SUB AND GT JUMPDEST ISZERO PUSH2 0x2A2C JUMPI DUP1 PUSH1 0x20 ADD MLOAD PUSH1 0x1 PUSH1 0x1 PUSH1 0x40 SHL SUB AND DUP10 LT ISZERO DUP1 ISZERO PUSH2 0x2A10 JUMPI POP DUP1 PUSH1 0x40 ADD MLOAD PUSH1 0x1 PUSH1 0x1 PUSH1 0x40 SHL SUB AND DUP10 GT ISZERO JUMPDEST PUSH2 0x2A2C JUMPI PUSH1 0x40 MLOAD PUSH3 0x461BCD PUSH1 0xE5 SHL DUP2 MSTORE PUSH1 0x4 ADD PUSH2 0x76D SWAP1 PUSH2 0x5B81 JUMP JUMPDEST DUP1 MLOAD SWAP2 POP PUSH1 0x0 DUP2 PUSH2 0x120 ADD MLOAD PUSH1 0x1 DUP2 GT ISZERO PUSH2 0x2A49 JUMPI PUSH2 0x2A49 PUSH2 0x4A2B JUMP JUMPDEST SUB PUSH2 0x2AD0 JUMPI PUSH1 0x8 SLOAD PUSH1 0x60 DUP3 ADD MLOAD PUSH1 0x40 MLOAD PUSH4 0x748060B PUSH1 0xE3 SHL DUP2 MSTORE PUSH1 0x4 DUP2 ADD SWAP2 SWAP1 SWAP2 MSTORE PUSH1 0x1 PUSH1 0x1 PUSH1 0xA0 SHL SUB DUP9 DUP2 AND PUSH1 0x24 DUP4 ADD MSTORE SWAP1 SWAP2 AND SWAP1 PUSH4 0x3A403058 SWAP1 PUSH1 0x44 ADD PUSH1 0x20 PUSH1 0x40 MLOAD DUP1 DUP4 SUB DUP2 DUP7 GAS STATICCALL ISZERO DUP1 ISZERO PUSH2 0x2AA5 JUMPI RETURNDATASIZE PUSH1 0x0 DUP1 RETURNDATACOPY RETURNDATASIZE PUSH1 0x0 REVERT JUMPDEST POP POP POP POP PUSH1 0x40 MLOAD RETURNDATASIZE PUSH1 0x1F NOT PUSH1 0x1F DUP3 ADD AND DUP3 ADD DUP1 PUSH1 0x40 MSTORE POP DUP2 ADD SWAP1 PUSH2 0x2AC9 SWAP2 SWAP1 PUSH2 0x5BF6 JUMP JUMPDEST SWAP3 POP PUSH2 0x2B6D JUMP JUMPDEST PUSH1 0x1 DUP2 PUSH2 0x120 ADD MLOAD PUSH1 0x1 DUP2 GT ISZERO PUSH2 0x2AE9 JUMPI PUSH2 0x2AE9 PUSH2 0x4A2B JUMP JUMPDEST SUB PUSH2 0x2B6D JUMPI PUSH1 0x0 JUMPDEST DUP2 PUSH1 0xA0 ADD MLOAD MLOAD DUP2 LT ISZERO PUSH2 0x2B6B JUMPI DUP7 PUSH1 0x1 PUSH1 0x1 PUSH1 0xA0 SHL SUB AND DUP3 PUSH1 0xA0 ADD MLOAD DUP3 DUP2 MLOAD DUP2 LT PUSH2 0x2B1E JUMPI PUSH2 0x2B1E PUSH2 0x50DC JUMP JUMPDEST PUSH1 0x20 MUL PUSH1 0x20 ADD ADD MLOAD PUSH1 0x1 PUSH1 0x1 PUSH1 0xA0 SHL SUB AND SUB PUSH2 0x2B59 JUMPI DUP2 PUSH1 0x80 ADD MLOAD DUP2 DUP2 MLOAD DUP2 LT PUSH2 0x2B4A JUMPI PUSH2 0x2B4A PUSH2 0x50DC JUMP JUMPDEST PUSH1 0x20 MUL PUSH1 0x20 ADD ADD MLOAD SWAP4 POP PUSH2 0x2B6B JUMP JUMPDEST DUP1 PUSH2 0x2B63 DUP2 PUSH2 0x5108 JUMP JUMPDEST SWAP2 POP POP PUSH2 0x2AF1 JUMP JUMPDEST POP JUMPDEST DUP3 PUSH1 0x0 SUB PUSH2 0x2BD6 JUMPI PUSH1 0x40 MLOAD PUSH3 0x461BCD PUSH1 0xE5 SHL DUP2 MSTORE PUSH1 0x20 PUSH1 0x4 DUP3 ADD MSTORE PUSH1 0x30 PUSH1 0x24 DUP3 ADD MSTORE PUSH32 0x506C656173652070726F766964652076616C696420737570706F727465642045 PUSH1 0x44 DUP3 ADD MSTORE PUSH16 0x524332302F4554482061646472657373 PUSH1 0x80 SHL PUSH1 0x64 DUP3 ADD MSTORE PUSH1 0x84 ADD PUSH2 0x76D JUMP JUMPDEST PUSH1 0x0 DUP2 PUSH2 0x100 ADD MLOAD PUSH1 0x1 DUP2 GT ISZERO PUSH2 0x2BEF JUMPI PUSH2 0x2BEF PUSH2 0x4A2B JUMP JUMPDEST SUB PUSH2 0x2E49 JUMPI PUSH1 0x9 SLOAD PUSH1 0x1 PUSH1 0xA0 SHL SWAP1 DIV PUSH1 0x1 PUSH1 0x1 PUSH1 0x40 SHL SUB AND DUP8 GT ISZERO PUSH2 0x2CB2 JUMPI PUSH1 0x40 MLOAD PUSH3 0x461BCD PUSH1 0xE5 SHL DUP2 MSTORE PUSH1 0x20 PUSH1 0x4 DUP3 ADD MSTORE PUSH1 0x67 PUSH1 0x24 DUP3 ADD MSTORE PUSH32 0x546865206D6178696D756D207175616E7469747920616C6C6F77656420746F20 PUSH1 0x44 DUP3 ADD MSTORE PUSH32 0x7075726368617365206174206F6E652074696D652073686F756C64206E6F7420 PUSH1 0x64 DUP3 ADD MSTORE PUSH32 0x6265206D6F7265207468616E20646566696E656420696E206D61783131353551 PUSH1 0x84 DUP3 ADD MSTORE PUSH7 0x75616E74697479 PUSH1 0xC8 SHL PUSH1 0xA4 DUP3 ADD MSTORE PUSH1 0xC4 ADD PUSH2 0x76D JUMP JUMPDEST PUSH1 0x40 MLOAD PUSH4 0x1FFC9A7 PUSH1 0xE0 SHL DUP2 MSTORE PUSH1 0x1 PUSH1 0x1 PUSH1 0xA0 SHL SUB DUP4 AND SWAP1 PUSH4 0x1FFC9A7 SWAP1 PUSH2 0x2CE5 SWAP1 PUSH4 0x80AC58CD PUSH1 0xE0 SHL SWAP1 PUSH1 0x4 ADD PUSH2 0x552D JUMP JUMPDEST PUSH1 0x20 PUSH1 0x40 MLOAD DUP1 DUP4 SUB DUP2 DUP7 GAS STATICCALL ISZERO DUP1 ISZERO PUSH2 0x2D02 JUMPI RETURNDATASIZE PUSH1 0x0 DUP1 RETURNDATACOPY RETURNDATASIZE PUSH1 0x0 REVERT JUMPDEST POP POP POP POP PUSH1 0x40 MLOAD RETURNDATASIZE PUSH1 0x1F NOT PUSH1 0x1F DUP3 ADD AND DUP3 ADD DUP1 PUSH1 0x40 MSTORE POP DUP2 ADD SWAP1 PUSH2 0x2D26 SWAP2 SWAP1 PUSH2 0x5542 JUMP JUMPDEST ISZERO PUSH2 0x2D3C JUMPI PUSH2 0x2D35 DUP9 DUP5 PUSH2 0x559E JUMP JUMPDEST SWAP3 POP PUSH2 0x2E74 JUMP JUMPDEST PUSH1 0x40 MLOAD PUSH4 0x1FFC9A7 PUSH1 0xE0 SHL DUP2 MSTORE PUSH1 0x1 PUSH1 0x1 PUSH1 0xA0 SHL SUB DUP4 AND SWAP1 PUSH4 0x1FFC9A7 SWAP1 PUSH2 0x2D6F SWAP1 PUSH4 0x6CDB3D13 PUSH1 0xE1 SHL SWAP1 PUSH1 0x4 ADD PUSH2 0x552D JUMP JUMPDEST PUSH1 0x20 PUSH1 0x40 MLOAD DUP1 DUP4 SUB DUP2 DUP7 GAS STATICCALL ISZERO DUP1 ISZERO PUSH2 0x2D8C JUMPI RETURNDATASIZE PUSH1 0x0 DUP1 RETURNDATACOPY RETURNDATASIZE PUSH1 0x0 REVERT JUMPDEST POP POP POP POP PUSH1 0x40 MLOAD RETURNDATASIZE PUSH1 0x1F NOT PUSH1 0x1F DUP3 ADD AND DUP3 ADD DUP1 PUSH1 0x40 MSTORE POP DUP2 ADD SWAP1 PUSH2 0x2DB0 SWAP2 SWAP1 PUSH2 0x5542 JUMP JUMPDEST ISZERO PUSH2 0x2E44 JUMPI PUSH1 0x40 MLOAD PUSH4 0xBD85B039 PUSH1 0xE0 SHL DUP2 MSTORE PUSH1 0x4 DUP2 ADD DUP11 SWAP1 MSTORE PUSH1 0x1 PUSH1 0x1 PUSH1 0xA0 SHL SUB DUP4 AND SWAP1 PUSH4 0xBD85B039 SWAP1 PUSH1 0x24 ADD PUSH1 0x20 PUSH1 0x40 MLOAD DUP1 DUP4 SUB DUP2 DUP7 GAS STATICCALL ISZERO DUP1 ISZERO PUSH2 0x2DFA JUMPI RETURNDATASIZE PUSH1 0x0 DUP1 RETURNDATACOPY RETURNDATASIZE PUSH1 0x0 REVERT JUMPDEST POP POP POP POP PUSH1 0x40 MLOAD RETURNDATASIZE PUSH1 0x1F NOT PUSH1 0x1F DUP3 ADD AND DUP3 ADD DUP1 PUSH1 0x40 MSTORE POP DUP2 ADD SWAP1 PUSH2 0x2E1E SWAP2 SWAP1 PUSH2 0x5BF6 JUMP JUMPDEST PUSH1 0x0 SUB PUSH2 0x2E3A JUMPI DUP7 PUSH2 0x2E30 DUP10 DUP6 PUSH2 0x559E JUMP JUMPDEST PUSH2 0x2D35 SWAP2 SWAP1 PUSH2 0x559E JUMP JUMPDEST PUSH2 0x2D35 DUP8 DUP5 PUSH2 0x559E JUMP JUMPDEST PUSH2 0x2E74 JUMP JUMPDEST PUSH1 0x1 DUP2 PUSH2 0x100 ADD MLOAD PUSH1 0x1 DUP2 GT ISZERO PUSH2 0x2E62 JUMPI PUSH2 0x2E62 PUSH2 0x4A2B JUMP JUMPDEST SUB PUSH2 0x2E74 JUMPI PUSH2 0x2E71 DUP8 DUP5 PUSH2 0x559E JUMP JUMPDEST SWAP3 POP JUMPDEST PUSH1 0x1 PUSH1 0x1 PUSH1 0xA0 SHL SUB DUP7 AND PUSH2 0x2F39 JUMPI DUP5 CALLVALUE EQ DUP1 ISZERO PUSH2 0x2E91 JUMPI POP DUP3 DUP6 LT ISZERO JUMPDEST PUSH2 0x2F34 JUMPI PUSH1 0x40 MLOAD PUSH3 0x461BCD PUSH1 0xE5 SHL DUP2 MSTORE PUSH1 0x20 PUSH1 0x4 DUP3 ADD MSTORE PUSH1 0x62 PUSH1 0x24 DUP3 ADD MSTORE PUSH32 0x496E73756666696369656E742066756E6473206F7220696E76616C696420616D PUSH1 0x44 DUP3 ADD MSTORE PUSH32 0x6F756E742E20596F75206E65656420746F207061737320612076616C69642061 PUSH1 0x64 DUP3 ADD MSTORE PUSH32 0x6D6F756E7420746F20636F6D706C6574652074686973207472616E7361637469 PUSH1 0x84 DUP3 ADD MSTORE PUSH2 0x37B7 PUSH1 0xF1 SHL PUSH1 0xA4 DUP3 ADD MSTORE PUSH1 0xC4 ADD PUSH2 0x76D JUMP JUMPDEST PUSH2 0x3159 JUMP JUMPDEST PUSH1 0x40 MLOAD PUSH4 0x70A08231 PUSH1 0xE0 SHL DUP2 MSTORE PUSH1 0x1 PUSH1 0x1 PUSH1 0xA0 SHL SUB DUP6 DUP2 AND PUSH1 0x4 DUP4 ADD MSTORE DUP7 SWAP2 SWAP1 DUP9 AND SWAP1 PUSH4 0x70A08231 SWAP1 PUSH1 0x24 ADD PUSH1 0x20 PUSH1 0x40 MLOAD DUP1 DUP4 SUB DUP2 DUP7 GAS STATICCALL ISZERO DUP1 ISZERO PUSH2 0x2F82 JUMPI RETURNDATASIZE PUSH1 0x0 DUP1 RETURNDATACOPY RETURNDATASIZE PUSH1 0x0 REVERT JUMPDEST POP POP POP POP PUSH1 0x40 MLOAD RETURNDATASIZE PUSH1 0x1F NOT PUSH1 0x1F DUP3 ADD AND DUP3 ADD DUP1 PUSH1 0x40 MSTORE POP DUP2 ADD SWAP1 PUSH2 0x2FA6 SWAP2 SWAP1 PUSH2 0x5BF6 JUMP JUMPDEST LT ISZERO DUP1 ISZERO PUSH2 0x2FB4 JUMPI POP DUP3 DUP6 LT ISZERO JUMPDEST PUSH2 0x3042 JUMPI PUSH1 0x40 MLOAD PUSH3 0x461BCD PUSH1 0xE5 SHL DUP2 MSTORE PUSH1 0x20 PUSH1 0x4 DUP3 ADD MSTORE PUSH1 0x53 PUSH1 0x24 DUP3 ADD MSTORE PUSH32 0x496E73756666696369656E742066756E64732E20596F752073686F756C642068 PUSH1 0x44 DUP3 ADD MSTORE PUSH32 0x6176652073756666696369656E742062616C616E636520746F20636F6D706C65 PUSH1 0x64 DUP3 ADD MSTORE PUSH19 0x3A32903A3434B9903A3930B739B0B1BA34B7B7 PUSH1 0x69 SHL PUSH1 0x84 DUP3 ADD MSTORE PUSH1 0xA4 ADD PUSH2 0x76D JUMP JUMPDEST PUSH1 0x40 MLOAD PUSH4 0x6EB1769F PUSH1 0xE1 SHL DUP2 MSTORE PUSH1 0x1 PUSH1 0x1 PUSH1 0xA0 SHL SUB DUP6 DUP2 AND PUSH1 0x4 DUP4 ADD MSTORE ADDRESS PUSH1 0x24 DUP4 ADD MSTORE DUP7 SWAP2 SWAP1 DUP9 AND SWAP1 PUSH4 0xDD62ED3E SWAP1 PUSH1 0x44 ADD PUSH1 0x20 PUSH1 0x40 MLOAD DUP1 DUP4 SUB DUP2 DUP7 GAS STATICCALL ISZERO DUP1 ISZERO PUSH2 0x3091 JUMPI RETURNDATASIZE PUSH1 0x0 DUP1 RETURNDATACOPY RETURNDATASIZE PUSH1 0x0 REVERT JUMPDEST POP POP POP POP PUSH1 0x40 MLOAD RETURNDATASIZE PUSH1 0x1F NOT PUSH1 0x1F DUP3 ADD AND DUP3 ADD DUP1 PUSH1 0x40 MSTORE POP DUP2 ADD SWAP1 PUSH2 0x30B5 SWAP2 SWAP1 PUSH2 0x5BF6 JUMP JUMPDEST LT ISZERO PUSH2 0x3159 JUMPI PUSH1 0x40 MLOAD PUSH3 0x461BCD PUSH1 0xE5 SHL DUP2 MSTORE PUSH1 0x20 PUSH1 0x4 DUP3 ADD MSTORE PUSH1 0x61 PUSH1 0x24 DUP3 ADD MSTORE PUSH32 0x496E73756666696369656E7420617070726F76616C2066726F6D20616E204552 PUSH1 0x44 DUP3 ADD MSTORE PUSH32 0x43323020546F6B656E2E20506C656173652070726F7669646520617070726F76 PUSH1 0x64 DUP3 ADD MSTORE PUSH32 0x616C20746F207468697320636F6E747261637420616E64207472792061676169 PUSH1 0x84 DUP3 ADD MSTORE PUSH1 0x37 PUSH1 0xF9 SHL PUSH1 0xA4 DUP3 ADD MSTORE PUSH1 0xC4 ADD PUSH2 0x76D JUMP JUMPDEST POP SWAP8 POP SWAP8 SWAP6 POP POP POP POP POP POP JUMP JUMPDEST PUSH1 0x40 MLOAD PUSH4 0x1FFC9A7 PUSH1 0xE0 SHL DUP2 MSTORE PUSH1 0x60 SWAP1 PUSH1 0x1 PUSH1 0x1 PUSH1 0xA0 SHL SUB DUP9 AND SWAP1 PUSH4 0x1FFC9A7 SWAP1 PUSH2 0x319C SWAP1 PUSH4 0x80AC58CD PUSH1 0xE0 SHL SWAP1 PUSH1 0x4 ADD PUSH2 0x552D JUMP JUMPDEST PUSH1 0x20 PUSH1 0x40 MLOAD DUP1 DUP4 SUB DUP2 DUP7 GAS STATICCALL ISZERO DUP1 ISZERO PUSH2 0x31B9 JUMPI RETURNDATASIZE PUSH1 0x0 DUP1 RETURNDATACOPY RETURNDATASIZE PUSH1 0x0 REVERT JUMPDEST POP POP POP POP PUSH1 0x40 MLOAD RETURNDATASIZE PUSH1 0x1F NOT PUSH1 0x1F DUP3 ADD AND DUP3 ADD DUP1 PUSH1 0x40 MSTORE POP DUP2 ADD SWAP1 PUSH2 0x31DD SWAP2 SWAP1 PUSH2 0x5542 JUMP JUMPDEST ISZERO PUSH2 0x3547 JUMPI PUSH1 0x1 DUP3 PUSH1 0x1 DUP2 GT ISZERO PUSH2 0x31F6 JUMPI PUSH2 0x31F6 PUSH2 0x4A2B JUMP JUMPDEST SUB PUSH2 0x334C JUMPI PUSH1 0x40 MLOAD PUSH4 0x31A9108F PUSH1 0xE1 SHL DUP2 MSTORE PUSH1 0x4 DUP2 ADD DUP7 SWAP1 MSTORE PUSH1 0x1 PUSH1 0x1 PUSH1 0xA0 SHL SUB DUP1 DUP11 AND SWAP2 SWAP1 DUP10 AND SWAP1 PUSH4 0x6352211E SWAP1 PUSH1 0x24 ADD PUSH1 0x20 PUSH1 0x40 MLOAD DUP1 DUP4 SUB DUP2 DUP7 GAS STATICCALL ISZERO DUP1 ISZERO PUSH2 0x3245 JUMPI RETURNDATASIZE PUSH1 0x0 DUP1 RETURNDATACOPY RETURNDATASIZE PUSH1 0x0 REVERT JUMPDEST POP POP POP POP PUSH1 0x40 MLOAD RETURNDATASIZE PUSH1 0x1F NOT PUSH1 0x1F DUP3 ADD AND DUP3 ADD DUP1 PUSH1 0x40 MSTORE POP DUP2 ADD SWAP1 PUSH2 0x3269 SWAP2 SWAP1 PUSH2 0x5C0F JUMP JUMPDEST PUSH1 0x1 PUSH1 0x1 PUSH1 0xA0 SHL SUB AND EQ PUSH2 0x32DD JUMPI PUSH1 0x40 MLOAD PUSH3 0x461BCD PUSH1 0xE5 SHL DUP2 MSTORE PUSH1 0x20 PUSH1 0x4 DUP3 ADD MSTORE PUSH1 0x35 PUSH1 0x24 DUP3 ADD MSTORE PUSH32 0x496E76616C6964204E4654204F776E657220416464726573732E20506C656173 PUSH1 0x44 DUP3 ADD MSTORE PUSH21 0x329031B432B1B59030B732103A393C9030B3B0B4B7 PUSH1 0x59 SHL PUSH1 0x64 DUP3 ADD MSTORE PUSH1 0x84 ADD PUSH2 0x76D JUMP JUMPDEST PUSH1 0x40 MLOAD PUSH4 0x21421707 PUSH1 0xE1 SHL DUP2 MSTORE PUSH1 0x1 PUSH1 0x1 PUSH1 0xA0 SHL SUB DUP10 DUP2 AND PUSH1 0x4 DUP4 ADD MSTORE DUP8 DUP2 AND PUSH1 0x24 DUP4 ADD MSTORE PUSH1 0x44 DUP3 ADD DUP8 SWAP1 MSTORE DUP9 AND SWAP1 PUSH4 0x42842E0E SWAP1 PUSH1 0x64 ADD PUSH1 0x0 PUSH1 0x40 MLOAD DUP1 DUP4 SUB DUP2 PUSH1 0x0 DUP8 DUP1 EXTCODESIZE ISZERO DUP1 ISZERO PUSH2 0x332F JUMPI PUSH1 0x0 DUP1 REVERT JUMPDEST POP GAS CALL ISZERO DUP1 ISZERO PUSH2 0x3343 JUMPI RETURNDATASIZE PUSH1 0x0 DUP1 RETURNDATACOPY RETURNDATASIZE PUSH1 0x0 REVERT JUMPDEST POP POP POP POP PUSH2 0x3BBA JUMP JUMPDEST PUSH1 0x0 DUP3 PUSH1 0x1 DUP2 GT ISZERO PUSH2 0x3360 JUMPI PUSH2 0x3360 PUSH2 0x4A2B JUMP JUMPDEST SUB PUSH2 0x3542 JUMPI PUSH1 0x4 DUP10 PUSH1 0x40 MLOAD PUSH2 0x3375 SWAP2 SWAP1 PUSH2 0x4E96 JUMP JUMPDEST SWAP1 DUP2 MSTORE PUSH1 0x40 MLOAD SWAP1 DUP2 SWAP1 SUB PUSH1 0x20 ADD DUP2 KECCAK256 PUSH1 0x9 ADD SLOAD PUSH1 0x1 PUSH1 0x1 PUSH1 0x40 SHL SUB AND SWAP1 DUP6 SWAP1 PUSH1 0x5 SWAP1 PUSH2 0x33A2 SWAP1 DUP14 SWAP1 PUSH2 0x4E96 JUMP JUMPDEST SWAP1 DUP2 MSTORE PUSH1 0x20 ADD PUSH1 0x40 MLOAD DUP1 SWAP2 SUB SWAP1 KECCAK256 SLOAD PUSH2 0x33BB SWAP2 SWAP1 PUSH2 0x515B JUMP JUMPDEST GT ISZERO PUSH2 0x347B JUMPI PUSH1 0x40 MLOAD PUSH3 0x461BCD PUSH1 0xE5 SHL DUP2 MSTORE PUSH1 0x20 PUSH1 0x4 DUP3 ADD MSTORE PUSH1 0x77 PUSH1 0x24 DUP3 ADD MSTORE PUSH32 0x546865206D6178696D756D207175616E7469747920616C6C6F77656420746F20 PUSH1 0x44 DUP3 ADD MSTORE PUSH32 0x70757263686173652045524337323120746F6B656E20686173206265656E2073 PUSH1 0x64 DUP3 ADD MSTORE PUSH32 0x6F6C64206F75742E20506C6561736520636F6E74616374207468652073616C65 PUSH1 0x84 DUP3 ADD MSTORE PUSH32 0x206F776E657220666F72206D6F72652064657461696C73000000000000000000 PUSH1 0xA4 DUP3 ADD MSTORE PUSH1 0xC4 ADD PUSH2 0x76D JUMP JUMPDEST PUSH1 0x40 MLOAD PUSH4 0xE00AAB4B PUSH1 0xE0 SHL DUP2 MSTORE PUSH1 0x1 PUSH1 0x1 PUSH1 0xA0 SHL SUB DUP8 DUP2 AND PUSH1 0x4 DUP4 ADD MSTORE PUSH2 0xFFFF DUP7 AND PUSH1 0x24 DUP4 ADD MSTORE DUP9 AND SWAP1 PUSH4 0xE00AAB4B SWAP1 PUSH1 0x44 ADD PUSH1 0x0 PUSH1 0x40 MLOAD DUP1 DUP4 SUB DUP2 PUSH1 0x0 DUP8 GAS CALL ISZERO DUP1 ISZERO PUSH2 0x34CD JUMPI RETURNDATASIZE PUSH1 0x0 DUP1 RETURNDATACOPY RETURNDATASIZE PUSH1 0x0 REVERT JUMPDEST POP POP POP POP PUSH1 0x40 MLOAD RETURNDATASIZE PUSH1 0x0 DUP3 RETURNDATACOPY PUSH1 0x1F RETURNDATASIZE SWAP1 DUP2 ADD PUSH1 0x1F NOT AND DUP3 ADD PUSH1 0x40 MSTORE PUSH2 0x34F5 SWAP2 SWAP1 DUP2 ADD SWAP1 PUSH2 0x5CBA JUMP JUMPDEST SWAP1 POP DUP4 PUSH1 0x5 DUP11 PUSH1 0x40 MLOAD PUSH2 0x3508 SWAP2 SWAP1 PUSH2 0x4E96 JUMP JUMPDEST SWAP1 DUP2 MSTORE PUSH1 0x20 ADD PUSH1 0x40 MLOAD DUP1 SWAP2 SUB SWAP1 KECCAK256 SLOAD PUSH2 0x3521 SWAP2 SWAP1 PUSH2 0x515B JUMP JUMPDEST PUSH1 0x5 DUP11 PUSH1 0x40 MLOAD PUSH2 0x3531 SWAP2 SWAP1 PUSH2 0x4E96 JUMP JUMPDEST SWAP1 DUP2 MSTORE PUSH1 0x40 MLOAD SWAP1 DUP2 SWAP1 SUB PUSH1 0x20 ADD SWAP1 KECCAK256 SSTORE JUMPDEST PUSH2 0x3BBA JUMP JUMPDEST PUSH1 0x40 MLOAD PUSH4 0x1FFC9A7 PUSH1 0xE0 SHL DUP2 MSTORE PUSH1 0x1 PUSH1 0x1 PUSH1 0xA0 SHL SUB DUP9 AND SWAP1 PUSH4 0x1FFC9A7 SWAP1 PUSH2 0x357A SWAP1 PUSH4 0x6CDB3D13 PUSH1 0xE1 SHL SWAP1 PUSH1 0x4 ADD PUSH2 0x552D JUMP JUMPDEST PUSH1 0x20 PUSH1 0x40 MLOAD DUP1 DUP4 SUB DUP2 DUP7 GAS STATICCALL ISZERO DUP1 ISZERO PUSH2 0x3597 JUMPI RETURNDATASIZE PUSH1 0x0 DUP1 RETURNDATACOPY RETURNDATASIZE PUSH1 0x0 REVERT JUMPDEST POP POP POP POP PUSH1 0x40 MLOAD RETURNDATASIZE PUSH1 0x1F NOT PUSH1 0x1F DUP3 ADD AND DUP3 ADD DUP1 PUSH1 0x40 MSTORE POP DUP2 ADD SWAP1 PUSH2 0x35BB SWAP2 SWAP1 PUSH2 0x5542 JUMP JUMPDEST ISZERO PUSH2 0x3BBA JUMPI PUSH1 0x1 DUP3 PUSH1 0x1 DUP2 GT ISZERO PUSH2 0x35D4 JUMPI PUSH2 0x35D4 PUSH2 0x4A2B JUMP JUMPDEST SUB PUSH2 0x374C JUMPI PUSH1 0x40 MLOAD PUSH3 0x7EEAC7 PUSH1 0xE1 SHL DUP2 MSTORE PUSH1 0x1 PUSH1 0x1 PUSH1 0xA0 SHL SUB DUP10 DUP2 AND PUSH1 0x4 DUP4 ADD MSTORE PUSH1 0x24 DUP3 ADD DUP8 SWAP1 MSTORE PUSH1 0x0 SWAP2 SWAP1 DUP10 AND SWAP1 PUSH3 0xFDD58E SWAP1 PUSH1 0x44 ADD PUSH1 0x20 PUSH1 0x40 MLOAD DUP1 DUP4 SUB DUP2 DUP7 GAS STATICCALL ISZERO DUP1 ISZERO PUSH2 0x3628 JUMPI RETURNDATASIZE PUSH1 0x0 DUP1 RETURNDATACOPY RETURNDATASIZE PUSH1 0x0 REVERT JUMPDEST POP POP POP POP PUSH1 0x40 MLOAD RETURNDATASIZE PUSH1 0x1F NOT PUSH1 0x1F DUP3 ADD AND DUP3 ADD DUP1 PUSH1 0x40 MSTORE POP DUP2 ADD SWAP1 PUSH2 0x364C SWAP2 SWAP1 PUSH2 0x5BF6 JUMP JUMPDEST SWAP1 POP DUP1 DUP5 GT ISZERO DUP1 ISZERO PUSH2 0x365E JUMPI POP PUSH1 0x0 DUP5 GT JUMPDEST PUSH2 0x36BC JUMPI PUSH1 0x40 MLOAD PUSH3 0x461BCD PUSH1 0xE5 SHL DUP2 MSTORE PUSH1 0x20 PUSH1 0x4 DUP3 ADD MSTORE PUSH1 0x29 PUSH1 0x24 DUP3 ADD MSTORE PUSH32 0x496E73756666696369656E7420746F6B656E2062616C616E63652066726F6D20 PUSH1 0x44 DUP3 ADD MSTORE PUSH9 0x3A34329037BBB732B9 PUSH1 0xB9 SHL PUSH1 0x64 DUP3 ADD MSTORE PUSH1 0x84 ADD PUSH2 0x76D JUMP JUMPDEST PUSH1 0x40 MLOAD PUSH4 0x79212195 PUSH1 0xE1 SHL DUP2 MSTORE PUSH1 0x1 PUSH1 0x1 PUSH1 0xA0 SHL SUB DUP11 DUP2 AND PUSH1 0x4 DUP4 ADD MSTORE DUP9 DUP2 AND PUSH1 0x24 DUP4 ADD MSTORE PUSH1 0x44 DUP3 ADD DUP9 SWAP1 MSTORE PUSH1 0x64 DUP3 ADD DUP7 SWAP1 MSTORE PUSH1 0xA0 PUSH1 0x84 DUP4 ADD MSTORE PUSH1 0x2 PUSH1 0xA4 DUP4 ADD MSTORE PUSH2 0x60F PUSH1 0xF3 SHL PUSH1 0xC4 DUP4 ADD MSTORE DUP10 AND SWAP1 PUSH4 0xF242432A SWAP1 PUSH1 0xE4 ADD PUSH1 0x0 PUSH1 0x40 MLOAD DUP1 DUP4 SUB DUP2 PUSH1 0x0 DUP8 DUP1 EXTCODESIZE ISZERO DUP1 ISZERO PUSH2 0x372E JUMPI PUSH1 0x0 DUP1 REVERT JUMPDEST POP GAS CALL ISZERO DUP1 ISZERO PUSH2 0x3742 JUMPI RETURNDATASIZE PUSH1 0x0 DUP1 RETURNDATACOPY RETURNDATASIZE PUSH1 0x0 REVERT JUMPDEST POP POP POP POP POP PUSH2 0x3BBA JUMP JUMPDEST PUSH1 0x0 DUP3 PUSH1 0x1 DUP2 GT ISZERO PUSH2 0x3760 JUMPI PUSH2 0x3760 PUSH2 0x4A2B JUMP JUMPDEST SUB PUSH2 0x3BBA JUMPI PUSH1 0x40 DUP1 MLOAD PUSH1 0x1 DUP1 DUP3 MSTORE DUP2 DUP4 ADD SWAP1 SWAP3 MSTORE PUSH1 0x0 SWAP2 PUSH1 0x20 DUP1 DUP4 ADD SWAP1 DUP1 CALLDATASIZE DUP4 CALLDATACOPY ADD SWAP1 POP POP SWAP1 POP PUSH1 0x0 DUP6 PUSH1 0x1 PUSH1 0x1 PUSH1 0x40 SHL SUB DUP2 GT ISZERO PUSH2 0x37A1 JUMPI PUSH2 0x37A1 PUSH2 0x47E5 JUMP JUMPDEST PUSH1 0x40 MLOAD SWAP1 DUP1 DUP3 MSTORE DUP1 PUSH1 0x20 MUL PUSH1 0x20 ADD DUP3 ADD PUSH1 0x40 MSTORE DUP1 ISZERO PUSH2 0x37CA JUMPI DUP2 PUSH1 0x20 ADD PUSH1 0x20 DUP3 MUL DUP1 CALLDATASIZE DUP4 CALLDATACOPY ADD SWAP1 POP JUMPDEST POP SWAP1 POP PUSH1 0x60 DUP9 DUP4 PUSH1 0x0 DUP2 MLOAD DUP2 LT PUSH2 0x37E3 JUMPI PUSH2 0x37E3 PUSH2 0x50DC JUMP JUMPDEST PUSH1 0x20 MUL PUSH1 0x20 ADD ADD SWAP1 PUSH1 0x1 PUSH1 0x1 PUSH1 0xA0 SHL SUB AND SWAP1 DUP2 PUSH1 0x1 PUSH1 0x1 PUSH1 0xA0 SHL SUB AND DUP2 MSTORE POP POP DUP6 DUP3 PUSH1 0x0 DUP2 MLOAD DUP2 LT PUSH2 0x3817 JUMPI PUSH2 0x3817 PUSH2 0x50DC JUMP JUMPDEST PUSH1 0x20 SWAP1 DUP2 MUL SWAP2 SWAP1 SWAP2 ADD ADD MSTORE PUSH1 0x40 MLOAD PUSH4 0xBD85B039 PUSH1 0xE0 SHL DUP2 MSTORE PUSH1 0x4 DUP2 ADD DUP10 SWAP1 MSTORE PUSH1 0x1 PUSH1 0x1 PUSH1 0xA0 SHL SUB DUP12 AND SWAP1 PUSH4 0xBD85B039 SWAP1 PUSH1 0x24 ADD PUSH1 0x20 PUSH1 0x40 MLOAD DUP1 DUP4 SUB DUP2 DUP7 GAS STATICCALL ISZERO DUP1 ISZERO PUSH2 0x3867 JUMPI RETURNDATASIZE PUSH1 0x0 DUP1 RETURNDATACOPY RETURNDATASIZE PUSH1 0x0 REVERT JUMPDEST POP POP POP POP PUSH1 0x40 MLOAD RETURNDATASIZE PUSH1 0x1F NOT PUSH1 0x1F DUP3 ADD AND DUP3 ADD DUP1 PUSH1 0x40 MSTORE POP DUP2 ADD SWAP1 PUSH2 0x388B SWAP2 SWAP1 PUSH2 0x5BF6 JUMP JUMPDEST PUSH1 0x0 SUB PUSH2 0x3A9F JUMPI PUSH1 0x4 DUP13 PUSH1 0x40 MLOAD PUSH2 0x38A2 SWAP2 SWAP1 PUSH2 0x4E96 JUMP JUMPDEST SWAP1 DUP2 MSTORE PUSH1 0x40 MLOAD SWAP1 DUP2 SWAP1 SUB PUSH1 0x20 ADD DUP2 KECCAK256 PUSH1 0x9 ADD SLOAD PUSH1 0x1 PUSH1 0x1 PUSH1 0x40 SHL SUB AND SWAP1 PUSH1 0x5 SWAP1 PUSH2 0x38CD SWAP1 DUP16 SWAP1 PUSH2 0x4E96 JUMP JUMPDEST SWAP1 DUP2 MSTORE PUSH1 0x20 ADD PUSH1 0x40 MLOAD DUP1 SWAP2 SUB SWAP1 KECCAK256 SLOAD LT PUSH2 0x399B JUMPI PUSH1 0x40 MLOAD PUSH3 0x461BCD PUSH1 0xE5 SHL DUP2 MSTORE PUSH1 0x20 PUSH1 0x4 DUP3 ADD MSTORE PUSH1 0x78 PUSH1 0x24 DUP3 ADD MSTORE PUSH32 0x546865206D6178696D756D207175616E7469747920616C6C6F77656420746F20 PUSH1 0x44 DUP3 ADD MSTORE PUSH32 0x7075726368617365204552433131353520746F6B656E20686173206265656E20 PUSH1 0x64 DUP3 ADD MSTORE PUSH32 0x736F6C64206F75742E20506C6561736520636F6E74616374207468652073616C PUSH1 0x84 DUP3 ADD MSTORE PUSH32 0x65206F776E657220666F72206D6F72652064657461696C730000000000000000 PUSH1 0xA4 DUP3 ADD MSTORE PUSH1 0xC4 ADD PUSH2 0x76D JUMP JUMPDEST PUSH1 0x0 JUMPDEST DUP8 DUP2 LT ISZERO PUSH2 0x39D6 JUMPI DUP7 DUP4 DUP3 DUP2 MLOAD DUP2 LT PUSH2 0x39B9 JUMPI PUSH2 0x39B9 PUSH2 0x50DC JUMP JUMPDEST PUSH1 0x20 SWAP1 DUP2 MUL SWAP2 SWAP1 SWAP2 ADD ADD MSTORE DUP1 PUSH2 0x39CE DUP2 PUSH2 0x5108 JUMP JUMPDEST SWAP2 POP POP PUSH2 0x399E JUMP JUMPDEST POP PUSH1 0x40 MLOAD PUSH4 0x46374239 PUSH1 0xE1 SHL DUP2 MSTORE PUSH1 0x1 PUSH1 0x1 PUSH1 0xA0 SHL SUB DUP12 AND SWAP1 PUSH4 0x8C6E8472 SWAP1 PUSH2 0x3A07 SWAP1 DUP7 SWAP1 DUP7 SWAP1 DUP7 SWAP1 PUSH1 0x4 ADD PUSH2 0x5CEE JUMP JUMPDEST PUSH1 0x0 PUSH1 0x40 MLOAD DUP1 DUP4 SUB DUP2 PUSH1 0x0 DUP8 GAS CALL ISZERO DUP1 ISZERO PUSH2 0x3A26 JUMPI RETURNDATASIZE PUSH1 0x0 DUP1 RETURNDATACOPY RETURNDATASIZE PUSH1 0x0 REVERT JUMPDEST POP POP POP POP PUSH1 0x40 MLOAD RETURNDATASIZE PUSH1 0x0 DUP3 RETURNDATACOPY PUSH1 0x1F RETURNDATASIZE SWAP1 DUP2 ADD PUSH1 0x1F NOT AND DUP3 ADD PUSH1 0x40 MSTORE PUSH2 0x3A4E SWAP2 SWAP1 DUP2 ADD SWAP1 PUSH2 0x5CBA JUMP JUMPDEST SWAP4 POP DUP7 PUSH1 0x5 DUP14 PUSH1 0x40 MLOAD PUSH2 0x3A61 SWAP2 SWAP1 PUSH2 0x4E96 JUMP JUMPDEST SWAP1 DUP2 MSTORE PUSH1 0x20 ADD PUSH1 0x40 MLOAD DUP1 SWAP2 SUB SWAP1 KECCAK256 SLOAD PUSH2 0x3A7A SWAP2 SWAP1 PUSH2 0x515B JUMP JUMPDEST PUSH1 0x5 DUP14 PUSH1 0x40 MLOAD PUSH2 0x3A8A SWAP2 SWAP1 PUSH2 0x4E96 JUMP JUMPDEST SWAP1 DUP2 MSTORE PUSH1 0x40 MLOAD SWAP1 DUP2 SWAP1 SUB PUSH1 0x20 ADD SWAP1 KECCAK256 SSTORE PUSH2 0x3BB6 JUMP JUMPDEST PUSH1 0x40 MLOAD PUSH4 0xBD85B039 PUSH1 0xE0 SHL DUP2 MSTORE PUSH1 0x4 DUP2 ADD DUP10 SWAP1 MSTORE PUSH1 0x0 SWAP1 PUSH1 0x1 PUSH1 0x1 PUSH1 0xA0 SHL SUB DUP13 AND SWAP1 PUSH4 0xBD85B039 SWAP1 PUSH1 0x24 ADD PUSH1 0x20 PUSH1 0x40 MLOAD DUP1 DUP4 SUB DUP2 DUP7 GAS STATICCALL ISZERO DUP1 ISZERO PUSH2 0x3AE7 JUMPI RETURNDATASIZE PUSH1 0x0 DUP1 RETURNDATACOPY RETURNDATASIZE PUSH1 0x0 REVERT JUMPDEST POP POP POP POP PUSH1 0x40 MLOAD RETURNDATASIZE PUSH1 0x1F NOT PUSH1 0x1F DUP3 ADD AND DUP3 ADD DUP1 PUSH1 0x40 MSTORE POP DUP2 ADD SWAP1 PUSH2 0x3B0B SWAP2 SWAP1 PUSH2 0x5BF6 JUMP JUMPDEST GT ISZERO PUSH2 0x3BB6 JUMPI PUSH1 0x40 DUP1 MLOAD PUSH1 0x1 DUP1 DUP3 MSTORE DUP2 DUP4 ADD SWAP1 SWAP3 MSTORE PUSH1 0x0 SWAP2 PUSH1 0x20 DUP1 DUP4 ADD SWAP1 DUP1 CALLDATASIZE DUP4 CALLDATACOPY ADD SWAP1 POP POP SWAP1 POP DUP9 DUP2 PUSH1 0x0 DUP2 MLOAD DUP2 LT PUSH2 0x3B47 JUMPI PUSH2 0x3B47 PUSH2 0x50DC JUMP JUMPDEST PUSH1 0x20 SWAP1 DUP2 MUL SWAP2 SWAP1 SWAP2 ADD ADD MSTORE PUSH1 0x40 MLOAD PUSH4 0x39B22137 PUSH1 0xE2 SHL DUP2 MSTORE PUSH1 0x1 PUSH1 0x1 PUSH1 0xA0 SHL SUB DUP13 AND SWAP1 PUSH4 0xE6C884DC SWAP1 PUSH2 0x3B82 SWAP1 DUP8 SWAP1 DUP6 SWAP1 DUP9 SWAP1 PUSH1 0x4 ADD PUSH2 0x5D75 JUMP JUMPDEST PUSH1 0x0 PUSH1 0x40 MLOAD DUP1 DUP4 SUB DUP2 PUSH1 0x0 DUP8 DUP1 EXTCODESIZE ISZERO DUP1 ISZERO PUSH2 0x3B9C JUMPI PUSH1 0x0 DUP1 REVERT JUMPDEST POP GAS CALL ISZERO DUP1 ISZERO PUSH2 0x3BB0 JUMPI RETURNDATASIZE PUSH1 0x0 DUP1 RETURNDATACOPY RETURNDATASIZE PUSH1 0x0 REVERT JUMPDEST POP POP POP POP POP JUMPDEST POP POP POP JUMPDEST SWAP9 SWAP8 POP POP POP POP POP POP POP POP JUMP JUMPDEST PUSH1 0x0 PUSH1 0x1 PUSH1 0x1 PUSH1 0xA0 SHL SUB DUP4 AND PUSH2 0x3CAE JUMPI PUSH1 0x40 DUP1 MLOAD PUSH1 0x0 DUP2 MSTORE PUSH1 0x20 DUP2 ADD SWAP2 DUP3 SWAP1 MSTORE PUSH1 0x1 PUSH1 0x1 PUSH1 0xA0 SHL SUB DUP7 AND SWAP2 DUP5 SWAP2 PUSH2 0x3BFC SWAP2 PUSH2 0x4E96 JUMP JUMPDEST PUSH1 0x0 PUSH1 0x40 MLOAD DUP1 DUP4 SUB DUP2 DUP6 DUP8 GAS CALL SWAP3 POP POP POP RETURNDATASIZE DUP1 PUSH1 0x0 DUP2 EQ PUSH2 0x3C39 JUMPI PUSH1 0x40 MLOAD SWAP2 POP PUSH1 0x1F NOT PUSH1 0x3F RETURNDATASIZE ADD AND DUP3 ADD PUSH1 0x40 MSTORE RETURNDATASIZE DUP3 MSTORE RETURNDATASIZE PUSH1 0x0 PUSH1 0x20 DUP5 ADD RETURNDATACOPY PUSH2 0x3C3E JUMP JUMPDEST PUSH1 0x60 SWAP2 POP JUMPDEST POP POP DUP1 SWAP2 POP POP DUP1 PUSH2 0x3CA9 JUMPI PUSH1 0x40 MLOAD PUSH3 0x461BCD PUSH1 0xE5 SHL DUP2 MSTORE PUSH1 0x20 PUSH1 0x4 DUP3 ADD MSTORE PUSH1 0x2F PUSH1 0x24 DUP3 ADD MSTORE PUSH32 0x756E61626C6520746F206465626974206E61746976652062616C616E63652070 PUSH1 0x44 DUP3 ADD MSTORE PUSH15 0x3632B0B9B2903A393C9030B3B0B4B7 PUSH1 0x89 SHL PUSH1 0x64 DUP3 ADD MSTORE PUSH1 0x84 ADD PUSH2 0x76D JUMP JUMPDEST PUSH2 0x3CC3 JUMP JUMPDEST PUSH2 0x3CC3 PUSH1 0x1 PUSH1 0x1 PUSH1 0xA0 SHL SUB DUP5 AND DUP7 DUP7 DUP6 PUSH2 0x4046 JUMP JUMPDEST POP POP POP POP POP JUMP JUMPDEST PUSH1 0x0 PUSH1 0x4 DUP10 PUSH1 0x40 MLOAD PUSH2 0x3CDC SWAP2 SWAP1 PUSH2 0x4E96 JUMP JUMPDEST SWAP1 DUP2 MSTORE PUSH1 0x40 DUP1 MLOAD SWAP2 DUP3 SWAP1 SUB PUSH1 0x20 SWAP1 DUP2 ADD DUP4 KECCAK256 PUSH1 0xC0 DUP5 ADD DUP4 MSTORE PUSH1 0x5 DUP2 ADD SLOAD PUSH1 0x1 PUSH1 0x1 PUSH1 0xA0 SHL SUB SWAP1 DUP2 AND DUP6 MSTORE PUSH1 0x6 DUP3 ADD SLOAD DUP2 AND SWAP3 DUP6 ADD SWAP3 SWAP1 SWAP3 MSTORE PUSH1 0x7 DUP2 ADD SLOAD DUP1 DUP4 AND SWAP4 DUP6 ADD DUP5 SWAP1 MSTORE PUSH2 0xFFFF PUSH1 0x1 PUSH1 0xA0 SHL SWAP2 DUP3 SWAP1 DIV DUP2 AND PUSH1 0x60 DUP8 ADD MSTORE PUSH1 0x8 SWAP1 SWAP3 ADD SLOAD SWAP3 DUP4 AND PUSH1 0x80 DUP7 ADD MSTORE SWAP1 SWAP2 DIV AND PUSH1 0xA0 DUP4 ADD MSTORE SWAP1 SWAP2 POP PUSH1 0x0 SWAP1 ISZERO DUP1 ISZERO SWAP1 PUSH2 0x3D68 JUMPI POP PUSH1 0x0 DUP3 PUSH1 0x60 ADD MLOAD PUSH2 0xFFFF AND GT JUMPDEST ISZERO PUSH2 0x3DAF JUMPI PUSH2 0x3DAA CALLER DUP4 PUSH1 0x40 ADD MLOAD DUP10 PUSH2 0x2710 DUP7 PUSH1 0x60 ADD MLOAD PUSH2 0xFFFF AND DUP14 PUSH2 0x3D8E SWAP2 SWAP1 PUSH2 0x559E JUMP JUMPDEST PUSH2 0x3D98 SWAP2 SWAP1 PUSH2 0x5DB8 JUMP JUMPDEST PUSH2 0x3DA2 SWAP1 DUP7 PUSH2 0x515B JUMP JUMPDEST SWAP5 POP DUP5 PUSH2 0x3BC6 JUMP JUMPDEST PUSH2 0x3E09 JUMP JUMPDEST PUSH1 0x7 SLOAD PUSH1 0x1 PUSH1 0x1 PUSH1 0xA0 SHL SUB AND ISZERO DUP1 ISZERO SWAP1 PUSH2 0x3DD5 JUMPI POP PUSH1 0x7 SLOAD PUSH1 0x1 PUSH1 0xA0 SHL SWAP1 DIV PUSH2 0xFFFF AND ISZERO ISZERO JUMPDEST ISZERO PUSH2 0x3E09 JUMPI PUSH1 0x7 SLOAD PUSH2 0x3E09 SWAP1 CALLER SWAP1 PUSH1 0x1 PUSH1 0x1 PUSH1 0xA0 SHL SUB DUP2 AND SWAP1 DUP11 SWAP1 PUSH2 0x2710 SWAP1 PUSH2 0x3D8E SWAP1 PUSH1 0x1 PUSH1 0xA0 SHL SWAP1 DIV PUSH2 0xFFFF AND DUP15 PUSH2 0x559E JUMP JUMPDEST PUSH1 0x80 DUP3 ADD MLOAD PUSH1 0x1 PUSH1 0x1 PUSH1 0xA0 SHL SUB AND ISZERO DUP1 ISZERO SWAP1 PUSH2 0x3E2D JUMPI POP PUSH1 0x0 DUP3 PUSH1 0xA0 ADD MLOAD PUSH2 0xFFFF AND GT JUMPDEST ISZERO PUSH2 0x3E9A JUMPI PUSH2 0x2710 DUP3 PUSH1 0xA0 ADD MLOAD PUSH2 0xFFFF AND DUP10 PUSH2 0x3E49 SWAP2 SWAP1 PUSH2 0x559E JUMP JUMPDEST PUSH2 0x3E53 SWAP2 SWAP1 PUSH2 0x5DB8 JUMP JUMPDEST PUSH2 0x3E5D SWAP1 DUP3 PUSH2 0x515B JUMP JUMPDEST SWAP1 POP PUSH2 0x3E9A CALLER DUP4 PUSH1 0x80 ADD MLOAD DUP10 DUP13 PUSH2 0x2710 DUP8 PUSH1 0xA0 ADD MLOAD PUSH2 0xFFFF AND DUP15 PUSH2 0x3E81 SWAP2 SWAP1 PUSH2 0x559E JUMP JUMPDEST PUSH2 0x3E8B SWAP2 SWAP1 PUSH2 0x5DB8 JUMP JUMPDEST PUSH2 0x3E95 SWAP2 SWAP1 PUSH2 0x515B JUMP JUMPDEST PUSH2 0x3BC6 JUMP JUMPDEST PUSH2 0x3EA4 DUP2 DUP10 PUSH2 0x516E JUMP JUMPDEST SWAP8 POP PUSH2 0x3EB5 CALLER DUP8 DUP8 DUP8 DUP13 DUP13 DUP10 PUSH2 0x40A6 JUMP JUMPDEST SWAP8 POP PUSH2 0x3EC7 CALLER DUP4 PUSH1 0x0 ADD MLOAD DUP10 DUP12 PUSH2 0x3BC6 JUMP JUMPDEST POP POP POP POP POP POP POP POP POP POP JUMP JUMPDEST PUSH1 0x0 DUP2 DUP2 MSTORE PUSH1 0x1 DUP4 ADD PUSH1 0x20 MSTORE PUSH1 0x40 DUP2 KECCAK256 SLOAD DUP1 ISZERO PUSH2 0x3FBC JUMPI PUSH1 0x0 PUSH2 0x3EF7 PUSH1 0x1 DUP4 PUSH2 0x516E JUMP JUMPDEST DUP6 SLOAD SWAP1 SWAP2 POP PUSH1 0x0 SWAP1 PUSH2 0x3F0B SWAP1 PUSH1 0x1 SWAP1 PUSH2 0x516E JUMP JUMPDEST SWAP1 POP DUP2 DUP2 EQ PUSH2 0x3F70 JUMPI PUSH1 0x0 DUP7 PUSH1 0x0 ADD DUP3 DUP2 SLOAD DUP2 LT PUSH2 0x3F2B JUMPI PUSH2 0x3F2B PUSH2 0x50DC JUMP JUMPDEST SWAP1 PUSH1 0x0 MSTORE PUSH1 0x20 PUSH1 0x0 KECCAK256 ADD SLOAD SWAP1 POP DUP1 DUP8 PUSH1 0x0 ADD DUP5 DUP2 SLOAD DUP2 LT PUSH2 0x3F4E JUMPI PUSH2 0x3F4E PUSH2 0x50DC JUMP JUMPDEST PUSH1 0x0 SWAP2 DUP3 MSTORE PUSH1 0x20 DUP1 DUP4 KECCAK256 SWAP1 SWAP2 ADD SWAP3 SWAP1 SWAP3 SSTORE SWAP2 DUP3 MSTORE PUSH1 0x1 DUP9 ADD SWAP1 MSTORE PUSH1 0x40 SWAP1 KECCAK256 DUP4 SWAP1 SSTORE JUMPDEST DUP6 SLOAD DUP7 SWAP1 DUP1 PUSH2 0x3F81 JUMPI PUSH2 0x3F81 PUSH2 0x5DDA JUMP JUMPDEST PUSH1 0x1 SWAP1 SUB DUP2 DUP2 SWAP1 PUSH1 0x0 MSTORE PUSH1 0x20 PUSH1 0x0 KECCAK256 ADD PUSH1 0x0 SWAP1 SSTORE SWAP1 SSTORE DUP6 PUSH1 0x1 ADD PUSH1 0x0 DUP7 DUP2 MSTORE PUSH1 0x20 ADD SWAP1 DUP2 MSTORE PUSH1 0x20 ADD PUSH1 0x0 KECCAK256 PUSH1 0x0 SWAP1 SSTORE PUSH1 0x1 SWAP4 POP POP POP POP PUSH2 0x71D JUMP JUMPDEST PUSH1 0x0 SWAP2 POP POP PUSH2 0x71D JUMP JUMPDEST POP SWAP3 SWAP2 POP POP JUMP JUMPDEST PUSH1 0x0 DUP3 PUSH1 0x0 ADD DUP3 DUP2 SLOAD DUP2 LT PUSH2 0x3FE4 JUMPI PUSH2 0x3FE4 PUSH2 0x50DC JUMP JUMPDEST SWAP1 PUSH1 0x0 MSTORE PUSH1 0x20 PUSH1 0x0 KECCAK256 ADD SLOAD SWAP1 POP SWAP3 SWAP2 POP POP JUMP JUMPDEST PUSH1 0x0 DUP2 DUP2 MSTORE PUSH1 0x1 DUP4 ADD PUSH1 0x20 MSTORE PUSH1 0x40 DUP2 KECCAK256 SLOAD PUSH2 0x403E JUMPI POP DUP2 SLOAD PUSH1 0x1 DUP2 DUP2 ADD DUP5 SSTORE PUSH1 0x0 DUP5 DUP2 MSTORE PUSH1 0x20 DUP1 DUP3 KECCAK256 SWAP1 SWAP4 ADD DUP5 SWAP1 SSTORE DUP5 SLOAD DUP5 DUP3 MSTORE DUP3 DUP7 ADD SWAP1 SWAP4 MSTORE PUSH1 0x40 SWAP1 KECCAK256 SWAP2 SWAP1 SWAP2 SSTORE PUSH2 0x71D JUMP JUMPDEST POP PUSH1 0x0 PUSH2 0x71D JUMP JUMPDEST PUSH1 0x40 DUP1 MLOAD PUSH1 0x1 PUSH1 0x1 PUSH1 0xA0 SHL SUB DUP6 DUP2 AND PUSH1 0x24 DUP4 ADD MSTORE DUP5 AND PUSH1 0x44 DUP3 ADD MSTORE PUSH1 0x64 DUP1 DUP3 ADD DUP5 SWAP1 MSTORE DUP3 MLOAD DUP1 DUP4 SUB SWAP1 SWAP2 ADD DUP2 MSTORE PUSH1 0x84 SWAP1 SWAP2 ADD SWAP1 SWAP2 MSTORE PUSH1 0x20 DUP2 ADD DUP1 MLOAD PUSH1 0x1 PUSH1 0x1 PUSH1 0xE0 SHL SUB AND PUSH4 0x23B872DD PUSH1 0xE0 SHL OR SWAP1 MSTORE PUSH2 0x40A0 SWAP1 DUP6 SWAP1 PUSH2 0x4258 JUMP JUMPDEST POP POP POP POP JUMP JUMPDEST PUSH1 0x0 PUSH1 0x1 DUP3 PUSH1 0x1 DUP2 GT ISZERO PUSH2 0x40BC JUMPI PUSH2 0x40BC PUSH2 0x4A2B JUMP JUMPDEST SUB PUSH2 0x40D5 JUMPI PUSH2 0x40CE DUP9 DUP7 DUP10 DUP8 DUP8 PUSH2 0x432F JUMP JUMPDEST SWAP1 POP PUSH2 0x424D JUMP JUMPDEST PUSH1 0x0 DUP3 PUSH1 0x1 DUP2 GT ISZERO PUSH2 0x40E9 JUMPI PUSH2 0x40E9 PUSH2 0x4A2B JUMP JUMPDEST SUB PUSH2 0x424D JUMPI PUSH1 0x40 MLOAD PUSH4 0x1FFC9A7 PUSH1 0xE0 SHL DUP2 MSTORE PUSH1 0x1 PUSH1 0x1 PUSH1 0xA0 SHL SUB DUP7 AND SWAP1 PUSH4 0x1FFC9A7 SWAP1 PUSH2 0x4121 SWAP1 PUSH4 0x6CDB3D13 PUSH1 0xE1 SHL SWAP1 PUSH1 0x4 ADD PUSH2 0x552D JUMP JUMPDEST PUSH1 0x20 PUSH1 0x40 MLOAD DUP1 DUP4 SUB DUP2 DUP7 GAS STATICCALL ISZERO DUP1 ISZERO PUSH2 0x413E JUMPI RETURNDATASIZE PUSH1 0x0 DUP1 RETURNDATACOPY RETURNDATASIZE PUSH1 0x0 REVERT JUMPDEST POP POP POP POP PUSH1 0x40 MLOAD RETURNDATASIZE PUSH1 0x1F NOT PUSH1 0x1F DUP3 ADD AND DUP3 ADD DUP1 PUSH1 0x40 MSTORE POP DUP2 ADD SWAP1 PUSH2 0x4162 SWAP2 SWAP1 PUSH2 0x5542 JUMP JUMPDEST DUP1 ISZERO PUSH2 0x41D7 JUMPI POP PUSH1 0x40 MLOAD PUSH4 0xBD85B039 PUSH1 0xE0 SHL DUP2 MSTORE PUSH1 0x4 DUP2 ADD DUP9 SWAP1 MSTORE PUSH1 0x0 SWAP1 PUSH1 0x1 PUSH1 0x1 PUSH1 0xA0 SHL SUB DUP8 AND SWAP1 PUSH4 0xBD85B039 SWAP1 PUSH1 0x24 ADD PUSH1 0x20 PUSH1 0x40 MLOAD DUP1 DUP4 SUB DUP2 DUP7 GAS STATICCALL ISZERO DUP1 ISZERO PUSH2 0x41B1 JUMPI RETURNDATASIZE PUSH1 0x0 DUP1 RETURNDATACOPY RETURNDATASIZE PUSH1 0x0 REVERT JUMPDEST POP POP POP POP PUSH1 0x40 MLOAD RETURNDATASIZE PUSH1 0x1F NOT PUSH1 0x1F DUP3 ADD AND DUP3 ADD DUP1 PUSH1 0x40 MSTORE POP DUP2 ADD SWAP1 PUSH2 0x41D5 SWAP2 SWAP1 PUSH2 0x5BF6 JUMP JUMPDEST GT JUMPDEST ISZERO PUSH2 0x41E9 JUMPI PUSH2 0x40CE DUP9 DUP7 DUP10 DUP8 DUP8 PUSH2 0x432F JUMP JUMPDEST DUP6 MLOAD PUSH2 0x41F5 SWAP1 DUP6 PUSH2 0x5DB8 JUMP JUMPDEST SWAP4 POP PUSH1 0x0 DUP1 JUMPDEST DUP8 MLOAD DUP2 LT ISZERO PUSH2 0x424A JUMPI PUSH2 0x422A DUP11 DUP9 DUP11 DUP5 DUP2 MLOAD DUP2 LT PUSH2 0x421B JUMPI PUSH2 0x421B PUSH2 0x50DC JUMP JUMPDEST PUSH1 0x20 MUL PUSH1 0x20 ADD ADD MLOAD DUP10 DUP10 PUSH2 0x432F JUMP JUMPDEST SWAP2 POP PUSH2 0x4236 DUP3 DUP5 PUSH2 0x515B JUMP JUMPDEST SWAP3 POP DUP1 PUSH2 0x4242 DUP2 PUSH2 0x5108 JUMP JUMPDEST SWAP2 POP POP PUSH2 0x41FB JUMP JUMPDEST POP POP JUMPDEST SWAP8 SWAP7 POP POP POP POP POP POP POP JUMP JUMPDEST PUSH1 0x0 PUSH2 0x42AD DUP3 PUSH1 0x40 MLOAD DUP1 PUSH1 0x40 ADD PUSH1 0x40 MSTORE DUP1 PUSH1 0x20 DUP2 MSTORE PUSH1 0x20 ADD PUSH32 0x5361666545524332303A206C6F772D6C6576656C2063616C6C206661696C6564 DUP2 MSTORE POP DUP6 PUSH1 0x1 PUSH1 0x1 PUSH1 0xA0 SHL SUB AND PUSH2 0x4507 SWAP1 SWAP3 SWAP2 SWAP1 PUSH4 0xFFFFFFFF AND JUMP JUMPDEST DUP1 MLOAD SWAP1 SWAP2 POP ISZERO PUSH2 0x432A JUMPI DUP1 DUP1 PUSH1 0x20 ADD SWAP1 MLOAD DUP2 ADD SWAP1 PUSH2 0x42CB SWAP2 SWAP1 PUSH2 0x5542 JUMP JUMPDEST PUSH2 0x432A JUMPI PUSH1 0x40 MLOAD PUSH3 0x461BCD PUSH1 0xE5 SHL DUP2 MSTORE PUSH1 0x20 PUSH1 0x4 DUP3 ADD MSTORE PUSH1 0x2A PUSH1 0x24 DUP3 ADD MSTORE PUSH32 0x5361666545524332303A204552433230206F7065726174696F6E20646964206E PUSH1 0x44 DUP3 ADD MSTORE PUSH10 0x1BDD081CDD58D8D95959 PUSH1 0xB2 SHL PUSH1 0x64 DUP3 ADD MSTORE PUSH1 0x84 ADD PUSH2 0x76D JUMP JUMPDEST POP POP POP JUMP JUMPDEST PUSH1 0x9 SLOAD PUSH1 0x40 MLOAD PUSH4 0x6E44A72F PUSH1 0xE0 SHL DUP2 MSTORE PUSH1 0x1 PUSH1 0x1 PUSH1 0xA0 SHL SUB DUP7 DUP2 AND PUSH1 0x4 DUP4 ADD MSTORE PUSH1 0x24 DUP3 ADD DUP7 SWAP1 MSTORE PUSH1 0x0 SWAP3 DUP6 SWAP3 DUP5 SWAP3 DUP4 SWAP3 DUP4 SWAP3 SWAP2 AND SWAP1 PUSH4 0x6E44A72F SWAP1 PUSH1 0x44 ADD PUSH1 0x0 PUSH1 0x40 MLOAD DUP1 DUP4 SUB DUP2 DUP7 GAS STATICCALL ISZERO DUP1 ISZERO PUSH2 0x438A JUMPI RETURNDATASIZE PUSH1 0x0 DUP1 RETURNDATACOPY RETURNDATASIZE PUSH1 0x0 REVERT JUMPDEST POP POP POP POP PUSH1 0x40 MLOAD RETURNDATASIZE PUSH1 0x0 DUP3 RETURNDATACOPY PUSH1 0x1F RETURNDATASIZE SWAP1 DUP2 ADD PUSH1 0x1F NOT AND DUP3 ADD PUSH1 0x40 MSTORE PUSH2 0x43B2 SWAP2 SWAP1 DUP2 ADD SWAP1 PUSH2 0x5DF0 JUMP JUMPDEST DUP2 MLOAD SWAP2 SWAP4 POP SWAP2 POP PUSH1 0x0 DUP2 SWAP1 SUB PUSH2 0x43CF JUMPI DUP8 SWAP6 POP POP POP POP POP POP PUSH2 0x44FE JUMP JUMPDEST PUSH1 0x0 JUMPDEST DUP2 DUP2 LT ISZERO PUSH2 0x44F5 JUMPI PUSH1 0x0 DUP5 DUP3 DUP2 MLOAD DUP2 LT PUSH2 0x43EE JUMPI PUSH2 0x43EE PUSH2 0x50DC JUMP JUMPDEST PUSH1 0x20 MUL PUSH1 0x20 ADD ADD MLOAD SWAP1 POP PUSH2 0x2710 DUP11 DUP6 DUP5 DUP2 MLOAD DUP2 LT PUSH2 0x440E JUMPI PUSH2 0x440E PUSH2 0x50DC JUMP JUMPDEST PUSH1 0x20 MUL PUSH1 0x20 ADD ADD MLOAD PUSH2 0x4420 SWAP2 SWAP1 PUSH2 0x559E JUMP JUMPDEST PUSH2 0x442A SWAP2 SWAP1 PUSH2 0x5DB8 JUMP JUMPDEST SWAP6 POP DUP6 DUP8 LT ISZERO PUSH2 0x448A JUMPI PUSH1 0x40 MLOAD PUSH3 0x461BCD PUSH1 0xE5 SHL DUP2 MSTORE PUSH1 0x20 PUSH1 0x4 DUP3 ADD MSTORE PUSH1 0x25 PUSH1 0x24 DUP3 ADD MSTORE PUSH32 0x696E736F6C76656E743A20756E61626C6520746F20636F6D706C65746520726F PUSH1 0x44 DUP3 ADD MSTORE PUSH5 0x79616C7479 PUSH1 0xD8 SHL PUSH1 0x64 DUP3 ADD MSTORE PUSH1 0x84 ADD PUSH2 0x76D JUMP JUMPDEST PUSH2 0x4496 DUP14 DUP3 DUP12 DUP10 PUSH2 0x3BC6 JUMP JUMPDEST PUSH1 0x40 DUP1 MLOAD PUSH1 0x1 PUSH1 0x1 PUSH1 0xA0 SHL SUB DUP15 DUP2 AND DUP3 MSTORE PUSH1 0x20 DUP3 ADD DUP15 SWAP1 MSTORE DUP4 AND DUP2 DUP4 ADD MSTORE PUSH1 0x60 DUP2 ADD DUP9 SWAP1 MSTORE SWAP1 MLOAD PUSH32 0x866E6EF8682DDF5F1025E64DFDB45527077F7BE70FA9EF680B7FFD8CF4AB9C50 SWAP2 DUP2 SWAP1 SUB PUSH1 0x80 ADD SWAP1 LOG1 POP SWAP5 DUP5 SWAP1 SUB SWAP5 PUSH1 0x1 ADD PUSH2 0x43D2 JUMP JUMPDEST POP SWAP4 SWAP5 POP POP POP POP POP JUMPDEST SWAP6 SWAP5 POP POP POP POP POP JUMP JUMPDEST PUSH1 0x60 PUSH2 0x4516 DUP5 DUP5 PUSH1 0x0 DUP6 PUSH2 0x451E JUMP JUMPDEST SWAP5 SWAP4 POP POP POP POP JUMP JUMPDEST PUSH1 0x60 DUP3 SELFBALANCE LT ISZERO PUSH2 0x457F JUMPI PUSH1 0x40 MLOAD PUSH3 0x461BCD PUSH1 0xE5 SHL DUP2 MSTORE PUSH1 0x20 PUSH1 0x4 DUP3 ADD MSTORE PUSH1 0x26 PUSH1 0x24 DUP3 ADD MSTORE PUSH32 0x416464726573733A20696E73756666696369656E742062616C616E636520666F PUSH1 0x44 DUP3 ADD MSTORE PUSH6 0x1C8818D85B1B PUSH1 0xD2 SHL PUSH1 0x64 DUP3 ADD MSTORE PUSH1 0x84 ADD PUSH2 0x76D JUMP JUMPDEST DUP5 EXTCODESIZE PUSH2 0x45CD JUMPI PUSH1 0x40 MLOAD PUSH3 0x461BCD PUSH1 0xE5 SHL DUP2 MSTORE PUSH1 0x20 PUSH1 0x4 DUP3 ADD MSTORE PUSH1 0x1D PUSH1 0x24 DUP3 ADD MSTORE PUSH32 0x416464726573733A2063616C6C20746F206E6F6E2D636F6E7472616374000000 PUSH1 0x44 DUP3 ADD MSTORE PUSH1 0x64 ADD PUSH2 0x76D JUMP JUMPDEST PUSH1 0x0 DUP1 DUP7 PUSH1 0x1 PUSH1 0x1 PUSH1 0xA0 SHL SUB AND DUP6 DUP8 PUSH1 0x40 MLOAD PUSH2 0x45E9 SWAP2 SWAP1 PUSH2 0x4E96 JUMP JUMPDEST PUSH1 0x0 PUSH1 0x40 MLOAD DUP1 DUP4 SUB DUP2 DUP6 DUP8 GAS CALL SWAP3 POP POP POP RETURNDATASIZE DUP1 PUSH1 0x0 DUP2 EQ PUSH2 0x4626 JUMPI PUSH1 0x40 MLOAD SWAP2 POP PUSH1 0x1F NOT PUSH1 0x3F RETURNDATASIZE ADD AND DUP3 ADD PUSH1 0x40 MSTORE RETURNDATASIZE DUP3 MSTORE RETURNDATASIZE PUSH1 0x0 PUSH1 0x20 DUP5 ADD RETURNDATACOPY PUSH2 0x462B JUMP JUMPDEST PUSH1 0x60 SWAP2 POP JUMPDEST POP SWAP2 POP SWAP2 POP PUSH2 0x424D DUP3 DUP3 DUP7 PUSH1 0x60 DUP4 ISZERO PUSH2 0x4645 JUMPI POP DUP2 PUSH2 0x26A5 JUMP JUMPDEST DUP3 MLOAD ISZERO PUSH2 0x4655 JUMPI DUP3 MLOAD DUP1 DUP5 PUSH1 0x20 ADD REVERT JUMPDEST DUP2 PUSH1 0x40 MLOAD PUSH3 0x461BCD PUSH1 0xE5 SHL DUP2 MSTORE PUSH1 0x4 ADD PUSH2 0x76D SWAP2 SWAP1 PUSH2 0x5EB4 JUMP JUMPDEST POP DUP1 SLOAD PUSH1 0x0 DUP3 SSTORE SWAP1 PUSH1 0x0 MSTORE PUSH1 0x20 PUSH1 0x0 KECCAK256 SWAP1 DUP2 ADD SWAP1 PUSH2 0xA27 SWAP2 SWAP1 PUSH2 0x4727 JUMP JUMPDEST DUP3 DUP1 SLOAD DUP3 DUP3 SSTORE SWAP1 PUSH1 0x0 MSTORE PUSH1 0x20 PUSH1 0x0 KECCAK256 SWAP1 DUP2 ADD SWAP3 DUP3 ISZERO PUSH2 0x46C8 JUMPI SWAP2 PUSH1 0x20 MUL DUP3 ADD JUMPDEST DUP3 DUP2 GT ISZERO PUSH2 0x46C8 JUMPI DUP3 CALLDATALOAD DUP3 SSTORE SWAP2 PUSH1 0x20 ADD SWAP2 SWAP1 PUSH1 0x1 ADD SWAP1 PUSH2 0x46AD JUMP JUMPDEST POP PUSH2 0xAD4 SWAP3 SWAP2 POP PUSH2 0x4727 JUMP JUMPDEST DUP3 DUP1 SLOAD DUP3 DUP3 SSTORE SWAP1 PUSH1 0x0 MSTORE PUSH1 0x20 PUSH1 0x0 KECCAK256 SWAP1 DUP2 ADD SWAP3 DUP3 ISZERO PUSH2 0x46C8 JUMPI SWAP2 PUSH1 0x20 MUL DUP3 ADD JUMPDEST DUP3 DUP2 GT ISZERO PUSH2 0x46C8 JUMPI DUP2 SLOAD PUSH1 0x1 PUSH1 0x1 PUSH1 0xA0 SHL SUB NOT AND PUSH1 0x1 PUSH1 0x1 PUSH1 0xA0 SHL SUB DUP5 CALLDATALOAD AND OR DUP3 SSTORE PUSH1 0x20 SWAP1 SWAP3 ADD SWAP2 PUSH1 0x1 SWAP1 SWAP2 ADD SWAP1 PUSH2 0x46F4 JUMP JUMPDEST JUMPDEST DUP1 DUP3 GT ISZERO PUSH2 0xAD4 JUMPI PUSH1 0x0 DUP2 SSTORE PUSH1 0x1 ADD PUSH2 0x4728 JUMP JUMPDEST PUSH1 0x0 PUSH1 0x20 DUP3 DUP5 SUB SLT ISZERO PUSH2 0x474E JUMPI PUSH1 0x0 DUP1 REVERT JUMPDEST DUP2 CALLDATALOAD PUSH1 0x1 PUSH1 0x1 PUSH1 0xE0 SHL SUB NOT DUP2 AND DUP2 EQ PUSH2 0x26A5 JUMPI PUSH1 0x0 DUP1 REVERT JUMPDEST PUSH1 0x1 PUSH1 0x1 PUSH1 0x40 SHL SUB DUP2 AND DUP2 EQ PUSH2 0xA27 JUMPI PUSH1 0x0 DUP1 REVERT JUMPDEST DUP1 CALLDATALOAD PUSH2 0x4786 DUP2 PUSH2 0x4766 JUMP JUMPDEST SWAP2 SWAP1 POP JUMP JUMPDEST PUSH1 0x0 PUSH1 0x20 DUP3 DUP5 SUB SLT ISZERO PUSH2 0x479D JUMPI PUSH1 0x0 DUP1 REVERT JUMPDEST DUP2 CALLDATALOAD PUSH2 0x26A5 DUP2 PUSH2 0x4766 JUMP JUMPDEST PUSH1 0x1 PUSH1 0x1 PUSH1 0xA0 SHL SUB DUP2 AND DUP2 EQ PUSH2 0xA27 JUMPI PUSH1 0x0 DUP1 REVERT JUMPDEST DUP1 CALLDATALOAD PUSH2 0x4786 DUP2 PUSH2 0x47A8 JUMP JUMPDEST PUSH1 0x0 PUSH1 0x20 DUP3 DUP5 SUB SLT ISZERO PUSH2 0x47DA JUMPI PUSH1 0x0 DUP1 REVERT JUMPDEST DUP2 CALLDATALOAD PUSH2 0x26A5 DUP2 PUSH2 0x47A8 JUMP JUMPDEST PUSH4 0x4E487B71 PUSH1 0xE0 SHL PUSH1 0x0 MSTORE PUSH1 0x41 PUSH1 0x4 MSTORE PUSH1 0x24 PUSH1 0x0 REVERT JUMPDEST PUSH1 0x40 MLOAD PUSH2 0x100 DUP2 ADD PUSH1 0x1 PUSH1 0x1 PUSH1 0x40 SHL SUB DUP2 GT DUP3 DUP3 LT OR ISZERO PUSH2 0x481E JUMPI PUSH2 0x481E PUSH2 0x47E5 JUMP JUMPDEST PUSH1 0x40 MSTORE SWAP1 JUMP JUMPDEST PUSH1 0x40 MLOAD PUSH1 0x1F DUP3 ADD PUSH1 0x1F NOT AND DUP2 ADD PUSH1 0x1 PUSH1 0x1 PUSH1 0x40 SHL SUB DUP2 GT DUP3 DUP3 LT OR ISZERO PUSH2 0x484C JUMPI PUSH2 0x484C PUSH2 0x47E5 JUMP JUMPDEST PUSH1 0x40 MSTORE SWAP2 SWAP1 POP JUMP JUMPDEST PUSH1 0x0 DUP3 PUSH1 0x1F DUP4 ADD SLT PUSH2 0x4865 JUMPI PUSH1 0x0 DUP1 REVERT JUMPDEST DUP2 CALLDATALOAD PUSH1 0x1 PUSH1 0x1 PUSH1 0x40 SHL SUB DUP2 GT ISZERO PUSH2 0x487E JUMPI PUSH2 0x487E PUSH2 0x47E5 JUMP JUMPDEST PUSH2 0x4891 PUSH1 0x1F DUP3 ADD PUSH1 0x1F NOT AND PUSH1 0x20 ADD PUSH2 0x4824 JUMP JUMPDEST DUP2 DUP2 MSTORE DUP5 PUSH1 0x20 DUP4 DUP7 ADD ADD GT ISZERO PUSH2 0x48A6 JUMPI PUSH1 0x0 DUP1 REVERT JUMPDEST DUP2 PUSH1 0x20 DUP6 ADD PUSH1 0x20 DUP4 ADD CALLDATACOPY PUSH1 0x0 SWAP2 DUP2 ADD PUSH1 0x20 ADD SWAP2 SWAP1 SWAP2 MSTORE SWAP4 SWAP3 POP POP POP JUMP JUMPDEST PUSH1 0x0 PUSH1 0x20 DUP3 DUP5 SUB SLT ISZERO PUSH2 0x48D5 JUMPI PUSH1 0x0 DUP1 REVERT JUMPDEST DUP2 CALLDATALOAD PUSH1 0x1 PUSH1 0x1 PUSH1 0x40 SHL SUB DUP2 GT ISZERO PUSH2 0x48EB JUMPI PUSH1 0x0 DUP1 REVERT JUMPDEST PUSH2 0x4516 DUP5 DUP3 DUP6 ADD PUSH2 0x4854 JUMP JUMPDEST PUSH1 0x0 DUP2 MLOAD DUP1 DUP5 MSTORE PUSH1 0x20 DUP1 DUP6 ADD SWAP5 POP DUP1 DUP5 ADD PUSH1 0x0 JUMPDEST DUP4 DUP2 LT ISZERO PUSH2 0x4930 JUMPI DUP2 MLOAD PUSH1 0x1 PUSH1 0x1 PUSH1 0xA0 SHL SUB AND DUP8 MSTORE SWAP6 DUP3 ADD SWAP6 SWAP1 DUP3 ADD SWAP1 PUSH1 0x1 ADD PUSH2 0x490B JUMP JUMPDEST POP SWAP5 SWAP6 SWAP5 POP POP POP POP POP JUMP JUMPDEST PUSH1 0x20 DUP2 MSTORE PUSH1 0x0 PUSH2 0x26A5 PUSH1 0x20 DUP4 ADD DUP5 PUSH2 0x48F7 JUMP JUMPDEST PUSH1 0x0 DUP1 DUP4 PUSH1 0x1F DUP5 ADD SLT PUSH2 0x4960 JUMPI PUSH1 0x0 DUP1 REVERT JUMPDEST POP DUP2 CALLDATALOAD PUSH1 0x1 PUSH1 0x1 PUSH1 0x40 SHL SUB DUP2 GT ISZERO PUSH2 0x4977 JUMPI PUSH1 0x0 DUP1 REVERT JUMPDEST PUSH1 0x20 DUP4 ADD SWAP2 POP DUP4 PUSH1 0x20 DUP3 DUP6 ADD ADD GT ISZERO PUSH2 0x498F JUMPI PUSH1 0x0 DUP1 REVERT JUMPDEST SWAP3 POP SWAP3 SWAP1 POP JUMP JUMPDEST PUSH1 0x0 DUP1 PUSH1 0x20 DUP4 DUP6 SUB SLT ISZERO PUSH2 0x49A9 JUMPI PUSH1 0x0 DUP1 REVERT JUMPDEST DUP3 CALLDATALOAD PUSH1 0x1 PUSH1 0x1 PUSH1 0x40 SHL SUB DUP2 GT ISZERO PUSH2 0x49BF JUMPI PUSH1 0x0 DUP1 REVERT JUMPDEST PUSH2 0x49CB DUP6 DUP3 DUP7 ADD PUSH2 0x494E JUMP JUMPDEST SWAP1 SWAP7 SWAP1 SWAP6 POP SWAP4 POP POP POP POP JUMP JUMPDEST PUSH1 0x1 DUP1 PUSH1 0xA0 SHL SUB DUP1 DUP3 MLOAD AND DUP4 MSTORE DUP1 PUSH1 0x20 DUP4 ADD MLOAD AND PUSH1 0x20 DUP5 ADD MSTORE DUP1 PUSH1 0x40 DUP4 ADD MLOAD AND PUSH1 0x40 DUP5 ADD MSTORE PUSH1 0x60 DUP3 ADD MLOAD PUSH2 0xFFFF DUP1 DUP3 AND PUSH1 0x60 DUP7 ADD MSTORE DUP3 PUSH1 0x80 DUP6 ADD MLOAD AND PUSH1 0x80 DUP7 ADD MSTORE DUP1 PUSH1 0xA0 DUP6 ADD MLOAD AND PUSH1 0xA0 DUP7 ADD MSTORE POP POP POP POP POP JUMP JUMPDEST PUSH4 0x4E487B71 PUSH1 0xE0 SHL PUSH1 0x0 MSTORE PUSH1 0x21 PUSH1 0x4 MSTORE PUSH1 0x24 PUSH1 0x0 REVERT JUMPDEST PUSH1 0x2 DUP2 LT PUSH2 0xA27 JUMPI PUSH4 0x4E487B71 PUSH1 0xE0 SHL PUSH1 0x0 MSTORE PUSH1 0x21 PUSH1 0x4 MSTORE PUSH1 0x24 PUSH1 0x0 REVERT JUMPDEST PUSH2 0x4A68 DUP2 PUSH2 0x4A41 JUMP JUMPDEST SWAP1 MSTORE JUMP JUMPDEST PUSH1 0x1 PUSH1 0x1 PUSH1 0xA0 SHL SUB DUP10 AND DUP2 MSTORE PUSH1 0x1 PUSH1 0x1 PUSH1 0x40 SHL SUB DUP9 DUP2 AND PUSH1 0x20 DUP4 ADD MSTORE DUP8 DUP2 AND PUSH1 0x40 DUP4 ADD MSTORE PUSH1 0x60 DUP3 ADD DUP8 SWAP1 MSTORE PUSH2 0x1A0 DUP3 ADD SWAP1 PUSH2 0x4AAA PUSH1 0x80 DUP5 ADD DUP9 PUSH2 0x49D7 JUMP JUMPDEST DUP6 AND PUSH2 0x140 DUP4 ADD MSTORE PUSH2 0x4ABB DUP5 PUSH2 0x4A41 JUMP JUMPDEST DUP4 PUSH2 0x160 DUP4 ADD MSTORE PUSH2 0x4ACB DUP4 PUSH2 0x4A41 JUMP JUMPDEST DUP3 PUSH2 0x180 DUP4 ADD MSTORE SWAP10 SWAP9 POP POP POP POP POP POP POP POP POP JUMP JUMPDEST PUSH1 0x0 DUP1 PUSH1 0x40 DUP4 DUP6 SUB SLT ISZERO PUSH2 0x4AF2 JUMPI PUSH1 0x0 DUP1 REVERT JUMPDEST DUP3 CALLDATALOAD PUSH1 0x1 PUSH1 0x1 PUSH1 0x40 SHL SUB DUP1 DUP3 GT ISZERO PUSH2 0x4B09 JUMPI PUSH1 0x0 DUP1 REVERT JUMPDEST SWAP1 DUP5 ADD SWAP1 PUSH2 0x100 DUP3 DUP8 SUB SLT ISZERO PUSH2 0x4B1E JUMPI PUSH1 0x0 DUP1 REVERT JUMPDEST PUSH2 0x4B26 PUSH2 0x47FB JUMP JUMPDEST DUP3 CALLDATALOAD DUP3 DUP2 GT ISZERO PUSH2 0x4B35 JUMPI PUSH1 0x0 DUP1 REVERT JUMPDEST PUSH2 0x4B41 DUP9 DUP3 DUP7 ADD PUSH2 0x4854 JUMP JUMPDEST DUP3 MSTORE POP PUSH2 0x4B50 PUSH1 0x20 DUP5 ADD PUSH2 0x47BD JUMP JUMPDEST PUSH1 0x20 DUP3 ADD MSTORE PUSH1 0x40 DUP4 ADD CALLDATALOAD PUSH1 0x40 DUP3 ADD MSTORE PUSH2 0x4B6B PUSH1 0x60 DUP5 ADD PUSH2 0x477B JUMP JUMPDEST PUSH1 0x60 DUP3 ADD MSTORE PUSH2 0x4B7C PUSH1 0x80 DUP5 ADD PUSH2 0x47BD JUMP JUMPDEST PUSH1 0x80 DUP3 ADD MSTORE PUSH2 0x4B8D PUSH1 0xA0 DUP5 ADD PUSH2 0x477B JUMP JUMPDEST PUSH1 0xA0 DUP3 ADD MSTORE PUSH2 0x4B9E PUSH1 0xC0 DUP5 ADD PUSH2 0x47BD JUMP JUMPDEST PUSH1 0xC0 DUP3 ADD MSTORE PUSH1 0xE0 SWAP3 DUP4 ADD CALLDATALOAD SWAP3 DUP2 ADD SWAP3 SWAP1 SWAP3 MSTORE POP SWAP5 PUSH1 0x20 SWAP4 SWAP1 SWAP4 ADD CALLDATALOAD SWAP4 POP POP POP JUMP JUMPDEST PUSH1 0x0 DUP2 MLOAD DUP1 DUP5 MSTORE PUSH1 0x20 DUP1 DUP6 ADD SWAP5 POP DUP1 DUP5 ADD PUSH1 0x0 JUMPDEST DUP4 DUP2 LT ISZERO PUSH2 0x4930 JUMPI DUP2 MLOAD DUP8 MSTORE SWAP6 DUP3 ADD SWAP6 SWAP1 DUP3 ADD SWAP1 PUSH1 0x1 ADD PUSH2 0x4BD3 JUMP JUMPDEST PUSH1 0x20 DUP2 MSTORE PUSH1 0x0 PUSH2 0x26A5 PUSH1 0x20 DUP4 ADD DUP5 PUSH2 0x4BBF JUMP JUMPDEST PUSH1 0x0 DUP1 PUSH1 0x0 PUSH1 0x40 DUP5 DUP7 SUB SLT ISZERO PUSH2 0x4C17 JUMPI PUSH1 0x0 DUP1 REVERT JUMPDEST DUP4 CALLDATALOAD PUSH1 0x1 PUSH1 0x1 PUSH1 0x40 SHL SUB DUP2 GT ISZERO PUSH2 0x4C2D JUMPI PUSH1 0x0 DUP1 REVERT JUMPDEST PUSH2 0x4C39 DUP7 DUP3 DUP8 ADD PUSH2 0x494E JUMP JUMPDEST SWAP1 SWAP5 POP SWAP3 POP POP PUSH1 0x20 DUP5 ADD CALLDATALOAD PUSH2 0x4C4D DUP2 PUSH2 0x47A8 JUMP JUMPDEST DUP1 SWAP2 POP POP SWAP3 POP SWAP3 POP SWAP3 JUMP JUMPDEST PUSH2 0xFFFF DUP2 AND DUP2 EQ PUSH2 0xA27 JUMPI PUSH1 0x0 DUP1 REVERT JUMPDEST PUSH1 0x0 PUSH1 0x20 DUP3 DUP5 SUB SLT ISZERO PUSH2 0x4C7A JUMPI PUSH1 0x0 DUP1 REVERT JUMPDEST DUP2 CALLDATALOAD PUSH2 0x26A5 DUP2 PUSH2 0x4C58 JUMP JUMPDEST PUSH1 0x40 DUP2 MSTORE PUSH1 0x0 PUSH2 0x4C98 PUSH1 0x40 DUP4 ADD DUP6 PUSH2 0x4BBF JUMP JUMPDEST DUP3 DUP2 SUB PUSH1 0x20 DUP5 ADD MSTORE PUSH2 0x44FE DUP2 DUP6 PUSH2 0x48F7 JUMP JUMPDEST PUSH1 0x2 DUP2 LT PUSH2 0xA27 JUMPI PUSH1 0x0 DUP1 REVERT JUMPDEST DUP1 CALLDATALOAD PUSH2 0x4786 DUP2 PUSH2 0x4CAA JUMP JUMPDEST PUSH1 0x0 DUP1 DUP4 PUSH1 0x1F DUP5 ADD SLT PUSH2 0x4CD4 JUMPI PUSH1 0x0 DUP1 REVERT JUMPDEST POP DUP2 CALLDATALOAD PUSH1 0x1 PUSH1 0x1 PUSH1 0x40 SHL SUB DUP2 GT ISZERO PUSH2 0x4CEB JUMPI PUSH1 0x0 DUP1 REVERT JUMPDEST PUSH1 0x20 DUP4 ADD SWAP2 POP DUP4 PUSH1 0x20 DUP3 PUSH1 0x5 SHL DUP6 ADD ADD GT ISZERO PUSH2 0x498F JUMPI PUSH1 0x0 DUP1 REVERT JUMPDEST PUSH1 0x0 DUP1 PUSH1 0x0 DUP1 PUSH1 0x0 DUP1 PUSH1 0x0 DUP1 PUSH1 0xA0 DUP10 DUP12 SUB SLT ISZERO PUSH2 0x4D22 JUMPI PUSH1 0x0 DUP1 REVERT JUMPDEST DUP9 CALLDATALOAD PUSH1 0x1 PUSH1 0x1 PUSH1 0x40 SHL SUB DUP1 DUP3 GT ISZERO PUSH2 0x4D39 JUMPI PUSH1 0x0 DUP1 REVERT JUMPDEST PUSH2 0x4D45 DUP13 DUP4 DUP14 ADD PUSH2 0x494E JUMP JUMPDEST SWAP1 SWAP11 POP SWAP9 POP PUSH1 0x20 DUP12 ADD CALLDATALOAD SWAP2 POP PUSH2 0x4D5A DUP3 PUSH2 0x4CAA JUMP JUMPDEST SWAP1 SWAP7 POP PUSH1 0x40 DUP11 ADD CALLDATALOAD SWAP6 POP PUSH1 0x60 DUP11 ADD CALLDATALOAD SWAP1 DUP1 DUP3 GT ISZERO PUSH2 0x4D77 JUMPI PUSH1 0x0 DUP1 REVERT JUMPDEST PUSH2 0x4D83 DUP13 DUP4 DUP14 ADD PUSH2 0x4CC2 JUMP JUMPDEST SWAP1 SWAP7 POP SWAP5 POP PUSH1 0x80 DUP12 ADD CALLDATALOAD SWAP2 POP DUP1 DUP3 GT ISZERO PUSH2 0x4D9C JUMPI PUSH1 0x0 DUP1 REVERT JUMPDEST POP PUSH2 0x4DA9 DUP12 DUP3 DUP13 ADD PUSH2 0x4CC2 JUMP JUMPDEST SWAP10 SWAP13 SWAP9 SWAP12 POP SWAP7 SWAP10 POP SWAP5 SWAP8 SWAP4 SWAP7 SWAP3 SWAP6 SWAP5 POP POP POP JUMP JUMPDEST PUSH1 0x0 DUP1 PUSH1 0x0 PUSH1 0x40 DUP5 DUP7 SUB SLT ISZERO PUSH2 0x4DD2 JUMPI PUSH1 0x0 DUP1 REVERT JUMPDEST DUP4 CALLDATALOAD PUSH1 0x1 PUSH1 0x1 PUSH1 0x40 SHL SUB DUP1 DUP3 GT ISZERO PUSH2 0x4DE9 JUMPI PUSH1 0x0 DUP1 REVERT JUMPDEST SWAP1 DUP6 ADD SWAP1 PUSH2 0x1E0 DUP3 DUP9 SUB SLT ISZERO PUSH2 0x4DFE JUMPI PUSH1 0x0 DUP1 REVERT JUMPDEST SWAP1 SWAP4 POP PUSH1 0x20 DUP6 ADD CALLDATALOAD SWAP1 DUP1 DUP3 GT ISZERO PUSH2 0x4E14 JUMPI PUSH1 0x0 DUP1 REVERT JUMPDEST POP PUSH2 0x4E21 DUP7 DUP3 DUP8 ADD PUSH2 0x494E JUMP JUMPDEST SWAP5 SWAP8 SWAP1 SWAP7 POP SWAP4 SWAP5 POP POP POP POP JUMP JUMPDEST PUSH1 0x20 DUP1 DUP3 MSTORE PUSH1 0x24 SWAP1 DUP3 ADD MSTORE PUSH32 0x41646D696E436F6E74726F6C3A204D757374206265206F776E6572206F722061 PUSH1 0x40 DUP3 ADD MSTORE PUSH4 0x3236B4B7 PUSH1 0xE1 SHL PUSH1 0x60 DUP3 ADD MSTORE PUSH1 0x80 ADD SWAP1 JUMP JUMPDEST PUSH1 0x0 JUMPDEST DUP4 DUP2 LT ISZERO PUSH2 0x4E8D JUMPI DUP2 DUP2 ADD MLOAD DUP4 DUP3 ADD MSTORE PUSH1 0x20 ADD PUSH2 0x4E75 JUMP JUMPDEST POP POP PUSH1 0x0 SWAP2 ADD MSTORE JUMP JUMPDEST PUSH1 0x0 DUP3 MLOAD PUSH2 0x4EA8 DUP2 DUP5 PUSH1 0x20 DUP8 ADD PUSH2 0x4E72 JUMP JUMPDEST SWAP2 SWAP1 SWAP2 ADD SWAP3 SWAP2 POP POP JUMP JUMPDEST PUSH1 0x20 DUP1 DUP3 MSTORE PUSH1 0x37 SWAP1 DUP3 ADD MSTORE PUSH32 0x7468652073616C65496420796F75206861766520656E74657265642069732069 PUSH1 0x40 DUP3 ADD MSTORE PUSH32 0x6E76616C69642E20506C656173652076616C6964617465000000000000000000 PUSH1 0x60 DUP3 ADD MSTORE PUSH1 0x80 ADD SWAP1 JUMP JUMPDEST PUSH1 0x0 DUP2 SLOAD DUP1 DUP5 MSTORE PUSH1 0x20 DUP1 DUP6 ADD SWAP5 POP DUP4 PUSH1 0x0 MSTORE DUP1 PUSH1 0x0 KECCAK256 PUSH1 0x0 JUMPDEST DUP4 DUP2 LT ISZERO PUSH2 0x4930 JUMPI DUP2 SLOAD DUP8 MSTORE SWAP6 DUP3 ADD SWAP6 PUSH1 0x1 SWAP2 DUP3 ADD SWAP2 ADD PUSH2 0x4F28 JUMP JUMPDEST PUSH1 0x0 DUP2 SLOAD DUP1 DUP5 MSTORE PUSH1 0x20 DUP1 DUP6 ADD SWAP5 POP DUP4 PUSH1 0x0 MSTORE DUP1 PUSH1 0x0 KECCAK256 PUSH1 0x0 JUMPDEST DUP4 DUP2 LT ISZERO PUSH2 0x4930 JUMPI DUP2 SLOAD PUSH1 0x1 PUSH1 0x1 PUSH1 0xA0 SHL SUB AND DUP8 MSTORE SWAP6 DUP3 ADD SWAP6 PUSH1 0x1 SWAP2 DUP3 ADD SWAP2 ADD PUSH2 0x4F5D JUMP JUMPDEST PUSH1 0x20 DUP1 DUP3 MSTORE DUP3 SLOAD PUSH1 0x0 SWAP2 PUSH2 0x4FA9 SWAP1 DUP5 ADD PUSH1 0x1 PUSH1 0x1 PUSH1 0xA0 SHL SUB DUP4 AND PUSH1 0x1 PUSH1 0x1 PUSH1 0xA0 SHL SUB AND SWAP1 MSTORE JUMP JUMPDEST PUSH1 0x1 PUSH1 0x1 PUSH1 0x40 SHL SUB PUSH1 0xA0 SWAP2 DUP3 SHR DUP2 AND PUSH1 0x40 DUP6 ADD MSTORE PUSH1 0x1 DUP6 ADD SLOAD DUP2 AND PUSH1 0x60 DUP6 ADD MSTORE PUSH1 0x2 DUP6 ADD SLOAD PUSH1 0x80 DUP6 ADD MSTORE PUSH2 0x1E0 SWAP2 DUP5 ADD DUP3 SWAP1 MSTORE PUSH2 0x4FED PUSH2 0x200 DUP6 ADD PUSH1 0x3 DUP8 ADD PUSH2 0x4F0F JUMP JUMPDEST DUP5 DUP2 SUB PUSH1 0x1F NOT ADD PUSH1 0xC0 DUP7 ADD MSTORE PUSH2 0x5006 DUP2 PUSH1 0x4 DUP9 ADD PUSH2 0x4F44 JUMP JUMPDEST PUSH1 0x5 DUP8 ADD SLOAD PUSH1 0x1 PUSH1 0x1 PUSH1 0xA0 SHL SUB SWAP1 DUP2 AND PUSH1 0xE0 DUP9 ADD MSTORE PUSH1 0x6 DUP9 ADD SLOAD DUP2 AND PUSH2 0x100 DUP9 ADD MSTORE PUSH1 0x7 DUP9 ADD SLOAD DUP1 DUP3 AND PUSH2 0x120 DUP10 ADD MSTORE PUSH2 0xFFFF PUSH1 0xA0 SWAP2 DUP3 SHR DUP2 AND PUSH2 0x140 DUP11 ADD MSTORE PUSH1 0x8 DUP11 ADD SLOAD SWAP3 DUP4 AND PUSH2 0x160 DUP11 ADD MSTORE SWAP2 SWAP1 SHR AND PUSH2 0x180 DUP8 ADD MSTORE SWAP1 POP PUSH1 0x9 DUP7 ADD SLOAD PUSH1 0x1 PUSH1 0x1 PUSH1 0x40 SHL SUB DUP4 DUP3 AND AND PUSH2 0x1A0 DUP8 ADD MSTORE PUSH2 0x508B PUSH2 0x1C0 DUP8 ADD PUSH1 0xFF DUP4 PUSH1 0x40 SHR AND PUSH2 0x4A5F JUMP JUMPDEST PUSH2 0x509D DUP5 DUP8 ADD PUSH1 0xFF DUP4 PUSH1 0x48 SHR AND PUSH2 0x4A5F JUMP JUMPDEST POP SWAP6 SWAP5 POP POP POP POP POP JUMP JUMPDEST PUSH1 0x20 DUP1 DUP3 MSTORE DUP2 DUP2 ADD MSTORE PUSH32 0x4F776E61626C653A2063616C6C6572206973206E6F7420746865206F776E6572 PUSH1 0x40 DUP3 ADD MSTORE PUSH1 0x60 ADD SWAP1 JUMP JUMPDEST PUSH4 0x4E487B71 PUSH1 0xE0 SHL PUSH1 0x0 MSTORE PUSH1 0x32 PUSH1 0x4 MSTORE PUSH1 0x24 PUSH1 0x0 REVERT JUMPDEST PUSH4 0x4E487B71 PUSH1 0xE0 SHL PUSH1 0x0 MSTORE PUSH1 0x11 PUSH1 0x4 MSTORE PUSH1 0x24 PUSH1 0x0 REVERT JUMPDEST PUSH1 0x0 PUSH1 0x1 DUP3 ADD PUSH2 0x511A JUMPI PUSH2 0x511A PUSH2 0x50F2 JUMP JUMPDEST POP PUSH1 0x1 ADD SWAP1 JUMP JUMPDEST DUP2 DUP4 DUP3 CALLDATACOPY PUSH1 0x0 SWAP2 ADD SWAP1 DUP2 MSTORE SWAP2 SWAP1 POP JUMP JUMPDEST PUSH1 0x20 DUP1 DUP3 MSTORE PUSH1 0x10 SWAP1 DUP3 ADD MSTORE PUSH16 0x756E737570706F727465642073616C65 PUSH1 0x80 SHL PUSH1 0x40 DUP3 ADD MSTORE PUSH1 0x60 ADD SWAP1 JUMP JUMPDEST DUP1 DUP3 ADD DUP1 DUP3 GT ISZERO PUSH2 0x71D JUMPI PUSH2 0x71D PUSH2 0x50F2 JUMP JUMPDEST DUP2 DUP2 SUB DUP2 DUP2 GT ISZERO PUSH2 0x71D JUMPI PUSH2 0x71D PUSH2 0x50F2 JUMP JUMPDEST PUSH1 0x0 DUP2 MLOAD DUP1 DUP5 MSTORE PUSH2 0x5199 DUP2 PUSH1 0x20 DUP7 ADD PUSH1 0x20 DUP7 ADD PUSH2 0x4E72 JUMP JUMPDEST PUSH1 0x1F ADD PUSH1 0x1F NOT AND SWAP3 SWAP1 SWAP3 ADD PUSH1 0x20 ADD SWAP3 SWAP2 POP POP JUMP JUMPDEST PUSH1 0x0 PUSH2 0x160 DUP1 DUP4 MSTORE DUP9 MLOAD PUSH2 0x100 DUP1 DUP4 DUP7 ADD MSTORE PUSH2 0x51CD PUSH2 0x260 DUP7 ADD DUP4 PUSH2 0x5181 JUMP JUMPDEST PUSH1 0x20 DUP13 ADD MLOAD PUSH1 0x1 PUSH1 0x1 PUSH1 0xA0 SHL SUB AND PUSH2 0x180 DUP8 ADD MSTORE PUSH1 0x40 DUP13 ADD MLOAD PUSH2 0x1A0 DUP8 ADD MSTORE PUSH1 0x60 DUP13 ADD MLOAD PUSH1 0x1 PUSH1 0x1 PUSH1 0x40 SHL SUB AND PUSH2 0x1C0 DUP8 ADD MSTORE PUSH1 0x80 DUP13 ADD MLOAD SWAP1 SWAP4 POP SWAP2 POP PUSH2 0x5220 PUSH2 0x1E0 DUP7 ADD DUP4 PUSH1 0x1 PUSH1 0x1 PUSH1 0xA0 SHL SUB AND SWAP1 MSTORE JUMP JUMPDEST PUSH1 0xA0 DUP12 ADD MLOAD PUSH1 0x1 PUSH1 0x1 PUSH1 0x40 SHL SUB AND PUSH2 0x200 DUP7 ADD MSTORE PUSH1 0xC0 DUP12 ADD MLOAD PUSH1 0x1 PUSH1 0x1 PUSH1 0xA0 SHL SUB DUP2 AND PUSH2 0x220 DUP8 ADD MSTORE PUSH1 0xE0 DUP13 ADD MLOAD PUSH2 0x240 DUP8 ADD MSTORE DUP6 DUP5 SUB PUSH1 0x20 DUP8 ADD MSTORE SWAP2 POP PUSH2 0x5268 DUP4 DUP12 PUSH2 0x4BBF JUMP JUMPDEST SWAP4 POP PUSH2 0x5277 PUSH1 0x40 DUP7 ADD DUP11 PUSH2 0x49D7 JUMP JUMPDEST DUP5 ADD SWAP7 SWAP1 SWAP7 MSTORE POP PUSH2 0x120 DUP3 ADD SWAP4 SWAP1 SWAP4 MSTORE PUSH2 0x140 ADD MSTORE SWAP5 SWAP4 POP POP POP POP JUMP JUMPDEST PUSH1 0x20 DUP1 DUP3 MSTORE PUSH1 0x38 SWAP1 DUP3 ADD MSTORE PUSH32 0x73686F756C64206E6F74206265207A65726F2061646472657373206F72207072 PUSH1 0x40 DUP3 ADD MSTORE PUSH32 0x6576696F757320736574746C656D656E74206164726573730000000000000000 PUSH1 0x60 DUP3 ADD MSTORE PUSH1 0x80 ADD SWAP1 JUMP JUMPDEST PUSH1 0x20 DUP1 DUP3 MSTORE PUSH1 0x3D SWAP1 DUP3 ADD MSTORE PUSH32 0x6D696E696D756D20666961742070726963652073686F756C64206265207A6572 PUSH1 0x40 DUP3 ADD MSTORE PUSH32 0x6F20696620746865207061796D656E74206973206F662063727970746F000000 PUSH1 0x60 DUP3 ADD MSTORE PUSH1 0x80 ADD SWAP1 JUMP JUMPDEST PUSH1 0x20 DUP1 DUP3 MSTORE PUSH1 0x38 SWAP1 DUP3 ADD MSTORE PUSH32 0x73686F756C642070726F7669646520657175616C206C656E67746820696E2070 PUSH1 0x40 DUP3 ADD MSTORE PUSH32 0x7269636520616E64207061796D656E7420616464726573730000000000000000 PUSH1 0x60 DUP3 ADD MSTORE PUSH1 0x80 ADD SWAP1 JUMP JUMPDEST PUSH1 0x20 DUP1 DUP3 MSTORE PUSH1 0x33 SWAP1 DUP3 ADD MSTORE PUSH32 0x6D696E696D756D20707269636520696E2063727970746F2073686F756C642062 PUSH1 0x40 DUP3 ADD MSTORE PUSH19 0x652067726561746572207468616E207A65726F PUSH1 0x68 SHL PUSH1 0x60 DUP3 ADD MSTORE PUSH1 0x80 ADD SWAP1 JUMP JUMPDEST PUSH1 0x20 DUP1 DUP3 MSTORE PUSH1 0x3F SWAP1 DUP3 ADD MSTORE PUSH32 0x63727970746F207061796D656E742064657461696C732073686F756C64206265 PUSH1 0x40 DUP3 ADD MSTORE PUSH32 0x206E756C6C20696620746865207061796D656E74206973206F66206669617400 PUSH1 0x60 DUP3 ADD MSTORE PUSH1 0x80 ADD SWAP1 JUMP JUMPDEST PUSH1 0x20 DUP1 DUP3 MSTORE PUSH1 0x31 SWAP1 DUP3 ADD MSTORE PUSH32 0x6D696E696D756D20707269636520696E20666961742073686F756C6420626520 PUSH1 0x40 DUP3 ADD MSTORE PUSH17 0x67726561746572207468616E207A65726F PUSH1 0x78 SHL PUSH1 0x60 DUP3 ADD MSTORE PUSH1 0x80 ADD SWAP1 JUMP JUMPDEST PUSH2 0xFFFF DUP2 DUP2 AND DUP4 DUP3 AND ADD SWAP1 DUP1 DUP3 GT ISZERO PUSH2 0x3FC6 JUMPI PUSH2 0x3FC6 PUSH2 0x50F2 JUMP JUMPDEST PUSH1 0x0 PUSH1 0x20 DUP3 DUP5 SUB SLT ISZERO PUSH2 0x54D9 JUMPI PUSH1 0x0 DUP1 REVERT JUMPDEST DUP2 CALLDATALOAD PUSH2 0x26A5 DUP2 PUSH2 0x4CAA JUMP JUMPDEST PUSH1 0x0 DUP1 DUP4 CALLDATALOAD PUSH1 0x1E NOT DUP5 CALLDATASIZE SUB ADD DUP2 SLT PUSH2 0x54FB JUMPI PUSH1 0x0 DUP1 REVERT JUMPDEST DUP4 ADD DUP1 CALLDATALOAD SWAP2 POP PUSH1 0x1 PUSH1 0x1 PUSH1 0x40 SHL SUB DUP3 GT ISZERO PUSH2 0x5515 JUMPI PUSH1 0x0 DUP1 REVERT JUMPDEST PUSH1 0x20 ADD SWAP2 POP PUSH1 0x5 DUP2 SWAP1 SHL CALLDATASIZE SUB DUP3 SGT ISZERO PUSH2 0x498F JUMPI PUSH1 0x0 DUP1 REVERT JUMPDEST PUSH1 0x1 PUSH1 0x1 PUSH1 0xE0 SHL SUB NOT SWAP2 SWAP1 SWAP2 AND DUP2 MSTORE PUSH1 0x20 ADD SWAP1 JUMP JUMPDEST PUSH1 0x0 PUSH1 0x20 DUP3 DUP5 SUB SLT ISZERO PUSH2 0x5554 JUMPI PUSH1 0x0 DUP1 REVERT JUMPDEST DUP2 MLOAD DUP1 ISZERO ISZERO DUP2 EQ PUSH2 0x26A5 JUMPI PUSH1 0x0 DUP1 REVERT JUMPDEST PUSH1 0x0 DUP2 CALLDATALOAD PUSH2 0x71D DUP2 PUSH2 0x47A8 JUMP JUMPDEST DUP1 SLOAD PUSH1 0x1 PUSH1 0x1 PUSH1 0xA0 SHL SUB NOT AND PUSH1 0x1 PUSH1 0x1 PUSH1 0xA0 SHL SUB SWAP3 SWAP1 SWAP3 AND SWAP2 SWAP1 SWAP2 OR SWAP1 SSTORE JUMP JUMPDEST PUSH1 0x0 DUP2 CALLDATALOAD PUSH2 0x71D DUP2 PUSH2 0x4766 JUMP JUMPDEST DUP1 DUP3 MUL DUP2 ISZERO DUP3 DUP3 DIV DUP5 EQ OR PUSH2 0x71D JUMPI PUSH2 0x71D PUSH2 0x50F2 JUMP JUMPDEST DUP2 DUP4 LT ISZERO PUSH2 0x432A JUMPI PUSH1 0x0 DUP2 DUP2 MSTORE PUSH1 0x20 DUP2 KECCAK256 DUP5 DUP2 ADD SWAP1 DUP5 ADD JUMPDEST DUP1 DUP3 LT ISZERO PUSH2 0x55E3 JUMPI DUP3 DUP3 SSTORE PUSH1 0x1 DUP3 ADD SWAP2 POP PUSH2 0x55CD JUMP JUMPDEST POP POP POP POP POP POP JUMP JUMPDEST PUSH1 0x1 PUSH1 0x1 PUSH1 0x40 SHL SUB DUP4 GT ISZERO PUSH2 0x5602 JUMPI PUSH2 0x5602 PUSH2 0x47E5 JUMP JUMPDEST PUSH1 0x1 PUSH1 0x40 SHL DUP4 GT ISZERO PUSH2 0x5616 JUMPI PUSH2 0x5616 PUSH2 0x47E5 JUMP JUMPDEST DUP1 SLOAD DUP4 DUP3 SSTORE PUSH2 0x5626 DUP5 DUP3 DUP5 PUSH2 0x55B5 JUMP JUMPDEST POP DUP2 DUP2 PUSH1 0x0 MSTORE PUSH1 0x20 DUP1 PUSH1 0x0 KECCAK256 PUSH1 0x0 JUMPDEST DUP7 DUP2 LT ISZERO PUSH2 0x564F JUMPI DUP4 CALLDATALOAD DUP3 DUP3 ADD SSTORE SWAP3 DUP3 ADD SWAP3 PUSH1 0x1 ADD PUSH2 0x5635 JUMP JUMPDEST POP POP POP POP POP POP POP JUMP JUMPDEST PUSH1 0x1 PUSH1 0x1 PUSH1 0x40 SHL SUB DUP4 GT ISZERO PUSH2 0x566F JUMPI PUSH2 0x566F PUSH2 0x47E5 JUMP JUMPDEST PUSH1 0x1 PUSH1 0x40 SHL DUP4 GT ISZERO PUSH2 0x5683 JUMPI PUSH2 0x5683 PUSH2 0x47E5 JUMP JUMPDEST DUP1 SLOAD DUP4 DUP3 SSTORE PUSH2 0x5693 DUP5 DUP3 DUP5 PUSH2 0x55B5 JUMP JUMPDEST POP DUP2 DUP2 PUSH1 0x0 MSTORE PUSH1 0x20 DUP1 PUSH1 0x0 KECCAK256 PUSH1 0x0 JUMPDEST DUP7 DUP2 LT ISZERO PUSH2 0x564F JUMPI DUP4 CALLDATALOAD PUSH2 0x56B5 DUP2 PUSH2 0x47A8 JUMP JUMPDEST DUP3 DUP3 ADD SSTORE SWAP3 DUP3 ADD SWAP3 PUSH1 0x1 ADD PUSH2 0x56A2 JUMP JUMPDEST DUP1 SLOAD PUSH2 0xFFFF PUSH1 0xA0 SHL NOT AND PUSH1 0xA0 SWAP3 SWAP1 SWAP3 SHL PUSH2 0xFFFF PUSH1 0xA0 SHL AND SWAP2 SWAP1 SWAP2 OR SWAP1 SSTORE JUMP JUMPDEST DUP2 CALLDATALOAD PUSH2 0x56EF DUP2 PUSH2 0x47A8 JUMP JUMPDEST PUSH2 0x56F9 DUP2 DUP4 PUSH2 0x5571 JUMP JUMPDEST POP PUSH1 0x20 DUP3 ADD CALLDATALOAD PUSH2 0x5708 DUP2 PUSH2 0x47A8 JUMP JUMPDEST PUSH2 0x5715 DUP2 PUSH1 0x1 DUP5 ADD PUSH2 0x5571 JUMP JUMPDEST POP PUSH1 0x2 DUP2 ADD PUSH1 0x40 DUP4 ADD CALLDATALOAD PUSH2 0x5728 DUP2 PUSH2 0x47A8 JUMP JUMPDEST PUSH2 0x5732 DUP2 DUP4 PUSH2 0x5571 JUMP JUMPDEST POP PUSH1 0x60 DUP4 ADD CALLDATALOAD PUSH2 0x5741 DUP2 PUSH2 0x4C58 JUMP JUMPDEST PUSH2 0x574B DUP2 DUP4 PUSH2 0x56C5 JUMP JUMPDEST POP POP PUSH1 0x3 DUP2 ADD PUSH1 0x80 DUP4 ADD CALLDATALOAD PUSH2 0x575F DUP2 PUSH2 0x47A8 JUMP JUMPDEST PUSH2 0x5769 DUP2 DUP4 PUSH2 0x5571 JUMP JUMPDEST POP PUSH1 0xA0 DUP4 ADD CALLDATALOAD PUSH2 0x5778 DUP2 PUSH2 0x4C58 JUMP JUMPDEST PUSH2 0x40A0 DUP2 DUP4 PUSH2 0x56C5 JUMP JUMPDEST PUSH1 0x0 DUP2 CALLDATALOAD PUSH2 0x71D DUP2 PUSH2 0x4CAA JUMP JUMPDEST PUSH2 0x5798 DUP3 PUSH2 0x4A41 JUMP JUMPDEST DUP1 SLOAD PUSH1 0xFF PUSH1 0x40 SHL DUP4 PUSH1 0x40 SHL AND PUSH1 0xFF PUSH1 0x40 SHL NOT DUP3 AND OR DUP3 SSTORE POP POP POP JUMP JUMPDEST PUSH2 0x57BD DUP3 PUSH2 0x4A41 JUMP JUMPDEST DUP1 SLOAD PUSH1 0xFF PUSH1 0x48 SHL DUP4 PUSH1 0x48 SHL AND PUSH1 0xFF PUSH1 0x48 SHL NOT DUP3 AND OR DUP3 SSTORE POP POP POP JUMP JUMPDEST PUSH2 0x57EB PUSH2 0x57E5 DUP4 PUSH2 0x5564 JUMP JUMPDEST DUP3 PUSH2 0x5571 JUMP JUMPDEST PUSH2 0x5826 PUSH2 0x57FA PUSH1 0x20 DUP5 ADD PUSH2 0x5591 JUMP JUMPDEST DUP3 DUP1 SLOAD PUSH8 0xFFFFFFFFFFFFFFFF PUSH1 0xA0 SHL NOT AND PUSH1 0xA0 SWAP3 SWAP1 SWAP3 SHL PUSH8 0xFFFFFFFFFFFFFFFF PUSH1 0xA0 SHL AND SWAP2 SWAP1 SWAP2 OR SWAP1 SSTORE JUMP JUMPDEST PUSH2 0x5856 PUSH2 0x5835 PUSH1 0x40 DUP5 ADD PUSH2 0x5591 JUMP JUMPDEST PUSH1 0x1 DUP4 ADD PUSH1 0x1 PUSH1 0x1 PUSH1 0x40 SHL SUB DUP3 AND PUSH1 0x1 PUSH1 0x1 PUSH1 0x40 SHL SUB NOT DUP3 SLOAD AND OR DUP2 SSTORE POP POP JUMP JUMPDEST PUSH1 0x60 DUP3 ADD CALLDATALOAD PUSH1 0x2 DUP3 ADD SSTORE PUSH2 0x586D PUSH1 0x80 DUP4 ADD DUP4 PUSH2 0x54E4 JUMP JUMPDEST PUSH2 0x587B DUP2 DUP4 PUSH1 0x3 DUP7 ADD PUSH2 0x55EB JUMP JUMPDEST POP POP PUSH2 0x588A PUSH1 0xA0 DUP4 ADD DUP4 PUSH2 0x54E4 JUMP JUMPDEST PUSH2 0x5898 DUP2 DUP4 PUSH1 0x4 DUP7 ADD PUSH2 0x5658 JUMP JUMPDEST POP POP PUSH2 0x58AA PUSH1 0xC0 DUP4 ADD PUSH1 0x5 DUP4 ADD PUSH2 0x56E4 JUMP JUMPDEST PUSH1 0x9 DUP2 ADD PUSH2 0x58DC PUSH2 0x58BE PUSH2 0x180 DUP6 ADD PUSH2 0x5591 JUMP JUMPDEST DUP3 SLOAD PUSH8 0xFFFFFFFFFFFFFFFF NOT AND PUSH1 0x1 PUSH1 0x1 PUSH1 0x40 SHL SUB SWAP2 SWAP1 SWAP2 AND OR DUP3 SSTORE JUMP JUMPDEST PUSH2 0x58F2 PUSH2 0x58EC PUSH2 0x1A0 DUP6 ADD PUSH2 0x5782 JUMP JUMPDEST DUP3 PUSH2 0x578F JUMP JUMPDEST PUSH2 0x432A PUSH2 0x5902 PUSH2 0x1C0 DUP6 ADD PUSH2 0x5782 JUMP JUMPDEST DUP3 PUSH2 0x57B4 JUMP JUMPDEST PUSH1 0x0 DUP1 DUP4 CALLDATALOAD PUSH1 0x1E NOT DUP5 CALLDATASIZE SUB ADD DUP2 SLT PUSH2 0x591F JUMPI PUSH1 0x0 DUP1 REVERT JUMPDEST DUP4 ADD PUSH1 0x20 DUP2 ADD SWAP3 POP CALLDATALOAD SWAP1 POP PUSH1 0x1 PUSH1 0x1 PUSH1 0x40 SHL SUB DUP2 GT ISZERO PUSH2 0x593E JUMPI PUSH1 0x0 DUP1 REVERT JUMPDEST DUP1 PUSH1 0x5 SHL CALLDATASIZE SUB DUP3 SGT ISZERO PUSH2 0x498F JUMPI PUSH1 0x0 DUP1 REVERT JUMPDEST DUP2 DUP4 MSTORE PUSH1 0x0 PUSH1 0x1 PUSH1 0x1 PUSH1 0xFB SHL SUB DUP4 GT ISZERO PUSH2 0x5969 JUMPI PUSH1 0x0 DUP1 REVERT JUMPDEST DUP3 PUSH1 0x5 SHL DUP1 DUP4 PUSH1 0x20 DUP8 ADD CALLDATACOPY SWAP4 SWAP1 SWAP4 ADD PUSH1 0x20 ADD SWAP4 SWAP3 POP POP POP JUMP JUMPDEST DUP2 DUP4 MSTORE PUSH1 0x0 PUSH1 0x20 DUP1 DUP6 ADD SWAP5 POP DUP3 PUSH1 0x0 JUMPDEST DUP6 DUP2 LT ISZERO PUSH2 0x4930 JUMPI DUP2 CALLDATALOAD PUSH2 0x59A5 DUP2 PUSH2 0x47A8 JUMP JUMPDEST PUSH1 0x1 PUSH1 0x1 PUSH1 0xA0 SHL SUB AND DUP8 MSTORE SWAP6 DUP3 ADD SWAP6 SWAP1 DUP3 ADD SWAP1 PUSH1 0x1 ADD PUSH2 0x5992 JUMP JUMPDEST DUP1 CALLDATALOAD PUSH2 0x59CB DUP2 PUSH2 0x47A8 JUMP JUMPDEST PUSH1 0x1 PUSH1 0x1 PUSH1 0xA0 SHL SUB SWAP1 DUP2 AND DUP4 MSTORE PUSH1 0x20 DUP3 ADD CALLDATALOAD SWAP1 PUSH2 0x59E7 DUP3 PUSH2 0x47A8 JUMP JUMPDEST SWAP1 DUP2 AND PUSH1 0x20 DUP5 ADD MSTORE PUSH1 0x40 DUP3 ADD CALLDATALOAD SWAP1 PUSH2 0x59FE DUP3 PUSH2 0x47A8 JUMP JUMPDEST SWAP1 DUP2 AND PUSH1 0x40 DUP5 ADD MSTORE PUSH1 0x60 DUP3 ADD CALLDATALOAD SWAP1 PUSH2 0x5A15 DUP3 PUSH2 0x4C58 JUMP JUMPDEST PUSH2 0xFFFF SWAP2 DUP3 AND PUSH1 0x60 DUP6 ADD MSTORE PUSH1 0x80 DUP4 ADD CALLDATALOAD SWAP2 PUSH2 0x5A2F DUP4 PUSH2 0x47A8 JUMP JUMPDEST SWAP2 DUP2 AND PUSH1 0x80 DUP6 ADD MSTORE PUSH1 0xA0 DUP4 ADD CALLDATALOAD SWAP2 PUSH2 0x5A46 DUP4 PUSH2 0x4C58 JUMP JUMPDEST DUP1 DUP4 AND PUSH1 0xA0 DUP7 ADD MSTORE POP POP POP POP POP JUMP JUMPDEST PUSH1 0x20 DUP2 MSTORE PUSH2 0x5A76 PUSH1 0x20 DUP3 ADD PUSH2 0x5A69 DUP5 PUSH2 0x47BD JUMP JUMPDEST PUSH1 0x1 PUSH1 0x1 PUSH1 0xA0 SHL SUB AND SWAP1 MSTORE JUMP JUMPDEST PUSH1 0x0 PUSH2 0x5A84 PUSH1 0x20 DUP5 ADD PUSH2 0x477B JUMP JUMPDEST PUSH1 0x1 PUSH1 0x1 PUSH1 0x40 SHL SUB DUP2 AND PUSH1 0x40 DUP5 ADD MSTORE POP PUSH2 0x5AA0 PUSH1 0x40 DUP5 ADD PUSH2 0x477B JUMP JUMPDEST PUSH1 0x1 PUSH1 0x1 PUSH1 0x40 SHL SUB DUP2 AND PUSH1 0x60 DUP5 ADD MSTORE POP PUSH1 0x60 DUP4 ADD CALLDATALOAD PUSH1 0x80 DUP4 ADD MSTORE PUSH2 0x5AC7 PUSH1 0x80 DUP5 ADD DUP5 PUSH2 0x5908 JUMP JUMPDEST PUSH2 0x1E0 DUP1 PUSH1 0xA0 DUP7 ADD MSTORE PUSH2 0x5ADF PUSH2 0x200 DUP7 ADD DUP4 DUP6 PUSH2 0x5950 JUMP JUMPDEST SWAP3 POP PUSH2 0x5AEE PUSH1 0xA0 DUP8 ADD DUP8 PUSH2 0x5908 JUMP JUMPDEST DUP7 DUP6 SUB PUSH1 0x1F NOT ADD PUSH1 0xC0 DUP9 ADD MSTORE SWAP3 POP PUSH2 0x5B07 DUP5 DUP5 DUP4 PUSH2 0x5982 JUMP JUMPDEST SWAP4 POP POP PUSH2 0x5B1A PUSH1 0xE0 DUP7 ADD PUSH1 0xC0 DUP9 ADD PUSH2 0x59C0 JUMP JUMPDEST PUSH2 0x5B27 PUSH2 0x180 DUP8 ADD PUSH2 0x477B JUMP JUMPDEST SWAP2 POP PUSH2 0x1A0 PUSH2 0x5B40 DUP2 DUP8 ADD DUP5 PUSH1 0x1 PUSH1 0x1 PUSH1 0x40 SHL SUB AND SWAP1 MSTORE JUMP JUMPDEST PUSH2 0x5B4B DUP2 DUP9 ADD PUSH2 0x4CB7 JUMP JUMPDEST SWAP3 POP POP PUSH2 0x1C0 PUSH2 0x5B5D DUP2 DUP8 ADD DUP5 PUSH2 0x4A5F JUMP JUMPDEST PUSH2 0x5B68 DUP2 DUP9 ADD PUSH2 0x4CB7 JUMP JUMPDEST SWAP3 POP POP PUSH2 0x5B77 DUP2 DUP7 ADD DUP4 PUSH2 0x4A5F JUMP JUMPDEST POP SWAP1 SWAP5 SWAP4 POP POP POP POP JUMP JUMPDEST PUSH1 0x20 DUP1 DUP3 MSTORE PUSH1 0x4F SWAP1 DUP3 ADD MSTORE PUSH32 0x54686973206973206E6F7420612076616C696420746F6B656E49642E20506C65 PUSH1 0x40 DUP3 ADD MSTORE PUSH32 0x6173652076657269667920746861742074686520746F6B656E49642070726F76 PUSH1 0x60 DUP3 ADD MSTORE PUSH15 0x1A591959081A5CC818DBDC9C9958DD PUSH1 0x8A SHL PUSH1 0x80 DUP3 ADD MSTORE PUSH1 0xA0 ADD SWAP1 JUMP JUMPDEST PUSH1 0x0 PUSH1 0x20 DUP3 DUP5 SUB SLT ISZERO PUSH2 0x5C08 JUMPI PUSH1 0x0 DUP1 REVERT JUMPDEST POP MLOAD SWAP2 SWAP1 POP JUMP JUMPDEST PUSH1 0x0 PUSH1 0x20 DUP3 DUP5 SUB SLT ISZERO PUSH2 0x5C21 JUMPI PUSH1 0x0 DUP1 REVERT JUMPDEST DUP2 MLOAD PUSH2 0x26A5 DUP2 PUSH2 0x47A8 JUMP JUMPDEST PUSH1 0x0 PUSH1 0x1 PUSH1 0x1 PUSH1 0x40 SHL SUB DUP3 GT ISZERO PUSH2 0x5C45 JUMPI PUSH2 0x5C45 PUSH2 0x47E5 JUMP JUMPDEST POP PUSH1 0x5 SHL PUSH1 0x20 ADD SWAP1 JUMP JUMPDEST PUSH1 0x0 DUP3 PUSH1 0x1F DUP4 ADD SLT PUSH2 0x5C60 JUMPI PUSH1 0x0 DUP1 REVERT JUMPDEST DUP2 MLOAD PUSH1 0x20 PUSH2 0x5C75 PUSH2 0x5C70 DUP4 PUSH2 0x5C2C JUMP JUMPDEST PUSH2 0x4824 JUMP JUMPDEST DUP3 DUP2 MSTORE PUSH1 0x5 SWAP3 SWAP1 SWAP3 SHL DUP5 ADD DUP2 ADD SWAP2 DUP2 DUP2 ADD SWAP1 DUP7 DUP5 GT ISZERO PUSH2 0x5C94 JUMPI PUSH1 0x0 DUP1 REVERT JUMPDEST DUP3 DUP7 ADD JUMPDEST DUP5 DUP2 LT ISZERO PUSH2 0x5CAF JUMPI DUP1 MLOAD DUP4 MSTORE SWAP2 DUP4 ADD SWAP2 DUP4 ADD PUSH2 0x5C98 JUMP JUMPDEST POP SWAP7 SWAP6 POP POP POP POP POP POP JUMP JUMPDEST PUSH1 0x0 PUSH1 0x20 DUP3 DUP5 SUB SLT ISZERO PUSH2 0x5CCC JUMPI PUSH1 0x0 DUP1 REVERT JUMPDEST DUP2 MLOAD PUSH1 0x1 PUSH1 0x1 PUSH1 0x40 SHL SUB DUP2 GT ISZERO PUSH2 0x5CE2 JUMPI PUSH1 0x0 DUP1 REVERT JUMPDEST PUSH2 0x4516 DUP5 DUP3 DUP6 ADD PUSH2 0x5C4F JUMP JUMPDEST PUSH1 0x60 DUP2 MSTORE PUSH1 0x0 PUSH2 0x5D01 PUSH1 0x60 DUP4 ADD DUP7 PUSH2 0x48F7 JUMP JUMPDEST PUSH1 0x20 DUP4 DUP3 SUB DUP2 DUP6 ADD MSTORE PUSH2 0x5D14 DUP3 DUP8 PUSH2 0x4BBF JUMP JUMPDEST SWAP2 POP DUP4 DUP3 SUB PUSH1 0x40 DUP6 ADD MSTORE DUP2 DUP6 MLOAD DUP1 DUP5 MSTORE DUP3 DUP5 ADD SWAP2 POP DUP3 DUP2 PUSH1 0x5 SHL DUP6 ADD ADD DUP4 DUP9 ADD PUSH1 0x0 JUMPDEST DUP4 DUP2 LT ISZERO PUSH2 0x5D65 JUMPI PUSH1 0x1F NOT DUP8 DUP5 SUB ADD DUP6 MSTORE PUSH2 0x5D53 DUP4 DUP4 MLOAD PUSH2 0x5181 JUMP JUMPDEST SWAP5 DUP7 ADD SWAP5 SWAP3 POP SWAP1 DUP6 ADD SWAP1 PUSH1 0x1 ADD PUSH2 0x5D37 JUMP JUMPDEST POP SWAP1 SWAP11 SWAP10 POP POP POP POP POP POP POP POP POP POP JUMP JUMPDEST PUSH1 0x60 DUP2 MSTORE PUSH1 0x0 PUSH2 0x5D88 PUSH1 0x60 DUP4 ADD DUP7 PUSH2 0x48F7 JUMP JUMPDEST DUP3 DUP2 SUB PUSH1 0x20 DUP5 ADD MSTORE PUSH2 0x5D9A DUP2 DUP7 PUSH2 0x4BBF JUMP JUMPDEST SWAP1 POP DUP3 DUP2 SUB PUSH1 0x40 DUP5 ADD MSTORE PUSH2 0x5DAE DUP2 DUP6 PUSH2 0x4BBF JUMP JUMPDEST SWAP7 SWAP6 POP POP POP POP POP POP JUMP JUMPDEST PUSH1 0x0 DUP3 PUSH2 0x5DD5 JUMPI PUSH4 0x4E487B71 PUSH1 0xE0 SHL PUSH1 0x0 MSTORE PUSH1 0x12 PUSH1 0x4 MSTORE PUSH1 0x24 PUSH1 0x0 REVERT JUMPDEST POP DIV SWAP1 JUMP JUMPDEST PUSH4 0x4E487B71 PUSH1 0xE0 SHL PUSH1 0x0 MSTORE PUSH1 0x31 PUSH1 0x4 MSTORE PUSH1 0x24 PUSH1 0x0 REVERT JUMPDEST PUSH1 0x0 DUP1 PUSH1 0x40 DUP4 DUP6 SUB SLT ISZERO PUSH2 0x5E03 JUMPI PUSH1 0x0 DUP1 REVERT JUMPDEST DUP3 MLOAD PUSH1 0x1 PUSH1 0x1 PUSH1 0x40 SHL SUB DUP1 DUP3 GT ISZERO PUSH2 0x5E1A JUMPI PUSH1 0x0 DUP1 REVERT JUMPDEST DUP2 DUP6 ADD SWAP2 POP DUP6 PUSH1 0x1F DUP4 ADD SLT PUSH2 0x5E2E JUMPI PUSH1 0x0 DUP1 REVERT JUMPDEST DUP2 MLOAD PUSH1 0x20 PUSH2 0x5E3E PUSH2 0x5C70 DUP4 PUSH2 0x5C2C JUMP JUMPDEST DUP3 DUP2 MSTORE PUSH1 0x5 SWAP3 SWAP1 SWAP3 SHL DUP5 ADD DUP2 ADD SWAP2 DUP2 DUP2 ADD SWAP1 DUP10 DUP5 GT ISZERO PUSH2 0x5E5D JUMPI PUSH1 0x0 DUP1 REVERT JUMPDEST SWAP5 DUP3 ADD SWAP5 JUMPDEST DUP4 DUP7 LT ISZERO PUSH2 0x5E84 JUMPI DUP6 MLOAD PUSH2 0x5E75 DUP2 PUSH2 0x47A8 JUMP JUMPDEST DUP3 MSTORE SWAP5 DUP3 ADD SWAP5 SWAP1 DUP3 ADD SWAP1 PUSH2 0x5E62 JUMP JUMPDEST SWAP2 DUP9 ADD MLOAD SWAP2 SWAP7 POP SWAP1 SWAP4 POP POP POP DUP1 DUP3 GT ISZERO PUSH2 0x5E9D JUMPI PUSH1 0x0 DUP1 REVERT JUMPDEST POP PUSH2 0x5EAA DUP6 DUP3 DUP7 ADD PUSH2 0x5C4F JUMP JUMPDEST SWAP2 POP POP SWAP3 POP SWAP3 SWAP1 POP JUMP JUMPDEST PUSH1 0x20 DUP2 MSTORE PUSH1 0x0 PUSH2 0x26A5 PUSH1 0x20 DUP4 ADD DUP5 PUSH2 0x5181 JUMP INVALID LOG2 PUSH5 0x6970667358 0x22 SLT KECCAK256 0xB4 0xD1 EXTCODEHASH LOG3 PUSH7 0x32165ACA3E5C4D 0xD7 0xE5 0xC5 PUSH22 0xFAC81E3D8C385396F045BCD1DF4D0AE964736F6C6343 STOP ADDMOD GT STOP CALLER "
		},
		"gasEstimates": {
			"creation": {
				"codeDepositCost": "4863400",
				"executionCost": "infinite",
				"totalCost": "infinite"
			},
			"external": {
				"": "186",
				"approveAdmin(address)": "infinite",
				"buy((string,address,uint256,uint64,address,uint64,address,uint256),uint256)": "infinite",
				"cancelSale(string)": "infinite",
				"createSale((address,uint64,uint64,uint256,uint256[],address[],(address,address,address,uint16,address,uint16),uint64,uint8,uint8),string)": "infinite",
				"getAdmins()": "infinite",
				"getListingPrice(string)": "infinite",
				"getSettlementAddressBps(string)": "infinite",
				"isAdmin(address)": "infinite",
				"listings(string)": "infinite",
				"max1155Quantity()": "2400",
				"owner()": "2388",
				"platformAddress()": "2404",
				"platformFeePercentage()": "2441",
				"priceFeedAddress()": "2381",
				"renounceOwnership()": "30251",
				"revokeAdmin(address)": "infinite",
				"royaltySupport()": "2382",
				"supportsInterface(bytes4)": "473",
				"tokensUsed(string)": "infinite",
				"transferOwnership(address)": "30482",
				"updatePayment(string,uint8,uint256,uint256[],address[])": "infinite",
				"updatePlatformAddress(address)": "infinite",
				"updatePlatformFeePercentage(uint16)": "infinite",
				"updatePricefeedContract(address)": "infinite",
				"updateRoyaltyContract(address)": "infinite",
				"updatemax1155Quantity(uint64)": "infinite",
				"updatepaymentSettlementAddress(string,address)": "infinite",
				"updatetaxSettlementAddress(string,address)": "infinite",
				"withdraw()": "infinite"
			},
			"internal": {
				"_handlePayment(address,address payable,address,uint256)": "infinite",
				"_handleRoyaltyEnginePayout(address,address,uint256,uint256,address)": "infinite",
				"_tokenTransaction(string memory,address,address,address,uint256,uint256,uint256,enum buyListing.TransactionStatus)": "infinite",
				"errorHandling(string memory,uint256,uint256,uint256,address,uint256,address)": "infinite",
				"paymentTransaction(string memory,uint256,uint256,address,uint256,uint256[] memory,address,enum buyListing.TransactionStatus)": "infinite",
				"royaltyPayout(address,uint256,uint256[] memory,address,uint256,address,enum buyListing.TransactionStatus)": "infinite"
			}
		},
		"methodIdentifiers": {
			"approveAdmin(address)": "6d73e669",
			"buy((string,address,uint256,uint64,address,uint64,address,uint256),uint256)": "acecf9de",
			"cancelSale(string)": "2977f78a",
			"createSale((address,uint64,uint64,uint256,uint256[],address[],(address,address,address,uint16,address,uint16),uint64,uint8,uint8),string)": "fd114f08",
			"getAdmins()": "31ae450b",
			"getListingPrice(string)": "df354bdd",
			"getSettlementAddressBps(string)": "676a7b77",
			"isAdmin(address)": "24d7806c",
			"listings(string)": "77dec6c3",
			"max1155Quantity()": "49ef4dd9",
			"owner()": "8da5cb5b",
			"platformAddress()": "dbe55e56",
			"platformFeePercentage()": "cdd78cfc",
			"priceFeedAddress()": "e0abca0b",
			"renounceOwnership()": "715018a6",
			"revokeAdmin(address)": "2d345670",
			"royaltySupport()": "da20872a",
			"supportsInterface(bytes4)": "01ffc9a7",
			"tokensUsed(string)": "858a6dc8",
			"transferOwnership(address)": "f2fde38b",
			"updatePayment(string,uint8,uint256,uint256[],address[])": "dfa12f79",
			"updatePlatformAddress(address)": "8f9f193f",
			"updatePlatformFeePercentage(uint16)": "cbc9a941",
			"updatePricefeedContract(address)": "705e3f6c",
			"updateRoyaltyContract(address)": "4b9804b2",
			"updatemax1155Quantity(uint64)": "19e4367c",
			"updatepaymentSettlementAddress(string,address)": "e8ac841f",
			"updatetaxSettlementAddress(string,address)": "bf9afc18",
			"withdraw()": "3ccfd60b"
		}
	},
	"abi": [
		{
			"inputs": [
				{
					"internalType": "address",
					"name": "_platformAddress",
					"type": "address"
				},
				{
					"internalType": "uint16",
					"name": "_platformFeePercentage",
					"type": "uint16"
				},
				{
					"internalType": "uint64",
					"name": "_max1155Quantity",
					"type": "uint64"
				},
				{
					"internalType": "contract IPriceFeed",
					"name": "_priceFeedAddress",
					"type": "address"
				},
				{
					"internalType": "contract IRoyaltyEngine",
					"name": "_royaltycontract",
					"type": "address"
				}
			],
			"stateMutability": "nonpayable",
			"type": "constructor"
		},
		{
			"anonymous": false,
			"inputs": [
				{
					"indexed": true,
					"internalType": "address",
					"name": "account",
					"type": "address"
				},
				{
					"indexed": true,
					"internalType": "address",
					"name": "sender",
					"type": "address"
				}
			],
			"name": "AdminApproved",
			"type": "event"
		},
		{
			"anonymous": false,
			"inputs": [
				{
					"indexed": true,
					"internalType": "address",
					"name": "account",
					"type": "address"
				},
				{
					"indexed": true,
					"internalType": "address",
					"name": "sender",
					"type": "address"
				}
			],
			"name": "AdminRevoked",
			"type": "event"
		},
		{
			"anonymous": false,
			"inputs": [
				{
					"indexed": true,
					"internalType": "address",
					"name": "tokenContract",
					"type": "address"
				},
				{
					"components": [
						{
							"internalType": "string",
							"name": "saleId",
							"type": "string"
						},
						{
							"internalType": "address",
							"name": "tokenOwner",
							"type": "address"
						},
						{
							"internalType": "uint256",
							"name": "tokenId",
							"type": "uint256"
						},
						{
							"internalType": "uint64",
							"name": "tokenQuantity",
							"type": "uint64"
						},
						{
							"internalType": "address",
							"name": "buyer",
							"type": "address"
						},
						{
							"internalType": "uint64",
							"name": "quantity",
							"type": "uint64"
						},
						{
							"internalType": "address",
							"name": "paymentToken",
							"type": "address"
						},
						{
							"internalType": "uint256",
							"name": "paymentAmount",
							"type": "uint256"
						}
					],
					"indexed": false,
					"internalType": "struct buyListing.BuyList",
					"name": "buyingDetails",
					"type": "tuple"
				},
				{
					"indexed": false,
					"internalType": "uint256[]",
					"name": "MintedtokenId",
					"type": "uint256[]"
				},
				{
					"components": [
						{
							"internalType": "address",
							"name": "paymentSettlementAddress",
							"type": "address"
						},
						{
							"internalType": "address",
							"name": "taxSettlementAddress",
							"type": "address"
						},
						{
							"internalType": "address",
							"name": "platformSettlementAddress",
							"type": "address"
						},
						{
							"internalType": "uint16",
							"name": "platformFeePercentage",
							"type": "uint16"
						},
						{
							"internalType": "address",
							"name": "commissionAddress",
							"type": "address"
						},
						{
							"internalType": "uint16",
							"name": "commissionFeePercentage",
							"type": "uint16"
						}
					],
					"indexed": false,
					"internalType": "struct buyListing.settlementList",
					"name": "paymentSettlement",
					"type": "tuple"
				},
				{
					"indexed": false,
					"internalType": "uint256",
					"name": "tax",
					"type": "uint256"
				},
				{
					"indexed": false,
					"internalType": "uint256",
					"name": "paymentAmount",
					"type": "uint256"
				},
				{
					"indexed": false,
					"internalType": "uint256",
					"name": "excessAmount",
					"type": "uint256"
				}
			],
			"name": "BuyExecuted",
			"type": "event"
		},
		{
			"anonymous": false,
			"inputs": [
				{
					"indexed": true,
					"internalType": "address",
					"name": "previousOwner",
					"type": "address"
				},
				{
					"indexed": true,
					"internalType": "address",
					"name": "newOwner",
					"type": "address"
				}
			],
			"name": "OwnershipTransferred",
			"type": "event"
		},
		{
			"anonymous": false,
			"inputs": [
				{
					"indexed": false,
					"internalType": "address",
					"name": "tokenContract",
					"type": "address"
				},
				{
					"indexed": false,
					"internalType": "uint256",
					"name": "tokenId",
					"type": "uint256"
				},
				{
					"indexed": false,
					"internalType": "address",
					"name": "recipient",
					"type": "address"
				},
				{
					"indexed": false,
					"internalType": "uint256",
					"name": "amount",
					"type": "uint256"
				}
			],
			"name": "RoyaltyPayout",
			"type": "event"
		},
		{
			"anonymous": false,
			"inputs": [
				{
					"components": [
						{
							"internalType": "address",
							"name": "nftContractAddress",
							"type": "address"
						},
						{
							"internalType": "uint64",
							"name": "nftStartTokenId",
							"type": "uint64"
						},
						{
							"internalType": "uint64",
							"name": "nftEndTokenId",
							"type": "uint64"
						},
						{
							"internalType": "uint256",
							"name": "minimumFiatPrice",
							"type": "uint256"
						},
						{
							"internalType": "uint256[]",
							"name": "minimumCryptoPrice",
							"type": "uint256[]"
						},
						{
							"internalType": "address[]",
							"name": "paymentCurrency",
							"type": "address[]"
						},
						{
							"components": [
								{
									"internalType": "address",
									"name": "paymentSettlementAddress",
									"type": "address"
								},
								{
									"internalType": "address",
									"name": "taxSettlementAddress",
									"type": "address"
								},
								{
									"internalType": "address",
									"name": "platformSettlementAddress",
									"type": "address"
								},
								{
									"internalType": "uint16",
									"name": "platformFeePercentage",
									"type": "uint16"
								},
								{
									"internalType": "address",
									"name": "commissionAddress",
									"type": "address"
								},
								{
									"internalType": "uint16",
									"name": "commissionFeePercentage",
									"type": "uint16"
								}
							],
							"internalType": "struct buyListing.settlementList",
							"name": "paymentSettlement",
							"type": "tuple"
						},
						{
							"internalType": "uint64",
							"name": "maxCap",
							"type": "uint64"
						},
						{
							"internalType": "enum buyListing.TransactionStatus",
							"name": "transactionStatus",
							"type": "uint8"
						},
						{
							"internalType": "enum buyListing.PaymentStatus",
							"name": "paymentStatus",
							"type": "uint8"
						}
					],
					"indexed": false,
					"internalType": "struct buyListing.PriceList",
					"name": "saleList",
					"type": "tuple"
				}
			],
			"name": "saleClosed",
			"type": "event"
		},
		{
			"anonymous": false,
			"inputs": [
				{
					"components": [
						{
							"internalType": "address",
							"name": "nftContractAddress",
							"type": "address"
						},
						{
							"internalType": "uint64",
							"name": "nftStartTokenId",
							"type": "uint64"
						},
						{
							"internalType": "uint64",
							"name": "nftEndTokenId",
							"type": "uint64"
						},
						{
							"internalType": "uint256",
							"name": "minimumFiatPrice",
							"type": "uint256"
						},
						{
							"internalType": "uint256[]",
							"name": "minimumCryptoPrice",
							"type": "uint256[]"
						},
						{
							"internalType": "address[]",
							"name": "paymentCurrency",
							"type": "address[]"
						},
						{
							"components": [
								{
									"internalType": "address",
									"name": "paymentSettlementAddress",
									"type": "address"
								},
								{
									"internalType": "address",
									"name": "taxSettlementAddress",
									"type": "address"
								},
								{
									"internalType": "address",
									"name": "platformSettlementAddress",
									"type": "address"
								},
								{
									"internalType": "uint16",
									"name": "platformFeePercentage",
									"type": "uint16"
								},
								{
									"internalType": "address",
									"name": "commissionAddress",
									"type": "address"
								},
								{
									"internalType": "uint16",
									"name": "commissionFeePercentage",
									"type": "uint16"
								}
							],
							"internalType": "struct buyListing.settlementList",
							"name": "paymentSettlement",
							"type": "tuple"
						},
						{
							"internalType": "uint64",
							"name": "maxCap",
							"type": "uint64"
						},
						{
							"internalType": "enum buyListing.TransactionStatus",
							"name": "transactionStatus",
							"type": "uint8"
						},
						{
							"internalType": "enum buyListing.PaymentStatus",
							"name": "paymentStatus",
							"type": "uint8"
						}
					],
					"indexed": false,
					"internalType": "struct buyListing.PriceList",
					"name": "saleList",
					"type": "tuple"
				}
			],
			"name": "saleCreated",
			"type": "event"
		},
		{
			"stateMutability": "payable",
			"type": "fallback"
		},
		{
			"inputs": [
				{
					"internalType": "address",
					"name": "admin",
					"type": "address"
				}
			],
			"name": "approveAdmin",
			"outputs": [],
			"stateMutability": "nonpayable",
			"type": "function"
		},
		{
			"inputs": [
				{
					"components": [
						{
							"internalType": "string",
							"name": "saleId",
							"type": "string"
						},
						{
							"internalType": "address",
							"name": "tokenOwner",
							"type": "address"
						},
						{
							"internalType": "uint256",
							"name": "tokenId",
							"type": "uint256"
						},
						{
							"internalType": "uint64",
							"name": "tokenQuantity",
							"type": "uint64"
						},
						{
							"internalType": "address",
							"name": "buyer",
							"type": "address"
						},
						{
							"internalType": "uint64",
							"name": "quantity",
							"type": "uint64"
						},
						{
							"internalType": "address",
							"name": "paymentToken",
							"type": "address"
						},
						{
							"internalType": "uint256",
							"name": "paymentAmount",
							"type": "uint256"
						}
					],
					"internalType": "struct buyListing.BuyList",
					"name": "list",
					"type": "tuple"
				},
				{
					"internalType": "uint256",
					"name": "tax",
					"type": "uint256"
				}
			],
			"name": "buy",
			"outputs": [
				{
					"internalType": "uint256[]",
					"name": "nftTokenId",
					"type": "uint256[]"
				}
			],
			"stateMutability": "payable",
			"type": "function"
		},
		{
			"inputs": [
				{
					"internalType": "string",
					"name": "saleId",
					"type": "string"
				}
			],
			"name": "cancelSale",
			"outputs": [],
			"stateMutability": "nonpayable",
			"type": "function"
		},
		{
			"inputs": [
				{
					"components": [
						{
							"internalType": "address",
							"name": "nftContractAddress",
							"type": "address"
						},
						{
							"internalType": "uint64",
							"name": "nftStartTokenId",
							"type": "uint64"
						},
						{
							"internalType": "uint64",
							"name": "nftEndTokenId",
							"type": "uint64"
						},
						{
							"internalType": "uint256",
							"name": "minimumFiatPrice",
							"type": "uint256"
						},
						{
							"internalType": "uint256[]",
							"name": "minimumCryptoPrice",
							"type": "uint256[]"
						},
						{
							"internalType": "address[]",
							"name": "paymentCurrency",
							"type": "address[]"
						},
						{
							"components": [
								{
									"internalType": "address",
									"name": "paymentSettlementAddress",
									"type": "address"
								},
								{
									"internalType": "address",
									"name": "taxSettlementAddress",
									"type": "address"
								},
								{
									"internalType": "address",
									"name": "platformSettlementAddress",
									"type": "address"
								},
								{
									"internalType": "uint16",
									"name": "platformFeePercentage",
									"type": "uint16"
								},
								{
									"internalType": "address",
									"name": "commissionAddress",
									"type": "address"
								},
								{
									"internalType": "uint16",
									"name": "commissionFeePercentage",
									"type": "uint16"
								}
							],
							"internalType": "struct buyListing.settlementList",
							"name": "paymentSettlement",
							"type": "tuple"
						},
						{
							"internalType": "uint64",
							"name": "maxCap",
							"type": "uint64"
						},
						{
							"internalType": "enum buyListing.TransactionStatus",
							"name": "transactionStatus",
							"type": "uint8"
						},
						{
							"internalType": "enum buyListing.PaymentStatus",
							"name": "paymentStatus",
							"type": "uint8"
						}
					],
					"internalType": "struct buyListing.PriceList",
					"name": "list",
					"type": "tuple"
				},
				{
					"internalType": "string",
					"name": "saleId",
					"type": "string"
				}
			],
			"name": "createSale",
			"outputs": [],
			"stateMutability": "nonpayable",
			"type": "function"
		},
		{
			"inputs": [],
			"name": "getAdmins",
			"outputs": [
				{
					"internalType": "address[]",
					"name": "admins",
					"type": "address[]"
				}
			],
			"stateMutability": "view",
			"type": "function"
		},
		{
			"inputs": [
				{
					"internalType": "string",
					"name": "saleId",
					"type": "string"
				}
			],
			"name": "getListingPrice",
			"outputs": [
				{
					"internalType": "uint256[]",
					"name": "minimumCryptoPrice",
					"type": "uint256[]"
				},
				{
					"internalType": "address[]",
					"name": "paymentCurrency",
					"type": "address[]"
				}
			],
			"stateMutability": "view",
			"type": "function"
		},
		{
			"inputs": [
				{
					"internalType": "string",
					"name": "saleId",
					"type": "string"
				}
			],
			"name": "getSettlementAddressBps",
			"outputs": [
				{
					"internalType": "uint16",
					"name": "_platformFeePercentage",
					"type": "uint16"
				},
				{
					"internalType": "address",
					"name": "_platformSettlementAddress",
					"type": "address"
				},
				{
					"internalType": "uint16",
					"name": "_commissionFeePercentage",
					"type": "uint16"
				},
				{
					"internalType": "address",
					"name": "_commissionAddress",
					"type": "address"
				},
				{
					"internalType": "address",
					"name": "paymentSettlementAddress",
					"type": "address"
				},
				{
					"internalType": "address",
					"name": "taxSettlementAddress",
					"type": "address"
				}
			],
			"stateMutability": "view",
			"type": "function"
		},
		{
			"inputs": [
				{
					"internalType": "address",
					"name": "admin",
					"type": "address"
				}
			],
			"name": "isAdmin",
			"outputs": [
				{
					"internalType": "bool",
					"name": "",
					"type": "bool"
				}
			],
			"stateMutability": "view",
			"type": "function"
		},
		{
			"inputs": [
				{
					"internalType": "string",
					"name": "",
					"type": "string"
				}
			],
			"name": "listings",
			"outputs": [
				{
					"internalType": "address",
					"name": "nftContractAddress",
					"type": "address"
				},
				{
					"internalType": "uint64",
					"name": "nftStartTokenId",
					"type": "uint64"
				},
				{
					"internalType": "uint64",
					"name": "nftEndTokenId",
					"type": "uint64"
				},
				{
					"internalType": "uint256",
					"name": "minimumFiatPrice",
					"type": "uint256"
				},
				{
					"components": [
						{
							"internalType": "address",
							"name": "paymentSettlementAddress",
							"type": "address"
						},
						{
							"internalType": "address",
							"name": "taxSettlementAddress",
							"type": "address"
						},
						{
							"internalType": "address",
							"name": "platformSettlementAddress",
							"type": "address"
						},
						{
							"internalType": "uint16",
							"name": "platformFeePercentage",
							"type": "uint16"
						},
						{
							"internalType": "address",
							"name": "commissionAddress",
							"type": "address"
						},
						{
							"internalType": "uint16",
							"name": "commissionFeePercentage",
							"type": "uint16"
						}
					],
					"internalType": "struct buyListing.settlementList",
					"name": "paymentSettlement",
					"type": "tuple"
				},
				{
					"internalType": "uint64",
					"name": "maxCap",
					"type": "uint64"
				},
				{
					"internalType": "enum buyListing.TransactionStatus",
					"name": "transactionStatus",
					"type": "uint8"
				},
				{
					"internalType": "enum buyListing.PaymentStatus",
					"name": "paymentStatus",
					"type": "uint8"
				}
			],
			"stateMutability": "view",
			"type": "function"
		},
		{
			"inputs": [],
			"name": "max1155Quantity",
			"outputs": [
				{
					"internalType": "uint64",
					"name": "",
					"type": "uint64"
				}
			],
			"stateMutability": "view",
			"type": "function"
		},
		{
			"inputs": [],
			"name": "owner",
			"outputs": [
				{
					"internalType": "address",
					"name": "",
					"type": "address"
				}
			],
			"stateMutability": "view",
			"type": "function"
		},
		{
			"inputs": [],
			"name": "platformAddress",
			"outputs": [
				{
					"internalType": "address payable",
					"name": "",
					"type": "address"
				}
			],
			"stateMutability": "view",
			"type": "function"
		},
		{
			"inputs": [],
			"name": "platformFeePercentage",
			"outputs": [
				{
					"internalType": "uint16",
					"name": "",
					"type": "uint16"
				}
			],
			"stateMutability": "view",
			"type": "function"
		},
		{
			"inputs": [],
			"name": "priceFeedAddress",
			"outputs": [
				{
					"internalType": "contract IPriceFeed",
					"name": "",
					"type": "address"
				}
			],
			"stateMutability": "view",
			"type": "function"
		},
		{
			"inputs": [],
			"name": "renounceOwnership",
			"outputs": [],
			"stateMutability": "nonpayable",
			"type": "function"
		},
		{
			"inputs": [
				{
					"internalType": "address",
					"name": "admin",
					"type": "address"
				}
			],
			"name": "revokeAdmin",
			"outputs": [],
			"stateMutability": "nonpayable",
			"type": "function"
		},
		{
			"inputs": [],
			"name": "royaltySupport",
			"outputs": [
				{
					"internalType": "contract IRoyaltyEngine",
					"name": "",
					"type": "address"
				}
			],
			"stateMutability": "view",
			"type": "function"
		},
		{
			"inputs": [
				{
					"internalType": "bytes4",
					"name": "interfaceId",
					"type": "bytes4"
				}
			],
			"name": "supportsInterface",
			"outputs": [
				{
					"internalType": "bool",
					"name": "",
					"type": "bool"
				}
			],
			"stateMutability": "view",
			"type": "function"
		},
		{
			"inputs": [
				{
					"internalType": "string",
					"name": "",
					"type": "string"
				}
			],
			"name": "tokensUsed",
			"outputs": [
				{
					"internalType": "uint256",
					"name": "",
					"type": "uint256"
				}
			],
			"stateMutability": "view",
			"type": "function"
		},
		{
			"inputs": [
				{
					"internalType": "address",
					"name": "newOwner",
					"type": "address"
				}
			],
			"name": "transferOwnership",
			"outputs": [],
			"stateMutability": "nonpayable",
			"type": "function"
		},
		{
			"inputs": [
				{
					"internalType": "string",
					"name": "saleId",
					"type": "string"
				},
				{
					"internalType": "enum buyListing.PaymentStatus",
					"name": "paymentStatus",
					"type": "uint8"
				},
				{
					"internalType": "uint256",
					"name": "minimumFiatPrice",
					"type": "uint256"
				},
				{
					"internalType": "uint256[]",
					"name": "minimumCryptoPrice",
					"type": "uint256[]"
				},
				{
					"internalType": "address[]",
					"name": "paymentCurrency",
					"type": "address[]"
				}
			],
			"name": "updatePayment",
			"outputs": [],
			"stateMutability": "nonpayable",
			"type": "function"
		},
		{
			"inputs": [
				{
					"internalType": "address",
					"name": "_platformAddress",
					"type": "address"
				}
			],
			"name": "updatePlatformAddress",
			"outputs": [],
			"stateMutability": "nonpayable",
			"type": "function"
		},
		{
			"inputs": [
				{
					"internalType": "uint16",
					"name": "_platformFeePercentage",
					"type": "uint16"
				}
			],
			"name": "updatePlatformFeePercentage",
			"outputs": [],
			"stateMutability": "nonpayable",
			"type": "function"
		},
		{
			"inputs": [
				{
					"internalType": "address",
					"name": "pricefeed",
					"type": "address"
				}
			],
			"name": "updatePricefeedContract",
			"outputs": [],
			"stateMutability": "nonpayable",
			"type": "function"
		},
		{
			"inputs": [
				{
					"internalType": "address",
					"name": "royaltyContract",
					"type": "address"
				}
			],
			"name": "updateRoyaltyContract",
			"outputs": [],
			"stateMutability": "nonpayable",
			"type": "function"
		},
		{
			"inputs": [
				{
					"internalType": "uint64",
					"name": "_max1155Quantity",
					"type": "uint64"
				}
			],
			"name": "updatemax1155Quantity",
			"outputs": [],
			"stateMutability": "nonpayable",
			"type": "function"
		},
		{
			"inputs": [
				{
					"internalType": "string",
					"name": "saleId",
					"type": "string"
				},
				{
					"internalType": "address",
					"name": "_paymentSettlementAddress",
					"type": "address"
				}
			],
			"name": "updatepaymentSettlementAddress",
			"outputs": [],
			"stateMutability": "nonpayable",
			"type": "function"
		},
		{
			"inputs": [
				{
					"internalType": "string",
					"name": "saleId",
					"type": "string"
				},
				{
					"internalType": "address",
					"name": "_taxSettlementAddress",
					"type": "address"
				}
			],
			"name": "updatetaxSettlementAddress",
			"outputs": [],
			"stateMutability": "nonpayable",
			"type": "function"
		},
		{
			"inputs": [],
			"name": "withdraw",
			"outputs": [],
			"stateMutability": "nonpayable",
			"type": "function"
		},
		{
			"stateMutability": "payable",
			"type": "receive"
		}
	]
}