{
	"data": {
		"bytecode": {
			"linkReferences": {},
			"object": "60806040523480156200001157600080fd5b50604051620061b2380380620061b28339810160408190526200003491620001ca565b6001600081815581546001600160a01b031916339081179092556040518291907f8be0079c531659141344cd1fd0a4f28419497f9722a3daafe3b4186f6b6457e0908290a3506001600160a01b038516620000d65760405162461bcd60e51b815260206004820152601860248201527f496e76616c696420506c6174666f726d2041646472657373000000000000000060448201526064015b60405180910390fd5b6127108461ffff16106200013b5760405162461bcd60e51b815260206004820152602560248201527f706c6174666f726d4665652073686f756c64206265206c657373207468616e20604482015264031303030360dc1b6064820152608401620000cd565b6007805461ffff909516600160a01b9081026001600160b01b03199096166001600160a01b039788161795909517905560098054600880549488166001600160a01b0319958616179055919095166001600160401b03909316909302166001600160e01b0319909216919091171790556200025b565b6001600160a01b0381168114620001c757600080fd5b50565b600080600080600060a08688031215620001e357600080fd5b8551620001f081620001b1565b602087015190955061ffff811681146200020957600080fd5b60408701519094506001600160401b03811681146200022757600080fd5b60608701519093506200023a81620001b1565b60808701519092506200024d81620001b1565b809150509295509295909350565b615f47806200026b6000396000f3fe60806040526004361061016b5760003560e01c8063858a6dc8116100c4578063858a6dc81461049c5780638da5cb5b146104e25780638f9f193f14610504578063acecf9de14610524578063bf9afc1814610544578063cbc9a94114610564578063cdd78cfc14610584578063da20872a146105b9578063dbe55e56146105d9578063df354bdd146105f9578063dfa12f7914610627578063e0abca0b14610647578063e8ac841f14610667578063f2fde38b14610687578063fd114f08146106a757005b806301ffc9a71461017457806319e4367c146101a957806324d7806c146101c95780632977f78a146101e95780632d3456701461020957806331ae450b146102295780633ccfd60b1461024b57806349ef4dd9146102605780634b9804b21461029f578063676a7b77146102bf5780636d73e66914610323578063705e3f6c14610343578063715018a614610363578063773fe9861461037857806377dec6c3146103a657005b3661017257005b005b34801561018057600080fd5b5061019461018f36600461468b565b6106c7565b60405190151581526020015b60405180910390f35b3480156101b557600080fd5b506101726101c43660046146da565b6106fe565b3480156101d557600080fd5b506101946101e4366004614717565b6107a9565b3480156101f557600080fd5b50610172610204366004614812565b6107d8565b34801561021557600080fd5b50610172610224366004614717565b610963565b34801561023557600080fd5b5061023e6109e8565b6040516101a09190614897565b34801561025757600080fd5b50610172610a96565b34801561026c57600080fd5b5060095461028790600160a01b90046001600160401b031681565b6040516001600160401b0390911681526020016101a0565b3480156102ab57600080fd5b506101726102ba366004614717565b610ba1565b3480156102cb57600080fd5b506102df6102da3660046148f2565b610c6d565b6040805161ffff97881681526001600160a01b03968716602082015296909416938601939093529083166060850152821660808401521660a082015260c0016101a0565b34801561032f57600080fd5b5061017261033e366004614717565b610da2565b34801561034f57600080fd5b5061017261035e366004614717565b610e21565b34801561036f57600080fd5b50610172610eef565b34801561038457600080fd5b50610398610393366004614933565b610f68565b6040516101a092919061498f565b3480156103b257600080fd5b506104886103c1366004614812565b8051808201602090810180516004825292820193820193909320919092528054600182015460028301546040805160c08101825260058601546001600160a01b039081168252600687015481169782019790975260078601548088169282019290925261ffff600160a01b9283900481166060830152600887015480891660808401528390041660a0820152600990950154958416956001600160401b0391909404811694928116939192919081169060ff600160401b8204811691600160481b90041688565b6040516101a0989796959493929190614a84565b3480156104a857600080fd5b506104d46104b7366004614812565b805160208183018101805160058252928201919093012091525481565b6040519081526020016101a0565b3480156104ee57600080fd5b506104f7610fef565b6040516101a09190614af7565b34801561051057600080fd5b5061017261051f366004614717565b610ffe565b610537610532366004614b0b565b6110b1565b6040516101a09190614beb565b34801561055057600080fd5b5061017261055f366004614bfe565b611595565b34801561057057600080fd5b5061017261057f366004614c64565b6116c3565b34801561059057600080fd5b506007546105a690600160a01b900461ffff1681565b60405161ffff90911681526020016101a0565b3480156105c557600080fd5b506009546104f7906001600160a01b031681565b3480156105e557600080fd5b506007546104f7906001600160a01b031681565b34801561060557600080fd5b506106196106143660046148f2565b61178c565b6040516101a0929190614c81565b34801561063357600080fd5b50610172610642366004614d02565b61187c565b34801561065357600080fd5b506008546104f7906001600160a01b031681565b34801561067357600080fd5b50610172610682366004614bfe565b611af0565b34801561069357600080fd5b506101726106a2366004614717565b611c1e565b3480156106b357600080fd5b506101726106c2366004614db9565b611d0e565b60006001600160e01b03198216632a9f3abf60e11b14806106f857506301ffc9a760e01b6001600160e01b03198316145b92915050565b33610707610fef565b6001600160a01b031614806107225750610722600233612625565b6107475760405162461bcd60e51b815260040161073e90614e2a565b60405180910390fd5b6001600160401b0381161580159061077457506009546001600160401b03828116600160a01b9092041614155b61077d57600080fd5b600980546001600160401b03909216600160a01b02600160a01b600160e01b0319909216919091179055565b6000816001600160a01b03166107bd610fef565b6001600160a01b031614806106f857506106f8600283612625565b336107e1610fef565b6001600160a01b031614806107fc57506107fc600233612625565b6108185760405162461bcd60e51b815260040161073e90614e2a565b6006816040516108289190614e92565b9081526040519081900360200190205460ff166108575760405162461bcd60e51b815260040161073e90614eae565b6004816040516108679190614e92565b90815260405190819003602001902080546001600160e01b031916815560018101805467ffffffffffffffff191690556000600282018190556108ad60038301826145be565b6108bb6004830160006145be565b506005810180546001600160a01b031990811690915560068201805490911690556007810180546001600160b01b0319908116909155600882018054909116905560090180546001600160501b03191690556040517fb6992d42b041f638f739ef922a21d84585f8e61e8abcd7b93243c090f9ab957090600490610940908490614e92565b90815260405190819003602001812061095891614f78565b60405180910390a150565b3361096c610fef565b6001600160a01b0316146109925760405162461bcd60e51b815260040161073e90615095565b61099d600282612625565b156109e55760405133906001600160a01b038316907f7c0c3c84c67c85fcac635147348bfe374c24a1a93d0366d1cfe9d8853cbf89d590600090a36109e360028261264a565b505b50565b60606109f4600261265f565b6001600160401b03811115610a0b57610a0b614734565b604051908082528060200260200182016040528015610a34578160200160208202803683370190505b50905060005b610a44600261265f565b811015610a9257610a56600282612669565b828281518110610a6857610a686150ca565b6001600160a01b039092166020928302919091019091015280610a8a816150f6565b915050610a3a565b5090565b33610a9f610fef565b6001600160a01b03161480610aba5750610aba600233612625565b610ad65760405162461bcd60e51b815260040161073e90614e2a565b604080516000808252602082019283905291339182914791610af791614e92565b60006040518083038185875af1925050503d8060008114610b34576040519150601f19603f3d011682016040523d82523d6000602084013e610b39565b606091505b505080925050816109e35760405162461bcd60e51b815260206004820152602c60248201527f776974686472617720746f2077697468647261772066756e64732e20506c656160448201526b39b2903a393c9030b3b0b4b760a11b606482015260840161073e565b33610baa610fef565b6001600160a01b03161480610bc55750610bc5600233612625565b610be15760405162461bcd60e51b815260040161073e90614e2a565b6001600160a01b038116610c4b5760405162461bcd60e51b815260206004820152602b60248201527f726f79616c747920636f6e74726163742073686f756c64206e6f74206265206160448201526a646472657373207a65726f60a81b606482015260840161073e565b600980546001600160a01b0319166001600160a01b0392909216919091179055565b60008060008060008060048888604051610c8892919061510f565b9081526040519081900360200181206007015461ffff600160a01b909104169650600490610cb9908a908a9061510f565b908152604051908190036020018120600701546001600160a01b03169550600490610ce7908a908a9061510f565b9081526040519081900360200181206008015461ffff600160a01b909104169450600490610d18908a908a9061510f565b908152604051908190036020018120600801546001600160a01b03169350600490610d46908a908a9061510f565b908152604051908190036020018120600501546001600160a01b03169250600490610d74908a908a9061510f565b908152604051908190036020019020600601549598949750929550909390926001600160a01b039091169150565b33610dab610fef565b6001600160a01b031614610dd15760405162461bcd60e51b815260040161073e90615095565b610ddc600282612625565b6109e55760405133906001600160a01b038316907f7e1a1a08d52e4ba0e21554733d66165fd5151f99460116223d9e3a608eec5cb190600090a36109e3600282612675565b33610e2a610fef565b6001600160a01b03161480610e455750610e45600233612625565b610e615760405162461bcd60e51b815260040161073e90614e2a565b6001600160a01b038116610ecd5760405162461bcd60e51b815260206004820152602d60248201527f70726963656665656420636f6e74726163742073686f756c64206e6f7420626560448201526c2061646472657373207a65726f60981b606482015260840161073e565b600880546001600160a01b0319166001600160a01b0392909216919091179055565b33610ef8610fef565b6001600160a01b031614610f1e5760405162461bcd60e51b815260040161073e90615095565b6001546040516000916001600160a01b0316907f8be0079c531659141344cd1fd0a4f28419497f9722a3daafe3b4186f6b6457e0908390a3600180546001600160a01b0319169055565b600954604051636e44a72f60e01b815260609182916001600160a01b0390911690636e44a72f90610f9f908790879060040161511f565b600060405180830381865afa158015610fbc573d6000803e3d6000fd5b505050506040513d6000823e601f3d908101601f19168201604052610fe491908101906151c6565b909590945092505050565b6001546001600160a01b031690565b33611007610fef565b6001600160a01b031614806110225750611022600233612625565b61103e5760405162461bcd60e51b815260040161073e90614e2a565b6001600160a01b03811661108f5760405162461bcd60e51b8152602060048201526018602482015277496e76616c696420506c6174666f726d204164647265737360401b604482015260640161073e565b600780546001600160a01b0319166001600160a01b0392909216919091179055565b60606002600054036110d55760405162461bcd60e51b815260040161073e9061528a565b6002600090815583516040516004916110ed91614e92565b90815260408051918290036020908101832060c08401835260058101546001600160a01b039081168552600682015481169285019290925260078101548083168585015261ffff600160a01b918290048116606087015260089092015492831660808601529091041660a08301528551905191925060009160049161117191614e92565b9081526040805191829003602090810183206101408401835280546001600160a01b03811685526001600160401b03600160a01b90910481168584015260018201541684840152600281015460608501526003810180548451818502810185019095528085529193608086019390929083018282801561121057602002820191906000526020600020905b8154815260200190600101908083116111fc575b505050505081526020016004820180548060200260200160405190810160405280929190818152602001828054801561127257602002820191906000526020600020905b81546001600160a01b03168152600190910190602001808311611254575b50505091835250506040805160c08101825260058401546001600160a01b0390811682526006850154811660208381019190915260078601548083168486015261ffff600160a01b918290048116606080870191909152600889015494851660808701529190930490921660a084015284019190915260098401546001600160401b038116928401929092529091019060ff600160401b90910416600181111561131e5761131e614a43565b600181111561132f5761132f614a43565b81526020016009820160099054906101000a900460ff16600181111561135757611357614a43565b600181111561136857611368614a43565b90525085516040519192506006916113809190614e92565b9081526040519081900360200190205460ff166113af5760405162461bcd60e51b815260040161073e906152c1565b6113b8336107a9565b806113cf575060808501516001600160a01b031633145b6114525760405162461bcd60e51b815260206004820152604860248201527f4f6e6c7920746865206275796572206f722061646d696e206f72206f776e657260448201527f206f66207468697320636f6e74726163742063616e2063616c6c207468697320606482015267333ab731ba34b7b760c11b608482015260a40161073e565b60008061149d8760000151886040015189606001516001600160401b03168a60a001516001600160401b03168b60c001518b8d60e0015161149391906152eb565b8d6080015161268a565b915091506114e087600001518860200151838a608001518b604001518c606001516001600160401b03168d60a001516001600160401b03168a61010001516130f4565b945085156114fc576114fc3385602001518960c0015189613b1a565b61152c8760000151838960e0015161151491906152fe565b848a60c001518b604001518a878a6101000151613c1e565b806001600160a01b03167f92347fd034deb76ed77249b761aec05c6302665f18922499f245dde63bcb0d1f8887878a87888e60e0015161156c91906152fe565b60405161157e9695949392919061533d565b60405180910390a250505050600160005592915050565b3361159e610fef565b6001600160a01b031614806115b957506115b9600233612625565b6115d55760405162461bcd60e51b815260040161073e90614e2a565b600683836040516115e792919061510f565b9081526040519081900360200190205460ff166116165760405162461bcd60e51b815260040161073e906152c1565b6001600160a01b0381161580159061165d57506004838360405161163b92919061510f565b908152604051908190036020019020600601546001600160a01b038281169116145b6116795760405162461bcd60e51b815260040161073e9061541a565b806004848460405161168c92919061510f565b90815260405190819003602001902060060180546001600160a01b03929092166001600160a01b0319909216919091179055505050565b336116cc610fef565b6001600160a01b031614806116e757506116e7600233612625565b6117035760405162461bcd60e51b815260040161073e90614e2a565b6127108161ffff161061176a5760405162461bcd60e51b815260206004820152602960248201527f706c6174666f726d4665652073686f756c64206e6f74206265206d6f72652074604482015268068616e2031303030360bc1b606482015260840161073e565b6007805461ffff909216600160a01b0261ffff60a01b19909216919091179055565b606080600484846040516117a192919061510f565b90815260408051918290036020908101832060030180548083028501830190935282845291908301828280156117f657602002820191906000526020600020905b8154815260200190600101908083116117e2575b505050505091506004848460405161180f92919061510f565b908152604080519182900360209081018320600401805480830285018301909352828452919083018282801561186e57602002820191906000526020600020905b81546001600160a01b03168152600190910190602001808311611850575b505050505090509250929050565b33611885610fef565b6001600160a01b031614806118a057506118a0600233612625565b6118bc5760405162461bcd60e51b815260040161073e90614e2a565b600688886040516118ce92919061510f565b9081526040519081900360200190205460ff166118fd5760405162461bcd60e51b815260040161073e906152c1565b856004898960405161191092919061510f565b908152604051908190036020019020600901805460ff60481b1916600160481b83600181111561194257611942614a43565b0217905550600186600181111561195b5761195b614a43565b03611a5e57841561197e5760405162461bcd60e51b815260040161073e90615472565b80831461199d5760405162461bcd60e51b815260040161073e906154cf565b60005b81811015611a585760008585838181106119bc576119bc6150ca565b90506020020135116119e05760405162461bcd60e51b815260040161073e90615527565b848460048b8b6040516119f492919061510f565b90815260200160405180910390206003019190611a129291906145dc565b50828260048b8b604051611a2792919061510f565b90815260200160405180910390206004019190611a45929190614623565b5080611a50816150f6565b9150506119a0565b50611ae6565b6000866001811115611a7257611a72614a43565b03611ae65780158015611a83575082155b611a9f5760405162461bcd60e51b815260040161073e9061557a565b60008511611abf5760405162461bcd60e51b815260040161073e906155d7565b8460048989604051611ad292919061510f565b908152604051908190036020019020600201555b5050505050505050565b33611af9610fef565b6001600160a01b03161480611b145750611b14600233612625565b611b305760405162461bcd60e51b815260040161073e90614e2a565b60068383604051611b4292919061510f565b9081526040519081900360200190205460ff16611b715760405162461bcd60e51b815260040161073e906152c1565b6001600160a01b03811615801590611bb8575060048383604051611b9692919061510f565b908152604051908190036020019020600501546001600160a01b038281169116145b611bd45760405162461bcd60e51b815260040161073e9061541a565b8060048484604051611be792919061510f565b90815260405190819003602001902060050180546001600160a01b03929092166001600160a01b0319909216919091179055505050565b33611c27610fef565b6001600160a01b031614611c4d5760405162461bcd60e51b815260040161073e90615095565b6001600160a01b038116611cb25760405162461bcd60e51b815260206004820152602660248201527f4f776e61626c653a206e6577206f776e657220697320746865207a65726f206160448201526564647265737360d01b606482015260840161073e565b6001546040516001600160a01b038084169216907f8be0079c531659141344cd1fd0a4f28419497f9722a3daafe3b4186f6b6457e090600090a3600180546001600160a01b0319166001600160a01b0392909216919091179055565b33611d17610fef565b6001600160a01b03161480611d325750611d32600233612625565b611d4e5760405162461bcd60e51b815260040161073e90614e2a565b600260005403611d705760405162461bcd60e51b815260040161073e9061528a565b60026000908155611d8961014085016101208601614c64565b61ffff1615611dd157611da461018085016101608601614c64565b611db661014086016101208701614c64565b611dc09190615628565b611dca9082615628565b9050611e08565b611de361018085016101608601614c64565b600754611dfb9190600160a01b900461ffff16615628565b611e059082615628565b90505b6127108161ffff1610611e795760405162461bcd60e51b815260206004820152603360248201527f54686520746f74616c2066656520626173697320706f696e742073686f756c646044820152720206265206c657373207468616e20313030303606c1b606482015260840161073e565b6000611e8b60408601602087016146da565b6001600160401b0316118015611eb957506000611eae60608601604087016146da565b6001600160401b0316115b15611f8a57611ece60408501602086016146da565b6001600160401b0316611ee760608601604087016146da565b6001600160401b03161015611f8a5760405162461bcd60e51b815260206004820152605f60248201527f54686973206973206e6f7420612076616c6964204e4654207374617274206f7260448201527f20656e6420746f6b656e2049442e20506c65617365207665726966792074686160648201527f74207468652072616e67652070726f766964656420697320636f727265637400608482015260a40161073e565b6001611f9e6101e086016101c08701615643565b6001811115611faf57611faf614a43565b0361208557606084013515611fd65760405162461bcd60e51b815260040161073e90615472565b611fe36080850185615660565b9050611ff260a0860186615660565b9050146120115760405162461bcd60e51b815260040161073e906154cf565b60005b61202160a0860186615660565b905081101561207f5760006120396080870187615660565b83818110612049576120496150ca565b905060200201351161206d5760405162461bcd60e51b815260040161073e90615527565b80612077816150f6565b915050612014565b506120ed565b61209260a0850185615660565b15905080156120ad57506120a96080850185615660565b1590505b6120c95760405162461bcd60e51b815260040161073e9061557a565b60008460600135116120ed5760405162461bcd60e51b815260040161073e906155d7565b60006121016101c086016101a08701615643565b600181111561211257612112614a43565b0361223e576121296101a0850161018086016146da565b6001600160401b031660000361218b5760405162461bcd60e51b815260206004820152602160248201527f73686f756c642070726f76696465206d617843617020666f72206d696e74696e6044820152606760f81b606482015260840161073e565b61219b60408501602086016146da565b6001600160401b03161580156121c757506121bc60608501604086016146da565b6001600160401b0316155b6122395760405162461bcd60e51b815260206004820152603d60248201527f546865204e46547374617274746f6b656e696420616e64204e4654656e64746f60448201527f6b656e69642073686f756c64206265203020666f72206d696e74696e67000000606482015260840161073e565b6122b6565b6122506101a0850161018086016146da565b6001600160401b0316156122b65760405162461bcd60e51b815260206004820152602760248201527f6d61784361702073686f756c64206265203020666f72207072656d696e74656460448201526620746f6b656e7360c81b606482015260840161073e565b6122c36020850185614717565b6040516301ffc9a760e01b81526001600160a01b0391909116906301ffc9a7906122f8906380ac58cd60e01b906004016156a9565b602060405180830381865afa158015612315573d6000803e3d6000fd5b505050506040513d601f19601f8201168201806040525081019061233991906156be565b806123c2575061234c6020850185614717565b6040516301ffc9a760e01b81526001600160a01b0391909116906301ffc9a79061238190636cdb3d1360e11b906004016156a9565b602060405180830381865afa15801561239e573d6000803e3d6000fd5b505050506040513d601f19601f820116820180604052508101906123c291906156be565b6124345760405162461bcd60e51b815260206004820152603e60248201527f73686f756c642070726f76696465206f6e6c7920737570706f7274656420636f60448201527f6e747261637420696e746572666163657320455243203732312f313135350000606482015260840161073e565b600061244660e0860160c08701614717565b6001600160a01b0316036124b75760405162461bcd60e51b815260206004820152603260248201527f73686f756c642070726f766964652076616c69642077616c6c65742061646472604482015271195cdcc8199bdc881cd95d1d1b195b595b9d60721b606482015260840161073e565b60006124ca610100860160e08701614717565b6001600160a01b03160361253f5760405162461bcd60e51b815260206004820152603660248201527f73686f756c642070726f766964652076616c69642077616c6c65742061646472604482015275195cdcc8199bdc881d185e081cd95d1d1b195b595b9d60521b606482015260840161073e565b6006838360405161255192919061510f565b9081526040519081900360200190205460ff16156125815760405162461bcd60e51b815260040161073e90614eae565b836004848460405161259492919061510f565b9081526040519081900360200190206125ad8282615974565b9050506001600684846040516125c492919061510f565b908152604051908190036020018120805492151560ff19909316929092179091557f5e497450a6bb5270282292fab91de64cb64f3e379288c411a7eab0f283afbbf590612612908690615bbf565b60405180910390a1505060016000555050565b6001600160a01b038116600090815260018301602052604081205415155b9392505050565b6000612643836001600160a01b038416613e27565b60006106f8825490565b60006126438383613f21565b6000612643836001600160a01b038416613f4b565b600080600060048a60405161269f9190614e92565b9081526040805191829003602090810183206101408401835280546001600160a01b03811685526001600160401b03600160a01b90910481168584015260018201541684840152600281015460608501526003810180548451818502810185019095528085529193608086019390929083018282801561273e57602002820191906000526020600020905b81548152602001906001019080831161272a575b50505050508152602001600482018054806020026020016040519081016040528092919081815260200182805480156127a057602002820191906000526020600020905b81546001600160a01b03168152600190910190602001808311612782575b50505091835250506040805160c08101825260058401546001600160a01b0390811682526006850154811660208381019190915260078601548083168486015261ffff600160a01b918290048116606080870191909152600889015494851660808701529190930490921660a084015284019190915260098401546001600160401b038116928401929092529091019060ff600160401b90910416600181111561284c5761284c614a43565b600181111561285d5761285d614a43565b81526020016009820160099054906101000a900460ff16600181111561288557612885614a43565b600181111561289657612896614a43565b90525060208101519091506001600160401b03161580156128c45750600081604001516001600160401b0316115b156128fb5780604001516001600160401b03168911156128f65760405162461bcd60e51b815260040161073e90615ce3565b6129ca565b600081602001516001600160401b0316118015612923575060408101516001600160401b0316155b156129555780602001516001600160401b03168910156128f65760405162461bcd60e51b815260040161073e90615ce3565b600081602001516001600160401b031611801561297f5750600081604001516001600160401b0316115b156129ca5780602001516001600160401b031689101580156129ae575080604001516001600160401b03168911155b6129ca5760405162461bcd60e51b815260040161073e90615ce3565b80519150600081610120015160018111156129e7576129e7614a43565b03612a6e576008546060820151604051630748060b60e31b815260048101919091526001600160a01b03888116602483015290911690633a40305890604401602060405180830381865afa158015612a43573d6000803e3d6000fd5b505050506040513d601f19601f82011682018060405250810190612a679190615d58565b9250612b0b565b60018161012001516001811115612a8757612a87614a43565b03612b0b5760005b8160a0015151811015612b0957866001600160a01b03168260a001518281518110612abc57612abc6150ca565b60200260200101516001600160a01b031603612af75781608001518181518110612ae857612ae86150ca565b60200260200101519350612b09565b80612b01816150f6565b915050612a8f565b505b82600003612b745760405162461bcd60e51b815260206004820152603060248201527f506c656173652070726f766964652076616c696420737570706f72746564204560448201526f524332302f455448206164647265737360801b606482015260840161073e565b60008161010001516001811115612b8d57612b8d614a43565b03612dd557600954600160a01b90046001600160401b0316871115612c3e5760405162461bcd60e51b81526020600482015260676024820152600080516020615ef283398151915260448201527f7075726368617365206174206f6e652074696d652073686f756c64206e6f742060648201527f6265206d6f7265207468616e20646566696e656420696e206d6178313135355160848201526675616e7469747960c81b60a482015260c40161073e565b6040516301ffc9a760e01b81526001600160a01b038316906301ffc9a790612c71906380ac58cd60e01b906004016156a9565b602060405180830381865afa158015612c8e573d6000803e3d6000fd5b505050506040513d601f19601f82011682018060405250810190612cb291906156be565b15612cc857612cc18884615737565b9250612e00565b6040516301ffc9a760e01b81526001600160a01b038316906301ffc9a790612cfb90636cdb3d1360e11b906004016156a9565b602060405180830381865afa158015612d18573d6000803e3d6000fd5b505050506040513d601f19601f82011682018060405250810190612d3c91906156be565b15612dd05760405163bd85b03960e01b8152600481018a90526001600160a01b0383169063bd85b03990602401602060405180830381865afa158015612d86573d6000803e3d6000fd5b505050506040513d601f19601f82011682018060405250810190612daa9190615d58565b600003612dc65786612dbc8985615737565b612cc19190615737565b612cc18784615737565b612e00565b60018161010001516001811115612dee57612dee614a43565b03612e0057612dfd8784615737565b92505b6001600160a01b038616612ec5578434148015612e1d5750828510155b612ec05760405162461bcd60e51b815260206004820152606260248201527f496e73756666696369656e742066756e6473206f7220696e76616c696420616d60448201527f6f756e742e20596f75206e65656420746f207061737320612076616c6964206160648201527f6d6f756e7420746f20636f6d706c6574652074686973207472616e736163746960848201526137b760f11b60a482015260c40161073e565b6130e7565b6040516370a0823160e01b815285906001600160a01b038816906370a0823190612ef3908890600401614af7565b602060405180830381865afa158015612f10573d6000803e3d6000fd5b505050506040513d601f19601f82011682018060405250810190612f349190615d58565b10158015612f425750828510155b612fd05760405162461bcd60e51b815260206004820152605360248201527f496e73756666696369656e742066756e64732e20596f752073686f756c64206860448201527f6176652073756666696369656e742062616c616e636520746f20636f6d706c656064820152723a32903a3434b9903a3930b739b0b1ba34b7b760691b608482015260a40161073e565b604051636eb1769f60e11b81526001600160a01b03858116600483015230602483015286919088169063dd62ed3e90604401602060405180830381865afa15801561301f573d6000803e3d6000fd5b505050506040513d601f19601f820116820180604052508101906130439190615d58565b10156130e75760405162461bcd60e51b815260206004820152606160248201527f496e73756666696369656e7420617070726f76616c2066726f6d20616e20455260448201527f43323020546f6b656e2e20506c656173652070726f7669646520617070726f7660648201527f616c20746f207468697320636f6e747261637420616e642074727920616761696084820152603760f91b60a482015260c40161073e565b5097509795505050505050565b6040516301ffc9a760e01b81526060906001600160a01b038816906301ffc9a79061312a906380ac58cd60e01b906004016156a9565b602060405180830381865afa158015613147573d6000803e3d6000fd5b505050506040513d601f19601f8201168201806040525081019061316b91906156be565b156134b557600182600181111561318457613184614a43565b036132d2576040516331a9108f60e11b8152600481018690526001600160a01b03808a169190891690636352211e90602401602060405180830381865afa1580156131d3573d6000803e3d6000fd5b505050506040513d601f19601f820116820180604052508101906131f79190615d71565b6001600160a01b03161461326b5760405162461bcd60e51b815260206004820152603560248201527f496e76616c6964204e4654204f776e657220416464726573732e20506c656173604482015274329031b432b1b59030b732103a393c9030b3b0b4b760591b606482015260840161073e565b604051632142170760e11b81526001600160a01b038816906342842e0e9061329b908b908a908a90600401615d8e565b600060405180830381600087803b1580156132b557600080fd5b505af11580156132c9573d6000803e3d6000fd5b50505050613b0e565b60008260018111156132e6576132e6614a43565b036134b0576004896040516132fb9190614e92565b908152604051908190036020018120600901546001600160401b0316908590600590613328908d90614e92565b90815260200160405180910390205461334191906152eb565b11156133e95760405162461bcd60e51b81526020600482015260776024820152600080516020615ef283398151915260448201527f70757263686173652045524337323120746f6b656e20686173206265656e207360648201527f6f6c64206f75742e20506c6561736520636f6e74616374207468652073616c65608482015276206f776e657220666f72206d6f72652064657461696c7360481b60a482015260c40161073e565b60405163e00aab4b60e01b81526001600160a01b03878116600483015261ffff8616602483015288169063e00aab4b906044016000604051808303816000875af115801561343b573d6000803e3d6000fd5b505050506040513d6000823e601f3d908101601f191682016040526134639190810190615db2565b90508360058a6040516134769190614e92565b90815260200160405180910390205461348f91906152eb565b60058a60405161349f9190614e92565b908152604051908190036020019020555b613b0e565b6040516301ffc9a760e01b81526001600160a01b038816906301ffc9a7906134e890636cdb3d1360e11b906004016156a9565b602060405180830381865afa158015613505573d6000803e3d6000fd5b505050506040513d601f19601f8201168201806040525081019061352991906156be565b15613b0e57600182600181111561354257613542614a43565b036136b757604051627eeac760e11b81526000906001600160a01b0389169062fdd58e90613576908c908a9060040161511f565b602060405180830381865afa158015613593573d6000803e3d6000fd5b505050506040513d601f19601f820116820180604052508101906135b79190615d58565b90508084111580156135c95750600084115b6136275760405162461bcd60e51b815260206004820152602960248201527f496e73756666696369656e7420746f6b656e2062616c616e63652066726f6d206044820152683a34329037bbb732b960b91b606482015260840161073e565b604051637921219560e11b81526001600160a01b038a811660048301528881166024830152604482018890526064820186905260a06084830152600260a483015261060f60f31b60c483015289169063f242432a9060e401600060405180830381600087803b15801561369957600080fd5b505af11580156136ad573d6000803e3d6000fd5b5050505050613b0e565b60008260018111156136cb576136cb614a43565b03613b0e57604080516001808252818301909252600091602080830190803683370190505090506000856001600160401b0381111561370c5761370c614734565b604051908082528060200260200182016040528015613735578160200160208202803683370190505b5090506060888360008151811061374e5761374e6150ca565b60200260200101906001600160a01b031690816001600160a01b0316815250508582600081518110613782576137826150ca565b602090810291909101015260405163bd85b03960e01b8152600481018990526001600160a01b038b169063bd85b03990602401602060405180830381865afa1580156137d2573d6000803e3d6000fd5b505050506040513d601f19601f820116820180604052508101906137f69190615d58565b6000036139f35760048c60405161380d9190614e92565b908152604051908190036020018120600901546001600160401b031690600590613838908f90614e92565b908152602001604051809103902054106138ef5760405162461bcd60e51b81526020600482015260786024820152600080516020615ef283398151915260448201527f7075726368617365204552433131353520746f6b656e20686173206265656e2060648201527f736f6c64206f75742e20506c6561736520636f6e74616374207468652073616c60848201527765206f776e657220666f72206d6f72652064657461696c7360401b60a482015260c40161073e565b60005b8781101561392a578683828151811061390d5761390d6150ca565b602090810291909101015280613922816150f6565b9150506138f2565b50604051634637423960e11b81526001600160a01b038b1690638c6e84729061395b90869086908690600401615de6565b6000604051808303816000875af115801561397a573d6000803e3d6000fd5b505050506040513d6000823e601f3d908101601f191682016040526139a29190810190615db2565b93508660058d6040516139b59190614e92565b9081526020016040518091039020546139ce91906152eb565b60058d6040516139de9190614e92565b90815260405190819003602001902055613b0a565b60405163bd85b03960e01b8152600481018990526000906001600160a01b038c169063bd85b03990602401602060405180830381865afa158015613a3b573d6000803e3d6000fd5b505050506040513d601f19601f82011682018060405250810190613a5f9190615d58565b1115613b0a57604080516001808252818301909252600091602080830190803683370190505090508881600081518110613a9b57613a9b6150ca565b60209081029190910101526040516339b2213760e21b81526001600160a01b038c169063e6c884dc90613ad690879085908890600401615e6d565b600060405180830381600087803b158015613af057600080fd5b505af1158015613b04573d6000803e3d6000fd5b50505050505b5050505b98975050505050505050565b60006001600160a01b038316613c0257604080516000815260208101918290526001600160a01b038616918491613b5091614e92565b60006040518083038185875af1925050503d8060008114613b8d576040519150601f19603f3d011682016040523d82523d6000602084013e613b92565b606091505b50508091505080613bfd5760405162461bcd60e51b815260206004820152602f60248201527f756e61626c6520746f206465626974206e61746976652062616c616e6365207060448201526e3632b0b9b2903a393c9030b3b0b4b760891b606482015260840161073e565b613c17565b613c176001600160a01b038416868685613f9a565b5050505050565b6000600489604051613c309190614e92565b90815260408051918290036020908101832060c08401835260058101546001600160a01b0390811685526006820154811692850192909252600781015480831693850184905261ffff600160a01b918290048116606087015260089092015492831660808601529091041660a083015290915060009015801590613cbc57506000826060015161ffff16115b15613d0357613cfe33836040015189612710866060015161ffff168d613ce29190615737565b613cec9190615ea6565b613cf690866152eb565b945084613b1a565b613d5d565b6007546001600160a01b031615801590613d295750600754600160a01b900461ffff1615155b15613d5d57600754613d5d9033906001600160a01b038116908a9061271090613ce290600160a01b900461ffff168e615737565b60808201516001600160a01b031615801590613d81575060008260a0015161ffff16115b15613dee576127108260a0015161ffff1689613d9d9190615737565b613da79190615ea6565b613db190826152eb565b9050613dee338360800151898c6127108760a0015161ffff168e613dd59190615737565b613ddf9190615ea6565b613de991906152eb565b613b1a565b613df881896152fe565b9750613e09338787878c8c89613ff8565b9750613e1b338360000151898b613b1a565b50505050505050505050565b60008181526001830160205260408120548015613f10576000613e4b6001836152fe565b8554909150600090613e5f906001906152fe565b9050818114613ec4576000866000018281548110613e7f57613e7f6150ca565b9060005260206000200154905080876000018481548110613ea257613ea26150ca565b6000918252602080832090910192909255918252600188019052604090208390555b8554869080613ed557613ed5615ec8565b6001900381819060005260206000200160009055905585600101600086815260200190815260200160002060009055600193505050506106f8565b60009150506106f8565b5092915050565b6000826000018281548110613f3857613f386150ca565b9060005260206000200154905092915050565b6000818152600183016020526040812054613f92575081546001818101845560008481526020808220909301849055845484825282860190935260409020919091556106f8565b5060006106f8565b613ff2846323b872dd60e01b858585604051602401613fbb93929190615d8e565b60408051601f198184030181529190526020810180516001600160e01b03166001600160e01b0319909316929092179091526141aa565b50505050565b6000600182600181111561400e5761400e614a43565b03614027576140208886898787614281565b905061419f565b600082600181111561403b5761403b614a43565b0361419f576040516301ffc9a760e01b81526001600160a01b038616906301ffc9a79061407390636cdb3d1360e11b906004016156a9565b602060405180830381865afa158015614090573d6000803e3d6000fd5b505050506040513d601f19601f820116820180604052508101906140b491906156be565b8015614129575060405163bd85b03960e01b8152600481018890526000906001600160a01b0387169063bd85b03990602401602060405180830381865afa158015614103573d6000803e3d6000fd5b505050506040513d601f19601f820116820180604052508101906141279190615d58565b115b1561413b576140208886898787614281565b85516141479085615ea6565b93506000805b875181101561419c5761417c8a888a848151811061416d5761416d6150ca565b60200260200101518989614281565b915061418882846152eb565b925080614194816150f6565b91505061414d565b50505b979650505050505050565b60006141ff826040518060400160405280602081526020017f5361666545524332303a206c6f772d6c6576656c2063616c6c206661696c6564815250856001600160a01b03166144569092919063ffffffff16565b80519091501561427c578080602001905181019061421d91906156be565b61427c5760405162461bcd60e51b815260206004820152602a60248201527f5361666545524332303a204552433230206f7065726174696f6e20646964206e6044820152691bdd081cdd58d8d9595960b21b606482015260840161073e565b505050565b600954604051636e44a72f60e01b815260009184918391829182916001600160a01b031690636e44a72f906142bc908c908c9060040161511f565b600060405180830381865afa1580156142d9573d6000803e3d6000fd5b505050506040513d6000823e601f3d908101601f1916820160405261430191908101906151c6565b81519193509150600081900361431e57879550505050505061444d565b60005b8181101561444457600084828151811061433d5761433d6150ca565b602002602001015190506127108a85848151811061435d5761435d6150ca565b602002602001015161436f9190615737565b6143799190615ea6565b9550858710156143d95760405162461bcd60e51b815260206004820152602560248201527f696e736f6c76656e743a20756e61626c6520746f20636f6d706c65746520726f60448201526479616c747960d81b606482015260840161073e565b6143e58d828b89613b1a565b604080516001600160a01b038e81168252602082018e90528316818301526060810188905290517f866e6ef8682ddf5f1025e64dfdb45527077f7be70fa9ef680b7ffd8cf4ab9c509181900360800190a1509484900394600101614321565b50939450505050505b95945050505050565b6060614465848460008561446d565b949350505050565b6060824710156144ce5760405162461bcd60e51b815260206004820152602660248201527f416464726573733a20696e73756666696369656e742062616c616e636520666f6044820152651c8818d85b1b60d21b606482015260840161073e565b843b61451c5760405162461bcd60e51b815260206004820152601d60248201527f416464726573733a2063616c6c20746f206e6f6e2d636f6e7472616374000000604482015260640161073e565b600080866001600160a01b031685876040516145389190614e92565b60006040518083038185875af1925050503d8060008114614575576040519150601f19603f3d011682016040523d82523d6000602084013e61457a565b606091505b509150915061419f82828660608315614594575081612643565b8251156145a45782518084602001fd5b8160405162461bcd60e51b815260040161073e9190615ede565b50805460008255906000526020600020908101906109e59190614676565b828054828255906000526020600020908101928215614617579160200282015b828111156146175782358255916020019190600101906145fc565b50610a92929150614676565b828054828255906000526020600020908101928215614617579160200282015b828111156146175781546001600160a01b0319166001600160a01b03843516178255602090920191600190910190614643565b5b80821115610a925760008155600101614677565b60006020828403121561469d57600080fd5b81356001600160e01b03198116811461264357600080fd5b6001600160401b03811681146109e557600080fd5b80356146d5816146b5565b919050565b6000602082840312156146ec57600080fd5b8135612643816146b5565b6001600160a01b03811681146109e557600080fd5b80356146d5816146f7565b60006020828403121561472957600080fd5b8135612643816146f7565b634e487b7160e01b600052604160045260246000fd5b60405161010081016001600160401b038111828210171561476d5761476d614734565b60405290565b604051601f8201601f191681016001600160401b038111828210171561479b5761479b614734565b604052919050565b600082601f8301126147b457600080fd5b81356001600160401b038111156147cd576147cd614734565b6147e0601f8201601f1916602001614773565b8181528460208386010111156147f557600080fd5b816020850160208301376000918101602001919091529392505050565b60006020828403121561482457600080fd5b81356001600160401b0381111561483a57600080fd5b614465848285016147a3565b6001600160a01b03169052565b600081518084526020808501945080840160005b8381101561488c5781516001600160a01b031687529582019590820190600101614867565b509495945050505050565b6020815260006126436020830184614853565b60008083601f8401126148bc57600080fd5b5081356001600160401b038111156148d357600080fd5b6020830191508360208285010111156148eb57600080fd5b9250929050565b6000806020838503121561490557600080fd5b82356001600160401b0381111561491b57600080fd5b614927858286016148aa565b90969095509350505050565b6000806040838503121561494657600080fd5b8235614951816146f7565b946020939093013593505050565b600081518084526020808501945080840160005b8381101561488c57815187529582019590820190600101614973565b604080825283519082018190526000906020906060840190828701845b828110156149d15781516001600160a01b0316845292840192908401906001016149ac565b505050838103828501526149e5818661495f565b9695505050505050565b60018060a01b03808251168352806020830151166020840152806040830151166040840152606082015161ffff80821660608601528260808501511660808601528060a08501511660a08601525050505050565b634e487b7160e01b600052602160045260246000fd5b600281106109e557634e487b7160e01b600052602160045260246000fd5b614a8081614a59565b9052565b6001600160a01b03891681526001600160401b0388811660208301528781166040830152606082018790526101a0820190614ac260808401886149ef565b8516610140830152614ad384614a59565b83610160830152614ae383614a59565b826101808301529998505050505050505050565b6001600160a01b0391909116815260200190565b60008060408385031215614b1e57600080fd5b82356001600160401b0380821115614b3557600080fd5b908401906101008287031215614b4a57600080fd5b614b5261474a565b823582811115614b6157600080fd5b614b6d888286016147a3565b825250614b7c6020840161470c565b602082015260408301356040820152614b97606084016146ca565b6060820152614ba86080840161470c565b6080820152614bb960a084016146ca565b60a0820152614bca60c0840161470c565b60c082015260e0928301359281019290925250946020939093013593505050565b602081526000612643602083018461495f565b600080600060408486031215614c1357600080fd5b83356001600160401b03811115614c2957600080fd5b614c35868287016148aa565b9094509250506020840135614c49816146f7565b809150509250925092565b61ffff811681146109e557600080fd5b600060208284031215614c7657600080fd5b813561264381614c54565b604081526000614c94604083018561495f565b828103602084015261444d8185614853565b600281106109e557600080fd5b80356146d581614ca6565b60008083601f840112614cd057600080fd5b5081356001600160401b03811115614ce757600080fd5b6020830191508360208260051b85010111156148eb57600080fd5b60008060008060008060008060a0898b031215614d1e57600080fd5b88356001600160401b0380821115614d3557600080fd5b614d418c838d016148aa565b909a50985060208b01359150614d5682614ca6565b90965060408a0135955060608a01359080821115614d7357600080fd5b614d7f8c838d01614cbe565b909650945060808b0135915080821115614d9857600080fd5b50614da58b828c01614cbe565b999c989b5096995094979396929594505050565b600080600060408486031215614dce57600080fd5b83356001600160401b0380821115614de557600080fd5b908501906101e08288031215614dfa57600080fd5b90935060208501359080821115614e1057600080fd5b50614e1d868287016148aa565b9497909650939450505050565b60208082526024908201527f41646d696e436f6e74726f6c3a204d757374206265206f776e6572206f7220616040820152633236b4b760e11b606082015260800190565b60005b83811015614e89578181015183820152602001614e71565b50506000910152565b60008251614ea4818460208701614e6e565b9190910192915050565b60208082526037908201527f7468652073616c65496420796f75206861766520656e746572656420697320696040820152766e76616c69642e20506c656173652076616c696461746560481b606082015260800190565b6000815480845260208085019450836000528060002060005b8381101561488c57815487529582019560019182019101614f1e565b6000815480845260208085019450836000528060002060005b8381101561488c5781546001600160a01b031687529582019560019182019101614f53565b60208082528254600091614f979084016001600160a01b038316614846565b6001600160401b0360a091821c81166040850152600185015481166060850152600285015460808501526101e0918401829052614fdb610200850160038701614f05565b848103601f190160c0860152614ff48160048801614f3a565b60058701546001600160a01b0390811660e088015260068801548116610100880152600788015480821661012089015261ffff60a091821c81166101408a015260088a01549283166101608a015291901c16610180870152905060098601546001600160401b03838216166101a08701526150796101c0870160ff8360401c16614a77565b61508b84870160ff8360481c16614a77565b5095945050505050565b6020808252818101527f4f776e61626c653a2063616c6c6572206973206e6f7420746865206f776e6572604082015260600190565b634e487b7160e01b600052603260045260246000fd5b634e487b7160e01b600052601160045260246000fd5b600060018201615108576151086150e0565b5060010190565b8183823760009101908152919050565b6001600160a01b03929092168252602082015260400190565b60006001600160401b0382111561515157615151614734565b5060051b60200190565b600082601f83011261516c57600080fd5b8151602061518161517c83615138565b614773565b82815260059290921b840181019181810190868411156151a057600080fd5b8286015b848110156151bb57805183529183019183016151a4565b509695505050505050565b600080604083850312156151d957600080fd5b82516001600160401b03808211156151f057600080fd5b818501915085601f83011261520457600080fd5b8151602061521461517c83615138565b82815260059290921b8401810191818101908984111561523357600080fd5b948201945b8386101561525a57855161524b816146f7565b82529482019490820190615238565b9188015191965090935050508082111561527357600080fd5b506152808582860161515b565b9150509250929050565b6020808252601f908201527f5265656e7472616e637947756172643a207265656e7472616e742063616c6c00604082015260600190565b60208082526010908201526f756e737570706f727465642073616c6560801b604082015260600190565b808201808211156106f8576106f86150e0565b818103818111156106f8576106f86150e0565b60008151808452615329816020860160208601614e6e565b601f01601f19169290920160200192915050565b60006101608083528851610100808386015261535d610260860183615311565b60208c01516001600160a01b031661018087015260408c01516101a087015260608c01516001600160401b03166101c087015260808c015190935091506153a86101e0860183614846565b60a08b01516001600160401b031661020086015260c08b015191506153d1610220860183614846565b60e08b015161024086015284830360208601526153ee838b61495f565b93506153fd604086018a6149ef565b840196909652506101208201939093526101400152949350505050565b60208082526038908201527f73686f756c64206e6f74206265207a65726f2061646472657373206f722070726040820152776576696f757320736574746c656d656e742061647265737360401b606082015260800190565b6020808252603d908201527f6d696e696d756d20666961742070726963652073686f756c64206265207a657260408201527f6f20696620746865207061796d656e74206973206f662063727970746f000000606082015260800190565b60208082526038908201527f73686f756c642070726f7669646520657175616c206c656e67746820696e20706040820152777269636520616e64207061796d656e74206164647265737360401b606082015260800190565b60208082526033908201527f6d696e696d756d20707269636520696e2063727970746f2073686f756c642062604082015272652067726561746572207468616e207a65726f60681b606082015260800190565b6020808252603f908201527f63727970746f207061796d656e742064657461696c732073686f756c6420626560408201527f206e756c6c20696620746865207061796d656e74206973206f66206669617400606082015260800190565b60208082526031908201527f6d696e696d756d20707269636520696e20666961742073686f756c642062652060408201527067726561746572207468616e207a65726f60781b606082015260800190565b61ffff818116838216019080821115613f1a57613f1a6150e0565b60006020828403121561565557600080fd5b813561264381614ca6565b6000808335601e1984360301811261567757600080fd5b8301803591506001600160401b0382111561569157600080fd5b6020019150600581901b36038213156148eb57600080fd5b6001600160e01b031991909116815260200190565b6000602082840312156156d057600080fd5b8151801515811461264357600080fd5b600081356106f8816146f7565b80546001600160a01b0319166001600160a01b0392909216919091179055565b600081356106f8816146b5565b6001600160401b0382166001600160401b03198254161781555050565b80820281158282048414176106f8576106f86150e0565b8183101561427c576000818152602081208481019084015b8082101561577c57828255600182019150615766565b505050505050565b6001600160401b0383111561579b5761579b614734565b600160401b8311156157af576157af614734565b80548382556157bf84828461574e565b50818160005260208060002060005b868110156157e857833582820155928201926001016157ce565b50505050505050565b6001600160401b0383111561580857615808614734565b600160401b83111561581c5761581c614734565b805483825561582c84828461574e565b50818160005260208060002060005b868110156157e857833561584e816146f7565b828201559282019260010161583b565b805461ffff60a01b191660a09290921b61ffff60a01b16919091179055565b8135615888816146f7565b61589281836156ed565b5060208201356158a1816146f7565b6158ae81600184016156ed565b506002810160408301356158c1816146f7565b6158cb81836156ed565b5060608301356158da81614c54565b6158e4818361585e565b50506003810160808301356158f8816146f7565b61590281836156ed565b5060a083013561591181614c54565b613ff2818361585e565b600081356106f881614ca6565b61593182614a59565b805460ff60401b191660409290921b60ff60401b16919091179055565b61595782614a59565b805460ff60481b191660489290921b60ff60481b16919091179055565b615986615980836156e0565b826156ed565b6159c06159956020840161570d565b828054600160a01b600160e01b03191660a09290921b67ffffffffffffffff60a01b16919091179055565b6159d86159cf6040840161570d565b6001830161571a565b606082013560028201556159ef6080830183615660565b6159fd818360038601615784565b5050615a0c60a0830183615660565b615a1a8183600486016157f1565b5050615a2c60c083016005830161587d565b60098101615a46615a40610180850161570d565b8261571a565b615a5c615a566101a0850161591b565b82615928565b61427c615a6c6101c0850161591b565b8261594e565b6000808335601e19843603018112615a8957600080fd5b83016020810192503590506001600160401b03811115615aa857600080fd5b8060051b36038213156148eb57600080fd5b81835260006001600160fb1b03831115615ad357600080fd5b8260051b80836020870137939093016020019392505050565b8183526000602080850194508260005b8581101561488c578135615b0f816146f7565b6001600160a01b031687529582019590820190600101615afc565b8035615b35816146f7565b6001600160a01b039081168352602082013590615b51826146f7565b9081166020840152604082013590615b68826146f7565b9081166040840152606082013590615b7f82614c54565b61ffff9182166060850152608083013591615b99836146f7565b918116608085015260a083013591615bb083614c54565b80831660a08601525050505050565b60208152615bd860208201615bd38461470c565b614846565b6000615be6602084016146ca565b6001600160401b038116604084015250615c02604084016146ca565b6001600160401b03811660608401525060608301356080830152615c296080840184615a72565b6101e08060a0860152615c4161020086018385615aba565b9250615c5060a0870187615a72565b868503601f190160c08801529250615c69848483615aec565b935050615c7c60e0860160c08801615b2a565b615c8961018087016146ca565b91506101a0615ca2818701846001600160401b03169052565b615cad818801614cb3565b9250506101c0615cbf81870184614a77565b615cca818801614cb3565b925050615cd981860183614a77565b5090949350505050565b6020808252604f908201527f54686973206973206e6f7420612076616c696420746f6b656e49642e20506c6560408201527f6173652076657269667920746861742074686520746f6b656e49642070726f7660608201526e1a591959081a5cc818dbdc9c9958dd608a1b608082015260a00190565b600060208284031215615d6a57600080fd5b5051919050565b600060208284031215615d8357600080fd5b8151612643816146f7565b6001600160a01b039384168152919092166020820152604081019190915260600190565b600060208284031215615dc457600080fd5b81516001600160401b03811115615dda57600080fd5b6144658482850161515b565b606081526000615df96060830186614853565b602083820381850152615e0c828761495f565b915083820360408501528185518084528284019150828160051b85010183880160005b83811015615e5d57601f19878403018552615e4b838351615311565b94860194925090850190600101615e2f565b50909a9950505050505050505050565b606081526000615e806060830186614853565b8281036020840152615e92818661495f565b905082810360408401526149e5818561495f565b600082615ec357634e487b7160e01b600052601260045260246000fd5b500490565b634e487b7160e01b600052603160045260246000fd5b602081526000612643602083018461531156fe546865206d6178696d756d207175616e7469747920616c6c6f77656420746f20a2646970667358221220b25cd9b71b5dfb196f6d5179a3667b00af780677d002b37aa7d568d57846276a64736f6c63430008110033",
			"opcodes": "PUSH1 0x80 PUSH1 0x40 MSTORE CALLVALUE DUP1 ISZERO PUSH3 0x11 JUMPI PUSH1 0x0 DUP1 REVERT JUMPDEST POP PUSH1 0x40 MLOAD PUSH3 0x61B2 CODESIZE SUB DUP1 PUSH3 0x61B2 DUP4 CODECOPY DUP2 ADD PUSH1 0x40 DUP2 SWAP1 MSTORE PUSH3 0x34 SWAP2 PUSH3 0x1CA JUMP JUMPDEST PUSH1 0x1 PUSH1 0x0 DUP2 DUP2 SSTORE DUP2 SLOAD PUSH1 0x1 PUSH1 0x1 PUSH1 0xA0 SHL SUB NOT AND CALLER SWAP1 DUP2 OR SWAP1 SWAP3 SSTORE PUSH1 0x40 MLOAD DUP3 SWAP2 SWAP1 PUSH32 0x8BE0079C531659141344CD1FD0A4F28419497F9722A3DAAFE3B4186F6B6457E0 SWAP1 DUP3 SWAP1 LOG3 POP PUSH1 0x1 PUSH1 0x1 PUSH1 0xA0 SHL SUB DUP6 AND PUSH3 0xD6 JUMPI PUSH1 0x40 MLOAD PUSH3 0x461BCD PUSH1 0xE5 SHL DUP2 MSTORE PUSH1 0x20 PUSH1 0x4 DUP3 ADD MSTORE PUSH1 0x18 PUSH1 0x24 DUP3 ADD MSTORE PUSH32 0x496E76616C696420506C6174666F726D20416464726573730000000000000000 PUSH1 0x44 DUP3 ADD MSTORE PUSH1 0x64 ADD JUMPDEST PUSH1 0x40 MLOAD DUP1 SWAP2 SUB SWAP1 REVERT JUMPDEST PUSH2 0x2710 DUP5 PUSH2 0xFFFF AND LT PUSH3 0x13B JUMPI PUSH1 0x40 MLOAD PUSH3 0x461BCD PUSH1 0xE5 SHL DUP2 MSTORE PUSH1 0x20 PUSH1 0x4 DUP3 ADD MSTORE PUSH1 0x25 PUSH1 0x24 DUP3 ADD MSTORE PUSH32 0x706C6174666F726D4665652073686F756C64206265206C657373207468616E20 PUSH1 0x44 DUP3 ADD MSTORE PUSH5 0x313030303 PUSH1 0xDC SHL PUSH1 0x64 DUP3 ADD MSTORE PUSH1 0x84 ADD PUSH3 0xCD JUMP JUMPDEST PUSH1 0x7 DUP1 SLOAD PUSH2 0xFFFF SWAP1 SWAP6 AND PUSH1 0x1 PUSH1 0xA0 SHL SWAP1 DUP2 MUL PUSH1 0x1 PUSH1 0x1 PUSH1 0xB0 SHL SUB NOT SWAP1 SWAP7 AND PUSH1 0x1 PUSH1 0x1 PUSH1 0xA0 SHL SUB SWAP8 DUP9 AND OR SWAP6 SWAP1 SWAP6 OR SWAP1 SSTORE PUSH1 0x9 DUP1 SLOAD PUSH1 0x8 DUP1 SLOAD SWAP5 DUP9 AND PUSH1 0x1 PUSH1 0x1 PUSH1 0xA0 SHL SUB NOT SWAP6 DUP7 AND OR SWAP1 SSTORE SWAP2 SWAP1 SWAP6 AND PUSH1 0x1 PUSH1 0x1 PUSH1 0x40 SHL SUB SWAP1 SWAP4 AND SWAP1 SWAP4 MUL AND PUSH1 0x1 PUSH1 0x1 PUSH1 0xE0 SHL SUB NOT SWAP1 SWAP3 AND SWAP2 SWAP1 SWAP2 OR OR SWAP1 SSTORE PUSH3 0x25B JUMP JUMPDEST PUSH1 0x1 PUSH1 0x1 PUSH1 0xA0 SHL SUB DUP2 AND DUP2 EQ PUSH3 0x1C7 JUMPI PUSH1 0x0 DUP1 REVERT JUMPDEST POP JUMP JUMPDEST PUSH1 0x0 DUP1 PUSH1 0x0 DUP1 PUSH1 0x0 PUSH1 0xA0 DUP7 DUP9 SUB SLT ISZERO PUSH3 0x1E3 JUMPI PUSH1 0x0 DUP1 REVERT JUMPDEST DUP6 MLOAD PUSH3 0x1F0 DUP2 PUSH3 0x1B1 JUMP JUMPDEST PUSH1 0x20 DUP8 ADD MLOAD SWAP1 SWAP6 POP PUSH2 0xFFFF DUP2 AND DUP2 EQ PUSH3 0x209 JUMPI PUSH1 0x0 DUP1 REVERT JUMPDEST PUSH1 0x40 DUP8 ADD MLOAD SWAP1 SWAP5 POP PUSH1 0x1 PUSH1 0x1 PUSH1 0x40 SHL SUB DUP2 AND DUP2 EQ PUSH3 0x227 JUMPI PUSH1 0x0 DUP1 REVERT JUMPDEST PUSH1 0x60 DUP8 ADD MLOAD SWAP1 SWAP4 POP PUSH3 0x23A DUP2 PUSH3 0x1B1 JUMP JUMPDEST PUSH1 0x80 DUP8 ADD MLOAD SWAP1 SWAP3 POP PUSH3 0x24D DUP2 PUSH3 0x1B1 JUMP JUMPDEST DUP1 SWAP2 POP POP SWAP3 SWAP6 POP SWAP3 SWAP6 SWAP1 SWAP4 POP JUMP JUMPDEST PUSH2 0x5F47 DUP1 PUSH3 0x26B PUSH1 0x0 CODECOPY PUSH1 0x0 RETURN INVALID PUSH1 0x80 PUSH1 0x40 MSTORE PUSH1 0x4 CALLDATASIZE LT PUSH2 0x16B JUMPI PUSH1 0x0 CALLDATALOAD PUSH1 0xE0 SHR DUP1 PUSH4 0x858A6DC8 GT PUSH2 0xC4 JUMPI DUP1 PUSH4 0x858A6DC8 EQ PUSH2 0x49C JUMPI DUP1 PUSH4 0x8DA5CB5B EQ PUSH2 0x4E2 JUMPI DUP1 PUSH4 0x8F9F193F EQ PUSH2 0x504 JUMPI DUP1 PUSH4 0xACECF9DE EQ PUSH2 0x524 JUMPI DUP1 PUSH4 0xBF9AFC18 EQ PUSH2 0x544 JUMPI DUP1 PUSH4 0xCBC9A941 EQ PUSH2 0x564 JUMPI DUP1 PUSH4 0xCDD78CFC EQ PUSH2 0x584 JUMPI DUP1 PUSH4 0xDA20872A EQ PUSH2 0x5B9 JUMPI DUP1 PUSH4 0xDBE55E56 EQ PUSH2 0x5D9 JUMPI DUP1 PUSH4 0xDF354BDD EQ PUSH2 0x5F9 JUMPI DUP1 PUSH4 0xDFA12F79 EQ PUSH2 0x627 JUMPI DUP1 PUSH4 0xE0ABCA0B EQ PUSH2 0x647 JUMPI DUP1 PUSH4 0xE8AC841F EQ PUSH2 0x667 JUMPI DUP1 PUSH4 0xF2FDE38B EQ PUSH2 0x687 JUMPI DUP1 PUSH4 0xFD114F08 EQ PUSH2 0x6A7 JUMPI STOP JUMPDEST DUP1 PUSH4 0x1FFC9A7 EQ PUSH2 0x174 JUMPI DUP1 PUSH4 0x19E4367C EQ PUSH2 0x1A9 JUMPI DUP1 PUSH4 0x24D7806C EQ PUSH2 0x1C9 JUMPI DUP1 PUSH4 0x2977F78A EQ PUSH2 0x1E9 JUMPI DUP1 PUSH4 0x2D345670 EQ PUSH2 0x209 JUMPI DUP1 PUSH4 0x31AE450B EQ PUSH2 0x229 JUMPI DUP1 PUSH4 0x3CCFD60B EQ PUSH2 0x24B JUMPI DUP1 PUSH4 0x49EF4DD9 EQ PUSH2 0x260 JUMPI DUP1 PUSH4 0x4B9804B2 EQ PUSH2 0x29F JUMPI DUP1 PUSH4 0x676A7B77 EQ PUSH2 0x2BF JUMPI DUP1 PUSH4 0x6D73E669 EQ PUSH2 0x323 JUMPI DUP1 PUSH4 0x705E3F6C EQ PUSH2 0x343 JUMPI DUP1 PUSH4 0x715018A6 EQ PUSH2 0x363 JUMPI DUP1 PUSH4 0x773FE986 EQ PUSH2 0x378 JUMPI DUP1 PUSH4 0x77DEC6C3 EQ PUSH2 0x3A6 JUMPI STOP JUMPDEST CALLDATASIZE PUSH2 0x172 JUMPI STOP JUMPDEST STOP JUMPDEST CALLVALUE DUP1 ISZERO PUSH2 0x180 JUMPI PUSH1 0x0 DUP1 REVERT JUMPDEST POP PUSH2 0x194 PUSH2 0x18F CALLDATASIZE PUSH1 0x4 PUSH2 0x468B JUMP JUMPDEST PUSH2 0x6C7 JUMP JUMPDEST PUSH1 0x40 MLOAD SWAP1 ISZERO ISZERO DUP2 MSTORE PUSH1 0x20 ADD JUMPDEST PUSH1 0x40 MLOAD DUP1 SWAP2 SUB SWAP1 RETURN JUMPDEST CALLVALUE DUP1 ISZERO PUSH2 0x1B5 JUMPI PUSH1 0x0 DUP1 REVERT JUMPDEST POP PUSH2 0x172 PUSH2 0x1C4 CALLDATASIZE PUSH1 0x4 PUSH2 0x46DA JUMP JUMPDEST PUSH2 0x6FE JUMP JUMPDEST CALLVALUE DUP1 ISZERO PUSH2 0x1D5 JUMPI PUSH1 0x0 DUP1 REVERT JUMPDEST POP PUSH2 0x194 PUSH2 0x1E4 CALLDATASIZE PUSH1 0x4 PUSH2 0x4717 JUMP JUMPDEST PUSH2 0x7A9 JUMP JUMPDEST CALLVALUE DUP1 ISZERO PUSH2 0x1F5 JUMPI PUSH1 0x0 DUP1 REVERT JUMPDEST POP PUSH2 0x172 PUSH2 0x204 CALLDATASIZE PUSH1 0x4 PUSH2 0x4812 JUMP JUMPDEST PUSH2 0x7D8 JUMP JUMPDEST CALLVALUE DUP1 ISZERO PUSH2 0x215 JUMPI PUSH1 0x0 DUP1 REVERT JUMPDEST POP PUSH2 0x172 PUSH2 0x224 CALLDATASIZE PUSH1 0x4 PUSH2 0x4717 JUMP JUMPDEST PUSH2 0x963 JUMP JUMPDEST CALLVALUE DUP1 ISZERO PUSH2 0x235 JUMPI PUSH1 0x0 DUP1 REVERT JUMPDEST POP PUSH2 0x23E PUSH2 0x9E8 JUMP JUMPDEST PUSH1 0x40 MLOAD PUSH2 0x1A0 SWAP2 SWAP1 PUSH2 0x4897 JUMP JUMPDEST CALLVALUE DUP1 ISZERO PUSH2 0x257 JUMPI PUSH1 0x0 DUP1 REVERT JUMPDEST POP PUSH2 0x172 PUSH2 0xA96 JUMP JUMPDEST CALLVALUE DUP1 ISZERO PUSH2 0x26C JUMPI PUSH1 0x0 DUP1 REVERT JUMPDEST POP PUSH1 0x9 SLOAD PUSH2 0x287 SWAP1 PUSH1 0x1 PUSH1 0xA0 SHL SWAP1 DIV PUSH1 0x1 PUSH1 0x1 PUSH1 0x40 SHL SUB AND DUP2 JUMP JUMPDEST PUSH1 0x40 MLOAD PUSH1 0x1 PUSH1 0x1 PUSH1 0x40 SHL SUB SWAP1 SWAP2 AND DUP2 MSTORE PUSH1 0x20 ADD PUSH2 0x1A0 JUMP JUMPDEST CALLVALUE DUP1 ISZERO PUSH2 0x2AB JUMPI PUSH1 0x0 DUP1 REVERT JUMPDEST POP PUSH2 0x172 PUSH2 0x2BA CALLDATASIZE PUSH1 0x4 PUSH2 0x4717 JUMP JUMPDEST PUSH2 0xBA1 JUMP JUMPDEST CALLVALUE DUP1 ISZERO PUSH2 0x2CB JUMPI PUSH1 0x0 DUP1 REVERT JUMPDEST POP PUSH2 0x2DF PUSH2 0x2DA CALLDATASIZE PUSH1 0x4 PUSH2 0x48F2 JUMP JUMPDEST PUSH2 0xC6D JUMP JUMPDEST PUSH1 0x40 DUP1 MLOAD PUSH2 0xFFFF SWAP8 DUP9 AND DUP2 MSTORE PUSH1 0x1 PUSH1 0x1 PUSH1 0xA0 SHL SUB SWAP7 DUP8 AND PUSH1 0x20 DUP3 ADD MSTORE SWAP7 SWAP1 SWAP5 AND SWAP4 DUP7 ADD SWAP4 SWAP1 SWAP4 MSTORE SWAP1 DUP4 AND PUSH1 0x60 DUP6 ADD MSTORE DUP3 AND PUSH1 0x80 DUP5 ADD MSTORE AND PUSH1 0xA0 DUP3 ADD MSTORE PUSH1 0xC0 ADD PUSH2 0x1A0 JUMP JUMPDEST CALLVALUE DUP1 ISZERO PUSH2 0x32F JUMPI PUSH1 0x0 DUP1 REVERT JUMPDEST POP PUSH2 0x172 PUSH2 0x33E CALLDATASIZE PUSH1 0x4 PUSH2 0x4717 JUMP JUMPDEST PUSH2 0xDA2 JUMP JUMPDEST CALLVALUE DUP1 ISZERO PUSH2 0x34F JUMPI PUSH1 0x0 DUP1 REVERT JUMPDEST POP PUSH2 0x172 PUSH2 0x35E CALLDATASIZE PUSH1 0x4 PUSH2 0x4717 JUMP JUMPDEST PUSH2 0xE21 JUMP JUMPDEST CALLVALUE DUP1 ISZERO PUSH2 0x36F JUMPI PUSH1 0x0 DUP1 REVERT JUMPDEST POP PUSH2 0x172 PUSH2 0xEEF JUMP JUMPDEST CALLVALUE DUP1 ISZERO PUSH2 0x384 JUMPI PUSH1 0x0 DUP1 REVERT JUMPDEST POP PUSH2 0x398 PUSH2 0x393 CALLDATASIZE PUSH1 0x4 PUSH2 0x4933 JUMP JUMPDEST PUSH2 0xF68 JUMP JUMPDEST PUSH1 0x40 MLOAD PUSH2 0x1A0 SWAP3 SWAP2 SWAP1 PUSH2 0x498F JUMP JUMPDEST CALLVALUE DUP1 ISZERO PUSH2 0x3B2 JUMPI PUSH1 0x0 DUP1 REVERT JUMPDEST POP PUSH2 0x488 PUSH2 0x3C1 CALLDATASIZE PUSH1 0x4 PUSH2 0x4812 JUMP JUMPDEST DUP1 MLOAD DUP1 DUP3 ADD PUSH1 0x20 SWAP1 DUP2 ADD DUP1 MLOAD PUSH1 0x4 DUP3 MSTORE SWAP3 DUP3 ADD SWAP4 DUP3 ADD SWAP4 SWAP1 SWAP4 KECCAK256 SWAP2 SWAP1 SWAP3 MSTORE DUP1 SLOAD PUSH1 0x1 DUP3 ADD SLOAD PUSH1 0x2 DUP4 ADD SLOAD PUSH1 0x40 DUP1 MLOAD PUSH1 0xC0 DUP2 ADD DUP3 MSTORE PUSH1 0x5 DUP7 ADD SLOAD PUSH1 0x1 PUSH1 0x1 PUSH1 0xA0 SHL SUB SWAP1 DUP2 AND DUP3 MSTORE PUSH1 0x6 DUP8 ADD SLOAD DUP2 AND SWAP8 DUP3 ADD SWAP8 SWAP1 SWAP8 MSTORE PUSH1 0x7 DUP7 ADD SLOAD DUP1 DUP9 AND SWAP3 DUP3 ADD SWAP3 SWAP1 SWAP3 MSTORE PUSH2 0xFFFF PUSH1 0x1 PUSH1 0xA0 SHL SWAP3 DUP4 SWAP1 DIV DUP2 AND PUSH1 0x60 DUP4 ADD MSTORE PUSH1 0x8 DUP8 ADD SLOAD DUP1 DUP10 AND PUSH1 0x80 DUP5 ADD MSTORE DUP4 SWAP1 DIV AND PUSH1 0xA0 DUP3 ADD MSTORE PUSH1 0x9 SWAP1 SWAP6 ADD SLOAD SWAP6 DUP5 AND SWAP6 PUSH1 0x1 PUSH1 0x1 PUSH1 0x40 SHL SUB SWAP2 SWAP1 SWAP5 DIV DUP2 AND SWAP5 SWAP3 DUP2 AND SWAP4 SWAP2 SWAP3 SWAP2 SWAP1 DUP2 AND SWAP1 PUSH1 0xFF PUSH1 0x1 PUSH1 0x40 SHL DUP3 DIV DUP2 AND SWAP2 PUSH1 0x1 PUSH1 0x48 SHL SWAP1 DIV AND DUP9 JUMP JUMPDEST PUSH1 0x40 MLOAD PUSH2 0x1A0 SWAP9 SWAP8 SWAP7 SWAP6 SWAP5 SWAP4 SWAP3 SWAP2 SWAP1 PUSH2 0x4A84 JUMP JUMPDEST CALLVALUE DUP1 ISZERO PUSH2 0x4A8 JUMPI PUSH1 0x0 DUP1 REVERT JUMPDEST POP PUSH2 0x4D4 PUSH2 0x4B7 CALLDATASIZE PUSH1 0x4 PUSH2 0x4812 JUMP JUMPDEST DUP1 MLOAD PUSH1 0x20 DUP2 DUP4 ADD DUP2 ADD DUP1 MLOAD PUSH1 0x5 DUP3 MSTORE SWAP3 DUP3 ADD SWAP2 SWAP1 SWAP4 ADD KECCAK256 SWAP2 MSTORE SLOAD DUP2 JUMP JUMPDEST PUSH1 0x40 MLOAD SWAP1 DUP2 MSTORE PUSH1 0x20 ADD PUSH2 0x1A0 JUMP JUMPDEST CALLVALUE DUP1 ISZERO PUSH2 0x4EE JUMPI PUSH1 0x0 DUP1 REVERT JUMPDEST POP PUSH2 0x4F7 PUSH2 0xFEF JUMP JUMPDEST PUSH1 0x40 MLOAD PUSH2 0x1A0 SWAP2 SWAP1 PUSH2 0x4AF7 JUMP JUMPDEST CALLVALUE DUP1 ISZERO PUSH2 0x510 JUMPI PUSH1 0x0 DUP1 REVERT JUMPDEST POP PUSH2 0x172 PUSH2 0x51F CALLDATASIZE PUSH1 0x4 PUSH2 0x4717 JUMP JUMPDEST PUSH2 0xFFE JUMP JUMPDEST PUSH2 0x537 PUSH2 0x532 CALLDATASIZE PUSH1 0x4 PUSH2 0x4B0B JUMP JUMPDEST PUSH2 0x10B1 JUMP JUMPDEST PUSH1 0x40 MLOAD PUSH2 0x1A0 SWAP2 SWAP1 PUSH2 0x4BEB JUMP JUMPDEST CALLVALUE DUP1 ISZERO PUSH2 0x550 JUMPI PUSH1 0x0 DUP1 REVERT JUMPDEST POP PUSH2 0x172 PUSH2 0x55F CALLDATASIZE PUSH1 0x4 PUSH2 0x4BFE JUMP JUMPDEST PUSH2 0x1595 JUMP JUMPDEST CALLVALUE DUP1 ISZERO PUSH2 0x570 JUMPI PUSH1 0x0 DUP1 REVERT JUMPDEST POP PUSH2 0x172 PUSH2 0x57F CALLDATASIZE PUSH1 0x4 PUSH2 0x4C64 JUMP JUMPDEST PUSH2 0x16C3 JUMP JUMPDEST CALLVALUE DUP1 ISZERO PUSH2 0x590 JUMPI PUSH1 0x0 DUP1 REVERT JUMPDEST POP PUSH1 0x7 SLOAD PUSH2 0x5A6 SWAP1 PUSH1 0x1 PUSH1 0xA0 SHL SWAP1 DIV PUSH2 0xFFFF AND DUP2 JUMP JUMPDEST PUSH1 0x40 MLOAD PUSH2 0xFFFF SWAP1 SWAP2 AND DUP2 MSTORE PUSH1 0x20 ADD PUSH2 0x1A0 JUMP JUMPDEST CALLVALUE DUP1 ISZERO PUSH2 0x5C5 JUMPI PUSH1 0x0 DUP1 REVERT JUMPDEST POP PUSH1 0x9 SLOAD PUSH2 0x4F7 SWAP1 PUSH1 0x1 PUSH1 0x1 PUSH1 0xA0 SHL SUB AND DUP2 JUMP JUMPDEST CALLVALUE DUP1 ISZERO PUSH2 0x5E5 JUMPI PUSH1 0x0 DUP1 REVERT JUMPDEST POP PUSH1 0x7 SLOAD PUSH2 0x4F7 SWAP1 PUSH1 0x1 PUSH1 0x1 PUSH1 0xA0 SHL SUB AND DUP2 JUMP JUMPDEST CALLVALUE DUP1 ISZERO PUSH2 0x605 JUMPI PUSH1 0x0 DUP1 REVERT JUMPDEST POP PUSH2 0x619 PUSH2 0x614 CALLDATASIZE PUSH1 0x4 PUSH2 0x48F2 JUMP JUMPDEST PUSH2 0x178C JUMP JUMPDEST PUSH1 0x40 MLOAD PUSH2 0x1A0 SWAP3 SWAP2 SWAP1 PUSH2 0x4C81 JUMP JUMPDEST CALLVALUE DUP1 ISZERO PUSH2 0x633 JUMPI PUSH1 0x0 DUP1 REVERT JUMPDEST POP PUSH2 0x172 PUSH2 0x642 CALLDATASIZE PUSH1 0x4 PUSH2 0x4D02 JUMP JUMPDEST PUSH2 0x187C JUMP JUMPDEST CALLVALUE DUP1 ISZERO PUSH2 0x653 JUMPI PUSH1 0x0 DUP1 REVERT JUMPDEST POP PUSH1 0x8 SLOAD PUSH2 0x4F7 SWAP1 PUSH1 0x1 PUSH1 0x1 PUSH1 0xA0 SHL SUB AND DUP2 JUMP JUMPDEST CALLVALUE DUP1 ISZERO PUSH2 0x673 JUMPI PUSH1 0x0 DUP1 REVERT JUMPDEST POP PUSH2 0x172 PUSH2 0x682 CALLDATASIZE PUSH1 0x4 PUSH2 0x4BFE JUMP JUMPDEST PUSH2 0x1AF0 JUMP JUMPDEST CALLVALUE DUP1 ISZERO PUSH2 0x693 JUMPI PUSH1 0x0 DUP1 REVERT JUMPDEST POP PUSH2 0x172 PUSH2 0x6A2 CALLDATASIZE PUSH1 0x4 PUSH2 0x4717 JUMP JUMPDEST PUSH2 0x1C1E JUMP JUMPDEST CALLVALUE DUP1 ISZERO PUSH2 0x6B3 JUMPI PUSH1 0x0 DUP1 REVERT JUMPDEST POP PUSH2 0x172 PUSH2 0x6C2 CALLDATASIZE PUSH1 0x4 PUSH2 0x4DB9 JUMP JUMPDEST PUSH2 0x1D0E JUMP JUMPDEST PUSH1 0x0 PUSH1 0x1 PUSH1 0x1 PUSH1 0xE0 SHL SUB NOT DUP3 AND PUSH4 0x2A9F3ABF PUSH1 0xE1 SHL EQ DUP1 PUSH2 0x6F8 JUMPI POP PUSH4 0x1FFC9A7 PUSH1 0xE0 SHL PUSH1 0x1 PUSH1 0x1 PUSH1 0xE0 SHL SUB NOT DUP4 AND EQ JUMPDEST SWAP3 SWAP2 POP POP JUMP JUMPDEST CALLER PUSH2 0x707 PUSH2 0xFEF JUMP JUMPDEST PUSH1 0x1 PUSH1 0x1 PUSH1 0xA0 SHL SUB AND EQ DUP1 PUSH2 0x722 JUMPI POP PUSH2 0x722 PUSH1 0x2 CALLER PUSH2 0x2625 JUMP JUMPDEST PUSH2 0x747 JUMPI PUSH1 0x40 MLOAD PUSH3 0x461BCD PUSH1 0xE5 SHL DUP2 MSTORE PUSH1 0x4 ADD PUSH2 0x73E SWAP1 PUSH2 0x4E2A JUMP JUMPDEST PUSH1 0x40 MLOAD DUP1 SWAP2 SUB SWAP1 REVERT JUMPDEST PUSH1 0x1 PUSH1 0x1 PUSH1 0x40 SHL SUB DUP2 AND ISZERO DUP1 ISZERO SWAP1 PUSH2 0x774 JUMPI POP PUSH1 0x9 SLOAD PUSH1 0x1 PUSH1 0x1 PUSH1 0x40 SHL SUB DUP3 DUP2 AND PUSH1 0x1 PUSH1 0xA0 SHL SWAP1 SWAP3 DIV AND EQ ISZERO JUMPDEST PUSH2 0x77D JUMPI PUSH1 0x0 DUP1 REVERT JUMPDEST PUSH1 0x9 DUP1 SLOAD PUSH1 0x1 PUSH1 0x1 PUSH1 0x40 SHL SUB SWAP1 SWAP3 AND PUSH1 0x1 PUSH1 0xA0 SHL MUL PUSH1 0x1 PUSH1 0xA0 SHL PUSH1 0x1 PUSH1 0xE0 SHL SUB NOT SWAP1 SWAP3 AND SWAP2 SWAP1 SWAP2 OR SWAP1 SSTORE JUMP JUMPDEST PUSH1 0x0 DUP2 PUSH1 0x1 PUSH1 0x1 PUSH1 0xA0 SHL SUB AND PUSH2 0x7BD PUSH2 0xFEF JUMP JUMPDEST PUSH1 0x1 PUSH1 0x1 PUSH1 0xA0 SHL SUB AND EQ DUP1 PUSH2 0x6F8 JUMPI POP PUSH2 0x6F8 PUSH1 0x2 DUP4 PUSH2 0x2625 JUMP JUMPDEST CALLER PUSH2 0x7E1 PUSH2 0xFEF JUMP JUMPDEST PUSH1 0x1 PUSH1 0x1 PUSH1 0xA0 SHL SUB AND EQ DUP1 PUSH2 0x7FC JUMPI POP PUSH2 0x7FC PUSH1 0x2 CALLER PUSH2 0x2625 JUMP JUMPDEST PUSH2 0x818 JUMPI PUSH1 0x40 MLOAD PUSH3 0x461BCD PUSH1 0xE5 SHL DUP2 MSTORE PUSH1 0x4 ADD PUSH2 0x73E SWAP1 PUSH2 0x4E2A JUMP JUMPDEST PUSH1 0x6 DUP2 PUSH1 0x40 MLOAD PUSH2 0x828 SWAP2 SWAP1 PUSH2 0x4E92 JUMP JUMPDEST SWAP1 DUP2 MSTORE PUSH1 0x40 MLOAD SWAP1 DUP2 SWAP1 SUB PUSH1 0x20 ADD SWAP1 KECCAK256 SLOAD PUSH1 0xFF AND PUSH2 0x857 JUMPI PUSH1 0x40 MLOAD PUSH3 0x461BCD PUSH1 0xE5 SHL DUP2 MSTORE PUSH1 0x4 ADD PUSH2 0x73E SWAP1 PUSH2 0x4EAE JUMP JUMPDEST PUSH1 0x4 DUP2 PUSH1 0x40 MLOAD PUSH2 0x867 SWAP2 SWAP1 PUSH2 0x4E92 JUMP JUMPDEST SWAP1 DUP2 MSTORE PUSH1 0x40 MLOAD SWAP1 DUP2 SWAP1 SUB PUSH1 0x20 ADD SWAP1 KECCAK256 DUP1 SLOAD PUSH1 0x1 PUSH1 0x1 PUSH1 0xE0 SHL SUB NOT AND DUP2 SSTORE PUSH1 0x1 DUP2 ADD DUP1 SLOAD PUSH8 0xFFFFFFFFFFFFFFFF NOT AND SWAP1 SSTORE PUSH1 0x0 PUSH1 0x2 DUP3 ADD DUP2 SWAP1 SSTORE PUSH2 0x8AD PUSH1 0x3 DUP4 ADD DUP3 PUSH2 0x45BE JUMP JUMPDEST PUSH2 0x8BB PUSH1 0x4 DUP4 ADD PUSH1 0x0 PUSH2 0x45BE JUMP JUMPDEST POP PUSH1 0x5 DUP2 ADD DUP1 SLOAD PUSH1 0x1 PUSH1 0x1 PUSH1 0xA0 SHL SUB NOT SWAP1 DUP2 AND SWAP1 SWAP2 SSTORE PUSH1 0x6 DUP3 ADD DUP1 SLOAD SWAP1 SWAP2 AND SWAP1 SSTORE PUSH1 0x7 DUP2 ADD DUP1 SLOAD PUSH1 0x1 PUSH1 0x1 PUSH1 0xB0 SHL SUB NOT SWAP1 DUP2 AND SWAP1 SWAP2 SSTORE PUSH1 0x8 DUP3 ADD DUP1 SLOAD SWAP1 SWAP2 AND SWAP1 SSTORE PUSH1 0x9 ADD DUP1 SLOAD PUSH1 0x1 PUSH1 0x1 PUSH1 0x50 SHL SUB NOT AND SWAP1 SSTORE PUSH1 0x40 MLOAD PUSH32 0xB6992D42B041F638F739EF922A21D84585F8E61E8ABCD7B93243C090F9AB9570 SWAP1 PUSH1 0x4 SWAP1 PUSH2 0x940 SWAP1 DUP5 SWAP1 PUSH2 0x4E92 JUMP JUMPDEST SWAP1 DUP2 MSTORE PUSH1 0x40 MLOAD SWAP1 DUP2 SWAP1 SUB PUSH1 0x20 ADD DUP2 KECCAK256 PUSH2 0x958 SWAP2 PUSH2 0x4F78 JUMP JUMPDEST PUSH1 0x40 MLOAD DUP1 SWAP2 SUB SWAP1 LOG1 POP JUMP JUMPDEST CALLER PUSH2 0x96C PUSH2 0xFEF JUMP JUMPDEST PUSH1 0x1 PUSH1 0x1 PUSH1 0xA0 SHL SUB AND EQ PUSH2 0x992 JUMPI PUSH1 0x40 MLOAD PUSH3 0x461BCD PUSH1 0xE5 SHL DUP2 MSTORE PUSH1 0x4 ADD PUSH2 0x73E SWAP1 PUSH2 0x5095 JUMP JUMPDEST PUSH2 0x99D PUSH1 0x2 DUP3 PUSH2 0x2625 JUMP JUMPDEST ISZERO PUSH2 0x9E5 JUMPI PUSH1 0x40 MLOAD CALLER SWAP1 PUSH1 0x1 PUSH1 0x1 PUSH1 0xA0 SHL SUB DUP4 AND SWAP1 PUSH32 0x7C0C3C84C67C85FCAC635147348BFE374C24A1A93D0366D1CFE9D8853CBF89D5 SWAP1 PUSH1 0x0 SWAP1 LOG3 PUSH2 0x9E3 PUSH1 0x2 DUP3 PUSH2 0x264A JUMP JUMPDEST POP JUMPDEST POP JUMP JUMPDEST PUSH1 0x60 PUSH2 0x9F4 PUSH1 0x2 PUSH2 0x265F JUMP JUMPDEST PUSH1 0x1 PUSH1 0x1 PUSH1 0x40 SHL SUB DUP2 GT ISZERO PUSH2 0xA0B JUMPI PUSH2 0xA0B PUSH2 0x4734 JUMP JUMPDEST PUSH1 0x40 MLOAD SWAP1 DUP1 DUP3 MSTORE DUP1 PUSH1 0x20 MUL PUSH1 0x20 ADD DUP3 ADD PUSH1 0x40 MSTORE DUP1 ISZERO PUSH2 0xA34 JUMPI DUP2 PUSH1 0x20 ADD PUSH1 0x20 DUP3 MUL DUP1 CALLDATASIZE DUP4 CALLDATACOPY ADD SWAP1 POP JUMPDEST POP SWAP1 POP PUSH1 0x0 JUMPDEST PUSH2 0xA44 PUSH1 0x2 PUSH2 0x265F JUMP JUMPDEST DUP2 LT ISZERO PUSH2 0xA92 JUMPI PUSH2 0xA56 PUSH1 0x2 DUP3 PUSH2 0x2669 JUMP JUMPDEST DUP3 DUP3 DUP2 MLOAD DUP2 LT PUSH2 0xA68 JUMPI PUSH2 0xA68 PUSH2 0x50CA JUMP JUMPDEST PUSH1 0x1 PUSH1 0x1 PUSH1 0xA0 SHL SUB SWAP1 SWAP3 AND PUSH1 0x20 SWAP3 DUP4 MUL SWAP2 SWAP1 SWAP2 ADD SWAP1 SWAP2 ADD MSTORE DUP1 PUSH2 0xA8A DUP2 PUSH2 0x50F6 JUMP JUMPDEST SWAP2 POP POP PUSH2 0xA3A JUMP JUMPDEST POP SWAP1 JUMP JUMPDEST CALLER PUSH2 0xA9F PUSH2 0xFEF JUMP JUMPDEST PUSH1 0x1 PUSH1 0x1 PUSH1 0xA0 SHL SUB AND EQ DUP1 PUSH2 0xABA JUMPI POP PUSH2 0xABA PUSH1 0x2 CALLER PUSH2 0x2625 JUMP JUMPDEST PUSH2 0xAD6 JUMPI PUSH1 0x40 MLOAD PUSH3 0x461BCD PUSH1 0xE5 SHL DUP2 MSTORE PUSH1 0x4 ADD PUSH2 0x73E SWAP1 PUSH2 0x4E2A JUMP JUMPDEST PUSH1 0x40 DUP1 MLOAD PUSH1 0x0 DUP1 DUP3 MSTORE PUSH1 0x20 DUP3 ADD SWAP3 DUP4 SWAP1 MSTORE SWAP2 CALLER SWAP2 DUP3 SWAP2 SELFBALANCE SWAP2 PUSH2 0xAF7 SWAP2 PUSH2 0x4E92 JUMP JUMPDEST PUSH1 0x0 PUSH1 0x40 MLOAD DUP1 DUP4 SUB DUP2 DUP6 DUP8 GAS CALL SWAP3 POP POP POP RETURNDATASIZE DUP1 PUSH1 0x0 DUP2 EQ PUSH2 0xB34 JUMPI PUSH1 0x40 MLOAD SWAP2 POP PUSH1 0x1F NOT PUSH1 0x3F RETURNDATASIZE ADD AND DUP3 ADD PUSH1 0x40 MSTORE RETURNDATASIZE DUP3 MSTORE RETURNDATASIZE PUSH1 0x0 PUSH1 0x20 DUP5 ADD RETURNDATACOPY PUSH2 0xB39 JUMP JUMPDEST PUSH1 0x60 SWAP2 POP JUMPDEST POP POP DUP1 SWAP3 POP POP DUP2 PUSH2 0x9E3 JUMPI PUSH1 0x40 MLOAD PUSH3 0x461BCD PUSH1 0xE5 SHL DUP2 MSTORE PUSH1 0x20 PUSH1 0x4 DUP3 ADD MSTORE PUSH1 0x2C PUSH1 0x24 DUP3 ADD MSTORE PUSH32 0x776974686472617720746F2077697468647261772066756E64732E20506C6561 PUSH1 0x44 DUP3 ADD MSTORE PUSH12 0x39B2903A393C9030B3B0B4B7 PUSH1 0xA1 SHL PUSH1 0x64 DUP3 ADD MSTORE PUSH1 0x84 ADD PUSH2 0x73E JUMP JUMPDEST CALLER PUSH2 0xBAA PUSH2 0xFEF JUMP JUMPDEST PUSH1 0x1 PUSH1 0x1 PUSH1 0xA0 SHL SUB AND EQ DUP1 PUSH2 0xBC5 JUMPI POP PUSH2 0xBC5 PUSH1 0x2 CALLER PUSH2 0x2625 JUMP JUMPDEST PUSH2 0xBE1 JUMPI PUSH1 0x40 MLOAD PUSH3 0x461BCD PUSH1 0xE5 SHL DUP2 MSTORE PUSH1 0x4 ADD PUSH2 0x73E SWAP1 PUSH2 0x4E2A JUMP JUMPDEST PUSH1 0x1 PUSH1 0x1 PUSH1 0xA0 SHL SUB DUP2 AND PUSH2 0xC4B JUMPI PUSH1 0x40 MLOAD PUSH3 0x461BCD PUSH1 0xE5 SHL DUP2 MSTORE PUSH1 0x20 PUSH1 0x4 DUP3 ADD MSTORE PUSH1 0x2B PUSH1 0x24 DUP3 ADD MSTORE PUSH32 0x726F79616C747920636F6E74726163742073686F756C64206E6F742062652061 PUSH1 0x44 DUP3 ADD MSTORE PUSH11 0x646472657373207A65726F PUSH1 0xA8 SHL PUSH1 0x64 DUP3 ADD MSTORE PUSH1 0x84 ADD PUSH2 0x73E JUMP JUMPDEST PUSH1 0x9 DUP1 SLOAD PUSH1 0x1 PUSH1 0x1 PUSH1 0xA0 SHL SUB NOT AND PUSH1 0x1 PUSH1 0x1 PUSH1 0xA0 SHL SUB SWAP3 SWAP1 SWAP3 AND SWAP2 SWAP1 SWAP2 OR SWAP1 SSTORE JUMP JUMPDEST PUSH1 0x0 DUP1 PUSH1 0x0 DUP1 PUSH1 0x0 DUP1 PUSH1 0x4 DUP9 DUP9 PUSH1 0x40 MLOAD PUSH2 0xC88 SWAP3 SWAP2 SWAP1 PUSH2 0x510F JUMP JUMPDEST SWAP1 DUP2 MSTORE PUSH1 0x40 MLOAD SWAP1 DUP2 SWAP1 SUB PUSH1 0x20 ADD DUP2 KECCAK256 PUSH1 0x7 ADD SLOAD PUSH2 0xFFFF PUSH1 0x1 PUSH1 0xA0 SHL SWAP1 SWAP2 DIV AND SWAP7 POP PUSH1 0x4 SWAP1 PUSH2 0xCB9 SWAP1 DUP11 SWAP1 DUP11 SWAP1 PUSH2 0x510F JUMP JUMPDEST SWAP1 DUP2 MSTORE PUSH1 0x40 MLOAD SWAP1 DUP2 SWAP1 SUB PUSH1 0x20 ADD DUP2 KECCAK256 PUSH1 0x7 ADD SLOAD PUSH1 0x1 PUSH1 0x1 PUSH1 0xA0 SHL SUB AND SWAP6 POP PUSH1 0x4 SWAP1 PUSH2 0xCE7 SWAP1 DUP11 SWAP1 DUP11 SWAP1 PUSH2 0x510F JUMP JUMPDEST SWAP1 DUP2 MSTORE PUSH1 0x40 MLOAD SWAP1 DUP2 SWAP1 SUB PUSH1 0x20 ADD DUP2 KECCAK256 PUSH1 0x8 ADD SLOAD PUSH2 0xFFFF PUSH1 0x1 PUSH1 0xA0 SHL SWAP1 SWAP2 DIV AND SWAP5 POP PUSH1 0x4 SWAP1 PUSH2 0xD18 SWAP1 DUP11 SWAP1 DUP11 SWAP1 PUSH2 0x510F JUMP JUMPDEST SWAP1 DUP2 MSTORE PUSH1 0x40 MLOAD SWAP1 DUP2 SWAP1 SUB PUSH1 0x20 ADD DUP2 KECCAK256 PUSH1 0x8 ADD SLOAD PUSH1 0x1 PUSH1 0x1 PUSH1 0xA0 SHL SUB AND SWAP4 POP PUSH1 0x4 SWAP1 PUSH2 0xD46 SWAP1 DUP11 SWAP1 DUP11 SWAP1 PUSH2 0x510F JUMP JUMPDEST SWAP1 DUP2 MSTORE PUSH1 0x40 MLOAD SWAP1 DUP2 SWAP1 SUB PUSH1 0x20 ADD DUP2 KECCAK256 PUSH1 0x5 ADD SLOAD PUSH1 0x1 PUSH1 0x1 PUSH1 0xA0 SHL SUB AND SWAP3 POP PUSH1 0x4 SWAP1 PUSH2 0xD74 SWAP1 DUP11 SWAP1 DUP11 SWAP1 PUSH2 0x510F JUMP JUMPDEST SWAP1 DUP2 MSTORE PUSH1 0x40 MLOAD SWAP1 DUP2 SWAP1 SUB PUSH1 0x20 ADD SWAP1 KECCAK256 PUSH1 0x6 ADD SLOAD SWAP6 SWAP9 SWAP5 SWAP8 POP SWAP3 SWAP6 POP SWAP1 SWAP4 SWAP1 SWAP3 PUSH1 0x1 PUSH1 0x1 PUSH1 0xA0 SHL SUB SWAP1 SWAP2 AND SWAP2 POP JUMP JUMPDEST CALLER PUSH2 0xDAB PUSH2 0xFEF JUMP JUMPDEST PUSH1 0x1 PUSH1 0x1 PUSH1 0xA0 SHL SUB AND EQ PUSH2 0xDD1 JUMPI PUSH1 0x40 MLOAD PUSH3 0x461BCD PUSH1 0xE5 SHL DUP2 MSTORE PUSH1 0x4 ADD PUSH2 0x73E SWAP1 PUSH2 0x5095 JUMP JUMPDEST PUSH2 0xDDC PUSH1 0x2 DUP3 PUSH2 0x2625 JUMP JUMPDEST PUSH2 0x9E5 JUMPI PUSH1 0x40 MLOAD CALLER SWAP1 PUSH1 0x1 PUSH1 0x1 PUSH1 0xA0 SHL SUB DUP4 AND SWAP1 PUSH32 0x7E1A1A08D52E4BA0E21554733D66165FD5151F99460116223D9E3A608EEC5CB1 SWAP1 PUSH1 0x0 SWAP1 LOG3 PUSH2 0x9E3 PUSH1 0x2 DUP3 PUSH2 0x2675 JUMP JUMPDEST CALLER PUSH2 0xE2A PUSH2 0xFEF JUMP JUMPDEST PUSH1 0x1 PUSH1 0x1 PUSH1 0xA0 SHL SUB AND EQ DUP1 PUSH2 0xE45 JUMPI POP PUSH2 0xE45 PUSH1 0x2 CALLER PUSH2 0x2625 JUMP JUMPDEST PUSH2 0xE61 JUMPI PUSH1 0x40 MLOAD PUSH3 0x461BCD PUSH1 0xE5 SHL DUP2 MSTORE PUSH1 0x4 ADD PUSH2 0x73E SWAP1 PUSH2 0x4E2A JUMP JUMPDEST PUSH1 0x1 PUSH1 0x1 PUSH1 0xA0 SHL SUB DUP2 AND PUSH2 0xECD JUMPI PUSH1 0x40 MLOAD PUSH3 0x461BCD PUSH1 0xE5 SHL DUP2 MSTORE PUSH1 0x20 PUSH1 0x4 DUP3 ADD MSTORE PUSH1 0x2D PUSH1 0x24 DUP3 ADD MSTORE PUSH32 0x70726963656665656420636F6E74726163742073686F756C64206E6F74206265 PUSH1 0x44 DUP3 ADD MSTORE PUSH13 0x2061646472657373207A65726F PUSH1 0x98 SHL PUSH1 0x64 DUP3 ADD MSTORE PUSH1 0x84 ADD PUSH2 0x73E JUMP JUMPDEST PUSH1 0x8 DUP1 SLOAD PUSH1 0x1 PUSH1 0x1 PUSH1 0xA0 SHL SUB NOT AND PUSH1 0x1 PUSH1 0x1 PUSH1 0xA0 SHL SUB SWAP3 SWAP1 SWAP3 AND SWAP2 SWAP1 SWAP2 OR SWAP1 SSTORE JUMP JUMPDEST CALLER PUSH2 0xEF8 PUSH2 0xFEF JUMP JUMPDEST PUSH1 0x1 PUSH1 0x1 PUSH1 0xA0 SHL SUB AND EQ PUSH2 0xF1E JUMPI PUSH1 0x40 MLOAD PUSH3 0x461BCD PUSH1 0xE5 SHL DUP2 MSTORE PUSH1 0x4 ADD PUSH2 0x73E SWAP1 PUSH2 0x5095 JUMP JUMPDEST PUSH1 0x1 SLOAD PUSH1 0x40 MLOAD PUSH1 0x0 SWAP2 PUSH1 0x1 PUSH1 0x1 PUSH1 0xA0 SHL SUB AND SWAP1 PUSH32 0x8BE0079C531659141344CD1FD0A4F28419497F9722A3DAAFE3B4186F6B6457E0 SWAP1 DUP4 SWAP1 LOG3 PUSH1 0x1 DUP1 SLOAD PUSH1 0x1 PUSH1 0x1 PUSH1 0xA0 SHL SUB NOT AND SWAP1 SSTORE JUMP JUMPDEST PUSH1 0x9 SLOAD PUSH1 0x40 MLOAD PUSH4 0x6E44A72F PUSH1 0xE0 SHL DUP2 MSTORE PUSH1 0x60 SWAP2 DUP3 SWAP2 PUSH1 0x1 PUSH1 0x1 PUSH1 0xA0 SHL SUB SWAP1 SWAP2 AND SWAP1 PUSH4 0x6E44A72F SWAP1 PUSH2 0xF9F SWAP1 DUP8 SWAP1 DUP8 SWAP1 PUSH1 0x4 ADD PUSH2 0x511F JUMP JUMPDEST PUSH1 0x0 PUSH1 0x40 MLOAD DUP1 DUP4 SUB DUP2 DUP7 GAS STATICCALL ISZERO DUP1 ISZERO PUSH2 0xFBC JUMPI RETURNDATASIZE PUSH1 0x0 DUP1 RETURNDATACOPY RETURNDATASIZE PUSH1 0x0 REVERT JUMPDEST POP POP POP POP PUSH1 0x40 MLOAD RETURNDATASIZE PUSH1 0x0 DUP3 RETURNDATACOPY PUSH1 0x1F RETURNDATASIZE SWAP1 DUP2 ADD PUSH1 0x1F NOT AND DUP3 ADD PUSH1 0x40 MSTORE PUSH2 0xFE4 SWAP2 SWAP1 DUP2 ADD SWAP1 PUSH2 0x51C6 JUMP JUMPDEST SWAP1 SWAP6 SWAP1 SWAP5 POP SWAP3 POP POP POP JUMP JUMPDEST PUSH1 0x1 SLOAD PUSH1 0x1 PUSH1 0x1 PUSH1 0xA0 SHL SUB AND SWAP1 JUMP JUMPDEST CALLER PUSH2 0x1007 PUSH2 0xFEF JUMP JUMPDEST PUSH1 0x1 PUSH1 0x1 PUSH1 0xA0 SHL SUB AND EQ DUP1 PUSH2 0x1022 JUMPI POP PUSH2 0x1022 PUSH1 0x2 CALLER PUSH2 0x2625 JUMP JUMPDEST PUSH2 0x103E JUMPI PUSH1 0x40 MLOAD PUSH3 0x461BCD PUSH1 0xE5 SHL DUP2 MSTORE PUSH1 0x4 ADD PUSH2 0x73E SWAP1 PUSH2 0x4E2A JUMP JUMPDEST PUSH1 0x1 PUSH1 0x1 PUSH1 0xA0 SHL SUB DUP2 AND PUSH2 0x108F JUMPI PUSH1 0x40 MLOAD PUSH3 0x461BCD PUSH1 0xE5 SHL DUP2 MSTORE PUSH1 0x20 PUSH1 0x4 DUP3 ADD MSTORE PUSH1 0x18 PUSH1 0x24 DUP3 ADD MSTORE PUSH24 0x496E76616C696420506C6174666F726D2041646472657373 PUSH1 0x40 SHL PUSH1 0x44 DUP3 ADD MSTORE PUSH1 0x64 ADD PUSH2 0x73E JUMP JUMPDEST PUSH1 0x7 DUP1 SLOAD PUSH1 0x1 PUSH1 0x1 PUSH1 0xA0 SHL SUB NOT AND PUSH1 0x1 PUSH1 0x1 PUSH1 0xA0 SHL SUB SWAP3 SWAP1 SWAP3 AND SWAP2 SWAP1 SWAP2 OR SWAP1 SSTORE JUMP JUMPDEST PUSH1 0x60 PUSH1 0x2 PUSH1 0x0 SLOAD SUB PUSH2 0x10D5 JUMPI PUSH1 0x40 MLOAD PUSH3 0x461BCD PUSH1 0xE5 SHL DUP2 MSTORE PUSH1 0x4 ADD PUSH2 0x73E SWAP1 PUSH2 0x528A JUMP JUMPDEST PUSH1 0x2 PUSH1 0x0 SWAP1 DUP2 SSTORE DUP4 MLOAD PUSH1 0x40 MLOAD PUSH1 0x4 SWAP2 PUSH2 0x10ED SWAP2 PUSH2 0x4E92 JUMP JUMPDEST SWAP1 DUP2 MSTORE PUSH1 0x40 DUP1 MLOAD SWAP2 DUP3 SWAP1 SUB PUSH1 0x20 SWAP1 DUP2 ADD DUP4 KECCAK256 PUSH1 0xC0 DUP5 ADD DUP4 MSTORE PUSH1 0x5 DUP2 ADD SLOAD PUSH1 0x1 PUSH1 0x1 PUSH1 0xA0 SHL SUB SWAP1 DUP2 AND DUP6 MSTORE PUSH1 0x6 DUP3 ADD SLOAD DUP2 AND SWAP3 DUP6 ADD SWAP3 SWAP1 SWAP3 MSTORE PUSH1 0x7 DUP2 ADD SLOAD DUP1 DUP4 AND DUP6 DUP6 ADD MSTORE PUSH2 0xFFFF PUSH1 0x1 PUSH1 0xA0 SHL SWAP2 DUP3 SWAP1 DIV DUP2 AND PUSH1 0x60 DUP8 ADD MSTORE PUSH1 0x8 SWAP1 SWAP3 ADD SLOAD SWAP3 DUP4 AND PUSH1 0x80 DUP7 ADD MSTORE SWAP1 SWAP2 DIV AND PUSH1 0xA0 DUP4 ADD MSTORE DUP6 MLOAD SWAP1 MLOAD SWAP2 SWAP3 POP PUSH1 0x0 SWAP2 PUSH1 0x4 SWAP2 PUSH2 0x1171 SWAP2 PUSH2 0x4E92 JUMP JUMPDEST SWAP1 DUP2 MSTORE PUSH1 0x40 DUP1 MLOAD SWAP2 DUP3 SWAP1 SUB PUSH1 0x20 SWAP1 DUP2 ADD DUP4 KECCAK256 PUSH2 0x140 DUP5 ADD DUP4 MSTORE DUP1 SLOAD PUSH1 0x1 PUSH1 0x1 PUSH1 0xA0 SHL SUB DUP2 AND DUP6 MSTORE PUSH1 0x1 PUSH1 0x1 PUSH1 0x40 SHL SUB PUSH1 0x1 PUSH1 0xA0 SHL SWAP1 SWAP2 DIV DUP2 AND DUP6 DUP5 ADD MSTORE PUSH1 0x1 DUP3 ADD SLOAD AND DUP5 DUP5 ADD MSTORE PUSH1 0x2 DUP2 ADD SLOAD PUSH1 0x60 DUP6 ADD MSTORE PUSH1 0x3 DUP2 ADD DUP1 SLOAD DUP5 MLOAD DUP2 DUP6 MUL DUP2 ADD DUP6 ADD SWAP1 SWAP6 MSTORE DUP1 DUP6 MSTORE SWAP2 SWAP4 PUSH1 0x80 DUP7 ADD SWAP4 SWAP1 SWAP3 SWAP1 DUP4 ADD DUP3 DUP3 DUP1 ISZERO PUSH2 0x1210 JUMPI PUSH1 0x20 MUL DUP3 ADD SWAP2 SWAP1 PUSH1 0x0 MSTORE PUSH1 0x20 PUSH1 0x0 KECCAK256 SWAP1 JUMPDEST DUP2 SLOAD DUP2 MSTORE PUSH1 0x20 ADD SWAP1 PUSH1 0x1 ADD SWAP1 DUP1 DUP4 GT PUSH2 0x11FC JUMPI JUMPDEST POP POP POP POP POP DUP2 MSTORE PUSH1 0x20 ADD PUSH1 0x4 DUP3 ADD DUP1 SLOAD DUP1 PUSH1 0x20 MUL PUSH1 0x20 ADD PUSH1 0x40 MLOAD SWAP1 DUP2 ADD PUSH1 0x40 MSTORE DUP1 SWAP3 SWAP2 SWAP1 DUP2 DUP2 MSTORE PUSH1 0x20 ADD DUP3 DUP1 SLOAD DUP1 ISZERO PUSH2 0x1272 JUMPI PUSH1 0x20 MUL DUP3 ADD SWAP2 SWAP1 PUSH1 0x0 MSTORE PUSH1 0x20 PUSH1 0x0 KECCAK256 SWAP1 JUMPDEST DUP2 SLOAD PUSH1 0x1 PUSH1 0x1 PUSH1 0xA0 SHL SUB AND DUP2 MSTORE PUSH1 0x1 SWAP1 SWAP2 ADD SWAP1 PUSH1 0x20 ADD DUP1 DUP4 GT PUSH2 0x1254 JUMPI JUMPDEST POP POP POP SWAP2 DUP4 MSTORE POP POP PUSH1 0x40 DUP1 MLOAD PUSH1 0xC0 DUP2 ADD DUP3 MSTORE PUSH1 0x5 DUP5 ADD SLOAD PUSH1 0x1 PUSH1 0x1 PUSH1 0xA0 SHL SUB SWAP1 DUP2 AND DUP3 MSTORE PUSH1 0x6 DUP6 ADD SLOAD DUP2 AND PUSH1 0x20 DUP4 DUP2 ADD SWAP2 SWAP1 SWAP2 MSTORE PUSH1 0x7 DUP7 ADD SLOAD DUP1 DUP4 AND DUP5 DUP7 ADD MSTORE PUSH2 0xFFFF PUSH1 0x1 PUSH1 0xA0 SHL SWAP2 DUP3 SWAP1 DIV DUP2 AND PUSH1 0x60 DUP1 DUP8 ADD SWAP2 SWAP1 SWAP2 MSTORE PUSH1 0x8 DUP10 ADD SLOAD SWAP5 DUP6 AND PUSH1 0x80 DUP8 ADD MSTORE SWAP2 SWAP1 SWAP4 DIV SWAP1 SWAP3 AND PUSH1 0xA0 DUP5 ADD MSTORE DUP5 ADD SWAP2 SWAP1 SWAP2 MSTORE PUSH1 0x9 DUP5 ADD SLOAD PUSH1 0x1 PUSH1 0x1 PUSH1 0x40 SHL SUB DUP2 AND SWAP3 DUP5 ADD SWAP3 SWAP1 SWAP3 MSTORE SWAP1 SWAP2 ADD SWAP1 PUSH1 0xFF PUSH1 0x1 PUSH1 0x40 SHL SWAP1 SWAP2 DIV AND PUSH1 0x1 DUP2 GT ISZERO PUSH2 0x131E JUMPI PUSH2 0x131E PUSH2 0x4A43 JUMP JUMPDEST PUSH1 0x1 DUP2 GT ISZERO PUSH2 0x132F JUMPI PUSH2 0x132F PUSH2 0x4A43 JUMP JUMPDEST DUP2 MSTORE PUSH1 0x20 ADD PUSH1 0x9 DUP3 ADD PUSH1 0x9 SWAP1 SLOAD SWAP1 PUSH2 0x100 EXP SWAP1 DIV PUSH1 0xFF AND PUSH1 0x1 DUP2 GT ISZERO PUSH2 0x1357 JUMPI PUSH2 0x1357 PUSH2 0x4A43 JUMP JUMPDEST PUSH1 0x1 DUP2 GT ISZERO PUSH2 0x1368 JUMPI PUSH2 0x1368 PUSH2 0x4A43 JUMP JUMPDEST SWAP1 MSTORE POP DUP6 MLOAD PUSH1 0x40 MLOAD SWAP2 SWAP3 POP PUSH1 0x6 SWAP2 PUSH2 0x1380 SWAP2 SWAP1 PUSH2 0x4E92 JUMP JUMPDEST SWAP1 DUP2 MSTORE PUSH1 0x40 MLOAD SWAP1 DUP2 SWAP1 SUB PUSH1 0x20 ADD SWAP1 KECCAK256 SLOAD PUSH1 0xFF AND PUSH2 0x13AF JUMPI PUSH1 0x40 MLOAD PUSH3 0x461BCD PUSH1 0xE5 SHL DUP2 MSTORE PUSH1 0x4 ADD PUSH2 0x73E SWAP1 PUSH2 0x52C1 JUMP JUMPDEST PUSH2 0x13B8 CALLER PUSH2 0x7A9 JUMP JUMPDEST DUP1 PUSH2 0x13CF JUMPI POP PUSH1 0x80 DUP6 ADD MLOAD PUSH1 0x1 PUSH1 0x1 PUSH1 0xA0 SHL SUB AND CALLER EQ JUMPDEST PUSH2 0x1452 JUMPI PUSH1 0x40 MLOAD PUSH3 0x461BCD PUSH1 0xE5 SHL DUP2 MSTORE PUSH1 0x20 PUSH1 0x4 DUP3 ADD MSTORE PUSH1 0x48 PUSH1 0x24 DUP3 ADD MSTORE PUSH32 0x4F6E6C7920746865206275796572206F722061646D696E206F72206F776E6572 PUSH1 0x44 DUP3 ADD MSTORE PUSH32 0x206F66207468697320636F6E74726163742063616E2063616C6C207468697320 PUSH1 0x64 DUP3 ADD MSTORE PUSH8 0x333AB731BA34B7B7 PUSH1 0xC1 SHL PUSH1 0x84 DUP3 ADD MSTORE PUSH1 0xA4 ADD PUSH2 0x73E JUMP JUMPDEST PUSH1 0x0 DUP1 PUSH2 0x149D DUP8 PUSH1 0x0 ADD MLOAD DUP9 PUSH1 0x40 ADD MLOAD DUP10 PUSH1 0x60 ADD MLOAD PUSH1 0x1 PUSH1 0x1 PUSH1 0x40 SHL SUB AND DUP11 PUSH1 0xA0 ADD MLOAD PUSH1 0x1 PUSH1 0x1 PUSH1 0x40 SHL SUB AND DUP12 PUSH1 0xC0 ADD MLOAD DUP12 DUP14 PUSH1 0xE0 ADD MLOAD PUSH2 0x1493 SWAP2 SWAP1 PUSH2 0x52EB JUMP JUMPDEST DUP14 PUSH1 0x80 ADD MLOAD PUSH2 0x268A JUMP JUMPDEST SWAP2 POP SWAP2 POP PUSH2 0x14E0 DUP8 PUSH1 0x0 ADD MLOAD DUP9 PUSH1 0x20 ADD MLOAD DUP4 DUP11 PUSH1 0x80 ADD MLOAD DUP12 PUSH1 0x40 ADD MLOAD DUP13 PUSH1 0x60 ADD MLOAD PUSH1 0x1 PUSH1 0x1 PUSH1 0x40 SHL SUB AND DUP14 PUSH1 0xA0 ADD MLOAD PUSH1 0x1 PUSH1 0x1 PUSH1 0x40 SHL SUB AND DUP11 PUSH2 0x100 ADD MLOAD PUSH2 0x30F4 JUMP JUMPDEST SWAP5 POP DUP6 ISZERO PUSH2 0x14FC JUMPI PUSH2 0x14FC CALLER DUP6 PUSH1 0x20 ADD MLOAD DUP10 PUSH1 0xC0 ADD MLOAD DUP10 PUSH2 0x3B1A JUMP JUMPDEST PUSH2 0x152C DUP8 PUSH1 0x0 ADD MLOAD DUP4 DUP10 PUSH1 0xE0 ADD MLOAD PUSH2 0x1514 SWAP2 SWAP1 PUSH2 0x52FE JUMP JUMPDEST DUP5 DUP11 PUSH1 0xC0 ADD MLOAD DUP12 PUSH1 0x40 ADD MLOAD DUP11 DUP8 DUP11 PUSH2 0x100 ADD MLOAD PUSH2 0x3C1E JUMP JUMPDEST DUP1 PUSH1 0x1 PUSH1 0x1 PUSH1 0xA0 SHL SUB AND PUSH32 0x92347FD034DEB76ED77249B761AEC05C6302665F18922499F245DDE63BCB0D1F DUP9 DUP8 DUP8 DUP11 DUP8 DUP9 DUP15 PUSH1 0xE0 ADD MLOAD PUSH2 0x156C SWAP2 SWAP1 PUSH2 0x52FE JUMP JUMPDEST PUSH1 0x40 MLOAD PUSH2 0x157E SWAP7 SWAP6 SWAP5 SWAP4 SWAP3 SWAP2 SWAP1 PUSH2 0x533D JUMP JUMPDEST PUSH1 0x40 MLOAD DUP1 SWAP2 SUB SWAP1 LOG2 POP POP POP POP PUSH1 0x1 PUSH1 0x0 SSTORE SWAP3 SWAP2 POP POP JUMP JUMPDEST CALLER PUSH2 0x159E PUSH2 0xFEF JUMP JUMPDEST PUSH1 0x1 PUSH1 0x1 PUSH1 0xA0 SHL SUB AND EQ DUP1 PUSH2 0x15B9 JUMPI POP PUSH2 0x15B9 PUSH1 0x2 CALLER PUSH2 0x2625 JUMP JUMPDEST PUSH2 0x15D5 JUMPI PUSH1 0x40 MLOAD PUSH3 0x461BCD PUSH1 0xE5 SHL DUP2 MSTORE PUSH1 0x4 ADD PUSH2 0x73E SWAP1 PUSH2 0x4E2A JUMP JUMPDEST PUSH1 0x6 DUP4 DUP4 PUSH1 0x40 MLOAD PUSH2 0x15E7 SWAP3 SWAP2 SWAP1 PUSH2 0x510F JUMP JUMPDEST SWAP1 DUP2 MSTORE PUSH1 0x40 MLOAD SWAP1 DUP2 SWAP1 SUB PUSH1 0x20 ADD SWAP1 KECCAK256 SLOAD PUSH1 0xFF AND PUSH2 0x1616 JUMPI PUSH1 0x40 MLOAD PUSH3 0x461BCD PUSH1 0xE5 SHL DUP2 MSTORE PUSH1 0x4 ADD PUSH2 0x73E SWAP1 PUSH2 0x52C1 JUMP JUMPDEST PUSH1 0x1 PUSH1 0x1 PUSH1 0xA0 SHL SUB DUP2 AND ISZERO DUP1 ISZERO SWAP1 PUSH2 0x165D JUMPI POP PUSH1 0x4 DUP4 DUP4 PUSH1 0x40 MLOAD PUSH2 0x163B SWAP3 SWAP2 SWAP1 PUSH2 0x510F JUMP JUMPDEST SWAP1 DUP2 MSTORE PUSH1 0x40 MLOAD SWAP1 DUP2 SWAP1 SUB PUSH1 0x20 ADD SWAP1 KECCAK256 PUSH1 0x6 ADD SLOAD PUSH1 0x1 PUSH1 0x1 PUSH1 0xA0 SHL SUB DUP3 DUP2 AND SWAP2 AND EQ JUMPDEST PUSH2 0x1679 JUMPI PUSH1 0x40 MLOAD PUSH3 0x461BCD PUSH1 0xE5 SHL DUP2 MSTORE PUSH1 0x4 ADD PUSH2 0x73E SWAP1 PUSH2 0x541A JUMP JUMPDEST DUP1 PUSH1 0x4 DUP5 DUP5 PUSH1 0x40 MLOAD PUSH2 0x168C SWAP3 SWAP2 SWAP1 PUSH2 0x510F JUMP JUMPDEST SWAP1 DUP2 MSTORE PUSH1 0x40 MLOAD SWAP1 DUP2 SWAP1 SUB PUSH1 0x20 ADD SWAP1 KECCAK256 PUSH1 0x6 ADD DUP1 SLOAD PUSH1 0x1 PUSH1 0x1 PUSH1 0xA0 SHL SUB SWAP3 SWAP1 SWAP3 AND PUSH1 0x1 PUSH1 0x1 PUSH1 0xA0 SHL SUB NOT SWAP1 SWAP3 AND SWAP2 SWAP1 SWAP2 OR SWAP1 SSTORE POP POP POP JUMP JUMPDEST CALLER PUSH2 0x16CC PUSH2 0xFEF JUMP JUMPDEST PUSH1 0x1 PUSH1 0x1 PUSH1 0xA0 SHL SUB AND EQ DUP1 PUSH2 0x16E7 JUMPI POP PUSH2 0x16E7 PUSH1 0x2 CALLER PUSH2 0x2625 JUMP JUMPDEST PUSH2 0x1703 JUMPI PUSH1 0x40 MLOAD PUSH3 0x461BCD PUSH1 0xE5 SHL DUP2 MSTORE PUSH1 0x4 ADD PUSH2 0x73E SWAP1 PUSH2 0x4E2A JUMP JUMPDEST PUSH2 0x2710 DUP2 PUSH2 0xFFFF AND LT PUSH2 0x176A JUMPI PUSH1 0x40 MLOAD PUSH3 0x461BCD PUSH1 0xE5 SHL DUP2 MSTORE PUSH1 0x20 PUSH1 0x4 DUP3 ADD MSTORE PUSH1 0x29 PUSH1 0x24 DUP3 ADD MSTORE PUSH32 0x706C6174666F726D4665652073686F756C64206E6F74206265206D6F72652074 PUSH1 0x44 DUP3 ADD MSTORE PUSH9 0x68616E20313030303 PUSH1 0xBC SHL PUSH1 0x64 DUP3 ADD MSTORE PUSH1 0x84 ADD PUSH2 0x73E JUMP JUMPDEST PUSH1 0x7 DUP1 SLOAD PUSH2 0xFFFF SWAP1 SWAP3 AND PUSH1 0x1 PUSH1 0xA0 SHL MUL PUSH2 0xFFFF PUSH1 0xA0 SHL NOT SWAP1 SWAP3 AND SWAP2 SWAP1 SWAP2 OR SWAP1 SSTORE JUMP JUMPDEST PUSH1 0x60 DUP1 PUSH1 0x4 DUP5 DUP5 PUSH1 0x40 MLOAD PUSH2 0x17A1 SWAP3 SWAP2 SWAP1 PUSH2 0x510F JUMP JUMPDEST SWAP1 DUP2 MSTORE PUSH1 0x40 DUP1 MLOAD SWAP2 DUP3 SWAP1 SUB PUSH1 0x20 SWAP1 DUP2 ADD DUP4 KECCAK256 PUSH1 0x3 ADD DUP1 SLOAD DUP1 DUP4 MUL DUP6 ADD DUP4 ADD SWAP1 SWAP4 MSTORE DUP3 DUP5 MSTORE SWAP2 SWAP1 DUP4 ADD DUP3 DUP3 DUP1 ISZERO PUSH2 0x17F6 JUMPI PUSH1 0x20 MUL DUP3 ADD SWAP2 SWAP1 PUSH1 0x0 MSTORE PUSH1 0x20 PUSH1 0x0 KECCAK256 SWAP1 JUMPDEST DUP2 SLOAD DUP2 MSTORE PUSH1 0x20 ADD SWAP1 PUSH1 0x1 ADD SWAP1 DUP1 DUP4 GT PUSH2 0x17E2 JUMPI JUMPDEST POP POP POP POP POP SWAP2 POP PUSH1 0x4 DUP5 DUP5 PUSH1 0x40 MLOAD PUSH2 0x180F SWAP3 SWAP2 SWAP1 PUSH2 0x510F JUMP JUMPDEST SWAP1 DUP2 MSTORE PUSH1 0x40 DUP1 MLOAD SWAP2 DUP3 SWAP1 SUB PUSH1 0x20 SWAP1 DUP2 ADD DUP4 KECCAK256 PUSH1 0x4 ADD DUP1 SLOAD DUP1 DUP4 MUL DUP6 ADD DUP4 ADD SWAP1 SWAP4 MSTORE DUP3 DUP5 MSTORE SWAP2 SWAP1 DUP4 ADD DUP3 DUP3 DUP1 ISZERO PUSH2 0x186E JUMPI PUSH1 0x20 MUL DUP3 ADD SWAP2 SWAP1 PUSH1 0x0 MSTORE PUSH1 0x20 PUSH1 0x0 KECCAK256 SWAP1 JUMPDEST DUP2 SLOAD PUSH1 0x1 PUSH1 0x1 PUSH1 0xA0 SHL SUB AND DUP2 MSTORE PUSH1 0x1 SWAP1 SWAP2 ADD SWAP1 PUSH1 0x20 ADD DUP1 DUP4 GT PUSH2 0x1850 JUMPI JUMPDEST POP POP POP POP POP SWAP1 POP SWAP3 POP SWAP3 SWAP1 POP JUMP JUMPDEST CALLER PUSH2 0x1885 PUSH2 0xFEF JUMP JUMPDEST PUSH1 0x1 PUSH1 0x1 PUSH1 0xA0 SHL SUB AND EQ DUP1 PUSH2 0x18A0 JUMPI POP PUSH2 0x18A0 PUSH1 0x2 CALLER PUSH2 0x2625 JUMP JUMPDEST PUSH2 0x18BC JUMPI PUSH1 0x40 MLOAD PUSH3 0x461BCD PUSH1 0xE5 SHL DUP2 MSTORE PUSH1 0x4 ADD PUSH2 0x73E SWAP1 PUSH2 0x4E2A JUMP JUMPDEST PUSH1 0x6 DUP9 DUP9 PUSH1 0x40 MLOAD PUSH2 0x18CE SWAP3 SWAP2 SWAP1 PUSH2 0x510F JUMP JUMPDEST SWAP1 DUP2 MSTORE PUSH1 0x40 MLOAD SWAP1 DUP2 SWAP1 SUB PUSH1 0x20 ADD SWAP1 KECCAK256 SLOAD PUSH1 0xFF AND PUSH2 0x18FD JUMPI PUSH1 0x40 MLOAD PUSH3 0x461BCD PUSH1 0xE5 SHL DUP2 MSTORE PUSH1 0x4 ADD PUSH2 0x73E SWAP1 PUSH2 0x52C1 JUMP JUMPDEST DUP6 PUSH1 0x4 DUP10 DUP10 PUSH1 0x40 MLOAD PUSH2 0x1910 SWAP3 SWAP2 SWAP1 PUSH2 0x510F JUMP JUMPDEST SWAP1 DUP2 MSTORE PUSH1 0x40 MLOAD SWAP1 DUP2 SWAP1 SUB PUSH1 0x20 ADD SWAP1 KECCAK256 PUSH1 0x9 ADD DUP1 SLOAD PUSH1 0xFF PUSH1 0x48 SHL NOT AND PUSH1 0x1 PUSH1 0x48 SHL DUP4 PUSH1 0x1 DUP2 GT ISZERO PUSH2 0x1942 JUMPI PUSH2 0x1942 PUSH2 0x4A43 JUMP JUMPDEST MUL OR SWAP1 SSTORE POP PUSH1 0x1 DUP7 PUSH1 0x1 DUP2 GT ISZERO PUSH2 0x195B JUMPI PUSH2 0x195B PUSH2 0x4A43 JUMP JUMPDEST SUB PUSH2 0x1A5E JUMPI DUP5 ISZERO PUSH2 0x197E JUMPI PUSH1 0x40 MLOAD PUSH3 0x461BCD PUSH1 0xE5 SHL DUP2 MSTORE PUSH1 0x4 ADD PUSH2 0x73E SWAP1 PUSH2 0x5472 JUMP JUMPDEST DUP1 DUP4 EQ PUSH2 0x199D JUMPI PUSH1 0x40 MLOAD PUSH3 0x461BCD PUSH1 0xE5 SHL DUP2 MSTORE PUSH1 0x4 ADD PUSH2 0x73E SWAP1 PUSH2 0x54CF JUMP JUMPDEST PUSH1 0x0 JUMPDEST DUP2 DUP2 LT ISZERO PUSH2 0x1A58 JUMPI PUSH1 0x0 DUP6 DUP6 DUP4 DUP2 DUP2 LT PUSH2 0x19BC JUMPI PUSH2 0x19BC PUSH2 0x50CA JUMP JUMPDEST SWAP1 POP PUSH1 0x20 MUL ADD CALLDATALOAD GT PUSH2 0x19E0 JUMPI PUSH1 0x40 MLOAD PUSH3 0x461BCD PUSH1 0xE5 SHL DUP2 MSTORE PUSH1 0x4 ADD PUSH2 0x73E SWAP1 PUSH2 0x5527 JUMP JUMPDEST DUP5 DUP5 PUSH1 0x4 DUP12 DUP12 PUSH1 0x40 MLOAD PUSH2 0x19F4 SWAP3 SWAP2 SWAP1 PUSH2 0x510F JUMP JUMPDEST SWAP1 DUP2 MSTORE PUSH1 0x20 ADD PUSH1 0x40 MLOAD DUP1 SWAP2 SUB SWAP1 KECCAK256 PUSH1 0x3 ADD SWAP2 SWAP1 PUSH2 0x1A12 SWAP3 SWAP2 SWAP1 PUSH2 0x45DC JUMP JUMPDEST POP DUP3 DUP3 PUSH1 0x4 DUP12 DUP12 PUSH1 0x40 MLOAD PUSH2 0x1A27 SWAP3 SWAP2 SWAP1 PUSH2 0x510F JUMP JUMPDEST SWAP1 DUP2 MSTORE PUSH1 0x20 ADD PUSH1 0x40 MLOAD DUP1 SWAP2 SUB SWAP1 KECCAK256 PUSH1 0x4 ADD SWAP2 SWAP1 PUSH2 0x1A45 SWAP3 SWAP2 SWAP1 PUSH2 0x4623 JUMP JUMPDEST POP DUP1 PUSH2 0x1A50 DUP2 PUSH2 0x50F6 JUMP JUMPDEST SWAP2 POP POP PUSH2 0x19A0 JUMP JUMPDEST POP PUSH2 0x1AE6 JUMP JUMPDEST PUSH1 0x0 DUP7 PUSH1 0x1 DUP2 GT ISZERO PUSH2 0x1A72 JUMPI PUSH2 0x1A72 PUSH2 0x4A43 JUMP JUMPDEST SUB PUSH2 0x1AE6 JUMPI DUP1 ISZERO DUP1 ISZERO PUSH2 0x1A83 JUMPI POP DUP3 ISZERO JUMPDEST PUSH2 0x1A9F JUMPI PUSH1 0x40 MLOAD PUSH3 0x461BCD PUSH1 0xE5 SHL DUP2 MSTORE PUSH1 0x4 ADD PUSH2 0x73E SWAP1 PUSH2 0x557A JUMP JUMPDEST PUSH1 0x0 DUP6 GT PUSH2 0x1ABF JUMPI PUSH1 0x40 MLOAD PUSH3 0x461BCD PUSH1 0xE5 SHL DUP2 MSTORE PUSH1 0x4 ADD PUSH2 0x73E SWAP1 PUSH2 0x55D7 JUMP JUMPDEST DUP5 PUSH1 0x4 DUP10 DUP10 PUSH1 0x40 MLOAD PUSH2 0x1AD2 SWAP3 SWAP2 SWAP1 PUSH2 0x510F JUMP JUMPDEST SWAP1 DUP2 MSTORE PUSH1 0x40 MLOAD SWAP1 DUP2 SWAP1 SUB PUSH1 0x20 ADD SWAP1 KECCAK256 PUSH1 0x2 ADD SSTORE JUMPDEST POP POP POP POP POP POP POP POP JUMP JUMPDEST CALLER PUSH2 0x1AF9 PUSH2 0xFEF JUMP JUMPDEST PUSH1 0x1 PUSH1 0x1 PUSH1 0xA0 SHL SUB AND EQ DUP1 PUSH2 0x1B14 JUMPI POP PUSH2 0x1B14 PUSH1 0x2 CALLER PUSH2 0x2625 JUMP JUMPDEST PUSH2 0x1B30 JUMPI PUSH1 0x40 MLOAD PUSH3 0x461BCD PUSH1 0xE5 SHL DUP2 MSTORE PUSH1 0x4 ADD PUSH2 0x73E SWAP1 PUSH2 0x4E2A JUMP JUMPDEST PUSH1 0x6 DUP4 DUP4 PUSH1 0x40 MLOAD PUSH2 0x1B42 SWAP3 SWAP2 SWAP1 PUSH2 0x510F JUMP JUMPDEST SWAP1 DUP2 MSTORE PUSH1 0x40 MLOAD SWAP1 DUP2 SWAP1 SUB PUSH1 0x20 ADD SWAP1 KECCAK256 SLOAD PUSH1 0xFF AND PUSH2 0x1B71 JUMPI PUSH1 0x40 MLOAD PUSH3 0x461BCD PUSH1 0xE5 SHL DUP2 MSTORE PUSH1 0x4 ADD PUSH2 0x73E SWAP1 PUSH2 0x52C1 JUMP JUMPDEST PUSH1 0x1 PUSH1 0x1 PUSH1 0xA0 SHL SUB DUP2 AND ISZERO DUP1 ISZERO SWAP1 PUSH2 0x1BB8 JUMPI POP PUSH1 0x4 DUP4 DUP4 PUSH1 0x40 MLOAD PUSH2 0x1B96 SWAP3 SWAP2 SWAP1 PUSH2 0x510F JUMP JUMPDEST SWAP1 DUP2 MSTORE PUSH1 0x40 MLOAD SWAP1 DUP2 SWAP1 SUB PUSH1 0x20 ADD SWAP1 KECCAK256 PUSH1 0x5 ADD SLOAD PUSH1 0x1 PUSH1 0x1 PUSH1 0xA0 SHL SUB DUP3 DUP2 AND SWAP2 AND EQ JUMPDEST PUSH2 0x1BD4 JUMPI PUSH1 0x40 MLOAD PUSH3 0x461BCD PUSH1 0xE5 SHL DUP2 MSTORE PUSH1 0x4 ADD PUSH2 0x73E SWAP1 PUSH2 0x541A JUMP JUMPDEST DUP1 PUSH1 0x4 DUP5 DUP5 PUSH1 0x40 MLOAD PUSH2 0x1BE7 SWAP3 SWAP2 SWAP1 PUSH2 0x510F JUMP JUMPDEST SWAP1 DUP2 MSTORE PUSH1 0x40 MLOAD SWAP1 DUP2 SWAP1 SUB PUSH1 0x20 ADD SWAP1 KECCAK256 PUSH1 0x5 ADD DUP1 SLOAD PUSH1 0x1 PUSH1 0x1 PUSH1 0xA0 SHL SUB SWAP3 SWAP1 SWAP3 AND PUSH1 0x1 PUSH1 0x1 PUSH1 0xA0 SHL SUB NOT SWAP1 SWAP3 AND SWAP2 SWAP1 SWAP2 OR SWAP1 SSTORE POP POP POP JUMP JUMPDEST CALLER PUSH2 0x1C27 PUSH2 0xFEF JUMP JUMPDEST PUSH1 0x1 PUSH1 0x1 PUSH1 0xA0 SHL SUB AND EQ PUSH2 0x1C4D JUMPI PUSH1 0x40 MLOAD PUSH3 0x461BCD PUSH1 0xE5 SHL DUP2 MSTORE PUSH1 0x4 ADD PUSH2 0x73E SWAP1 PUSH2 0x5095 JUMP JUMPDEST PUSH1 0x1 PUSH1 0x1 PUSH1 0xA0 SHL SUB DUP2 AND PUSH2 0x1CB2 JUMPI PUSH1 0x40 MLOAD PUSH3 0x461BCD PUSH1 0xE5 SHL DUP2 MSTORE PUSH1 0x20 PUSH1 0x4 DUP3 ADD MSTORE PUSH1 0x26 PUSH1 0x24 DUP3 ADD MSTORE PUSH32 0x4F776E61626C653A206E6577206F776E657220697320746865207A65726F2061 PUSH1 0x44 DUP3 ADD MSTORE PUSH6 0x646472657373 PUSH1 0xD0 SHL PUSH1 0x64 DUP3 ADD MSTORE PUSH1 0x84 ADD PUSH2 0x73E JUMP JUMPDEST PUSH1 0x1 SLOAD PUSH1 0x40 MLOAD PUSH1 0x1 PUSH1 0x1 PUSH1 0xA0 SHL SUB DUP1 DUP5 AND SWAP3 AND SWAP1 PUSH32 0x8BE0079C531659141344CD1FD0A4F28419497F9722A3DAAFE3B4186F6B6457E0 SWAP1 PUSH1 0x0 SWAP1 LOG3 PUSH1 0x1 DUP1 SLOAD PUSH1 0x1 PUSH1 0x1 PUSH1 0xA0 SHL SUB NOT AND PUSH1 0x1 PUSH1 0x1 PUSH1 0xA0 SHL SUB SWAP3 SWAP1 SWAP3 AND SWAP2 SWAP1 SWAP2 OR SWAP1 SSTORE JUMP JUMPDEST CALLER PUSH2 0x1D17 PUSH2 0xFEF JUMP JUMPDEST PUSH1 0x1 PUSH1 0x1 PUSH1 0xA0 SHL SUB AND EQ DUP1 PUSH2 0x1D32 JUMPI POP PUSH2 0x1D32 PUSH1 0x2 CALLER PUSH2 0x2625 JUMP JUMPDEST PUSH2 0x1D4E JUMPI PUSH1 0x40 MLOAD PUSH3 0x461BCD PUSH1 0xE5 SHL DUP2 MSTORE PUSH1 0x4 ADD PUSH2 0x73E SWAP1 PUSH2 0x4E2A JUMP JUMPDEST PUSH1 0x2 PUSH1 0x0 SLOAD SUB PUSH2 0x1D70 JUMPI PUSH1 0x40 MLOAD PUSH3 0x461BCD PUSH1 0xE5 SHL DUP2 MSTORE PUSH1 0x4 ADD PUSH2 0x73E SWAP1 PUSH2 0x528A JUMP JUMPDEST PUSH1 0x2 PUSH1 0x0 SWAP1 DUP2 SSTORE PUSH2 0x1D89 PUSH2 0x140 DUP6 ADD PUSH2 0x120 DUP7 ADD PUSH2 0x4C64 JUMP JUMPDEST PUSH2 0xFFFF AND ISZERO PUSH2 0x1DD1 JUMPI PUSH2 0x1DA4 PUSH2 0x180 DUP6 ADD PUSH2 0x160 DUP7 ADD PUSH2 0x4C64 JUMP JUMPDEST PUSH2 0x1DB6 PUSH2 0x140 DUP7 ADD PUSH2 0x120 DUP8 ADD PUSH2 0x4C64 JUMP JUMPDEST PUSH2 0x1DC0 SWAP2 SWAP1 PUSH2 0x5628 JUMP JUMPDEST PUSH2 0x1DCA SWAP1 DUP3 PUSH2 0x5628 JUMP JUMPDEST SWAP1 POP PUSH2 0x1E08 JUMP JUMPDEST PUSH2 0x1DE3 PUSH2 0x180 DUP6 ADD PUSH2 0x160 DUP7 ADD PUSH2 0x4C64 JUMP JUMPDEST PUSH1 0x7 SLOAD PUSH2 0x1DFB SWAP2 SWAP1 PUSH1 0x1 PUSH1 0xA0 SHL SWAP1 DIV PUSH2 0xFFFF AND PUSH2 0x5628 JUMP JUMPDEST PUSH2 0x1E05 SWAP1 DUP3 PUSH2 0x5628 JUMP JUMPDEST SWAP1 POP JUMPDEST PUSH2 0x2710 DUP2 PUSH2 0xFFFF AND LT PUSH2 0x1E79 JUMPI PUSH1 0x40 MLOAD PUSH3 0x461BCD PUSH1 0xE5 SHL DUP2 MSTORE PUSH1 0x20 PUSH1 0x4 DUP3 ADD MSTORE PUSH1 0x33 PUSH1 0x24 DUP3 ADD MSTORE PUSH32 0x54686520746F74616C2066656520626173697320706F696E742073686F756C64 PUSH1 0x44 DUP3 ADD MSTORE PUSH19 0x206265206C657373207468616E20313030303 PUSH1 0x6C SHL PUSH1 0x64 DUP3 ADD MSTORE PUSH1 0x84 ADD PUSH2 0x73E JUMP JUMPDEST PUSH1 0x0 PUSH2 0x1E8B PUSH1 0x40 DUP7 ADD PUSH1 0x20 DUP8 ADD PUSH2 0x46DA JUMP JUMPDEST PUSH1 0x1 PUSH1 0x1 PUSH1 0x40 SHL SUB AND GT DUP1 ISZERO PUSH2 0x1EB9 JUMPI POP PUSH1 0x0 PUSH2 0x1EAE PUSH1 0x60 DUP7 ADD PUSH1 0x40 DUP8 ADD PUSH2 0x46DA JUMP JUMPDEST PUSH1 0x1 PUSH1 0x1 PUSH1 0x40 SHL SUB AND GT JUMPDEST ISZERO PUSH2 0x1F8A JUMPI PUSH2 0x1ECE PUSH1 0x40 DUP6 ADD PUSH1 0x20 DUP7 ADD PUSH2 0x46DA JUMP JUMPDEST PUSH1 0x1 PUSH1 0x1 PUSH1 0x40 SHL SUB AND PUSH2 0x1EE7 PUSH1 0x60 DUP7 ADD PUSH1 0x40 DUP8 ADD PUSH2 0x46DA JUMP JUMPDEST PUSH1 0x1 PUSH1 0x1 PUSH1 0x40 SHL SUB AND LT ISZERO PUSH2 0x1F8A JUMPI PUSH1 0x40 MLOAD PUSH3 0x461BCD PUSH1 0xE5 SHL DUP2 MSTORE PUSH1 0x20 PUSH1 0x4 DUP3 ADD MSTORE PUSH1 0x5F PUSH1 0x24 DUP3 ADD MSTORE PUSH32 0x54686973206973206E6F7420612076616C6964204E4654207374617274206F72 PUSH1 0x44 DUP3 ADD MSTORE PUSH32 0x20656E6420746F6B656E2049442E20506C656173652076657269667920746861 PUSH1 0x64 DUP3 ADD MSTORE PUSH32 0x74207468652072616E67652070726F766964656420697320636F727265637400 PUSH1 0x84 DUP3 ADD MSTORE PUSH1 0xA4 ADD PUSH2 0x73E JUMP JUMPDEST PUSH1 0x1 PUSH2 0x1F9E PUSH2 0x1E0 DUP7 ADD PUSH2 0x1C0 DUP8 ADD PUSH2 0x5643 JUMP JUMPDEST PUSH1 0x1 DUP2 GT ISZERO PUSH2 0x1FAF JUMPI PUSH2 0x1FAF PUSH2 0x4A43 JUMP JUMPDEST SUB PUSH2 0x2085 JUMPI PUSH1 0x60 DUP5 ADD CALLDATALOAD ISZERO PUSH2 0x1FD6 JUMPI PUSH1 0x40 MLOAD PUSH3 0x461BCD PUSH1 0xE5 SHL DUP2 MSTORE PUSH1 0x4 ADD PUSH2 0x73E SWAP1 PUSH2 0x5472 JUMP JUMPDEST PUSH2 0x1FE3 PUSH1 0x80 DUP6 ADD DUP6 PUSH2 0x5660 JUMP JUMPDEST SWAP1 POP PUSH2 0x1FF2 PUSH1 0xA0 DUP7 ADD DUP7 PUSH2 0x5660 JUMP JUMPDEST SWAP1 POP EQ PUSH2 0x2011 JUMPI PUSH1 0x40 MLOAD PUSH3 0x461BCD PUSH1 0xE5 SHL DUP2 MSTORE PUSH1 0x4 ADD PUSH2 0x73E SWAP1 PUSH2 0x54CF JUMP JUMPDEST PUSH1 0x0 JUMPDEST PUSH2 0x2021 PUSH1 0xA0 DUP7 ADD DUP7 PUSH2 0x5660 JUMP JUMPDEST SWAP1 POP DUP2 LT ISZERO PUSH2 0x207F JUMPI PUSH1 0x0 PUSH2 0x2039 PUSH1 0x80 DUP8 ADD DUP8 PUSH2 0x5660 JUMP JUMPDEST DUP4 DUP2 DUP2 LT PUSH2 0x2049 JUMPI PUSH2 0x2049 PUSH2 0x50CA JUMP JUMPDEST SWAP1 POP PUSH1 0x20 MUL ADD CALLDATALOAD GT PUSH2 0x206D JUMPI PUSH1 0x40 MLOAD PUSH3 0x461BCD PUSH1 0xE5 SHL DUP2 MSTORE PUSH1 0x4 ADD PUSH2 0x73E SWAP1 PUSH2 0x5527 JUMP JUMPDEST DUP1 PUSH2 0x2077 DUP2 PUSH2 0x50F6 JUMP JUMPDEST SWAP2 POP POP PUSH2 0x2014 JUMP JUMPDEST POP PUSH2 0x20ED JUMP JUMPDEST PUSH2 0x2092 PUSH1 0xA0 DUP6 ADD DUP6 PUSH2 0x5660 JUMP JUMPDEST ISZERO SWAP1 POP DUP1 ISZERO PUSH2 0x20AD JUMPI POP PUSH2 0x20A9 PUSH1 0x80 DUP6 ADD DUP6 PUSH2 0x5660 JUMP JUMPDEST ISZERO SWAP1 POP JUMPDEST PUSH2 0x20C9 JUMPI PUSH1 0x40 MLOAD PUSH3 0x461BCD PUSH1 0xE5 SHL DUP2 MSTORE PUSH1 0x4 ADD PUSH2 0x73E SWAP1 PUSH2 0x557A JUMP JUMPDEST PUSH1 0x0 DUP5 PUSH1 0x60 ADD CALLDATALOAD GT PUSH2 0x20ED JUMPI PUSH1 0x40 MLOAD PUSH3 0x461BCD PUSH1 0xE5 SHL DUP2 MSTORE PUSH1 0x4 ADD PUSH2 0x73E SWAP1 PUSH2 0x55D7 JUMP JUMPDEST PUSH1 0x0 PUSH2 0x2101 PUSH2 0x1C0 DUP7 ADD PUSH2 0x1A0 DUP8 ADD PUSH2 0x5643 JUMP JUMPDEST PUSH1 0x1 DUP2 GT ISZERO PUSH2 0x2112 JUMPI PUSH2 0x2112 PUSH2 0x4A43 JUMP JUMPDEST SUB PUSH2 0x223E JUMPI PUSH2 0x2129 PUSH2 0x1A0 DUP6 ADD PUSH2 0x180 DUP7 ADD PUSH2 0x46DA JUMP JUMPDEST PUSH1 0x1 PUSH1 0x1 PUSH1 0x40 SHL SUB AND PUSH1 0x0 SUB PUSH2 0x218B JUMPI PUSH1 0x40 MLOAD PUSH3 0x461BCD PUSH1 0xE5 SHL DUP2 MSTORE PUSH1 0x20 PUSH1 0x4 DUP3 ADD MSTORE PUSH1 0x21 PUSH1 0x24 DUP3 ADD MSTORE PUSH32 0x73686F756C642070726F76696465206D617843617020666F72206D696E74696E PUSH1 0x44 DUP3 ADD MSTORE PUSH1 0x67 PUSH1 0xF8 SHL PUSH1 0x64 DUP3 ADD MSTORE PUSH1 0x84 ADD PUSH2 0x73E JUMP JUMPDEST PUSH2 0x219B PUSH1 0x40 DUP6 ADD PUSH1 0x20 DUP7 ADD PUSH2 0x46DA JUMP JUMPDEST PUSH1 0x1 PUSH1 0x1 PUSH1 0x40 SHL SUB AND ISZERO DUP1 ISZERO PUSH2 0x21C7 JUMPI POP PUSH2 0x21BC PUSH1 0x60 DUP6 ADD PUSH1 0x40 DUP7 ADD PUSH2 0x46DA JUMP JUMPDEST PUSH1 0x1 PUSH1 0x1 PUSH1 0x40 SHL SUB AND ISZERO JUMPDEST PUSH2 0x2239 JUMPI PUSH1 0x40 MLOAD PUSH3 0x461BCD PUSH1 0xE5 SHL DUP2 MSTORE PUSH1 0x20 PUSH1 0x4 DUP3 ADD MSTORE PUSH1 0x3D PUSH1 0x24 DUP3 ADD MSTORE PUSH32 0x546865204E46547374617274746F6B656E696420616E64204E4654656E64746F PUSH1 0x44 DUP3 ADD MSTORE PUSH32 0x6B656E69642073686F756C64206265203020666F72206D696E74696E67000000 PUSH1 0x64 DUP3 ADD MSTORE PUSH1 0x84 ADD PUSH2 0x73E JUMP JUMPDEST PUSH2 0x22B6 JUMP JUMPDEST PUSH2 0x2250 PUSH2 0x1A0 DUP6 ADD PUSH2 0x180 DUP7 ADD PUSH2 0x46DA JUMP JUMPDEST PUSH1 0x1 PUSH1 0x1 PUSH1 0x40 SHL SUB AND ISZERO PUSH2 0x22B6 JUMPI PUSH1 0x40 MLOAD PUSH3 0x461BCD PUSH1 0xE5 SHL DUP2 MSTORE PUSH1 0x20 PUSH1 0x4 DUP3 ADD MSTORE PUSH1 0x27 PUSH1 0x24 DUP3 ADD MSTORE PUSH32 0x6D61784361702073686F756C64206265203020666F72207072656D696E746564 PUSH1 0x44 DUP3 ADD MSTORE PUSH7 0x20746F6B656E73 PUSH1 0xC8 SHL PUSH1 0x64 DUP3 ADD MSTORE PUSH1 0x84 ADD PUSH2 0x73E JUMP JUMPDEST PUSH2 0x22C3 PUSH1 0x20 DUP6 ADD DUP6 PUSH2 0x4717 JUMP JUMPDEST PUSH1 0x40 MLOAD PUSH4 0x1FFC9A7 PUSH1 0xE0 SHL DUP2 MSTORE PUSH1 0x1 PUSH1 0x1 PUSH1 0xA0 SHL SUB SWAP2 SWAP1 SWAP2 AND SWAP1 PUSH4 0x1FFC9A7 SWAP1 PUSH2 0x22F8 SWAP1 PUSH4 0x80AC58CD PUSH1 0xE0 SHL SWAP1 PUSH1 0x4 ADD PUSH2 0x56A9 JUMP JUMPDEST PUSH1 0x20 PUSH1 0x40 MLOAD DUP1 DUP4 SUB DUP2 DUP7 GAS STATICCALL ISZERO DUP1 ISZERO PUSH2 0x2315 JUMPI RETURNDATASIZE PUSH1 0x0 DUP1 RETURNDATACOPY RETURNDATASIZE PUSH1 0x0 REVERT JUMPDEST POP POP POP POP PUSH1 0x40 MLOAD RETURNDATASIZE PUSH1 0x1F NOT PUSH1 0x1F DUP3 ADD AND DUP3 ADD DUP1 PUSH1 0x40 MSTORE POP DUP2 ADD SWAP1 PUSH2 0x2339 SWAP2 SWAP1 PUSH2 0x56BE JUMP JUMPDEST DUP1 PUSH2 0x23C2 JUMPI POP PUSH2 0x234C PUSH1 0x20 DUP6 ADD DUP6 PUSH2 0x4717 JUMP JUMPDEST PUSH1 0x40 MLOAD PUSH4 0x1FFC9A7 PUSH1 0xE0 SHL DUP2 MSTORE PUSH1 0x1 PUSH1 0x1 PUSH1 0xA0 SHL SUB SWAP2 SWAP1 SWAP2 AND SWAP1 PUSH4 0x1FFC9A7 SWAP1 PUSH2 0x2381 SWAP1 PUSH4 0x6CDB3D13 PUSH1 0xE1 SHL SWAP1 PUSH1 0x4 ADD PUSH2 0x56A9 JUMP JUMPDEST PUSH1 0x20 PUSH1 0x40 MLOAD DUP1 DUP4 SUB DUP2 DUP7 GAS STATICCALL ISZERO DUP1 ISZERO PUSH2 0x239E JUMPI RETURNDATASIZE PUSH1 0x0 DUP1 RETURNDATACOPY RETURNDATASIZE PUSH1 0x0 REVERT JUMPDEST POP POP POP POP PUSH1 0x40 MLOAD RETURNDATASIZE PUSH1 0x1F NOT PUSH1 0x1F DUP3 ADD AND DUP3 ADD DUP1 PUSH1 0x40 MSTORE POP DUP2 ADD SWAP1 PUSH2 0x23C2 SWAP2 SWAP1 PUSH2 0x56BE JUMP JUMPDEST PUSH2 0x2434 JUMPI PUSH1 0x40 MLOAD PUSH3 0x461BCD PUSH1 0xE5 SHL DUP2 MSTORE PUSH1 0x20 PUSH1 0x4 DUP3 ADD MSTORE PUSH1 0x3E PUSH1 0x24 DUP3 ADD MSTORE PUSH32 0x73686F756C642070726F76696465206F6E6C7920737570706F7274656420636F PUSH1 0x44 DUP3 ADD MSTORE PUSH32 0x6E747261637420696E746572666163657320455243203732312F313135350000 PUSH1 0x64 DUP3 ADD MSTORE PUSH1 0x84 ADD PUSH2 0x73E JUMP JUMPDEST PUSH1 0x0 PUSH2 0x2446 PUSH1 0xE0 DUP7 ADD PUSH1 0xC0 DUP8 ADD PUSH2 0x4717 JUMP JUMPDEST PUSH1 0x1 PUSH1 0x1 PUSH1 0xA0 SHL SUB AND SUB PUSH2 0x24B7 JUMPI PUSH1 0x40 MLOAD PUSH3 0x461BCD PUSH1 0xE5 SHL DUP2 MSTORE PUSH1 0x20 PUSH1 0x4 DUP3 ADD MSTORE PUSH1 0x32 PUSH1 0x24 DUP3 ADD MSTORE PUSH32 0x73686F756C642070726F766964652076616C69642077616C6C65742061646472 PUSH1 0x44 DUP3 ADD MSTORE PUSH18 0x195CDCC8199BDC881CD95D1D1B195B595B9D PUSH1 0x72 SHL PUSH1 0x64 DUP3 ADD MSTORE PUSH1 0x84 ADD PUSH2 0x73E JUMP JUMPDEST PUSH1 0x0 PUSH2 0x24CA PUSH2 0x100 DUP7 ADD PUSH1 0xE0 DUP8 ADD PUSH2 0x4717 JUMP JUMPDEST PUSH1 0x1 PUSH1 0x1 PUSH1 0xA0 SHL SUB AND SUB PUSH2 0x253F JUMPI PUSH1 0x40 MLOAD PUSH3 0x461BCD PUSH1 0xE5 SHL DUP2 MSTORE PUSH1 0x20 PUSH1 0x4 DUP3 ADD MSTORE PUSH1 0x36 PUSH1 0x24 DUP3 ADD MSTORE PUSH32 0x73686F756C642070726F766964652076616C69642077616C6C65742061646472 PUSH1 0x44 DUP3 ADD MSTORE PUSH22 0x195CDCC8199BDC881D185E081CD95D1D1B195B595B9D PUSH1 0x52 SHL PUSH1 0x64 DUP3 ADD MSTORE PUSH1 0x84 ADD PUSH2 0x73E JUMP JUMPDEST PUSH1 0x6 DUP4 DUP4 PUSH1 0x40 MLOAD PUSH2 0x2551 SWAP3 SWAP2 SWAP1 PUSH2 0x510F JUMP JUMPDEST SWAP1 DUP2 MSTORE PUSH1 0x40 MLOAD SWAP1 DUP2 SWAP1 SUB PUSH1 0x20 ADD SWAP1 KECCAK256 SLOAD PUSH1 0xFF AND ISZERO PUSH2 0x2581 JUMPI PUSH1 0x40 MLOAD PUSH3 0x461BCD PUSH1 0xE5 SHL DUP2 MSTORE PUSH1 0x4 ADD PUSH2 0x73E SWAP1 PUSH2 0x4EAE JUMP JUMPDEST DUP4 PUSH1 0x4 DUP5 DUP5 PUSH1 0x40 MLOAD PUSH2 0x2594 SWAP3 SWAP2 SWAP1 PUSH2 0x510F JUMP JUMPDEST SWAP1 DUP2 MSTORE PUSH1 0x40 MLOAD SWAP1 DUP2 SWAP1 SUB PUSH1 0x20 ADD SWAP1 KECCAK256 PUSH2 0x25AD DUP3 DUP3 PUSH2 0x5974 JUMP JUMPDEST SWAP1 POP POP PUSH1 0x1 PUSH1 0x6 DUP5 DUP5 PUSH1 0x40 MLOAD PUSH2 0x25C4 SWAP3 SWAP2 SWAP1 PUSH2 0x510F JUMP JUMPDEST SWAP1 DUP2 MSTORE PUSH1 0x40 MLOAD SWAP1 DUP2 SWAP1 SUB PUSH1 0x20 ADD DUP2 KECCAK256 DUP1 SLOAD SWAP3 ISZERO ISZERO PUSH1 0xFF NOT SWAP1 SWAP4 AND SWAP3 SWAP1 SWAP3 OR SWAP1 SWAP2 SSTORE PUSH32 0x5E497450A6BB5270282292FAB91DE64CB64F3E379288C411A7EAB0F283AFBBF5 SWAP1 PUSH2 0x2612 SWAP1 DUP7 SWAP1 PUSH2 0x5BBF JUMP JUMPDEST PUSH1 0x40 MLOAD DUP1 SWAP2 SUB SWAP1 LOG1 POP POP PUSH1 0x1 PUSH1 0x0 SSTORE POP POP JUMP JUMPDEST PUSH1 0x1 PUSH1 0x1 PUSH1 0xA0 SHL SUB DUP2 AND PUSH1 0x0 SWAP1 DUP2 MSTORE PUSH1 0x1 DUP4 ADD PUSH1 0x20 MSTORE PUSH1 0x40 DUP2 KECCAK256 SLOAD ISZERO ISZERO JUMPDEST SWAP4 SWAP3 POP POP POP JUMP JUMPDEST PUSH1 0x0 PUSH2 0x2643 DUP4 PUSH1 0x1 PUSH1 0x1 PUSH1 0xA0 SHL SUB DUP5 AND PUSH2 0x3E27 JUMP JUMPDEST PUSH1 0x0 PUSH2 0x6F8 DUP3 SLOAD SWAP1 JUMP JUMPDEST PUSH1 0x0 PUSH2 0x2643 DUP4 DUP4 PUSH2 0x3F21 JUMP JUMPDEST PUSH1 0x0 PUSH2 0x2643 DUP4 PUSH1 0x1 PUSH1 0x1 PUSH1 0xA0 SHL SUB DUP5 AND PUSH2 0x3F4B JUMP JUMPDEST PUSH1 0x0 DUP1 PUSH1 0x0 PUSH1 0x4 DUP11 PUSH1 0x40 MLOAD PUSH2 0x269F SWAP2 SWAP1 PUSH2 0x4E92 JUMP JUMPDEST SWAP1 DUP2 MSTORE PUSH1 0x40 DUP1 MLOAD SWAP2 DUP3 SWAP1 SUB PUSH1 0x20 SWAP1 DUP2 ADD DUP4 KECCAK256 PUSH2 0x140 DUP5 ADD DUP4 MSTORE DUP1 SLOAD PUSH1 0x1 PUSH1 0x1 PUSH1 0xA0 SHL SUB DUP2 AND DUP6 MSTORE PUSH1 0x1 PUSH1 0x1 PUSH1 0x40 SHL SUB PUSH1 0x1 PUSH1 0xA0 SHL SWAP1 SWAP2 DIV DUP2 AND DUP6 DUP5 ADD MSTORE PUSH1 0x1 DUP3 ADD SLOAD AND DUP5 DUP5 ADD MSTORE PUSH1 0x2 DUP2 ADD SLOAD PUSH1 0x60 DUP6 ADD MSTORE PUSH1 0x3 DUP2 ADD DUP1 SLOAD DUP5 MLOAD DUP2 DUP6 MUL DUP2 ADD DUP6 ADD SWAP1 SWAP6 MSTORE DUP1 DUP6 MSTORE SWAP2 SWAP4 PUSH1 0x80 DUP7 ADD SWAP4 SWAP1 SWAP3 SWAP1 DUP4 ADD DUP3 DUP3 DUP1 ISZERO PUSH2 0x273E JUMPI PUSH1 0x20 MUL DUP3 ADD SWAP2 SWAP1 PUSH1 0x0 MSTORE PUSH1 0x20 PUSH1 0x0 KECCAK256 SWAP1 JUMPDEST DUP2 SLOAD DUP2 MSTORE PUSH1 0x20 ADD SWAP1 PUSH1 0x1 ADD SWAP1 DUP1 DUP4 GT PUSH2 0x272A JUMPI JUMPDEST POP POP POP POP POP DUP2 MSTORE PUSH1 0x20 ADD PUSH1 0x4 DUP3 ADD DUP1 SLOAD DUP1 PUSH1 0x20 MUL PUSH1 0x20 ADD PUSH1 0x40 MLOAD SWAP1 DUP2 ADD PUSH1 0x40 MSTORE DUP1 SWAP3 SWAP2 SWAP1 DUP2 DUP2 MSTORE PUSH1 0x20 ADD DUP3 DUP1 SLOAD DUP1 ISZERO PUSH2 0x27A0 JUMPI PUSH1 0x20 MUL DUP3 ADD SWAP2 SWAP1 PUSH1 0x0 MSTORE PUSH1 0x20 PUSH1 0x0 KECCAK256 SWAP1 JUMPDEST DUP2 SLOAD PUSH1 0x1 PUSH1 0x1 PUSH1 0xA0 SHL SUB AND DUP2 MSTORE PUSH1 0x1 SWAP1 SWAP2 ADD SWAP1 PUSH1 0x20 ADD DUP1 DUP4 GT PUSH2 0x2782 JUMPI JUMPDEST POP POP POP SWAP2 DUP4 MSTORE POP POP PUSH1 0x40 DUP1 MLOAD PUSH1 0xC0 DUP2 ADD DUP3 MSTORE PUSH1 0x5 DUP5 ADD SLOAD PUSH1 0x1 PUSH1 0x1 PUSH1 0xA0 SHL SUB SWAP1 DUP2 AND DUP3 MSTORE PUSH1 0x6 DUP6 ADD SLOAD DUP2 AND PUSH1 0x20 DUP4 DUP2 ADD SWAP2 SWAP1 SWAP2 MSTORE PUSH1 0x7 DUP7 ADD SLOAD DUP1 DUP4 AND DUP5 DUP7 ADD MSTORE PUSH2 0xFFFF PUSH1 0x1 PUSH1 0xA0 SHL SWAP2 DUP3 SWAP1 DIV DUP2 AND PUSH1 0x60 DUP1 DUP8 ADD SWAP2 SWAP1 SWAP2 MSTORE PUSH1 0x8 DUP10 ADD SLOAD SWAP5 DUP6 AND PUSH1 0x80 DUP8 ADD MSTORE SWAP2 SWAP1 SWAP4 DIV SWAP1 SWAP3 AND PUSH1 0xA0 DUP5 ADD MSTORE DUP5 ADD SWAP2 SWAP1 SWAP2 MSTORE PUSH1 0x9 DUP5 ADD SLOAD PUSH1 0x1 PUSH1 0x1 PUSH1 0x40 SHL SUB DUP2 AND SWAP3 DUP5 ADD SWAP3 SWAP1 SWAP3 MSTORE SWAP1 SWAP2 ADD SWAP1 PUSH1 0xFF PUSH1 0x1 PUSH1 0x40 SHL SWAP1 SWAP2 DIV AND PUSH1 0x1 DUP2 GT ISZERO PUSH2 0x284C JUMPI PUSH2 0x284C PUSH2 0x4A43 JUMP JUMPDEST PUSH1 0x1 DUP2 GT ISZERO PUSH2 0x285D JUMPI PUSH2 0x285D PUSH2 0x4A43 JUMP JUMPDEST DUP2 MSTORE PUSH1 0x20 ADD PUSH1 0x9 DUP3 ADD PUSH1 0x9 SWAP1 SLOAD SWAP1 PUSH2 0x100 EXP SWAP1 DIV PUSH1 0xFF AND PUSH1 0x1 DUP2 GT ISZERO PUSH2 0x2885 JUMPI PUSH2 0x2885 PUSH2 0x4A43 JUMP JUMPDEST PUSH1 0x1 DUP2 GT ISZERO PUSH2 0x2896 JUMPI PUSH2 0x2896 PUSH2 0x4A43 JUMP JUMPDEST SWAP1 MSTORE POP PUSH1 0x20 DUP2 ADD MLOAD SWAP1 SWAP2 POP PUSH1 0x1 PUSH1 0x1 PUSH1 0x40 SHL SUB AND ISZERO DUP1 ISZERO PUSH2 0x28C4 JUMPI POP PUSH1 0x0 DUP2 PUSH1 0x40 ADD MLOAD PUSH1 0x1 PUSH1 0x1 PUSH1 0x40 SHL SUB AND GT JUMPDEST ISZERO PUSH2 0x28FB JUMPI DUP1 PUSH1 0x40 ADD MLOAD PUSH1 0x1 PUSH1 0x1 PUSH1 0x40 SHL SUB AND DUP10 GT ISZERO PUSH2 0x28F6 JUMPI PUSH1 0x40 MLOAD PUSH3 0x461BCD PUSH1 0xE5 SHL DUP2 MSTORE PUSH1 0x4 ADD PUSH2 0x73E SWAP1 PUSH2 0x5CE3 JUMP JUMPDEST PUSH2 0x29CA JUMP JUMPDEST PUSH1 0x0 DUP2 PUSH1 0x20 ADD MLOAD PUSH1 0x1 PUSH1 0x1 PUSH1 0x40 SHL SUB AND GT DUP1 ISZERO PUSH2 0x2923 JUMPI POP PUSH1 0x40 DUP2 ADD MLOAD PUSH1 0x1 PUSH1 0x1 PUSH1 0x40 SHL SUB AND ISZERO JUMPDEST ISZERO PUSH2 0x2955 JUMPI DUP1 PUSH1 0x20 ADD MLOAD PUSH1 0x1 PUSH1 0x1 PUSH1 0x40 SHL SUB AND DUP10 LT ISZERO PUSH2 0x28F6 JUMPI PUSH1 0x40 MLOAD PUSH3 0x461BCD PUSH1 0xE5 SHL DUP2 MSTORE PUSH1 0x4 ADD PUSH2 0x73E SWAP1 PUSH2 0x5CE3 JUMP JUMPDEST PUSH1 0x0 DUP2 PUSH1 0x20 ADD MLOAD PUSH1 0x1 PUSH1 0x1 PUSH1 0x40 SHL SUB AND GT DUP1 ISZERO PUSH2 0x297F JUMPI POP PUSH1 0x0 DUP2 PUSH1 0x40 ADD MLOAD PUSH1 0x1 PUSH1 0x1 PUSH1 0x40 SHL SUB AND GT JUMPDEST ISZERO PUSH2 0x29CA JUMPI DUP1 PUSH1 0x20 ADD MLOAD PUSH1 0x1 PUSH1 0x1 PUSH1 0x40 SHL SUB AND DUP10 LT ISZERO DUP1 ISZERO PUSH2 0x29AE JUMPI POP DUP1 PUSH1 0x40 ADD MLOAD PUSH1 0x1 PUSH1 0x1 PUSH1 0x40 SHL SUB AND DUP10 GT ISZERO JUMPDEST PUSH2 0x29CA JUMPI PUSH1 0x40 MLOAD PUSH3 0x461BCD PUSH1 0xE5 SHL DUP2 MSTORE PUSH1 0x4 ADD PUSH2 0x73E SWAP1 PUSH2 0x5CE3 JUMP JUMPDEST DUP1 MLOAD SWAP2 POP PUSH1 0x0 DUP2 PUSH2 0x120 ADD MLOAD PUSH1 0x1 DUP2 GT ISZERO PUSH2 0x29E7 JUMPI PUSH2 0x29E7 PUSH2 0x4A43 JUMP JUMPDEST SUB PUSH2 0x2A6E JUMPI PUSH1 0x8 SLOAD PUSH1 0x60 DUP3 ADD MLOAD PUSH1 0x40 MLOAD PUSH4 0x748060B PUSH1 0xE3 SHL DUP2 MSTORE PUSH1 0x4 DUP2 ADD SWAP2 SWAP1 SWAP2 MSTORE PUSH1 0x1 PUSH1 0x1 PUSH1 0xA0 SHL SUB DUP9 DUP2 AND PUSH1 0x24 DUP4 ADD MSTORE SWAP1 SWAP2 AND SWAP1 PUSH4 0x3A403058 SWAP1 PUSH1 0x44 ADD PUSH1 0x20 PUSH1 0x40 MLOAD DUP1 DUP4 SUB DUP2 DUP7 GAS STATICCALL ISZERO DUP1 ISZERO PUSH2 0x2A43 JUMPI RETURNDATASIZE PUSH1 0x0 DUP1 RETURNDATACOPY RETURNDATASIZE PUSH1 0x0 REVERT JUMPDEST POP POP POP POP PUSH1 0x40 MLOAD RETURNDATASIZE PUSH1 0x1F NOT PUSH1 0x1F DUP3 ADD AND DUP3 ADD DUP1 PUSH1 0x40 MSTORE POP DUP2 ADD SWAP1 PUSH2 0x2A67 SWAP2 SWAP1 PUSH2 0x5D58 JUMP JUMPDEST SWAP3 POP PUSH2 0x2B0B JUMP JUMPDEST PUSH1 0x1 DUP2 PUSH2 0x120 ADD MLOAD PUSH1 0x1 DUP2 GT ISZERO PUSH2 0x2A87 JUMPI PUSH2 0x2A87 PUSH2 0x4A43 JUMP JUMPDEST SUB PUSH2 0x2B0B JUMPI PUSH1 0x0 JUMPDEST DUP2 PUSH1 0xA0 ADD MLOAD MLOAD DUP2 LT ISZERO PUSH2 0x2B09 JUMPI DUP7 PUSH1 0x1 PUSH1 0x1 PUSH1 0xA0 SHL SUB AND DUP3 PUSH1 0xA0 ADD MLOAD DUP3 DUP2 MLOAD DUP2 LT PUSH2 0x2ABC JUMPI PUSH2 0x2ABC PUSH2 0x50CA JUMP JUMPDEST PUSH1 0x20 MUL PUSH1 0x20 ADD ADD MLOAD PUSH1 0x1 PUSH1 0x1 PUSH1 0xA0 SHL SUB AND SUB PUSH2 0x2AF7 JUMPI DUP2 PUSH1 0x80 ADD MLOAD DUP2 DUP2 MLOAD DUP2 LT PUSH2 0x2AE8 JUMPI PUSH2 0x2AE8 PUSH2 0x50CA JUMP JUMPDEST PUSH1 0x20 MUL PUSH1 0x20 ADD ADD MLOAD SWAP4 POP PUSH2 0x2B09 JUMP JUMPDEST DUP1 PUSH2 0x2B01 DUP2 PUSH2 0x50F6 JUMP JUMPDEST SWAP2 POP POP PUSH2 0x2A8F JUMP JUMPDEST POP JUMPDEST DUP3 PUSH1 0x0 SUB PUSH2 0x2B74 JUMPI PUSH1 0x40 MLOAD PUSH3 0x461BCD PUSH1 0xE5 SHL DUP2 MSTORE PUSH1 0x20 PUSH1 0x4 DUP3 ADD MSTORE PUSH1 0x30 PUSH1 0x24 DUP3 ADD MSTORE PUSH32 0x506C656173652070726F766964652076616C696420737570706F727465642045 PUSH1 0x44 DUP3 ADD MSTORE PUSH16 0x524332302F4554482061646472657373 PUSH1 0x80 SHL PUSH1 0x64 DUP3 ADD MSTORE PUSH1 0x84 ADD PUSH2 0x73E JUMP JUMPDEST PUSH1 0x0 DUP2 PUSH2 0x100 ADD MLOAD PUSH1 0x1 DUP2 GT ISZERO PUSH2 0x2B8D JUMPI PUSH2 0x2B8D PUSH2 0x4A43 JUMP JUMPDEST SUB PUSH2 0x2DD5 JUMPI PUSH1 0x9 SLOAD PUSH1 0x1 PUSH1 0xA0 SHL SWAP1 DIV PUSH1 0x1 PUSH1 0x1 PUSH1 0x40 SHL SUB AND DUP8 GT ISZERO PUSH2 0x2C3E JUMPI PUSH1 0x40 MLOAD PUSH3 0x461BCD PUSH1 0xE5 SHL DUP2 MSTORE PUSH1 0x20 PUSH1 0x4 DUP3 ADD MSTORE PUSH1 0x67 PUSH1 0x24 DUP3 ADD MSTORE PUSH1 0x0 DUP1 MLOAD PUSH1 0x20 PUSH2 0x5EF2 DUP4 CODECOPY DUP2 MLOAD SWAP2 MSTORE PUSH1 0x44 DUP3 ADD MSTORE PUSH32 0x7075726368617365206174206F6E652074696D652073686F756C64206E6F7420 PUSH1 0x64 DUP3 ADD MSTORE PUSH32 0x6265206D6F7265207468616E20646566696E656420696E206D61783131353551 PUSH1 0x84 DUP3 ADD MSTORE PUSH7 0x75616E74697479 PUSH1 0xC8 SHL PUSH1 0xA4 DUP3 ADD MSTORE PUSH1 0xC4 ADD PUSH2 0x73E JUMP JUMPDEST PUSH1 0x40 MLOAD PUSH4 0x1FFC9A7 PUSH1 0xE0 SHL DUP2 MSTORE PUSH1 0x1 PUSH1 0x1 PUSH1 0xA0 SHL SUB DUP4 AND SWAP1 PUSH4 0x1FFC9A7 SWAP1 PUSH2 0x2C71 SWAP1 PUSH4 0x80AC58CD PUSH1 0xE0 SHL SWAP1 PUSH1 0x4 ADD PUSH2 0x56A9 JUMP JUMPDEST PUSH1 0x20 PUSH1 0x40 MLOAD DUP1 DUP4 SUB DUP2 DUP7 GAS STATICCALL ISZERO DUP1 ISZERO PUSH2 0x2C8E JUMPI RETURNDATASIZE PUSH1 0x0 DUP1 RETURNDATACOPY RETURNDATASIZE PUSH1 0x0 REVERT JUMPDEST POP POP POP POP PUSH1 0x40 MLOAD RETURNDATASIZE PUSH1 0x1F NOT PUSH1 0x1F DUP3 ADD AND DUP3 ADD DUP1 PUSH1 0x40 MSTORE POP DUP2 ADD SWAP1 PUSH2 0x2CB2 SWAP2 SWAP1 PUSH2 0x56BE JUMP JUMPDEST ISZERO PUSH2 0x2CC8 JUMPI PUSH2 0x2CC1 DUP9 DUP5 PUSH2 0x5737 JUMP JUMPDEST SWAP3 POP PUSH2 0x2E00 JUMP JUMPDEST PUSH1 0x40 MLOAD PUSH4 0x1FFC9A7 PUSH1 0xE0 SHL DUP2 MSTORE PUSH1 0x1 PUSH1 0x1 PUSH1 0xA0 SHL SUB DUP4 AND SWAP1 PUSH4 0x1FFC9A7 SWAP1 PUSH2 0x2CFB SWAP1 PUSH4 0x6CDB3D13 PUSH1 0xE1 SHL SWAP1 PUSH1 0x4 ADD PUSH2 0x56A9 JUMP JUMPDEST PUSH1 0x20 PUSH1 0x40 MLOAD DUP1 DUP4 SUB DUP2 DUP7 GAS STATICCALL ISZERO DUP1 ISZERO PUSH2 0x2D18 JUMPI RETURNDATASIZE PUSH1 0x0 DUP1 RETURNDATACOPY RETURNDATASIZE PUSH1 0x0 REVERT JUMPDEST POP POP POP POP PUSH1 0x40 MLOAD RETURNDATASIZE PUSH1 0x1F NOT PUSH1 0x1F DUP3 ADD AND DUP3 ADD DUP1 PUSH1 0x40 MSTORE POP DUP2 ADD SWAP1 PUSH2 0x2D3C SWAP2 SWAP1 PUSH2 0x56BE JUMP JUMPDEST ISZERO PUSH2 0x2DD0 JUMPI PUSH1 0x40 MLOAD PUSH4 0xBD85B039 PUSH1 0xE0 SHL DUP2 MSTORE PUSH1 0x4 DUP2 ADD DUP11 SWAP1 MSTORE PUSH1 0x1 PUSH1 0x1 PUSH1 0xA0 SHL SUB DUP4 AND SWAP1 PUSH4 0xBD85B039 SWAP1 PUSH1 0x24 ADD PUSH1 0x20 PUSH1 0x40 MLOAD DUP1 DUP4 SUB DUP2 DUP7 GAS STATICCALL ISZERO DUP1 ISZERO PUSH2 0x2D86 JUMPI RETURNDATASIZE PUSH1 0x0 DUP1 RETURNDATACOPY RETURNDATASIZE PUSH1 0x0 REVERT JUMPDEST POP POP POP POP PUSH1 0x40 MLOAD RETURNDATASIZE PUSH1 0x1F NOT PUSH1 0x1F DUP3 ADD AND DUP3 ADD DUP1 PUSH1 0x40 MSTORE POP DUP2 ADD SWAP1 PUSH2 0x2DAA SWAP2 SWAP1 PUSH2 0x5D58 JUMP JUMPDEST PUSH1 0x0 SUB PUSH2 0x2DC6 JUMPI DUP7 PUSH2 0x2DBC DUP10 DUP6 PUSH2 0x5737 JUMP JUMPDEST PUSH2 0x2CC1 SWAP2 SWAP1 PUSH2 0x5737 JUMP JUMPDEST PUSH2 0x2CC1 DUP8 DUP5 PUSH2 0x5737 JUMP JUMPDEST PUSH2 0x2E00 JUMP JUMPDEST PUSH1 0x1 DUP2 PUSH2 0x100 ADD MLOAD PUSH1 0x1 DUP2 GT ISZERO PUSH2 0x2DEE JUMPI PUSH2 0x2DEE PUSH2 0x4A43 JUMP JUMPDEST SUB PUSH2 0x2E00 JUMPI PUSH2 0x2DFD DUP8 DUP5 PUSH2 0x5737 JUMP JUMPDEST SWAP3 POP JUMPDEST PUSH1 0x1 PUSH1 0x1 PUSH1 0xA0 SHL SUB DUP7 AND PUSH2 0x2EC5 JUMPI DUP5 CALLVALUE EQ DUP1 ISZERO PUSH2 0x2E1D JUMPI POP DUP3 DUP6 LT ISZERO JUMPDEST PUSH2 0x2EC0 JUMPI PUSH1 0x40 MLOAD PUSH3 0x461BCD PUSH1 0xE5 SHL DUP2 MSTORE PUSH1 0x20 PUSH1 0x4 DUP3 ADD MSTORE PUSH1 0x62 PUSH1 0x24 DUP3 ADD MSTORE PUSH32 0x496E73756666696369656E742066756E6473206F7220696E76616C696420616D PUSH1 0x44 DUP3 ADD MSTORE PUSH32 0x6F756E742E20596F75206E65656420746F207061737320612076616C69642061 PUSH1 0x64 DUP3 ADD MSTORE PUSH32 0x6D6F756E7420746F20636F6D706C6574652074686973207472616E7361637469 PUSH1 0x84 DUP3 ADD MSTORE PUSH2 0x37B7 PUSH1 0xF1 SHL PUSH1 0xA4 DUP3 ADD MSTORE PUSH1 0xC4 ADD PUSH2 0x73E JUMP JUMPDEST PUSH2 0x30E7 JUMP JUMPDEST PUSH1 0x40 MLOAD PUSH4 0x70A08231 PUSH1 0xE0 SHL DUP2 MSTORE DUP6 SWAP1 PUSH1 0x1 PUSH1 0x1 PUSH1 0xA0 SHL SUB DUP9 AND SWAP1 PUSH4 0x70A08231 SWAP1 PUSH2 0x2EF3 SWAP1 DUP9 SWAP1 PUSH1 0x4 ADD PUSH2 0x4AF7 JUMP JUMPDEST PUSH1 0x20 PUSH1 0x40 MLOAD DUP1 DUP4 SUB DUP2 DUP7 GAS STATICCALL ISZERO DUP1 ISZERO PUSH2 0x2F10 JUMPI RETURNDATASIZE PUSH1 0x0 DUP1 RETURNDATACOPY RETURNDATASIZE PUSH1 0x0 REVERT JUMPDEST POP POP POP POP PUSH1 0x40 MLOAD RETURNDATASIZE PUSH1 0x1F NOT PUSH1 0x1F DUP3 ADD AND DUP3 ADD DUP1 PUSH1 0x40 MSTORE POP DUP2 ADD SWAP1 PUSH2 0x2F34 SWAP2 SWAP1 PUSH2 0x5D58 JUMP JUMPDEST LT ISZERO DUP1 ISZERO PUSH2 0x2F42 JUMPI POP DUP3 DUP6 LT ISZERO JUMPDEST PUSH2 0x2FD0 JUMPI PUSH1 0x40 MLOAD PUSH3 0x461BCD PUSH1 0xE5 SHL DUP2 MSTORE PUSH1 0x20 PUSH1 0x4 DUP3 ADD MSTORE PUSH1 0x53 PUSH1 0x24 DUP3 ADD MSTORE PUSH32 0x496E73756666696369656E742066756E64732E20596F752073686F756C642068 PUSH1 0x44 DUP3 ADD MSTORE PUSH32 0x6176652073756666696369656E742062616C616E636520746F20636F6D706C65 PUSH1 0x64 DUP3 ADD MSTORE PUSH19 0x3A32903A3434B9903A3930B739B0B1BA34B7B7 PUSH1 0x69 SHL PUSH1 0x84 DUP3 ADD MSTORE PUSH1 0xA4 ADD PUSH2 0x73E JUMP JUMPDEST PUSH1 0x40 MLOAD PUSH4 0x6EB1769F PUSH1 0xE1 SHL DUP2 MSTORE PUSH1 0x1 PUSH1 0x1 PUSH1 0xA0 SHL SUB DUP6 DUP2 AND PUSH1 0x4 DUP4 ADD MSTORE ADDRESS PUSH1 0x24 DUP4 ADD MSTORE DUP7 SWAP2 SWAP1 DUP9 AND SWAP1 PUSH4 0xDD62ED3E SWAP1 PUSH1 0x44 ADD PUSH1 0x20 PUSH1 0x40 MLOAD DUP1 DUP4 SUB DUP2 DUP7 GAS STATICCALL ISZERO DUP1 ISZERO PUSH2 0x301F JUMPI RETURNDATASIZE PUSH1 0x0 DUP1 RETURNDATACOPY RETURNDATASIZE PUSH1 0x0 REVERT JUMPDEST POP POP POP POP PUSH1 0x40 MLOAD RETURNDATASIZE PUSH1 0x1F NOT PUSH1 0x1F DUP3 ADD AND DUP3 ADD DUP1 PUSH1 0x40 MSTORE POP DUP2 ADD SWAP1 PUSH2 0x3043 SWAP2 SWAP1 PUSH2 0x5D58 JUMP JUMPDEST LT ISZERO PUSH2 0x30E7 JUMPI PUSH1 0x40 MLOAD PUSH3 0x461BCD PUSH1 0xE5 SHL DUP2 MSTORE PUSH1 0x20 PUSH1 0x4 DUP3 ADD MSTORE PUSH1 0x61 PUSH1 0x24 DUP3 ADD MSTORE PUSH32 0x496E73756666696369656E7420617070726F76616C2066726F6D20616E204552 PUSH1 0x44 DUP3 ADD MSTORE PUSH32 0x43323020546F6B656E2E20506C656173652070726F7669646520617070726F76 PUSH1 0x64 DUP3 ADD MSTORE PUSH32 0x616C20746F207468697320636F6E747261637420616E64207472792061676169 PUSH1 0x84 DUP3 ADD MSTORE PUSH1 0x37 PUSH1 0xF9 SHL PUSH1 0xA4 DUP3 ADD MSTORE PUSH1 0xC4 ADD PUSH2 0x73E JUMP JUMPDEST POP SWAP8 POP SWAP8 SWAP6 POP POP POP POP POP POP JUMP JUMPDEST PUSH1 0x40 MLOAD PUSH4 0x1FFC9A7 PUSH1 0xE0 SHL DUP2 MSTORE PUSH1 0x60 SWAP1 PUSH1 0x1 PUSH1 0x1 PUSH1 0xA0 SHL SUB DUP9 AND SWAP1 PUSH4 0x1FFC9A7 SWAP1 PUSH2 0x312A SWAP1 PUSH4 0x80AC58CD PUSH1 0xE0 SHL SWAP1 PUSH1 0x4 ADD PUSH2 0x56A9 JUMP JUMPDEST PUSH1 0x20 PUSH1 0x40 MLOAD DUP1 DUP4 SUB DUP2 DUP7 GAS STATICCALL ISZERO DUP1 ISZERO PUSH2 0x3147 JUMPI RETURNDATASIZE PUSH1 0x0 DUP1 RETURNDATACOPY RETURNDATASIZE PUSH1 0x0 REVERT JUMPDEST POP POP POP POP PUSH1 0x40 MLOAD RETURNDATASIZE PUSH1 0x1F NOT PUSH1 0x1F DUP3 ADD AND DUP3 ADD DUP1 PUSH1 0x40 MSTORE POP DUP2 ADD SWAP1 PUSH2 0x316B SWAP2 SWAP1 PUSH2 0x56BE JUMP JUMPDEST ISZERO PUSH2 0x34B5 JUMPI PUSH1 0x1 DUP3 PUSH1 0x1 DUP2 GT ISZERO PUSH2 0x3184 JUMPI PUSH2 0x3184 PUSH2 0x4A43 JUMP JUMPDEST SUB PUSH2 0x32D2 JUMPI PUSH1 0x40 MLOAD PUSH4 0x31A9108F PUSH1 0xE1 SHL DUP2 MSTORE PUSH1 0x4 DUP2 ADD DUP7 SWAP1 MSTORE PUSH1 0x1 PUSH1 0x1 PUSH1 0xA0 SHL SUB DUP1 DUP11 AND SWAP2 SWAP1 DUP10 AND SWAP1 PUSH4 0x6352211E SWAP1 PUSH1 0x24 ADD PUSH1 0x20 PUSH1 0x40 MLOAD DUP1 DUP4 SUB DUP2 DUP7 GAS STATICCALL ISZERO DUP1 ISZERO PUSH2 0x31D3 JUMPI RETURNDATASIZE PUSH1 0x0 DUP1 RETURNDATACOPY RETURNDATASIZE PUSH1 0x0 REVERT JUMPDEST POP POP POP POP PUSH1 0x40 MLOAD RETURNDATASIZE PUSH1 0x1F NOT PUSH1 0x1F DUP3 ADD AND DUP3 ADD DUP1 PUSH1 0x40 MSTORE POP DUP2 ADD SWAP1 PUSH2 0x31F7 SWAP2 SWAP1 PUSH2 0x5D71 JUMP JUMPDEST PUSH1 0x1 PUSH1 0x1 PUSH1 0xA0 SHL SUB AND EQ PUSH2 0x326B JUMPI PUSH1 0x40 MLOAD PUSH3 0x461BCD PUSH1 0xE5 SHL DUP2 MSTORE PUSH1 0x20 PUSH1 0x4 DUP3 ADD MSTORE PUSH1 0x35 PUSH1 0x24 DUP3 ADD MSTORE PUSH32 0x496E76616C6964204E4654204F776E657220416464726573732E20506C656173 PUSH1 0x44 DUP3 ADD MSTORE PUSH21 0x329031B432B1B59030B732103A393C9030B3B0B4B7 PUSH1 0x59 SHL PUSH1 0x64 DUP3 ADD MSTORE PUSH1 0x84 ADD PUSH2 0x73E JUMP JUMPDEST PUSH1 0x40 MLOAD PUSH4 0x21421707 PUSH1 0xE1 SHL DUP2 MSTORE PUSH1 0x1 PUSH1 0x1 PUSH1 0xA0 SHL SUB DUP9 AND SWAP1 PUSH4 0x42842E0E SWAP1 PUSH2 0x329B SWAP1 DUP12 SWAP1 DUP11 SWAP1 DUP11 SWAP1 PUSH1 0x4 ADD PUSH2 0x5D8E JUMP JUMPDEST PUSH1 0x0 PUSH1 0x40 MLOAD DUP1 DUP4 SUB DUP2 PUSH1 0x0 DUP8 DUP1 EXTCODESIZE ISZERO DUP1 ISZERO PUSH2 0x32B5 JUMPI PUSH1 0x0 DUP1 REVERT JUMPDEST POP GAS CALL ISZERO DUP1 ISZERO PUSH2 0x32C9 JUMPI RETURNDATASIZE PUSH1 0x0 DUP1 RETURNDATACOPY RETURNDATASIZE PUSH1 0x0 REVERT JUMPDEST POP POP POP POP PUSH2 0x3B0E JUMP JUMPDEST PUSH1 0x0 DUP3 PUSH1 0x1 DUP2 GT ISZERO PUSH2 0x32E6 JUMPI PUSH2 0x32E6 PUSH2 0x4A43 JUMP JUMPDEST SUB PUSH2 0x34B0 JUMPI PUSH1 0x4 DUP10 PUSH1 0x40 MLOAD PUSH2 0x32FB SWAP2 SWAP1 PUSH2 0x4E92 JUMP JUMPDEST SWAP1 DUP2 MSTORE PUSH1 0x40 MLOAD SWAP1 DUP2 SWAP1 SUB PUSH1 0x20 ADD DUP2 KECCAK256 PUSH1 0x9 ADD SLOAD PUSH1 0x1 PUSH1 0x1 PUSH1 0x40 SHL SUB AND SWAP1 DUP6 SWAP1 PUSH1 0x5 SWAP1 PUSH2 0x3328 SWAP1 DUP14 SWAP1 PUSH2 0x4E92 JUMP JUMPDEST SWAP1 DUP2 MSTORE PUSH1 0x20 ADD PUSH1 0x40 MLOAD DUP1 SWAP2 SUB SWAP1 KECCAK256 SLOAD PUSH2 0x3341 SWAP2 SWAP1 PUSH2 0x52EB JUMP JUMPDEST GT ISZERO PUSH2 0x33E9 JUMPI PUSH1 0x40 MLOAD PUSH3 0x461BCD PUSH1 0xE5 SHL DUP2 MSTORE PUSH1 0x20 PUSH1 0x4 DUP3 ADD MSTORE PUSH1 0x77 PUSH1 0x24 DUP3 ADD MSTORE PUSH1 0x0 DUP1 MLOAD PUSH1 0x20 PUSH2 0x5EF2 DUP4 CODECOPY DUP2 MLOAD SWAP2 MSTORE PUSH1 0x44 DUP3 ADD MSTORE PUSH32 0x70757263686173652045524337323120746F6B656E20686173206265656E2073 PUSH1 0x64 DUP3 ADD MSTORE PUSH32 0x6F6C64206F75742E20506C6561736520636F6E74616374207468652073616C65 PUSH1 0x84 DUP3 ADD MSTORE PUSH23 0x206F776E657220666F72206D6F72652064657461696C73 PUSH1 0x48 SHL PUSH1 0xA4 DUP3 ADD MSTORE PUSH1 0xC4 ADD PUSH2 0x73E JUMP JUMPDEST PUSH1 0x40 MLOAD PUSH4 0xE00AAB4B PUSH1 0xE0 SHL DUP2 MSTORE PUSH1 0x1 PUSH1 0x1 PUSH1 0xA0 SHL SUB DUP8 DUP2 AND PUSH1 0x4 DUP4 ADD MSTORE PUSH2 0xFFFF DUP7 AND PUSH1 0x24 DUP4 ADD MSTORE DUP9 AND SWAP1 PUSH4 0xE00AAB4B SWAP1 PUSH1 0x44 ADD PUSH1 0x0 PUSH1 0x40 MLOAD DUP1 DUP4 SUB DUP2 PUSH1 0x0 DUP8 GAS CALL ISZERO DUP1 ISZERO PUSH2 0x343B JUMPI RETURNDATASIZE PUSH1 0x0 DUP1 RETURNDATACOPY RETURNDATASIZE PUSH1 0x0 REVERT JUMPDEST POP POP POP POP PUSH1 0x40 MLOAD RETURNDATASIZE PUSH1 0x0 DUP3 RETURNDATACOPY PUSH1 0x1F RETURNDATASIZE SWAP1 DUP2 ADD PUSH1 0x1F NOT AND DUP3 ADD PUSH1 0x40 MSTORE PUSH2 0x3463 SWAP2 SWAP1 DUP2 ADD SWAP1 PUSH2 0x5DB2 JUMP JUMPDEST SWAP1 POP DUP4 PUSH1 0x5 DUP11 PUSH1 0x40 MLOAD PUSH2 0x3476 SWAP2 SWAP1 PUSH2 0x4E92 JUMP JUMPDEST SWAP1 DUP2 MSTORE PUSH1 0x20 ADD PUSH1 0x40 MLOAD DUP1 SWAP2 SUB SWAP1 KECCAK256 SLOAD PUSH2 0x348F SWAP2 SWAP1 PUSH2 0x52EB JUMP JUMPDEST PUSH1 0x5 DUP11 PUSH1 0x40 MLOAD PUSH2 0x349F SWAP2 SWAP1 PUSH2 0x4E92 JUMP JUMPDEST SWAP1 DUP2 MSTORE PUSH1 0x40 MLOAD SWAP1 DUP2 SWAP1 SUB PUSH1 0x20 ADD SWAP1 KECCAK256 SSTORE JUMPDEST PUSH2 0x3B0E JUMP JUMPDEST PUSH1 0x40 MLOAD PUSH4 0x1FFC9A7 PUSH1 0xE0 SHL DUP2 MSTORE PUSH1 0x1 PUSH1 0x1 PUSH1 0xA0 SHL SUB DUP9 AND SWAP1 PUSH4 0x1FFC9A7 SWAP1 PUSH2 0x34E8 SWAP1 PUSH4 0x6CDB3D13 PUSH1 0xE1 SHL SWAP1 PUSH1 0x4 ADD PUSH2 0x56A9 JUMP JUMPDEST PUSH1 0x20 PUSH1 0x40 MLOAD DUP1 DUP4 SUB DUP2 DUP7 GAS STATICCALL ISZERO DUP1 ISZERO PUSH2 0x3505 JUMPI RETURNDATASIZE PUSH1 0x0 DUP1 RETURNDATACOPY RETURNDATASIZE PUSH1 0x0 REVERT JUMPDEST POP POP POP POP PUSH1 0x40 MLOAD RETURNDATASIZE PUSH1 0x1F NOT PUSH1 0x1F DUP3 ADD AND DUP3 ADD DUP1 PUSH1 0x40 MSTORE POP DUP2 ADD SWAP1 PUSH2 0x3529 SWAP2 SWAP1 PUSH2 0x56BE JUMP JUMPDEST ISZERO PUSH2 0x3B0E JUMPI PUSH1 0x1 DUP3 PUSH1 0x1 DUP2 GT ISZERO PUSH2 0x3542 JUMPI PUSH2 0x3542 PUSH2 0x4A43 JUMP JUMPDEST SUB PUSH2 0x36B7 JUMPI PUSH1 0x40 MLOAD PUSH3 0x7EEAC7 PUSH1 0xE1 SHL DUP2 MSTORE PUSH1 0x0 SWAP1 PUSH1 0x1 PUSH1 0x1 PUSH1 0xA0 SHL SUB DUP10 AND SWAP1 PUSH3 0xFDD58E SWAP1 PUSH2 0x3576 SWAP1 DUP13 SWAP1 DUP11 SWAP1 PUSH1 0x4 ADD PUSH2 0x511F JUMP JUMPDEST PUSH1 0x20 PUSH1 0x40 MLOAD DUP1 DUP4 SUB DUP2 DUP7 GAS STATICCALL ISZERO DUP1 ISZERO PUSH2 0x3593 JUMPI RETURNDATASIZE PUSH1 0x0 DUP1 RETURNDATACOPY RETURNDATASIZE PUSH1 0x0 REVERT JUMPDEST POP POP POP POP PUSH1 0x40 MLOAD RETURNDATASIZE PUSH1 0x1F NOT PUSH1 0x1F DUP3 ADD AND DUP3 ADD DUP1 PUSH1 0x40 MSTORE POP DUP2 ADD SWAP1 PUSH2 0x35B7 SWAP2 SWAP1 PUSH2 0x5D58 JUMP JUMPDEST SWAP1 POP DUP1 DUP5 GT ISZERO DUP1 ISZERO PUSH2 0x35C9 JUMPI POP PUSH1 0x0 DUP5 GT JUMPDEST PUSH2 0x3627 JUMPI PUSH1 0x40 MLOAD PUSH3 0x461BCD PUSH1 0xE5 SHL DUP2 MSTORE PUSH1 0x20 PUSH1 0x4 DUP3 ADD MSTORE PUSH1 0x29 PUSH1 0x24 DUP3 ADD MSTORE PUSH32 0x496E73756666696369656E7420746F6B656E2062616C616E63652066726F6D20 PUSH1 0x44 DUP3 ADD MSTORE PUSH9 0x3A34329037BBB732B9 PUSH1 0xB9 SHL PUSH1 0x64 DUP3 ADD MSTORE PUSH1 0x84 ADD PUSH2 0x73E JUMP JUMPDEST PUSH1 0x40 MLOAD PUSH4 0x79212195 PUSH1 0xE1 SHL DUP2 MSTORE PUSH1 0x1 PUSH1 0x1 PUSH1 0xA0 SHL SUB DUP11 DUP2 AND PUSH1 0x4 DUP4 ADD MSTORE DUP9 DUP2 AND PUSH1 0x24 DUP4 ADD MSTORE PUSH1 0x44 DUP3 ADD DUP9 SWAP1 MSTORE PUSH1 0x64 DUP3 ADD DUP7 SWAP1 MSTORE PUSH1 0xA0 PUSH1 0x84 DUP4 ADD MSTORE PUSH1 0x2 PUSH1 0xA4 DUP4 ADD MSTORE PUSH2 0x60F PUSH1 0xF3 SHL PUSH1 0xC4 DUP4 ADD MSTORE DUP10 AND SWAP1 PUSH4 0xF242432A SWAP1 PUSH1 0xE4 ADD PUSH1 0x0 PUSH1 0x40 MLOAD DUP1 DUP4 SUB DUP2 PUSH1 0x0 DUP8 DUP1 EXTCODESIZE ISZERO DUP1 ISZERO PUSH2 0x3699 JUMPI PUSH1 0x0 DUP1 REVERT JUMPDEST POP GAS CALL ISZERO DUP1 ISZERO PUSH2 0x36AD JUMPI RETURNDATASIZE PUSH1 0x0 DUP1 RETURNDATACOPY RETURNDATASIZE PUSH1 0x0 REVERT JUMPDEST POP POP POP POP POP PUSH2 0x3B0E JUMP JUMPDEST PUSH1 0x0 DUP3 PUSH1 0x1 DUP2 GT ISZERO PUSH2 0x36CB JUMPI PUSH2 0x36CB PUSH2 0x4A43 JUMP JUMPDEST SUB PUSH2 0x3B0E JUMPI PUSH1 0x40 DUP1 MLOAD PUSH1 0x1 DUP1 DUP3 MSTORE DUP2 DUP4 ADD SWAP1 SWAP3 MSTORE PUSH1 0x0 SWAP2 PUSH1 0x20 DUP1 DUP4 ADD SWAP1 DUP1 CALLDATASIZE DUP4 CALLDATACOPY ADD SWAP1 POP POP SWAP1 POP PUSH1 0x0 DUP6 PUSH1 0x1 PUSH1 0x1 PUSH1 0x40 SHL SUB DUP2 GT ISZERO PUSH2 0x370C JUMPI PUSH2 0x370C PUSH2 0x4734 JUMP JUMPDEST PUSH1 0x40 MLOAD SWAP1 DUP1 DUP3 MSTORE DUP1 PUSH1 0x20 MUL PUSH1 0x20 ADD DUP3 ADD PUSH1 0x40 MSTORE DUP1 ISZERO PUSH2 0x3735 JUMPI DUP2 PUSH1 0x20 ADD PUSH1 0x20 DUP3 MUL DUP1 CALLDATASIZE DUP4 CALLDATACOPY ADD SWAP1 POP JUMPDEST POP SWAP1 POP PUSH1 0x60 DUP9 DUP4 PUSH1 0x0 DUP2 MLOAD DUP2 LT PUSH2 0x374E JUMPI PUSH2 0x374E PUSH2 0x50CA JUMP JUMPDEST PUSH1 0x20 MUL PUSH1 0x20 ADD ADD SWAP1 PUSH1 0x1 PUSH1 0x1 PUSH1 0xA0 SHL SUB AND SWAP1 DUP2 PUSH1 0x1 PUSH1 0x1 PUSH1 0xA0 SHL SUB AND DUP2 MSTORE POP POP DUP6 DUP3 PUSH1 0x0 DUP2 MLOAD DUP2 LT PUSH2 0x3782 JUMPI PUSH2 0x3782 PUSH2 0x50CA JUMP JUMPDEST PUSH1 0x20 SWAP1 DUP2 MUL SWAP2 SWAP1 SWAP2 ADD ADD MSTORE PUSH1 0x40 MLOAD PUSH4 0xBD85B039 PUSH1 0xE0 SHL DUP2 MSTORE PUSH1 0x4 DUP2 ADD DUP10 SWAP1 MSTORE PUSH1 0x1 PUSH1 0x1 PUSH1 0xA0 SHL SUB DUP12 AND SWAP1 PUSH4 0xBD85B039 SWAP1 PUSH1 0x24 ADD PUSH1 0x20 PUSH1 0x40 MLOAD DUP1 DUP4 SUB DUP2 DUP7 GAS STATICCALL ISZERO DUP1 ISZERO PUSH2 0x37D2 JUMPI RETURNDATASIZE PUSH1 0x0 DUP1 RETURNDATACOPY RETURNDATASIZE PUSH1 0x0 REVERT JUMPDEST POP POP POP POP PUSH1 0x40 MLOAD RETURNDATASIZE PUSH1 0x1F NOT PUSH1 0x1F DUP3 ADD AND DUP3 ADD DUP1 PUSH1 0x40 MSTORE POP DUP2 ADD SWAP1 PUSH2 0x37F6 SWAP2 SWAP1 PUSH2 0x5D58 JUMP JUMPDEST PUSH1 0x0 SUB PUSH2 0x39F3 JUMPI PUSH1 0x4 DUP13 PUSH1 0x40 MLOAD PUSH2 0x380D SWAP2 SWAP1 PUSH2 0x4E92 JUMP JUMPDEST SWAP1 DUP2 MSTORE PUSH1 0x40 MLOAD SWAP1 DUP2 SWAP1 SUB PUSH1 0x20 ADD DUP2 KECCAK256 PUSH1 0x9 ADD SLOAD PUSH1 0x1 PUSH1 0x1 PUSH1 0x40 SHL SUB AND SWAP1 PUSH1 0x5 SWAP1 PUSH2 0x3838 SWAP1 DUP16 SWAP1 PUSH2 0x4E92 JUMP JUMPDEST SWAP1 DUP2 MSTORE PUSH1 0x20 ADD PUSH1 0x40 MLOAD DUP1 SWAP2 SUB SWAP1 KECCAK256 SLOAD LT PUSH2 0x38EF JUMPI PUSH1 0x40 MLOAD PUSH3 0x461BCD PUSH1 0xE5 SHL DUP2 MSTORE PUSH1 0x20 PUSH1 0x4 DUP3 ADD MSTORE PUSH1 0x78 PUSH1 0x24 DUP3 ADD MSTORE PUSH1 0x0 DUP1 MLOAD PUSH1 0x20 PUSH2 0x5EF2 DUP4 CODECOPY DUP2 MLOAD SWAP2 MSTORE PUSH1 0x44 DUP3 ADD MSTORE PUSH32 0x7075726368617365204552433131353520746F6B656E20686173206265656E20 PUSH1 0x64 DUP3 ADD MSTORE PUSH32 0x736F6C64206F75742E20506C6561736520636F6E74616374207468652073616C PUSH1 0x84 DUP3 ADD MSTORE PUSH24 0x65206F776E657220666F72206D6F72652064657461696C73 PUSH1 0x40 SHL PUSH1 0xA4 DUP3 ADD MSTORE PUSH1 0xC4 ADD PUSH2 0x73E JUMP JUMPDEST PUSH1 0x0 JUMPDEST DUP8 DUP2 LT ISZERO PUSH2 0x392A JUMPI DUP7 DUP4 DUP3 DUP2 MLOAD DUP2 LT PUSH2 0x390D JUMPI PUSH2 0x390D PUSH2 0x50CA JUMP JUMPDEST PUSH1 0x20 SWAP1 DUP2 MUL SWAP2 SWAP1 SWAP2 ADD ADD MSTORE DUP1 PUSH2 0x3922 DUP2 PUSH2 0x50F6 JUMP JUMPDEST SWAP2 POP POP PUSH2 0x38F2 JUMP JUMPDEST POP PUSH1 0x40 MLOAD PUSH4 0x46374239 PUSH1 0xE1 SHL DUP2 MSTORE PUSH1 0x1 PUSH1 0x1 PUSH1 0xA0 SHL SUB DUP12 AND SWAP1 PUSH4 0x8C6E8472 SWAP1 PUSH2 0x395B SWAP1 DUP7 SWAP1 DUP7 SWAP1 DUP7 SWAP1 PUSH1 0x4 ADD PUSH2 0x5DE6 JUMP JUMPDEST PUSH1 0x0 PUSH1 0x40 MLOAD DUP1 DUP4 SUB DUP2 PUSH1 0x0 DUP8 GAS CALL ISZERO DUP1 ISZERO PUSH2 0x397A JUMPI RETURNDATASIZE PUSH1 0x0 DUP1 RETURNDATACOPY RETURNDATASIZE PUSH1 0x0 REVERT JUMPDEST POP POP POP POP PUSH1 0x40 MLOAD RETURNDATASIZE PUSH1 0x0 DUP3 RETURNDATACOPY PUSH1 0x1F RETURNDATASIZE SWAP1 DUP2 ADD PUSH1 0x1F NOT AND DUP3 ADD PUSH1 0x40 MSTORE PUSH2 0x39A2 SWAP2 SWAP1 DUP2 ADD SWAP1 PUSH2 0x5DB2 JUMP JUMPDEST SWAP4 POP DUP7 PUSH1 0x5 DUP14 PUSH1 0x40 MLOAD PUSH2 0x39B5 SWAP2 SWAP1 PUSH2 0x4E92 JUMP JUMPDEST SWAP1 DUP2 MSTORE PUSH1 0x20 ADD PUSH1 0x40 MLOAD DUP1 SWAP2 SUB SWAP1 KECCAK256 SLOAD PUSH2 0x39CE SWAP2 SWAP1 PUSH2 0x52EB JUMP JUMPDEST PUSH1 0x5 DUP14 PUSH1 0x40 MLOAD PUSH2 0x39DE SWAP2 SWAP1 PUSH2 0x4E92 JUMP JUMPDEST SWAP1 DUP2 MSTORE PUSH1 0x40 MLOAD SWAP1 DUP2 SWAP1 SUB PUSH1 0x20 ADD SWAP1 KECCAK256 SSTORE PUSH2 0x3B0A JUMP JUMPDEST PUSH1 0x40 MLOAD PUSH4 0xBD85B039 PUSH1 0xE0 SHL DUP2 MSTORE PUSH1 0x4 DUP2 ADD DUP10 SWAP1 MSTORE PUSH1 0x0 SWAP1 PUSH1 0x1 PUSH1 0x1 PUSH1 0xA0 SHL SUB DUP13 AND SWAP1 PUSH4 0xBD85B039 SWAP1 PUSH1 0x24 ADD PUSH1 0x20 PUSH1 0x40 MLOAD DUP1 DUP4 SUB DUP2 DUP7 GAS STATICCALL ISZERO DUP1 ISZERO PUSH2 0x3A3B JUMPI RETURNDATASIZE PUSH1 0x0 DUP1 RETURNDATACOPY RETURNDATASIZE PUSH1 0x0 REVERT JUMPDEST POP POP POP POP PUSH1 0x40 MLOAD RETURNDATASIZE PUSH1 0x1F NOT PUSH1 0x1F DUP3 ADD AND DUP3 ADD DUP1 PUSH1 0x40 MSTORE POP DUP2 ADD SWAP1 PUSH2 0x3A5F SWAP2 SWAP1 PUSH2 0x5D58 JUMP JUMPDEST GT ISZERO PUSH2 0x3B0A JUMPI PUSH1 0x40 DUP1 MLOAD PUSH1 0x1 DUP1 DUP3 MSTORE DUP2 DUP4 ADD SWAP1 SWAP3 MSTORE PUSH1 0x0 SWAP2 PUSH1 0x20 DUP1 DUP4 ADD SWAP1 DUP1 CALLDATASIZE DUP4 CALLDATACOPY ADD SWAP1 POP POP SWAP1 POP DUP9 DUP2 PUSH1 0x0 DUP2 MLOAD DUP2 LT PUSH2 0x3A9B JUMPI PUSH2 0x3A9B PUSH2 0x50CA JUMP JUMPDEST PUSH1 0x20 SWAP1 DUP2 MUL SWAP2 SWAP1 SWAP2 ADD ADD MSTORE PUSH1 0x40 MLOAD PUSH4 0x39B22137 PUSH1 0xE2 SHL DUP2 MSTORE PUSH1 0x1 PUSH1 0x1 PUSH1 0xA0 SHL SUB DUP13 AND SWAP1 PUSH4 0xE6C884DC SWAP1 PUSH2 0x3AD6 SWAP1 DUP8 SWAP1 DUP6 SWAP1 DUP9 SWAP1 PUSH1 0x4 ADD PUSH2 0x5E6D JUMP JUMPDEST PUSH1 0x0 PUSH1 0x40 MLOAD DUP1 DUP4 SUB DUP2 PUSH1 0x0 DUP8 DUP1 EXTCODESIZE ISZERO DUP1 ISZERO PUSH2 0x3AF0 JUMPI PUSH1 0x0 DUP1 REVERT JUMPDEST POP GAS CALL ISZERO DUP1 ISZERO PUSH2 0x3B04 JUMPI RETURNDATASIZE PUSH1 0x0 DUP1 RETURNDATACOPY RETURNDATASIZE PUSH1 0x0 REVERT JUMPDEST POP POP POP POP POP JUMPDEST POP POP POP JUMPDEST SWAP9 SWAP8 POP POP POP POP POP POP POP POP JUMP JUMPDEST PUSH1 0x0 PUSH1 0x1 PUSH1 0x1 PUSH1 0xA0 SHL SUB DUP4 AND PUSH2 0x3C02 JUMPI PUSH1 0x40 DUP1 MLOAD PUSH1 0x0 DUP2 MSTORE PUSH1 0x20 DUP2 ADD SWAP2 DUP3 SWAP1 MSTORE PUSH1 0x1 PUSH1 0x1 PUSH1 0xA0 SHL SUB DUP7 AND SWAP2 DUP5 SWAP2 PUSH2 0x3B50 SWAP2 PUSH2 0x4E92 JUMP JUMPDEST PUSH1 0x0 PUSH1 0x40 MLOAD DUP1 DUP4 SUB DUP2 DUP6 DUP8 GAS CALL SWAP3 POP POP POP RETURNDATASIZE DUP1 PUSH1 0x0 DUP2 EQ PUSH2 0x3B8D JUMPI PUSH1 0x40 MLOAD SWAP2 POP PUSH1 0x1F NOT PUSH1 0x3F RETURNDATASIZE ADD AND DUP3 ADD PUSH1 0x40 MSTORE RETURNDATASIZE DUP3 MSTORE RETURNDATASIZE PUSH1 0x0 PUSH1 0x20 DUP5 ADD RETURNDATACOPY PUSH2 0x3B92 JUMP JUMPDEST PUSH1 0x60 SWAP2 POP JUMPDEST POP POP DUP1 SWAP2 POP POP DUP1 PUSH2 0x3BFD JUMPI PUSH1 0x40 MLOAD PUSH3 0x461BCD PUSH1 0xE5 SHL DUP2 MSTORE PUSH1 0x20 PUSH1 0x4 DUP3 ADD MSTORE PUSH1 0x2F PUSH1 0x24 DUP3 ADD MSTORE PUSH32 0x756E61626C6520746F206465626974206E61746976652062616C616E63652070 PUSH1 0x44 DUP3 ADD MSTORE PUSH15 0x3632B0B9B2903A393C9030B3B0B4B7 PUSH1 0x89 SHL PUSH1 0x64 DUP3 ADD MSTORE PUSH1 0x84 ADD PUSH2 0x73E JUMP JUMPDEST PUSH2 0x3C17 JUMP JUMPDEST PUSH2 0x3C17 PUSH1 0x1 PUSH1 0x1 PUSH1 0xA0 SHL SUB DUP5 AND DUP7 DUP7 DUP6 PUSH2 0x3F9A JUMP JUMPDEST POP POP POP POP POP JUMP JUMPDEST PUSH1 0x0 PUSH1 0x4 DUP10 PUSH1 0x40 MLOAD PUSH2 0x3C30 SWAP2 SWAP1 PUSH2 0x4E92 JUMP JUMPDEST SWAP1 DUP2 MSTORE PUSH1 0x40 DUP1 MLOAD SWAP2 DUP3 SWAP1 SUB PUSH1 0x20 SWAP1 DUP2 ADD DUP4 KECCAK256 PUSH1 0xC0 DUP5 ADD DUP4 MSTORE PUSH1 0x5 DUP2 ADD SLOAD PUSH1 0x1 PUSH1 0x1 PUSH1 0xA0 SHL SUB SWAP1 DUP2 AND DUP6 MSTORE PUSH1 0x6 DUP3 ADD SLOAD DUP2 AND SWAP3 DUP6 ADD SWAP3 SWAP1 SWAP3 MSTORE PUSH1 0x7 DUP2 ADD SLOAD DUP1 DUP4 AND SWAP4 DUP6 ADD DUP5 SWAP1 MSTORE PUSH2 0xFFFF PUSH1 0x1 PUSH1 0xA0 SHL SWAP2 DUP3 SWAP1 DIV DUP2 AND PUSH1 0x60 DUP8 ADD MSTORE PUSH1 0x8 SWAP1 SWAP3 ADD SLOAD SWAP3 DUP4 AND PUSH1 0x80 DUP7 ADD MSTORE SWAP1 SWAP2 DIV AND PUSH1 0xA0 DUP4 ADD MSTORE SWAP1 SWAP2 POP PUSH1 0x0 SWAP1 ISZERO DUP1 ISZERO SWAP1 PUSH2 0x3CBC JUMPI POP PUSH1 0x0 DUP3 PUSH1 0x60 ADD MLOAD PUSH2 0xFFFF AND GT JUMPDEST ISZERO PUSH2 0x3D03 JUMPI PUSH2 0x3CFE CALLER DUP4 PUSH1 0x40 ADD MLOAD DUP10 PUSH2 0x2710 DUP7 PUSH1 0x60 ADD MLOAD PUSH2 0xFFFF AND DUP14 PUSH2 0x3CE2 SWAP2 SWAP1 PUSH2 0x5737 JUMP JUMPDEST PUSH2 0x3CEC SWAP2 SWAP1 PUSH2 0x5EA6 JUMP JUMPDEST PUSH2 0x3CF6 SWAP1 DUP7 PUSH2 0x52EB JUMP JUMPDEST SWAP5 POP DUP5 PUSH2 0x3B1A JUMP JUMPDEST PUSH2 0x3D5D JUMP JUMPDEST PUSH1 0x7 SLOAD PUSH1 0x1 PUSH1 0x1 PUSH1 0xA0 SHL SUB AND ISZERO DUP1 ISZERO SWAP1 PUSH2 0x3D29 JUMPI POP PUSH1 0x7 SLOAD PUSH1 0x1 PUSH1 0xA0 SHL SWAP1 DIV PUSH2 0xFFFF AND ISZERO ISZERO JUMPDEST ISZERO PUSH2 0x3D5D JUMPI PUSH1 0x7 SLOAD PUSH2 0x3D5D SWAP1 CALLER SWAP1 PUSH1 0x1 PUSH1 0x1 PUSH1 0xA0 SHL SUB DUP2 AND SWAP1 DUP11 SWAP1 PUSH2 0x2710 SWAP1 PUSH2 0x3CE2 SWAP1 PUSH1 0x1 PUSH1 0xA0 SHL SWAP1 DIV PUSH2 0xFFFF AND DUP15 PUSH2 0x5737 JUMP JUMPDEST PUSH1 0x80 DUP3 ADD MLOAD PUSH1 0x1 PUSH1 0x1 PUSH1 0xA0 SHL SUB AND ISZERO DUP1 ISZERO SWAP1 PUSH2 0x3D81 JUMPI POP PUSH1 0x0 DUP3 PUSH1 0xA0 ADD MLOAD PUSH2 0xFFFF AND GT JUMPDEST ISZERO PUSH2 0x3DEE JUMPI PUSH2 0x2710 DUP3 PUSH1 0xA0 ADD MLOAD PUSH2 0xFFFF AND DUP10 PUSH2 0x3D9D SWAP2 SWAP1 PUSH2 0x5737 JUMP JUMPDEST PUSH2 0x3DA7 SWAP2 SWAP1 PUSH2 0x5EA6 JUMP JUMPDEST PUSH2 0x3DB1 SWAP1 DUP3 PUSH2 0x52EB JUMP JUMPDEST SWAP1 POP PUSH2 0x3DEE CALLER DUP4 PUSH1 0x80 ADD MLOAD DUP10 DUP13 PUSH2 0x2710 DUP8 PUSH1 0xA0 ADD MLOAD PUSH2 0xFFFF AND DUP15 PUSH2 0x3DD5 SWAP2 SWAP1 PUSH2 0x5737 JUMP JUMPDEST PUSH2 0x3DDF SWAP2 SWAP1 PUSH2 0x5EA6 JUMP JUMPDEST PUSH2 0x3DE9 SWAP2 SWAP1 PUSH2 0x52EB JUMP JUMPDEST PUSH2 0x3B1A JUMP JUMPDEST PUSH2 0x3DF8 DUP2 DUP10 PUSH2 0x52FE JUMP JUMPDEST SWAP8 POP PUSH2 0x3E09 CALLER DUP8 DUP8 DUP8 DUP13 DUP13 DUP10 PUSH2 0x3FF8 JUMP JUMPDEST SWAP8 POP PUSH2 0x3E1B CALLER DUP4 PUSH1 0x0 ADD MLOAD DUP10 DUP12 PUSH2 0x3B1A JUMP JUMPDEST POP POP POP POP POP POP POP POP POP POP JUMP JUMPDEST PUSH1 0x0 DUP2 DUP2 MSTORE PUSH1 0x1 DUP4 ADD PUSH1 0x20 MSTORE PUSH1 0x40 DUP2 KECCAK256 SLOAD DUP1 ISZERO PUSH2 0x3F10 JUMPI PUSH1 0x0 PUSH2 0x3E4B PUSH1 0x1 DUP4 PUSH2 0x52FE JUMP JUMPDEST DUP6 SLOAD SWAP1 SWAP2 POP PUSH1 0x0 SWAP1 PUSH2 0x3E5F SWAP1 PUSH1 0x1 SWAP1 PUSH2 0x52FE JUMP JUMPDEST SWAP1 POP DUP2 DUP2 EQ PUSH2 0x3EC4 JUMPI PUSH1 0x0 DUP7 PUSH1 0x0 ADD DUP3 DUP2 SLOAD DUP2 LT PUSH2 0x3E7F JUMPI PUSH2 0x3E7F PUSH2 0x50CA JUMP JUMPDEST SWAP1 PUSH1 0x0 MSTORE PUSH1 0x20 PUSH1 0x0 KECCAK256 ADD SLOAD SWAP1 POP DUP1 DUP8 PUSH1 0x0 ADD DUP5 DUP2 SLOAD DUP2 LT PUSH2 0x3EA2 JUMPI PUSH2 0x3EA2 PUSH2 0x50CA JUMP JUMPDEST PUSH1 0x0 SWAP2 DUP3 MSTORE PUSH1 0x20 DUP1 DUP4 KECCAK256 SWAP1 SWAP2 ADD SWAP3 SWAP1 SWAP3 SSTORE SWAP2 DUP3 MSTORE PUSH1 0x1 DUP9 ADD SWAP1 MSTORE PUSH1 0x40 SWAP1 KECCAK256 DUP4 SWAP1 SSTORE JUMPDEST DUP6 SLOAD DUP7 SWAP1 DUP1 PUSH2 0x3ED5 JUMPI PUSH2 0x3ED5 PUSH2 0x5EC8 JUMP JUMPDEST PUSH1 0x1 SWAP1 SUB DUP2 DUP2 SWAP1 PUSH1 0x0 MSTORE PUSH1 0x20 PUSH1 0x0 KECCAK256 ADD PUSH1 0x0 SWAP1 SSTORE SWAP1 SSTORE DUP6 PUSH1 0x1 ADD PUSH1 0x0 DUP7 DUP2 MSTORE PUSH1 0x20 ADD SWAP1 DUP2 MSTORE PUSH1 0x20 ADD PUSH1 0x0 KECCAK256 PUSH1 0x0 SWAP1 SSTORE PUSH1 0x1 SWAP4 POP POP POP POP PUSH2 0x6F8 JUMP JUMPDEST PUSH1 0x0 SWAP2 POP POP PUSH2 0x6F8 JUMP JUMPDEST POP SWAP3 SWAP2 POP POP JUMP JUMPDEST PUSH1 0x0 DUP3 PUSH1 0x0 ADD DUP3 DUP2 SLOAD DUP2 LT PUSH2 0x3F38 JUMPI PUSH2 0x3F38 PUSH2 0x50CA JUMP JUMPDEST SWAP1 PUSH1 0x0 MSTORE PUSH1 0x20 PUSH1 0x0 KECCAK256 ADD SLOAD SWAP1 POP SWAP3 SWAP2 POP POP JUMP JUMPDEST PUSH1 0x0 DUP2 DUP2 MSTORE PUSH1 0x1 DUP4 ADD PUSH1 0x20 MSTORE PUSH1 0x40 DUP2 KECCAK256 SLOAD PUSH2 0x3F92 JUMPI POP DUP2 SLOAD PUSH1 0x1 DUP2 DUP2 ADD DUP5 SSTORE PUSH1 0x0 DUP5 DUP2 MSTORE PUSH1 0x20 DUP1 DUP3 KECCAK256 SWAP1 SWAP4 ADD DUP5 SWAP1 SSTORE DUP5 SLOAD DUP5 DUP3 MSTORE DUP3 DUP7 ADD SWAP1 SWAP4 MSTORE PUSH1 0x40 SWAP1 KECCAK256 SWAP2 SWAP1 SWAP2 SSTORE PUSH2 0x6F8 JUMP JUMPDEST POP PUSH1 0x0 PUSH2 0x6F8 JUMP JUMPDEST PUSH2 0x3FF2 DUP5 PUSH4 0x23B872DD PUSH1 0xE0 SHL DUP6 DUP6 DUP6 PUSH1 0x40 MLOAD PUSH1 0x24 ADD PUSH2 0x3FBB SWAP4 SWAP3 SWAP2 SWAP1 PUSH2 0x5D8E JUMP JUMPDEST PUSH1 0x40 DUP1 MLOAD PUSH1 0x1F NOT DUP2 DUP5 SUB ADD DUP2 MSTORE SWAP2 SWAP1 MSTORE PUSH1 0x20 DUP2 ADD DUP1 MLOAD PUSH1 0x1 PUSH1 0x1 PUSH1 0xE0 SHL SUB AND PUSH1 0x1 PUSH1 0x1 PUSH1 0xE0 SHL SUB NOT SWAP1 SWAP4 AND SWAP3 SWAP1 SWAP3 OR SWAP1 SWAP2 MSTORE PUSH2 0x41AA JUMP JUMPDEST POP POP POP POP JUMP JUMPDEST PUSH1 0x0 PUSH1 0x1 DUP3 PUSH1 0x1 DUP2 GT ISZERO PUSH2 0x400E JUMPI PUSH2 0x400E PUSH2 0x4A43 JUMP JUMPDEST SUB PUSH2 0x4027 JUMPI PUSH2 0x4020 DUP9 DUP7 DUP10 DUP8 DUP8 PUSH2 0x4281 JUMP JUMPDEST SWAP1 POP PUSH2 0x419F JUMP JUMPDEST PUSH1 0x0 DUP3 PUSH1 0x1 DUP2 GT ISZERO PUSH2 0x403B JUMPI PUSH2 0x403B PUSH2 0x4A43 JUMP JUMPDEST SUB PUSH2 0x419F JUMPI PUSH1 0x40 MLOAD PUSH4 0x1FFC9A7 PUSH1 0xE0 SHL DUP2 MSTORE PUSH1 0x1 PUSH1 0x1 PUSH1 0xA0 SHL SUB DUP7 AND SWAP1 PUSH4 0x1FFC9A7 SWAP1 PUSH2 0x4073 SWAP1 PUSH4 0x6CDB3D13 PUSH1 0xE1 SHL SWAP1 PUSH1 0x4 ADD PUSH2 0x56A9 JUMP JUMPDEST PUSH1 0x20 PUSH1 0x40 MLOAD DUP1 DUP4 SUB DUP2 DUP7 GAS STATICCALL ISZERO DUP1 ISZERO PUSH2 0x4090 JUMPI RETURNDATASIZE PUSH1 0x0 DUP1 RETURNDATACOPY RETURNDATASIZE PUSH1 0x0 REVERT JUMPDEST POP POP POP POP PUSH1 0x40 MLOAD RETURNDATASIZE PUSH1 0x1F NOT PUSH1 0x1F DUP3 ADD AND DUP3 ADD DUP1 PUSH1 0x40 MSTORE POP DUP2 ADD SWAP1 PUSH2 0x40B4 SWAP2 SWAP1 PUSH2 0x56BE JUMP JUMPDEST DUP1 ISZERO PUSH2 0x4129 JUMPI POP PUSH1 0x40 MLOAD PUSH4 0xBD85B039 PUSH1 0xE0 SHL DUP2 MSTORE PUSH1 0x4 DUP2 ADD DUP9 SWAP1 MSTORE PUSH1 0x0 SWAP1 PUSH1 0x1 PUSH1 0x1 PUSH1 0xA0 SHL SUB DUP8 AND SWAP1 PUSH4 0xBD85B039 SWAP1 PUSH1 0x24 ADD PUSH1 0x20 PUSH1 0x40 MLOAD DUP1 DUP4 SUB DUP2 DUP7 GAS STATICCALL ISZERO DUP1 ISZERO PUSH2 0x4103 JUMPI RETURNDATASIZE PUSH1 0x0 DUP1 RETURNDATACOPY RETURNDATASIZE PUSH1 0x0 REVERT JUMPDEST POP POP POP POP PUSH1 0x40 MLOAD RETURNDATASIZE PUSH1 0x1F NOT PUSH1 0x1F DUP3 ADD AND DUP3 ADD DUP1 PUSH1 0x40 MSTORE POP DUP2 ADD SWAP1 PUSH2 0x4127 SWAP2 SWAP1 PUSH2 0x5D58 JUMP JUMPDEST GT JUMPDEST ISZERO PUSH2 0x413B JUMPI PUSH2 0x4020 DUP9 DUP7 DUP10 DUP8 DUP8 PUSH2 0x4281 JUMP JUMPDEST DUP6 MLOAD PUSH2 0x4147 SWAP1 DUP6 PUSH2 0x5EA6 JUMP JUMPDEST SWAP4 POP PUSH1 0x0 DUP1 JUMPDEST DUP8 MLOAD DUP2 LT ISZERO PUSH2 0x419C JUMPI PUSH2 0x417C DUP11 DUP9 DUP11 DUP5 DUP2 MLOAD DUP2 LT PUSH2 0x416D JUMPI PUSH2 0x416D PUSH2 0x50CA JUMP JUMPDEST PUSH1 0x20 MUL PUSH1 0x20 ADD ADD MLOAD DUP10 DUP10 PUSH2 0x4281 JUMP JUMPDEST SWAP2 POP PUSH2 0x4188 DUP3 DUP5 PUSH2 0x52EB JUMP JUMPDEST SWAP3 POP DUP1 PUSH2 0x4194 DUP2 PUSH2 0x50F6 JUMP JUMPDEST SWAP2 POP POP PUSH2 0x414D JUMP JUMPDEST POP POP JUMPDEST SWAP8 SWAP7 POP POP POP POP POP POP POP JUMP JUMPDEST PUSH1 0x0 PUSH2 0x41FF DUP3 PUSH1 0x40 MLOAD DUP1 PUSH1 0x40 ADD PUSH1 0x40 MSTORE DUP1 PUSH1 0x20 DUP2 MSTORE PUSH1 0x20 ADD PUSH32 0x5361666545524332303A206C6F772D6C6576656C2063616C6C206661696C6564 DUP2 MSTORE POP DUP6 PUSH1 0x1 PUSH1 0x1 PUSH1 0xA0 SHL SUB AND PUSH2 0x4456 SWAP1 SWAP3 SWAP2 SWAP1 PUSH4 0xFFFFFFFF AND JUMP JUMPDEST DUP1 MLOAD SWAP1 SWAP2 POP ISZERO PUSH2 0x427C JUMPI DUP1 DUP1 PUSH1 0x20 ADD SWAP1 MLOAD DUP2 ADD SWAP1 PUSH2 0x421D SWAP2 SWAP1 PUSH2 0x56BE JUMP JUMPDEST PUSH2 0x427C JUMPI PUSH1 0x40 MLOAD PUSH3 0x461BCD PUSH1 0xE5 SHL DUP2 MSTORE PUSH1 0x20 PUSH1 0x4 DUP3 ADD MSTORE PUSH1 0x2A PUSH1 0x24 DUP3 ADD MSTORE PUSH32 0x5361666545524332303A204552433230206F7065726174696F6E20646964206E PUSH1 0x44 DUP3 ADD MSTORE PUSH10 0x1BDD081CDD58D8D95959 PUSH1 0xB2 SHL PUSH1 0x64 DUP3 ADD MSTORE PUSH1 0x84 ADD PUSH2 0x73E JUMP JUMPDEST POP POP POP JUMP JUMPDEST PUSH1 0x9 SLOAD PUSH1 0x40 MLOAD PUSH4 0x6E44A72F PUSH1 0xE0 SHL DUP2 MSTORE PUSH1 0x0 SWAP2 DUP5 SWAP2 DUP4 SWAP2 DUP3 SWAP2 DUP3 SWAP2 PUSH1 0x1 PUSH1 0x1 PUSH1 0xA0 SHL SUB AND SWAP1 PUSH4 0x6E44A72F SWAP1 PUSH2 0x42BC SWAP1 DUP13 SWAP1 DUP13 SWAP1 PUSH1 0x4 ADD PUSH2 0x511F JUMP JUMPDEST PUSH1 0x0 PUSH1 0x40 MLOAD DUP1 DUP4 SUB DUP2 DUP7 GAS STATICCALL ISZERO DUP1 ISZERO PUSH2 0x42D9 JUMPI RETURNDATASIZE PUSH1 0x0 DUP1 RETURNDATACOPY RETURNDATASIZE PUSH1 0x0 REVERT JUMPDEST POP POP POP POP PUSH1 0x40 MLOAD RETURNDATASIZE PUSH1 0x0 DUP3 RETURNDATACOPY PUSH1 0x1F RETURNDATASIZE SWAP1 DUP2 ADD PUSH1 0x1F NOT AND DUP3 ADD PUSH1 0x40 MSTORE PUSH2 0x4301 SWAP2 SWAP1 DUP2 ADD SWAP1 PUSH2 0x51C6 JUMP JUMPDEST DUP2 MLOAD SWAP2 SWAP4 POP SWAP2 POP PUSH1 0x0 DUP2 SWAP1 SUB PUSH2 0x431E JUMPI DUP8 SWAP6 POP POP POP POP POP POP PUSH2 0x444D JUMP JUMPDEST PUSH1 0x0 JUMPDEST DUP2 DUP2 LT ISZERO PUSH2 0x4444 JUMPI PUSH1 0x0 DUP5 DUP3 DUP2 MLOAD DUP2 LT PUSH2 0x433D JUMPI PUSH2 0x433D PUSH2 0x50CA JUMP JUMPDEST PUSH1 0x20 MUL PUSH1 0x20 ADD ADD MLOAD SWAP1 POP PUSH2 0x2710 DUP11 DUP6 DUP5 DUP2 MLOAD DUP2 LT PUSH2 0x435D JUMPI PUSH2 0x435D PUSH2 0x50CA JUMP JUMPDEST PUSH1 0x20 MUL PUSH1 0x20 ADD ADD MLOAD PUSH2 0x436F SWAP2 SWAP1 PUSH2 0x5737 JUMP JUMPDEST PUSH2 0x4379 SWAP2 SWAP1 PUSH2 0x5EA6 JUMP JUMPDEST SWAP6 POP DUP6 DUP8 LT ISZERO PUSH2 0x43D9 JUMPI PUSH1 0x40 MLOAD PUSH3 0x461BCD PUSH1 0xE5 SHL DUP2 MSTORE PUSH1 0x20 PUSH1 0x4 DUP3 ADD MSTORE PUSH1 0x25 PUSH1 0x24 DUP3 ADD MSTORE PUSH32 0x696E736F6C76656E743A20756E61626C6520746F20636F6D706C65746520726F PUSH1 0x44 DUP3 ADD MSTORE PUSH5 0x79616C7479 PUSH1 0xD8 SHL PUSH1 0x64 DUP3 ADD MSTORE PUSH1 0x84 ADD PUSH2 0x73E JUMP JUMPDEST PUSH2 0x43E5 DUP14 DUP3 DUP12 DUP10 PUSH2 0x3B1A JUMP JUMPDEST PUSH1 0x40 DUP1 MLOAD PUSH1 0x1 PUSH1 0x1 PUSH1 0xA0 SHL SUB DUP15 DUP2 AND DUP3 MSTORE PUSH1 0x20 DUP3 ADD DUP15 SWAP1 MSTORE DUP4 AND DUP2 DUP4 ADD MSTORE PUSH1 0x60 DUP2 ADD DUP9 SWAP1 MSTORE SWAP1 MLOAD PUSH32 0x866E6EF8682DDF5F1025E64DFDB45527077F7BE70FA9EF680B7FFD8CF4AB9C50 SWAP2 DUP2 SWAP1 SUB PUSH1 0x80 ADD SWAP1 LOG1 POP SWAP5 DUP5 SWAP1 SUB SWAP5 PUSH1 0x1 ADD PUSH2 0x4321 JUMP JUMPDEST POP SWAP4 SWAP5 POP POP POP POP POP JUMPDEST SWAP6 SWAP5 POP POP POP POP POP JUMP JUMPDEST PUSH1 0x60 PUSH2 0x4465 DUP5 DUP5 PUSH1 0x0 DUP6 PUSH2 0x446D JUMP JUMPDEST SWAP5 SWAP4 POP POP POP POP JUMP JUMPDEST PUSH1 0x60 DUP3 SELFBALANCE LT ISZERO PUSH2 0x44CE JUMPI PUSH1 0x40 MLOAD PUSH3 0x461BCD PUSH1 0xE5 SHL DUP2 MSTORE PUSH1 0x20 PUSH1 0x4 DUP3 ADD MSTORE PUSH1 0x26 PUSH1 0x24 DUP3 ADD MSTORE PUSH32 0x416464726573733A20696E73756666696369656E742062616C616E636520666F PUSH1 0x44 DUP3 ADD MSTORE PUSH6 0x1C8818D85B1B PUSH1 0xD2 SHL PUSH1 0x64 DUP3 ADD MSTORE PUSH1 0x84 ADD PUSH2 0x73E JUMP JUMPDEST DUP5 EXTCODESIZE PUSH2 0x451C JUMPI PUSH1 0x40 MLOAD PUSH3 0x461BCD PUSH1 0xE5 SHL DUP2 MSTORE PUSH1 0x20 PUSH1 0x4 DUP3 ADD MSTORE PUSH1 0x1D PUSH1 0x24 DUP3 ADD MSTORE PUSH32 0x416464726573733A2063616C6C20746F206E6F6E2D636F6E7472616374000000 PUSH1 0x44 DUP3 ADD MSTORE PUSH1 0x64 ADD PUSH2 0x73E JUMP JUMPDEST PUSH1 0x0 DUP1 DUP7 PUSH1 0x1 PUSH1 0x1 PUSH1 0xA0 SHL SUB AND DUP6 DUP8 PUSH1 0x40 MLOAD PUSH2 0x4538 SWAP2 SWAP1 PUSH2 0x4E92 JUMP JUMPDEST PUSH1 0x0 PUSH1 0x40 MLOAD DUP1 DUP4 SUB DUP2 DUP6 DUP8 GAS CALL SWAP3 POP POP POP RETURNDATASIZE DUP1 PUSH1 0x0 DUP2 EQ PUSH2 0x4575 JUMPI PUSH1 0x40 MLOAD SWAP2 POP PUSH1 0x1F NOT PUSH1 0x3F RETURNDATASIZE ADD AND DUP3 ADD PUSH1 0x40 MSTORE RETURNDATASIZE DUP3 MSTORE RETURNDATASIZE PUSH1 0x0 PUSH1 0x20 DUP5 ADD RETURNDATACOPY PUSH2 0x457A JUMP JUMPDEST PUSH1 0x60 SWAP2 POP JUMPDEST POP SWAP2 POP SWAP2 POP PUSH2 0x419F DUP3 DUP3 DUP7 PUSH1 0x60 DUP4 ISZERO PUSH2 0x4594 JUMPI POP DUP2 PUSH2 0x2643 JUMP JUMPDEST DUP3 MLOAD ISZERO PUSH2 0x45A4 JUMPI DUP3 MLOAD DUP1 DUP5 PUSH1 0x20 ADD REVERT JUMPDEST DUP2 PUSH1 0x40 MLOAD PUSH3 0x461BCD PUSH1 0xE5 SHL DUP2 MSTORE PUSH1 0x4 ADD PUSH2 0x73E SWAP2 SWAP1 PUSH2 0x5EDE JUMP JUMPDEST POP DUP1 SLOAD PUSH1 0x0 DUP3 SSTORE SWAP1 PUSH1 0x0 MSTORE PUSH1 0x20 PUSH1 0x0 KECCAK256 SWAP1 DUP2 ADD SWAP1 PUSH2 0x9E5 SWAP2 SWAP1 PUSH2 0x4676 JUMP JUMPDEST DUP3 DUP1 SLOAD DUP3 DUP3 SSTORE SWAP1 PUSH1 0x0 MSTORE PUSH1 0x20 PUSH1 0x0 KECCAK256 SWAP1 DUP2 ADD SWAP3 DUP3 ISZERO PUSH2 0x4617 JUMPI SWAP2 PUSH1 0x20 MUL DUP3 ADD JUMPDEST DUP3 DUP2 GT ISZERO PUSH2 0x4617 JUMPI DUP3 CALLDATALOAD DUP3 SSTORE SWAP2 PUSH1 0x20 ADD SWAP2 SWAP1 PUSH1 0x1 ADD SWAP1 PUSH2 0x45FC JUMP JUMPDEST POP PUSH2 0xA92 SWAP3 SWAP2 POP PUSH2 0x4676 JUMP JUMPDEST DUP3 DUP1 SLOAD DUP3 DUP3 SSTORE SWAP1 PUSH1 0x0 MSTORE PUSH1 0x20 PUSH1 0x0 KECCAK256 SWAP1 DUP2 ADD SWAP3 DUP3 ISZERO PUSH2 0x4617 JUMPI SWAP2 PUSH1 0x20 MUL DUP3 ADD JUMPDEST DUP3 DUP2 GT ISZERO PUSH2 0x4617 JUMPI DUP2 SLOAD PUSH1 0x1 PUSH1 0x1 PUSH1 0xA0 SHL SUB NOT AND PUSH1 0x1 PUSH1 0x1 PUSH1 0xA0 SHL SUB DUP5 CALLDATALOAD AND OR DUP3 SSTORE PUSH1 0x20 SWAP1 SWAP3 ADD SWAP2 PUSH1 0x1 SWAP1 SWAP2 ADD SWAP1 PUSH2 0x4643 JUMP JUMPDEST JUMPDEST DUP1 DUP3 GT ISZERO PUSH2 0xA92 JUMPI PUSH1 0x0 DUP2 SSTORE PUSH1 0x1 ADD PUSH2 0x4677 JUMP JUMPDEST PUSH1 0x0 PUSH1 0x20 DUP3 DUP5 SUB SLT ISZERO PUSH2 0x469D JUMPI PUSH1 0x0 DUP1 REVERT JUMPDEST DUP2 CALLDATALOAD PUSH1 0x1 PUSH1 0x1 PUSH1 0xE0 SHL SUB NOT DUP2 AND DUP2 EQ PUSH2 0x2643 JUMPI PUSH1 0x0 DUP1 REVERT JUMPDEST PUSH1 0x1 PUSH1 0x1 PUSH1 0x40 SHL SUB DUP2 AND DUP2 EQ PUSH2 0x9E5 JUMPI PUSH1 0x0 DUP1 REVERT JUMPDEST DUP1 CALLDATALOAD PUSH2 0x46D5 DUP2 PUSH2 0x46B5 JUMP JUMPDEST SWAP2 SWAP1 POP JUMP JUMPDEST PUSH1 0x0 PUSH1 0x20 DUP3 DUP5 SUB SLT ISZERO PUSH2 0x46EC JUMPI PUSH1 0x0 DUP1 REVERT JUMPDEST DUP2 CALLDATALOAD PUSH2 0x2643 DUP2 PUSH2 0x46B5 JUMP JUMPDEST PUSH1 0x1 PUSH1 0x1 PUSH1 0xA0 SHL SUB DUP2 AND DUP2 EQ PUSH2 0x9E5 JUMPI PUSH1 0x0 DUP1 REVERT JUMPDEST DUP1 CALLDATALOAD PUSH2 0x46D5 DUP2 PUSH2 0x46F7 JUMP JUMPDEST PUSH1 0x0 PUSH1 0x20 DUP3 DUP5 SUB SLT ISZERO PUSH2 0x4729 JUMPI PUSH1 0x0 DUP1 REVERT JUMPDEST DUP2 CALLDATALOAD PUSH2 0x2643 DUP2 PUSH2 0x46F7 JUMP JUMPDEST PUSH4 0x4E487B71 PUSH1 0xE0 SHL PUSH1 0x0 MSTORE PUSH1 0x41 PUSH1 0x4 MSTORE PUSH1 0x24 PUSH1 0x0 REVERT JUMPDEST PUSH1 0x40 MLOAD PUSH2 0x100 DUP2 ADD PUSH1 0x1 PUSH1 0x1 PUSH1 0x40 SHL SUB DUP2 GT DUP3 DUP3 LT OR ISZERO PUSH2 0x476D JUMPI PUSH2 0x476D PUSH2 0x4734 JUMP JUMPDEST PUSH1 0x40 MSTORE SWAP1 JUMP JUMPDEST PUSH1 0x40 MLOAD PUSH1 0x1F DUP3 ADD PUSH1 0x1F NOT AND DUP2 ADD PUSH1 0x1 PUSH1 0x1 PUSH1 0x40 SHL SUB DUP2 GT DUP3 DUP3 LT OR ISZERO PUSH2 0x479B JUMPI PUSH2 0x479B PUSH2 0x4734 JUMP JUMPDEST PUSH1 0x40 MSTORE SWAP2 SWAP1 POP JUMP JUMPDEST PUSH1 0x0 DUP3 PUSH1 0x1F DUP4 ADD SLT PUSH2 0x47B4 JUMPI PUSH1 0x0 DUP1 REVERT JUMPDEST DUP2 CALLDATALOAD PUSH1 0x1 PUSH1 0x1 PUSH1 0x40 SHL SUB DUP2 GT ISZERO PUSH2 0x47CD JUMPI PUSH2 0x47CD PUSH2 0x4734 JUMP JUMPDEST PUSH2 0x47E0 PUSH1 0x1F DUP3 ADD PUSH1 0x1F NOT AND PUSH1 0x20 ADD PUSH2 0x4773 JUMP JUMPDEST DUP2 DUP2 MSTORE DUP5 PUSH1 0x20 DUP4 DUP7 ADD ADD GT ISZERO PUSH2 0x47F5 JUMPI PUSH1 0x0 DUP1 REVERT JUMPDEST DUP2 PUSH1 0x20 DUP6 ADD PUSH1 0x20 DUP4 ADD CALLDATACOPY PUSH1 0x0 SWAP2 DUP2 ADD PUSH1 0x20 ADD SWAP2 SWAP1 SWAP2 MSTORE SWAP4 SWAP3 POP POP POP JUMP JUMPDEST PUSH1 0x0 PUSH1 0x20 DUP3 DUP5 SUB SLT ISZERO PUSH2 0x4824 JUMPI PUSH1 0x0 DUP1 REVERT JUMPDEST DUP2 CALLDATALOAD PUSH1 0x1 PUSH1 0x1 PUSH1 0x40 SHL SUB DUP2 GT ISZERO PUSH2 0x483A JUMPI PUSH1 0x0 DUP1 REVERT JUMPDEST PUSH2 0x4465 DUP5 DUP3 DUP6 ADD PUSH2 0x47A3 JUMP JUMPDEST PUSH1 0x1 PUSH1 0x1 PUSH1 0xA0 SHL SUB AND SWAP1 MSTORE JUMP JUMPDEST PUSH1 0x0 DUP2 MLOAD DUP1 DUP5 MSTORE PUSH1 0x20 DUP1 DUP6 ADD SWAP5 POP DUP1 DUP5 ADD PUSH1 0x0 JUMPDEST DUP4 DUP2 LT ISZERO PUSH2 0x488C JUMPI DUP2 MLOAD PUSH1 0x1 PUSH1 0x1 PUSH1 0xA0 SHL SUB AND DUP8 MSTORE SWAP6 DUP3 ADD SWAP6 SWAP1 DUP3 ADD SWAP1 PUSH1 0x1 ADD PUSH2 0x4867 JUMP JUMPDEST POP SWAP5 SWAP6 SWAP5 POP POP POP POP POP JUMP JUMPDEST PUSH1 0x20 DUP2 MSTORE PUSH1 0x0 PUSH2 0x2643 PUSH1 0x20 DUP4 ADD DUP5 PUSH2 0x4853 JUMP JUMPDEST PUSH1 0x0 DUP1 DUP4 PUSH1 0x1F DUP5 ADD SLT PUSH2 0x48BC JUMPI PUSH1 0x0 DUP1 REVERT JUMPDEST POP DUP2 CALLDATALOAD PUSH1 0x1 PUSH1 0x1 PUSH1 0x40 SHL SUB DUP2 GT ISZERO PUSH2 0x48D3 JUMPI PUSH1 0x0 DUP1 REVERT JUMPDEST PUSH1 0x20 DUP4 ADD SWAP2 POP DUP4 PUSH1 0x20 DUP3 DUP6 ADD ADD GT ISZERO PUSH2 0x48EB JUMPI PUSH1 0x0 DUP1 REVERT JUMPDEST SWAP3 POP SWAP3 SWAP1 POP JUMP JUMPDEST PUSH1 0x0 DUP1 PUSH1 0x20 DUP4 DUP6 SUB SLT ISZERO PUSH2 0x4905 JUMPI PUSH1 0x0 DUP1 REVERT JUMPDEST DUP3 CALLDATALOAD PUSH1 0x1 PUSH1 0x1 PUSH1 0x40 SHL SUB DUP2 GT ISZERO PUSH2 0x491B JUMPI PUSH1 0x0 DUP1 REVERT JUMPDEST PUSH2 0x4927 DUP6 DUP3 DUP7 ADD PUSH2 0x48AA JUMP JUMPDEST SWAP1 SWAP7 SWAP1 SWAP6 POP SWAP4 POP POP POP POP JUMP JUMPDEST PUSH1 0x0 DUP1 PUSH1 0x40 DUP4 DUP6 SUB SLT ISZERO PUSH2 0x4946 JUMPI PUSH1 0x0 DUP1 REVERT JUMPDEST DUP3 CALLDATALOAD PUSH2 0x4951 DUP2 PUSH2 0x46F7 JUMP JUMPDEST SWAP5 PUSH1 0x20 SWAP4 SWAP1 SWAP4 ADD CALLDATALOAD SWAP4 POP POP POP JUMP JUMPDEST PUSH1 0x0 DUP2 MLOAD DUP1 DUP5 MSTORE PUSH1 0x20 DUP1 DUP6 ADD SWAP5 POP DUP1 DUP5 ADD PUSH1 0x0 JUMPDEST DUP4 DUP2 LT ISZERO PUSH2 0x488C JUMPI DUP2 MLOAD DUP8 MSTORE SWAP6 DUP3 ADD SWAP6 SWAP1 DUP3 ADD SWAP1 PUSH1 0x1 ADD PUSH2 0x4973 JUMP JUMPDEST PUSH1 0x40 DUP1 DUP3 MSTORE DUP4 MLOAD SWAP1 DUP3 ADD DUP2 SWAP1 MSTORE PUSH1 0x0 SWAP1 PUSH1 0x20 SWAP1 PUSH1 0x60 DUP5 ADD SWAP1 DUP3 DUP8 ADD DUP5 JUMPDEST DUP3 DUP2 LT ISZERO PUSH2 0x49D1 JUMPI DUP2 MLOAD PUSH1 0x1 PUSH1 0x1 PUSH1 0xA0 SHL SUB AND DUP5 MSTORE SWAP3 DUP5 ADD SWAP3 SWAP1 DUP5 ADD SWAP1 PUSH1 0x1 ADD PUSH2 0x49AC JUMP JUMPDEST POP POP POP DUP4 DUP2 SUB DUP3 DUP6 ADD MSTORE PUSH2 0x49E5 DUP2 DUP7 PUSH2 0x495F JUMP JUMPDEST SWAP7 SWAP6 POP POP POP POP POP POP JUMP JUMPDEST PUSH1 0x1 DUP1 PUSH1 0xA0 SHL SUB DUP1 DUP3 MLOAD AND DUP4 MSTORE DUP1 PUSH1 0x20 DUP4 ADD MLOAD AND PUSH1 0x20 DUP5 ADD MSTORE DUP1 PUSH1 0x40 DUP4 ADD MLOAD AND PUSH1 0x40 DUP5 ADD MSTORE PUSH1 0x60 DUP3 ADD MLOAD PUSH2 0xFFFF DUP1 DUP3 AND PUSH1 0x60 DUP7 ADD MSTORE DUP3 PUSH1 0x80 DUP6 ADD MLOAD AND PUSH1 0x80 DUP7 ADD MSTORE DUP1 PUSH1 0xA0 DUP6 ADD MLOAD AND PUSH1 0xA0 DUP7 ADD MSTORE POP POP POP POP POP JUMP JUMPDEST PUSH4 0x4E487B71 PUSH1 0xE0 SHL PUSH1 0x0 MSTORE PUSH1 0x21 PUSH1 0x4 MSTORE PUSH1 0x24 PUSH1 0x0 REVERT JUMPDEST PUSH1 0x2 DUP2 LT PUSH2 0x9E5 JUMPI PUSH4 0x4E487B71 PUSH1 0xE0 SHL PUSH1 0x0 MSTORE PUSH1 0x21 PUSH1 0x4 MSTORE PUSH1 0x24 PUSH1 0x0 REVERT JUMPDEST PUSH2 0x4A80 DUP2 PUSH2 0x4A59 JUMP JUMPDEST SWAP1 MSTORE JUMP JUMPDEST PUSH1 0x1 PUSH1 0x1 PUSH1 0xA0 SHL SUB DUP10 AND DUP2 MSTORE PUSH1 0x1 PUSH1 0x1 PUSH1 0x40 SHL SUB DUP9 DUP2 AND PUSH1 0x20 DUP4 ADD MSTORE DUP8 DUP2 AND PUSH1 0x40 DUP4 ADD MSTORE PUSH1 0x60 DUP3 ADD DUP8 SWAP1 MSTORE PUSH2 0x1A0 DUP3 ADD SWAP1 PUSH2 0x4AC2 PUSH1 0x80 DUP5 ADD DUP9 PUSH2 0x49EF JUMP JUMPDEST DUP6 AND PUSH2 0x140 DUP4 ADD MSTORE PUSH2 0x4AD3 DUP5 PUSH2 0x4A59 JUMP JUMPDEST DUP4 PUSH2 0x160 DUP4 ADD MSTORE PUSH2 0x4AE3 DUP4 PUSH2 0x4A59 JUMP JUMPDEST DUP3 PUSH2 0x180 DUP4 ADD MSTORE SWAP10 SWAP9 POP POP POP POP POP POP POP POP POP JUMP JUMPDEST PUSH1 0x1 PUSH1 0x1 PUSH1 0xA0 SHL SUB SWAP2 SWAP1 SWAP2 AND DUP2 MSTORE PUSH1 0x20 ADD SWAP1 JUMP JUMPDEST PUSH1 0x0 DUP1 PUSH1 0x40 DUP4 DUP6 SUB SLT ISZERO PUSH2 0x4B1E JUMPI PUSH1 0x0 DUP1 REVERT JUMPDEST DUP3 CALLDATALOAD PUSH1 0x1 PUSH1 0x1 PUSH1 0x40 SHL SUB DUP1 DUP3 GT ISZERO PUSH2 0x4B35 JUMPI PUSH1 0x0 DUP1 REVERT JUMPDEST SWAP1 DUP5 ADD SWAP1 PUSH2 0x100 DUP3 DUP8 SUB SLT ISZERO PUSH2 0x4B4A JUMPI PUSH1 0x0 DUP1 REVERT JUMPDEST PUSH2 0x4B52 PUSH2 0x474A JUMP JUMPDEST DUP3 CALLDATALOAD DUP3 DUP2 GT ISZERO PUSH2 0x4B61 JUMPI PUSH1 0x0 DUP1 REVERT JUMPDEST PUSH2 0x4B6D DUP9 DUP3 DUP7 ADD PUSH2 0x47A3 JUMP JUMPDEST DUP3 MSTORE POP PUSH2 0x4B7C PUSH1 0x20 DUP5 ADD PUSH2 0x470C JUMP JUMPDEST PUSH1 0x20 DUP3 ADD MSTORE PUSH1 0x40 DUP4 ADD CALLDATALOAD PUSH1 0x40 DUP3 ADD MSTORE PUSH2 0x4B97 PUSH1 0x60 DUP5 ADD PUSH2 0x46CA JUMP JUMPDEST PUSH1 0x60 DUP3 ADD MSTORE PUSH2 0x4BA8 PUSH1 0x80 DUP5 ADD PUSH2 0x470C JUMP JUMPDEST PUSH1 0x80 DUP3 ADD MSTORE PUSH2 0x4BB9 PUSH1 0xA0 DUP5 ADD PUSH2 0x46CA JUMP JUMPDEST PUSH1 0xA0 DUP3 ADD MSTORE PUSH2 0x4BCA PUSH1 0xC0 DUP5 ADD PUSH2 0x470C JUMP JUMPDEST PUSH1 0xC0 DUP3 ADD MSTORE PUSH1 0xE0 SWAP3 DUP4 ADD CALLDATALOAD SWAP3 DUP2 ADD SWAP3 SWAP1 SWAP3 MSTORE POP SWAP5 PUSH1 0x20 SWAP4 SWAP1 SWAP4 ADD CALLDATALOAD SWAP4 POP POP POP JUMP JUMPDEST PUSH1 0x20 DUP2 MSTORE PUSH1 0x0 PUSH2 0x2643 PUSH1 0x20 DUP4 ADD DUP5 PUSH2 0x495F JUMP JUMPDEST PUSH1 0x0 DUP1 PUSH1 0x0 PUSH1 0x40 DUP5 DUP7 SUB SLT ISZERO PUSH2 0x4C13 JUMPI PUSH1 0x0 DUP1 REVERT JUMPDEST DUP4 CALLDATALOAD PUSH1 0x1 PUSH1 0x1 PUSH1 0x40 SHL SUB DUP2 GT ISZERO PUSH2 0x4C29 JUMPI PUSH1 0x0 DUP1 REVERT JUMPDEST PUSH2 0x4C35 DUP7 DUP3 DUP8 ADD PUSH2 0x48AA JUMP JUMPDEST SWAP1 SWAP5 POP SWAP3 POP POP PUSH1 0x20 DUP5 ADD CALLDATALOAD PUSH2 0x4C49 DUP2 PUSH2 0x46F7 JUMP JUMPDEST DUP1 SWAP2 POP POP SWAP3 POP SWAP3 POP SWAP3 JUMP JUMPDEST PUSH2 0xFFFF DUP2 AND DUP2 EQ PUSH2 0x9E5 JUMPI PUSH1 0x0 DUP1 REVERT JUMPDEST PUSH1 0x0 PUSH1 0x20 DUP3 DUP5 SUB SLT ISZERO PUSH2 0x4C76 JUMPI PUSH1 0x0 DUP1 REVERT JUMPDEST DUP2 CALLDATALOAD PUSH2 0x2643 DUP2 PUSH2 0x4C54 JUMP JUMPDEST PUSH1 0x40 DUP2 MSTORE PUSH1 0x0 PUSH2 0x4C94 PUSH1 0x40 DUP4 ADD DUP6 PUSH2 0x495F JUMP JUMPDEST DUP3 DUP2 SUB PUSH1 0x20 DUP5 ADD MSTORE PUSH2 0x444D DUP2 DUP6 PUSH2 0x4853 JUMP JUMPDEST PUSH1 0x2 DUP2 LT PUSH2 0x9E5 JUMPI PUSH1 0x0 DUP1 REVERT JUMPDEST DUP1 CALLDATALOAD PUSH2 0x46D5 DUP2 PUSH2 0x4CA6 JUMP JUMPDEST PUSH1 0x0 DUP1 DUP4 PUSH1 0x1F DUP5 ADD SLT PUSH2 0x4CD0 JUMPI PUSH1 0x0 DUP1 REVERT JUMPDEST POP DUP2 CALLDATALOAD PUSH1 0x1 PUSH1 0x1 PUSH1 0x40 SHL SUB DUP2 GT ISZERO PUSH2 0x4CE7 JUMPI PUSH1 0x0 DUP1 REVERT JUMPDEST PUSH1 0x20 DUP4 ADD SWAP2 POP DUP4 PUSH1 0x20 DUP3 PUSH1 0x5 SHL DUP6 ADD ADD GT ISZERO PUSH2 0x48EB JUMPI PUSH1 0x0 DUP1 REVERT JUMPDEST PUSH1 0x0 DUP1 PUSH1 0x0 DUP1 PUSH1 0x0 DUP1 PUSH1 0x0 DUP1 PUSH1 0xA0 DUP10 DUP12 SUB SLT ISZERO PUSH2 0x4D1E JUMPI PUSH1 0x0 DUP1 REVERT JUMPDEST DUP9 CALLDATALOAD PUSH1 0x1 PUSH1 0x1 PUSH1 0x40 SHL SUB DUP1 DUP3 GT ISZERO PUSH2 0x4D35 JUMPI PUSH1 0x0 DUP1 REVERT JUMPDEST PUSH2 0x4D41 DUP13 DUP4 DUP14 ADD PUSH2 0x48AA JUMP JUMPDEST SWAP1 SWAP11 POP SWAP9 POP PUSH1 0x20 DUP12 ADD CALLDATALOAD SWAP2 POP PUSH2 0x4D56 DUP3 PUSH2 0x4CA6 JUMP JUMPDEST SWAP1 SWAP7 POP PUSH1 0x40 DUP11 ADD CALLDATALOAD SWAP6 POP PUSH1 0x60 DUP11 ADD CALLDATALOAD SWAP1 DUP1 DUP3 GT ISZERO PUSH2 0x4D73 JUMPI PUSH1 0x0 DUP1 REVERT JUMPDEST PUSH2 0x4D7F DUP13 DUP4 DUP14 ADD PUSH2 0x4CBE JUMP JUMPDEST SWAP1 SWAP7 POP SWAP5 POP PUSH1 0x80 DUP12 ADD CALLDATALOAD SWAP2 POP DUP1 DUP3 GT ISZERO PUSH2 0x4D98 JUMPI PUSH1 0x0 DUP1 REVERT JUMPDEST POP PUSH2 0x4DA5 DUP12 DUP3 DUP13 ADD PUSH2 0x4CBE JUMP JUMPDEST SWAP10 SWAP13 SWAP9 SWAP12 POP SWAP7 SWAP10 POP SWAP5 SWAP8 SWAP4 SWAP7 SWAP3 SWAP6 SWAP5 POP POP POP JUMP JUMPDEST PUSH1 0x0 DUP1 PUSH1 0x0 PUSH1 0x40 DUP5 DUP7 SUB SLT ISZERO PUSH2 0x4DCE JUMPI PUSH1 0x0 DUP1 REVERT JUMPDEST DUP4 CALLDATALOAD PUSH1 0x1 PUSH1 0x1 PUSH1 0x40 SHL SUB DUP1 DUP3 GT ISZERO PUSH2 0x4DE5 JUMPI PUSH1 0x0 DUP1 REVERT JUMPDEST SWAP1 DUP6 ADD SWAP1 PUSH2 0x1E0 DUP3 DUP9 SUB SLT ISZERO PUSH2 0x4DFA JUMPI PUSH1 0x0 DUP1 REVERT JUMPDEST SWAP1 SWAP4 POP PUSH1 0x20 DUP6 ADD CALLDATALOAD SWAP1 DUP1 DUP3 GT ISZERO PUSH2 0x4E10 JUMPI PUSH1 0x0 DUP1 REVERT JUMPDEST POP PUSH2 0x4E1D DUP7 DUP3 DUP8 ADD PUSH2 0x48AA JUMP JUMPDEST SWAP5 SWAP8 SWAP1 SWAP7 POP SWAP4 SWAP5 POP POP POP POP JUMP JUMPDEST PUSH1 0x20 DUP1 DUP3 MSTORE PUSH1 0x24 SWAP1 DUP3 ADD MSTORE PUSH32 0x41646D696E436F6E74726F6C3A204D757374206265206F776E6572206F722061 PUSH1 0x40 DUP3 ADD MSTORE PUSH4 0x3236B4B7 PUSH1 0xE1 SHL PUSH1 0x60 DUP3 ADD MSTORE PUSH1 0x80 ADD SWAP1 JUMP JUMPDEST PUSH1 0x0 JUMPDEST DUP4 DUP2 LT ISZERO PUSH2 0x4E89 JUMPI DUP2 DUP2 ADD MLOAD DUP4 DUP3 ADD MSTORE PUSH1 0x20 ADD PUSH2 0x4E71 JUMP JUMPDEST POP POP PUSH1 0x0 SWAP2 ADD MSTORE JUMP JUMPDEST PUSH1 0x0 DUP3 MLOAD PUSH2 0x4EA4 DUP2 DUP5 PUSH1 0x20 DUP8 ADD PUSH2 0x4E6E JUMP JUMPDEST SWAP2 SWAP1 SWAP2 ADD SWAP3 SWAP2 POP POP JUMP JUMPDEST PUSH1 0x20 DUP1 DUP3 MSTORE PUSH1 0x37 SWAP1 DUP3 ADD MSTORE PUSH32 0x7468652073616C65496420796F75206861766520656E74657265642069732069 PUSH1 0x40 DUP3 ADD MSTORE PUSH23 0x6E76616C69642E20506C656173652076616C6964617465 PUSH1 0x48 SHL PUSH1 0x60 DUP3 ADD MSTORE PUSH1 0x80 ADD SWAP1 JUMP JUMPDEST PUSH1 0x0 DUP2 SLOAD DUP1 DUP5 MSTORE PUSH1 0x20 DUP1 DUP6 ADD SWAP5 POP DUP4 PUSH1 0x0 MSTORE DUP1 PUSH1 0x0 KECCAK256 PUSH1 0x0 JUMPDEST DUP4 DUP2 LT ISZERO PUSH2 0x488C JUMPI DUP2 SLOAD DUP8 MSTORE SWAP6 DUP3 ADD SWAP6 PUSH1 0x1 SWAP2 DUP3 ADD SWAP2 ADD PUSH2 0x4F1E JUMP JUMPDEST PUSH1 0x0 DUP2 SLOAD DUP1 DUP5 MSTORE PUSH1 0x20 DUP1 DUP6 ADD SWAP5 POP DUP4 PUSH1 0x0 MSTORE DUP1 PUSH1 0x0 KECCAK256 PUSH1 0x0 JUMPDEST DUP4 DUP2 LT ISZERO PUSH2 0x488C JUMPI DUP2 SLOAD PUSH1 0x1 PUSH1 0x1 PUSH1 0xA0 SHL SUB AND DUP8 MSTORE SWAP6 DUP3 ADD SWAP6 PUSH1 0x1 SWAP2 DUP3 ADD SWAP2 ADD PUSH2 0x4F53 JUMP JUMPDEST PUSH1 0x20 DUP1 DUP3 MSTORE DUP3 SLOAD PUSH1 0x0 SWAP2 PUSH2 0x4F97 SWAP1 DUP5 ADD PUSH1 0x1 PUSH1 0x1 PUSH1 0xA0 SHL SUB DUP4 AND PUSH2 0x4846 JUMP JUMPDEST PUSH1 0x1 PUSH1 0x1 PUSH1 0x40 SHL SUB PUSH1 0xA0 SWAP2 DUP3 SHR DUP2 AND PUSH1 0x40 DUP6 ADD MSTORE PUSH1 0x1 DUP6 ADD SLOAD DUP2 AND PUSH1 0x60 DUP6 ADD MSTORE PUSH1 0x2 DUP6 ADD SLOAD PUSH1 0x80 DUP6 ADD MSTORE PUSH2 0x1E0 SWAP2 DUP5 ADD DUP3 SWAP1 MSTORE PUSH2 0x4FDB PUSH2 0x200 DUP6 ADD PUSH1 0x3 DUP8 ADD PUSH2 0x4F05 JUMP JUMPDEST DUP5 DUP2 SUB PUSH1 0x1F NOT ADD PUSH1 0xC0 DUP7 ADD MSTORE PUSH2 0x4FF4 DUP2 PUSH1 0x4 DUP9 ADD PUSH2 0x4F3A JUMP JUMPDEST PUSH1 0x5 DUP8 ADD SLOAD PUSH1 0x1 PUSH1 0x1 PUSH1 0xA0 SHL SUB SWAP1 DUP2 AND PUSH1 0xE0 DUP9 ADD MSTORE PUSH1 0x6 DUP9 ADD SLOAD DUP2 AND PUSH2 0x100 DUP9 ADD MSTORE PUSH1 0x7 DUP9 ADD SLOAD DUP1 DUP3 AND PUSH2 0x120 DUP10 ADD MSTORE PUSH2 0xFFFF PUSH1 0xA0 SWAP2 DUP3 SHR DUP2 AND PUSH2 0x140 DUP11 ADD MSTORE PUSH1 0x8 DUP11 ADD SLOAD SWAP3 DUP4 AND PUSH2 0x160 DUP11 ADD MSTORE SWAP2 SWAP1 SHR AND PUSH2 0x180 DUP8 ADD MSTORE SWAP1 POP PUSH1 0x9 DUP7 ADD SLOAD PUSH1 0x1 PUSH1 0x1 PUSH1 0x40 SHL SUB DUP4 DUP3 AND AND PUSH2 0x1A0 DUP8 ADD MSTORE PUSH2 0x5079 PUSH2 0x1C0 DUP8 ADD PUSH1 0xFF DUP4 PUSH1 0x40 SHR AND PUSH2 0x4A77 JUMP JUMPDEST PUSH2 0x508B DUP5 DUP8 ADD PUSH1 0xFF DUP4 PUSH1 0x48 SHR AND PUSH2 0x4A77 JUMP JUMPDEST POP SWAP6 SWAP5 POP POP POP POP POP JUMP JUMPDEST PUSH1 0x20 DUP1 DUP3 MSTORE DUP2 DUP2 ADD MSTORE PUSH32 0x4F776E61626C653A2063616C6C6572206973206E6F7420746865206F776E6572 PUSH1 0x40 DUP3 ADD MSTORE PUSH1 0x60 ADD SWAP1 JUMP JUMPDEST PUSH4 0x4E487B71 PUSH1 0xE0 SHL PUSH1 0x0 MSTORE PUSH1 0x32 PUSH1 0x4 MSTORE PUSH1 0x24 PUSH1 0x0 REVERT JUMPDEST PUSH4 0x4E487B71 PUSH1 0xE0 SHL PUSH1 0x0 MSTORE PUSH1 0x11 PUSH1 0x4 MSTORE PUSH1 0x24 PUSH1 0x0 REVERT JUMPDEST PUSH1 0x0 PUSH1 0x1 DUP3 ADD PUSH2 0x5108 JUMPI PUSH2 0x5108 PUSH2 0x50E0 JUMP JUMPDEST POP PUSH1 0x1 ADD SWAP1 JUMP JUMPDEST DUP2 DUP4 DUP3 CALLDATACOPY PUSH1 0x0 SWAP2 ADD SWAP1 DUP2 MSTORE SWAP2 SWAP1 POP JUMP JUMPDEST PUSH1 0x1 PUSH1 0x1 PUSH1 0xA0 SHL SUB SWAP3 SWAP1 SWAP3 AND DUP3 MSTORE PUSH1 0x20 DUP3 ADD MSTORE PUSH1 0x40 ADD SWAP1 JUMP JUMPDEST PUSH1 0x0 PUSH1 0x1 PUSH1 0x1 PUSH1 0x40 SHL SUB DUP3 GT ISZERO PUSH2 0x5151 JUMPI PUSH2 0x5151 PUSH2 0x4734 JUMP JUMPDEST POP PUSH1 0x5 SHL PUSH1 0x20 ADD SWAP1 JUMP JUMPDEST PUSH1 0x0 DUP3 PUSH1 0x1F DUP4 ADD SLT PUSH2 0x516C JUMPI PUSH1 0x0 DUP1 REVERT JUMPDEST DUP2 MLOAD PUSH1 0x20 PUSH2 0x5181 PUSH2 0x517C DUP4 PUSH2 0x5138 JUMP JUMPDEST PUSH2 0x4773 JUMP JUMPDEST DUP3 DUP2 MSTORE PUSH1 0x5 SWAP3 SWAP1 SWAP3 SHL DUP5 ADD DUP2 ADD SWAP2 DUP2 DUP2 ADD SWAP1 DUP7 DUP5 GT ISZERO PUSH2 0x51A0 JUMPI PUSH1 0x0 DUP1 REVERT JUMPDEST DUP3 DUP7 ADD JUMPDEST DUP5 DUP2 LT ISZERO PUSH2 0x51BB JUMPI DUP1 MLOAD DUP4 MSTORE SWAP2 DUP4 ADD SWAP2 DUP4 ADD PUSH2 0x51A4 JUMP JUMPDEST POP SWAP7 SWAP6 POP POP POP POP POP POP JUMP JUMPDEST PUSH1 0x0 DUP1 PUSH1 0x40 DUP4 DUP6 SUB SLT ISZERO PUSH2 0x51D9 JUMPI PUSH1 0x0 DUP1 REVERT JUMPDEST DUP3 MLOAD PUSH1 0x1 PUSH1 0x1 PUSH1 0x40 SHL SUB DUP1 DUP3 GT ISZERO PUSH2 0x51F0 JUMPI PUSH1 0x0 DUP1 REVERT JUMPDEST DUP2 DUP6 ADD SWAP2 POP DUP6 PUSH1 0x1F DUP4 ADD SLT PUSH2 0x5204 JUMPI PUSH1 0x0 DUP1 REVERT JUMPDEST DUP2 MLOAD PUSH1 0x20 PUSH2 0x5214 PUSH2 0x517C DUP4 PUSH2 0x5138 JUMP JUMPDEST DUP3 DUP2 MSTORE PUSH1 0x5 SWAP3 SWAP1 SWAP3 SHL DUP5 ADD DUP2 ADD SWAP2 DUP2 DUP2 ADD SWAP1 DUP10 DUP5 GT ISZERO PUSH2 0x5233 JUMPI PUSH1 0x0 DUP1 REVERT JUMPDEST SWAP5 DUP3 ADD SWAP5 JUMPDEST DUP4 DUP7 LT ISZERO PUSH2 0x525A JUMPI DUP6 MLOAD PUSH2 0x524B DUP2 PUSH2 0x46F7 JUMP JUMPDEST DUP3 MSTORE SWAP5 DUP3 ADD SWAP5 SWAP1 DUP3 ADD SWAP1 PUSH2 0x5238 JUMP JUMPDEST SWAP2 DUP9 ADD MLOAD SWAP2 SWAP7 POP SWAP1 SWAP4 POP POP POP DUP1 DUP3 GT ISZERO PUSH2 0x5273 JUMPI PUSH1 0x0 DUP1 REVERT JUMPDEST POP PUSH2 0x5280 DUP6 DUP3 DUP7 ADD PUSH2 0x515B JUMP JUMPDEST SWAP2 POP POP SWAP3 POP SWAP3 SWAP1 POP JUMP JUMPDEST PUSH1 0x20 DUP1 DUP3 MSTORE PUSH1 0x1F SWAP1 DUP3 ADD MSTORE PUSH32 0x5265656E7472616E637947756172643A207265656E7472616E742063616C6C00 PUSH1 0x40 DUP3 ADD MSTORE PUSH1 0x60 ADD SWAP1 JUMP JUMPDEST PUSH1 0x20 DUP1 DUP3 MSTORE PUSH1 0x10 SWAP1 DUP3 ADD MSTORE PUSH16 0x756E737570706F727465642073616C65 PUSH1 0x80 SHL PUSH1 0x40 DUP3 ADD MSTORE PUSH1 0x60 ADD SWAP1 JUMP JUMPDEST DUP1 DUP3 ADD DUP1 DUP3 GT ISZERO PUSH2 0x6F8 JUMPI PUSH2 0x6F8 PUSH2 0x50E0 JUMP JUMPDEST DUP2 DUP2 SUB DUP2 DUP2 GT ISZERO PUSH2 0x6F8 JUMPI PUSH2 0x6F8 PUSH2 0x50E0 JUMP JUMPDEST PUSH1 0x0 DUP2 MLOAD DUP1 DUP5 MSTORE PUSH2 0x5329 DUP2 PUSH1 0x20 DUP7 ADD PUSH1 0x20 DUP7 ADD PUSH2 0x4E6E JUMP JUMPDEST PUSH1 0x1F ADD PUSH1 0x1F NOT AND SWAP3 SWAP1 SWAP3 ADD PUSH1 0x20 ADD SWAP3 SWAP2 POP POP JUMP JUMPDEST PUSH1 0x0 PUSH2 0x160 DUP1 DUP4 MSTORE DUP9 MLOAD PUSH2 0x100 DUP1 DUP4 DUP7 ADD MSTORE PUSH2 0x535D PUSH2 0x260 DUP7 ADD DUP4 PUSH2 0x5311 JUMP JUMPDEST PUSH1 0x20 DUP13 ADD MLOAD PUSH1 0x1 PUSH1 0x1 PUSH1 0xA0 SHL SUB AND PUSH2 0x180 DUP8 ADD MSTORE PUSH1 0x40 DUP13 ADD MLOAD PUSH2 0x1A0 DUP8 ADD MSTORE PUSH1 0x60 DUP13 ADD MLOAD PUSH1 0x1 PUSH1 0x1 PUSH1 0x40 SHL SUB AND PUSH2 0x1C0 DUP8 ADD MSTORE PUSH1 0x80 DUP13 ADD MLOAD SWAP1 SWAP4 POP SWAP2 POP PUSH2 0x53A8 PUSH2 0x1E0 DUP7 ADD DUP4 PUSH2 0x4846 JUMP JUMPDEST PUSH1 0xA0 DUP12 ADD MLOAD PUSH1 0x1 PUSH1 0x1 PUSH1 0x40 SHL SUB AND PUSH2 0x200 DUP7 ADD MSTORE PUSH1 0xC0 DUP12 ADD MLOAD SWAP2 POP PUSH2 0x53D1 PUSH2 0x220 DUP7 ADD DUP4 PUSH2 0x4846 JUMP JUMPDEST PUSH1 0xE0 DUP12 ADD MLOAD PUSH2 0x240 DUP7 ADD MSTORE DUP5 DUP4 SUB PUSH1 0x20 DUP7 ADD MSTORE PUSH2 0x53EE DUP4 DUP12 PUSH2 0x495F JUMP JUMPDEST SWAP4 POP PUSH2 0x53FD PUSH1 0x40 DUP7 ADD DUP11 PUSH2 0x49EF JUMP JUMPDEST DUP5 ADD SWAP7 SWAP1 SWAP7 MSTORE POP PUSH2 0x120 DUP3 ADD SWAP4 SWAP1 SWAP4 MSTORE PUSH2 0x140 ADD MSTORE SWAP5 SWAP4 POP POP POP POP JUMP JUMPDEST PUSH1 0x20 DUP1 DUP3 MSTORE PUSH1 0x38 SWAP1 DUP3 ADD MSTORE PUSH32 0x73686F756C64206E6F74206265207A65726F2061646472657373206F72207072 PUSH1 0x40 DUP3 ADD MSTORE PUSH24 0x6576696F757320736574746C656D656E7420616472657373 PUSH1 0x40 SHL PUSH1 0x60 DUP3 ADD MSTORE PUSH1 0x80 ADD SWAP1 JUMP JUMPDEST PUSH1 0x20 DUP1 DUP3 MSTORE PUSH1 0x3D SWAP1 DUP3 ADD MSTORE PUSH32 0x6D696E696D756D20666961742070726963652073686F756C64206265207A6572 PUSH1 0x40 DUP3 ADD MSTORE PUSH32 0x6F20696620746865207061796D656E74206973206F662063727970746F000000 PUSH1 0x60 DUP3 ADD MSTORE PUSH1 0x80 ADD SWAP1 JUMP JUMPDEST PUSH1 0x20 DUP1 DUP3 MSTORE PUSH1 0x38 SWAP1 DUP3 ADD MSTORE PUSH32 0x73686F756C642070726F7669646520657175616C206C656E67746820696E2070 PUSH1 0x40 DUP3 ADD MSTORE PUSH24 0x7269636520616E64207061796D656E742061646472657373 PUSH1 0x40 SHL PUSH1 0x60 DUP3 ADD MSTORE PUSH1 0x80 ADD SWAP1 JUMP JUMPDEST PUSH1 0x20 DUP1 DUP3 MSTORE PUSH1 0x33 SWAP1 DUP3 ADD MSTORE PUSH32 0x6D696E696D756D20707269636520696E2063727970746F2073686F756C642062 PUSH1 0x40 DUP3 ADD MSTORE PUSH19 0x652067726561746572207468616E207A65726F PUSH1 0x68 SHL PUSH1 0x60 DUP3 ADD MSTORE PUSH1 0x80 ADD SWAP1 JUMP JUMPDEST PUSH1 0x20 DUP1 DUP3 MSTORE PUSH1 0x3F SWAP1 DUP3 ADD MSTORE PUSH32 0x63727970746F207061796D656E742064657461696C732073686F756C64206265 PUSH1 0x40 DUP3 ADD MSTORE PUSH32 0x206E756C6C20696620746865207061796D656E74206973206F66206669617400 PUSH1 0x60 DUP3 ADD MSTORE PUSH1 0x80 ADD SWAP1 JUMP JUMPDEST PUSH1 0x20 DUP1 DUP3 MSTORE PUSH1 0x31 SWAP1 DUP3 ADD MSTORE PUSH32 0x6D696E696D756D20707269636520696E20666961742073686F756C6420626520 PUSH1 0x40 DUP3 ADD MSTORE PUSH17 0x67726561746572207468616E207A65726F PUSH1 0x78 SHL PUSH1 0x60 DUP3 ADD MSTORE PUSH1 0x80 ADD SWAP1 JUMP JUMPDEST PUSH2 0xFFFF DUP2 DUP2 AND DUP4 DUP3 AND ADD SWAP1 DUP1 DUP3 GT ISZERO PUSH2 0x3F1A JUMPI PUSH2 0x3F1A PUSH2 0x50E0 JUMP JUMPDEST PUSH1 0x0 PUSH1 0x20 DUP3 DUP5 SUB SLT ISZERO PUSH2 0x5655 JUMPI PUSH1 0x0 DUP1 REVERT JUMPDEST DUP2 CALLDATALOAD PUSH2 0x2643 DUP2 PUSH2 0x4CA6 JUMP JUMPDEST PUSH1 0x0 DUP1 DUP4 CALLDATALOAD PUSH1 0x1E NOT DUP5 CALLDATASIZE SUB ADD DUP2 SLT PUSH2 0x5677 JUMPI PUSH1 0x0 DUP1 REVERT JUMPDEST DUP4 ADD DUP1 CALLDATALOAD SWAP2 POP PUSH1 0x1 PUSH1 0x1 PUSH1 0x40 SHL SUB DUP3 GT ISZERO PUSH2 0x5691 JUMPI PUSH1 0x0 DUP1 REVERT JUMPDEST PUSH1 0x20 ADD SWAP2 POP PUSH1 0x5 DUP2 SWAP1 SHL CALLDATASIZE SUB DUP3 SGT ISZERO PUSH2 0x48EB JUMPI PUSH1 0x0 DUP1 REVERT JUMPDEST PUSH1 0x1 PUSH1 0x1 PUSH1 0xE0 SHL SUB NOT SWAP2 SWAP1 SWAP2 AND DUP2 MSTORE PUSH1 0x20 ADD SWAP1 JUMP JUMPDEST PUSH1 0x0 PUSH1 0x20 DUP3 DUP5 SUB SLT ISZERO PUSH2 0x56D0 JUMPI PUSH1 0x0 DUP1 REVERT JUMPDEST DUP2 MLOAD DUP1 ISZERO ISZERO DUP2 EQ PUSH2 0x2643 JUMPI PUSH1 0x0 DUP1 REVERT JUMPDEST PUSH1 0x0 DUP2 CALLDATALOAD PUSH2 0x6F8 DUP2 PUSH2 0x46F7 JUMP JUMPDEST DUP1 SLOAD PUSH1 0x1 PUSH1 0x1 PUSH1 0xA0 SHL SUB NOT AND PUSH1 0x1 PUSH1 0x1 PUSH1 0xA0 SHL SUB SWAP3 SWAP1 SWAP3 AND SWAP2 SWAP1 SWAP2 OR SWAP1 SSTORE JUMP JUMPDEST PUSH1 0x0 DUP2 CALLDATALOAD PUSH2 0x6F8 DUP2 PUSH2 0x46B5 JUMP JUMPDEST PUSH1 0x1 PUSH1 0x1 PUSH1 0x40 SHL SUB DUP3 AND PUSH1 0x1 PUSH1 0x1 PUSH1 0x40 SHL SUB NOT DUP3 SLOAD AND OR DUP2 SSTORE POP POP JUMP JUMPDEST DUP1 DUP3 MUL DUP2 ISZERO DUP3 DUP3 DIV DUP5 EQ OR PUSH2 0x6F8 JUMPI PUSH2 0x6F8 PUSH2 0x50E0 JUMP JUMPDEST DUP2 DUP4 LT ISZERO PUSH2 0x427C JUMPI PUSH1 0x0 DUP2 DUP2 MSTORE PUSH1 0x20 DUP2 KECCAK256 DUP5 DUP2 ADD SWAP1 DUP5 ADD JUMPDEST DUP1 DUP3 LT ISZERO PUSH2 0x577C JUMPI DUP3 DUP3 SSTORE PUSH1 0x1 DUP3 ADD SWAP2 POP PUSH2 0x5766 JUMP JUMPDEST POP POP POP POP POP POP JUMP JUMPDEST PUSH1 0x1 PUSH1 0x1 PUSH1 0x40 SHL SUB DUP4 GT ISZERO PUSH2 0x579B JUMPI PUSH2 0x579B PUSH2 0x4734 JUMP JUMPDEST PUSH1 0x1 PUSH1 0x40 SHL DUP4 GT ISZERO PUSH2 0x57AF JUMPI PUSH2 0x57AF PUSH2 0x4734 JUMP JUMPDEST DUP1 SLOAD DUP4 DUP3 SSTORE PUSH2 0x57BF DUP5 DUP3 DUP5 PUSH2 0x574E JUMP JUMPDEST POP DUP2 DUP2 PUSH1 0x0 MSTORE PUSH1 0x20 DUP1 PUSH1 0x0 KECCAK256 PUSH1 0x0 JUMPDEST DUP7 DUP2 LT ISZERO PUSH2 0x57E8 JUMPI DUP4 CALLDATALOAD DUP3 DUP3 ADD SSTORE SWAP3 DUP3 ADD SWAP3 PUSH1 0x1 ADD PUSH2 0x57CE JUMP JUMPDEST POP POP POP POP POP POP POP JUMP JUMPDEST PUSH1 0x1 PUSH1 0x1 PUSH1 0x40 SHL SUB DUP4 GT ISZERO PUSH2 0x5808 JUMPI PUSH2 0x5808 PUSH2 0x4734 JUMP JUMPDEST PUSH1 0x1 PUSH1 0x40 SHL DUP4 GT ISZERO PUSH2 0x581C JUMPI PUSH2 0x581C PUSH2 0x4734 JUMP JUMPDEST DUP1 SLOAD DUP4 DUP3 SSTORE PUSH2 0x582C DUP5 DUP3 DUP5 PUSH2 0x574E JUMP JUMPDEST POP DUP2 DUP2 PUSH1 0x0 MSTORE PUSH1 0x20 DUP1 PUSH1 0x0 KECCAK256 PUSH1 0x0 JUMPDEST DUP7 DUP2 LT ISZERO PUSH2 0x57E8 JUMPI DUP4 CALLDATALOAD PUSH2 0x584E DUP2 PUSH2 0x46F7 JUMP JUMPDEST DUP3 DUP3 ADD SSTORE SWAP3 DUP3 ADD SWAP3 PUSH1 0x1 ADD PUSH2 0x583B JUMP JUMPDEST DUP1 SLOAD PUSH2 0xFFFF PUSH1 0xA0 SHL NOT AND PUSH1 0xA0 SWAP3 SWAP1 SWAP3 SHL PUSH2 0xFFFF PUSH1 0xA0 SHL AND SWAP2 SWAP1 SWAP2 OR SWAP1 SSTORE JUMP JUMPDEST DUP2 CALLDATALOAD PUSH2 0x5888 DUP2 PUSH2 0x46F7 JUMP JUMPDEST PUSH2 0x5892 DUP2 DUP4 PUSH2 0x56ED JUMP JUMPDEST POP PUSH1 0x20 DUP3 ADD CALLDATALOAD PUSH2 0x58A1 DUP2 PUSH2 0x46F7 JUMP JUMPDEST PUSH2 0x58AE DUP2 PUSH1 0x1 DUP5 ADD PUSH2 0x56ED JUMP JUMPDEST POP PUSH1 0x2 DUP2 ADD PUSH1 0x40 DUP4 ADD CALLDATALOAD PUSH2 0x58C1 DUP2 PUSH2 0x46F7 JUMP JUMPDEST PUSH2 0x58CB DUP2 DUP4 PUSH2 0x56ED JUMP JUMPDEST POP PUSH1 0x60 DUP4 ADD CALLDATALOAD PUSH2 0x58DA DUP2 PUSH2 0x4C54 JUMP JUMPDEST PUSH2 0x58E4 DUP2 DUP4 PUSH2 0x585E JUMP JUMPDEST POP POP PUSH1 0x3 DUP2 ADD PUSH1 0x80 DUP4 ADD CALLDATALOAD PUSH2 0x58F8 DUP2 PUSH2 0x46F7 JUMP JUMPDEST PUSH2 0x5902 DUP2 DUP4 PUSH2 0x56ED JUMP JUMPDEST POP PUSH1 0xA0 DUP4 ADD CALLDATALOAD PUSH2 0x5911 DUP2 PUSH2 0x4C54 JUMP JUMPDEST PUSH2 0x3FF2 DUP2 DUP4 PUSH2 0x585E JUMP JUMPDEST PUSH1 0x0 DUP2 CALLDATALOAD PUSH2 0x6F8 DUP2 PUSH2 0x4CA6 JUMP JUMPDEST PUSH2 0x5931 DUP3 PUSH2 0x4A59 JUMP JUMPDEST DUP1 SLOAD PUSH1 0xFF PUSH1 0x40 SHL NOT AND PUSH1 0x40 SWAP3 SWAP1 SWAP3 SHL PUSH1 0xFF PUSH1 0x40 SHL AND SWAP2 SWAP1 SWAP2 OR SWAP1 SSTORE JUMP JUMPDEST PUSH2 0x5957 DUP3 PUSH2 0x4A59 JUMP JUMPDEST DUP1 SLOAD PUSH1 0xFF PUSH1 0x48 SHL NOT AND PUSH1 0x48 SWAP3 SWAP1 SWAP3 SHL PUSH1 0xFF PUSH1 0x48 SHL AND SWAP2 SWAP1 SWAP2 OR SWAP1 SSTORE JUMP JUMPDEST PUSH2 0x5986 PUSH2 0x5980 DUP4 PUSH2 0x56E0 JUMP JUMPDEST DUP3 PUSH2 0x56ED JUMP JUMPDEST PUSH2 0x59C0 PUSH2 0x5995 PUSH1 0x20 DUP5 ADD PUSH2 0x570D JUMP JUMPDEST DUP3 DUP1 SLOAD PUSH1 0x1 PUSH1 0xA0 SHL PUSH1 0x1 PUSH1 0xE0 SHL SUB NOT AND PUSH1 0xA0 SWAP3 SWAP1 SWAP3 SHL PUSH8 0xFFFFFFFFFFFFFFFF PUSH1 0xA0 SHL AND SWAP2 SWAP1 SWAP2 OR SWAP1 SSTORE JUMP JUMPDEST PUSH2 0x59D8 PUSH2 0x59CF PUSH1 0x40 DUP5 ADD PUSH2 0x570D JUMP JUMPDEST PUSH1 0x1 DUP4 ADD PUSH2 0x571A JUMP JUMPDEST PUSH1 0x60 DUP3 ADD CALLDATALOAD PUSH1 0x2 DUP3 ADD SSTORE PUSH2 0x59EF PUSH1 0x80 DUP4 ADD DUP4 PUSH2 0x5660 JUMP JUMPDEST PUSH2 0x59FD DUP2 DUP4 PUSH1 0x3 DUP7 ADD PUSH2 0x5784 JUMP JUMPDEST POP POP PUSH2 0x5A0C PUSH1 0xA0 DUP4 ADD DUP4 PUSH2 0x5660 JUMP JUMPDEST PUSH2 0x5A1A DUP2 DUP4 PUSH1 0x4 DUP7 ADD PUSH2 0x57F1 JUMP JUMPDEST POP POP PUSH2 0x5A2C PUSH1 0xC0 DUP4 ADD PUSH1 0x5 DUP4 ADD PUSH2 0x587D JUMP JUMPDEST PUSH1 0x9 DUP2 ADD PUSH2 0x5A46 PUSH2 0x5A40 PUSH2 0x180 DUP6 ADD PUSH2 0x570D JUMP JUMPDEST DUP3 PUSH2 0x571A JUMP JUMPDEST PUSH2 0x5A5C PUSH2 0x5A56 PUSH2 0x1A0 DUP6 ADD PUSH2 0x591B JUMP JUMPDEST DUP3 PUSH2 0x5928 JUMP JUMPDEST PUSH2 0x427C PUSH2 0x5A6C PUSH2 0x1C0 DUP6 ADD PUSH2 0x591B JUMP JUMPDEST DUP3 PUSH2 0x594E JUMP JUMPDEST PUSH1 0x0 DUP1 DUP4 CALLDATALOAD PUSH1 0x1E NOT DUP5 CALLDATASIZE SUB ADD DUP2 SLT PUSH2 0x5A89 JUMPI PUSH1 0x0 DUP1 REVERT JUMPDEST DUP4 ADD PUSH1 0x20 DUP2 ADD SWAP3 POP CALLDATALOAD SWAP1 POP PUSH1 0x1 PUSH1 0x1 PUSH1 0x40 SHL SUB DUP2 GT ISZERO PUSH2 0x5AA8 JUMPI PUSH1 0x0 DUP1 REVERT JUMPDEST DUP1 PUSH1 0x5 SHL CALLDATASIZE SUB DUP3 SGT ISZERO PUSH2 0x48EB JUMPI PUSH1 0x0 DUP1 REVERT JUMPDEST DUP2 DUP4 MSTORE PUSH1 0x0 PUSH1 0x1 PUSH1 0x1 PUSH1 0xFB SHL SUB DUP4 GT ISZERO PUSH2 0x5AD3 JUMPI PUSH1 0x0 DUP1 REVERT JUMPDEST DUP3 PUSH1 0x5 SHL DUP1 DUP4 PUSH1 0x20 DUP8 ADD CALLDATACOPY SWAP4 SWAP1 SWAP4 ADD PUSH1 0x20 ADD SWAP4 SWAP3 POP POP POP JUMP JUMPDEST DUP2 DUP4 MSTORE PUSH1 0x0 PUSH1 0x20 DUP1 DUP6 ADD SWAP5 POP DUP3 PUSH1 0x0 JUMPDEST DUP6 DUP2 LT ISZERO PUSH2 0x488C JUMPI DUP2 CALLDATALOAD PUSH2 0x5B0F DUP2 PUSH2 0x46F7 JUMP JUMPDEST PUSH1 0x1 PUSH1 0x1 PUSH1 0xA0 SHL SUB AND DUP8 MSTORE SWAP6 DUP3 ADD SWAP6 SWAP1 DUP3 ADD SWAP1 PUSH1 0x1 ADD PUSH2 0x5AFC JUMP JUMPDEST DUP1 CALLDATALOAD PUSH2 0x5B35 DUP2 PUSH2 0x46F7 JUMP JUMPDEST PUSH1 0x1 PUSH1 0x1 PUSH1 0xA0 SHL SUB SWAP1 DUP2 AND DUP4 MSTORE PUSH1 0x20 DUP3 ADD CALLDATALOAD SWAP1 PUSH2 0x5B51 DUP3 PUSH2 0x46F7 JUMP JUMPDEST SWAP1 DUP2 AND PUSH1 0x20 DUP5 ADD MSTORE PUSH1 0x40 DUP3 ADD CALLDATALOAD SWAP1 PUSH2 0x5B68 DUP3 PUSH2 0x46F7 JUMP JUMPDEST SWAP1 DUP2 AND PUSH1 0x40 DUP5 ADD MSTORE PUSH1 0x60 DUP3 ADD CALLDATALOAD SWAP1 PUSH2 0x5B7F DUP3 PUSH2 0x4C54 JUMP JUMPDEST PUSH2 0xFFFF SWAP2 DUP3 AND PUSH1 0x60 DUP6 ADD MSTORE PUSH1 0x80 DUP4 ADD CALLDATALOAD SWAP2 PUSH2 0x5B99 DUP4 PUSH2 0x46F7 JUMP JUMPDEST SWAP2 DUP2 AND PUSH1 0x80 DUP6 ADD MSTORE PUSH1 0xA0 DUP4 ADD CALLDATALOAD SWAP2 PUSH2 0x5BB0 DUP4 PUSH2 0x4C54 JUMP JUMPDEST DUP1 DUP4 AND PUSH1 0xA0 DUP7 ADD MSTORE POP POP POP POP POP JUMP JUMPDEST PUSH1 0x20 DUP2 MSTORE PUSH2 0x5BD8 PUSH1 0x20 DUP3 ADD PUSH2 0x5BD3 DUP5 PUSH2 0x470C JUMP JUMPDEST PUSH2 0x4846 JUMP JUMPDEST PUSH1 0x0 PUSH2 0x5BE6 PUSH1 0x20 DUP5 ADD PUSH2 0x46CA JUMP JUMPDEST PUSH1 0x1 PUSH1 0x1 PUSH1 0x40 SHL SUB DUP2 AND PUSH1 0x40 DUP5 ADD MSTORE POP PUSH2 0x5C02 PUSH1 0x40 DUP5 ADD PUSH2 0x46CA JUMP JUMPDEST PUSH1 0x1 PUSH1 0x1 PUSH1 0x40 SHL SUB DUP2 AND PUSH1 0x60 DUP5 ADD MSTORE POP PUSH1 0x60 DUP4 ADD CALLDATALOAD PUSH1 0x80 DUP4 ADD MSTORE PUSH2 0x5C29 PUSH1 0x80 DUP5 ADD DUP5 PUSH2 0x5A72 JUMP JUMPDEST PUSH2 0x1E0 DUP1 PUSH1 0xA0 DUP7 ADD MSTORE PUSH2 0x5C41 PUSH2 0x200 DUP7 ADD DUP4 DUP6 PUSH2 0x5ABA JUMP JUMPDEST SWAP3 POP PUSH2 0x5C50 PUSH1 0xA0 DUP8 ADD DUP8 PUSH2 0x5A72 JUMP JUMPDEST DUP7 DUP6 SUB PUSH1 0x1F NOT ADD PUSH1 0xC0 DUP9 ADD MSTORE SWAP3 POP PUSH2 0x5C69 DUP5 DUP5 DUP4 PUSH2 0x5AEC JUMP JUMPDEST SWAP4 POP POP PUSH2 0x5C7C PUSH1 0xE0 DUP7 ADD PUSH1 0xC0 DUP9 ADD PUSH2 0x5B2A JUMP JUMPDEST PUSH2 0x5C89 PUSH2 0x180 DUP8 ADD PUSH2 0x46CA JUMP JUMPDEST SWAP2 POP PUSH2 0x1A0 PUSH2 0x5CA2 DUP2 DUP8 ADD DUP5 PUSH1 0x1 PUSH1 0x1 PUSH1 0x40 SHL SUB AND SWAP1 MSTORE JUMP JUMPDEST PUSH2 0x5CAD DUP2 DUP9 ADD PUSH2 0x4CB3 JUMP JUMPDEST SWAP3 POP POP PUSH2 0x1C0 PUSH2 0x5CBF DUP2 DUP8 ADD DUP5 PUSH2 0x4A77 JUMP JUMPDEST PUSH2 0x5CCA DUP2 DUP9 ADD PUSH2 0x4CB3 JUMP JUMPDEST SWAP3 POP POP PUSH2 0x5CD9 DUP2 DUP7 ADD DUP4 PUSH2 0x4A77 JUMP JUMPDEST POP SWAP1 SWAP5 SWAP4 POP POP POP POP JUMP JUMPDEST PUSH1 0x20 DUP1 DUP3 MSTORE PUSH1 0x4F SWAP1 DUP3 ADD MSTORE PUSH32 0x54686973206973206E6F7420612076616C696420746F6B656E49642E20506C65 PUSH1 0x40 DUP3 ADD MSTORE PUSH32 0x6173652076657269667920746861742074686520746F6B656E49642070726F76 PUSH1 0x60 DUP3 ADD MSTORE PUSH15 0x1A591959081A5CC818DBDC9C9958DD PUSH1 0x8A SHL PUSH1 0x80 DUP3 ADD MSTORE PUSH1 0xA0 ADD SWAP1 JUMP JUMPDEST PUSH1 0x0 PUSH1 0x20 DUP3 DUP5 SUB SLT ISZERO PUSH2 0x5D6A JUMPI PUSH1 0x0 DUP1 REVERT JUMPDEST POP MLOAD SWAP2 SWAP1 POP JUMP JUMPDEST PUSH1 0x0 PUSH1 0x20 DUP3 DUP5 SUB SLT ISZERO PUSH2 0x5D83 JUMPI PUSH1 0x0 DUP1 REVERT JUMPDEST DUP2 MLOAD PUSH2 0x2643 DUP2 PUSH2 0x46F7 JUMP JUMPDEST PUSH1 0x1 PUSH1 0x1 PUSH1 0xA0 SHL SUB SWAP4 DUP5 AND DUP2 MSTORE SWAP2 SWAP1 SWAP3 AND PUSH1 0x20 DUP3 ADD MSTORE PUSH1 0x40 DUP2 ADD SWAP2 SWAP1 SWAP2 MSTORE PUSH1 0x60 ADD SWAP1 JUMP JUMPDEST PUSH1 0x0 PUSH1 0x20 DUP3 DUP5 SUB SLT ISZERO PUSH2 0x5DC4 JUMPI PUSH1 0x0 DUP1 REVERT JUMPDEST DUP2 MLOAD PUSH1 0x1 PUSH1 0x1 PUSH1 0x40 SHL SUB DUP2 GT ISZERO PUSH2 0x5DDA JUMPI PUSH1 0x0 DUP1 REVERT JUMPDEST PUSH2 0x4465 DUP5 DUP3 DUP6 ADD PUSH2 0x515B JUMP JUMPDEST PUSH1 0x60 DUP2 MSTORE PUSH1 0x0 PUSH2 0x5DF9 PUSH1 0x60 DUP4 ADD DUP7 PUSH2 0x4853 JUMP JUMPDEST PUSH1 0x20 DUP4 DUP3 SUB DUP2 DUP6 ADD MSTORE PUSH2 0x5E0C DUP3 DUP8 PUSH2 0x495F JUMP JUMPDEST SWAP2 POP DUP4 DUP3 SUB PUSH1 0x40 DUP6 ADD MSTORE DUP2 DUP6 MLOAD DUP1 DUP5 MSTORE DUP3 DUP5 ADD SWAP2 POP DUP3 DUP2 PUSH1 0x5 SHL DUP6 ADD ADD DUP4 DUP9 ADD PUSH1 0x0 JUMPDEST DUP4 DUP2 LT ISZERO PUSH2 0x5E5D JUMPI PUSH1 0x1F NOT DUP8 DUP5 SUB ADD DUP6 MSTORE PUSH2 0x5E4B DUP4 DUP4 MLOAD PUSH2 0x5311 JUMP JUMPDEST SWAP5 DUP7 ADD SWAP5 SWAP3 POP SWAP1 DUP6 ADD SWAP1 PUSH1 0x1 ADD PUSH2 0x5E2F JUMP JUMPDEST POP SWAP1 SWAP11 SWAP10 POP POP POP POP POP POP POP POP POP POP JUMP JUMPDEST PUSH1 0x60 DUP2 MSTORE PUSH1 0x0 PUSH2 0x5E80 PUSH1 0x60 DUP4 ADD DUP7 PUSH2 0x4853 JUMP JUMPDEST DUP3 DUP2 SUB PUSH1 0x20 DUP5 ADD MSTORE PUSH2 0x5E92 DUP2 DUP7 PUSH2 0x495F JUMP JUMPDEST SWAP1 POP DUP3 DUP2 SUB PUSH1 0x40 DUP5 ADD MSTORE PUSH2 0x49E5 DUP2 DUP6 PUSH2 0x495F JUMP JUMPDEST PUSH1 0x0 DUP3 PUSH2 0x5EC3 JUMPI PUSH4 0x4E487B71 PUSH1 0xE0 SHL PUSH1 0x0 MSTORE PUSH1 0x12 PUSH1 0x4 MSTORE PUSH1 0x24 PUSH1 0x0 REVERT JUMPDEST POP DIV SWAP1 JUMP JUMPDEST PUSH4 0x4E487B71 PUSH1 0xE0 SHL PUSH1 0x0 MSTORE PUSH1 0x31 PUSH1 0x4 MSTORE PUSH1 0x24 PUSH1 0x0 REVERT JUMPDEST PUSH1 0x20 DUP2 MSTORE PUSH1 0x0 PUSH2 0x2643 PUSH1 0x20 DUP4 ADD DUP5 PUSH2 0x5311 JUMP INVALID SLOAD PUSH9 0x65206D6178696D756D KECCAK256 PUSH18 0x75616E7469747920616C6C6F77656420746F KECCAK256 LOG2 PUSH5 0x6970667358 0x22 SLT KECCAK256 0xB2 0x5C 0xD9 0xB7 SHL 0x5D 0xFB NOT PUSH16 0x6D5179A3667B00AF780677D002B37AA7 0xD5 PUSH9 0xD57846276A64736F6C PUSH4 0x43000811 STOP CALLER "
		},
		"gasEstimates": {
			"creation": {
				"codeDepositCost": "4878200",
				"executionCost": "infinite",
				"totalCost": "infinite"
			},
			"external": {
				"": "404",
				"approveAdmin(address)": "infinite",
				"buy((string,address,uint256,uint64,address,uint64,address,uint256),uint256)": "infinite",
				"cancelSale(string)": "infinite",
				"createSale((address,uint64,uint64,uint256,uint256[],address[],(address,address,address,uint16,address,uint16),uint64,uint8,uint8),string)": "infinite",
				"getAdmins()": "infinite",
				"getListingPrice(string)": "infinite",
				"getRoyaltyInfo(address,uint256)": "infinite",
				"getSettlementAddressBps(string)": "infinite",
				"isAdmin(address)": "infinite",
				"listings(string)": "infinite",
				"max1155Quantity()": "2509",
				"owner()": "2392",
				"platformAddress()": "2537",
				"platformFeePercentage()": "2462",
				"priceFeedAddress()": "2603",
				"renounceOwnership()": "30472",
				"revokeAdmin(address)": "infinite",
				"royaltySupport()": "2515",
				"supportsInterface(bytes4)": "427",
				"tokensUsed(string)": "infinite",
				"transferOwnership(address)": "30725",
				"updatePayment(string,uint8,uint256,uint256[],address[])": "infinite",
				"updatePlatformAddress(address)": "infinite",
				"updatePlatformFeePercentage(uint16)": "infinite",
				"updatePricefeedContract(address)": "infinite",
				"updateRoyaltyContract(address)": "infinite",
				"updatemax1155Quantity(uint64)": "infinite",
				"updatepaymentSettlementAddress(string,address)": "infinite",
				"updatetaxSettlementAddress(string,address)": "infinite",
				"withdraw()": "infinite"
			},
			"internal": {
				"_handlePayment(address,address payable,address,uint256)": "infinite",
				"_handleRoyaltyEnginePayout(address,address,uint256,uint256,address)": "infinite",
				"_tokenTransaction(string memory,address,address,address,uint256,uint256,uint256,enum onchainBuy.TransactionStatus)": "infinite",
				"errorHandling(string memory,uint256,uint256,uint256,address,uint256,address)": "infinite",
				"paymentTransaction(string memory,uint256,uint256,address,uint256,uint256[] memory,address,enum onchainBuy.TransactionStatus)": "infinite",
				"royaltyPayout(address,uint256,uint256[] memory,address,uint256,address,enum onchainBuy.TransactionStatus)": "infinite"
			}
		},
		"methodIdentifiers": {
			"approveAdmin(address)": "6d73e669",
			"buy((string,address,uint256,uint64,address,uint64,address,uint256),uint256)": "acecf9de",
			"cancelSale(string)": "2977f78a",
			"createSale((address,uint64,uint64,uint256,uint256[],address[],(address,address,address,uint16,address,uint16),uint64,uint8,uint8),string)": "fd114f08",
			"getAdmins()": "31ae450b",
			"getListingPrice(string)": "df354bdd",
			"getRoyaltyInfo(address,uint256)": "773fe986",
			"getSettlementAddressBps(string)": "676a7b77",
			"isAdmin(address)": "24d7806c",
			"listings(string)": "77dec6c3",
			"max1155Quantity()": "49ef4dd9",
			"owner()": "8da5cb5b",
			"platformAddress()": "dbe55e56",
			"platformFeePercentage()": "cdd78cfc",
			"priceFeedAddress()": "e0abca0b",
			"renounceOwnership()": "715018a6",
			"revokeAdmin(address)": "2d345670",
			"royaltySupport()": "da20872a",
			"supportsInterface(bytes4)": "01ffc9a7",
			"tokensUsed(string)": "858a6dc8",
			"transferOwnership(address)": "f2fde38b",
			"updatePayment(string,uint8,uint256,uint256[],address[])": "dfa12f79",
			"updatePlatformAddress(address)": "8f9f193f",
			"updatePlatformFeePercentage(uint16)": "cbc9a941",
			"updatePricefeedContract(address)": "705e3f6c",
			"updateRoyaltyContract(address)": "4b9804b2",
			"updatemax1155Quantity(uint64)": "19e4367c",
			"updatepaymentSettlementAddress(string,address)": "e8ac841f",
			"updatetaxSettlementAddress(string,address)": "bf9afc18",
			"withdraw()": "3ccfd60b"
		}
	},
	"abi": [
		{
			"inputs": [
				{
					"internalType": "address",
					"name": "_platformAddress",
					"type": "address"
				},
				{
					"internalType": "uint16",
					"name": "_platformFeePercentage",
					"type": "uint16"
				},
				{
					"internalType": "uint64",
					"name": "_max1155Quantity",
					"type": "uint64"
				},
				{
					"internalType": "contract IPriceFeed",
					"name": "_priceFeedAddress",
					"type": "address"
				},
				{
					"internalType": "contract IRoyaltyEngine",
					"name": "_royaltycontract",
					"type": "address"
				}
			],
			"stateMutability": "nonpayable",
			"type": "constructor"
		},
		{
			"anonymous": false,
			"inputs": [
				{
					"indexed": true,
					"internalType": "address",
					"name": "account",
					"type": "address"
				},
				{
					"indexed": true,
					"internalType": "address",
					"name": "sender",
					"type": "address"
				}
			],
			"name": "AdminApproved",
			"type": "event"
		},
		{
			"anonymous": false,
			"inputs": [
				{
					"indexed": true,
					"internalType": "address",
					"name": "account",
					"type": "address"
				},
				{
					"indexed": true,
					"internalType": "address",
					"name": "sender",
					"type": "address"
				}
			],
			"name": "AdminRevoked",
			"type": "event"
		},
		{
			"anonymous": false,
			"inputs": [
				{
					"indexed": true,
					"internalType": "address",
					"name": "tokenContract",
					"type": "address"
				},
				{
					"components": [
						{
							"internalType": "string",
							"name": "saleId",
							"type": "string"
						},
						{
							"internalType": "address",
							"name": "tokenOwner",
							"type": "address"
						},
						{
							"internalType": "uint256",
							"name": "tokenId",
							"type": "uint256"
						},
						{
							"internalType": "uint64",
							"name": "tokenQuantity",
							"type": "uint64"
						},
						{
							"internalType": "address",
							"name": "buyer",
							"type": "address"
						},
						{
							"internalType": "uint64",
							"name": "quantity",
							"type": "uint64"
						},
						{
							"internalType": "address",
							"name": "paymentToken",
							"type": "address"
						},
						{
							"internalType": "uint256",
							"name": "paymentAmount",
							"type": "uint256"
						}
					],
					"indexed": false,
					"internalType": "struct onchainBuy.BuyList",
					"name": "buyingDetails",
					"type": "tuple"
				},
				{
					"indexed": false,
					"internalType": "uint256[]",
					"name": "MintedtokenId",
					"type": "uint256[]"
				},
				{
					"components": [
						{
							"internalType": "address",
							"name": "paymentSettlementAddress",
							"type": "address"
						},
						{
							"internalType": "address",
							"name": "taxSettlementAddress",
							"type": "address"
						},
						{
							"internalType": "address",
							"name": "platformSettlementAddress",
							"type": "address"
						},
						{
							"internalType": "uint16",
							"name": "platformFeePercentage",
							"type": "uint16"
						},
						{
							"internalType": "address",
							"name": "commissionAddress",
							"type": "address"
						},
						{
							"internalType": "uint16",
							"name": "commissionFeePercentage",
							"type": "uint16"
						}
					],
					"indexed": false,
					"internalType": "struct onchainBuy.settlementList",
					"name": "paymentSettlement",
					"type": "tuple"
				},
				{
					"indexed": false,
					"internalType": "uint256",
					"name": "tax",
					"type": "uint256"
				},
				{
					"indexed": false,
					"internalType": "uint256",
					"name": "paymentAmount",
					"type": "uint256"
				},
				{
					"indexed": false,
					"internalType": "uint256",
					"name": "excessAmount",
					"type": "uint256"
				}
			],
			"name": "BuyExecuted",
			"type": "event"
		},
		{
			"anonymous": false,
			"inputs": [
				{
					"indexed": true,
					"internalType": "address",
					"name": "previousOwner",
					"type": "address"
				},
				{
					"indexed": true,
					"internalType": "address",
					"name": "newOwner",
					"type": "address"
				}
			],
			"name": "OwnershipTransferred",
			"type": "event"
		},
		{
			"anonymous": false,
			"inputs": [
				{
					"indexed": false,
					"internalType": "address",
					"name": "tokenContract",
					"type": "address"
				},
				{
					"indexed": false,
					"internalType": "uint256",
					"name": "tokenId",
					"type": "uint256"
				},
				{
					"indexed": false,
					"internalType": "address",
					"name": "recipient",
					"type": "address"
				},
				{
					"indexed": false,
					"internalType": "uint256",
					"name": "amount",
					"type": "uint256"
				}
			],
			"name": "RoyaltyPayout",
			"type": "event"
		},
		{
			"anonymous": false,
			"inputs": [
				{
					"components": [
						{
							"internalType": "address",
							"name": "nftContractAddress",
							"type": "address"
						},
						{
							"internalType": "uint64",
							"name": "nftStartTokenId",
							"type": "uint64"
						},
						{
							"internalType": "uint64",
							"name": "nftEndTokenId",
							"type": "uint64"
						},
						{
							"internalType": "uint256",
							"name": "minimumFiatPrice",
							"type": "uint256"
						},
						{
							"internalType": "uint256[]",
							"name": "minimumCryptoPrice",
							"type": "uint256[]"
						},
						{
							"internalType": "address[]",
							"name": "paymentCurrency",
							"type": "address[]"
						},
						{
							"components": [
								{
									"internalType": "address",
									"name": "paymentSettlementAddress",
									"type": "address"
								},
								{
									"internalType": "address",
									"name": "taxSettlementAddress",
									"type": "address"
								},
								{
									"internalType": "address",
									"name": "platformSettlementAddress",
									"type": "address"
								},
								{
									"internalType": "uint16",
									"name": "platformFeePercentage",
									"type": "uint16"
								},
								{
									"internalType": "address",
									"name": "commissionAddress",
									"type": "address"
								},
								{
									"internalType": "uint16",
									"name": "commissionFeePercentage",
									"type": "uint16"
								}
							],
							"internalType": "struct onchainBuy.settlementList",
							"name": "paymentSettlement",
							"type": "tuple"
						},
						{
							"internalType": "uint64",
							"name": "maxCap",
							"type": "uint64"
						},
						{
							"internalType": "enum onchainBuy.TransactionStatus",
							"name": "transactionStatus",
							"type": "uint8"
						},
						{
							"internalType": "enum onchainBuy.PaymentStatus",
							"name": "paymentStatus",
							"type": "uint8"
						}
					],
					"indexed": false,
					"internalType": "struct onchainBuy.PriceList",
					"name": "saleList",
					"type": "tuple"
				}
			],
			"name": "saleClosed",
			"type": "event"
		},
		{
			"anonymous": false,
			"inputs": [
				{
					"components": [
						{
							"internalType": "address",
							"name": "nftContractAddress",
							"type": "address"
						},
						{
							"internalType": "uint64",
							"name": "nftStartTokenId",
							"type": "uint64"
						},
						{
							"internalType": "uint64",
							"name": "nftEndTokenId",
							"type": "uint64"
						},
						{
							"internalType": "uint256",
							"name": "minimumFiatPrice",
							"type": "uint256"
						},
						{
							"internalType": "uint256[]",
							"name": "minimumCryptoPrice",
							"type": "uint256[]"
						},
						{
							"internalType": "address[]",
							"name": "paymentCurrency",
							"type": "address[]"
						},
						{
							"components": [
								{
									"internalType": "address",
									"name": "paymentSettlementAddress",
									"type": "address"
								},
								{
									"internalType": "address",
									"name": "taxSettlementAddress",
									"type": "address"
								},
								{
									"internalType": "address",
									"name": "platformSettlementAddress",
									"type": "address"
								},
								{
									"internalType": "uint16",
									"name": "platformFeePercentage",
									"type": "uint16"
								},
								{
									"internalType": "address",
									"name": "commissionAddress",
									"type": "address"
								},
								{
									"internalType": "uint16",
									"name": "commissionFeePercentage",
									"type": "uint16"
								}
							],
							"internalType": "struct onchainBuy.settlementList",
							"name": "paymentSettlement",
							"type": "tuple"
						},
						{
							"internalType": "uint64",
							"name": "maxCap",
							"type": "uint64"
						},
						{
							"internalType": "enum onchainBuy.TransactionStatus",
							"name": "transactionStatus",
							"type": "uint8"
						},
						{
							"internalType": "enum onchainBuy.PaymentStatus",
							"name": "paymentStatus",
							"type": "uint8"
						}
					],
					"indexed": false,
					"internalType": "struct onchainBuy.PriceList",
					"name": "saleList",
					"type": "tuple"
				}
			],
			"name": "saleCreated",
			"type": "event"
		},
		{
			"stateMutability": "payable",
			"type": "fallback"
		},
		{
			"inputs": [
				{
					"internalType": "address",
					"name": "admin",
					"type": "address"
				}
			],
			"name": "approveAdmin",
			"outputs": [],
			"stateMutability": "nonpayable",
			"type": "function"
		},
		{
			"inputs": [
				{
					"components": [
						{
							"internalType": "string",
							"name": "saleId",
							"type": "string"
						},
						{
							"internalType": "address",
							"name": "tokenOwner",
							"type": "address"
						},
						{
							"internalType": "uint256",
							"name": "tokenId",
							"type": "uint256"
						},
						{
							"internalType": "uint64",
							"name": "tokenQuantity",
							"type": "uint64"
						},
						{
							"internalType": "address",
							"name": "buyer",
							"type": "address"
						},
						{
							"internalType": "uint64",
							"name": "quantity",
							"type": "uint64"
						},
						{
							"internalType": "address",
							"name": "paymentToken",
							"type": "address"
						},
						{
							"internalType": "uint256",
							"name": "paymentAmount",
							"type": "uint256"
						}
					],
					"internalType": "struct onchainBuy.BuyList",
					"name": "list",
					"type": "tuple"
				},
				{
					"internalType": "uint256",
					"name": "tax",
					"type": "uint256"
				}
			],
			"name": "buy",
			"outputs": [
				{
					"internalType": "uint256[]",
					"name": "nftTokenId",
					"type": "uint256[]"
				}
			],
			"stateMutability": "payable",
			"type": "function"
		},
		{
			"inputs": [
				{
					"internalType": "string",
					"name": "saleId",
					"type": "string"
				}
			],
			"name": "cancelSale",
			"outputs": [],
			"stateMutability": "nonpayable",
			"type": "function"
		},
		{
			"inputs": [
				{
					"components": [
						{
							"internalType": "address",
							"name": "nftContractAddress",
							"type": "address"
						},
						{
							"internalType": "uint64",
							"name": "nftStartTokenId",
							"type": "uint64"
						},
						{
							"internalType": "uint64",
							"name": "nftEndTokenId",
							"type": "uint64"
						},
						{
							"internalType": "uint256",
							"name": "minimumFiatPrice",
							"type": "uint256"
						},
						{
							"internalType": "uint256[]",
							"name": "minimumCryptoPrice",
							"type": "uint256[]"
						},
						{
							"internalType": "address[]",
							"name": "paymentCurrency",
							"type": "address[]"
						},
						{
							"components": [
								{
									"internalType": "address",
									"name": "paymentSettlementAddress",
									"type": "address"
								},
								{
									"internalType": "address",
									"name": "taxSettlementAddress",
									"type": "address"
								},
								{
									"internalType": "address",
									"name": "platformSettlementAddress",
									"type": "address"
								},
								{
									"internalType": "uint16",
									"name": "platformFeePercentage",
									"type": "uint16"
								},
								{
									"internalType": "address",
									"name": "commissionAddress",
									"type": "address"
								},
								{
									"internalType": "uint16",
									"name": "commissionFeePercentage",
									"type": "uint16"
								}
							],
							"internalType": "struct onchainBuy.settlementList",
							"name": "paymentSettlement",
							"type": "tuple"
						},
						{
							"internalType": "uint64",
							"name": "maxCap",
							"type": "uint64"
						},
						{
							"internalType": "enum onchainBuy.TransactionStatus",
							"name": "transactionStatus",
							"type": "uint8"
						},
						{
							"internalType": "enum onchainBuy.PaymentStatus",
							"name": "paymentStatus",
							"type": "uint8"
						}
					],
					"internalType": "struct onchainBuy.PriceList",
					"name": "list",
					"type": "tuple"
				},
				{
					"internalType": "string",
					"name": "saleId",
					"type": "string"
				}
			],
			"name": "createSale",
			"outputs": [],
			"stateMutability": "nonpayable",
			"type": "function"
		},
		{
			"inputs": [],
			"name": "getAdmins",
			"outputs": [
				{
					"internalType": "address[]",
					"name": "admins",
					"type": "address[]"
				}
			],
			"stateMutability": "view",
			"type": "function"
		},
		{
			"inputs": [
				{
					"internalType": "string",
					"name": "saleId",
					"type": "string"
				}
			],
			"name": "getListingPrice",
			"outputs": [
				{
					"internalType": "uint256[]",
					"name": "minimumCryptoPrice",
					"type": "uint256[]"
				},
				{
					"internalType": "address[]",
					"name": "paymentCurrency",
					"type": "address[]"
				}
			],
			"stateMutability": "view",
			"type": "function"
		},
		{
			"inputs": [
				{
					"internalType": "address",
					"name": "collectionAddress",
					"type": "address"
				},
				{
					"internalType": "uint256",
					"name": "tokenId",
					"type": "uint256"
				}
			],
			"name": "getRoyaltyInfo",
			"outputs": [
				{
					"internalType": "address payable[]",
					"name": "recipients",
					"type": "address[]"
				},
				{
					"internalType": "uint256[]",
					"name": "bps",
					"type": "uint256[]"
				}
			],
			"stateMutability": "view",
			"type": "function"
		},
		{
			"inputs": [
				{
					"internalType": "string",
					"name": "saleId",
					"type": "string"
				}
			],
			"name": "getSettlementAddressBps",
			"outputs": [
				{
					"internalType": "uint16",
					"name": "_platformFeePercentage",
					"type": "uint16"
				},
				{
					"internalType": "address",
					"name": "_platformSettlementAddress",
					"type": "address"
				},
				{
					"internalType": "uint16",
					"name": "_commissionFeePercentage",
					"type": "uint16"
				},
				{
					"internalType": "address",
					"name": "_commissionAddress",
					"type": "address"
				},
				{
					"internalType": "address",
					"name": "paymentSettlementAddress",
					"type": "address"
				},
				{
					"internalType": "address",
					"name": "taxSettlementAddress",
					"type": "address"
				}
			],
			"stateMutability": "view",
			"type": "function"
		},
		{
			"inputs": [
				{
					"internalType": "address",
					"name": "admin",
					"type": "address"
				}
			],
			"name": "isAdmin",
			"outputs": [
				{
					"internalType": "bool",
					"name": "",
					"type": "bool"
				}
			],
			"stateMutability": "view",
			"type": "function"
		},
		{
			"inputs": [
				{
					"internalType": "string",
					"name": "",
					"type": "string"
				}
			],
			"name": "listings",
			"outputs": [
				{
					"internalType": "address",
					"name": "nftContractAddress",
					"type": "address"
				},
				{
					"internalType": "uint64",
					"name": "nftStartTokenId",
					"type": "uint64"
				},
				{
					"internalType": "uint64",
					"name": "nftEndTokenId",
					"type": "uint64"
				},
				{
					"internalType": "uint256",
					"name": "minimumFiatPrice",
					"type": "uint256"
				},
				{
					"components": [
						{
							"internalType": "address",
							"name": "paymentSettlementAddress",
							"type": "address"
						},
						{
							"internalType": "address",
							"name": "taxSettlementAddress",
							"type": "address"
						},
						{
							"internalType": "address",
							"name": "platformSettlementAddress",
							"type": "address"
						},
						{
							"internalType": "uint16",
							"name": "platformFeePercentage",
							"type": "uint16"
						},
						{
							"internalType": "address",
							"name": "commissionAddress",
							"type": "address"
						},
						{
							"internalType": "uint16",
							"name": "commissionFeePercentage",
							"type": "uint16"
						}
					],
					"internalType": "struct onchainBuy.settlementList",
					"name": "paymentSettlement",
					"type": "tuple"
				},
				{
					"internalType": "uint64",
					"name": "maxCap",
					"type": "uint64"
				},
				{
					"internalType": "enum onchainBuy.TransactionStatus",
					"name": "transactionStatus",
					"type": "uint8"
				},
				{
					"internalType": "enum onchainBuy.PaymentStatus",
					"name": "paymentStatus",
					"type": "uint8"
				}
			],
			"stateMutability": "view",
			"type": "function"
		},
		{
			"inputs": [],
			"name": "max1155Quantity",
			"outputs": [
				{
					"internalType": "uint64",
					"name": "",
					"type": "uint64"
				}
			],
			"stateMutability": "view",
			"type": "function"
		},
		{
			"inputs": [],
			"name": "owner",
			"outputs": [
				{
					"internalType": "address",
					"name": "",
					"type": "address"
				}
			],
			"stateMutability": "view",
			"type": "function"
		},
		{
			"inputs": [],
			"name": "platformAddress",
			"outputs": [
				{
					"internalType": "address payable",
					"name": "",
					"type": "address"
				}
			],
			"stateMutability": "view",
			"type": "function"
		},
		{
			"inputs": [],
			"name": "platformFeePercentage",
			"outputs": [
				{
					"internalType": "uint16",
					"name": "",
					"type": "uint16"
				}
			],
			"stateMutability": "view",
			"type": "function"
		},
		{
			"inputs": [],
			"name": "priceFeedAddress",
			"outputs": [
				{
					"internalType": "contract IPriceFeed",
					"name": "",
					"type": "address"
				}
			],
			"stateMutability": "view",
			"type": "function"
		},
		{
			"inputs": [],
			"name": "renounceOwnership",
			"outputs": [],
			"stateMutability": "nonpayable",
			"type": "function"
		},
		{
			"inputs": [
				{
					"internalType": "address",
					"name": "admin",
					"type": "address"
				}
			],
			"name": "revokeAdmin",
			"outputs": [],
			"stateMutability": "nonpayable",
			"type": "function"
		},
		{
			"inputs": [],
			"name": "royaltySupport",
			"outputs": [
				{
					"internalType": "contract IRoyaltyEngine",
					"name": "",
					"type": "address"
				}
			],
			"stateMutability": "view",
			"type": "function"
		},
		{
			"inputs": [
				{
					"internalType": "bytes4",
					"name": "interfaceId",
					"type": "bytes4"
				}
			],
			"name": "supportsInterface",
			"outputs": [
				{
					"internalType": "bool",
					"name": "",
					"type": "bool"
				}
			],
			"stateMutability": "view",
			"type": "function"
		},
		{
			"inputs": [
				{
					"internalType": "string",
					"name": "",
					"type": "string"
				}
			],
			"name": "tokensUsed",
			"outputs": [
				{
					"internalType": "uint256",
					"name": "",
					"type": "uint256"
				}
			],
			"stateMutability": "view",
			"type": "function"
		},
		{
			"inputs": [
				{
					"internalType": "address",
					"name": "newOwner",
					"type": "address"
				}
			],
			"name": "transferOwnership",
			"outputs": [],
			"stateMutability": "nonpayable",
			"type": "function"
		},
		{
			"inputs": [
				{
					"internalType": "string",
					"name": "saleId",
					"type": "string"
				},
				{
					"internalType": "enum onchainBuy.PaymentStatus",
					"name": "paymentStatus",
					"type": "uint8"
				},
				{
					"internalType": "uint256",
					"name": "minimumFiatPrice",
					"type": "uint256"
				},
				{
					"internalType": "uint256[]",
					"name": "minimumCryptoPrice",
					"type": "uint256[]"
				},
				{
					"internalType": "address[]",
					"name": "paymentCurrency",
					"type": "address[]"
				}
			],
			"name": "updatePayment",
			"outputs": [],
			"stateMutability": "nonpayable",
			"type": "function"
		},
		{
			"inputs": [
				{
					"internalType": "address",
					"name": "_platformAddress",
					"type": "address"
				}
			],
			"name": "updatePlatformAddress",
			"outputs": [],
			"stateMutability": "nonpayable",
			"type": "function"
		},
		{
			"inputs": [
				{
					"internalType": "uint16",
					"name": "_platformFeePercentage",
					"type": "uint16"
				}
			],
			"name": "updatePlatformFeePercentage",
			"outputs": [],
			"stateMutability": "nonpayable",
			"type": "function"
		},
		{
			"inputs": [
				{
					"internalType": "address",
					"name": "pricefeed",
					"type": "address"
				}
			],
			"name": "updatePricefeedContract",
			"outputs": [],
			"stateMutability": "nonpayable",
			"type": "function"
		},
		{
			"inputs": [
				{
					"internalType": "address",
					"name": "royaltyContract",
					"type": "address"
				}
			],
			"name": "updateRoyaltyContract",
			"outputs": [],
			"stateMutability": "nonpayable",
			"type": "function"
		},
		{
			"inputs": [
				{
					"internalType": "uint64",
					"name": "_max1155Quantity",
					"type": "uint64"
				}
			],
			"name": "updatemax1155Quantity",
			"outputs": [],
			"stateMutability": "nonpayable",
			"type": "function"
		},
		{
			"inputs": [
				{
					"internalType": "string",
					"name": "saleId",
					"type": "string"
				},
				{
					"internalType": "address",
					"name": "_paymentSettlementAddress",
					"type": "address"
				}
			],
			"name": "updatepaymentSettlementAddress",
			"outputs": [],
			"stateMutability": "nonpayable",
			"type": "function"
		},
		{
			"inputs": [
				{
					"internalType": "string",
					"name": "saleId",
					"type": "string"
				},
				{
					"internalType": "address",
					"name": "_taxSettlementAddress",
					"type": "address"
				}
			],
			"name": "updatetaxSettlementAddress",
			"outputs": [],
			"stateMutability": "nonpayable",
			"type": "function"
		},
		{
			"inputs": [],
			"name": "withdraw",
			"outputs": [],
			"stateMutability": "nonpayable",
			"type": "function"
		},
		{
			"stateMutability": "payable",
			"type": "receive"
		}
	]
}