{
	"data": {
		"bytecode": {
			"linkReferences": {},
			"object": "60806040523480156200001157600080fd5b5060405162005bed38038062005bed8339810160408190526200003491620001ca565b6001600081815581546001600160a01b031916339081179092556040518291907f8be0079c531659141344cd1fd0a4f28419497f9722a3daafe3b4186f6b6457e0908290a3506001600160a01b038516620000d65760405162461bcd60e51b815260206004820152601860248201527f496e76616c696420506c6174666f726d2041646472657373000000000000000060448201526064015b60405180910390fd5b6127108461ffff16106200013b5760405162461bcd60e51b815260206004820152602560248201527f706c6174666f726d4665652073686f756c64206265206c657373207468616e20604482015264031303030360dc1b6064820152608401620000cd565b6007805461ffff909516600160a01b9081026001600160b01b03199096166001600160a01b039788161795909517905560098054600880549488166001600160a01b0319958616179055919095166001600160401b03909316909302166001600160e01b0319909216919091171790556200025b565b6001600160a01b0381168114620001c757600080fd5b50565b600080600080600060a08688031215620001e357600080fd5b8551620001f081620001b1565b602087015190955061ffff811681146200020957600080fd5b60408701519094506001600160401b03811681146200022757600080fd5b60608701519093506200023a81620001b1565b60808701519092506200024d81620001b1565b809150509295509295909350565b615982806200026b6000396000f3fe6080604052600436106101435760003560e01c806377dec6c3116100b0578063cbc9a9411161006c578063cbc9a941146104c3578063df354bdd146104e3578063dfa12f7914610511578063e8ac841f14610531578063f2fde38b14610551578063fd114f081461057157005b806377dec6c3146102db5780638da5cb5b146103d15780638f9f193f146103fe578063a68b91ab1461041e578063acecf9de14610483578063bf9afc18146104a357005b80633ccfd60b116100ff5780633ccfd60b146102235780634b9804b2146102385780636d73e66914610258578063705e3f6c14610278578063715018a614610298578063773fe986146102ad57005b806301ffc9a71461014c57806319e4367c1461018157806324d7806c146101a15780632977f78a146101c15780632d345670146101e157806331ae450b1461020157005b3661014a57005b005b34801561015857600080fd5b5061016c6101673660046143b9565b610591565b60405190151581526020015b60405180910390f35b34801561018d57600080fd5b5061014a61019c366004614408565b6105c8565b3480156101ad57600080fd5b5061016c6101bc366004614445565b610674565b3480156101cd57600080fd5b5061014a6101dc366004614540565b6106a3565b3480156101ed57600080fd5b5061014a6101fc366004614445565b610816565b34801561020d57600080fd5b5061021661089b565b60405161017891906145b8565b34801561022f57600080fd5b5061014a610949565b34801561024457600080fd5b5061014a610253366004614445565b610a54565b34801561026457600080fd5b5061014a610273366004614445565b610b20565b34801561028457600080fd5b5061014a610293366004614445565b610b9f565b3480156102a457600080fd5b5061014a610c6d565b3480156102b957600080fd5b506102cd6102c83660046145cb565b610ce6565b604051610178929190614627565b3480156102e757600080fd5b506103bd6102f6366004614540565b8051808201602090810180516004825292820193820193909320919092528054600182015460028301546040805160c08101825260058601546001600160a01b039081168252600687015481169782019790975260078601548088169282019290925261ffff600160a01b9283900481166060830152600887015480891660808401528390041660a0820152600990950154958416956001600160401b0391909404811694928116939192919081169060ff600160401b8204811691600160481b90041688565b60405161017898979695949392919061471c565b3480156103dd57600080fd5b506103e6610d6d565b6040516001600160a01b039091168152602001610178565b34801561040a57600080fd5b5061014a610419366004614445565b610d7c565b34801561042a57600080fd5b50600754600854600954604080516001600160a01b038086168252600160a01b9586900461ffff166020830152938416918101919091529181166060830152919091046001600160401b0316608082015260a001610178565b61049661049136600461478f565b610e2f565b604051610178919061486f565b3480156104af57600080fd5b5061014a6104be3660046148ca565b611343565b3480156104cf57600080fd5b5061014a6104de366004614930565b611434565b3480156104ef57600080fd5b506105036104fe36600461494d565b6114fd565b60405161017892919061498e565b34801561051d57600080fd5b5061014a61052c366004614a0f565b6115ed565b34801561053d57600080fd5b5061014a61054c3660046148ca565b611959565b34801561055d57600080fd5b5061014a61056c366004614445565b611a4a565b34801561057d57600080fd5b5061014a61058c366004614ac6565b611b3a565b60006001600160e01b03198216632a9f3abf60e11b14806105c257506301ffc9a760e01b6001600160e01b03198316145b92915050565b336105d1610d6d565b6001600160a01b031614806105ec57506105ec60023361234b565b6106115760405162461bcd60e51b815260040161060890614b37565b60405180910390fd5b6001600160401b0381161580159061063e57506009546001600160401b03828116600160a01b9092041614155b61064757600080fd5b600980546001600160401b03909216600160a01b0267ffffffffffffffff60a01b19909216919091179055565b6000816001600160a01b0316610688610d6d565b6001600160a01b031614806105c257506105c260028361234b565b336106ac610d6d565b6001600160a01b031614806106c757506106c760023361234b565b6106e35760405162461bcd60e51b815260040161060890614b37565b6006816040516106f39190614b9f565b9081526040519081900360200190205460ff166107225760405162461bcd60e51b815260040161060890614bbb565b6004816040516107329190614b9f565b90815260405190819003602001902080546001600160e01b031916815560018101805467ffffffffffffffff1916905560006002820181905561077860038301826142ec565b6107866004830160006142ec565b506005810180546001600160a01b031990811690915560068201805490911690556007810180546001600160b01b03199081169091556008820180549091169055600901805469ffffffffffffffffffff191690556040517f09fced985ff97f7dac8f320b7d834e3862ae0274970ffe3dc0d84de5a45389959061080b908390614c3e565b60405180910390a150565b3361081f610d6d565b6001600160a01b0316146108455760405162461bcd60e51b815260040161060890614c51565b61085060028261234b565b156108985760405133906001600160a01b038316907f7c0c3c84c67c85fcac635147348bfe374c24a1a93d0366d1cfe9d8853cbf89d590600090a3610896600282612370565b505b50565b60606108a76002612385565b6001600160401b038111156108be576108be614462565b6040519080825280602002602001820160405280156108e7578160200160208202803683370190505b50905060005b6108f76002612385565b8110156109455761090960028261238f565b82828151811061091b5761091b614c86565b6001600160a01b03909216602092830291909101909101528061093d81614cb2565b9150506108ed565b5090565b33610952610d6d565b6001600160a01b0316148061096d575061096d60023361234b565b6109895760405162461bcd60e51b815260040161060890614b37565b6040805160008082526020820192839052913391829147916109aa91614b9f565b60006040518083038185875af1925050503d80600081146109e7576040519150601f19603f3d011682016040523d82523d6000602084013e6109ec565b606091505b505080925050816108965760405162461bcd60e51b815260206004820152602c60248201527f776974686472617720746f2077697468647261772066756e64732e20506c656160448201526b39b2903a393c9030b3b0b4b760a11b6064820152608401610608565b33610a5d610d6d565b6001600160a01b03161480610a785750610a7860023361234b565b610a945760405162461bcd60e51b815260040161060890614b37565b6001600160a01b038116610afe5760405162461bcd60e51b815260206004820152602b60248201527f726f79616c747920636f6e74726163742073686f756c64206e6f74206265206160448201526a646472657373207a65726f60a81b6064820152608401610608565b600980546001600160a01b0319166001600160a01b0392909216919091179055565b33610b29610d6d565b6001600160a01b031614610b4f5760405162461bcd60e51b815260040161060890614c51565b610b5a60028261234b565b6108985760405133906001600160a01b038316907f7e1a1a08d52e4ba0e21554733d66165fd5151f99460116223d9e3a608eec5cb190600090a361089660028261239b565b33610ba8610d6d565b6001600160a01b03161480610bc35750610bc360023361234b565b610bdf5760405162461bcd60e51b815260040161060890614b37565b6001600160a01b038116610c4b5760405162461bcd60e51b815260206004820152602d60248201527f70726963656665656420636f6e74726163742073686f756c64206e6f7420626560448201526c2061646472657373207a65726f60981b6064820152608401610608565b600880546001600160a01b0319166001600160a01b0392909216919091179055565b33610c76610d6d565b6001600160a01b031614610c9c5760405162461bcd60e51b815260040161060890614c51565b6001546040516000916001600160a01b0316907f8be0079c531659141344cd1fd0a4f28419497f9722a3daafe3b4186f6b6457e0908390a3600180546001600160a01b0319169055565b600954604051636e44a72f60e01b815260609182916001600160a01b0390911690636e44a72f90610d1d9087908790600401614ccb565b600060405180830381865afa158015610d3a573d6000803e3d6000fd5b505050506040513d6000823e601f3d908101601f19168201604052610d629190810190614d72565b909590945092505050565b6001546001600160a01b031690565b33610d85610d6d565b6001600160a01b03161480610da05750610da060023361234b565b610dbc5760405162461bcd60e51b815260040161060890614b37565b6001600160a01b038116610e0d5760405162461bcd60e51b8152602060048201526018602482015277496e76616c696420506c6174666f726d204164647265737360401b6044820152606401610608565b600780546001600160a01b0319166001600160a01b0392909216919091179055565b6060600260005403610e835760405162461bcd60e51b815260206004820152601f60248201527f5265656e7472616e637947756172643a207265656e7472616e742063616c6c006044820152606401610608565b600260009081558351604051600491610e9b91614b9f565b90815260408051918290036020908101832060c08401835260058101546001600160a01b039081168552600682015481169285019290925260078101548083168585015261ffff600160a01b918290048116606087015260089092015492831660808601529091041660a083015285519051919250600091600491610f1f91614b9f565b9081526040805191829003602090810183206101408401835280546001600160a01b03811685526001600160401b03600160a01b909104811685840152600182015416848401526002810154606085015260038101805484518185028101850190955280855291936080860193909290830182828015610fbe57602002820191906000526020600020905b815481526020019060010190808311610faa575b505050505081526020016004820180548060200260200160405190810160405280929190818152602001828054801561102057602002820191906000526020600020905b81546001600160a01b03168152600190910190602001808311611002575b50505091835250506040805160c08101825260058401546001600160a01b0390811682526006850154811660208381019190915260078601548083168486015261ffff600160a01b918290048116606080870191909152600889015494851660808701529190930490921660a084015284019190915260098401546001600160401b038116928401929092529091019060ff600160401b9091041660018111156110cc576110cc6146db565b60018111156110dd576110dd6146db565b81526020016009820160099054906101000a900460ff166001811115611105576111056146db565b6001811115611116576111166146db565b905250855160405191925060069161112e9190614b9f565b9081526040519081900360200190205460ff1661115d5760405162461bcd60e51b815260040161060890614e36565b61116633610674565b8061117d575060808501516001600160a01b031633145b6112005760405162461bcd60e51b815260206004820152604860248201527f4f6e6c7920746865206275796572206f722061646d696e206f72206f776e657260448201527f206f66207468697320636f6e74726163742063616e2063616c6c207468697320606482015267333ab731ba34b7b760c11b608482015260a401610608565b60008061124b8760000151886040015189606001516001600160401b03168a60a001516001600160401b03168b60c001518b8d60e001516112419190614e60565b8d608001516123b0565b9150915061128e87600001518860200151838a608001518b604001518c606001516001600160401b03168d60a001516001600160401b03168a6101000151612e18565b945085156112aa576112aa3385602001518960c0015189613846565b6112da8760000151838960e001516112c29190614e73565b848a60c001518b604001518a878a610100015161394a565b806001600160a01b03167f92347fd034deb76ed77249b761aec05c6302665f18922499f245dde63bcb0d1f8887878a87888e60e0015161131a9190614e73565b60405161132c96959493929190614e86565b60405180910390a250505050600160005592915050565b3361134c610d6d565b6001600160a01b03161480611367575061136760023361234b565b6113835760405162461bcd60e51b815260040161060890614b37565b60068383604051611395929190614f6d565b9081526040519081900360200190205460ff166113c45760405162461bcd60e51b815260040161060890614e36565b6001600160a01b0381166113ea5760405162461bcd60e51b815260040161060890614f7d565b80600484846040516113fd929190614f6d565b90815260405190819003602001902060060180546001600160a01b03929092166001600160a01b0319909216919091179055505050565b3361143d610d6d565b6001600160a01b03161480611458575061145860023361234b565b6114745760405162461bcd60e51b815260040161060890614b37565b6127108161ffff16106114db5760405162461bcd60e51b815260206004820152602960248201527f706c6174666f726d4665652073686f756c64206e6f74206265206d6f72652074604482015268068616e2031303030360bc1b6064820152608401610608565b6007805461ffff909216600160a01b0261ffff60a01b19909216919091179055565b60608060048484604051611512929190614f6d565b908152604080519182900360209081018320600301805480830285018301909352828452919083018282801561156757602002820191906000526020600020905b815481526020019060010190808311611553575b5050505050915060048484604051611580929190614f6d565b90815260408051918290036020908101832060040180548083028501830190935282845291908301828280156115df57602002820191906000526020600020905b81546001600160a01b031681526001909101906020018083116115c1575b505050505090509250929050565b336115f6610d6d565b6001600160a01b03161480611611575061161160023361234b565b61162d5760405162461bcd60e51b815260040161060890614b37565b6006888860405161163f929190614f6d565b9081526040519081900360200190205460ff1661166e5760405162461bcd60e51b815260040161060890614e36565b8560048989604051611681929190614f6d565b908152604051908190036020019020600901805460ff60481b1916600160481b8360018111156116b3576116b36146db565b021790555060018660018111156116cc576116cc6146db565b036118715784156117455760405162461bcd60e51b815260206004820152603d60248201527f6d696e696d756d20666961742070726963652073686f756c64206265207a657260448201527f6f20696620746865207061796d656e74206973206f662063727970746f0000006064820152608401610608565b8083146117645760405162461bcd60e51b815260040161060890614fd5565b60005b8181101561186b57600085858381811061178357611783614c86565b90506020020135116117f35760405162461bcd60e51b815260206004820152603360248201527f6d696e696d756d20707269636520696e2063727970746f2073686f756c642062604482015272652067726561746572207468616e207a65726f60681b6064820152608401610608565b848460048b8b604051611807929190614f6d565b9081526020016040518091039020600301919061182592919061430a565b50828260048b8b60405161183a929190614f6d565b90815260200160405180910390206004019190611858929190614351565b508061186381614cb2565b915050611767565b5061194f565b6000866001811115611885576118856146db565b0361194f5780158015611896575082155b6119085760405162461bcd60e51b815260206004820152603f60248201527f63727970746f207061796d656e742064657461696c732073686f756c6420626560448201527f206e756c6c20696620746865207061796d656e74206973206f662066696174006064820152608401610608565b600085116119285760405162461bcd60e51b81526004016106089061502d565b846004898960405161193b929190614f6d565b908152604051908190036020019020600201555b5050505050505050565b33611962610d6d565b6001600160a01b0316148061197d575061197d60023361234b565b6119995760405162461bcd60e51b815260040161060890614b37565b600683836040516119ab929190614f6d565b9081526040519081900360200190205460ff166119da5760405162461bcd60e51b815260040161060890614e36565b6001600160a01b038116611a005760405162461bcd60e51b815260040161060890614f7d565b8060048484604051611a13929190614f6d565b90815260405190819003602001902060050180546001600160a01b03929092166001600160a01b0319909216919091179055505050565b33611a53610d6d565b6001600160a01b031614611a795760405162461bcd60e51b815260040161060890614c51565b6001600160a01b038116611ade5760405162461bcd60e51b815260206004820152602660248201527f4f776e61626c653a206e6577206f776e657220697320746865207a65726f206160448201526564647265737360d01b6064820152608401610608565b6001546040516001600160a01b038084169216907f8be0079c531659141344cd1fd0a4f28419497f9722a3daafe3b4186f6b6457e090600090a3600180546001600160a01b0319166001600160a01b0392909216919091179055565b33611b43610d6d565b6001600160a01b03161480611b5e5750611b5e60023361234b565b611b7a5760405162461bcd60e51b815260040161060890614b37565b60068282604051611b8c929190614f6d565b9081526040519081900360200190205460ff1615611bbc5760405162461bcd60e51b815260040161060890614bbb565b6000611bd061014085016101208601614930565b61ffff1615611c1857611beb61018085016101608601614930565b611bfd61014086016101208701614930565b611c07919061507e565b611c11908261507e565b9050611c4f565b611c2a61018085016101608601614930565b600754611c429190600160a01b900461ffff1661507e565b611c4c908261507e565b90505b6127108161ffff1610611cc05760405162461bcd60e51b815260206004820152603360248201527f54686520746f74616c2066656520626173697320706f696e742073686f756c646044820152720206265206c657373207468616e20313030303606c1b6064820152608401610608565b6000611cd26040860160208701614408565b6001600160401b0316118015611d0057506000611cf56060860160408701614408565b6001600160401b0316115b15611dd157611d156040850160208601614408565b6001600160401b0316611d2e6060860160408701614408565b6001600160401b03161015611dd15760405162461bcd60e51b815260206004820152605f60248201527f54686973206973206e6f7420612076616c6964204e4654207374617274206f7260448201527f20656e6420746f6b656e2049442e20506c65617365207665726966792074686160648201527f74207468652072616e67652070726f766964656420697320636f727265637400608482015260a401610608565b611dde6080850185615099565b9050611ded60a0860186615099565b905014611e0c5760405162461bcd60e51b815260040161060890614fd5565b6000611e206101e086016101c087016150e2565b6001811115611e3157611e316146db565b03611e5a576000846060013511611e5a5760405162461bcd60e51b81526004016106089061502d565b6000611e6e6101c086016101a087016150e2565b6001811115611e7f57611e7f6146db565b03611fab57611e966101a085016101808601614408565b6001600160401b0316600003611ef85760405162461bcd60e51b815260206004820152602160248201527f73686f756c642070726f76696465206d617843617020666f72206d696e74696e6044820152606760f81b6064820152608401610608565b611f086040850160208601614408565b6001600160401b0316158015611f345750611f296060850160408601614408565b6001600160401b0316155b611fa65760405162461bcd60e51b815260206004820152603d60248201527f546865204e46547374617274746f6b656e696420616e64204e4654656e64746f60448201527f6b656e69642073686f756c64206265203020666f72206d696e74696e670000006064820152608401610608565b612023565b611fbd6101a085016101808601614408565b6001600160401b0316156120235760405162461bcd60e51b815260206004820152602760248201527f6d61784361702073686f756c64206265203020666f72207072656d696e74656460448201526620746f6b656e7360c81b6064820152608401610608565b6120306020850185614445565b6040516301ffc9a760e01b81526001600160a01b0391909116906301ffc9a790612065906380ac58cd60e01b906004016150ff565b602060405180830381865afa158015612082573d6000803e3d6000fd5b505050506040513d601f19601f820116820180604052508101906120a69190615114565b8061212f57506120b96020850185614445565b6040516301ffc9a760e01b81526001600160a01b0391909116906301ffc9a7906120ee90636cdb3d1360e11b906004016150ff565b602060405180830381865afa15801561210b573d6000803e3d6000fd5b505050506040513d601f19601f8201168201806040525081019061212f9190615114565b6121a15760405162461bcd60e51b815260206004820152603e60248201527f73686f756c642070726f76696465206f6e6c7920737570706f7274656420636f60448201527f6e747261637420696e746572666163657320455243203732312f3131353500006064820152608401610608565b60006121b360e0860160c08701614445565b6001600160a01b0316036122245760405162461bcd60e51b815260206004820152603260248201527f73686f756c642070726f766964652076616c69642077616c6c65742061646472604482015271195cdcc8199bdc881cd95d1d1b195b595b9d60721b6064820152608401610608565b6000612237610100860160e08701614445565b6001600160a01b0316036122ac5760405162461bcd60e51b815260206004820152603660248201527f73686f756c642070726f766964652076616c69642077616c6c65742061646472604482015275195cdcc8199bdc881d185e081cd95d1d1b195b595b9d60521b6064820152608401610608565b83600484846040516122bf929190614f6d565b9081526040519081900360200190206122d882826153ad565b9050506001600684846040516122ef929190614f6d565b908152604051908190036020018120805492151560ff19909316929092179091557f5e497450a6bb5270282292fab91de64cb64f3e379288c411a7eab0f283afbbf59061233d908690615629565b60405180910390a150505050565b6001600160a01b038116600090815260018301602052604081205415155b9392505050565b6000612369836001600160a01b038416613b53565b60006105c2825490565b60006123698383613c4d565b6000612369836001600160a01b038416613c77565b600080600060048a6040516123c59190614b9f565b9081526040805191829003602090810183206101408401835280546001600160a01b03811685526001600160401b03600160a01b90910481168584015260018201541684840152600281015460608501526003810180548451818502810185019095528085529193608086019390929083018282801561246457602002820191906000526020600020905b815481526020019060010190808311612450575b50505050508152602001600482018054806020026020016040519081016040528092919081815260200182805480156124c657602002820191906000526020600020905b81546001600160a01b031681526001909101906020018083116124a8575b50505091835250506040805160c08101825260058401546001600160a01b0390811682526006850154811660208381019190915260078601548083168486015261ffff600160a01b918290048116606080870191909152600889015494851660808701529190930490921660a084015284019190915260098401546001600160401b038116928401929092529091019060ff600160401b909104166001811115612572576125726146db565b6001811115612583576125836146db565b81526020016009820160099054906101000a900460ff1660018111156125ab576125ab6146db565b60018111156125bc576125bc6146db565b90525060208101519091506001600160401b03161580156125ea5750600081604001516001600160401b0316115b156126215780604001516001600160401b031689111561261c5760405162461bcd60e51b815260040161060890615755565b6126f0565b600081602001516001600160401b0316118015612649575060408101516001600160401b0316155b1561267b5780602001516001600160401b031689101561261c5760405162461bcd60e51b815260040161060890615755565b600081602001516001600160401b03161180156126a55750600081604001516001600160401b0316115b156126f05780602001516001600160401b031689101580156126d4575080604001516001600160401b03168911155b6126f05760405162461bcd60e51b815260040161060890615755565b805191506000816101200151600181111561270d5761270d6146db565b03612794576008546060820151604051630748060b60e31b815260048101919091526001600160a01b03888116602483015290911690633a40305890604401602060405180830381865afa158015612769573d6000803e3d6000fd5b505050506040513d601f19601f8201168201806040525081019061278d91906157ca565b9250612831565b600181610120015160018111156127ad576127ad6146db565b036128315760005b8160a001515181101561282f57866001600160a01b03168260a0015182815181106127e2576127e2614c86565b60200260200101516001600160a01b03160361281d578160800151818151811061280e5761280e614c86565b6020026020010151935061282f565b8061282781614cb2565b9150506127b5565b505b8260000361289a5760405162461bcd60e51b815260206004820152603060248201527f506c656173652070726f766964652076616c696420737570706f72746564204560448201526f524332302f455448206164647265737360801b6064820152608401610608565b600081610100015160018111156128b3576128b36146db565b03612afb57600954600160a01b90046001600160401b03168711156129645760405162461bcd60e51b8152602060048201526067602482015260008051602061592d83398151915260448201527f7075726368617365206174206f6e652074696d652073686f756c64206e6f742060648201527f6265206d6f7265207468616e20646566696e656420696e206d6178313135355160848201526675616e7469747960c81b60a482015260c401610608565b6040516301ffc9a760e01b81526001600160a01b038316906301ffc9a790612997906380ac58cd60e01b906004016150ff565b602060405180830381865afa1580156129b4573d6000803e3d6000fd5b505050506040513d601f19601f820116820180604052508101906129d89190615114565b156129ee576129e78884615170565b9250612b26565b6040516301ffc9a760e01b81526001600160a01b038316906301ffc9a790612a2190636cdb3d1360e11b906004016150ff565b602060405180830381865afa158015612a3e573d6000803e3d6000fd5b505050506040513d601f19601f82011682018060405250810190612a629190615114565b15612af65760405163bd85b03960e01b8152600481018a90526001600160a01b0383169063bd85b03990602401602060405180830381865afa158015612aac573d6000803e3d6000fd5b505050506040513d601f19601f82011682018060405250810190612ad091906157ca565b600003612aec5786612ae28985615170565b6129e79190615170565b6129e78784615170565b612b26565b60018161010001516001811115612b1457612b146146db565b03612b2657612b238784615170565b92505b6001600160a01b038616612beb578434148015612b435750828510155b612be65760405162461bcd60e51b815260206004820152606260248201527f496e73756666696369656e742066756e6473206f7220696e76616c696420616d60448201527f6f756e742e20596f75206e65656420746f207061737320612076616c6964206160648201527f6d6f756e7420746f20636f6d706c6574652074686973207472616e736163746960848201526137b760f11b60a482015260c401610608565b612e0b565b6040516370a0823160e01b81526001600160a01b0385811660048301528691908816906370a0823190602401602060405180830381865afa158015612c34573d6000803e3d6000fd5b505050506040513d601f19601f82011682018060405250810190612c5891906157ca565b10158015612c665750828510155b612cf45760405162461bcd60e51b815260206004820152605360248201527f496e73756666696369656e742066756e64732e20596f752073686f756c64206860448201527f6176652073756666696369656e742062616c616e636520746f20636f6d706c656064820152723a32903a3434b9903a3930b739b0b1ba34b7b760691b608482015260a401610608565b604051636eb1769f60e11b81526001600160a01b03858116600483015230602483015286919088169063dd62ed3e90604401602060405180830381865afa158015612d43573d6000803e3d6000fd5b505050506040513d601f19601f82011682018060405250810190612d6791906157ca565b1015612e0b5760405162461bcd60e51b815260206004820152606160248201527f496e73756666696369656e7420617070726f76616c2066726f6d20616e20455260448201527f43323020546f6b656e2e20506c656173652070726f7669646520617070726f7660648201527f616c20746f207468697320636f6e747261637420616e642074727920616761696084820152603760f91b60a482015260c401610608565b5097509795505050505050565b6040516301ffc9a760e01b81526060906001600160a01b038816906301ffc9a790612e4e906380ac58cd60e01b906004016150ff565b602060405180830381865afa158015612e6b573d6000803e3d6000fd5b505050506040513d601f19601f82011682018060405250810190612e8f9190615114565b156131e1576001826001811115612ea857612ea86146db565b03612ffe576040516331a9108f60e11b8152600481018690526001600160a01b03808a169190891690636352211e90602401602060405180830381865afa158015612ef7573d6000803e3d6000fd5b505050506040513d601f19601f82011682018060405250810190612f1b91906157e3565b6001600160a01b031614612f8f5760405162461bcd60e51b815260206004820152603560248201527f496e76616c6964204e4654204f776e657220416464726573732e20506c656173604482015274329031b432b1b59030b732103a393c9030b3b0b4b760591b6064820152608401610608565b604051632142170760e11b81526001600160a01b0389811660048301528781166024830152604482018790528816906342842e0e90606401600060405180830381600087803b158015612fe157600080fd5b505af1158015612ff5573d6000803e3d6000fd5b5050505061383a565b6000826001811115613012576130126146db565b036131dc576004896040516130279190614b9f565b908152604051908190036020018120600901546001600160401b0316908590600590613054908d90614b9f565b90815260200160405180910390205461306d9190614e60565b11156131155760405162461bcd60e51b8152602060048201526077602482015260008051602061592d83398151915260448201527f70757263686173652045524337323120746f6b656e20686173206265656e207360648201527f6f6c64206f75742e20506c6561736520636f6e74616374207468652073616c65608482015276206f776e657220666f72206d6f72652064657461696c7360481b60a482015260c401610608565b60405163e00aab4b60e01b81526001600160a01b03878116600483015261ffff8616602483015288169063e00aab4b906044016000604051808303816000875af1158015613167573d6000803e3d6000fd5b505050506040513d6000823e601f3d908101601f1916820160405261318f9190810190615800565b90508360058a6040516131a29190614b9f565b9081526020016040518091039020546131bb9190614e60565b60058a6040516131cb9190614b9f565b908152604051908190036020019020555b61383a565b6040516301ffc9a760e01b81526001600160a01b038816906301ffc9a79061321490636cdb3d1360e11b906004016150ff565b602060405180830381865afa158015613231573d6000803e3d6000fd5b505050506040513d601f19601f820116820180604052508101906132559190615114565b1561383a57600182600181111561326e5761326e6146db565b036133e357604051627eeac760e11b81526000906001600160a01b0389169062fdd58e906132a2908c908a90600401614ccb565b602060405180830381865afa1580156132bf573d6000803e3d6000fd5b505050506040513d601f19601f820116820180604052508101906132e391906157ca565b90508084111580156132f55750600084115b6133535760405162461bcd60e51b815260206004820152602960248201527f496e73756666696369656e7420746f6b656e2062616c616e63652066726f6d206044820152683a34329037bbb732b960b91b6064820152608401610608565b604051637921219560e11b81526001600160a01b038a811660048301528881166024830152604482018890526064820186905260a06084830152600260a483015261060f60f31b60c483015289169063f242432a9060e401600060405180830381600087803b1580156133c557600080fd5b505af11580156133d9573d6000803e3d6000fd5b505050505061383a565b60008260018111156133f7576133f76146db565b0361383a57604080516001808252818301909252600091602080830190803683370190505090506000856001600160401b0381111561343857613438614462565b604051908082528060200260200182016040528015613461578160200160208202803683370190505b5090506060888360008151811061347a5761347a614c86565b60200260200101906001600160a01b031690816001600160a01b03168152505085826000815181106134ae576134ae614c86565b602090810291909101015260405163bd85b03960e01b8152600481018990526001600160a01b038b169063bd85b03990602401602060405180830381865afa1580156134fe573d6000803e3d6000fd5b505050506040513d601f19601f8201168201806040525081019061352291906157ca565b60000361371f5760048c6040516135399190614b9f565b908152604051908190036020018120600901546001600160401b031690600590613564908f90614b9f565b9081526020016040518091039020541061361b5760405162461bcd60e51b8152602060048201526078602482015260008051602061592d83398151915260448201527f7075726368617365204552433131353520746f6b656e20686173206265656e2060648201527f736f6c64206f75742e20506c6561736520636f6e74616374207468652073616c60848201527765206f776e657220666f72206d6f72652064657461696c7360401b60a482015260c401610608565b60005b87811015613656578683828151811061363957613639614c86565b60209081029190910101528061364e81614cb2565b91505061361e565b50604051634637423960e11b81526001600160a01b038b1690638c6e84729061368790869086908690600401615834565b6000604051808303816000875af11580156136a6573d6000803e3d6000fd5b505050506040513d6000823e601f3d908101601f191682016040526136ce9190810190615800565b93508660058d6040516136e19190614b9f565b9081526020016040518091039020546136fa9190614e60565b60058d60405161370a9190614b9f565b90815260405190819003602001902055613836565b60405163bd85b03960e01b8152600481018990526000906001600160a01b038c169063bd85b03990602401602060405180830381865afa158015613767573d6000803e3d6000fd5b505050506040513d601f19601f8201168201806040525081019061378b91906157ca565b1115613836576040805160018082528183019092526000916020808301908036833701905050905088816000815181106137c7576137c7614c86565b60209081029190910101526040516339b2213760e21b81526001600160a01b038c169063e6c884dc90613802908790859088906004016158bb565b600060405180830381600087803b15801561381c57600080fd5b505af1158015613830573d6000803e3d6000fd5b50505050505b5050505b98975050505050505050565b60006001600160a01b03831661392e57604080516000815260208101918290526001600160a01b03861691849161387c91614b9f565b60006040518083038185875af1925050503d80600081146138b9576040519150601f19603f3d011682016040523d82523d6000602084013e6138be565b606091505b505080915050806139295760405162461bcd60e51b815260206004820152602f60248201527f756e61626c6520746f206465626974206e61746976652062616c616e6365207060448201526e3632b0b9b2903a393c9030b3b0b4b760891b6064820152608401610608565b613943565b6139436001600160a01b038416868685613cc6565b5050505050565b600060048960405161395c9190614b9f565b90815260408051918290036020908101832060c08401835260058101546001600160a01b0390811685526006820154811692850192909252600781015480831693850184905261ffff600160a01b918290048116606087015260089092015492831660808601529091041660a0830152909150600090158015906139e857506000826060015161ffff16115b15613a2f57613a2a33836040015189612710866060015161ffff168d613a0e9190615170565b613a1891906158f4565b613a229086614e60565b945084613846565b613a89565b6007546001600160a01b031615801590613a555750600754600160a01b900461ffff1615155b15613a8957600754613a899033906001600160a01b038116908a9061271090613a0e90600160a01b900461ffff168e615170565b60808201516001600160a01b031615801590613aad575060008260a0015161ffff16115b15613b1a576127108260a0015161ffff1689613ac99190615170565b613ad391906158f4565b613add9082614e60565b9050613b1a338360800151898c6127108760a0015161ffff168e613b019190615170565b613b0b91906158f4565b613b159190614e60565b613846565b613b248189614e73565b9750613b35338787878c8c89613d26565b9750613b47338360000151898b613846565b50505050505050505050565b60008181526001830160205260408120548015613c3c576000613b77600183614e73565b8554909150600090613b8b90600190614e73565b9050818114613bf0576000866000018281548110613bab57613bab614c86565b9060005260206000200154905080876000018481548110613bce57613bce614c86565b6000918252602080832090910192909255918252600188019052604090208390555b8554869080613c0157613c01615916565b6001900381819060005260206000200160009055905585600101600086815260200190815260200160002060009055600193505050506105c2565b60009150506105c2565b5092915050565b6000826000018281548110613c6457613c64614c86565b9060005260206000200154905092915050565b6000818152600183016020526040812054613cbe575081546001818101845560008481526020808220909301849055845484825282860190935260409020919091556105c2565b5060006105c2565b604080516001600160a01b0385811660248301528416604482015260648082018490528251808303909101815260849091019091526020810180516001600160e01b03166323b872dd60e01b179052613d20908590613ed8565b50505050565b60006001826001811115613d3c57613d3c6146db565b03613d5557613d4e8886898787613faf565b9050613ecd565b6000826001811115613d6957613d696146db565b03613ecd576040516301ffc9a760e01b81526001600160a01b038616906301ffc9a790613da190636cdb3d1360e11b906004016150ff565b602060405180830381865afa158015613dbe573d6000803e3d6000fd5b505050506040513d601f19601f82011682018060405250810190613de29190615114565b8015613e57575060405163bd85b03960e01b8152600481018890526000906001600160a01b0387169063bd85b03990602401602060405180830381865afa158015613e31573d6000803e3d6000fd5b505050506040513d601f19601f82011682018060405250810190613e5591906157ca565b115b15613e6957613d4e8886898787613faf565b8551613e7590856158f4565b93506000805b8751811015613eca57613eaa8a888a8481518110613e9b57613e9b614c86565b60200260200101518989613faf565b9150613eb68284614e60565b925080613ec281614cb2565b915050613e7b565b50505b979650505050505050565b6000613f2d826040518060400160405280602081526020017f5361666545524332303a206c6f772d6c6576656c2063616c6c206661696c6564815250856001600160a01b03166141849092919063ffffffff16565b805190915015613faa5780806020019051810190613f4b9190615114565b613faa5760405162461bcd60e51b815260206004820152602a60248201527f5361666545524332303a204552433230206f7065726174696f6e20646964206e6044820152691bdd081cdd58d8d9595960b21b6064820152608401610608565b505050565b600954604051636e44a72f60e01b815260009184918391829182916001600160a01b031690636e44a72f90613fea908c908c90600401614ccb565b600060405180830381865afa158015614007573d6000803e3d6000fd5b505050506040513d6000823e601f3d908101601f1916820160405261402f9190810190614d72565b81519193509150600081900361404c57879550505050505061417b565b60005b8181101561417257600084828151811061406b5761406b614c86565b602002602001015190506127108a85848151811061408b5761408b614c86565b602002602001015161409d9190615170565b6140a791906158f4565b9550858710156141075760405162461bcd60e51b815260206004820152602560248201527f696e736f6c76656e743a20756e61626c6520746f20636f6d706c65746520726f60448201526479616c747960d81b6064820152608401610608565b6141138d828b89613846565b604080516001600160a01b038e81168252602082018e90528316818301526060810188905290517f866e6ef8682ddf5f1025e64dfdb45527077f7be70fa9ef680b7ffd8cf4ab9c509181900360800190a150948490039460010161404f565b50939450505050505b95945050505050565b6060614193848460008561419b565b949350505050565b6060824710156141fc5760405162461bcd60e51b815260206004820152602660248201527f416464726573733a20696e73756666696369656e742062616c616e636520666f6044820152651c8818d85b1b60d21b6064820152608401610608565b843b61424a5760405162461bcd60e51b815260206004820152601d60248201527f416464726573733a2063616c6c20746f206e6f6e2d636f6e74726163740000006044820152606401610608565b600080866001600160a01b031685876040516142669190614b9f565b60006040518083038185875af1925050503d80600081146142a3576040519150601f19603f3d011682016040523d82523d6000602084013e6142a8565b606091505b5091509150613ecd828286606083156142c2575081612369565b8251156142d25782518084602001fd5b8160405162461bcd60e51b81526004016106089190614c3e565b508054600082559060005260206000209081019061089891906143a4565b828054828255906000526020600020908101928215614345579160200282015b8281111561434557823582559160200191906001019061432a565b506109459291506143a4565b828054828255906000526020600020908101928215614345579160200282015b828111156143455781546001600160a01b0319166001600160a01b03843516178255602090920191600190910190614371565b5b8082111561094557600081556001016143a5565b6000602082840312156143cb57600080fd5b81356001600160e01b03198116811461236957600080fd5b6001600160401b038116811461089857600080fd5b8035614403816143e3565b919050565b60006020828403121561441a57600080fd5b8135612369816143e3565b6001600160a01b038116811461089857600080fd5b803561440381614425565b60006020828403121561445757600080fd5b813561236981614425565b634e487b7160e01b600052604160045260246000fd5b60405161010081016001600160401b038111828210171561449b5761449b614462565b60405290565b604051601f8201601f191681016001600160401b03811182821017156144c9576144c9614462565b604052919050565b600082601f8301126144e257600080fd5b81356001600160401b038111156144fb576144fb614462565b61450e601f8201601f19166020016144a1565b81815284602083860101111561452357600080fd5b816020850160208301376000918101602001919091529392505050565b60006020828403121561455257600080fd5b81356001600160401b0381111561456857600080fd5b614193848285016144d1565b600081518084526020808501945080840160005b838110156145ad5781516001600160a01b031687529582019590820190600101614588565b509495945050505050565b6020815260006123696020830184614574565b600080604083850312156145de57600080fd5b82356145e981614425565b946020939093013593505050565b600081518084526020808501945080840160005b838110156145ad5781518752958201959082019060010161460b565b604080825283519082018190526000906020906060840190828701845b828110156146695781516001600160a01b031684529284019290840190600101614644565b5050508381038285015261467d81866145f7565b9695505050505050565b60018060a01b03808251168352806020830151166020840152806040830151166040840152606082015161ffff80821660608601528260808501511660808601528060a08501511660a08601525050505050565b634e487b7160e01b600052602160045260246000fd5b6002811061089857634e487b7160e01b600052602160045260246000fd5b614718816146f1565b9052565b6001600160a01b03891681526001600160401b0388811660208301528781166040830152606082018790526101a082019061475a6080840188614687565b851661014083015261476b846146f1565b8361016083015261477b836146f1565b826101808301529998505050505050505050565b600080604083850312156147a257600080fd5b82356001600160401b03808211156147b957600080fd5b9084019061010082870312156147ce57600080fd5b6147d6614478565b8235828111156147e557600080fd5b6147f1888286016144d1565b8252506148006020840161443a565b60208201526040830135604082015261481b606084016143f8565b606082015261482c6080840161443a565b608082015261483d60a084016143f8565b60a082015261484e60c0840161443a565b60c082015260e0928301359281019290925250946020939093013593505050565b60208152600061236960208301846145f7565b60008083601f84011261489457600080fd5b5081356001600160401b038111156148ab57600080fd5b6020830191508360208285010111156148c357600080fd5b9250929050565b6000806000604084860312156148df57600080fd5b83356001600160401b038111156148f557600080fd5b61490186828701614882565b909450925050602084013561491581614425565b809150509250925092565b61ffff8116811461089857600080fd5b60006020828403121561494257600080fd5b813561236981614920565b6000806020838503121561496057600080fd5b82356001600160401b0381111561497657600080fd5b61498285828601614882565b90969095509350505050565b6040815260006149a160408301856145f7565b828103602084015261417b8185614574565b6002811061089857600080fd5b8035614403816149b3565b60008083601f8401126149dd57600080fd5b5081356001600160401b038111156149f457600080fd5b6020830191508360208260051b85010111156148c357600080fd5b60008060008060008060008060a0898b031215614a2b57600080fd5b88356001600160401b0380821115614a4257600080fd5b614a4e8c838d01614882565b909a50985060208b01359150614a63826149b3565b90965060408a0135955060608a01359080821115614a8057600080fd5b614a8c8c838d016149cb565b909650945060808b0135915080821115614aa557600080fd5b50614ab28b828c016149cb565b999c989b5096995094979396929594505050565b600080600060408486031215614adb57600080fd5b83356001600160401b0380821115614af257600080fd5b908501906101e08288031215614b0757600080fd5b90935060208501359080821115614b1d57600080fd5b50614b2a86828701614882565b9497909650939450505050565b60208082526024908201527f41646d696e436f6e74726f6c3a204d757374206265206f776e6572206f7220616040820152633236b4b760e11b606082015260800190565b60005b83811015614b96578181015183820152602001614b7e565b50506000910152565b60008251614bb1818460208701614b7b565b9190910192915050565b60208082526037908201527f7468652073616c65496420796f75206861766520656e746572656420697320696040820152766e76616c69642e20506c656173652076616c696461746560481b606082015260800190565b60008151808452614c2a816020860160208601614b7b565b601f01601f19169290920160200192915050565b6020815260006123696020830184614c12565b6020808252818101527f4f776e61626c653a2063616c6c6572206973206e6f7420746865206f776e6572604082015260600190565b634e487b7160e01b600052603260045260246000fd5b634e487b7160e01b600052601160045260246000fd5b600060018201614cc457614cc4614c9c565b5060010190565b6001600160a01b03929092168252602082015260400190565b60006001600160401b03821115614cfd57614cfd614462565b5060051b60200190565b600082601f830112614d1857600080fd5b81516020614d2d614d2883614ce4565b6144a1565b82815260059290921b84018101918181019086841115614d4c57600080fd5b8286015b84811015614d675780518352918301918301614d50565b509695505050505050565b60008060408385031215614d8557600080fd5b82516001600160401b0380821115614d9c57600080fd5b818501915085601f830112614db057600080fd5b81516020614dc0614d2883614ce4565b82815260059290921b84018101918181019089841115614ddf57600080fd5b948201945b83861015614e06578551614df781614425565b82529482019490820190614de4565b91880151919650909350505080821115614e1f57600080fd5b50614e2c85828601614d07565b9150509250929050565b60208082526010908201526f756e737570706f727465642073616c6560801b604082015260600190565b808201808211156105c2576105c2614c9c565b818103818111156105c2576105c2614c9c565b600061016080835288516101008083860152614ea6610260860183614c12565b60208c01516001600160a01b031661018087015260408c01516101a087015260608c01516001600160401b03166101c087015260808c01519093509150614ef96101e08601836001600160a01b03169052565b60a08b01516001600160401b031661020086015260c08b01516001600160a01b03811661022087015260e08c015161024087015285840360208701529150614f41838b6145f7565b9350614f50604086018a614687565b840196909652506101208201939093526101400152949350505050565b8183823760009101908152919050565b60208082526038908201527f73686f756c64206e6f74206265207a65726f2061646472657373206f722070726040820152776576696f757320736574746c656d656e742061647265737360401b606082015260800190565b60208082526038908201527f73686f756c642070726f7669646520657175616c206c656e67746820696e20706040820152777269636520616e64207061796d656e74206164647265737360401b606082015260800190565b60208082526031908201527f6d696e696d756d20707269636520696e20666961742073686f756c642062652060408201527067726561746572207468616e207a65726f60781b606082015260800190565b61ffff818116838216019080821115613c4657613c46614c9c565b6000808335601e198436030181126150b057600080fd5b8301803591506001600160401b038211156150ca57600080fd5b6020019150600581901b36038213156148c357600080fd5b6000602082840312156150f457600080fd5b8135612369816149b3565b6001600160e01b031991909116815260200190565b60006020828403121561512657600080fd5b8151801515811461236957600080fd5b600081356105c281614425565b80546001600160a01b0319166001600160a01b0392909216919091179055565b600081356105c2816143e3565b80820281158282048414176105c2576105c2614c9c565b81831015613faa576000818152602081208481019084015b808210156151b55782825560018201915061519f565b505050505050565b6001600160401b038311156151d4576151d4614462565b600160401b8311156151e8576151e8614462565b80548382556151f8848284615187565b50818160005260208060002060005b868110156152215783358282015592820192600101615207565b50505050505050565b6001600160401b0383111561524157615241614462565b600160401b83111561525557615255614462565b8054838255615265848284615187565b50818160005260208060002060005b8681101561522157833561528781614425565b8282015592820192600101615274565b805461ffff60a01b191660a09290921b61ffff60a01b16919091179055565b81356152c181614425565b6152cb8183615143565b5060208201356152da81614425565b6152e78160018401615143565b506002810160408301356152fa81614425565b6153048183615143565b50606083013561531381614920565b61531d8183615297565b505060038101608083013561533181614425565b61533b8183615143565b5060a083013561534a81614920565b613d208183615297565b600081356105c2816149b3565b61536a826146f1565b805460ff60401b191660409290921b60ff60401b16919091179055565b615390826146f1565b805460ff60481b191660489290921b60ff60481b16919091179055565b6153bf6153b983615136565b82615143565b6153fa6153ce60208401615163565b82805467ffffffffffffffff60a01b191660a09290921b67ffffffffffffffff60a01b16919091179055565b61542a61540960408401615163565b600183016001600160401b0382166001600160401b03198254161781555050565b606082013560028201556154416080830183615099565b61544f8183600386016151bd565b505061545e60a0830183615099565b61546c81836004860161522a565b505061547e60c08301600583016152b6565b600981016154b06154926101808501615163565b825467ffffffffffffffff19166001600160401b0391909116178255565b6154c66154c06101a08501615354565b82615361565b613faa6154d66101c08501615354565b82615387565b6000808335601e198436030181126154f357600080fd5b83016020810192503590506001600160401b0381111561551257600080fd5b8060051b36038213156148c357600080fd5b81835260006001600160fb1b0383111561553d57600080fd5b8260051b80836020870137939093016020019392505050565b8183526000602080850194508260005b858110156145ad57813561557981614425565b6001600160a01b031687529582019590820190600101615566565b803561559f81614425565b6001600160a01b0390811683526020820135906155bb82614425565b90811660208401526040820135906155d282614425565b90811660408401526060820135906155e982614920565b61ffff918216606085015260808301359161560383614425565b918116608085015260a08301359161561a83614920565b80831660a08601525050505050565b6020815261564a6020820161563d8461443a565b6001600160a01b03169052565b6000615658602084016143f8565b6001600160401b038116604084015250615674604084016143f8565b6001600160401b0381166060840152506060830135608083015261569b60808401846154dc565b6101e08060a08601526156b361020086018385615524565b92506156c260a08701876154dc565b868503601f190160c088015292506156db848483615556565b9350506156ee60e0860160c08801615594565b6156fb61018087016143f8565b91506101a0615714818701846001600160401b03169052565b61571f8188016149c0565b9250506101c06157318187018461470f565b61573c8188016149c0565b92505061574b8186018361470f565b5090949350505050565b6020808252604f908201527f54686973206973206e6f7420612076616c696420746f6b656e49642e20506c6560408201527f6173652076657269667920746861742074686520746f6b656e49642070726f7660608201526e1a591959081a5cc818dbdc9c9958dd608a1b608082015260a00190565b6000602082840312156157dc57600080fd5b5051919050565b6000602082840312156157f557600080fd5b815161236981614425565b60006020828403121561581257600080fd5b81516001600160401b0381111561582857600080fd5b61419384828501614d07565b6060815260006158476060830186614574565b60208382038185015261585a82876145f7565b915083820360408501528185518084528284019150828160051b85010183880160005b838110156158ab57601f19878403018552615899838351614c12565b9486019492509085019060010161587d565b50909a9950505050505050505050565b6060815260006158ce6060830186614574565b82810360208401526158e081866145f7565b9050828103604084015261467d81856145f7565b60008261591157634e487b7160e01b600052601260045260246000fd5b500490565b634e487b7160e01b600052603160045260246000fdfe546865206d6178696d756d207175616e7469747920616c6c6f77656420746f20a26469706673582212206b06a7d0860d415890272d7827290ab6336fb1e35cabe9fb043ba56794ff1a5b64736f6c63430008110033",
			"opcodes": "PUSH1 0x80 PUSH1 0x40 MSTORE CALLVALUE DUP1 ISZERO PUSH3 0x11 JUMPI PUSH1 0x0 DUP1 REVERT JUMPDEST POP PUSH1 0x40 MLOAD PUSH3 0x5BED CODESIZE SUB DUP1 PUSH3 0x5BED DUP4 CODECOPY DUP2 ADD PUSH1 0x40 DUP2 SWAP1 MSTORE PUSH3 0x34 SWAP2 PUSH3 0x1CA JUMP JUMPDEST PUSH1 0x1 PUSH1 0x0 DUP2 DUP2 SSTORE DUP2 SLOAD PUSH1 0x1 PUSH1 0x1 PUSH1 0xA0 SHL SUB NOT AND CALLER SWAP1 DUP2 OR SWAP1 SWAP3 SSTORE PUSH1 0x40 MLOAD DUP3 SWAP2 SWAP1 PUSH32 0x8BE0079C531659141344CD1FD0A4F28419497F9722A3DAAFE3B4186F6B6457E0 SWAP1 DUP3 SWAP1 LOG3 POP PUSH1 0x1 PUSH1 0x1 PUSH1 0xA0 SHL SUB DUP6 AND PUSH3 0xD6 JUMPI PUSH1 0x40 MLOAD PUSH3 0x461BCD PUSH1 0xE5 SHL DUP2 MSTORE PUSH1 0x20 PUSH1 0x4 DUP3 ADD MSTORE PUSH1 0x18 PUSH1 0x24 DUP3 ADD MSTORE PUSH32 0x496E76616C696420506C6174666F726D20416464726573730000000000000000 PUSH1 0x44 DUP3 ADD MSTORE PUSH1 0x64 ADD JUMPDEST PUSH1 0x40 MLOAD DUP1 SWAP2 SUB SWAP1 REVERT JUMPDEST PUSH2 0x2710 DUP5 PUSH2 0xFFFF AND LT PUSH3 0x13B JUMPI PUSH1 0x40 MLOAD PUSH3 0x461BCD PUSH1 0xE5 SHL DUP2 MSTORE PUSH1 0x20 PUSH1 0x4 DUP3 ADD MSTORE PUSH1 0x25 PUSH1 0x24 DUP3 ADD MSTORE PUSH32 0x706C6174666F726D4665652073686F756C64206265206C657373207468616E20 PUSH1 0x44 DUP3 ADD MSTORE PUSH5 0x313030303 PUSH1 0xDC SHL PUSH1 0x64 DUP3 ADD MSTORE PUSH1 0x84 ADD PUSH3 0xCD JUMP JUMPDEST PUSH1 0x7 DUP1 SLOAD PUSH2 0xFFFF SWAP1 SWAP6 AND PUSH1 0x1 PUSH1 0xA0 SHL SWAP1 DUP2 MUL PUSH1 0x1 PUSH1 0x1 PUSH1 0xB0 SHL SUB NOT SWAP1 SWAP7 AND PUSH1 0x1 PUSH1 0x1 PUSH1 0xA0 SHL SUB SWAP8 DUP9 AND OR SWAP6 SWAP1 SWAP6 OR SWAP1 SSTORE PUSH1 0x9 DUP1 SLOAD PUSH1 0x8 DUP1 SLOAD SWAP5 DUP9 AND PUSH1 0x1 PUSH1 0x1 PUSH1 0xA0 SHL SUB NOT SWAP6 DUP7 AND OR SWAP1 SSTORE SWAP2 SWAP1 SWAP6 AND PUSH1 0x1 PUSH1 0x1 PUSH1 0x40 SHL SUB SWAP1 SWAP4 AND SWAP1 SWAP4 MUL AND PUSH1 0x1 PUSH1 0x1 PUSH1 0xE0 SHL SUB NOT SWAP1 SWAP3 AND SWAP2 SWAP1 SWAP2 OR OR SWAP1 SSTORE PUSH3 0x25B JUMP JUMPDEST PUSH1 0x1 PUSH1 0x1 PUSH1 0xA0 SHL SUB DUP2 AND DUP2 EQ PUSH3 0x1C7 JUMPI PUSH1 0x0 DUP1 REVERT JUMPDEST POP JUMP JUMPDEST PUSH1 0x0 DUP1 PUSH1 0x0 DUP1 PUSH1 0x0 PUSH1 0xA0 DUP7 DUP9 SUB SLT ISZERO PUSH3 0x1E3 JUMPI PUSH1 0x0 DUP1 REVERT JUMPDEST DUP6 MLOAD PUSH3 0x1F0 DUP2 PUSH3 0x1B1 JUMP JUMPDEST PUSH1 0x20 DUP8 ADD MLOAD SWAP1 SWAP6 POP PUSH2 0xFFFF DUP2 AND DUP2 EQ PUSH3 0x209 JUMPI PUSH1 0x0 DUP1 REVERT JUMPDEST PUSH1 0x40 DUP8 ADD MLOAD SWAP1 SWAP5 POP PUSH1 0x1 PUSH1 0x1 PUSH1 0x40 SHL SUB DUP2 AND DUP2 EQ PUSH3 0x227 JUMPI PUSH1 0x0 DUP1 REVERT JUMPDEST PUSH1 0x60 DUP8 ADD MLOAD SWAP1 SWAP4 POP PUSH3 0x23A DUP2 PUSH3 0x1B1 JUMP JUMPDEST PUSH1 0x80 DUP8 ADD MLOAD SWAP1 SWAP3 POP PUSH3 0x24D DUP2 PUSH3 0x1B1 JUMP JUMPDEST DUP1 SWAP2 POP POP SWAP3 SWAP6 POP SWAP3 SWAP6 SWAP1 SWAP4 POP JUMP JUMPDEST PUSH2 0x5982 DUP1 PUSH3 0x26B PUSH1 0x0 CODECOPY PUSH1 0x0 RETURN INVALID PUSH1 0x80 PUSH1 0x40 MSTORE PUSH1 0x4 CALLDATASIZE LT PUSH2 0x143 JUMPI PUSH1 0x0 CALLDATALOAD PUSH1 0xE0 SHR DUP1 PUSH4 0x77DEC6C3 GT PUSH2 0xB0 JUMPI DUP1 PUSH4 0xCBC9A941 GT PUSH2 0x6C JUMPI DUP1 PUSH4 0xCBC9A941 EQ PUSH2 0x4C3 JUMPI DUP1 PUSH4 0xDF354BDD EQ PUSH2 0x4E3 JUMPI DUP1 PUSH4 0xDFA12F79 EQ PUSH2 0x511 JUMPI DUP1 PUSH4 0xE8AC841F EQ PUSH2 0x531 JUMPI DUP1 PUSH4 0xF2FDE38B EQ PUSH2 0x551 JUMPI DUP1 PUSH4 0xFD114F08 EQ PUSH2 0x571 JUMPI STOP JUMPDEST DUP1 PUSH4 0x77DEC6C3 EQ PUSH2 0x2DB JUMPI DUP1 PUSH4 0x8DA5CB5B EQ PUSH2 0x3D1 JUMPI DUP1 PUSH4 0x8F9F193F EQ PUSH2 0x3FE JUMPI DUP1 PUSH4 0xA68B91AB EQ PUSH2 0x41E JUMPI DUP1 PUSH4 0xACECF9DE EQ PUSH2 0x483 JUMPI DUP1 PUSH4 0xBF9AFC18 EQ PUSH2 0x4A3 JUMPI STOP JUMPDEST DUP1 PUSH4 0x3CCFD60B GT PUSH2 0xFF JUMPI DUP1 PUSH4 0x3CCFD60B EQ PUSH2 0x223 JUMPI DUP1 PUSH4 0x4B9804B2 EQ PUSH2 0x238 JUMPI DUP1 PUSH4 0x6D73E669 EQ PUSH2 0x258 JUMPI DUP1 PUSH4 0x705E3F6C EQ PUSH2 0x278 JUMPI DUP1 PUSH4 0x715018A6 EQ PUSH2 0x298 JUMPI DUP1 PUSH4 0x773FE986 EQ PUSH2 0x2AD JUMPI STOP JUMPDEST DUP1 PUSH4 0x1FFC9A7 EQ PUSH2 0x14C JUMPI DUP1 PUSH4 0x19E4367C EQ PUSH2 0x181 JUMPI DUP1 PUSH4 0x24D7806C EQ PUSH2 0x1A1 JUMPI DUP1 PUSH4 0x2977F78A EQ PUSH2 0x1C1 JUMPI DUP1 PUSH4 0x2D345670 EQ PUSH2 0x1E1 JUMPI DUP1 PUSH4 0x31AE450B EQ PUSH2 0x201 JUMPI STOP JUMPDEST CALLDATASIZE PUSH2 0x14A JUMPI STOP JUMPDEST STOP JUMPDEST CALLVALUE DUP1 ISZERO PUSH2 0x158 JUMPI PUSH1 0x0 DUP1 REVERT JUMPDEST POP PUSH2 0x16C PUSH2 0x167 CALLDATASIZE PUSH1 0x4 PUSH2 0x43B9 JUMP JUMPDEST PUSH2 0x591 JUMP JUMPDEST PUSH1 0x40 MLOAD SWAP1 ISZERO ISZERO DUP2 MSTORE PUSH1 0x20 ADD JUMPDEST PUSH1 0x40 MLOAD DUP1 SWAP2 SUB SWAP1 RETURN JUMPDEST CALLVALUE DUP1 ISZERO PUSH2 0x18D JUMPI PUSH1 0x0 DUP1 REVERT JUMPDEST POP PUSH2 0x14A PUSH2 0x19C CALLDATASIZE PUSH1 0x4 PUSH2 0x4408 JUMP JUMPDEST PUSH2 0x5C8 JUMP JUMPDEST CALLVALUE DUP1 ISZERO PUSH2 0x1AD JUMPI PUSH1 0x0 DUP1 REVERT JUMPDEST POP PUSH2 0x16C PUSH2 0x1BC CALLDATASIZE PUSH1 0x4 PUSH2 0x4445 JUMP JUMPDEST PUSH2 0x674 JUMP JUMPDEST CALLVALUE DUP1 ISZERO PUSH2 0x1CD JUMPI PUSH1 0x0 DUP1 REVERT JUMPDEST POP PUSH2 0x14A PUSH2 0x1DC CALLDATASIZE PUSH1 0x4 PUSH2 0x4540 JUMP JUMPDEST PUSH2 0x6A3 JUMP JUMPDEST CALLVALUE DUP1 ISZERO PUSH2 0x1ED JUMPI PUSH1 0x0 DUP1 REVERT JUMPDEST POP PUSH2 0x14A PUSH2 0x1FC CALLDATASIZE PUSH1 0x4 PUSH2 0x4445 JUMP JUMPDEST PUSH2 0x816 JUMP JUMPDEST CALLVALUE DUP1 ISZERO PUSH2 0x20D JUMPI PUSH1 0x0 DUP1 REVERT JUMPDEST POP PUSH2 0x216 PUSH2 0x89B JUMP JUMPDEST PUSH1 0x40 MLOAD PUSH2 0x178 SWAP2 SWAP1 PUSH2 0x45B8 JUMP JUMPDEST CALLVALUE DUP1 ISZERO PUSH2 0x22F JUMPI PUSH1 0x0 DUP1 REVERT JUMPDEST POP PUSH2 0x14A PUSH2 0x949 JUMP JUMPDEST CALLVALUE DUP1 ISZERO PUSH2 0x244 JUMPI PUSH1 0x0 DUP1 REVERT JUMPDEST POP PUSH2 0x14A PUSH2 0x253 CALLDATASIZE PUSH1 0x4 PUSH2 0x4445 JUMP JUMPDEST PUSH2 0xA54 JUMP JUMPDEST CALLVALUE DUP1 ISZERO PUSH2 0x264 JUMPI PUSH1 0x0 DUP1 REVERT JUMPDEST POP PUSH2 0x14A PUSH2 0x273 CALLDATASIZE PUSH1 0x4 PUSH2 0x4445 JUMP JUMPDEST PUSH2 0xB20 JUMP JUMPDEST CALLVALUE DUP1 ISZERO PUSH2 0x284 JUMPI PUSH1 0x0 DUP1 REVERT JUMPDEST POP PUSH2 0x14A PUSH2 0x293 CALLDATASIZE PUSH1 0x4 PUSH2 0x4445 JUMP JUMPDEST PUSH2 0xB9F JUMP JUMPDEST CALLVALUE DUP1 ISZERO PUSH2 0x2A4 JUMPI PUSH1 0x0 DUP1 REVERT JUMPDEST POP PUSH2 0x14A PUSH2 0xC6D JUMP JUMPDEST CALLVALUE DUP1 ISZERO PUSH2 0x2B9 JUMPI PUSH1 0x0 DUP1 REVERT JUMPDEST POP PUSH2 0x2CD PUSH2 0x2C8 CALLDATASIZE PUSH1 0x4 PUSH2 0x45CB JUMP JUMPDEST PUSH2 0xCE6 JUMP JUMPDEST PUSH1 0x40 MLOAD PUSH2 0x178 SWAP3 SWAP2 SWAP1 PUSH2 0x4627 JUMP JUMPDEST CALLVALUE DUP1 ISZERO PUSH2 0x2E7 JUMPI PUSH1 0x0 DUP1 REVERT JUMPDEST POP PUSH2 0x3BD PUSH2 0x2F6 CALLDATASIZE PUSH1 0x4 PUSH2 0x4540 JUMP JUMPDEST DUP1 MLOAD DUP1 DUP3 ADD PUSH1 0x20 SWAP1 DUP2 ADD DUP1 MLOAD PUSH1 0x4 DUP3 MSTORE SWAP3 DUP3 ADD SWAP4 DUP3 ADD SWAP4 SWAP1 SWAP4 KECCAK256 SWAP2 SWAP1 SWAP3 MSTORE DUP1 SLOAD PUSH1 0x1 DUP3 ADD SLOAD PUSH1 0x2 DUP4 ADD SLOAD PUSH1 0x40 DUP1 MLOAD PUSH1 0xC0 DUP2 ADD DUP3 MSTORE PUSH1 0x5 DUP7 ADD SLOAD PUSH1 0x1 PUSH1 0x1 PUSH1 0xA0 SHL SUB SWAP1 DUP2 AND DUP3 MSTORE PUSH1 0x6 DUP8 ADD SLOAD DUP2 AND SWAP8 DUP3 ADD SWAP8 SWAP1 SWAP8 MSTORE PUSH1 0x7 DUP7 ADD SLOAD DUP1 DUP9 AND SWAP3 DUP3 ADD SWAP3 SWAP1 SWAP3 MSTORE PUSH2 0xFFFF PUSH1 0x1 PUSH1 0xA0 SHL SWAP3 DUP4 SWAP1 DIV DUP2 AND PUSH1 0x60 DUP4 ADD MSTORE PUSH1 0x8 DUP8 ADD SLOAD DUP1 DUP10 AND PUSH1 0x80 DUP5 ADD MSTORE DUP4 SWAP1 DIV AND PUSH1 0xA0 DUP3 ADD MSTORE PUSH1 0x9 SWAP1 SWAP6 ADD SLOAD SWAP6 DUP5 AND SWAP6 PUSH1 0x1 PUSH1 0x1 PUSH1 0x40 SHL SUB SWAP2 SWAP1 SWAP5 DIV DUP2 AND SWAP5 SWAP3 DUP2 AND SWAP4 SWAP2 SWAP3 SWAP2 SWAP1 DUP2 AND SWAP1 PUSH1 0xFF PUSH1 0x1 PUSH1 0x40 SHL DUP3 DIV DUP2 AND SWAP2 PUSH1 0x1 PUSH1 0x48 SHL SWAP1 DIV AND DUP9 JUMP JUMPDEST PUSH1 0x40 MLOAD PUSH2 0x178 SWAP9 SWAP8 SWAP7 SWAP6 SWAP5 SWAP4 SWAP3 SWAP2 SWAP1 PUSH2 0x471C JUMP JUMPDEST CALLVALUE DUP1 ISZERO PUSH2 0x3DD JUMPI PUSH1 0x0 DUP1 REVERT JUMPDEST POP PUSH2 0x3E6 PUSH2 0xD6D JUMP JUMPDEST PUSH1 0x40 MLOAD PUSH1 0x1 PUSH1 0x1 PUSH1 0xA0 SHL SUB SWAP1 SWAP2 AND DUP2 MSTORE PUSH1 0x20 ADD PUSH2 0x178 JUMP JUMPDEST CALLVALUE DUP1 ISZERO PUSH2 0x40A JUMPI PUSH1 0x0 DUP1 REVERT JUMPDEST POP PUSH2 0x14A PUSH2 0x419 CALLDATASIZE PUSH1 0x4 PUSH2 0x4445 JUMP JUMPDEST PUSH2 0xD7C JUMP JUMPDEST CALLVALUE DUP1 ISZERO PUSH2 0x42A JUMPI PUSH1 0x0 DUP1 REVERT JUMPDEST POP PUSH1 0x7 SLOAD PUSH1 0x8 SLOAD PUSH1 0x9 SLOAD PUSH1 0x40 DUP1 MLOAD PUSH1 0x1 PUSH1 0x1 PUSH1 0xA0 SHL SUB DUP1 DUP7 AND DUP3 MSTORE PUSH1 0x1 PUSH1 0xA0 SHL SWAP6 DUP7 SWAP1 DIV PUSH2 0xFFFF AND PUSH1 0x20 DUP4 ADD MSTORE SWAP4 DUP5 AND SWAP2 DUP2 ADD SWAP2 SWAP1 SWAP2 MSTORE SWAP2 DUP2 AND PUSH1 0x60 DUP4 ADD MSTORE SWAP2 SWAP1 SWAP2 DIV PUSH1 0x1 PUSH1 0x1 PUSH1 0x40 SHL SUB AND PUSH1 0x80 DUP3 ADD MSTORE PUSH1 0xA0 ADD PUSH2 0x178 JUMP JUMPDEST PUSH2 0x496 PUSH2 0x491 CALLDATASIZE PUSH1 0x4 PUSH2 0x478F JUMP JUMPDEST PUSH2 0xE2F JUMP JUMPDEST PUSH1 0x40 MLOAD PUSH2 0x178 SWAP2 SWAP1 PUSH2 0x486F JUMP JUMPDEST CALLVALUE DUP1 ISZERO PUSH2 0x4AF JUMPI PUSH1 0x0 DUP1 REVERT JUMPDEST POP PUSH2 0x14A PUSH2 0x4BE CALLDATASIZE PUSH1 0x4 PUSH2 0x48CA JUMP JUMPDEST PUSH2 0x1343 JUMP JUMPDEST CALLVALUE DUP1 ISZERO PUSH2 0x4CF JUMPI PUSH1 0x0 DUP1 REVERT JUMPDEST POP PUSH2 0x14A PUSH2 0x4DE CALLDATASIZE PUSH1 0x4 PUSH2 0x4930 JUMP JUMPDEST PUSH2 0x1434 JUMP JUMPDEST CALLVALUE DUP1 ISZERO PUSH2 0x4EF JUMPI PUSH1 0x0 DUP1 REVERT JUMPDEST POP PUSH2 0x503 PUSH2 0x4FE CALLDATASIZE PUSH1 0x4 PUSH2 0x494D JUMP JUMPDEST PUSH2 0x14FD JUMP JUMPDEST PUSH1 0x40 MLOAD PUSH2 0x178 SWAP3 SWAP2 SWAP1 PUSH2 0x498E JUMP JUMPDEST CALLVALUE DUP1 ISZERO PUSH2 0x51D JUMPI PUSH1 0x0 DUP1 REVERT JUMPDEST POP PUSH2 0x14A PUSH2 0x52C CALLDATASIZE PUSH1 0x4 PUSH2 0x4A0F JUMP JUMPDEST PUSH2 0x15ED JUMP JUMPDEST CALLVALUE DUP1 ISZERO PUSH2 0x53D JUMPI PUSH1 0x0 DUP1 REVERT JUMPDEST POP PUSH2 0x14A PUSH2 0x54C CALLDATASIZE PUSH1 0x4 PUSH2 0x48CA JUMP JUMPDEST PUSH2 0x1959 JUMP JUMPDEST CALLVALUE DUP1 ISZERO PUSH2 0x55D JUMPI PUSH1 0x0 DUP1 REVERT JUMPDEST POP PUSH2 0x14A PUSH2 0x56C CALLDATASIZE PUSH1 0x4 PUSH2 0x4445 JUMP JUMPDEST PUSH2 0x1A4A JUMP JUMPDEST CALLVALUE DUP1 ISZERO PUSH2 0x57D JUMPI PUSH1 0x0 DUP1 REVERT JUMPDEST POP PUSH2 0x14A PUSH2 0x58C CALLDATASIZE PUSH1 0x4 PUSH2 0x4AC6 JUMP JUMPDEST PUSH2 0x1B3A JUMP JUMPDEST PUSH1 0x0 PUSH1 0x1 PUSH1 0x1 PUSH1 0xE0 SHL SUB NOT DUP3 AND PUSH4 0x2A9F3ABF PUSH1 0xE1 SHL EQ DUP1 PUSH2 0x5C2 JUMPI POP PUSH4 0x1FFC9A7 PUSH1 0xE0 SHL PUSH1 0x1 PUSH1 0x1 PUSH1 0xE0 SHL SUB NOT DUP4 AND EQ JUMPDEST SWAP3 SWAP2 POP POP JUMP JUMPDEST CALLER PUSH2 0x5D1 PUSH2 0xD6D JUMP JUMPDEST PUSH1 0x1 PUSH1 0x1 PUSH1 0xA0 SHL SUB AND EQ DUP1 PUSH2 0x5EC JUMPI POP PUSH2 0x5EC PUSH1 0x2 CALLER PUSH2 0x234B JUMP JUMPDEST PUSH2 0x611 JUMPI PUSH1 0x40 MLOAD PUSH3 0x461BCD PUSH1 0xE5 SHL DUP2 MSTORE PUSH1 0x4 ADD PUSH2 0x608 SWAP1 PUSH2 0x4B37 JUMP JUMPDEST PUSH1 0x40 MLOAD DUP1 SWAP2 SUB SWAP1 REVERT JUMPDEST PUSH1 0x1 PUSH1 0x1 PUSH1 0x40 SHL SUB DUP2 AND ISZERO DUP1 ISZERO SWAP1 PUSH2 0x63E JUMPI POP PUSH1 0x9 SLOAD PUSH1 0x1 PUSH1 0x1 PUSH1 0x40 SHL SUB DUP3 DUP2 AND PUSH1 0x1 PUSH1 0xA0 SHL SWAP1 SWAP3 DIV AND EQ ISZERO JUMPDEST PUSH2 0x647 JUMPI PUSH1 0x0 DUP1 REVERT JUMPDEST PUSH1 0x9 DUP1 SLOAD PUSH1 0x1 PUSH1 0x1 PUSH1 0x40 SHL SUB SWAP1 SWAP3 AND PUSH1 0x1 PUSH1 0xA0 SHL MUL PUSH8 0xFFFFFFFFFFFFFFFF PUSH1 0xA0 SHL NOT SWAP1 SWAP3 AND SWAP2 SWAP1 SWAP2 OR SWAP1 SSTORE JUMP JUMPDEST PUSH1 0x0 DUP2 PUSH1 0x1 PUSH1 0x1 PUSH1 0xA0 SHL SUB AND PUSH2 0x688 PUSH2 0xD6D JUMP JUMPDEST PUSH1 0x1 PUSH1 0x1 PUSH1 0xA0 SHL SUB AND EQ DUP1 PUSH2 0x5C2 JUMPI POP PUSH2 0x5C2 PUSH1 0x2 DUP4 PUSH2 0x234B JUMP JUMPDEST CALLER PUSH2 0x6AC PUSH2 0xD6D JUMP JUMPDEST PUSH1 0x1 PUSH1 0x1 PUSH1 0xA0 SHL SUB AND EQ DUP1 PUSH2 0x6C7 JUMPI POP PUSH2 0x6C7 PUSH1 0x2 CALLER PUSH2 0x234B JUMP JUMPDEST PUSH2 0x6E3 JUMPI PUSH1 0x40 MLOAD PUSH3 0x461BCD PUSH1 0xE5 SHL DUP2 MSTORE PUSH1 0x4 ADD PUSH2 0x608 SWAP1 PUSH2 0x4B37 JUMP JUMPDEST PUSH1 0x6 DUP2 PUSH1 0x40 MLOAD PUSH2 0x6F3 SWAP2 SWAP1 PUSH2 0x4B9F JUMP JUMPDEST SWAP1 DUP2 MSTORE PUSH1 0x40 MLOAD SWAP1 DUP2 SWAP1 SUB PUSH1 0x20 ADD SWAP1 KECCAK256 SLOAD PUSH1 0xFF AND PUSH2 0x722 JUMPI PUSH1 0x40 MLOAD PUSH3 0x461BCD PUSH1 0xE5 SHL DUP2 MSTORE PUSH1 0x4 ADD PUSH2 0x608 SWAP1 PUSH2 0x4BBB JUMP JUMPDEST PUSH1 0x4 DUP2 PUSH1 0x40 MLOAD PUSH2 0x732 SWAP2 SWAP1 PUSH2 0x4B9F JUMP JUMPDEST SWAP1 DUP2 MSTORE PUSH1 0x40 MLOAD SWAP1 DUP2 SWAP1 SUB PUSH1 0x20 ADD SWAP1 KECCAK256 DUP1 SLOAD PUSH1 0x1 PUSH1 0x1 PUSH1 0xE0 SHL SUB NOT AND DUP2 SSTORE PUSH1 0x1 DUP2 ADD DUP1 SLOAD PUSH8 0xFFFFFFFFFFFFFFFF NOT AND SWAP1 SSTORE PUSH1 0x0 PUSH1 0x2 DUP3 ADD DUP2 SWAP1 SSTORE PUSH2 0x778 PUSH1 0x3 DUP4 ADD DUP3 PUSH2 0x42EC JUMP JUMPDEST PUSH2 0x786 PUSH1 0x4 DUP4 ADD PUSH1 0x0 PUSH2 0x42EC JUMP JUMPDEST POP PUSH1 0x5 DUP2 ADD DUP1 SLOAD PUSH1 0x1 PUSH1 0x1 PUSH1 0xA0 SHL SUB NOT SWAP1 DUP2 AND SWAP1 SWAP2 SSTORE PUSH1 0x6 DUP3 ADD DUP1 SLOAD SWAP1 SWAP2 AND SWAP1 SSTORE PUSH1 0x7 DUP2 ADD DUP1 SLOAD PUSH1 0x1 PUSH1 0x1 PUSH1 0xB0 SHL SUB NOT SWAP1 DUP2 AND SWAP1 SWAP2 SSTORE PUSH1 0x8 DUP3 ADD DUP1 SLOAD SWAP1 SWAP2 AND SWAP1 SSTORE PUSH1 0x9 ADD DUP1 SLOAD PUSH10 0xFFFFFFFFFFFFFFFFFFFF NOT AND SWAP1 SSTORE PUSH1 0x40 MLOAD PUSH32 0x9FCED985FF97F7DAC8F320B7D834E3862AE0274970FFE3DC0D84DE5A4538995 SWAP1 PUSH2 0x80B SWAP1 DUP4 SWAP1 PUSH2 0x4C3E JUMP JUMPDEST PUSH1 0x40 MLOAD DUP1 SWAP2 SUB SWAP1 LOG1 POP JUMP JUMPDEST CALLER PUSH2 0x81F PUSH2 0xD6D JUMP JUMPDEST PUSH1 0x1 PUSH1 0x1 PUSH1 0xA0 SHL SUB AND EQ PUSH2 0x845 JUMPI PUSH1 0x40 MLOAD PUSH3 0x461BCD PUSH1 0xE5 SHL DUP2 MSTORE PUSH1 0x4 ADD PUSH2 0x608 SWAP1 PUSH2 0x4C51 JUMP JUMPDEST PUSH2 0x850 PUSH1 0x2 DUP3 PUSH2 0x234B JUMP JUMPDEST ISZERO PUSH2 0x898 JUMPI PUSH1 0x40 MLOAD CALLER SWAP1 PUSH1 0x1 PUSH1 0x1 PUSH1 0xA0 SHL SUB DUP4 AND SWAP1 PUSH32 0x7C0C3C84C67C85FCAC635147348BFE374C24A1A93D0366D1CFE9D8853CBF89D5 SWAP1 PUSH1 0x0 SWAP1 LOG3 PUSH2 0x896 PUSH1 0x2 DUP3 PUSH2 0x2370 JUMP JUMPDEST POP JUMPDEST POP JUMP JUMPDEST PUSH1 0x60 PUSH2 0x8A7 PUSH1 0x2 PUSH2 0x2385 JUMP JUMPDEST PUSH1 0x1 PUSH1 0x1 PUSH1 0x40 SHL SUB DUP2 GT ISZERO PUSH2 0x8BE JUMPI PUSH2 0x8BE PUSH2 0x4462 JUMP JUMPDEST PUSH1 0x40 MLOAD SWAP1 DUP1 DUP3 MSTORE DUP1 PUSH1 0x20 MUL PUSH1 0x20 ADD DUP3 ADD PUSH1 0x40 MSTORE DUP1 ISZERO PUSH2 0x8E7 JUMPI DUP2 PUSH1 0x20 ADD PUSH1 0x20 DUP3 MUL DUP1 CALLDATASIZE DUP4 CALLDATACOPY ADD SWAP1 POP JUMPDEST POP SWAP1 POP PUSH1 0x0 JUMPDEST PUSH2 0x8F7 PUSH1 0x2 PUSH2 0x2385 JUMP JUMPDEST DUP2 LT ISZERO PUSH2 0x945 JUMPI PUSH2 0x909 PUSH1 0x2 DUP3 PUSH2 0x238F JUMP JUMPDEST DUP3 DUP3 DUP2 MLOAD DUP2 LT PUSH2 0x91B JUMPI PUSH2 0x91B PUSH2 0x4C86 JUMP JUMPDEST PUSH1 0x1 PUSH1 0x1 PUSH1 0xA0 SHL SUB SWAP1 SWAP3 AND PUSH1 0x20 SWAP3 DUP4 MUL SWAP2 SWAP1 SWAP2 ADD SWAP1 SWAP2 ADD MSTORE DUP1 PUSH2 0x93D DUP2 PUSH2 0x4CB2 JUMP JUMPDEST SWAP2 POP POP PUSH2 0x8ED JUMP JUMPDEST POP SWAP1 JUMP JUMPDEST CALLER PUSH2 0x952 PUSH2 0xD6D JUMP JUMPDEST PUSH1 0x1 PUSH1 0x1 PUSH1 0xA0 SHL SUB AND EQ DUP1 PUSH2 0x96D JUMPI POP PUSH2 0x96D PUSH1 0x2 CALLER PUSH2 0x234B JUMP JUMPDEST PUSH2 0x989 JUMPI PUSH1 0x40 MLOAD PUSH3 0x461BCD PUSH1 0xE5 SHL DUP2 MSTORE PUSH1 0x4 ADD PUSH2 0x608 SWAP1 PUSH2 0x4B37 JUMP JUMPDEST PUSH1 0x40 DUP1 MLOAD PUSH1 0x0 DUP1 DUP3 MSTORE PUSH1 0x20 DUP3 ADD SWAP3 DUP4 SWAP1 MSTORE SWAP2 CALLER SWAP2 DUP3 SWAP2 SELFBALANCE SWAP2 PUSH2 0x9AA SWAP2 PUSH2 0x4B9F JUMP JUMPDEST PUSH1 0x0 PUSH1 0x40 MLOAD DUP1 DUP4 SUB DUP2 DUP6 DUP8 GAS CALL SWAP3 POP POP POP RETURNDATASIZE DUP1 PUSH1 0x0 DUP2 EQ PUSH2 0x9E7 JUMPI PUSH1 0x40 MLOAD SWAP2 POP PUSH1 0x1F NOT PUSH1 0x3F RETURNDATASIZE ADD AND DUP3 ADD PUSH1 0x40 MSTORE RETURNDATASIZE DUP3 MSTORE RETURNDATASIZE PUSH1 0x0 PUSH1 0x20 DUP5 ADD RETURNDATACOPY PUSH2 0x9EC JUMP JUMPDEST PUSH1 0x60 SWAP2 POP JUMPDEST POP POP DUP1 SWAP3 POP POP DUP2 PUSH2 0x896 JUMPI PUSH1 0x40 MLOAD PUSH3 0x461BCD PUSH1 0xE5 SHL DUP2 MSTORE PUSH1 0x20 PUSH1 0x4 DUP3 ADD MSTORE PUSH1 0x2C PUSH1 0x24 DUP3 ADD MSTORE PUSH32 0x776974686472617720746F2077697468647261772066756E64732E20506C6561 PUSH1 0x44 DUP3 ADD MSTORE PUSH12 0x39B2903A393C9030B3B0B4B7 PUSH1 0xA1 SHL PUSH1 0x64 DUP3 ADD MSTORE PUSH1 0x84 ADD PUSH2 0x608 JUMP JUMPDEST CALLER PUSH2 0xA5D PUSH2 0xD6D JUMP JUMPDEST PUSH1 0x1 PUSH1 0x1 PUSH1 0xA0 SHL SUB AND EQ DUP1 PUSH2 0xA78 JUMPI POP PUSH2 0xA78 PUSH1 0x2 CALLER PUSH2 0x234B JUMP JUMPDEST PUSH2 0xA94 JUMPI PUSH1 0x40 MLOAD PUSH3 0x461BCD PUSH1 0xE5 SHL DUP2 MSTORE PUSH1 0x4 ADD PUSH2 0x608 SWAP1 PUSH2 0x4B37 JUMP JUMPDEST PUSH1 0x1 PUSH1 0x1 PUSH1 0xA0 SHL SUB DUP2 AND PUSH2 0xAFE JUMPI PUSH1 0x40 MLOAD PUSH3 0x461BCD PUSH1 0xE5 SHL DUP2 MSTORE PUSH1 0x20 PUSH1 0x4 DUP3 ADD MSTORE PUSH1 0x2B PUSH1 0x24 DUP3 ADD MSTORE PUSH32 0x726F79616C747920636F6E74726163742073686F756C64206E6F742062652061 PUSH1 0x44 DUP3 ADD MSTORE PUSH11 0x646472657373207A65726F PUSH1 0xA8 SHL PUSH1 0x64 DUP3 ADD MSTORE PUSH1 0x84 ADD PUSH2 0x608 JUMP JUMPDEST PUSH1 0x9 DUP1 SLOAD PUSH1 0x1 PUSH1 0x1 PUSH1 0xA0 SHL SUB NOT AND PUSH1 0x1 PUSH1 0x1 PUSH1 0xA0 SHL SUB SWAP3 SWAP1 SWAP3 AND SWAP2 SWAP1 SWAP2 OR SWAP1 SSTORE JUMP JUMPDEST CALLER PUSH2 0xB29 PUSH2 0xD6D JUMP JUMPDEST PUSH1 0x1 PUSH1 0x1 PUSH1 0xA0 SHL SUB AND EQ PUSH2 0xB4F JUMPI PUSH1 0x40 MLOAD PUSH3 0x461BCD PUSH1 0xE5 SHL DUP2 MSTORE PUSH1 0x4 ADD PUSH2 0x608 SWAP1 PUSH2 0x4C51 JUMP JUMPDEST PUSH2 0xB5A PUSH1 0x2 DUP3 PUSH2 0x234B JUMP JUMPDEST PUSH2 0x898 JUMPI PUSH1 0x40 MLOAD CALLER SWAP1 PUSH1 0x1 PUSH1 0x1 PUSH1 0xA0 SHL SUB DUP4 AND SWAP1 PUSH32 0x7E1A1A08D52E4BA0E21554733D66165FD5151F99460116223D9E3A608EEC5CB1 SWAP1 PUSH1 0x0 SWAP1 LOG3 PUSH2 0x896 PUSH1 0x2 DUP3 PUSH2 0x239B JUMP JUMPDEST CALLER PUSH2 0xBA8 PUSH2 0xD6D JUMP JUMPDEST PUSH1 0x1 PUSH1 0x1 PUSH1 0xA0 SHL SUB AND EQ DUP1 PUSH2 0xBC3 JUMPI POP PUSH2 0xBC3 PUSH1 0x2 CALLER PUSH2 0x234B JUMP JUMPDEST PUSH2 0xBDF JUMPI PUSH1 0x40 MLOAD PUSH3 0x461BCD PUSH1 0xE5 SHL DUP2 MSTORE PUSH1 0x4 ADD PUSH2 0x608 SWAP1 PUSH2 0x4B37 JUMP JUMPDEST PUSH1 0x1 PUSH1 0x1 PUSH1 0xA0 SHL SUB DUP2 AND PUSH2 0xC4B JUMPI PUSH1 0x40 MLOAD PUSH3 0x461BCD PUSH1 0xE5 SHL DUP2 MSTORE PUSH1 0x20 PUSH1 0x4 DUP3 ADD MSTORE PUSH1 0x2D PUSH1 0x24 DUP3 ADD MSTORE PUSH32 0x70726963656665656420636F6E74726163742073686F756C64206E6F74206265 PUSH1 0x44 DUP3 ADD MSTORE PUSH13 0x2061646472657373207A65726F PUSH1 0x98 SHL PUSH1 0x64 DUP3 ADD MSTORE PUSH1 0x84 ADD PUSH2 0x608 JUMP JUMPDEST PUSH1 0x8 DUP1 SLOAD PUSH1 0x1 PUSH1 0x1 PUSH1 0xA0 SHL SUB NOT AND PUSH1 0x1 PUSH1 0x1 PUSH1 0xA0 SHL SUB SWAP3 SWAP1 SWAP3 AND SWAP2 SWAP1 SWAP2 OR SWAP1 SSTORE JUMP JUMPDEST CALLER PUSH2 0xC76 PUSH2 0xD6D JUMP JUMPDEST PUSH1 0x1 PUSH1 0x1 PUSH1 0xA0 SHL SUB AND EQ PUSH2 0xC9C JUMPI PUSH1 0x40 MLOAD PUSH3 0x461BCD PUSH1 0xE5 SHL DUP2 MSTORE PUSH1 0x4 ADD PUSH2 0x608 SWAP1 PUSH2 0x4C51 JUMP JUMPDEST PUSH1 0x1 SLOAD PUSH1 0x40 MLOAD PUSH1 0x0 SWAP2 PUSH1 0x1 PUSH1 0x1 PUSH1 0xA0 SHL SUB AND SWAP1 PUSH32 0x8BE0079C531659141344CD1FD0A4F28419497F9722A3DAAFE3B4186F6B6457E0 SWAP1 DUP4 SWAP1 LOG3 PUSH1 0x1 DUP1 SLOAD PUSH1 0x1 PUSH1 0x1 PUSH1 0xA0 SHL SUB NOT AND SWAP1 SSTORE JUMP JUMPDEST PUSH1 0x9 SLOAD PUSH1 0x40 MLOAD PUSH4 0x6E44A72F PUSH1 0xE0 SHL DUP2 MSTORE PUSH1 0x60 SWAP2 DUP3 SWAP2 PUSH1 0x1 PUSH1 0x1 PUSH1 0xA0 SHL SUB SWAP1 SWAP2 AND SWAP1 PUSH4 0x6E44A72F SWAP1 PUSH2 0xD1D SWAP1 DUP8 SWAP1 DUP8 SWAP1 PUSH1 0x4 ADD PUSH2 0x4CCB JUMP JUMPDEST PUSH1 0x0 PUSH1 0x40 MLOAD DUP1 DUP4 SUB DUP2 DUP7 GAS STATICCALL ISZERO DUP1 ISZERO PUSH2 0xD3A JUMPI RETURNDATASIZE PUSH1 0x0 DUP1 RETURNDATACOPY RETURNDATASIZE PUSH1 0x0 REVERT JUMPDEST POP POP POP POP PUSH1 0x40 MLOAD RETURNDATASIZE PUSH1 0x0 DUP3 RETURNDATACOPY PUSH1 0x1F RETURNDATASIZE SWAP1 DUP2 ADD PUSH1 0x1F NOT AND DUP3 ADD PUSH1 0x40 MSTORE PUSH2 0xD62 SWAP2 SWAP1 DUP2 ADD SWAP1 PUSH2 0x4D72 JUMP JUMPDEST SWAP1 SWAP6 SWAP1 SWAP5 POP SWAP3 POP POP POP JUMP JUMPDEST PUSH1 0x1 SLOAD PUSH1 0x1 PUSH1 0x1 PUSH1 0xA0 SHL SUB AND SWAP1 JUMP JUMPDEST CALLER PUSH2 0xD85 PUSH2 0xD6D JUMP JUMPDEST PUSH1 0x1 PUSH1 0x1 PUSH1 0xA0 SHL SUB AND EQ DUP1 PUSH2 0xDA0 JUMPI POP PUSH2 0xDA0 PUSH1 0x2 CALLER PUSH2 0x234B JUMP JUMPDEST PUSH2 0xDBC JUMPI PUSH1 0x40 MLOAD PUSH3 0x461BCD PUSH1 0xE5 SHL DUP2 MSTORE PUSH1 0x4 ADD PUSH2 0x608 SWAP1 PUSH2 0x4B37 JUMP JUMPDEST PUSH1 0x1 PUSH1 0x1 PUSH1 0xA0 SHL SUB DUP2 AND PUSH2 0xE0D JUMPI PUSH1 0x40 MLOAD PUSH3 0x461BCD PUSH1 0xE5 SHL DUP2 MSTORE PUSH1 0x20 PUSH1 0x4 DUP3 ADD MSTORE PUSH1 0x18 PUSH1 0x24 DUP3 ADD MSTORE PUSH24 0x496E76616C696420506C6174666F726D2041646472657373 PUSH1 0x40 SHL PUSH1 0x44 DUP3 ADD MSTORE PUSH1 0x64 ADD PUSH2 0x608 JUMP JUMPDEST PUSH1 0x7 DUP1 SLOAD PUSH1 0x1 PUSH1 0x1 PUSH1 0xA0 SHL SUB NOT AND PUSH1 0x1 PUSH1 0x1 PUSH1 0xA0 SHL SUB SWAP3 SWAP1 SWAP3 AND SWAP2 SWAP1 SWAP2 OR SWAP1 SSTORE JUMP JUMPDEST PUSH1 0x60 PUSH1 0x2 PUSH1 0x0 SLOAD SUB PUSH2 0xE83 JUMPI PUSH1 0x40 MLOAD PUSH3 0x461BCD PUSH1 0xE5 SHL DUP2 MSTORE PUSH1 0x20 PUSH1 0x4 DUP3 ADD MSTORE PUSH1 0x1F PUSH1 0x24 DUP3 ADD MSTORE PUSH32 0x5265656E7472616E637947756172643A207265656E7472616E742063616C6C00 PUSH1 0x44 DUP3 ADD MSTORE PUSH1 0x64 ADD PUSH2 0x608 JUMP JUMPDEST PUSH1 0x2 PUSH1 0x0 SWAP1 DUP2 SSTORE DUP4 MLOAD PUSH1 0x40 MLOAD PUSH1 0x4 SWAP2 PUSH2 0xE9B SWAP2 PUSH2 0x4B9F JUMP JUMPDEST SWAP1 DUP2 MSTORE PUSH1 0x40 DUP1 MLOAD SWAP2 DUP3 SWAP1 SUB PUSH1 0x20 SWAP1 DUP2 ADD DUP4 KECCAK256 PUSH1 0xC0 DUP5 ADD DUP4 MSTORE PUSH1 0x5 DUP2 ADD SLOAD PUSH1 0x1 PUSH1 0x1 PUSH1 0xA0 SHL SUB SWAP1 DUP2 AND DUP6 MSTORE PUSH1 0x6 DUP3 ADD SLOAD DUP2 AND SWAP3 DUP6 ADD SWAP3 SWAP1 SWAP3 MSTORE PUSH1 0x7 DUP2 ADD SLOAD DUP1 DUP4 AND DUP6 DUP6 ADD MSTORE PUSH2 0xFFFF PUSH1 0x1 PUSH1 0xA0 SHL SWAP2 DUP3 SWAP1 DIV DUP2 AND PUSH1 0x60 DUP8 ADD MSTORE PUSH1 0x8 SWAP1 SWAP3 ADD SLOAD SWAP3 DUP4 AND PUSH1 0x80 DUP7 ADD MSTORE SWAP1 SWAP2 DIV AND PUSH1 0xA0 DUP4 ADD MSTORE DUP6 MLOAD SWAP1 MLOAD SWAP2 SWAP3 POP PUSH1 0x0 SWAP2 PUSH1 0x4 SWAP2 PUSH2 0xF1F SWAP2 PUSH2 0x4B9F JUMP JUMPDEST SWAP1 DUP2 MSTORE PUSH1 0x40 DUP1 MLOAD SWAP2 DUP3 SWAP1 SUB PUSH1 0x20 SWAP1 DUP2 ADD DUP4 KECCAK256 PUSH2 0x140 DUP5 ADD DUP4 MSTORE DUP1 SLOAD PUSH1 0x1 PUSH1 0x1 PUSH1 0xA0 SHL SUB DUP2 AND DUP6 MSTORE PUSH1 0x1 PUSH1 0x1 PUSH1 0x40 SHL SUB PUSH1 0x1 PUSH1 0xA0 SHL SWAP1 SWAP2 DIV DUP2 AND DUP6 DUP5 ADD MSTORE PUSH1 0x1 DUP3 ADD SLOAD AND DUP5 DUP5 ADD MSTORE PUSH1 0x2 DUP2 ADD SLOAD PUSH1 0x60 DUP6 ADD MSTORE PUSH1 0x3 DUP2 ADD DUP1 SLOAD DUP5 MLOAD DUP2 DUP6 MUL DUP2 ADD DUP6 ADD SWAP1 SWAP6 MSTORE DUP1 DUP6 MSTORE SWAP2 SWAP4 PUSH1 0x80 DUP7 ADD SWAP4 SWAP1 SWAP3 SWAP1 DUP4 ADD DUP3 DUP3 DUP1 ISZERO PUSH2 0xFBE JUMPI PUSH1 0x20 MUL DUP3 ADD SWAP2 SWAP1 PUSH1 0x0 MSTORE PUSH1 0x20 PUSH1 0x0 KECCAK256 SWAP1 JUMPDEST DUP2 SLOAD DUP2 MSTORE PUSH1 0x20 ADD SWAP1 PUSH1 0x1 ADD SWAP1 DUP1 DUP4 GT PUSH2 0xFAA JUMPI JUMPDEST POP POP POP POP POP DUP2 MSTORE PUSH1 0x20 ADD PUSH1 0x4 DUP3 ADD DUP1 SLOAD DUP1 PUSH1 0x20 MUL PUSH1 0x20 ADD PUSH1 0x40 MLOAD SWAP1 DUP2 ADD PUSH1 0x40 MSTORE DUP1 SWAP3 SWAP2 SWAP1 DUP2 DUP2 MSTORE PUSH1 0x20 ADD DUP3 DUP1 SLOAD DUP1 ISZERO PUSH2 0x1020 JUMPI PUSH1 0x20 MUL DUP3 ADD SWAP2 SWAP1 PUSH1 0x0 MSTORE PUSH1 0x20 PUSH1 0x0 KECCAK256 SWAP1 JUMPDEST DUP2 SLOAD PUSH1 0x1 PUSH1 0x1 PUSH1 0xA0 SHL SUB AND DUP2 MSTORE PUSH1 0x1 SWAP1 SWAP2 ADD SWAP1 PUSH1 0x20 ADD DUP1 DUP4 GT PUSH2 0x1002 JUMPI JUMPDEST POP POP POP SWAP2 DUP4 MSTORE POP POP PUSH1 0x40 DUP1 MLOAD PUSH1 0xC0 DUP2 ADD DUP3 MSTORE PUSH1 0x5 DUP5 ADD SLOAD PUSH1 0x1 PUSH1 0x1 PUSH1 0xA0 SHL SUB SWAP1 DUP2 AND DUP3 MSTORE PUSH1 0x6 DUP6 ADD SLOAD DUP2 AND PUSH1 0x20 DUP4 DUP2 ADD SWAP2 SWAP1 SWAP2 MSTORE PUSH1 0x7 DUP7 ADD SLOAD DUP1 DUP4 AND DUP5 DUP7 ADD MSTORE PUSH2 0xFFFF PUSH1 0x1 PUSH1 0xA0 SHL SWAP2 DUP3 SWAP1 DIV DUP2 AND PUSH1 0x60 DUP1 DUP8 ADD SWAP2 SWAP1 SWAP2 MSTORE PUSH1 0x8 DUP10 ADD SLOAD SWAP5 DUP6 AND PUSH1 0x80 DUP8 ADD MSTORE SWAP2 SWAP1 SWAP4 DIV SWAP1 SWAP3 AND PUSH1 0xA0 DUP5 ADD MSTORE DUP5 ADD SWAP2 SWAP1 SWAP2 MSTORE PUSH1 0x9 DUP5 ADD SLOAD PUSH1 0x1 PUSH1 0x1 PUSH1 0x40 SHL SUB DUP2 AND SWAP3 DUP5 ADD SWAP3 SWAP1 SWAP3 MSTORE SWAP1 SWAP2 ADD SWAP1 PUSH1 0xFF PUSH1 0x1 PUSH1 0x40 SHL SWAP1 SWAP2 DIV AND PUSH1 0x1 DUP2 GT ISZERO PUSH2 0x10CC JUMPI PUSH2 0x10CC PUSH2 0x46DB JUMP JUMPDEST PUSH1 0x1 DUP2 GT ISZERO PUSH2 0x10DD JUMPI PUSH2 0x10DD PUSH2 0x46DB JUMP JUMPDEST DUP2 MSTORE PUSH1 0x20 ADD PUSH1 0x9 DUP3 ADD PUSH1 0x9 SWAP1 SLOAD SWAP1 PUSH2 0x100 EXP SWAP1 DIV PUSH1 0xFF AND PUSH1 0x1 DUP2 GT ISZERO PUSH2 0x1105 JUMPI PUSH2 0x1105 PUSH2 0x46DB JUMP JUMPDEST PUSH1 0x1 DUP2 GT ISZERO PUSH2 0x1116 JUMPI PUSH2 0x1116 PUSH2 0x46DB JUMP JUMPDEST SWAP1 MSTORE POP DUP6 MLOAD PUSH1 0x40 MLOAD SWAP2 SWAP3 POP PUSH1 0x6 SWAP2 PUSH2 0x112E SWAP2 SWAP1 PUSH2 0x4B9F JUMP JUMPDEST SWAP1 DUP2 MSTORE PUSH1 0x40 MLOAD SWAP1 DUP2 SWAP1 SUB PUSH1 0x20 ADD SWAP1 KECCAK256 SLOAD PUSH1 0xFF AND PUSH2 0x115D JUMPI PUSH1 0x40 MLOAD PUSH3 0x461BCD PUSH1 0xE5 SHL DUP2 MSTORE PUSH1 0x4 ADD PUSH2 0x608 SWAP1 PUSH2 0x4E36 JUMP JUMPDEST PUSH2 0x1166 CALLER PUSH2 0x674 JUMP JUMPDEST DUP1 PUSH2 0x117D JUMPI POP PUSH1 0x80 DUP6 ADD MLOAD PUSH1 0x1 PUSH1 0x1 PUSH1 0xA0 SHL SUB AND CALLER EQ JUMPDEST PUSH2 0x1200 JUMPI PUSH1 0x40 MLOAD PUSH3 0x461BCD PUSH1 0xE5 SHL DUP2 MSTORE PUSH1 0x20 PUSH1 0x4 DUP3 ADD MSTORE PUSH1 0x48 PUSH1 0x24 DUP3 ADD MSTORE PUSH32 0x4F6E6C7920746865206275796572206F722061646D696E206F72206F776E6572 PUSH1 0x44 DUP3 ADD MSTORE PUSH32 0x206F66207468697320636F6E74726163742063616E2063616C6C207468697320 PUSH1 0x64 DUP3 ADD MSTORE PUSH8 0x333AB731BA34B7B7 PUSH1 0xC1 SHL PUSH1 0x84 DUP3 ADD MSTORE PUSH1 0xA4 ADD PUSH2 0x608 JUMP JUMPDEST PUSH1 0x0 DUP1 PUSH2 0x124B DUP8 PUSH1 0x0 ADD MLOAD DUP9 PUSH1 0x40 ADD MLOAD DUP10 PUSH1 0x60 ADD MLOAD PUSH1 0x1 PUSH1 0x1 PUSH1 0x40 SHL SUB AND DUP11 PUSH1 0xA0 ADD MLOAD PUSH1 0x1 PUSH1 0x1 PUSH1 0x40 SHL SUB AND DUP12 PUSH1 0xC0 ADD MLOAD DUP12 DUP14 PUSH1 0xE0 ADD MLOAD PUSH2 0x1241 SWAP2 SWAP1 PUSH2 0x4E60 JUMP JUMPDEST DUP14 PUSH1 0x80 ADD MLOAD PUSH2 0x23B0 JUMP JUMPDEST SWAP2 POP SWAP2 POP PUSH2 0x128E DUP8 PUSH1 0x0 ADD MLOAD DUP9 PUSH1 0x20 ADD MLOAD DUP4 DUP11 PUSH1 0x80 ADD MLOAD DUP12 PUSH1 0x40 ADD MLOAD DUP13 PUSH1 0x60 ADD MLOAD PUSH1 0x1 PUSH1 0x1 PUSH1 0x40 SHL SUB AND DUP14 PUSH1 0xA0 ADD MLOAD PUSH1 0x1 PUSH1 0x1 PUSH1 0x40 SHL SUB AND DUP11 PUSH2 0x100 ADD MLOAD PUSH2 0x2E18 JUMP JUMPDEST SWAP5 POP DUP6 ISZERO PUSH2 0x12AA JUMPI PUSH2 0x12AA CALLER DUP6 PUSH1 0x20 ADD MLOAD DUP10 PUSH1 0xC0 ADD MLOAD DUP10 PUSH2 0x3846 JUMP JUMPDEST PUSH2 0x12DA DUP8 PUSH1 0x0 ADD MLOAD DUP4 DUP10 PUSH1 0xE0 ADD MLOAD PUSH2 0x12C2 SWAP2 SWAP1 PUSH2 0x4E73 JUMP JUMPDEST DUP5 DUP11 PUSH1 0xC0 ADD MLOAD DUP12 PUSH1 0x40 ADD MLOAD DUP11 DUP8 DUP11 PUSH2 0x100 ADD MLOAD PUSH2 0x394A JUMP JUMPDEST DUP1 PUSH1 0x1 PUSH1 0x1 PUSH1 0xA0 SHL SUB AND PUSH32 0x92347FD034DEB76ED77249B761AEC05C6302665F18922499F245DDE63BCB0D1F DUP9 DUP8 DUP8 DUP11 DUP8 DUP9 DUP15 PUSH1 0xE0 ADD MLOAD PUSH2 0x131A SWAP2 SWAP1 PUSH2 0x4E73 JUMP JUMPDEST PUSH1 0x40 MLOAD PUSH2 0x132C SWAP7 SWAP6 SWAP5 SWAP4 SWAP3 SWAP2 SWAP1 PUSH2 0x4E86 JUMP JUMPDEST PUSH1 0x40 MLOAD DUP1 SWAP2 SUB SWAP1 LOG2 POP POP POP POP PUSH1 0x1 PUSH1 0x0 SSTORE SWAP3 SWAP2 POP POP JUMP JUMPDEST CALLER PUSH2 0x134C PUSH2 0xD6D JUMP JUMPDEST PUSH1 0x1 PUSH1 0x1 PUSH1 0xA0 SHL SUB AND EQ DUP1 PUSH2 0x1367 JUMPI POP PUSH2 0x1367 PUSH1 0x2 CALLER PUSH2 0x234B JUMP JUMPDEST PUSH2 0x1383 JUMPI PUSH1 0x40 MLOAD PUSH3 0x461BCD PUSH1 0xE5 SHL DUP2 MSTORE PUSH1 0x4 ADD PUSH2 0x608 SWAP1 PUSH2 0x4B37 JUMP JUMPDEST PUSH1 0x6 DUP4 DUP4 PUSH1 0x40 MLOAD PUSH2 0x1395 SWAP3 SWAP2 SWAP1 PUSH2 0x4F6D JUMP JUMPDEST SWAP1 DUP2 MSTORE PUSH1 0x40 MLOAD SWAP1 DUP2 SWAP1 SUB PUSH1 0x20 ADD SWAP1 KECCAK256 SLOAD PUSH1 0xFF AND PUSH2 0x13C4 JUMPI PUSH1 0x40 MLOAD PUSH3 0x461BCD PUSH1 0xE5 SHL DUP2 MSTORE PUSH1 0x4 ADD PUSH2 0x608 SWAP1 PUSH2 0x4E36 JUMP JUMPDEST PUSH1 0x1 PUSH1 0x1 PUSH1 0xA0 SHL SUB DUP2 AND PUSH2 0x13EA JUMPI PUSH1 0x40 MLOAD PUSH3 0x461BCD PUSH1 0xE5 SHL DUP2 MSTORE PUSH1 0x4 ADD PUSH2 0x608 SWAP1 PUSH2 0x4F7D JUMP JUMPDEST DUP1 PUSH1 0x4 DUP5 DUP5 PUSH1 0x40 MLOAD PUSH2 0x13FD SWAP3 SWAP2 SWAP1 PUSH2 0x4F6D JUMP JUMPDEST SWAP1 DUP2 MSTORE PUSH1 0x40 MLOAD SWAP1 DUP2 SWAP1 SUB PUSH1 0x20 ADD SWAP1 KECCAK256 PUSH1 0x6 ADD DUP1 SLOAD PUSH1 0x1 PUSH1 0x1 PUSH1 0xA0 SHL SUB SWAP3 SWAP1 SWAP3 AND PUSH1 0x1 PUSH1 0x1 PUSH1 0xA0 SHL SUB NOT SWAP1 SWAP3 AND SWAP2 SWAP1 SWAP2 OR SWAP1 SSTORE POP POP POP JUMP JUMPDEST CALLER PUSH2 0x143D PUSH2 0xD6D JUMP JUMPDEST PUSH1 0x1 PUSH1 0x1 PUSH1 0xA0 SHL SUB AND EQ DUP1 PUSH2 0x1458 JUMPI POP PUSH2 0x1458 PUSH1 0x2 CALLER PUSH2 0x234B JUMP JUMPDEST PUSH2 0x1474 JUMPI PUSH1 0x40 MLOAD PUSH3 0x461BCD PUSH1 0xE5 SHL DUP2 MSTORE PUSH1 0x4 ADD PUSH2 0x608 SWAP1 PUSH2 0x4B37 JUMP JUMPDEST PUSH2 0x2710 DUP2 PUSH2 0xFFFF AND LT PUSH2 0x14DB JUMPI PUSH1 0x40 MLOAD PUSH3 0x461BCD PUSH1 0xE5 SHL DUP2 MSTORE PUSH1 0x20 PUSH1 0x4 DUP3 ADD MSTORE PUSH1 0x29 PUSH1 0x24 DUP3 ADD MSTORE PUSH32 0x706C6174666F726D4665652073686F756C64206E6F74206265206D6F72652074 PUSH1 0x44 DUP3 ADD MSTORE PUSH9 0x68616E20313030303 PUSH1 0xBC SHL PUSH1 0x64 DUP3 ADD MSTORE PUSH1 0x84 ADD PUSH2 0x608 JUMP JUMPDEST PUSH1 0x7 DUP1 SLOAD PUSH2 0xFFFF SWAP1 SWAP3 AND PUSH1 0x1 PUSH1 0xA0 SHL MUL PUSH2 0xFFFF PUSH1 0xA0 SHL NOT SWAP1 SWAP3 AND SWAP2 SWAP1 SWAP2 OR SWAP1 SSTORE JUMP JUMPDEST PUSH1 0x60 DUP1 PUSH1 0x4 DUP5 DUP5 PUSH1 0x40 MLOAD PUSH2 0x1512 SWAP3 SWAP2 SWAP1 PUSH2 0x4F6D JUMP JUMPDEST SWAP1 DUP2 MSTORE PUSH1 0x40 DUP1 MLOAD SWAP2 DUP3 SWAP1 SUB PUSH1 0x20 SWAP1 DUP2 ADD DUP4 KECCAK256 PUSH1 0x3 ADD DUP1 SLOAD DUP1 DUP4 MUL DUP6 ADD DUP4 ADD SWAP1 SWAP4 MSTORE DUP3 DUP5 MSTORE SWAP2 SWAP1 DUP4 ADD DUP3 DUP3 DUP1 ISZERO PUSH2 0x1567 JUMPI PUSH1 0x20 MUL DUP3 ADD SWAP2 SWAP1 PUSH1 0x0 MSTORE PUSH1 0x20 PUSH1 0x0 KECCAK256 SWAP1 JUMPDEST DUP2 SLOAD DUP2 MSTORE PUSH1 0x20 ADD SWAP1 PUSH1 0x1 ADD SWAP1 DUP1 DUP4 GT PUSH2 0x1553 JUMPI JUMPDEST POP POP POP POP POP SWAP2 POP PUSH1 0x4 DUP5 DUP5 PUSH1 0x40 MLOAD PUSH2 0x1580 SWAP3 SWAP2 SWAP1 PUSH2 0x4F6D JUMP JUMPDEST SWAP1 DUP2 MSTORE PUSH1 0x40 DUP1 MLOAD SWAP2 DUP3 SWAP1 SUB PUSH1 0x20 SWAP1 DUP2 ADD DUP4 KECCAK256 PUSH1 0x4 ADD DUP1 SLOAD DUP1 DUP4 MUL DUP6 ADD DUP4 ADD SWAP1 SWAP4 MSTORE DUP3 DUP5 MSTORE SWAP2 SWAP1 DUP4 ADD DUP3 DUP3 DUP1 ISZERO PUSH2 0x15DF JUMPI PUSH1 0x20 MUL DUP3 ADD SWAP2 SWAP1 PUSH1 0x0 MSTORE PUSH1 0x20 PUSH1 0x0 KECCAK256 SWAP1 JUMPDEST DUP2 SLOAD PUSH1 0x1 PUSH1 0x1 PUSH1 0xA0 SHL SUB AND DUP2 MSTORE PUSH1 0x1 SWAP1 SWAP2 ADD SWAP1 PUSH1 0x20 ADD DUP1 DUP4 GT PUSH2 0x15C1 JUMPI JUMPDEST POP POP POP POP POP SWAP1 POP SWAP3 POP SWAP3 SWAP1 POP JUMP JUMPDEST CALLER PUSH2 0x15F6 PUSH2 0xD6D JUMP JUMPDEST PUSH1 0x1 PUSH1 0x1 PUSH1 0xA0 SHL SUB AND EQ DUP1 PUSH2 0x1611 JUMPI POP PUSH2 0x1611 PUSH1 0x2 CALLER PUSH2 0x234B JUMP JUMPDEST PUSH2 0x162D JUMPI PUSH1 0x40 MLOAD PUSH3 0x461BCD PUSH1 0xE5 SHL DUP2 MSTORE PUSH1 0x4 ADD PUSH2 0x608 SWAP1 PUSH2 0x4B37 JUMP JUMPDEST PUSH1 0x6 DUP9 DUP9 PUSH1 0x40 MLOAD PUSH2 0x163F SWAP3 SWAP2 SWAP1 PUSH2 0x4F6D JUMP JUMPDEST SWAP1 DUP2 MSTORE PUSH1 0x40 MLOAD SWAP1 DUP2 SWAP1 SUB PUSH1 0x20 ADD SWAP1 KECCAK256 SLOAD PUSH1 0xFF AND PUSH2 0x166E JUMPI PUSH1 0x40 MLOAD PUSH3 0x461BCD PUSH1 0xE5 SHL DUP2 MSTORE PUSH1 0x4 ADD PUSH2 0x608 SWAP1 PUSH2 0x4E36 JUMP JUMPDEST DUP6 PUSH1 0x4 DUP10 DUP10 PUSH1 0x40 MLOAD PUSH2 0x1681 SWAP3 SWAP2 SWAP1 PUSH2 0x4F6D JUMP JUMPDEST SWAP1 DUP2 MSTORE PUSH1 0x40 MLOAD SWAP1 DUP2 SWAP1 SUB PUSH1 0x20 ADD SWAP1 KECCAK256 PUSH1 0x9 ADD DUP1 SLOAD PUSH1 0xFF PUSH1 0x48 SHL NOT AND PUSH1 0x1 PUSH1 0x48 SHL DUP4 PUSH1 0x1 DUP2 GT ISZERO PUSH2 0x16B3 JUMPI PUSH2 0x16B3 PUSH2 0x46DB JUMP JUMPDEST MUL OR SWAP1 SSTORE POP PUSH1 0x1 DUP7 PUSH1 0x1 DUP2 GT ISZERO PUSH2 0x16CC JUMPI PUSH2 0x16CC PUSH2 0x46DB JUMP JUMPDEST SUB PUSH2 0x1871 JUMPI DUP5 ISZERO PUSH2 0x1745 JUMPI PUSH1 0x40 MLOAD PUSH3 0x461BCD PUSH1 0xE5 SHL DUP2 MSTORE PUSH1 0x20 PUSH1 0x4 DUP3 ADD MSTORE PUSH1 0x3D PUSH1 0x24 DUP3 ADD MSTORE PUSH32 0x6D696E696D756D20666961742070726963652073686F756C64206265207A6572 PUSH1 0x44 DUP3 ADD MSTORE PUSH32 0x6F20696620746865207061796D656E74206973206F662063727970746F000000 PUSH1 0x64 DUP3 ADD MSTORE PUSH1 0x84 ADD PUSH2 0x608 JUMP JUMPDEST DUP1 DUP4 EQ PUSH2 0x1764 JUMPI PUSH1 0x40 MLOAD PUSH3 0x461BCD PUSH1 0xE5 SHL DUP2 MSTORE PUSH1 0x4 ADD PUSH2 0x608 SWAP1 PUSH2 0x4FD5 JUMP JUMPDEST PUSH1 0x0 JUMPDEST DUP2 DUP2 LT ISZERO PUSH2 0x186B JUMPI PUSH1 0x0 DUP6 DUP6 DUP4 DUP2 DUP2 LT PUSH2 0x1783 JUMPI PUSH2 0x1783 PUSH2 0x4C86 JUMP JUMPDEST SWAP1 POP PUSH1 0x20 MUL ADD CALLDATALOAD GT PUSH2 0x17F3 JUMPI PUSH1 0x40 MLOAD PUSH3 0x461BCD PUSH1 0xE5 SHL DUP2 MSTORE PUSH1 0x20 PUSH1 0x4 DUP3 ADD MSTORE PUSH1 0x33 PUSH1 0x24 DUP3 ADD MSTORE PUSH32 0x6D696E696D756D20707269636520696E2063727970746F2073686F756C642062 PUSH1 0x44 DUP3 ADD MSTORE PUSH19 0x652067726561746572207468616E207A65726F PUSH1 0x68 SHL PUSH1 0x64 DUP3 ADD MSTORE PUSH1 0x84 ADD PUSH2 0x608 JUMP JUMPDEST DUP5 DUP5 PUSH1 0x4 DUP12 DUP12 PUSH1 0x40 MLOAD PUSH2 0x1807 SWAP3 SWAP2 SWAP1 PUSH2 0x4F6D JUMP JUMPDEST SWAP1 DUP2 MSTORE PUSH1 0x20 ADD PUSH1 0x40 MLOAD DUP1 SWAP2 SUB SWAP1 KECCAK256 PUSH1 0x3 ADD SWAP2 SWAP1 PUSH2 0x1825 SWAP3 SWAP2 SWAP1 PUSH2 0x430A JUMP JUMPDEST POP DUP3 DUP3 PUSH1 0x4 DUP12 DUP12 PUSH1 0x40 MLOAD PUSH2 0x183A SWAP3 SWAP2 SWAP1 PUSH2 0x4F6D JUMP JUMPDEST SWAP1 DUP2 MSTORE PUSH1 0x20 ADD PUSH1 0x40 MLOAD DUP1 SWAP2 SUB SWAP1 KECCAK256 PUSH1 0x4 ADD SWAP2 SWAP1 PUSH2 0x1858 SWAP3 SWAP2 SWAP1 PUSH2 0x4351 JUMP JUMPDEST POP DUP1 PUSH2 0x1863 DUP2 PUSH2 0x4CB2 JUMP JUMPDEST SWAP2 POP POP PUSH2 0x1767 JUMP JUMPDEST POP PUSH2 0x194F JUMP JUMPDEST PUSH1 0x0 DUP7 PUSH1 0x1 DUP2 GT ISZERO PUSH2 0x1885 JUMPI PUSH2 0x1885 PUSH2 0x46DB JUMP JUMPDEST SUB PUSH2 0x194F JUMPI DUP1 ISZERO DUP1 ISZERO PUSH2 0x1896 JUMPI POP DUP3 ISZERO JUMPDEST PUSH2 0x1908 JUMPI PUSH1 0x40 MLOAD PUSH3 0x461BCD PUSH1 0xE5 SHL DUP2 MSTORE PUSH1 0x20 PUSH1 0x4 DUP3 ADD MSTORE PUSH1 0x3F PUSH1 0x24 DUP3 ADD MSTORE PUSH32 0x63727970746F207061796D656E742064657461696C732073686F756C64206265 PUSH1 0x44 DUP3 ADD MSTORE PUSH32 0x206E756C6C20696620746865207061796D656E74206973206F66206669617400 PUSH1 0x64 DUP3 ADD MSTORE PUSH1 0x84 ADD PUSH2 0x608 JUMP JUMPDEST PUSH1 0x0 DUP6 GT PUSH2 0x1928 JUMPI PUSH1 0x40 MLOAD PUSH3 0x461BCD PUSH1 0xE5 SHL DUP2 MSTORE PUSH1 0x4 ADD PUSH2 0x608 SWAP1 PUSH2 0x502D JUMP JUMPDEST DUP5 PUSH1 0x4 DUP10 DUP10 PUSH1 0x40 MLOAD PUSH2 0x193B SWAP3 SWAP2 SWAP1 PUSH2 0x4F6D JUMP JUMPDEST SWAP1 DUP2 MSTORE PUSH1 0x40 MLOAD SWAP1 DUP2 SWAP1 SUB PUSH1 0x20 ADD SWAP1 KECCAK256 PUSH1 0x2 ADD SSTORE JUMPDEST POP POP POP POP POP POP POP POP JUMP JUMPDEST CALLER PUSH2 0x1962 PUSH2 0xD6D JUMP JUMPDEST PUSH1 0x1 PUSH1 0x1 PUSH1 0xA0 SHL SUB AND EQ DUP1 PUSH2 0x197D JUMPI POP PUSH2 0x197D PUSH1 0x2 CALLER PUSH2 0x234B JUMP JUMPDEST PUSH2 0x1999 JUMPI PUSH1 0x40 MLOAD PUSH3 0x461BCD PUSH1 0xE5 SHL DUP2 MSTORE PUSH1 0x4 ADD PUSH2 0x608 SWAP1 PUSH2 0x4B37 JUMP JUMPDEST PUSH1 0x6 DUP4 DUP4 PUSH1 0x40 MLOAD PUSH2 0x19AB SWAP3 SWAP2 SWAP1 PUSH2 0x4F6D JUMP JUMPDEST SWAP1 DUP2 MSTORE PUSH1 0x40 MLOAD SWAP1 DUP2 SWAP1 SUB PUSH1 0x20 ADD SWAP1 KECCAK256 SLOAD PUSH1 0xFF AND PUSH2 0x19DA JUMPI PUSH1 0x40 MLOAD PUSH3 0x461BCD PUSH1 0xE5 SHL DUP2 MSTORE PUSH1 0x4 ADD PUSH2 0x608 SWAP1 PUSH2 0x4E36 JUMP JUMPDEST PUSH1 0x1 PUSH1 0x1 PUSH1 0xA0 SHL SUB DUP2 AND PUSH2 0x1A00 JUMPI PUSH1 0x40 MLOAD PUSH3 0x461BCD PUSH1 0xE5 SHL DUP2 MSTORE PUSH1 0x4 ADD PUSH2 0x608 SWAP1 PUSH2 0x4F7D JUMP JUMPDEST DUP1 PUSH1 0x4 DUP5 DUP5 PUSH1 0x40 MLOAD PUSH2 0x1A13 SWAP3 SWAP2 SWAP1 PUSH2 0x4F6D JUMP JUMPDEST SWAP1 DUP2 MSTORE PUSH1 0x40 MLOAD SWAP1 DUP2 SWAP1 SUB PUSH1 0x20 ADD SWAP1 KECCAK256 PUSH1 0x5 ADD DUP1 SLOAD PUSH1 0x1 PUSH1 0x1 PUSH1 0xA0 SHL SUB SWAP3 SWAP1 SWAP3 AND PUSH1 0x1 PUSH1 0x1 PUSH1 0xA0 SHL SUB NOT SWAP1 SWAP3 AND SWAP2 SWAP1 SWAP2 OR SWAP1 SSTORE POP POP POP JUMP JUMPDEST CALLER PUSH2 0x1A53 PUSH2 0xD6D JUMP JUMPDEST PUSH1 0x1 PUSH1 0x1 PUSH1 0xA0 SHL SUB AND EQ PUSH2 0x1A79 JUMPI PUSH1 0x40 MLOAD PUSH3 0x461BCD PUSH1 0xE5 SHL DUP2 MSTORE PUSH1 0x4 ADD PUSH2 0x608 SWAP1 PUSH2 0x4C51 JUMP JUMPDEST PUSH1 0x1 PUSH1 0x1 PUSH1 0xA0 SHL SUB DUP2 AND PUSH2 0x1ADE JUMPI PUSH1 0x40 MLOAD PUSH3 0x461BCD PUSH1 0xE5 SHL DUP2 MSTORE PUSH1 0x20 PUSH1 0x4 DUP3 ADD MSTORE PUSH1 0x26 PUSH1 0x24 DUP3 ADD MSTORE PUSH32 0x4F776E61626C653A206E6577206F776E657220697320746865207A65726F2061 PUSH1 0x44 DUP3 ADD MSTORE PUSH6 0x646472657373 PUSH1 0xD0 SHL PUSH1 0x64 DUP3 ADD MSTORE PUSH1 0x84 ADD PUSH2 0x608 JUMP JUMPDEST PUSH1 0x1 SLOAD PUSH1 0x40 MLOAD PUSH1 0x1 PUSH1 0x1 PUSH1 0xA0 SHL SUB DUP1 DUP5 AND SWAP3 AND SWAP1 PUSH32 0x8BE0079C531659141344CD1FD0A4F28419497F9722A3DAAFE3B4186F6B6457E0 SWAP1 PUSH1 0x0 SWAP1 LOG3 PUSH1 0x1 DUP1 SLOAD PUSH1 0x1 PUSH1 0x1 PUSH1 0xA0 SHL SUB NOT AND PUSH1 0x1 PUSH1 0x1 PUSH1 0xA0 SHL SUB SWAP3 SWAP1 SWAP3 AND SWAP2 SWAP1 SWAP2 OR SWAP1 SSTORE JUMP JUMPDEST CALLER PUSH2 0x1B43 PUSH2 0xD6D JUMP JUMPDEST PUSH1 0x1 PUSH1 0x1 PUSH1 0xA0 SHL SUB AND EQ DUP1 PUSH2 0x1B5E JUMPI POP PUSH2 0x1B5E PUSH1 0x2 CALLER PUSH2 0x234B JUMP JUMPDEST PUSH2 0x1B7A JUMPI PUSH1 0x40 MLOAD PUSH3 0x461BCD PUSH1 0xE5 SHL DUP2 MSTORE PUSH1 0x4 ADD PUSH2 0x608 SWAP1 PUSH2 0x4B37 JUMP JUMPDEST PUSH1 0x6 DUP3 DUP3 PUSH1 0x40 MLOAD PUSH2 0x1B8C SWAP3 SWAP2 SWAP1 PUSH2 0x4F6D JUMP JUMPDEST SWAP1 DUP2 MSTORE PUSH1 0x40 MLOAD SWAP1 DUP2 SWAP1 SUB PUSH1 0x20 ADD SWAP1 KECCAK256 SLOAD PUSH1 0xFF AND ISZERO PUSH2 0x1BBC JUMPI PUSH1 0x40 MLOAD PUSH3 0x461BCD PUSH1 0xE5 SHL DUP2 MSTORE PUSH1 0x4 ADD PUSH2 0x608 SWAP1 PUSH2 0x4BBB JUMP JUMPDEST PUSH1 0x0 PUSH2 0x1BD0 PUSH2 0x140 DUP6 ADD PUSH2 0x120 DUP7 ADD PUSH2 0x4930 JUMP JUMPDEST PUSH2 0xFFFF AND ISZERO PUSH2 0x1C18 JUMPI PUSH2 0x1BEB PUSH2 0x180 DUP6 ADD PUSH2 0x160 DUP7 ADD PUSH2 0x4930 JUMP JUMPDEST PUSH2 0x1BFD PUSH2 0x140 DUP7 ADD PUSH2 0x120 DUP8 ADD PUSH2 0x4930 JUMP JUMPDEST PUSH2 0x1C07 SWAP2 SWAP1 PUSH2 0x507E JUMP JUMPDEST PUSH2 0x1C11 SWAP1 DUP3 PUSH2 0x507E JUMP JUMPDEST SWAP1 POP PUSH2 0x1C4F JUMP JUMPDEST PUSH2 0x1C2A PUSH2 0x180 DUP6 ADD PUSH2 0x160 DUP7 ADD PUSH2 0x4930 JUMP JUMPDEST PUSH1 0x7 SLOAD PUSH2 0x1C42 SWAP2 SWAP1 PUSH1 0x1 PUSH1 0xA0 SHL SWAP1 DIV PUSH2 0xFFFF AND PUSH2 0x507E JUMP JUMPDEST PUSH2 0x1C4C SWAP1 DUP3 PUSH2 0x507E JUMP JUMPDEST SWAP1 POP JUMPDEST PUSH2 0x2710 DUP2 PUSH2 0xFFFF AND LT PUSH2 0x1CC0 JUMPI PUSH1 0x40 MLOAD PUSH3 0x461BCD PUSH1 0xE5 SHL DUP2 MSTORE PUSH1 0x20 PUSH1 0x4 DUP3 ADD MSTORE PUSH1 0x33 PUSH1 0x24 DUP3 ADD MSTORE PUSH32 0x54686520746F74616C2066656520626173697320706F696E742073686F756C64 PUSH1 0x44 DUP3 ADD MSTORE PUSH19 0x206265206C657373207468616E20313030303 PUSH1 0x6C SHL PUSH1 0x64 DUP3 ADD MSTORE PUSH1 0x84 ADD PUSH2 0x608 JUMP JUMPDEST PUSH1 0x0 PUSH2 0x1CD2 PUSH1 0x40 DUP7 ADD PUSH1 0x20 DUP8 ADD PUSH2 0x4408 JUMP JUMPDEST PUSH1 0x1 PUSH1 0x1 PUSH1 0x40 SHL SUB AND GT DUP1 ISZERO PUSH2 0x1D00 JUMPI POP PUSH1 0x0 PUSH2 0x1CF5 PUSH1 0x60 DUP7 ADD PUSH1 0x40 DUP8 ADD PUSH2 0x4408 JUMP JUMPDEST PUSH1 0x1 PUSH1 0x1 PUSH1 0x40 SHL SUB AND GT JUMPDEST ISZERO PUSH2 0x1DD1 JUMPI PUSH2 0x1D15 PUSH1 0x40 DUP6 ADD PUSH1 0x20 DUP7 ADD PUSH2 0x4408 JUMP JUMPDEST PUSH1 0x1 PUSH1 0x1 PUSH1 0x40 SHL SUB AND PUSH2 0x1D2E PUSH1 0x60 DUP7 ADD PUSH1 0x40 DUP8 ADD PUSH2 0x4408 JUMP JUMPDEST PUSH1 0x1 PUSH1 0x1 PUSH1 0x40 SHL SUB AND LT ISZERO PUSH2 0x1DD1 JUMPI PUSH1 0x40 MLOAD PUSH3 0x461BCD PUSH1 0xE5 SHL DUP2 MSTORE PUSH1 0x20 PUSH1 0x4 DUP3 ADD MSTORE PUSH1 0x5F PUSH1 0x24 DUP3 ADD MSTORE PUSH32 0x54686973206973206E6F7420612076616C6964204E4654207374617274206F72 PUSH1 0x44 DUP3 ADD MSTORE PUSH32 0x20656E6420746F6B656E2049442E20506C656173652076657269667920746861 PUSH1 0x64 DUP3 ADD MSTORE PUSH32 0x74207468652072616E67652070726F766964656420697320636F727265637400 PUSH1 0x84 DUP3 ADD MSTORE PUSH1 0xA4 ADD PUSH2 0x608 JUMP JUMPDEST PUSH2 0x1DDE PUSH1 0x80 DUP6 ADD DUP6 PUSH2 0x5099 JUMP JUMPDEST SWAP1 POP PUSH2 0x1DED PUSH1 0xA0 DUP7 ADD DUP7 PUSH2 0x5099 JUMP JUMPDEST SWAP1 POP EQ PUSH2 0x1E0C JUMPI PUSH1 0x40 MLOAD PUSH3 0x461BCD PUSH1 0xE5 SHL DUP2 MSTORE PUSH1 0x4 ADD PUSH2 0x608 SWAP1 PUSH2 0x4FD5 JUMP JUMPDEST PUSH1 0x0 PUSH2 0x1E20 PUSH2 0x1E0 DUP7 ADD PUSH2 0x1C0 DUP8 ADD PUSH2 0x50E2 JUMP JUMPDEST PUSH1 0x1 DUP2 GT ISZERO PUSH2 0x1E31 JUMPI PUSH2 0x1E31 PUSH2 0x46DB JUMP JUMPDEST SUB PUSH2 0x1E5A JUMPI PUSH1 0x0 DUP5 PUSH1 0x60 ADD CALLDATALOAD GT PUSH2 0x1E5A JUMPI PUSH1 0x40 MLOAD PUSH3 0x461BCD PUSH1 0xE5 SHL DUP2 MSTORE PUSH1 0x4 ADD PUSH2 0x608 SWAP1 PUSH2 0x502D JUMP JUMPDEST PUSH1 0x0 PUSH2 0x1E6E PUSH2 0x1C0 DUP7 ADD PUSH2 0x1A0 DUP8 ADD PUSH2 0x50E2 JUMP JUMPDEST PUSH1 0x1 DUP2 GT ISZERO PUSH2 0x1E7F JUMPI PUSH2 0x1E7F PUSH2 0x46DB JUMP JUMPDEST SUB PUSH2 0x1FAB JUMPI PUSH2 0x1E96 PUSH2 0x1A0 DUP6 ADD PUSH2 0x180 DUP7 ADD PUSH2 0x4408 JUMP JUMPDEST PUSH1 0x1 PUSH1 0x1 PUSH1 0x40 SHL SUB AND PUSH1 0x0 SUB PUSH2 0x1EF8 JUMPI PUSH1 0x40 MLOAD PUSH3 0x461BCD PUSH1 0xE5 SHL DUP2 MSTORE PUSH1 0x20 PUSH1 0x4 DUP3 ADD MSTORE PUSH1 0x21 PUSH1 0x24 DUP3 ADD MSTORE PUSH32 0x73686F756C642070726F76696465206D617843617020666F72206D696E74696E PUSH1 0x44 DUP3 ADD MSTORE PUSH1 0x67 PUSH1 0xF8 SHL PUSH1 0x64 DUP3 ADD MSTORE PUSH1 0x84 ADD PUSH2 0x608 JUMP JUMPDEST PUSH2 0x1F08 PUSH1 0x40 DUP6 ADD PUSH1 0x20 DUP7 ADD PUSH2 0x4408 JUMP JUMPDEST PUSH1 0x1 PUSH1 0x1 PUSH1 0x40 SHL SUB AND ISZERO DUP1 ISZERO PUSH2 0x1F34 JUMPI POP PUSH2 0x1F29 PUSH1 0x60 DUP6 ADD PUSH1 0x40 DUP7 ADD PUSH2 0x4408 JUMP JUMPDEST PUSH1 0x1 PUSH1 0x1 PUSH1 0x40 SHL SUB AND ISZERO JUMPDEST PUSH2 0x1FA6 JUMPI PUSH1 0x40 MLOAD PUSH3 0x461BCD PUSH1 0xE5 SHL DUP2 MSTORE PUSH1 0x20 PUSH1 0x4 DUP3 ADD MSTORE PUSH1 0x3D PUSH1 0x24 DUP3 ADD MSTORE PUSH32 0x546865204E46547374617274746F6B656E696420616E64204E4654656E64746F PUSH1 0x44 DUP3 ADD MSTORE PUSH32 0x6B656E69642073686F756C64206265203020666F72206D696E74696E67000000 PUSH1 0x64 DUP3 ADD MSTORE PUSH1 0x84 ADD PUSH2 0x608 JUMP JUMPDEST PUSH2 0x2023 JUMP JUMPDEST PUSH2 0x1FBD PUSH2 0x1A0 DUP6 ADD PUSH2 0x180 DUP7 ADD PUSH2 0x4408 JUMP JUMPDEST PUSH1 0x1 PUSH1 0x1 PUSH1 0x40 SHL SUB AND ISZERO PUSH2 0x2023 JUMPI PUSH1 0x40 MLOAD PUSH3 0x461BCD PUSH1 0xE5 SHL DUP2 MSTORE PUSH1 0x20 PUSH1 0x4 DUP3 ADD MSTORE PUSH1 0x27 PUSH1 0x24 DUP3 ADD MSTORE PUSH32 0x6D61784361702073686F756C64206265203020666F72207072656D696E746564 PUSH1 0x44 DUP3 ADD MSTORE PUSH7 0x20746F6B656E73 PUSH1 0xC8 SHL PUSH1 0x64 DUP3 ADD MSTORE PUSH1 0x84 ADD PUSH2 0x608 JUMP JUMPDEST PUSH2 0x2030 PUSH1 0x20 DUP6 ADD DUP6 PUSH2 0x4445 JUMP JUMPDEST PUSH1 0x40 MLOAD PUSH4 0x1FFC9A7 PUSH1 0xE0 SHL DUP2 MSTORE PUSH1 0x1 PUSH1 0x1 PUSH1 0xA0 SHL SUB SWAP2 SWAP1 SWAP2 AND SWAP1 PUSH4 0x1FFC9A7 SWAP1 PUSH2 0x2065 SWAP1 PUSH4 0x80AC58CD PUSH1 0xE0 SHL SWAP1 PUSH1 0x4 ADD PUSH2 0x50FF JUMP JUMPDEST PUSH1 0x20 PUSH1 0x40 MLOAD DUP1 DUP4 SUB DUP2 DUP7 GAS STATICCALL ISZERO DUP1 ISZERO PUSH2 0x2082 JUMPI RETURNDATASIZE PUSH1 0x0 DUP1 RETURNDATACOPY RETURNDATASIZE PUSH1 0x0 REVERT JUMPDEST POP POP POP POP PUSH1 0x40 MLOAD RETURNDATASIZE PUSH1 0x1F NOT PUSH1 0x1F DUP3 ADD AND DUP3 ADD DUP1 PUSH1 0x40 MSTORE POP DUP2 ADD SWAP1 PUSH2 0x20A6 SWAP2 SWAP1 PUSH2 0x5114 JUMP JUMPDEST DUP1 PUSH2 0x212F JUMPI POP PUSH2 0x20B9 PUSH1 0x20 DUP6 ADD DUP6 PUSH2 0x4445 JUMP JUMPDEST PUSH1 0x40 MLOAD PUSH4 0x1FFC9A7 PUSH1 0xE0 SHL DUP2 MSTORE PUSH1 0x1 PUSH1 0x1 PUSH1 0xA0 SHL SUB SWAP2 SWAP1 SWAP2 AND SWAP1 PUSH4 0x1FFC9A7 SWAP1 PUSH2 0x20EE SWAP1 PUSH4 0x6CDB3D13 PUSH1 0xE1 SHL SWAP1 PUSH1 0x4 ADD PUSH2 0x50FF JUMP JUMPDEST PUSH1 0x20 PUSH1 0x40 MLOAD DUP1 DUP4 SUB DUP2 DUP7 GAS STATICCALL ISZERO DUP1 ISZERO PUSH2 0x210B JUMPI RETURNDATASIZE PUSH1 0x0 DUP1 RETURNDATACOPY RETURNDATASIZE PUSH1 0x0 REVERT JUMPDEST POP POP POP POP PUSH1 0x40 MLOAD RETURNDATASIZE PUSH1 0x1F NOT PUSH1 0x1F DUP3 ADD AND DUP3 ADD DUP1 PUSH1 0x40 MSTORE POP DUP2 ADD SWAP1 PUSH2 0x212F SWAP2 SWAP1 PUSH2 0x5114 JUMP JUMPDEST PUSH2 0x21A1 JUMPI PUSH1 0x40 MLOAD PUSH3 0x461BCD PUSH1 0xE5 SHL DUP2 MSTORE PUSH1 0x20 PUSH1 0x4 DUP3 ADD MSTORE PUSH1 0x3E PUSH1 0x24 DUP3 ADD MSTORE PUSH32 0x73686F756C642070726F76696465206F6E6C7920737570706F7274656420636F PUSH1 0x44 DUP3 ADD MSTORE PUSH32 0x6E747261637420696E746572666163657320455243203732312F313135350000 PUSH1 0x64 DUP3 ADD MSTORE PUSH1 0x84 ADD PUSH2 0x608 JUMP JUMPDEST PUSH1 0x0 PUSH2 0x21B3 PUSH1 0xE0 DUP7 ADD PUSH1 0xC0 DUP8 ADD PUSH2 0x4445 JUMP JUMPDEST PUSH1 0x1 PUSH1 0x1 PUSH1 0xA0 SHL SUB AND SUB PUSH2 0x2224 JUMPI PUSH1 0x40 MLOAD PUSH3 0x461BCD PUSH1 0xE5 SHL DUP2 MSTORE PUSH1 0x20 PUSH1 0x4 DUP3 ADD MSTORE PUSH1 0x32 PUSH1 0x24 DUP3 ADD MSTORE PUSH32 0x73686F756C642070726F766964652076616C69642077616C6C65742061646472 PUSH1 0x44 DUP3 ADD MSTORE PUSH18 0x195CDCC8199BDC881CD95D1D1B195B595B9D PUSH1 0x72 SHL PUSH1 0x64 DUP3 ADD MSTORE PUSH1 0x84 ADD PUSH2 0x608 JUMP JUMPDEST PUSH1 0x0 PUSH2 0x2237 PUSH2 0x100 DUP7 ADD PUSH1 0xE0 DUP8 ADD PUSH2 0x4445 JUMP JUMPDEST PUSH1 0x1 PUSH1 0x1 PUSH1 0xA0 SHL SUB AND SUB PUSH2 0x22AC JUMPI PUSH1 0x40 MLOAD PUSH3 0x461BCD PUSH1 0xE5 SHL DUP2 MSTORE PUSH1 0x20 PUSH1 0x4 DUP3 ADD MSTORE PUSH1 0x36 PUSH1 0x24 DUP3 ADD MSTORE PUSH32 0x73686F756C642070726F766964652076616C69642077616C6C65742061646472 PUSH1 0x44 DUP3 ADD MSTORE PUSH22 0x195CDCC8199BDC881D185E081CD95D1D1B195B595B9D PUSH1 0x52 SHL PUSH1 0x64 DUP3 ADD MSTORE PUSH1 0x84 ADD PUSH2 0x608 JUMP JUMPDEST DUP4 PUSH1 0x4 DUP5 DUP5 PUSH1 0x40 MLOAD PUSH2 0x22BF SWAP3 SWAP2 SWAP1 PUSH2 0x4F6D JUMP JUMPDEST SWAP1 DUP2 MSTORE PUSH1 0x40 MLOAD SWAP1 DUP2 SWAP1 SUB PUSH1 0x20 ADD SWAP1 KECCAK256 PUSH2 0x22D8 DUP3 DUP3 PUSH2 0x53AD JUMP JUMPDEST SWAP1 POP POP PUSH1 0x1 PUSH1 0x6 DUP5 DUP5 PUSH1 0x40 MLOAD PUSH2 0x22EF SWAP3 SWAP2 SWAP1 PUSH2 0x4F6D JUMP JUMPDEST SWAP1 DUP2 MSTORE PUSH1 0x40 MLOAD SWAP1 DUP2 SWAP1 SUB PUSH1 0x20 ADD DUP2 KECCAK256 DUP1 SLOAD SWAP3 ISZERO ISZERO PUSH1 0xFF NOT SWAP1 SWAP4 AND SWAP3 SWAP1 SWAP3 OR SWAP1 SWAP2 SSTORE PUSH32 0x5E497450A6BB5270282292FAB91DE64CB64F3E379288C411A7EAB0F283AFBBF5 SWAP1 PUSH2 0x233D SWAP1 DUP7 SWAP1 PUSH2 0x5629 JUMP JUMPDEST PUSH1 0x40 MLOAD DUP1 SWAP2 SUB SWAP1 LOG1 POP POP POP POP JUMP JUMPDEST PUSH1 0x1 PUSH1 0x1 PUSH1 0xA0 SHL SUB DUP2 AND PUSH1 0x0 SWAP1 DUP2 MSTORE PUSH1 0x1 DUP4 ADD PUSH1 0x20 MSTORE PUSH1 0x40 DUP2 KECCAK256 SLOAD ISZERO ISZERO JUMPDEST SWAP4 SWAP3 POP POP POP JUMP JUMPDEST PUSH1 0x0 PUSH2 0x2369 DUP4 PUSH1 0x1 PUSH1 0x1 PUSH1 0xA0 SHL SUB DUP5 AND PUSH2 0x3B53 JUMP JUMPDEST PUSH1 0x0 PUSH2 0x5C2 DUP3 SLOAD SWAP1 JUMP JUMPDEST PUSH1 0x0 PUSH2 0x2369 DUP4 DUP4 PUSH2 0x3C4D JUMP JUMPDEST PUSH1 0x0 PUSH2 0x2369 DUP4 PUSH1 0x1 PUSH1 0x1 PUSH1 0xA0 SHL SUB DUP5 AND PUSH2 0x3C77 JUMP JUMPDEST PUSH1 0x0 DUP1 PUSH1 0x0 PUSH1 0x4 DUP11 PUSH1 0x40 MLOAD PUSH2 0x23C5 SWAP2 SWAP1 PUSH2 0x4B9F JUMP JUMPDEST SWAP1 DUP2 MSTORE PUSH1 0x40 DUP1 MLOAD SWAP2 DUP3 SWAP1 SUB PUSH1 0x20 SWAP1 DUP2 ADD DUP4 KECCAK256 PUSH2 0x140 DUP5 ADD DUP4 MSTORE DUP1 SLOAD PUSH1 0x1 PUSH1 0x1 PUSH1 0xA0 SHL SUB DUP2 AND DUP6 MSTORE PUSH1 0x1 PUSH1 0x1 PUSH1 0x40 SHL SUB PUSH1 0x1 PUSH1 0xA0 SHL SWAP1 SWAP2 DIV DUP2 AND DUP6 DUP5 ADD MSTORE PUSH1 0x1 DUP3 ADD SLOAD AND DUP5 DUP5 ADD MSTORE PUSH1 0x2 DUP2 ADD SLOAD PUSH1 0x60 DUP6 ADD MSTORE PUSH1 0x3 DUP2 ADD DUP1 SLOAD DUP5 MLOAD DUP2 DUP6 MUL DUP2 ADD DUP6 ADD SWAP1 SWAP6 MSTORE DUP1 DUP6 MSTORE SWAP2 SWAP4 PUSH1 0x80 DUP7 ADD SWAP4 SWAP1 SWAP3 SWAP1 DUP4 ADD DUP3 DUP3 DUP1 ISZERO PUSH2 0x2464 JUMPI PUSH1 0x20 MUL DUP3 ADD SWAP2 SWAP1 PUSH1 0x0 MSTORE PUSH1 0x20 PUSH1 0x0 KECCAK256 SWAP1 JUMPDEST DUP2 SLOAD DUP2 MSTORE PUSH1 0x20 ADD SWAP1 PUSH1 0x1 ADD SWAP1 DUP1 DUP4 GT PUSH2 0x2450 JUMPI JUMPDEST POP POP POP POP POP DUP2 MSTORE PUSH1 0x20 ADD PUSH1 0x4 DUP3 ADD DUP1 SLOAD DUP1 PUSH1 0x20 MUL PUSH1 0x20 ADD PUSH1 0x40 MLOAD SWAP1 DUP2 ADD PUSH1 0x40 MSTORE DUP1 SWAP3 SWAP2 SWAP1 DUP2 DUP2 MSTORE PUSH1 0x20 ADD DUP3 DUP1 SLOAD DUP1 ISZERO PUSH2 0x24C6 JUMPI PUSH1 0x20 MUL DUP3 ADD SWAP2 SWAP1 PUSH1 0x0 MSTORE PUSH1 0x20 PUSH1 0x0 KECCAK256 SWAP1 JUMPDEST DUP2 SLOAD PUSH1 0x1 PUSH1 0x1 PUSH1 0xA0 SHL SUB AND DUP2 MSTORE PUSH1 0x1 SWAP1 SWAP2 ADD SWAP1 PUSH1 0x20 ADD DUP1 DUP4 GT PUSH2 0x24A8 JUMPI JUMPDEST POP POP POP SWAP2 DUP4 MSTORE POP POP PUSH1 0x40 DUP1 MLOAD PUSH1 0xC0 DUP2 ADD DUP3 MSTORE PUSH1 0x5 DUP5 ADD SLOAD PUSH1 0x1 PUSH1 0x1 PUSH1 0xA0 SHL SUB SWAP1 DUP2 AND DUP3 MSTORE PUSH1 0x6 DUP6 ADD SLOAD DUP2 AND PUSH1 0x20 DUP4 DUP2 ADD SWAP2 SWAP1 SWAP2 MSTORE PUSH1 0x7 DUP7 ADD SLOAD DUP1 DUP4 AND DUP5 DUP7 ADD MSTORE PUSH2 0xFFFF PUSH1 0x1 PUSH1 0xA0 SHL SWAP2 DUP3 SWAP1 DIV DUP2 AND PUSH1 0x60 DUP1 DUP8 ADD SWAP2 SWAP1 SWAP2 MSTORE PUSH1 0x8 DUP10 ADD SLOAD SWAP5 DUP6 AND PUSH1 0x80 DUP8 ADD MSTORE SWAP2 SWAP1 SWAP4 DIV SWAP1 SWAP3 AND PUSH1 0xA0 DUP5 ADD MSTORE DUP5 ADD SWAP2 SWAP1 SWAP2 MSTORE PUSH1 0x9 DUP5 ADD SLOAD PUSH1 0x1 PUSH1 0x1 PUSH1 0x40 SHL SUB DUP2 AND SWAP3 DUP5 ADD SWAP3 SWAP1 SWAP3 MSTORE SWAP1 SWAP2 ADD SWAP1 PUSH1 0xFF PUSH1 0x1 PUSH1 0x40 SHL SWAP1 SWAP2 DIV AND PUSH1 0x1 DUP2 GT ISZERO PUSH2 0x2572 JUMPI PUSH2 0x2572 PUSH2 0x46DB JUMP JUMPDEST PUSH1 0x1 DUP2 GT ISZERO PUSH2 0x2583 JUMPI PUSH2 0x2583 PUSH2 0x46DB JUMP JUMPDEST DUP2 MSTORE PUSH1 0x20 ADD PUSH1 0x9 DUP3 ADD PUSH1 0x9 SWAP1 SLOAD SWAP1 PUSH2 0x100 EXP SWAP1 DIV PUSH1 0xFF AND PUSH1 0x1 DUP2 GT ISZERO PUSH2 0x25AB JUMPI PUSH2 0x25AB PUSH2 0x46DB JUMP JUMPDEST PUSH1 0x1 DUP2 GT ISZERO PUSH2 0x25BC JUMPI PUSH2 0x25BC PUSH2 0x46DB JUMP JUMPDEST SWAP1 MSTORE POP PUSH1 0x20 DUP2 ADD MLOAD SWAP1 SWAP2 POP PUSH1 0x1 PUSH1 0x1 PUSH1 0x40 SHL SUB AND ISZERO DUP1 ISZERO PUSH2 0x25EA JUMPI POP PUSH1 0x0 DUP2 PUSH1 0x40 ADD MLOAD PUSH1 0x1 PUSH1 0x1 PUSH1 0x40 SHL SUB AND GT JUMPDEST ISZERO PUSH2 0x2621 JUMPI DUP1 PUSH1 0x40 ADD MLOAD PUSH1 0x1 PUSH1 0x1 PUSH1 0x40 SHL SUB AND DUP10 GT ISZERO PUSH2 0x261C JUMPI PUSH1 0x40 MLOAD PUSH3 0x461BCD PUSH1 0xE5 SHL DUP2 MSTORE PUSH1 0x4 ADD PUSH2 0x608 SWAP1 PUSH2 0x5755 JUMP JUMPDEST PUSH2 0x26F0 JUMP JUMPDEST PUSH1 0x0 DUP2 PUSH1 0x20 ADD MLOAD PUSH1 0x1 PUSH1 0x1 PUSH1 0x40 SHL SUB AND GT DUP1 ISZERO PUSH2 0x2649 JUMPI POP PUSH1 0x40 DUP2 ADD MLOAD PUSH1 0x1 PUSH1 0x1 PUSH1 0x40 SHL SUB AND ISZERO JUMPDEST ISZERO PUSH2 0x267B JUMPI DUP1 PUSH1 0x20 ADD MLOAD PUSH1 0x1 PUSH1 0x1 PUSH1 0x40 SHL SUB AND DUP10 LT ISZERO PUSH2 0x261C JUMPI PUSH1 0x40 MLOAD PUSH3 0x461BCD PUSH1 0xE5 SHL DUP2 MSTORE PUSH1 0x4 ADD PUSH2 0x608 SWAP1 PUSH2 0x5755 JUMP JUMPDEST PUSH1 0x0 DUP2 PUSH1 0x20 ADD MLOAD PUSH1 0x1 PUSH1 0x1 PUSH1 0x40 SHL SUB AND GT DUP1 ISZERO PUSH2 0x26A5 JUMPI POP PUSH1 0x0 DUP2 PUSH1 0x40 ADD MLOAD PUSH1 0x1 PUSH1 0x1 PUSH1 0x40 SHL SUB AND GT JUMPDEST ISZERO PUSH2 0x26F0 JUMPI DUP1 PUSH1 0x20 ADD MLOAD PUSH1 0x1 PUSH1 0x1 PUSH1 0x40 SHL SUB AND DUP10 LT ISZERO DUP1 ISZERO PUSH2 0x26D4 JUMPI POP DUP1 PUSH1 0x40 ADD MLOAD PUSH1 0x1 PUSH1 0x1 PUSH1 0x40 SHL SUB AND DUP10 GT ISZERO JUMPDEST PUSH2 0x26F0 JUMPI PUSH1 0x40 MLOAD PUSH3 0x461BCD PUSH1 0xE5 SHL DUP2 MSTORE PUSH1 0x4 ADD PUSH2 0x608 SWAP1 PUSH2 0x5755 JUMP JUMPDEST DUP1 MLOAD SWAP2 POP PUSH1 0x0 DUP2 PUSH2 0x120 ADD MLOAD PUSH1 0x1 DUP2 GT ISZERO PUSH2 0x270D JUMPI PUSH2 0x270D PUSH2 0x46DB JUMP JUMPDEST SUB PUSH2 0x2794 JUMPI PUSH1 0x8 SLOAD PUSH1 0x60 DUP3 ADD MLOAD PUSH1 0x40 MLOAD PUSH4 0x748060B PUSH1 0xE3 SHL DUP2 MSTORE PUSH1 0x4 DUP2 ADD SWAP2 SWAP1 SWAP2 MSTORE PUSH1 0x1 PUSH1 0x1 PUSH1 0xA0 SHL SUB DUP9 DUP2 AND PUSH1 0x24 DUP4 ADD MSTORE SWAP1 SWAP2 AND SWAP1 PUSH4 0x3A403058 SWAP1 PUSH1 0x44 ADD PUSH1 0x20 PUSH1 0x40 MLOAD DUP1 DUP4 SUB DUP2 DUP7 GAS STATICCALL ISZERO DUP1 ISZERO PUSH2 0x2769 JUMPI RETURNDATASIZE PUSH1 0x0 DUP1 RETURNDATACOPY RETURNDATASIZE PUSH1 0x0 REVERT JUMPDEST POP POP POP POP PUSH1 0x40 MLOAD RETURNDATASIZE PUSH1 0x1F NOT PUSH1 0x1F DUP3 ADD AND DUP3 ADD DUP1 PUSH1 0x40 MSTORE POP DUP2 ADD SWAP1 PUSH2 0x278D SWAP2 SWAP1 PUSH2 0x57CA JUMP JUMPDEST SWAP3 POP PUSH2 0x2831 JUMP JUMPDEST PUSH1 0x1 DUP2 PUSH2 0x120 ADD MLOAD PUSH1 0x1 DUP2 GT ISZERO PUSH2 0x27AD JUMPI PUSH2 0x27AD PUSH2 0x46DB JUMP JUMPDEST SUB PUSH2 0x2831 JUMPI PUSH1 0x0 JUMPDEST DUP2 PUSH1 0xA0 ADD MLOAD MLOAD DUP2 LT ISZERO PUSH2 0x282F JUMPI DUP7 PUSH1 0x1 PUSH1 0x1 PUSH1 0xA0 SHL SUB AND DUP3 PUSH1 0xA0 ADD MLOAD DUP3 DUP2 MLOAD DUP2 LT PUSH2 0x27E2 JUMPI PUSH2 0x27E2 PUSH2 0x4C86 JUMP JUMPDEST PUSH1 0x20 MUL PUSH1 0x20 ADD ADD MLOAD PUSH1 0x1 PUSH1 0x1 PUSH1 0xA0 SHL SUB AND SUB PUSH2 0x281D JUMPI DUP2 PUSH1 0x80 ADD MLOAD DUP2 DUP2 MLOAD DUP2 LT PUSH2 0x280E JUMPI PUSH2 0x280E PUSH2 0x4C86 JUMP JUMPDEST PUSH1 0x20 MUL PUSH1 0x20 ADD ADD MLOAD SWAP4 POP PUSH2 0x282F JUMP JUMPDEST DUP1 PUSH2 0x2827 DUP2 PUSH2 0x4CB2 JUMP JUMPDEST SWAP2 POP POP PUSH2 0x27B5 JUMP JUMPDEST POP JUMPDEST DUP3 PUSH1 0x0 SUB PUSH2 0x289A JUMPI PUSH1 0x40 MLOAD PUSH3 0x461BCD PUSH1 0xE5 SHL DUP2 MSTORE PUSH1 0x20 PUSH1 0x4 DUP3 ADD MSTORE PUSH1 0x30 PUSH1 0x24 DUP3 ADD MSTORE PUSH32 0x506C656173652070726F766964652076616C696420737570706F727465642045 PUSH1 0x44 DUP3 ADD MSTORE PUSH16 0x524332302F4554482061646472657373 PUSH1 0x80 SHL PUSH1 0x64 DUP3 ADD MSTORE PUSH1 0x84 ADD PUSH2 0x608 JUMP JUMPDEST PUSH1 0x0 DUP2 PUSH2 0x100 ADD MLOAD PUSH1 0x1 DUP2 GT ISZERO PUSH2 0x28B3 JUMPI PUSH2 0x28B3 PUSH2 0x46DB JUMP JUMPDEST SUB PUSH2 0x2AFB JUMPI PUSH1 0x9 SLOAD PUSH1 0x1 PUSH1 0xA0 SHL SWAP1 DIV PUSH1 0x1 PUSH1 0x1 PUSH1 0x40 SHL SUB AND DUP8 GT ISZERO PUSH2 0x2964 JUMPI PUSH1 0x40 MLOAD PUSH3 0x461BCD PUSH1 0xE5 SHL DUP2 MSTORE PUSH1 0x20 PUSH1 0x4 DUP3 ADD MSTORE PUSH1 0x67 PUSH1 0x24 DUP3 ADD MSTORE PUSH1 0x0 DUP1 MLOAD PUSH1 0x20 PUSH2 0x592D DUP4 CODECOPY DUP2 MLOAD SWAP2 MSTORE PUSH1 0x44 DUP3 ADD MSTORE PUSH32 0x7075726368617365206174206F6E652074696D652073686F756C64206E6F7420 PUSH1 0x64 DUP3 ADD MSTORE PUSH32 0x6265206D6F7265207468616E20646566696E656420696E206D61783131353551 PUSH1 0x84 DUP3 ADD MSTORE PUSH7 0x75616E74697479 PUSH1 0xC8 SHL PUSH1 0xA4 DUP3 ADD MSTORE PUSH1 0xC4 ADD PUSH2 0x608 JUMP JUMPDEST PUSH1 0x40 MLOAD PUSH4 0x1FFC9A7 PUSH1 0xE0 SHL DUP2 MSTORE PUSH1 0x1 PUSH1 0x1 PUSH1 0xA0 SHL SUB DUP4 AND SWAP1 PUSH4 0x1FFC9A7 SWAP1 PUSH2 0x2997 SWAP1 PUSH4 0x80AC58CD PUSH1 0xE0 SHL SWAP1 PUSH1 0x4 ADD PUSH2 0x50FF JUMP JUMPDEST PUSH1 0x20 PUSH1 0x40 MLOAD DUP1 DUP4 SUB DUP2 DUP7 GAS STATICCALL ISZERO DUP1 ISZERO PUSH2 0x29B4 JUMPI RETURNDATASIZE PUSH1 0x0 DUP1 RETURNDATACOPY RETURNDATASIZE PUSH1 0x0 REVERT JUMPDEST POP POP POP POP PUSH1 0x40 MLOAD RETURNDATASIZE PUSH1 0x1F NOT PUSH1 0x1F DUP3 ADD AND DUP3 ADD DUP1 PUSH1 0x40 MSTORE POP DUP2 ADD SWAP1 PUSH2 0x29D8 SWAP2 SWAP1 PUSH2 0x5114 JUMP JUMPDEST ISZERO PUSH2 0x29EE JUMPI PUSH2 0x29E7 DUP9 DUP5 PUSH2 0x5170 JUMP JUMPDEST SWAP3 POP PUSH2 0x2B26 JUMP JUMPDEST PUSH1 0x40 MLOAD PUSH4 0x1FFC9A7 PUSH1 0xE0 SHL DUP2 MSTORE PUSH1 0x1 PUSH1 0x1 PUSH1 0xA0 SHL SUB DUP4 AND SWAP1 PUSH4 0x1FFC9A7 SWAP1 PUSH2 0x2A21 SWAP1 PUSH4 0x6CDB3D13 PUSH1 0xE1 SHL SWAP1 PUSH1 0x4 ADD PUSH2 0x50FF JUMP JUMPDEST PUSH1 0x20 PUSH1 0x40 MLOAD DUP1 DUP4 SUB DUP2 DUP7 GAS STATICCALL ISZERO DUP1 ISZERO PUSH2 0x2A3E JUMPI RETURNDATASIZE PUSH1 0x0 DUP1 RETURNDATACOPY RETURNDATASIZE PUSH1 0x0 REVERT JUMPDEST POP POP POP POP PUSH1 0x40 MLOAD RETURNDATASIZE PUSH1 0x1F NOT PUSH1 0x1F DUP3 ADD AND DUP3 ADD DUP1 PUSH1 0x40 MSTORE POP DUP2 ADD SWAP1 PUSH2 0x2A62 SWAP2 SWAP1 PUSH2 0x5114 JUMP JUMPDEST ISZERO PUSH2 0x2AF6 JUMPI PUSH1 0x40 MLOAD PUSH4 0xBD85B039 PUSH1 0xE0 SHL DUP2 MSTORE PUSH1 0x4 DUP2 ADD DUP11 SWAP1 MSTORE PUSH1 0x1 PUSH1 0x1 PUSH1 0xA0 SHL SUB DUP4 AND SWAP1 PUSH4 0xBD85B039 SWAP1 PUSH1 0x24 ADD PUSH1 0x20 PUSH1 0x40 MLOAD DUP1 DUP4 SUB DUP2 DUP7 GAS STATICCALL ISZERO DUP1 ISZERO PUSH2 0x2AAC JUMPI RETURNDATASIZE PUSH1 0x0 DUP1 RETURNDATACOPY RETURNDATASIZE PUSH1 0x0 REVERT JUMPDEST POP POP POP POP PUSH1 0x40 MLOAD RETURNDATASIZE PUSH1 0x1F NOT PUSH1 0x1F DUP3 ADD AND DUP3 ADD DUP1 PUSH1 0x40 MSTORE POP DUP2 ADD SWAP1 PUSH2 0x2AD0 SWAP2 SWAP1 PUSH2 0x57CA JUMP JUMPDEST PUSH1 0x0 SUB PUSH2 0x2AEC JUMPI DUP7 PUSH2 0x2AE2 DUP10 DUP6 PUSH2 0x5170 JUMP JUMPDEST PUSH2 0x29E7 SWAP2 SWAP1 PUSH2 0x5170 JUMP JUMPDEST PUSH2 0x29E7 DUP8 DUP5 PUSH2 0x5170 JUMP JUMPDEST PUSH2 0x2B26 JUMP JUMPDEST PUSH1 0x1 DUP2 PUSH2 0x100 ADD MLOAD PUSH1 0x1 DUP2 GT ISZERO PUSH2 0x2B14 JUMPI PUSH2 0x2B14 PUSH2 0x46DB JUMP JUMPDEST SUB PUSH2 0x2B26 JUMPI PUSH2 0x2B23 DUP8 DUP5 PUSH2 0x5170 JUMP JUMPDEST SWAP3 POP JUMPDEST PUSH1 0x1 PUSH1 0x1 PUSH1 0xA0 SHL SUB DUP7 AND PUSH2 0x2BEB JUMPI DUP5 CALLVALUE EQ DUP1 ISZERO PUSH2 0x2B43 JUMPI POP DUP3 DUP6 LT ISZERO JUMPDEST PUSH2 0x2BE6 JUMPI PUSH1 0x40 MLOAD PUSH3 0x461BCD PUSH1 0xE5 SHL DUP2 MSTORE PUSH1 0x20 PUSH1 0x4 DUP3 ADD MSTORE PUSH1 0x62 PUSH1 0x24 DUP3 ADD MSTORE PUSH32 0x496E73756666696369656E742066756E6473206F7220696E76616C696420616D PUSH1 0x44 DUP3 ADD MSTORE PUSH32 0x6F756E742E20596F75206E65656420746F207061737320612076616C69642061 PUSH1 0x64 DUP3 ADD MSTORE PUSH32 0x6D6F756E7420746F20636F6D706C6574652074686973207472616E7361637469 PUSH1 0x84 DUP3 ADD MSTORE PUSH2 0x37B7 PUSH1 0xF1 SHL PUSH1 0xA4 DUP3 ADD MSTORE PUSH1 0xC4 ADD PUSH2 0x608 JUMP JUMPDEST PUSH2 0x2E0B JUMP JUMPDEST PUSH1 0x40 MLOAD PUSH4 0x70A08231 PUSH1 0xE0 SHL DUP2 MSTORE PUSH1 0x1 PUSH1 0x1 PUSH1 0xA0 SHL SUB DUP6 DUP2 AND PUSH1 0x4 DUP4 ADD MSTORE DUP7 SWAP2 SWAP1 DUP9 AND SWAP1 PUSH4 0x70A08231 SWAP1 PUSH1 0x24 ADD PUSH1 0x20 PUSH1 0x40 MLOAD DUP1 DUP4 SUB DUP2 DUP7 GAS STATICCALL ISZERO DUP1 ISZERO PUSH2 0x2C34 JUMPI RETURNDATASIZE PUSH1 0x0 DUP1 RETURNDATACOPY RETURNDATASIZE PUSH1 0x0 REVERT JUMPDEST POP POP POP POP PUSH1 0x40 MLOAD RETURNDATASIZE PUSH1 0x1F NOT PUSH1 0x1F DUP3 ADD AND DUP3 ADD DUP1 PUSH1 0x40 MSTORE POP DUP2 ADD SWAP1 PUSH2 0x2C58 SWAP2 SWAP1 PUSH2 0x57CA JUMP JUMPDEST LT ISZERO DUP1 ISZERO PUSH2 0x2C66 JUMPI POP DUP3 DUP6 LT ISZERO JUMPDEST PUSH2 0x2CF4 JUMPI PUSH1 0x40 MLOAD PUSH3 0x461BCD PUSH1 0xE5 SHL DUP2 MSTORE PUSH1 0x20 PUSH1 0x4 DUP3 ADD MSTORE PUSH1 0x53 PUSH1 0x24 DUP3 ADD MSTORE PUSH32 0x496E73756666696369656E742066756E64732E20596F752073686F756C642068 PUSH1 0x44 DUP3 ADD MSTORE PUSH32 0x6176652073756666696369656E742062616C616E636520746F20636F6D706C65 PUSH1 0x64 DUP3 ADD MSTORE PUSH19 0x3A32903A3434B9903A3930B739B0B1BA34B7B7 PUSH1 0x69 SHL PUSH1 0x84 DUP3 ADD MSTORE PUSH1 0xA4 ADD PUSH2 0x608 JUMP JUMPDEST PUSH1 0x40 MLOAD PUSH4 0x6EB1769F PUSH1 0xE1 SHL DUP2 MSTORE PUSH1 0x1 PUSH1 0x1 PUSH1 0xA0 SHL SUB DUP6 DUP2 AND PUSH1 0x4 DUP4 ADD MSTORE ADDRESS PUSH1 0x24 DUP4 ADD MSTORE DUP7 SWAP2 SWAP1 DUP9 AND SWAP1 PUSH4 0xDD62ED3E SWAP1 PUSH1 0x44 ADD PUSH1 0x20 PUSH1 0x40 MLOAD DUP1 DUP4 SUB DUP2 DUP7 GAS STATICCALL ISZERO DUP1 ISZERO PUSH2 0x2D43 JUMPI RETURNDATASIZE PUSH1 0x0 DUP1 RETURNDATACOPY RETURNDATASIZE PUSH1 0x0 REVERT JUMPDEST POP POP POP POP PUSH1 0x40 MLOAD RETURNDATASIZE PUSH1 0x1F NOT PUSH1 0x1F DUP3 ADD AND DUP3 ADD DUP1 PUSH1 0x40 MSTORE POP DUP2 ADD SWAP1 PUSH2 0x2D67 SWAP2 SWAP1 PUSH2 0x57CA JUMP JUMPDEST LT ISZERO PUSH2 0x2E0B JUMPI PUSH1 0x40 MLOAD PUSH3 0x461BCD PUSH1 0xE5 SHL DUP2 MSTORE PUSH1 0x20 PUSH1 0x4 DUP3 ADD MSTORE PUSH1 0x61 PUSH1 0x24 DUP3 ADD MSTORE PUSH32 0x496E73756666696369656E7420617070726F76616C2066726F6D20616E204552 PUSH1 0x44 DUP3 ADD MSTORE PUSH32 0x43323020546F6B656E2E20506C656173652070726F7669646520617070726F76 PUSH1 0x64 DUP3 ADD MSTORE PUSH32 0x616C20746F207468697320636F6E747261637420616E64207472792061676169 PUSH1 0x84 DUP3 ADD MSTORE PUSH1 0x37 PUSH1 0xF9 SHL PUSH1 0xA4 DUP3 ADD MSTORE PUSH1 0xC4 ADD PUSH2 0x608 JUMP JUMPDEST POP SWAP8 POP SWAP8 SWAP6 POP POP POP POP POP POP JUMP JUMPDEST PUSH1 0x40 MLOAD PUSH4 0x1FFC9A7 PUSH1 0xE0 SHL DUP2 MSTORE PUSH1 0x60 SWAP1 PUSH1 0x1 PUSH1 0x1 PUSH1 0xA0 SHL SUB DUP9 AND SWAP1 PUSH4 0x1FFC9A7 SWAP1 PUSH2 0x2E4E SWAP1 PUSH4 0x80AC58CD PUSH1 0xE0 SHL SWAP1 PUSH1 0x4 ADD PUSH2 0x50FF JUMP JUMPDEST PUSH1 0x20 PUSH1 0x40 MLOAD DUP1 DUP4 SUB DUP2 DUP7 GAS STATICCALL ISZERO DUP1 ISZERO PUSH2 0x2E6B JUMPI RETURNDATASIZE PUSH1 0x0 DUP1 RETURNDATACOPY RETURNDATASIZE PUSH1 0x0 REVERT JUMPDEST POP POP POP POP PUSH1 0x40 MLOAD RETURNDATASIZE PUSH1 0x1F NOT PUSH1 0x1F DUP3 ADD AND DUP3 ADD DUP1 PUSH1 0x40 MSTORE POP DUP2 ADD SWAP1 PUSH2 0x2E8F SWAP2 SWAP1 PUSH2 0x5114 JUMP JUMPDEST ISZERO PUSH2 0x31E1 JUMPI PUSH1 0x1 DUP3 PUSH1 0x1 DUP2 GT ISZERO PUSH2 0x2EA8 JUMPI PUSH2 0x2EA8 PUSH2 0x46DB JUMP JUMPDEST SUB PUSH2 0x2FFE JUMPI PUSH1 0x40 MLOAD PUSH4 0x31A9108F PUSH1 0xE1 SHL DUP2 MSTORE PUSH1 0x4 DUP2 ADD DUP7 SWAP1 MSTORE PUSH1 0x1 PUSH1 0x1 PUSH1 0xA0 SHL SUB DUP1 DUP11 AND SWAP2 SWAP1 DUP10 AND SWAP1 PUSH4 0x6352211E SWAP1 PUSH1 0x24 ADD PUSH1 0x20 PUSH1 0x40 MLOAD DUP1 DUP4 SUB DUP2 DUP7 GAS STATICCALL ISZERO DUP1 ISZERO PUSH2 0x2EF7 JUMPI RETURNDATASIZE PUSH1 0x0 DUP1 RETURNDATACOPY RETURNDATASIZE PUSH1 0x0 REVERT JUMPDEST POP POP POP POP PUSH1 0x40 MLOAD RETURNDATASIZE PUSH1 0x1F NOT PUSH1 0x1F DUP3 ADD AND DUP3 ADD DUP1 PUSH1 0x40 MSTORE POP DUP2 ADD SWAP1 PUSH2 0x2F1B SWAP2 SWAP1 PUSH2 0x57E3 JUMP JUMPDEST PUSH1 0x1 PUSH1 0x1 PUSH1 0xA0 SHL SUB AND EQ PUSH2 0x2F8F JUMPI PUSH1 0x40 MLOAD PUSH3 0x461BCD PUSH1 0xE5 SHL DUP2 MSTORE PUSH1 0x20 PUSH1 0x4 DUP3 ADD MSTORE PUSH1 0x35 PUSH1 0x24 DUP3 ADD MSTORE PUSH32 0x496E76616C6964204E4654204F776E657220416464726573732E20506C656173 PUSH1 0x44 DUP3 ADD MSTORE PUSH21 0x329031B432B1B59030B732103A393C9030B3B0B4B7 PUSH1 0x59 SHL PUSH1 0x64 DUP3 ADD MSTORE PUSH1 0x84 ADD PUSH2 0x608 JUMP JUMPDEST PUSH1 0x40 MLOAD PUSH4 0x21421707 PUSH1 0xE1 SHL DUP2 MSTORE PUSH1 0x1 PUSH1 0x1 PUSH1 0xA0 SHL SUB DUP10 DUP2 AND PUSH1 0x4 DUP4 ADD MSTORE DUP8 DUP2 AND PUSH1 0x24 DUP4 ADD MSTORE PUSH1 0x44 DUP3 ADD DUP8 SWAP1 MSTORE DUP9 AND SWAP1 PUSH4 0x42842E0E SWAP1 PUSH1 0x64 ADD PUSH1 0x0 PUSH1 0x40 MLOAD DUP1 DUP4 SUB DUP2 PUSH1 0x0 DUP8 DUP1 EXTCODESIZE ISZERO DUP1 ISZERO PUSH2 0x2FE1 JUMPI PUSH1 0x0 DUP1 REVERT JUMPDEST POP GAS CALL ISZERO DUP1 ISZERO PUSH2 0x2FF5 JUMPI RETURNDATASIZE PUSH1 0x0 DUP1 RETURNDATACOPY RETURNDATASIZE PUSH1 0x0 REVERT JUMPDEST POP POP POP POP PUSH2 0x383A JUMP JUMPDEST PUSH1 0x0 DUP3 PUSH1 0x1 DUP2 GT ISZERO PUSH2 0x3012 JUMPI PUSH2 0x3012 PUSH2 0x46DB JUMP JUMPDEST SUB PUSH2 0x31DC JUMPI PUSH1 0x4 DUP10 PUSH1 0x40 MLOAD PUSH2 0x3027 SWAP2 SWAP1 PUSH2 0x4B9F JUMP JUMPDEST SWAP1 DUP2 MSTORE PUSH1 0x40 MLOAD SWAP1 DUP2 SWAP1 SUB PUSH1 0x20 ADD DUP2 KECCAK256 PUSH1 0x9 ADD SLOAD PUSH1 0x1 PUSH1 0x1 PUSH1 0x40 SHL SUB AND SWAP1 DUP6 SWAP1 PUSH1 0x5 SWAP1 PUSH2 0x3054 SWAP1 DUP14 SWAP1 PUSH2 0x4B9F JUMP JUMPDEST SWAP1 DUP2 MSTORE PUSH1 0x20 ADD PUSH1 0x40 MLOAD DUP1 SWAP2 SUB SWAP1 KECCAK256 SLOAD PUSH2 0x306D SWAP2 SWAP1 PUSH2 0x4E60 JUMP JUMPDEST GT ISZERO PUSH2 0x3115 JUMPI PUSH1 0x40 MLOAD PUSH3 0x461BCD PUSH1 0xE5 SHL DUP2 MSTORE PUSH1 0x20 PUSH1 0x4 DUP3 ADD MSTORE PUSH1 0x77 PUSH1 0x24 DUP3 ADD MSTORE PUSH1 0x0 DUP1 MLOAD PUSH1 0x20 PUSH2 0x592D DUP4 CODECOPY DUP2 MLOAD SWAP2 MSTORE PUSH1 0x44 DUP3 ADD MSTORE PUSH32 0x70757263686173652045524337323120746F6B656E20686173206265656E2073 PUSH1 0x64 DUP3 ADD MSTORE PUSH32 0x6F6C64206F75742E20506C6561736520636F6E74616374207468652073616C65 PUSH1 0x84 DUP3 ADD MSTORE PUSH23 0x206F776E657220666F72206D6F72652064657461696C73 PUSH1 0x48 SHL PUSH1 0xA4 DUP3 ADD MSTORE PUSH1 0xC4 ADD PUSH2 0x608 JUMP JUMPDEST PUSH1 0x40 MLOAD PUSH4 0xE00AAB4B PUSH1 0xE0 SHL DUP2 MSTORE PUSH1 0x1 PUSH1 0x1 PUSH1 0xA0 SHL SUB DUP8 DUP2 AND PUSH1 0x4 DUP4 ADD MSTORE PUSH2 0xFFFF DUP7 AND PUSH1 0x24 DUP4 ADD MSTORE DUP9 AND SWAP1 PUSH4 0xE00AAB4B SWAP1 PUSH1 0x44 ADD PUSH1 0x0 PUSH1 0x40 MLOAD DUP1 DUP4 SUB DUP2 PUSH1 0x0 DUP8 GAS CALL ISZERO DUP1 ISZERO PUSH2 0x3167 JUMPI RETURNDATASIZE PUSH1 0x0 DUP1 RETURNDATACOPY RETURNDATASIZE PUSH1 0x0 REVERT JUMPDEST POP POP POP POP PUSH1 0x40 MLOAD RETURNDATASIZE PUSH1 0x0 DUP3 RETURNDATACOPY PUSH1 0x1F RETURNDATASIZE SWAP1 DUP2 ADD PUSH1 0x1F NOT AND DUP3 ADD PUSH1 0x40 MSTORE PUSH2 0x318F SWAP2 SWAP1 DUP2 ADD SWAP1 PUSH2 0x5800 JUMP JUMPDEST SWAP1 POP DUP4 PUSH1 0x5 DUP11 PUSH1 0x40 MLOAD PUSH2 0x31A2 SWAP2 SWAP1 PUSH2 0x4B9F JUMP JUMPDEST SWAP1 DUP2 MSTORE PUSH1 0x20 ADD PUSH1 0x40 MLOAD DUP1 SWAP2 SUB SWAP1 KECCAK256 SLOAD PUSH2 0x31BB SWAP2 SWAP1 PUSH2 0x4E60 JUMP JUMPDEST PUSH1 0x5 DUP11 PUSH1 0x40 MLOAD PUSH2 0x31CB SWAP2 SWAP1 PUSH2 0x4B9F JUMP JUMPDEST SWAP1 DUP2 MSTORE PUSH1 0x40 MLOAD SWAP1 DUP2 SWAP1 SUB PUSH1 0x20 ADD SWAP1 KECCAK256 SSTORE JUMPDEST PUSH2 0x383A JUMP JUMPDEST PUSH1 0x40 MLOAD PUSH4 0x1FFC9A7 PUSH1 0xE0 SHL DUP2 MSTORE PUSH1 0x1 PUSH1 0x1 PUSH1 0xA0 SHL SUB DUP9 AND SWAP1 PUSH4 0x1FFC9A7 SWAP1 PUSH2 0x3214 SWAP1 PUSH4 0x6CDB3D13 PUSH1 0xE1 SHL SWAP1 PUSH1 0x4 ADD PUSH2 0x50FF JUMP JUMPDEST PUSH1 0x20 PUSH1 0x40 MLOAD DUP1 DUP4 SUB DUP2 DUP7 GAS STATICCALL ISZERO DUP1 ISZERO PUSH2 0x3231 JUMPI RETURNDATASIZE PUSH1 0x0 DUP1 RETURNDATACOPY RETURNDATASIZE PUSH1 0x0 REVERT JUMPDEST POP POP POP POP PUSH1 0x40 MLOAD RETURNDATASIZE PUSH1 0x1F NOT PUSH1 0x1F DUP3 ADD AND DUP3 ADD DUP1 PUSH1 0x40 MSTORE POP DUP2 ADD SWAP1 PUSH2 0x3255 SWAP2 SWAP1 PUSH2 0x5114 JUMP JUMPDEST ISZERO PUSH2 0x383A JUMPI PUSH1 0x1 DUP3 PUSH1 0x1 DUP2 GT ISZERO PUSH2 0x326E JUMPI PUSH2 0x326E PUSH2 0x46DB JUMP JUMPDEST SUB PUSH2 0x33E3 JUMPI PUSH1 0x40 MLOAD PUSH3 0x7EEAC7 PUSH1 0xE1 SHL DUP2 MSTORE PUSH1 0x0 SWAP1 PUSH1 0x1 PUSH1 0x1 PUSH1 0xA0 SHL SUB DUP10 AND SWAP1 PUSH3 0xFDD58E SWAP1 PUSH2 0x32A2 SWAP1 DUP13 SWAP1 DUP11 SWAP1 PUSH1 0x4 ADD PUSH2 0x4CCB JUMP JUMPDEST PUSH1 0x20 PUSH1 0x40 MLOAD DUP1 DUP4 SUB DUP2 DUP7 GAS STATICCALL ISZERO DUP1 ISZERO PUSH2 0x32BF JUMPI RETURNDATASIZE PUSH1 0x0 DUP1 RETURNDATACOPY RETURNDATASIZE PUSH1 0x0 REVERT JUMPDEST POP POP POP POP PUSH1 0x40 MLOAD RETURNDATASIZE PUSH1 0x1F NOT PUSH1 0x1F DUP3 ADD AND DUP3 ADD DUP1 PUSH1 0x40 MSTORE POP DUP2 ADD SWAP1 PUSH2 0x32E3 SWAP2 SWAP1 PUSH2 0x57CA JUMP JUMPDEST SWAP1 POP DUP1 DUP5 GT ISZERO DUP1 ISZERO PUSH2 0x32F5 JUMPI POP PUSH1 0x0 DUP5 GT JUMPDEST PUSH2 0x3353 JUMPI PUSH1 0x40 MLOAD PUSH3 0x461BCD PUSH1 0xE5 SHL DUP2 MSTORE PUSH1 0x20 PUSH1 0x4 DUP3 ADD MSTORE PUSH1 0x29 PUSH1 0x24 DUP3 ADD MSTORE PUSH32 0x496E73756666696369656E7420746F6B656E2062616C616E63652066726F6D20 PUSH1 0x44 DUP3 ADD MSTORE PUSH9 0x3A34329037BBB732B9 PUSH1 0xB9 SHL PUSH1 0x64 DUP3 ADD MSTORE PUSH1 0x84 ADD PUSH2 0x608 JUMP JUMPDEST PUSH1 0x40 MLOAD PUSH4 0x79212195 PUSH1 0xE1 SHL DUP2 MSTORE PUSH1 0x1 PUSH1 0x1 PUSH1 0xA0 SHL SUB DUP11 DUP2 AND PUSH1 0x4 DUP4 ADD MSTORE DUP9 DUP2 AND PUSH1 0x24 DUP4 ADD MSTORE PUSH1 0x44 DUP3 ADD DUP9 SWAP1 MSTORE PUSH1 0x64 DUP3 ADD DUP7 SWAP1 MSTORE PUSH1 0xA0 PUSH1 0x84 DUP4 ADD MSTORE PUSH1 0x2 PUSH1 0xA4 DUP4 ADD MSTORE PUSH2 0x60F PUSH1 0xF3 SHL PUSH1 0xC4 DUP4 ADD MSTORE DUP10 AND SWAP1 PUSH4 0xF242432A SWAP1 PUSH1 0xE4 ADD PUSH1 0x0 PUSH1 0x40 MLOAD DUP1 DUP4 SUB DUP2 PUSH1 0x0 DUP8 DUP1 EXTCODESIZE ISZERO DUP1 ISZERO PUSH2 0x33C5 JUMPI PUSH1 0x0 DUP1 REVERT JUMPDEST POP GAS CALL ISZERO DUP1 ISZERO PUSH2 0x33D9 JUMPI RETURNDATASIZE PUSH1 0x0 DUP1 RETURNDATACOPY RETURNDATASIZE PUSH1 0x0 REVERT JUMPDEST POP POP POP POP POP PUSH2 0x383A JUMP JUMPDEST PUSH1 0x0 DUP3 PUSH1 0x1 DUP2 GT ISZERO PUSH2 0x33F7 JUMPI PUSH2 0x33F7 PUSH2 0x46DB JUMP JUMPDEST SUB PUSH2 0x383A JUMPI PUSH1 0x40 DUP1 MLOAD PUSH1 0x1 DUP1 DUP3 MSTORE DUP2 DUP4 ADD SWAP1 SWAP3 MSTORE PUSH1 0x0 SWAP2 PUSH1 0x20 DUP1 DUP4 ADD SWAP1 DUP1 CALLDATASIZE DUP4 CALLDATACOPY ADD SWAP1 POP POP SWAP1 POP PUSH1 0x0 DUP6 PUSH1 0x1 PUSH1 0x1 PUSH1 0x40 SHL SUB DUP2 GT ISZERO PUSH2 0x3438 JUMPI PUSH2 0x3438 PUSH2 0x4462 JUMP JUMPDEST PUSH1 0x40 MLOAD SWAP1 DUP1 DUP3 MSTORE DUP1 PUSH1 0x20 MUL PUSH1 0x20 ADD DUP3 ADD PUSH1 0x40 MSTORE DUP1 ISZERO PUSH2 0x3461 JUMPI DUP2 PUSH1 0x20 ADD PUSH1 0x20 DUP3 MUL DUP1 CALLDATASIZE DUP4 CALLDATACOPY ADD SWAP1 POP JUMPDEST POP SWAP1 POP PUSH1 0x60 DUP9 DUP4 PUSH1 0x0 DUP2 MLOAD DUP2 LT PUSH2 0x347A JUMPI PUSH2 0x347A PUSH2 0x4C86 JUMP JUMPDEST PUSH1 0x20 MUL PUSH1 0x20 ADD ADD SWAP1 PUSH1 0x1 PUSH1 0x1 PUSH1 0xA0 SHL SUB AND SWAP1 DUP2 PUSH1 0x1 PUSH1 0x1 PUSH1 0xA0 SHL SUB AND DUP2 MSTORE POP POP DUP6 DUP3 PUSH1 0x0 DUP2 MLOAD DUP2 LT PUSH2 0x34AE JUMPI PUSH2 0x34AE PUSH2 0x4C86 JUMP JUMPDEST PUSH1 0x20 SWAP1 DUP2 MUL SWAP2 SWAP1 SWAP2 ADD ADD MSTORE PUSH1 0x40 MLOAD PUSH4 0xBD85B039 PUSH1 0xE0 SHL DUP2 MSTORE PUSH1 0x4 DUP2 ADD DUP10 SWAP1 MSTORE PUSH1 0x1 PUSH1 0x1 PUSH1 0xA0 SHL SUB DUP12 AND SWAP1 PUSH4 0xBD85B039 SWAP1 PUSH1 0x24 ADD PUSH1 0x20 PUSH1 0x40 MLOAD DUP1 DUP4 SUB DUP2 DUP7 GAS STATICCALL ISZERO DUP1 ISZERO PUSH2 0x34FE JUMPI RETURNDATASIZE PUSH1 0x0 DUP1 RETURNDATACOPY RETURNDATASIZE PUSH1 0x0 REVERT JUMPDEST POP POP POP POP PUSH1 0x40 MLOAD RETURNDATASIZE PUSH1 0x1F NOT PUSH1 0x1F DUP3 ADD AND DUP3 ADD DUP1 PUSH1 0x40 MSTORE POP DUP2 ADD SWAP1 PUSH2 0x3522 SWAP2 SWAP1 PUSH2 0x57CA JUMP JUMPDEST PUSH1 0x0 SUB PUSH2 0x371F JUMPI PUSH1 0x4 DUP13 PUSH1 0x40 MLOAD PUSH2 0x3539 SWAP2 SWAP1 PUSH2 0x4B9F JUMP JUMPDEST SWAP1 DUP2 MSTORE PUSH1 0x40 MLOAD SWAP1 DUP2 SWAP1 SUB PUSH1 0x20 ADD DUP2 KECCAK256 PUSH1 0x9 ADD SLOAD PUSH1 0x1 PUSH1 0x1 PUSH1 0x40 SHL SUB AND SWAP1 PUSH1 0x5 SWAP1 PUSH2 0x3564 SWAP1 DUP16 SWAP1 PUSH2 0x4B9F JUMP JUMPDEST SWAP1 DUP2 MSTORE PUSH1 0x20 ADD PUSH1 0x40 MLOAD DUP1 SWAP2 SUB SWAP1 KECCAK256 SLOAD LT PUSH2 0x361B JUMPI PUSH1 0x40 MLOAD PUSH3 0x461BCD PUSH1 0xE5 SHL DUP2 MSTORE PUSH1 0x20 PUSH1 0x4 DUP3 ADD MSTORE PUSH1 0x78 PUSH1 0x24 DUP3 ADD MSTORE PUSH1 0x0 DUP1 MLOAD PUSH1 0x20 PUSH2 0x592D DUP4 CODECOPY DUP2 MLOAD SWAP2 MSTORE PUSH1 0x44 DUP3 ADD MSTORE PUSH32 0x7075726368617365204552433131353520746F6B656E20686173206265656E20 PUSH1 0x64 DUP3 ADD MSTORE PUSH32 0x736F6C64206F75742E20506C6561736520636F6E74616374207468652073616C PUSH1 0x84 DUP3 ADD MSTORE PUSH24 0x65206F776E657220666F72206D6F72652064657461696C73 PUSH1 0x40 SHL PUSH1 0xA4 DUP3 ADD MSTORE PUSH1 0xC4 ADD PUSH2 0x608 JUMP JUMPDEST PUSH1 0x0 JUMPDEST DUP8 DUP2 LT ISZERO PUSH2 0x3656 JUMPI DUP7 DUP4 DUP3 DUP2 MLOAD DUP2 LT PUSH2 0x3639 JUMPI PUSH2 0x3639 PUSH2 0x4C86 JUMP JUMPDEST PUSH1 0x20 SWAP1 DUP2 MUL SWAP2 SWAP1 SWAP2 ADD ADD MSTORE DUP1 PUSH2 0x364E DUP2 PUSH2 0x4CB2 JUMP JUMPDEST SWAP2 POP POP PUSH2 0x361E JUMP JUMPDEST POP PUSH1 0x40 MLOAD PUSH4 0x46374239 PUSH1 0xE1 SHL DUP2 MSTORE PUSH1 0x1 PUSH1 0x1 PUSH1 0xA0 SHL SUB DUP12 AND SWAP1 PUSH4 0x8C6E8472 SWAP1 PUSH2 0x3687 SWAP1 DUP7 SWAP1 DUP7 SWAP1 DUP7 SWAP1 PUSH1 0x4 ADD PUSH2 0x5834 JUMP JUMPDEST PUSH1 0x0 PUSH1 0x40 MLOAD DUP1 DUP4 SUB DUP2 PUSH1 0x0 DUP8 GAS CALL ISZERO DUP1 ISZERO PUSH2 0x36A6 JUMPI RETURNDATASIZE PUSH1 0x0 DUP1 RETURNDATACOPY RETURNDATASIZE PUSH1 0x0 REVERT JUMPDEST POP POP POP POP PUSH1 0x40 MLOAD RETURNDATASIZE PUSH1 0x0 DUP3 RETURNDATACOPY PUSH1 0x1F RETURNDATASIZE SWAP1 DUP2 ADD PUSH1 0x1F NOT AND DUP3 ADD PUSH1 0x40 MSTORE PUSH2 0x36CE SWAP2 SWAP1 DUP2 ADD SWAP1 PUSH2 0x5800 JUMP JUMPDEST SWAP4 POP DUP7 PUSH1 0x5 DUP14 PUSH1 0x40 MLOAD PUSH2 0x36E1 SWAP2 SWAP1 PUSH2 0x4B9F JUMP JUMPDEST SWAP1 DUP2 MSTORE PUSH1 0x20 ADD PUSH1 0x40 MLOAD DUP1 SWAP2 SUB SWAP1 KECCAK256 SLOAD PUSH2 0x36FA SWAP2 SWAP1 PUSH2 0x4E60 JUMP JUMPDEST PUSH1 0x5 DUP14 PUSH1 0x40 MLOAD PUSH2 0x370A SWAP2 SWAP1 PUSH2 0x4B9F JUMP JUMPDEST SWAP1 DUP2 MSTORE PUSH1 0x40 MLOAD SWAP1 DUP2 SWAP1 SUB PUSH1 0x20 ADD SWAP1 KECCAK256 SSTORE PUSH2 0x3836 JUMP JUMPDEST PUSH1 0x40 MLOAD PUSH4 0xBD85B039 PUSH1 0xE0 SHL DUP2 MSTORE PUSH1 0x4 DUP2 ADD DUP10 SWAP1 MSTORE PUSH1 0x0 SWAP1 PUSH1 0x1 PUSH1 0x1 PUSH1 0xA0 SHL SUB DUP13 AND SWAP1 PUSH4 0xBD85B039 SWAP1 PUSH1 0x24 ADD PUSH1 0x20 PUSH1 0x40 MLOAD DUP1 DUP4 SUB DUP2 DUP7 GAS STATICCALL ISZERO DUP1 ISZERO PUSH2 0x3767 JUMPI RETURNDATASIZE PUSH1 0x0 DUP1 RETURNDATACOPY RETURNDATASIZE PUSH1 0x0 REVERT JUMPDEST POP POP POP POP PUSH1 0x40 MLOAD RETURNDATASIZE PUSH1 0x1F NOT PUSH1 0x1F DUP3 ADD AND DUP3 ADD DUP1 PUSH1 0x40 MSTORE POP DUP2 ADD SWAP1 PUSH2 0x378B SWAP2 SWAP1 PUSH2 0x57CA JUMP JUMPDEST GT ISZERO PUSH2 0x3836 JUMPI PUSH1 0x40 DUP1 MLOAD PUSH1 0x1 DUP1 DUP3 MSTORE DUP2 DUP4 ADD SWAP1 SWAP3 MSTORE PUSH1 0x0 SWAP2 PUSH1 0x20 DUP1 DUP4 ADD SWAP1 DUP1 CALLDATASIZE DUP4 CALLDATACOPY ADD SWAP1 POP POP SWAP1 POP DUP9 DUP2 PUSH1 0x0 DUP2 MLOAD DUP2 LT PUSH2 0x37C7 JUMPI PUSH2 0x37C7 PUSH2 0x4C86 JUMP JUMPDEST PUSH1 0x20 SWAP1 DUP2 MUL SWAP2 SWAP1 SWAP2 ADD ADD MSTORE PUSH1 0x40 MLOAD PUSH4 0x39B22137 PUSH1 0xE2 SHL DUP2 MSTORE PUSH1 0x1 PUSH1 0x1 PUSH1 0xA0 SHL SUB DUP13 AND SWAP1 PUSH4 0xE6C884DC SWAP1 PUSH2 0x3802 SWAP1 DUP8 SWAP1 DUP6 SWAP1 DUP9 SWAP1 PUSH1 0x4 ADD PUSH2 0x58BB JUMP JUMPDEST PUSH1 0x0 PUSH1 0x40 MLOAD DUP1 DUP4 SUB DUP2 PUSH1 0x0 DUP8 DUP1 EXTCODESIZE ISZERO DUP1 ISZERO PUSH2 0x381C JUMPI PUSH1 0x0 DUP1 REVERT JUMPDEST POP GAS CALL ISZERO DUP1 ISZERO PUSH2 0x3830 JUMPI RETURNDATASIZE PUSH1 0x0 DUP1 RETURNDATACOPY RETURNDATASIZE PUSH1 0x0 REVERT JUMPDEST POP POP POP POP POP JUMPDEST POP POP POP JUMPDEST SWAP9 SWAP8 POP POP POP POP POP POP POP POP JUMP JUMPDEST PUSH1 0x0 PUSH1 0x1 PUSH1 0x1 PUSH1 0xA0 SHL SUB DUP4 AND PUSH2 0x392E JUMPI PUSH1 0x40 DUP1 MLOAD PUSH1 0x0 DUP2 MSTORE PUSH1 0x20 DUP2 ADD SWAP2 DUP3 SWAP1 MSTORE PUSH1 0x1 PUSH1 0x1 PUSH1 0xA0 SHL SUB DUP7 AND SWAP2 DUP5 SWAP2 PUSH2 0x387C SWAP2 PUSH2 0x4B9F JUMP JUMPDEST PUSH1 0x0 PUSH1 0x40 MLOAD DUP1 DUP4 SUB DUP2 DUP6 DUP8 GAS CALL SWAP3 POP POP POP RETURNDATASIZE DUP1 PUSH1 0x0 DUP2 EQ PUSH2 0x38B9 JUMPI PUSH1 0x40 MLOAD SWAP2 POP PUSH1 0x1F NOT PUSH1 0x3F RETURNDATASIZE ADD AND DUP3 ADD PUSH1 0x40 MSTORE RETURNDATASIZE DUP3 MSTORE RETURNDATASIZE PUSH1 0x0 PUSH1 0x20 DUP5 ADD RETURNDATACOPY PUSH2 0x38BE JUMP JUMPDEST PUSH1 0x60 SWAP2 POP JUMPDEST POP POP DUP1 SWAP2 POP POP DUP1 PUSH2 0x3929 JUMPI PUSH1 0x40 MLOAD PUSH3 0x461BCD PUSH1 0xE5 SHL DUP2 MSTORE PUSH1 0x20 PUSH1 0x4 DUP3 ADD MSTORE PUSH1 0x2F PUSH1 0x24 DUP3 ADD MSTORE PUSH32 0x756E61626C6520746F206465626974206E61746976652062616C616E63652070 PUSH1 0x44 DUP3 ADD MSTORE PUSH15 0x3632B0B9B2903A393C9030B3B0B4B7 PUSH1 0x89 SHL PUSH1 0x64 DUP3 ADD MSTORE PUSH1 0x84 ADD PUSH2 0x608 JUMP JUMPDEST PUSH2 0x3943 JUMP JUMPDEST PUSH2 0x3943 PUSH1 0x1 PUSH1 0x1 PUSH1 0xA0 SHL SUB DUP5 AND DUP7 DUP7 DUP6 PUSH2 0x3CC6 JUMP JUMPDEST POP POP POP POP POP JUMP JUMPDEST PUSH1 0x0 PUSH1 0x4 DUP10 PUSH1 0x40 MLOAD PUSH2 0x395C SWAP2 SWAP1 PUSH2 0x4B9F JUMP JUMPDEST SWAP1 DUP2 MSTORE PUSH1 0x40 DUP1 MLOAD SWAP2 DUP3 SWAP1 SUB PUSH1 0x20 SWAP1 DUP2 ADD DUP4 KECCAK256 PUSH1 0xC0 DUP5 ADD DUP4 MSTORE PUSH1 0x5 DUP2 ADD SLOAD PUSH1 0x1 PUSH1 0x1 PUSH1 0xA0 SHL SUB SWAP1 DUP2 AND DUP6 MSTORE PUSH1 0x6 DUP3 ADD SLOAD DUP2 AND SWAP3 DUP6 ADD SWAP3 SWAP1 SWAP3 MSTORE PUSH1 0x7 DUP2 ADD SLOAD DUP1 DUP4 AND SWAP4 DUP6 ADD DUP5 SWAP1 MSTORE PUSH2 0xFFFF PUSH1 0x1 PUSH1 0xA0 SHL SWAP2 DUP3 SWAP1 DIV DUP2 AND PUSH1 0x60 DUP8 ADD MSTORE PUSH1 0x8 SWAP1 SWAP3 ADD SLOAD SWAP3 DUP4 AND PUSH1 0x80 DUP7 ADD MSTORE SWAP1 SWAP2 DIV AND PUSH1 0xA0 DUP4 ADD MSTORE SWAP1 SWAP2 POP PUSH1 0x0 SWAP1 ISZERO DUP1 ISZERO SWAP1 PUSH2 0x39E8 JUMPI POP PUSH1 0x0 DUP3 PUSH1 0x60 ADD MLOAD PUSH2 0xFFFF AND GT JUMPDEST ISZERO PUSH2 0x3A2F JUMPI PUSH2 0x3A2A CALLER DUP4 PUSH1 0x40 ADD MLOAD DUP10 PUSH2 0x2710 DUP7 PUSH1 0x60 ADD MLOAD PUSH2 0xFFFF AND DUP14 PUSH2 0x3A0E SWAP2 SWAP1 PUSH2 0x5170 JUMP JUMPDEST PUSH2 0x3A18 SWAP2 SWAP1 PUSH2 0x58F4 JUMP JUMPDEST PUSH2 0x3A22 SWAP1 DUP7 PUSH2 0x4E60 JUMP JUMPDEST SWAP5 POP DUP5 PUSH2 0x3846 JUMP JUMPDEST PUSH2 0x3A89 JUMP JUMPDEST PUSH1 0x7 SLOAD PUSH1 0x1 PUSH1 0x1 PUSH1 0xA0 SHL SUB AND ISZERO DUP1 ISZERO SWAP1 PUSH2 0x3A55 JUMPI POP PUSH1 0x7 SLOAD PUSH1 0x1 PUSH1 0xA0 SHL SWAP1 DIV PUSH2 0xFFFF AND ISZERO ISZERO JUMPDEST ISZERO PUSH2 0x3A89 JUMPI PUSH1 0x7 SLOAD PUSH2 0x3A89 SWAP1 CALLER SWAP1 PUSH1 0x1 PUSH1 0x1 PUSH1 0xA0 SHL SUB DUP2 AND SWAP1 DUP11 SWAP1 PUSH2 0x2710 SWAP1 PUSH2 0x3A0E SWAP1 PUSH1 0x1 PUSH1 0xA0 SHL SWAP1 DIV PUSH2 0xFFFF AND DUP15 PUSH2 0x5170 JUMP JUMPDEST PUSH1 0x80 DUP3 ADD MLOAD PUSH1 0x1 PUSH1 0x1 PUSH1 0xA0 SHL SUB AND ISZERO DUP1 ISZERO SWAP1 PUSH2 0x3AAD JUMPI POP PUSH1 0x0 DUP3 PUSH1 0xA0 ADD MLOAD PUSH2 0xFFFF AND GT JUMPDEST ISZERO PUSH2 0x3B1A JUMPI PUSH2 0x2710 DUP3 PUSH1 0xA0 ADD MLOAD PUSH2 0xFFFF AND DUP10 PUSH2 0x3AC9 SWAP2 SWAP1 PUSH2 0x5170 JUMP JUMPDEST PUSH2 0x3AD3 SWAP2 SWAP1 PUSH2 0x58F4 JUMP JUMPDEST PUSH2 0x3ADD SWAP1 DUP3 PUSH2 0x4E60 JUMP JUMPDEST SWAP1 POP PUSH2 0x3B1A CALLER DUP4 PUSH1 0x80 ADD MLOAD DUP10 DUP13 PUSH2 0x2710 DUP8 PUSH1 0xA0 ADD MLOAD PUSH2 0xFFFF AND DUP15 PUSH2 0x3B01 SWAP2 SWAP1 PUSH2 0x5170 JUMP JUMPDEST PUSH2 0x3B0B SWAP2 SWAP1 PUSH2 0x58F4 JUMP JUMPDEST PUSH2 0x3B15 SWAP2 SWAP1 PUSH2 0x4E60 JUMP JUMPDEST PUSH2 0x3846 JUMP JUMPDEST PUSH2 0x3B24 DUP2 DUP10 PUSH2 0x4E73 JUMP JUMPDEST SWAP8 POP PUSH2 0x3B35 CALLER DUP8 DUP8 DUP8 DUP13 DUP13 DUP10 PUSH2 0x3D26 JUMP JUMPDEST SWAP8 POP PUSH2 0x3B47 CALLER DUP4 PUSH1 0x0 ADD MLOAD DUP10 DUP12 PUSH2 0x3846 JUMP JUMPDEST POP POP POP POP POP POP POP POP POP POP JUMP JUMPDEST PUSH1 0x0 DUP2 DUP2 MSTORE PUSH1 0x1 DUP4 ADD PUSH1 0x20 MSTORE PUSH1 0x40 DUP2 KECCAK256 SLOAD DUP1 ISZERO PUSH2 0x3C3C JUMPI PUSH1 0x0 PUSH2 0x3B77 PUSH1 0x1 DUP4 PUSH2 0x4E73 JUMP JUMPDEST DUP6 SLOAD SWAP1 SWAP2 POP PUSH1 0x0 SWAP1 PUSH2 0x3B8B SWAP1 PUSH1 0x1 SWAP1 PUSH2 0x4E73 JUMP JUMPDEST SWAP1 POP DUP2 DUP2 EQ PUSH2 0x3BF0 JUMPI PUSH1 0x0 DUP7 PUSH1 0x0 ADD DUP3 DUP2 SLOAD DUP2 LT PUSH2 0x3BAB JUMPI PUSH2 0x3BAB PUSH2 0x4C86 JUMP JUMPDEST SWAP1 PUSH1 0x0 MSTORE PUSH1 0x20 PUSH1 0x0 KECCAK256 ADD SLOAD SWAP1 POP DUP1 DUP8 PUSH1 0x0 ADD DUP5 DUP2 SLOAD DUP2 LT PUSH2 0x3BCE JUMPI PUSH2 0x3BCE PUSH2 0x4C86 JUMP JUMPDEST PUSH1 0x0 SWAP2 DUP3 MSTORE PUSH1 0x20 DUP1 DUP4 KECCAK256 SWAP1 SWAP2 ADD SWAP3 SWAP1 SWAP3 SSTORE SWAP2 DUP3 MSTORE PUSH1 0x1 DUP9 ADD SWAP1 MSTORE PUSH1 0x40 SWAP1 KECCAK256 DUP4 SWAP1 SSTORE JUMPDEST DUP6 SLOAD DUP7 SWAP1 DUP1 PUSH2 0x3C01 JUMPI PUSH2 0x3C01 PUSH2 0x5916 JUMP JUMPDEST PUSH1 0x1 SWAP1 SUB DUP2 DUP2 SWAP1 PUSH1 0x0 MSTORE PUSH1 0x20 PUSH1 0x0 KECCAK256 ADD PUSH1 0x0 SWAP1 SSTORE SWAP1 SSTORE DUP6 PUSH1 0x1 ADD PUSH1 0x0 DUP7 DUP2 MSTORE PUSH1 0x20 ADD SWAP1 DUP2 MSTORE PUSH1 0x20 ADD PUSH1 0x0 KECCAK256 PUSH1 0x0 SWAP1 SSTORE PUSH1 0x1 SWAP4 POP POP POP POP PUSH2 0x5C2 JUMP JUMPDEST PUSH1 0x0 SWAP2 POP POP PUSH2 0x5C2 JUMP JUMPDEST POP SWAP3 SWAP2 POP POP JUMP JUMPDEST PUSH1 0x0 DUP3 PUSH1 0x0 ADD DUP3 DUP2 SLOAD DUP2 LT PUSH2 0x3C64 JUMPI PUSH2 0x3C64 PUSH2 0x4C86 JUMP JUMPDEST SWAP1 PUSH1 0x0 MSTORE PUSH1 0x20 PUSH1 0x0 KECCAK256 ADD SLOAD SWAP1 POP SWAP3 SWAP2 POP POP JUMP JUMPDEST PUSH1 0x0 DUP2 DUP2 MSTORE PUSH1 0x1 DUP4 ADD PUSH1 0x20 MSTORE PUSH1 0x40 DUP2 KECCAK256 SLOAD PUSH2 0x3CBE JUMPI POP DUP2 SLOAD PUSH1 0x1 DUP2 DUP2 ADD DUP5 SSTORE PUSH1 0x0 DUP5 DUP2 MSTORE PUSH1 0x20 DUP1 DUP3 KECCAK256 SWAP1 SWAP4 ADD DUP5 SWAP1 SSTORE DUP5 SLOAD DUP5 DUP3 MSTORE DUP3 DUP7 ADD SWAP1 SWAP4 MSTORE PUSH1 0x40 SWAP1 KECCAK256 SWAP2 SWAP1 SWAP2 SSTORE PUSH2 0x5C2 JUMP JUMPDEST POP PUSH1 0x0 PUSH2 0x5C2 JUMP JUMPDEST PUSH1 0x40 DUP1 MLOAD PUSH1 0x1 PUSH1 0x1 PUSH1 0xA0 SHL SUB DUP6 DUP2 AND PUSH1 0x24 DUP4 ADD MSTORE DUP5 AND PUSH1 0x44 DUP3 ADD MSTORE PUSH1 0x64 DUP1 DUP3 ADD DUP5 SWAP1 MSTORE DUP3 MLOAD DUP1 DUP4 SUB SWAP1 SWAP2 ADD DUP2 MSTORE PUSH1 0x84 SWAP1 SWAP2 ADD SWAP1 SWAP2 MSTORE PUSH1 0x20 DUP2 ADD DUP1 MLOAD PUSH1 0x1 PUSH1 0x1 PUSH1 0xE0 SHL SUB AND PUSH4 0x23B872DD PUSH1 0xE0 SHL OR SWAP1 MSTORE PUSH2 0x3D20 SWAP1 DUP6 SWAP1 PUSH2 0x3ED8 JUMP JUMPDEST POP POP POP POP JUMP JUMPDEST PUSH1 0x0 PUSH1 0x1 DUP3 PUSH1 0x1 DUP2 GT ISZERO PUSH2 0x3D3C JUMPI PUSH2 0x3D3C PUSH2 0x46DB JUMP JUMPDEST SUB PUSH2 0x3D55 JUMPI PUSH2 0x3D4E DUP9 DUP7 DUP10 DUP8 DUP8 PUSH2 0x3FAF JUMP JUMPDEST SWAP1 POP PUSH2 0x3ECD JUMP JUMPDEST PUSH1 0x0 DUP3 PUSH1 0x1 DUP2 GT ISZERO PUSH2 0x3D69 JUMPI PUSH2 0x3D69 PUSH2 0x46DB JUMP JUMPDEST SUB PUSH2 0x3ECD JUMPI PUSH1 0x40 MLOAD PUSH4 0x1FFC9A7 PUSH1 0xE0 SHL DUP2 MSTORE PUSH1 0x1 PUSH1 0x1 PUSH1 0xA0 SHL SUB DUP7 AND SWAP1 PUSH4 0x1FFC9A7 SWAP1 PUSH2 0x3DA1 SWAP1 PUSH4 0x6CDB3D13 PUSH1 0xE1 SHL SWAP1 PUSH1 0x4 ADD PUSH2 0x50FF JUMP JUMPDEST PUSH1 0x20 PUSH1 0x40 MLOAD DUP1 DUP4 SUB DUP2 DUP7 GAS STATICCALL ISZERO DUP1 ISZERO PUSH2 0x3DBE JUMPI RETURNDATASIZE PUSH1 0x0 DUP1 RETURNDATACOPY RETURNDATASIZE PUSH1 0x0 REVERT JUMPDEST POP POP POP POP PUSH1 0x40 MLOAD RETURNDATASIZE PUSH1 0x1F NOT PUSH1 0x1F DUP3 ADD AND DUP3 ADD DUP1 PUSH1 0x40 MSTORE POP DUP2 ADD SWAP1 PUSH2 0x3DE2 SWAP2 SWAP1 PUSH2 0x5114 JUMP JUMPDEST DUP1 ISZERO PUSH2 0x3E57 JUMPI POP PUSH1 0x40 MLOAD PUSH4 0xBD85B039 PUSH1 0xE0 SHL DUP2 MSTORE PUSH1 0x4 DUP2 ADD DUP9 SWAP1 MSTORE PUSH1 0x0 SWAP1 PUSH1 0x1 PUSH1 0x1 PUSH1 0xA0 SHL SUB DUP8 AND SWAP1 PUSH4 0xBD85B039 SWAP1 PUSH1 0x24 ADD PUSH1 0x20 PUSH1 0x40 MLOAD DUP1 DUP4 SUB DUP2 DUP7 GAS STATICCALL ISZERO DUP1 ISZERO PUSH2 0x3E31 JUMPI RETURNDATASIZE PUSH1 0x0 DUP1 RETURNDATACOPY RETURNDATASIZE PUSH1 0x0 REVERT JUMPDEST POP POP POP POP PUSH1 0x40 MLOAD RETURNDATASIZE PUSH1 0x1F NOT PUSH1 0x1F DUP3 ADD AND DUP3 ADD DUP1 PUSH1 0x40 MSTORE POP DUP2 ADD SWAP1 PUSH2 0x3E55 SWAP2 SWAP1 PUSH2 0x57CA JUMP JUMPDEST GT JUMPDEST ISZERO PUSH2 0x3E69 JUMPI PUSH2 0x3D4E DUP9 DUP7 DUP10 DUP8 DUP8 PUSH2 0x3FAF JUMP JUMPDEST DUP6 MLOAD PUSH2 0x3E75 SWAP1 DUP6 PUSH2 0x58F4 JUMP JUMPDEST SWAP4 POP PUSH1 0x0 DUP1 JUMPDEST DUP8 MLOAD DUP2 LT ISZERO PUSH2 0x3ECA JUMPI PUSH2 0x3EAA DUP11 DUP9 DUP11 DUP5 DUP2 MLOAD DUP2 LT PUSH2 0x3E9B JUMPI PUSH2 0x3E9B PUSH2 0x4C86 JUMP JUMPDEST PUSH1 0x20 MUL PUSH1 0x20 ADD ADD MLOAD DUP10 DUP10 PUSH2 0x3FAF JUMP JUMPDEST SWAP2 POP PUSH2 0x3EB6 DUP3 DUP5 PUSH2 0x4E60 JUMP JUMPDEST SWAP3 POP DUP1 PUSH2 0x3EC2 DUP2 PUSH2 0x4CB2 JUMP JUMPDEST SWAP2 POP POP PUSH2 0x3E7B JUMP JUMPDEST POP POP JUMPDEST SWAP8 SWAP7 POP POP POP POP POP POP POP JUMP JUMPDEST PUSH1 0x0 PUSH2 0x3F2D DUP3 PUSH1 0x40 MLOAD DUP1 PUSH1 0x40 ADD PUSH1 0x40 MSTORE DUP1 PUSH1 0x20 DUP2 MSTORE PUSH1 0x20 ADD PUSH32 0x5361666545524332303A206C6F772D6C6576656C2063616C6C206661696C6564 DUP2 MSTORE POP DUP6 PUSH1 0x1 PUSH1 0x1 PUSH1 0xA0 SHL SUB AND PUSH2 0x4184 SWAP1 SWAP3 SWAP2 SWAP1 PUSH4 0xFFFFFFFF AND JUMP JUMPDEST DUP1 MLOAD SWAP1 SWAP2 POP ISZERO PUSH2 0x3FAA JUMPI DUP1 DUP1 PUSH1 0x20 ADD SWAP1 MLOAD DUP2 ADD SWAP1 PUSH2 0x3F4B SWAP2 SWAP1 PUSH2 0x5114 JUMP JUMPDEST PUSH2 0x3FAA JUMPI PUSH1 0x40 MLOAD PUSH3 0x461BCD PUSH1 0xE5 SHL DUP2 MSTORE PUSH1 0x20 PUSH1 0x4 DUP3 ADD MSTORE PUSH1 0x2A PUSH1 0x24 DUP3 ADD MSTORE PUSH32 0x5361666545524332303A204552433230206F7065726174696F6E20646964206E PUSH1 0x44 DUP3 ADD MSTORE PUSH10 0x1BDD081CDD58D8D95959 PUSH1 0xB2 SHL PUSH1 0x64 DUP3 ADD MSTORE PUSH1 0x84 ADD PUSH2 0x608 JUMP JUMPDEST POP POP POP JUMP JUMPDEST PUSH1 0x9 SLOAD PUSH1 0x40 MLOAD PUSH4 0x6E44A72F PUSH1 0xE0 SHL DUP2 MSTORE PUSH1 0x0 SWAP2 DUP5 SWAP2 DUP4 SWAP2 DUP3 SWAP2 DUP3 SWAP2 PUSH1 0x1 PUSH1 0x1 PUSH1 0xA0 SHL SUB AND SWAP1 PUSH4 0x6E44A72F SWAP1 PUSH2 0x3FEA SWAP1 DUP13 SWAP1 DUP13 SWAP1 PUSH1 0x4 ADD PUSH2 0x4CCB JUMP JUMPDEST PUSH1 0x0 PUSH1 0x40 MLOAD DUP1 DUP4 SUB DUP2 DUP7 GAS STATICCALL ISZERO DUP1 ISZERO PUSH2 0x4007 JUMPI RETURNDATASIZE PUSH1 0x0 DUP1 RETURNDATACOPY RETURNDATASIZE PUSH1 0x0 REVERT JUMPDEST POP POP POP POP PUSH1 0x40 MLOAD RETURNDATASIZE PUSH1 0x0 DUP3 RETURNDATACOPY PUSH1 0x1F RETURNDATASIZE SWAP1 DUP2 ADD PUSH1 0x1F NOT AND DUP3 ADD PUSH1 0x40 MSTORE PUSH2 0x402F SWAP2 SWAP1 DUP2 ADD SWAP1 PUSH2 0x4D72 JUMP JUMPDEST DUP2 MLOAD SWAP2 SWAP4 POP SWAP2 POP PUSH1 0x0 DUP2 SWAP1 SUB PUSH2 0x404C JUMPI DUP8 SWAP6 POP POP POP POP POP POP PUSH2 0x417B JUMP JUMPDEST PUSH1 0x0 JUMPDEST DUP2 DUP2 LT ISZERO PUSH2 0x4172 JUMPI PUSH1 0x0 DUP5 DUP3 DUP2 MLOAD DUP2 LT PUSH2 0x406B JUMPI PUSH2 0x406B PUSH2 0x4C86 JUMP JUMPDEST PUSH1 0x20 MUL PUSH1 0x20 ADD ADD MLOAD SWAP1 POP PUSH2 0x2710 DUP11 DUP6 DUP5 DUP2 MLOAD DUP2 LT PUSH2 0x408B JUMPI PUSH2 0x408B PUSH2 0x4C86 JUMP JUMPDEST PUSH1 0x20 MUL PUSH1 0x20 ADD ADD MLOAD PUSH2 0x409D SWAP2 SWAP1 PUSH2 0x5170 JUMP JUMPDEST PUSH2 0x40A7 SWAP2 SWAP1 PUSH2 0x58F4 JUMP JUMPDEST SWAP6 POP DUP6 DUP8 LT ISZERO PUSH2 0x4107 JUMPI PUSH1 0x40 MLOAD PUSH3 0x461BCD PUSH1 0xE5 SHL DUP2 MSTORE PUSH1 0x20 PUSH1 0x4 DUP3 ADD MSTORE PUSH1 0x25 PUSH1 0x24 DUP3 ADD MSTORE PUSH32 0x696E736F6C76656E743A20756E61626C6520746F20636F6D706C65746520726F PUSH1 0x44 DUP3 ADD MSTORE PUSH5 0x79616C7479 PUSH1 0xD8 SHL PUSH1 0x64 DUP3 ADD MSTORE PUSH1 0x84 ADD PUSH2 0x608 JUMP JUMPDEST PUSH2 0x4113 DUP14 DUP3 DUP12 DUP10 PUSH2 0x3846 JUMP JUMPDEST PUSH1 0x40 DUP1 MLOAD PUSH1 0x1 PUSH1 0x1 PUSH1 0xA0 SHL SUB DUP15 DUP2 AND DUP3 MSTORE PUSH1 0x20 DUP3 ADD DUP15 SWAP1 MSTORE DUP4 AND DUP2 DUP4 ADD MSTORE PUSH1 0x60 DUP2 ADD DUP9 SWAP1 MSTORE SWAP1 MLOAD PUSH32 0x866E6EF8682DDF5F1025E64DFDB45527077F7BE70FA9EF680B7FFD8CF4AB9C50 SWAP2 DUP2 SWAP1 SUB PUSH1 0x80 ADD SWAP1 LOG1 POP SWAP5 DUP5 SWAP1 SUB SWAP5 PUSH1 0x1 ADD PUSH2 0x404F JUMP JUMPDEST POP SWAP4 SWAP5 POP POP POP POP POP JUMPDEST SWAP6 SWAP5 POP POP POP POP POP JUMP JUMPDEST PUSH1 0x60 PUSH2 0x4193 DUP5 DUP5 PUSH1 0x0 DUP6 PUSH2 0x419B JUMP JUMPDEST SWAP5 SWAP4 POP POP POP POP JUMP JUMPDEST PUSH1 0x60 DUP3 SELFBALANCE LT ISZERO PUSH2 0x41FC JUMPI PUSH1 0x40 MLOAD PUSH3 0x461BCD PUSH1 0xE5 SHL DUP2 MSTORE PUSH1 0x20 PUSH1 0x4 DUP3 ADD MSTORE PUSH1 0x26 PUSH1 0x24 DUP3 ADD MSTORE PUSH32 0x416464726573733A20696E73756666696369656E742062616C616E636520666F PUSH1 0x44 DUP3 ADD MSTORE PUSH6 0x1C8818D85B1B PUSH1 0xD2 SHL PUSH1 0x64 DUP3 ADD MSTORE PUSH1 0x84 ADD PUSH2 0x608 JUMP JUMPDEST DUP5 EXTCODESIZE PUSH2 0x424A JUMPI PUSH1 0x40 MLOAD PUSH3 0x461BCD PUSH1 0xE5 SHL DUP2 MSTORE PUSH1 0x20 PUSH1 0x4 DUP3 ADD MSTORE PUSH1 0x1D PUSH1 0x24 DUP3 ADD MSTORE PUSH32 0x416464726573733A2063616C6C20746F206E6F6E2D636F6E7472616374000000 PUSH1 0x44 DUP3 ADD MSTORE PUSH1 0x64 ADD PUSH2 0x608 JUMP JUMPDEST PUSH1 0x0 DUP1 DUP7 PUSH1 0x1 PUSH1 0x1 PUSH1 0xA0 SHL SUB AND DUP6 DUP8 PUSH1 0x40 MLOAD PUSH2 0x4266 SWAP2 SWAP1 PUSH2 0x4B9F JUMP JUMPDEST PUSH1 0x0 PUSH1 0x40 MLOAD DUP1 DUP4 SUB DUP2 DUP6 DUP8 GAS CALL SWAP3 POP POP POP RETURNDATASIZE DUP1 PUSH1 0x0 DUP2 EQ PUSH2 0x42A3 JUMPI PUSH1 0x40 MLOAD SWAP2 POP PUSH1 0x1F NOT PUSH1 0x3F RETURNDATASIZE ADD AND DUP3 ADD PUSH1 0x40 MSTORE RETURNDATASIZE DUP3 MSTORE RETURNDATASIZE PUSH1 0x0 PUSH1 0x20 DUP5 ADD RETURNDATACOPY PUSH2 0x42A8 JUMP JUMPDEST PUSH1 0x60 SWAP2 POP JUMPDEST POP SWAP2 POP SWAP2 POP PUSH2 0x3ECD DUP3 DUP3 DUP7 PUSH1 0x60 DUP4 ISZERO PUSH2 0x42C2 JUMPI POP DUP2 PUSH2 0x2369 JUMP JUMPDEST DUP3 MLOAD ISZERO PUSH2 0x42D2 JUMPI DUP3 MLOAD DUP1 DUP5 PUSH1 0x20 ADD REVERT JUMPDEST DUP2 PUSH1 0x40 MLOAD PUSH3 0x461BCD PUSH1 0xE5 SHL DUP2 MSTORE PUSH1 0x4 ADD PUSH2 0x608 SWAP2 SWAP1 PUSH2 0x4C3E JUMP JUMPDEST POP DUP1 SLOAD PUSH1 0x0 DUP3 SSTORE SWAP1 PUSH1 0x0 MSTORE PUSH1 0x20 PUSH1 0x0 KECCAK256 SWAP1 DUP2 ADD SWAP1 PUSH2 0x898 SWAP2 SWAP1 PUSH2 0x43A4 JUMP JUMPDEST DUP3 DUP1 SLOAD DUP3 DUP3 SSTORE SWAP1 PUSH1 0x0 MSTORE PUSH1 0x20 PUSH1 0x0 KECCAK256 SWAP1 DUP2 ADD SWAP3 DUP3 ISZERO PUSH2 0x4345 JUMPI SWAP2 PUSH1 0x20 MUL DUP3 ADD JUMPDEST DUP3 DUP2 GT ISZERO PUSH2 0x4345 JUMPI DUP3 CALLDATALOAD DUP3 SSTORE SWAP2 PUSH1 0x20 ADD SWAP2 SWAP1 PUSH1 0x1 ADD SWAP1 PUSH2 0x432A JUMP JUMPDEST POP PUSH2 0x945 SWAP3 SWAP2 POP PUSH2 0x43A4 JUMP JUMPDEST DUP3 DUP1 SLOAD DUP3 DUP3 SSTORE SWAP1 PUSH1 0x0 MSTORE PUSH1 0x20 PUSH1 0x0 KECCAK256 SWAP1 DUP2 ADD SWAP3 DUP3 ISZERO PUSH2 0x4345 JUMPI SWAP2 PUSH1 0x20 MUL DUP3 ADD JUMPDEST DUP3 DUP2 GT ISZERO PUSH2 0x4345 JUMPI DUP2 SLOAD PUSH1 0x1 PUSH1 0x1 PUSH1 0xA0 SHL SUB NOT AND PUSH1 0x1 PUSH1 0x1 PUSH1 0xA0 SHL SUB DUP5 CALLDATALOAD AND OR DUP3 SSTORE PUSH1 0x20 SWAP1 SWAP3 ADD SWAP2 PUSH1 0x1 SWAP1 SWAP2 ADD SWAP1 PUSH2 0x4371 JUMP JUMPDEST JUMPDEST DUP1 DUP3 GT ISZERO PUSH2 0x945 JUMPI PUSH1 0x0 DUP2 SSTORE PUSH1 0x1 ADD PUSH2 0x43A5 JUMP JUMPDEST PUSH1 0x0 PUSH1 0x20 DUP3 DUP5 SUB SLT ISZERO PUSH2 0x43CB JUMPI PUSH1 0x0 DUP1 REVERT JUMPDEST DUP2 CALLDATALOAD PUSH1 0x1 PUSH1 0x1 PUSH1 0xE0 SHL SUB NOT DUP2 AND DUP2 EQ PUSH2 0x2369 JUMPI PUSH1 0x0 DUP1 REVERT JUMPDEST PUSH1 0x1 PUSH1 0x1 PUSH1 0x40 SHL SUB DUP2 AND DUP2 EQ PUSH2 0x898 JUMPI PUSH1 0x0 DUP1 REVERT JUMPDEST DUP1 CALLDATALOAD PUSH2 0x4403 DUP2 PUSH2 0x43E3 JUMP JUMPDEST SWAP2 SWAP1 POP JUMP JUMPDEST PUSH1 0x0 PUSH1 0x20 DUP3 DUP5 SUB SLT ISZERO PUSH2 0x441A JUMPI PUSH1 0x0 DUP1 REVERT JUMPDEST DUP2 CALLDATALOAD PUSH2 0x2369 DUP2 PUSH2 0x43E3 JUMP JUMPDEST PUSH1 0x1 PUSH1 0x1 PUSH1 0xA0 SHL SUB DUP2 AND DUP2 EQ PUSH2 0x898 JUMPI PUSH1 0x0 DUP1 REVERT JUMPDEST DUP1 CALLDATALOAD PUSH2 0x4403 DUP2 PUSH2 0x4425 JUMP JUMPDEST PUSH1 0x0 PUSH1 0x20 DUP3 DUP5 SUB SLT ISZERO PUSH2 0x4457 JUMPI PUSH1 0x0 DUP1 REVERT JUMPDEST DUP2 CALLDATALOAD PUSH2 0x2369 DUP2 PUSH2 0x4425 JUMP JUMPDEST PUSH4 0x4E487B71 PUSH1 0xE0 SHL PUSH1 0x0 MSTORE PUSH1 0x41 PUSH1 0x4 MSTORE PUSH1 0x24 PUSH1 0x0 REVERT JUMPDEST PUSH1 0x40 MLOAD PUSH2 0x100 DUP2 ADD PUSH1 0x1 PUSH1 0x1 PUSH1 0x40 SHL SUB DUP2 GT DUP3 DUP3 LT OR ISZERO PUSH2 0x449B JUMPI PUSH2 0x449B PUSH2 0x4462 JUMP JUMPDEST PUSH1 0x40 MSTORE SWAP1 JUMP JUMPDEST PUSH1 0x40 MLOAD PUSH1 0x1F DUP3 ADD PUSH1 0x1F NOT AND DUP2 ADD PUSH1 0x1 PUSH1 0x1 PUSH1 0x40 SHL SUB DUP2 GT DUP3 DUP3 LT OR ISZERO PUSH2 0x44C9 JUMPI PUSH2 0x44C9 PUSH2 0x4462 JUMP JUMPDEST PUSH1 0x40 MSTORE SWAP2 SWAP1 POP JUMP JUMPDEST PUSH1 0x0 DUP3 PUSH1 0x1F DUP4 ADD SLT PUSH2 0x44E2 JUMPI PUSH1 0x0 DUP1 REVERT JUMPDEST DUP2 CALLDATALOAD PUSH1 0x1 PUSH1 0x1 PUSH1 0x40 SHL SUB DUP2 GT ISZERO PUSH2 0x44FB JUMPI PUSH2 0x44FB PUSH2 0x4462 JUMP JUMPDEST PUSH2 0x450E PUSH1 0x1F DUP3 ADD PUSH1 0x1F NOT AND PUSH1 0x20 ADD PUSH2 0x44A1 JUMP JUMPDEST DUP2 DUP2 MSTORE DUP5 PUSH1 0x20 DUP4 DUP7 ADD ADD GT ISZERO PUSH2 0x4523 JUMPI PUSH1 0x0 DUP1 REVERT JUMPDEST DUP2 PUSH1 0x20 DUP6 ADD PUSH1 0x20 DUP4 ADD CALLDATACOPY PUSH1 0x0 SWAP2 DUP2 ADD PUSH1 0x20 ADD SWAP2 SWAP1 SWAP2 MSTORE SWAP4 SWAP3 POP POP POP JUMP JUMPDEST PUSH1 0x0 PUSH1 0x20 DUP3 DUP5 SUB SLT ISZERO PUSH2 0x4552 JUMPI PUSH1 0x0 DUP1 REVERT JUMPDEST DUP2 CALLDATALOAD PUSH1 0x1 PUSH1 0x1 PUSH1 0x40 SHL SUB DUP2 GT ISZERO PUSH2 0x4568 JUMPI PUSH1 0x0 DUP1 REVERT JUMPDEST PUSH2 0x4193 DUP5 DUP3 DUP6 ADD PUSH2 0x44D1 JUMP JUMPDEST PUSH1 0x0 DUP2 MLOAD DUP1 DUP5 MSTORE PUSH1 0x20 DUP1 DUP6 ADD SWAP5 POP DUP1 DUP5 ADD PUSH1 0x0 JUMPDEST DUP4 DUP2 LT ISZERO PUSH2 0x45AD JUMPI DUP2 MLOAD PUSH1 0x1 PUSH1 0x1 PUSH1 0xA0 SHL SUB AND DUP8 MSTORE SWAP6 DUP3 ADD SWAP6 SWAP1 DUP3 ADD SWAP1 PUSH1 0x1 ADD PUSH2 0x4588 JUMP JUMPDEST POP SWAP5 SWAP6 SWAP5 POP POP POP POP POP JUMP JUMPDEST PUSH1 0x20 DUP2 MSTORE PUSH1 0x0 PUSH2 0x2369 PUSH1 0x20 DUP4 ADD DUP5 PUSH2 0x4574 JUMP JUMPDEST PUSH1 0x0 DUP1 PUSH1 0x40 DUP4 DUP6 SUB SLT ISZERO PUSH2 0x45DE JUMPI PUSH1 0x0 DUP1 REVERT JUMPDEST DUP3 CALLDATALOAD PUSH2 0x45E9 DUP2 PUSH2 0x4425 JUMP JUMPDEST SWAP5 PUSH1 0x20 SWAP4 SWAP1 SWAP4 ADD CALLDATALOAD SWAP4 POP POP POP JUMP JUMPDEST PUSH1 0x0 DUP2 MLOAD DUP1 DUP5 MSTORE PUSH1 0x20 DUP1 DUP6 ADD SWAP5 POP DUP1 DUP5 ADD PUSH1 0x0 JUMPDEST DUP4 DUP2 LT ISZERO PUSH2 0x45AD JUMPI DUP2 MLOAD DUP8 MSTORE SWAP6 DUP3 ADD SWAP6 SWAP1 DUP3 ADD SWAP1 PUSH1 0x1 ADD PUSH2 0x460B JUMP JUMPDEST PUSH1 0x40 DUP1 DUP3 MSTORE DUP4 MLOAD SWAP1 DUP3 ADD DUP2 SWAP1 MSTORE PUSH1 0x0 SWAP1 PUSH1 0x20 SWAP1 PUSH1 0x60 DUP5 ADD SWAP1 DUP3 DUP8 ADD DUP5 JUMPDEST DUP3 DUP2 LT ISZERO PUSH2 0x4669 JUMPI DUP2 MLOAD PUSH1 0x1 PUSH1 0x1 PUSH1 0xA0 SHL SUB AND DUP5 MSTORE SWAP3 DUP5 ADD SWAP3 SWAP1 DUP5 ADD SWAP1 PUSH1 0x1 ADD PUSH2 0x4644 JUMP JUMPDEST POP POP POP DUP4 DUP2 SUB DUP3 DUP6 ADD MSTORE PUSH2 0x467D DUP2 DUP7 PUSH2 0x45F7 JUMP JUMPDEST SWAP7 SWAP6 POP POP POP POP POP POP JUMP JUMPDEST PUSH1 0x1 DUP1 PUSH1 0xA0 SHL SUB DUP1 DUP3 MLOAD AND DUP4 MSTORE DUP1 PUSH1 0x20 DUP4 ADD MLOAD AND PUSH1 0x20 DUP5 ADD MSTORE DUP1 PUSH1 0x40 DUP4 ADD MLOAD AND PUSH1 0x40 DUP5 ADD MSTORE PUSH1 0x60 DUP3 ADD MLOAD PUSH2 0xFFFF DUP1 DUP3 AND PUSH1 0x60 DUP7 ADD MSTORE DUP3 PUSH1 0x80 DUP6 ADD MLOAD AND PUSH1 0x80 DUP7 ADD MSTORE DUP1 PUSH1 0xA0 DUP6 ADD MLOAD AND PUSH1 0xA0 DUP7 ADD MSTORE POP POP POP POP POP JUMP JUMPDEST PUSH4 0x4E487B71 PUSH1 0xE0 SHL PUSH1 0x0 MSTORE PUSH1 0x21 PUSH1 0x4 MSTORE PUSH1 0x24 PUSH1 0x0 REVERT JUMPDEST PUSH1 0x2 DUP2 LT PUSH2 0x898 JUMPI PUSH4 0x4E487B71 PUSH1 0xE0 SHL PUSH1 0x0 MSTORE PUSH1 0x21 PUSH1 0x4 MSTORE PUSH1 0x24 PUSH1 0x0 REVERT JUMPDEST PUSH2 0x4718 DUP2 PUSH2 0x46F1 JUMP JUMPDEST SWAP1 MSTORE JUMP JUMPDEST PUSH1 0x1 PUSH1 0x1 PUSH1 0xA0 SHL SUB DUP10 AND DUP2 MSTORE PUSH1 0x1 PUSH1 0x1 PUSH1 0x40 SHL SUB DUP9 DUP2 AND PUSH1 0x20 DUP4 ADD MSTORE DUP8 DUP2 AND PUSH1 0x40 DUP4 ADD MSTORE PUSH1 0x60 DUP3 ADD DUP8 SWAP1 MSTORE PUSH2 0x1A0 DUP3 ADD SWAP1 PUSH2 0x475A PUSH1 0x80 DUP5 ADD DUP9 PUSH2 0x4687 JUMP JUMPDEST DUP6 AND PUSH2 0x140 DUP4 ADD MSTORE PUSH2 0x476B DUP5 PUSH2 0x46F1 JUMP JUMPDEST DUP4 PUSH2 0x160 DUP4 ADD MSTORE PUSH2 0x477B DUP4 PUSH2 0x46F1 JUMP JUMPDEST DUP3 PUSH2 0x180 DUP4 ADD MSTORE SWAP10 SWAP9 POP POP POP POP POP POP POP POP POP JUMP JUMPDEST PUSH1 0x0 DUP1 PUSH1 0x40 DUP4 DUP6 SUB SLT ISZERO PUSH2 0x47A2 JUMPI PUSH1 0x0 DUP1 REVERT JUMPDEST DUP3 CALLDATALOAD PUSH1 0x1 PUSH1 0x1 PUSH1 0x40 SHL SUB DUP1 DUP3 GT ISZERO PUSH2 0x47B9 JUMPI PUSH1 0x0 DUP1 REVERT JUMPDEST SWAP1 DUP5 ADD SWAP1 PUSH2 0x100 DUP3 DUP8 SUB SLT ISZERO PUSH2 0x47CE JUMPI PUSH1 0x0 DUP1 REVERT JUMPDEST PUSH2 0x47D6 PUSH2 0x4478 JUMP JUMPDEST DUP3 CALLDATALOAD DUP3 DUP2 GT ISZERO PUSH2 0x47E5 JUMPI PUSH1 0x0 DUP1 REVERT JUMPDEST PUSH2 0x47F1 DUP9 DUP3 DUP7 ADD PUSH2 0x44D1 JUMP JUMPDEST DUP3 MSTORE POP PUSH2 0x4800 PUSH1 0x20 DUP5 ADD PUSH2 0x443A JUMP JUMPDEST PUSH1 0x20 DUP3 ADD MSTORE PUSH1 0x40 DUP4 ADD CALLDATALOAD PUSH1 0x40 DUP3 ADD MSTORE PUSH2 0x481B PUSH1 0x60 DUP5 ADD PUSH2 0x43F8 JUMP JUMPDEST PUSH1 0x60 DUP3 ADD MSTORE PUSH2 0x482C PUSH1 0x80 DUP5 ADD PUSH2 0x443A JUMP JUMPDEST PUSH1 0x80 DUP3 ADD MSTORE PUSH2 0x483D PUSH1 0xA0 DUP5 ADD PUSH2 0x43F8 JUMP JUMPDEST PUSH1 0xA0 DUP3 ADD MSTORE PUSH2 0x484E PUSH1 0xC0 DUP5 ADD PUSH2 0x443A JUMP JUMPDEST PUSH1 0xC0 DUP3 ADD MSTORE PUSH1 0xE0 SWAP3 DUP4 ADD CALLDATALOAD SWAP3 DUP2 ADD SWAP3 SWAP1 SWAP3 MSTORE POP SWAP5 PUSH1 0x20 SWAP4 SWAP1 SWAP4 ADD CALLDATALOAD SWAP4 POP POP POP JUMP JUMPDEST PUSH1 0x20 DUP2 MSTORE PUSH1 0x0 PUSH2 0x2369 PUSH1 0x20 DUP4 ADD DUP5 PUSH2 0x45F7 JUMP JUMPDEST PUSH1 0x0 DUP1 DUP4 PUSH1 0x1F DUP5 ADD SLT PUSH2 0x4894 JUMPI PUSH1 0x0 DUP1 REVERT JUMPDEST POP DUP2 CALLDATALOAD PUSH1 0x1 PUSH1 0x1 PUSH1 0x40 SHL SUB DUP2 GT ISZERO PUSH2 0x48AB JUMPI PUSH1 0x0 DUP1 REVERT JUMPDEST PUSH1 0x20 DUP4 ADD SWAP2 POP DUP4 PUSH1 0x20 DUP3 DUP6 ADD ADD GT ISZERO PUSH2 0x48C3 JUMPI PUSH1 0x0 DUP1 REVERT JUMPDEST SWAP3 POP SWAP3 SWAP1 POP JUMP JUMPDEST PUSH1 0x0 DUP1 PUSH1 0x0 PUSH1 0x40 DUP5 DUP7 SUB SLT ISZERO PUSH2 0x48DF JUMPI PUSH1 0x0 DUP1 REVERT JUMPDEST DUP4 CALLDATALOAD PUSH1 0x1 PUSH1 0x1 PUSH1 0x40 SHL SUB DUP2 GT ISZERO PUSH2 0x48F5 JUMPI PUSH1 0x0 DUP1 REVERT JUMPDEST PUSH2 0x4901 DUP7 DUP3 DUP8 ADD PUSH2 0x4882 JUMP JUMPDEST SWAP1 SWAP5 POP SWAP3 POP POP PUSH1 0x20 DUP5 ADD CALLDATALOAD PUSH2 0x4915 DUP2 PUSH2 0x4425 JUMP JUMPDEST DUP1 SWAP2 POP POP SWAP3 POP SWAP3 POP SWAP3 JUMP JUMPDEST PUSH2 0xFFFF DUP2 AND DUP2 EQ PUSH2 0x898 JUMPI PUSH1 0x0 DUP1 REVERT JUMPDEST PUSH1 0x0 PUSH1 0x20 DUP3 DUP5 SUB SLT ISZERO PUSH2 0x4942 JUMPI PUSH1 0x0 DUP1 REVERT JUMPDEST DUP2 CALLDATALOAD PUSH2 0x2369 DUP2 PUSH2 0x4920 JUMP JUMPDEST PUSH1 0x0 DUP1 PUSH1 0x20 DUP4 DUP6 SUB SLT ISZERO PUSH2 0x4960 JUMPI PUSH1 0x0 DUP1 REVERT JUMPDEST DUP3 CALLDATALOAD PUSH1 0x1 PUSH1 0x1 PUSH1 0x40 SHL SUB DUP2 GT ISZERO PUSH2 0x4976 JUMPI PUSH1 0x0 DUP1 REVERT JUMPDEST PUSH2 0x4982 DUP6 DUP3 DUP7 ADD PUSH2 0x4882 JUMP JUMPDEST SWAP1 SWAP7 SWAP1 SWAP6 POP SWAP4 POP POP POP POP JUMP JUMPDEST PUSH1 0x40 DUP2 MSTORE PUSH1 0x0 PUSH2 0x49A1 PUSH1 0x40 DUP4 ADD DUP6 PUSH2 0x45F7 JUMP JUMPDEST DUP3 DUP2 SUB PUSH1 0x20 DUP5 ADD MSTORE PUSH2 0x417B DUP2 DUP6 PUSH2 0x4574 JUMP JUMPDEST PUSH1 0x2 DUP2 LT PUSH2 0x898 JUMPI PUSH1 0x0 DUP1 REVERT JUMPDEST DUP1 CALLDATALOAD PUSH2 0x4403 DUP2 PUSH2 0x49B3 JUMP JUMPDEST PUSH1 0x0 DUP1 DUP4 PUSH1 0x1F DUP5 ADD SLT PUSH2 0x49DD JUMPI PUSH1 0x0 DUP1 REVERT JUMPDEST POP DUP2 CALLDATALOAD PUSH1 0x1 PUSH1 0x1 PUSH1 0x40 SHL SUB DUP2 GT ISZERO PUSH2 0x49F4 JUMPI PUSH1 0x0 DUP1 REVERT JUMPDEST PUSH1 0x20 DUP4 ADD SWAP2 POP DUP4 PUSH1 0x20 DUP3 PUSH1 0x5 SHL DUP6 ADD ADD GT ISZERO PUSH2 0x48C3 JUMPI PUSH1 0x0 DUP1 REVERT JUMPDEST PUSH1 0x0 DUP1 PUSH1 0x0 DUP1 PUSH1 0x0 DUP1 PUSH1 0x0 DUP1 PUSH1 0xA0 DUP10 DUP12 SUB SLT ISZERO PUSH2 0x4A2B JUMPI PUSH1 0x0 DUP1 REVERT JUMPDEST DUP9 CALLDATALOAD PUSH1 0x1 PUSH1 0x1 PUSH1 0x40 SHL SUB DUP1 DUP3 GT ISZERO PUSH2 0x4A42 JUMPI PUSH1 0x0 DUP1 REVERT JUMPDEST PUSH2 0x4A4E DUP13 DUP4 DUP14 ADD PUSH2 0x4882 JUMP JUMPDEST SWAP1 SWAP11 POP SWAP9 POP PUSH1 0x20 DUP12 ADD CALLDATALOAD SWAP2 POP PUSH2 0x4A63 DUP3 PUSH2 0x49B3 JUMP JUMPDEST SWAP1 SWAP7 POP PUSH1 0x40 DUP11 ADD CALLDATALOAD SWAP6 POP PUSH1 0x60 DUP11 ADD CALLDATALOAD SWAP1 DUP1 DUP3 GT ISZERO PUSH2 0x4A80 JUMPI PUSH1 0x0 DUP1 REVERT JUMPDEST PUSH2 0x4A8C DUP13 DUP4 DUP14 ADD PUSH2 0x49CB JUMP JUMPDEST SWAP1 SWAP7 POP SWAP5 POP PUSH1 0x80 DUP12 ADD CALLDATALOAD SWAP2 POP DUP1 DUP3 GT ISZERO PUSH2 0x4AA5 JUMPI PUSH1 0x0 DUP1 REVERT JUMPDEST POP PUSH2 0x4AB2 DUP12 DUP3 DUP13 ADD PUSH2 0x49CB JUMP JUMPDEST SWAP10 SWAP13 SWAP9 SWAP12 POP SWAP7 SWAP10 POP SWAP5 SWAP8 SWAP4 SWAP7 SWAP3 SWAP6 SWAP5 POP POP POP JUMP JUMPDEST PUSH1 0x0 DUP1 PUSH1 0x0 PUSH1 0x40 DUP5 DUP7 SUB SLT ISZERO PUSH2 0x4ADB JUMPI PUSH1 0x0 DUP1 REVERT JUMPDEST DUP4 CALLDATALOAD PUSH1 0x1 PUSH1 0x1 PUSH1 0x40 SHL SUB DUP1 DUP3 GT ISZERO PUSH2 0x4AF2 JUMPI PUSH1 0x0 DUP1 REVERT JUMPDEST SWAP1 DUP6 ADD SWAP1 PUSH2 0x1E0 DUP3 DUP9 SUB SLT ISZERO PUSH2 0x4B07 JUMPI PUSH1 0x0 DUP1 REVERT JUMPDEST SWAP1 SWAP4 POP PUSH1 0x20 DUP6 ADD CALLDATALOAD SWAP1 DUP1 DUP3 GT ISZERO PUSH2 0x4B1D JUMPI PUSH1 0x0 DUP1 REVERT JUMPDEST POP PUSH2 0x4B2A DUP7 DUP3 DUP8 ADD PUSH2 0x4882 JUMP JUMPDEST SWAP5 SWAP8 SWAP1 SWAP7 POP SWAP4 SWAP5 POP POP POP POP JUMP JUMPDEST PUSH1 0x20 DUP1 DUP3 MSTORE PUSH1 0x24 SWAP1 DUP3 ADD MSTORE PUSH32 0x41646D696E436F6E74726F6C3A204D757374206265206F776E6572206F722061 PUSH1 0x40 DUP3 ADD MSTORE PUSH4 0x3236B4B7 PUSH1 0xE1 SHL PUSH1 0x60 DUP3 ADD MSTORE PUSH1 0x80 ADD SWAP1 JUMP JUMPDEST PUSH1 0x0 JUMPDEST DUP4 DUP2 LT ISZERO PUSH2 0x4B96 JUMPI DUP2 DUP2 ADD MLOAD DUP4 DUP3 ADD MSTORE PUSH1 0x20 ADD PUSH2 0x4B7E JUMP JUMPDEST POP POP PUSH1 0x0 SWAP2 ADD MSTORE JUMP JUMPDEST PUSH1 0x0 DUP3 MLOAD PUSH2 0x4BB1 DUP2 DUP5 PUSH1 0x20 DUP8 ADD PUSH2 0x4B7B JUMP JUMPDEST SWAP2 SWAP1 SWAP2 ADD SWAP3 SWAP2 POP POP JUMP JUMPDEST PUSH1 0x20 DUP1 DUP3 MSTORE PUSH1 0x37 SWAP1 DUP3 ADD MSTORE PUSH32 0x7468652073616C65496420796F75206861766520656E74657265642069732069 PUSH1 0x40 DUP3 ADD MSTORE PUSH23 0x6E76616C69642E20506C656173652076616C6964617465 PUSH1 0x48 SHL PUSH1 0x60 DUP3 ADD MSTORE PUSH1 0x80 ADD SWAP1 JUMP JUMPDEST PUSH1 0x0 DUP2 MLOAD DUP1 DUP5 MSTORE PUSH2 0x4C2A DUP2 PUSH1 0x20 DUP7 ADD PUSH1 0x20 DUP7 ADD PUSH2 0x4B7B JUMP JUMPDEST PUSH1 0x1F ADD PUSH1 0x1F NOT AND SWAP3 SWAP1 SWAP3 ADD PUSH1 0x20 ADD SWAP3 SWAP2 POP POP JUMP JUMPDEST PUSH1 0x20 DUP2 MSTORE PUSH1 0x0 PUSH2 0x2369 PUSH1 0x20 DUP4 ADD DUP5 PUSH2 0x4C12 JUMP JUMPDEST PUSH1 0x20 DUP1 DUP3 MSTORE DUP2 DUP2 ADD MSTORE PUSH32 0x4F776E61626C653A2063616C6C6572206973206E6F7420746865206F776E6572 PUSH1 0x40 DUP3 ADD MSTORE PUSH1 0x60 ADD SWAP1 JUMP JUMPDEST PUSH4 0x4E487B71 PUSH1 0xE0 SHL PUSH1 0x0 MSTORE PUSH1 0x32 PUSH1 0x4 MSTORE PUSH1 0x24 PUSH1 0x0 REVERT JUMPDEST PUSH4 0x4E487B71 PUSH1 0xE0 SHL PUSH1 0x0 MSTORE PUSH1 0x11 PUSH1 0x4 MSTORE PUSH1 0x24 PUSH1 0x0 REVERT JUMPDEST PUSH1 0x0 PUSH1 0x1 DUP3 ADD PUSH2 0x4CC4 JUMPI PUSH2 0x4CC4 PUSH2 0x4C9C JUMP JUMPDEST POP PUSH1 0x1 ADD SWAP1 JUMP JUMPDEST PUSH1 0x1 PUSH1 0x1 PUSH1 0xA0 SHL SUB SWAP3 SWAP1 SWAP3 AND DUP3 MSTORE PUSH1 0x20 DUP3 ADD MSTORE PUSH1 0x40 ADD SWAP1 JUMP JUMPDEST PUSH1 0x0 PUSH1 0x1 PUSH1 0x1 PUSH1 0x40 SHL SUB DUP3 GT ISZERO PUSH2 0x4CFD JUMPI PUSH2 0x4CFD PUSH2 0x4462 JUMP JUMPDEST POP PUSH1 0x5 SHL PUSH1 0x20 ADD SWAP1 JUMP JUMPDEST PUSH1 0x0 DUP3 PUSH1 0x1F DUP4 ADD SLT PUSH2 0x4D18 JUMPI PUSH1 0x0 DUP1 REVERT JUMPDEST DUP2 MLOAD PUSH1 0x20 PUSH2 0x4D2D PUSH2 0x4D28 DUP4 PUSH2 0x4CE4 JUMP JUMPDEST PUSH2 0x44A1 JUMP JUMPDEST DUP3 DUP2 MSTORE PUSH1 0x5 SWAP3 SWAP1 SWAP3 SHL DUP5 ADD DUP2 ADD SWAP2 DUP2 DUP2 ADD SWAP1 DUP7 DUP5 GT ISZERO PUSH2 0x4D4C JUMPI PUSH1 0x0 DUP1 REVERT JUMPDEST DUP3 DUP7 ADD JUMPDEST DUP5 DUP2 LT ISZERO PUSH2 0x4D67 JUMPI DUP1 MLOAD DUP4 MSTORE SWAP2 DUP4 ADD SWAP2 DUP4 ADD PUSH2 0x4D50 JUMP JUMPDEST POP SWAP7 SWAP6 POP POP POP POP POP POP JUMP JUMPDEST PUSH1 0x0 DUP1 PUSH1 0x40 DUP4 DUP6 SUB SLT ISZERO PUSH2 0x4D85 JUMPI PUSH1 0x0 DUP1 REVERT JUMPDEST DUP3 MLOAD PUSH1 0x1 PUSH1 0x1 PUSH1 0x40 SHL SUB DUP1 DUP3 GT ISZERO PUSH2 0x4D9C JUMPI PUSH1 0x0 DUP1 REVERT JUMPDEST DUP2 DUP6 ADD SWAP2 POP DUP6 PUSH1 0x1F DUP4 ADD SLT PUSH2 0x4DB0 JUMPI PUSH1 0x0 DUP1 REVERT JUMPDEST DUP2 MLOAD PUSH1 0x20 PUSH2 0x4DC0 PUSH2 0x4D28 DUP4 PUSH2 0x4CE4 JUMP JUMPDEST DUP3 DUP2 MSTORE PUSH1 0x5 SWAP3 SWAP1 SWAP3 SHL DUP5 ADD DUP2 ADD SWAP2 DUP2 DUP2 ADD SWAP1 DUP10 DUP5 GT ISZERO PUSH2 0x4DDF JUMPI PUSH1 0x0 DUP1 REVERT JUMPDEST SWAP5 DUP3 ADD SWAP5 JUMPDEST DUP4 DUP7 LT ISZERO PUSH2 0x4E06 JUMPI DUP6 MLOAD PUSH2 0x4DF7 DUP2 PUSH2 0x4425 JUMP JUMPDEST DUP3 MSTORE SWAP5 DUP3 ADD SWAP5 SWAP1 DUP3 ADD SWAP1 PUSH2 0x4DE4 JUMP JUMPDEST SWAP2 DUP9 ADD MLOAD SWAP2 SWAP7 POP SWAP1 SWAP4 POP POP POP DUP1 DUP3 GT ISZERO PUSH2 0x4E1F JUMPI PUSH1 0x0 DUP1 REVERT JUMPDEST POP PUSH2 0x4E2C DUP6 DUP3 DUP7 ADD PUSH2 0x4D07 JUMP JUMPDEST SWAP2 POP POP SWAP3 POP SWAP3 SWAP1 POP JUMP JUMPDEST PUSH1 0x20 DUP1 DUP3 MSTORE PUSH1 0x10 SWAP1 DUP3 ADD MSTORE PUSH16 0x756E737570706F727465642073616C65 PUSH1 0x80 SHL PUSH1 0x40 DUP3 ADD MSTORE PUSH1 0x60 ADD SWAP1 JUMP JUMPDEST DUP1 DUP3 ADD DUP1 DUP3 GT ISZERO PUSH2 0x5C2 JUMPI PUSH2 0x5C2 PUSH2 0x4C9C JUMP JUMPDEST DUP2 DUP2 SUB DUP2 DUP2 GT ISZERO PUSH2 0x5C2 JUMPI PUSH2 0x5C2 PUSH2 0x4C9C JUMP JUMPDEST PUSH1 0x0 PUSH2 0x160 DUP1 DUP4 MSTORE DUP9 MLOAD PUSH2 0x100 DUP1 DUP4 DUP7 ADD MSTORE PUSH2 0x4EA6 PUSH2 0x260 DUP7 ADD DUP4 PUSH2 0x4C12 JUMP JUMPDEST PUSH1 0x20 DUP13 ADD MLOAD PUSH1 0x1 PUSH1 0x1 PUSH1 0xA0 SHL SUB AND PUSH2 0x180 DUP8 ADD MSTORE PUSH1 0x40 DUP13 ADD MLOAD PUSH2 0x1A0 DUP8 ADD MSTORE PUSH1 0x60 DUP13 ADD MLOAD PUSH1 0x1 PUSH1 0x1 PUSH1 0x40 SHL SUB AND PUSH2 0x1C0 DUP8 ADD MSTORE PUSH1 0x80 DUP13 ADD MLOAD SWAP1 SWAP4 POP SWAP2 POP PUSH2 0x4EF9 PUSH2 0x1E0 DUP7 ADD DUP4 PUSH1 0x1 PUSH1 0x1 PUSH1 0xA0 SHL SUB AND SWAP1 MSTORE JUMP JUMPDEST PUSH1 0xA0 DUP12 ADD MLOAD PUSH1 0x1 PUSH1 0x1 PUSH1 0x40 SHL SUB AND PUSH2 0x200 DUP7 ADD MSTORE PUSH1 0xC0 DUP12 ADD MLOAD PUSH1 0x1 PUSH1 0x1 PUSH1 0xA0 SHL SUB DUP2 AND PUSH2 0x220 DUP8 ADD MSTORE PUSH1 0xE0 DUP13 ADD MLOAD PUSH2 0x240 DUP8 ADD MSTORE DUP6 DUP5 SUB PUSH1 0x20 DUP8 ADD MSTORE SWAP2 POP PUSH2 0x4F41 DUP4 DUP12 PUSH2 0x45F7 JUMP JUMPDEST SWAP4 POP PUSH2 0x4F50 PUSH1 0x40 DUP7 ADD DUP11 PUSH2 0x4687 JUMP JUMPDEST DUP5 ADD SWAP7 SWAP1 SWAP7 MSTORE POP PUSH2 0x120 DUP3 ADD SWAP4 SWAP1 SWAP4 MSTORE PUSH2 0x140 ADD MSTORE SWAP5 SWAP4 POP POP POP POP JUMP JUMPDEST DUP2 DUP4 DUP3 CALLDATACOPY PUSH1 0x0 SWAP2 ADD SWAP1 DUP2 MSTORE SWAP2 SWAP1 POP JUMP JUMPDEST PUSH1 0x20 DUP1 DUP3 MSTORE PUSH1 0x38 SWAP1 DUP3 ADD MSTORE PUSH32 0x73686F756C64206E6F74206265207A65726F2061646472657373206F72207072 PUSH1 0x40 DUP3 ADD MSTORE PUSH24 0x6576696F757320736574746C656D656E7420616472657373 PUSH1 0x40 SHL PUSH1 0x60 DUP3 ADD MSTORE PUSH1 0x80 ADD SWAP1 JUMP JUMPDEST PUSH1 0x20 DUP1 DUP3 MSTORE PUSH1 0x38 SWAP1 DUP3 ADD MSTORE PUSH32 0x73686F756C642070726F7669646520657175616C206C656E67746820696E2070 PUSH1 0x40 DUP3 ADD MSTORE PUSH24 0x7269636520616E64207061796D656E742061646472657373 PUSH1 0x40 SHL PUSH1 0x60 DUP3 ADD MSTORE PUSH1 0x80 ADD SWAP1 JUMP JUMPDEST PUSH1 0x20 DUP1 DUP3 MSTORE PUSH1 0x31 SWAP1 DUP3 ADD MSTORE PUSH32 0x6D696E696D756D20707269636520696E20666961742073686F756C6420626520 PUSH1 0x40 DUP3 ADD MSTORE PUSH17 0x67726561746572207468616E207A65726F PUSH1 0x78 SHL PUSH1 0x60 DUP3 ADD MSTORE PUSH1 0x80 ADD SWAP1 JUMP JUMPDEST PUSH2 0xFFFF DUP2 DUP2 AND DUP4 DUP3 AND ADD SWAP1 DUP1 DUP3 GT ISZERO PUSH2 0x3C46 JUMPI PUSH2 0x3C46 PUSH2 0x4C9C JUMP JUMPDEST PUSH1 0x0 DUP1 DUP4 CALLDATALOAD PUSH1 0x1E NOT DUP5 CALLDATASIZE SUB ADD DUP2 SLT PUSH2 0x50B0 JUMPI PUSH1 0x0 DUP1 REVERT JUMPDEST DUP4 ADD DUP1 CALLDATALOAD SWAP2 POP PUSH1 0x1 PUSH1 0x1 PUSH1 0x40 SHL SUB DUP3 GT ISZERO PUSH2 0x50CA JUMPI PUSH1 0x0 DUP1 REVERT JUMPDEST PUSH1 0x20 ADD SWAP2 POP PUSH1 0x5 DUP2 SWAP1 SHL CALLDATASIZE SUB DUP3 SGT ISZERO PUSH2 0x48C3 JUMPI PUSH1 0x0 DUP1 REVERT JUMPDEST PUSH1 0x0 PUSH1 0x20 DUP3 DUP5 SUB SLT ISZERO PUSH2 0x50F4 JUMPI PUSH1 0x0 DUP1 REVERT JUMPDEST DUP2 CALLDATALOAD PUSH2 0x2369 DUP2 PUSH2 0x49B3 JUMP JUMPDEST PUSH1 0x1 PUSH1 0x1 PUSH1 0xE0 SHL SUB NOT SWAP2 SWAP1 SWAP2 AND DUP2 MSTORE PUSH1 0x20 ADD SWAP1 JUMP JUMPDEST PUSH1 0x0 PUSH1 0x20 DUP3 DUP5 SUB SLT ISZERO PUSH2 0x5126 JUMPI PUSH1 0x0 DUP1 REVERT JUMPDEST DUP2 MLOAD DUP1 ISZERO ISZERO DUP2 EQ PUSH2 0x2369 JUMPI PUSH1 0x0 DUP1 REVERT JUMPDEST PUSH1 0x0 DUP2 CALLDATALOAD PUSH2 0x5C2 DUP2 PUSH2 0x4425 JUMP JUMPDEST DUP1 SLOAD PUSH1 0x1 PUSH1 0x1 PUSH1 0xA0 SHL SUB NOT AND PUSH1 0x1 PUSH1 0x1 PUSH1 0xA0 SHL SUB SWAP3 SWAP1 SWAP3 AND SWAP2 SWAP1 SWAP2 OR SWAP1 SSTORE JUMP JUMPDEST PUSH1 0x0 DUP2 CALLDATALOAD PUSH2 0x5C2 DUP2 PUSH2 0x43E3 JUMP JUMPDEST DUP1 DUP3 MUL DUP2 ISZERO DUP3 DUP3 DIV DUP5 EQ OR PUSH2 0x5C2 JUMPI PUSH2 0x5C2 PUSH2 0x4C9C JUMP JUMPDEST DUP2 DUP4 LT ISZERO PUSH2 0x3FAA JUMPI PUSH1 0x0 DUP2 DUP2 MSTORE PUSH1 0x20 DUP2 KECCAK256 DUP5 DUP2 ADD SWAP1 DUP5 ADD JUMPDEST DUP1 DUP3 LT ISZERO PUSH2 0x51B5 JUMPI DUP3 DUP3 SSTORE PUSH1 0x1 DUP3 ADD SWAP2 POP PUSH2 0x519F JUMP JUMPDEST POP POP POP POP POP POP JUMP JUMPDEST PUSH1 0x1 PUSH1 0x1 PUSH1 0x40 SHL SUB DUP4 GT ISZERO PUSH2 0x51D4 JUMPI PUSH2 0x51D4 PUSH2 0x4462 JUMP JUMPDEST PUSH1 0x1 PUSH1 0x40 SHL DUP4 GT ISZERO PUSH2 0x51E8 JUMPI PUSH2 0x51E8 PUSH2 0x4462 JUMP JUMPDEST DUP1 SLOAD DUP4 DUP3 SSTORE PUSH2 0x51F8 DUP5 DUP3 DUP5 PUSH2 0x5187 JUMP JUMPDEST POP DUP2 DUP2 PUSH1 0x0 MSTORE PUSH1 0x20 DUP1 PUSH1 0x0 KECCAK256 PUSH1 0x0 JUMPDEST DUP7 DUP2 LT ISZERO PUSH2 0x5221 JUMPI DUP4 CALLDATALOAD DUP3 DUP3 ADD SSTORE SWAP3 DUP3 ADD SWAP3 PUSH1 0x1 ADD PUSH2 0x5207 JUMP JUMPDEST POP POP POP POP POP POP POP JUMP JUMPDEST PUSH1 0x1 PUSH1 0x1 PUSH1 0x40 SHL SUB DUP4 GT ISZERO PUSH2 0x5241 JUMPI PUSH2 0x5241 PUSH2 0x4462 JUMP JUMPDEST PUSH1 0x1 PUSH1 0x40 SHL DUP4 GT ISZERO PUSH2 0x5255 JUMPI PUSH2 0x5255 PUSH2 0x4462 JUMP JUMPDEST DUP1 SLOAD DUP4 DUP3 SSTORE PUSH2 0x5265 DUP5 DUP3 DUP5 PUSH2 0x5187 JUMP JUMPDEST POP DUP2 DUP2 PUSH1 0x0 MSTORE PUSH1 0x20 DUP1 PUSH1 0x0 KECCAK256 PUSH1 0x0 JUMPDEST DUP7 DUP2 LT ISZERO PUSH2 0x5221 JUMPI DUP4 CALLDATALOAD PUSH2 0x5287 DUP2 PUSH2 0x4425 JUMP JUMPDEST DUP3 DUP3 ADD SSTORE SWAP3 DUP3 ADD SWAP3 PUSH1 0x1 ADD PUSH2 0x5274 JUMP JUMPDEST DUP1 SLOAD PUSH2 0xFFFF PUSH1 0xA0 SHL NOT AND PUSH1 0xA0 SWAP3 SWAP1 SWAP3 SHL PUSH2 0xFFFF PUSH1 0xA0 SHL AND SWAP2 SWAP1 SWAP2 OR SWAP1 SSTORE JUMP JUMPDEST DUP2 CALLDATALOAD PUSH2 0x52C1 DUP2 PUSH2 0x4425 JUMP JUMPDEST PUSH2 0x52CB DUP2 DUP4 PUSH2 0x5143 JUMP JUMPDEST POP PUSH1 0x20 DUP3 ADD CALLDATALOAD PUSH2 0x52DA DUP2 PUSH2 0x4425 JUMP JUMPDEST PUSH2 0x52E7 DUP2 PUSH1 0x1 DUP5 ADD PUSH2 0x5143 JUMP JUMPDEST POP PUSH1 0x2 DUP2 ADD PUSH1 0x40 DUP4 ADD CALLDATALOAD PUSH2 0x52FA DUP2 PUSH2 0x4425 JUMP JUMPDEST PUSH2 0x5304 DUP2 DUP4 PUSH2 0x5143 JUMP JUMPDEST POP PUSH1 0x60 DUP4 ADD CALLDATALOAD PUSH2 0x5313 DUP2 PUSH2 0x4920 JUMP JUMPDEST PUSH2 0x531D DUP2 DUP4 PUSH2 0x5297 JUMP JUMPDEST POP POP PUSH1 0x3 DUP2 ADD PUSH1 0x80 DUP4 ADD CALLDATALOAD PUSH2 0x5331 DUP2 PUSH2 0x4425 JUMP JUMPDEST PUSH2 0x533B DUP2 DUP4 PUSH2 0x5143 JUMP JUMPDEST POP PUSH1 0xA0 DUP4 ADD CALLDATALOAD PUSH2 0x534A DUP2 PUSH2 0x4920 JUMP JUMPDEST PUSH2 0x3D20 DUP2 DUP4 PUSH2 0x5297 JUMP JUMPDEST PUSH1 0x0 DUP2 CALLDATALOAD PUSH2 0x5C2 DUP2 PUSH2 0x49B3 JUMP JUMPDEST PUSH2 0x536A DUP3 PUSH2 0x46F1 JUMP JUMPDEST DUP1 SLOAD PUSH1 0xFF PUSH1 0x40 SHL NOT AND PUSH1 0x40 SWAP3 SWAP1 SWAP3 SHL PUSH1 0xFF PUSH1 0x40 SHL AND SWAP2 SWAP1 SWAP2 OR SWAP1 SSTORE JUMP JUMPDEST PUSH2 0x5390 DUP3 PUSH2 0x46F1 JUMP JUMPDEST DUP1 SLOAD PUSH1 0xFF PUSH1 0x48 SHL NOT AND PUSH1 0x48 SWAP3 SWAP1 SWAP3 SHL PUSH1 0xFF PUSH1 0x48 SHL AND SWAP2 SWAP1 SWAP2 OR SWAP1 SSTORE JUMP JUMPDEST PUSH2 0x53BF PUSH2 0x53B9 DUP4 PUSH2 0x5136 JUMP JUMPDEST DUP3 PUSH2 0x5143 JUMP JUMPDEST PUSH2 0x53FA PUSH2 0x53CE PUSH1 0x20 DUP5 ADD PUSH2 0x5163 JUMP JUMPDEST DUP3 DUP1 SLOAD PUSH8 0xFFFFFFFFFFFFFFFF PUSH1 0xA0 SHL NOT AND PUSH1 0xA0 SWAP3 SWAP1 SWAP3 SHL PUSH8 0xFFFFFFFFFFFFFFFF PUSH1 0xA0 SHL AND SWAP2 SWAP1 SWAP2 OR SWAP1 SSTORE JUMP JUMPDEST PUSH2 0x542A PUSH2 0x5409 PUSH1 0x40 DUP5 ADD PUSH2 0x5163 JUMP JUMPDEST PUSH1 0x1 DUP4 ADD PUSH1 0x1 PUSH1 0x1 PUSH1 0x40 SHL SUB DUP3 AND PUSH1 0x1 PUSH1 0x1 PUSH1 0x40 SHL SUB NOT DUP3 SLOAD AND OR DUP2 SSTORE POP POP JUMP JUMPDEST PUSH1 0x60 DUP3 ADD CALLDATALOAD PUSH1 0x2 DUP3 ADD SSTORE PUSH2 0x5441 PUSH1 0x80 DUP4 ADD DUP4 PUSH2 0x5099 JUMP JUMPDEST PUSH2 0x544F DUP2 DUP4 PUSH1 0x3 DUP7 ADD PUSH2 0x51BD JUMP JUMPDEST POP POP PUSH2 0x545E PUSH1 0xA0 DUP4 ADD DUP4 PUSH2 0x5099 JUMP JUMPDEST PUSH2 0x546C DUP2 DUP4 PUSH1 0x4 DUP7 ADD PUSH2 0x522A JUMP JUMPDEST POP POP PUSH2 0x547E PUSH1 0xC0 DUP4 ADD PUSH1 0x5 DUP4 ADD PUSH2 0x52B6 JUMP JUMPDEST PUSH1 0x9 DUP2 ADD PUSH2 0x54B0 PUSH2 0x5492 PUSH2 0x180 DUP6 ADD PUSH2 0x5163 JUMP JUMPDEST DUP3 SLOAD PUSH8 0xFFFFFFFFFFFFFFFF NOT AND PUSH1 0x1 PUSH1 0x1 PUSH1 0x40 SHL SUB SWAP2 SWAP1 SWAP2 AND OR DUP3 SSTORE JUMP JUMPDEST PUSH2 0x54C6 PUSH2 0x54C0 PUSH2 0x1A0 DUP6 ADD PUSH2 0x5354 JUMP JUMPDEST DUP3 PUSH2 0x5361 JUMP JUMPDEST PUSH2 0x3FAA PUSH2 0x54D6 PUSH2 0x1C0 DUP6 ADD PUSH2 0x5354 JUMP JUMPDEST DUP3 PUSH2 0x5387 JUMP JUMPDEST PUSH1 0x0 DUP1 DUP4 CALLDATALOAD PUSH1 0x1E NOT DUP5 CALLDATASIZE SUB ADD DUP2 SLT PUSH2 0x54F3 JUMPI PUSH1 0x0 DUP1 REVERT JUMPDEST DUP4 ADD PUSH1 0x20 DUP2 ADD SWAP3 POP CALLDATALOAD SWAP1 POP PUSH1 0x1 PUSH1 0x1 PUSH1 0x40 SHL SUB DUP2 GT ISZERO PUSH2 0x5512 JUMPI PUSH1 0x0 DUP1 REVERT JUMPDEST DUP1 PUSH1 0x5 SHL CALLDATASIZE SUB DUP3 SGT ISZERO PUSH2 0x48C3 JUMPI PUSH1 0x0 DUP1 REVERT JUMPDEST DUP2 DUP4 MSTORE PUSH1 0x0 PUSH1 0x1 PUSH1 0x1 PUSH1 0xFB SHL SUB DUP4 GT ISZERO PUSH2 0x553D JUMPI PUSH1 0x0 DUP1 REVERT JUMPDEST DUP3 PUSH1 0x5 SHL DUP1 DUP4 PUSH1 0x20 DUP8 ADD CALLDATACOPY SWAP4 SWAP1 SWAP4 ADD PUSH1 0x20 ADD SWAP4 SWAP3 POP POP POP JUMP JUMPDEST DUP2 DUP4 MSTORE PUSH1 0x0 PUSH1 0x20 DUP1 DUP6 ADD SWAP5 POP DUP3 PUSH1 0x0 JUMPDEST DUP6 DUP2 LT ISZERO PUSH2 0x45AD JUMPI DUP2 CALLDATALOAD PUSH2 0x5579 DUP2 PUSH2 0x4425 JUMP JUMPDEST PUSH1 0x1 PUSH1 0x1 PUSH1 0xA0 SHL SUB AND DUP8 MSTORE SWAP6 DUP3 ADD SWAP6 SWAP1 DUP3 ADD SWAP1 PUSH1 0x1 ADD PUSH2 0x5566 JUMP JUMPDEST DUP1 CALLDATALOAD PUSH2 0x559F DUP2 PUSH2 0x4425 JUMP JUMPDEST PUSH1 0x1 PUSH1 0x1 PUSH1 0xA0 SHL SUB SWAP1 DUP2 AND DUP4 MSTORE PUSH1 0x20 DUP3 ADD CALLDATALOAD SWAP1 PUSH2 0x55BB DUP3 PUSH2 0x4425 JUMP JUMPDEST SWAP1 DUP2 AND PUSH1 0x20 DUP5 ADD MSTORE PUSH1 0x40 DUP3 ADD CALLDATALOAD SWAP1 PUSH2 0x55D2 DUP3 PUSH2 0x4425 JUMP JUMPDEST SWAP1 DUP2 AND PUSH1 0x40 DUP5 ADD MSTORE PUSH1 0x60 DUP3 ADD CALLDATALOAD SWAP1 PUSH2 0x55E9 DUP3 PUSH2 0x4920 JUMP JUMPDEST PUSH2 0xFFFF SWAP2 DUP3 AND PUSH1 0x60 DUP6 ADD MSTORE PUSH1 0x80 DUP4 ADD CALLDATALOAD SWAP2 PUSH2 0x5603 DUP4 PUSH2 0x4425 JUMP JUMPDEST SWAP2 DUP2 AND PUSH1 0x80 DUP6 ADD MSTORE PUSH1 0xA0 DUP4 ADD CALLDATALOAD SWAP2 PUSH2 0x561A DUP4 PUSH2 0x4920 JUMP JUMPDEST DUP1 DUP4 AND PUSH1 0xA0 DUP7 ADD MSTORE POP POP POP POP POP JUMP JUMPDEST PUSH1 0x20 DUP2 MSTORE PUSH2 0x564A PUSH1 0x20 DUP3 ADD PUSH2 0x563D DUP5 PUSH2 0x443A JUMP JUMPDEST PUSH1 0x1 PUSH1 0x1 PUSH1 0xA0 SHL SUB AND SWAP1 MSTORE JUMP JUMPDEST PUSH1 0x0 PUSH2 0x5658 PUSH1 0x20 DUP5 ADD PUSH2 0x43F8 JUMP JUMPDEST PUSH1 0x1 PUSH1 0x1 PUSH1 0x40 SHL SUB DUP2 AND PUSH1 0x40 DUP5 ADD MSTORE POP PUSH2 0x5674 PUSH1 0x40 DUP5 ADD PUSH2 0x43F8 JUMP JUMPDEST PUSH1 0x1 PUSH1 0x1 PUSH1 0x40 SHL SUB DUP2 AND PUSH1 0x60 DUP5 ADD MSTORE POP PUSH1 0x60 DUP4 ADD CALLDATALOAD PUSH1 0x80 DUP4 ADD MSTORE PUSH2 0x569B PUSH1 0x80 DUP5 ADD DUP5 PUSH2 0x54DC JUMP JUMPDEST PUSH2 0x1E0 DUP1 PUSH1 0xA0 DUP7 ADD MSTORE PUSH2 0x56B3 PUSH2 0x200 DUP7 ADD DUP4 DUP6 PUSH2 0x5524 JUMP JUMPDEST SWAP3 POP PUSH2 0x56C2 PUSH1 0xA0 DUP8 ADD DUP8 PUSH2 0x54DC JUMP JUMPDEST DUP7 DUP6 SUB PUSH1 0x1F NOT ADD PUSH1 0xC0 DUP9 ADD MSTORE SWAP3 POP PUSH2 0x56DB DUP5 DUP5 DUP4 PUSH2 0x5556 JUMP JUMPDEST SWAP4 POP POP PUSH2 0x56EE PUSH1 0xE0 DUP7 ADD PUSH1 0xC0 DUP9 ADD PUSH2 0x5594 JUMP JUMPDEST PUSH2 0x56FB PUSH2 0x180 DUP8 ADD PUSH2 0x43F8 JUMP JUMPDEST SWAP2 POP PUSH2 0x1A0 PUSH2 0x5714 DUP2 DUP8 ADD DUP5 PUSH1 0x1 PUSH1 0x1 PUSH1 0x40 SHL SUB AND SWAP1 MSTORE JUMP JUMPDEST PUSH2 0x571F DUP2 DUP9 ADD PUSH2 0x49C0 JUMP JUMPDEST SWAP3 POP POP PUSH2 0x1C0 PUSH2 0x5731 DUP2 DUP8 ADD DUP5 PUSH2 0x470F JUMP JUMPDEST PUSH2 0x573C DUP2 DUP9 ADD PUSH2 0x49C0 JUMP JUMPDEST SWAP3 POP POP PUSH2 0x574B DUP2 DUP7 ADD DUP4 PUSH2 0x470F JUMP JUMPDEST POP SWAP1 SWAP5 SWAP4 POP POP POP POP JUMP JUMPDEST PUSH1 0x20 DUP1 DUP3 MSTORE PUSH1 0x4F SWAP1 DUP3 ADD MSTORE PUSH32 0x54686973206973206E6F7420612076616C696420746F6B656E49642E20506C65 PUSH1 0x40 DUP3 ADD MSTORE PUSH32 0x6173652076657269667920746861742074686520746F6B656E49642070726F76 PUSH1 0x60 DUP3 ADD MSTORE PUSH15 0x1A591959081A5CC818DBDC9C9958DD PUSH1 0x8A SHL PUSH1 0x80 DUP3 ADD MSTORE PUSH1 0xA0 ADD SWAP1 JUMP JUMPDEST PUSH1 0x0 PUSH1 0x20 DUP3 DUP5 SUB SLT ISZERO PUSH2 0x57DC JUMPI PUSH1 0x0 DUP1 REVERT JUMPDEST POP MLOAD SWAP2 SWAP1 POP JUMP JUMPDEST PUSH1 0x0 PUSH1 0x20 DUP3 DUP5 SUB SLT ISZERO PUSH2 0x57F5 JUMPI PUSH1 0x0 DUP1 REVERT JUMPDEST DUP2 MLOAD PUSH2 0x2369 DUP2 PUSH2 0x4425 JUMP JUMPDEST PUSH1 0x0 PUSH1 0x20 DUP3 DUP5 SUB SLT ISZERO PUSH2 0x5812 JUMPI PUSH1 0x0 DUP1 REVERT JUMPDEST DUP2 MLOAD PUSH1 0x1 PUSH1 0x1 PUSH1 0x40 SHL SUB DUP2 GT ISZERO PUSH2 0x5828 JUMPI PUSH1 0x0 DUP1 REVERT JUMPDEST PUSH2 0x4193 DUP5 DUP3 DUP6 ADD PUSH2 0x4D07 JUMP JUMPDEST PUSH1 0x60 DUP2 MSTORE PUSH1 0x0 PUSH2 0x5847 PUSH1 0x60 DUP4 ADD DUP7 PUSH2 0x4574 JUMP JUMPDEST PUSH1 0x20 DUP4 DUP3 SUB DUP2 DUP6 ADD MSTORE PUSH2 0x585A DUP3 DUP8 PUSH2 0x45F7 JUMP JUMPDEST SWAP2 POP DUP4 DUP3 SUB PUSH1 0x40 DUP6 ADD MSTORE DUP2 DUP6 MLOAD DUP1 DUP5 MSTORE DUP3 DUP5 ADD SWAP2 POP DUP3 DUP2 PUSH1 0x5 SHL DUP6 ADD ADD DUP4 DUP9 ADD PUSH1 0x0 JUMPDEST DUP4 DUP2 LT ISZERO PUSH2 0x58AB JUMPI PUSH1 0x1F NOT DUP8 DUP5 SUB ADD DUP6 MSTORE PUSH2 0x5899 DUP4 DUP4 MLOAD PUSH2 0x4C12 JUMP JUMPDEST SWAP5 DUP7 ADD SWAP5 SWAP3 POP SWAP1 DUP6 ADD SWAP1 PUSH1 0x1 ADD PUSH2 0x587D JUMP JUMPDEST POP SWAP1 SWAP11 SWAP10 POP POP POP POP POP POP POP POP POP POP JUMP JUMPDEST PUSH1 0x60 DUP2 MSTORE PUSH1 0x0 PUSH2 0x58CE PUSH1 0x60 DUP4 ADD DUP7 PUSH2 0x4574 JUMP JUMPDEST DUP3 DUP2 SUB PUSH1 0x20 DUP5 ADD MSTORE PUSH2 0x58E0 DUP2 DUP7 PUSH2 0x45F7 JUMP JUMPDEST SWAP1 POP DUP3 DUP2 SUB PUSH1 0x40 DUP5 ADD MSTORE PUSH2 0x467D DUP2 DUP6 PUSH2 0x45F7 JUMP JUMPDEST PUSH1 0x0 DUP3 PUSH2 0x5911 JUMPI PUSH4 0x4E487B71 PUSH1 0xE0 SHL PUSH1 0x0 MSTORE PUSH1 0x12 PUSH1 0x4 MSTORE PUSH1 0x24 PUSH1 0x0 REVERT JUMPDEST POP DIV SWAP1 JUMP JUMPDEST PUSH4 0x4E487B71 PUSH1 0xE0 SHL PUSH1 0x0 MSTORE PUSH1 0x31 PUSH1 0x4 MSTORE PUSH1 0x24 PUSH1 0x0 REVERT INVALID SLOAD PUSH9 0x65206D6178696D756D KECCAK256 PUSH18 0x75616E7469747920616C6C6F77656420746F KECCAK256 LOG2 PUSH5 0x6970667358 0x22 SLT KECCAK256 PUSH12 0x6A7D0860D415890272D7827 0x29 EXP 0xB6 CALLER PUSH16 0xB1E35CABE9FB043BA56794FF1A5B6473 PUSH16 0x6C634300081100330000000000000000 "
		},
		"gasEstimates": {
			"creation": {
				"codeDepositCost": "4582800",
				"executionCost": "infinite",
				"totalCost": "infinite"
			},
			"external": {
				"": "229",
				"approveAdmin(address)": "infinite",
				"buy((string,address,uint256,uint64,address,uint64,address,uint256),uint256)": "infinite",
				"cancelSale(string)": "infinite",
				"createSale((address,uint64,uint64,uint256,uint256[],address[],(address,address,address,uint16,address,uint16),uint64,uint8,uint8),string)": "infinite",
				"getAdmins()": "infinite",
				"getContractData()": "6747",
				"getListingPrice(string)": "infinite",
				"getRoyaltyInfo(address,uint256)": "infinite",
				"isAdmin(address)": "infinite",
				"listings(string)": "infinite",
				"owner()": "2391",
				"renounceOwnership()": "30318",
				"revokeAdmin(address)": "infinite",
				"supportsInterface(bytes4)": "450",
				"transferOwnership(address)": "30549",
				"updatePayment(string,uint8,uint256,uint256[],address[])": "infinite",
				"updatePlatformAddress(address)": "infinite",
				"updatePlatformFeePercentage(uint16)": "infinite",
				"updatePricefeedContract(address)": "infinite",
				"updateRoyaltyContract(address)": "infinite",
				"updatemax1155Quantity(uint64)": "infinite",
				"updatepaymentSettlementAddress(string,address)": "infinite",
				"updatetaxSettlementAddress(string,address)": "infinite",
				"withdraw()": "infinite"
			},
			"internal": {
				"_handlePayment(address,address payable,address,uint256)": "infinite",
				"_handleRoyaltyEnginePayout(address,address,uint256,uint256,address)": "infinite",
				"_tokenTransaction(string memory,address,address,address,uint256,uint256,uint256,enum OnchainBuy.TransactionStatus)": "infinite",
				"errorHandling(string memory,uint256,uint256,uint256,address,uint256,address)": "infinite",
				"paymentTransaction(string memory,uint256,uint256,address,uint256,uint256[] memory,address,enum OnchainBuy.TransactionStatus)": "infinite",
				"royaltyPayout(address,uint256,uint256[] memory,address,uint256,address,enum OnchainBuy.TransactionStatus)": "infinite"
			}
		},
		"methodIdentifiers": {
			"approveAdmin(address)": "6d73e669",
			"buy((string,address,uint256,uint64,address,uint64,address,uint256),uint256)": "acecf9de",
			"cancelSale(string)": "2977f78a",
			"createSale((address,uint64,uint64,uint256,uint256[],address[],(address,address,address,uint16,address,uint16),uint64,uint8,uint8),string)": "fd114f08",
			"getAdmins()": "31ae450b",
			"getContractData()": "a68b91ab",
			"getListingPrice(string)": "df354bdd",
			"getRoyaltyInfo(address,uint256)": "773fe986",
			"isAdmin(address)": "24d7806c",
			"listings(string)": "77dec6c3",
			"owner()": "8da5cb5b",
			"renounceOwnership()": "715018a6",
			"revokeAdmin(address)": "2d345670",
			"supportsInterface(bytes4)": "01ffc9a7",
			"transferOwnership(address)": "f2fde38b",
			"updatePayment(string,uint8,uint256,uint256[],address[])": "dfa12f79",
			"updatePlatformAddress(address)": "8f9f193f",
			"updatePlatformFeePercentage(uint16)": "cbc9a941",
			"updatePricefeedContract(address)": "705e3f6c",
			"updateRoyaltyContract(address)": "4b9804b2",
			"updatemax1155Quantity(uint64)": "19e4367c",
			"updatepaymentSettlementAddress(string,address)": "e8ac841f",
			"updatetaxSettlementAddress(string,address)": "bf9afc18",
			"withdraw()": "3ccfd60b"
		}
	},
	"abi": [
		{
			"inputs": [
				{
					"internalType": "address",
					"name": "_platformAddress",
					"type": "address"
				},
				{
					"internalType": "uint16",
					"name": "_platformFeePercentage",
					"type": "uint16"
				},
				{
					"internalType": "uint64",
					"name": "_max1155Quantity",
					"type": "uint64"
				},
				{
					"internalType": "contract IPriceFeed",
					"name": "_priceFeedAddress",
					"type": "address"
				},
				{
					"internalType": "contract IRoyaltyEngine",
					"name": "_royaltycontract",
					"type": "address"
				}
			],
			"stateMutability": "nonpayable",
			"type": "constructor"
		},
		{
			"anonymous": false,
			"inputs": [
				{
					"indexed": true,
					"internalType": "address",
					"name": "account",
					"type": "address"
				},
				{
					"indexed": true,
					"internalType": "address",
					"name": "sender",
					"type": "address"
				}
			],
			"name": "AdminApproved",
			"type": "event"
		},
		{
			"anonymous": false,
			"inputs": [
				{
					"indexed": true,
					"internalType": "address",
					"name": "account",
					"type": "address"
				},
				{
					"indexed": true,
					"internalType": "address",
					"name": "sender",
					"type": "address"
				}
			],
			"name": "AdminRevoked",
			"type": "event"
		},
		{
			"anonymous": false,
			"inputs": [
				{
					"indexed": true,
					"internalType": "address",
					"name": "tokenContract",
					"type": "address"
				},
				{
					"components": [
						{
							"internalType": "string",
							"name": "saleId",
							"type": "string"
						},
						{
							"internalType": "address",
							"name": "tokenOwner",
							"type": "address"
						},
						{
							"internalType": "uint256",
							"name": "tokenId",
							"type": "uint256"
						},
						{
							"internalType": "uint64",
							"name": "tokenQuantity",
							"type": "uint64"
						},
						{
							"internalType": "address",
							"name": "buyer",
							"type": "address"
						},
						{
							"internalType": "uint64",
							"name": "quantity",
							"type": "uint64"
						},
						{
							"internalType": "address",
							"name": "paymentToken",
							"type": "address"
						},
						{
							"internalType": "uint256",
							"name": "paymentAmount",
							"type": "uint256"
						}
					],
					"indexed": false,
					"internalType": "struct OnchainBuy.BuyList",
					"name": "buyingDetails",
					"type": "tuple"
				},
				{
					"indexed": false,
					"internalType": "uint256[]",
					"name": "MintedtokenId",
					"type": "uint256[]"
				},
				{
					"components": [
						{
							"internalType": "address payable",
							"name": "paymentSettlementAddress",
							"type": "address"
						},
						{
							"internalType": "address payable",
							"name": "taxSettlementAddress",
							"type": "address"
						},
						{
							"internalType": "address payable",
							"name": "platformSettlementAddress",
							"type": "address"
						},
						{
							"internalType": "uint16",
							"name": "platformFeePercentage",
							"type": "uint16"
						},
						{
							"internalType": "address payable",
							"name": "commissionAddress",
							"type": "address"
						},
						{
							"internalType": "uint16",
							"name": "commissionFeePercentage",
							"type": "uint16"
						}
					],
					"indexed": false,
					"internalType": "struct OnchainBuy.settlementList",
					"name": "paymentSettlement",
					"type": "tuple"
				},
				{
					"indexed": false,
					"internalType": "uint256",
					"name": "tax",
					"type": "uint256"
				},
				{
					"indexed": false,
					"internalType": "uint256",
					"name": "paymentAmount",
					"type": "uint256"
				},
				{
					"indexed": false,
					"internalType": "uint256",
					"name": "excessAmount",
					"type": "uint256"
				}
			],
			"name": "BuyExecuted",
			"type": "event"
		},
		{
			"anonymous": false,
			"inputs": [
				{
					"indexed": true,
					"internalType": "address",
					"name": "previousOwner",
					"type": "address"
				},
				{
					"indexed": true,
					"internalType": "address",
					"name": "newOwner",
					"type": "address"
				}
			],
			"name": "OwnershipTransferred",
			"type": "event"
		},
		{
			"anonymous": false,
			"inputs": [
				{
					"indexed": false,
					"internalType": "address",
					"name": "tokenContract",
					"type": "address"
				},
				{
					"indexed": false,
					"internalType": "uint256",
					"name": "tokenId",
					"type": "uint256"
				},
				{
					"indexed": false,
					"internalType": "address",
					"name": "recipient",
					"type": "address"
				},
				{
					"indexed": false,
					"internalType": "uint256",
					"name": "amount",
					"type": "uint256"
				}
			],
			"name": "RoyaltyPayout",
			"type": "event"
		},
		{
			"anonymous": false,
			"inputs": [
				{
					"indexed": false,
					"internalType": "string",
					"name": "saleId",
					"type": "string"
				}
			],
			"name": "saleClosed",
			"type": "event"
		},
		{
			"anonymous": false,
			"inputs": [
				{
					"components": [
						{
							"internalType": "address",
							"name": "nftContractAddress",
							"type": "address"
						},
						{
							"internalType": "uint64",
							"name": "nftStartTokenId",
							"type": "uint64"
						},
						{
							"internalType": "uint64",
							"name": "nftEndTokenId",
							"type": "uint64"
						},
						{
							"internalType": "uint256",
							"name": "minimumFiatPrice",
							"type": "uint256"
						},
						{
							"internalType": "uint256[]",
							"name": "minimumCryptoPrice",
							"type": "uint256[]"
						},
						{
							"internalType": "address[]",
							"name": "paymentCurrency",
							"type": "address[]"
						},
						{
							"components": [
								{
									"internalType": "address payable",
									"name": "paymentSettlementAddress",
									"type": "address"
								},
								{
									"internalType": "address payable",
									"name": "taxSettlementAddress",
									"type": "address"
								},
								{
									"internalType": "address payable",
									"name": "platformSettlementAddress",
									"type": "address"
								},
								{
									"internalType": "uint16",
									"name": "platformFeePercentage",
									"type": "uint16"
								},
								{
									"internalType": "address payable",
									"name": "commissionAddress",
									"type": "address"
								},
								{
									"internalType": "uint16",
									"name": "commissionFeePercentage",
									"type": "uint16"
								}
							],
							"internalType": "struct OnchainBuy.settlementList",
							"name": "paymentSettlement",
							"type": "tuple"
						},
						{
							"internalType": "uint64",
							"name": "maxCap",
							"type": "uint64"
						},
						{
							"internalType": "enum OnchainBuy.TransactionStatus",
							"name": "transactionStatus",
							"type": "uint8"
						},
						{
							"internalType": "enum OnchainBuy.PaymentStatus",
							"name": "paymentStatus",
							"type": "uint8"
						}
					],
					"indexed": false,
					"internalType": "struct OnchainBuy.PriceList",
					"name": "saleList",
					"type": "tuple"
				}
			],
			"name": "saleCreated",
			"type": "event"
		},
		{
			"stateMutability": "payable",
			"type": "fallback"
		},
		{
			"inputs": [
				{
					"internalType": "address",
					"name": "admin",
					"type": "address"
				}
			],
			"name": "approveAdmin",
			"outputs": [],
			"stateMutability": "nonpayable",
			"type": "function"
		},
		{
			"inputs": [
				{
					"components": [
						{
							"internalType": "string",
							"name": "saleId",
							"type": "string"
						},
						{
							"internalType": "address",
							"name": "tokenOwner",
							"type": "address"
						},
						{
							"internalType": "uint256",
							"name": "tokenId",
							"type": "uint256"
						},
						{
							"internalType": "uint64",
							"name": "tokenQuantity",
							"type": "uint64"
						},
						{
							"internalType": "address",
							"name": "buyer",
							"type": "address"
						},
						{
							"internalType": "uint64",
							"name": "quantity",
							"type": "uint64"
						},
						{
							"internalType": "address",
							"name": "paymentToken",
							"type": "address"
						},
						{
							"internalType": "uint256",
							"name": "paymentAmount",
							"type": "uint256"
						}
					],
					"internalType": "struct OnchainBuy.BuyList",
					"name": "list",
					"type": "tuple"
				},
				{
					"internalType": "uint256",
					"name": "tax",
					"type": "uint256"
				}
			],
			"name": "buy",
			"outputs": [
				{
					"internalType": "uint256[]",
					"name": "nftTokenId",
					"type": "uint256[]"
				}
			],
			"stateMutability": "payable",
			"type": "function"
		},
		{
			"inputs": [
				{
					"internalType": "string",
					"name": "saleId",
					"type": "string"
				}
			],
			"name": "cancelSale",
			"outputs": [],
			"stateMutability": "nonpayable",
			"type": "function"
		},
		{
			"inputs": [
				{
					"components": [
						{
							"internalType": "address",
							"name": "nftContractAddress",
							"type": "address"
						},
						{
							"internalType": "uint64",
							"name": "nftStartTokenId",
							"type": "uint64"
						},
						{
							"internalType": "uint64",
							"name": "nftEndTokenId",
							"type": "uint64"
						},
						{
							"internalType": "uint256",
							"name": "minimumFiatPrice",
							"type": "uint256"
						},
						{
							"internalType": "uint256[]",
							"name": "minimumCryptoPrice",
							"type": "uint256[]"
						},
						{
							"internalType": "address[]",
							"name": "paymentCurrency",
							"type": "address[]"
						},
						{
							"components": [
								{
									"internalType": "address payable",
									"name": "paymentSettlementAddress",
									"type": "address"
								},
								{
									"internalType": "address payable",
									"name": "taxSettlementAddress",
									"type": "address"
								},
								{
									"internalType": "address payable",
									"name": "platformSettlementAddress",
									"type": "address"
								},
								{
									"internalType": "uint16",
									"name": "platformFeePercentage",
									"type": "uint16"
								},
								{
									"internalType": "address payable",
									"name": "commissionAddress",
									"type": "address"
								},
								{
									"internalType": "uint16",
									"name": "commissionFeePercentage",
									"type": "uint16"
								}
							],
							"internalType": "struct OnchainBuy.settlementList",
							"name": "paymentSettlement",
							"type": "tuple"
						},
						{
							"internalType": "uint64",
							"name": "maxCap",
							"type": "uint64"
						},
						{
							"internalType": "enum OnchainBuy.TransactionStatus",
							"name": "transactionStatus",
							"type": "uint8"
						},
						{
							"internalType": "enum OnchainBuy.PaymentStatus",
							"name": "paymentStatus",
							"type": "uint8"
						}
					],
					"internalType": "struct OnchainBuy.PriceList",
					"name": "list",
					"type": "tuple"
				},
				{
					"internalType": "string",
					"name": "saleId",
					"type": "string"
				}
			],
			"name": "createSale",
			"outputs": [],
			"stateMutability": "nonpayable",
			"type": "function"
		},
		{
			"inputs": [],
			"name": "getAdmins",
			"outputs": [
				{
					"internalType": "address[]",
					"name": "admins",
					"type": "address[]"
				}
			],
			"stateMutability": "view",
			"type": "function"
		},
		{
			"inputs": [],
			"name": "getContractData",
			"outputs": [
				{
					"internalType": "address",
					"name": "_platformAddress",
					"type": "address"
				},
				{
					"internalType": "uint16",
					"name": "_platformFeePercentage",
					"type": "uint16"
				},
				{
					"internalType": "contract IPriceFeed",
					"name": "_priceFeedAddress",
					"type": "address"
				},
				{
					"internalType": "contract IRoyaltyEngine",
					"name": "_royaltySupport",
					"type": "address"
				},
				{
					"internalType": "uint64",
					"name": "_max1155Quantity",
					"type": "uint64"
				}
			],
			"stateMutability": "view",
			"type": "function"
		},
		{
			"inputs": [
				{
					"internalType": "string",
					"name": "saleId",
					"type": "string"
				}
			],
			"name": "getListingPrice",
			"outputs": [
				{
					"internalType": "uint256[]",
					"name": "minimumCryptoPrice",
					"type": "uint256[]"
				},
				{
					"internalType": "address[]",
					"name": "paymentCurrency",
					"type": "address[]"
				}
			],
			"stateMutability": "view",
			"type": "function"
		},
		{
			"inputs": [
				{
					"internalType": "address",
					"name": "collectionAddress",
					"type": "address"
				},
				{
					"internalType": "uint256",
					"name": "tokenId",
					"type": "uint256"
				}
			],
			"name": "getRoyaltyInfo",
			"outputs": [
				{
					"internalType": "address payable[]",
					"name": "recipients",
					"type": "address[]"
				},
				{
					"internalType": "uint256[]",
					"name": "bps",
					"type": "uint256[]"
				}
			],
			"stateMutability": "view",
			"type": "function"
		},
		{
			"inputs": [
				{
					"internalType": "address",
					"name": "admin",
					"type": "address"
				}
			],
			"name": "isAdmin",
			"outputs": [
				{
					"internalType": "bool",
					"name": "",
					"type": "bool"
				}
			],
			"stateMutability": "view",
			"type": "function"
		},
		{
			"inputs": [
				{
					"internalType": "string",
					"name": "",
					"type": "string"
				}
			],
			"name": "listings",
			"outputs": [
				{
					"internalType": "address",
					"name": "nftContractAddress",
					"type": "address"
				},
				{
					"internalType": "uint64",
					"name": "nftStartTokenId",
					"type": "uint64"
				},
				{
					"internalType": "uint64",
					"name": "nftEndTokenId",
					"type": "uint64"
				},
				{
					"internalType": "uint256",
					"name": "minimumFiatPrice",
					"type": "uint256"
				},
				{
					"components": [
						{
							"internalType": "address payable",
							"name": "paymentSettlementAddress",
							"type": "address"
						},
						{
							"internalType": "address payable",
							"name": "taxSettlementAddress",
							"type": "address"
						},
						{
							"internalType": "address payable",
							"name": "platformSettlementAddress",
							"type": "address"
						},
						{
							"internalType": "uint16",
							"name": "platformFeePercentage",
							"type": "uint16"
						},
						{
							"internalType": "address payable",
							"name": "commissionAddress",
							"type": "address"
						},
						{
							"internalType": "uint16",
							"name": "commissionFeePercentage",
							"type": "uint16"
						}
					],
					"internalType": "struct OnchainBuy.settlementList",
					"name": "paymentSettlement",
					"type": "tuple"
				},
				{
					"internalType": "uint64",
					"name": "maxCap",
					"type": "uint64"
				},
				{
					"internalType": "enum OnchainBuy.TransactionStatus",
					"name": "transactionStatus",
					"type": "uint8"
				},
				{
					"internalType": "enum OnchainBuy.PaymentStatus",
					"name": "paymentStatus",
					"type": "uint8"
				}
			],
			"stateMutability": "view",
			"type": "function"
		},
		{
			"inputs": [],
			"name": "owner",
			"outputs": [
				{
					"internalType": "address",
					"name": "",
					"type": "address"
				}
			],
			"stateMutability": "view",
			"type": "function"
		},
		{
			"inputs": [],
			"name": "renounceOwnership",
			"outputs": [],
			"stateMutability": "nonpayable",
			"type": "function"
		},
		{
			"inputs": [
				{
					"internalType": "address",
					"name": "admin",
					"type": "address"
				}
			],
			"name": "revokeAdmin",
			"outputs": [],
			"stateMutability": "nonpayable",
			"type": "function"
		},
		{
			"inputs": [
				{
					"internalType": "bytes4",
					"name": "interfaceId",
					"type": "bytes4"
				}
			],
			"name": "supportsInterface",
			"outputs": [
				{
					"internalType": "bool",
					"name": "",
					"type": "bool"
				}
			],
			"stateMutability": "view",
			"type": "function"
		},
		{
			"inputs": [
				{
					"internalType": "address",
					"name": "newOwner",
					"type": "address"
				}
			],
			"name": "transferOwnership",
			"outputs": [],
			"stateMutability": "nonpayable",
			"type": "function"
		},
		{
			"inputs": [
				{
					"internalType": "string",
					"name": "saleId",
					"type": "string"
				},
				{
					"internalType": "enum OnchainBuy.PaymentStatus",
					"name": "paymentStatus",
					"type": "uint8"
				},
				{
					"internalType": "uint256",
					"name": "minimumFiatPrice",
					"type": "uint256"
				},
				{
					"internalType": "uint256[]",
					"name": "minimumCryptoPrice",
					"type": "uint256[]"
				},
				{
					"internalType": "address[]",
					"name": "paymentCurrency",
					"type": "address[]"
				}
			],
			"name": "updatePayment",
			"outputs": [],
			"stateMutability": "nonpayable",
			"type": "function"
		},
		{
			"inputs": [
				{
					"internalType": "address",
					"name": "_platformAddress",
					"type": "address"
				}
			],
			"name": "updatePlatformAddress",
			"outputs": [],
			"stateMutability": "nonpayable",
			"type": "function"
		},
		{
			"inputs": [
				{
					"internalType": "uint16",
					"name": "_platformFeePercentage",
					"type": "uint16"
				}
			],
			"name": "updatePlatformFeePercentage",
			"outputs": [],
			"stateMutability": "nonpayable",
			"type": "function"
		},
		{
			"inputs": [
				{
					"internalType": "address",
					"name": "pricefeed",
					"type": "address"
				}
			],
			"name": "updatePricefeedContract",
			"outputs": [],
			"stateMutability": "nonpayable",
			"type": "function"
		},
		{
			"inputs": [
				{
					"internalType": "address",
					"name": "royaltyContract",
					"type": "address"
				}
			],
			"name": "updateRoyaltyContract",
			"outputs": [],
			"stateMutability": "nonpayable",
			"type": "function"
		},
		{
			"inputs": [
				{
					"internalType": "uint64",
					"name": "_max1155Quantity",
					"type": "uint64"
				}
			],
			"name": "updatemax1155Quantity",
			"outputs": [],
			"stateMutability": "nonpayable",
			"type": "function"
		},
		{
			"inputs": [
				{
					"internalType": "string",
					"name": "saleId",
					"type": "string"
				},
				{
					"internalType": "address payable",
					"name": "_paymentSettlementAddress",
					"type": "address"
				}
			],
			"name": "updatepaymentSettlementAddress",
			"outputs": [],
			"stateMutability": "nonpayable",
			"type": "function"
		},
		{
			"inputs": [
				{
					"internalType": "string",
					"name": "saleId",
					"type": "string"
				},
				{
					"internalType": "address payable",
					"name": "_taxSettlementAddress",
					"type": "address"
				}
			],
			"name": "updatetaxSettlementAddress",
			"outputs": [],
			"stateMutability": "nonpayable",
			"type": "function"
		},
		{
			"inputs": [],
			"name": "withdraw",
			"outputs": [],
			"stateMutability": "nonpayable",
			"type": "function"
		},
		{
			"stateMutability": "payable",
			"type": "receive"
		}
	]
}