{
	"data": {
		"bytecode": {
			"linkReferences": {},
			"object": "60806040523480156200001157600080fd5b50604051620043a2380380620043a2833981016040819052620000349162000173565b6001600081815581546001600160a01b031916339081179092556040518291907f8be0079c531659141344cd1fd0a4f28419497f9722a3daafe3b4186f6b6457e0908290a3506001600160a01b038216620000d65760405162461bcd60e51b815260206004820152601860248201527f496e76616c696420506c6174666f726d2041646472657373000000000000000060448201526064015b60405180910390fd5b6127108161ffff16106200013f5760405162461bcd60e51b815260206004820152602960248201527f706c6174666f726d4665652073686f756c64206e6f74206265206d6f7265207460448201526868616e20313030202560b81b6064820152608401620000cd565b6004805461ffff909216600160a01b026001600160b01b03199092166001600160a01b0390931692909217179055620001c3565b600080604083850312156200018757600080fd5b82516001600160a01b03811681146200019f57600080fd5b602084015190925061ffff81168114620001b857600080fd5b809150509250929050565b6141cf80620001d36000396000f3fe6080604052600436106101065760003560e01c8063014010ed1461010f57806301ffc9a7146101225780630a28e844146101575780630dcde0e01461017757806324d7806c146101975780632c96cf1d146101b75780632d345670146101d757806331ae450b146101f75780633ccfd60b146102195780635e144cd31461022e5780636d73e6691461024e578063715018a61461026e57806377dec6c3146102835780638da5cb5b146103715780638f9f193f14610393578063b60e7a3b146103b3578063c164d2d7146103d3578063c44b44d3146103e6578063cbc9a94114610406578063da20872a14610426578063f2fde38b14610446578063f6c9b9ad1461046657005b3661010d57005b005b61010d61011d366004613464565b610486565b34801561012e57600080fd5b5061014261013d366004613530565b610ac3565b60405190151581526020015b60405180910390f35b34801561016357600080fd5b5061010d610172366004613573565b610afa565b34801561018357600080fd5b5061010d6101923660046135c6565b610c3c565b3480156101a357600080fd5b506101426101b2366004613631565b610d5f565b3480156101c357600080fd5b5061010d6101d2366004613573565b610d8e565b3480156101e357600080fd5b5061010d6101f2366004613631565b610ec7565b34801561020357600080fd5b5061020c610f4c565b60405161014e919061364e565b34801561022557600080fd5b5061010d610ffa565b34801561023a57600080fd5b5061010d61024936600461369b565b6110e2565b34801561025a57600080fd5b5061010d610269366004613631565b611237565b34801561027a57600080fd5b5061010d6112b6565b34801561028f57600080fd5b5061035c61029e366004613760565b8051808201602090810180516006808352938301948301949094209390528254600184015460028501546003860154600487015460058801549688015460078901546040805160c08101825260088c01546001600160a01b03908116825260098d015481169a82019a909a52600a8c0154808b169282019290925261ffff600160a01b9283900481166060830152600b909c0154808b16608083015291909104909a1660a08b01529587169894979396928316959194939092169289565b60405161014e999897969594939291906137e8565b34801561037d57600080fd5b5061038661132f565b60405161014e9190613848565b34801561039f57600080fd5b5061010d6103ae366004613631565b61133e565b3480156103bf57600080fd5b5061010d6103ce366004613760565b6113f1565b61010d6103e136600461385c565b61154a565b3480156103f257600080fd5b5061010d61040136600461369b565b611be4565b34801561041257600080fd5b5061010d6104213660046138c5565b611d39565b34801561043257600080fd5b50600554610386906001600160a01b031681565b34801561045257600080fd5b5061010d610461366004613631565b611e02565b34801561047257600080fd5b5061010d6104813660046138e2565b611ef2565b6002600054036104b15760405162461bcd60e51b81526004016104a890613966565b60405180910390fd5b600260009081556040516006906104cb908790879061399d565b9081526040805191829003602090810183206101208401835280546001600160a01b0390811685526001820154858401526002820154858501526003820154811660608087019190915260048301546080808801919091526005840154831660a080890191909152600685015460c0808a0191909152600786015460e08a0152875190810188526008860154851681526009860154851681880152600a860154808616828a015261ffff600160a01b91829004811695830195909552600b909601549485169281019290925293909204169181019190915261010084015290519192506000916105d09133910160609190911b6001600160601b031916815260140190565b6040516020818303038152906040528051906020012090506000801b8260c001511461065d57610605838360c0015183612890565b61065d5760405162461bcd60e51b8152602060048201526024808201527f6269646465722073686f756c6420626520612077686974656c697374656420426044820152633abcb2b960e11b60648201526084016104a8565b60e0820151156106d157610676838360e0015183612890565b156106d15760405162461bcd60e51b815260206004820152602560248201527f796f7520617265206265656e20626c61636b6c69737465642066726f6d2062696044820152646464696e6760d81b60648201526084016104a8565b600886866040516106e392919061399d565b9081526040519081900360200190205460ff166107125760405162461bcd60e51b81526004016104a8906139ad565b60006007878760405161072692919061399d565b9081526040805160209281900383018120608082018352805463ffffffff8082168452600160201b90910416938201939093528151808301808452919392840191600184019060029082845b81546001600160a01b03168152600190910190602001808311610772575050509183525050604080518082019182905260209092019190600384019060029082845b8154815260200190600101908083116107b457505050505081525050905042816000015163ffffffff16111561082a5760405162461bcd60e51b815260206004820152601b60248201527a1d1a1948185d58dd1a5bdb881a185cc81b9bdd081cdd185c9d1959602a1b60448201526064016104a8565b82608001518510158015610845575060608101516020015185115b1561097a5760a08301516001600160a01b03161561091f5760a08301516040516370a0823160e01b815286916001600160a01b0316906370a082319061088f903390600401613848565b602060405180830381865afa1580156108ac573d6000803e3d6000fd5b505050506040513d601f19601f820116820180604052508101906108d091906139ed565b101561091a5760405162461bcd60e51b81526020600482015260196024820152781a5b9cdd59999a58da595b9d08115c98cc8c08185b5bdd5b9d603a1b60448201526064016104a8565b6109d6565b60a08301516001600160a01b031661091a578434101561091a5760405162461bcd60e51b81526020600482015260166024820152751a5b9cdd59999a58d95b9d08115d1a08185b5bdd5b9d60521b60448201526064016104a8565b60405162461bcd60e51b815260206004820152602b60248201527f70726f766964652062696420616d6f756e7420686967686572207468616e207060448201526a1c995d9a5bdd5cc8189a5960aa1b60648201526084016104a8565b60608101515115610a065760408101515160a08401516060830151610a06923092909160005b60200201516128a8565b60408101516020808201516001600160a01b031690915260608201518082015190528101514263ffffffff9091161115610a6a576040810180513360209182015260608301805182018890529151015160a08501519151610a6a92309160016109fc565b84336001600160a01b03168888604051610a8592919061399d565b604051908190038120907f1e0ab2a3d99525c0ac6ad4af8309c0c64e02621f17b6333695c6ee19235fedac90600090a4505060016000555050505050565b60006001600160e01b03198216632a9f3abf60e11b1480610af457506301ffc9a760e01b6001600160e01b03198316145b92915050565b33610b0361132f565b6001600160a01b03161480610b1e5750610b1e600233612989565b610b3a5760405162461bcd60e51b81526004016104a890613a06565b60088383604051610b4c92919061399d565b9081526040519081900360200190205460ff16610b7b5760405162461bcd60e51b81526004016104a8906139ad565b4260078484604051610b8e92919061399d565b9081526040519081900360200190205463ffffffff16101580610bd6575060078383604051610bbe92919061399d565b90815260405190819003602001902060030160010154155b610bf25760405162461bcd60e51b81526004016104a890613a4a565b8060078484604051610c0592919061399d565b908152604051908190036020019020805463ffffffff92909216600160201b0263ffffffff60201b19909216919091179055505050565b33610c4561132f565b6001600160a01b03161480610c605750610c60600233612989565b610c7c5760405162461bcd60e51b81526004016104a890613a06565b60088383604051610c8e92919061399d565b9081526040519081900360200190205460ff16610cbd5760405162461bcd60e51b81526004016104a8906139ad565b4260078484604051610cd092919061399d565b9081526040519081900360200190205463ffffffff16101580610d18575060078383604051610d0092919061399d565b90815260405190819003602001902060030160010154155b610d345760405162461bcd60e51b81526004016104a890613a4a565b8060068484604051610d4792919061399d565b90815260405190819003602001902060040155505050565b6000816001600160a01b0316610d7361132f565b6001600160a01b03161480610af45750610af4600283612989565b33610d9761132f565b6001600160a01b03161480610db25750610db2600233612989565b610dce5760405162461bcd60e51b81526004016104a890613a06565b60088383604051610de092919061399d565b9081526040519081900360200190205460ff16610e0f5760405162461bcd60e51b81526004016104a8906139ad565b4260078484604051610e2292919061399d565b9081526040519081900360200190205463ffffffff16101580610e6a575060078383604051610e5292919061399d565b90815260405190819003602001902060030160010154155b610e865760405162461bcd60e51b81526004016104a890613a4a565b8060078484604051610e9992919061399d565b908152604051908190036020019020805463ffffffff9290921663ffffffff19909216919091179055505050565b33610ed061132f565b6001600160a01b031614610ef65760405162461bcd60e51b81526004016104a890613a8d565b610f01600282612989565b15610f495760405133906001600160a01b038316907f7c0c3c84c67c85fcac635147348bfe374c24a1a93d0366d1cfe9d8853cbf89d590600090a3610f476002826129aa565b505b50565b6060610f5860026129bf565b6001600160401b03811115610f6f57610f6f6133fb565b604051908082528060200260200182016040528015610f98578160200160208202803683370190505b50905060005b610fa860026129bf565b811015610ff657610fba6002826129c9565b828281518110610fcc57610fcc6139d7565b6001600160a01b039092166020928302919091019091015280610fee81613ad8565b915050610f9e565b5090565b3361100361132f565b6001600160a01b0316148061101e575061101e600233612989565b61103a5760405162461bcd60e51b81526004016104a890613a06565b60408051600080825260208201928390529133918291479161105b91613b15565b60006040518083038185875af1925050503d8060008114611098576040519150601f19603f3d011682016040523d82523d6000602084013e61109d565b606091505b50508092505081610f475760405162461bcd60e51b815260206004820152600f60248201526e1dda5d1a191c985dc819985a5b1959608a1b60448201526064016104a8565b336110eb61132f565b6001600160a01b031614806111065750611106600233612989565b6111225760405162461bcd60e51b81526004016104a890613a06565b6008838360405161113492919061399d565b9081526040519081900360200190205460ff166111635760405162461bcd60e51b81526004016104a8906139ad565b426007848460405161117692919061399d565b9081526040519081900360200190205463ffffffff161015806111be5750600783836040516111a692919061399d565b90815260405190819003602001902060030160010154155b6111da5760405162461bcd60e51b81526004016104a890613a4a565b6001600160a01b0381166111ed57600080fd5b806006848460405161120092919061399d565b90815260405190819003602001902060080180546001600160a01b03929092166001600160a01b0319909216919091179055505050565b3361124061132f565b6001600160a01b0316146112665760405162461bcd60e51b81526004016104a890613a8d565b611271600282612989565b610f495760405133906001600160a01b038316907f7e1a1a08d52e4ba0e21554733d66165fd5151f99460116223d9e3a608eec5cb190600090a3610f476002826129d5565b336112bf61132f565b6001600160a01b0316146112e55760405162461bcd60e51b81526004016104a890613a8d565b6001546040516000916001600160a01b0316907f8be0079c531659141344cd1fd0a4f28419497f9722a3daafe3b4186f6b6457e0908390a3600180546001600160a01b0319169055565b6001546001600160a01b031690565b3361134761132f565b6001600160a01b031614806113625750611362600233612989565b61137e5760405162461bcd60e51b81526004016104a890613a06565b6001600160a01b0381166113cf5760405162461bcd60e51b8152602060048201526018602482015277496e76616c696420506c6174666f726d204164647265737360401b60448201526064016104a8565b600480546001600160a01b0319166001600160a01b0392909216919091179055565b336113fa61132f565b6001600160a01b031614806114155750611415600233612989565b6114315760405162461bcd60e51b81526004016104a890613a06565b6008816040516114419190613b15565b9081526040519081900360200190205460ff166114705760405162461bcd60e51b81526004016104a8906139ad565b6006816040516114809190613b15565b90815260405190819003602001812080546001600160a01b0319908116825560006001830181905560028301819055600383018054831690556004830181905560058301805483169055600683018190556007830155600882018054821690556009820180549091169055600a810180546001600160b01b0319908116909155600b90910180549091169055611517908290613b15565b604051908190038120907f9e74d4afc7192c9cc66343b9afe3321f7b687553671ee143b74fef984add252090600090a250565b3361155361132f565b6001600160a01b0316148061156e575061156e600233612989565b61158a5760405162461bcd60e51b81526004016104a890613a06565b6002600054036115ac5760405162461bcd60e51b81526004016104a890613966565b60026000556040516008906115c2908590613b15565b9081526040519081900360200190205460ff166115f15760405162461bcd60e51b81526004016104a8906139ad565b60006007846040516116039190613b15565b9081526040805160209281900383018120608082018352805463ffffffff8082168452600160201b90910416938201939093528151808301808452919392840191600184019060029082845b81546001600160a01b0316815260019091019060200180831161164f575050509183525050604080518082019182905260209092019190600384019060029082845b81548152602001906001019080831161169157505050505081525050905060006006856040516116c19190613b15565b9081526040805191829003602090810183206101208401835280546001600160a01b0390811685526001820154858401526002820154858501526003820154811660608087019190915260048301546080808801919091526005840154831660a080890191909152600685015460c0808a0191909152600786015460e08a0152875190810188526008860154851681526009860154851681880152600a8601548086169882019890985261ffff600160a01b98899004811694820194909452600b909501549384169185019190915294909104169281019290925261010083019190915283015190915063ffffffff164210156118115760405162461bcd60e51b815260206004820152602860248201527f61756374696f6e20686173206e6f742073746172746564206f72206e6f742079604482015267195d08195b99195960c21b60648201526084016104a8565b6060820151511561183b5760408201515160a0820151606084015161183b923092909160006109fc565b606082015160209081015160408085015183015160a08501518551948601519286015193949193909290611876908a908490879085906129ea565b60a08601516001600160a01b03166118dd57843410156118d85760405162461bcd60e51b815260206004820152601f60248201527f455448206973206c657373207468616e207468652062696420616d6f756e740060448201526064016104a8565b6119af565b60a08601516001600160a01b0316156119af5760a08601516040516370a0823160e01b815286916001600160a01b0316906370a0823190611922903390600401613848565b602060405180830381865afa15801561193f573d6000803e3d6000fd5b505050506040513d601f19601f8201168201806040525081019061196391906139ed565b10156119af5760405162461bcd60e51b815260206004820152601b60248201527a696e737566666963656e7420746f6b656e20616c6c6f77616e636560281b60448201526064016104a8565b87156119ca576119ca8487610100015160200151858b6128a8565b6101008601516040015185906000906001600160a01b0316158015906119fd575060008861010001516060015161ffff16115b15611a4e57611a493389610100015160400151876127108c61010001516060015161ffff1687611a2d9190613b31565b611a379190613b48565b611a419086613b6a565b9450846128a8565b611aa8565b6004546001600160a01b031615801590611a745750600454600160a01b900461ffff1615155b15611aa857600454611aa89033906001600160a01b03811690889061271090611a2d90600160a01b900461ffff1688613b31565b610100880151608001516001600160a01b031615801590611ad65750600088610100015160a0015161ffff16115b15611b475761271088610100015160a0015161ffff1683611af79190613b31565b611b019190613b48565b611b0b9082613b6a565b9050611b473389610100015160800151876127108c610100015160a0015161ffff1687611b389190613b31565b611b429190613b48565b6128a8565b611b518183613b7d565b9150611b608685858589612d34565b9150611b77338961010001516000015187856128a8565b8a6001600160a01b0316838d604051611b909190613b15565b60405180910390207ff46fbfebb3c993700455ad3898e5555624cc2cd41ee126f1b0974cd21ee35a5b8b8d604051611bc9929190613c10565b60405180910390a45050600160005550505050505050505050565b33611bed61132f565b6001600160a01b03161480611c085750611c08600233612989565b611c245760405162461bcd60e51b81526004016104a890613a06565b60088383604051611c3692919061399d565b9081526040519081900360200190205460ff16611c655760405162461bcd60e51b81526004016104a8906139ad565b4260078484604051611c7892919061399d565b9081526040519081900360200190205463ffffffff16101580611cc0575060078383604051611ca892919061399d565b90815260405190819003602001902060030160010154155b611cdc5760405162461bcd60e51b81526004016104a890613a4a565b6001600160a01b038116611cef57600080fd5b8060068484604051611d0292919061399d565b90815260405190819003602001902060090180546001600160a01b03929092166001600160a01b0319909216919091179055505050565b33611d4261132f565b6001600160a01b03161480611d5d5750611d5d600233612989565b611d795760405162461bcd60e51b81526004016104a890613a06565b6127108161ffff1610611de05760405162461bcd60e51b815260206004820152602960248201527f706c6174666f726d4665652073686f756c64206e6f74206265206d6f7265207460448201526868616e20313030202560b81b60648201526084016104a8565b6004805461ffff909216600160a01b0261ffff60a01b19909216919091179055565b33611e0b61132f565b6001600160a01b031614611e315760405162461bcd60e51b81526004016104a890613a8d565b6001600160a01b038116611e965760405162461bcd60e51b815260206004820152602660248201527f4f776e61626c653a206e6577206f776e657220697320746865207a65726f206160448201526564647265737360d01b60648201526084016104a8565b6001546040516001600160a01b038084169216907f8be0079c531659141344cd1fd0a4f28419497f9722a3daafe3b4186f6b6457e090600090a3600180546001600160a01b0319166001600160a01b0392909216919091179055565b33611efb61132f565b6001600160a01b03161480611f165750611f16600233612989565b611f325760405162461bcd60e51b81526004016104a890613a06565b600260005403611f545760405162461bcd60e51b81526004016104a890613966565b60026000908155611f6d610180850161016086016138c5565b61ffff1615611fb557611f886101c085016101a086016138c5565b611f9a610180860161016087016138c5565b611fa49190613c94565b611fae9082613c94565b9050611fec565b611fc76101c085016101a086016138c5565b600454611fdf9190600160a01b900461ffff16613c94565b611fe99082613c94565b90505b6127108161ffff161061205d5760405162461bcd60e51b815260206004820152603360248201527f54686520746f74616c2066656520626173697320706f696e742073686f756c646044820152720206265206c657373207468616e20313030303606c1b60648201526084016104a8565b60008460800135116120c35760405162461bcd60e51b815260206004820152602960248201527f6d696e696d756d2070726963652073686f756c642062652067726561746572206044820152687468616e207a65726f60b81b60648201526084016104a8565b6120d06020850185613631565b6040516301ffc9a760e01b81526001600160a01b0391909116906301ffc9a790612105906380ac58cd60e01b90600401613caf565b602060405180830381865afa158015612122573d6000803e3d6000fd5b505050506040513d601f19601f820116820180604052508101906121469190613cc4565b806121cf57506121596020850185613631565b6040516301ffc9a760e01b81526001600160a01b0391909116906301ffc9a79061218e90636cdb3d1360e11b90600401613caf565b602060405180830381865afa1580156121ab573d6000803e3d6000fd5b505050506040513d601f19601f820116820180604052508101906121cf9190613cc4565b61222d5760405162461bcd60e51b815260206004820152602960248201527f73686f756c642070726f76696465206f6e6c7920737570706f72746564204e6660448201526874204164647265737360b81b60648201526084016104a8565b61223a6020850185613631565b6040516301ffc9a760e01b81526001600160a01b0391909116906301ffc9a79061226f906380ac58cd60e01b90600401613caf565b602060405180830381865afa15801561228c573d6000803e3d6000fd5b505050506040513d601f19601f820116820180604052508101906122b09190613cc4565b15612374576122c56080850160608601613631565b6001600160a01b03166122db6020860186613631565b6040516331a9108f60e11b8152602087013560048201526001600160a01b039190911690636352211e90602401602060405180830381865afa158015612325573d6000803e3d6000fd5b505050506040513d601f19601f820116820180604052508101906123499190613ce6565b6001600160a01b03161461236f5760405162461bcd60e51b81526004016104a890613d03565b6124f0565b6123816020850185613631565b6040516301ffc9a760e01b81526001600160a01b0391909116906301ffc9a7906123b690636cdb3d1360e11b90600401613caf565b602060405180830381865afa1580156123d3573d6000803e3d6000fd5b505050506040513d601f19601f820116820180604052508101906123f79190613cc4565b156124f057600061240b6020860186613631565b6001600160a01b031662fdd58e6124286080880160608901613631565b87602001356040518363ffffffff1660e01b815260040161244a929190613d33565b602060405180830381865afa158015612467573d6000803e3d6000fd5b505050506040513d601f19601f8201168201806040525081019061248b91906139ed565b9050808560400135111580156124a5575060008560400135115b6124ee5760405162461bcd60e51b815260206004820152601a602482015279496e73756666696369656e7420746f6b656e2062616c616e636560301b60448201526064016104a8565b505b600061250461012086016101008701613631565b6001600160a01b0316036125645760405162461bcd60e51b815260206004820152602160248201527f73686f756c642070726f7669646520536574746c656d656e74206164647265736044820152607360f81b60648201526084016104a8565b61257d61257760c0860160a08701613631565b3b151590565b806125a05750600061259560c0860160a08701613631565b6001600160a01b0316145b6126045760405162461bcd60e51b815260206004820152602f60248201527f41756374696f6e2020737570706f7274206f6e6c79206e617469766520616e6460448201526e2065726332302063757272656e637960881b60648201526084016104a8565b600061261861014086016101208701613631565b6001600160a01b03160361267c5760405162461bcd60e51b815260206004820152602560248201527f73686f756c642070726f766964652074617820536574746c656d656e74206164604482015264647265737360d81b60648201526084016104a8565b6008868660405161268e92919061399d565b9081526040519081900360200190205460ff16156126ea5760405162461bcd60e51b8152602060048201526019602482015278185d58dd1a5bdb9259081a5cc8185b1c9958591e481d5cd959603a1b60448201526064016104a8565b60008363ffffffff16118015612706575060008263ffffffff16115b6127665760405162461bcd60e51b815260206004820152602b60248201527f61756374696f6e2074696d652073686f756c64206e6f742062652070726f766960448201526a646564206173207a65726f60a81b60648201526084016104a8565b836006878760405161277992919061399d565b9081526040519081900360200190206127928282613e36565b90505082600787876040516127a892919061399d565b908152604051908190036020018120805463ffffffff9390931663ffffffff199093169290921790915582906007906127e4908990899061399d565b908152602001604051809103902060000160046101000a81548163ffffffff021916908363ffffffff16021790555060016008878760405161282792919061399d565b908152604051908190036020018120805492151560ff1990931692909217909155612853908590613f58565b604051908190038120907f2c215cb172b4d2c6839c32043ee8246f2182bee166efedc76edf44203d79007490600090a25050600160005550505050565b60008261289d8584612ee7565b1490505b9392505050565b60006001600160a01b03831661296d57604080516000815260208101918290526001600160a01b0386169184916128de91613b15565b60006040518083038185875af1925050503d806000811461291b576040519150601f19603f3d011682016040523d82523d6000602084013e612920565b606091505b505080915050806129685760405162461bcd60e51b81526020600482015260126024820152711d1c985b9cd858dd1a5bdb8819985a5b195960721b60448201526064016104a8565b612982565b6129826001600160a01b038416868685612f93565b5050505050565b6001600160a01b031660009081526001919091016020526040902054151590565b60006128a1836001600160a01b038416612ff1565b6000610af4825490565b60006128a183836130eb565b60006128a1836001600160a01b038416613115565b6040516301ffc9a760e01b81526001600160a01b038516906301ffc9a790612a1d906380ac58cd60e01b90600401613caf565b602060405180830381865afa158015612a3a573d6000803e3d6000fd5b505050506040513d601f19601f82011682018060405250810190612a5e9190613cc4565b15612b5e576040516331a9108f60e11b8152600481018390526001600160a01b038087169190861690636352211e90602401602060405180830381865afa158015612aad573d6000803e3d6000fd5b505050506040513d601f19601f82011682018060405250810190612ad19190613ce6565b6001600160a01b031614612af75760405162461bcd60e51b81526004016104a890613d03565b604051632142170760e11b81526001600160a01b038516906342842e0e90612b2790889087908790600401614002565b600060405180830381600087803b158015612b4157600080fd5b505af1158015612b55573d6000803e3d6000fd5b50505050612982565b6040516301ffc9a760e01b81526001600160a01b038516906301ffc9a790612b9190636cdb3d1360e11b90600401613caf565b602060405180830381865afa158015612bae573d6000803e3d6000fd5b505050506040513d601f19601f82011682018060405250810190612bd29190613cc4565b1561298257604051627eeac760e11b81526000906001600160a01b0386169062fdd58e90612c069089908790600401613d33565b602060405180830381865afa158015612c23573d6000803e3d6000fd5b505050506040513d601f19601f82011682018060405250810190612c4791906139ed565b9050808211158015612c595750600082115b612ca25760405162461bcd60e51b815260206004820152601a602482015279496e73756666696365696e7420746f6b656e2062616c616e636560301b60448201526064016104a8565b604051637921219560e11b81526001600160a01b0387811660048301528581166024830152604482018590526064820184905260a06084830152600260a483015261060f60f31b60c483015286169063f242432a9060e401600060405180830381600087803b158015612d1457600080fd5b505af1158015612d28573d6000803e3d6000fd5b50505050505050505050565b600554604051636e44a72f60e01b815260009184918391829182916001600160a01b031690636e44a72f90612d6f908c908c90600401613d33565b600060405180830381865afa158015612d8c573d6000803e3d6000fd5b505050506040513d6000823e601f3d908101601f19168201604052612db4919081019061408c565b815191935091506000819003612dd1578795505050505050612ede565b60005b81811015612ed5576000848281518110612df057612df06139d7565b602002602001015190506127108a858481518110612e1057612e106139d7565b6020026020010151612e229190613b31565b612e2c9190613b48565b955085871015612e6a5760405162461bcd60e51b81526020600482015260096024820152681a5b9cdbdb1d995b9d60ba1b60448201526064016104a8565b612e768d828b896128a8565b604080516001600160a01b038e81168252602082018e90528316818301526060810188905290517f866e6ef8682ddf5f1025e64dfdb45527077f7be70fa9ef680b7ffd8cf4ab9c509181900360800190a1509484900394600101612dd4565b50939450505050505b95945050505050565b600081815b8451811015612f8b576000858281518110612f0957612f096139d7565b60200260200101519050808311612f4b576040805160208101859052908101829052606001604051602081830303815290604052805190602001209250612f78565b60408051602081018390529081018490526060016040516020818303038152906040528051906020012092505b5080612f8381613ad8565b915050612eec565b509392505050565b612feb846323b872dd60e01b858585604051602401612fb493929190614002565b60408051601f198184030181529190526020810180516001600160e01b03166001600160e01b031990931692909217909152613164565b50505050565b600081815260018301602052604081205480156130da576000613015600183613b7d565b855490915060009061302990600190613b7d565b905081811461308e576000866000018281548110613049576130496139d7565b906000526020600020015490508087600001848154811061306c5761306c6139d7565b6000918252602080832090910192909255918252600188019052604090208390555b855486908061309f5761309f614150565b600190038181906000526020600020016000905590558560010160008681526020019081526020016000206000905560019350505050610af4565b6000915050610af4565b5092915050565b6000826000018281548110613102576131026139d7565b9060005260206000200154905092915050565b600081815260018301602052604081205461315c57508154600181810184556000848152602080822090930184905584548482528286019093526040902091909155610af4565b506000610af4565b60006131b9826040518060400160405280602081526020017f5361666545524332303a206c6f772d6c6576656c2063616c6c206661696c6564815250856001600160a01b031661323b9092919063ffffffff16565b80519091501561323657808060200190518101906131d79190613cc4565b6132365760405162461bcd60e51b815260206004820152602a60248201527f5361666545524332303a204552433230206f7065726174696f6e20646964206e6044820152691bdd081cdd58d8d9595960b21b60648201526084016104a8565b505050565b606061324a8484600085613252565b949350505050565b6060824710156132b35760405162461bcd60e51b815260206004820152602660248201527f416464726573733a20696e73756666696369656e742062616c616e636520666f6044820152651c8818d85b1b60d21b60648201526084016104a8565b843b6133015760405162461bcd60e51b815260206004820152601d60248201527f416464726573733a2063616c6c20746f206e6f6e2d636f6e747261637400000060448201526064016104a8565b600080866001600160a01b0316858760405161331d9190613b15565b60006040518083038185875af1925050503d806000811461335a576040519150601f19603f3d011682016040523d82523d6000602084013e61335f565b606091505b509150915061336f82828661337a565b979650505050505050565b606083156133895750816128a1565b8251156133995782518084602001fd5b8160405162461bcd60e51b81526004016104a89190614166565b60008083601f8401126133c557600080fd5b5081356001600160401b038111156133dc57600080fd5b6020830191508360208285010111156133f457600080fd5b9250929050565b634e487b7160e01b600052604160045260246000fd5b604051601f8201601f191681016001600160401b0381118282101715613439576134396133fb565b604052919050565b60006001600160401b0382111561345a5761345a6133fb565b5060051b60200190565b6000806000806060858703121561347a57600080fd5b84356001600160401b038082111561349157600080fd5b61349d888389016133b3565b9096509450602087810135945091506040870135818111156134be57600080fd5b87019050601f810188136134d157600080fd5b80356134e46134df82613441565b613411565b81815260059190911b8201830190838101908a83111561350357600080fd5b928401925b8284101561352157833582529284019290840190613508565b979a9699509497505050505050565b60006020828403121561354257600080fd5b81356001600160e01b0319811681146128a157600080fd5b803563ffffffff8116811461356e57600080fd5b919050565b60008060006040848603121561358857600080fd5b83356001600160401b0381111561359e57600080fd5b6135aa868287016133b3565b90945092506135bd90506020850161355a565b90509250925092565b6000806000604084860312156135db57600080fd5b83356001600160401b038111156135f157600080fd5b6135fd868287016133b3565b909790965060209590950135949350505050565b6001600160a01b0381168114610f4957600080fd5b803561356e81613611565b60006020828403121561364357600080fd5b81356128a181613611565b6020808252825182820181905260009190848201906040850190845b8181101561368f5783516001600160a01b03168352928401929184019160010161366a565b50909695505050505050565b6000806000604084860312156136b057600080fd5b83356001600160401b038111156136c657600080fd5b6136d2868287016133b3565b90945092505060208401356136e681613611565b809150509250925092565b600082601f83011261370257600080fd5b81356001600160401b0381111561371b5761371b6133fb565b61372e601f8201601f1916602001613411565b81815284602083860101111561374357600080fd5b816020850160208301376000918101602001919091529392505050565b60006020828403121561377257600080fd5b81356001600160401b0381111561378857600080fd5b61324a848285016136f1565b60018060a01b03808251168352806020830151166020840152806040830151166040840152606082015161ffff80821660608601528260808501511660808601528060a08501511660a08601525050505050565b6001600160a01b038a81168252602082018a905260408201899052878116606083015260808201879052851660a082015260c0810184905260e081018390526101c0810161383a610100830184613794565b9a9950505050505050505050565b6001600160a01b0391909116815260200190565b60008060006060848603121561387157600080fd5b83356001600160401b0381111561388757600080fd5b613893868287016136f1565b93505060208401356138a481613611565b929592945050506040919091013590565b61ffff81168114610f4957600080fd5b6000602082840312156138d757600080fd5b81356128a1816138b5565b60008060008060008587036102208112156138fc57600080fd5b86356001600160401b0381111561391257600080fd5b61391e89828a016133b3565b9097509550506101c0601f198201121561393757600080fd5b5060208601925061394b6101e0870161355a565b915061395a610200870161355a565b90509295509295909350565b6020808252601f908201527f5265656e7472616e637947756172643a207265656e7472616e742063616c6c00604082015260600190565b8183823760009101908152919050565b60208082526010908201526f756e737570706f727465642073616c6560801b604082015260600190565b634e487b7160e01b600052603260045260246000fd5b6000602082840312156139ff57600080fd5b5051919050565b60208082526024908201527f41646d696e436f6e74726f6c3a204d757374206265206f776e6572206f7220616040820152633236b4b760e11b606082015260800190565b60208082526023908201527f7468652061756374696f6e206269642068617320616c726561647920737461726040820152621d195960ea1b606082015260800190565b6020808252818101527f4f776e61626c653a2063616c6c6572206973206e6f7420746865206f776e6572604082015260600190565b634e487b7160e01b600052601160045260246000fd5b600060018201613aea57613aea613ac2565b5060010190565b60005b83811015613b0c578181015183820152602001613af4565b50506000910152565b60008251613b27818460208701613af1565b9190910192915050565b8082028115828204841417610af457610af4613ac2565b600082613b6557634e487b7160e01b600052601260045260246000fd5b500490565b80820180821115610af457610af4613ac2565b81810381811115610af457610af4613ac2565b63ffffffff808251168352602081818401511681850152604083015191506040840160005b6002811015613bdb5783516001600160a01b031682529282019290820190600101613bb5565b5050606083015191506080840160005b6002811015613c0857835182529282019290820190600101613beb565b505050505050565b82516001600160a01b03908116825260208085015190830152604080850151908301526060808501518216908301526080808501519083015260a084810151918216908301526102808201905060c084015160c083015260e084015160e083015261010080850151613c8482850182613794565b50506128a16101c0830184613b90565b61ffff8181168382160190808211156130e4576130e4613ac2565b6001600160e01b031991909116815260200190565b600060208284031215613cd657600080fd5b815180151581146128a157600080fd5b600060208284031215613cf857600080fd5b81516128a181613611565b60208082526016908201527536b0b5b2b91034b9903737ba103a34329037bbb732b960511b604082015260600190565b6001600160a01b03929092168252602082015260400190565b60008135610af481613611565b80546001600160a01b0319166001600160a01b0392909216919091179055565b805461ffff60a01b191660a09290921b61ffff60a01b16919091179055565b8135613da381613611565b613dad8183613d59565b506020820135613dbc81613611565b613dc98160018401613d59565b50600281016040830135613ddc81613611565b613de68183613d59565b506060830135613df5816138b5565b613dff8183613d79565b5050600381016080830135613e1381613611565b613e1d8183613d59565b5060a0830135613e2c816138b5565b612feb8183613d79565b613e48613e4283613d4c565b82613d59565b6020820135600182015560408201356002820155613e74613e6b60608401613d4c565b60038301613d59565b60808201356004820155613e96613e8d60a08401613d4c565b60058301613d59565b60c0820135600682015560e08201356007820155610f47610100830160088301613d98565b60008135613ec881613611565b6001600160a01b039081168452602083013590613ee482613611565b9081166020850152604083013590613efb82613611565b9081166040850152606083013590613f12826138b5565b61ffff9182166060860152608084013591613f2c83613611565b918116608086015260a084013591613f43836138b5565b9190911660a0850152505060c0909101919050565b60008235613f6581613611565b6001600160a01b0390811683526020848101359084015260408085013590840152606084013590613f9582613611565b16606083015260808381013590830152613ff7613fed613fe0613fd360a080870190613fc2908901613626565b6001600160a01b0316815260200190565b60c0870135815260200190565b60e0860135815260200190565b6101008501613ebb565b50506101c001919050565b6001600160a01b039384168152919092166020820152604081019190915260600190565b600082601f83011261403757600080fd5b815160206140476134df83613441565b82815260059290921b8401810191818101908684111561406657600080fd5b8286015b84811015614081578051835291830191830161406a565b509695505050505050565b6000806040838503121561409f57600080fd5b82516001600160401b03808211156140b657600080fd5b818501915085601f8301126140ca57600080fd5b815160206140da6134df83613441565b82815260059290921b840181019181810190898411156140f957600080fd5b948201945b8386101561412057855161411181613611565b825294820194908201906140fe565b9188015191965090935050508082111561413957600080fd5b5061414685828601614026565b9150509250929050565b634e487b7160e01b600052603160045260246000fd5b6020815260008251806020840152614185816040850160208701613af1565b601f01601f1916919091016040019291505056fea2646970667358221220b13430b0871a41c4694f0aae1f7c4134cc23a8329fab97382faa37587e3c3fb664736f6c63430008110033",
			"opcodes": "PUSH1 0x80 PUSH1 0x40 MSTORE CALLVALUE DUP1 ISZERO PUSH3 0x11 JUMPI PUSH1 0x0 DUP1 REVERT JUMPDEST POP PUSH1 0x40 MLOAD PUSH3 0x43A2 CODESIZE SUB DUP1 PUSH3 0x43A2 DUP4 CODECOPY DUP2 ADD PUSH1 0x40 DUP2 SWAP1 MSTORE PUSH3 0x34 SWAP2 PUSH3 0x173 JUMP JUMPDEST PUSH1 0x1 PUSH1 0x0 DUP2 DUP2 SSTORE DUP2 SLOAD PUSH1 0x1 PUSH1 0x1 PUSH1 0xA0 SHL SUB NOT AND CALLER SWAP1 DUP2 OR SWAP1 SWAP3 SSTORE PUSH1 0x40 MLOAD DUP3 SWAP2 SWAP1 PUSH32 0x8BE0079C531659141344CD1FD0A4F28419497F9722A3DAAFE3B4186F6B6457E0 SWAP1 DUP3 SWAP1 LOG3 POP PUSH1 0x1 PUSH1 0x1 PUSH1 0xA0 SHL SUB DUP3 AND PUSH3 0xD6 JUMPI PUSH1 0x40 MLOAD PUSH3 0x461BCD PUSH1 0xE5 SHL DUP2 MSTORE PUSH1 0x20 PUSH1 0x4 DUP3 ADD MSTORE PUSH1 0x18 PUSH1 0x24 DUP3 ADD MSTORE PUSH32 0x496E76616C696420506C6174666F726D20416464726573730000000000000000 PUSH1 0x44 DUP3 ADD MSTORE PUSH1 0x64 ADD JUMPDEST PUSH1 0x40 MLOAD DUP1 SWAP2 SUB SWAP1 REVERT JUMPDEST PUSH2 0x2710 DUP2 PUSH2 0xFFFF AND LT PUSH3 0x13F JUMPI PUSH1 0x40 MLOAD PUSH3 0x461BCD PUSH1 0xE5 SHL DUP2 MSTORE PUSH1 0x20 PUSH1 0x4 DUP3 ADD MSTORE PUSH1 0x29 PUSH1 0x24 DUP3 ADD MSTORE PUSH32 0x706C6174666F726D4665652073686F756C64206E6F74206265206D6F72652074 PUSH1 0x44 DUP3 ADD MSTORE PUSH9 0x68616E203130302025 PUSH1 0xB8 SHL PUSH1 0x64 DUP3 ADD MSTORE PUSH1 0x84 ADD PUSH3 0xCD JUMP JUMPDEST PUSH1 0x4 DUP1 SLOAD PUSH2 0xFFFF SWAP1 SWAP3 AND PUSH1 0x1 PUSH1 0xA0 SHL MUL PUSH1 0x1 PUSH1 0x1 PUSH1 0xB0 SHL SUB NOT SWAP1 SWAP3 AND PUSH1 0x1 PUSH1 0x1 PUSH1 0xA0 SHL SUB SWAP1 SWAP4 AND SWAP3 SWAP1 SWAP3 OR OR SWAP1 SSTORE PUSH3 0x1C3 JUMP JUMPDEST PUSH1 0x0 DUP1 PUSH1 0x40 DUP4 DUP6 SUB SLT ISZERO PUSH3 0x187 JUMPI PUSH1 0x0 DUP1 REVERT JUMPDEST DUP3 MLOAD PUSH1 0x1 PUSH1 0x1 PUSH1 0xA0 SHL SUB DUP2 AND DUP2 EQ PUSH3 0x19F JUMPI PUSH1 0x0 DUP1 REVERT JUMPDEST PUSH1 0x20 DUP5 ADD MLOAD SWAP1 SWAP3 POP PUSH2 0xFFFF DUP2 AND DUP2 EQ PUSH3 0x1B8 JUMPI PUSH1 0x0 DUP1 REVERT JUMPDEST DUP1 SWAP2 POP POP SWAP3 POP SWAP3 SWAP1 POP JUMP JUMPDEST PUSH2 0x41CF DUP1 PUSH3 0x1D3 PUSH1 0x0 CODECOPY PUSH1 0x0 RETURN INVALID PUSH1 0x80 PUSH1 0x40 MSTORE PUSH1 0x4 CALLDATASIZE LT PUSH2 0x106 JUMPI PUSH1 0x0 CALLDATALOAD PUSH1 0xE0 SHR DUP1 PUSH4 0x14010ED EQ PUSH2 0x10F JUMPI DUP1 PUSH4 0x1FFC9A7 EQ PUSH2 0x122 JUMPI DUP1 PUSH4 0xA28E844 EQ PUSH2 0x157 JUMPI DUP1 PUSH4 0xDCDE0E0 EQ PUSH2 0x177 JUMPI DUP1 PUSH4 0x24D7806C EQ PUSH2 0x197 JUMPI DUP1 PUSH4 0x2C96CF1D EQ PUSH2 0x1B7 JUMPI DUP1 PUSH4 0x2D345670 EQ PUSH2 0x1D7 JUMPI DUP1 PUSH4 0x31AE450B EQ PUSH2 0x1F7 JUMPI DUP1 PUSH4 0x3CCFD60B EQ PUSH2 0x219 JUMPI DUP1 PUSH4 0x5E144CD3 EQ PUSH2 0x22E JUMPI DUP1 PUSH4 0x6D73E669 EQ PUSH2 0x24E JUMPI DUP1 PUSH4 0x715018A6 EQ PUSH2 0x26E JUMPI DUP1 PUSH4 0x77DEC6C3 EQ PUSH2 0x283 JUMPI DUP1 PUSH4 0x8DA5CB5B EQ PUSH2 0x371 JUMPI DUP1 PUSH4 0x8F9F193F EQ PUSH2 0x393 JUMPI DUP1 PUSH4 0xB60E7A3B EQ PUSH2 0x3B3 JUMPI DUP1 PUSH4 0xC164D2D7 EQ PUSH2 0x3D3 JUMPI DUP1 PUSH4 0xC44B44D3 EQ PUSH2 0x3E6 JUMPI DUP1 PUSH4 0xCBC9A941 EQ PUSH2 0x406 JUMPI DUP1 PUSH4 0xDA20872A EQ PUSH2 0x426 JUMPI DUP1 PUSH4 0xF2FDE38B EQ PUSH2 0x446 JUMPI DUP1 PUSH4 0xF6C9B9AD EQ PUSH2 0x466 JUMPI STOP JUMPDEST CALLDATASIZE PUSH2 0x10D JUMPI STOP JUMPDEST STOP JUMPDEST PUSH2 0x10D PUSH2 0x11D CALLDATASIZE PUSH1 0x4 PUSH2 0x3464 JUMP JUMPDEST PUSH2 0x486 JUMP JUMPDEST CALLVALUE DUP1 ISZERO PUSH2 0x12E JUMPI PUSH1 0x0 DUP1 REVERT JUMPDEST POP PUSH2 0x142 PUSH2 0x13D CALLDATASIZE PUSH1 0x4 PUSH2 0x3530 JUMP JUMPDEST PUSH2 0xAC3 JUMP JUMPDEST PUSH1 0x40 MLOAD SWAP1 ISZERO ISZERO DUP2 MSTORE PUSH1 0x20 ADD JUMPDEST PUSH1 0x40 MLOAD DUP1 SWAP2 SUB SWAP1 RETURN JUMPDEST CALLVALUE DUP1 ISZERO PUSH2 0x163 JUMPI PUSH1 0x0 DUP1 REVERT JUMPDEST POP PUSH2 0x10D PUSH2 0x172 CALLDATASIZE PUSH1 0x4 PUSH2 0x3573 JUMP JUMPDEST PUSH2 0xAFA JUMP JUMPDEST CALLVALUE DUP1 ISZERO PUSH2 0x183 JUMPI PUSH1 0x0 DUP1 REVERT JUMPDEST POP PUSH2 0x10D PUSH2 0x192 CALLDATASIZE PUSH1 0x4 PUSH2 0x35C6 JUMP JUMPDEST PUSH2 0xC3C JUMP JUMPDEST CALLVALUE DUP1 ISZERO PUSH2 0x1A3 JUMPI PUSH1 0x0 DUP1 REVERT JUMPDEST POP PUSH2 0x142 PUSH2 0x1B2 CALLDATASIZE PUSH1 0x4 PUSH2 0x3631 JUMP JUMPDEST PUSH2 0xD5F JUMP JUMPDEST CALLVALUE DUP1 ISZERO PUSH2 0x1C3 JUMPI PUSH1 0x0 DUP1 REVERT JUMPDEST POP PUSH2 0x10D PUSH2 0x1D2 CALLDATASIZE PUSH1 0x4 PUSH2 0x3573 JUMP JUMPDEST PUSH2 0xD8E JUMP JUMPDEST CALLVALUE DUP1 ISZERO PUSH2 0x1E3 JUMPI PUSH1 0x0 DUP1 REVERT JUMPDEST POP PUSH2 0x10D PUSH2 0x1F2 CALLDATASIZE PUSH1 0x4 PUSH2 0x3631 JUMP JUMPDEST PUSH2 0xEC7 JUMP JUMPDEST CALLVALUE DUP1 ISZERO PUSH2 0x203 JUMPI PUSH1 0x0 DUP1 REVERT JUMPDEST POP PUSH2 0x20C PUSH2 0xF4C JUMP JUMPDEST PUSH1 0x40 MLOAD PUSH2 0x14E SWAP2 SWAP1 PUSH2 0x364E JUMP JUMPDEST CALLVALUE DUP1 ISZERO PUSH2 0x225 JUMPI PUSH1 0x0 DUP1 REVERT JUMPDEST POP PUSH2 0x10D PUSH2 0xFFA JUMP JUMPDEST CALLVALUE DUP1 ISZERO PUSH2 0x23A JUMPI PUSH1 0x0 DUP1 REVERT JUMPDEST POP PUSH2 0x10D PUSH2 0x249 CALLDATASIZE PUSH1 0x4 PUSH2 0x369B JUMP JUMPDEST PUSH2 0x10E2 JUMP JUMPDEST CALLVALUE DUP1 ISZERO PUSH2 0x25A JUMPI PUSH1 0x0 DUP1 REVERT JUMPDEST POP PUSH2 0x10D PUSH2 0x269 CALLDATASIZE PUSH1 0x4 PUSH2 0x3631 JUMP JUMPDEST PUSH2 0x1237 JUMP JUMPDEST CALLVALUE DUP1 ISZERO PUSH2 0x27A JUMPI PUSH1 0x0 DUP1 REVERT JUMPDEST POP PUSH2 0x10D PUSH2 0x12B6 JUMP JUMPDEST CALLVALUE DUP1 ISZERO PUSH2 0x28F JUMPI PUSH1 0x0 DUP1 REVERT JUMPDEST POP PUSH2 0x35C PUSH2 0x29E CALLDATASIZE PUSH1 0x4 PUSH2 0x3760 JUMP JUMPDEST DUP1 MLOAD DUP1 DUP3 ADD PUSH1 0x20 SWAP1 DUP2 ADD DUP1 MLOAD PUSH1 0x6 DUP1 DUP4 MSTORE SWAP4 DUP4 ADD SWAP5 DUP4 ADD SWAP5 SWAP1 SWAP5 KECCAK256 SWAP4 SWAP1 MSTORE DUP3 SLOAD PUSH1 0x1 DUP5 ADD SLOAD PUSH1 0x2 DUP6 ADD SLOAD PUSH1 0x3 DUP7 ADD SLOAD PUSH1 0x4 DUP8 ADD SLOAD PUSH1 0x5 DUP9 ADD SLOAD SWAP7 DUP9 ADD SLOAD PUSH1 0x7 DUP10 ADD SLOAD PUSH1 0x40 DUP1 MLOAD PUSH1 0xC0 DUP2 ADD DUP3 MSTORE PUSH1 0x8 DUP13 ADD SLOAD PUSH1 0x1 PUSH1 0x1 PUSH1 0xA0 SHL SUB SWAP1 DUP2 AND DUP3 MSTORE PUSH1 0x9 DUP14 ADD SLOAD DUP2 AND SWAP11 DUP3 ADD SWAP11 SWAP1 SWAP11 MSTORE PUSH1 0xA DUP13 ADD SLOAD DUP1 DUP12 AND SWAP3 DUP3 ADD SWAP3 SWAP1 SWAP3 MSTORE PUSH2 0xFFFF PUSH1 0x1 PUSH1 0xA0 SHL SWAP3 DUP4 SWAP1 DIV DUP2 AND PUSH1 0x60 DUP4 ADD MSTORE PUSH1 0xB SWAP1 SWAP13 ADD SLOAD DUP1 DUP12 AND PUSH1 0x80 DUP4 ADD MSTORE SWAP2 SWAP1 SWAP2 DIV SWAP1 SWAP11 AND PUSH1 0xA0 DUP12 ADD MSTORE SWAP6 DUP8 AND SWAP9 SWAP5 SWAP8 SWAP4 SWAP7 SWAP3 DUP4 AND SWAP6 SWAP2 SWAP5 SWAP4 SWAP1 SWAP3 AND SWAP3 DUP10 JUMP JUMPDEST PUSH1 0x40 MLOAD PUSH2 0x14E SWAP10 SWAP9 SWAP8 SWAP7 SWAP6 SWAP5 SWAP4 SWAP3 SWAP2 SWAP1 PUSH2 0x37E8 JUMP JUMPDEST CALLVALUE DUP1 ISZERO PUSH2 0x37D JUMPI PUSH1 0x0 DUP1 REVERT JUMPDEST POP PUSH2 0x386 PUSH2 0x132F JUMP JUMPDEST PUSH1 0x40 MLOAD PUSH2 0x14E SWAP2 SWAP1 PUSH2 0x3848 JUMP JUMPDEST CALLVALUE DUP1 ISZERO PUSH2 0x39F JUMPI PUSH1 0x0 DUP1 REVERT JUMPDEST POP PUSH2 0x10D PUSH2 0x3AE CALLDATASIZE PUSH1 0x4 PUSH2 0x3631 JUMP JUMPDEST PUSH2 0x133E JUMP JUMPDEST CALLVALUE DUP1 ISZERO PUSH2 0x3BF JUMPI PUSH1 0x0 DUP1 REVERT JUMPDEST POP PUSH2 0x10D PUSH2 0x3CE CALLDATASIZE PUSH1 0x4 PUSH2 0x3760 JUMP JUMPDEST PUSH2 0x13F1 JUMP JUMPDEST PUSH2 0x10D PUSH2 0x3E1 CALLDATASIZE PUSH1 0x4 PUSH2 0x385C JUMP JUMPDEST PUSH2 0x154A JUMP JUMPDEST CALLVALUE DUP1 ISZERO PUSH2 0x3F2 JUMPI PUSH1 0x0 DUP1 REVERT JUMPDEST POP PUSH2 0x10D PUSH2 0x401 CALLDATASIZE PUSH1 0x4 PUSH2 0x369B JUMP JUMPDEST PUSH2 0x1BE4 JUMP JUMPDEST CALLVALUE DUP1 ISZERO PUSH2 0x412 JUMPI PUSH1 0x0 DUP1 REVERT JUMPDEST POP PUSH2 0x10D PUSH2 0x421 CALLDATASIZE PUSH1 0x4 PUSH2 0x38C5 JUMP JUMPDEST PUSH2 0x1D39 JUMP JUMPDEST CALLVALUE DUP1 ISZERO PUSH2 0x432 JUMPI PUSH1 0x0 DUP1 REVERT JUMPDEST POP PUSH1 0x5 SLOAD PUSH2 0x386 SWAP1 PUSH1 0x1 PUSH1 0x1 PUSH1 0xA0 SHL SUB AND DUP2 JUMP JUMPDEST CALLVALUE DUP1 ISZERO PUSH2 0x452 JUMPI PUSH1 0x0 DUP1 REVERT JUMPDEST POP PUSH2 0x10D PUSH2 0x461 CALLDATASIZE PUSH1 0x4 PUSH2 0x3631 JUMP JUMPDEST PUSH2 0x1E02 JUMP JUMPDEST CALLVALUE DUP1 ISZERO PUSH2 0x472 JUMPI PUSH1 0x0 DUP1 REVERT JUMPDEST POP PUSH2 0x10D PUSH2 0x481 CALLDATASIZE PUSH1 0x4 PUSH2 0x38E2 JUMP JUMPDEST PUSH2 0x1EF2 JUMP JUMPDEST PUSH1 0x2 PUSH1 0x0 SLOAD SUB PUSH2 0x4B1 JUMPI PUSH1 0x40 MLOAD PUSH3 0x461BCD PUSH1 0xE5 SHL DUP2 MSTORE PUSH1 0x4 ADD PUSH2 0x4A8 SWAP1 PUSH2 0x3966 JUMP JUMPDEST PUSH1 0x40 MLOAD DUP1 SWAP2 SUB SWAP1 REVERT JUMPDEST PUSH1 0x2 PUSH1 0x0 SWAP1 DUP2 SSTORE PUSH1 0x40 MLOAD PUSH1 0x6 SWAP1 PUSH2 0x4CB SWAP1 DUP8 SWAP1 DUP8 SWAP1 PUSH2 0x399D JUMP JUMPDEST SWAP1 DUP2 MSTORE PUSH1 0x40 DUP1 MLOAD SWAP2 DUP3 SWAP1 SUB PUSH1 0x20 SWAP1 DUP2 ADD DUP4 KECCAK256 PUSH2 0x120 DUP5 ADD DUP4 MSTORE DUP1 SLOAD PUSH1 0x1 PUSH1 0x1 PUSH1 0xA0 SHL SUB SWAP1 DUP2 AND DUP6 MSTORE PUSH1 0x1 DUP3 ADD SLOAD DUP6 DUP5 ADD MSTORE PUSH1 0x2 DUP3 ADD SLOAD DUP6 DUP6 ADD MSTORE PUSH1 0x3 DUP3 ADD SLOAD DUP2 AND PUSH1 0x60 DUP1 DUP8 ADD SWAP2 SWAP1 SWAP2 MSTORE PUSH1 0x4 DUP4 ADD SLOAD PUSH1 0x80 DUP1 DUP9 ADD SWAP2 SWAP1 SWAP2 MSTORE PUSH1 0x5 DUP5 ADD SLOAD DUP4 AND PUSH1 0xA0 DUP1 DUP10 ADD SWAP2 SWAP1 SWAP2 MSTORE PUSH1 0x6 DUP6 ADD SLOAD PUSH1 0xC0 DUP1 DUP11 ADD SWAP2 SWAP1 SWAP2 MSTORE PUSH1 0x7 DUP7 ADD SLOAD PUSH1 0xE0 DUP11 ADD MSTORE DUP8 MLOAD SWAP1 DUP2 ADD DUP9 MSTORE PUSH1 0x8 DUP7 ADD SLOAD DUP6 AND DUP2 MSTORE PUSH1 0x9 DUP7 ADD SLOAD DUP6 AND DUP2 DUP9 ADD MSTORE PUSH1 0xA DUP7 ADD SLOAD DUP1 DUP7 AND DUP3 DUP11 ADD MSTORE PUSH2 0xFFFF PUSH1 0x1 PUSH1 0xA0 SHL SWAP2 DUP3 SWAP1 DIV DUP2 AND SWAP6 DUP4 ADD SWAP6 SWAP1 SWAP6 MSTORE PUSH1 0xB SWAP1 SWAP7 ADD SLOAD SWAP5 DUP6 AND SWAP3 DUP2 ADD SWAP3 SWAP1 SWAP3 MSTORE SWAP4 SWAP1 SWAP3 DIV AND SWAP2 DUP2 ADD SWAP2 SWAP1 SWAP2 MSTORE PUSH2 0x100 DUP5 ADD MSTORE SWAP1 MLOAD SWAP2 SWAP3 POP PUSH1 0x0 SWAP2 PUSH2 0x5D0 SWAP2 CALLER SWAP2 ADD PUSH1 0x60 SWAP2 SWAP1 SWAP2 SHL PUSH1 0x1 PUSH1 0x1 PUSH1 0x60 SHL SUB NOT AND DUP2 MSTORE PUSH1 0x14 ADD SWAP1 JUMP JUMPDEST PUSH1 0x40 MLOAD PUSH1 0x20 DUP2 DUP4 SUB SUB DUP2 MSTORE SWAP1 PUSH1 0x40 MSTORE DUP1 MLOAD SWAP1 PUSH1 0x20 ADD KECCAK256 SWAP1 POP PUSH1 0x0 DUP1 SHL DUP3 PUSH1 0xC0 ADD MLOAD EQ PUSH2 0x65D JUMPI PUSH2 0x605 DUP4 DUP4 PUSH1 0xC0 ADD MLOAD DUP4 PUSH2 0x2890 JUMP JUMPDEST PUSH2 0x65D JUMPI PUSH1 0x40 MLOAD PUSH3 0x461BCD PUSH1 0xE5 SHL DUP2 MSTORE PUSH1 0x20 PUSH1 0x4 DUP3 ADD MSTORE PUSH1 0x24 DUP1 DUP3 ADD MSTORE PUSH32 0x6269646465722073686F756C6420626520612077686974656C69737465642042 PUSH1 0x44 DUP3 ADD MSTORE PUSH4 0x3ABCB2B9 PUSH1 0xE1 SHL PUSH1 0x64 DUP3 ADD MSTORE PUSH1 0x84 ADD PUSH2 0x4A8 JUMP JUMPDEST PUSH1 0xE0 DUP3 ADD MLOAD ISZERO PUSH2 0x6D1 JUMPI PUSH2 0x676 DUP4 DUP4 PUSH1 0xE0 ADD MLOAD DUP4 PUSH2 0x2890 JUMP JUMPDEST ISZERO PUSH2 0x6D1 JUMPI PUSH1 0x40 MLOAD PUSH3 0x461BCD PUSH1 0xE5 SHL DUP2 MSTORE PUSH1 0x20 PUSH1 0x4 DUP3 ADD MSTORE PUSH1 0x25 PUSH1 0x24 DUP3 ADD MSTORE PUSH32 0x796F7520617265206265656E20626C61636B6C69737465642066726F6D206269 PUSH1 0x44 DUP3 ADD MSTORE PUSH5 0x6464696E67 PUSH1 0xD8 SHL PUSH1 0x64 DUP3 ADD MSTORE PUSH1 0x84 ADD PUSH2 0x4A8 JUMP JUMPDEST PUSH1 0x8 DUP7 DUP7 PUSH1 0x40 MLOAD PUSH2 0x6E3 SWAP3 SWAP2 SWAP1 PUSH2 0x399D JUMP JUMPDEST SWAP1 DUP2 MSTORE PUSH1 0x40 MLOAD SWAP1 DUP2 SWAP1 SUB PUSH1 0x20 ADD SWAP1 KECCAK256 SLOAD PUSH1 0xFF AND PUSH2 0x712 JUMPI PUSH1 0x40 MLOAD PUSH3 0x461BCD PUSH1 0xE5 SHL DUP2 MSTORE PUSH1 0x4 ADD PUSH2 0x4A8 SWAP1 PUSH2 0x39AD JUMP JUMPDEST PUSH1 0x0 PUSH1 0x7 DUP8 DUP8 PUSH1 0x40 MLOAD PUSH2 0x726 SWAP3 SWAP2 SWAP1 PUSH2 0x399D JUMP JUMPDEST SWAP1 DUP2 MSTORE PUSH1 0x40 DUP1 MLOAD PUSH1 0x20 SWAP3 DUP2 SWAP1 SUB DUP4 ADD DUP2 KECCAK256 PUSH1 0x80 DUP3 ADD DUP4 MSTORE DUP1 SLOAD PUSH4 0xFFFFFFFF DUP1 DUP3 AND DUP5 MSTORE PUSH1 0x1 PUSH1 0x20 SHL SWAP1 SWAP2 DIV AND SWAP4 DUP3 ADD SWAP4 SWAP1 SWAP4 MSTORE DUP2 MLOAD DUP1 DUP4 ADD DUP1 DUP5 MSTORE SWAP2 SWAP4 SWAP3 DUP5 ADD SWAP2 PUSH1 0x1 DUP5 ADD SWAP1 PUSH1 0x2 SWAP1 DUP3 DUP5 JUMPDEST DUP2 SLOAD PUSH1 0x1 PUSH1 0x1 PUSH1 0xA0 SHL SUB AND DUP2 MSTORE PUSH1 0x1 SWAP1 SWAP2 ADD SWAP1 PUSH1 0x20 ADD DUP1 DUP4 GT PUSH2 0x772 JUMPI POP POP POP SWAP2 DUP4 MSTORE POP POP PUSH1 0x40 DUP1 MLOAD DUP1 DUP3 ADD SWAP2 DUP3 SWAP1 MSTORE PUSH1 0x20 SWAP1 SWAP3 ADD SWAP2 SWAP1 PUSH1 0x3 DUP5 ADD SWAP1 PUSH1 0x2 SWAP1 DUP3 DUP5 JUMPDEST DUP2 SLOAD DUP2 MSTORE PUSH1 0x20 ADD SWAP1 PUSH1 0x1 ADD SWAP1 DUP1 DUP4 GT PUSH2 0x7B4 JUMPI POP POP POP POP POP DUP2 MSTORE POP POP SWAP1 POP TIMESTAMP DUP2 PUSH1 0x0 ADD MLOAD PUSH4 0xFFFFFFFF AND GT ISZERO PUSH2 0x82A JUMPI PUSH1 0x40 MLOAD PUSH3 0x461BCD PUSH1 0xE5 SHL DUP2 MSTORE PUSH1 0x20 PUSH1 0x4 DUP3 ADD MSTORE PUSH1 0x1B PUSH1 0x24 DUP3 ADD MSTORE PUSH27 0x1D1A1948185D58DD1A5BDB881A185CC81B9BDD081CDD185C9D1959 PUSH1 0x2A SHL PUSH1 0x44 DUP3 ADD MSTORE PUSH1 0x64 ADD PUSH2 0x4A8 JUMP JUMPDEST DUP3 PUSH1 0x80 ADD MLOAD DUP6 LT ISZERO DUP1 ISZERO PUSH2 0x845 JUMPI POP PUSH1 0x60 DUP2 ADD MLOAD PUSH1 0x20 ADD MLOAD DUP6 GT JUMPDEST ISZERO PUSH2 0x97A JUMPI PUSH1 0xA0 DUP4 ADD MLOAD PUSH1 0x1 PUSH1 0x1 PUSH1 0xA0 SHL SUB AND ISZERO PUSH2 0x91F JUMPI PUSH1 0xA0 DUP4 ADD MLOAD PUSH1 0x40 MLOAD PUSH4 0x70A08231 PUSH1 0xE0 SHL DUP2 MSTORE DUP7 SWAP2 PUSH1 0x1 PUSH1 0x1 PUSH1 0xA0 SHL SUB AND SWAP1 PUSH4 0x70A08231 SWAP1 PUSH2 0x88F SWAP1 CALLER SWAP1 PUSH1 0x4 ADD PUSH2 0x3848 JUMP JUMPDEST PUSH1 0x20 PUSH1 0x40 MLOAD DUP1 DUP4 SUB DUP2 DUP7 GAS STATICCALL ISZERO DUP1 ISZERO PUSH2 0x8AC JUMPI RETURNDATASIZE PUSH1 0x0 DUP1 RETURNDATACOPY RETURNDATASIZE PUSH1 0x0 REVERT JUMPDEST POP POP POP POP PUSH1 0x40 MLOAD RETURNDATASIZE PUSH1 0x1F NOT PUSH1 0x1F DUP3 ADD AND DUP3 ADD DUP1 PUSH1 0x40 MSTORE POP DUP2 ADD SWAP1 PUSH2 0x8D0 SWAP2 SWAP1 PUSH2 0x39ED JUMP JUMPDEST LT ISZERO PUSH2 0x91A JUMPI PUSH1 0x40 MLOAD PUSH3 0x461BCD PUSH1 0xE5 SHL DUP2 MSTORE PUSH1 0x20 PUSH1 0x4 DUP3 ADD MSTORE PUSH1 0x19 PUSH1 0x24 DUP3 ADD MSTORE PUSH25 0x1A5B9CDD59999A58DA595B9D08115C98CC8C08185B5BDD5B9D PUSH1 0x3A SHL PUSH1 0x44 DUP3 ADD MSTORE PUSH1 0x64 ADD PUSH2 0x4A8 JUMP JUMPDEST PUSH2 0x9D6 JUMP JUMPDEST PUSH1 0xA0 DUP4 ADD MLOAD PUSH1 0x1 PUSH1 0x1 PUSH1 0xA0 SHL SUB AND PUSH2 0x91A JUMPI DUP5 CALLVALUE LT ISZERO PUSH2 0x91A JUMPI PUSH1 0x40 MLOAD PUSH3 0x461BCD PUSH1 0xE5 SHL DUP2 MSTORE PUSH1 0x20 PUSH1 0x4 DUP3 ADD MSTORE PUSH1 0x16 PUSH1 0x24 DUP3 ADD MSTORE PUSH22 0x1A5B9CDD59999A58D95B9D08115D1A08185B5BDD5B9D PUSH1 0x52 SHL PUSH1 0x44 DUP3 ADD MSTORE PUSH1 0x64 ADD PUSH2 0x4A8 JUMP JUMPDEST PUSH1 0x40 MLOAD PUSH3 0x461BCD PUSH1 0xE5 SHL DUP2 MSTORE PUSH1 0x20 PUSH1 0x4 DUP3 ADD MSTORE PUSH1 0x2B PUSH1 0x24 DUP3 ADD MSTORE PUSH32 0x70726F766964652062696420616D6F756E7420686967686572207468616E2070 PUSH1 0x44 DUP3 ADD MSTORE PUSH11 0x1C995D9A5BDD5CC8189A59 PUSH1 0xAA SHL PUSH1 0x64 DUP3 ADD MSTORE PUSH1 0x84 ADD PUSH2 0x4A8 JUMP JUMPDEST PUSH1 0x60 DUP2 ADD MLOAD MLOAD ISZERO PUSH2 0xA06 JUMPI PUSH1 0x40 DUP2 ADD MLOAD MLOAD PUSH1 0xA0 DUP5 ADD MLOAD PUSH1 0x60 DUP4 ADD MLOAD PUSH2 0xA06 SWAP3 ADDRESS SWAP3 SWAP1 SWAP2 PUSH1 0x0 JUMPDEST PUSH1 0x20 MUL ADD MLOAD PUSH2 0x28A8 JUMP JUMPDEST PUSH1 0x40 DUP2 ADD MLOAD PUSH1 0x20 DUP1 DUP3 ADD MLOAD PUSH1 0x1 PUSH1 0x1 PUSH1 0xA0 SHL SUB AND SWAP1 SWAP2 MSTORE PUSH1 0x60 DUP3 ADD MLOAD DUP1 DUP3 ADD MLOAD SWAP1 MSTORE DUP2 ADD MLOAD TIMESTAMP PUSH4 0xFFFFFFFF SWAP1 SWAP2 AND GT ISZERO PUSH2 0xA6A JUMPI PUSH1 0x40 DUP2 ADD DUP1 MLOAD CALLER PUSH1 0x20 SWAP2 DUP3 ADD MSTORE PUSH1 0x60 DUP4 ADD DUP1 MLOAD DUP3 ADD DUP9 SWAP1 MSTORE SWAP2 MLOAD ADD MLOAD PUSH1 0xA0 DUP6 ADD MLOAD SWAP2 MLOAD PUSH2 0xA6A SWAP3 ADDRESS SWAP2 PUSH1 0x1 PUSH2 0x9FC JUMP JUMPDEST DUP5 CALLER PUSH1 0x1 PUSH1 0x1 PUSH1 0xA0 SHL SUB AND DUP9 DUP9 PUSH1 0x40 MLOAD PUSH2 0xA85 SWAP3 SWAP2 SWAP1 PUSH2 0x399D JUMP JUMPDEST PUSH1 0x40 MLOAD SWAP1 DUP2 SWAP1 SUB DUP2 KECCAK256 SWAP1 PUSH32 0x1E0AB2A3D99525C0AC6AD4AF8309C0C64E02621F17B6333695C6EE19235FEDAC SWAP1 PUSH1 0x0 SWAP1 LOG4 POP POP PUSH1 0x1 PUSH1 0x0 SSTORE POP POP POP POP POP JUMP JUMPDEST PUSH1 0x0 PUSH1 0x1 PUSH1 0x1 PUSH1 0xE0 SHL SUB NOT DUP3 AND PUSH4 0x2A9F3ABF PUSH1 0xE1 SHL EQ DUP1 PUSH2 0xAF4 JUMPI POP PUSH4 0x1FFC9A7 PUSH1 0xE0 SHL PUSH1 0x1 PUSH1 0x1 PUSH1 0xE0 SHL SUB NOT DUP4 AND EQ JUMPDEST SWAP3 SWAP2 POP POP JUMP JUMPDEST CALLER PUSH2 0xB03 PUSH2 0x132F JUMP JUMPDEST PUSH1 0x1 PUSH1 0x1 PUSH1 0xA0 SHL SUB AND EQ DUP1 PUSH2 0xB1E JUMPI POP PUSH2 0xB1E PUSH1 0x2 CALLER PUSH2 0x2989 JUMP JUMPDEST PUSH2 0xB3A JUMPI PUSH1 0x40 MLOAD PUSH3 0x461BCD PUSH1 0xE5 SHL DUP2 MSTORE PUSH1 0x4 ADD PUSH2 0x4A8 SWAP1 PUSH2 0x3A06 JUMP JUMPDEST PUSH1 0x8 DUP4 DUP4 PUSH1 0x40 MLOAD PUSH2 0xB4C SWAP3 SWAP2 SWAP1 PUSH2 0x399D JUMP JUMPDEST SWAP1 DUP2 MSTORE PUSH1 0x40 MLOAD SWAP1 DUP2 SWAP1 SUB PUSH1 0x20 ADD SWAP1 KECCAK256 SLOAD PUSH1 0xFF AND PUSH2 0xB7B JUMPI PUSH1 0x40 MLOAD PUSH3 0x461BCD PUSH1 0xE5 SHL DUP2 MSTORE PUSH1 0x4 ADD PUSH2 0x4A8 SWAP1 PUSH2 0x39AD JUMP JUMPDEST TIMESTAMP PUSH1 0x7 DUP5 DUP5 PUSH1 0x40 MLOAD PUSH2 0xB8E SWAP3 SWAP2 SWAP1 PUSH2 0x399D JUMP JUMPDEST SWAP1 DUP2 MSTORE PUSH1 0x40 MLOAD SWAP1 DUP2 SWAP1 SUB PUSH1 0x20 ADD SWAP1 KECCAK256 SLOAD PUSH4 0xFFFFFFFF AND LT ISZERO DUP1 PUSH2 0xBD6 JUMPI POP PUSH1 0x7 DUP4 DUP4 PUSH1 0x40 MLOAD PUSH2 0xBBE SWAP3 SWAP2 SWAP1 PUSH2 0x399D JUMP JUMPDEST SWAP1 DUP2 MSTORE PUSH1 0x40 MLOAD SWAP1 DUP2 SWAP1 SUB PUSH1 0x20 ADD SWAP1 KECCAK256 PUSH1 0x3 ADD PUSH1 0x1 ADD SLOAD ISZERO JUMPDEST PUSH2 0xBF2 JUMPI PUSH1 0x40 MLOAD PUSH3 0x461BCD PUSH1 0xE5 SHL DUP2 MSTORE PUSH1 0x4 ADD PUSH2 0x4A8 SWAP1 PUSH2 0x3A4A JUMP JUMPDEST DUP1 PUSH1 0x7 DUP5 DUP5 PUSH1 0x40 MLOAD PUSH2 0xC05 SWAP3 SWAP2 SWAP1 PUSH2 0x399D JUMP JUMPDEST SWAP1 DUP2 MSTORE PUSH1 0x40 MLOAD SWAP1 DUP2 SWAP1 SUB PUSH1 0x20 ADD SWAP1 KECCAK256 DUP1 SLOAD PUSH4 0xFFFFFFFF SWAP3 SWAP1 SWAP3 AND PUSH1 0x1 PUSH1 0x20 SHL MUL PUSH4 0xFFFFFFFF PUSH1 0x20 SHL NOT SWAP1 SWAP3 AND SWAP2 SWAP1 SWAP2 OR SWAP1 SSTORE POP POP POP JUMP JUMPDEST CALLER PUSH2 0xC45 PUSH2 0x132F JUMP JUMPDEST PUSH1 0x1 PUSH1 0x1 PUSH1 0xA0 SHL SUB AND EQ DUP1 PUSH2 0xC60 JUMPI POP PUSH2 0xC60 PUSH1 0x2 CALLER PUSH2 0x2989 JUMP JUMPDEST PUSH2 0xC7C JUMPI PUSH1 0x40 MLOAD PUSH3 0x461BCD PUSH1 0xE5 SHL DUP2 MSTORE PUSH1 0x4 ADD PUSH2 0x4A8 SWAP1 PUSH2 0x3A06 JUMP JUMPDEST PUSH1 0x8 DUP4 DUP4 PUSH1 0x40 MLOAD PUSH2 0xC8E SWAP3 SWAP2 SWAP1 PUSH2 0x399D JUMP JUMPDEST SWAP1 DUP2 MSTORE PUSH1 0x40 MLOAD SWAP1 DUP2 SWAP1 SUB PUSH1 0x20 ADD SWAP1 KECCAK256 SLOAD PUSH1 0xFF AND PUSH2 0xCBD JUMPI PUSH1 0x40 MLOAD PUSH3 0x461BCD PUSH1 0xE5 SHL DUP2 MSTORE PUSH1 0x4 ADD PUSH2 0x4A8 SWAP1 PUSH2 0x39AD JUMP JUMPDEST TIMESTAMP PUSH1 0x7 DUP5 DUP5 PUSH1 0x40 MLOAD PUSH2 0xCD0 SWAP3 SWAP2 SWAP1 PUSH2 0x399D JUMP JUMPDEST SWAP1 DUP2 MSTORE PUSH1 0x40 MLOAD SWAP1 DUP2 SWAP1 SUB PUSH1 0x20 ADD SWAP1 KECCAK256 SLOAD PUSH4 0xFFFFFFFF AND LT ISZERO DUP1 PUSH2 0xD18 JUMPI POP PUSH1 0x7 DUP4 DUP4 PUSH1 0x40 MLOAD PUSH2 0xD00 SWAP3 SWAP2 SWAP1 PUSH2 0x399D JUMP JUMPDEST SWAP1 DUP2 MSTORE PUSH1 0x40 MLOAD SWAP1 DUP2 SWAP1 SUB PUSH1 0x20 ADD SWAP1 KECCAK256 PUSH1 0x3 ADD PUSH1 0x1 ADD SLOAD ISZERO JUMPDEST PUSH2 0xD34 JUMPI PUSH1 0x40 MLOAD PUSH3 0x461BCD PUSH1 0xE5 SHL DUP2 MSTORE PUSH1 0x4 ADD PUSH2 0x4A8 SWAP1 PUSH2 0x3A4A JUMP JUMPDEST DUP1 PUSH1 0x6 DUP5 DUP5 PUSH1 0x40 MLOAD PUSH2 0xD47 SWAP3 SWAP2 SWAP1 PUSH2 0x399D JUMP JUMPDEST SWAP1 DUP2 MSTORE PUSH1 0x40 MLOAD SWAP1 DUP2 SWAP1 SUB PUSH1 0x20 ADD SWAP1 KECCAK256 PUSH1 0x4 ADD SSTORE POP POP POP JUMP JUMPDEST PUSH1 0x0 DUP2 PUSH1 0x1 PUSH1 0x1 PUSH1 0xA0 SHL SUB AND PUSH2 0xD73 PUSH2 0x132F JUMP JUMPDEST PUSH1 0x1 PUSH1 0x1 PUSH1 0xA0 SHL SUB AND EQ DUP1 PUSH2 0xAF4 JUMPI POP PUSH2 0xAF4 PUSH1 0x2 DUP4 PUSH2 0x2989 JUMP JUMPDEST CALLER PUSH2 0xD97 PUSH2 0x132F JUMP JUMPDEST PUSH1 0x1 PUSH1 0x1 PUSH1 0xA0 SHL SUB AND EQ DUP1 PUSH2 0xDB2 JUMPI POP PUSH2 0xDB2 PUSH1 0x2 CALLER PUSH2 0x2989 JUMP JUMPDEST PUSH2 0xDCE JUMPI PUSH1 0x40 MLOAD PUSH3 0x461BCD PUSH1 0xE5 SHL DUP2 MSTORE PUSH1 0x4 ADD PUSH2 0x4A8 SWAP1 PUSH2 0x3A06 JUMP JUMPDEST PUSH1 0x8 DUP4 DUP4 PUSH1 0x40 MLOAD PUSH2 0xDE0 SWAP3 SWAP2 SWAP1 PUSH2 0x399D JUMP JUMPDEST SWAP1 DUP2 MSTORE PUSH1 0x40 MLOAD SWAP1 DUP2 SWAP1 SUB PUSH1 0x20 ADD SWAP1 KECCAK256 SLOAD PUSH1 0xFF AND PUSH2 0xE0F JUMPI PUSH1 0x40 MLOAD PUSH3 0x461BCD PUSH1 0xE5 SHL DUP2 MSTORE PUSH1 0x4 ADD PUSH2 0x4A8 SWAP1 PUSH2 0x39AD JUMP JUMPDEST TIMESTAMP PUSH1 0x7 DUP5 DUP5 PUSH1 0x40 MLOAD PUSH2 0xE22 SWAP3 SWAP2 SWAP1 PUSH2 0x399D JUMP JUMPDEST SWAP1 DUP2 MSTORE PUSH1 0x40 MLOAD SWAP1 DUP2 SWAP1 SUB PUSH1 0x20 ADD SWAP1 KECCAK256 SLOAD PUSH4 0xFFFFFFFF AND LT ISZERO DUP1 PUSH2 0xE6A JUMPI POP PUSH1 0x7 DUP4 DUP4 PUSH1 0x40 MLOAD PUSH2 0xE52 SWAP3 SWAP2 SWAP1 PUSH2 0x399D JUMP JUMPDEST SWAP1 DUP2 MSTORE PUSH1 0x40 MLOAD SWAP1 DUP2 SWAP1 SUB PUSH1 0x20 ADD SWAP1 KECCAK256 PUSH1 0x3 ADD PUSH1 0x1 ADD SLOAD ISZERO JUMPDEST PUSH2 0xE86 JUMPI PUSH1 0x40 MLOAD PUSH3 0x461BCD PUSH1 0xE5 SHL DUP2 MSTORE PUSH1 0x4 ADD PUSH2 0x4A8 SWAP1 PUSH2 0x3A4A JUMP JUMPDEST DUP1 PUSH1 0x7 DUP5 DUP5 PUSH1 0x40 MLOAD PUSH2 0xE99 SWAP3 SWAP2 SWAP1 PUSH2 0x399D JUMP JUMPDEST SWAP1 DUP2 MSTORE PUSH1 0x40 MLOAD SWAP1 DUP2 SWAP1 SUB PUSH1 0x20 ADD SWAP1 KECCAK256 DUP1 SLOAD PUSH4 0xFFFFFFFF SWAP3 SWAP1 SWAP3 AND PUSH4 0xFFFFFFFF NOT SWAP1 SWAP3 AND SWAP2 SWAP1 SWAP2 OR SWAP1 SSTORE POP POP POP JUMP JUMPDEST CALLER PUSH2 0xED0 PUSH2 0x132F JUMP JUMPDEST PUSH1 0x1 PUSH1 0x1 PUSH1 0xA0 SHL SUB AND EQ PUSH2 0xEF6 JUMPI PUSH1 0x40 MLOAD PUSH3 0x461BCD PUSH1 0xE5 SHL DUP2 MSTORE PUSH1 0x4 ADD PUSH2 0x4A8 SWAP1 PUSH2 0x3A8D JUMP JUMPDEST PUSH2 0xF01 PUSH1 0x2 DUP3 PUSH2 0x2989 JUMP JUMPDEST ISZERO PUSH2 0xF49 JUMPI PUSH1 0x40 MLOAD CALLER SWAP1 PUSH1 0x1 PUSH1 0x1 PUSH1 0xA0 SHL SUB DUP4 AND SWAP1 PUSH32 0x7C0C3C84C67C85FCAC635147348BFE374C24A1A93D0366D1CFE9D8853CBF89D5 SWAP1 PUSH1 0x0 SWAP1 LOG3 PUSH2 0xF47 PUSH1 0x2 DUP3 PUSH2 0x29AA JUMP JUMPDEST POP JUMPDEST POP JUMP JUMPDEST PUSH1 0x60 PUSH2 0xF58 PUSH1 0x2 PUSH2 0x29BF JUMP JUMPDEST PUSH1 0x1 PUSH1 0x1 PUSH1 0x40 SHL SUB DUP2 GT ISZERO PUSH2 0xF6F JUMPI PUSH2 0xF6F PUSH2 0x33FB JUMP JUMPDEST PUSH1 0x40 MLOAD SWAP1 DUP1 DUP3 MSTORE DUP1 PUSH1 0x20 MUL PUSH1 0x20 ADD DUP3 ADD PUSH1 0x40 MSTORE DUP1 ISZERO PUSH2 0xF98 JUMPI DUP2 PUSH1 0x20 ADD PUSH1 0x20 DUP3 MUL DUP1 CALLDATASIZE DUP4 CALLDATACOPY ADD SWAP1 POP JUMPDEST POP SWAP1 POP PUSH1 0x0 JUMPDEST PUSH2 0xFA8 PUSH1 0x2 PUSH2 0x29BF JUMP JUMPDEST DUP2 LT ISZERO PUSH2 0xFF6 JUMPI PUSH2 0xFBA PUSH1 0x2 DUP3 PUSH2 0x29C9 JUMP JUMPDEST DUP3 DUP3 DUP2 MLOAD DUP2 LT PUSH2 0xFCC JUMPI PUSH2 0xFCC PUSH2 0x39D7 JUMP JUMPDEST PUSH1 0x1 PUSH1 0x1 PUSH1 0xA0 SHL SUB SWAP1 SWAP3 AND PUSH1 0x20 SWAP3 DUP4 MUL SWAP2 SWAP1 SWAP2 ADD SWAP1 SWAP2 ADD MSTORE DUP1 PUSH2 0xFEE DUP2 PUSH2 0x3AD8 JUMP JUMPDEST SWAP2 POP POP PUSH2 0xF9E JUMP JUMPDEST POP SWAP1 JUMP JUMPDEST CALLER PUSH2 0x1003 PUSH2 0x132F JUMP JUMPDEST PUSH1 0x1 PUSH1 0x1 PUSH1 0xA0 SHL SUB AND EQ DUP1 PUSH2 0x101E JUMPI POP PUSH2 0x101E PUSH1 0x2 CALLER PUSH2 0x2989 JUMP JUMPDEST PUSH2 0x103A JUMPI PUSH1 0x40 MLOAD PUSH3 0x461BCD PUSH1 0xE5 SHL DUP2 MSTORE PUSH1 0x4 ADD PUSH2 0x4A8 SWAP1 PUSH2 0x3A06 JUMP JUMPDEST PUSH1 0x40 DUP1 MLOAD PUSH1 0x0 DUP1 DUP3 MSTORE PUSH1 0x20 DUP3 ADD SWAP3 DUP4 SWAP1 MSTORE SWAP2 CALLER SWAP2 DUP3 SWAP2 SELFBALANCE SWAP2 PUSH2 0x105B SWAP2 PUSH2 0x3B15 JUMP JUMPDEST PUSH1 0x0 PUSH1 0x40 MLOAD DUP1 DUP4 SUB DUP2 DUP6 DUP8 GAS CALL SWAP3 POP POP POP RETURNDATASIZE DUP1 PUSH1 0x0 DUP2 EQ PUSH2 0x1098 JUMPI PUSH1 0x40 MLOAD SWAP2 POP PUSH1 0x1F NOT PUSH1 0x3F RETURNDATASIZE ADD AND DUP3 ADD PUSH1 0x40 MSTORE RETURNDATASIZE DUP3 MSTORE RETURNDATASIZE PUSH1 0x0 PUSH1 0x20 DUP5 ADD RETURNDATACOPY PUSH2 0x109D JUMP JUMPDEST PUSH1 0x60 SWAP2 POP JUMPDEST POP POP DUP1 SWAP3 POP POP DUP2 PUSH2 0xF47 JUMPI PUSH1 0x40 MLOAD PUSH3 0x461BCD PUSH1 0xE5 SHL DUP2 MSTORE PUSH1 0x20 PUSH1 0x4 DUP3 ADD MSTORE PUSH1 0xF PUSH1 0x24 DUP3 ADD MSTORE PUSH15 0x1DDA5D1A191C985DC819985A5B1959 PUSH1 0x8A SHL PUSH1 0x44 DUP3 ADD MSTORE PUSH1 0x64 ADD PUSH2 0x4A8 JUMP JUMPDEST CALLER PUSH2 0x10EB PUSH2 0x132F JUMP JUMPDEST PUSH1 0x1 PUSH1 0x1 PUSH1 0xA0 SHL SUB AND EQ DUP1 PUSH2 0x1106 JUMPI POP PUSH2 0x1106 PUSH1 0x2 CALLER PUSH2 0x2989 JUMP JUMPDEST PUSH2 0x1122 JUMPI PUSH1 0x40 MLOAD PUSH3 0x461BCD PUSH1 0xE5 SHL DUP2 MSTORE PUSH1 0x4 ADD PUSH2 0x4A8 SWAP1 PUSH2 0x3A06 JUMP JUMPDEST PUSH1 0x8 DUP4 DUP4 PUSH1 0x40 MLOAD PUSH2 0x1134 SWAP3 SWAP2 SWAP1 PUSH2 0x399D JUMP JUMPDEST SWAP1 DUP2 MSTORE PUSH1 0x40 MLOAD SWAP1 DUP2 SWAP1 SUB PUSH1 0x20 ADD SWAP1 KECCAK256 SLOAD PUSH1 0xFF AND PUSH2 0x1163 JUMPI PUSH1 0x40 MLOAD PUSH3 0x461BCD PUSH1 0xE5 SHL DUP2 MSTORE PUSH1 0x4 ADD PUSH2 0x4A8 SWAP1 PUSH2 0x39AD JUMP JUMPDEST TIMESTAMP PUSH1 0x7 DUP5 DUP5 PUSH1 0x40 MLOAD PUSH2 0x1176 SWAP3 SWAP2 SWAP1 PUSH2 0x399D JUMP JUMPDEST SWAP1 DUP2 MSTORE PUSH1 0x40 MLOAD SWAP1 DUP2 SWAP1 SUB PUSH1 0x20 ADD SWAP1 KECCAK256 SLOAD PUSH4 0xFFFFFFFF AND LT ISZERO DUP1 PUSH2 0x11BE JUMPI POP PUSH1 0x7 DUP4 DUP4 PUSH1 0x40 MLOAD PUSH2 0x11A6 SWAP3 SWAP2 SWAP1 PUSH2 0x399D JUMP JUMPDEST SWAP1 DUP2 MSTORE PUSH1 0x40 MLOAD SWAP1 DUP2 SWAP1 SUB PUSH1 0x20 ADD SWAP1 KECCAK256 PUSH1 0x3 ADD PUSH1 0x1 ADD SLOAD ISZERO JUMPDEST PUSH2 0x11DA JUMPI PUSH1 0x40 MLOAD PUSH3 0x461BCD PUSH1 0xE5 SHL DUP2 MSTORE PUSH1 0x4 ADD PUSH2 0x4A8 SWAP1 PUSH2 0x3A4A JUMP JUMPDEST PUSH1 0x1 PUSH1 0x1 PUSH1 0xA0 SHL SUB DUP2 AND PUSH2 0x11ED JUMPI PUSH1 0x0 DUP1 REVERT JUMPDEST DUP1 PUSH1 0x6 DUP5 DUP5 PUSH1 0x40 MLOAD PUSH2 0x1200 SWAP3 SWAP2 SWAP1 PUSH2 0x399D JUMP JUMPDEST SWAP1 DUP2 MSTORE PUSH1 0x40 MLOAD SWAP1 DUP2 SWAP1 SUB PUSH1 0x20 ADD SWAP1 KECCAK256 PUSH1 0x8 ADD DUP1 SLOAD PUSH1 0x1 PUSH1 0x1 PUSH1 0xA0 SHL SUB SWAP3 SWAP1 SWAP3 AND PUSH1 0x1 PUSH1 0x1 PUSH1 0xA0 SHL SUB NOT SWAP1 SWAP3 AND SWAP2 SWAP1 SWAP2 OR SWAP1 SSTORE POP POP POP JUMP JUMPDEST CALLER PUSH2 0x1240 PUSH2 0x132F JUMP JUMPDEST PUSH1 0x1 PUSH1 0x1 PUSH1 0xA0 SHL SUB AND EQ PUSH2 0x1266 JUMPI PUSH1 0x40 MLOAD PUSH3 0x461BCD PUSH1 0xE5 SHL DUP2 MSTORE PUSH1 0x4 ADD PUSH2 0x4A8 SWAP1 PUSH2 0x3A8D JUMP JUMPDEST PUSH2 0x1271 PUSH1 0x2 DUP3 PUSH2 0x2989 JUMP JUMPDEST PUSH2 0xF49 JUMPI PUSH1 0x40 MLOAD CALLER SWAP1 PUSH1 0x1 PUSH1 0x1 PUSH1 0xA0 SHL SUB DUP4 AND SWAP1 PUSH32 0x7E1A1A08D52E4BA0E21554733D66165FD5151F99460116223D9E3A608EEC5CB1 SWAP1 PUSH1 0x0 SWAP1 LOG3 PUSH2 0xF47 PUSH1 0x2 DUP3 PUSH2 0x29D5 JUMP JUMPDEST CALLER PUSH2 0x12BF PUSH2 0x132F JUMP JUMPDEST PUSH1 0x1 PUSH1 0x1 PUSH1 0xA0 SHL SUB AND EQ PUSH2 0x12E5 JUMPI PUSH1 0x40 MLOAD PUSH3 0x461BCD PUSH1 0xE5 SHL DUP2 MSTORE PUSH1 0x4 ADD PUSH2 0x4A8 SWAP1 PUSH2 0x3A8D JUMP JUMPDEST PUSH1 0x1 SLOAD PUSH1 0x40 MLOAD PUSH1 0x0 SWAP2 PUSH1 0x1 PUSH1 0x1 PUSH1 0xA0 SHL SUB AND SWAP1 PUSH32 0x8BE0079C531659141344CD1FD0A4F28419497F9722A3DAAFE3B4186F6B6457E0 SWAP1 DUP4 SWAP1 LOG3 PUSH1 0x1 DUP1 SLOAD PUSH1 0x1 PUSH1 0x1 PUSH1 0xA0 SHL SUB NOT AND SWAP1 SSTORE JUMP JUMPDEST PUSH1 0x1 SLOAD PUSH1 0x1 PUSH1 0x1 PUSH1 0xA0 SHL SUB AND SWAP1 JUMP JUMPDEST CALLER PUSH2 0x1347 PUSH2 0x132F JUMP JUMPDEST PUSH1 0x1 PUSH1 0x1 PUSH1 0xA0 SHL SUB AND EQ DUP1 PUSH2 0x1362 JUMPI POP PUSH2 0x1362 PUSH1 0x2 CALLER PUSH2 0x2989 JUMP JUMPDEST PUSH2 0x137E JUMPI PUSH1 0x40 MLOAD PUSH3 0x461BCD PUSH1 0xE5 SHL DUP2 MSTORE PUSH1 0x4 ADD PUSH2 0x4A8 SWAP1 PUSH2 0x3A06 JUMP JUMPDEST PUSH1 0x1 PUSH1 0x1 PUSH1 0xA0 SHL SUB DUP2 AND PUSH2 0x13CF JUMPI PUSH1 0x40 MLOAD PUSH3 0x461BCD PUSH1 0xE5 SHL DUP2 MSTORE PUSH1 0x20 PUSH1 0x4 DUP3 ADD MSTORE PUSH1 0x18 PUSH1 0x24 DUP3 ADD MSTORE PUSH24 0x496E76616C696420506C6174666F726D2041646472657373 PUSH1 0x40 SHL PUSH1 0x44 DUP3 ADD MSTORE PUSH1 0x64 ADD PUSH2 0x4A8 JUMP JUMPDEST PUSH1 0x4 DUP1 SLOAD PUSH1 0x1 PUSH1 0x1 PUSH1 0xA0 SHL SUB NOT AND PUSH1 0x1 PUSH1 0x1 PUSH1 0xA0 SHL SUB SWAP3 SWAP1 SWAP3 AND SWAP2 SWAP1 SWAP2 OR SWAP1 SSTORE JUMP JUMPDEST CALLER PUSH2 0x13FA PUSH2 0x132F JUMP JUMPDEST PUSH1 0x1 PUSH1 0x1 PUSH1 0xA0 SHL SUB AND EQ DUP1 PUSH2 0x1415 JUMPI POP PUSH2 0x1415 PUSH1 0x2 CALLER PUSH2 0x2989 JUMP JUMPDEST PUSH2 0x1431 JUMPI PUSH1 0x40 MLOAD PUSH3 0x461BCD PUSH1 0xE5 SHL DUP2 MSTORE PUSH1 0x4 ADD PUSH2 0x4A8 SWAP1 PUSH2 0x3A06 JUMP JUMPDEST PUSH1 0x8 DUP2 PUSH1 0x40 MLOAD PUSH2 0x1441 SWAP2 SWAP1 PUSH2 0x3B15 JUMP JUMPDEST SWAP1 DUP2 MSTORE PUSH1 0x40 MLOAD SWAP1 DUP2 SWAP1 SUB PUSH1 0x20 ADD SWAP1 KECCAK256 SLOAD PUSH1 0xFF AND PUSH2 0x1470 JUMPI PUSH1 0x40 MLOAD PUSH3 0x461BCD PUSH1 0xE5 SHL DUP2 MSTORE PUSH1 0x4 ADD PUSH2 0x4A8 SWAP1 PUSH2 0x39AD JUMP JUMPDEST PUSH1 0x6 DUP2 PUSH1 0x40 MLOAD PUSH2 0x1480 SWAP2 SWAP1 PUSH2 0x3B15 JUMP JUMPDEST SWAP1 DUP2 MSTORE PUSH1 0x40 MLOAD SWAP1 DUP2 SWAP1 SUB PUSH1 0x20 ADD DUP2 KECCAK256 DUP1 SLOAD PUSH1 0x1 PUSH1 0x1 PUSH1 0xA0 SHL SUB NOT SWAP1 DUP2 AND DUP3 SSTORE PUSH1 0x0 PUSH1 0x1 DUP4 ADD DUP2 SWAP1 SSTORE PUSH1 0x2 DUP4 ADD DUP2 SWAP1 SSTORE PUSH1 0x3 DUP4 ADD DUP1 SLOAD DUP4 AND SWAP1 SSTORE PUSH1 0x4 DUP4 ADD DUP2 SWAP1 SSTORE PUSH1 0x5 DUP4 ADD DUP1 SLOAD DUP4 AND SWAP1 SSTORE PUSH1 0x6 DUP4 ADD DUP2 SWAP1 SSTORE PUSH1 0x7 DUP4 ADD SSTORE PUSH1 0x8 DUP3 ADD DUP1 SLOAD DUP3 AND SWAP1 SSTORE PUSH1 0x9 DUP3 ADD DUP1 SLOAD SWAP1 SWAP2 AND SWAP1 SSTORE PUSH1 0xA DUP2 ADD DUP1 SLOAD PUSH1 0x1 PUSH1 0x1 PUSH1 0xB0 SHL SUB NOT SWAP1 DUP2 AND SWAP1 SWAP2 SSTORE PUSH1 0xB SWAP1 SWAP2 ADD DUP1 SLOAD SWAP1 SWAP2 AND SWAP1 SSTORE PUSH2 0x1517 SWAP1 DUP3 SWAP1 PUSH2 0x3B15 JUMP JUMPDEST PUSH1 0x40 MLOAD SWAP1 DUP2 SWAP1 SUB DUP2 KECCAK256 SWAP1 PUSH32 0x9E74D4AFC7192C9CC66343B9AFE3321F7B687553671EE143B74FEF984ADD2520 SWAP1 PUSH1 0x0 SWAP1 LOG2 POP JUMP JUMPDEST CALLER PUSH2 0x1553 PUSH2 0x132F JUMP JUMPDEST PUSH1 0x1 PUSH1 0x1 PUSH1 0xA0 SHL SUB AND EQ DUP1 PUSH2 0x156E JUMPI POP PUSH2 0x156E PUSH1 0x2 CALLER PUSH2 0x2989 JUMP JUMPDEST PUSH2 0x158A JUMPI PUSH1 0x40 MLOAD PUSH3 0x461BCD PUSH1 0xE5 SHL DUP2 MSTORE PUSH1 0x4 ADD PUSH2 0x4A8 SWAP1 PUSH2 0x3A06 JUMP JUMPDEST PUSH1 0x2 PUSH1 0x0 SLOAD SUB PUSH2 0x15AC JUMPI PUSH1 0x40 MLOAD PUSH3 0x461BCD PUSH1 0xE5 SHL DUP2 MSTORE PUSH1 0x4 ADD PUSH2 0x4A8 SWAP1 PUSH2 0x3966 JUMP JUMPDEST PUSH1 0x2 PUSH1 0x0 SSTORE PUSH1 0x40 MLOAD PUSH1 0x8 SWAP1 PUSH2 0x15C2 SWAP1 DUP6 SWAP1 PUSH2 0x3B15 JUMP JUMPDEST SWAP1 DUP2 MSTORE PUSH1 0x40 MLOAD SWAP1 DUP2 SWAP1 SUB PUSH1 0x20 ADD SWAP1 KECCAK256 SLOAD PUSH1 0xFF AND PUSH2 0x15F1 JUMPI PUSH1 0x40 MLOAD PUSH3 0x461BCD PUSH1 0xE5 SHL DUP2 MSTORE PUSH1 0x4 ADD PUSH2 0x4A8 SWAP1 PUSH2 0x39AD JUMP JUMPDEST PUSH1 0x0 PUSH1 0x7 DUP5 PUSH1 0x40 MLOAD PUSH2 0x1603 SWAP2 SWAP1 PUSH2 0x3B15 JUMP JUMPDEST SWAP1 DUP2 MSTORE PUSH1 0x40 DUP1 MLOAD PUSH1 0x20 SWAP3 DUP2 SWAP1 SUB DUP4 ADD DUP2 KECCAK256 PUSH1 0x80 DUP3 ADD DUP4 MSTORE DUP1 SLOAD PUSH4 0xFFFFFFFF DUP1 DUP3 AND DUP5 MSTORE PUSH1 0x1 PUSH1 0x20 SHL SWAP1 SWAP2 DIV AND SWAP4 DUP3 ADD SWAP4 SWAP1 SWAP4 MSTORE DUP2 MLOAD DUP1 DUP4 ADD DUP1 DUP5 MSTORE SWAP2 SWAP4 SWAP3 DUP5 ADD SWAP2 PUSH1 0x1 DUP5 ADD SWAP1 PUSH1 0x2 SWAP1 DUP3 DUP5 JUMPDEST DUP2 SLOAD PUSH1 0x1 PUSH1 0x1 PUSH1 0xA0 SHL SUB AND DUP2 MSTORE PUSH1 0x1 SWAP1 SWAP2 ADD SWAP1 PUSH1 0x20 ADD DUP1 DUP4 GT PUSH2 0x164F JUMPI POP POP POP SWAP2 DUP4 MSTORE POP POP PUSH1 0x40 DUP1 MLOAD DUP1 DUP3 ADD SWAP2 DUP3 SWAP1 MSTORE PUSH1 0x20 SWAP1 SWAP3 ADD SWAP2 SWAP1 PUSH1 0x3 DUP5 ADD SWAP1 PUSH1 0x2 SWAP1 DUP3 DUP5 JUMPDEST DUP2 SLOAD DUP2 MSTORE PUSH1 0x20 ADD SWAP1 PUSH1 0x1 ADD SWAP1 DUP1 DUP4 GT PUSH2 0x1691 JUMPI POP POP POP POP POP DUP2 MSTORE POP POP SWAP1 POP PUSH1 0x0 PUSH1 0x6 DUP6 PUSH1 0x40 MLOAD PUSH2 0x16C1 SWAP2 SWAP1 PUSH2 0x3B15 JUMP JUMPDEST SWAP1 DUP2 MSTORE PUSH1 0x40 DUP1 MLOAD SWAP2 DUP3 SWAP1 SUB PUSH1 0x20 SWAP1 DUP2 ADD DUP4 KECCAK256 PUSH2 0x120 DUP5 ADD DUP4 MSTORE DUP1 SLOAD PUSH1 0x1 PUSH1 0x1 PUSH1 0xA0 SHL SUB SWAP1 DUP2 AND DUP6 MSTORE PUSH1 0x1 DUP3 ADD SLOAD DUP6 DUP5 ADD MSTORE PUSH1 0x2 DUP3 ADD SLOAD DUP6 DUP6 ADD MSTORE PUSH1 0x3 DUP3 ADD SLOAD DUP2 AND PUSH1 0x60 DUP1 DUP8 ADD SWAP2 SWAP1 SWAP2 MSTORE PUSH1 0x4 DUP4 ADD SLOAD PUSH1 0x80 DUP1 DUP9 ADD SWAP2 SWAP1 SWAP2 MSTORE PUSH1 0x5 DUP5 ADD SLOAD DUP4 AND PUSH1 0xA0 DUP1 DUP10 ADD SWAP2 SWAP1 SWAP2 MSTORE PUSH1 0x6 DUP6 ADD SLOAD PUSH1 0xC0 DUP1 DUP11 ADD SWAP2 SWAP1 SWAP2 MSTORE PUSH1 0x7 DUP7 ADD SLOAD PUSH1 0xE0 DUP11 ADD MSTORE DUP8 MLOAD SWAP1 DUP2 ADD DUP9 MSTORE PUSH1 0x8 DUP7 ADD SLOAD DUP6 AND DUP2 MSTORE PUSH1 0x9 DUP7 ADD SLOAD DUP6 AND DUP2 DUP9 ADD MSTORE PUSH1 0xA DUP7 ADD SLOAD DUP1 DUP7 AND SWAP9 DUP3 ADD SWAP9 SWAP1 SWAP9 MSTORE PUSH2 0xFFFF PUSH1 0x1 PUSH1 0xA0 SHL SWAP9 DUP10 SWAP1 DIV DUP2 AND SWAP5 DUP3 ADD SWAP5 SWAP1 SWAP5 MSTORE PUSH1 0xB SWAP1 SWAP6 ADD SLOAD SWAP4 DUP5 AND SWAP2 DUP6 ADD SWAP2 SWAP1 SWAP2 MSTORE SWAP5 SWAP1 SWAP2 DIV AND SWAP3 DUP2 ADD SWAP3 SWAP1 SWAP3 MSTORE PUSH2 0x100 DUP4 ADD SWAP2 SWAP1 SWAP2 MSTORE DUP4 ADD MLOAD SWAP1 SWAP2 POP PUSH4 0xFFFFFFFF AND TIMESTAMP LT ISZERO PUSH2 0x1811 JUMPI PUSH1 0x40 MLOAD PUSH3 0x461BCD PUSH1 0xE5 SHL DUP2 MSTORE PUSH1 0x20 PUSH1 0x4 DUP3 ADD MSTORE PUSH1 0x28 PUSH1 0x24 DUP3 ADD MSTORE PUSH32 0x61756374696F6E20686173206E6F742073746172746564206F72206E6F742079 PUSH1 0x44 DUP3 ADD MSTORE PUSH8 0x195D08195B991959 PUSH1 0xC2 SHL PUSH1 0x64 DUP3 ADD MSTORE PUSH1 0x84 ADD PUSH2 0x4A8 JUMP JUMPDEST PUSH1 0x60 DUP3 ADD MLOAD MLOAD ISZERO PUSH2 0x183B JUMPI PUSH1 0x40 DUP3 ADD MLOAD MLOAD PUSH1 0xA0 DUP3 ADD MLOAD PUSH1 0x60 DUP5 ADD MLOAD PUSH2 0x183B SWAP3 ADDRESS SWAP3 SWAP1 SWAP2 PUSH1 0x0 PUSH2 0x9FC JUMP JUMPDEST PUSH1 0x60 DUP3 ADD MLOAD PUSH1 0x20 SWAP1 DUP2 ADD MLOAD PUSH1 0x40 DUP1 DUP6 ADD MLOAD DUP4 ADD MLOAD PUSH1 0xA0 DUP6 ADD MLOAD DUP6 MLOAD SWAP5 DUP7 ADD MLOAD SWAP3 DUP7 ADD MLOAD SWAP4 SWAP5 SWAP2 SWAP4 SWAP1 SWAP3 SWAP1 PUSH2 0x1876 SWAP1 DUP11 SWAP1 DUP5 SWAP1 DUP8 SWAP1 DUP6 SWAP1 PUSH2 0x29EA JUMP JUMPDEST PUSH1 0xA0 DUP7 ADD MLOAD PUSH1 0x1 PUSH1 0x1 PUSH1 0xA0 SHL SUB AND PUSH2 0x18DD JUMPI DUP5 CALLVALUE LT ISZERO PUSH2 0x18D8 JUMPI PUSH1 0x40 MLOAD PUSH3 0x461BCD PUSH1 0xE5 SHL DUP2 MSTORE PUSH1 0x20 PUSH1 0x4 DUP3 ADD MSTORE PUSH1 0x1F PUSH1 0x24 DUP3 ADD MSTORE PUSH32 0x455448206973206C657373207468616E207468652062696420616D6F756E7400 PUSH1 0x44 DUP3 ADD MSTORE PUSH1 0x64 ADD PUSH2 0x4A8 JUMP JUMPDEST PUSH2 0x19AF JUMP JUMPDEST PUSH1 0xA0 DUP7 ADD MLOAD PUSH1 0x1 PUSH1 0x1 PUSH1 0xA0 SHL SUB AND ISZERO PUSH2 0x19AF JUMPI PUSH1 0xA0 DUP7 ADD MLOAD PUSH1 0x40 MLOAD PUSH4 0x70A08231 PUSH1 0xE0 SHL DUP2 MSTORE DUP7 SWAP2 PUSH1 0x1 PUSH1 0x1 PUSH1 0xA0 SHL SUB AND SWAP1 PUSH4 0x70A08231 SWAP1 PUSH2 0x1922 SWAP1 CALLER SWAP1 PUSH1 0x4 ADD PUSH2 0x3848 JUMP JUMPDEST PUSH1 0x20 PUSH1 0x40 MLOAD DUP1 DUP4 SUB DUP2 DUP7 GAS STATICCALL ISZERO DUP1 ISZERO PUSH2 0x193F JUMPI RETURNDATASIZE PUSH1 0x0 DUP1 RETURNDATACOPY RETURNDATASIZE PUSH1 0x0 REVERT JUMPDEST POP POP POP POP PUSH1 0x40 MLOAD RETURNDATASIZE PUSH1 0x1F NOT PUSH1 0x1F DUP3 ADD AND DUP3 ADD DUP1 PUSH1 0x40 MSTORE POP DUP2 ADD SWAP1 PUSH2 0x1963 SWAP2 SWAP1 PUSH2 0x39ED JUMP JUMPDEST LT ISZERO PUSH2 0x19AF JUMPI PUSH1 0x40 MLOAD PUSH3 0x461BCD PUSH1 0xE5 SHL DUP2 MSTORE PUSH1 0x20 PUSH1 0x4 DUP3 ADD MSTORE PUSH1 0x1B PUSH1 0x24 DUP3 ADD MSTORE PUSH27 0x696E737566666963656E7420746F6B656E20616C6C6F77616E6365 PUSH1 0x28 SHL PUSH1 0x44 DUP3 ADD MSTORE PUSH1 0x64 ADD PUSH2 0x4A8 JUMP JUMPDEST DUP8 ISZERO PUSH2 0x19CA JUMPI PUSH2 0x19CA DUP5 DUP8 PUSH2 0x100 ADD MLOAD PUSH1 0x20 ADD MLOAD DUP6 DUP12 PUSH2 0x28A8 JUMP JUMPDEST PUSH2 0x100 DUP7 ADD MLOAD PUSH1 0x40 ADD MLOAD DUP6 SWAP1 PUSH1 0x0 SWAP1 PUSH1 0x1 PUSH1 0x1 PUSH1 0xA0 SHL SUB AND ISZERO DUP1 ISZERO SWAP1 PUSH2 0x19FD JUMPI POP PUSH1 0x0 DUP9 PUSH2 0x100 ADD MLOAD PUSH1 0x60 ADD MLOAD PUSH2 0xFFFF AND GT JUMPDEST ISZERO PUSH2 0x1A4E JUMPI PUSH2 0x1A49 CALLER DUP10 PUSH2 0x100 ADD MLOAD PUSH1 0x40 ADD MLOAD DUP8 PUSH2 0x2710 DUP13 PUSH2 0x100 ADD MLOAD PUSH1 0x60 ADD MLOAD PUSH2 0xFFFF AND DUP8 PUSH2 0x1A2D SWAP2 SWAP1 PUSH2 0x3B31 JUMP JUMPDEST PUSH2 0x1A37 SWAP2 SWAP1 PUSH2 0x3B48 JUMP JUMPDEST PUSH2 0x1A41 SWAP1 DUP7 PUSH2 0x3B6A JUMP JUMPDEST SWAP5 POP DUP5 PUSH2 0x28A8 JUMP JUMPDEST PUSH2 0x1AA8 JUMP JUMPDEST PUSH1 0x4 SLOAD PUSH1 0x1 PUSH1 0x1 PUSH1 0xA0 SHL SUB AND ISZERO DUP1 ISZERO SWAP1 PUSH2 0x1A74 JUMPI POP PUSH1 0x4 SLOAD PUSH1 0x1 PUSH1 0xA0 SHL SWAP1 DIV PUSH2 0xFFFF AND ISZERO ISZERO JUMPDEST ISZERO PUSH2 0x1AA8 JUMPI PUSH1 0x4 SLOAD PUSH2 0x1AA8 SWAP1 CALLER SWAP1 PUSH1 0x1 PUSH1 0x1 PUSH1 0xA0 SHL SUB DUP2 AND SWAP1 DUP9 SWAP1 PUSH2 0x2710 SWAP1 PUSH2 0x1A2D SWAP1 PUSH1 0x1 PUSH1 0xA0 SHL SWAP1 DIV PUSH2 0xFFFF AND DUP9 PUSH2 0x3B31 JUMP JUMPDEST PUSH2 0x100 DUP9 ADD MLOAD PUSH1 0x80 ADD MLOAD PUSH1 0x1 PUSH1 0x1 PUSH1 0xA0 SHL SUB AND ISZERO DUP1 ISZERO SWAP1 PUSH2 0x1AD6 JUMPI POP PUSH1 0x0 DUP9 PUSH2 0x100 ADD MLOAD PUSH1 0xA0 ADD MLOAD PUSH2 0xFFFF AND GT JUMPDEST ISZERO PUSH2 0x1B47 JUMPI PUSH2 0x2710 DUP9 PUSH2 0x100 ADD MLOAD PUSH1 0xA0 ADD MLOAD PUSH2 0xFFFF AND DUP4 PUSH2 0x1AF7 SWAP2 SWAP1 PUSH2 0x3B31 JUMP JUMPDEST PUSH2 0x1B01 SWAP2 SWAP1 PUSH2 0x3B48 JUMP JUMPDEST PUSH2 0x1B0B SWAP1 DUP3 PUSH2 0x3B6A JUMP JUMPDEST SWAP1 POP PUSH2 0x1B47 CALLER DUP10 PUSH2 0x100 ADD MLOAD PUSH1 0x80 ADD MLOAD DUP8 PUSH2 0x2710 DUP13 PUSH2 0x100 ADD MLOAD PUSH1 0xA0 ADD MLOAD PUSH2 0xFFFF AND DUP8 PUSH2 0x1B38 SWAP2 SWAP1 PUSH2 0x3B31 JUMP JUMPDEST PUSH2 0x1B42 SWAP2 SWAP1 PUSH2 0x3B48 JUMP JUMPDEST PUSH2 0x28A8 JUMP JUMPDEST PUSH2 0x1B51 DUP2 DUP4 PUSH2 0x3B7D JUMP JUMPDEST SWAP2 POP PUSH2 0x1B60 DUP7 DUP6 DUP6 DUP6 DUP10 PUSH2 0x2D34 JUMP JUMPDEST SWAP2 POP PUSH2 0x1B77 CALLER DUP10 PUSH2 0x100 ADD MLOAD PUSH1 0x0 ADD MLOAD DUP8 DUP6 PUSH2 0x28A8 JUMP JUMPDEST DUP11 PUSH1 0x1 PUSH1 0x1 PUSH1 0xA0 SHL SUB AND DUP4 DUP14 PUSH1 0x40 MLOAD PUSH2 0x1B90 SWAP2 SWAP1 PUSH2 0x3B15 JUMP JUMPDEST PUSH1 0x40 MLOAD DUP1 SWAP2 SUB SWAP1 KECCAK256 PUSH32 0xF46FBFEBB3C993700455AD3898E5555624CC2CD41EE126F1B0974CD21EE35A5B DUP12 DUP14 PUSH1 0x40 MLOAD PUSH2 0x1BC9 SWAP3 SWAP2 SWAP1 PUSH2 0x3C10 JUMP JUMPDEST PUSH1 0x40 MLOAD DUP1 SWAP2 SUB SWAP1 LOG4 POP POP PUSH1 0x1 PUSH1 0x0 SSTORE POP POP POP POP POP POP POP POP POP POP JUMP JUMPDEST CALLER PUSH2 0x1BED PUSH2 0x132F JUMP JUMPDEST PUSH1 0x1 PUSH1 0x1 PUSH1 0xA0 SHL SUB AND EQ DUP1 PUSH2 0x1C08 JUMPI POP PUSH2 0x1C08 PUSH1 0x2 CALLER PUSH2 0x2989 JUMP JUMPDEST PUSH2 0x1C24 JUMPI PUSH1 0x40 MLOAD PUSH3 0x461BCD PUSH1 0xE5 SHL DUP2 MSTORE PUSH1 0x4 ADD PUSH2 0x4A8 SWAP1 PUSH2 0x3A06 JUMP JUMPDEST PUSH1 0x8 DUP4 DUP4 PUSH1 0x40 MLOAD PUSH2 0x1C36 SWAP3 SWAP2 SWAP1 PUSH2 0x399D JUMP JUMPDEST SWAP1 DUP2 MSTORE PUSH1 0x40 MLOAD SWAP1 DUP2 SWAP1 SUB PUSH1 0x20 ADD SWAP1 KECCAK256 SLOAD PUSH1 0xFF AND PUSH2 0x1C65 JUMPI PUSH1 0x40 MLOAD PUSH3 0x461BCD PUSH1 0xE5 SHL DUP2 MSTORE PUSH1 0x4 ADD PUSH2 0x4A8 SWAP1 PUSH2 0x39AD JUMP JUMPDEST TIMESTAMP PUSH1 0x7 DUP5 DUP5 PUSH1 0x40 MLOAD PUSH2 0x1C78 SWAP3 SWAP2 SWAP1 PUSH2 0x399D JUMP JUMPDEST SWAP1 DUP2 MSTORE PUSH1 0x40 MLOAD SWAP1 DUP2 SWAP1 SUB PUSH1 0x20 ADD SWAP1 KECCAK256 SLOAD PUSH4 0xFFFFFFFF AND LT ISZERO DUP1 PUSH2 0x1CC0 JUMPI POP PUSH1 0x7 DUP4 DUP4 PUSH1 0x40 MLOAD PUSH2 0x1CA8 SWAP3 SWAP2 SWAP1 PUSH2 0x399D JUMP JUMPDEST SWAP1 DUP2 MSTORE PUSH1 0x40 MLOAD SWAP1 DUP2 SWAP1 SUB PUSH1 0x20 ADD SWAP1 KECCAK256 PUSH1 0x3 ADD PUSH1 0x1 ADD SLOAD ISZERO JUMPDEST PUSH2 0x1CDC JUMPI PUSH1 0x40 MLOAD PUSH3 0x461BCD PUSH1 0xE5 SHL DUP2 MSTORE PUSH1 0x4 ADD PUSH2 0x4A8 SWAP1 PUSH2 0x3A4A JUMP JUMPDEST PUSH1 0x1 PUSH1 0x1 PUSH1 0xA0 SHL SUB DUP2 AND PUSH2 0x1CEF JUMPI PUSH1 0x0 DUP1 REVERT JUMPDEST DUP1 PUSH1 0x6 DUP5 DUP5 PUSH1 0x40 MLOAD PUSH2 0x1D02 SWAP3 SWAP2 SWAP1 PUSH2 0x399D JUMP JUMPDEST SWAP1 DUP2 MSTORE PUSH1 0x40 MLOAD SWAP1 DUP2 SWAP1 SUB PUSH1 0x20 ADD SWAP1 KECCAK256 PUSH1 0x9 ADD DUP1 SLOAD PUSH1 0x1 PUSH1 0x1 PUSH1 0xA0 SHL SUB SWAP3 SWAP1 SWAP3 AND PUSH1 0x1 PUSH1 0x1 PUSH1 0xA0 SHL SUB NOT SWAP1 SWAP3 AND SWAP2 SWAP1 SWAP2 OR SWAP1 SSTORE POP POP POP JUMP JUMPDEST CALLER PUSH2 0x1D42 PUSH2 0x132F JUMP JUMPDEST PUSH1 0x1 PUSH1 0x1 PUSH1 0xA0 SHL SUB AND EQ DUP1 PUSH2 0x1D5D JUMPI POP PUSH2 0x1D5D PUSH1 0x2 CALLER PUSH2 0x2989 JUMP JUMPDEST PUSH2 0x1D79 JUMPI PUSH1 0x40 MLOAD PUSH3 0x461BCD PUSH1 0xE5 SHL DUP2 MSTORE PUSH1 0x4 ADD PUSH2 0x4A8 SWAP1 PUSH2 0x3A06 JUMP JUMPDEST PUSH2 0x2710 DUP2 PUSH2 0xFFFF AND LT PUSH2 0x1DE0 JUMPI PUSH1 0x40 MLOAD PUSH3 0x461BCD PUSH1 0xE5 SHL DUP2 MSTORE PUSH1 0x20 PUSH1 0x4 DUP3 ADD MSTORE PUSH1 0x29 PUSH1 0x24 DUP3 ADD MSTORE PUSH32 0x706C6174666F726D4665652073686F756C64206E6F74206265206D6F72652074 PUSH1 0x44 DUP3 ADD MSTORE PUSH9 0x68616E203130302025 PUSH1 0xB8 SHL PUSH1 0x64 DUP3 ADD MSTORE PUSH1 0x84 ADD PUSH2 0x4A8 JUMP JUMPDEST PUSH1 0x4 DUP1 SLOAD PUSH2 0xFFFF SWAP1 SWAP3 AND PUSH1 0x1 PUSH1 0xA0 SHL MUL PUSH2 0xFFFF PUSH1 0xA0 SHL NOT SWAP1 SWAP3 AND SWAP2 SWAP1 SWAP2 OR SWAP1 SSTORE JUMP JUMPDEST CALLER PUSH2 0x1E0B PUSH2 0x132F JUMP JUMPDEST PUSH1 0x1 PUSH1 0x1 PUSH1 0xA0 SHL SUB AND EQ PUSH2 0x1E31 JUMPI PUSH1 0x40 MLOAD PUSH3 0x461BCD PUSH1 0xE5 SHL DUP2 MSTORE PUSH1 0x4 ADD PUSH2 0x4A8 SWAP1 PUSH2 0x3A8D JUMP JUMPDEST PUSH1 0x1 PUSH1 0x1 PUSH1 0xA0 SHL SUB DUP2 AND PUSH2 0x1E96 JUMPI PUSH1 0x40 MLOAD PUSH3 0x461BCD PUSH1 0xE5 SHL DUP2 MSTORE PUSH1 0x20 PUSH1 0x4 DUP3 ADD MSTORE PUSH1 0x26 PUSH1 0x24 DUP3 ADD MSTORE PUSH32 0x4F776E61626C653A206E6577206F776E657220697320746865207A65726F2061 PUSH1 0x44 DUP3 ADD MSTORE PUSH6 0x646472657373 PUSH1 0xD0 SHL PUSH1 0x64 DUP3 ADD MSTORE PUSH1 0x84 ADD PUSH2 0x4A8 JUMP JUMPDEST PUSH1 0x1 SLOAD PUSH1 0x40 MLOAD PUSH1 0x1 PUSH1 0x1 PUSH1 0xA0 SHL SUB DUP1 DUP5 AND SWAP3 AND SWAP1 PUSH32 0x8BE0079C531659141344CD1FD0A4F28419497F9722A3DAAFE3B4186F6B6457E0 SWAP1 PUSH1 0x0 SWAP1 LOG3 PUSH1 0x1 DUP1 SLOAD PUSH1 0x1 PUSH1 0x1 PUSH1 0xA0 SHL SUB NOT AND PUSH1 0x1 PUSH1 0x1 PUSH1 0xA0 SHL SUB SWAP3 SWAP1 SWAP3 AND SWAP2 SWAP1 SWAP2 OR SWAP1 SSTORE JUMP JUMPDEST CALLER PUSH2 0x1EFB PUSH2 0x132F JUMP JUMPDEST PUSH1 0x1 PUSH1 0x1 PUSH1 0xA0 SHL SUB AND EQ DUP1 PUSH2 0x1F16 JUMPI POP PUSH2 0x1F16 PUSH1 0x2 CALLER PUSH2 0x2989 JUMP JUMPDEST PUSH2 0x1F32 JUMPI PUSH1 0x40 MLOAD PUSH3 0x461BCD PUSH1 0xE5 SHL DUP2 MSTORE PUSH1 0x4 ADD PUSH2 0x4A8 SWAP1 PUSH2 0x3A06 JUMP JUMPDEST PUSH1 0x2 PUSH1 0x0 SLOAD SUB PUSH2 0x1F54 JUMPI PUSH1 0x40 MLOAD PUSH3 0x461BCD PUSH1 0xE5 SHL DUP2 MSTORE PUSH1 0x4 ADD PUSH2 0x4A8 SWAP1 PUSH2 0x3966 JUMP JUMPDEST PUSH1 0x2 PUSH1 0x0 SWAP1 DUP2 SSTORE PUSH2 0x1F6D PUSH2 0x180 DUP6 ADD PUSH2 0x160 DUP7 ADD PUSH2 0x38C5 JUMP JUMPDEST PUSH2 0xFFFF AND ISZERO PUSH2 0x1FB5 JUMPI PUSH2 0x1F88 PUSH2 0x1C0 DUP6 ADD PUSH2 0x1A0 DUP7 ADD PUSH2 0x38C5 JUMP JUMPDEST PUSH2 0x1F9A PUSH2 0x180 DUP7 ADD PUSH2 0x160 DUP8 ADD PUSH2 0x38C5 JUMP JUMPDEST PUSH2 0x1FA4 SWAP2 SWAP1 PUSH2 0x3C94 JUMP JUMPDEST PUSH2 0x1FAE SWAP1 DUP3 PUSH2 0x3C94 JUMP JUMPDEST SWAP1 POP PUSH2 0x1FEC JUMP JUMPDEST PUSH2 0x1FC7 PUSH2 0x1C0 DUP6 ADD PUSH2 0x1A0 DUP7 ADD PUSH2 0x38C5 JUMP JUMPDEST PUSH1 0x4 SLOAD PUSH2 0x1FDF SWAP2 SWAP1 PUSH1 0x1 PUSH1 0xA0 SHL SWAP1 DIV PUSH2 0xFFFF AND PUSH2 0x3C94 JUMP JUMPDEST PUSH2 0x1FE9 SWAP1 DUP3 PUSH2 0x3C94 JUMP JUMPDEST SWAP1 POP JUMPDEST PUSH2 0x2710 DUP2 PUSH2 0xFFFF AND LT PUSH2 0x205D JUMPI PUSH1 0x40 MLOAD PUSH3 0x461BCD PUSH1 0xE5 SHL DUP2 MSTORE PUSH1 0x20 PUSH1 0x4 DUP3 ADD MSTORE PUSH1 0x33 PUSH1 0x24 DUP3 ADD MSTORE PUSH32 0x54686520746F74616C2066656520626173697320706F696E742073686F756C64 PUSH1 0x44 DUP3 ADD MSTORE PUSH19 0x206265206C657373207468616E20313030303 PUSH1 0x6C SHL PUSH1 0x64 DUP3 ADD MSTORE PUSH1 0x84 ADD PUSH2 0x4A8 JUMP JUMPDEST PUSH1 0x0 DUP5 PUSH1 0x80 ADD CALLDATALOAD GT PUSH2 0x20C3 JUMPI PUSH1 0x40 MLOAD PUSH3 0x461BCD PUSH1 0xE5 SHL DUP2 MSTORE PUSH1 0x20 PUSH1 0x4 DUP3 ADD MSTORE PUSH1 0x29 PUSH1 0x24 DUP3 ADD MSTORE PUSH32 0x6D696E696D756D2070726963652073686F756C64206265206772656174657220 PUSH1 0x44 DUP3 ADD MSTORE PUSH9 0x7468616E207A65726F PUSH1 0xB8 SHL PUSH1 0x64 DUP3 ADD MSTORE PUSH1 0x84 ADD PUSH2 0x4A8 JUMP JUMPDEST PUSH2 0x20D0 PUSH1 0x20 DUP6 ADD DUP6 PUSH2 0x3631 JUMP JUMPDEST PUSH1 0x40 MLOAD PUSH4 0x1FFC9A7 PUSH1 0xE0 SHL DUP2 MSTORE PUSH1 0x1 PUSH1 0x1 PUSH1 0xA0 SHL SUB SWAP2 SWAP1 SWAP2 AND SWAP1 PUSH4 0x1FFC9A7 SWAP1 PUSH2 0x2105 SWAP1 PUSH4 0x80AC58CD PUSH1 0xE0 SHL SWAP1 PUSH1 0x4 ADD PUSH2 0x3CAF JUMP JUMPDEST PUSH1 0x20 PUSH1 0x40 MLOAD DUP1 DUP4 SUB DUP2 DUP7 GAS STATICCALL ISZERO DUP1 ISZERO PUSH2 0x2122 JUMPI RETURNDATASIZE PUSH1 0x0 DUP1 RETURNDATACOPY RETURNDATASIZE PUSH1 0x0 REVERT JUMPDEST POP POP POP POP PUSH1 0x40 MLOAD RETURNDATASIZE PUSH1 0x1F NOT PUSH1 0x1F DUP3 ADD AND DUP3 ADD DUP1 PUSH1 0x40 MSTORE POP DUP2 ADD SWAP1 PUSH2 0x2146 SWAP2 SWAP1 PUSH2 0x3CC4 JUMP JUMPDEST DUP1 PUSH2 0x21CF JUMPI POP PUSH2 0x2159 PUSH1 0x20 DUP6 ADD DUP6 PUSH2 0x3631 JUMP JUMPDEST PUSH1 0x40 MLOAD PUSH4 0x1FFC9A7 PUSH1 0xE0 SHL DUP2 MSTORE PUSH1 0x1 PUSH1 0x1 PUSH1 0xA0 SHL SUB SWAP2 SWAP1 SWAP2 AND SWAP1 PUSH4 0x1FFC9A7 SWAP1 PUSH2 0x218E SWAP1 PUSH4 0x6CDB3D13 PUSH1 0xE1 SHL SWAP1 PUSH1 0x4 ADD PUSH2 0x3CAF JUMP JUMPDEST PUSH1 0x20 PUSH1 0x40 MLOAD DUP1 DUP4 SUB DUP2 DUP7 GAS STATICCALL ISZERO DUP1 ISZERO PUSH2 0x21AB JUMPI RETURNDATASIZE PUSH1 0x0 DUP1 RETURNDATACOPY RETURNDATASIZE PUSH1 0x0 REVERT JUMPDEST POP POP POP POP PUSH1 0x40 MLOAD RETURNDATASIZE PUSH1 0x1F NOT PUSH1 0x1F DUP3 ADD AND DUP3 ADD DUP1 PUSH1 0x40 MSTORE POP DUP2 ADD SWAP1 PUSH2 0x21CF SWAP2 SWAP1 PUSH2 0x3CC4 JUMP JUMPDEST PUSH2 0x222D JUMPI PUSH1 0x40 MLOAD PUSH3 0x461BCD PUSH1 0xE5 SHL DUP2 MSTORE PUSH1 0x20 PUSH1 0x4 DUP3 ADD MSTORE PUSH1 0x29 PUSH1 0x24 DUP3 ADD MSTORE PUSH32 0x73686F756C642070726F76696465206F6E6C7920737570706F72746564204E66 PUSH1 0x44 DUP3 ADD MSTORE PUSH9 0x742041646472657373 PUSH1 0xB8 SHL PUSH1 0x64 DUP3 ADD MSTORE PUSH1 0x84 ADD PUSH2 0x4A8 JUMP JUMPDEST PUSH2 0x223A PUSH1 0x20 DUP6 ADD DUP6 PUSH2 0x3631 JUMP JUMPDEST PUSH1 0x40 MLOAD PUSH4 0x1FFC9A7 PUSH1 0xE0 SHL DUP2 MSTORE PUSH1 0x1 PUSH1 0x1 PUSH1 0xA0 SHL SUB SWAP2 SWAP1 SWAP2 AND SWAP1 PUSH4 0x1FFC9A7 SWAP1 PUSH2 0x226F SWAP1 PUSH4 0x80AC58CD PUSH1 0xE0 SHL SWAP1 PUSH1 0x4 ADD PUSH2 0x3CAF JUMP JUMPDEST PUSH1 0x20 PUSH1 0x40 MLOAD DUP1 DUP4 SUB DUP2 DUP7 GAS STATICCALL ISZERO DUP1 ISZERO PUSH2 0x228C JUMPI RETURNDATASIZE PUSH1 0x0 DUP1 RETURNDATACOPY RETURNDATASIZE PUSH1 0x0 REVERT JUMPDEST POP POP POP POP PUSH1 0x40 MLOAD RETURNDATASIZE PUSH1 0x1F NOT PUSH1 0x1F DUP3 ADD AND DUP3 ADD DUP1 PUSH1 0x40 MSTORE POP DUP2 ADD SWAP1 PUSH2 0x22B0 SWAP2 SWAP1 PUSH2 0x3CC4 JUMP JUMPDEST ISZERO PUSH2 0x2374 JUMPI PUSH2 0x22C5 PUSH1 0x80 DUP6 ADD PUSH1 0x60 DUP7 ADD PUSH2 0x3631 JUMP JUMPDEST PUSH1 0x1 PUSH1 0x1 PUSH1 0xA0 SHL SUB AND PUSH2 0x22DB PUSH1 0x20 DUP7 ADD DUP7 PUSH2 0x3631 JUMP JUMPDEST PUSH1 0x40 MLOAD PUSH4 0x31A9108F PUSH1 0xE1 SHL DUP2 MSTORE PUSH1 0x20 DUP8 ADD CALLDATALOAD PUSH1 0x4 DUP3 ADD MSTORE PUSH1 0x1 PUSH1 0x1 PUSH1 0xA0 SHL SUB SWAP2 SWAP1 SWAP2 AND SWAP1 PUSH4 0x6352211E SWAP1 PUSH1 0x24 ADD PUSH1 0x20 PUSH1 0x40 MLOAD DUP1 DUP4 SUB DUP2 DUP7 GAS STATICCALL ISZERO DUP1 ISZERO PUSH2 0x2325 JUMPI RETURNDATASIZE PUSH1 0x0 DUP1 RETURNDATACOPY RETURNDATASIZE PUSH1 0x0 REVERT JUMPDEST POP POP POP POP PUSH1 0x40 MLOAD RETURNDATASIZE PUSH1 0x1F NOT PUSH1 0x1F DUP3 ADD AND DUP3 ADD DUP1 PUSH1 0x40 MSTORE POP DUP2 ADD SWAP1 PUSH2 0x2349 SWAP2 SWAP1 PUSH2 0x3CE6 JUMP JUMPDEST PUSH1 0x1 PUSH1 0x1 PUSH1 0xA0 SHL SUB AND EQ PUSH2 0x236F JUMPI PUSH1 0x40 MLOAD PUSH3 0x461BCD PUSH1 0xE5 SHL DUP2 MSTORE PUSH1 0x4 ADD PUSH2 0x4A8 SWAP1 PUSH2 0x3D03 JUMP JUMPDEST PUSH2 0x24F0 JUMP JUMPDEST PUSH2 0x2381 PUSH1 0x20 DUP6 ADD DUP6 PUSH2 0x3631 JUMP JUMPDEST PUSH1 0x40 MLOAD PUSH4 0x1FFC9A7 PUSH1 0xE0 SHL DUP2 MSTORE PUSH1 0x1 PUSH1 0x1 PUSH1 0xA0 SHL SUB SWAP2 SWAP1 SWAP2 AND SWAP1 PUSH4 0x1FFC9A7 SWAP1 PUSH2 0x23B6 SWAP1 PUSH4 0x6CDB3D13 PUSH1 0xE1 SHL SWAP1 PUSH1 0x4 ADD PUSH2 0x3CAF JUMP JUMPDEST PUSH1 0x20 PUSH1 0x40 MLOAD DUP1 DUP4 SUB DUP2 DUP7 GAS STATICCALL ISZERO DUP1 ISZERO PUSH2 0x23D3 JUMPI RETURNDATASIZE PUSH1 0x0 DUP1 RETURNDATACOPY RETURNDATASIZE PUSH1 0x0 REVERT JUMPDEST POP POP POP POP PUSH1 0x40 MLOAD RETURNDATASIZE PUSH1 0x1F NOT PUSH1 0x1F DUP3 ADD AND DUP3 ADD DUP1 PUSH1 0x40 MSTORE POP DUP2 ADD SWAP1 PUSH2 0x23F7 SWAP2 SWAP1 PUSH2 0x3CC4 JUMP JUMPDEST ISZERO PUSH2 0x24F0 JUMPI PUSH1 0x0 PUSH2 0x240B PUSH1 0x20 DUP7 ADD DUP7 PUSH2 0x3631 JUMP JUMPDEST PUSH1 0x1 PUSH1 0x1 PUSH1 0xA0 SHL SUB AND PUSH3 0xFDD58E PUSH2 0x2428 PUSH1 0x80 DUP9 ADD PUSH1 0x60 DUP10 ADD PUSH2 0x3631 JUMP JUMPDEST DUP8 PUSH1 0x20 ADD CALLDATALOAD PUSH1 0x40 MLOAD DUP4 PUSH4 0xFFFFFFFF AND PUSH1 0xE0 SHL DUP2 MSTORE PUSH1 0x4 ADD PUSH2 0x244A SWAP3 SWAP2 SWAP1 PUSH2 0x3D33 JUMP JUMPDEST PUSH1 0x20 PUSH1 0x40 MLOAD DUP1 DUP4 SUB DUP2 DUP7 GAS STATICCALL ISZERO DUP1 ISZERO PUSH2 0x2467 JUMPI RETURNDATASIZE PUSH1 0x0 DUP1 RETURNDATACOPY RETURNDATASIZE PUSH1 0x0 REVERT JUMPDEST POP POP POP POP PUSH1 0x40 MLOAD RETURNDATASIZE PUSH1 0x1F NOT PUSH1 0x1F DUP3 ADD AND DUP3 ADD DUP1 PUSH1 0x40 MSTORE POP DUP2 ADD SWAP1 PUSH2 0x248B SWAP2 SWAP1 PUSH2 0x39ED JUMP JUMPDEST SWAP1 POP DUP1 DUP6 PUSH1 0x40 ADD CALLDATALOAD GT ISZERO DUP1 ISZERO PUSH2 0x24A5 JUMPI POP PUSH1 0x0 DUP6 PUSH1 0x40 ADD CALLDATALOAD GT JUMPDEST PUSH2 0x24EE JUMPI PUSH1 0x40 MLOAD PUSH3 0x461BCD PUSH1 0xE5 SHL DUP2 MSTORE PUSH1 0x20 PUSH1 0x4 DUP3 ADD MSTORE PUSH1 0x1A PUSH1 0x24 DUP3 ADD MSTORE PUSH26 0x496E73756666696369656E7420746F6B656E2062616C616E6365 PUSH1 0x30 SHL PUSH1 0x44 DUP3 ADD MSTORE PUSH1 0x64 ADD PUSH2 0x4A8 JUMP JUMPDEST POP JUMPDEST PUSH1 0x0 PUSH2 0x2504 PUSH2 0x120 DUP7 ADD PUSH2 0x100 DUP8 ADD PUSH2 0x3631 JUMP JUMPDEST PUSH1 0x1 PUSH1 0x1 PUSH1 0xA0 SHL SUB AND SUB PUSH2 0x2564 JUMPI PUSH1 0x40 MLOAD PUSH3 0x461BCD PUSH1 0xE5 SHL DUP2 MSTORE PUSH1 0x20 PUSH1 0x4 DUP3 ADD MSTORE PUSH1 0x21 PUSH1 0x24 DUP3 ADD MSTORE PUSH32 0x73686F756C642070726F7669646520536574746C656D656E7420616464726573 PUSH1 0x44 DUP3 ADD MSTORE PUSH1 0x73 PUSH1 0xF8 SHL PUSH1 0x64 DUP3 ADD MSTORE PUSH1 0x84 ADD PUSH2 0x4A8 JUMP JUMPDEST PUSH2 0x257D PUSH2 0x2577 PUSH1 0xC0 DUP7 ADD PUSH1 0xA0 DUP8 ADD PUSH2 0x3631 JUMP JUMPDEST EXTCODESIZE ISZERO ISZERO SWAP1 JUMP JUMPDEST DUP1 PUSH2 0x25A0 JUMPI POP PUSH1 0x0 PUSH2 0x2595 PUSH1 0xC0 DUP7 ADD PUSH1 0xA0 DUP8 ADD PUSH2 0x3631 JUMP JUMPDEST PUSH1 0x1 PUSH1 0x1 PUSH1 0xA0 SHL SUB AND EQ JUMPDEST PUSH2 0x2604 JUMPI PUSH1 0x40 MLOAD PUSH3 0x461BCD PUSH1 0xE5 SHL DUP2 MSTORE PUSH1 0x20 PUSH1 0x4 DUP3 ADD MSTORE PUSH1 0x2F PUSH1 0x24 DUP3 ADD MSTORE PUSH32 0x41756374696F6E2020737570706F7274206F6E6C79206E617469766520616E64 PUSH1 0x44 DUP3 ADD MSTORE PUSH15 0x2065726332302063757272656E6379 PUSH1 0x88 SHL PUSH1 0x64 DUP3 ADD MSTORE PUSH1 0x84 ADD PUSH2 0x4A8 JUMP JUMPDEST PUSH1 0x0 PUSH2 0x2618 PUSH2 0x140 DUP7 ADD PUSH2 0x120 DUP8 ADD PUSH2 0x3631 JUMP JUMPDEST PUSH1 0x1 PUSH1 0x1 PUSH1 0xA0 SHL SUB AND SUB PUSH2 0x267C JUMPI PUSH1 0x40 MLOAD PUSH3 0x461BCD PUSH1 0xE5 SHL DUP2 MSTORE PUSH1 0x20 PUSH1 0x4 DUP3 ADD MSTORE PUSH1 0x25 PUSH1 0x24 DUP3 ADD MSTORE PUSH32 0x73686F756C642070726F766964652074617820536574746C656D656E74206164 PUSH1 0x44 DUP3 ADD MSTORE PUSH5 0x6472657373 PUSH1 0xD8 SHL PUSH1 0x64 DUP3 ADD MSTORE PUSH1 0x84 ADD PUSH2 0x4A8 JUMP JUMPDEST PUSH1 0x8 DUP7 DUP7 PUSH1 0x40 MLOAD PUSH2 0x268E SWAP3 SWAP2 SWAP1 PUSH2 0x399D JUMP JUMPDEST SWAP1 DUP2 MSTORE PUSH1 0x40 MLOAD SWAP1 DUP2 SWAP1 SUB PUSH1 0x20 ADD SWAP1 KECCAK256 SLOAD PUSH1 0xFF AND ISZERO PUSH2 0x26EA JUMPI PUSH1 0x40 MLOAD PUSH3 0x461BCD PUSH1 0xE5 SHL DUP2 MSTORE PUSH1 0x20 PUSH1 0x4 DUP3 ADD MSTORE PUSH1 0x19 PUSH1 0x24 DUP3 ADD MSTORE PUSH25 0x185D58DD1A5BDB9259081A5CC8185B1C9958591E481D5CD959 PUSH1 0x3A SHL PUSH1 0x44 DUP3 ADD MSTORE PUSH1 0x64 ADD PUSH2 0x4A8 JUMP JUMPDEST PUSH1 0x0 DUP4 PUSH4 0xFFFFFFFF AND GT DUP1 ISZERO PUSH2 0x2706 JUMPI POP PUSH1 0x0 DUP3 PUSH4 0xFFFFFFFF AND GT JUMPDEST PUSH2 0x2766 JUMPI PUSH1 0x40 MLOAD PUSH3 0x461BCD PUSH1 0xE5 SHL DUP2 MSTORE PUSH1 0x20 PUSH1 0x4 DUP3 ADD MSTORE PUSH1 0x2B PUSH1 0x24 DUP3 ADD MSTORE PUSH32 0x61756374696F6E2074696D652073686F756C64206E6F742062652070726F7669 PUSH1 0x44 DUP3 ADD MSTORE PUSH11 0x646564206173207A65726F PUSH1 0xA8 SHL PUSH1 0x64 DUP3 ADD MSTORE PUSH1 0x84 ADD PUSH2 0x4A8 JUMP JUMPDEST DUP4 PUSH1 0x6 DUP8 DUP8 PUSH1 0x40 MLOAD PUSH2 0x2779 SWAP3 SWAP2 SWAP1 PUSH2 0x399D JUMP JUMPDEST SWAP1 DUP2 MSTORE PUSH1 0x40 MLOAD SWAP1 DUP2 SWAP1 SUB PUSH1 0x20 ADD SWAP1 KECCAK256 PUSH2 0x2792 DUP3 DUP3 PUSH2 0x3E36 JUMP JUMPDEST SWAP1 POP POP DUP3 PUSH1 0x7 DUP8 DUP8 PUSH1 0x40 MLOAD PUSH2 0x27A8 SWAP3 SWAP2 SWAP1 PUSH2 0x399D JUMP JUMPDEST SWAP1 DUP2 MSTORE PUSH1 0x40 MLOAD SWAP1 DUP2 SWAP1 SUB PUSH1 0x20 ADD DUP2 KECCAK256 DUP1 SLOAD PUSH4 0xFFFFFFFF SWAP4 SWAP1 SWAP4 AND PUSH4 0xFFFFFFFF NOT SWAP1 SWAP4 AND SWAP3 SWAP1 SWAP3 OR SWAP1 SWAP2 SSTORE DUP3 SWAP1 PUSH1 0x7 SWAP1 PUSH2 0x27E4 SWAP1 DUP10 SWAP1 DUP10 SWAP1 PUSH2 0x399D JUMP JUMPDEST SWAP1 DUP2 MSTORE PUSH1 0x20 ADD PUSH1 0x40 MLOAD DUP1 SWAP2 SUB SWAP1 KECCAK256 PUSH1 0x0 ADD PUSH1 0x4 PUSH2 0x100 EXP DUP2 SLOAD DUP2 PUSH4 0xFFFFFFFF MUL NOT AND SWAP1 DUP4 PUSH4 0xFFFFFFFF AND MUL OR SWAP1 SSTORE POP PUSH1 0x1 PUSH1 0x8 DUP8 DUP8 PUSH1 0x40 MLOAD PUSH2 0x2827 SWAP3 SWAP2 SWAP1 PUSH2 0x399D JUMP JUMPDEST SWAP1 DUP2 MSTORE PUSH1 0x40 MLOAD SWAP1 DUP2 SWAP1 SUB PUSH1 0x20 ADD DUP2 KECCAK256 DUP1 SLOAD SWAP3 ISZERO ISZERO PUSH1 0xFF NOT SWAP1 SWAP4 AND SWAP3 SWAP1 SWAP3 OR SWAP1 SWAP2 SSTORE PUSH2 0x2853 SWAP1 DUP6 SWAP1 PUSH2 0x3F58 JUMP JUMPDEST PUSH1 0x40 MLOAD SWAP1 DUP2 SWAP1 SUB DUP2 KECCAK256 SWAP1 PUSH32 0x2C215CB172B4D2C6839C32043EE8246F2182BEE166EFEDC76EDF44203D790074 SWAP1 PUSH1 0x0 SWAP1 LOG2 POP POP PUSH1 0x1 PUSH1 0x0 SSTORE POP POP POP POP JUMP JUMPDEST PUSH1 0x0 DUP3 PUSH2 0x289D DUP6 DUP5 PUSH2 0x2EE7 JUMP JUMPDEST EQ SWAP1 POP JUMPDEST SWAP4 SWAP3 POP POP POP JUMP JUMPDEST PUSH1 0x0 PUSH1 0x1 PUSH1 0x1 PUSH1 0xA0 SHL SUB DUP4 AND PUSH2 0x296D JUMPI PUSH1 0x40 DUP1 MLOAD PUSH1 0x0 DUP2 MSTORE PUSH1 0x20 DUP2 ADD SWAP2 DUP3 SWAP1 MSTORE PUSH1 0x1 PUSH1 0x1 PUSH1 0xA0 SHL SUB DUP7 AND SWAP2 DUP5 SWAP2 PUSH2 0x28DE SWAP2 PUSH2 0x3B15 JUMP JUMPDEST PUSH1 0x0 PUSH1 0x40 MLOAD DUP1 DUP4 SUB DUP2 DUP6 DUP8 GAS CALL SWAP3 POP POP POP RETURNDATASIZE DUP1 PUSH1 0x0 DUP2 EQ PUSH2 0x291B JUMPI PUSH1 0x40 MLOAD SWAP2 POP PUSH1 0x1F NOT PUSH1 0x3F RETURNDATASIZE ADD AND DUP3 ADD PUSH1 0x40 MSTORE RETURNDATASIZE DUP3 MSTORE RETURNDATASIZE PUSH1 0x0 PUSH1 0x20 DUP5 ADD RETURNDATACOPY PUSH2 0x2920 JUMP JUMPDEST PUSH1 0x60 SWAP2 POP JUMPDEST POP POP DUP1 SWAP2 POP POP DUP1 PUSH2 0x2968 JUMPI PUSH1 0x40 MLOAD PUSH3 0x461BCD PUSH1 0xE5 SHL DUP2 MSTORE PUSH1 0x20 PUSH1 0x4 DUP3 ADD MSTORE PUSH1 0x12 PUSH1 0x24 DUP3 ADD MSTORE PUSH18 0x1D1C985B9CD858DD1A5BDB8819985A5B1959 PUSH1 0x72 SHL PUSH1 0x44 DUP3 ADD MSTORE PUSH1 0x64 ADD PUSH2 0x4A8 JUMP JUMPDEST PUSH2 0x2982 JUMP JUMPDEST PUSH2 0x2982 PUSH1 0x1 PUSH1 0x1 PUSH1 0xA0 SHL SUB DUP5 AND DUP7 DUP7 DUP6 PUSH2 0x2F93 JUMP JUMPDEST POP POP POP POP POP JUMP JUMPDEST PUSH1 0x1 PUSH1 0x1 PUSH1 0xA0 SHL SUB AND PUSH1 0x0 SWAP1 DUP2 MSTORE PUSH1 0x1 SWAP2 SWAP1 SWAP2 ADD PUSH1 0x20 MSTORE PUSH1 0x40 SWAP1 KECCAK256 SLOAD ISZERO ISZERO SWAP1 JUMP JUMPDEST PUSH1 0x0 PUSH2 0x28A1 DUP4 PUSH1 0x1 PUSH1 0x1 PUSH1 0xA0 SHL SUB DUP5 AND PUSH2 0x2FF1 JUMP JUMPDEST PUSH1 0x0 PUSH2 0xAF4 DUP3 SLOAD SWAP1 JUMP JUMPDEST PUSH1 0x0 PUSH2 0x28A1 DUP4 DUP4 PUSH2 0x30EB JUMP JUMPDEST PUSH1 0x0 PUSH2 0x28A1 DUP4 PUSH1 0x1 PUSH1 0x1 PUSH1 0xA0 SHL SUB DUP5 AND PUSH2 0x3115 JUMP JUMPDEST PUSH1 0x40 MLOAD PUSH4 0x1FFC9A7 PUSH1 0xE0 SHL DUP2 MSTORE PUSH1 0x1 PUSH1 0x1 PUSH1 0xA0 SHL SUB DUP6 AND SWAP1 PUSH4 0x1FFC9A7 SWAP1 PUSH2 0x2A1D SWAP1 PUSH4 0x80AC58CD PUSH1 0xE0 SHL SWAP1 PUSH1 0x4 ADD PUSH2 0x3CAF JUMP JUMPDEST PUSH1 0x20 PUSH1 0x40 MLOAD DUP1 DUP4 SUB DUP2 DUP7 GAS STATICCALL ISZERO DUP1 ISZERO PUSH2 0x2A3A JUMPI RETURNDATASIZE PUSH1 0x0 DUP1 RETURNDATACOPY RETURNDATASIZE PUSH1 0x0 REVERT JUMPDEST POP POP POP POP PUSH1 0x40 MLOAD RETURNDATASIZE PUSH1 0x1F NOT PUSH1 0x1F DUP3 ADD AND DUP3 ADD DUP1 PUSH1 0x40 MSTORE POP DUP2 ADD SWAP1 PUSH2 0x2A5E SWAP2 SWAP1 PUSH2 0x3CC4 JUMP JUMPDEST ISZERO PUSH2 0x2B5E JUMPI PUSH1 0x40 MLOAD PUSH4 0x31A9108F PUSH1 0xE1 SHL DUP2 MSTORE PUSH1 0x4 DUP2 ADD DUP4 SWAP1 MSTORE PUSH1 0x1 PUSH1 0x1 PUSH1 0xA0 SHL SUB DUP1 DUP8 AND SWAP2 SWAP1 DUP7 AND SWAP1 PUSH4 0x6352211E SWAP1 PUSH1 0x24 ADD PUSH1 0x20 PUSH1 0x40 MLOAD DUP1 DUP4 SUB DUP2 DUP7 GAS STATICCALL ISZERO DUP1 ISZERO PUSH2 0x2AAD JUMPI RETURNDATASIZE PUSH1 0x0 DUP1 RETURNDATACOPY RETURNDATASIZE PUSH1 0x0 REVERT JUMPDEST POP POP POP POP PUSH1 0x40 MLOAD RETURNDATASIZE PUSH1 0x1F NOT PUSH1 0x1F DUP3 ADD AND DUP3 ADD DUP1 PUSH1 0x40 MSTORE POP DUP2 ADD SWAP1 PUSH2 0x2AD1 SWAP2 SWAP1 PUSH2 0x3CE6 JUMP JUMPDEST PUSH1 0x1 PUSH1 0x1 PUSH1 0xA0 SHL SUB AND EQ PUSH2 0x2AF7 JUMPI PUSH1 0x40 MLOAD PUSH3 0x461BCD PUSH1 0xE5 SHL DUP2 MSTORE PUSH1 0x4 ADD PUSH2 0x4A8 SWAP1 PUSH2 0x3D03 JUMP JUMPDEST PUSH1 0x40 MLOAD PUSH4 0x21421707 PUSH1 0xE1 SHL DUP2 MSTORE PUSH1 0x1 PUSH1 0x1 PUSH1 0xA0 SHL SUB DUP6 AND SWAP1 PUSH4 0x42842E0E SWAP1 PUSH2 0x2B27 SWAP1 DUP9 SWAP1 DUP8 SWAP1 DUP8 SWAP1 PUSH1 0x4 ADD PUSH2 0x4002 JUMP JUMPDEST PUSH1 0x0 PUSH1 0x40 MLOAD DUP1 DUP4 SUB DUP2 PUSH1 0x0 DUP8 DUP1 EXTCODESIZE ISZERO DUP1 ISZERO PUSH2 0x2B41 JUMPI PUSH1 0x0 DUP1 REVERT JUMPDEST POP GAS CALL ISZERO DUP1 ISZERO PUSH2 0x2B55 JUMPI RETURNDATASIZE PUSH1 0x0 DUP1 RETURNDATACOPY RETURNDATASIZE PUSH1 0x0 REVERT JUMPDEST POP POP POP POP PUSH2 0x2982 JUMP JUMPDEST PUSH1 0x40 MLOAD PUSH4 0x1FFC9A7 PUSH1 0xE0 SHL DUP2 MSTORE PUSH1 0x1 PUSH1 0x1 PUSH1 0xA0 SHL SUB DUP6 AND SWAP1 PUSH4 0x1FFC9A7 SWAP1 PUSH2 0x2B91 SWAP1 PUSH4 0x6CDB3D13 PUSH1 0xE1 SHL SWAP1 PUSH1 0x4 ADD PUSH2 0x3CAF JUMP JUMPDEST PUSH1 0x20 PUSH1 0x40 MLOAD DUP1 DUP4 SUB DUP2 DUP7 GAS STATICCALL ISZERO DUP1 ISZERO PUSH2 0x2BAE JUMPI RETURNDATASIZE PUSH1 0x0 DUP1 RETURNDATACOPY RETURNDATASIZE PUSH1 0x0 REVERT JUMPDEST POP POP POP POP PUSH1 0x40 MLOAD RETURNDATASIZE PUSH1 0x1F NOT PUSH1 0x1F DUP3 ADD AND DUP3 ADD DUP1 PUSH1 0x40 MSTORE POP DUP2 ADD SWAP1 PUSH2 0x2BD2 SWAP2 SWAP1 PUSH2 0x3CC4 JUMP JUMPDEST ISZERO PUSH2 0x2982 JUMPI PUSH1 0x40 MLOAD PUSH3 0x7EEAC7 PUSH1 0xE1 SHL DUP2 MSTORE PUSH1 0x0 SWAP1 PUSH1 0x1 PUSH1 0x1 PUSH1 0xA0 SHL SUB DUP7 AND SWAP1 PUSH3 0xFDD58E SWAP1 PUSH2 0x2C06 SWAP1 DUP10 SWAP1 DUP8 SWAP1 PUSH1 0x4 ADD PUSH2 0x3D33 JUMP JUMPDEST PUSH1 0x20 PUSH1 0x40 MLOAD DUP1 DUP4 SUB DUP2 DUP7 GAS STATICCALL ISZERO DUP1 ISZERO PUSH2 0x2C23 JUMPI RETURNDATASIZE PUSH1 0x0 DUP1 RETURNDATACOPY RETURNDATASIZE PUSH1 0x0 REVERT JUMPDEST POP POP POP POP PUSH1 0x40 MLOAD RETURNDATASIZE PUSH1 0x1F NOT PUSH1 0x1F DUP3 ADD AND DUP3 ADD DUP1 PUSH1 0x40 MSTORE POP DUP2 ADD SWAP1 PUSH2 0x2C47 SWAP2 SWAP1 PUSH2 0x39ED JUMP JUMPDEST SWAP1 POP DUP1 DUP3 GT ISZERO DUP1 ISZERO PUSH2 0x2C59 JUMPI POP PUSH1 0x0 DUP3 GT JUMPDEST PUSH2 0x2CA2 JUMPI PUSH1 0x40 MLOAD PUSH3 0x461BCD PUSH1 0xE5 SHL DUP2 MSTORE PUSH1 0x20 PUSH1 0x4 DUP3 ADD MSTORE PUSH1 0x1A PUSH1 0x24 DUP3 ADD MSTORE PUSH26 0x496E73756666696365696E7420746F6B656E2062616C616E6365 PUSH1 0x30 SHL PUSH1 0x44 DUP3 ADD MSTORE PUSH1 0x64 ADD PUSH2 0x4A8 JUMP JUMPDEST PUSH1 0x40 MLOAD PUSH4 0x79212195 PUSH1 0xE1 SHL DUP2 MSTORE PUSH1 0x1 PUSH1 0x1 PUSH1 0xA0 SHL SUB DUP8 DUP2 AND PUSH1 0x4 DUP4 ADD MSTORE DUP6 DUP2 AND PUSH1 0x24 DUP4 ADD MSTORE PUSH1 0x44 DUP3 ADD DUP6 SWAP1 MSTORE PUSH1 0x64 DUP3 ADD DUP5 SWAP1 MSTORE PUSH1 0xA0 PUSH1 0x84 DUP4 ADD MSTORE PUSH1 0x2 PUSH1 0xA4 DUP4 ADD MSTORE PUSH2 0x60F PUSH1 0xF3 SHL PUSH1 0xC4 DUP4 ADD MSTORE DUP7 AND SWAP1 PUSH4 0xF242432A SWAP1 PUSH1 0xE4 ADD PUSH1 0x0 PUSH1 0x40 MLOAD DUP1 DUP4 SUB DUP2 PUSH1 0x0 DUP8 DUP1 EXTCODESIZE ISZERO DUP1 ISZERO PUSH2 0x2D14 JUMPI PUSH1 0x0 DUP1 REVERT JUMPDEST POP GAS CALL ISZERO DUP1 ISZERO PUSH2 0x2D28 JUMPI RETURNDATASIZE PUSH1 0x0 DUP1 RETURNDATACOPY RETURNDATASIZE PUSH1 0x0 REVERT JUMPDEST POP POP POP POP POP POP POP POP POP POP JUMP JUMPDEST PUSH1 0x5 SLOAD PUSH1 0x40 MLOAD PUSH4 0x6E44A72F PUSH1 0xE0 SHL DUP2 MSTORE PUSH1 0x0 SWAP2 DUP5 SWAP2 DUP4 SWAP2 DUP3 SWAP2 DUP3 SWAP2 PUSH1 0x1 PUSH1 0x1 PUSH1 0xA0 SHL SUB AND SWAP1 PUSH4 0x6E44A72F SWAP1 PUSH2 0x2D6F SWAP1 DUP13 SWAP1 DUP13 SWAP1 PUSH1 0x4 ADD PUSH2 0x3D33 JUMP JUMPDEST PUSH1 0x0 PUSH1 0x40 MLOAD DUP1 DUP4 SUB DUP2 DUP7 GAS STATICCALL ISZERO DUP1 ISZERO PUSH2 0x2D8C JUMPI RETURNDATASIZE PUSH1 0x0 DUP1 RETURNDATACOPY RETURNDATASIZE PUSH1 0x0 REVERT JUMPDEST POP POP POP POP PUSH1 0x40 MLOAD RETURNDATASIZE PUSH1 0x0 DUP3 RETURNDATACOPY PUSH1 0x1F RETURNDATASIZE SWAP1 DUP2 ADD PUSH1 0x1F NOT AND DUP3 ADD PUSH1 0x40 MSTORE PUSH2 0x2DB4 SWAP2 SWAP1 DUP2 ADD SWAP1 PUSH2 0x408C JUMP JUMPDEST DUP2 MLOAD SWAP2 SWAP4 POP SWAP2 POP PUSH1 0x0 DUP2 SWAP1 SUB PUSH2 0x2DD1 JUMPI DUP8 SWAP6 POP POP POP POP POP POP PUSH2 0x2EDE JUMP JUMPDEST PUSH1 0x0 JUMPDEST DUP2 DUP2 LT ISZERO PUSH2 0x2ED5 JUMPI PUSH1 0x0 DUP5 DUP3 DUP2 MLOAD DUP2 LT PUSH2 0x2DF0 JUMPI PUSH2 0x2DF0 PUSH2 0x39D7 JUMP JUMPDEST PUSH1 0x20 MUL PUSH1 0x20 ADD ADD MLOAD SWAP1 POP PUSH2 0x2710 DUP11 DUP6 DUP5 DUP2 MLOAD DUP2 LT PUSH2 0x2E10 JUMPI PUSH2 0x2E10 PUSH2 0x39D7 JUMP JUMPDEST PUSH1 0x20 MUL PUSH1 0x20 ADD ADD MLOAD PUSH2 0x2E22 SWAP2 SWAP1 PUSH2 0x3B31 JUMP JUMPDEST PUSH2 0x2E2C SWAP2 SWAP1 PUSH2 0x3B48 JUMP JUMPDEST SWAP6 POP DUP6 DUP8 LT ISZERO PUSH2 0x2E6A JUMPI PUSH1 0x40 MLOAD PUSH3 0x461BCD PUSH1 0xE5 SHL DUP2 MSTORE PUSH1 0x20 PUSH1 0x4 DUP3 ADD MSTORE PUSH1 0x9 PUSH1 0x24 DUP3 ADD MSTORE PUSH9 0x1A5B9CDBDB1D995B9D PUSH1 0xBA SHL PUSH1 0x44 DUP3 ADD MSTORE PUSH1 0x64 ADD PUSH2 0x4A8 JUMP JUMPDEST PUSH2 0x2E76 DUP14 DUP3 DUP12 DUP10 PUSH2 0x28A8 JUMP JUMPDEST PUSH1 0x40 DUP1 MLOAD PUSH1 0x1 PUSH1 0x1 PUSH1 0xA0 SHL SUB DUP15 DUP2 AND DUP3 MSTORE PUSH1 0x20 DUP3 ADD DUP15 SWAP1 MSTORE DUP4 AND DUP2 DUP4 ADD MSTORE PUSH1 0x60 DUP2 ADD DUP9 SWAP1 MSTORE SWAP1 MLOAD PUSH32 0x866E6EF8682DDF5F1025E64DFDB45527077F7BE70FA9EF680B7FFD8CF4AB9C50 SWAP2 DUP2 SWAP1 SUB PUSH1 0x80 ADD SWAP1 LOG1 POP SWAP5 DUP5 SWAP1 SUB SWAP5 PUSH1 0x1 ADD PUSH2 0x2DD4 JUMP JUMPDEST POP SWAP4 SWAP5 POP POP POP POP POP JUMPDEST SWAP6 SWAP5 POP POP POP POP POP JUMP JUMPDEST PUSH1 0x0 DUP2 DUP2 JUMPDEST DUP5 MLOAD DUP2 LT ISZERO PUSH2 0x2F8B JUMPI PUSH1 0x0 DUP6 DUP3 DUP2 MLOAD DUP2 LT PUSH2 0x2F09 JUMPI PUSH2 0x2F09 PUSH2 0x39D7 JUMP JUMPDEST PUSH1 0x20 MUL PUSH1 0x20 ADD ADD MLOAD SWAP1 POP DUP1 DUP4 GT PUSH2 0x2F4B JUMPI PUSH1 0x40 DUP1 MLOAD PUSH1 0x20 DUP2 ADD DUP6 SWAP1 MSTORE SWAP1 DUP2 ADD DUP3 SWAP1 MSTORE PUSH1 0x60 ADD PUSH1 0x40 MLOAD PUSH1 0x20 DUP2 DUP4 SUB SUB DUP2 MSTORE SWAP1 PUSH1 0x40 MSTORE DUP1 MLOAD SWAP1 PUSH1 0x20 ADD KECCAK256 SWAP3 POP PUSH2 0x2F78 JUMP JUMPDEST PUSH1 0x40 DUP1 MLOAD PUSH1 0x20 DUP2 ADD DUP4 SWAP1 MSTORE SWAP1 DUP2 ADD DUP5 SWAP1 MSTORE PUSH1 0x60 ADD PUSH1 0x40 MLOAD PUSH1 0x20 DUP2 DUP4 SUB SUB DUP2 MSTORE SWAP1 PUSH1 0x40 MSTORE DUP1 MLOAD SWAP1 PUSH1 0x20 ADD KECCAK256 SWAP3 POP JUMPDEST POP DUP1 PUSH2 0x2F83 DUP2 PUSH2 0x3AD8 JUMP JUMPDEST SWAP2 POP POP PUSH2 0x2EEC JUMP JUMPDEST POP SWAP4 SWAP3 POP POP POP JUMP JUMPDEST PUSH2 0x2FEB DUP5 PUSH4 0x23B872DD PUSH1 0xE0 SHL DUP6 DUP6 DUP6 PUSH1 0x40 MLOAD PUSH1 0x24 ADD PUSH2 0x2FB4 SWAP4 SWAP3 SWAP2 SWAP1 PUSH2 0x4002 JUMP JUMPDEST PUSH1 0x40 DUP1 MLOAD PUSH1 0x1F NOT DUP2 DUP5 SUB ADD DUP2 MSTORE SWAP2 SWAP1 MSTORE PUSH1 0x20 DUP2 ADD DUP1 MLOAD PUSH1 0x1 PUSH1 0x1 PUSH1 0xE0 SHL SUB AND PUSH1 0x1 PUSH1 0x1 PUSH1 0xE0 SHL SUB NOT SWAP1 SWAP4 AND SWAP3 SWAP1 SWAP3 OR SWAP1 SWAP2 MSTORE PUSH2 0x3164 JUMP JUMPDEST POP POP POP POP JUMP JUMPDEST PUSH1 0x0 DUP2 DUP2 MSTORE PUSH1 0x1 DUP4 ADD PUSH1 0x20 MSTORE PUSH1 0x40 DUP2 KECCAK256 SLOAD DUP1 ISZERO PUSH2 0x30DA JUMPI PUSH1 0x0 PUSH2 0x3015 PUSH1 0x1 DUP4 PUSH2 0x3B7D JUMP JUMPDEST DUP6 SLOAD SWAP1 SWAP2 POP PUSH1 0x0 SWAP1 PUSH2 0x3029 SWAP1 PUSH1 0x1 SWAP1 PUSH2 0x3B7D JUMP JUMPDEST SWAP1 POP DUP2 DUP2 EQ PUSH2 0x308E JUMPI PUSH1 0x0 DUP7 PUSH1 0x0 ADD DUP3 DUP2 SLOAD DUP2 LT PUSH2 0x3049 JUMPI PUSH2 0x3049 PUSH2 0x39D7 JUMP JUMPDEST SWAP1 PUSH1 0x0 MSTORE PUSH1 0x20 PUSH1 0x0 KECCAK256 ADD SLOAD SWAP1 POP DUP1 DUP8 PUSH1 0x0 ADD DUP5 DUP2 SLOAD DUP2 LT PUSH2 0x306C JUMPI PUSH2 0x306C PUSH2 0x39D7 JUMP JUMPDEST PUSH1 0x0 SWAP2 DUP3 MSTORE PUSH1 0x20 DUP1 DUP4 KECCAK256 SWAP1 SWAP2 ADD SWAP3 SWAP1 SWAP3 SSTORE SWAP2 DUP3 MSTORE PUSH1 0x1 DUP9 ADD SWAP1 MSTORE PUSH1 0x40 SWAP1 KECCAK256 DUP4 SWAP1 SSTORE JUMPDEST DUP6 SLOAD DUP7 SWAP1 DUP1 PUSH2 0x309F JUMPI PUSH2 0x309F PUSH2 0x4150 JUMP JUMPDEST PUSH1 0x1 SWAP1 SUB DUP2 DUP2 SWAP1 PUSH1 0x0 MSTORE PUSH1 0x20 PUSH1 0x0 KECCAK256 ADD PUSH1 0x0 SWAP1 SSTORE SWAP1 SSTORE DUP6 PUSH1 0x1 ADD PUSH1 0x0 DUP7 DUP2 MSTORE PUSH1 0x20 ADD SWAP1 DUP2 MSTORE PUSH1 0x20 ADD PUSH1 0x0 KECCAK256 PUSH1 0x0 SWAP1 SSTORE PUSH1 0x1 SWAP4 POP POP POP POP PUSH2 0xAF4 JUMP JUMPDEST PUSH1 0x0 SWAP2 POP POP PUSH2 0xAF4 JUMP JUMPDEST POP SWAP3 SWAP2 POP POP JUMP JUMPDEST PUSH1 0x0 DUP3 PUSH1 0x0 ADD DUP3 DUP2 SLOAD DUP2 LT PUSH2 0x3102 JUMPI PUSH2 0x3102 PUSH2 0x39D7 JUMP JUMPDEST SWAP1 PUSH1 0x0 MSTORE PUSH1 0x20 PUSH1 0x0 KECCAK256 ADD SLOAD SWAP1 POP SWAP3 SWAP2 POP POP JUMP JUMPDEST PUSH1 0x0 DUP2 DUP2 MSTORE PUSH1 0x1 DUP4 ADD PUSH1 0x20 MSTORE PUSH1 0x40 DUP2 KECCAK256 SLOAD PUSH2 0x315C JUMPI POP DUP2 SLOAD PUSH1 0x1 DUP2 DUP2 ADD DUP5 SSTORE PUSH1 0x0 DUP5 DUP2 MSTORE PUSH1 0x20 DUP1 DUP3 KECCAK256 SWAP1 SWAP4 ADD DUP5 SWAP1 SSTORE DUP5 SLOAD DUP5 DUP3 MSTORE DUP3 DUP7 ADD SWAP1 SWAP4 MSTORE PUSH1 0x40 SWAP1 KECCAK256 SWAP2 SWAP1 SWAP2 SSTORE PUSH2 0xAF4 JUMP JUMPDEST POP PUSH1 0x0 PUSH2 0xAF4 JUMP JUMPDEST PUSH1 0x0 PUSH2 0x31B9 DUP3 PUSH1 0x40 MLOAD DUP1 PUSH1 0x40 ADD PUSH1 0x40 MSTORE DUP1 PUSH1 0x20 DUP2 MSTORE PUSH1 0x20 ADD PUSH32 0x5361666545524332303A206C6F772D6C6576656C2063616C6C206661696C6564 DUP2 MSTORE POP DUP6 PUSH1 0x1 PUSH1 0x1 PUSH1 0xA0 SHL SUB AND PUSH2 0x323B SWAP1 SWAP3 SWAP2 SWAP1 PUSH4 0xFFFFFFFF AND JUMP JUMPDEST DUP1 MLOAD SWAP1 SWAP2 POP ISZERO PUSH2 0x3236 JUMPI DUP1 DUP1 PUSH1 0x20 ADD SWAP1 MLOAD DUP2 ADD SWAP1 PUSH2 0x31D7 SWAP2 SWAP1 PUSH2 0x3CC4 JUMP JUMPDEST PUSH2 0x3236 JUMPI PUSH1 0x40 MLOAD PUSH3 0x461BCD PUSH1 0xE5 SHL DUP2 MSTORE PUSH1 0x20 PUSH1 0x4 DUP3 ADD MSTORE PUSH1 0x2A PUSH1 0x24 DUP3 ADD MSTORE PUSH32 0x5361666545524332303A204552433230206F7065726174696F6E20646964206E PUSH1 0x44 DUP3 ADD MSTORE PUSH10 0x1BDD081CDD58D8D95959 PUSH1 0xB2 SHL PUSH1 0x64 DUP3 ADD MSTORE PUSH1 0x84 ADD PUSH2 0x4A8 JUMP JUMPDEST POP POP POP JUMP JUMPDEST PUSH1 0x60 PUSH2 0x324A DUP5 DUP5 PUSH1 0x0 DUP6 PUSH2 0x3252 JUMP JUMPDEST SWAP5 SWAP4 POP POP POP POP JUMP JUMPDEST PUSH1 0x60 DUP3 SELFBALANCE LT ISZERO PUSH2 0x32B3 JUMPI PUSH1 0x40 MLOAD PUSH3 0x461BCD PUSH1 0xE5 SHL DUP2 MSTORE PUSH1 0x20 PUSH1 0x4 DUP3 ADD MSTORE PUSH1 0x26 PUSH1 0x24 DUP3 ADD MSTORE PUSH32 0x416464726573733A20696E73756666696369656E742062616C616E636520666F PUSH1 0x44 DUP3 ADD MSTORE PUSH6 0x1C8818D85B1B PUSH1 0xD2 SHL PUSH1 0x64 DUP3 ADD MSTORE PUSH1 0x84 ADD PUSH2 0x4A8 JUMP JUMPDEST DUP5 EXTCODESIZE PUSH2 0x3301 JUMPI PUSH1 0x40 MLOAD PUSH3 0x461BCD PUSH1 0xE5 SHL DUP2 MSTORE PUSH1 0x20 PUSH1 0x4 DUP3 ADD MSTORE PUSH1 0x1D PUSH1 0x24 DUP3 ADD MSTORE PUSH32 0x416464726573733A2063616C6C20746F206E6F6E2D636F6E7472616374000000 PUSH1 0x44 DUP3 ADD MSTORE PUSH1 0x64 ADD PUSH2 0x4A8 JUMP JUMPDEST PUSH1 0x0 DUP1 DUP7 PUSH1 0x1 PUSH1 0x1 PUSH1 0xA0 SHL SUB AND DUP6 DUP8 PUSH1 0x40 MLOAD PUSH2 0x331D SWAP2 SWAP1 PUSH2 0x3B15 JUMP JUMPDEST PUSH1 0x0 PUSH1 0x40 MLOAD DUP1 DUP4 SUB DUP2 DUP6 DUP8 GAS CALL SWAP3 POP POP POP RETURNDATASIZE DUP1 PUSH1 0x0 DUP2 EQ PUSH2 0x335A JUMPI PUSH1 0x40 MLOAD SWAP2 POP PUSH1 0x1F NOT PUSH1 0x3F RETURNDATASIZE ADD AND DUP3 ADD PUSH1 0x40 MSTORE RETURNDATASIZE DUP3 MSTORE RETURNDATASIZE PUSH1 0x0 PUSH1 0x20 DUP5 ADD RETURNDATACOPY PUSH2 0x335F JUMP JUMPDEST PUSH1 0x60 SWAP2 POP JUMPDEST POP SWAP2 POP SWAP2 POP PUSH2 0x336F DUP3 DUP3 DUP7 PUSH2 0x337A JUMP JUMPDEST SWAP8 SWAP7 POP POP POP POP POP POP POP JUMP JUMPDEST PUSH1 0x60 DUP4 ISZERO PUSH2 0x3389 JUMPI POP DUP2 PUSH2 0x28A1 JUMP JUMPDEST DUP3 MLOAD ISZERO PUSH2 0x3399 JUMPI DUP3 MLOAD DUP1 DUP5 PUSH1 0x20 ADD REVERT JUMPDEST DUP2 PUSH1 0x40 MLOAD PUSH3 0x461BCD PUSH1 0xE5 SHL DUP2 MSTORE PUSH1 0x4 ADD PUSH2 0x4A8 SWAP2 SWAP1 PUSH2 0x4166 JUMP JUMPDEST PUSH1 0x0 DUP1 DUP4 PUSH1 0x1F DUP5 ADD SLT PUSH2 0x33C5 JUMPI PUSH1 0x0 DUP1 REVERT JUMPDEST POP DUP2 CALLDATALOAD PUSH1 0x1 PUSH1 0x1 PUSH1 0x40 SHL SUB DUP2 GT ISZERO PUSH2 0x33DC JUMPI PUSH1 0x0 DUP1 REVERT JUMPDEST PUSH1 0x20 DUP4 ADD SWAP2 POP DUP4 PUSH1 0x20 DUP3 DUP6 ADD ADD GT ISZERO PUSH2 0x33F4 JUMPI PUSH1 0x0 DUP1 REVERT JUMPDEST SWAP3 POP SWAP3 SWAP1 POP JUMP JUMPDEST PUSH4 0x4E487B71 PUSH1 0xE0 SHL PUSH1 0x0 MSTORE PUSH1 0x41 PUSH1 0x4 MSTORE PUSH1 0x24 PUSH1 0x0 REVERT JUMPDEST PUSH1 0x40 MLOAD PUSH1 0x1F DUP3 ADD PUSH1 0x1F NOT AND DUP2 ADD PUSH1 0x1 PUSH1 0x1 PUSH1 0x40 SHL SUB DUP2 GT DUP3 DUP3 LT OR ISZERO PUSH2 0x3439 JUMPI PUSH2 0x3439 PUSH2 0x33FB JUMP JUMPDEST PUSH1 0x40 MSTORE SWAP2 SWAP1 POP JUMP JUMPDEST PUSH1 0x0 PUSH1 0x1 PUSH1 0x1 PUSH1 0x40 SHL SUB DUP3 GT ISZERO PUSH2 0x345A JUMPI PUSH2 0x345A PUSH2 0x33FB JUMP JUMPDEST POP PUSH1 0x5 SHL PUSH1 0x20 ADD SWAP1 JUMP JUMPDEST PUSH1 0x0 DUP1 PUSH1 0x0 DUP1 PUSH1 0x60 DUP6 DUP8 SUB SLT ISZERO PUSH2 0x347A JUMPI PUSH1 0x0 DUP1 REVERT JUMPDEST DUP5 CALLDATALOAD PUSH1 0x1 PUSH1 0x1 PUSH1 0x40 SHL SUB DUP1 DUP3 GT ISZERO PUSH2 0x3491 JUMPI PUSH1 0x0 DUP1 REVERT JUMPDEST PUSH2 0x349D DUP9 DUP4 DUP10 ADD PUSH2 0x33B3 JUMP JUMPDEST SWAP1 SWAP7 POP SWAP5 POP PUSH1 0x20 DUP8 DUP2 ADD CALLDATALOAD SWAP5 POP SWAP2 POP PUSH1 0x40 DUP8 ADD CALLDATALOAD DUP2 DUP2 GT ISZERO PUSH2 0x34BE JUMPI PUSH1 0x0 DUP1 REVERT JUMPDEST DUP8 ADD SWAP1 POP PUSH1 0x1F DUP2 ADD DUP9 SGT PUSH2 0x34D1 JUMPI PUSH1 0x0 DUP1 REVERT JUMPDEST DUP1 CALLDATALOAD PUSH2 0x34E4 PUSH2 0x34DF DUP3 PUSH2 0x3441 JUMP JUMPDEST PUSH2 0x3411 JUMP JUMPDEST DUP2 DUP2 MSTORE PUSH1 0x5 SWAP2 SWAP1 SWAP2 SHL DUP3 ADD DUP4 ADD SWAP1 DUP4 DUP2 ADD SWAP1 DUP11 DUP4 GT ISZERO PUSH2 0x3503 JUMPI PUSH1 0x0 DUP1 REVERT JUMPDEST SWAP3 DUP5 ADD SWAP3 JUMPDEST DUP3 DUP5 LT ISZERO PUSH2 0x3521 JUMPI DUP4 CALLDATALOAD DUP3 MSTORE SWAP3 DUP5 ADD SWAP3 SWAP1 DUP5 ADD SWAP1 PUSH2 0x3508 JUMP JUMPDEST SWAP8 SWAP11 SWAP7 SWAP10 POP SWAP5 SWAP8 POP POP POP POP POP POP JUMP JUMPDEST PUSH1 0x0 PUSH1 0x20 DUP3 DUP5 SUB SLT ISZERO PUSH2 0x3542 JUMPI PUSH1 0x0 DUP1 REVERT JUMPDEST DUP2 CALLDATALOAD PUSH1 0x1 PUSH1 0x1 PUSH1 0xE0 SHL SUB NOT DUP2 AND DUP2 EQ PUSH2 0x28A1 JUMPI PUSH1 0x0 DUP1 REVERT JUMPDEST DUP1 CALLDATALOAD PUSH4 0xFFFFFFFF DUP2 AND DUP2 EQ PUSH2 0x356E JUMPI PUSH1 0x0 DUP1 REVERT JUMPDEST SWAP2 SWAP1 POP JUMP JUMPDEST PUSH1 0x0 DUP1 PUSH1 0x0 PUSH1 0x40 DUP5 DUP7 SUB SLT ISZERO PUSH2 0x3588 JUMPI PUSH1 0x0 DUP1 REVERT JUMPDEST DUP4 CALLDATALOAD PUSH1 0x1 PUSH1 0x1 PUSH1 0x40 SHL SUB DUP2 GT ISZERO PUSH2 0x359E JUMPI PUSH1 0x0 DUP1 REVERT JUMPDEST PUSH2 0x35AA DUP7 DUP3 DUP8 ADD PUSH2 0x33B3 JUMP JUMPDEST SWAP1 SWAP5 POP SWAP3 POP PUSH2 0x35BD SWAP1 POP PUSH1 0x20 DUP6 ADD PUSH2 0x355A JUMP JUMPDEST SWAP1 POP SWAP3 POP SWAP3 POP SWAP3 JUMP JUMPDEST PUSH1 0x0 DUP1 PUSH1 0x0 PUSH1 0x40 DUP5 DUP7 SUB SLT ISZERO PUSH2 0x35DB JUMPI PUSH1 0x0 DUP1 REVERT JUMPDEST DUP4 CALLDATALOAD PUSH1 0x1 PUSH1 0x1 PUSH1 0x40 SHL SUB DUP2 GT ISZERO PUSH2 0x35F1 JUMPI PUSH1 0x0 DUP1 REVERT JUMPDEST PUSH2 0x35FD DUP7 DUP3 DUP8 ADD PUSH2 0x33B3 JUMP JUMPDEST SWAP1 SWAP8 SWAP1 SWAP7 POP PUSH1 0x20 SWAP6 SWAP1 SWAP6 ADD CALLDATALOAD SWAP5 SWAP4 POP POP POP POP JUMP JUMPDEST PUSH1 0x1 PUSH1 0x1 PUSH1 0xA0 SHL SUB DUP2 AND DUP2 EQ PUSH2 0xF49 JUMPI PUSH1 0x0 DUP1 REVERT JUMPDEST DUP1 CALLDATALOAD PUSH2 0x356E DUP2 PUSH2 0x3611 JUMP JUMPDEST PUSH1 0x0 PUSH1 0x20 DUP3 DUP5 SUB SLT ISZERO PUSH2 0x3643 JUMPI PUSH1 0x0 DUP1 REVERT JUMPDEST DUP2 CALLDATALOAD PUSH2 0x28A1 DUP2 PUSH2 0x3611 JUMP JUMPDEST PUSH1 0x20 DUP1 DUP3 MSTORE DUP3 MLOAD DUP3 DUP3 ADD DUP2 SWAP1 MSTORE PUSH1 0x0 SWAP2 SWAP1 DUP5 DUP3 ADD SWAP1 PUSH1 0x40 DUP6 ADD SWAP1 DUP5 JUMPDEST DUP2 DUP2 LT ISZERO PUSH2 0x368F JUMPI DUP4 MLOAD PUSH1 0x1 PUSH1 0x1 PUSH1 0xA0 SHL SUB AND DUP4 MSTORE SWAP3 DUP5 ADD SWAP3 SWAP2 DUP5 ADD SWAP2 PUSH1 0x1 ADD PUSH2 0x366A JUMP JUMPDEST POP SWAP1 SWAP7 SWAP6 POP POP POP POP POP POP JUMP JUMPDEST PUSH1 0x0 DUP1 PUSH1 0x0 PUSH1 0x40 DUP5 DUP7 SUB SLT ISZERO PUSH2 0x36B0 JUMPI PUSH1 0x0 DUP1 REVERT JUMPDEST DUP4 CALLDATALOAD PUSH1 0x1 PUSH1 0x1 PUSH1 0x40 SHL SUB DUP2 GT ISZERO PUSH2 0x36C6 JUMPI PUSH1 0x0 DUP1 REVERT JUMPDEST PUSH2 0x36D2 DUP7 DUP3 DUP8 ADD PUSH2 0x33B3 JUMP JUMPDEST SWAP1 SWAP5 POP SWAP3 POP POP PUSH1 0x20 DUP5 ADD CALLDATALOAD PUSH2 0x36E6 DUP2 PUSH2 0x3611 JUMP JUMPDEST DUP1 SWAP2 POP POP SWAP3 POP SWAP3 POP SWAP3 JUMP JUMPDEST PUSH1 0x0 DUP3 PUSH1 0x1F DUP4 ADD SLT PUSH2 0x3702 JUMPI PUSH1 0x0 DUP1 REVERT JUMPDEST DUP2 CALLDATALOAD PUSH1 0x1 PUSH1 0x1 PUSH1 0x40 SHL SUB DUP2 GT ISZERO PUSH2 0x371B JUMPI PUSH2 0x371B PUSH2 0x33FB JUMP JUMPDEST PUSH2 0x372E PUSH1 0x1F DUP3 ADD PUSH1 0x1F NOT AND PUSH1 0x20 ADD PUSH2 0x3411 JUMP JUMPDEST DUP2 DUP2 MSTORE DUP5 PUSH1 0x20 DUP4 DUP7 ADD ADD GT ISZERO PUSH2 0x3743 JUMPI PUSH1 0x0 DUP1 REVERT JUMPDEST DUP2 PUSH1 0x20 DUP6 ADD PUSH1 0x20 DUP4 ADD CALLDATACOPY PUSH1 0x0 SWAP2 DUP2 ADD PUSH1 0x20 ADD SWAP2 SWAP1 SWAP2 MSTORE SWAP4 SWAP3 POP POP POP JUMP JUMPDEST PUSH1 0x0 PUSH1 0x20 DUP3 DUP5 SUB SLT ISZERO PUSH2 0x3772 JUMPI PUSH1 0x0 DUP1 REVERT JUMPDEST DUP2 CALLDATALOAD PUSH1 0x1 PUSH1 0x1 PUSH1 0x40 SHL SUB DUP2 GT ISZERO PUSH2 0x3788 JUMPI PUSH1 0x0 DUP1 REVERT JUMPDEST PUSH2 0x324A DUP5 DUP3 DUP6 ADD PUSH2 0x36F1 JUMP JUMPDEST PUSH1 0x1 DUP1 PUSH1 0xA0 SHL SUB DUP1 DUP3 MLOAD AND DUP4 MSTORE DUP1 PUSH1 0x20 DUP4 ADD MLOAD AND PUSH1 0x20 DUP5 ADD MSTORE DUP1 PUSH1 0x40 DUP4 ADD MLOAD AND PUSH1 0x40 DUP5 ADD MSTORE PUSH1 0x60 DUP3 ADD MLOAD PUSH2 0xFFFF DUP1 DUP3 AND PUSH1 0x60 DUP7 ADD MSTORE DUP3 PUSH1 0x80 DUP6 ADD MLOAD AND PUSH1 0x80 DUP7 ADD MSTORE DUP1 PUSH1 0xA0 DUP6 ADD MLOAD AND PUSH1 0xA0 DUP7 ADD MSTORE POP POP POP POP POP JUMP JUMPDEST PUSH1 0x1 PUSH1 0x1 PUSH1 0xA0 SHL SUB DUP11 DUP2 AND DUP3 MSTORE PUSH1 0x20 DUP3 ADD DUP11 SWAP1 MSTORE PUSH1 0x40 DUP3 ADD DUP10 SWAP1 MSTORE DUP8 DUP2 AND PUSH1 0x60 DUP4 ADD MSTORE PUSH1 0x80 DUP3 ADD DUP8 SWAP1 MSTORE DUP6 AND PUSH1 0xA0 DUP3 ADD MSTORE PUSH1 0xC0 DUP2 ADD DUP5 SWAP1 MSTORE PUSH1 0xE0 DUP2 ADD DUP4 SWAP1 MSTORE PUSH2 0x1C0 DUP2 ADD PUSH2 0x383A PUSH2 0x100 DUP4 ADD DUP5 PUSH2 0x3794 JUMP JUMPDEST SWAP11 SWAP10 POP POP POP POP POP POP POP POP POP POP JUMP JUMPDEST PUSH1 0x1 PUSH1 0x1 PUSH1 0xA0 SHL SUB SWAP2 SWAP1 SWAP2 AND DUP2 MSTORE PUSH1 0x20 ADD SWAP1 JUMP JUMPDEST PUSH1 0x0 DUP1 PUSH1 0x0 PUSH1 0x60 DUP5 DUP7 SUB SLT ISZERO PUSH2 0x3871 JUMPI PUSH1 0x0 DUP1 REVERT JUMPDEST DUP4 CALLDATALOAD PUSH1 0x1 PUSH1 0x1 PUSH1 0x40 SHL SUB DUP2 GT ISZERO PUSH2 0x3887 JUMPI PUSH1 0x0 DUP1 REVERT JUMPDEST PUSH2 0x3893 DUP7 DUP3 DUP8 ADD PUSH2 0x36F1 JUMP JUMPDEST SWAP4 POP POP PUSH1 0x20 DUP5 ADD CALLDATALOAD PUSH2 0x38A4 DUP2 PUSH2 0x3611 JUMP JUMPDEST SWAP3 SWAP6 SWAP3 SWAP5 POP POP POP PUSH1 0x40 SWAP2 SWAP1 SWAP2 ADD CALLDATALOAD SWAP1 JUMP JUMPDEST PUSH2 0xFFFF DUP2 AND DUP2 EQ PUSH2 0xF49 JUMPI PUSH1 0x0 DUP1 REVERT JUMPDEST PUSH1 0x0 PUSH1 0x20 DUP3 DUP5 SUB SLT ISZERO PUSH2 0x38D7 JUMPI PUSH1 0x0 DUP1 REVERT JUMPDEST DUP2 CALLDATALOAD PUSH2 0x28A1 DUP2 PUSH2 0x38B5 JUMP JUMPDEST PUSH1 0x0 DUP1 PUSH1 0x0 DUP1 PUSH1 0x0 DUP6 DUP8 SUB PUSH2 0x220 DUP2 SLT ISZERO PUSH2 0x38FC JUMPI PUSH1 0x0 DUP1 REVERT JUMPDEST DUP7 CALLDATALOAD PUSH1 0x1 PUSH1 0x1 PUSH1 0x40 SHL SUB DUP2 GT ISZERO PUSH2 0x3912 JUMPI PUSH1 0x0 DUP1 REVERT JUMPDEST PUSH2 0x391E DUP10 DUP3 DUP11 ADD PUSH2 0x33B3 JUMP JUMPDEST SWAP1 SWAP8 POP SWAP6 POP POP PUSH2 0x1C0 PUSH1 0x1F NOT DUP3 ADD SLT ISZERO PUSH2 0x3937 JUMPI PUSH1 0x0 DUP1 REVERT JUMPDEST POP PUSH1 0x20 DUP7 ADD SWAP3 POP PUSH2 0x394B PUSH2 0x1E0 DUP8 ADD PUSH2 0x355A JUMP JUMPDEST SWAP2 POP PUSH2 0x395A PUSH2 0x200 DUP8 ADD PUSH2 0x355A JUMP JUMPDEST SWAP1 POP SWAP3 SWAP6 POP SWAP3 SWAP6 SWAP1 SWAP4 POP JUMP JUMPDEST PUSH1 0x20 DUP1 DUP3 MSTORE PUSH1 0x1F SWAP1 DUP3 ADD MSTORE PUSH32 0x5265656E7472616E637947756172643A207265656E7472616E742063616C6C00 PUSH1 0x40 DUP3 ADD MSTORE PUSH1 0x60 ADD SWAP1 JUMP JUMPDEST DUP2 DUP4 DUP3 CALLDATACOPY PUSH1 0x0 SWAP2 ADD SWAP1 DUP2 MSTORE SWAP2 SWAP1 POP JUMP JUMPDEST PUSH1 0x20 DUP1 DUP3 MSTORE PUSH1 0x10 SWAP1 DUP3 ADD MSTORE PUSH16 0x756E737570706F727465642073616C65 PUSH1 0x80 SHL PUSH1 0x40 DUP3 ADD MSTORE PUSH1 0x60 ADD SWAP1 JUMP JUMPDEST PUSH4 0x4E487B71 PUSH1 0xE0 SHL PUSH1 0x0 MSTORE PUSH1 0x32 PUSH1 0x4 MSTORE PUSH1 0x24 PUSH1 0x0 REVERT JUMPDEST PUSH1 0x0 PUSH1 0x20 DUP3 DUP5 SUB SLT ISZERO PUSH2 0x39FF JUMPI PUSH1 0x0 DUP1 REVERT JUMPDEST POP MLOAD SWAP2 SWAP1 POP JUMP JUMPDEST PUSH1 0x20 DUP1 DUP3 MSTORE PUSH1 0x24 SWAP1 DUP3 ADD MSTORE PUSH32 0x41646D696E436F6E74726F6C3A204D757374206265206F776E6572206F722061 PUSH1 0x40 DUP3 ADD MSTORE PUSH4 0x3236B4B7 PUSH1 0xE1 SHL PUSH1 0x60 DUP3 ADD MSTORE PUSH1 0x80 ADD SWAP1 JUMP JUMPDEST PUSH1 0x20 DUP1 DUP3 MSTORE PUSH1 0x23 SWAP1 DUP3 ADD MSTORE PUSH32 0x7468652061756374696F6E206269642068617320616C72656164792073746172 PUSH1 0x40 DUP3 ADD MSTORE PUSH3 0x1D1959 PUSH1 0xEA SHL PUSH1 0x60 DUP3 ADD MSTORE PUSH1 0x80 ADD SWAP1 JUMP JUMPDEST PUSH1 0x20 DUP1 DUP3 MSTORE DUP2 DUP2 ADD MSTORE PUSH32 0x4F776E61626C653A2063616C6C6572206973206E6F7420746865206F776E6572 PUSH1 0x40 DUP3 ADD MSTORE PUSH1 0x60 ADD SWAP1 JUMP JUMPDEST PUSH4 0x4E487B71 PUSH1 0xE0 SHL PUSH1 0x0 MSTORE PUSH1 0x11 PUSH1 0x4 MSTORE PUSH1 0x24 PUSH1 0x0 REVERT JUMPDEST PUSH1 0x0 PUSH1 0x1 DUP3 ADD PUSH2 0x3AEA JUMPI PUSH2 0x3AEA PUSH2 0x3AC2 JUMP JUMPDEST POP PUSH1 0x1 ADD SWAP1 JUMP JUMPDEST PUSH1 0x0 JUMPDEST DUP4 DUP2 LT ISZERO PUSH2 0x3B0C JUMPI DUP2 DUP2 ADD MLOAD DUP4 DUP3 ADD MSTORE PUSH1 0x20 ADD PUSH2 0x3AF4 JUMP JUMPDEST POP POP PUSH1 0x0 SWAP2 ADD MSTORE JUMP JUMPDEST PUSH1 0x0 DUP3 MLOAD PUSH2 0x3B27 DUP2 DUP5 PUSH1 0x20 DUP8 ADD PUSH2 0x3AF1 JUMP JUMPDEST SWAP2 SWAP1 SWAP2 ADD SWAP3 SWAP2 POP POP JUMP JUMPDEST DUP1 DUP3 MUL DUP2 ISZERO DUP3 DUP3 DIV DUP5 EQ OR PUSH2 0xAF4 JUMPI PUSH2 0xAF4 PUSH2 0x3AC2 JUMP JUMPDEST PUSH1 0x0 DUP3 PUSH2 0x3B65 JUMPI PUSH4 0x4E487B71 PUSH1 0xE0 SHL PUSH1 0x0 MSTORE PUSH1 0x12 PUSH1 0x4 MSTORE PUSH1 0x24 PUSH1 0x0 REVERT JUMPDEST POP DIV SWAP1 JUMP JUMPDEST DUP1 DUP3 ADD DUP1 DUP3 GT ISZERO PUSH2 0xAF4 JUMPI PUSH2 0xAF4 PUSH2 0x3AC2 JUMP JUMPDEST DUP2 DUP2 SUB DUP2 DUP2 GT ISZERO PUSH2 0xAF4 JUMPI PUSH2 0xAF4 PUSH2 0x3AC2 JUMP JUMPDEST PUSH4 0xFFFFFFFF DUP1 DUP3 MLOAD AND DUP4 MSTORE PUSH1 0x20 DUP2 DUP2 DUP5 ADD MLOAD AND DUP2 DUP6 ADD MSTORE PUSH1 0x40 DUP4 ADD MLOAD SWAP2 POP PUSH1 0x40 DUP5 ADD PUSH1 0x0 JUMPDEST PUSH1 0x2 DUP2 LT ISZERO PUSH2 0x3BDB JUMPI DUP4 MLOAD PUSH1 0x1 PUSH1 0x1 PUSH1 0xA0 SHL SUB AND DUP3 MSTORE SWAP3 DUP3 ADD SWAP3 SWAP1 DUP3 ADD SWAP1 PUSH1 0x1 ADD PUSH2 0x3BB5 JUMP JUMPDEST POP POP PUSH1 0x60 DUP4 ADD MLOAD SWAP2 POP PUSH1 0x80 DUP5 ADD PUSH1 0x0 JUMPDEST PUSH1 0x2 DUP2 LT ISZERO PUSH2 0x3C08 JUMPI DUP4 MLOAD DUP3 MSTORE SWAP3 DUP3 ADD SWAP3 SWAP1 DUP3 ADD SWAP1 PUSH1 0x1 ADD PUSH2 0x3BEB JUMP JUMPDEST POP POP POP POP POP POP JUMP JUMPDEST DUP3 MLOAD PUSH1 0x1 PUSH1 0x1 PUSH1 0xA0 SHL SUB SWAP1 DUP2 AND DUP3 MSTORE PUSH1 0x20 DUP1 DUP6 ADD MLOAD SWAP1 DUP4 ADD MSTORE PUSH1 0x40 DUP1 DUP6 ADD MLOAD SWAP1 DUP4 ADD MSTORE PUSH1 0x60 DUP1 DUP6 ADD MLOAD DUP3 AND SWAP1 DUP4 ADD MSTORE PUSH1 0x80 DUP1 DUP6 ADD MLOAD SWAP1 DUP4 ADD MSTORE PUSH1 0xA0 DUP5 DUP2 ADD MLOAD SWAP2 DUP3 AND SWAP1 DUP4 ADD MSTORE PUSH2 0x280 DUP3 ADD SWAP1 POP PUSH1 0xC0 DUP5 ADD MLOAD PUSH1 0xC0 DUP4 ADD MSTORE PUSH1 0xE0 DUP5 ADD MLOAD PUSH1 0xE0 DUP4 ADD MSTORE PUSH2 0x100 DUP1 DUP6 ADD MLOAD PUSH2 0x3C84 DUP3 DUP6 ADD DUP3 PUSH2 0x3794 JUMP JUMPDEST POP POP PUSH2 0x28A1 PUSH2 0x1C0 DUP4 ADD DUP5 PUSH2 0x3B90 JUMP JUMPDEST PUSH2 0xFFFF DUP2 DUP2 AND DUP4 DUP3 AND ADD SWAP1 DUP1 DUP3 GT ISZERO PUSH2 0x30E4 JUMPI PUSH2 0x30E4 PUSH2 0x3AC2 JUMP JUMPDEST PUSH1 0x1 PUSH1 0x1 PUSH1 0xE0 SHL SUB NOT SWAP2 SWAP1 SWAP2 AND DUP2 MSTORE PUSH1 0x20 ADD SWAP1 JUMP JUMPDEST PUSH1 0x0 PUSH1 0x20 DUP3 DUP5 SUB SLT ISZERO PUSH2 0x3CD6 JUMPI PUSH1 0x0 DUP1 REVERT JUMPDEST DUP2 MLOAD DUP1 ISZERO ISZERO DUP2 EQ PUSH2 0x28A1 JUMPI PUSH1 0x0 DUP1 REVERT JUMPDEST PUSH1 0x0 PUSH1 0x20 DUP3 DUP5 SUB SLT ISZERO PUSH2 0x3CF8 JUMPI PUSH1 0x0 DUP1 REVERT JUMPDEST DUP2 MLOAD PUSH2 0x28A1 DUP2 PUSH2 0x3611 JUMP JUMPDEST PUSH1 0x20 DUP1 DUP3 MSTORE PUSH1 0x16 SWAP1 DUP3 ADD MSTORE PUSH22 0x36B0B5B2B91034B9903737BA103A34329037BBB732B9 PUSH1 0x51 SHL PUSH1 0x40 DUP3 ADD MSTORE PUSH1 0x60 ADD SWAP1 JUMP JUMPDEST PUSH1 0x1 PUSH1 0x1 PUSH1 0xA0 SHL SUB SWAP3 SWAP1 SWAP3 AND DUP3 MSTORE PUSH1 0x20 DUP3 ADD MSTORE PUSH1 0x40 ADD SWAP1 JUMP JUMPDEST PUSH1 0x0 DUP2 CALLDATALOAD PUSH2 0xAF4 DUP2 PUSH2 0x3611 JUMP JUMPDEST DUP1 SLOAD PUSH1 0x1 PUSH1 0x1 PUSH1 0xA0 SHL SUB NOT AND PUSH1 0x1 PUSH1 0x1 PUSH1 0xA0 SHL SUB SWAP3 SWAP1 SWAP3 AND SWAP2 SWAP1 SWAP2 OR SWAP1 SSTORE JUMP JUMPDEST DUP1 SLOAD PUSH2 0xFFFF PUSH1 0xA0 SHL NOT AND PUSH1 0xA0 SWAP3 SWAP1 SWAP3 SHL PUSH2 0xFFFF PUSH1 0xA0 SHL AND SWAP2 SWAP1 SWAP2 OR SWAP1 SSTORE JUMP JUMPDEST DUP2 CALLDATALOAD PUSH2 0x3DA3 DUP2 PUSH2 0x3611 JUMP JUMPDEST PUSH2 0x3DAD DUP2 DUP4 PUSH2 0x3D59 JUMP JUMPDEST POP PUSH1 0x20 DUP3 ADD CALLDATALOAD PUSH2 0x3DBC DUP2 PUSH2 0x3611 JUMP JUMPDEST PUSH2 0x3DC9 DUP2 PUSH1 0x1 DUP5 ADD PUSH2 0x3D59 JUMP JUMPDEST POP PUSH1 0x2 DUP2 ADD PUSH1 0x40 DUP4 ADD CALLDATALOAD PUSH2 0x3DDC DUP2 PUSH2 0x3611 JUMP JUMPDEST PUSH2 0x3DE6 DUP2 DUP4 PUSH2 0x3D59 JUMP JUMPDEST POP PUSH1 0x60 DUP4 ADD CALLDATALOAD PUSH2 0x3DF5 DUP2 PUSH2 0x38B5 JUMP JUMPDEST PUSH2 0x3DFF DUP2 DUP4 PUSH2 0x3D79 JUMP JUMPDEST POP POP PUSH1 0x3 DUP2 ADD PUSH1 0x80 DUP4 ADD CALLDATALOAD PUSH2 0x3E13 DUP2 PUSH2 0x3611 JUMP JUMPDEST PUSH2 0x3E1D DUP2 DUP4 PUSH2 0x3D59 JUMP JUMPDEST POP PUSH1 0xA0 DUP4 ADD CALLDATALOAD PUSH2 0x3E2C DUP2 PUSH2 0x38B5 JUMP JUMPDEST PUSH2 0x2FEB DUP2 DUP4 PUSH2 0x3D79 JUMP JUMPDEST PUSH2 0x3E48 PUSH2 0x3E42 DUP4 PUSH2 0x3D4C JUMP JUMPDEST DUP3 PUSH2 0x3D59 JUMP JUMPDEST PUSH1 0x20 DUP3 ADD CALLDATALOAD PUSH1 0x1 DUP3 ADD SSTORE PUSH1 0x40 DUP3 ADD CALLDATALOAD PUSH1 0x2 DUP3 ADD SSTORE PUSH2 0x3E74 PUSH2 0x3E6B PUSH1 0x60 DUP5 ADD PUSH2 0x3D4C JUMP JUMPDEST PUSH1 0x3 DUP4 ADD PUSH2 0x3D59 JUMP JUMPDEST PUSH1 0x80 DUP3 ADD CALLDATALOAD PUSH1 0x4 DUP3 ADD SSTORE PUSH2 0x3E96 PUSH2 0x3E8D PUSH1 0xA0 DUP5 ADD PUSH2 0x3D4C JUMP JUMPDEST PUSH1 0x5 DUP4 ADD PUSH2 0x3D59 JUMP JUMPDEST PUSH1 0xC0 DUP3 ADD CALLDATALOAD PUSH1 0x6 DUP3 ADD SSTORE PUSH1 0xE0 DUP3 ADD CALLDATALOAD PUSH1 0x7 DUP3 ADD SSTORE PUSH2 0xF47 PUSH2 0x100 DUP4 ADD PUSH1 0x8 DUP4 ADD PUSH2 0x3D98 JUMP JUMPDEST PUSH1 0x0 DUP2 CALLDATALOAD PUSH2 0x3EC8 DUP2 PUSH2 0x3611 JUMP JUMPDEST PUSH1 0x1 PUSH1 0x1 PUSH1 0xA0 SHL SUB SWAP1 DUP2 AND DUP5 MSTORE PUSH1 0x20 DUP4 ADD CALLDATALOAD SWAP1 PUSH2 0x3EE4 DUP3 PUSH2 0x3611 JUMP JUMPDEST SWAP1 DUP2 AND PUSH1 0x20 DUP6 ADD MSTORE PUSH1 0x40 DUP4 ADD CALLDATALOAD SWAP1 PUSH2 0x3EFB DUP3 PUSH2 0x3611 JUMP JUMPDEST SWAP1 DUP2 AND PUSH1 0x40 DUP6 ADD MSTORE PUSH1 0x60 DUP4 ADD CALLDATALOAD SWAP1 PUSH2 0x3F12 DUP3 PUSH2 0x38B5 JUMP JUMPDEST PUSH2 0xFFFF SWAP2 DUP3 AND PUSH1 0x60 DUP7 ADD MSTORE PUSH1 0x80 DUP5 ADD CALLDATALOAD SWAP2 PUSH2 0x3F2C DUP4 PUSH2 0x3611 JUMP JUMPDEST SWAP2 DUP2 AND PUSH1 0x80 DUP7 ADD MSTORE PUSH1 0xA0 DUP5 ADD CALLDATALOAD SWAP2 PUSH2 0x3F43 DUP4 PUSH2 0x38B5 JUMP JUMPDEST SWAP2 SWAP1 SWAP2 AND PUSH1 0xA0 DUP6 ADD MSTORE POP POP PUSH1 0xC0 SWAP1 SWAP2 ADD SWAP2 SWAP1 POP JUMP JUMPDEST PUSH1 0x0 DUP3 CALLDATALOAD PUSH2 0x3F65 DUP2 PUSH2 0x3611 JUMP JUMPDEST PUSH1 0x1 PUSH1 0x1 PUSH1 0xA0 SHL SUB SWAP1 DUP2 AND DUP4 MSTORE PUSH1 0x20 DUP5 DUP2 ADD CALLDATALOAD SWAP1 DUP5 ADD MSTORE PUSH1 0x40 DUP1 DUP6 ADD CALLDATALOAD SWAP1 DUP5 ADD MSTORE PUSH1 0x60 DUP5 ADD CALLDATALOAD SWAP1 PUSH2 0x3F95 DUP3 PUSH2 0x3611 JUMP JUMPDEST AND PUSH1 0x60 DUP4 ADD MSTORE PUSH1 0x80 DUP4 DUP2 ADD CALLDATALOAD SWAP1 DUP4 ADD MSTORE PUSH2 0x3FF7 PUSH2 0x3FED PUSH2 0x3FE0 PUSH2 0x3FD3 PUSH1 0xA0 DUP1 DUP8 ADD SWAP1 PUSH2 0x3FC2 SWAP1 DUP10 ADD PUSH2 0x3626 JUMP JUMPDEST PUSH1 0x1 PUSH1 0x1 PUSH1 0xA0 SHL SUB AND DUP2 MSTORE PUSH1 0x20 ADD SWAP1 JUMP JUMPDEST PUSH1 0xC0 DUP8 ADD CALLDATALOAD DUP2 MSTORE PUSH1 0x20 ADD SWAP1 JUMP JUMPDEST PUSH1 0xE0 DUP7 ADD CALLDATALOAD DUP2 MSTORE PUSH1 0x20 ADD SWAP1 JUMP JUMPDEST PUSH2 0x100 DUP6 ADD PUSH2 0x3EBB JUMP JUMPDEST POP POP PUSH2 0x1C0 ADD SWAP2 SWAP1 POP JUMP JUMPDEST PUSH1 0x1 PUSH1 0x1 PUSH1 0xA0 SHL SUB SWAP4 DUP5 AND DUP2 MSTORE SWAP2 SWAP1 SWAP3 AND PUSH1 0x20 DUP3 ADD MSTORE PUSH1 0x40 DUP2 ADD SWAP2 SWAP1 SWAP2 MSTORE PUSH1 0x60 ADD SWAP1 JUMP JUMPDEST PUSH1 0x0 DUP3 PUSH1 0x1F DUP4 ADD SLT PUSH2 0x4037 JUMPI PUSH1 0x0 DUP1 REVERT JUMPDEST DUP2 MLOAD PUSH1 0x20 PUSH2 0x4047 PUSH2 0x34DF DUP4 PUSH2 0x3441 JUMP JUMPDEST DUP3 DUP2 MSTORE PUSH1 0x5 SWAP3 SWAP1 SWAP3 SHL DUP5 ADD DUP2 ADD SWAP2 DUP2 DUP2 ADD SWAP1 DUP7 DUP5 GT ISZERO PUSH2 0x4066 JUMPI PUSH1 0x0 DUP1 REVERT JUMPDEST DUP3 DUP7 ADD JUMPDEST DUP5 DUP2 LT ISZERO PUSH2 0x4081 JUMPI DUP1 MLOAD DUP4 MSTORE SWAP2 DUP4 ADD SWAP2 DUP4 ADD PUSH2 0x406A JUMP JUMPDEST POP SWAP7 SWAP6 POP POP POP POP POP POP JUMP JUMPDEST PUSH1 0x0 DUP1 PUSH1 0x40 DUP4 DUP6 SUB SLT ISZERO PUSH2 0x409F JUMPI PUSH1 0x0 DUP1 REVERT JUMPDEST DUP3 MLOAD PUSH1 0x1 PUSH1 0x1 PUSH1 0x40 SHL SUB DUP1 DUP3 GT ISZERO PUSH2 0x40B6 JUMPI PUSH1 0x0 DUP1 REVERT JUMPDEST DUP2 DUP6 ADD SWAP2 POP DUP6 PUSH1 0x1F DUP4 ADD SLT PUSH2 0x40CA JUMPI PUSH1 0x0 DUP1 REVERT JUMPDEST DUP2 MLOAD PUSH1 0x20 PUSH2 0x40DA PUSH2 0x34DF DUP4 PUSH2 0x3441 JUMP JUMPDEST DUP3 DUP2 MSTORE PUSH1 0x5 SWAP3 SWAP1 SWAP3 SHL DUP5 ADD DUP2 ADD SWAP2 DUP2 DUP2 ADD SWAP1 DUP10 DUP5 GT ISZERO PUSH2 0x40F9 JUMPI PUSH1 0x0 DUP1 REVERT JUMPDEST SWAP5 DUP3 ADD SWAP5 JUMPDEST DUP4 DUP7 LT ISZERO PUSH2 0x4120 JUMPI DUP6 MLOAD PUSH2 0x4111 DUP2 PUSH2 0x3611 JUMP JUMPDEST DUP3 MSTORE SWAP5 DUP3 ADD SWAP5 SWAP1 DUP3 ADD SWAP1 PUSH2 0x40FE JUMP JUMPDEST SWAP2 DUP9 ADD MLOAD SWAP2 SWAP7 POP SWAP1 SWAP4 POP POP POP DUP1 DUP3 GT ISZERO PUSH2 0x4139 JUMPI PUSH1 0x0 DUP1 REVERT JUMPDEST POP PUSH2 0x4146 DUP6 DUP3 DUP7 ADD PUSH2 0x4026 JUMP JUMPDEST SWAP2 POP POP SWAP3 POP SWAP3 SWAP1 POP JUMP JUMPDEST PUSH4 0x4E487B71 PUSH1 0xE0 SHL PUSH1 0x0 MSTORE PUSH1 0x31 PUSH1 0x4 MSTORE PUSH1 0x24 PUSH1 0x0 REVERT JUMPDEST PUSH1 0x20 DUP2 MSTORE PUSH1 0x0 DUP3 MLOAD DUP1 PUSH1 0x20 DUP5 ADD MSTORE PUSH2 0x4185 DUP2 PUSH1 0x40 DUP6 ADD PUSH1 0x20 DUP8 ADD PUSH2 0x3AF1 JUMP JUMPDEST PUSH1 0x1F ADD PUSH1 0x1F NOT AND SWAP2 SWAP1 SWAP2 ADD PUSH1 0x40 ADD SWAP3 SWAP2 POP POP JUMP INVALID LOG2 PUSH5 0x6970667358 0x22 SLT KECCAK256 0xB1 CALLVALUE ADDRESS 0xB0 DUP8 BYTE COINBASE 0xC4 PUSH10 0x4F0AAE1F7C4134CC23A8 ORIGIN SWAP16 0xAB SWAP8 CODESIZE 0x2F 0xAA CALLDATACOPY PC PUSH31 0x3C3FB664736F6C634300081100330000000000000000000000000000000000 "
		},
		"gasEstimates": {
			"creation": {
				"codeDepositCost": "3369400",
				"executionCost": "infinite",
				"totalCost": "infinite"
			},
			"external": {
				"": "535",
				"approveAdmin(address)": "infinite",
				"bid(string,uint256,bytes32[])": "infinite",
				"cancelAuction(string)": "infinite",
				"createAuction(string,(address,uint256,uint256,address,uint256,address,bytes32,bytes32,(address,address,address,uint16,address,uint16)),uint32,uint32)": "infinite",
				"endAuction(string,address,uint256)": "infinite",
				"getAdmins()": "infinite",
				"isAdmin(address)": "4873",
				"listings(string)": "infinite",
				"owner()": "2634",
				"renounceOwnership()": "30427",
				"revokeAdmin(address)": "infinite",
				"royaltySupport()": "2757",
				"supportsInterface(bytes4)": "426",
				"transferOwnership(address)": "30857",
				"updateEndTime(string,uint32)": "infinite",
				"updateMinimumPrice(string,uint256)": "infinite",
				"updatePaymentSettlementAddress(string,address)": "infinite",
				"updatePlatformAddress(address)": "29326",
				"updatePlatformFeePercentage(uint16)": "29395",
				"updateStartTime(string,uint32)": "infinite",
				"updateTaxSettlementAddress(string,address)": "infinite",
				"withdraw()": "infinite"
			},
			"internal": {
				"_handlePayment(address,address payable,address,uint256)": "infinite",
				"_handleRoyaltyEnginePayout(address,address,uint256,uint256,address)": "infinite",
				"_tokenTransaction(address,address,address,uint256,uint256)": "infinite"
			}
		},
		"methodIdentifiers": {
			"approveAdmin(address)": "6d73e669",
			"bid(string,uint256,bytes32[])": "014010ed",
			"cancelAuction(string)": "b60e7a3b",
			"createAuction(string,(address,uint256,uint256,address,uint256,address,bytes32,bytes32,(address,address,address,uint16,address,uint16)),uint32,uint32)": "f6c9b9ad",
			"endAuction(string,address,uint256)": "c164d2d7",
			"getAdmins()": "31ae450b",
			"isAdmin(address)": "24d7806c",
			"listings(string)": "77dec6c3",
			"owner()": "8da5cb5b",
			"renounceOwnership()": "715018a6",
			"revokeAdmin(address)": "2d345670",
			"royaltySupport()": "da20872a",
			"supportsInterface(bytes4)": "01ffc9a7",
			"transferOwnership(address)": "f2fde38b",
			"updateEndTime(string,uint32)": "0a28e844",
			"updateMinimumPrice(string,uint256)": "0dcde0e0",
			"updatePaymentSettlementAddress(string,address)": "5e144cd3",
			"updatePlatformAddress(address)": "8f9f193f",
			"updatePlatformFeePercentage(uint16)": "cbc9a941",
			"updateStartTime(string,uint32)": "2c96cf1d",
			"updateTaxSettlementAddress(string,address)": "c44b44d3",
			"withdraw()": "3ccfd60b"
		}
	},
	"abi": [
		{
			"inputs": [
				{
					"internalType": "address",
					"name": "_platformAddress",
					"type": "address"
				},
				{
					"internalType": "uint16",
					"name": "_platformFeePercentage",
					"type": "uint16"
				}
			],
			"stateMutability": "nonpayable",
			"type": "constructor"
		},
		{
			"anonymous": false,
			"inputs": [
				{
					"indexed": true,
					"internalType": "address",
					"name": "account",
					"type": "address"
				},
				{
					"indexed": true,
					"internalType": "address",
					"name": "sender",
					"type": "address"
				}
			],
			"name": "AdminApproved",
			"type": "event"
		},
		{
			"anonymous": false,
			"inputs": [
				{
					"indexed": true,
					"internalType": "address",
					"name": "account",
					"type": "address"
				},
				{
					"indexed": true,
					"internalType": "address",
					"name": "sender",
					"type": "address"
				}
			],
			"name": "AdminRevoked",
			"type": "event"
		},
		{
			"anonymous": false,
			"inputs": [
				{
					"indexed": true,
					"internalType": "string",
					"name": "auctionId",
					"type": "string"
				},
				{
					"indexed": true,
					"internalType": "address",
					"name": "bidder",
					"type": "address"
				},
				{
					"indexed": true,
					"internalType": "uint256",
					"name": "bidAmount",
					"type": "uint256"
				}
			],
			"name": "AuctionBid",
			"type": "event"
		},
		{
			"anonymous": false,
			"inputs": [
				{
					"components": [
						{
							"internalType": "address",
							"name": "nftContractAddress",
							"type": "address"
						},
						{
							"internalType": "uint256",
							"name": "tokenId",
							"type": "uint256"
						},
						{
							"internalType": "uint256",
							"name": "quantityOf1155",
							"type": "uint256"
						},
						{
							"internalType": "address",
							"name": "tokenOwnerAddress",
							"type": "address"
						},
						{
							"internalType": "uint256",
							"name": "minimumBidCryptoPrice",
							"type": "uint256"
						},
						{
							"internalType": "address",
							"name": "paymentCurrency",
							"type": "address"
						},
						{
							"internalType": "bytes32",
							"name": "whitelistedBuyers",
							"type": "bytes32"
						},
						{
							"internalType": "bytes32",
							"name": "blacklistedBuyers",
							"type": "bytes32"
						},
						{
							"components": [
								{
									"internalType": "address",
									"name": "paymentSettlementAddress",
									"type": "address"
								},
								{
									"internalType": "address",
									"name": "taxSettlementAddress",
									"type": "address"
								},
								{
									"internalType": "address",
									"name": "platformSettlementAddress",
									"type": "address"
								},
								{
									"internalType": "uint16",
									"name": "platformFeePercentage",
									"type": "uint16"
								},
								{
									"internalType": "address",
									"name": "commissionAddress",
									"type": "address"
								},
								{
									"internalType": "uint16",
									"name": "commissionFeePercentage",
									"type": "uint16"
								}
							],
							"internalType": "struct onchainAuction.settlementList",
							"name": "paymentSettlement",
							"type": "tuple"
						}
					],
					"indexed": true,
					"internalType": "struct onchainAuction.createAuctionList",
					"name": "createdDetails",
					"type": "tuple"
				}
			],
			"name": "AuctionCreated",
			"type": "event"
		},
		{
			"anonymous": false,
			"inputs": [
				{
					"indexed": true,
					"internalType": "string",
					"name": "auctionId",
					"type": "string"
				},
				{
					"indexed": true,
					"internalType": "uint256",
					"name": "tokenId",
					"type": "uint256"
				},
				{
					"indexed": true,
					"internalType": "address",
					"name": "tokenOwner",
					"type": "address"
				},
				{
					"components": [
						{
							"internalType": "address",
							"name": "nftContractAddress",
							"type": "address"
						},
						{
							"internalType": "uint256",
							"name": "tokenId",
							"type": "uint256"
						},
						{
							"internalType": "uint256",
							"name": "quantityOf1155",
							"type": "uint256"
						},
						{
							"internalType": "address",
							"name": "tokenOwnerAddress",
							"type": "address"
						},
						{
							"internalType": "uint256",
							"name": "minimumBidCryptoPrice",
							"type": "uint256"
						},
						{
							"internalType": "address",
							"name": "paymentCurrency",
							"type": "address"
						},
						{
							"internalType": "bytes32",
							"name": "whitelistedBuyers",
							"type": "bytes32"
						},
						{
							"internalType": "bytes32",
							"name": "blacklistedBuyers",
							"type": "bytes32"
						},
						{
							"components": [
								{
									"internalType": "address",
									"name": "paymentSettlementAddress",
									"type": "address"
								},
								{
									"internalType": "address",
									"name": "taxSettlementAddress",
									"type": "address"
								},
								{
									"internalType": "address",
									"name": "platformSettlementAddress",
									"type": "address"
								},
								{
									"internalType": "uint16",
									"name": "platformFeePercentage",
									"type": "uint16"
								},
								{
									"internalType": "address",
									"name": "commissionAddress",
									"type": "address"
								},
								{
									"internalType": "uint16",
									"name": "commissionFeePercentage",
									"type": "uint16"
								}
							],
							"internalType": "struct onchainAuction.settlementList",
							"name": "paymentSettlement",
							"type": "tuple"
						}
					],
					"indexed": false,
					"internalType": "struct onchainAuction.createAuctionList",
					"name": "createdDetails",
					"type": "tuple"
				},
				{
					"components": [
						{
							"internalType": "uint32",
							"name": "startTime",
							"type": "uint32"
						},
						{
							"internalType": "uint32",
							"name": "endTime",
							"type": "uint32"
						},
						{
							"internalType": "address[2]",
							"name": "bidder",
							"type": "address[2]"
						},
						{
							"internalType": "uint256[2]",
							"name": "amount",
							"type": "uint256[2]"
						}
					],
					"indexed": false,
					"internalType": "struct onchainAuction.bidHistory",
					"name": "AuctionHistory",
					"type": "tuple"
				}
			],
			"name": "AuctionEnded",
			"type": "event"
		},
		{
			"anonymous": false,
			"inputs": [
				{
					"indexed": true,
					"internalType": "string",
					"name": "auctionId",
					"type": "string"
				}
			],
			"name": "CancellAuction",
			"type": "event"
		},
		{
			"anonymous": false,
			"inputs": [
				{
					"indexed": true,
					"internalType": "address",
					"name": "previousOwner",
					"type": "address"
				},
				{
					"indexed": true,
					"internalType": "address",
					"name": "newOwner",
					"type": "address"
				}
			],
			"name": "OwnershipTransferred",
			"type": "event"
		},
		{
			"anonymous": false,
			"inputs": [
				{
					"indexed": false,
					"internalType": "address",
					"name": "tokenContract",
					"type": "address"
				},
				{
					"indexed": false,
					"internalType": "uint256",
					"name": "tokenId",
					"type": "uint256"
				},
				{
					"indexed": false,
					"internalType": "address",
					"name": "recipient",
					"type": "address"
				},
				{
					"indexed": false,
					"internalType": "uint256",
					"name": "amount",
					"type": "uint256"
				}
			],
			"name": "RoyaltyPayout",
			"type": "event"
		},
		{
			"stateMutability": "payable",
			"type": "fallback"
		},
		{
			"inputs": [
				{
					"internalType": "address",
					"name": "admin",
					"type": "address"
				}
			],
			"name": "approveAdmin",
			"outputs": [],
			"stateMutability": "nonpayable",
			"type": "function"
		},
		{
			"inputs": [
				{
					"internalType": "string",
					"name": "auctionId",
					"type": "string"
				},
				{
					"internalType": "uint256",
					"name": "bidAmount",
					"type": "uint256"
				},
				{
					"internalType": "bytes32[]",
					"name": "proof",
					"type": "bytes32[]"
				}
			],
			"name": "bid",
			"outputs": [],
			"stateMutability": "payable",
			"type": "function"
		},
		{
			"inputs": [
				{
					"internalType": "string",
					"name": "auctionId",
					"type": "string"
				}
			],
			"name": "cancelAuction",
			"outputs": [],
			"stateMutability": "nonpayable",
			"type": "function"
		},
		{
			"inputs": [
				{
					"internalType": "string",
					"name": "auctionId",
					"type": "string"
				},
				{
					"components": [
						{
							"internalType": "address",
							"name": "nftContractAddress",
							"type": "address"
						},
						{
							"internalType": "uint256",
							"name": "tokenId",
							"type": "uint256"
						},
						{
							"internalType": "uint256",
							"name": "quantityOf1155",
							"type": "uint256"
						},
						{
							"internalType": "address",
							"name": "tokenOwnerAddress",
							"type": "address"
						},
						{
							"internalType": "uint256",
							"name": "minimumBidCryptoPrice",
							"type": "uint256"
						},
						{
							"internalType": "address",
							"name": "paymentCurrency",
							"type": "address"
						},
						{
							"internalType": "bytes32",
							"name": "whitelistedBuyers",
							"type": "bytes32"
						},
						{
							"internalType": "bytes32",
							"name": "blacklistedBuyers",
							"type": "bytes32"
						},
						{
							"components": [
								{
									"internalType": "address",
									"name": "paymentSettlementAddress",
									"type": "address"
								},
								{
									"internalType": "address",
									"name": "taxSettlementAddress",
									"type": "address"
								},
								{
									"internalType": "address",
									"name": "platformSettlementAddress",
									"type": "address"
								},
								{
									"internalType": "uint16",
									"name": "platformFeePercentage",
									"type": "uint16"
								},
								{
									"internalType": "address",
									"name": "commissionAddress",
									"type": "address"
								},
								{
									"internalType": "uint16",
									"name": "commissionFeePercentage",
									"type": "uint16"
								}
							],
							"internalType": "struct onchainAuction.settlementList",
							"name": "paymentSettlement",
							"type": "tuple"
						}
					],
					"internalType": "struct onchainAuction.createAuctionList",
					"name": "list",
					"type": "tuple"
				},
				{
					"internalType": "uint32",
					"name": "startTime",
					"type": "uint32"
				},
				{
					"internalType": "uint32",
					"name": "endTime",
					"type": "uint32"
				}
			],
			"name": "createAuction",
			"outputs": [],
			"stateMutability": "nonpayable",
			"type": "function"
		},
		{
			"inputs": [
				{
					"internalType": "string",
					"name": "auctionId",
					"type": "string"
				},
				{
					"internalType": "address",
					"name": "tokenOwner",
					"type": "address"
				},
				{
					"internalType": "uint256",
					"name": "tax",
					"type": "uint256"
				}
			],
			"name": "endAuction",
			"outputs": [],
			"stateMutability": "payable",
			"type": "function"
		},
		{
			"inputs": [],
			"name": "getAdmins",
			"outputs": [
				{
					"internalType": "address[]",
					"name": "admins",
					"type": "address[]"
				}
			],
			"stateMutability": "view",
			"type": "function"
		},
		{
			"inputs": [
				{
					"internalType": "address",
					"name": "admin",
					"type": "address"
				}
			],
			"name": "isAdmin",
			"outputs": [
				{
					"internalType": "bool",
					"name": "",
					"type": "bool"
				}
			],
			"stateMutability": "view",
			"type": "function"
		},
		{
			"inputs": [
				{
					"internalType": "string",
					"name": "",
					"type": "string"
				}
			],
			"name": "listings",
			"outputs": [
				{
					"internalType": "address",
					"name": "nftContractAddress",
					"type": "address"
				},
				{
					"internalType": "uint256",
					"name": "tokenId",
					"type": "uint256"
				},
				{
					"internalType": "uint256",
					"name": "quantityOf1155",
					"type": "uint256"
				},
				{
					"internalType": "address",
					"name": "tokenOwnerAddress",
					"type": "address"
				},
				{
					"internalType": "uint256",
					"name": "minimumBidCryptoPrice",
					"type": "uint256"
				},
				{
					"internalType": "address",
					"name": "paymentCurrency",
					"type": "address"
				},
				{
					"internalType": "bytes32",
					"name": "whitelistedBuyers",
					"type": "bytes32"
				},
				{
					"internalType": "bytes32",
					"name": "blacklistedBuyers",
					"type": "bytes32"
				},
				{
					"components": [
						{
							"internalType": "address",
							"name": "paymentSettlementAddress",
							"type": "address"
						},
						{
							"internalType": "address",
							"name": "taxSettlementAddress",
							"type": "address"
						},
						{
							"internalType": "address",
							"name": "platformSettlementAddress",
							"type": "address"
						},
						{
							"internalType": "uint16",
							"name": "platformFeePercentage",
							"type": "uint16"
						},
						{
							"internalType": "address",
							"name": "commissionAddress",
							"type": "address"
						},
						{
							"internalType": "uint16",
							"name": "commissionFeePercentage",
							"type": "uint16"
						}
					],
					"internalType": "struct onchainAuction.settlementList",
					"name": "paymentSettlement",
					"type": "tuple"
				}
			],
			"stateMutability": "view",
			"type": "function"
		},
		{
			"inputs": [],
			"name": "owner",
			"outputs": [
				{
					"internalType": "address",
					"name": "",
					"type": "address"
				}
			],
			"stateMutability": "view",
			"type": "function"
		},
		{
			"inputs": [],
			"name": "renounceOwnership",
			"outputs": [],
			"stateMutability": "nonpayable",
			"type": "function"
		},
		{
			"inputs": [
				{
					"internalType": "address",
					"name": "admin",
					"type": "address"
				}
			],
			"name": "revokeAdmin",
			"outputs": [],
			"stateMutability": "nonpayable",
			"type": "function"
		},
		{
			"inputs": [],
			"name": "royaltySupport",
			"outputs": [
				{
					"internalType": "contract IRoyaltyEngine",
					"name": "",
					"type": "address"
				}
			],
			"stateMutability": "view",
			"type": "function"
		},
		{
			"inputs": [
				{
					"internalType": "bytes4",
					"name": "interfaceId",
					"type": "bytes4"
				}
			],
			"name": "supportsInterface",
			"outputs": [
				{
					"internalType": "bool",
					"name": "",
					"type": "bool"
				}
			],
			"stateMutability": "view",
			"type": "function"
		},
		{
			"inputs": [
				{
					"internalType": "address",
					"name": "newOwner",
					"type": "address"
				}
			],
			"name": "transferOwnership",
			"outputs": [],
			"stateMutability": "nonpayable",
			"type": "function"
		},
		{
			"inputs": [
				{
					"internalType": "string",
					"name": "auctionId",
					"type": "string"
				},
				{
					"internalType": "uint32",
					"name": "endTime",
					"type": "uint32"
				}
			],
			"name": "updateEndTime",
			"outputs": [],
			"stateMutability": "nonpayable",
			"type": "function"
		},
		{
			"inputs": [
				{
					"internalType": "string",
					"name": "auctionId",
					"type": "string"
				},
				{
					"internalType": "uint256",
					"name": "minimumBidFiatPrice",
					"type": "uint256"
				}
			],
			"name": "updateMinimumPrice",
			"outputs": [],
			"stateMutability": "nonpayable",
			"type": "function"
		},
		{
			"inputs": [
				{
					"internalType": "string",
					"name": "auctionId",
					"type": "string"
				},
				{
					"internalType": "address",
					"name": "paymentSettlementAddress",
					"type": "address"
				}
			],
			"name": "updatePaymentSettlementAddress",
			"outputs": [],
			"stateMutability": "nonpayable",
			"type": "function"
		},
		{
			"inputs": [
				{
					"internalType": "address",
					"name": "_platformAddress",
					"type": "address"
				}
			],
			"name": "updatePlatformAddress",
			"outputs": [],
			"stateMutability": "nonpayable",
			"type": "function"
		},
		{
			"inputs": [
				{
					"internalType": "uint16",
					"name": "_platformFeePercentage",
					"type": "uint16"
				}
			],
			"name": "updatePlatformFeePercentage",
			"outputs": [],
			"stateMutability": "nonpayable",
			"type": "function"
		},
		{
			"inputs": [
				{
					"internalType": "string",
					"name": "auctionId",
					"type": "string"
				},
				{
					"internalType": "uint32",
					"name": "startTime",
					"type": "uint32"
				}
			],
			"name": "updateStartTime",
			"outputs": [],
			"stateMutability": "nonpayable",
			"type": "function"
		},
		{
			"inputs": [
				{
					"internalType": "string",
					"name": "auctionId",
					"type": "string"
				},
				{
					"internalType": "address",
					"name": "taxSettlementAddress",
					"type": "address"
				}
			],
			"name": "updateTaxSettlementAddress",
			"outputs": [],
			"stateMutability": "nonpayable",
			"type": "function"
		},
		{
			"inputs": [],
			"name": "withdraw",
			"outputs": [],
			"stateMutability": "nonpayable",
			"type": "function"
		},
		{
			"stateMutability": "payable",
			"type": "receive"
		}
	]
}