{
  "_format": "hh-sol-artifact-1",
  "contractName": "EIP2981RoyaltyOverrideFactory",
  "sourceName": "contracts/manifold/royalty-registry/overrides/RoyaltyOverrideFactory.sol",
  "abi": [
    {
      "inputs": [
        {
          "internalType": "address",
          "name": "origin",
          "type": "address"
        }
      ],
      "stateMutability": "nonpayable",
      "type": "constructor"
    },
    {
      "anonymous": false,
      "inputs": [
        {
          "indexed": false,
          "internalType": "address",
          "name": "newEIP2981RoyaltyOverride",
          "type": "address"
        }
      ],
      "name": "EIP2981RoyaltyOverrideCreated",
      "type": "event"
    },
    {
      "inputs": [],
      "name": "createOverride",
      "outputs": [
        {
          "internalType": "address",
          "name": "",
          "type": "address"
        }
      ],
      "stateMutability": "nonpayable",
      "type": "function"
    },
    {
      "inputs": [],
      "name": "originAddress",
      "outputs": [
        {
          "internalType": "address",
          "name": "",
          "type": "address"
        }
      ],
      "stateMutability": "view",
      "type": "function"
    }
  ],
  "bytecode": "0x608060405234801561001057600080fd5b506040516102e43803806102e483398101604081905261002f91610054565b600080546001600160a01b0319166001600160a01b0392909216919091179055610084565b60006020828403121561006657600080fd5b81516001600160a01b038116811461007d57600080fd5b9392505050565b610251806100936000396000f3fe608060405234801561001057600080fd5b50600436106100365760003560e01c80634994fa9a1461003b578063e517fedd1461005f575b600080fd5b610043610072565b6040516001600160a01b03909116815260200160405180910390f35b600054610043906001600160a01b031681565b60008054819061008a906001600160a01b031661017a565b9050806001600160a01b0316638129fc1c6040518163ffffffff1660e01b8152600401600060405180830381600087803b1580156100c757600080fd5b505af11580156100db573d6000803e3d6000fd5b505060405163f2fde38b60e01b81523360048201526001600160a01b038416925063f2fde38b9150602401600060405180830381600087803b15801561012057600080fd5b505af1158015610134573d6000803e3d6000fd5b50506040516001600160a01b03841681527f6ace5835f14486bead350c58a6ce67b18fec46c58b809b749b08541cf74580259250602001905060405180910390a1919050565b6000604051733d602d80600a3d3981f3363d3d373d3d3d363d7360601b81528260601b60148201526e5af43d82803e903d91602b57fd5bf360881b60288201526037816000f09150506001600160a01b0381166102165760405162461bcd60e51b8152602060048201526016602482015275115490cc4c4d8dce8818dc99585d194819985a5b195960521b604482015260640160405180910390fd5b91905056fea2646970667358221220568488034432e7346124956913806c3263ca392b9a85bc9fddcbbe6c549169e564736f6c63430008110033",
  "linkReferences": {},
  "deployedLinkReferences": {}
}