{
  "_format": "hh-sol-artifact-1",
  "contractName": "ERC1155TransferHelper",
  "sourceName": "contracts/backup/zora-v3/transferHelpers/ERC1155TransferHelper.sol",
  "abi": [
    {
      "inputs": [
        {
          "internalType": "address",
          "name": "_approvalsManager",
          "type": "address"
        }
      ],
      "stateMutability": "nonpayable",
      "type": "constructor"
    },
    {
      "inputs": [],
      "name": "ZMM",
      "outputs": [
        {
          "internalType": "contract ZoraModuleManager",
          "name": "",
          "type": "address"
        }
      ],
      "stateMutability": "view",
      "type": "function"
    },
    {
      "inputs": [
        {
          "internalType": "address",
          "name": "_user",
          "type": "address"
        }
      ],
      "name": "isModuleApproved",
      "outputs": [
        {
          "internalType": "bool",
          "name": "",
          "type": "bool"
        }
      ],
      "stateMutability": "view",
      "type": "function"
    },
    {
      "inputs": [
        {
          "internalType": "address",
          "name": "_token",
          "type": "address"
        },
        {
          "internalType": "address",
          "name": "_from",
          "type": "address"
        },
        {
          "internalType": "address",
          "name": "_to",
          "type": "address"
        },
        {
          "internalType": "uint256[]",
          "name": "_tokenIds",
          "type": "uint256[]"
        },
        {
          "internalType": "uint256[]",
          "name": "_amounts",
          "type": "uint256[]"
        },
        {
          "internalType": "bytes",
          "name": "_data",
          "type": "bytes"
        }
      ],
      "name": "safeBatchTransferFrom",
      "outputs": [],
      "stateMutability": "nonpayable",
      "type": "function"
    },
    {
      "inputs": [
        {
          "internalType": "address",
          "name": "_token",
          "type": "address"
        },
        {
          "internalType": "address",
          "name": "_from",
          "type": "address"
        },
        {
          "internalType": "address",
          "name": "_to",
          "type": "address"
        },
        {
          "internalType": "uint256",
          "name": "_tokenId",
          "type": "uint256"
        },
        {
          "internalType": "uint256",
          "name": "_amount",
          "type": "uint256"
        },
        {
          "internalType": "bytes",
          "name": "_data",
          "type": "bytes"
        }
      ],
      "name": "safeTransferFrom",
      "outputs": [],
      "stateMutability": "nonpayable",
      "type": "function"
    }
  ],
  "bytecode": "0x60a060405234801561001057600080fd5b506040516107cb3803806107cb83398101604081905261002f916100b0565b806001600160a01b03811661009e5760405162461bcd60e51b815260206004820152602b60248201527f6d75737420736574206d6f64756c65206d616e6167657220746f206e6f6e2d7a60448201526a65726f206164647265737360a81b606482015260840160405180910390fd5b6001600160a01b0316608052506100e0565b6000602082840312156100c257600080fd5b81516001600160a01b03811681146100d957600080fd5b9392505050565b6080516106ca610101600039600081816093015261010801526106ca6000f3fe608060405234801561001057600080fd5b506004361061004c5760003560e01c806372d27692146100515780637ee7f69b14610079578063e3e606f01461008e578063eb46c45b146100cd575b600080fd5b61006461005f36600461028f565b6100e0565b60405190151581526020015b60405180910390f35b61008c6100873660046103e8565b61017b565b005b6100b57f000000000000000000000000000000000000000000000000000000000000000081565b6040516001600160a01b039091168152602001610070565b61008c6100db3660046104a1565b610219565b6040516306e86d9360e31b81526001600160a01b0382811660048301523360248301526000917f0000000000000000000000000000000000000000000000000000000000000000909116906337436c9890604401602060405180830381865afa158015610151573d6000803e3d6000fd5b505050506040513d601f19601f820116820180604052508101906101759190610515565b92915050565b84610185816100e0565b6101aa5760405162461bcd60e51b81526004016101a190610537565b60405180910390fd5b604051631759616b60e11b81526001600160a01b03881690632eb2c2d6906101de90899089908990899089906004016105fc565b600060405180830381600087803b1580156101f857600080fd5b505af115801561020c573d6000803e3d6000fd5b5050505050505050505050565b84610223816100e0565b61023f5760405162461bcd60e51b81526004016101a190610537565b604051637921219560e11b81526001600160a01b0388169063f242432a906101de908990899089908990899060040161065a565b80356001600160a01b038116811461028a57600080fd5b919050565b6000602082840312156102a157600080fd5b6102aa82610273565b9392505050565b634e487b7160e01b600052604160045260246000fd5b604051601f8201601f1916810167ffffffffffffffff811182821017156102f0576102f06102b1565b604052919050565b600082601f83011261030957600080fd5b8135602067ffffffffffffffff821115610325576103256102b1565b8160051b6103348282016102c7565b928352848101820192828101908785111561034e57600080fd5b83870192505b8483101561036d57823582529183019190830190610354565b979650505050505050565b600082601f83011261038957600080fd5b813567ffffffffffffffff8111156103a3576103a36102b1565b6103b6601f8201601f19166020016102c7565b8181528460208386010111156103cb57600080fd5b816020850160208301376000918101602001919091529392505050565b60008060008060008060c0878903121561040157600080fd5b61040a87610273565b955061041860208801610273565b945061042660408801610273565b9350606087013567ffffffffffffffff8082111561044357600080fd5b61044f8a838b016102f8565b9450608089013591508082111561046557600080fd5b6104718a838b016102f8565b935060a089013591508082111561048757600080fd5b5061049489828a01610378565b9150509295509295509295565b60008060008060008060c087890312156104ba57600080fd5b6104c387610273565b95506104d160208801610273565b94506104df60408801610273565b9350606087013592506080870135915060a087013567ffffffffffffffff81111561050957600080fd5b61049489828a01610378565b60006020828403121561052757600080fd5b815180151581146102aa57600080fd5b60208082526024908201527f6d6f64756c6520686173206e6f74206265656e20617070726f766564206279206040820152633ab9b2b960e11b606082015260800190565b600081518084526020808501945080840160005b838110156105ab5781518752958201959082019060010161058f565b509495945050505050565b6000815180845260005b818110156105dc576020818501810151868301820152016105c0565b506000602082860101526020601f19601f83011685010191505092915050565b6001600160a01b0386811682528516602082015260a0604082018190526000906106289083018661057b565b828103606084015261063a818661057b565b9050828103608084015261064e81856105b6565b98975050505050505050565b6001600160a01b03868116825285166020820152604081018490526060810183905260a06080820181905260009061036d908301846105b656fea26469706673582212208e2d0e56e0d6899761b1a9201b2a06cccc05e24e222ccfaec324f4e685f8d8d464736f6c63430008110033",
  "linkReferences": {},
  "deployedLinkReferences": {}
}