{
  "_format": "hh-sol-artifact-1",
  "contractName": "BaseTransferHelper",
  "sourceName": "contracts/backup/zora-v3/transferHelpers/BaseTransferHelper.sol",
  "abi": [
    {
      "inputs": [
        {
          "internalType": "address",
          "name": "_moduleManager",
          "type": "address"
        }
      ],
      "stateMutability": "nonpayable",
      "type": "constructor"
    },
    {
      "inputs": [],
      "name": "ZMM",
      "outputs": [
        {
          "internalType": "contract ZoraModuleManager",
          "name": "",
          "type": "address"
        }
      ],
      "stateMutability": "view",
      "type": "function"
    },
    {
      "inputs": [
        {
          "internalType": "address",
          "name": "_user",
          "type": "address"
        }
      ],
      "name": "isModuleApproved",
      "outputs": [
        {
          "internalType": "bool",
          "name": "",
          "type": "bool"
        }
      ],
      "stateMutability": "view",
      "type": "function"
    }
  ],
  "bytecode": "0x60a060405234801561001057600080fd5b506040516102c33803806102c383398101604081905261002f916100ae565b6001600160a01b03811661009d5760405162461bcd60e51b815260206004820152602b60248201527f6d75737420736574206d6f64756c65206d616e6167657220746f206e6f6e2d7a60448201526a65726f206164647265737360a81b606482015260840160405180910390fd5b6001600160a01b03166080526100de565b6000602082840312156100c057600080fd5b81516001600160a01b03811681146100d757600080fd5b9392505050565b6080516101c56100fe600039600081816068015260ca01526101c56000f3fe608060405234801561001057600080fd5b50600436106100365760003560e01c806372d276921461003b578063e3e606f014610063575b600080fd5b61004e61004936600461013d565b6100a2565b60405190151581526020015b60405180910390f35b61008a7f000000000000000000000000000000000000000000000000000000000000000081565b6040516001600160a01b03909116815260200161005a565b6040516306e86d9360e31b81526001600160a01b0382811660048301523360248301526000917f0000000000000000000000000000000000000000000000000000000000000000909116906337436c9890604401602060405180830381865afa158015610113573d6000803e3d6000fd5b505050506040513d601f19601f82011682018060405250810190610137919061016d565b92915050565b60006020828403121561014f57600080fd5b81356001600160a01b038116811461016657600080fd5b9392505050565b60006020828403121561017f57600080fd5b8151801515811461016657600080fdfea2646970667358221220d910d4171526dbf1067c099b6b0eae665349496b69bab61557b8dd1bb42b28a564736f6c63430008110033",
  "linkReferences": {},
  "deployedLinkReferences": {}
}