{
  "_format": "hh-sol-artifact-1",
  "contractName": "sampleFeed",
  "sourceName": "contracts/mojito/sothebys/sampleFeed.sol",
  "abi": [
    {
      "inputs": [
        {
          "internalType": "address[]",
          "name": "priceFeedAddress",
          "type": "address[]"
        },
        {
          "internalType": "address[]",
          "name": "currencyAddress",
          "type": "address[]"
        },
        {
          "internalType": "address",
          "name": "_admin",
          "type": "address"
        }
      ],
      "stateMutability": "nonpayable",
      "type": "constructor"
    },
    {
      "inputs": [
        {
          "internalType": "address[]",
          "name": "priceFeedAddress",
          "type": "address[]"
        },
        {
          "internalType": "address[]",
          "name": "currencyAddress",
          "type": "address[]"
        }
      ],
      "name": "addPriceFeedAddress",
      "outputs": [],
      "stateMutability": "nonpayable",
      "type": "function"
    },
    {
      "inputs": [],
      "name": "adminAddress",
      "outputs": [
        {
          "internalType": "address",
          "name": "",
          "type": "address"
        }
      ],
      "stateMutability": "view",
      "type": "function"
    },
    {
      "inputs": [
        {
          "internalType": "uint256",
          "name": "amount",
          "type": "uint256"
        },
        {
          "internalType": "address",
          "name": "fiat",
          "type": "address"
        }
      ],
      "name": "getLatestPrice",
      "outputs": [
        {
          "internalType": "uint80",
          "name": "roundId",
          "type": "uint80"
        },
        {
          "internalType": "uint256",
          "name": "USDinCRYPTO",
          "type": "uint256"
        },
        {
          "internalType": "uint256",
          "name": "startat",
          "type": "uint256"
        },
        {
          "internalType": "uint256",
          "name": "updatedat",
          "type": "uint256"
        }
      ],
      "stateMutability": "view",
      "type": "function"
    },
    {
      "inputs": [],
      "name": "owner",
      "outputs": [
        {
          "internalType": "address",
          "name": "",
          "type": "address"
        }
      ],
      "stateMutability": "view",
      "type": "function"
    }
  ],
  "bytecode": "0x60a060405234801561001057600080fd5b5060405161089038038061089083398101604081905261002f9161021e565b81518351146100845760405162461bcd60e51b815260206004820181905260248201527f417272617973206d7573742068617665207468652073616d65206c656e677468604482015260640160405180910390fd5b60005b835181101561011e578381815181106100a2576100a2610291565b60200260200101516000808584815181106100bf576100bf610291565b60200260200101516001600160a01b03166001600160a01b0316815260200190815260200160002060006101000a8154816001600160a01b0302191690836001600160a01b031602179055508080610116906102a7565b915050610087565b5033608052600180546001600160a01b0319166001600160a01b0392909216919091179055506102ce9050565b634e487b7160e01b600052604160045260246000fd5b80516001600160a01b038116811461017857600080fd5b919050565b600082601f83011261018e57600080fd5b815160206001600160401b03808311156101aa576101aa61014b565b8260051b604051601f19603f830116810181811084821117156101cf576101cf61014b565b6040529384528581018301938381019250878511156101ed57600080fd5b83870191505b848210156102135761020482610161565b835291830191908301906101f3565b979650505050505050565b60008060006060848603121561023357600080fd5b83516001600160401b038082111561024a57600080fd5b6102568783880161017d565b9450602086015191508082111561026c57600080fd5b506102798682870161017d565b92505061028860408501610161565b90509250925092565b634e487b7160e01b600052603260045260246000fd5b6000600182016102c757634e487b7160e01b600052601160045260246000fd5b5060010190565b6080516105a86102e86000396000609b01526105a86000f3fe608060405234801561001057600080fd5b506004361061004c5760003560e01c80633a403058146100515780638da5cb5b14610096578063b6090412146100d5578063fc6f9468146100ea575b600080fd5b61006461005f36600461033c565b6100fd565b6040805169ffffffffffffffffffff909516855260208501939093529183015260608201526080015b60405180910390f35b6100bd7f000000000000000000000000000000000000000000000000000000000000000081565b6040516001600160a01b03909116815260200161008d565b6100e86100e3366004610420565b610230565b005b6001546100bd906001600160a01b031681565b6001600160a01b03818116600090815260208190526040812054909182918291829182911661017d5760405162461bcd60e51b815260206004820152602160248201527f70726f76696465206f6e6c7920737570706f727465642063757272656e6369656044820152607360f81b60648201526084015b60405180910390fd5b6001600160a01b0380871660009081526020819052604090819020548151633fabe5a360e21b8152915192169163feaf968c9160048082019260a0929091908290030181865afa1580156101d5573d6000803e3d6000fd5b505050506040513d601f19601f820116820180604052508101906101f9919061049e565b50929750945090925090508061021a886a52b7d2dcc80cd2e4000000610504565b6102249190610521565b93505092959194509250565b80518251146102815760405162461bcd60e51b815260206004820181905260248201527f417272617973206d7573742068617665207468652073616d65206c656e6774686044820152606401610174565b60005b825181101561031b5782818151811061029f5761029f610543565b60200260200101516000808484815181106102bc576102bc610543565b60200260200101516001600160a01b03166001600160a01b0316815260200190815260200160002060006101000a8154816001600160a01b0302191690836001600160a01b03160217905550808061031390610559565b915050610284565b505050565b80356001600160a01b038116811461033757600080fd5b919050565b6000806040838503121561034f57600080fd5b8235915061035f60208401610320565b90509250929050565b634e487b7160e01b600052604160045260246000fd5b600082601f83011261038f57600080fd5b8135602067ffffffffffffffff808311156103ac576103ac610368565b8260051b604051601f19603f830116810181811084821117156103d1576103d1610368565b6040529384528581018301938381019250878511156103ef57600080fd5b83870191505b848210156104155761040682610320565b835291830191908301906103f5565b979650505050505050565b6000806040838503121561043357600080fd5b823567ffffffffffffffff8082111561044b57600080fd5b6104578683870161037e565b9350602085013591508082111561046d57600080fd5b5061047a8582860161037e565b9150509250929050565b805169ffffffffffffffffffff8116811461033757600080fd5b600080600080600060a086880312156104b657600080fd5b6104bf86610484565b94506020860151935060408601519250606086015191506104e260808701610484565b90509295509295909350565b634e487b7160e01b600052601160045260246000fd5b808202811582820484141761051b5761051b6104ee565b92915050565b60008261053e57634e487b7160e01b600052601260045260246000fd5b500490565b634e487b7160e01b600052603260045260246000fd5b60006001820161056b5761056b6104ee565b506001019056fea2646970667358221220568a7284349866f661c7e37fbcca948e1413182d4495d8c7964f63401b93585764736f6c63430008110033",
  "linkReferences": {},
  "deployedLinkReferences": {}
}