{
  "_format": "hh-sol-artifact-1",
  "contractName": "ERC20TransferHelper",
  "sourceName": "contracts/backup/zora-v3/transferHelpers/ERC20TransferHelper.sol",
  "abi": [
    {
      "inputs": [
        {
          "internalType": "address",
          "name": "_approvalsManager",
          "type": "address"
        }
      ],
      "stateMutability": "nonpayable",
      "type": "constructor"
    },
    {
      "inputs": [],
      "name": "ZMM",
      "outputs": [
        {
          "internalType": "contract ZoraModuleManager",
          "name": "",
          "type": "address"
        }
      ],
      "stateMutability": "view",
      "type": "function"
    },
    {
      "inputs": [
        {
          "internalType": "address",
          "name": "_user",
          "type": "address"
        }
      ],
      "name": "isModuleApproved",
      "outputs": [
        {
          "internalType": "bool",
          "name": "",
          "type": "bool"
        }
      ],
      "stateMutability": "view",
      "type": "function"
    },
    {
      "inputs": [
        {
          "internalType": "address",
          "name": "_token",
          "type": "address"
        },
        {
          "internalType": "address",
          "name": "_from",
          "type": "address"
        },
        {
          "internalType": "address",
          "name": "_to",
          "type": "address"
        },
        {
          "internalType": "uint256",
          "name": "_value",
          "type": "uint256"
        }
      ],
      "name": "safeTransferFrom",
      "outputs": [],
      "stateMutability": "nonpayable",
      "type": "function"
    }
  ],
  "bytecode": "0x60a060405234801561001057600080fd5b506040516106de3803806106de83398101604081905261002f916100b0565b806001600160a01b03811661009e5760405162461bcd60e51b815260206004820152602b60248201527f6d75737420736574206d6f64756c65206d616e6167657220746f206e6f6e2d7a60448201526a65726f206164647265737360a81b606482015260840160405180910390fd5b6001600160a01b0316608052506100e0565b6000602082840312156100c257600080fd5b81516001600160a01b03811681146100d957600080fd5b9392505050565b6080516105de610100600039600081816088015260ea01526105de6000f3fe608060405234801561001057600080fd5b50600436106100415760003560e01c806372d2769214610046578063d9fc4b611461006e578063e3e606f014610083575b600080fd5b6100596100543660046104ad565b6100c2565b60405190151581526020015b60405180910390f35b61008161007c3660046104c8565b61015d565b005b6100aa7f000000000000000000000000000000000000000000000000000000000000000081565b6040516001600160a01b039091168152602001610065565b6040516306e86d9360e31b81526001600160a01b0382811660048301523360248301526000917f0000000000000000000000000000000000000000000000000000000000000000909116906337436c9890604401602060405180830381865afa158015610133573d6000803e3d6000fd5b505050506040513d601f19601f820116820180604052508101906101579190610513565b92915050565b82610167816100c2565b6101c45760405162461bcd60e51b8152602060048201526024808201527f6d6f64756c6520686173206e6f74206265656e20617070726f766564206279206044820152633ab9b2b960e11b60648201526084015b60405180910390fd5b6101d96001600160a01b0386168585856101e0565b5050505050565b604080516001600160a01b0385811660248301528416604482015260648082018490528251808303909101815260849091019091526020810180516001600160e01b03166323b872dd60e01b17905261023a908590610240565b50505050565b6000610295826040518060400160405280602081526020017f5361666545524332303a206c6f772d6c6576656c2063616c6c206661696c6564815250856001600160a01b03166103179092919063ffffffff16565b80519091501561031257808060200190518101906102b39190610513565b6103125760405162461bcd60e51b815260206004820152602a60248201527f5361666545524332303a204552433230206f7065726174696f6e20646964206e6044820152691bdd081cdd58d8d9595960b21b60648201526084016101bb565b505050565b60606103268484600085610330565b90505b9392505050565b6060824710156103915760405162461bcd60e51b815260206004820152602660248201527f416464726573733a20696e73756666696369656e742062616c616e636520666f6044820152651c8818d85b1b60d21b60648201526084016101bb565b843b6103df5760405162461bcd60e51b815260206004820152601d60248201527f416464726573733a2063616c6c20746f206e6f6e2d636f6e747261637400000060448201526064016101bb565b600080866001600160a01b031685876040516103fb9190610559565b60006040518083038185875af1925050503d8060008114610438576040519150601f19603f3d011682016040523d82523d6000602084013e61043d565b606091505b509150915061044d828286610458565b979650505050505050565b60608315610467575081610329565b8251156104775782518084602001fd5b8160405162461bcd60e51b81526004016101bb9190610575565b80356001600160a01b03811681146104a857600080fd5b919050565b6000602082840312156104bf57600080fd5b61032982610491565b600080600080608085870312156104de57600080fd5b6104e785610491565b93506104f560208601610491565b925061050360408601610491565b9396929550929360600135925050565b60006020828403121561052557600080fd5b8151801515811461032957600080fd5b60005b83811015610550578181015183820152602001610538565b50506000910152565b6000825161056b818460208701610535565b9190910192915050565b6020815260008251806020840152610594816040850160208701610535565b601f01601f1916919091016040019291505056fea26469706673582212201e06aa373547e540c8eb9555c01d2d98fccf32558b360f5232c6a32910c599b464736f6c63430008110033",
  "linkReferences": {},
  "deployedLinkReferences": {}
}