{
  "_format": "hh-sol-artifact-1",
  "contractName": "FeePayoutSupportV1",
  "sourceName": "contracts/backup/zora-v3/common/FeePayoutSupport/FeePayoutSupportV1.sol",
  "abi": [
    {
      "inputs": [
        {
          "internalType": "address",
          "name": "_royaltyEngine",
          "type": "address"
        },
        {
          "internalType": "address",
          "name": "_protocolFeeSettings",
          "type": "address"
        },
        {
          "internalType": "address",
          "name": "_wethAddress",
          "type": "address"
        },
        {
          "internalType": "address",
          "name": "_registrarAddress",
          "type": "address"
        }
      ],
      "stateMutability": "nonpayable",
      "type": "constructor"
    },
    {
      "anonymous": false,
      "inputs": [
        {
          "indexed": true,
          "internalType": "address",
          "name": "tokenContract",
          "type": "address"
        },
        {
          "indexed": true,
          "internalType": "uint256",
          "name": "tokenId",
          "type": "uint256"
        },
        {
          "indexed": false,
          "internalType": "address",
          "name": "recipient",
          "type": "address"
        },
        {
          "indexed": false,
          "internalType": "uint256",
          "name": "amount",
          "type": "uint256"
        }
      ],
      "name": "RoyaltyPayout",
      "type": "event"
    },
    {
      "inputs": [
        {
          "internalType": "address",
          "name": "_tokenContract",
          "type": "address"
        },
        {
          "internalType": "uint256",
          "name": "_tokenId",
          "type": "uint256"
        },
        {
          "internalType": "uint256",
          "name": "_amount",
          "type": "uint256"
        },
        {
          "internalType": "address",
          "name": "_payoutCurrency",
          "type": "address"
        }
      ],
      "name": "_handleRoyaltyEnginePayout",
      "outputs": [
        {
          "internalType": "uint256",
          "name": "",
          "type": "uint256"
        }
      ],
      "stateMutability": "payable",
      "type": "function"
    },
    {
      "inputs": [],
      "name": "registrar",
      "outputs": [
        {
          "internalType": "address",
          "name": "",
          "type": "address"
        }
      ],
      "stateMutability": "view",
      "type": "function"
    },
    {
      "inputs": [
        {
          "internalType": "address",
          "name": "_royaltyEngine",
          "type": "address"
        }
      ],
      "name": "setRoyaltyEngineAddress",
      "outputs": [],
      "stateMutability": "nonpayable",
      "type": "function"
    }
  ],
  "bytecode": "0x60e060405234801561001057600080fd5b50604051610dad380380610dad83398101604081905261002f91610080565b6001600160a01b03918216608052600080546001600160a01b0319169483169490941790935590811660c0521660a0526100d4565b80516001600160a01b038116811461007b57600080fd5b919050565b6000806000806080858703121561009657600080fd5b61009f85610064565b93506100ad60208601610064565b92506100bb60408601610064565b91506100c960608601610064565b905092959194509250565b60805160a05160c051610ca061010d6000396000505060008181604b01526102da0152600081816104f701526105750152610ca06000f3fe6080604052600436106100345760003560e01c80632b20e397146100395780639128c22c1461008a578063b249bb30146100ab575b600080fd5b34801561004557600080fd5b5061006d7f000000000000000000000000000000000000000000000000000000000000000081565b6040516001600160a01b0390911681526020015b60405180910390f35b61009d6100983660046109bd565b6100cd565b604051908152602001610081565b3480156100b757600080fd5b506100cb6100c6366004610a07565b6102cf565b005b60003330146101395760405162461bcd60e51b815260206004820152602d60248201527f5f68616e646c65526f79616c7479456e67696e655061796f7574206f6e6c792060448201526c73656c662063616c6c61626c6560981b60648201526084015b60405180910390fd5b60008054604051637a99dc0160e11b81526001600160a01b03888116600483015260248201889052604482018790528392169063f533b802906064016000604051808303816000875af1158015610194573d6000803e3d6000fd5b505050506040513d6000823e601f3d908101601f191682016040526101bc9190810190610afa565b8151919350915060008190036101d7578593505050506102c7565b85600080805b848110156102bd578681815181106101f7576101f7610bbf565b6020026020010151925085818151811061021357610213610bbf565b60200260200101519150818410156102595760405162461bcd60e51b81526020600482015260096024820152681a5b9cdbdb1d995b9d60ba1b6044820152606401610130565b61026783838b61c3506103fb565b604080516001600160a01b038581168252602082018590528d92908f16917f866e6ef8682ddf5f1025e64dfdb45527077f7be70fa9ef680b7ffd8cf4ab9c50910160405180910390a392819003926001016101dd565b5091955050505050505b949350505050565b336001600160a01b037f000000000000000000000000000000000000000000000000000000000000000016146103565760405162461bcd60e51b815260206004820152602660248201527f736574526f79616c7479456e67696e6541646472657373206f6e6c792072656760448201526534b9ba3930b960d11b6064820152608401610130565b61036781636591fc0b60e11b6105c1565b6103d95760405162461bcd60e51b815260206004820152603d60248201527f736574526f79616c7479456e67696e6541646472657373206d757374206d617460448201527f63682049526f79616c7479456e67696e65563120696e746572666163650000006064820152608401610130565b600080546001600160a01b0319166001600160a01b0392909216919091179055565b82158061040f57506001600160a01b038416155b6105bb576001600160a01b0382166105a7578247101561047b5760405162461bcd60e51b815260206004820152602160248201527f5f68616e646c654f7574676f696e675472616e7366657220696e736f6c76656e6044820152601d60fa1b6064820152608401610130565b600081158061048957505a82115b6104935781610495565b5a5b90506000856001600160a01b0316858390604051600060405180830381858888f193505050503d80600081146104e7576040519150601f19603f3d011682016040523d82523d6000602084013e6104ec565b606091505b50509050806105a0577f00000000000000000000000000000000000000000000000000000000000000006001600160a01b031663d0e30db0866040518263ffffffff1660e01b81526004016000604051808303818588803b15801561055057600080fd5b505af1158015610564573d6000803e3d6000fd5b506105a09350506001600160a01b037f0000000000000000000000000000000000000000000000000000000000000000169150889050876105e6565b50506105bb565b6105bb6001600160a01b03831685856105e6565b50505050565b60006105cc8361063d565b80156105dd57506105dd8383610670565b90505b92915050565b604080516001600160a01b038416602482015260448082018490528251808303909101815260649091019091526020810180516001600160e01b031663a9059cbb60e01b179052610638908490610759565b505050565b6000610650826301ffc9a760e01b610670565b80156105e05750610669826001600160e01b0319610670565b1592915050565b604080516001600160e01b0319831660248083019190915282518083039091018152604490910182526020810180516001600160e01b03166301ffc9a760e01b179052905160009190829081906001600160a01b03871690617530906106d7908690610bf9565b6000604051808303818686fa925050503d8060008114610713576040519150601f19603f3d011682016040523d82523d6000602084013e610718565b606091505b509150915060208151101561073357600093505050506105e0565b81801561074f57508080602001905181019061074f9190610c15565b9695505050505050565b60006107ae826040518060400160405280602081526020017f5361666545524332303a206c6f772d6c6576656c2063616c6c206661696c6564815250856001600160a01b031661082b9092919063ffffffff16565b80519091501561063857808060200190518101906107cc9190610c15565b6106385760405162461bcd60e51b815260206004820152602a60248201527f5361666545524332303a204552433230206f7065726174696f6e20646964206e6044820152691bdd081cdd58d8d9595960b21b6064820152608401610130565b606061083a8484600085610844565b90505b9392505050565b6060824710156108a55760405162461bcd60e51b815260206004820152602660248201527f416464726573733a20696e73756666696369656e742062616c616e636520666f6044820152651c8818d85b1b60d21b6064820152608401610130565b843b6108f35760405162461bcd60e51b815260206004820152601d60248201527f416464726573733a2063616c6c20746f206e6f6e2d636f6e74726163740000006044820152606401610130565b600080866001600160a01b0316858760405161090f9190610bf9565b60006040518083038185875af1925050503d806000811461094c576040519150601f19603f3d011682016040523d82523d6000602084013e610951565b606091505b509150915061096182828661096c565b979650505050505050565b6060831561097b57508161083d565b82511561098b5782518084602001fd5b8160405162461bcd60e51b81526004016101309190610c37565b6001600160a01b03811681146109ba57600080fd5b50565b600080600080608085870312156109d357600080fd5b84356109de816109a5565b9350602085013592506040850135915060608501356109fc816109a5565b939692955090935050565b600060208284031215610a1957600080fd5b813561083d816109a5565b634e487b7160e01b600052604160045260246000fd5b604051601f8201601f1916810167ffffffffffffffff81118282101715610a6357610a63610a24565b604052919050565b600067ffffffffffffffff821115610a8557610a85610a24565b5060051b60200190565b600082601f830112610aa057600080fd5b81516020610ab5610ab083610a6b565b610a3a565b82815260059290921b84018101918181019086841115610ad457600080fd5b8286015b84811015610aef5780518352918301918301610ad8565b509695505050505050565b60008060408385031215610b0d57600080fd5b825167ffffffffffffffff80821115610b2557600080fd5b818501915085601f830112610b3957600080fd5b81516020610b49610ab083610a6b565b82815260059290921b84018101918181019089841115610b6857600080fd5b948201945b83861015610b8f578551610b80816109a5565b82529482019490820190610b6d565b91880151919650909350505080821115610ba857600080fd5b50610bb585828601610a8f565b9150509250929050565b634e487b7160e01b600052603260045260246000fd5b60005b83811015610bf0578181015183820152602001610bd8565b50506000910152565b60008251610c0b818460208701610bd5565b9190910192915050565b600060208284031215610c2757600080fd5b8151801515811461083d57600080fd5b6020815260008251806020840152610c56816040850160208701610bd5565b601f01601f1916919091016040019291505056fea2646970667358221220a4e42f894d7aa0af18eae4c32ff21dc76b0b23e23b42b3370c9d15f2341c6f5864736f6c63430008110033",
  "linkReferences": {},
  "deployedLinkReferences": {}
}