{
  "_format": "hh-sol-artifact-1",
  "contractName": "MockERC1155CreatorExtensionBurnable",
  "sourceName": "contracts/manifold/creator-core/mocks/MockERC1155CreatorExtensionBurnable.sol",
  "abi": [
    {
      "inputs": [
        {
          "internalType": "address",
          "name": "creator",
          "type": "address"
        }
      ],
      "stateMutability": "nonpayable",
      "type": "constructor"
    },
    {
      "anonymous": false,
      "inputs": [
        {
          "indexed": true,
          "internalType": "address",
          "name": "account",
          "type": "address"
        },
        {
          "indexed": true,
          "internalType": "address",
          "name": "sender",
          "type": "address"
        }
      ],
      "name": "AdminApproved",
      "type": "event"
    },
    {
      "anonymous": false,
      "inputs": [
        {
          "indexed": true,
          "internalType": "address",
          "name": "account",
          "type": "address"
        },
        {
          "indexed": true,
          "internalType": "address",
          "name": "sender",
          "type": "address"
        }
      ],
      "name": "AdminRevoked",
      "type": "event"
    },
    {
      "anonymous": false,
      "inputs": [
        {
          "indexed": true,
          "internalType": "address",
          "name": "previousOwner",
          "type": "address"
        },
        {
          "indexed": true,
          "internalType": "address",
          "name": "newOwner",
          "type": "address"
        }
      ],
      "name": "OwnershipTransferred",
      "type": "event"
    },
    {
      "inputs": [
        {
          "internalType": "address",
          "name": "admin",
          "type": "address"
        }
      ],
      "name": "approveAdmin",
      "outputs": [],
      "stateMutability": "nonpayable",
      "type": "function"
    },
    {
      "inputs": [
        {
          "internalType": "uint256",
          "name": "tokenId",
          "type": "uint256"
        }
      ],
      "name": "burntTokens",
      "outputs": [
        {
          "internalType": "uint256",
          "name": "",
          "type": "uint256"
        }
      ],
      "stateMutability": "view",
      "type": "function"
    },
    {
      "inputs": [],
      "name": "getAdmins",
      "outputs": [
        {
          "internalType": "address[]",
          "name": "admins",
          "type": "address[]"
        }
      ],
      "stateMutability": "view",
      "type": "function"
    },
    {
      "inputs": [
        {
          "internalType": "address",
          "name": "admin",
          "type": "address"
        }
      ],
      "name": "isAdmin",
      "outputs": [
        {
          "internalType": "bool",
          "name": "",
          "type": "bool"
        }
      ],
      "stateMutability": "view",
      "type": "function"
    },
    {
      "inputs": [
        {
          "internalType": "address",
          "name": "creator",
          "type": "address"
        },
        {
          "internalType": "address[]",
          "name": "to",
          "type": "address[]"
        },
        {
          "internalType": "uint256[]",
          "name": "amounts",
          "type": "uint256[]"
        },
        {
          "internalType": "string[]",
          "name": "uris",
          "type": "string[]"
        }
      ],
      "name": "mintNew",
      "outputs": [
        {
          "internalType": "uint256[]",
          "name": "",
          "type": "uint256[]"
        }
      ],
      "stateMutability": "nonpayable",
      "type": "function"
    },
    {
      "inputs": [],
      "name": "mintedTokens",
      "outputs": [
        {
          "internalType": "uint256[]",
          "name": "",
          "type": "uint256[]"
        }
      ],
      "stateMutability": "view",
      "type": "function"
    },
    {
      "inputs": [
        {
          "internalType": "address",
          "name": "to",
          "type": "address"
        },
        {
          "internalType": "uint256[]",
          "name": "tokenIds",
          "type": "uint256[]"
        },
        {
          "internalType": "uint256[]",
          "name": "amounts",
          "type": "uint256[]"
        }
      ],
      "name": "onBurn",
      "outputs": [],
      "stateMutability": "nonpayable",
      "type": "function"
    },
    {
      "inputs": [],
      "name": "owner",
      "outputs": [
        {
          "internalType": "address",
          "name": "",
          "type": "address"
        }
      ],
      "stateMutability": "view",
      "type": "function"
    },
    {
      "inputs": [],
      "name": "renounceOwnership",
      "outputs": [],
      "stateMutability": "nonpayable",
      "type": "function"
    },
    {
      "inputs": [
        {
          "internalType": "address",
          "name": "admin",
          "type": "address"
        }
      ],
      "name": "revokeAdmin",
      "outputs": [],
      "stateMutability": "nonpayable",
      "type": "function"
    },
    {
      "inputs": [
        {
          "internalType": "address",
          "name": "creator",
          "type": "address"
        },
        {
          "internalType": "string",
          "name": "uri",
          "type": "string"
        },
        {
          "internalType": "bool",
          "name": "identical",
          "type": "bool"
        }
      ],
      "name": "setBaseTokenURI",
      "outputs": [],
      "stateMutability": "nonpayable",
      "type": "function"
    },
    {
      "inputs": [
        {
          "internalType": "address",
          "name": "creator",
          "type": "address"
        },
        {
          "internalType": "string",
          "name": "uri",
          "type": "string"
        }
      ],
      "name": "setBaseTokenURI",
      "outputs": [],
      "stateMutability": "nonpayable",
      "type": "function"
    },
    {
      "inputs": [
        {
          "internalType": "address",
          "name": "creator",
          "type": "address"
        },
        {
          "internalType": "uint256",
          "name": "tokenId",
          "type": "uint256"
        },
        {
          "internalType": "string",
          "name": "uri",
          "type": "string"
        }
      ],
      "name": "setTokenURI",
      "outputs": [],
      "stateMutability": "nonpayable",
      "type": "function"
    },
    {
      "inputs": [
        {
          "internalType": "address",
          "name": "creator",
          "type": "address"
        },
        {
          "internalType": "uint256[]",
          "name": "tokenIds",
          "type": "uint256[]"
        },
        {
          "internalType": "string[]",
          "name": "uris",
          "type": "string[]"
        }
      ],
      "name": "setTokenURI",
      "outputs": [],
      "stateMutability": "nonpayable",
      "type": "function"
    },
    {
      "inputs": [
        {
          "internalType": "address",
          "name": "creator",
          "type": "address"
        },
        {
          "internalType": "string",
          "name": "prefix",
          "type": "string"
        }
      ],
      "name": "setTokenURIPrefix",
      "outputs": [],
      "stateMutability": "nonpayable",
      "type": "function"
    },
    {
      "inputs": [
        {
          "internalType": "bytes4",
          "name": "interfaceId",
          "type": "bytes4"
        }
      ],
      "name": "supportsInterface",
      "outputs": [
        {
          "internalType": "bool",
          "name": "",
          "type": "bool"
        }
      ],
      "stateMutability": "view",
      "type": "function"
    },
    {
      "inputs": [
        {
          "internalType": "address[]",
          "name": "to",
          "type": "address[]"
        },
        {
          "internalType": "uint256[]",
          "name": "tokenIds",
          "type": "uint256[]"
        },
        {
          "internalType": "uint256[]",
          "name": "amounts",
          "type": "uint256[]"
        }
      ],
      "name": "testMintExisting",
      "outputs": [],
      "stateMutability": "nonpayable",
      "type": "function"
    },
    {
      "inputs": [
        {
          "internalType": "address[]",
          "name": "to",
          "type": "address[]"
        },
        {
          "internalType": "uint256[]",
          "name": "amounts",
          "type": "uint256[]"
        },
        {
          "internalType": "string[]",
          "name": "uris",
          "type": "string[]"
        }
      ],
      "name": "testMintNew",
      "outputs": [],
      "stateMutability": "nonpayable",
      "type": "function"
    },
    {
      "inputs": [
        {
          "internalType": "address",
          "name": "newOwner",
          "type": "address"
        }
      ],
      "name": "transferOwnership",
      "outputs": [],
      "stateMutability": "nonpayable",
      "type": "function"
    }
  ],
  "bytecode": "0x608060405234801561001057600080fd5b50604051611c75380380611c7583398101604081905261002f91610095565b600080546001600160a01b031916339081178255604051909182917f8be0079c531659141344cd1fd0a4f28419497f9722a3daafe3b4186f6b6457e0908290a350600680546001600160a01b0319166001600160a01b03929092169190911790556100c5565b6000602082840312156100a757600080fd5b81516001600160a01b03811681146100be57600080fd5b9392505050565b611ba1806100d46000396000f3fe608060405234801561001057600080fd5b50600436106101215760003560e01c8063715018a6116100ad578063aaa9883b11610071578063aaa9883b14610263578063d36c4bc714610276578063d8a73fdb14610289578063f2fde38b1461029c578063f7539876146102af57600080fd5b8063715018a61461020557806372ebee8e1461020d5780637b8deca0146102205780638d75fe05146102335780638da5cb5b1461024857600080fd5b806331ae450b116100f457806331ae450b146101a45780634aec8cc5146101b95780634c5cfbf2146101cc5780634e5786bf146101df5780636d73e669146101f257600080fd5b806301ffc9a71461012657806324d7806c1461014e57806324d8a510146101615780632d3456701461018f575b600080fd5b610139610134366004611250565b6102c2565b60405190151581526020015b60405180910390f35b61013961015c366004611296565b6102e2565b61018161016f3660046112b1565b60009081526005602052604090205490565b604051908152602001610145565b6101a261019d366004611296565b61031b565b005b6101ac6103a4565b60405161014591906112ca565b6101a26101c7366004611363565b610453565b6101a26101da36600461144d565b6104ce565b6101a26101ed3660046114b3565b6105a3565b6101a2610200366004611296565b61064a565b6101a26106c4565b6101a261021b36600461150d565b610738565b6101a261022e366004611560565b610814565b61023b61089f565b60405161014591906115e1565b6000546040516001600160a01b039091168152602001610145565b6101a2610271366004611560565b6108f7565b61023b610284366004611619565b6109d9565b6101a261029736600461150d565b610a40565b6101a26102aa366004611296565b610b28565b6101a26102bd366004611363565b610c12565b60006102cd82610c86565b806102dc57506102dc82610cab565b92915050565b6000816001600160a01b03166103006000546001600160a01b031690565b6001600160a01b031614806102dc57506102dc600183610cd0565b6000546001600160a01b0316331461034e5760405162461bcd60e51b8152600401610345906116c4565b60405180910390fd5b610359600182610cd0565b156103a15760405133906001600160a01b038316907f7c0c3c84c67c85fcac635147348bfe374c24a1a93d0366d1cfe9d8853cbf89d590600090a361039f600182610cf5565b505b50565b60606103b06001610d0a565b67ffffffffffffffff8111156103c8576103c86116f9565b6040519080825280602002602001820160405280156103f1578160200160208202803683370190505b50905060005b6104016001610d0a565b81101561044f57610413600182610d14565b8282815181106104255761042561170f565b6001600160a01b0390921660209283029190910190910152806104478161173b565b9150506103f7565b5090565b600654600090610471906001600160a01b0316888888888888610d20565b905060005b81518110156104c45760048282815181106104935761049361170f565b60209081029190910181015182546001810184556000938452919092200155806104bc8161173b565b915050610476565b5050505050505050565b336104e16000546001600160a01b031690565b6001600160a01b031614806104fc57506104fc600133610cd0565b6105185760405162461bcd60e51b815260040161034590611754565b610529846328f10a2160e01b610e8d565b6105455760405162461bcd60e51b815260040161034590611798565b60405163105b981960e31b81526001600160a01b038516906382dcc0c8906105759086908690869060040161180a565b600060405180830381600087803b15801561058f57600080fd5b505af11580156104c4573d6000803e3d6000fd5b336105b66000546001600160a01b031690565b6001600160a01b031614806105d157506105d1600133610cd0565b6105ed5760405162461bcd60e51b815260040161034590611754565b6105fe846328f10a2160e01b610e8d565b61061a5760405162461bcd60e51b815260040161034590611798565b60405163749544fb60e11b81526001600160a01b0385169063e92a89f69061057590869086908690600401611830565b6000546001600160a01b031633146106745760405162461bcd60e51b8152600401610345906116c4565b61067f600182610cd0565b6103a15760405133906001600160a01b038316907f7e1a1a08d52e4ba0e21554733d66165fd5151f99460116223d9e3a608eec5cb190600090a361039f600182610ea9565b6000546001600160a01b031633146106ee5760405162461bcd60e51b8152600401610345906116c4565b600080546040516001600160a01b03909116907f8be0079c531659141344cd1fd0a4f28419497f9722a3daafe3b4186f6b6457e0908390a3600080546001600160a01b0319169055565b3361074b6000546001600160a01b031690565b6001600160a01b031614806107665750610766600133610cd0565b6107825760405162461bcd60e51b815260040161034590611754565b610793836328f10a2160e01b610e8d565b6107af5760405162461bcd60e51b815260040161034590611798565b60405163066d1e9d60e41b81526001600160a01b038416906366d1e9d0906107dd9085908590600401611853565b600060405180830381600087803b1580156107f757600080fd5b505af115801561080b573d6000803e3d6000fd5b50505050505050565b6108218585858585610ebe565b60005b838110156108975782828281811061083e5761083e61170f565b905060200201356005600087878581811061085b5761085b61170f565b905060200201358152602001908152602001600020600082825461087f919061186f565b9091555081905061088f8161173b565b915050610824565b505050505050565b606060048054806020026020016040519081016040528092919081815260200182805480156108ed57602002820191906000526020600020905b8154815260200190600101908083116108d9575b5050505050905090565b3361090a6000546001600160a01b031690565b6001600160a01b031614806109255750610925600133610cd0565b6109415760405162461bcd60e51b815260040161034590611754565b610952856328f10a2160e01b610e8d565b61096e5760405162461bcd60e51b815260040161034590611798565b6040516361e5bc6b60e01b81526001600160a01b038616906361e5bc6b906109a0908790879087908790600401611946565b600060405180830381600087803b1580156109ba57600080fd5b505af11580156109ce573d6000803e3d6000fd5b505050505050505050565b6060336109ee6000546001600160a01b031690565b6001600160a01b03161480610a095750610a09600133610cd0565b610a255760405162461bcd60e51b815260040161034590611754565b610a3488888888888888610d20565b98975050505050505050565b33610a536000546001600160a01b031690565b6001600160a01b03161480610a6e5750610a6e600133610cd0565b610a8a5760405162461bcd60e51b815260040161034590611754565b610a9b836328f10a2160e01b610e8d565b610afa5760405162461bcd60e51b815260206004820152602a60248201527f52657175697265732063726561746f7220746f20696d706c656d656e74204943604482015269726561746f72436f726560b01b6064820152608401610345565b6040516307cc269760e31b81526001600160a01b03841690633e6134b8906107dd9085908590600401611853565b6000546001600160a01b03163314610b525760405162461bcd60e51b8152600401610345906116c4565b6001600160a01b038116610bb75760405162461bcd60e51b815260206004820152602660248201527f4f776e61626c653a206e6577206f776e657220697320746865207a65726f206160448201526564647265737360d01b6064820152608401610345565b600080546040516001600160a01b03808516939216917f8be0079c531659141344cd1fd0a4f28419497f9722a3daafe3b4186f6b6457e091a3600080546001600160a01b0319166001600160a01b0392909216919091179055565b6006546040516339b2213760e21b81526001600160a01b039091169063e6c884dc90610c4c908990899089908990899089906004016119bf565b600060405180830381600087803b158015610c6657600080fd5b505af1158015610c7a573d6000803e3d6000fd5b50505050505050505050565b60006001600160e01b031982166302ee242360e01b14806102dc57506102dc82610f6e565b60006001600160e01b031982166303dc6f6560e51b14806102dc57506102dc82610c86565b6001600160a01b038116600090815260018301602052604081205415155b9392505050565b6000610cee836001600160a01b038416610f93565b60006102dc825490565b6000610cee8383611086565b6060610d33886301f4921160e61b610e8d565b610d925760405162461bcd60e51b815260206004820152602a60248201527f63726561746f72206d75737420696d706c656d656e7420494552433131353543604482015269726561746f72436f726560b01b6064820152608401610345565b604051634637423960e11b81526001600160a01b03891690638c6e847290610dc8908a908a908a908a908a908a90600401611a08565b6000604051808303816000875af1158015610de7573d6000803e3d6000fd5b505050506040513d6000823e601f3d908101601f19168201604052610e0f9190810190611a44565b905060005b8151811015610e81578860036000848481518110610e3457610e3461170f565b6020026020010151815260200190815260200160002060006101000a8154816001600160a01b0302191690836001600160a01b031602179055508080610e799061173b565b915050610e14565b50979650505050505050565b6000610e98836110b0565b8015610cee5750610cee83836110e3565b6000610cee836001600160a01b0384166111cc565b60005b83811015610897573360036000878785818110610ee057610ee061170f565b60209081029290920135835250810191909152604001600020546001600160a01b031614610f5c5760405162461bcd60e51b815260206004820152602360248201527f43616e206f6e6c792062652063616c6c656420627920746f6b656e20637265616044820152623a37b960e91b6064820152608401610345565b80610f668161173b565b915050610ec1565b60006001600160e01b03198216637005caad60e01b14806102dc57506102dc8261121b565b6000818152600183016020526040812054801561107c576000610fb7600183611af6565b8554909150600090610fcb90600190611af6565b9050818114611030576000866000018281548110610feb57610feb61170f565b906000526020600020015490508087600001848154811061100e5761100e61170f565b6000918252602080832090910192909255918252600188019052604090208390555b855486908061104157611041611b09565b6001900381819060005260206000200160009055905585600101600086815260200190815260200160002060009055600193505050506102dc565b60009150506102dc565b600082600001828154811061109d5761109d61170f565b9060005260206000200154905092915050565b60006110c3826301ffc9a760e01b6110e3565b80156102dc57506110dc826001600160e01b03196110e3565b1592915050565b604080516001600160e01b0319831660248083019190915282518083039091018152604490910182526020810180516001600160e01b03166301ffc9a760e01b179052905160009190829081906001600160a01b038716906175309061114a908690611b1f565b6000604051808303818686fa925050503d8060008114611186576040519150601f19603f3d011682016040523d82523d6000602084013e61118b565b606091505b50915091506020815110156111a657600093505050506102dc565b8180156111c25750808060200190518101906111c29190611b4e565b9695505050505050565b6000818152600183016020526040812054611213575081546001818101845560008481526020808220909301849055845484825282860190935260409020919091556102dc565b5060006102dc565b60006001600160e01b03198216632a9f3abf60e11b14806102dc57506301ffc9a760e01b6001600160e01b03198316146102dc565b60006020828403121561126257600080fd5b81356001600160e01b031981168114610cee57600080fd5b80356001600160a01b038116811461129157600080fd5b919050565b6000602082840312156112a857600080fd5b610cee8261127a565b6000602082840312156112c357600080fd5b5035919050565b6020808252825182820181905260009190848201906040850190845b8181101561130b5783516001600160a01b0316835292840192918401916001016112e6565b50909695505050505050565b60008083601f84011261132957600080fd5b50813567ffffffffffffffff81111561134157600080fd5b6020830191508360208260051b850101111561135c57600080fd5b9250929050565b6000806000806000806060878903121561137c57600080fd5b863567ffffffffffffffff8082111561139457600080fd5b6113a08a838b01611317565b909850965060208901359150808211156113b957600080fd5b6113c58a838b01611317565b909650945060408901359150808211156113de57600080fd5b506113eb89828a01611317565b979a9699509497509295939492505050565b60008083601f84011261140f57600080fd5b50813567ffffffffffffffff81111561142757600080fd5b60208301915083602082850101111561135c57600080fd5b80151581146103a157600080fd5b6000806000806060858703121561146357600080fd5b61146c8561127a565b9350602085013567ffffffffffffffff81111561148857600080fd5b611494878288016113fd565b90945092505060408501356114a88161143f565b939692955090935050565b600080600080606085870312156114c957600080fd5b6114d28561127a565b935060208501359250604085013567ffffffffffffffff8111156114f557600080fd5b611501878288016113fd565b95989497509550505050565b60008060006040848603121561152257600080fd5b61152b8461127a565b9250602084013567ffffffffffffffff81111561154757600080fd5b611553868287016113fd565b9497909650939450505050565b60008060008060006060868803121561157857600080fd5b6115818661127a565b9450602086013567ffffffffffffffff8082111561159e57600080fd5b6115aa89838a01611317565b909650945060408801359150808211156115c357600080fd5b506115d088828901611317565b969995985093965092949392505050565b6020808252825182820181905260009190848201906040850190845b8181101561130b578351835292840192918401916001016115fd565b60008060008060008060006080888a03121561163457600080fd5b61163d8861127a565b9650602088013567ffffffffffffffff8082111561165a57600080fd5b6116668b838c01611317565b909850965060408a013591508082111561167f57600080fd5b61168b8b838c01611317565b909650945060608a01359150808211156116a457600080fd5b506116b18a828b01611317565b989b979a50959850939692959293505050565b6020808252818101527f4f776e61626c653a2063616c6c6572206973206e6f7420746865206f776e6572604082015260600190565b634e487b7160e01b600052604160045260246000fd5b634e487b7160e01b600052603260045260246000fd5b634e487b7160e01b600052601160045260246000fd5b60006001820161174d5761174d611725565b5060010190565b60208082526024908201527f41646d696e436f6e74726f6c3a204d757374206265206f776e6572206f7220616040820152633236b4b760e11b606082015260800190565b60208082526029908201527f52657175697265732063726561746f7220746f20696d706c656d656e742043726040820152686561746f72436f726560b81b606082015260800190565b81835281816020850137506000828201602090810191909152601f909101601f19169091010190565b60408152600061181e6040830185876117e1565b90508215156020830152949350505050565b83815260406020820152600061184a6040830184866117e1565b95945050505050565b6020815260006118676020830184866117e1565b949350505050565b808201808211156102dc576102dc611725565b81835260006001600160fb1b0383111561189b57600080fd5b8260051b80836020870137939093016020019392505050565b81835260006020808501808196508560051b810191508460005b878110156119395782840389528135601e198836030181126118ef57600080fd5b8701858101903567ffffffffffffffff81111561190b57600080fd5b80360382131561191a57600080fd5b6119258682846117e1565b9a87019a95505050908401906001016118ce565b5091979650505050505050565b60408152600061195a604083018688611882565b828103602084015261196d8185876118b4565b979650505050505050565b8183526000602080850194508260005b858110156119b4576001600160a01b036119a18361127a565b1687529582019590820190600101611988565b509495945050505050565b6060815260006119d360608301888a611978565b82810360208401526119e6818789611882565b905082810360408401526119fb818587611882565b9998505050505050505050565b606081526000611a1c60608301888a611978565b8281036020840152611a2f818789611882565b905082810360408401526119fb8185876118b4565b60006020808385031215611a5757600080fd5b825167ffffffffffffffff80821115611a6f57600080fd5b818501915085601f830112611a8357600080fd5b815181811115611a9557611a956116f9565b8060051b604051601f19603f83011681018181108582111715611aba57611aba6116f9565b604052918252848201925083810185019188831115611ad857600080fd5b938501935b82851015610a3457845184529385019392850192611add565b818103818111156102dc576102dc611725565b634e487b7160e01b600052603160045260246000fd5b6000825160005b81811015611b405760208186018101518583015201611b26565b506000920191825250919050565b600060208284031215611b6057600080fd5b8151610cee8161143f56fea264697066735822122014eaa769af64e26d81e31fc841c3392f103cd6be5921ead5a58a0f707c8861b364736f6c63430008110033",
  "linkReferences": {},
  "deployedLinkReferences": {}
}