{
  "_format": "hh-sol-artifact-1",
  "contractName": "GenartExtension",
  "sourceName": "contracts/mojito/GenartExtension.sol",
  "abi": [
    {
      "inputs": [
        {
          "internalType": "address",
          "name": "creatorContract",
          "type": "address"
        }
      ],
      "stateMutability": "nonpayable",
      "type": "constructor"
    },
    {
      "anonymous": false,
      "inputs": [
        {
          "indexed": true,
          "internalType": "address",
          "name": "account",
          "type": "address"
        },
        {
          "indexed": true,
          "internalType": "address",
          "name": "sender",
          "type": "address"
        }
      ],
      "name": "AdminApproved",
      "type": "event"
    },
    {
      "anonymous": false,
      "inputs": [
        {
          "indexed": true,
          "internalType": "address",
          "name": "account",
          "type": "address"
        },
        {
          "indexed": true,
          "internalType": "address",
          "name": "sender",
          "type": "address"
        }
      ],
      "name": "AdminRevoked",
      "type": "event"
    },
    {
      "anonymous": false,
      "inputs": [
        {
          "indexed": true,
          "internalType": "address",
          "name": "previousOwner",
          "type": "address"
        },
        {
          "indexed": true,
          "internalType": "address",
          "name": "newOwner",
          "type": "address"
        }
      ],
      "name": "OwnershipTransferred",
      "type": "event"
    },
    {
      "inputs": [
        {
          "internalType": "address",
          "name": "admin",
          "type": "address"
        }
      ],
      "name": "approveAdmin",
      "outputs": [],
      "stateMutability": "nonpayable",
      "type": "function"
    },
    {
      "inputs": [],
      "name": "getAdmins",
      "outputs": [
        {
          "internalType": "address[]",
          "name": "admins",
          "type": "address[]"
        }
      ],
      "stateMutability": "view",
      "type": "function"
    },
    {
      "inputs": [
        {
          "internalType": "address",
          "name": "admin",
          "type": "address"
        }
      ],
      "name": "isAdmin",
      "outputs": [
        {
          "internalType": "bool",
          "name": "",
          "type": "bool"
        }
      ],
      "stateMutability": "view",
      "type": "function"
    },
    {
      "inputs": [
        {
          "internalType": "address",
          "name": "mintTo",
          "type": "address"
        },
        {
          "internalType": "bytes32",
          "name": "data",
          "type": "bytes32"
        }
      ],
      "name": "mint",
      "outputs": [
        {
          "internalType": "uint256",
          "name": "",
          "type": "uint256"
        }
      ],
      "stateMutability": "nonpayable",
      "type": "function"
    },
    {
      "inputs": [],
      "name": "owner",
      "outputs": [
        {
          "internalType": "address",
          "name": "",
          "type": "address"
        }
      ],
      "stateMutability": "view",
      "type": "function"
    },
    {
      "inputs": [],
      "name": "pauseContract",
      "outputs": [],
      "stateMutability": "nonpayable",
      "type": "function"
    },
    {
      "inputs": [],
      "name": "paused",
      "outputs": [
        {
          "internalType": "bool",
          "name": "",
          "type": "bool"
        }
      ],
      "stateMutability": "view",
      "type": "function"
    },
    {
      "inputs": [],
      "name": "renounceOwnership",
      "outputs": [],
      "stateMutability": "nonpayable",
      "type": "function"
    },
    {
      "inputs": [
        {
          "internalType": "address",
          "name": "admin",
          "type": "address"
        }
      ],
      "name": "revokeAdmin",
      "outputs": [],
      "stateMutability": "nonpayable",
      "type": "function"
    },
    {
      "inputs": [
        {
          "internalType": "bytes4",
          "name": "interfaceId",
          "type": "bytes4"
        }
      ],
      "name": "supportsInterface",
      "outputs": [
        {
          "internalType": "bool",
          "name": "",
          "type": "bool"
        }
      ],
      "stateMutability": "view",
      "type": "function"
    },
    {
      "inputs": [
        {
          "internalType": "uint256",
          "name": "",
          "type": "uint256"
        }
      ],
      "name": "tokens",
      "outputs": [
        {
          "internalType": "bytes32",
          "name": "gene",
          "type": "bytes32"
        },
        {
          "internalType": "bytes32",
          "name": "data",
          "type": "bytes32"
        }
      ],
      "stateMutability": "view",
      "type": "function"
    },
    {
      "inputs": [
        {
          "internalType": "address",
          "name": "newOwner",
          "type": "address"
        }
      ],
      "name": "transferOwnership",
      "outputs": [],
      "stateMutability": "nonpayable",
      "type": "function"
    },
    {
      "inputs": [],
      "name": "unpauseContract",
      "outputs": [],
      "stateMutability": "nonpayable",
      "type": "function"
    }
  ],
  "bytecode": "0x608060405234801561001057600080fd5b50604051610d51380380610d5183398101604081905261002f91610095565b600080546001600160a01b031916339081178255604051909182917f8be0079c531659141344cd1fd0a4f28419497f9722a3daafe3b4186f6b6457e0908290a350600380546001600160a01b0319166001600160a01b03929092169190911790556100c5565b6000602082840312156100a757600080fd5b81516001600160a01b03811681146100be57600080fd5b9392505050565b610c7d806100d46000396000f3fe608060405234801561001057600080fd5b50600436106100cf5760003560e01c80634f64b2be1161008c578063715018a611610066578063715018a6146101be5780638da5cb5b146101c6578063b33712c5146101e1578063f2fde38b146101e957600080fd5b80634f64b2be146101625780635c975abb1461019e5780636d73e669146101ab57600080fd5b806301ffc9a7146100d457806324d7806c146100fc5780632cfd30051461010f5780632d3456701461013057806331ae450b14610145578063439766ce1461015a575b600080fd5b6100e76100e2366004610a2d565b6101fc565b60405190151581526020015b60405180910390f35b6100e761010a366004610a73565b61021c565b61012261011d366004610a8e565b610255565b6040519081526020016100f3565b61014361013e366004610a73565b6103de565b005b61014d61045e565b6040516100f39190610ab8565b61014361050d565b610189610170366004610b05565b6006602052600090815260409020805460019091015482565b604080519283526020830191909152016100f3565b6005546100e79060ff1681565b6101436101b9366004610a73565b6105ab565b610143610625565b6000546040516001600160a01b0390911681526020016100f3565b610143610699565b6101436101f7366004610a73565b61073d565b600061020782610827565b80610216575061021682610827565b92915050565b6000816001600160a01b031661023a6000546001600160a01b031690565b6001600160a01b03161480610216575061021660018361085c565b60003361026a6000546001600160a01b031690565b6001600160a01b03161480610285575061028560013361085c565b6102aa5760405162461bcd60e51b81526004016102a190610b1e565b60405180910390fd5b60055460ff166102f25760405162461bcd60e51b815260206004820152601360248201527221b7b73a3930b1ba1034b9903830bab9b2b21760691b60448201526064016102a1565b600060045460016103039190610b78565b6040805143602082015290810182905290915060009060600160408051808303601f190181528282528051602091820120838301835280845281840188815260008781526006909352918390209351845590516001909301929092556003549051630525194b60e31b81526001600160a01b038881166004830152929350911690632928ca58906024016020604051808303816000875af11580156103ac573d6000803e3d6000fd5b505050506040513d601f19601f820116820180604052508101906103d09190610b8b565b600481905595945050505050565b6000546001600160a01b031633146104085760405162461bcd60e51b81526004016102a190610ba4565b61041360018261085c565b1561045b5760405133906001600160a01b038316907f7c0c3c84c67c85fcac635147348bfe374c24a1a93d0366d1cfe9d8853cbf89d590600090a3610459600182610881565b505b50565b606061046a6001610896565b67ffffffffffffffff81111561048257610482610bd9565b6040519080825280602002602001820160405280156104ab578160200160208202803683370190505b50905060005b6104bb6001610896565b811015610509576104cd6001826108a0565b8282815181106104df576104df610bef565b6001600160a01b03909216602092830291909101909101528061050181610c05565b9150506104b1565b5090565b336105206000546001600160a01b031690565b6001600160a01b0316148061053b575061053b60013361085c565b6105575760405162461bcd60e51b81526004016102a190610b1e565b60055460ff1661059f5760405162461bcd60e51b815260206004820152601360248201527221b7b73a3930b1ba1034b9903830bab9b2b21760691b60448201526064016102a1565b6005805460ff19169055565b6000546001600160a01b031633146105d55760405162461bcd60e51b81526004016102a190610ba4565b6105e060018261085c565b61045b5760405133906001600160a01b038316907f7e1a1a08d52e4ba0e21554733d66165fd5151f99460116223d9e3a608eec5cb190600090a36104596001826108ac565b6000546001600160a01b0316331461064f5760405162461bcd60e51b81526004016102a190610ba4565b600080546040516001600160a01b03909116907f8be0079c531659141344cd1fd0a4f28419497f9722a3daafe3b4186f6b6457e0908390a3600080546001600160a01b0319169055565b336106ac6000546001600160a01b031690565b6001600160a01b031614806106c757506106c760013361085c565b6106e35760405162461bcd60e51b81526004016102a190610b1e565b60055460ff161561072e5760405162461bcd60e51b815260206004820152601560248201527421b7b73a3930b1ba1034b9903ab73830bab9b2b21760591b60448201526064016102a1565b6005805460ff19166001179055565b6000546001600160a01b031633146107675760405162461bcd60e51b81526004016102a190610ba4565b6001600160a01b0381166107cc5760405162461bcd60e51b815260206004820152602660248201527f4f776e61626c653a206e6577206f776e657220697320746865207a65726f206160448201526564647265737360d01b60648201526084016102a1565b600080546040516001600160a01b03808516939216917f8be0079c531659141344cd1fd0a4f28419497f9722a3daafe3b4186f6b6457e091a3600080546001600160a01b0319166001600160a01b0392909216919091179055565b60006001600160e01b03198216632a9f3abf60e11b148061021657506301ffc9a760e01b6001600160e01b0319831614610216565b6001600160a01b038116600090815260018301602052604081205415155b9392505050565b600061087a836001600160a01b0384166108c1565b6000610216825490565b600061087a83836109b4565b600061087a836001600160a01b0384166109de565b600081815260018301602052604081205480156109aa5760006108e5600183610c1e565b85549091506000906108f990600190610c1e565b905081811461095e57600086600001828154811061091957610919610bef565b906000526020600020015490508087600001848154811061093c5761093c610bef565b6000918252602080832090910192909255918252600188019052604090208390555b855486908061096f5761096f610c31565b600190038181906000526020600020016000905590558560010160008681526020019081526020016000206000905560019350505050610216565b6000915050610216565b60008260000182815481106109cb576109cb610bef565b9060005260206000200154905092915050565b6000818152600183016020526040812054610a2557508154600181810184556000848152602080822090930184905584548482528286019093526040902091909155610216565b506000610216565b600060208284031215610a3f57600080fd5b81356001600160e01b03198116811461087a57600080fd5b80356001600160a01b0381168114610a6e57600080fd5b919050565b600060208284031215610a8557600080fd5b61087a82610a57565b60008060408385031215610aa157600080fd5b610aaa83610a57565b946020939093013593505050565b6020808252825182820181905260009190848201906040850190845b81811015610af95783516001600160a01b031683529284019291840191600101610ad4565b50909695505050505050565b600060208284031215610b1757600080fd5b5035919050565b60208082526024908201527f41646d696e436f6e74726f6c3a204d757374206265206f776e6572206f7220616040820152633236b4b760e11b606082015260800190565b634e487b7160e01b600052601160045260246000fd5b8082018082111561021657610216610b62565b600060208284031215610b9d57600080fd5b5051919050565b6020808252818101527f4f776e61626c653a2063616c6c6572206973206e6f7420746865206f776e6572604082015260600190565b634e487b7160e01b600052604160045260246000fd5b634e487b7160e01b600052603260045260246000fd5b600060018201610c1757610c17610b62565b5060010190565b8181038181111561021657610216610b62565b634e487b7160e01b600052603160045260246000fdfea2646970667358221220fc9b4539af4e338d7da944c770864360cf8cf50b0a783bfec3e14ec42f7bc0c864736f6c63430008110033",
  "linkReferences": {},
  "deployedLinkReferences": {}
}