{
  "_format": "hh-sol-artifact-1",
  "contractName": "RedeemableExtension",
  "sourceName": "contracts/mojito/RedeemableExtension.sol",
  "abi": [
    {
      "inputs": [
        {
          "internalType": "address",
          "name": "creator",
          "type": "address"
        },
        {
          "internalType": "uint256",
          "name": "maxCap",
          "type": "uint256"
        }
      ],
      "stateMutability": "nonpayable",
      "type": "constructor"
    },
    {
      "anonymous": false,
      "inputs": [
        {
          "indexed": true,
          "internalType": "address",
          "name": "account",
          "type": "address"
        },
        {
          "indexed": true,
          "internalType": "address",
          "name": "sender",
          "type": "address"
        }
      ],
      "name": "AdminApproved",
      "type": "event"
    },
    {
      "anonymous": false,
      "inputs": [
        {
          "indexed": true,
          "internalType": "address",
          "name": "account",
          "type": "address"
        },
        {
          "indexed": true,
          "internalType": "address",
          "name": "sender",
          "type": "address"
        }
      ],
      "name": "AdminRevoked",
      "type": "event"
    },
    {
      "anonymous": false,
      "inputs": [
        {
          "indexed": true,
          "internalType": "address",
          "name": "previousOwner",
          "type": "address"
        },
        {
          "indexed": true,
          "internalType": "address",
          "name": "newOwner",
          "type": "address"
        }
      ],
      "name": "OwnershipTransferred",
      "type": "event"
    },
    {
      "anonymous": false,
      "inputs": [
        {
          "indexed": false,
          "internalType": "uint256",
          "name": "tokenId",
          "type": "uint256"
        }
      ],
      "name": "TokenRedeemed",
      "type": "event"
    },
    {
      "inputs": [],
      "name": "CREATOR_CONTRACT",
      "outputs": [
        {
          "internalType": "address",
          "name": "",
          "type": "address"
        }
      ],
      "stateMutability": "view",
      "type": "function"
    },
    {
      "inputs": [],
      "name": "MAX_CAP",
      "outputs": [
        {
          "internalType": "uint256",
          "name": "",
          "type": "uint256"
        }
      ],
      "stateMutability": "view",
      "type": "function"
    },
    {
      "inputs": [],
      "name": "TOTAL_TOKENS",
      "outputs": [
        {
          "internalType": "uint256",
          "name": "",
          "type": "uint256"
        }
      ],
      "stateMutability": "view",
      "type": "function"
    },
    {
      "inputs": [
        {
          "internalType": "address",
          "name": "admin",
          "type": "address"
        }
      ],
      "name": "approveAdmin",
      "outputs": [],
      "stateMutability": "nonpayable",
      "type": "function"
    },
    {
      "inputs": [],
      "name": "getAdmins",
      "outputs": [
        {
          "internalType": "address[]",
          "name": "admins",
          "type": "address[]"
        }
      ],
      "stateMutability": "view",
      "type": "function"
    },
    {
      "inputs": [
        {
          "components": [
            {
              "internalType": "bytes32",
              "name": "id",
              "type": "bytes32"
            },
            {
              "internalType": "uint16",
              "name": "numberOfTokens",
              "type": "uint16"
            },
            {
              "internalType": "address",
              "name": "redeemer",
              "type": "address"
            },
            {
              "internalType": "bytes",
              "name": "signature",
              "type": "bytes"
            }
          ],
          "internalType": "struct RedeemableExtension.Voucher",
          "name": "voucher",
          "type": "tuple"
        }
      ],
      "name": "getVoucherDigest",
      "outputs": [
        {
          "internalType": "bytes32",
          "name": "",
          "type": "bytes32"
        }
      ],
      "stateMutability": "view",
      "type": "function"
    },
    {
      "inputs": [
        {
          "components": [
            {
              "internalType": "bytes32",
              "name": "id",
              "type": "bytes32"
            },
            {
              "internalType": "uint16",
              "name": "numberOfTokens",
              "type": "uint16"
            },
            {
              "internalType": "address",
              "name": "redeemer",
              "type": "address"
            },
            {
              "internalType": "bytes",
              "name": "signature",
              "type": "bytes"
            }
          ],
          "internalType": "struct RedeemableExtension.Voucher",
          "name": "voucher",
          "type": "tuple"
        }
      ],
      "name": "getVoucherSigner",
      "outputs": [
        {
          "internalType": "address",
          "name": "",
          "type": "address"
        }
      ],
      "stateMutability": "view",
      "type": "function"
    },
    {
      "inputs": [
        {
          "internalType": "address",
          "name": "admin",
          "type": "address"
        }
      ],
      "name": "isAdmin",
      "outputs": [
        {
          "internalType": "bool",
          "name": "",
          "type": "bool"
        }
      ],
      "stateMutability": "view",
      "type": "function"
    },
    {
      "inputs": [
        {
          "internalType": "address",
          "name": "mintTo",
          "type": "address"
        }
      ],
      "name": "mint",
      "outputs": [
        {
          "internalType": "uint256",
          "name": "",
          "type": "uint256"
        }
      ],
      "stateMutability": "nonpayable",
      "type": "function"
    },
    {
      "inputs": [
        {
          "internalType": "address",
          "name": "mintTo",
          "type": "address"
        },
        {
          "internalType": "uint16",
          "name": "numberOfTokens",
          "type": "uint16"
        }
      ],
      "name": "mintBatch",
      "outputs": [
        {
          "internalType": "uint256[]",
          "name": "",
          "type": "uint256[]"
        }
      ],
      "stateMutability": "nonpayable",
      "type": "function"
    },
    {
      "inputs": [],
      "name": "owner",
      "outputs": [
        {
          "internalType": "address",
          "name": "",
          "type": "address"
        }
      ],
      "stateMutability": "view",
      "type": "function"
    },
    {
      "inputs": [],
      "name": "pauseContract",
      "outputs": [],
      "stateMutability": "nonpayable",
      "type": "function"
    },
    {
      "inputs": [],
      "name": "paused",
      "outputs": [
        {
          "internalType": "bool",
          "name": "",
          "type": "bool"
        }
      ],
      "stateMutability": "view",
      "type": "function"
    },
    {
      "inputs": [
        {
          "components": [
            {
              "internalType": "bytes32",
              "name": "id",
              "type": "bytes32"
            },
            {
              "internalType": "uint16",
              "name": "numberOfTokens",
              "type": "uint16"
            },
            {
              "internalType": "address",
              "name": "redeemer",
              "type": "address"
            },
            {
              "internalType": "bytes",
              "name": "signature",
              "type": "bytes"
            }
          ],
          "internalType": "struct RedeemableExtension.Voucher",
          "name": "voucher",
          "type": "tuple"
        }
      ],
      "name": "redeem",
      "outputs": [
        {
          "internalType": "uint256[]",
          "name": "",
          "type": "uint256[]"
        }
      ],
      "stateMutability": "nonpayable",
      "type": "function"
    },
    {
      "inputs": [
        {
          "internalType": "uint256",
          "name": "tokenId",
          "type": "uint256"
        }
      ],
      "name": "redeemToken",
      "outputs": [],
      "stateMutability": "nonpayable",
      "type": "function"
    },
    {
      "inputs": [],
      "name": "renounceOwnership",
      "outputs": [],
      "stateMutability": "nonpayable",
      "type": "function"
    },
    {
      "inputs": [
        {
          "internalType": "address",
          "name": "admin",
          "type": "address"
        }
      ],
      "name": "revokeAdmin",
      "outputs": [],
      "stateMutability": "nonpayable",
      "type": "function"
    },
    {
      "inputs": [
        {
          "internalType": "string",
          "name": "baseURI_",
          "type": "string"
        }
      ],
      "name": "setBaseURI",
      "outputs": [],
      "stateMutability": "nonpayable",
      "type": "function"
    },
    {
      "inputs": [
        {
          "internalType": "bytes4",
          "name": "interfaceId",
          "type": "bytes4"
        }
      ],
      "name": "supportsInterface",
      "outputs": [
        {
          "internalType": "bool",
          "name": "",
          "type": "bool"
        }
      ],
      "stateMutability": "view",
      "type": "function"
    },
    {
      "inputs": [
        {
          "internalType": "uint256",
          "name": "",
          "type": "uint256"
        }
      ],
      "name": "tokenIsRedeemed",
      "outputs": [
        {
          "internalType": "bool",
          "name": "",
          "type": "bool"
        }
      ],
      "stateMutability": "view",
      "type": "function"
    },
    {
      "inputs": [
        {
          "internalType": "address",
          "name": "newOwner",
          "type": "address"
        }
      ],
      "name": "transferOwnership",
      "outputs": [],
      "stateMutability": "nonpayable",
      "type": "function"
    },
    {
      "inputs": [],
      "name": "unpauseContract",
      "outputs": [],
      "stateMutability": "nonpayable",
      "type": "function"
    },
    {
      "inputs": [
        {
          "internalType": "bytes32",
          "name": "",
          "type": "bytes32"
        }
      ],
      "name": "voucherIsRedeemed",
      "outputs": [
        {
          "internalType": "bool",
          "name": "",
          "type": "bool"
        }
      ],
      "stateMutability": "view",
      "type": "function"
    }
  ],
  "bytecode": "0x6080604052600060048190556005556008805460ff1916905534801561002457600080fd5b50604051611ccd380380611ccd833981016040819052610043916100ad565b600080546001600160a01b031916339081178255604051909182917f8be0079c531659141344cd1fd0a4f28419497f9722a3daafe3b4186f6b6457e0908290a350600380546001600160a01b0319166001600160a01b0393909316929092179091556004556100e7565b600080604083850312156100c057600080fd5b82516001600160a01b03811681146100d757600080fd5b6020939093015192949293505050565b611bd7806100f66000396000f3fe608060405234801561001057600080fd5b506004361061014d5760003560e01c806355f804b3116100c35780638da5cb5b1161007c5780638da5cb5b146102db578063b1f82f60146102ec578063b33712c5146102ff578063d669e1d414610307578063ec88882c14610310578063f2fde38b1461032357600080fd5b806355f804b31461026d5780635c975abb1461028057806365f32bae1461028d5780636a627842146102ad5780636d73e669146102c0578063715018a6146102d357600080fd5b80632d345670116101155780632d345670146101dc57806331ae450b146101ef578063417d53cf14610204578063439766ce14610227578063497159f21461022f57806352eb29071461025a57600080fd5b8063013054c21461015257806301ffc9a71461016757806306e444631461018f5780630b7abf77146101b257806324d7806c146101c9575b600080fd5b610165610160366004611630565b610336565b005b61017a610175366004611649565b61045a565b60405190151581526020015b60405180910390f35b61017a61019d366004611630565b60066020526000908152604090205460ff1681565b6101bb60055481565b604051908152602001610186565b61017a6101d736600461168a565b610491565b6101656101ea36600461168a565b6104ca565b6101f761054a565b60405161018691906116a5565b61017a610212366004611630565b60076020526000908152604090205460ff1681565b6101656105f9565b600354610242906001600160a01b031681565b6040516001600160a01b039091168152602001610186565b6102426102683660046116f2565b610675565b61016561027b366004611774565b6106d7565b60085461017a9060ff1681565b6102a061029b3660046116f2565b610786565b6040516101869190611809565b6101bb6102bb36600461168a565b610b8a565b6101656102ce36600461168a565b610cba565b610165610d34565b6000546001600160a01b0316610242565b6102a06102fa366004611853565b610da8565b610165610f41565b6101bb60045481565b6101bb61031e3660046116f2565b610f97565b61016561033136600461168a565b611008565b336103496000546001600160a01b031690565b6001600160a01b0316148061036457506103646001336110f2565b6103895760405162461bcd60e51b815260040161038090611886565b60405180910390fd5b60085460ff16156103ac5760405162461bcd60e51b8152600401610380906118ca565b60008181526007602052604090205460ff16156104045760405162461bcd60e51b8152602060048201526016602482015275151bdad95b88185b1c9958591e481c995919595b595960521b6044820152606401610380565b60008181526007602052604090819020805460ff19166001179055517fb2330cf2285c34504055127120eeecb2d861a31044a427ffbdefd61a89ff6ac49061044f9083815260200190565b60405180910390a150565b60006001600160e01b03198216632a9f3abf60e11b148061048b57506301ffc9a760e01b6001600160e01b03198316145b92915050565b6000816001600160a01b03166104af6000546001600160a01b031690565b6001600160a01b0316148061048b575061048b6001836110f2565b6000546001600160a01b031633146104f45760405162461bcd60e51b8152600401610380906118f7565b6104ff6001826110f2565b156105475760405133906001600160a01b038316907f7c0c3c84c67c85fcac635147348bfe374c24a1a93d0366d1cfe9d8853cbf89d590600090a3610545600182611114565b505b50565b60606105566001611129565b67ffffffffffffffff81111561056e5761056e61172d565b604051908082528060200260200182016040528015610597578160200160208202803683370190505b50905060005b6105a76001611129565b8110156105f5576105b9600182611133565b8282815181106105cb576105cb61192c565b6001600160a01b0390921660209283029190910190910152806105ed81611958565b91505061059d565b5090565b3361060c6000546001600160a01b031690565b6001600160a01b0316148061062757506106276001336110f2565b6106435760405162461bcd60e51b815260040161038090611886565b60085460ff16156106665760405162461bcd60e51b8152600401610380906118ca565b6008805460ff19166001179055565b60008061068183610f97565b90506106d06106936060850185611971565b8080601f016020809104026020016040519081016040528093929190818152602001838380828437600092019190915250859392505061113f9050565b9392505050565b336106ea6000546001600160a01b031690565b6001600160a01b0316148061070557506107056001336110f2565b6107215760405162461bcd60e51b815260040161038090611886565b6003546040516307cc269760e31b81526001600160a01b0390911690633e6134b8906107519084906004016119b8565b600060405180830381600087803b15801561076b57600080fd5b505af115801561077f573d6000803e3d6000fd5b5050505050565b60085460609060ff16156107ac5760405162461bcd60e51b8152600401610380906118ca565b60006107be6040840160208501611a06565b61ffff161161080f5760405162461bcd60e51b815260206004820152601e60248201527f4e65656420746f206d696e74206174206c65617374203120746f6b656e2e00006044820152606401610380565b6004546108326108256040850160208601611a06565b6005549061ffff16611163565b11156108505760405162461bcd60e51b815260040161038090611a21565b813560009081526006602052604090205460ff16156108bb5760405162461bcd60e51b815260206004820152602160248201527f566f75636865722068617320616c7265616479206265656e2072656465656d656044820152601960fa1b6064820152608401610380565b60006108c683610675565b604051630935e01b60e21b81526001600160a01b038216600482015290915030906324d7806c90602401602060405180830381865afa15801561090d573d6000803e3d6000fd5b505050506040513d601f19601f820116820180604052508101906109319190611a6e565b6109915760405162461bcd60e51b815260206004820152602b60248201527f5369676e617475726520696e76616c6964206f72207369676e6572206973206e60448201526a37ba1030b71030b236b4b760a91b6064820152608401610380565b8235600090815260066020908152604091829020805460ff191660011790556060916005916109c4918701908701611a06565b61ffff1610610aab5760005b6109e06040860160208701611a06565b61ffff16811015610aa5576003546001600160a01b0316632928ca58610a0c606088016040890161168a565b6040516001600160e01b031960e084901b1681526001600160a01b0390911660048201526024016020604051808303816000875af1158015610a52573d6000803e3d6000fd5b505050506040513d601f19601f82011682018060405250810190610a769190611a90565b828281518110610a8857610a8861192c565b602090810291909101015280610a9d81611958565b9150506109d0565b50610b56565b6003546001600160a01b031663e00aab4b610acc606087016040880161168a565b610adc6040880160208901611a06565b6040516001600160e01b031960e085901b1681526001600160a01b03909216600483015261ffff1660248201526044016000604051808303816000875af1158015610b2b573d6000803e3d6000fd5b505050506040513d6000823e601f3d908101601f19168201604052610b539190810190611aa9565b90505b610b666040850160208601611a06565b61ffff1660056000828254610b7b9190611b4f565b9091555090925050505b919050565b600033610b9f6000546001600160a01b031690565b6001600160a01b03161480610bba5750610bba6001336110f2565b610bd65760405162461bcd60e51b815260040161038090611886565b60085460ff1615610bf95760405162461bcd60e51b8152600401610380906118ca565b600454600554610c0a906001611163565b1115610c285760405162461bcd60e51b815260040161038090611a21565b600354604051630525194b60e31b81526001600160a01b0384811660048301526000921690632928ca58906024016020604051808303816000875af1158015610c75573d6000803e3d6000fd5b505050506040513d601f19601f82011682018060405250810190610c999190611a90565b9050600160056000828254610cae9190611b4f565b90915550909392505050565b6000546001600160a01b03163314610ce45760405162461bcd60e51b8152600401610380906118f7565b610cef6001826110f2565b6105475760405133906001600160a01b038316907f7e1a1a08d52e4ba0e21554733d66165fd5151f99460116223d9e3a608eec5cb190600090a361054560018261116f565b6000546001600160a01b03163314610d5e5760405162461bcd60e51b8152600401610380906118f7565b600080546040516001600160a01b03909116907f8be0079c531659141344cd1fd0a4f28419497f9722a3daafe3b4186f6b6457e0908390a3600080546001600160a01b0319169055565b606033610dbd6000546001600160a01b031690565b6001600160a01b03161480610dd85750610dd86001336110f2565b610df45760405162461bcd60e51b815260040161038090611886565b60085460ff1615610e175760405162461bcd60e51b8152600401610380906118ca565b60008261ffff1611610e6b5760405162461bcd60e51b815260206004820152601e60248201527f4e65656420746f206d696e74206174206c65617374203120746f6b656e2e00006044820152606401610380565b600454600554610e7f9061ffff8516611163565b1115610e9d5760405162461bcd60e51b815260040161038090611a21565b60035460405163e00aab4b60e01b81526001600160a01b03858116600483015261ffff85166024830152600092169063e00aab4b906044016000604051808303816000875af1158015610ef4573d6000803e3d6000fd5b505050506040513d6000823e601f3d908101601f19168201604052610f1c9190810190611aa9565b90508261ffff1660056000828254610f349190611b4f565b9091555090949350505050565b33610f546000546001600160a01b031690565b6001600160a01b03161480610f6f5750610f6f6001336110f2565b610f8b5760405162461bcd60e51b815260040161038090611886565b6008805460ff19169055565b60008135610fab6040840160208501611a06565b610fbb606085016040860161168a565b60408051602081019490945261ffff909216918301919091526001600160a01b0316606082015230608082015260a001604051602081830303815290604052805190602001209050919050565b6000546001600160a01b031633146110325760405162461bcd60e51b8152600401610380906118f7565b6001600160a01b0381166110975760405162461bcd60e51b815260206004820152602660248201527f4f776e61626c653a206e6577206f776e657220697320746865207a65726f206160448201526564647265737360d01b6064820152608401610380565b600080546040516001600160a01b03808516939216917f8be0079c531659141344cd1fd0a4f28419497f9722a3daafe3b4186f6b6457e091a3600080546001600160a01b0319166001600160a01b0392909216919091179055565b6001600160a01b038116600090815260018301602052604081205415156106d0565b60006106d0836001600160a01b038416611184565b600061048b825490565b60006106d08383611277565b600080600061114e85856112a1565b9150915061115b8161130f565b509392505050565b60006106d08284611b4f565b60006106d0836001600160a01b0384166114c5565b6000818152600183016020526040812054801561126d5760006111a8600183611b62565b85549091506000906111bc90600190611b62565b90508181146112215760008660000182815481106111dc576111dc61192c565b90600052602060002001549050808760000184815481106111ff576111ff61192c565b6000918252602080832090910192909255918252600188019052604090208390555b855486908061123257611232611b75565b60019003818190600052602060002001600090559055856001016000868152602001908152602001600020600090556001935050505061048b565b600091505061048b565b600082600001828154811061128e5761128e61192c565b9060005260206000200154905092915050565b60008082516041036112d75760208301516040840151606085015160001a6112cb87828585611514565b94509450505050611308565b825160400361130057602083015160408401516112f5868383611601565b935093505050611308565b506000905060025b9250929050565b600081600481111561132357611323611b8b565b0361132b5750565b600181600481111561133f5761133f611b8b565b0361138c5760405162461bcd60e51b815260206004820152601860248201527f45434453413a20696e76616c6964207369676e617475726500000000000000006044820152606401610380565b60028160048111156113a0576113a0611b8b565b036113ed5760405162461bcd60e51b815260206004820152601f60248201527f45434453413a20696e76616c6964207369676e6174757265206c656e677468006044820152606401610380565b600381600481111561140157611401611b8b565b036114595760405162461bcd60e51b815260206004820152602260248201527f45434453413a20696e76616c6964207369676e6174757265202773272076616c604482015261756560f01b6064820152608401610380565b600481600481111561146d5761146d611b8b565b036105475760405162461bcd60e51b815260206004820152602260248201527f45434453413a20696e76616c6964207369676e6174757265202776272076616c604482015261756560f01b6064820152608401610380565b600081815260018301602052604081205461150c5750815460018181018455600084815260208082209093018490558454848252828601909352604090209190915561048b565b50600061048b565b6000807f7fffffffffffffffffffffffffffffff5d576e7357a4501ddfe92f46681b20a083111561154b57506000905060036115f8565b8460ff16601b1415801561156357508460ff16601c14155b1561157457506000905060046115f8565b6040805160008082526020820180845289905260ff881692820192909252606081018690526080810185905260019060a0016020604051602081039080840390855afa1580156115c8573d6000803e3d6000fd5b5050604051601f1901519150506001600160a01b0381166115f1576000600192509250506115f8565b9150600090505b94509492505050565b6000806001600160ff1b03831660ff84901c601b0161162287828885611514565b935093505050935093915050565b60006020828403121561164257600080fd5b5035919050565b60006020828403121561165b57600080fd5b81356001600160e01b0319811681146106d057600080fd5b80356001600160a01b0381168114610b8557600080fd5b60006020828403121561169c57600080fd5b6106d082611673565b6020808252825182820181905260009190848201906040850190845b818110156116e65783516001600160a01b0316835292840192918401916001016116c1565b50909695505050505050565b60006020828403121561170457600080fd5b813567ffffffffffffffff81111561171b57600080fd5b8201608081850312156106d057600080fd5b634e487b7160e01b600052604160045260246000fd5b604051601f8201601f1916810167ffffffffffffffff8111828210171561176c5761176c61172d565b604052919050565b6000602080838503121561178757600080fd5b823567ffffffffffffffff8082111561179f57600080fd5b818501915085601f8301126117b357600080fd5b8135818111156117c5576117c561172d565b6117d7601f8201601f19168501611743565b915080825286848285010111156117ed57600080fd5b8084840185840137600090820190930192909252509392505050565b6020808252825182820181905260009190848201906040850190845b818110156116e657835183529284019291840191600101611825565b803561ffff81168114610b8557600080fd5b6000806040838503121561186657600080fd5b61186f83611673565b915061187d60208401611841565b90509250929050565b60208082526024908201527f41646d696e436f6e74726f6c3a204d757374206265206f776e6572206f7220616040820152633236b4b760e11b606082015260800190565b60208082526013908201527221b7b73a3930b1ba1034b9903830bab9b2b21760691b604082015260600190565b6020808252818101527f4f776e61626c653a2063616c6c6572206973206e6f7420746865206f776e6572604082015260600190565b634e487b7160e01b600052603260045260246000fd5b634e487b7160e01b600052601160045260246000fd5b60006001820161196a5761196a611942565b5060010190565b6000808335601e1984360301811261198857600080fd5b83018035915067ffffffffffffffff8211156119a357600080fd5b60200191503681900382131561130857600080fd5b600060208083528351808285015260005b818110156119e5578581018301518582016040015282016119c9565b506000604082860101526040601f19601f8301168501019250505092915050565b600060208284031215611a1857600080fd5b6106d082611841565b6020808252602d908201527f43616e6e6f7420657863656564206d617820737570706c79206f66206176616960408201526c3630b13632903a37b5b2b7399760991b606082015260800190565b600060208284031215611a8057600080fd5b815180151581146106d057600080fd5b600060208284031215611aa257600080fd5b5051919050565b60006020808385031215611abc57600080fd5b825167ffffffffffffffff80821115611ad457600080fd5b818501915085601f830112611ae857600080fd5b815181811115611afa57611afa61172d565b8060051b9150611b0b848301611743565b8181529183018401918481019088841115611b2557600080fd5b938501935b83851015611b4357845182529385019390850190611b2a565b98975050505050505050565b8082018082111561048b5761048b611942565b8181038181111561048b5761048b611942565b634e487b7160e01b600052603160045260246000fd5b634e487b7160e01b600052602160045260246000fdfea26469706673582212203d1e62ac4016b19eafb73f50ccf77571baab0e38d440b495b8ec8cc6108eb6e064736f6c63430008110033",
  "linkReferences": {},
  "deployedLinkReferences": {}
}