{
  "_format": "hh-sol-artifact-1",
  "contractName": "BadERC20",
  "sourceName": "contracts/backup/zora/BadErc20.sol",
  "abi": [
    {
      "inputs": [
        {
          "internalType": "bytes4",
          "name": "_interface",
          "type": "bytes4"
        }
      ],
      "name": "supportsInterface",
      "outputs": [
        {
          "internalType": "bool",
          "name": "",
          "type": "bool"
        }
      ],
      "stateMutability": "nonpayable",
      "type": "function"
    }
  ],
  "bytecode": "0x608060405234801561001057600080fd5b5060b78061001f6000396000f3fe6080604052348015600f57600080fd5b506004361060285760003560e01c806301ffc9a714602d575b600080fd5b603e60383660046052565b50600090565b604051901515815260200160405180910390f35b600060208284031215606357600080fd5b81356001600160e01b031981168114607a57600080fd5b939250505056fea2646970667358221220cf00dce55d12d995d4a76b8dfb3e9b74f13aa110fa80b6cf710acbcd2c6a1d9964736f6c63430008110033",
  "linkReferences": {},
  "deployedLinkReferences": {}
}