{
  "_format": "hh-sol-artifact-1",
  "contractName": "RoyaltyEngine",
  "sourceName": "contracts/mojito/sothebys/RoyaltyEngine.sol",
  "abi": [
    {
      "inputs": [
        {
          "internalType": "address",
          "name": "tokenContract",
          "type": "address"
        },
        {
          "internalType": "uint256",
          "name": "tokenId",
          "type": "uint256"
        }
      ],
      "name": "getRoyalty",
      "outputs": [
        {
          "internalType": "address payable[]",
          "name": "recipients",
          "type": "address[]"
        },
        {
          "internalType": "uint256[]",
          "name": "bps",
          "type": "uint256[]"
        }
      ],
      "stateMutability": "view",
      "type": "function"
    }
  ],
  "bytecode": "0x608060405234801561001057600080fd5b506106c7806100206000396000f3fe608060405234801561001057600080fd5b506004361061002b5760003560e01c80636e44a72f14610030575b600080fd5b61004361003e3660046103a8565b61005a565b6040516100519291906103d4565b60405180910390f35b6040516301ffc9a760e01b8152635d9dd7eb60e11b600482015260609081906001600160a01b038516906301ffc9a790602401602060405180830381865afa1580156100aa573d6000803e3d6000fd5b505050506040513d601f19601f820116820180604052508101906100ce9190610458565b1561014a57604051635d9dd7eb60e11b8152600481018490526001600160a01b0385169063bb3bafd690602401600060405180830381865afa158015610118573d6000803e3d6000fd5b505050506040513d6000823e601f3d908101601f1916820160405261014091908101906105bb565b9092509050610389565b6040516301ffc9a760e01b8152632dde656160e21b60048201526001600160a01b038516906301ffc9a790602401602060405180830381865afa158015610195573d6000803e3d6000fd5b505050506040513d601f19601f820116820180604052508101906101b99190610458565b156102a25760405163b9c4d9fb60e01b8152600481018490526001600160a01b0385169063b9c4d9fb90602401600060405180830381865afa158015610203573d6000803e3d6000fd5b505050506040513d6000823e601f3d908101601f1916820160405261022b919081019061061f565b604051630ebd4c7f60e01b8152600481018590529092506001600160a01b03851690630ebd4c7f90602401600060405180830381865afa158015610273573d6000803e3d6000fd5b505050506040513d6000823e601f3d908101601f1916820160405261029b919081019061065c565b9050610389565b6040516301ffc9a760e01b81526335681b5360e21b60048201526001600160a01b038516906301ffc9a790602401602060405180830381865afa1580156102ed573d6000803e3d6000fd5b505050506040513d601f19601f820116820180604052508101906103119190610458565b15610389576040516335681b5360e21b8152600481018490526001600160a01b0385169063d5a06d4c90602401600060405180830381865afa15801561035b573d6000803e3d6000fd5b505050506040513d6000823e601f3d908101601f1916820160405261038391908101906105bb565b90925090505b9250929050565b6001600160a01b03811681146103a557600080fd5b50565b600080604083850312156103bb57600080fd5b82356103c681610390565b946020939093013593505050565b604080825283519082018190526000906020906060840190828701845b828110156104165781516001600160a01b0316845292840192908401906001016103f1565b5050508381038285015284518082528583019183019060005b8181101561044b5783518352928401929184019160010161042f565b5090979650505050505050565b60006020828403121561046a57600080fd5b8151801515811461047a57600080fd5b9392505050565b634e487b7160e01b600052604160045260246000fd5b604051601f8201601f1916810167ffffffffffffffff811182821017156104c0576104c0610481565b604052919050565b600067ffffffffffffffff8211156104e2576104e2610481565b5060051b60200190565b600082601f8301126104fd57600080fd5b8151602061051261050d836104c8565b610497565b82815260059290921b8401810191818101908684111561053157600080fd5b8286015b8481101561055557805161054881610390565b8352918301918301610535565b509695505050505050565b600082601f83011261057157600080fd5b8151602061058161050d836104c8565b82815260059290921b840181019181810190868411156105a057600080fd5b8286015b8481101561055557805183529183019183016105a4565b600080604083850312156105ce57600080fd5b825167ffffffffffffffff808211156105e657600080fd5b6105f2868387016104ec565b9350602085015191508082111561060857600080fd5b5061061585828601610560565b9150509250929050565b60006020828403121561063157600080fd5b815167ffffffffffffffff81111561064857600080fd5b610654848285016104ec565b949350505050565b60006020828403121561066e57600080fd5b815167ffffffffffffffff81111561068557600080fd5b6106548482850161056056fea2646970667358221220d6d25e03bbde2be8adc589a09a581008053c3fd59a4080cbeed0e636e602877164736f6c63430008110033",
  "linkReferences": {},
  "deployedLinkReferences": {}
}