{
  "_format": "hh-sol-artifact-1",
  "contractName": "ZoraMedia",
  "sourceName": "contracts/mojito/ZoraMedia.sol",
  "abi": [
    {
      "inputs": [
        {
          "internalType": "string",
          "name": "name",
          "type": "string"
        },
        {
          "internalType": "string",
          "name": "symbol",
          "type": "string"
        },
        {
          "internalType": "address",
          "name": "marketContractAddr",
          "type": "address"
        }
      ],
      "stateMutability": "nonpayable",
      "type": "constructor"
    },
    {
      "anonymous": false,
      "inputs": [
        {
          "indexed": true,
          "internalType": "address",
          "name": "owner",
          "type": "address"
        },
        {
          "indexed": true,
          "internalType": "address",
          "name": "approved",
          "type": "address"
        },
        {
          "indexed": true,
          "internalType": "uint256",
          "name": "tokenId",
          "type": "uint256"
        }
      ],
      "name": "Approval",
      "type": "event"
    },
    {
      "anonymous": false,
      "inputs": [
        {
          "indexed": true,
          "internalType": "address",
          "name": "owner",
          "type": "address"
        },
        {
          "indexed": true,
          "internalType": "address",
          "name": "operator",
          "type": "address"
        },
        {
          "indexed": false,
          "internalType": "bool",
          "name": "approved",
          "type": "bool"
        }
      ],
      "name": "ApprovalForAll",
      "type": "event"
    },
    {
      "anonymous": false,
      "inputs": [
        {
          "indexed": true,
          "internalType": "address",
          "name": "from",
          "type": "address"
        },
        {
          "indexed": true,
          "internalType": "address",
          "name": "to",
          "type": "address"
        },
        {
          "indexed": true,
          "internalType": "uint256",
          "name": "tokenId",
          "type": "uint256"
        }
      ],
      "name": "Transfer",
      "type": "event"
    },
    {
      "inputs": [],
      "name": "PERMIT_TYPEHASH",
      "outputs": [
        {
          "internalType": "bytes32",
          "name": "",
          "type": "bytes32"
        }
      ],
      "stateMutability": "view",
      "type": "function"
    },
    {
      "inputs": [
        {
          "internalType": "uint256",
          "name": "tokenId",
          "type": "uint256"
        },
        {
          "components": [
            {
              "internalType": "uint256",
              "name": "amount",
              "type": "uint256"
            },
            {
              "internalType": "address",
              "name": "currency",
              "type": "address"
            },
            {
              "internalType": "address",
              "name": "bidder",
              "type": "address"
            },
            {
              "internalType": "address",
              "name": "recipient",
              "type": "address"
            },
            {
              "components": [
                {
                  "internalType": "uint256",
                  "name": "value",
                  "type": "uint256"
                }
              ],
              "internalType": "struct Decimal.D256",
              "name": "sellOnShare",
              "type": "tuple"
            }
          ],
          "internalType": "struct IMarket.Bid",
          "name": "bid",
          "type": "tuple"
        }
      ],
      "name": "acceptBid",
      "outputs": [],
      "stateMutability": "nonpayable",
      "type": "function"
    },
    {
      "inputs": [
        {
          "internalType": "address",
          "name": "to",
          "type": "address"
        },
        {
          "internalType": "uint256",
          "name": "tokenId",
          "type": "uint256"
        }
      ],
      "name": "approve",
      "outputs": [],
      "stateMutability": "nonpayable",
      "type": "function"
    },
    {
      "inputs": [
        {
          "internalType": "uint256",
          "name": "tokenId",
          "type": "uint256"
        },
        {
          "internalType": "address",
          "name": "recipient",
          "type": "address"
        }
      ],
      "name": "auctionTransfer",
      "outputs": [],
      "stateMutability": "nonpayable",
      "type": "function"
    },
    {
      "inputs": [
        {
          "internalType": "address",
          "name": "owner",
          "type": "address"
        }
      ],
      "name": "balanceOf",
      "outputs": [
        {
          "internalType": "uint256",
          "name": "",
          "type": "uint256"
        }
      ],
      "stateMutability": "view",
      "type": "function"
    },
    {
      "inputs": [],
      "name": "baseURI",
      "outputs": [
        {
          "internalType": "string",
          "name": "",
          "type": "string"
        }
      ],
      "stateMutability": "view",
      "type": "function"
    },
    {
      "inputs": [
        {
          "internalType": "uint256",
          "name": "tokenId",
          "type": "uint256"
        }
      ],
      "name": "burn",
      "outputs": [],
      "stateMutability": "nonpayable",
      "type": "function"
    },
    {
      "inputs": [
        {
          "internalType": "uint256",
          "name": "tokenId",
          "type": "uint256"
        }
      ],
      "name": "getApproved",
      "outputs": [
        {
          "internalType": "address",
          "name": "",
          "type": "address"
        }
      ],
      "stateMutability": "view",
      "type": "function"
    },
    {
      "inputs": [
        {
          "internalType": "address",
          "name": "owner",
          "type": "address"
        },
        {
          "internalType": "address",
          "name": "operator",
          "type": "address"
        }
      ],
      "name": "isApprovedForAll",
      "outputs": [
        {
          "internalType": "bool",
          "name": "",
          "type": "bool"
        }
      ],
      "stateMutability": "view",
      "type": "function"
    },
    {
      "inputs": [],
      "name": "marketContract",
      "outputs": [
        {
          "internalType": "address",
          "name": "",
          "type": "address"
        }
      ],
      "stateMutability": "view",
      "type": "function"
    },
    {
      "inputs": [],
      "name": "name",
      "outputs": [
        {
          "internalType": "string",
          "name": "",
          "type": "string"
        }
      ],
      "stateMutability": "view",
      "type": "function"
    },
    {
      "inputs": [
        {
          "internalType": "uint256",
          "name": "tokenId",
          "type": "uint256"
        }
      ],
      "name": "ownerOf",
      "outputs": [
        {
          "internalType": "address",
          "name": "",
          "type": "address"
        }
      ],
      "stateMutability": "view",
      "type": "function"
    },
    {
      "inputs": [
        {
          "internalType": "address",
          "name": "spender",
          "type": "address"
        },
        {
          "internalType": "uint256",
          "name": "tokenId",
          "type": "uint256"
        },
        {
          "components": [
            {
              "internalType": "uint256",
              "name": "deadline",
              "type": "uint256"
            },
            {
              "internalType": "uint8",
              "name": "v",
              "type": "uint8"
            },
            {
              "internalType": "bytes32",
              "name": "r",
              "type": "bytes32"
            },
            {
              "internalType": "bytes32",
              "name": "s",
              "type": "bytes32"
            }
          ],
          "internalType": "struct IMedia.EIP712Signature",
          "name": "sig",
          "type": "tuple"
        }
      ],
      "name": "permit",
      "outputs": [],
      "stateMutability": "nonpayable",
      "type": "function"
    },
    {
      "inputs": [
        {
          "internalType": "address",
          "name": "",
          "type": "address"
        },
        {
          "internalType": "uint256",
          "name": "",
          "type": "uint256"
        }
      ],
      "name": "permitNonces",
      "outputs": [
        {
          "internalType": "uint256",
          "name": "",
          "type": "uint256"
        }
      ],
      "stateMutability": "view",
      "type": "function"
    },
    {
      "inputs": [
        {
          "internalType": "uint256",
          "name": "",
          "type": "uint256"
        }
      ],
      "name": "previousTokenOwners",
      "outputs": [
        {
          "internalType": "address",
          "name": "",
          "type": "address"
        }
      ],
      "stateMutability": "view",
      "type": "function"
    },
    {
      "inputs": [
        {
          "internalType": "uint256",
          "name": "tokenId",
          "type": "uint256"
        }
      ],
      "name": "removeAsk",
      "outputs": [],
      "stateMutability": "nonpayable",
      "type": "function"
    },
    {
      "inputs": [
        {
          "internalType": "uint256",
          "name": "tokenId",
          "type": "uint256"
        }
      ],
      "name": "removeBid",
      "outputs": [],
      "stateMutability": "nonpayable",
      "type": "function"
    },
    {
      "inputs": [
        {
          "internalType": "uint256",
          "name": "tokenId",
          "type": "uint256"
        }
      ],
      "name": "revokeApproval",
      "outputs": [],
      "stateMutability": "nonpayable",
      "type": "function"
    },
    {
      "inputs": [
        {
          "internalType": "address",
          "name": "from",
          "type": "address"
        },
        {
          "internalType": "address",
          "name": "to",
          "type": "address"
        },
        {
          "internalType": "uint256",
          "name": "tokenId",
          "type": "uint256"
        }
      ],
      "name": "safeTransferFrom",
      "outputs": [],
      "stateMutability": "nonpayable",
      "type": "function"
    },
    {
      "inputs": [
        {
          "internalType": "address",
          "name": "from",
          "type": "address"
        },
        {
          "internalType": "address",
          "name": "to",
          "type": "address"
        },
        {
          "internalType": "uint256",
          "name": "tokenId",
          "type": "uint256"
        },
        {
          "internalType": "bytes",
          "name": "_data",
          "type": "bytes"
        }
      ],
      "name": "safeTransferFrom",
      "outputs": [],
      "stateMutability": "nonpayable",
      "type": "function"
    },
    {
      "inputs": [
        {
          "internalType": "address",
          "name": "operator",
          "type": "address"
        },
        {
          "internalType": "bool",
          "name": "approved",
          "type": "bool"
        }
      ],
      "name": "setApprovalForAll",
      "outputs": [],
      "stateMutability": "nonpayable",
      "type": "function"
    },
    {
      "inputs": [
        {
          "internalType": "uint256",
          "name": "tokenId",
          "type": "uint256"
        },
        {
          "components": [
            {
              "internalType": "uint256",
              "name": "amount",
              "type": "uint256"
            },
            {
              "internalType": "address",
              "name": "currency",
              "type": "address"
            }
          ],
          "internalType": "struct IMarket.Ask",
          "name": "ask",
          "type": "tuple"
        }
      ],
      "name": "setAsk",
      "outputs": [],
      "stateMutability": "nonpayable",
      "type": "function"
    },
    {
      "inputs": [
        {
          "internalType": "uint256",
          "name": "tokenId",
          "type": "uint256"
        },
        {
          "components": [
            {
              "internalType": "uint256",
              "name": "amount",
              "type": "uint256"
            },
            {
              "internalType": "address",
              "name": "currency",
              "type": "address"
            },
            {
              "internalType": "address",
              "name": "bidder",
              "type": "address"
            },
            {
              "internalType": "address",
              "name": "recipient",
              "type": "address"
            },
            {
              "components": [
                {
                  "internalType": "uint256",
                  "name": "value",
                  "type": "uint256"
                }
              ],
              "internalType": "struct Decimal.D256",
              "name": "sellOnShare",
              "type": "tuple"
            }
          ],
          "internalType": "struct IMarket.Bid",
          "name": "bid",
          "type": "tuple"
        }
      ],
      "name": "setBid",
      "outputs": [],
      "stateMutability": "nonpayable",
      "type": "function"
    },
    {
      "inputs": [
        {
          "internalType": "bytes4",
          "name": "interfaceId",
          "type": "bytes4"
        }
      ],
      "name": "supportsInterface",
      "outputs": [
        {
          "internalType": "bool",
          "name": "",
          "type": "bool"
        }
      ],
      "stateMutability": "view",
      "type": "function"
    },
    {
      "inputs": [],
      "name": "symbol",
      "outputs": [
        {
          "internalType": "string",
          "name": "",
          "type": "string"
        }
      ],
      "stateMutability": "view",
      "type": "function"
    },
    {
      "inputs": [
        {
          "internalType": "uint256",
          "name": "index",
          "type": "uint256"
        }
      ],
      "name": "tokenByIndex",
      "outputs": [
        {
          "internalType": "uint256",
          "name": "",
          "type": "uint256"
        }
      ],
      "stateMutability": "view",
      "type": "function"
    },
    {
      "inputs": [
        {
          "internalType": "uint256",
          "name": "",
          "type": "uint256"
        }
      ],
      "name": "tokenCreators",
      "outputs": [
        {
          "internalType": "address",
          "name": "",
          "type": "address"
        }
      ],
      "stateMutability": "view",
      "type": "function"
    },
    {
      "inputs": [
        {
          "internalType": "address",
          "name": "owner",
          "type": "address"
        },
        {
          "internalType": "uint256",
          "name": "index",
          "type": "uint256"
        }
      ],
      "name": "tokenOfOwnerByIndex",
      "outputs": [
        {
          "internalType": "uint256",
          "name": "",
          "type": "uint256"
        }
      ],
      "stateMutability": "view",
      "type": "function"
    },
    {
      "inputs": [
        {
          "internalType": "uint256",
          "name": "tokenId",
          "type": "uint256"
        }
      ],
      "name": "tokenURI",
      "outputs": [
        {
          "internalType": "string",
          "name": "",
          "type": "string"
        }
      ],
      "stateMutability": "view",
      "type": "function"
    },
    {
      "inputs": [],
      "name": "totalSupply",
      "outputs": [
        {
          "internalType": "uint256",
          "name": "",
          "type": "uint256"
        }
      ],
      "stateMutability": "view",
      "type": "function"
    },
    {
      "inputs": [
        {
          "internalType": "address",
          "name": "from",
          "type": "address"
        },
        {
          "internalType": "address",
          "name": "to",
          "type": "address"
        },
        {
          "internalType": "uint256",
          "name": "tokenId",
          "type": "uint256"
        }
      ],
      "name": "transferFrom",
      "outputs": [],
      "stateMutability": "nonpayable",
      "type": "function"
    }
  ],
  "bytecode": "0x60806040523480156200001157600080fd5b5060405162002d9e38038062002d9e8339810160408190526200003491620001fe565b828260076200004483826200031a565b5060086200005382826200031a565b50620000666380ac58cd60e01b620000b5565b6200007863780e9d6360e01b620000b5565b50506001600b55600c80546001600160a01b0319166001600160a01b038316179055620000ac635b5e139f60e01b620000b5565b505050620003e6565b6001600160e01b03198082169003620001145760405162461bcd60e51b815260206004820152601c60248201527f4552433136353a20696e76616c696420696e7465726661636520696400000000604482015260640160405180910390fd5b6001600160e01b0319166000908152602081905260409020805460ff19166001179055565b634e487b7160e01b600052604160045260246000fd5b600082601f8301126200016157600080fd5b81516001600160401b03808211156200017e576200017e62000139565b604051601f8301601f19908116603f01168101908282118183101715620001a957620001a962000139565b81604052838152602092508683858801011115620001c657600080fd5b600091505b83821015620001ea5785820183015181830184015290820190620001cb565b600093810190920192909252949350505050565b6000806000606084860312156200021457600080fd5b83516001600160401b03808211156200022c57600080fd5b6200023a878388016200014f565b945060208601519150808211156200025157600080fd5b5062000260868287016200014f565b604086015190935090506001600160a01b03811681146200028057600080fd5b809150509250925092565b600181811c90821680620002a057607f821691505b602082108103620002c157634e487b7160e01b600052602260045260246000fd5b50919050565b601f8211156200031557600081815260208120601f850160051c81016020861015620002f05750805b601f850160051c820191505b818110156200031157828155600101620002fc565b5050505b505050565b81516001600160401b0381111562000336576200033662000139565b6200034e816200034784546200028b565b84620002c7565b602080601f8311600181146200038657600084156200036d5750858301515b600019600386901b1c1916600185901b17855562000311565b600085815260208120601f198616915b82811015620003b75788860151825594840194600190910190840162000396565b5085821015620003d65787850151600019600388901b60f8161c191681555b5050505050600190811b01905550565b6129a880620003f66000396000f3fe608060405234801561001057600080fd5b50600436106101e55760003560e01c80636352211e1161010f578063b320f459116100a2578063e0fd045f11610071578063e0fd045f14610433578063e985e9c51461045c578063f6b630f014610498578063f8ccd5de146104ab57600080fd5b8063b320f459146103e7578063b88d4fde146103fa578063ba3393991461040d578063c87b56dd1461042057600080fd5b80639d8e7260116100de5780639d8e726014610385578063a1794bcd146103ae578063a22cb465146103c1578063b1e130fc146103d457600080fd5b80636352211e1461034f5780636c0360eb1461036257806370a082311461036a57806395d89b411461037d57600080fd5b806328220f351161018757806342966c681161015657806342966c68146103035780634f6ccce7146103165780635bf624221461032957806362f24b701461033c57600080fd5b806328220f35146102a35780632f745c59146102b657806330adf81f146102c957806342842e0e146102f057600080fd5b8063095ea7b3116101c3578063095ea7b3146102525780630e2a17781461026757806318160ddd1461027a57806323b872dd1461029057600080fd5b806301ffc9a7146101ea57806306fdde0314610212578063081812fc14610227575b600080fd5b6101fd6101f8366004612091565b6104d6565b60405190151581526020015b60405180910390f35b61021a610516565b60405161020991906120fe565b61023a610235366004612111565b6105a8565b6040516001600160a01b039091168152602001610209565b610265610260366004612146565b610635565b005b610265610275366004612203565b61074a565b610282610b1a565b604051908152602001610209565b61026561029e3660046122a1565b610b2b565b6102656102b1366004612111565b610b5c565b6102826102c4366004612146565b610c06565b6102827f49ecf333e5b8c95c40fdafc95c1ad136e8914a8fb55e9dc8bb01eaa83a2df9ad81565b6102656102fe3660046122a1565b610c2f565b610265610311366004612111565b610c4a565b610282610324366004612111565b610d5c565b6102656103373660046122dd565b610d72565b61026561034a36600461237d565b610e62565b61023a61035d366004612111565b610f2f565b61021a610f57565b6102826103783660046123f3565b610f66565b61021a610ff2565b61023a610393366004612111565b600d602052600090815260409020546001600160a01b031681565b600c5461023a906001600160a01b031681565b6102656103cf36600461240e565b611001565b6102656103e2366004612111565b6110c5565b6102656103f5366004612111565b611177565b61026561040836600461244a565b611278565b61026561041b3660046122dd565b6112b0565b61021a61042e366004612111565b611331565b61023a610441366004612111565b600e602052600090815260409020546001600160a01b031681565b6101fd61046a36600461250a565b6001600160a01b03918216600090815260066020908152604080832093909416825291909152205460ff1690565b6102656104a636600461253d565b6114a3565b6102826104b9366004612146565b601060209081526000928352604080842090915290825290205481565b60006301ffc9a760e01b6001600160e01b03198316148061051057506001600160e01b0319821660009081526020819052604090205460ff165b92915050565b60606007805461052590612560565b80601f016020809104026020016040519081016040528092919081815260200182805461055190612560565b801561059e5780601f106105735761010080835404028352916020019161059e565b820191906000526020600020905b81548152906001019060200180831161058157829003601f168201915b5050505050905090565b60006105b382611559565b6106195760405162461bcd60e51b815260206004820152602c60248201527f4552433732313a20617070726f76656420717565727920666f72206e6f6e657860448201526b34b9ba32b73a103a37b5b2b760a11b60648201526084015b60405180910390fd5b506000908152600560205260409020546001600160a01b031690565b600061064082610f2f565b9050806001600160a01b0316836001600160a01b0316036106ad5760405162461bcd60e51b815260206004820152602160248201527f4552433732313a20617070726f76616c20746f2063757272656e74206f776e656044820152603960f91b6064820152608401610610565b336001600160a01b03821614806106c957506106c9813361046a565b61073b5760405162461bcd60e51b815260206004820152603860248201527f4552433732313a20617070726f76652063616c6c6572206973206e6f74206f7760448201527f6e6572206e6f7220617070726f76656420666f7220616c6c00000000000000006064820152608401610610565b6107458383611566565b505050565b6002600b540361076c5760405162461bcd60e51b81526004016106109061259a565b6002600b558161077b81611559565b6107975760405162461bcd60e51b8152600401610610906125d1565b815115806107a6575081514211155b6107f25760405162461bcd60e51b815260206004820152601960248201527f5a6f72614d656469613a205065726d69742065787069726564000000000000006044820152606401610610565b6001600160a01b0384166108485760405162461bcd60e51b815260206004820181905260248201527f5a6f72614d656469613a207370656e6465722063616e6e6f74206265203078306044820152606401610610565b600061091860408051808201825260048152635a6f726160e01b6020918201528151808301835260018152603160f81b9082015281517f8b73c3c69bb8fe3d512ecc4cf759cc79239f7b179b0ffacaa9a75d522b39400f818301527f91beda2a71cae260ce24b7d0ba9253f7212b59cbe39b0f303ac34fac7c00047d818401527fc89efdaa54c0f20c7adf612882df0950f5a951637e0307cdcb4c672f298b8bc660608201524660808201523060a0808301919091528351808303909101815260c0909101909252815191012090565b90506000817f49ecf333e5b8c95c40fdafc95c1ad136e8914a8fb55e9dc8bb01eaa83a2df9ad878760108561094c83610f2f565b6001600160a01b03168152602080820192909252604090810160009081208c8252909252812080549161097e8361261e565b9091555088516040805160208101969096526001600160a01b03909416938501939093526060840191909152608083015260a082015260c001604051602081830303815290604052805190602001206040516020016109f492919061190160f01b81526002810192909252602282015260420190565b604051602081830303815290604052805190602001209050600060018286602001518760400151886060015160405160008152602001604052604051610a56949392919093845260ff9290921660208401526040830152606082015260800190565b6020604051602081039080840390855afa158015610a78573d6000803e3d6000fd5b5050604051601f1901519150506001600160a01b03811615801590610ab65750806001600160a01b0316610aab87610f2f565b6001600160a01b0316145b610b025760405162461bcd60e51b815260206004820152601c60248201527f5a6f72614d656469613a205369676e617475726520696e76616c6964000000006044820152606401610610565b610b0c8787611566565b50506001600b555050505050565b6000610b2660026115d4565b905090565b610b3533826115df565b610b515760405162461bcd60e51b815260040161061090612637565b6107458383836116c9565b6002600b5403610b7e5760405162461bcd60e51b81526004016106109061259a565b6002600b553381610b8f82826115df565b610bab5760405162461bcd60e51b815260040161061090612688565b600c546040516328220f3560e01b8152600481018590526001600160a01b03909116906328220f35906024015b600060405180830381600087803b158015610bf257600080fd5b505af1158015610b0c573d6000803e3d6000fd5b6001600160a01b0382166000908152600160205260408120610c289083611732565b9392505050565b61074583838360405180602001604052806000815250611278565b6002600b5403610c6c5760405162461bcd60e51b81526004016106109061259a565b6002600b5580610c7b81611559565b610c975760405162461bcd60e51b8152600401610610906125d1565b3382610ca382826115df565b610cbf5760405162461bcd60e51b815260040161061090612688565b6000610cca85610f2f565b6000868152600e60205260409020549091506001600160a01b03808316911614610d475760405162461bcd60e51b815260206004820152602860248201527f5a6f72614d656469613a206f776e6572206973206e6f742063726561746f72206044820152676f66206d6564696160c01b6064820152608401610610565b610d508561173e565b50506001600b55505050565b600080610d6a600284611765565b509392505050565b6002600b5403610d945760405162461bcd60e51b81526004016106109061259a565b6002600b5581610da381611559565b610dbf5760405162461bcd60e51b8152600401610610906125d1565b81604001516001600160a01b0316336001600160a01b031614610e2e5760405162461bcd60e51b815260206004820152602160248201527f4d61726b65743a20426964646572206d757374206265206d73672073656e64656044820152603960f91b6064820152608401610610565b600c546040516317b6b0d360e31b81526001600160a01b039091169063bdb5869890610bd89086908690339060040161270a565b6002600b5403610e845760405162461bcd60e51b81526004016106109061259a565b6002600b553382610e9582826115df565b610eb15760405162461bcd60e51b815260040161061090612688565b600c5460405163062f24b760e41b8152600481018690528451602482015260208501516001600160a01b039081166044830152909116906362f24b70906064015b600060405180830381600087803b158015610f0c57600080fd5b505af1158015610f20573d6000803e3d6000fd5b50506001600b55505050505050565b60006105108260405180606001604052806029815260200161294a6029913960029190611781565b6060600a805461052590612560565b60006001600160a01b038216610fd15760405162461bcd60e51b815260206004820152602a60248201527f4552433732313a2062616c616e636520717565727920666f7220746865207a65604482015269726f206164647265737360b01b6064820152608401610610565b6001600160a01b03821660009081526001602052604090206105109061178e565b60606008805461052590612560565b336001600160a01b038316036110595760405162461bcd60e51b815260206004820152601960248201527f4552433732313a20617070726f766520746f2063616c6c6572000000000000006044820152606401610610565b3360008181526006602090815260408083206001600160a01b03871680855290835292819020805460ff191686151590811790915590519081529192917f17307eab39ab6107e8899845ad3d59bd9653f200f220920489ca2b5937696c31910160405180910390a35050565b6002600b54036110e75760405162461bcd60e51b81526004016106109061259a565b6002600b556110f5816105a8565b6001600160a01b0316336001600160a01b0316146111645760405162461bcd60e51b815260206004820152602660248201527f5a6f72614d656469613a2063616c6c6572206e6f7420617070726f766564206160448201526564647265737360d01b6064820152608401610610565b61116f600082611566565b506001600b55565b6002600b54036111995760405162461bcd60e51b81526004016106109061259a565b6002600b5580806111a960115490565b1161120b5760405162461bcd60e51b815260206004820152602c60248201527f5a6f72614d656469613a20746f6b656e2077697468207468617420696420646f60448201526b195cc81b9bdd08195e1a5cdd60a21b6064820152608401610610565b600c5460405163776a083560e01b8152600481018490523360248201526001600160a01b039091169063776a083590604401600060405180830381600087803b15801561125757600080fd5b505af115801561126b573d6000803e3d6000fd5b50506001600b5550505050565b61128233836115df565b61129e5760405162461bcd60e51b815260040161061090612637565b6112aa84848484611798565b50505050565b6002600b54036112d25760405162461bcd60e51b81526004016106109061259a565b6002600b5533826112e382826115df565b6112ff5760405162461bcd60e51b815260040161061090612688565b600c5460405163ba33939960e01b81526001600160a01b039091169063ba33939990610ef29087908790600401612737565b606061133c82611559565b6113a05760405162461bcd60e51b815260206004820152602f60248201527f4552433732314d657461646174613a2055524920717565727920666f72206e6f60448201526e3732bc34b9ba32b73a103a37b5b2b760891b6064820152608401610610565b600082815260096020526040812080546113b990612560565b80601f01602080910402602001604051908101604052809291908181526020018280546113e590612560565b80156114325780601f1061140757610100808354040283529160200191611432565b820191906000526020600020905b81548152906001019060200180831161141557829003601f168201915b50505050509050600a805461144690612560565b90506000036114555792915050565b80511561148757600a81604051602001611470929190612767565b604051602081830303815290604052915050919050565b600a61149284611816565b604051602001611470929190612767565b600c546001600160a01b031633146114fd5760405162461bcd60e51b815260206004820152601f60248201527f5a6f72614d656469613a206f6e6c79206d61726b657420636f6e7472616374006044820152606401610610565b61150682610f2f565b6000838152600d6020526040902080546001600160a01b0319166001600160a01b039290921691909117905561155561153e83610f2f565b828460405180602001604052806000815250611798565b5050565b6000610510600283611917565b600081815260056020526040902080546001600160a01b0319166001600160a01b038416908117909155819061159b82610f2f565b6001600160a01b03167f8c5be1e5ebec7d5bd14f71427d1e84f3dd0314c0f7b2291e5b200ac8c7c3b92560405160405180910390a45050565b600061051082611923565b60006115ea82611559565b61164b5760405162461bcd60e51b815260206004820152602c60248201527f4552433732313a206f70657261746f7220717565727920666f72206e6f6e657860448201526b34b9ba32b73a103a37b5b2b760a11b6064820152608401610610565b600061165683610f2f565b9050806001600160a01b0316846001600160a01b031614806116915750836001600160a01b0316611686846105a8565b6001600160a01b0316145b806116c157506001600160a01b0380821660009081526006602090815260408083209388168352929052205460ff165b949350505050565b600c546040516328220f3560e01b8152600481018390526001600160a01b03909116906328220f3590602401600060405180830381600087803b15801561170f57600080fd5b505af1158015611723573d6000803e3d6000fd5b5050505061074583838361192e565b6000610c288383611aaf565b61174781611ad9565b6000908152600d6020526040902080546001600160a01b0319169055565b60008080806117748686611b93565b9097909650945050505050565b60006116c1848484611bbe565b6000610510825490565b6117a38484846116c9565b6117af84848484611c0a565b6112aa5760405162461bcd60e51b815260206004820152603260248201527f4552433732313a207472616e7366657220746f206e6f6e20455243373231526560448201527131b2b4bb32b91034b6b83632b6b2b73a32b960711b6064820152608401610610565b60608160000361183d5750506040805180820190915260018152600360fc1b602082015290565b8160005b811561186757806118518161261e565b91506118609050600a83612827565b9150611841565b60008167ffffffffffffffff81111561188257611882612170565b6040519080825280601f01601f1916602001820160405280156118ac576020820181803683370190505b5090505b84156116c1576118c160018361283b565b91506118ce600a8661284e565b6118d9906030612862565b60f81b8183815181106118ee576118ee612875565b60200101906001600160f81b031916908160001a905350611910600a86612827565b94506118b0565b6000610c288383611cdb565b60006105108261178e565b826001600160a01b031661194182610f2f565b6001600160a01b0316146119a95760405162461bcd60e51b815260206004820152602960248201527f4552433732313a207472616e73666572206f6620746f6b656e2074686174206960448201526839903737ba1037bbb760b91b6064820152608401610610565b6001600160a01b038216611a0b5760405162461bcd60e51b8152602060048201526024808201527f4552433732313a207472616e7366657220746f20746865207a65726f206164646044820152637265737360e01b6064820152608401610610565b611a16600082611566565b6001600160a01b0383166000908152600160205260409020611a389082611ce7565b506001600160a01b0382166000908152600160205260409020611a5b9082611cf3565b50611a6860028284611cff565b5080826001600160a01b0316846001600160a01b03167fddf252ad1be2c89b69c2b068fc378daa952ba7f163c4a11628f55a4df523b3ef60405160405180910390a4505050565b6000826000018281548110611ac657611ac6612875565b9060005260206000200154905092915050565b6000611ae482610f2f565b9050611af1600083611566565b60008281526009602052604090208054611b0a90612560565b159050611b28576000828152600960205260408120611b2891612025565b6001600160a01b0381166000908152600160205260409020611b4a9083611ce7565b50611b56600283611d15565b5060405182906000906001600160a01b038416907fddf252ad1be2c89b69c2b068fc378daa952ba7f163c4a11628f55a4df523b3ef908390a45050565b60008080611ba18585611732565b600081815260029690960160205260409095205494959350505050565b600082815260028401602052604081205480151580611be25750611be28585611cdb565b8390611c015760405162461bcd60e51b815260040161061091906120fe565b50949350505050565b60006001600160a01b0384163b611c23575060016116c1565b6000611ca4630a85bd0160e11b33888787604051602401611c47949392919061288b565b604051602081830303815290604052906001600160e01b0319166020820180516001600160e01b038381831617835250505050604051806060016040528060328152602001612918603291396001600160a01b0388169190611d21565b9050600081806020019051810190611cbc91906128c8565b6001600160e01b031916630a85bd0160e11b1492505050949350505050565b6000610c288383611d30565b6000610c288383611d48565b6000610c288383611e3b565b60006116c184846001600160a01b038516611e8a565b6000610c288383611ea7565b60606116c18484600085611ec4565b60008181526001830160205260408120541515610c28565b60008181526001830160205260408120548015611e31576000611d6c60018361283b565b8554909150600090611d809060019061283b565b9050818114611de5576000866000018281548110611da057611da0612875565b9060005260206000200154905080876000018481548110611dc357611dc3612875565b6000918252602080832090910192909255918252600188019052604090208390555b8554869080611df657611df66128e5565b600190038181906000526020600020016000905590558560010160008681526020019081526020016000206000905560019350505050610510565b6000915050610510565b6000818152600183016020526040812054611e8257508154600181810184556000848152602080822090930184905584548482528286019093526040902091909155610510565b506000610510565b600082815260028401602052604081208290556116c18484611cf3565b60008181526002830160205260408120819055610c288383611ce7565b606082471015611f255760405162461bcd60e51b815260206004820152602660248201527f416464726573733a20696e73756666696369656e742062616c616e636520666f6044820152651c8818d85b1b60d21b6064820152608401610610565b843b611f735760405162461bcd60e51b815260206004820152601d60248201527f416464726573733a2063616c6c20746f206e6f6e2d636f6e74726163740000006044820152606401610610565b600080866001600160a01b03168587604051611f8f91906128fb565b60006040518083038185875af1925050503d8060008114611fcc576040519150601f19603f3d011682016040523d82523d6000602084013e611fd1565b606091505b5091509150611fe1828286611fec565b979650505050505050565b60608315611ffb575081610c28565b82511561200b5782518084602001fd5b8160405162461bcd60e51b815260040161061091906120fe565b50805461203190612560565b6000825580601f10612041575050565b601f01602090049060005260206000209081019061205f9190612062565b50565b5b808211156120775760008155600101612063565b5090565b6001600160e01b03198116811461205f57600080fd5b6000602082840312156120a357600080fd5b8135610c288161207b565b60005b838110156120c95781810151838201526020016120b1565b50506000910152565b600081518084526120ea8160208601602086016120ae565b601f01601f19169290920160200192915050565b602081526000610c2860208301846120d2565b60006020828403121561212357600080fd5b5035919050565b80356001600160a01b038116811461214157600080fd5b919050565b6000806040838503121561215957600080fd5b6121628361212a565b946020939093013593505050565b634e487b7160e01b600052604160045260246000fd5b60405160a0810167ffffffffffffffff811182821017156121a9576121a9612170565b60405290565b6040516020810167ffffffffffffffff811182821017156121a9576121a9612170565b604051601f8201601f1916810167ffffffffffffffff811182821017156121fb576121fb612170565b604052919050565b600080600083850360c081121561221957600080fd5b6122228561212a565b9350602085013592506080603f198201121561223d57600080fd5b506040516080810181811067ffffffffffffffff8211171561226157612261612170565b60409081528501358152606085013560ff8116811461227f57600080fd5b60208201526080850135604082015260a0909401356060850152509093909250565b6000806000606084860312156122b657600080fd5b6122bf8461212a565b92506122cd6020850161212a565b9150604084013590509250925092565b60008082840360c08112156122f157600080fd5b8335925060a0601f198201121561230757600080fd5b61230f612186565b602085013581526123226040860161212a565b60208201526123336060860161212a565b60408201526123446080860161212a565b60608201526020609f198301121561235b57600080fd5b6123636121af565b60a095909501358552608081019490945250909391925050565b600080828403606081121561239157600080fd5b833592506040601f19820112156123a757600080fd5b506040516040810181811067ffffffffffffffff821117156123cb576123cb612170565b8060405250602084013581526123e36040850161212a565b6020820152809150509250929050565b60006020828403121561240557600080fd5b610c288261212a565b6000806040838503121561242157600080fd5b61242a8361212a565b91506020830135801515811461243f57600080fd5b809150509250929050565b6000806000806080858703121561246057600080fd5b6124698561212a565b9350602061247881870161212a565b935060408601359250606086013567ffffffffffffffff8082111561249c57600080fd5b818801915088601f8301126124b057600080fd5b8135818111156124c2576124c2612170565b6124d4601f8201601f191685016121d2565b915080825289848285010111156124ea57600080fd5b808484018584013760008482840101525080935050505092959194509250565b6000806040838503121561251d57600080fd5b6125268361212a565b91506125346020840161212a565b90509250929050565b6000806040838503121561255057600080fd5b823591506125346020840161212a565b600181811c9082168061257457607f821691505b60208210810361259457634e487b7160e01b600052602260045260246000fd5b50919050565b6020808252601f908201527f5265656e7472616e637947756172643a207265656e7472616e742063616c6c00604082015260600190565b6020808252601c908201527f5a6f72614d656469613a206e6f6e6578697374656e7420746f6b656e00000000604082015260600190565b634e487b7160e01b600052601160045260246000fd5b60006001820161263057612630612608565b5060010190565b60208082526031908201527f4552433732313a207472616e736665722063616c6c6572206973206e6f74206f6040820152701ddb995c881b9bdc88185c1c1c9bdd9959607a1b606082015260800190565b60208082526021908201527f5a6f72614d656469613a204f6e6c7920617070726f766564206f72206f776e656040820152603960f91b606082015260800190565b805182526020808201516001600160a01b03908116918401919091526040808301518216908401526060808301519091169083015260809081015151910152565b83815260e0810161271e60208301856126c9565b6001600160a01b039290921660c0919091015292915050565b82815260c08101610c2860208301846126c9565b6000815161275d8185602086016120ae565b9290920192915050565b600080845481600182811c91508083168061278357607f831692505b602080841082036127a257634e487b7160e01b86526022600452602486fd5b8180156127b657600181146127cb576127f8565b60ff19861689528415158502890196506127f8565b60008b81526020902060005b868110156127f05781548b8201529085019083016127d7565b505084890196505b505050505050612808818561274b565b95945050505050565b634e487b7160e01b600052601260045260246000fd5b60008261283657612836612811565b500490565b8181038181111561051057610510612608565b60008261285d5761285d612811565b500690565b8082018082111561051057610510612608565b634e487b7160e01b600052603260045260246000fd5b6001600160a01b03858116825284166020820152604081018390526080606082018190526000906128be908301846120d2565b9695505050505050565b6000602082840312156128da57600080fd5b8151610c288161207b565b634e487b7160e01b600052603160045260246000fd5b6000825161290d8184602087016120ae565b919091019291505056fe4552433732313a207472616e7366657220746f206e6f6e20455243373231526563656976657220696d706c656d656e7465724552433732313a206f776e657220717565727920666f72206e6f6e6578697374656e7420746f6b656ea2646970667358221220daa785a55c428e74acfd0b0fd24b39a9ba4728cfebf683ab697b54a1cc715d8c64736f6c63430008110033",
  "linkReferences": {},
  "deployedLinkReferences": {}
}