{
  "_format": "hh-sol-artifact-1",
  "contractName": "ERC1155WithEIP2981",
  "sourceName": "contracts/manifold/royalty-registry/token/ERC1155.sol",
  "abi": [
    {
      "inputs": [
        {
          "internalType": "string",
          "name": "uri_",
          "type": "string"
        }
      ],
      "stateMutability": "nonpayable",
      "type": "constructor"
    },
    {
      "anonymous": false,
      "inputs": [
        {
          "indexed": true,
          "internalType": "address",
          "name": "account",
          "type": "address"
        },
        {
          "indexed": true,
          "internalType": "address",
          "name": "operator",
          "type": "address"
        },
        {
          "indexed": false,
          "internalType": "bool",
          "name": "approved",
          "type": "bool"
        }
      ],
      "name": "ApprovalForAll",
      "type": "event"
    },
    {
      "anonymous": false,
      "inputs": [
        {
          "indexed": false,
          "internalType": "address",
          "name": "recipient",
          "type": "address"
        },
        {
          "indexed": false,
          "internalType": "uint16",
          "name": "bps",
          "type": "uint16"
        }
      ],
      "name": "DefaultRoyaltySet",
      "type": "event"
    },
    {
      "anonymous": false,
      "inputs": [
        {
          "indexed": true,
          "internalType": "address",
          "name": "previousOwner",
          "type": "address"
        },
        {
          "indexed": true,
          "internalType": "address",
          "name": "newOwner",
          "type": "address"
        }
      ],
      "name": "OwnershipTransferred",
      "type": "event"
    },
    {
      "anonymous": false,
      "inputs": [
        {
          "indexed": false,
          "internalType": "uint256",
          "name": "tokenId",
          "type": "uint256"
        }
      ],
      "name": "TokenRoyaltyRemoved",
      "type": "event"
    },
    {
      "anonymous": false,
      "inputs": [
        {
          "indexed": false,
          "internalType": "uint256",
          "name": "tokenId",
          "type": "uint256"
        },
        {
          "indexed": false,
          "internalType": "address",
          "name": "recipient",
          "type": "address"
        },
        {
          "indexed": false,
          "internalType": "uint16",
          "name": "bps",
          "type": "uint16"
        }
      ],
      "name": "TokenRoyaltySet",
      "type": "event"
    },
    {
      "anonymous": false,
      "inputs": [
        {
          "indexed": true,
          "internalType": "address",
          "name": "operator",
          "type": "address"
        },
        {
          "indexed": true,
          "internalType": "address",
          "name": "from",
          "type": "address"
        },
        {
          "indexed": true,
          "internalType": "address",
          "name": "to",
          "type": "address"
        },
        {
          "indexed": false,
          "internalType": "uint256[]",
          "name": "ids",
          "type": "uint256[]"
        },
        {
          "indexed": false,
          "internalType": "uint256[]",
          "name": "values",
          "type": "uint256[]"
        }
      ],
      "name": "TransferBatch",
      "type": "event"
    },
    {
      "anonymous": false,
      "inputs": [
        {
          "indexed": true,
          "internalType": "address",
          "name": "operator",
          "type": "address"
        },
        {
          "indexed": true,
          "internalType": "address",
          "name": "from",
          "type": "address"
        },
        {
          "indexed": true,
          "internalType": "address",
          "name": "to",
          "type": "address"
        },
        {
          "indexed": false,
          "internalType": "uint256",
          "name": "id",
          "type": "uint256"
        },
        {
          "indexed": false,
          "internalType": "uint256",
          "name": "value",
          "type": "uint256"
        }
      ],
      "name": "TransferSingle",
      "type": "event"
    },
    {
      "anonymous": false,
      "inputs": [
        {
          "indexed": false,
          "internalType": "string",
          "name": "value",
          "type": "string"
        },
        {
          "indexed": true,
          "internalType": "uint256",
          "name": "id",
          "type": "uint256"
        }
      ],
      "name": "URI",
      "type": "event"
    },
    {
      "inputs": [
        {
          "internalType": "address",
          "name": "account",
          "type": "address"
        },
        {
          "internalType": "uint256",
          "name": "id",
          "type": "uint256"
        }
      ],
      "name": "balanceOf",
      "outputs": [
        {
          "internalType": "uint256",
          "name": "",
          "type": "uint256"
        }
      ],
      "stateMutability": "view",
      "type": "function"
    },
    {
      "inputs": [
        {
          "internalType": "address[]",
          "name": "accounts",
          "type": "address[]"
        },
        {
          "internalType": "uint256[]",
          "name": "ids",
          "type": "uint256[]"
        }
      ],
      "name": "balanceOfBatch",
      "outputs": [
        {
          "internalType": "uint256[]",
          "name": "",
          "type": "uint256[]"
        }
      ],
      "stateMutability": "view",
      "type": "function"
    },
    {
      "inputs": [],
      "name": "defaultRoyalty",
      "outputs": [
        {
          "internalType": "address",
          "name": "recipient",
          "type": "address"
        },
        {
          "internalType": "uint16",
          "name": "bps",
          "type": "uint16"
        }
      ],
      "stateMutability": "view",
      "type": "function"
    },
    {
      "inputs": [],
      "name": "getTokenRoyaltiesCount",
      "outputs": [
        {
          "internalType": "uint256",
          "name": "",
          "type": "uint256"
        }
      ],
      "stateMutability": "view",
      "type": "function"
    },
    {
      "inputs": [
        {
          "internalType": "uint256",
          "name": "index",
          "type": "uint256"
        }
      ],
      "name": "getTokenRoyaltyByIndex",
      "outputs": [
        {
          "components": [
            {
              "internalType": "uint256",
              "name": "tokenId",
              "type": "uint256"
            },
            {
              "internalType": "address",
              "name": "recipient",
              "type": "address"
            },
            {
              "internalType": "uint16",
              "name": "bps",
              "type": "uint16"
            }
          ],
          "internalType": "struct IEIP2981RoyaltyOverride.TokenRoyaltyConfig",
          "name": "",
          "type": "tuple"
        }
      ],
      "stateMutability": "view",
      "type": "function"
    },
    {
      "inputs": [
        {
          "internalType": "address",
          "name": "account",
          "type": "address"
        },
        {
          "internalType": "address",
          "name": "operator",
          "type": "address"
        }
      ],
      "name": "isApprovedForAll",
      "outputs": [
        {
          "internalType": "bool",
          "name": "",
          "type": "bool"
        }
      ],
      "stateMutability": "view",
      "type": "function"
    },
    {
      "inputs": [],
      "name": "owner",
      "outputs": [
        {
          "internalType": "address",
          "name": "",
          "type": "address"
        }
      ],
      "stateMutability": "view",
      "type": "function"
    },
    {
      "inputs": [],
      "name": "renounceOwnership",
      "outputs": [],
      "stateMutability": "nonpayable",
      "type": "function"
    },
    {
      "inputs": [
        {
          "internalType": "uint256",
          "name": "tokenId",
          "type": "uint256"
        },
        {
          "internalType": "uint256",
          "name": "value",
          "type": "uint256"
        }
      ],
      "name": "royaltyInfo",
      "outputs": [
        {
          "internalType": "address",
          "name": "",
          "type": "address"
        },
        {
          "internalType": "uint256",
          "name": "",
          "type": "uint256"
        }
      ],
      "stateMutability": "view",
      "type": "function"
    },
    {
      "inputs": [
        {
          "internalType": "address",
          "name": "from",
          "type": "address"
        },
        {
          "internalType": "address",
          "name": "to",
          "type": "address"
        },
        {
          "internalType": "uint256[]",
          "name": "ids",
          "type": "uint256[]"
        },
        {
          "internalType": "uint256[]",
          "name": "amounts",
          "type": "uint256[]"
        },
        {
          "internalType": "bytes",
          "name": "data",
          "type": "bytes"
        }
      ],
      "name": "safeBatchTransferFrom",
      "outputs": [],
      "stateMutability": "nonpayable",
      "type": "function"
    },
    {
      "inputs": [
        {
          "internalType": "address",
          "name": "from",
          "type": "address"
        },
        {
          "internalType": "address",
          "name": "to",
          "type": "address"
        },
        {
          "internalType": "uint256",
          "name": "id",
          "type": "uint256"
        },
        {
          "internalType": "uint256",
          "name": "amount",
          "type": "uint256"
        },
        {
          "internalType": "bytes",
          "name": "data",
          "type": "bytes"
        }
      ],
      "name": "safeTransferFrom",
      "outputs": [],
      "stateMutability": "nonpayable",
      "type": "function"
    },
    {
      "inputs": [
        {
          "internalType": "address",
          "name": "operator",
          "type": "address"
        },
        {
          "internalType": "bool",
          "name": "approved",
          "type": "bool"
        }
      ],
      "name": "setApprovalForAll",
      "outputs": [],
      "stateMutability": "nonpayable",
      "type": "function"
    },
    {
      "inputs": [
        {
          "components": [
            {
              "internalType": "address",
              "name": "recipient",
              "type": "address"
            },
            {
              "internalType": "uint16",
              "name": "bps",
              "type": "uint16"
            }
          ],
          "internalType": "struct IEIP2981RoyaltyOverride.TokenRoyalty",
          "name": "royalty",
          "type": "tuple"
        }
      ],
      "name": "setDefaultRoyalty",
      "outputs": [],
      "stateMutability": "nonpayable",
      "type": "function"
    },
    {
      "inputs": [
        {
          "components": [
            {
              "internalType": "uint256",
              "name": "tokenId",
              "type": "uint256"
            },
            {
              "internalType": "address",
              "name": "recipient",
              "type": "address"
            },
            {
              "internalType": "uint16",
              "name": "bps",
              "type": "uint16"
            }
          ],
          "internalType": "struct IEIP2981RoyaltyOverride.TokenRoyaltyConfig[]",
          "name": "royaltyConfigs",
          "type": "tuple[]"
        }
      ],
      "name": "setTokenRoyalties",
      "outputs": [],
      "stateMutability": "nonpayable",
      "type": "function"
    },
    {
      "inputs": [
        {
          "internalType": "bytes4",
          "name": "interfaceId",
          "type": "bytes4"
        }
      ],
      "name": "supportsInterface",
      "outputs": [
        {
          "internalType": "bool",
          "name": "",
          "type": "bool"
        }
      ],
      "stateMutability": "view",
      "type": "function"
    },
    {
      "inputs": [
        {
          "internalType": "address",
          "name": "newOwner",
          "type": "address"
        }
      ],
      "name": "transferOwnership",
      "outputs": [],
      "stateMutability": "nonpayable",
      "type": "function"
    },
    {
      "inputs": [
        {
          "internalType": "uint256",
          "name": "",
          "type": "uint256"
        }
      ],
      "name": "uri",
      "outputs": [
        {
          "internalType": "string",
          "name": "",
          "type": "string"
        }
      ],
      "stateMutability": "view",
      "type": "function"
    }
  ],
  "bytecode": "0x60806040523480156200001157600080fd5b5060405162002289380380620022898339810160408190526200003491620000b3565b8062000040816200008b565b50600780546001600160a01b0319163390811790915560405181906000907f8be0079c531659141344cd1fd0a4f28419497f9722a3daafe3b4186f6b6457e0908290a35050620002e3565b600262000099828262000217565b5050565b634e487b7160e01b600052604160045260246000fd5b60006020808385031215620000c757600080fd5b82516001600160401b0380821115620000df57600080fd5b818501915085601f830112620000f457600080fd5b8151818111156200010957620001096200009d565b604051601f8201601f19908116603f011681019083821181831017156200013457620001346200009d565b8160405282815288868487010111156200014d57600080fd5b600093505b8284101562000171578484018601518185018701529285019262000152565b600086848301015280965050505050505092915050565b600181811c908216806200019d57607f821691505b602082108103620001be57634e487b7160e01b600052602260045260246000fd5b50919050565b601f8211156200021257600081815260208120601f850160051c81016020861015620001ed5750805b601f850160051c820191505b818110156200020e57828155600101620001f9565b5050505b505050565b81516001600160401b038111156200023357620002336200009d565b6200024b8162000244845462000188565b84620001c4565b602080601f8311600181146200028357600084156200026a5750858301515b600019600386901b1c1916600185901b1785556200020e565b600085815260208120601f198616915b82811015620002b45788860151825594840194600190910190840162000293565b5085821015620002d35787850151600019600388901b60f8161c191681555b5050505050600190811b01905550565b611f9680620002f36000396000f3fe608060405234801561001057600080fd5b506004361061010a5760003560e01c8063715018a6116100a2578063a22cb46511610071578063a22cb465146102a1578063e985e9c5146102b4578063ef60ceaf146102f0578063f242432a14610303578063f2fde38b1461031657600080fd5b8063715018a6146102345780637885fdc71461023c5780637e9803421461027e5780638da5cb5b1461028657600080fd5b80632a55205a116100de5780632a55205a146101ba5780632eb2c2d6146101ec5780634e1273f4146102015780635136dcc71461022157600080fd5b8062fdd58e1461010f57806301ffc9a7146101355780630653aca5146101585780630e89341c1461019a575b600080fd5b61012261011d366004611584565b610329565b6040519081526020015b60405180910390f35b6101486101433660046115c4565b6103c3565b604051901515815260200161012c565b61016b6101663660046115e1565b6103dd565b60408051825181526020808401516001600160a01b0316908201529181015161ffff169082015260600161012c565b6101ad6101a83660046115e1565b610462565b60405161012c9190611640565b6101cd6101c8366004611653565b6104f6565b604080516001600160a01b03909316835260208301919091520161012c565b6101ff6101fa3660046117c1565b6105bb565b005b61021461020f36600461186b565b610652565b60405161012c9190611971565b6101ff61022f366004611984565b61077c565b6101ff610805565b60035461025c906001600160a01b03811690600160a01b900461ffff1682565b604080516001600160a01b03909316835261ffff90911660208301520161012c565b610122610879565b6007546040516001600160a01b03909116815260200161012c565b6101ff6102af3660046119f9565b61088a565b6101486102c2366004611a35565b6001600160a01b03918216600090815260016020908152604080832093909416825291909152205460ff1690565b6101ff6102fe366004611a68565b610895565b6101ff610311366004611a80565b6108d9565b6101ff610324366004611ae5565b610960565b60006001600160a01b03831661039a5760405162461bcd60e51b815260206004820152602b60248201527f455243313135353a2062616c616e636520717565727920666f7220746865207a60448201526a65726f206164647265737360a81b60648201526084015b60405180910390fd5b506000818152602081815260408083206001600160a01b03861684529091529020545b92915050565b60006103ce82610a4b565b806103bd57506103bd82610a9b565b6040805160608101825260008082526020820181905291810182905290610405600584610adb565b6000818152600460209081526040918290208251808401845290546001600160a01b03808216835261ffff600160a01b90920482168385019081528551606081018752968752925116928501929092525116908201529392505050565b60606002805461047190611b00565b80601f016020809104026020016040519081016040528092919081815260200182805461049d90611b00565b80156104ea5780601f106104bf576101008083540402835291602001916104ea565b820191906000526020600020905b8154815290600101906020018083116104cd57829003601f168201915b50505050509050919050565b60008281526004602052604081205481906001600160a01b03161561055b576000848152600460205260409020546001600160a01b038116906127109061054890600160a01b900461ffff1686611b4a565b6105529190611b61565b915091506105b4565b6003546001600160a01b0316158015906105815750600354600160a01b900461ffff1615155b156105ad576003546001600160a01b038116906127109061054890600160a01b900461ffff1686611b4a565b5060009050805b9250929050565b6001600160a01b0385163314806105d757506105d785336102c2565b61063e5760405162461bcd60e51b815260206004820152603260248201527f455243313135353a207472616e736665722063616c6c6572206973206e6f74206044820152711bdddb995c881b9bdc88185c1c1c9bdd995960721b6064820152608401610391565b61064b8585858585610aee565b5050505050565b606081518351146106b75760405162461bcd60e51b815260206004820152602960248201527f455243313135353a206163636f756e747320616e6420696473206c656e677468604482015268040dad2e6dac2e8c6d60bb1b6064820152608401610391565b6000835167ffffffffffffffff8111156106d3576106d3611675565b6040519080825280602002602001820160405280156106fc578160200160208202803683370190505b50905060005b84518110156107745761074785828151811061072057610720611b83565b602002602001015185838151811061073a5761073a611b83565b6020026020010151610329565b82828151811061075957610759611b83565b602090810291909101015261076d81611b99565b9050610702565b509392505050565b6007546001600160a01b031633146107a65760405162461bcd60e51b815260040161039190611bb2565b6108018282808060200260200160405190810160405280939291908181526020016000905b828210156107f7576107e860608302860136819003810190611bf9565b815260200190600101906107cb565b5050505050610ccb565b5050565b6007546001600160a01b0316331461082f5760405162461bcd60e51b815260040161039190611bb2565b6007546040516000916001600160a01b0316907f8be0079c531659141344cd1fd0a4f28419497f9722a3daafe3b4186f6b6457e0908390a3600780546001600160a01b0319169055565b60006108856005610e90565b905090565b610801338383610e9a565b6007546001600160a01b031633146108bf5760405162461bcd60e51b815260040161039190611bb2565b6108d66108d136839003830183611c5e565b610f7a565b50565b6001600160a01b0385163314806108f557506108f585336102c2565b6109535760405162461bcd60e51b815260206004820152602960248201527f455243313135353a2063616c6c6572206973206e6f74206f776e6572206e6f7260448201526808185c1c1c9bdd995960ba1b6064820152608401610391565b61064b858585858561105d565b6007546001600160a01b0316331461098a5760405162461bcd60e51b815260040161039190611bb2565b6001600160a01b0381166109ef5760405162461bcd60e51b815260206004820152602660248201527f4f776e61626c653a206e6577206f776e657220697320746865207a65726f206160448201526564647265737360d01b6064820152608401610391565b6007546040516001600160a01b038084169216907f8be0079c531659141344cd1fd0a4f28419497f9722a3daafe3b4186f6b6457e090600090a3600780546001600160a01b0319166001600160a01b0392909216919091179055565b60006001600160e01b03198216636cdb3d1360e11b1480610a7c57506001600160e01b031982166303a24d0760e21b145b806103bd57506301ffc9a760e01b6001600160e01b03198316146103bd565b60006001600160e01b0319821663152a902d60e11b1480610acc57506001600160e01b0319821663c69dbd8f60e01b145b806103bd57506103bd82610a4b565b6000610ae78383611183565b9392505050565b8151835114610b505760405162461bcd60e51b815260206004820152602860248201527f455243313135353a2069647320616e6420616d6f756e7473206c656e677468206044820152670dad2e6dac2e8c6d60c31b6064820152608401610391565b6001600160a01b038416610b765760405162461bcd60e51b815260040161039190611cb9565b3360005b8451811015610c5d576000858281518110610b9757610b97611b83565b602002602001015190506000858381518110610bb557610bb5611b83565b602090810291909101810151600084815280835260408082206001600160a01b038e168352909352919091205490915081811015610c055760405162461bcd60e51b815260040161039190611cfe565b6000838152602081815260408083206001600160a01b038e8116855292528083208585039055908b16825281208054849290610c42908490611d48565b9250508190555050505080610c5690611b99565b9050610b7a565b50846001600160a01b0316866001600160a01b0316826001600160a01b03167f4a39dc06d4c0dbc64b70af90fd698a233a518aa5d07e595d983b8c0526c8f7fb8787604051610cad929190611d5b565b60405180910390a4610cc38187878787876111ad565b505050505050565b60005b8151811015610801576000828281518110610ceb57610ceb611b83565b60200260200101519050612710816040015161ffff1610610d3c5760405162461bcd60e51b815260206004820152600b60248201526a496e76616c69642062707360a81b6044820152606401610391565b60208101516001600160a01b0316610db5578051600090815260046020526040902080546001600160b01b03191690558051610d7a90600590611308565b5080516040519081527fa2870857763bd9ae76c957f869f16b31c18dd3bb4c7b4d3a4496dc5c57c657f99060200160405180910390a1610e7d565b6040805180820182526020808401516001600160a01b0390811683528484015161ffff90811683850190815286516000908152600490945294909220925183549451909216600160a01b026001600160b01b03199094169116179190911790558051610e2390600590611314565b50805160208083015160408085015181519485526001600160a01b039092169284019290925261ffff1682820152517f389b70fb0887f01e83784eb1c4c589f740eca53b00ed0f45e41db5d079719abb9181900360600190a15b5080610e8881611b99565b915050610cce565b60006103bd825490565b816001600160a01b0316836001600160a01b031603610f0d5760405162461bcd60e51b815260206004820152602960248201527f455243313135353a2073657474696e6720617070726f76616c20737461747573604482015268103337b91039b2b63360b91b6064820152608401610391565b6001600160a01b03838116600081815260016020908152604080832094871680845294825291829020805460ff191686151590811790915591519182527f17307eab39ab6107e8899845ad3d59bd9653f200f220920489ca2b5937696c31910160405180910390a3505050565b612710816020015161ffff1610610fc15760405162461bcd60e51b815260206004820152600b60248201526a496e76616c69642062707360a81b6044820152606401610391565b60408051808201825282516001600160a01b03168082526020808501805161ffff169190930181905260038054600160a01b9092026001600160b01b03199092169092171790558251905191517f2c5ea6e4103e78cb101e796fb2dace540362fc542cbff5145eaa24af7dd8fe419261105292916001600160a01b0392909216825261ffff16602082015260400190565b60405180910390a150565b6001600160a01b0384166110835760405162461bcd60e51b815260040161039190611cb9565b3361109c81878761109388611320565b61064b88611320565b6000848152602081815260408083206001600160a01b038a168452909152902054838110156110dd5760405162461bcd60e51b815260040161039190611cfe565b6000858152602081815260408083206001600160a01b038b811685529252808320878503905590881682528120805486929061111a908490611d48565b909155505060408051868152602081018690526001600160a01b03808916928a821692918616917fc3d58168c5ae7397731d063d5bbf3d657854427343f4c083240f7aacaa2d0f62910160405180910390a461117a82888888888861136b565b50505050505050565b600082600001828154811061119a5761119a611b83565b9060005260206000200154905092915050565b6001600160a01b0384163b15610cc35760405163bc197c8160e01b81526001600160a01b0385169063bc197c81906111f19089908990889088908890600401611d89565b6020604051808303816000875af192505050801561122c575060408051601f3d908101601f1916820190925261122991810190611de7565b60015b6112d857611238611e04565b806308c379a003611271575061124c611e20565b806112575750611273565b8060405162461bcd60e51b81526004016103919190611640565b505b60405162461bcd60e51b815260206004820152603460248201527f455243313135353a207472616e7366657220746f206e6f6e20455243313135356044820152732932b1b2b4bb32b91034b6b83632b6b2b73a32b960611b6064820152608401610391565b6001600160e01b0319811663bc197c8160e01b1461117a5760405162461bcd60e51b815260040161039190611eaa565b6000610ae78383611426565b6000610ae78383611519565b6040805160018082528183019092526060916000919060208083019080368337019050509050828160008151811061135a5761135a611b83565b602090810291909101015292915050565b6001600160a01b0384163b15610cc35760405163f23a6e6160e01b81526001600160a01b0385169063f23a6e61906113af9089908990889088908890600401611ef2565b6020604051808303816000875af19250505080156113ea575060408051601f3d908101601f191682019092526113e791810190611de7565b60015b6113f657611238611e04565b6001600160e01b0319811663f23a6e6160e01b1461117a5760405162461bcd60e51b815260040161039190611eaa565b6000818152600183016020526040812054801561150f57600061144a600183611f37565b855490915060009061145e90600190611f37565b90508181146114c357600086600001828154811061147e5761147e611b83565b90600052602060002001549050808760000184815481106114a1576114a1611b83565b6000918252602080832090910192909255918252600188019052604090208390555b85548690806114d4576114d4611f4a565b6001900381819060005260206000200160009055905585600101600086815260200190815260200160002060009055600193505050506103bd565b60009150506103bd565b6000818152600183016020526040812054611560575081546001818101845560008481526020808220909301849055845484825282860190935260409020919091556103bd565b5060006103bd565b80356001600160a01b038116811461157f57600080fd5b919050565b6000806040838503121561159757600080fd5b6115a083611568565b946020939093013593505050565b6001600160e01b0319811681146108d657600080fd5b6000602082840312156115d657600080fd5b8135610ae7816115ae565b6000602082840312156115f357600080fd5b5035919050565b6000815180845260005b8181101561162057602081850181015186830182015201611604565b506000602082860101526020601f19601f83011685010191505092915050565b602081526000610ae760208301846115fa565b6000806040838503121561166657600080fd5b50508035926020909101359150565b634e487b7160e01b600052604160045260246000fd5b601f8201601f1916810167ffffffffffffffff811182821017156116b1576116b1611675565b6040525050565b600067ffffffffffffffff8211156116d2576116d2611675565b5060051b60200190565b600082601f8301126116ed57600080fd5b813560206116fa826116b8565b604051611707828261168b565b83815260059390931b850182019282810191508684111561172757600080fd5b8286015b84811015611742578035835291830191830161172b565b509695505050505050565b600082601f83011261175e57600080fd5b813567ffffffffffffffff81111561177857611778611675565b60405161178f601f8301601f19166020018261168b565b8181528460208386010111156117a457600080fd5b816020850160208301376000918101602001919091529392505050565b600080600080600060a086880312156117d957600080fd5b6117e286611568565b94506117f060208701611568565b9350604086013567ffffffffffffffff8082111561180d57600080fd5b61181989838a016116dc565b9450606088013591508082111561182f57600080fd5b61183b89838a016116dc565b9350608088013591508082111561185157600080fd5b5061185e8882890161174d565b9150509295509295909350565b6000806040838503121561187e57600080fd5b823567ffffffffffffffff8082111561189657600080fd5b818501915085601f8301126118aa57600080fd5b813560206118b7826116b8565b6040516118c4828261168b565b83815260059390931b85018201928281019150898411156118e457600080fd5b948201945b83861015611909576118fa86611568565b825294820194908201906118e9565b9650508601359250508082111561191f57600080fd5b5061192c858286016116dc565b9150509250929050565b600081518084526020808501945080840160005b838110156119665781518752958201959082019060010161194a565b509495945050505050565b602081526000610ae76020830184611936565b6000806020838503121561199757600080fd5b823567ffffffffffffffff808211156119af57600080fd5b818501915085601f8301126119c357600080fd5b8135818111156119d257600080fd5b8660206060830285010111156119e757600080fd5b60209290920196919550909350505050565b60008060408385031215611a0c57600080fd5b611a1583611568565b915060208301358015158114611a2a57600080fd5b809150509250929050565b60008060408385031215611a4857600080fd5b611a5183611568565b9150611a5f60208401611568565b90509250929050565b600060408284031215611a7a57600080fd5b50919050565b600080600080600060a08688031215611a9857600080fd5b611aa186611568565b9450611aaf60208701611568565b93506040860135925060608601359150608086013567ffffffffffffffff811115611ad957600080fd5b61185e8882890161174d565b600060208284031215611af757600080fd5b610ae782611568565b600181811c90821680611b1457607f821691505b602082108103611a7a57634e487b7160e01b600052602260045260246000fd5b634e487b7160e01b600052601160045260246000fd5b80820281158282048414176103bd576103bd611b34565b600082611b7e57634e487b7160e01b600052601260045260246000fd5b500490565b634e487b7160e01b600052603260045260246000fd5b600060018201611bab57611bab611b34565b5060010190565b6020808252818101527f4f776e61626c653a2063616c6c6572206973206e6f7420746865206f776e6572604082015260600190565b803561ffff8116811461157f57600080fd5b600060608284031215611c0b57600080fd5b6040516060810181811067ffffffffffffffff82111715611c2e57611c2e611675565b60405282358152611c4160208401611568565b6020820152611c5260408401611be7565b60408201529392505050565b600060408284031215611c7057600080fd5b6040516040810181811067ffffffffffffffff82111715611c9357611c93611675565b604052611c9f83611568565b8152611cad60208401611be7565b60208201529392505050565b60208082526025908201527f455243313135353a207472616e7366657220746f20746865207a65726f206164604082015264647265737360d81b606082015260800190565b6020808252602a908201527f455243313135353a20696e73756666696369656e742062616c616e636520666f60408201526939103a3930b739b332b960b11b606082015260800190565b808201808211156103bd576103bd611b34565b604081526000611d6e6040830185611936565b8281036020840152611d808185611936565b95945050505050565b6001600160a01b0386811682528516602082015260a060408201819052600090611db590830186611936565b8281036060840152611dc78186611936565b90508281036080840152611ddb81856115fa565b98975050505050505050565b600060208284031215611df957600080fd5b8151610ae7816115ae565b600060033d1115611e1d5760046000803e5060005160e01c5b90565b600060443d1015611e2e5790565b6040516003193d81016004833e81513d67ffffffffffffffff8160248401118184111715611e5e57505050505090565b8285019150815181811115611e765750505050505090565b843d8701016020828501011115611e905750505050505090565b611e9f6020828601018761168b565b509095945050505050565b60208082526028908201527f455243313135353a204552433131353552656365697665722072656a656374656040820152676420746f6b656e7360c01b606082015260800190565b6001600160a01b03868116825285166020820152604081018490526060810183905260a060808201819052600090611f2c908301846115fa565b979650505050505050565b818103818111156103bd576103bd611b34565b634e487b7160e01b600052603160045260246000fdfea2646970667358221220ea0551c1c508027b32df2c90245f56f0177fe3c65128d9e8132b4d968726e56464736f6c63430008110033",
  "linkReferences": {},
  "deployedLinkReferences": {}
}