{
  "_format": "hh-sol-artifact-1",
  "contractName": "ProvenanceExtension",
  "sourceName": "contracts/mojito/ProvenanceExtension.sol",
  "abi": [
    {
      "inputs": [
        {
          "internalType": "address",
          "name": "creator",
          "type": "address"
        },
        {
          "internalType": "uint256",
          "name": "maxCap",
          "type": "uint256"
        }
      ],
      "stateMutability": "nonpayable",
      "type": "constructor"
    },
    {
      "anonymous": false,
      "inputs": [
        {
          "indexed": true,
          "internalType": "address",
          "name": "account",
          "type": "address"
        },
        {
          "indexed": true,
          "internalType": "address",
          "name": "sender",
          "type": "address"
        }
      ],
      "name": "AdminApproved",
      "type": "event"
    },
    {
      "anonymous": false,
      "inputs": [
        {
          "indexed": true,
          "internalType": "address",
          "name": "account",
          "type": "address"
        },
        {
          "indexed": true,
          "internalType": "address",
          "name": "sender",
          "type": "address"
        }
      ],
      "name": "AdminRevoked",
      "type": "event"
    },
    {
      "anonymous": false,
      "inputs": [
        {
          "indexed": true,
          "internalType": "address",
          "name": "previousOwner",
          "type": "address"
        },
        {
          "indexed": true,
          "internalType": "address",
          "name": "newOwner",
          "type": "address"
        }
      ],
      "name": "OwnershipTransferred",
      "type": "event"
    },
    {
      "inputs": [],
      "name": "CREATOR_CONTRACT",
      "outputs": [
        {
          "internalType": "address",
          "name": "",
          "type": "address"
        }
      ],
      "stateMutability": "view",
      "type": "function"
    },
    {
      "inputs": [],
      "name": "MAX_CAP",
      "outputs": [
        {
          "internalType": "uint256",
          "name": "",
          "type": "uint256"
        }
      ],
      "stateMutability": "view",
      "type": "function"
    },
    {
      "inputs": [],
      "name": "PROVENANCE_HASH",
      "outputs": [
        {
          "internalType": "string",
          "name": "",
          "type": "string"
        }
      ],
      "stateMutability": "view",
      "type": "function"
    },
    {
      "inputs": [],
      "name": "TOTAL_TOKENS",
      "outputs": [
        {
          "internalType": "uint256",
          "name": "",
          "type": "uint256"
        }
      ],
      "stateMutability": "view",
      "type": "function"
    },
    {
      "inputs": [
        {
          "internalType": "address",
          "name": "admin",
          "type": "address"
        }
      ],
      "name": "approveAdmin",
      "outputs": [],
      "stateMutability": "nonpayable",
      "type": "function"
    },
    {
      "inputs": [],
      "name": "getAdmins",
      "outputs": [
        {
          "internalType": "address[]",
          "name": "admins",
          "type": "address[]"
        }
      ],
      "stateMutability": "view",
      "type": "function"
    },
    {
      "inputs": [
        {
          "components": [
            {
              "internalType": "bytes32",
              "name": "id",
              "type": "bytes32"
            },
            {
              "internalType": "uint16",
              "name": "numberOfTokens",
              "type": "uint16"
            },
            {
              "internalType": "address",
              "name": "redeemer",
              "type": "address"
            },
            {
              "internalType": "bytes",
              "name": "signature",
              "type": "bytes"
            }
          ],
          "internalType": "struct ProvenanceExtension.Voucher",
          "name": "voucher",
          "type": "tuple"
        }
      ],
      "name": "getVoucherDigest",
      "outputs": [
        {
          "internalType": "bytes32",
          "name": "",
          "type": "bytes32"
        }
      ],
      "stateMutability": "view",
      "type": "function"
    },
    {
      "inputs": [
        {
          "components": [
            {
              "internalType": "bytes32",
              "name": "id",
              "type": "bytes32"
            },
            {
              "internalType": "uint16",
              "name": "numberOfTokens",
              "type": "uint16"
            },
            {
              "internalType": "address",
              "name": "redeemer",
              "type": "address"
            },
            {
              "internalType": "bytes",
              "name": "signature",
              "type": "bytes"
            }
          ],
          "internalType": "struct ProvenanceExtension.Voucher",
          "name": "voucher",
          "type": "tuple"
        }
      ],
      "name": "getVoucherSigner",
      "outputs": [
        {
          "internalType": "address",
          "name": "",
          "type": "address"
        }
      ],
      "stateMutability": "view",
      "type": "function"
    },
    {
      "inputs": [
        {
          "internalType": "address",
          "name": "admin",
          "type": "address"
        }
      ],
      "name": "isAdmin",
      "outputs": [
        {
          "internalType": "bool",
          "name": "",
          "type": "bool"
        }
      ],
      "stateMutability": "view",
      "type": "function"
    },
    {
      "inputs": [
        {
          "internalType": "bytes32",
          "name": "",
          "type": "bytes32"
        }
      ],
      "name": "isRedeemed",
      "outputs": [
        {
          "internalType": "bool",
          "name": "",
          "type": "bool"
        }
      ],
      "stateMutability": "view",
      "type": "function"
    },
    {
      "inputs": [
        {
          "internalType": "address",
          "name": "mintTo",
          "type": "address"
        },
        {
          "internalType": "uint16",
          "name": "numberOfTokens",
          "type": "uint16"
        }
      ],
      "name": "mintBatch",
      "outputs": [
        {
          "internalType": "uint256[]",
          "name": "",
          "type": "uint256[]"
        }
      ],
      "stateMutability": "nonpayable",
      "type": "function"
    },
    {
      "inputs": [],
      "name": "owner",
      "outputs": [
        {
          "internalType": "address",
          "name": "",
          "type": "address"
        }
      ],
      "stateMutability": "view",
      "type": "function"
    },
    {
      "inputs": [],
      "name": "pauseContract",
      "outputs": [],
      "stateMutability": "nonpayable",
      "type": "function"
    },
    {
      "inputs": [],
      "name": "paused",
      "outputs": [
        {
          "internalType": "bool",
          "name": "",
          "type": "bool"
        }
      ],
      "stateMutability": "view",
      "type": "function"
    },
    {
      "inputs": [
        {
          "components": [
            {
              "internalType": "bytes32",
              "name": "id",
              "type": "bytes32"
            },
            {
              "internalType": "uint16",
              "name": "numberOfTokens",
              "type": "uint16"
            },
            {
              "internalType": "address",
              "name": "redeemer",
              "type": "address"
            },
            {
              "internalType": "bytes",
              "name": "signature",
              "type": "bytes"
            }
          ],
          "internalType": "struct ProvenanceExtension.Voucher",
          "name": "voucher",
          "type": "tuple"
        }
      ],
      "name": "redeem",
      "outputs": [
        {
          "internalType": "uint256[]",
          "name": "",
          "type": "uint256[]"
        }
      ],
      "stateMutability": "nonpayable",
      "type": "function"
    },
    {
      "inputs": [],
      "name": "renounceOwnership",
      "outputs": [],
      "stateMutability": "nonpayable",
      "type": "function"
    },
    {
      "inputs": [
        {
          "internalType": "address",
          "name": "admin",
          "type": "address"
        }
      ],
      "name": "revokeAdmin",
      "outputs": [],
      "stateMutability": "nonpayable",
      "type": "function"
    },
    {
      "inputs": [
        {
          "internalType": "string",
          "name": "baseURI_",
          "type": "string"
        }
      ],
      "name": "setBaseURI",
      "outputs": [],
      "stateMutability": "nonpayable",
      "type": "function"
    },
    {
      "inputs": [
        {
          "internalType": "string",
          "name": "provenanceHash",
          "type": "string"
        }
      ],
      "name": "setProvenanceHash",
      "outputs": [],
      "stateMutability": "nonpayable",
      "type": "function"
    },
    {
      "inputs": [
        {
          "internalType": "bytes4",
          "name": "interfaceId",
          "type": "bytes4"
        }
      ],
      "name": "supportsInterface",
      "outputs": [
        {
          "internalType": "bool",
          "name": "",
          "type": "bool"
        }
      ],
      "stateMutability": "view",
      "type": "function"
    },
    {
      "inputs": [
        {
          "internalType": "address",
          "name": "newOwner",
          "type": "address"
        }
      ],
      "name": "transferOwnership",
      "outputs": [],
      "stateMutability": "nonpayable",
      "type": "function"
    },
    {
      "inputs": [],
      "name": "unpauseContract",
      "outputs": [],
      "stateMutability": "nonpayable",
      "type": "function"
    }
  ],
  "bytecode": "0x60a0604052600060809081526004906200001a90826200016f565b50600060058190556006556008805460ff191690553480156200003c57600080fd5b5060405162001d4038038062001d408339810160408190526200005f916200023b565b600080546001600160a01b031916339081178255604051909182917f8be0079c531659141344cd1fd0a4f28419497f9722a3daafe3b4186f6b6457e0908290a350600380546001600160a01b0319166001600160a01b03939093169290921790915560055562000277565b634e487b7160e01b600052604160045260246000fd5b600181811c90821680620000f557607f821691505b6020821081036200011657634e487b7160e01b600052602260045260246000fd5b50919050565b601f8211156200016a57600081815260208120601f850160051c81016020861015620001455750805b601f850160051c820191505b81811015620001665782815560010162000151565b5050505b505050565b81516001600160401b038111156200018b576200018b620000ca565b620001a3816200019c8454620000e0565b846200011c565b602080601f831160018114620001db5760008415620001c25750858301515b600019600386901b1c1916600185901b17855562000166565b600085815260208120601f198616915b828110156200020c57888601518255948401946001909101908401620001eb565b50858210156200022b5787850151600019600388901b60f8161c191681555b5050505050600190811b01905550565b600080604083850312156200024f57600080fd5b82516001600160a01b03811681146200026757600080fd5b6020939093015192949293505050565b611ab980620002876000396000f3fe608060405234801561001057600080fd5b50600436106101425760003560e01c806365f32bae116100b8578063b1f82f601161007c578063b1f82f60146102ab578063b33712c5146102be578063d669e1d4146102c6578063ec88882c146102cf578063f2fde38b146102e2578063ff1b6556146102f557600080fd5b806365f32bae1461023c5780636d73e6691461025c578063715018a61461026f5780638da5cb5b14610277578063ad61c65d1461028857600080fd5b806331ae450b1161010a57806331ae450b146101c1578063439766ce146101d6578063497159f2146101de57806352eb29071461020957806355f804b31461021c5780635c975abb1461022f57600080fd5b806301ffc9a7146101475780630b7abf771461016f578063109695231461018657806324d7806c1461019b5780632d345670146101ae575b600080fd5b61015a6101553660046113dd565b61030a565b60405190151581526020015b60405180910390f35b61017860065481565b604051908152602001610166565b61019961019436600461144e565b610341565b005b61015a6101a93660046114ff565b6103a4565b6101996101bc3660046114ff565b6103dd565b6101c961045b565b604051610166919061151a565b61019961050a565b6003546101f1906001600160a01b031681565b6040516001600160a01b039091168152602001610166565b6101f1610217366004611567565b610586565b61019961022a36600461144e565b6105e8565b60085461015a9060ff1681565b61024f61024a366004611567565b610697565b60405161016691906115a2565b61019961026a3660046114ff565b61099c565b610199610a16565b6000546001600160a01b03166101f1565b61015a6102963660046115da565b60076020526000908152604090205460ff1681565b61024f6102b9366004611605565b610a8a565b610199610c16565b61017860055481565b6101786102dd366004611567565b610cb6565b6101996102f03660046114ff565b610d27565b6102fd610e11565b6040516101669190611638565b60006001600160e01b03198216632a9f3abf60e11b148061033b57506301ffc9a760e01b6001600160e01b03198316145b92915050565b336103546000546001600160a01b031690565b6001600160a01b0316148061036f575061036f600133610e9f565b6103945760405162461bcd60e51b815260040161038b90611686565b60405180910390fd5b60046103a08282611753565b5050565b6000816001600160a01b03166103c26000546001600160a01b031690565b6001600160a01b0316148061033b575061033b600183610e9f565b6000546001600160a01b031633146104075760405162461bcd60e51b815260040161038b90611813565b610412600182610e9f565b156104585760405133906001600160a01b038316907f7c0c3c84c67c85fcac635147348bfe374c24a1a93d0366d1cfe9d8853cbf89d590600090a36103a0600182610ec1565b50565b60606104676001610ed6565b67ffffffffffffffff81111561047f5761047f611407565b6040519080825280602002602001820160405280156104a8578160200160208202803683370190505b50905060005b6104b86001610ed6565b811015610506576104ca600182610ee0565b8282815181106104dc576104dc611848565b6001600160a01b0390921660209283029190910190910152806104fe81611874565b9150506104ae565b5090565b3361051d6000546001600160a01b031690565b6001600160a01b031614806105385750610538600133610e9f565b6105545760405162461bcd60e51b815260040161038b90611686565b60085460ff16156105775760405162461bcd60e51b815260040161038b9061188d565b6008805460ff19166001179055565b60008061059283610cb6565b90506105e16105a460608501856118ba565b8080601f0160208091040260200160405190810160405280939291908181526020018383808284376000920191909152508593925050610eec9050565b9392505050565b336105fb6000546001600160a01b031690565b6001600160a01b031614806106165750610616600133610e9f565b6106325760405162461bcd60e51b815260040161038b90611686565b6003546040516307cc269760e31b81526001600160a01b0390911690633e6134b890610662908490600401611638565b600060405180830381600087803b15801561067c57600080fd5b505af1158015610690573d6000803e3d6000fd5b5050505050565b60085460609060ff16156106bd5760405162461bcd60e51b815260040161038b9061188d565b60006106cf6040840160208501611901565b61ffff16116107205760405162461bcd60e51b815260206004820152601e60248201527f4e65656420746f206d696e74206174206c65617374203120746f6b656e2e0000604482015260640161038b565b6005546107436107366040850160208601611901565b6006549061ffff16610f10565b11156107615760405162461bcd60e51b815260040161038b9061191c565b813560009081526007602052604090205460ff16156107cc5760405162461bcd60e51b815260206004820152602160248201527f566f75636865722068617320616c7265616479206265656e2072656465656d656044820152601960fa1b606482015260840161038b565b60006107d783610586565b604051630935e01b60e21b81526001600160a01b038216600482015290915030906324d7806c90602401602060405180830381865afa15801561081e573d6000803e3d6000fd5b505050506040513d601f19601f820116820180604052508101906108429190611969565b6108a25760405162461bcd60e51b815260206004820152602b60248201527f5369676e617475726520696e76616c6964206f72207369676e6572206973206e60448201526a37ba1030b71030b236b4b760a91b606482015260840161038b565b8235600090815260076020526040808220805460ff191660011790556003546001600160a01b03169063e00aab4b906108e190606088019088016114ff565b6108f16040880160208901611901565b6040516001600160e01b031960e085901b1681526001600160a01b03909216600483015261ffff1660248201526044016000604051808303816000875af1158015610940573d6000803e3d6000fd5b505050506040513d6000823e601f3d908101601f19168201604052610968919081019061198b565b905061097a6040850160208601611901565b61ffff166006600082825461098f9190611a31565b9091555090949350505050565b6000546001600160a01b031633146109c65760405162461bcd60e51b815260040161038b90611813565b6109d1600182610e9f565b6104585760405133906001600160a01b038316907f7e1a1a08d52e4ba0e21554733d66165fd5151f99460116223d9e3a608eec5cb190600090a36103a0600182610f1c565b6000546001600160a01b03163314610a405760405162461bcd60e51b815260040161038b90611813565b600080546040516001600160a01b03909116907f8be0079c531659141344cd1fd0a4f28419497f9722a3daafe3b4186f6b6457e0908390a3600080546001600160a01b0319169055565b606033610a9f6000546001600160a01b031690565b6001600160a01b03161480610aba5750610aba600133610e9f565b610ad65760405162461bcd60e51b815260040161038b90611686565b60085460ff1615610af95760405162461bcd60e51b815260040161038b9061188d565b60008261ffff1611610b4d5760405162461bcd60e51b815260206004820152601e60248201527f4e65656420746f206d696e74206174206c65617374203120746f6b656e2e0000604482015260640161038b565b600554600654610b619061ffff8516610f10565b1115610b7f5760405162461bcd60e51b815260040161038b9061191c565b60035460405163e00aab4b60e01b81526001600160a01b03858116600483015261ffff85166024830152600092169063e00aab4b906044016000604051808303816000875af1158015610bd6573d6000803e3d6000fd5b505050506040513d6000823e601f3d908101601f19168201604052610bfe919081019061198b565b90508261ffff166006600082825461098f9190611a31565b33610c296000546001600160a01b031690565b6001600160a01b03161480610c445750610c44600133610e9f565b610c605760405162461bcd60e51b815260040161038b90611686565b60085460ff16610caa5760405162461bcd60e51b815260206004820152601560248201527421b7b73a3930b1ba1034b9903ab73830bab9b2b21760591b604482015260640161038b565b6008805460ff19169055565b60008135610cca6040840160208501611901565b610cda60608501604086016114ff565b60408051602081019490945261ffff909216918301919091526001600160a01b0316606082015230608082015260a001604051602081830303815290604052805190602001209050919050565b6000546001600160a01b03163314610d515760405162461bcd60e51b815260040161038b90611813565b6001600160a01b038116610db65760405162461bcd60e51b815260206004820152602660248201527f4f776e61626c653a206e6577206f776e657220697320746865207a65726f206160448201526564647265737360d01b606482015260840161038b565b600080546040516001600160a01b03808516939216917f8be0079c531659141344cd1fd0a4f28419497f9722a3daafe3b4186f6b6457e091a3600080546001600160a01b0319166001600160a01b0392909216919091179055565b60048054610e1e906116ca565b80601f0160208091040260200160405190810160405280929190818152602001828054610e4a906116ca565b8015610e975780601f10610e6c57610100808354040283529160200191610e97565b820191906000526020600020905b815481529060010190602001808311610e7a57829003601f168201915b505050505081565b6001600160a01b038116600090815260018301602052604081205415156105e1565b60006105e1836001600160a01b038416610f31565b600061033b825490565b60006105e18383611024565b6000806000610efb858561104e565b91509150610f08816110bc565b509392505050565b60006105e18284611a31565b60006105e1836001600160a01b038416611272565b6000818152600183016020526040812054801561101a576000610f55600183611a44565b8554909150600090610f6990600190611a44565b9050818114610fce576000866000018281548110610f8957610f89611848565b9060005260206000200154905080876000018481548110610fac57610fac611848565b6000918252602080832090910192909255918252600188019052604090208390555b8554869080610fdf57610fdf611a57565b60019003818190600052602060002001600090559055856001016000868152602001908152602001600020600090556001935050505061033b565b600091505061033b565b600082600001828154811061103b5761103b611848565b9060005260206000200154905092915050565b60008082516041036110845760208301516040840151606085015160001a611078878285856112c1565b945094505050506110b5565b82516040036110ad57602083015160408401516110a28683836113ae565b9350935050506110b5565b506000905060025b9250929050565b60008160048111156110d0576110d0611a6d565b036110d85750565b60018160048111156110ec576110ec611a6d565b036111395760405162461bcd60e51b815260206004820152601860248201527f45434453413a20696e76616c6964207369676e61747572650000000000000000604482015260640161038b565b600281600481111561114d5761114d611a6d565b0361119a5760405162461bcd60e51b815260206004820152601f60248201527f45434453413a20696e76616c6964207369676e6174757265206c656e67746800604482015260640161038b565b60038160048111156111ae576111ae611a6d565b036112065760405162461bcd60e51b815260206004820152602260248201527f45434453413a20696e76616c6964207369676e6174757265202773272076616c604482015261756560f01b606482015260840161038b565b600481600481111561121a5761121a611a6d565b036104585760405162461bcd60e51b815260206004820152602260248201527f45434453413a20696e76616c6964207369676e6174757265202776272076616c604482015261756560f01b606482015260840161038b565b60008181526001830160205260408120546112b95750815460018181018455600084815260208082209093018490558454848252828601909352604090209190915561033b565b50600061033b565b6000807f7fffffffffffffffffffffffffffffff5d576e7357a4501ddfe92f46681b20a08311156112f857506000905060036113a5565b8460ff16601b1415801561131057508460ff16601c14155b1561132157506000905060046113a5565b6040805160008082526020820180845289905260ff881692820192909252606081018690526080810185905260019060a0016020604051602081039080840390855afa158015611375573d6000803e3d6000fd5b5050604051601f1901519150506001600160a01b03811661139e576000600192509250506113a5565b9150600090505b94509492505050565b6000806001600160ff1b03831660ff84901c601b016113cf878288856112c1565b935093505050935093915050565b6000602082840312156113ef57600080fd5b81356001600160e01b0319811681146105e157600080fd5b634e487b7160e01b600052604160045260246000fd5b604051601f8201601f1916810167ffffffffffffffff8111828210171561144657611446611407565b604052919050565b6000602080838503121561146157600080fd5b823567ffffffffffffffff8082111561147957600080fd5b818501915085601f83011261148d57600080fd5b81358181111561149f5761149f611407565b6114b1601f8201601f1916850161141d565b915080825286848285010111156114c757600080fd5b8084840185840137600090820190930192909252509392505050565b80356001600160a01b03811681146114fa57600080fd5b919050565b60006020828403121561151157600080fd5b6105e1826114e3565b6020808252825182820181905260009190848201906040850190845b8181101561155b5783516001600160a01b031683529284019291840191600101611536565b50909695505050505050565b60006020828403121561157957600080fd5b813567ffffffffffffffff81111561159057600080fd5b8201608081850312156105e157600080fd5b6020808252825182820181905260009190848201906040850190845b8181101561155b578351835292840192918401916001016115be565b6000602082840312156115ec57600080fd5b5035919050565b803561ffff811681146114fa57600080fd5b6000806040838503121561161857600080fd5b611621836114e3565b915061162f602084016115f3565b90509250929050565b600060208083528351808285015260005b8181101561166557858101830151858201604001528201611649565b506000604082860101526040601f19601f8301168501019250505092915050565b60208082526024908201527f41646d696e436f6e74726f6c3a204d757374206265206f776e6572206f7220616040820152633236b4b760e11b606082015260800190565b600181811c908216806116de57607f821691505b6020821081036116fe57634e487b7160e01b600052602260045260246000fd5b50919050565b601f82111561174e57600081815260208120601f850160051c8101602086101561172b5750805b601f850160051c820191505b8181101561174a57828155600101611737565b5050505b505050565b815167ffffffffffffffff81111561176d5761176d611407565b6117818161177b84546116ca565b84611704565b602080601f8311600181146117b6576000841561179e5750858301515b600019600386901b1c1916600185901b17855561174a565b600085815260208120601f198616915b828110156117e5578886015182559484019460019091019084016117c6565b50858210156118035787850151600019600388901b60f8161c191681555b5050505050600190811b01905550565b6020808252818101527f4f776e61626c653a2063616c6c6572206973206e6f7420746865206f776e6572604082015260600190565b634e487b7160e01b600052603260045260246000fd5b634e487b7160e01b600052601160045260246000fd5b6000600182016118865761188661185e565b5060010190565b60208082526013908201527221b7b73a3930b1ba1034b9903830bab9b2b21760691b604082015260600190565b6000808335601e198436030181126118d157600080fd5b83018035915067ffffffffffffffff8211156118ec57600080fd5b6020019150368190038213156110b557600080fd5b60006020828403121561191357600080fd5b6105e1826115f3565b6020808252602d908201527f43616e6e6f7420657863656564206d617820737570706c79206f66206176616960408201526c3630b13632903a37b5b2b7399760991b606082015260800190565b60006020828403121561197b57600080fd5b815180151581146105e157600080fd5b6000602080838503121561199e57600080fd5b825167ffffffffffffffff808211156119b657600080fd5b818501915085601f8301126119ca57600080fd5b8151818111156119dc576119dc611407565b8060051b91506119ed84830161141d565b8181529183018401918481019088841115611a0757600080fd5b938501935b83851015611a2557845182529385019390850190611a0c565b98975050505050505050565b8082018082111561033b5761033b61185e565b8181038181111561033b5761033b61185e565b634e487b7160e01b600052603160045260246000fd5b634e487b7160e01b600052602160045260246000fdfea264697066735822122036ac2952914806c13fae92bb53ec74dec4e785b0e5a1237574f20f7a950cb95364736f6c63430008110033",
  "linkReferences": {},
  "deployedLinkReferences": {}
}