{
  "_format": "hh-sol-artifact-1",
  "contractName": "RoyaltyRegistry",
  "sourceName": "contracts/manifold/royalty-registry/RoyaltyRegistry.sol",
  "abi": [
    {
      "anonymous": false,
      "inputs": [
        {
          "indexed": true,
          "internalType": "address",
          "name": "previousOwner",
          "type": "address"
        },
        {
          "indexed": true,
          "internalType": "address",
          "name": "newOwner",
          "type": "address"
        }
      ],
      "name": "OwnershipTransferred",
      "type": "event"
    },
    {
      "anonymous": false,
      "inputs": [
        {
          "indexed": false,
          "internalType": "address",
          "name": "owner",
          "type": "address"
        },
        {
          "indexed": false,
          "internalType": "address",
          "name": "tokenAddress",
          "type": "address"
        },
        {
          "indexed": false,
          "internalType": "address",
          "name": "royaltyAddress",
          "type": "address"
        }
      ],
      "name": "RoyaltyOverride",
      "type": "event"
    },
    {
      "inputs": [
        {
          "internalType": "address",
          "name": "tokenAddress",
          "type": "address"
        }
      ],
      "name": "getRoyaltyLookupAddress",
      "outputs": [
        {
          "internalType": "address",
          "name": "",
          "type": "address"
        }
      ],
      "stateMutability": "view",
      "type": "function"
    },
    {
      "inputs": [],
      "name": "initialize",
      "outputs": [],
      "stateMutability": "nonpayable",
      "type": "function"
    },
    {
      "inputs": [
        {
          "internalType": "address",
          "name": "tokenAddress",
          "type": "address"
        }
      ],
      "name": "overrideAllowed",
      "outputs": [
        {
          "internalType": "bool",
          "name": "",
          "type": "bool"
        }
      ],
      "stateMutability": "view",
      "type": "function"
    },
    {
      "inputs": [],
      "name": "owner",
      "outputs": [
        {
          "internalType": "address",
          "name": "",
          "type": "address"
        }
      ],
      "stateMutability": "view",
      "type": "function"
    },
    {
      "inputs": [],
      "name": "renounceOwnership",
      "outputs": [],
      "stateMutability": "nonpayable",
      "type": "function"
    },
    {
      "inputs": [
        {
          "internalType": "address",
          "name": "tokenAddress",
          "type": "address"
        },
        {
          "internalType": "address",
          "name": "royaltyLookupAddress",
          "type": "address"
        }
      ],
      "name": "setRoyaltyLookupAddress",
      "outputs": [],
      "stateMutability": "nonpayable",
      "type": "function"
    },
    {
      "inputs": [
        {
          "internalType": "bytes4",
          "name": "interfaceId",
          "type": "bytes4"
        }
      ],
      "name": "supportsInterface",
      "outputs": [
        {
          "internalType": "bool",
          "name": "",
          "type": "bool"
        }
      ],
      "stateMutability": "view",
      "type": "function"
    },
    {
      "inputs": [
        {
          "internalType": "address",
          "name": "newOwner",
          "type": "address"
        }
      ],
      "name": "transferOwnership",
      "outputs": [],
      "stateMutability": "nonpayable",
      "type": "function"
    }
  ],
  "bytecode": "0x608060405234801561001057600080fd5b50610b7b806100206000396000f3fe608060405234801561001057600080fd5b50600436106100885760003560e01c80638129fc1c1161005b5780638129fc1c146100e55780638da5cb5b146100ed578063de5488af14610112578063f2fde38b1461012557600080fd5b806301ffc9a71461008d57806326bd8982146100b557806370e06281146100ca578063715018a6146100dd575b600080fd5b6100a061009b3660046109f4565b610138565b60405190151581526020015b60405180910390f35b6100c86100c3366004610a33565b61016f565b005b6100a06100d8366004610a6c565b6102ab565b6100c8610631565b6100c8610697565b6033546001600160a01b03165b6040516001600160a01b0390911681526020016100ac565b6100fa610120366004610a6c565b61070b565b6100c8610133366004610a6c565b61073b565b60006001600160e01b0319821663220258eb60e21b148061016957506301ffc9a760e01b6001600160e01b03198316145b92915050565b6001600160a01b0382163b151580156101a257506001600160a01b0381163b1515806101a257506001600160a01b038116155b6101e35760405162461bcd60e51b815260206004820152600d60248201526c125b9d985b1a59081a5b9c1d5d609a1b60448201526064015b60405180910390fd5b6101ec826102ab565b61022c5760405162461bcd60e51b815260206004820152601160248201527014195c9b5a5cdcda5bdb8819195b9a5959607a1b60448201526064016101da565b6001600160a01b03828116600090815260656020526040902080546001600160a01b0319169183169190911790557f22fb05840ad0d4b2be640c56e11065f26b799d2918d8f81190416f62b154b9c633604080516001600160a01b03928316815282861660208201529184169082015260600160405180910390a15050565b603354600090336001600160a01b03909116036102ca57506001919050565b6102db82632a9f3abf60e11b610803565b801561035a57506001600160a01b0382166324d7806c336040516001600160e01b031960e084901b1681526001600160a01b039091166004820152602401602060405180830381865afa158015610336573d6000803e3d6000fd5b505050506040513d601f19601f8201168201806040525081019061035a9190610a89565b1561036757506001919050565b816001600160a01b0316638da5cb5b6040518163ffffffff1660e01b8152600401602060405180830381865afa9250505080156103c1575060408051601f3d908101601f191682019092526103be91810190610aab565b60015b156103e157336001600160a01b038216036103df5750600192915050565b505b6001600160a01b0382166391d148546000336040516001600160e01b031960e085901b16815260048101929092526001600160a01b03166024820152604401602060405180830381865afa925050508015610459575060408051601f3d908101601f1916820190925261045691810190610a89565b60015b1561046f57801561046d5750600192915050565b505b816001600160a01b031663be772d4c6040518163ffffffff1660e01b8152600401602060405180830381865afa9250505080156104c9575060408051601f3d908101601f191682019092526104c691810190610aab565b60015b1561054c576001600160a01b03811663e37ce6fa336040516001600160e01b031960e084901b1681526001600160a01b039091166004820152602401602060405180830381865afa92505050801561053e575060408051601f3d908101601f1916820190925261053b91810190610a89565b60015b1561054a579392505050565b505b816001600160a01b031663f7a2da236040518163ffffffff1660e01b8152600401602060405180830381865afa9250505080156105a6575060408051601f3d908101601f191682019092526105a391810190610aab565b60015b15610629576001600160a01b0381166324d7806c336040516001600160e01b031960e084901b1681526001600160a01b039091166004820152602401602060405180830381865afa92505050801561061b575060408051601f3d908101601f1916820190925261061891810190610a89565b60015b15610627579392505050565b505b506000919050565b6033546001600160a01b0316331461068b5760405162461bcd60e51b815260206004820181905260248201527f4f776e61626c653a2063616c6c6572206973206e6f7420746865206f776e657260448201526064016101da565b6106956000610826565b565b600054610100900460ff16806106b0575060005460ff16155b6106cc5760405162461bcd60e51b81526004016101da90610ac8565b600054610100900460ff161580156106ee576000805461ffff19166101011790555b6106f6610878565b8015610708576000805461ff00191690555b50565b6001600160a01b0380821660009081526065602052604081205490911680156107345792915050565b5090919050565b6033546001600160a01b031633146107955760405162461bcd60e51b815260206004820181905260248201527f4f776e61626c653a2063616c6c6572206973206e6f7420746865206f776e657260448201526064016101da565b6001600160a01b0381166107fa5760405162461bcd60e51b815260206004820152602660248201527f4f776e61626c653a206e6577206f776e657220697320746865207a65726f206160448201526564647265737360d01b60648201526084016101da565b61070881610826565b600061080e836108d8565b801561081f575061081f838361090b565b9392505050565b603380546001600160a01b038381166001600160a01b0319831681179093556040519116919082907f8be0079c531659141344cd1fd0a4f28419497f9722a3daafe3b4186f6b6457e090600090a35050565b600054610100900460ff1680610891575060005460ff16155b6108ad5760405162461bcd60e51b81526004016101da90610ac8565b600054610100900460ff161580156108cf576000805461ffff19166101011790555b6106f633610826565b60006108eb826301ffc9a760e01b61090b565b80156101695750610904826001600160e01b031961090b565b1592915050565b604080516001600160e01b0319831660248083019190915282518083039091018152604490910182526020810180516001600160e01b03166301ffc9a760e01b179052905160009190829081906001600160a01b0387169061753090610972908690610b16565b6000604051808303818686fa925050503d80600081146109ae576040519150601f19603f3d011682016040523d82523d6000602084013e6109b3565b606091505b50915091506020815110156109ce5760009350505050610169565b8180156109ea5750808060200190518101906109ea9190610a89565b9695505050505050565b600060208284031215610a0657600080fd5b81356001600160e01b03198116811461081f57600080fd5b6001600160a01b038116811461070857600080fd5b60008060408385031215610a4657600080fd5b8235610a5181610a1e565b91506020830135610a6181610a1e565b809150509250929050565b600060208284031215610a7e57600080fd5b813561081f81610a1e565b600060208284031215610a9b57600080fd5b8151801515811461081f57600080fd5b600060208284031215610abd57600080fd5b815161081f81610a1e565b6020808252602e908201527f496e697469616c697a61626c653a20636f6e747261637420697320616c72656160408201526d191e481a5b9a5d1a585b1a5e995960921b606082015260800190565b6000825160005b81811015610b375760208186018101518583015201610b1d565b50600092019182525091905056fea2646970667358221220fa00cb3c9d0d41329ba55302f985735a08acb5a4dbb17a479544cd318856a87464736f6c63430008110033",
  "linkReferences": {},
  "deployedLinkReferences": {}
}