{
	"contracts/mojito/sothebys/verify.sol": {
		"verify": {
			"abi": [
				{
					"inputs": [
						{
							"internalType": "bytes32",
							"name": "_root",
							"type": "bytes32"
						}
					],
					"stateMutability": "nonpayable",
					"type": "constructor"
				},
				{
					"inputs": [],
					"name": "answer",
					"outputs": [
						{
							"internalType": "bytes32",
							"name": "",
							"type": "bytes32"
						}
					],
					"stateMutability": "view",
					"type": "function"
				},
				{
					"inputs": [
						{
							"internalType": "bytes32[]",
							"name": "proof",
							"type": "bytes32[]"
						},
						{
							"internalType": "address",
							"name": "addr",
							"type": "address"
						}
					],
					"name": "isApproved",
					"outputs": [
						{
							"internalType": "bytes32",
							"name": "leaf",
							"type": "bytes32"
						},
						{
							"internalType": "bool",
							"name": "approval",
							"type": "bool"
						}
					],
					"stateMutability": "view",
					"type": "function"
				},
				{
					"inputs": [],
					"name": "root",
					"outputs": [
						{
							"internalType": "bytes32",
							"name": "",
							"type": "bytes32"
						}
					],
					"stateMutability": "view",
					"type": "function"
				}
			],
			"devdoc": {
				"kind": "dev",
				"methods": {},
				"version": 1
			},
			"evm": {
				"assembly": "    /* \"contracts/mojito/sothebys/verify.sol\":145:563  contract verify {... */\n  mstore(0x40, 0x80)\n    /* \"contracts/mojito/sothebys/verify.sol\":219:304  constructor(bytes32 _root) {... */\n  callvalue\n  dup1\n  iszero\n  tag_1\n  jumpi\n  0x00\n  dup1\n  revert\ntag_1:\n  pop\n  mload(0x40)\n  sub(codesize, bytecodeSize)\n  dup1\n  bytecodeSize\n  dup4\n  codecopy\n  dup2\n  add\n  0x40\n  dup2\n  swap1\n  mstore\n  tag_2\n  swap2\n  tag_3\n  jump\t// in\ntag_2:\n    /* \"contracts/mojito/sothebys/verify.sol\":256:260  root */\n  0x00\n    /* \"contracts/mojito/sothebys/verify.sol\":256:268  root = _root */\n  swap1\n  dup2\n  sstore\n    /* \"contracts/mojito/sothebys/verify.sol\":278:284  answer */\n  0x01\n    /* \"contracts/mojito/sothebys/verify.sol\":278:297  answer = bytes32(0) */\n  sstore\n    /* \"contracts/mojito/sothebys/verify.sol\":145:563  contract verify {... */\n  jump(tag_7)\n    /* \"#utility.yul\":14:198   */\ntag_3:\n    /* \"#utility.yul\":84:90   */\n  0x00\n    /* \"#utility.yul\":137:139   */\n  0x20\n    /* \"#utility.yul\":125:134   */\n  dup3\n    /* \"#utility.yul\":116:123   */\n  dup5\n    /* \"#utility.yul\":112:135   */\n  sub\n    /* \"#utility.yul\":108:140   */\n  slt\n    /* \"#utility.yul\":105:157   */\n  iszero\n  tag_9\n  jumpi\n    /* \"#utility.yul\":153:154   */\n  0x00\n    /* \"#utility.yul\":150:151   */\n  dup1\n    /* \"#utility.yul\":143:155   */\n  revert\n    /* \"#utility.yul\":105:157   */\ntag_9:\n  pop\n    /* \"#utility.yul\":176:192   */\n  mload\n  swap2\n    /* \"#utility.yul\":14:198   */\n  swap1\n  pop\n  jump\t// out\ntag_7:\n    /* \"contracts/mojito/sothebys/verify.sol\":145:563  contract verify {... */\n  dataSize(sub_0)\n  dup1\n  dataOffset(sub_0)\n  0x00\n  codecopy\n  0x00\n  return\nstop\n\nsub_0: assembly {\n        /* \"contracts/mojito/sothebys/verify.sol\":145:563  contract verify {... */\n      mstore(0x40, 0x80)\n      callvalue\n      dup1\n      iszero\n      tag_1\n      jumpi\n      0x00\n      dup1\n      revert\n    tag_1:\n      pop\n      jumpi(tag_2, lt(calldatasize, 0x04))\n      shr(0xe0, calldataload(0x00))\n      dup1\n      0x85bb7d69\n      eq\n      tag_3\n      jumpi\n      dup1\n      0xa364a3ec\n      eq\n      tag_4\n      jumpi\n      dup1\n      0xebf0c717\n      eq\n      tag_5\n      jumpi\n    tag_2:\n      0x00\n      dup1\n      revert\n        /* \"contracts/mojito/sothebys/verify.sol\":192:213  bytes32 public answer */\n    tag_3:\n      tag_6\n      sload(0x01)\n      dup2\n      jump\n    tag_6:\n      mload(0x40)\n        /* \"#utility.yul\":160:185   */\n      swap1\n      dup2\n      mstore\n        /* \"#utility.yul\":148:150   */\n      0x20\n        /* \"#utility.yul\":133:151   */\n      add\n        /* \"contracts/mojito/sothebys/verify.sol\":192:213  bytes32 public answer */\n    tag_8:\n      mload(0x40)\n      dup1\n      swap2\n      sub\n      swap1\n      return\n        /* \"contracts/mojito/sothebys/verify.sol\":310:561  function isApproved(bytes32[] memory proof, address addr)... */\n    tag_4:\n      tag_10\n      tag_11\n      calldatasize\n      0x04\n      tag_12\n      jump\t// in\n    tag_11:\n      tag_13\n      jump\t// in\n    tag_10:\n      0x40\n      dup1\n      mload\n        /* \"#utility.yul\":1870:1895   */\n      swap3\n      dup4\n      mstore\n        /* \"#utility.yul\":1938:1952   */\n      swap1\n      iszero\n        /* \"#utility.yul\":1931:1953   */\n      iszero\n        /* \"#utility.yul\":1926:1928   */\n      0x20\n        /* \"#utility.yul\":1911:1929   */\n      dup4\n      add\n        /* \"#utility.yul\":1904:1954   */\n      mstore\n        /* \"#utility.yul\":1843:1861   */\n      add\n        /* \"contracts/mojito/sothebys/verify.sol\":310:561  function isApproved(bytes32[] memory proof, address addr)... */\n      tag_8\n        /* \"#utility.yul\":1702:1960   */\n      jump\n        /* \"contracts/mojito/sothebys/verify.sol\":167:186  bytes32 public root */\n    tag_5:\n      tag_6\n      sload(0x00)\n      dup2\n      jump\n        /* \"contracts/mojito/sothebys/verify.sol\":310:561  function isApproved(bytes32[] memory proof, address addr)... */\n    tag_13:\n        /* \"contracts/mojito/sothebys/verify.sol\":473:495  abi.encodePacked(addr) */\n      mload(0x40)\n      not(sub(shl(0x60, 0x01), 0x01))\n        /* \"#utility.yul\":2139:2141   */\n      0x60\n        /* \"#utility.yul\":2110:2125   */\n      dup4\n      swap1\n      shl\n        /* \"#utility.yul\":2106:2151   */\n      and\n        /* \"contracts/mojito/sothebys/verify.sol\":473:495  abi.encodePacked(addr) */\n      0x20\n      dup3\n      add\n        /* \"#utility.yul\":2094:2152   */\n      mstore\n        /* \"contracts/mojito/sothebys/verify.sol\":413:425  bytes32 leaf */\n      0x00\n      swap1\n      dup2\n      swap1\n        /* \"#utility.yul\":2168:2180   */\n      0x34\n      add\n        /* \"contracts/mojito/sothebys/verify.sol\":473:495  abi.encodePacked(addr) */\n      mload(0x40)\n      0x20\n      dup2\n      dup4\n      sub\n      sub\n      dup2\n      mstore\n      swap1\n      0x40\n      mstore\n        /* \"contracts/mojito/sothebys/verify.sol\":463:496  keccak256(abi.encodePacked(addr)) */\n      dup1\n      mload\n      swap1\n      0x20\n      add\n      keccak256\n        /* \"contracts/mojito/sothebys/verify.sol\":456:496  leaf = keccak256(abi.encodePacked(addr)) */\n      swap2\n      pop\n        /* \"contracts/mojito/sothebys/verify.sol\":517:554  MerkleProof.verify(proof, root, leaf) */\n      tag_22\n        /* \"contracts/mojito/sothebys/verify.sol\":536:541  proof */\n      dup5\n        /* \"contracts/mojito/sothebys/verify.sol\":543:547  root */\n      sload(0x00)\n        /* \"contracts/mojito/sothebys/verify.sol\":549:553  leaf */\n      dup5\n        /* \"contracts/mojito/sothebys/verify.sol\":517:535  MerkleProof.verify */\n      tag_23\n        /* \"contracts/mojito/sothebys/verify.sol\":517:554  MerkleProof.verify(proof, root, leaf) */\n      jump\t// in\n    tag_22:\n        /* \"contracts/mojito/sothebys/verify.sol\":506:554  approval = MerkleProof.verify(proof, root, leaf) */\n      swap1\n      pop\n        /* \"contracts/mojito/sothebys/verify.sol\":310:561  function isApproved(bytes32[] memory proof, address addr)... */\n      swap3\n      pop\n      swap3\n      swap1\n      pop\n      jump\t// out\n        /* \"contracts/openzeppelin/utils/cryptography/MerkleProof.sol\":847:1031  function verify(... */\n    tag_23:\n        /* \"contracts/openzeppelin/utils/cryptography/MerkleProof.sol\":968:972  bool */\n      0x00\n        /* \"contracts/openzeppelin/utils/cryptography/MerkleProof.sol\":1020:1024  root */\n      dup3\n        /* \"contracts/openzeppelin/utils/cryptography/MerkleProof.sol\":991:1016  processProof(proof, leaf) */\n      tag_25\n        /* \"contracts/openzeppelin/utils/cryptography/MerkleProof.sol\":1004:1009  proof */\n      dup6\n        /* \"contracts/openzeppelin/utils/cryptography/MerkleProof.sol\":1011:1015  leaf */\n      dup5\n        /* \"contracts/openzeppelin/utils/cryptography/MerkleProof.sol\":991:1003  processProof */\n      tag_26\n        /* \"contracts/openzeppelin/utils/cryptography/MerkleProof.sol\":991:1016  processProof(proof, leaf) */\n      jump\t// in\n    tag_25:\n        /* \"contracts/openzeppelin/utils/cryptography/MerkleProof.sol\":991:1024  processProof(proof, leaf) == root */\n      eq\n      swap5\n        /* \"contracts/openzeppelin/utils/cryptography/MerkleProof.sol\":847:1031  function verify(... */\n      swap4\n      pop\n      pop\n      pop\n      pop\n      jump\t// out\n        /* \"contracts/openzeppelin/utils/cryptography/MerkleProof.sol\":1383:2071  function processProof(bytes32[] memory proof, bytes32 leaf) internal pure returns (bytes32) {... */\n    tag_26:\n        /* \"contracts/openzeppelin/utils/cryptography/MerkleProof.sol\":1466:1473  bytes32 */\n      0x00\n        /* \"contracts/openzeppelin/utils/cryptography/MerkleProof.sol\":1508:1512  leaf */\n      dup2\n        /* \"contracts/openzeppelin/utils/cryptography/MerkleProof.sol\":1466:1473  bytes32 */\n      dup2\n        /* \"contracts/openzeppelin/utils/cryptography/MerkleProof.sol\":1522:2036  for (uint256 i = 0; i < proof.length; i++) {... */\n    tag_28:\n        /* \"contracts/openzeppelin/utils/cryptography/MerkleProof.sol\":1546:1551  proof */\n      dup5\n        /* \"contracts/openzeppelin/utils/cryptography/MerkleProof.sol\":1546:1558  proof.length */\n      mload\n        /* \"contracts/openzeppelin/utils/cryptography/MerkleProof.sol\":1542:1543  i */\n      dup2\n        /* \"contracts/openzeppelin/utils/cryptography/MerkleProof.sol\":1542:1558  i < proof.length */\n      lt\n        /* \"contracts/openzeppelin/utils/cryptography/MerkleProof.sol\":1522:2036  for (uint256 i = 0; i < proof.length; i++) {... */\n      iszero\n      tag_29\n      jumpi\n        /* \"contracts/openzeppelin/utils/cryptography/MerkleProof.sol\":1579:1599  bytes32 proofElement */\n      0x00\n        /* \"contracts/openzeppelin/utils/cryptography/MerkleProof.sol\":1602:1607  proof */\n      dup6\n        /* \"contracts/openzeppelin/utils/cryptography/MerkleProof.sol\":1608:1609  i */\n      dup3\n        /* \"contracts/openzeppelin/utils/cryptography/MerkleProof.sol\":1602:1610  proof[i] */\n      dup2\n      mload\n      dup2\n      lt\n      tag_32\n      jumpi\n      tag_32\n      tag_33\n      jump\t// in\n    tag_32:\n      0x20\n      mul\n      0x20\n      add\n      add\n      mload\n        /* \"contracts/openzeppelin/utils/cryptography/MerkleProof.sol\":1579:1610  bytes32 proofElement = proof[i] */\n      swap1\n      pop\n        /* \"contracts/openzeppelin/utils/cryptography/MerkleProof.sol\":1644:1656  proofElement */\n      dup1\n        /* \"contracts/openzeppelin/utils/cryptography/MerkleProof.sol\":1628:1640  computedHash */\n      dup4\n        /* \"contracts/openzeppelin/utils/cryptography/MerkleProof.sol\":1628:1656  computedHash <= proofElement */\n      gt\n        /* \"contracts/openzeppelin/utils/cryptography/MerkleProof.sol\":1624:2026  if (computedHash <= proofElement) {... */\n      tag_34\n      jumpi\n        /* \"contracts/openzeppelin/utils/cryptography/MerkleProof.sol\":1779:1823  abi.encodePacked(computedHash, proofElement) */\n      0x40\n      dup1\n      mload\n      0x20\n      dup2\n      add\n        /* \"#utility.yul\":2480:2499   */\n      dup6\n      swap1\n      mstore\n        /* \"#utility.yul\":2515:2527   */\n      swap1\n      dup2\n      add\n        /* \"#utility.yul\":2508:2536   */\n      dup3\n      swap1\n      mstore\n        /* \"#utility.yul\":2552:2564   */\n      0x60\n      add\n        /* \"contracts/openzeppelin/utils/cryptography/MerkleProof.sol\":1779:1823  abi.encodePacked(computedHash, proofElement) */\n      mload(0x40)\n      0x20\n      dup2\n      dup4\n      sub\n      sub\n      dup2\n      mstore\n      swap1\n      0x40\n      mstore\n        /* \"contracts/openzeppelin/utils/cryptography/MerkleProof.sol\":1769:1824  keccak256(abi.encodePacked(computedHash, proofElement)) */\n      dup1\n      mload\n      swap1\n      0x20\n      add\n      keccak256\n        /* \"contracts/openzeppelin/utils/cryptography/MerkleProof.sol\":1754:1824  computedHash = keccak256(abi.encodePacked(computedHash, proofElement)) */\n      swap3\n      pop\n        /* \"contracts/openzeppelin/utils/cryptography/MerkleProof.sol\":1624:2026  if (computedHash <= proofElement) {... */\n      jump(tag_37)\n    tag_34:\n        /* \"contracts/openzeppelin/utils/cryptography/MerkleProof.sol\":1966:2010  abi.encodePacked(proofElement, computedHash) */\n      0x40\n      dup1\n      mload\n      0x20\n      dup2\n      add\n        /* \"#utility.yul\":2480:2499   */\n      dup4\n      swap1\n      mstore\n        /* \"#utility.yul\":2515:2527   */\n      swap1\n      dup2\n      add\n        /* \"#utility.yul\":2508:2536   */\n      dup5\n      swap1\n      mstore\n        /* \"#utility.yul\":2552:2564   */\n      0x60\n      add\n        /* \"contracts/openzeppelin/utils/cryptography/MerkleProof.sol\":1966:2010  abi.encodePacked(proofElement, computedHash) */\n      mload(0x40)\n      0x20\n      dup2\n      dup4\n      sub\n      sub\n      dup2\n      mstore\n      swap1\n      0x40\n      mstore\n        /* \"contracts/openzeppelin/utils/cryptography/MerkleProof.sol\":1956:2011  keccak256(abi.encodePacked(proofElement, computedHash)) */\n      dup1\n      mload\n      swap1\n      0x20\n      add\n      keccak256\n        /* \"contracts/openzeppelin/utils/cryptography/MerkleProof.sol\":1941:2011  computedHash = keccak256(abi.encodePacked(proofElement, computedHash)) */\n      swap3\n      pop\n        /* \"contracts/openzeppelin/utils/cryptography/MerkleProof.sol\":1624:2026  if (computedHash <= proofElement) {... */\n    tag_37:\n      pop\n        /* \"contracts/openzeppelin/utils/cryptography/MerkleProof.sol\":1560:1563  i++ */\n      dup1\n      tag_39\n      dup2\n      tag_40\n      jump\t// in\n    tag_39:\n      swap2\n      pop\n      pop\n        /* \"contracts/openzeppelin/utils/cryptography/MerkleProof.sol\":1522:2036  for (uint256 i = 0; i < proof.length; i++) {... */\n      jump(tag_28)\n    tag_29:\n      pop\n        /* \"contracts/openzeppelin/utils/cryptography/MerkleProof.sol\":2052:2064  computedHash */\n      swap4\n        /* \"contracts/openzeppelin/utils/cryptography/MerkleProof.sol\":1383:2071  function processProof(bytes32[] memory proof, bytes32 leaf) internal pure returns (bytes32) {... */\n      swap3\n      pop\n      pop\n      pop\n      jump\t// out\n        /* \"#utility.yul\":196:323   */\n    tag_41:\n        /* \"#utility.yul\":257:267   */\n      0x4e487b71\n        /* \"#utility.yul\":252:255   */\n      0xe0\n        /* \"#utility.yul\":248:268   */\n      shl\n        /* \"#utility.yul\":245:246   */\n      0x00\n        /* \"#utility.yul\":238:269   */\n      mstore\n        /* \"#utility.yul\":288:292   */\n      0x41\n        /* \"#utility.yul\":285:286   */\n      0x04\n        /* \"#utility.yul\":278:293   */\n      mstore\n        /* \"#utility.yul\":312:316   */\n      0x24\n        /* \"#utility.yul\":309:310   */\n      0x00\n        /* \"#utility.yul\":302:317   */\n      revert\n        /* \"#utility.yul\":328:501   */\n    tag_42:\n        /* \"#utility.yul\":396:416   */\n      dup1\n      calldataload\n      sub(shl(0xa0, 0x01), 0x01)\n        /* \"#utility.yul\":445:476   */\n      dup2\n      and\n        /* \"#utility.yul\":435:477   */\n      dup2\n      eq\n        /* \"#utility.yul\":425:495   */\n      tag_47\n      jumpi\n        /* \"#utility.yul\":491:492   */\n      0x00\n        /* \"#utility.yul\":488:489   */\n      dup1\n        /* \"#utility.yul\":481:493   */\n      revert\n        /* \"#utility.yul\":425:495   */\n    tag_47:\n        /* \"#utility.yul\":328:501   */\n      swap2\n      swap1\n      pop\n      jump\t// out\n        /* \"#utility.yul\":506:1697   */\n    tag_12:\n        /* \"#utility.yul\":599:605   */\n      0x00\n        /* \"#utility.yul\":607:613   */\n      dup1\n        /* \"#utility.yul\":660:662   */\n      0x40\n        /* \"#utility.yul\":648:657   */\n      dup4\n        /* \"#utility.yul\":639:646   */\n      dup6\n        /* \"#utility.yul\":635:658   */\n      sub\n        /* \"#utility.yul\":631:663   */\n      slt\n        /* \"#utility.yul\":628:680   */\n      iszero\n      tag_49\n      jumpi\n        /* \"#utility.yul\":676:677   */\n      0x00\n        /* \"#utility.yul\":673:674   */\n      dup1\n        /* \"#utility.yul\":666:678   */\n      revert\n        /* \"#utility.yul\":628:680   */\n    tag_49:\n        /* \"#utility.yul\":716:725   */\n      dup3\n        /* \"#utility.yul\":703:726   */\n      calldataload\n        /* \"#utility.yul\":745:763   */\n      0xffffffffffffffff\n        /* \"#utility.yul\":786:788   */\n      dup1\n        /* \"#utility.yul\":778:784   */\n      dup3\n        /* \"#utility.yul\":775:789   */\n      gt\n        /* \"#utility.yul\":772:806   */\n      iszero\n      tag_50\n      jumpi\n        /* \"#utility.yul\":802:803   */\n      0x00\n        /* \"#utility.yul\":799:800   */\n      dup1\n        /* \"#utility.yul\":792:804   */\n      revert\n        /* \"#utility.yul\":772:806   */\n    tag_50:\n        /* \"#utility.yul\":840:846   */\n      dup2\n        /* \"#utility.yul\":829:838   */\n      dup6\n        /* \"#utility.yul\":825:847   */\n      add\n        /* \"#utility.yul\":815:847   */\n      swap2\n      pop\n        /* \"#utility.yul\":885:892   */\n      dup6\n        /* \"#utility.yul\":878:882   */\n      0x1f\n        /* \"#utility.yul\":874:876   */\n      dup4\n        /* \"#utility.yul\":870:883   */\n      add\n        /* \"#utility.yul\":866:893   */\n      slt\n        /* \"#utility.yul\":856:911   */\n      tag_51\n      jumpi\n        /* \"#utility.yul\":907:908   */\n      0x00\n        /* \"#utility.yul\":904:905   */\n      dup1\n        /* \"#utility.yul\":897:909   */\n      revert\n        /* \"#utility.yul\":856:911   */\n    tag_51:\n        /* \"#utility.yul\":943:945   */\n      dup2\n        /* \"#utility.yul\":930:946   */\n      calldataload\n        /* \"#utility.yul\":965:969   */\n      0x20\n        /* \"#utility.yul\":988:990   */\n      dup3\n        /* \"#utility.yul\":984:986   */\n      dup3\n        /* \"#utility.yul\":981:991   */\n      gt\n        /* \"#utility.yul\":978:1014   */\n      iszero\n      tag_53\n      jumpi\n        /* \"#utility.yul\":994:1012   */\n      tag_53\n      tag_41\n      jump\t// in\n    tag_53:\n        /* \"#utility.yul\":1040:1042   */\n      dup2\n        /* \"#utility.yul\":1037:1038   */\n      0x05\n        /* \"#utility.yul\":1033:1043   */\n      shl\n        /* \"#utility.yul\":1072:1074   */\n      0x40\n        /* \"#utility.yul\":1066:1075   */\n      mload\n        /* \"#utility.yul\":1135:1137   */\n      0x1f\n        /* \"#utility.yul\":1131:1138   */\n      not\n        /* \"#utility.yul\":1126:1128   */\n      0x3f\n        /* \"#utility.yul\":1122:1124   */\n      dup4\n        /* \"#utility.yul\":1118:1129   */\n      add\n        /* \"#utility.yul\":1114:1139   */\n      and\n        /* \"#utility.yul\":1106:1112   */\n      dup2\n        /* \"#utility.yul\":1102:1140   */\n      add\n        /* \"#utility.yul\":1190:1196   */\n      dup2\n        /* \"#utility.yul\":1178:1188   */\n      dup2\n        /* \"#utility.yul\":1175:1197   */\n      lt\n        /* \"#utility.yul\":1170:1172   */\n      dup7\n        /* \"#utility.yul\":1158:1168   */\n      dup3\n        /* \"#utility.yul\":1155:1173   */\n      gt\n        /* \"#utility.yul\":1152:1198   */\n      or\n        /* \"#utility.yul\":1149:1221   */\n      iszero\n      tag_55\n      jumpi\n        /* \"#utility.yul\":1201:1219   */\n      tag_55\n      tag_41\n      jump\t// in\n    tag_55:\n        /* \"#utility.yul\":1237:1239   */\n      0x40\n        /* \"#utility.yul\":1230:1252   */\n      mstore\n        /* \"#utility.yul\":1287:1305   */\n      swap3\n      dup4\n      mstore\n        /* \"#utility.yul\":1321:1336   */\n      dup2\n      dup4\n      add\n      swap4\n      pop\n        /* \"#utility.yul\":1363:1374   */\n      dup5\n      dup2\n      add\n        /* \"#utility.yul\":1359:1379   */\n      dup3\n      add\n      swap3\n        /* \"#utility.yul\":1391:1410   */\n      dup10\n      dup5\n      gt\n        /* \"#utility.yul\":1388:1427   */\n      iszero\n      tag_56\n      jumpi\n        /* \"#utility.yul\":1423:1424   */\n      0x00\n        /* \"#utility.yul\":1420:1421   */\n      dup1\n        /* \"#utility.yul\":1413:1425   */\n      revert\n        /* \"#utility.yul\":1388:1427   */\n    tag_56:\n        /* \"#utility.yul\":1447:1458   */\n      swap5\n      dup3\n      add\n      swap5\n        /* \"#utility.yul\":1467:1609   */\n    tag_57:\n        /* \"#utility.yul\":1483:1489   */\n      dup4\n        /* \"#utility.yul\":1478:1481   */\n      dup7\n        /* \"#utility.yul\":1475:1490   */\n      lt\n        /* \"#utility.yul\":1467:1609   */\n      iszero\n      tag_59\n      jumpi\n        /* \"#utility.yul\":1549:1566   */\n      dup6\n      calldataload\n        /* \"#utility.yul\":1537:1567   */\n      dup6\n      mstore\n        /* \"#utility.yul\":1500:1512   */\n      swap5\n      dup3\n      add\n      swap5\n        /* \"#utility.yul\":1587:1599   */\n      swap4\n      dup3\n      add\n      swap4\n        /* \"#utility.yul\":1467:1609   */\n      jump(tag_57)\n    tag_59:\n        /* \"#utility.yul\":1628:1634   */\n      swap7\n      pop\n        /* \"#utility.yul\":1653:1691   */\n      tag_60\n      swap1\n      pop\n        /* \"#utility.yul\":1672:1690   */\n      dup8\n      dup3\n      add\n        /* \"#utility.yul\":1653:1691   */\n      tag_42\n      jump\t// in\n    tag_60:\n        /* \"#utility.yul\":1643:1691   */\n      swap5\n      pop\n      pop\n      pop\n      pop\n      pop\n        /* \"#utility.yul\":506:1697   */\n      swap3\n      pop\n      swap3\n      swap1\n      pop\n      jump\t// out\n        /* \"#utility.yul\":2191:2318   */\n    tag_33:\n        /* \"#utility.yul\":2252:2262   */\n      0x4e487b71\n        /* \"#utility.yul\":2247:2250   */\n      0xe0\n        /* \"#utility.yul\":2243:2263   */\n      shl\n        /* \"#utility.yul\":2240:2241   */\n      0x00\n        /* \"#utility.yul\":2233:2264   */\n      mstore\n        /* \"#utility.yul\":2283:2287   */\n      0x32\n        /* \"#utility.yul\":2280:2281   */\n      0x04\n        /* \"#utility.yul\":2273:2288   */\n      mstore\n        /* \"#utility.yul\":2307:2311   */\n      0x24\n        /* \"#utility.yul\":2304:2305   */\n      0x00\n        /* \"#utility.yul\":2297:2312   */\n      revert\n        /* \"#utility.yul\":2575:2807   */\n    tag_40:\n        /* \"#utility.yul\":2614:2617   */\n      0x00\n        /* \"#utility.yul\":2635:2652   */\n      0x01\n      dup3\n      add\n        /* \"#utility.yul\":2632:2772   */\n      tag_66\n      jumpi\n        /* \"#utility.yul\":2694:2704   */\n      0x4e487b71\n        /* \"#utility.yul\":2689:2692   */\n      0xe0\n        /* \"#utility.yul\":2685:2705   */\n      shl\n        /* \"#utility.yul\":2682:2683   */\n      0x00\n        /* \"#utility.yul\":2675:2706   */\n      mstore\n        /* \"#utility.yul\":2729:2733   */\n      0x11\n        /* \"#utility.yul\":2726:2727   */\n      0x04\n        /* \"#utility.yul\":2719:2734   */\n      mstore\n        /* \"#utility.yul\":2757:2761   */\n      0x24\n        /* \"#utility.yul\":2754:2755   */\n      0x00\n        /* \"#utility.yul\":2747:2762   */\n      revert\n        /* \"#utility.yul\":2632:2772   */\n    tag_66:\n      pop\n        /* \"#utility.yul\":2799:2800   */\n      0x01\n        /* \"#utility.yul\":2788:2801   */\n      add\n      swap1\n        /* \"#utility.yul\":2575:2807   */\n      jump\t// out\n\n    auxdata: 0xa264697066735822122069e9a3b525d314b95618dea9ad909253641f0b59d5af923d6d08c4d8111f97d364736f6c63430008110033\n}\n",
				"bytecode": {
					"linkReferences": {},
					"object": "608060405234801561001057600080fd5b5060405161037b38038061037b83398101604081905261002f9161003c565b6000908155600155610055565b60006020828403121561004e57600080fd5b5051919050565b610317806100646000396000f3fe608060405234801561001057600080fd5b50600436106100415760003560e01c806385bb7d6914610046578063a364a3ec14610062578063ebf0c7171461008a575b600080fd5b61004f60015481565b6040519081526020015b60405180910390f35b6100756100703660046101d4565b610093565b60408051928352901515602083015201610059565b61004f60005481565b6040516001600160601b0319606083901b16602082015260009081906034016040516020818303038152906040528051906020012091506100d784600054846100e0565b90509250929050565b6000826100ed85846100f6565b14949350505050565b600081815b845181101561019a576000858281518110610118576101186102a4565b6020026020010151905080831161015a576040805160208101859052908101829052606001604051602081830303815290604052805190602001209250610187565b60408051602081018390529081018490526060016040516020818303038152906040528051906020012092505b5080610192816102ba565b9150506100fb565b509392505050565b634e487b7160e01b600052604160045260246000fd5b80356001600160a01b03811681146101cf57600080fd5b919050565b600080604083850312156101e757600080fd5b823567ffffffffffffffff808211156101ff57600080fd5b818501915085601f83011261021357600080fd5b8135602082821115610227576102276101a2565b8160051b604051601f19603f8301168101818110868211171561024c5761024c6101a2565b60405292835281830193508481018201928984111561026a57600080fd5b948201945b838610156102885785358552948201949382019361026f565b965061029790508782016101b8565b9450505050509250929050565b634e487b7160e01b600052603260045260246000fd5b6000600182016102da57634e487b7160e01b600052601160045260246000fd5b506001019056fea264697066735822122069e9a3b525d314b95618dea9ad909253641f0b59d5af923d6d08c4d8111f97d364736f6c63430008110033",
					"opcodes": "PUSH1 0x80 PUSH1 0x40 MSTORE CALLVALUE DUP1 ISZERO PUSH2 0x10 JUMPI PUSH1 0x0 DUP1 REVERT JUMPDEST POP PUSH1 0x40 MLOAD PUSH2 0x37B CODESIZE SUB DUP1 PUSH2 0x37B DUP4 CODECOPY DUP2 ADD PUSH1 0x40 DUP2 SWAP1 MSTORE PUSH2 0x2F SWAP2 PUSH2 0x3C JUMP JUMPDEST PUSH1 0x0 SWAP1 DUP2 SSTORE PUSH1 0x1 SSTORE PUSH2 0x55 JUMP JUMPDEST PUSH1 0x0 PUSH1 0x20 DUP3 DUP5 SUB SLT ISZERO PUSH2 0x4E JUMPI PUSH1 0x0 DUP1 REVERT JUMPDEST POP MLOAD SWAP2 SWAP1 POP JUMP JUMPDEST PUSH2 0x317 DUP1 PUSH2 0x64 PUSH1 0x0 CODECOPY PUSH1 0x0 RETURN INVALID PUSH1 0x80 PUSH1 0x40 MSTORE CALLVALUE DUP1 ISZERO PUSH2 0x10 JUMPI PUSH1 0x0 DUP1 REVERT JUMPDEST POP PUSH1 0x4 CALLDATASIZE LT PUSH2 0x41 JUMPI PUSH1 0x0 CALLDATALOAD PUSH1 0xE0 SHR DUP1 PUSH4 0x85BB7D69 EQ PUSH2 0x46 JUMPI DUP1 PUSH4 0xA364A3EC EQ PUSH2 0x62 JUMPI DUP1 PUSH4 0xEBF0C717 EQ PUSH2 0x8A JUMPI JUMPDEST PUSH1 0x0 DUP1 REVERT JUMPDEST PUSH2 0x4F PUSH1 0x1 SLOAD DUP2 JUMP JUMPDEST PUSH1 0x40 MLOAD SWAP1 DUP2 MSTORE PUSH1 0x20 ADD JUMPDEST PUSH1 0x40 MLOAD DUP1 SWAP2 SUB SWAP1 RETURN JUMPDEST PUSH2 0x75 PUSH2 0x70 CALLDATASIZE PUSH1 0x4 PUSH2 0x1D4 JUMP JUMPDEST PUSH2 0x93 JUMP JUMPDEST PUSH1 0x40 DUP1 MLOAD SWAP3 DUP4 MSTORE SWAP1 ISZERO ISZERO PUSH1 0x20 DUP4 ADD MSTORE ADD PUSH2 0x59 JUMP JUMPDEST PUSH2 0x4F PUSH1 0x0 SLOAD DUP2 JUMP JUMPDEST PUSH1 0x40 MLOAD PUSH1 0x1 PUSH1 0x1 PUSH1 0x60 SHL SUB NOT PUSH1 0x60 DUP4 SWAP1 SHL AND PUSH1 0x20 DUP3 ADD MSTORE PUSH1 0x0 SWAP1 DUP2 SWAP1 PUSH1 0x34 ADD PUSH1 0x40 MLOAD PUSH1 0x20 DUP2 DUP4 SUB SUB DUP2 MSTORE SWAP1 PUSH1 0x40 MSTORE DUP1 MLOAD SWAP1 PUSH1 0x20 ADD KECCAK256 SWAP2 POP PUSH2 0xD7 DUP5 PUSH1 0x0 SLOAD DUP5 PUSH2 0xE0 JUMP JUMPDEST SWAP1 POP SWAP3 POP SWAP3 SWAP1 POP JUMP JUMPDEST PUSH1 0x0 DUP3 PUSH2 0xED DUP6 DUP5 PUSH2 0xF6 JUMP JUMPDEST EQ SWAP5 SWAP4 POP POP POP POP JUMP JUMPDEST PUSH1 0x0 DUP2 DUP2 JUMPDEST DUP5 MLOAD DUP2 LT ISZERO PUSH2 0x19A JUMPI PUSH1 0x0 DUP6 DUP3 DUP2 MLOAD DUP2 LT PUSH2 0x118 JUMPI PUSH2 0x118 PUSH2 0x2A4 JUMP JUMPDEST PUSH1 0x20 MUL PUSH1 0x20 ADD ADD MLOAD SWAP1 POP DUP1 DUP4 GT PUSH2 0x15A JUMPI PUSH1 0x40 DUP1 MLOAD PUSH1 0x20 DUP2 ADD DUP6 SWAP1 MSTORE SWAP1 DUP2 ADD DUP3 SWAP1 MSTORE PUSH1 0x60 ADD PUSH1 0x40 MLOAD PUSH1 0x20 DUP2 DUP4 SUB SUB DUP2 MSTORE SWAP1 PUSH1 0x40 MSTORE DUP1 MLOAD SWAP1 PUSH1 0x20 ADD KECCAK256 SWAP3 POP PUSH2 0x187 JUMP JUMPDEST PUSH1 0x40 DUP1 MLOAD PUSH1 0x20 DUP2 ADD DUP4 SWAP1 MSTORE SWAP1 DUP2 ADD DUP5 SWAP1 MSTORE PUSH1 0x60 ADD PUSH1 0x40 MLOAD PUSH1 0x20 DUP2 DUP4 SUB SUB DUP2 MSTORE SWAP1 PUSH1 0x40 MSTORE DUP1 MLOAD SWAP1 PUSH1 0x20 ADD KECCAK256 SWAP3 POP JUMPDEST POP DUP1 PUSH2 0x192 DUP2 PUSH2 0x2BA JUMP JUMPDEST SWAP2 POP POP PUSH2 0xFB JUMP JUMPDEST POP SWAP4 SWAP3 POP POP POP JUMP JUMPDEST PUSH4 0x4E487B71 PUSH1 0xE0 SHL PUSH1 0x0 MSTORE PUSH1 0x41 PUSH1 0x4 MSTORE PUSH1 0x24 PUSH1 0x0 REVERT JUMPDEST DUP1 CALLDATALOAD PUSH1 0x1 PUSH1 0x1 PUSH1 0xA0 SHL SUB DUP2 AND DUP2 EQ PUSH2 0x1CF JUMPI PUSH1 0x0 DUP1 REVERT JUMPDEST SWAP2 SWAP1 POP JUMP JUMPDEST PUSH1 0x0 DUP1 PUSH1 0x40 DUP4 DUP6 SUB SLT ISZERO PUSH2 0x1E7 JUMPI PUSH1 0x0 DUP1 REVERT JUMPDEST DUP3 CALLDATALOAD PUSH8 0xFFFFFFFFFFFFFFFF DUP1 DUP3 GT ISZERO PUSH2 0x1FF JUMPI PUSH1 0x0 DUP1 REVERT JUMPDEST DUP2 DUP6 ADD SWAP2 POP DUP6 PUSH1 0x1F DUP4 ADD SLT PUSH2 0x213 JUMPI PUSH1 0x0 DUP1 REVERT JUMPDEST DUP2 CALLDATALOAD PUSH1 0x20 DUP3 DUP3 GT ISZERO PUSH2 0x227 JUMPI PUSH2 0x227 PUSH2 0x1A2 JUMP JUMPDEST DUP2 PUSH1 0x5 SHL PUSH1 0x40 MLOAD PUSH1 0x1F NOT PUSH1 0x3F DUP4 ADD AND DUP2 ADD DUP2 DUP2 LT DUP7 DUP3 GT OR ISZERO PUSH2 0x24C JUMPI PUSH2 0x24C PUSH2 0x1A2 JUMP JUMPDEST PUSH1 0x40 MSTORE SWAP3 DUP4 MSTORE DUP2 DUP4 ADD SWAP4 POP DUP5 DUP2 ADD DUP3 ADD SWAP3 DUP10 DUP5 GT ISZERO PUSH2 0x26A JUMPI PUSH1 0x0 DUP1 REVERT JUMPDEST SWAP5 DUP3 ADD SWAP5 JUMPDEST DUP4 DUP7 LT ISZERO PUSH2 0x288 JUMPI DUP6 CALLDATALOAD DUP6 MSTORE SWAP5 DUP3 ADD SWAP5 SWAP4 DUP3 ADD SWAP4 PUSH2 0x26F JUMP JUMPDEST SWAP7 POP PUSH2 0x297 SWAP1 POP DUP8 DUP3 ADD PUSH2 0x1B8 JUMP JUMPDEST SWAP5 POP POP POP POP POP SWAP3 POP SWAP3 SWAP1 POP JUMP JUMPDEST PUSH4 0x4E487B71 PUSH1 0xE0 SHL PUSH1 0x0 MSTORE PUSH1 0x32 PUSH1 0x4 MSTORE PUSH1 0x24 PUSH1 0x0 REVERT JUMPDEST PUSH1 0x0 PUSH1 0x1 DUP3 ADD PUSH2 0x2DA JUMPI PUSH4 0x4E487B71 PUSH1 0xE0 SHL PUSH1 0x0 MSTORE PUSH1 0x11 PUSH1 0x4 MSTORE PUSH1 0x24 PUSH1 0x0 REVERT JUMPDEST POP PUSH1 0x1 ADD SWAP1 JUMP INVALID LOG2 PUSH5 0x6970667358 0x22 SLT KECCAK256 PUSH10 0xE9A3B525D314B95618DE 0xA9 0xAD SWAP1 SWAP3 MSTORE8 PUSH5 0x1F0B59D5AF SWAP3 RETURNDATASIZE PUSH14 0x8C4D8111F97D364736F6C634300 ADDMOD GT STOP CALLER "
				},
				"gasEstimates": {
					"creation": {
						"codeDepositCost": "158200",
						"executionCost": "infinite",
						"totalCost": "infinite"
					},
					"external": {
						"answer()": "2262",
						"isApproved(bytes32[],address)": "infinite",
						"root()": "2306"
					}
				},
				"methodIdentifiers": {
					"answer()": "85bb7d69",
					"isApproved(bytes32[],address)": "a364a3ec",
					"root()": "ebf0c717"
				}
			},
			"storageLayout": {
				"storage": [
					{
						"astId": 5,
						"contract": "contracts/mojito/sothebys/verify.sol:verify",
						"label": "root",
						"offset": 0,
						"slot": "0",
						"type": "t_bytes32"
					},
					{
						"astId": 7,
						"contract": "contracts/mojito/sothebys/verify.sol:verify",
						"label": "answer",
						"offset": 0,
						"slot": "1",
						"type": "t_bytes32"
					}
				],
				"types": {
					"t_bytes32": {
						"encoding": "inplace",
						"label": "bytes32",
						"numberOfBytes": "32"
					}
				}
			},
			"userdoc": {
				"kind": "user",
				"methods": {},
				"version": 1
			}
		}
	}
}