{
	"contracts/mojito/sothebys/FeedData.sol": {
		"FeedData": {
			"abi": [
				{
					"inputs": [
						{
							"internalType": "address[]",
							"name": "priceFeedAddress",
							"type": "address[]"
						},
						{
							"internalType": "address[]",
							"name": "currencyAddress",
							"type": "address[]"
						},
						{
							"internalType": "uint256[]",
							"name": "heartbeat",
							"type": "uint256[]"
						},
						{
							"internalType": "address",
							"name": "_admin",
							"type": "address"
						}
					],
					"stateMutability": "nonpayable",
					"type": "constructor"
				},
				{
					"inputs": [],
					"name": "admin",
					"outputs": [
						{
							"internalType": "address",
							"name": "",
							"type": "address"
						}
					],
					"stateMutability": "view",
					"type": "function"
				},
				{
					"inputs": [
						{
							"internalType": "uint256",
							"name": "amount",
							"type": "uint256"
						},
						{
							"internalType": "address",
							"name": "fiat",
							"type": "address"
						}
					],
					"name": "getLatestPrice",
					"outputs": [
						{
							"internalType": "uint256",
							"name": "value",
							"type": "uint256"
						}
					],
					"stateMutability": "view",
					"type": "function"
				},
				{
					"inputs": [],
					"name": "owner",
					"outputs": [
						{
							"internalType": "address",
							"name": "",
							"type": "address"
						}
					],
					"stateMutability": "view",
					"type": "function"
				},
				{
					"inputs": [
						{
							"internalType": "address[]",
							"name": "priceFeedAddress",
							"type": "address[]"
						},
						{
							"internalType": "address[]",
							"name": "currencyAddress",
							"type": "address[]"
						}
					],
					"name": "updatePriceFeedAddress",
					"outputs": [],
					"stateMutability": "nonpayable",
					"type": "function"
				},
				{
					"inputs": [
						{
							"internalType": "address",
							"name": "currencyAddress",
							"type": "address"
						},
						{
							"internalType": "uint256",
							"name": "heartBeat",
							"type": "uint256"
						}
					],
					"name": "updateheartbeat",
					"outputs": [],
					"stateMutability": "nonpayable",
					"type": "function"
				}
			],
			"devdoc": {
				"kind": "dev",
				"methods": {
					"constructor": {
						"params": {
							"currencyAddress": "List of ERC20 Currency Address",
							"priceFeedAddress": "List of Chainlink Aggregator Address"
						}
					},
					"getLatestPrice(uint256,address)": {
						"params": {
							"amount": "conversion amount in usd",
							"fiat": "ERC20 Currency Address"
						}
					},
					"updatePriceFeedAddress(address[],address[])": {
						"params": {
							"currencyAddress": "List of ERC20 Currency Address",
							"priceFeedAddress": "List of Chainlink Aggregator Address"
						}
					},
					"updateheartbeat(address,uint256)": {
						"params": {
							"currencyAddress": "List of ERC20 Currency Address",
							"heartBeat": "timeinterval to check the feed updation"
						}
					}
				},
				"version": 1
			},
			"evm": {
				"assembly": "    /* \"contracts/mojito/sothebys/FeedData.sol\":139:3669  contract FeedData {... */\n  mstore(0x40, 0xa0)\n    /* \"contracts/mojito/sothebys/FeedData.sol\":651:1327  constructor(... */\n  callvalue\n  dup1\n  iszero\n  tag_1\n  jumpi\n  0x00\n  dup1\n  revert\ntag_1:\n  pop\n  mload(0x40)\n  sub(codesize, bytecodeSize)\n  dup1\n  bytecodeSize\n  dup4\n  codecopy\n  dup2\n  add\n  0x40\n  dup2\n  swap1\n  mstore\n  tag_2\n  swap2\n  tag_3\n  jump\t// in\ntag_2:\n    /* \"contracts/mojito/sothebys/FeedData.sol\":872:887  currencyAddress */\n  dup3\n    /* \"contracts/mojito/sothebys/FeedData.sol\":872:894  currencyAddress.length */\n  mload\n    /* \"contracts/mojito/sothebys/FeedData.sol\":845:861  priceFeedAddress */\n  dup5\n    /* \"contracts/mojito/sothebys/FeedData.sol\":845:868  priceFeedAddress.length */\n  mload\n    /* \"contracts/mojito/sothebys/FeedData.sol\":845:894  priceFeedAddress.length == currencyAddress.length */\n  eq\n    /* \"contracts/mojito/sothebys/FeedData.sol\":845:957  priceFeedAddress.length == currencyAddress.length &&... */\n  dup1\n  iszero\n  tag_6\n  jumpi\n  pop\n    /* \"contracts/mojito/sothebys/FeedData.sol\":941:950  heartbeat */\n  dup2\n    /* \"contracts/mojito/sothebys/FeedData.sol\":941:957  heartbeat.length */\n  mload\n    /* \"contracts/mojito/sothebys/FeedData.sol\":914:930  priceFeedAddress */\n  dup5\n    /* \"contracts/mojito/sothebys/FeedData.sol\":914:937  priceFeedAddress.length */\n  mload\n    /* \"contracts/mojito/sothebys/FeedData.sol\":914:957  priceFeedAddress.length == heartbeat.length */\n  eq\n    /* \"contracts/mojito/sothebys/FeedData.sol\":845:957  priceFeedAddress.length == currencyAddress.length &&... */\ntag_6:\n    /* \"contracts/mojito/sothebys/FeedData.sol\":824:1015  require(... */\n  tag_7\n  jumpi\n  mload(0x40)\n  shl(0xe5, 0x461bcd)\n  dup2\n  mstore\n    /* \"#utility.yul\":3139:3141   */\n  0x20\n    /* \"contracts/mojito/sothebys/FeedData.sol\":824:1015  require(... */\n  0x04\n  dup3\n  add\n    /* \"#utility.yul\":3121:3142   */\n  dup2\n  swap1\n  mstore\n    /* \"#utility.yul\":3158:3176   */\n  0x24\n  dup3\n  add\n    /* \"#utility.yul\":3151:3181   */\n  mstore\n    /* \"#utility.yul\":3217:3251   */\n  0x417272617973206d7573742068617665207468652073616d65206c656e677468\n    /* \"#utility.yul\":3197:3215   */\n  0x44\n  dup3\n  add\n    /* \"#utility.yul\":3190:3252   */\n  mstore\n    /* \"#utility.yul\":3269:3287   */\n  0x64\n  add\n    /* \"contracts/mojito/sothebys/FeedData.sol\":824:1015  require(... */\n  mload(0x40)\n  dup1\n  swap2\n  sub\n  swap1\n  revert\ntag_7:\n    /* \"contracts/mojito/sothebys/FeedData.sol\":1030:1039  uint256 i */\n  0x00\n    /* \"contracts/mojito/sothebys/FeedData.sol\":1025:1269  for (uint256 i = 0; i < priceFeedAddress.length; i++) {... */\ntag_10:\n    /* \"contracts/mojito/sothebys/FeedData.sol\":1049:1065  priceFeedAddress */\n  dup5\n    /* \"contracts/mojito/sothebys/FeedData.sol\":1049:1072  priceFeedAddress.length */\n  mload\n    /* \"contracts/mojito/sothebys/FeedData.sol\":1045:1046  i */\n  dup2\n    /* \"contracts/mojito/sothebys/FeedData.sol\":1045:1072  i < priceFeedAddress.length */\n  lt\n    /* \"contracts/mojito/sothebys/FeedData.sol\":1025:1269  for (uint256 i = 0; i < priceFeedAddress.length; i++) {... */\n  iszero\n  tag_11\n  jumpi\n    /* \"contracts/mojito/sothebys/FeedData.sol\":1164:1180  priceFeedAddress */\n  dup5\n    /* \"contracts/mojito/sothebys/FeedData.sol\":1181:1182  i */\n  dup2\n    /* \"contracts/mojito/sothebys/FeedData.sol\":1164:1183  priceFeedAddress[i] */\n  dup2\n  mload\n  dup2\n  lt\n  tag_14\n  jumpi\n  tag_14\n  tag_15\n  jump\t// in\ntag_14:\n  0x20\n  mul\n  0x20\n  add\n  add\n  mload\n    /* \"contracts/mojito/sothebys/FeedData.sol\":1093:1102  priceFeed */\n  0x00\n    /* \"contracts/mojito/sothebys/FeedData.sol\":1093:1122  priceFeed[currencyAddress[i]] */\n  dup1\n    /* \"contracts/mojito/sothebys/FeedData.sol\":1103:1118  currencyAddress */\n  dup7\n    /* \"contracts/mojito/sothebys/FeedData.sol\":1119:1120  i */\n  dup5\n    /* \"contracts/mojito/sothebys/FeedData.sol\":1103:1121  currencyAddress[i] */\n  dup2\n  mload\n  dup2\n  lt\n  tag_17\n  jumpi\n  tag_17\n  tag_15\n  jump\t// in\ntag_17:\n  0x20\n  mul\n  0x20\n  add\n  add\n  mload\n  sub(shl(0xa0, 0x01), 0x01)\n    /* \"contracts/mojito/sothebys/FeedData.sol\":1093:1122  priceFeed[currencyAddress[i]] */\n  and\n  sub(shl(0xa0, 0x01), 0x01)\n  and\n  dup2\n  mstore\n  0x20\n  add\n  swap1\n  dup2\n  mstore\n  0x20\n  add\n  0x00\n  keccak256\n  0x00\n    /* \"contracts/mojito/sothebys/FeedData.sol\":1093:1197  priceFeed[currencyAddress[i]] = AggregatorV3Interface(... */\n  0x0100\n  exp\n  dup2\n  sload\n  dup2\n  sub(shl(0xa0, 0x01), 0x01)\n  mul\n  not\n  and\n  swap1\n  dup4\n  sub(shl(0xa0, 0x01), 0x01)\n  and\n  mul\n  or\n  swap1\n  sstore\n  pop\n    /* \"contracts/mojito/sothebys/FeedData.sol\":1246:1255  heartbeat */\n  dup3\n    /* \"contracts/mojito/sothebys/FeedData.sol\":1256:1257  i */\n  dup2\n    /* \"contracts/mojito/sothebys/FeedData.sol\":1246:1258  heartbeat[i] */\n  dup2\n  mload\n  dup2\n  lt\n  tag_19\n  jumpi\n  tag_19\n  tag_15\n  jump\t// in\ntag_19:\n  0x20\n  mul\n  0x20\n  add\n  add\n  mload\n    /* \"contracts/mojito/sothebys/FeedData.sol\":1211:1223  timeInterval */\n  0x01\n    /* \"contracts/mojito/sothebys/FeedData.sol\":1211:1243  timeInterval[currencyAddress[i]] */\n  0x00\n    /* \"contracts/mojito/sothebys/FeedData.sol\":1224:1239  currencyAddress */\n  dup7\n    /* \"contracts/mojito/sothebys/FeedData.sol\":1240:1241  i */\n  dup5\n    /* \"contracts/mojito/sothebys/FeedData.sol\":1224:1242  currencyAddress[i] */\n  dup2\n  mload\n  dup2\n  lt\n  tag_21\n  jumpi\n  tag_21\n  tag_15\n  jump\t// in\ntag_21:\n  0x20\n  mul\n  0x20\n  add\n  add\n  mload\n  sub(shl(0xa0, 0x01), 0x01)\n    /* \"contracts/mojito/sothebys/FeedData.sol\":1211:1243  timeInterval[currencyAddress[i]] */\n  and\n  sub(shl(0xa0, 0x01), 0x01)\n  and\n  dup2\n  mstore\n  0x20\n  add\n  swap1\n  dup2\n  mstore\n  0x20\n  add\n  0x00\n  keccak256\n    /* \"contracts/mojito/sothebys/FeedData.sol\":1211:1258  timeInterval[currencyAddress[i]] = heartbeat[i] */\n  dup2\n  swap1\n  sstore\n  pop\n    /* \"contracts/mojito/sothebys/FeedData.sol\":1074:1077  i++ */\n  dup1\n  dup1\n  tag_22\n  swap1\n  tag_23\n  jump\t// in\ntag_22:\n  swap2\n  pop\n  pop\n    /* \"contracts/mojito/sothebys/FeedData.sol\":1025:1269  for (uint256 i = 0; i < priceFeedAddress.length; i++) {... */\n  jump(tag_10)\ntag_11:\n  pop\n    /* \"contracts/mojito/sothebys/FeedData.sol\":1286:1296  msg.sender */\n  caller\n    /* \"contracts/mojito/sothebys/FeedData.sol\":1278:1296  owner = msg.sender */\n  0x80\n  mstore\n    /* \"contracts/mojito/sothebys/FeedData.sol\":1306:1311  admin */\n  0x02\n    /* \"contracts/mojito/sothebys/FeedData.sol\":1306:1320  admin = _admin */\n  dup1\n  sload\n  not(sub(shl(0xa0, 0x01), 0x01))\n  and\n  sub(shl(0xa0, 0x01), 0x01)\n  swap3\n  swap1\n  swap3\n  and\n  swap2\n  swap1\n  swap2\n  or\n  swap1\n  sstore\n  pop\n    /* \"contracts/mojito/sothebys/FeedData.sol\":139:3669  contract FeedData {... */\n  tag_30\n  swap2\n  pop\n  pop\n  jump\n    /* \"#utility.yul\":14:141   */\ntag_25:\n    /* \"#utility.yul\":75:85   */\n  0x4e487b71\n    /* \"#utility.yul\":70:73   */\n  0xe0\n    /* \"#utility.yul\":66:86   */\n  shl\n    /* \"#utility.yul\":63:64   */\n  0x00\n    /* \"#utility.yul\":56:87   */\n  mstore\n    /* \"#utility.yul\":106:110   */\n  0x41\n    /* \"#utility.yul\":103:104   */\n  0x04\n    /* \"#utility.yul\":96:111   */\n  mstore\n    /* \"#utility.yul\":130:134   */\n  0x24\n    /* \"#utility.yul\":127:128   */\n  0x00\n    /* \"#utility.yul\":120:135   */\n  revert\n    /* \"#utility.yul\":146:421   */\ntag_26:\n    /* \"#utility.yul\":217:219   */\n  0x40\n    /* \"#utility.yul\":211:220   */\n  mload\n    /* \"#utility.yul\":282:284   */\n  0x1f\n    /* \"#utility.yul\":263:276   */\n  dup3\n  add\n  not(0x1f)\n    /* \"#utility.yul\":259:286   */\n  and\n    /* \"#utility.yul\":247:287   */\n  dup2\n  add\n  sub(shl(0x40, 0x01), 0x01)\n    /* \"#utility.yul\":302:336   */\n  dup2\n  gt\n    /* \"#utility.yul\":338:360   */\n  dup3\n  dup3\n  lt\n    /* \"#utility.yul\":299:361   */\n  or\n    /* \"#utility.yul\":296:384   */\n  iszero\n  tag_34\n  jumpi\n    /* \"#utility.yul\":364:382   */\n  tag_34\n  tag_25\n  jump\t// in\ntag_34:\n    /* \"#utility.yul\":400:402   */\n  0x40\n    /* \"#utility.yul\":393:415   */\n  mstore\n    /* \"#utility.yul\":146:421   */\n  swap2\n  swap1\n  pop\n  jump\t// out\n    /* \"#utility.yul\":426:609   */\ntag_27:\n    /* \"#utility.yul\":486:490   */\n  0x00\n  sub(shl(0x40, 0x01), 0x01)\n    /* \"#utility.yul\":508:538   */\n  dup3\n  gt\n    /* \"#utility.yul\":505:561   */\n  iszero\n  tag_37\n  jumpi\n    /* \"#utility.yul\":541:559   */\n  tag_37\n  tag_25\n  jump\t// in\ntag_37:\n  pop\n    /* \"#utility.yul\":586:587   */\n  0x05\n    /* \"#utility.yul\":582:596   */\n  shl\n    /* \"#utility.yul\":598:602   */\n  0x20\n    /* \"#utility.yul\":578:603   */\n  add\n  swap1\n    /* \"#utility.yul\":426:609   */\n  jump\t// out\n    /* \"#utility.yul\":614:791   */\ntag_28:\n    /* \"#utility.yul\":693:706   */\n  dup1\n  mload\n  sub(shl(0xa0, 0x01), 0x01)\n    /* \"#utility.yul\":735:766   */\n  dup2\n  and\n    /* \"#utility.yul\":725:767   */\n  dup2\n  eq\n    /* \"#utility.yul\":715:785   */\n  tag_39\n  jumpi\n    /* \"#utility.yul\":781:782   */\n  0x00\n    /* \"#utility.yul\":778:779   */\n  dup1\n    /* \"#utility.yul\":771:783   */\n  revert\n    /* \"#utility.yul\":715:785   */\ntag_39:\n    /* \"#utility.yul\":614:791   */\n  swap2\n  swap1\n  pop\n  jump\t// out\n    /* \"#utility.yul\":796:1479   */\ntag_29:\n    /* \"#utility.yul\":861:866   */\n  0x00\n    /* \"#utility.yul\":914:917   */\n  dup3\n    /* \"#utility.yul\":907:911   */\n  0x1f\n    /* \"#utility.yul\":899:905   */\n  dup4\n    /* \"#utility.yul\":895:912   */\n  add\n    /* \"#utility.yul\":891:918   */\n  slt\n    /* \"#utility.yul\":881:936   */\n  tag_41\n  jumpi\n    /* \"#utility.yul\":932:933   */\n  0x00\n    /* \"#utility.yul\":929:930   */\n  dup1\n    /* \"#utility.yul\":922:934   */\n  revert\n    /* \"#utility.yul\":881:936   */\ntag_41:\n    /* \"#utility.yul\":961:967   */\n  dup2\n    /* \"#utility.yul\":955:968   */\n  mload\n    /* \"#utility.yul\":987:991   */\n  0x20\n    /* \"#utility.yul\":1011:1071   */\n  tag_42\n    /* \"#utility.yul\":1027:1070   */\n  tag_43\n    /* \"#utility.yul\":1067:1069   */\n  dup4\n    /* \"#utility.yul\":1027:1070   */\n  tag_27\n  jump\t// in\ntag_43:\n    /* \"#utility.yul\":1011:1071   */\n  tag_26\n  jump\t// in\ntag_42:\n    /* \"#utility.yul\":1105:1120   */\n  dup3\n  dup2\n  mstore\n    /* \"#utility.yul\":1191:1192   */\n  0x05\n    /* \"#utility.yul\":1187:1197   */\n  swap3\n  swap1\n  swap3\n  shl\n    /* \"#utility.yul\":1175:1198   */\n  dup5\n  add\n    /* \"#utility.yul\":1171:1203   */\n  dup2\n  add\n  swap2\n    /* \"#utility.yul\":1136:1148   */\n  dup2\n  dup2\n  add\n  swap1\n    /* \"#utility.yul\":1215:1230   */\n  dup7\n  dup5\n  gt\n    /* \"#utility.yul\":1212:1247   */\n  iszero\n  tag_44\n  jumpi\n    /* \"#utility.yul\":1243:1244   */\n  0x00\n    /* \"#utility.yul\":1240:1241   */\n  dup1\n    /* \"#utility.yul\":1233:1245   */\n  revert\n    /* \"#utility.yul\":1212:1247   */\ntag_44:\n    /* \"#utility.yul\":1279:1281   */\n  dup3\n    /* \"#utility.yul\":1271:1277   */\n  dup7\n    /* \"#utility.yul\":1267:1282   */\n  add\n    /* \"#utility.yul\":1291:1450   */\ntag_45:\n    /* \"#utility.yul\":1307:1313   */\n  dup5\n    /* \"#utility.yul\":1302:1305   */\n  dup2\n    /* \"#utility.yul\":1299:1314   */\n  lt\n    /* \"#utility.yul\":1291:1450   */\n  iszero\n  tag_47\n  jumpi\n    /* \"#utility.yul\":1373:1407   */\n  tag_48\n    /* \"#utility.yul\":1403:1406   */\n  dup2\n    /* \"#utility.yul\":1373:1407   */\n  tag_28\n  jump\t// in\ntag_48:\n    /* \"#utility.yul\":1361:1408   */\n  dup4\n  mstore\n    /* \"#utility.yul\":1428:1440   */\n  swap2\n  dup4\n  add\n  swap2\n    /* \"#utility.yul\":1324:1336   */\n  dup4\n  add\n    /* \"#utility.yul\":1291:1450   */\n  jump(tag_45)\ntag_47:\n  pop\n    /* \"#utility.yul\":1468:1473   */\n  swap7\n    /* \"#utility.yul\":796:1479   */\n  swap6\n  pop\n  pop\n  pop\n  pop\n  pop\n  pop\n  jump\t// out\n    /* \"#utility.yul\":1484:2932   */\ntag_3:\n    /* \"#utility.yul\":1656:1662   */\n  0x00\n    /* \"#utility.yul\":1664:1670   */\n  dup1\n    /* \"#utility.yul\":1672:1678   */\n  0x00\n    /* \"#utility.yul\":1680:1686   */\n  dup1\n    /* \"#utility.yul\":1733:1736   */\n  0x80\n    /* \"#utility.yul\":1721:1730   */\n  dup6\n    /* \"#utility.yul\":1712:1719   */\n  dup8\n    /* \"#utility.yul\":1708:1731   */\n  sub\n    /* \"#utility.yul\":1704:1737   */\n  slt\n    /* \"#utility.yul\":1701:1754   */\n  iszero\n  tag_50\n  jumpi\n    /* \"#utility.yul\":1750:1751   */\n  0x00\n    /* \"#utility.yul\":1747:1748   */\n  dup1\n    /* \"#utility.yul\":1740:1752   */\n  revert\n    /* \"#utility.yul\":1701:1754   */\ntag_50:\n    /* \"#utility.yul\":1777:1793   */\n  dup5\n  mload\n  sub(shl(0x40, 0x01), 0x01)\n    /* \"#utility.yul\":1842:1856   */\n  dup1\n  dup3\n  gt\n    /* \"#utility.yul\":1839:1873   */\n  iszero\n  tag_51\n  jumpi\n    /* \"#utility.yul\":1869:1870   */\n  0x00\n    /* \"#utility.yul\":1866:1867   */\n  dup1\n    /* \"#utility.yul\":1859:1871   */\n  revert\n    /* \"#utility.yul\":1839:1873   */\ntag_51:\n    /* \"#utility.yul\":1892:1964   */\n  tag_52\n    /* \"#utility.yul\":1956:1963   */\n  dup9\n    /* \"#utility.yul\":1947:1953   */\n  dup4\n    /* \"#utility.yul\":1936:1945   */\n  dup10\n    /* \"#utility.yul\":1932:1954   */\n  add\n    /* \"#utility.yul\":1892:1964   */\n  tag_29\n  jump\t// in\ntag_52:\n    /* \"#utility.yul\":1882:1964   */\n  swap6\n  pop\n    /* \"#utility.yul\":1983:1985   */\n  0x20\n    /* \"#utility.yul\":1973:1985   */\n  swap2\n  pop\n    /* \"#utility.yul\":2031:2033   */\n  dup2\n    /* \"#utility.yul\":2020:2029   */\n  dup8\n    /* \"#utility.yul\":2016:2034   */\n  add\n    /* \"#utility.yul\":2010:2035   */\n  mload\n    /* \"#utility.yul\":2060:2062   */\n  dup2\n    /* \"#utility.yul\":2050:2058   */\n  dup2\n    /* \"#utility.yul\":2047:2063   */\n  gt\n    /* \"#utility.yul\":2044:2080   */\n  iszero\n  tag_53\n  jumpi\n    /* \"#utility.yul\":2076:2077   */\n  0x00\n    /* \"#utility.yul\":2073:2074   */\n  dup1\n    /* \"#utility.yul\":2066:2078   */\n  revert\n    /* \"#utility.yul\":2044:2080   */\ntag_53:\n    /* \"#utility.yul\":2099:2173   */\n  tag_54\n    /* \"#utility.yul\":2165:2172   */\n  dup10\n    /* \"#utility.yul\":2154:2162   */\n  dup3\n    /* \"#utility.yul\":2143:2152   */\n  dup11\n    /* \"#utility.yul\":2139:2163   */\n  add\n    /* \"#utility.yul\":2099:2173   */\n  tag_29\n  jump\t// in\ntag_54:\n    /* \"#utility.yul\":2089:2173   */\n  swap6\n  pop\n  pop\n    /* \"#utility.yul\":2219:2221   */\n  0x40\n    /* \"#utility.yul\":2208:2217   */\n  dup8\n    /* \"#utility.yul\":2204:2222   */\n  add\n    /* \"#utility.yul\":2198:2223   */\n  mload\n    /* \"#utility.yul\":2248:2250   */\n  dup2\n    /* \"#utility.yul\":2238:2246   */\n  dup2\n    /* \"#utility.yul\":2235:2251   */\n  gt\n    /* \"#utility.yul\":2232:2268   */\n  iszero\n  tag_55\n  jumpi\n    /* \"#utility.yul\":2264:2265   */\n  0x00\n    /* \"#utility.yul\":2261:2262   */\n  dup1\n    /* \"#utility.yul\":2254:2266   */\n  revert\n    /* \"#utility.yul\":2232:2268   */\ntag_55:\n    /* \"#utility.yul\":2287:2311   */\n  dup8\n  add\n  swap1\n  pop\n    /* \"#utility.yul\":2342:2346   */\n  0x1f\n    /* \"#utility.yul\":2334:2347   */\n  dup2\n  add\n    /* \"#utility.yul\":2330:2357   */\n  dup9\n  sgt\n    /* \"#utility.yul\":2320:2375   */\n  tag_56\n  jumpi\n    /* \"#utility.yul\":2371:2372   */\n  0x00\n    /* \"#utility.yul\":2368:2369   */\n  dup1\n    /* \"#utility.yul\":2361:2373   */\n  revert\n    /* \"#utility.yul\":2320:2375   */\ntag_56:\n    /* \"#utility.yul\":2400:2402   */\n  dup1\n    /* \"#utility.yul\":2394:2403   */\n  mload\n    /* \"#utility.yul\":2423:2483   */\n  tag_57\n    /* \"#utility.yul\":2439:2482   */\n  tag_43\n    /* \"#utility.yul\":2479:2481   */\n  dup3\n    /* \"#utility.yul\":2439:2482   */\n  tag_27\n  jump\t// in\n    /* \"#utility.yul\":2423:2483   */\ntag_57:\n    /* \"#utility.yul\":2517:2532   */\n  dup2\n  dup2\n  mstore\n    /* \"#utility.yul\":2599:2600   */\n  0x05\n    /* \"#utility.yul\":2595:2605   */\n  swap2\n  swap1\n  swap2\n  shl\n    /* \"#utility.yul\":2587:2606   */\n  dup3\n  add\n    /* \"#utility.yul\":2583:2611   */\n  dup4\n  add\n  swap1\n    /* \"#utility.yul\":2548:2560   */\n  dup4\n  dup2\n  add\n  swap1\n    /* \"#utility.yul\":2623:2642   */\n  dup11\n  dup4\n  gt\n    /* \"#utility.yul\":2620:2659   */\n  iszero\n  tag_59\n  jumpi\n    /* \"#utility.yul\":2655:2656   */\n  0x00\n    /* \"#utility.yul\":2652:2653   */\n  dup1\n    /* \"#utility.yul\":2645:2657   */\n  revert\n    /* \"#utility.yul\":2620:2659   */\ntag_59:\n    /* \"#utility.yul\":2679:2690   */\n  swap3\n  dup5\n  add\n  swap3\n    /* \"#utility.yul\":2699:2834   */\ntag_60:\n    /* \"#utility.yul\":2715:2721   */\n  dup3\n    /* \"#utility.yul\":2710:2713   */\n  dup5\n    /* \"#utility.yul\":2707:2722   */\n  lt\n    /* \"#utility.yul\":2699:2834   */\n  iszero\n  tag_62\n  jumpi\n    /* \"#utility.yul\":2781:2791   */\n  dup4\n  mload\n    /* \"#utility.yul\":2769:2792   */\n  dup3\n  mstore\n    /* \"#utility.yul\":2732:2744   */\n  swap3\n  dup5\n  add\n  swap3\n    /* \"#utility.yul\":2812:2824   */\n  swap1\n  dup5\n  add\n  swap1\n    /* \"#utility.yul\":2699:2834   */\n  jump(tag_60)\ntag_62:\n    /* \"#utility.yul\":2853:2858   */\n  dup1\n    /* \"#utility.yul\":2843:2858   */\n  swap7\n  pop\n  pop\n  pop\n  pop\n  pop\n  pop\n    /* \"#utility.yul\":2877:2926   */\n  tag_63\n    /* \"#utility.yul\":2922:2924   */\n  0x60\n    /* \"#utility.yul\":2911:2920   */\n  dup7\n    /* \"#utility.yul\":2907:2925   */\n  add\n    /* \"#utility.yul\":2877:2926   */\n  tag_28\n  jump\t// in\ntag_63:\n    /* \"#utility.yul\":2867:2926   */\n  swap1\n  pop\n    /* \"#utility.yul\":1484:2932   */\n  swap3\n  swap6\n  swap2\n  swap5\n  pop\n  swap3\n  pop\n  jump\t// out\n    /* \"#utility.yul\":3298:3425   */\ntag_15:\n    /* \"#utility.yul\":3359:3369   */\n  0x4e487b71\n    /* \"#utility.yul\":3354:3357   */\n  0xe0\n    /* \"#utility.yul\":3350:3370   */\n  shl\n    /* \"#utility.yul\":3347:3348   */\n  0x00\n    /* \"#utility.yul\":3340:3371   */\n  mstore\n    /* \"#utility.yul\":3390:3394   */\n  0x32\n    /* \"#utility.yul\":3387:3388   */\n  0x04\n    /* \"#utility.yul\":3380:3395   */\n  mstore\n    /* \"#utility.yul\":3414:3418   */\n  0x24\n    /* \"#utility.yul\":3411:3412   */\n  0x00\n    /* \"#utility.yul\":3404:3419   */\n  revert\n    /* \"#utility.yul\":3430:3662   */\ntag_23:\n    /* \"#utility.yul\":3469:3472   */\n  0x00\n    /* \"#utility.yul\":3490:3507   */\n  0x01\n  dup3\n  add\n    /* \"#utility.yul\":3487:3627   */\n  tag_67\n  jumpi\n    /* \"#utility.yul\":3549:3559   */\n  0x4e487b71\n    /* \"#utility.yul\":3544:3547   */\n  0xe0\n    /* \"#utility.yul\":3540:3560   */\n  shl\n    /* \"#utility.yul\":3537:3538   */\n  0x00\n    /* \"#utility.yul\":3530:3561   */\n  mstore\n    /* \"#utility.yul\":3584:3588   */\n  0x11\n    /* \"#utility.yul\":3581:3582   */\n  0x04\n    /* \"#utility.yul\":3574:3589   */\n  mstore\n    /* \"#utility.yul\":3612:3616   */\n  0x24\n    /* \"#utility.yul\":3609:3610   */\n  0x00\n    /* \"#utility.yul\":3602:3617   */\n  revert\n    /* \"#utility.yul\":3487:3627   */\ntag_67:\n  pop\n    /* \"#utility.yul\":3654:3655   */\n  0x01\n    /* \"#utility.yul\":3643:3656   */\n  add\n  swap1\n    /* \"#utility.yul\":3430:3662   */\n  jump\t// out\ntag_30:\n    /* \"contracts/mojito/sothebys/FeedData.sol\":139:3669  contract FeedData {... */\n  mload(0x80)\n  codecopy(0x00, dataOffset(sub_0), dataSize(sub_0))\n  0x00\n  assignImmutable(\"0x5ae62207e7adee0b793bf869601474e77943fa4d9e3e0420f34d788e59bc19bd\")\n  return(0x00, dataSize(sub_0))\nstop\n\nsub_0: assembly {\n        /* \"contracts/mojito/sothebys/FeedData.sol\":139:3669  contract FeedData {... */\n      mstore(0x40, 0x80)\n      callvalue\n      dup1\n      iszero\n      tag_1\n      jumpi\n      0x00\n      dup1\n      revert\n    tag_1:\n      pop\n      jumpi(tag_2, lt(calldatasize, 0x04))\n      shr(0xe0, calldataload(0x00))\n      dup1\n      0x0acdf860\n      eq\n      tag_3\n      jumpi\n      dup1\n      0x3a403058\n      eq\n      tag_4\n      jumpi\n      dup1\n      0x8da5cb5b\n      eq\n      tag_5\n      jumpi\n      dup1\n      0xf851a440\n      eq\n      tag_6\n      jumpi\n      dup1\n      0xfe8c1539\n      eq\n      tag_7\n      jumpi\n    tag_2:\n      0x00\n      dup1\n      revert\n        /* \"contracts/mojito/sothebys/FeedData.sol\":3386:3667  function updateheartbeat(address currencyAddress, uint256 heartBeat)... */\n    tag_3:\n      tag_8\n      tag_9\n      calldatasize\n      0x04\n      tag_10\n      jump\t// in\n    tag_9:\n      tag_11\n      jump\t// in\n    tag_8:\n      stop\n        /* \"contracts/mojito/sothebys/FeedData.sol\":1493:2368  function getLatestPrice(uint256 amount, address fiat)... */\n    tag_4:\n      tag_12\n      tag_13\n      calldatasize\n      0x04\n      tag_14\n      jump\t// in\n    tag_13:\n      tag_15\n      jump\t// in\n    tag_12:\n      mload(0x40)\n        /* \"#utility.yul\":856:881   */\n      swap1\n      dup2\n      mstore\n        /* \"#utility.yul\":844:846   */\n      0x20\n        /* \"#utility.yul\":829:847   */\n      add\n        /* \"contracts/mojito/sothebys/FeedData.sol\":1493:2368  function getLatestPrice(uint256 amount, address fiat)... */\n    tag_16:\n      mload(0x40)\n      dup1\n      swap2\n      sub\n      swap1\n      return\n        /* \"contracts/mojito/sothebys/FeedData.sol\":428:458  address public immutable owner */\n    tag_5:\n      tag_18\n      immutable(\"0x5ae62207e7adee0b793bf869601474e77943fa4d9e3e0420f34d788e59bc19bd\")\n      dup2\n      jump\n    tag_18:\n      mload(0x40)\n      sub(shl(0xa0, 0x01), 0x01)\n        /* \"#utility.yul\":1056:1088   */\n      swap1\n      swap2\n      and\n        /* \"#utility.yul\":1038:1089   */\n      dup2\n      mstore\n        /* \"#utility.yul\":1026:1028   */\n      0x20\n        /* \"#utility.yul\":1011:1029   */\n      add\n        /* \"contracts/mojito/sothebys/FeedData.sol\":428:458  address public immutable owner */\n      tag_16\n        /* \"#utility.yul\":892:1095   */\n      jump\n        /* \"contracts/mojito/sothebys/FeedData.sol\":493:513  address public admin */\n    tag_6:\n      sload(0x02)\n      tag_18\n      swap1\n      sub(shl(0xa0, 0x01), 0x01)\n      and\n      dup2\n      jump\n        /* \"contracts/mojito/sothebys/FeedData.sol\":2581:3183  function updatePriceFeedAddress(... */\n    tag_7:\n      tag_8\n      tag_26\n      calldatasize\n      0x04\n      tag_27\n      jump\t// in\n    tag_26:\n      tag_28\n      jump\t// in\n        /* \"contracts/mojito/sothebys/FeedData.sol\":3386:3667  function updateheartbeat(address currencyAddress, uint256 heartBeat)... */\n    tag_11:\n        /* \"contracts/mojito/sothebys/FeedData.sol\":3521:3526  admin */\n      and(sub(shl(0xa0, 0x01), 0x01), sload(0x02))\n        /* \"contracts/mojito/sothebys/FeedData.sol\":3507:3517  msg.sender */\n      caller\n        /* \"contracts/mojito/sothebys/FeedData.sol\":3507:3526  msg.sender == admin */\n      eq\n      dup1\n        /* \"contracts/mojito/sothebys/FeedData.sol\":3507:3549  msg.sender == admin || msg.sender == owner */\n      tag_30\n      jumpi\n      pop\n        /* \"contracts/mojito/sothebys/FeedData.sol\":3530:3540  msg.sender */\n      caller\n      sub(shl(0xa0, 0x01), 0x01)\n        /* \"contracts/mojito/sothebys/FeedData.sol\":3544:3549  owner */\n      immutable(\"0x5ae62207e7adee0b793bf869601474e77943fa4d9e3e0420f34d788e59bc19bd\")\n        /* \"contracts/mojito/sothebys/FeedData.sol\":3530:3549  msg.sender == owner */\n      and\n      eq\n        /* \"contracts/mojito/sothebys/FeedData.sol\":3507:3549  msg.sender == admin || msg.sender == owner */\n    tag_30:\n        /* \"contracts/mojito/sothebys/FeedData.sol\":3486:3609  require(... */\n      tag_31\n      jumpi\n      mload(0x40)\n      shl(0xe5, 0x461bcd)\n      dup2\n      mstore\n      0x04\n      add\n      tag_32\n      swap1\n      tag_33\n      jump\t// in\n    tag_32:\n      mload(0x40)\n      dup1\n      swap2\n      sub\n      swap1\n      revert\n    tag_31:\n      sub(shl(0xa0, 0x01), 0x01)\n        /* \"contracts/mojito/sothebys/FeedData.sol\":3619:3648  timeInterval[currencyAddress] */\n      swap1\n      swap2\n      and\n      0x00\n      swap1\n      dup2\n      mstore\n        /* \"contracts/mojito/sothebys/FeedData.sol\":3619:3631  timeInterval */\n      0x01\n        /* \"contracts/mojito/sothebys/FeedData.sol\":3619:3648  timeInterval[currencyAddress] */\n      0x20\n      mstore\n      0x40\n      swap1\n      keccak256\n        /* \"contracts/mojito/sothebys/FeedData.sol\":3619:3660  timeInterval[currencyAddress] = heartBeat */\n      sstore\n        /* \"contracts/mojito/sothebys/FeedData.sol\":3386:3667  function updateheartbeat(address currencyAddress, uint256 heartBeat)... */\n      jump\t// out\n        /* \"contracts/mojito/sothebys/FeedData.sol\":1493:2368  function getLatestPrice(uint256 amount, address fiat)... */\n    tag_15:\n      sub(shl(0xa0, 0x01), 0x01)\n        /* \"contracts/mojito/sothebys/FeedData.sol\":1644:1659  priceFeed[fiat] */\n      dup2\n      dup2\n      and\n        /* \"contracts/mojito/sothebys/FeedData.sol\":1594:1607  uint256 value */\n      0x00\n        /* \"contracts/mojito/sothebys/FeedData.sol\":1644:1659  priceFeed[fiat] */\n      swap1\n      dup2\n      mstore\n      0x20\n      dup2\n      swap1\n      mstore\n      0x40\n      dup2\n      keccak256\n      sload\n        /* \"contracts/mojito/sothebys/FeedData.sol\":1594:1607  uint256 value */\n      swap1\n      swap2\n        /* \"contracts/mojito/sothebys/FeedData.sol\":1644:1659  priceFeed[fiat] */\n      and\n        /* \"contracts/mojito/sothebys/FeedData.sol\":1623:1808  require(... */\n      tag_35\n      jumpi\n      mload(0x40)\n      shl(0xe5, 0x461bcd)\n      dup2\n      mstore\n        /* \"#utility.yul\":3350:3352   */\n      0x20\n        /* \"contracts/mojito/sothebys/FeedData.sol\":1623:1808  require(... */\n      0x04\n      dup3\n      add\n        /* \"#utility.yul\":3332:3353   */\n      mstore\n        /* \"#utility.yul\":3389:3391   */\n      0x56\n        /* \"#utility.yul\":3369:3387   */\n      0x24\n      dup3\n      add\n        /* \"#utility.yul\":3362:3392   */\n      mstore\n        /* \"#utility.yul\":3428:3462   */\n      0x436861696e6c696e6b46656564206973206e6f7420617661696c61626c652e20\n        /* \"#utility.yul\":3408:3426   */\n      0x44\n      dup3\n      add\n        /* \"#utility.yul\":3401:3463   */\n      mstore\n        /* \"#utility.yul\":3499:3533   */\n      0x506c656173652070726f766964652076616c696420636861696e6c696e6b2073\n        /* \"#utility.yul\":3479:3497   */\n      0x64\n      dup3\n      add\n        /* \"#utility.yul\":3472:3534   */\n      mstore\n      shl(0x50, 0x7570706f727465642045524332302061646472657373)\n        /* \"#utility.yul\":3550:3569   */\n      0x84\n      dup3\n      add\n        /* \"#utility.yul\":3543:3596   */\n      mstore\n        /* \"#utility.yul\":3613:3632   */\n      0xa4\n      add\n        /* \"contracts/mojito/sothebys/FeedData.sol\":1623:1808  require(... */\n      tag_32\n        /* \"#utility.yul\":3148:3638   */\n      jump\n        /* \"contracts/mojito/sothebys/FeedData.sol\":1623:1808  require(... */\n    tag_35:\n      sub(shl(0xa0, 0x01), 0x01)\n        /* \"contracts/mojito/sothebys/FeedData.sol\":1906:1921  priceFeed[fiat] */\n      dup1\n      dup4\n      and\n        /* \"contracts/mojito/sothebys/FeedData.sol\":1867:1879  int256 price */\n      0x00\n        /* \"contracts/mojito/sothebys/FeedData.sol\":1906:1921  priceFeed[fiat] */\n      swap1\n      dup2\n      mstore\n      0x20\n      dup2\n      swap1\n      mstore\n      0x40\n      dup1\n      dup3\n      keccak256\n      sload\n        /* \"contracts/mojito/sothebys/FeedData.sol\":1906:1952  priceFeed[fiat]... */\n      dup2\n      mload\n      shl(0xe2, 0x3fabe5a3)\n      dup2\n      mstore\n      swap2\n      mload\n        /* \"contracts/mojito/sothebys/FeedData.sol\":1867:1879  int256 price */\n      swap3\n      swap4\n      dup5\n      swap4\n        /* \"contracts/mojito/sothebys/FeedData.sol\":1906:1921  priceFeed[fiat] */\n      swap2\n      and\n      swap2\n        /* \"contracts/mojito/sothebys/FeedData.sol\":1906:1950  priceFeed[fiat]... */\n      0xfeaf968c\n      swap2\n        /* \"contracts/mojito/sothebys/FeedData.sol\":1906:1952  priceFeed[fiat]... */\n      0x04\n      dup1\n      dup4\n      add\n      swap3\n      0xa0\n      swap3\n      swap2\n      swap1\n      dup3\n      swap1\n      sub\n      add\n      dup2\n        /* \"contracts/mojito/sothebys/FeedData.sol\":1906:1921  priceFeed[fiat] */\n      dup7\n        /* \"contracts/mojito/sothebys/FeedData.sol\":1906:1952  priceFeed[fiat]... */\n      gas\n      staticcall\n      iszero\n      dup1\n      iszero\n      tag_39\n      jumpi\n      returndatasize\n      0x00\n      dup1\n      returndatacopy\n      revert(0x00, returndatasize)\n    tag_39:\n      pop\n      pop\n      pop\n      pop\n      mload(0x40)\n      returndatasize\n      not(0x1f)\n      0x1f\n      dup3\n      add\n      and\n      dup3\n      add\n      dup1\n      0x40\n      mstore\n      pop\n      dup2\n      add\n      swap1\n      tag_40\n      swap2\n      swap1\n      tag_41\n      jump\t// in\n    tag_40:\n        /* \"contracts/mojito/sothebys/FeedData.sol\":1864:1952  (, int256 price, , , uint256 updatedAt) = priceFeed[fiat]... */\n      0xffffffffffffffffffff\n      and\n      swap5\n      pop\n      pop\n      pop\n      swap3\n      pop\n      pop\n        /* \"contracts/mojito/sothebys/FeedData.sol\":2003:2015  timeInterval */\n      0x01\n        /* \"contracts/mojito/sothebys/FeedData.sol\":2003:2021  timeInterval[fiat] */\n      0x00\n        /* \"contracts/mojito/sothebys/FeedData.sol\":2016:2020  fiat */\n      dup6\n      sub(shl(0xa0, 0x01), 0x01)\n        /* \"contracts/mojito/sothebys/FeedData.sol\":2003:2021  timeInterval[fiat] */\n      and\n      sub(shl(0xa0, 0x01), 0x01)\n      and\n      dup2\n      mstore\n      0x20\n      add\n      swap1\n      dup2\n      mstore\n      0x20\n      add\n      0x00\n      keccak256\n      sload\n        /* \"contracts/mojito/sothebys/FeedData.sol\":2025:2026  0 */\n      0x00\n        /* \"contracts/mojito/sothebys/FeedData.sol\":2003:2026  timeInterval[fiat] != 0 */\n      sub\n        /* \"contracts/mojito/sothebys/FeedData.sol\":1995:2064  require(timeInterval[fiat] != 0, \"update heartbeat for the currency\") */\n      tag_42\n      jumpi\n      mload(0x40)\n      shl(0xe5, 0x461bcd)\n      dup2\n      mstore\n        /* \"#utility.yul\":4507:4509   */\n      0x20\n        /* \"contracts/mojito/sothebys/FeedData.sol\":1995:2064  require(timeInterval[fiat] != 0, \"update heartbeat for the currency\") */\n      0x04\n      dup3\n      add\n        /* \"#utility.yul\":4489:4510   */\n      mstore\n        /* \"#utility.yul\":4546:4548   */\n      0x21\n        /* \"#utility.yul\":4526:4544   */\n      0x24\n      dup3\n      add\n        /* \"#utility.yul\":4519:4549   */\n      mstore\n        /* \"#utility.yul\":4585:4619   */\n      0x7570646174652068656172746265617420666f72207468652063757272656e63\n        /* \"#utility.yul\":4565:4583   */\n      0x44\n      dup3\n      add\n        /* \"#utility.yul\":4558:4620   */\n      mstore\n      shl(0xf8, 0x79)\n        /* \"#utility.yul\":4636:4654   */\n      0x64\n      dup3\n      add\n        /* \"#utility.yul\":4629:4660   */\n      mstore\n        /* \"#utility.yul\":4677:4696   */\n      0x84\n      add\n        /* \"contracts/mojito/sothebys/FeedData.sol\":1995:2064  require(timeInterval[fiat] != 0, \"update heartbeat for the currency\") */\n      tag_32\n        /* \"#utility.yul\":4305:4702   */\n      jump\n        /* \"contracts/mojito/sothebys/FeedData.sol\":1995:2064  require(timeInterval[fiat] != 0, \"update heartbeat for the currency\") */\n    tag_42:\n      sub(shl(0xa0, 0x01), 0x01)\n        /* \"contracts/mojito/sothebys/FeedData.sol\":2127:2145  timeInterval[fiat] */\n      dup5\n      and\n      0x00\n      swap1\n      dup2\n      mstore\n        /* \"contracts/mojito/sothebys/FeedData.sol\":2127:2139  timeInterval */\n      0x01\n        /* \"contracts/mojito/sothebys/FeedData.sol\":2127:2145  timeInterval[fiat] */\n      0x20\n      mstore\n      0x40\n      swap1\n      keccak256\n      sload\n        /* \"contracts/mojito/sothebys/FeedData.sol\":2115:2145  updatedAt + timeInterval[fiat] */\n      tag_45\n      swap1\n        /* \"contracts/mojito/sothebys/FeedData.sol\":2115:2124  updatedAt */\n      dup3\n        /* \"contracts/mojito/sothebys/FeedData.sol\":2115:2145  updatedAt + timeInterval[fiat] */\n      tag_46\n      jump\t// in\n    tag_45:\n        /* \"contracts/mojito/sothebys/FeedData.sol\":2095:2110  block.timestamp */\n      timestamp\n        /* \"contracts/mojito/sothebys/FeedData.sol\":2095:2146  block.timestamp <= (updatedAt + timeInterval[fiat]) */\n      gt\n      iszero\n        /* \"contracts/mojito/sothebys/FeedData.sol\":2074:2214  require(... */\n      tag_47\n      jumpi\n      mload(0x40)\n      shl(0xe5, 0x461bcd)\n      dup2\n      mstore\n        /* \"#utility.yul\":5171:5173   */\n      0x20\n        /* \"contracts/mojito/sothebys/FeedData.sol\":2074:2214  require(... */\n      0x04\n      dup3\n      add\n        /* \"#utility.yul\":5153:5174   */\n      mstore\n        /* \"#utility.yul\":5210:5212   */\n      0x2a\n        /* \"#utility.yul\":5190:5208   */\n      0x24\n      dup3\n      add\n        /* \"#utility.yul\":5183:5213   */\n      mstore\n        /* \"#utility.yul\":5249:5283   */\n      0x636861696e666565642064617461206e6f74207570646174656420696e206465\n        /* \"#utility.yul\":5229:5247   */\n      0x44\n      dup3\n      add\n        /* \"#utility.yul\":5222:5284   */\n      mstore\n      shl(0xb0, 0x72697665642074696d65)\n        /* \"#utility.yul\":5300:5318   */\n      0x64\n      dup3\n      add\n        /* \"#utility.yul\":5293:5333   */\n      mstore\n        /* \"#utility.yul\":5350:5369   */\n      0x84\n      add\n        /* \"contracts/mojito/sothebys/FeedData.sol\":2074:2214  require(... */\n      tag_32\n        /* \"#utility.yul\":4969:5375   */\n      jump\n        /* \"contracts/mojito/sothebys/FeedData.sol\":2074:2214  require(... */\n    tag_47:\n        /* \"contracts/mojito/sothebys/FeedData.sol\":2272:2291  uint256 USDinCRYPTO */\n      0x00\n        /* \"contracts/mojito/sothebys/FeedData.sol\":2324:2329  price */\n      dup3\n        /* \"contracts/mojito/sothebys/FeedData.sol\":2296:2311  amount * 10**26 */\n      tag_50\n        /* \"contracts/mojito/sothebys/FeedData.sol\":2296:2302  amount */\n      dup8\n        /* \"contracts/mojito/sothebys/FeedData.sol\":2305:2311  10**26 */\n      0x52b7d2dcc80cd2e4000000\n        /* \"contracts/mojito/sothebys/FeedData.sol\":2296:2311  amount * 10**26 */\n      tag_51\n      jump\t// in\n    tag_50:\n        /* \"contracts/mojito/sothebys/FeedData.sol\":2295:2331  (amount * 10**26) / (uint256(price)) */\n      tag_52\n      swap2\n      swap1\n      tag_53\n      jump\t// in\n    tag_52:\n        /* \"contracts/mojito/sothebys/FeedData.sol\":2272:2332  uint256 USDinCRYPTO = ((amount * 10**26) / (uint256(price))) */\n      swap4\n      pop\n      pop\n      pop\n      pop\n        /* \"contracts/mojito/sothebys/FeedData.sol\":1493:2368  function getLatestPrice(uint256 amount, address fiat)... */\n    tag_34:\n      swap3\n      swap2\n      pop\n      pop\n      jump\t// out\n        /* \"contracts/mojito/sothebys/FeedData.sol\":2581:3183  function updatePriceFeedAddress(... */\n    tag_28:\n        /* \"contracts/mojito/sothebys/FeedData.sol\":2758:2763  admin */\n      and(sub(shl(0xa0, 0x01), 0x01), sload(0x02))\n        /* \"contracts/mojito/sothebys/FeedData.sol\":2744:2754  msg.sender */\n      caller\n        /* \"contracts/mojito/sothebys/FeedData.sol\":2744:2763  msg.sender == admin */\n      eq\n      dup1\n        /* \"contracts/mojito/sothebys/FeedData.sol\":2744:2786  msg.sender == admin || msg.sender == owner */\n      tag_55\n      jumpi\n      pop\n        /* \"contracts/mojito/sothebys/FeedData.sol\":2767:2777  msg.sender */\n      caller\n      sub(shl(0xa0, 0x01), 0x01)\n        /* \"contracts/mojito/sothebys/FeedData.sol\":2781:2786  owner */\n      immutable(\"0x5ae62207e7adee0b793bf869601474e77943fa4d9e3e0420f34d788e59bc19bd\")\n        /* \"contracts/mojito/sothebys/FeedData.sol\":2767:2786  msg.sender == owner */\n      and\n      eq\n        /* \"contracts/mojito/sothebys/FeedData.sol\":2744:2786  msg.sender == admin || msg.sender == owner */\n    tag_55:\n        /* \"contracts/mojito/sothebys/FeedData.sol\":2723:2846  require(... */\n      tag_56\n      jumpi\n      mload(0x40)\n      shl(0xe5, 0x461bcd)\n      dup2\n      mstore\n      0x04\n      add\n      tag_32\n      swap1\n      tag_33\n      jump\t// in\n    tag_56:\n        /* \"contracts/mojito/sothebys/FeedData.sol\":2904:2919  currencyAddress */\n      dup1\n        /* \"contracts/mojito/sothebys/FeedData.sol\":2904:2926  currencyAddress.length */\n      mload\n        /* \"contracts/mojito/sothebys/FeedData.sol\":2877:2893  priceFeedAddress */\n      dup3\n        /* \"contracts/mojito/sothebys/FeedData.sol\":2877:2900  priceFeedAddress.length */\n      mload\n        /* \"contracts/mojito/sothebys/FeedData.sol\":2877:2926  priceFeedAddress.length == currencyAddress.length */\n      eq\n        /* \"contracts/mojito/sothebys/FeedData.sol\":2856:2984  require(... */\n      tag_58\n      jumpi\n      mload(0x40)\n      shl(0xe5, 0x461bcd)\n      dup2\n      mstore\n        /* \"#utility.yul\":5977:5979   */\n      0x20\n        /* \"contracts/mojito/sothebys/FeedData.sol\":2856:2984  require(... */\n      0x04\n      dup3\n      add\n        /* \"#utility.yul\":5959:5980   */\n      dup2\n      swap1\n      mstore\n        /* \"#utility.yul\":5996:6014   */\n      0x24\n      dup3\n      add\n        /* \"#utility.yul\":5989:6019   */\n      mstore\n        /* \"#utility.yul\":6055:6089   */\n      0x417272617973206d7573742068617665207468652073616d65206c656e677468\n        /* \"#utility.yul\":6035:6053   */\n      0x44\n      dup3\n      add\n        /* \"#utility.yul\":6028:6090   */\n      mstore\n        /* \"#utility.yul\":6107:6125   */\n      0x64\n      add\n        /* \"contracts/mojito/sothebys/FeedData.sol\":2856:2984  require(... */\n      tag_32\n        /* \"#utility.yul\":5775:6131   */\n      jump\n        /* \"contracts/mojito/sothebys/FeedData.sol\":2856:2984  require(... */\n    tag_58:\n        /* \"contracts/mojito/sothebys/FeedData.sol\":2999:3008  uint256 i */\n      0x00\n        /* \"contracts/mojito/sothebys/FeedData.sol\":2994:3177  for (uint256 i = 0; i < priceFeedAddress.length; i++) {... */\n    tag_61:\n        /* \"contracts/mojito/sothebys/FeedData.sol\":3018:3034  priceFeedAddress */\n      dup3\n        /* \"contracts/mojito/sothebys/FeedData.sol\":3018:3041  priceFeedAddress.length */\n      mload\n        /* \"contracts/mojito/sothebys/FeedData.sol\":3014:3015  i */\n      dup2\n        /* \"contracts/mojito/sothebys/FeedData.sol\":3014:3041  i < priceFeedAddress.length */\n      lt\n        /* \"contracts/mojito/sothebys/FeedData.sol\":2994:3177  for (uint256 i = 0; i < priceFeedAddress.length; i++) {... */\n      iszero\n      tag_62\n      jumpi\n        /* \"contracts/mojito/sothebys/FeedData.sol\":3133:3149  priceFeedAddress */\n      dup3\n        /* \"contracts/mojito/sothebys/FeedData.sol\":3150:3151  i */\n      dup2\n        /* \"contracts/mojito/sothebys/FeedData.sol\":3133:3152  priceFeedAddress[i] */\n      dup2\n      mload\n      dup2\n      lt\n      tag_65\n      jumpi\n      tag_65\n      tag_66\n      jump\t// in\n    tag_65:\n      0x20\n      mul\n      0x20\n      add\n      add\n      mload\n        /* \"contracts/mojito/sothebys/FeedData.sol\":3062:3071  priceFeed */\n      0x00\n        /* \"contracts/mojito/sothebys/FeedData.sol\":3062:3091  priceFeed[currencyAddress[i]] */\n      dup1\n        /* \"contracts/mojito/sothebys/FeedData.sol\":3072:3087  currencyAddress */\n      dup5\n        /* \"contracts/mojito/sothebys/FeedData.sol\":3088:3089  i */\n      dup5\n        /* \"contracts/mojito/sothebys/FeedData.sol\":3072:3090  currencyAddress[i] */\n      dup2\n      mload\n      dup2\n      lt\n      tag_68\n      jumpi\n      tag_68\n      tag_66\n      jump\t// in\n    tag_68:\n      0x20\n      mul\n      0x20\n      add\n      add\n      mload\n      sub(shl(0xa0, 0x01), 0x01)\n        /* \"contracts/mojito/sothebys/FeedData.sol\":3062:3091  priceFeed[currencyAddress[i]] */\n      and\n      sub(shl(0xa0, 0x01), 0x01)\n      and\n      dup2\n      mstore\n      0x20\n      add\n      swap1\n      dup2\n      mstore\n      0x20\n      add\n      0x00\n      keccak256\n      0x00\n        /* \"contracts/mojito/sothebys/FeedData.sol\":3062:3166  priceFeed[currencyAddress[i]] = AggregatorV3Interface(... */\n      0x0100\n      exp\n      dup2\n      sload\n      dup2\n      sub(shl(0xa0, 0x01), 0x01)\n      mul\n      not\n      and\n      swap1\n      dup4\n      sub(shl(0xa0, 0x01), 0x01)\n      and\n      mul\n      or\n      swap1\n      sstore\n      pop\n        /* \"contracts/mojito/sothebys/FeedData.sol\":3043:3046  i++ */\n      dup1\n      dup1\n      tag_69\n      swap1\n      tag_70\n      jump\t// in\n    tag_69:\n      swap2\n      pop\n      pop\n        /* \"contracts/mojito/sothebys/FeedData.sol\":2994:3177  for (uint256 i = 0; i < priceFeedAddress.length; i++) {... */\n      jump(tag_61)\n    tag_62:\n      pop\n        /* \"contracts/mojito/sothebys/FeedData.sol\":2581:3183  function updatePriceFeedAddress(... */\n      pop\n      pop\n      jump\t// out\n        /* \"#utility.yul\":14:187   */\n    tag_71:\n        /* \"#utility.yul\":82:102   */\n      dup1\n      calldataload\n      sub(shl(0xa0, 0x01), 0x01)\n        /* \"#utility.yul\":131:162   */\n      dup2\n      and\n        /* \"#utility.yul\":121:163   */\n      dup2\n      eq\n        /* \"#utility.yul\":111:181   */\n      tag_78\n      jumpi\n        /* \"#utility.yul\":177:178   */\n      0x00\n        /* \"#utility.yul\":174:175   */\n      dup1\n        /* \"#utility.yul\":167:179   */\n      revert\n        /* \"#utility.yul\":111:181   */\n    tag_78:\n        /* \"#utility.yul\":14:187   */\n      swap2\n      swap1\n      pop\n      jump\t// out\n        /* \"#utility.yul\":192:446   */\n    tag_10:\n        /* \"#utility.yul\":260:266   */\n      0x00\n        /* \"#utility.yul\":268:274   */\n      dup1\n        /* \"#utility.yul\":321:323   */\n      0x40\n        /* \"#utility.yul\":309:318   */\n      dup4\n        /* \"#utility.yul\":300:307   */\n      dup6\n        /* \"#utility.yul\":296:319   */\n      sub\n        /* \"#utility.yul\":292:324   */\n      slt\n        /* \"#utility.yul\":289:341   */\n      iszero\n      tag_80\n      jumpi\n        /* \"#utility.yul\":337:338   */\n      0x00\n        /* \"#utility.yul\":334:335   */\n      dup1\n        /* \"#utility.yul\":327:339   */\n      revert\n        /* \"#utility.yul\":289:341   */\n    tag_80:\n        /* \"#utility.yul\":360:389   */\n      tag_81\n        /* \"#utility.yul\":379:388   */\n      dup4\n        /* \"#utility.yul\":360:389   */\n      tag_71\n      jump\t// in\n    tag_81:\n        /* \"#utility.yul\":350:389   */\n      swap5\n        /* \"#utility.yul\":436:438   */\n      0x20\n        /* \"#utility.yul\":421:439   */\n      swap4\n      swap1\n      swap4\n      add\n        /* \"#utility.yul\":408:440   */\n      calldataload\n      swap4\n      pop\n      pop\n      pop\n        /* \"#utility.yul\":192:446   */\n      jump\t// out\n        /* \"#utility.yul\":451:705   */\n    tag_14:\n        /* \"#utility.yul\":519:525   */\n      0x00\n        /* \"#utility.yul\":527:533   */\n      dup1\n        /* \"#utility.yul\":580:582   */\n      0x40\n        /* \"#utility.yul\":568:577   */\n      dup4\n        /* \"#utility.yul\":559:566   */\n      dup6\n        /* \"#utility.yul\":555:578   */\n      sub\n        /* \"#utility.yul\":551:583   */\n      slt\n        /* \"#utility.yul\":548:600   */\n      iszero\n      tag_83\n      jumpi\n        /* \"#utility.yul\":596:597   */\n      0x00\n        /* \"#utility.yul\":593:594   */\n      dup1\n        /* \"#utility.yul\":586:598   */\n      revert\n        /* \"#utility.yul\":548:600   */\n    tag_83:\n        /* \"#utility.yul\":632:641   */\n      dup3\n        /* \"#utility.yul\":619:642   */\n      calldataload\n        /* \"#utility.yul\":609:642   */\n      swap2\n      pop\n        /* \"#utility.yul\":661:699   */\n      tag_84\n        /* \"#utility.yul\":695:697   */\n      0x20\n        /* \"#utility.yul\":684:693   */\n      dup5\n        /* \"#utility.yul\":680:698   */\n      add\n        /* \"#utility.yul\":661:699   */\n      tag_71\n      jump\t// in\n    tag_84:\n        /* \"#utility.yul\":651:699   */\n      swap1\n      pop\n        /* \"#utility.yul\":451:705   */\n      swap3\n      pop\n      swap3\n      swap1\n      pop\n      jump\t// out\n        /* \"#utility.yul\":1100:1227   */\n    tag_72:\n        /* \"#utility.yul\":1161:1171   */\n      0x4e487b71\n        /* \"#utility.yul\":1156:1159   */\n      0xe0\n        /* \"#utility.yul\":1152:1172   */\n      shl\n        /* \"#utility.yul\":1149:1150   */\n      0x00\n        /* \"#utility.yul\":1142:1173   */\n      mstore\n        /* \"#utility.yul\":1192:1196   */\n      0x41\n        /* \"#utility.yul\":1189:1190   */\n      0x04\n        /* \"#utility.yul\":1182:1197   */\n      mstore\n        /* \"#utility.yul\":1216:1220   */\n      0x24\n        /* \"#utility.yul\":1213:1214   */\n      0x00\n        /* \"#utility.yul\":1206:1221   */\n      revert\n        /* \"#utility.yul\":1232:2140   */\n    tag_73:\n        /* \"#utility.yul\":1286:1291   */\n      0x00\n        /* \"#utility.yul\":1339:1342   */\n      dup3\n        /* \"#utility.yul\":1332:1336   */\n      0x1f\n        /* \"#utility.yul\":1324:1330   */\n      dup4\n        /* \"#utility.yul\":1320:1337   */\n      add\n        /* \"#utility.yul\":1316:1343   */\n      slt\n        /* \"#utility.yul\":1306:1361   */\n      tag_89\n      jumpi\n        /* \"#utility.yul\":1357:1358   */\n      0x00\n        /* \"#utility.yul\":1354:1355   */\n      dup1\n        /* \"#utility.yul\":1347:1359   */\n      revert\n        /* \"#utility.yul\":1306:1361   */\n    tag_89:\n        /* \"#utility.yul\":1393:1399   */\n      dup2\n        /* \"#utility.yul\":1380:1400   */\n      calldataload\n        /* \"#utility.yul\":1419:1423   */\n      0x20\n        /* \"#utility.yul\":1442:1460   */\n      0xffffffffffffffff\n        /* \"#utility.yul\":1479:1481   */\n      dup1\n        /* \"#utility.yul\":1475:1477   */\n      dup4\n        /* \"#utility.yul\":1472:1482   */\n      gt\n        /* \"#utility.yul\":1469:1505   */\n      iszero\n      tag_91\n      jumpi\n        /* \"#utility.yul\":1485:1503   */\n      tag_91\n      tag_72\n      jump\t// in\n    tag_91:\n        /* \"#utility.yul\":1531:1533   */\n      dup3\n        /* \"#utility.yul\":1528:1529   */\n      0x05\n        /* \"#utility.yul\":1524:1534   */\n      shl\n        /* \"#utility.yul\":1563:1565   */\n      0x40\n        /* \"#utility.yul\":1557:1566   */\n      mload\n        /* \"#utility.yul\":1626:1628   */\n      0x1f\n        /* \"#utility.yul\":1622:1629   */\n      not\n        /* \"#utility.yul\":1617:1619   */\n      0x3f\n        /* \"#utility.yul\":1613:1615   */\n      dup4\n        /* \"#utility.yul\":1609:1620   */\n      add\n        /* \"#utility.yul\":1605:1630   */\n      and\n        /* \"#utility.yul\":1597:1603   */\n      dup2\n        /* \"#utility.yul\":1593:1631   */\n      add\n        /* \"#utility.yul\":1681:1687   */\n      dup2\n        /* \"#utility.yul\":1669:1679   */\n      dup2\n        /* \"#utility.yul\":1666:1688   */\n      lt\n        /* \"#utility.yul\":1661:1663   */\n      dup5\n        /* \"#utility.yul\":1649:1659   */\n      dup3\n        /* \"#utility.yul\":1646:1664   */\n      gt\n        /* \"#utility.yul\":1643:1689   */\n      or\n        /* \"#utility.yul\":1640:1712   */\n      iszero\n      tag_93\n      jumpi\n        /* \"#utility.yul\":1692:1710   */\n      tag_93\n      tag_72\n      jump\t// in\n    tag_93:\n        /* \"#utility.yul\":1728:1730   */\n      0x40\n        /* \"#utility.yul\":1721:1743   */\n      mstore\n        /* \"#utility.yul\":1778:1796   */\n      swap4\n      dup5\n      mstore\n        /* \"#utility.yul\":1854:1869   */\n      dup6\n      dup2\n      add\n        /* \"#utility.yul\":1850:1874   */\n      dup4\n      add\n      swap4\n        /* \"#utility.yul\":1812:1827   */\n      dup4\n      dup2\n      add\n      swap3\n      pop\n        /* \"#utility.yul\":1886:1901   */\n      dup8\n      dup6\n      gt\n        /* \"#utility.yul\":1883:1918   */\n      iszero\n      tag_94\n      jumpi\n        /* \"#utility.yul\":1914:1915   */\n      0x00\n        /* \"#utility.yul\":1911:1912   */\n      dup1\n        /* \"#utility.yul\":1904:1916   */\n      revert\n        /* \"#utility.yul\":1883:1918   */\n    tag_94:\n        /* \"#utility.yul\":1950:1952   */\n      dup4\n        /* \"#utility.yul\":1942:1948   */\n      dup8\n        /* \"#utility.yul\":1938:1953   */\n      add\n        /* \"#utility.yul\":1927:1953   */\n      swap2\n      pop\n        /* \"#utility.yul\":1962:2110   */\n    tag_95:\n        /* \"#utility.yul\":1978:1984   */\n      dup5\n        /* \"#utility.yul\":1973:1976   */\n      dup3\n        /* \"#utility.yul\":1970:1985   */\n      lt\n        /* \"#utility.yul\":1962:2110   */\n      iszero\n      tag_97\n      jumpi\n        /* \"#utility.yul\":2044:2067   */\n      tag_98\n        /* \"#utility.yul\":2063:2066   */\n      dup3\n        /* \"#utility.yul\":2044:2067   */\n      tag_71\n      jump\t// in\n    tag_98:\n        /* \"#utility.yul\":2032:2068   */\n      dup4\n      mstore\n        /* \"#utility.yul\":2088:2100   */\n      swap2\n      dup4\n      add\n      swap2\n        /* \"#utility.yul\":1995:2007   */\n      swap1\n      dup4\n      add\n      swap1\n        /* \"#utility.yul\":1962:2110   */\n      jump(tag_95)\n    tag_97:\n        /* \"#utility.yul\":2128:2134   */\n      swap8\n        /* \"#utility.yul\":1232:2140   */\n      swap7\n      pop\n      pop\n      pop\n      pop\n      pop\n      pop\n      pop\n      jump\t// out\n        /* \"#utility.yul\":2145:2740   */\n    tag_27:\n        /* \"#utility.yul\":2263:2269   */\n      0x00\n        /* \"#utility.yul\":2271:2277   */\n      dup1\n        /* \"#utility.yul\":2324:2326   */\n      0x40\n        /* \"#utility.yul\":2312:2321   */\n      dup4\n        /* \"#utility.yul\":2303:2310   */\n      dup6\n        /* \"#utility.yul\":2299:2322   */\n      sub\n        /* \"#utility.yul\":2295:2327   */\n      slt\n        /* \"#utility.yul\":2292:2344   */\n      iszero\n      tag_100\n      jumpi\n        /* \"#utility.yul\":2340:2341   */\n      0x00\n        /* \"#utility.yul\":2337:2338   */\n      dup1\n        /* \"#utility.yul\":2330:2342   */\n      revert\n        /* \"#utility.yul\":2292:2344   */\n    tag_100:\n        /* \"#utility.yul\":2380:2389   */\n      dup3\n        /* \"#utility.yul\":2367:2390   */\n      calldataload\n        /* \"#utility.yul\":2409:2427   */\n      0xffffffffffffffff\n        /* \"#utility.yul\":2450:2452   */\n      dup1\n        /* \"#utility.yul\":2442:2448   */\n      dup3\n        /* \"#utility.yul\":2439:2453   */\n      gt\n        /* \"#utility.yul\":2436:2470   */\n      iszero\n      tag_101\n      jumpi\n        /* \"#utility.yul\":2466:2467   */\n      0x00\n        /* \"#utility.yul\":2463:2464   */\n      dup1\n        /* \"#utility.yul\":2456:2468   */\n      revert\n        /* \"#utility.yul\":2436:2470   */\n    tag_101:\n        /* \"#utility.yul\":2489:2550   */\n      tag_102\n        /* \"#utility.yul\":2542:2549   */\n      dup7\n        /* \"#utility.yul\":2533:2539   */\n      dup4\n        /* \"#utility.yul\":2522:2531   */\n      dup8\n        /* \"#utility.yul\":2518:2540   */\n      add\n        /* \"#utility.yul\":2489:2550   */\n      tag_73\n      jump\t// in\n    tag_102:\n        /* \"#utility.yul\":2479:2550   */\n      swap4\n      pop\n        /* \"#utility.yul\":2603:2605   */\n      0x20\n        /* \"#utility.yul\":2592:2601   */\n      dup6\n        /* \"#utility.yul\":2588:2606   */\n      add\n        /* \"#utility.yul\":2575:2607   */\n      calldataload\n        /* \"#utility.yul\":2559:2607   */\n      swap2\n      pop\n        /* \"#utility.yul\":2632:2634   */\n      dup1\n        /* \"#utility.yul\":2622:2630   */\n      dup3\n        /* \"#utility.yul\":2619:2635   */\n      gt\n        /* \"#utility.yul\":2616:2652   */\n      iszero\n      tag_103\n      jumpi\n        /* \"#utility.yul\":2648:2649   */\n      0x00\n        /* \"#utility.yul\":2645:2646   */\n      dup1\n        /* \"#utility.yul\":2638:2650   */\n      revert\n        /* \"#utility.yul\":2616:2652   */\n    tag_103:\n      pop\n        /* \"#utility.yul\":2671:2734   */\n      tag_104\n        /* \"#utility.yul\":2726:2733   */\n      dup6\n        /* \"#utility.yul\":2715:2723   */\n      dup3\n        /* \"#utility.yul\":2704:2713   */\n      dup7\n        /* \"#utility.yul\":2700:2724   */\n      add\n        /* \"#utility.yul\":2671:2734   */\n      tag_73\n      jump\t// in\n    tag_104:\n        /* \"#utility.yul\":2661:2734   */\n      swap2\n      pop\n      pop\n        /* \"#utility.yul\":2145:2740   */\n      swap3\n      pop\n      swap3\n      swap1\n      pop\n      jump\t// out\n        /* \"#utility.yul\":2745:3143   */\n    tag_33:\n        /* \"#utility.yul\":2947:2949   */\n      0x20\n        /* \"#utility.yul\":2929:2950   */\n      dup1\n      dup3\n      mstore\n        /* \"#utility.yul\":2986:2988   */\n      0x22\n        /* \"#utility.yul\":2966:2984   */\n      swap1\n      dup3\n      add\n        /* \"#utility.yul\":2959:2989   */\n      mstore\n        /* \"#utility.yul\":3025:3059   */\n      0x73686f756c642062652063616c6c6564206279206f776e6572206f722061646d\n        /* \"#utility.yul\":3020:3022   */\n      0x40\n        /* \"#utility.yul\":3005:3023   */\n      dup3\n      add\n        /* \"#utility.yul\":2998:3060   */\n      mstore\n      shl(0xf1, 0x34b7)\n        /* \"#utility.yul\":3091:3093   */\n      0x60\n        /* \"#utility.yul\":3076:3094   */\n      dup3\n      add\n        /* \"#utility.yul\":3069:3101   */\n      mstore\n        /* \"#utility.yul\":3133:3136   */\n      0x80\n        /* \"#utility.yul\":3118:3137   */\n      add\n      swap1\n        /* \"#utility.yul\":2745:3143   */\n      jump\t// out\n        /* \"#utility.yul\":3643:3822   */\n    tag_74:\n        /* \"#utility.yul\":3721:3734   */\n      dup1\n      mload\n        /* \"#utility.yul\":3774:3796   */\n      0xffffffffffffffffffff\n        /* \"#utility.yul\":3763:3797   */\n      dup2\n      and\n        /* \"#utility.yul\":3753:3798   */\n      dup2\n      eq\n        /* \"#utility.yul\":3743:3816   */\n      tag_78\n      jumpi\n        /* \"#utility.yul\":3812:3813   */\n      0x00\n        /* \"#utility.yul\":3809:3810   */\n      dup1\n        /* \"#utility.yul\":3802:3814   */\n      revert\n        /* \"#utility.yul\":3827:4300   */\n    tag_41:\n        /* \"#utility.yul\":3930:3936   */\n      0x00\n        /* \"#utility.yul\":3938:3944   */\n      dup1\n        /* \"#utility.yul\":3946:3952   */\n      0x00\n        /* \"#utility.yul\":3954:3960   */\n      dup1\n        /* \"#utility.yul\":3962:3968   */\n      0x00\n        /* \"#utility.yul\":4015:4018   */\n      0xa0\n        /* \"#utility.yul\":4003:4012   */\n      dup7\n        /* \"#utility.yul\":3994:4001   */\n      dup9\n        /* \"#utility.yul\":3990:4013   */\n      sub\n        /* \"#utility.yul\":3986:4019   */\n      slt\n        /* \"#utility.yul\":3983:4036   */\n      iszero\n      tag_110\n      jumpi\n        /* \"#utility.yul\":4032:4033   */\n      0x00\n        /* \"#utility.yul\":4029:4030   */\n      dup1\n        /* \"#utility.yul\":4022:4034   */\n      revert\n        /* \"#utility.yul\":3983:4036   */\n    tag_110:\n        /* \"#utility.yul\":4055:4094   */\n      tag_111\n        /* \"#utility.yul\":4084:4093   */\n      dup7\n        /* \"#utility.yul\":4055:4094   */\n      tag_74\n      jump\t// in\n    tag_111:\n        /* \"#utility.yul\":4045:4094   */\n      swap5\n      pop\n        /* \"#utility.yul\":4134:4136   */\n      0x20\n        /* \"#utility.yul\":4123:4132   */\n      dup7\n        /* \"#utility.yul\":4119:4137   */\n      add\n        /* \"#utility.yul\":4113:4138   */\n      mload\n        /* \"#utility.yul\":4103:4138   */\n      swap4\n      pop\n        /* \"#utility.yul\":4178:4180   */\n      0x40\n        /* \"#utility.yul\":4167:4176   */\n      dup7\n        /* \"#utility.yul\":4163:4181   */\n      add\n        /* \"#utility.yul\":4157:4182   */\n      mload\n        /* \"#utility.yul\":4147:4182   */\n      swap3\n      pop\n        /* \"#utility.yul\":4222:4224   */\n      0x60\n        /* \"#utility.yul\":4211:4220   */\n      dup7\n        /* \"#utility.yul\":4207:4225   */\n      add\n        /* \"#utility.yul\":4201:4226   */\n      mload\n        /* \"#utility.yul\":4191:4226   */\n      swap2\n      pop\n        /* \"#utility.yul\":4245:4294   */\n      tag_112\n        /* \"#utility.yul\":4289:4292   */\n      0x80\n        /* \"#utility.yul\":4278:4287   */\n      dup8\n        /* \"#utility.yul\":4274:4293   */\n      add\n        /* \"#utility.yul\":4245:4294   */\n      tag_74\n      jump\t// in\n    tag_112:\n        /* \"#utility.yul\":4235:4294   */\n      swap1\n      pop\n        /* \"#utility.yul\":3827:4300   */\n      swap3\n      swap6\n      pop\n      swap3\n      swap6\n      swap1\n      swap4\n      pop\n      jump\t// out\n        /* \"#utility.yul\":4707:4834   */\n    tag_75:\n        /* \"#utility.yul\":4768:4778   */\n      0x4e487b71\n        /* \"#utility.yul\":4763:4766   */\n      0xe0\n        /* \"#utility.yul\":4759:4779   */\n      shl\n        /* \"#utility.yul\":4756:4757   */\n      0x00\n        /* \"#utility.yul\":4749:4780   */\n      mstore\n        /* \"#utility.yul\":4799:4803   */\n      0x11\n        /* \"#utility.yul\":4796:4797   */\n      0x04\n        /* \"#utility.yul\":4789:4804   */\n      mstore\n        /* \"#utility.yul\":4823:4827   */\n      0x24\n        /* \"#utility.yul\":4820:4821   */\n      0x00\n        /* \"#utility.yul\":4813:4828   */\n      revert\n        /* \"#utility.yul\":4839:4964   */\n    tag_46:\n        /* \"#utility.yul\":4904:4913   */\n      dup1\n      dup3\n      add\n        /* \"#utility.yul\":4925:4935   */\n      dup1\n      dup3\n      gt\n        /* \"#utility.yul\":4922:4958   */\n      iszero\n      tag_34\n      jumpi\n        /* \"#utility.yul\":4938:4956   */\n      tag_34\n      tag_75\n      jump\t// in\n        /* \"#utility.yul\":5380:5548   */\n    tag_51:\n        /* \"#utility.yul\":5453:5462   */\n      dup1\n      dup3\n      mul\n        /* \"#utility.yul\":5484:5493   */\n      dup2\n      iszero\n        /* \"#utility.yul\":5501:5516   */\n      dup3\n      dup3\n      div\n        /* \"#utility.yul\":5495:5517   */\n      dup5\n      eq\n        /* \"#utility.yul\":5481:5518   */\n      or\n        /* \"#utility.yul\":5471:5542   */\n      tag_34\n      jumpi\n        /* \"#utility.yul\":5522:5540   */\n      tag_34\n      tag_75\n      jump\t// in\n        /* \"#utility.yul\":5553:5770   */\n    tag_53:\n        /* \"#utility.yul\":5593:5594   */\n      0x00\n        /* \"#utility.yul\":5619:5620   */\n      dup3\n        /* \"#utility.yul\":5609:5741   */\n      tag_123\n      jumpi\n        /* \"#utility.yul\":5663:5673   */\n      0x4e487b71\n        /* \"#utility.yul\":5658:5661   */\n      0xe0\n        /* \"#utility.yul\":5654:5674   */\n      shl\n        /* \"#utility.yul\":5651:5652   */\n      0x00\n        /* \"#utility.yul\":5644:5675   */\n      mstore\n        /* \"#utility.yul\":5698:5702   */\n      0x12\n        /* \"#utility.yul\":5695:5696   */\n      0x04\n        /* \"#utility.yul\":5688:5703   */\n      mstore\n        /* \"#utility.yul\":5726:5730   */\n      0x24\n        /* \"#utility.yul\":5723:5724   */\n      0x00\n        /* \"#utility.yul\":5716:5731   */\n      revert\n        /* \"#utility.yul\":5609:5741   */\n    tag_123:\n      pop\n        /* \"#utility.yul\":5755:5764   */\n      div\n      swap1\n        /* \"#utility.yul\":5553:5770   */\n      jump\t// out\n        /* \"#utility.yul\":6136:6263   */\n    tag_66:\n        /* \"#utility.yul\":6197:6207   */\n      0x4e487b71\n        /* \"#utility.yul\":6192:6195   */\n      0xe0\n        /* \"#utility.yul\":6188:6208   */\n      shl\n        /* \"#utility.yul\":6185:6186   */\n      0x00\n        /* \"#utility.yul\":6178:6209   */\n      mstore\n        /* \"#utility.yul\":6228:6232   */\n      0x32\n        /* \"#utility.yul\":6225:6226   */\n      0x04\n        /* \"#utility.yul\":6218:6233   */\n      mstore\n        /* \"#utility.yul\":6252:6256   */\n      0x24\n        /* \"#utility.yul\":6249:6250   */\n      0x00\n        /* \"#utility.yul\":6242:6257   */\n      revert\n        /* \"#utility.yul\":6268:6403   */\n    tag_70:\n        /* \"#utility.yul\":6307:6310   */\n      0x00\n        /* \"#utility.yul\":6328:6345   */\n      0x01\n      dup3\n      add\n        /* \"#utility.yul\":6325:6368   */\n      tag_128\n      jumpi\n        /* \"#utility.yul\":6348:6366   */\n      tag_128\n      tag_75\n      jump\t// in\n    tag_128:\n      pop\n        /* \"#utility.yul\":6395:6396   */\n      0x01\n        /* \"#utility.yul\":6384:6397   */\n      add\n      swap1\n        /* \"#utility.yul\":6268:6403   */\n      jump\t// out\n\n    auxdata: 0xa264697066735822122095398a4f4a7c814c2bd8624a56732670d4167f2bfded1aa2af4b9c09340c939264736f6c63430008110033\n}\n",
				"bytecode": {
					"linkReferences": {},
					"object": "60a06040523480156200001157600080fd5b5060405162000c7838038062000c788339810160408190526200003491620002d5565b8251845114801562000047575081518451145b620000985760405162461bcd60e51b815260206004820181905260248201527f417272617973206d7573742068617665207468652073616d65206c656e677468604482015260640160405180910390fd5b60005b84518110156200019e57848181518110620000ba57620000ba620003d4565b6020026020010151600080868481518110620000da57620000da620003d4565b60200260200101516001600160a01b03166001600160a01b0316815260200190815260200160002060006101000a8154816001600160a01b0302191690836001600160a01b031602179055508281815181106200013b576200013b620003d4565b6020026020010151600160008684815181106200015c576200015c620003d4565b60200260200101516001600160a01b03166001600160a01b031681526020019081526020016000208190555080806200019590620003ea565b9150506200009b565b5033608052600280546001600160a01b0319166001600160a01b03929092169190911790555062000412915050565b634e487b7160e01b600052604160045260246000fd5b604051601f8201601f191681016001600160401b03811182821017156200020e576200020e620001cd565b604052919050565b60006001600160401b03821115620002325762000232620001cd565b5060051b60200190565b80516001600160a01b03811681146200025457600080fd5b919050565b600082601f8301126200026b57600080fd5b81516020620002846200027e8362000216565b620001e3565b82815260059290921b84018101918181019086841115620002a457600080fd5b8286015b84811015620002ca57620002bc816200023c565b8352918301918301620002a8565b509695505050505050565b60008060008060808587031215620002ec57600080fd5b84516001600160401b03808211156200030457600080fd5b620003128883890162000259565b95506020915081870151818111156200032a57600080fd5b6200033889828a0162000259565b9550506040870151818111156200034e57600080fd5b87019050601f810188136200036257600080fd5b8051620003736200027e8262000216565b81815260059190911b8201830190838101908a8311156200039357600080fd5b928401925b82841015620003b35783518252928401929084019062000398565b8096505050505050620003c9606086016200023c565b905092959194509250565b634e487b7160e01b600052603260045260246000fd5b6000600182016200040b57634e487b7160e01b600052601160045260246000fd5b5060010190565b60805161083d6200043b60003960008181609c0152818161011b015261040e015261083d6000f3fe608060405234801561001057600080fd5b50600436106100575760003560e01c80630acdf8601461005c5780633a403058146100715780638da5cb5b14610097578063f851a440146100d6578063fe8c1539146100e9575b600080fd5b61006f61006a366004610558565b6100fc565b005b61008461007f366004610582565b61017e565b6040519081526020015b60405180910390f35b6100be7f000000000000000000000000000000000000000000000000000000000000000081565b6040516001600160a01b03909116815260200161008e565b6002546100be906001600160a01b031681565b61006f6100f7366004610666565b6103ef565b6002546001600160a01b031633148061013d5750336001600160a01b037f000000000000000000000000000000000000000000000000000000000000000016145b6101625760405162461bcd60e51b8152600401610159906106ca565b60405180910390fd5b6001600160a01b03909116600090815260016020526040902055565b6001600160a01b0381811660009081526020819052604081205490911661022c5760405162461bcd60e51b815260206004820152605660248201527f436861696e6c696e6b46656564206973206e6f7420617661696c61626c652e2060448201527f506c656173652070726f766964652076616c696420636861696e6c696e6b20736064820152757570706f72746564204552433230206164647265737360501b608482015260a401610159565b6001600160a01b03808316600090815260208190526040808220548151633fabe5a360e21b815291519293849391169163feaf968c9160048083019260a09291908290030181865afa158015610286573d6000803e3d6000fd5b505050506040513d601f19601f820116820180604052508101906102aa9190610726565b69ffffffffffffffffffff169450505092505060016000856001600160a01b03166001600160a01b031681526020019081526020016000205460000361033c5760405162461bcd60e51b815260206004820152602160248201527f7570646174652068656172746265617420666f72207468652063757272656e636044820152607960f81b6064820152608401610159565b6001600160a01b03841660009081526001602052604090205461035f908261078c565b4211156103c15760405162461bcd60e51b815260206004820152602a60248201527f636861696e666565642064617461206e6f74207570646174656420696e20646560448201526972697665642074696d6560b01b6064820152608401610159565b6000826103d9876a52b7d2dcc80cd2e400000061079f565b6103e391906107b6565b93505050505b92915050565b6002546001600160a01b03163314806104305750336001600160a01b037f000000000000000000000000000000000000000000000000000000000000000016145b61044c5760405162461bcd60e51b8152600401610159906106ca565b805182511461049d5760405162461bcd60e51b815260206004820181905260248201527f417272617973206d7573742068617665207468652073616d65206c656e6774686044820152606401610159565b60005b8251811015610537578281815181106104bb576104bb6107d8565b60200260200101516000808484815181106104d8576104d86107d8565b60200260200101516001600160a01b03166001600160a01b0316815260200190815260200160002060006101000a8154816001600160a01b0302191690836001600160a01b03160217905550808061052f906107ee565b9150506104a0565b505050565b80356001600160a01b038116811461055357600080fd5b919050565b6000806040838503121561056b57600080fd5b6105748361053c565b946020939093013593505050565b6000806040838503121561059557600080fd5b823591506105a56020840161053c565b90509250929050565b634e487b7160e01b600052604160045260246000fd5b600082601f8301126105d557600080fd5b8135602067ffffffffffffffff808311156105f2576105f26105ae565b8260051b604051601f19603f83011681018181108482111715610617576106176105ae565b60405293845285810183019383810192508785111561063557600080fd5b83870191505b8482101561065b5761064c8261053c565b8352918301919083019061063b565b979650505050505050565b6000806040838503121561067957600080fd5b823567ffffffffffffffff8082111561069157600080fd5b61069d868387016105c4565b935060208501359150808211156106b357600080fd5b506106c0858286016105c4565b9150509250929050565b60208082526022908201527f73686f756c642062652063616c6c6564206279206f776e6572206f722061646d60408201526134b760f11b606082015260800190565b805169ffffffffffffffffffff8116811461055357600080fd5b600080600080600060a0868803121561073e57600080fd5b6107478661070c565b945060208601519350604086015192506060860151915061076a6080870161070c565b90509295509295909350565b634e487b7160e01b600052601160045260246000fd5b808201808211156103e9576103e9610776565b80820281158282048414176103e9576103e9610776565b6000826107d357634e487b7160e01b600052601260045260246000fd5b500490565b634e487b7160e01b600052603260045260246000fd5b60006001820161080057610800610776565b506001019056fea264697066735822122095398a4f4a7c814c2bd8624a56732670d4167f2bfded1aa2af4b9c09340c939264736f6c63430008110033",
					"opcodes": "PUSH1 0xA0 PUSH1 0x40 MSTORE CALLVALUE DUP1 ISZERO PUSH3 0x11 JUMPI PUSH1 0x0 DUP1 REVERT JUMPDEST POP PUSH1 0x40 MLOAD PUSH3 0xC78 CODESIZE SUB DUP1 PUSH3 0xC78 DUP4 CODECOPY DUP2 ADD PUSH1 0x40 DUP2 SWAP1 MSTORE PUSH3 0x34 SWAP2 PUSH3 0x2D5 JUMP JUMPDEST DUP3 MLOAD DUP5 MLOAD EQ DUP1 ISZERO PUSH3 0x47 JUMPI POP DUP2 MLOAD DUP5 MLOAD EQ JUMPDEST PUSH3 0x98 JUMPI PUSH1 0x40 MLOAD PUSH3 0x461BCD PUSH1 0xE5 SHL DUP2 MSTORE PUSH1 0x20 PUSH1 0x4 DUP3 ADD DUP2 SWAP1 MSTORE PUSH1 0x24 DUP3 ADD MSTORE PUSH32 0x417272617973206D7573742068617665207468652073616D65206C656E677468 PUSH1 0x44 DUP3 ADD MSTORE PUSH1 0x64 ADD PUSH1 0x40 MLOAD DUP1 SWAP2 SUB SWAP1 REVERT JUMPDEST PUSH1 0x0 JUMPDEST DUP5 MLOAD DUP2 LT ISZERO PUSH3 0x19E JUMPI DUP5 DUP2 DUP2 MLOAD DUP2 LT PUSH3 0xBA JUMPI PUSH3 0xBA PUSH3 0x3D4 JUMP JUMPDEST PUSH1 0x20 MUL PUSH1 0x20 ADD ADD MLOAD PUSH1 0x0 DUP1 DUP7 DUP5 DUP2 MLOAD DUP2 LT PUSH3 0xDA JUMPI PUSH3 0xDA PUSH3 0x3D4 JUMP JUMPDEST PUSH1 0x20 MUL PUSH1 0x20 ADD ADD MLOAD PUSH1 0x1 PUSH1 0x1 PUSH1 0xA0 SHL SUB AND PUSH1 0x1 PUSH1 0x1 PUSH1 0xA0 SHL SUB AND DUP2 MSTORE PUSH1 0x20 ADD SWAP1 DUP2 MSTORE PUSH1 0x20 ADD PUSH1 0x0 KECCAK256 PUSH1 0x0 PUSH2 0x100 EXP DUP2 SLOAD DUP2 PUSH1 0x1 PUSH1 0x1 PUSH1 0xA0 SHL SUB MUL NOT AND SWAP1 DUP4 PUSH1 0x1 PUSH1 0x1 PUSH1 0xA0 SHL SUB AND MUL OR SWAP1 SSTORE POP DUP3 DUP2 DUP2 MLOAD DUP2 LT PUSH3 0x13B JUMPI PUSH3 0x13B PUSH3 0x3D4 JUMP JUMPDEST PUSH1 0x20 MUL PUSH1 0x20 ADD ADD MLOAD PUSH1 0x1 PUSH1 0x0 DUP7 DUP5 DUP2 MLOAD DUP2 LT PUSH3 0x15C JUMPI PUSH3 0x15C PUSH3 0x3D4 JUMP JUMPDEST PUSH1 0x20 MUL PUSH1 0x20 ADD ADD MLOAD PUSH1 0x1 PUSH1 0x1 PUSH1 0xA0 SHL SUB AND PUSH1 0x1 PUSH1 0x1 PUSH1 0xA0 SHL SUB AND DUP2 MSTORE PUSH1 0x20 ADD SWAP1 DUP2 MSTORE PUSH1 0x20 ADD PUSH1 0x0 KECCAK256 DUP2 SWAP1 SSTORE POP DUP1 DUP1 PUSH3 0x195 SWAP1 PUSH3 0x3EA JUMP JUMPDEST SWAP2 POP POP PUSH3 0x9B JUMP JUMPDEST POP CALLER PUSH1 0x80 MSTORE PUSH1 0x2 DUP1 SLOAD PUSH1 0x1 PUSH1 0x1 PUSH1 0xA0 SHL SUB NOT AND PUSH1 0x1 PUSH1 0x1 PUSH1 0xA0 SHL SUB SWAP3 SWAP1 SWAP3 AND SWAP2 SWAP1 SWAP2 OR SWAP1 SSTORE POP PUSH3 0x412 SWAP2 POP POP JUMP JUMPDEST PUSH4 0x4E487B71 PUSH1 0xE0 SHL PUSH1 0x0 MSTORE PUSH1 0x41 PUSH1 0x4 MSTORE PUSH1 0x24 PUSH1 0x0 REVERT JUMPDEST PUSH1 0x40 MLOAD PUSH1 0x1F DUP3 ADD PUSH1 0x1F NOT AND DUP2 ADD PUSH1 0x1 PUSH1 0x1 PUSH1 0x40 SHL SUB DUP2 GT DUP3 DUP3 LT OR ISZERO PUSH3 0x20E JUMPI PUSH3 0x20E PUSH3 0x1CD JUMP JUMPDEST PUSH1 0x40 MSTORE SWAP2 SWAP1 POP JUMP JUMPDEST PUSH1 0x0 PUSH1 0x1 PUSH1 0x1 PUSH1 0x40 SHL SUB DUP3 GT ISZERO PUSH3 0x232 JUMPI PUSH3 0x232 PUSH3 0x1CD JUMP JUMPDEST POP PUSH1 0x5 SHL PUSH1 0x20 ADD SWAP1 JUMP JUMPDEST DUP1 MLOAD PUSH1 0x1 PUSH1 0x1 PUSH1 0xA0 SHL SUB DUP2 AND DUP2 EQ PUSH3 0x254 JUMPI PUSH1 0x0 DUP1 REVERT JUMPDEST SWAP2 SWAP1 POP JUMP JUMPDEST PUSH1 0x0 DUP3 PUSH1 0x1F DUP4 ADD SLT PUSH3 0x26B JUMPI PUSH1 0x0 DUP1 REVERT JUMPDEST DUP2 MLOAD PUSH1 0x20 PUSH3 0x284 PUSH3 0x27E DUP4 PUSH3 0x216 JUMP JUMPDEST PUSH3 0x1E3 JUMP JUMPDEST DUP3 DUP2 MSTORE PUSH1 0x5 SWAP3 SWAP1 SWAP3 SHL DUP5 ADD DUP2 ADD SWAP2 DUP2 DUP2 ADD SWAP1 DUP7 DUP5 GT ISZERO PUSH3 0x2A4 JUMPI PUSH1 0x0 DUP1 REVERT JUMPDEST DUP3 DUP7 ADD JUMPDEST DUP5 DUP2 LT ISZERO PUSH3 0x2CA JUMPI PUSH3 0x2BC DUP2 PUSH3 0x23C JUMP JUMPDEST DUP4 MSTORE SWAP2 DUP4 ADD SWAP2 DUP4 ADD PUSH3 0x2A8 JUMP JUMPDEST POP SWAP7 SWAP6 POP POP POP POP POP POP JUMP JUMPDEST PUSH1 0x0 DUP1 PUSH1 0x0 DUP1 PUSH1 0x80 DUP6 DUP8 SUB SLT ISZERO PUSH3 0x2EC JUMPI PUSH1 0x0 DUP1 REVERT JUMPDEST DUP5 MLOAD PUSH1 0x1 PUSH1 0x1 PUSH1 0x40 SHL SUB DUP1 DUP3 GT ISZERO PUSH3 0x304 JUMPI PUSH1 0x0 DUP1 REVERT JUMPDEST PUSH3 0x312 DUP9 DUP4 DUP10 ADD PUSH3 0x259 JUMP JUMPDEST SWAP6 POP PUSH1 0x20 SWAP2 POP DUP2 DUP8 ADD MLOAD DUP2 DUP2 GT ISZERO PUSH3 0x32A JUMPI PUSH1 0x0 DUP1 REVERT JUMPDEST PUSH3 0x338 DUP10 DUP3 DUP11 ADD PUSH3 0x259 JUMP JUMPDEST SWAP6 POP POP PUSH1 0x40 DUP8 ADD MLOAD DUP2 DUP2 GT ISZERO PUSH3 0x34E JUMPI PUSH1 0x0 DUP1 REVERT JUMPDEST DUP8 ADD SWAP1 POP PUSH1 0x1F DUP2 ADD DUP9 SGT PUSH3 0x362 JUMPI PUSH1 0x0 DUP1 REVERT JUMPDEST DUP1 MLOAD PUSH3 0x373 PUSH3 0x27E DUP3 PUSH3 0x216 JUMP JUMPDEST DUP2 DUP2 MSTORE PUSH1 0x5 SWAP2 SWAP1 SWAP2 SHL DUP3 ADD DUP4 ADD SWAP1 DUP4 DUP2 ADD SWAP1 DUP11 DUP4 GT ISZERO PUSH3 0x393 JUMPI PUSH1 0x0 DUP1 REVERT JUMPDEST SWAP3 DUP5 ADD SWAP3 JUMPDEST DUP3 DUP5 LT ISZERO PUSH3 0x3B3 JUMPI DUP4 MLOAD DUP3 MSTORE SWAP3 DUP5 ADD SWAP3 SWAP1 DUP5 ADD SWAP1 PUSH3 0x398 JUMP JUMPDEST DUP1 SWAP7 POP POP POP POP POP POP PUSH3 0x3C9 PUSH1 0x60 DUP7 ADD PUSH3 0x23C JUMP JUMPDEST SWAP1 POP SWAP3 SWAP6 SWAP2 SWAP5 POP SWAP3 POP JUMP JUMPDEST PUSH4 0x4E487B71 PUSH1 0xE0 SHL PUSH1 0x0 MSTORE PUSH1 0x32 PUSH1 0x4 MSTORE PUSH1 0x24 PUSH1 0x0 REVERT JUMPDEST PUSH1 0x0 PUSH1 0x1 DUP3 ADD PUSH3 0x40B JUMPI PUSH4 0x4E487B71 PUSH1 0xE0 SHL PUSH1 0x0 MSTORE PUSH1 0x11 PUSH1 0x4 MSTORE PUSH1 0x24 PUSH1 0x0 REVERT JUMPDEST POP PUSH1 0x1 ADD SWAP1 JUMP JUMPDEST PUSH1 0x80 MLOAD PUSH2 0x83D PUSH3 0x43B PUSH1 0x0 CODECOPY PUSH1 0x0 DUP2 DUP2 PUSH1 0x9C ADD MSTORE DUP2 DUP2 PUSH2 0x11B ADD MSTORE PUSH2 0x40E ADD MSTORE PUSH2 0x83D PUSH1 0x0 RETURN INVALID PUSH1 0x80 PUSH1 0x40 MSTORE CALLVALUE DUP1 ISZERO PUSH2 0x10 JUMPI PUSH1 0x0 DUP1 REVERT JUMPDEST POP PUSH1 0x4 CALLDATASIZE LT PUSH2 0x57 JUMPI PUSH1 0x0 CALLDATALOAD PUSH1 0xE0 SHR DUP1 PUSH4 0xACDF860 EQ PUSH2 0x5C JUMPI DUP1 PUSH4 0x3A403058 EQ PUSH2 0x71 JUMPI DUP1 PUSH4 0x8DA5CB5B EQ PUSH2 0x97 JUMPI DUP1 PUSH4 0xF851A440 EQ PUSH2 0xD6 JUMPI DUP1 PUSH4 0xFE8C1539 EQ PUSH2 0xE9 JUMPI JUMPDEST PUSH1 0x0 DUP1 REVERT JUMPDEST PUSH2 0x6F PUSH2 0x6A CALLDATASIZE PUSH1 0x4 PUSH2 0x558 JUMP JUMPDEST PUSH2 0xFC JUMP JUMPDEST STOP JUMPDEST PUSH2 0x84 PUSH2 0x7F CALLDATASIZE PUSH1 0x4 PUSH2 0x582 JUMP JUMPDEST PUSH2 0x17E JUMP JUMPDEST PUSH1 0x40 MLOAD SWAP1 DUP2 MSTORE PUSH1 0x20 ADD JUMPDEST PUSH1 0x40 MLOAD DUP1 SWAP2 SUB SWAP1 RETURN JUMPDEST PUSH2 0xBE PUSH32 0x0 DUP2 JUMP JUMPDEST PUSH1 0x40 MLOAD PUSH1 0x1 PUSH1 0x1 PUSH1 0xA0 SHL SUB SWAP1 SWAP2 AND DUP2 MSTORE PUSH1 0x20 ADD PUSH2 0x8E JUMP JUMPDEST PUSH1 0x2 SLOAD PUSH2 0xBE SWAP1 PUSH1 0x1 PUSH1 0x1 PUSH1 0xA0 SHL SUB AND DUP2 JUMP JUMPDEST PUSH2 0x6F PUSH2 0xF7 CALLDATASIZE PUSH1 0x4 PUSH2 0x666 JUMP JUMPDEST PUSH2 0x3EF JUMP JUMPDEST PUSH1 0x2 SLOAD PUSH1 0x1 PUSH1 0x1 PUSH1 0xA0 SHL SUB AND CALLER EQ DUP1 PUSH2 0x13D JUMPI POP CALLER PUSH1 0x1 PUSH1 0x1 PUSH1 0xA0 SHL SUB PUSH32 0x0 AND EQ JUMPDEST PUSH2 0x162 JUMPI PUSH1 0x40 MLOAD PUSH3 0x461BCD PUSH1 0xE5 SHL DUP2 MSTORE PUSH1 0x4 ADD PUSH2 0x159 SWAP1 PUSH2 0x6CA JUMP JUMPDEST PUSH1 0x40 MLOAD DUP1 SWAP2 SUB SWAP1 REVERT JUMPDEST PUSH1 0x1 PUSH1 0x1 PUSH1 0xA0 SHL SUB SWAP1 SWAP2 AND PUSH1 0x0 SWAP1 DUP2 MSTORE PUSH1 0x1 PUSH1 0x20 MSTORE PUSH1 0x40 SWAP1 KECCAK256 SSTORE JUMP JUMPDEST PUSH1 0x1 PUSH1 0x1 PUSH1 0xA0 SHL SUB DUP2 DUP2 AND PUSH1 0x0 SWAP1 DUP2 MSTORE PUSH1 0x20 DUP2 SWAP1 MSTORE PUSH1 0x40 DUP2 KECCAK256 SLOAD SWAP1 SWAP2 AND PUSH2 0x22C JUMPI PUSH1 0x40 MLOAD PUSH3 0x461BCD PUSH1 0xE5 SHL DUP2 MSTORE PUSH1 0x20 PUSH1 0x4 DUP3 ADD MSTORE PUSH1 0x56 PUSH1 0x24 DUP3 ADD MSTORE PUSH32 0x436861696E6C696E6B46656564206973206E6F7420617661696C61626C652E20 PUSH1 0x44 DUP3 ADD MSTORE PUSH32 0x506C656173652070726F766964652076616C696420636861696E6C696E6B2073 PUSH1 0x64 DUP3 ADD MSTORE PUSH22 0x7570706F727465642045524332302061646472657373 PUSH1 0x50 SHL PUSH1 0x84 DUP3 ADD MSTORE PUSH1 0xA4 ADD PUSH2 0x159 JUMP JUMPDEST PUSH1 0x1 PUSH1 0x1 PUSH1 0xA0 SHL SUB DUP1 DUP4 AND PUSH1 0x0 SWAP1 DUP2 MSTORE PUSH1 0x20 DUP2 SWAP1 MSTORE PUSH1 0x40 DUP1 DUP3 KECCAK256 SLOAD DUP2 MLOAD PUSH4 0x3FABE5A3 PUSH1 0xE2 SHL DUP2 MSTORE SWAP2 MLOAD SWAP3 SWAP4 DUP5 SWAP4 SWAP2 AND SWAP2 PUSH4 0xFEAF968C SWAP2 PUSH1 0x4 DUP1 DUP4 ADD SWAP3 PUSH1 0xA0 SWAP3 SWAP2 SWAP1 DUP3 SWAP1 SUB ADD DUP2 DUP7 GAS STATICCALL ISZERO DUP1 ISZERO PUSH2 0x286 JUMPI RETURNDATASIZE PUSH1 0x0 DUP1 RETURNDATACOPY RETURNDATASIZE PUSH1 0x0 REVERT JUMPDEST POP POP POP POP PUSH1 0x40 MLOAD RETURNDATASIZE PUSH1 0x1F NOT PUSH1 0x1F DUP3 ADD AND DUP3 ADD DUP1 PUSH1 0x40 MSTORE POP DUP2 ADD SWAP1 PUSH2 0x2AA SWAP2 SWAP1 PUSH2 0x726 JUMP JUMPDEST PUSH10 0xFFFFFFFFFFFFFFFFFFFF AND SWAP5 POP POP POP SWAP3 POP POP PUSH1 0x1 PUSH1 0x0 DUP6 PUSH1 0x1 PUSH1 0x1 PUSH1 0xA0 SHL SUB AND PUSH1 0x1 PUSH1 0x1 PUSH1 0xA0 SHL SUB AND DUP2 MSTORE PUSH1 0x20 ADD SWAP1 DUP2 MSTORE PUSH1 0x20 ADD PUSH1 0x0 KECCAK256 SLOAD PUSH1 0x0 SUB PUSH2 0x33C JUMPI PUSH1 0x40 MLOAD PUSH3 0x461BCD PUSH1 0xE5 SHL DUP2 MSTORE PUSH1 0x20 PUSH1 0x4 DUP3 ADD MSTORE PUSH1 0x21 PUSH1 0x24 DUP3 ADD MSTORE PUSH32 0x7570646174652068656172746265617420666F72207468652063757272656E63 PUSH1 0x44 DUP3 ADD MSTORE PUSH1 0x79 PUSH1 0xF8 SHL PUSH1 0x64 DUP3 ADD MSTORE PUSH1 0x84 ADD PUSH2 0x159 JUMP JUMPDEST PUSH1 0x1 PUSH1 0x1 PUSH1 0xA0 SHL SUB DUP5 AND PUSH1 0x0 SWAP1 DUP2 MSTORE PUSH1 0x1 PUSH1 0x20 MSTORE PUSH1 0x40 SWAP1 KECCAK256 SLOAD PUSH2 0x35F SWAP1 DUP3 PUSH2 0x78C JUMP JUMPDEST TIMESTAMP GT ISZERO PUSH2 0x3C1 JUMPI PUSH1 0x40 MLOAD PUSH3 0x461BCD PUSH1 0xE5 SHL DUP2 MSTORE PUSH1 0x20 PUSH1 0x4 DUP3 ADD MSTORE PUSH1 0x2A PUSH1 0x24 DUP3 ADD MSTORE PUSH32 0x636861696E666565642064617461206E6F74207570646174656420696E206465 PUSH1 0x44 DUP3 ADD MSTORE PUSH10 0x72697665642074696D65 PUSH1 0xB0 SHL PUSH1 0x64 DUP3 ADD MSTORE PUSH1 0x84 ADD PUSH2 0x159 JUMP JUMPDEST PUSH1 0x0 DUP3 PUSH2 0x3D9 DUP8 PUSH11 0x52B7D2DCC80CD2E4000000 PUSH2 0x79F JUMP JUMPDEST PUSH2 0x3E3 SWAP2 SWAP1 PUSH2 0x7B6 JUMP JUMPDEST SWAP4 POP POP POP POP JUMPDEST SWAP3 SWAP2 POP POP JUMP JUMPDEST PUSH1 0x2 SLOAD PUSH1 0x1 PUSH1 0x1 PUSH1 0xA0 SHL SUB AND CALLER EQ DUP1 PUSH2 0x430 JUMPI POP CALLER PUSH1 0x1 PUSH1 0x1 PUSH1 0xA0 SHL SUB PUSH32 0x0 AND EQ JUMPDEST PUSH2 0x44C JUMPI PUSH1 0x40 MLOAD PUSH3 0x461BCD PUSH1 0xE5 SHL DUP2 MSTORE PUSH1 0x4 ADD PUSH2 0x159 SWAP1 PUSH2 0x6CA JUMP JUMPDEST DUP1 MLOAD DUP3 MLOAD EQ PUSH2 0x49D JUMPI PUSH1 0x40 MLOAD PUSH3 0x461BCD PUSH1 0xE5 SHL DUP2 MSTORE PUSH1 0x20 PUSH1 0x4 DUP3 ADD DUP2 SWAP1 MSTORE PUSH1 0x24 DUP3 ADD MSTORE PUSH32 0x417272617973206D7573742068617665207468652073616D65206C656E677468 PUSH1 0x44 DUP3 ADD MSTORE PUSH1 0x64 ADD PUSH2 0x159 JUMP JUMPDEST PUSH1 0x0 JUMPDEST DUP3 MLOAD DUP2 LT ISZERO PUSH2 0x537 JUMPI DUP3 DUP2 DUP2 MLOAD DUP2 LT PUSH2 0x4BB JUMPI PUSH2 0x4BB PUSH2 0x7D8 JUMP JUMPDEST PUSH1 0x20 MUL PUSH1 0x20 ADD ADD MLOAD PUSH1 0x0 DUP1 DUP5 DUP5 DUP2 MLOAD DUP2 LT PUSH2 0x4D8 JUMPI PUSH2 0x4D8 PUSH2 0x7D8 JUMP JUMPDEST PUSH1 0x20 MUL PUSH1 0x20 ADD ADD MLOAD PUSH1 0x1 PUSH1 0x1 PUSH1 0xA0 SHL SUB AND PUSH1 0x1 PUSH1 0x1 PUSH1 0xA0 SHL SUB AND DUP2 MSTORE PUSH1 0x20 ADD SWAP1 DUP2 MSTORE PUSH1 0x20 ADD PUSH1 0x0 KECCAK256 PUSH1 0x0 PUSH2 0x100 EXP DUP2 SLOAD DUP2 PUSH1 0x1 PUSH1 0x1 PUSH1 0xA0 SHL SUB MUL NOT AND SWAP1 DUP4 PUSH1 0x1 PUSH1 0x1 PUSH1 0xA0 SHL SUB AND MUL OR SWAP1 SSTORE POP DUP1 DUP1 PUSH2 0x52F SWAP1 PUSH2 0x7EE JUMP JUMPDEST SWAP2 POP POP PUSH2 0x4A0 JUMP JUMPDEST POP POP POP JUMP JUMPDEST DUP1 CALLDATALOAD PUSH1 0x1 PUSH1 0x1 PUSH1 0xA0 SHL SUB DUP2 AND DUP2 EQ PUSH2 0x553 JUMPI PUSH1 0x0 DUP1 REVERT JUMPDEST SWAP2 SWAP1 POP JUMP JUMPDEST PUSH1 0x0 DUP1 PUSH1 0x40 DUP4 DUP6 SUB SLT ISZERO PUSH2 0x56B JUMPI PUSH1 0x0 DUP1 REVERT JUMPDEST PUSH2 0x574 DUP4 PUSH2 0x53C JUMP JUMPDEST SWAP5 PUSH1 0x20 SWAP4 SWAP1 SWAP4 ADD CALLDATALOAD SWAP4 POP POP POP JUMP JUMPDEST PUSH1 0x0 DUP1 PUSH1 0x40 DUP4 DUP6 SUB SLT ISZERO PUSH2 0x595 JUMPI PUSH1 0x0 DUP1 REVERT JUMPDEST DUP3 CALLDATALOAD SWAP2 POP PUSH2 0x5A5 PUSH1 0x20 DUP5 ADD PUSH2 0x53C JUMP JUMPDEST SWAP1 POP SWAP3 POP SWAP3 SWAP1 POP JUMP JUMPDEST PUSH4 0x4E487B71 PUSH1 0xE0 SHL PUSH1 0x0 MSTORE PUSH1 0x41 PUSH1 0x4 MSTORE PUSH1 0x24 PUSH1 0x0 REVERT JUMPDEST PUSH1 0x0 DUP3 PUSH1 0x1F DUP4 ADD SLT PUSH2 0x5D5 JUMPI PUSH1 0x0 DUP1 REVERT JUMPDEST DUP2 CALLDATALOAD PUSH1 0x20 PUSH8 0xFFFFFFFFFFFFFFFF DUP1 DUP4 GT ISZERO PUSH2 0x5F2 JUMPI PUSH2 0x5F2 PUSH2 0x5AE JUMP JUMPDEST DUP3 PUSH1 0x5 SHL PUSH1 0x40 MLOAD PUSH1 0x1F NOT PUSH1 0x3F DUP4 ADD AND DUP2 ADD DUP2 DUP2 LT DUP5 DUP3 GT OR ISZERO PUSH2 0x617 JUMPI PUSH2 0x617 PUSH2 0x5AE JUMP JUMPDEST PUSH1 0x40 MSTORE SWAP4 DUP5 MSTORE DUP6 DUP2 ADD DUP4 ADD SWAP4 DUP4 DUP2 ADD SWAP3 POP DUP8 DUP6 GT ISZERO PUSH2 0x635 JUMPI PUSH1 0x0 DUP1 REVERT JUMPDEST DUP4 DUP8 ADD SWAP2 POP JUMPDEST DUP5 DUP3 LT ISZERO PUSH2 0x65B JUMPI PUSH2 0x64C DUP3 PUSH2 0x53C JUMP JUMPDEST DUP4 MSTORE SWAP2 DUP4 ADD SWAP2 SWAP1 DUP4 ADD SWAP1 PUSH2 0x63B JUMP JUMPDEST SWAP8 SWAP7 POP POP POP POP POP POP POP JUMP JUMPDEST PUSH1 0x0 DUP1 PUSH1 0x40 DUP4 DUP6 SUB SLT ISZERO PUSH2 0x679 JUMPI PUSH1 0x0 DUP1 REVERT JUMPDEST DUP3 CALLDATALOAD PUSH8 0xFFFFFFFFFFFFFFFF DUP1 DUP3 GT ISZERO PUSH2 0x691 JUMPI PUSH1 0x0 DUP1 REVERT JUMPDEST PUSH2 0x69D DUP7 DUP4 DUP8 ADD PUSH2 0x5C4 JUMP JUMPDEST SWAP4 POP PUSH1 0x20 DUP6 ADD CALLDATALOAD SWAP2 POP DUP1 DUP3 GT ISZERO PUSH2 0x6B3 JUMPI PUSH1 0x0 DUP1 REVERT JUMPDEST POP PUSH2 0x6C0 DUP6 DUP3 DUP7 ADD PUSH2 0x5C4 JUMP JUMPDEST SWAP2 POP POP SWAP3 POP SWAP3 SWAP1 POP JUMP JUMPDEST PUSH1 0x20 DUP1 DUP3 MSTORE PUSH1 0x22 SWAP1 DUP3 ADD MSTORE PUSH32 0x73686F756C642062652063616C6C6564206279206F776E6572206F722061646D PUSH1 0x40 DUP3 ADD MSTORE PUSH2 0x34B7 PUSH1 0xF1 SHL PUSH1 0x60 DUP3 ADD MSTORE PUSH1 0x80 ADD SWAP1 JUMP JUMPDEST DUP1 MLOAD PUSH10 0xFFFFFFFFFFFFFFFFFFFF DUP2 AND DUP2 EQ PUSH2 0x553 JUMPI PUSH1 0x0 DUP1 REVERT JUMPDEST PUSH1 0x0 DUP1 PUSH1 0x0 DUP1 PUSH1 0x0 PUSH1 0xA0 DUP7 DUP9 SUB SLT ISZERO PUSH2 0x73E JUMPI PUSH1 0x0 DUP1 REVERT JUMPDEST PUSH2 0x747 DUP7 PUSH2 0x70C JUMP JUMPDEST SWAP5 POP PUSH1 0x20 DUP7 ADD MLOAD SWAP4 POP PUSH1 0x40 DUP7 ADD MLOAD SWAP3 POP PUSH1 0x60 DUP7 ADD MLOAD SWAP2 POP PUSH2 0x76A PUSH1 0x80 DUP8 ADD PUSH2 0x70C JUMP JUMPDEST SWAP1 POP SWAP3 SWAP6 POP SWAP3 SWAP6 SWAP1 SWAP4 POP JUMP JUMPDEST PUSH4 0x4E487B71 PUSH1 0xE0 SHL PUSH1 0x0 MSTORE PUSH1 0x11 PUSH1 0x4 MSTORE PUSH1 0x24 PUSH1 0x0 REVERT JUMPDEST DUP1 DUP3 ADD DUP1 DUP3 GT ISZERO PUSH2 0x3E9 JUMPI PUSH2 0x3E9 PUSH2 0x776 JUMP JUMPDEST DUP1 DUP3 MUL DUP2 ISZERO DUP3 DUP3 DIV DUP5 EQ OR PUSH2 0x3E9 JUMPI PUSH2 0x3E9 PUSH2 0x776 JUMP JUMPDEST PUSH1 0x0 DUP3 PUSH2 0x7D3 JUMPI PUSH4 0x4E487B71 PUSH1 0xE0 SHL PUSH1 0x0 MSTORE PUSH1 0x12 PUSH1 0x4 MSTORE PUSH1 0x24 PUSH1 0x0 REVERT JUMPDEST POP DIV SWAP1 JUMP JUMPDEST PUSH4 0x4E487B71 PUSH1 0xE0 SHL PUSH1 0x0 MSTORE PUSH1 0x32 PUSH1 0x4 MSTORE PUSH1 0x24 PUSH1 0x0 REVERT JUMPDEST PUSH1 0x0 PUSH1 0x1 DUP3 ADD PUSH2 0x800 JUMPI PUSH2 0x800 PUSH2 0x776 JUMP JUMPDEST POP PUSH1 0x1 ADD SWAP1 JUMP INVALID LOG2 PUSH5 0x6970667358 0x22 SLT KECCAK256 SWAP6 CODECOPY DUP11 0x4F 0x4A PUSH29 0x814C2BD8624A56732670D4167F2BFDED1AA2AF4B9C09340C939264736F PUSH13 0x63430008110033000000000000 "
				},
				"gasEstimates": {
					"creation": {
						"codeDepositCost": "421800",
						"executionCost": "infinite",
						"totalCost": "infinite"
					},
					"external": {
						"admin()": "2381",
						"getLatestPrice(uint256,address)": "infinite",
						"owner()": "infinite",
						"updatePriceFeedAddress(address[],address[])": "infinite",
						"updateheartbeat(address,uint256)": "infinite"
					}
				},
				"methodIdentifiers": {
					"admin()": "f851a440",
					"getLatestPrice(uint256,address)": "3a403058",
					"owner()": "8da5cb5b",
					"updatePriceFeedAddress(address[],address[])": "fe8c1539",
					"updateheartbeat(address,uint256)": "0acdf860"
				}
			},
			"storageLayout": {
				"storage": [
					{
						"astId": 54,
						"contract": "contracts/mojito/sothebys/FeedData.sol:FeedData",
						"label": "priceFeed",
						"offset": 0,
						"slot": "0",
						"type": "t_mapping(t_address,t_contract(AggregatorV3Interface)45)"
					},
					{
						"astId": 59,
						"contract": "contracts/mojito/sothebys/FeedData.sol:FeedData",
						"label": "timeInterval",
						"offset": 0,
						"slot": "1",
						"type": "t_mapping(t_address,t_uint256)"
					},
					{
						"astId": 63,
						"contract": "contracts/mojito/sothebys/FeedData.sol:FeedData",
						"label": "admin",
						"offset": 0,
						"slot": "2",
						"type": "t_address"
					}
				],
				"types": {
					"t_address": {
						"encoding": "inplace",
						"label": "address",
						"numberOfBytes": "20"
					},
					"t_contract(AggregatorV3Interface)45": {
						"encoding": "inplace",
						"label": "contract AggregatorV3Interface",
						"numberOfBytes": "20"
					},
					"t_mapping(t_address,t_contract(AggregatorV3Interface)45)": {
						"encoding": "mapping",
						"key": "t_address",
						"label": "mapping(address => contract AggregatorV3Interface)",
						"numberOfBytes": "32",
						"value": "t_contract(AggregatorV3Interface)45"
					},
					"t_mapping(t_address,t_uint256)": {
						"encoding": "mapping",
						"key": "t_address",
						"label": "mapping(address => uint256)",
						"numberOfBytes": "32",
						"value": "t_uint256"
					},
					"t_uint256": {
						"encoding": "inplace",
						"label": "uint256",
						"numberOfBytes": "32"
					}
				}
			},
			"userdoc": {
				"kind": "user",
				"methods": {
					"getLatestPrice(uint256,address)": {
						"notice": "Getting the latestprice for the given currencyAddress"
					},
					"updatePriceFeedAddress(address[],address[])": {
						"notice": "Update the currencyAddress with respective priceFeedAddress"
					},
					"updateheartbeat(address,uint256)": {
						"notice": "Update the heartBeat with respective priceFeedAddress"
					}
				},
				"version": 1
			}
		}
	}
}