{
	"contracts/mojito/sothebys/RoyaltyEngine.sol": {
		"RoyaltyEngine": {
			"abi": [
				{
					"inputs": [
						{
							"internalType": "address",
							"name": "tokenContract",
							"type": "address"
						},
						{
							"internalType": "uint256",
							"name": "tokenId",
							"type": "uint256"
						}
					],
					"name": "getRoyalty",
					"outputs": [
						{
							"internalType": "address payable[]",
							"name": "recipients",
							"type": "address[]"
						},
						{
							"internalType": "uint256[]",
							"name": "bps",
							"type": "uint256[]"
						}
					],
					"stateMutability": "view",
					"type": "function"
				}
			],
			"devdoc": {
				"kind": "dev",
				"methods": {
					"getRoyalty(address,uint256)": {
						"params": {
							"tokenContract": "The NFT Contract address",
							"tokenId": "The NFT tokenId"
						}
					}
				},
				"version": 1
			},
			"evm": {
				"assembly": "    /* \"contracts/mojito/sothebys/RoyaltyEngine.sol\":283:1876  contract RoyaltyEngine is IRoyaltyEngine {... */\n  mstore(0x40, 0x80)\n  callvalue\n  dup1\n  iszero\n  tag_1\n  jumpi\n  0x00\n  dup1\n  revert\ntag_1:\n  pop\n  dataSize(sub_0)\n  dup1\n  dataOffset(sub_0)\n  0x00\n  codecopy\n  0x00\n  return\nstop\n\nsub_0: assembly {\n        /* \"contracts/mojito/sothebys/RoyaltyEngine.sol\":283:1876  contract RoyaltyEngine is IRoyaltyEngine {... */\n      mstore(0x40, 0x80)\n      callvalue\n      dup1\n      iszero\n      tag_1\n      jumpi\n      0x00\n      dup1\n      revert\n    tag_1:\n      pop\n      jumpi(tag_2, lt(calldatasize, 0x04))\n      shr(0xe0, calldataload(0x00))\n      dup1\n      0x6e44a72f\n      eq\n      tag_3\n      jumpi\n    tag_2:\n      0x00\n      dup1\n      revert\n        /* \"contracts/mojito/sothebys/RoyaltyEngine.sol\":787:1874  function getRoyalty(... */\n    tag_3:\n      tag_4\n      tag_5\n      calldatasize\n      0x04\n      tag_6\n      jump\t// in\n    tag_5:\n      tag_7\n      jump\t// in\n    tag_4:\n      mload(0x40)\n      tag_8\n      swap3\n      swap2\n      swap1\n      tag_9\n      jump\t// in\n    tag_8:\n      mload(0x40)\n      dup1\n      swap2\n      sub\n      swap1\n      return\n    tag_7:\n        /* \"contracts/mojito/sothebys/RoyaltyEngine.sol\":1103:1209  IERC165(tokenContract).supportsInterface(... */\n      mload(0x40)\n      shl(0xe0, 0x01ffc9a7)\n      dup2\n      mstore\n        /* \"contracts/mojito/sothebys/RoyaltyEngine.sol\":946:981  address payable[] memory recipients */\n      0x60\n      swap1\n      dup2\n      swap1\n      sub(shl(0xa0, 0x01), 0x01)\n        /* \"contracts/mojito/sothebys/RoyaltyEngine.sol\":1103:1143  IERC165(tokenContract).supportsInterface */\n      dup6\n      and\n      swap1\n      0x01ffc9a7\n      swap1\n        /* \"contracts/mojito/sothebys/RoyaltyEngine.sol\":1103:1209  IERC165(tokenContract).supportsInterface(... */\n      tag_11\n      swap1\n      shl(0xe1, 0x5d9dd7eb)\n        /* \"contracts/mojito/sothebys/RoyaltyEngine.sol\":1161:1195  ROYALTIES_CREATORCORE_INTERFACE_ID */\n      swap1\n        /* \"contracts/mojito/sothebys/RoyaltyEngine.sol\":1103:1209  IERC165(tokenContract).supportsInterface(... */\n      0x04\n      add\n      tag_12\n      jump\t// in\n    tag_11:\n      0x20\n      mload(0x40)\n      dup1\n      dup4\n      sub\n      dup2\n      dup7\n      gas\n      staticcall\n      iszero\n      dup1\n      iszero\n      tag_14\n      jumpi\n      returndatasize\n      0x00\n      dup1\n      returndatacopy\n      revert(0x00, returndatasize)\n    tag_14:\n      pop\n      pop\n      pop\n      pop\n      mload(0x40)\n      returndatasize\n      not(0x1f)\n      0x1f\n      dup3\n      add\n      and\n      dup3\n      add\n      dup1\n      0x40\n      mstore\n      pop\n      dup2\n      add\n      swap1\n      tag_15\n      swap2\n      swap1\n      tag_16\n      jump\t// in\n    tag_15:\n        /* \"contracts/mojito/sothebys/RoyaltyEngine.sol\":1086:1867  if (... */\n      iszero\n      tag_17\n      jumpi\n        /* \"contracts/mojito/sothebys/RoyaltyEngine.sol\":1254:1333  ICreatorCore(tokenContract).getRoyalties(... */\n      mload(0x40)\n      shl(0xe1, 0x5d9dd7eb)\n      dup2\n      mstore\n      0x04\n      dup2\n      add\n        /* \"#utility.yul\":2304:2329   */\n      dup5\n      swap1\n      mstore\n      sub(shl(0xa0, 0x01), 0x01)\n        /* \"contracts/mojito/sothebys/RoyaltyEngine.sol\":1254:1294  ICreatorCore(tokenContract).getRoyalties */\n      dup6\n      and\n      swap1\n      0xbb3bafd6\n      swap1\n        /* \"#utility.yul\":2277:2295   */\n      0x24\n      add\n        /* \"contracts/mojito/sothebys/RoyaltyEngine.sol\":1254:1333  ICreatorCore(tokenContract).getRoyalties(... */\n      0x00\n      mload(0x40)\n      dup1\n      dup4\n      sub\n      dup2\n      dup7\n      gas\n      staticcall\n      iszero\n      dup1\n      iszero\n      tag_21\n      jumpi\n      returndatasize\n      0x00\n      dup1\n      returndatacopy\n      revert(0x00, returndatasize)\n    tag_21:\n      pop\n      pop\n      pop\n      pop\n      mload(0x40)\n      returndatasize\n      0x00\n      dup3\n      returndatacopy\n      0x1f\n      returndatasize\n      swap1\n      dup2\n      add\n      not(0x1f)\n      and\n      dup3\n      add\n      0x40\n      mstore\n      tag_22\n      swap2\n      swap1\n      dup2\n      add\n      swap1\n      tag_23\n      jump\t// in\n    tag_22:\n        /* \"contracts/mojito/sothebys/RoyaltyEngine.sol\":1234:1333  (recipients, bps) = ICreatorCore(tokenContract).getRoyalties(... */\n      swap1\n      swap3\n      pop\n      swap1\n      pop\n        /* \"contracts/mojito/sothebys/RoyaltyEngine.sol\":1086:1867  if (... */\n      jump(tag_45)\n    tag_17:\n        /* \"contracts/mojito/sothebys/RoyaltyEngine.sol\":1367:1470  IERC165(tokenContract).supportsInterface(... */\n      mload(0x40)\n      shl(0xe0, 0x01ffc9a7)\n      dup2\n      mstore\n      sub(shl(0xa0, 0x01), 0x01)\n        /* \"contracts/mojito/sothebys/RoyaltyEngine.sol\":1367:1407  IERC165(tokenContract).supportsInterface */\n      dup6\n      and\n      swap1\n      0x01ffc9a7\n      swap1\n        /* \"contracts/mojito/sothebys/RoyaltyEngine.sol\":1367:1470  IERC165(tokenContract).supportsInterface(... */\n      tag_25\n      swap1\n      shl(0xe2, 0x2dde6561)\n        /* \"contracts/mojito/sothebys/RoyaltyEngine.sol\":1425:1456  _INTERFACE_ID_ROYALTIES_RARIBLE */\n      swap1\n        /* \"contracts/mojito/sothebys/RoyaltyEngine.sol\":1367:1470  IERC165(tokenContract).supportsInterface(... */\n      0x04\n      add\n      tag_12\n      jump\t// in\n    tag_25:\n      0x20\n      mload(0x40)\n      dup1\n      dup4\n      sub\n      dup2\n      dup7\n      gas\n      staticcall\n      iszero\n      dup1\n      iszero\n      tag_27\n      jumpi\n      returndatasize\n      0x00\n      dup1\n      returndatacopy\n      revert(0x00, returndatasize)\n    tag_27:\n      pop\n      pop\n      pop\n      pop\n      mload(0x40)\n      returndatasize\n      not(0x1f)\n      0x1f\n      dup3\n      add\n      and\n      dup3\n      add\n      dup1\n      0x40\n      mstore\n      pop\n      dup2\n      add\n      swap1\n      tag_28\n      swap2\n      swap1\n      tag_16\n      jump\t// in\n    tag_28:\n        /* \"contracts/mojito/sothebys/RoyaltyEngine.sol\":1350:1867  if (... */\n      iszero\n      tag_29\n      jumpi\n        /* \"contracts/mojito/sothebys/RoyaltyEngine.sol\":1508:1561  ICreatorCore(tokenContract).getFeeRecipients(tokenId) */\n      mload(0x40)\n      shl(0xe0, 0xb9c4d9fb)\n      dup2\n      mstore\n      0x04\n      dup2\n      add\n        /* \"#utility.yul\":2304:2329   */\n      dup5\n      swap1\n      mstore\n      sub(shl(0xa0, 0x01), 0x01)\n        /* \"contracts/mojito/sothebys/RoyaltyEngine.sol\":1508:1552  ICreatorCore(tokenContract).getFeeRecipients */\n      dup6\n      and\n      swap1\n      0xb9c4d9fb\n      swap1\n        /* \"#utility.yul\":2277:2295   */\n      0x24\n      add\n        /* \"contracts/mojito/sothebys/RoyaltyEngine.sol\":1508:1561  ICreatorCore(tokenContract).getFeeRecipients(tokenId) */\n      0x00\n      mload(0x40)\n      dup1\n      dup4\n      sub\n      dup2\n      dup7\n      gas\n      staticcall\n      iszero\n      dup1\n      iszero\n      tag_32\n      jumpi\n      returndatasize\n      0x00\n      dup1\n      returndatacopy\n      revert(0x00, returndatasize)\n    tag_32:\n      pop\n      pop\n      pop\n      pop\n      mload(0x40)\n      returndatasize\n      0x00\n      dup3\n      returndatacopy\n      0x1f\n      returndatasize\n      swap1\n      dup2\n      add\n      not(0x1f)\n      and\n      dup3\n      add\n      0x40\n      mstore\n      tag_33\n      swap2\n      swap1\n      dup2\n      add\n      swap1\n      tag_34\n      jump\t// in\n    tag_33:\n        /* \"contracts/mojito/sothebys/RoyaltyEngine.sol\":1581:1627  ICreatorCore(tokenContract).getFeeBps(tokenId) */\n      mload(0x40)\n      shl(0xe0, 0x0ebd4c7f)\n      dup2\n      mstore\n      0x04\n      dup2\n      add\n        /* \"#utility.yul\":2304:2329   */\n      dup6\n      swap1\n      mstore\n        /* \"contracts/mojito/sothebys/RoyaltyEngine.sol\":1495:1561  recipients = ICreatorCore(tokenContract).getFeeRecipients(tokenId) */\n      swap1\n      swap3\n      pop\n      sub(shl(0xa0, 0x01), 0x01)\n        /* \"contracts/mojito/sothebys/RoyaltyEngine.sol\":1581:1618  ICreatorCore(tokenContract).getFeeBps */\n      dup6\n      and\n      swap1\n      0x0ebd4c7f\n      swap1\n        /* \"#utility.yul\":2277:2295   */\n      0x24\n      add\n        /* \"contracts/mojito/sothebys/RoyaltyEngine.sol\":1581:1627  ICreatorCore(tokenContract).getFeeBps(tokenId) */\n      0x00\n      mload(0x40)\n      dup1\n      dup4\n      sub\n      dup2\n      dup7\n      gas\n      staticcall\n      iszero\n      dup1\n      iszero\n      tag_37\n      jumpi\n      returndatasize\n      0x00\n      dup1\n      returndatacopy\n      revert(0x00, returndatasize)\n    tag_37:\n      pop\n      pop\n      pop\n      pop\n      mload(0x40)\n      returndatasize\n      0x00\n      dup3\n      returndatacopy\n      0x1f\n      returndatasize\n      swap1\n      dup2\n      add\n      not(0x1f)\n      and\n      dup3\n      add\n      0x40\n      mstore\n      tag_38\n      swap2\n      swap1\n      dup2\n      add\n      swap1\n      tag_39\n      jump\t// in\n    tag_38:\n        /* \"contracts/mojito/sothebys/RoyaltyEngine.sol\":1575:1627  bps = ICreatorCore(tokenContract).getFeeBps(tokenId) */\n      swap1\n      pop\n        /* \"contracts/mojito/sothebys/RoyaltyEngine.sol\":1350:1867  if (... */\n      jump(tag_45)\n    tag_29:\n        /* \"contracts/mojito/sothebys/RoyaltyEngine.sol\":1661:1767  IERC165(tokenContract).supportsInterface(... */\n      mload(0x40)\n      shl(0xe0, 0x01ffc9a7)\n      dup2\n      mstore\n      sub(shl(0xa0, 0x01), 0x01)\n        /* \"contracts/mojito/sothebys/RoyaltyEngine.sol\":1661:1701  IERC165(tokenContract).supportsInterface */\n      dup6\n      and\n      swap1\n      0x01ffc9a7\n      swap1\n        /* \"contracts/mojito/sothebys/RoyaltyEngine.sol\":1661:1767  IERC165(tokenContract).supportsInterface(... */\n      tag_41\n      swap1\n      shl(0xe2, 0x35681b53)\n        /* \"contracts/mojito/sothebys/RoyaltyEngine.sol\":1719:1753  _INTERFACE_ID_ROYALTIES_FOUNDATION */\n      swap1\n        /* \"contracts/mojito/sothebys/RoyaltyEngine.sol\":1661:1767  IERC165(tokenContract).supportsInterface(... */\n      0x04\n      add\n      tag_12\n      jump\t// in\n    tag_41:\n      0x20\n      mload(0x40)\n      dup1\n      dup4\n      sub\n      dup2\n      dup7\n      gas\n      staticcall\n      iszero\n      dup1\n      iszero\n      tag_43\n      jumpi\n      returndatasize\n      0x00\n      dup1\n      returndatacopy\n      revert(0x00, returndatasize)\n    tag_43:\n      pop\n      pop\n      pop\n      pop\n      mload(0x40)\n      returndatasize\n      not(0x1f)\n      0x1f\n      dup3\n      add\n      and\n      dup3\n      add\n      dup1\n      0x40\n      mstore\n      pop\n      dup2\n      add\n      swap1\n      tag_44\n      swap2\n      swap1\n      tag_16\n      jump\t// in\n    tag_44:\n        /* \"contracts/mojito/sothebys/RoyaltyEngine.sol\":1644:1867  if (... */\n      iszero\n      tag_45\n      jumpi\n        /* \"contracts/mojito/sothebys/RoyaltyEngine.sol\":1812:1856  ICreatorCore(tokenContract).getFees(tokenId) */\n      mload(0x40)\n      shl(0xe2, 0x35681b53)\n      dup2\n      mstore\n      0x04\n      dup2\n      add\n        /* \"#utility.yul\":2304:2329   */\n      dup5\n      swap1\n      mstore\n      sub(shl(0xa0, 0x01), 0x01)\n        /* \"contracts/mojito/sothebys/RoyaltyEngine.sol\":1812:1847  ICreatorCore(tokenContract).getFees */\n      dup6\n      and\n      swap1\n      0xd5a06d4c\n      swap1\n        /* \"#utility.yul\":2277:2295   */\n      0x24\n      add\n        /* \"contracts/mojito/sothebys/RoyaltyEngine.sol\":1812:1856  ICreatorCore(tokenContract).getFees(tokenId) */\n      0x00\n      mload(0x40)\n      dup1\n      dup4\n      sub\n      dup2\n      dup7\n      gas\n      staticcall\n      iszero\n      dup1\n      iszero\n      tag_48\n      jumpi\n      returndatasize\n      0x00\n      dup1\n      returndatacopy\n      revert(0x00, returndatasize)\n    tag_48:\n      pop\n      pop\n      pop\n      pop\n      mload(0x40)\n      returndatasize\n      0x00\n      dup3\n      returndatacopy\n      0x1f\n      returndatasize\n      swap1\n      dup2\n      add\n      not(0x1f)\n      and\n      dup3\n      add\n      0x40\n      mstore\n      tag_49\n      swap2\n      swap1\n      dup2\n      add\n      swap1\n      tag_23\n      jump\t// in\n    tag_49:\n        /* \"contracts/mojito/sothebys/RoyaltyEngine.sol\":1792:1856  (recipients, bps) = ICreatorCore(tokenContract).getFees(tokenId) */\n      swap1\n      swap3\n      pop\n      swap1\n      pop\n        /* \"contracts/mojito/sothebys/RoyaltyEngine.sol\":1644:1867  if (... */\n    tag_45:\n        /* \"contracts/mojito/sothebys/RoyaltyEngine.sol\":787:1874  function getRoyalty(... */\n      swap3\n      pop\n      swap3\n      swap1\n      pop\n      jump\t// out\n        /* \"#utility.yul\":14:145   */\n    tag_50:\n      sub(shl(0xa0, 0x01), 0x01)\n        /* \"#utility.yul\":89:120   */\n      dup2\n      and\n        /* \"#utility.yul\":79:121   */\n      dup2\n      eq\n        /* \"#utility.yul\":69:139   */\n      tag_58\n      jumpi\n        /* \"#utility.yul\":135:136   */\n      0x00\n        /* \"#utility.yul\":132:133   */\n      dup1\n        /* \"#utility.yul\":125:137   */\n      revert\n        /* \"#utility.yul\":69:139   */\n    tag_58:\n        /* \"#utility.yul\":14:145   */\n      pop\n      jump\t// out\n        /* \"#utility.yul\":150:465   */\n    tag_6:\n        /* \"#utility.yul\":218:224   */\n      0x00\n        /* \"#utility.yul\":226:232   */\n      dup1\n        /* \"#utility.yul\":279:281   */\n      0x40\n        /* \"#utility.yul\":267:276   */\n      dup4\n        /* \"#utility.yul\":258:265   */\n      dup6\n        /* \"#utility.yul\":254:277   */\n      sub\n        /* \"#utility.yul\":250:282   */\n      slt\n        /* \"#utility.yul\":247:299   */\n      iszero\n      tag_60\n      jumpi\n        /* \"#utility.yul\":295:296   */\n      0x00\n        /* \"#utility.yul\":292:293   */\n      dup1\n        /* \"#utility.yul\":285:297   */\n      revert\n        /* \"#utility.yul\":247:299   */\n    tag_60:\n        /* \"#utility.yul\":334:343   */\n      dup3\n        /* \"#utility.yul\":321:344   */\n      calldataload\n        /* \"#utility.yul\":353:384   */\n      tag_61\n        /* \"#utility.yul\":378:383   */\n      dup2\n        /* \"#utility.yul\":353:384   */\n      tag_50\n      jump\t// in\n    tag_61:\n        /* \"#utility.yul\":403:408   */\n      swap5\n        /* \"#utility.yul\":455:457   */\n      0x20\n        /* \"#utility.yul\":440:458   */\n      swap4\n      swap1\n      swap4\n      add\n        /* \"#utility.yul\":427:459   */\n      calldataload\n      swap4\n      pop\n      pop\n      pop\n        /* \"#utility.yul\":150:465   */\n      jump\t// out\n        /* \"#utility.yul\":470:1664   */\n    tag_9:\n        /* \"#utility.yul\":754:756   */\n      0x40\n        /* \"#utility.yul\":766:787   */\n      dup1\n      dup3\n      mstore\n        /* \"#utility.yul\":836:849   */\n      dup4\n      mload\n        /* \"#utility.yul\":739:757   */\n      swap1\n      dup3\n      add\n        /* \"#utility.yul\":858:880   */\n      dup2\n      swap1\n      mstore\n        /* \"#utility.yul\":706:710   */\n      0x00\n      swap1\n        /* \"#utility.yul\":933:937   */\n      0x20\n      swap1\n        /* \"#utility.yul\":911:913   */\n      0x60\n        /* \"#utility.yul\":896:914   */\n      dup5\n      add\n      swap1\n        /* \"#utility.yul\":960:975   */\n      dup3\n      dup8\n      add\n        /* \"#utility.yul\":706:710   */\n      dup5\n        /* \"#utility.yul\":1003:1198   */\n    tag_63:\n        /* \"#utility.yul\":1017:1023   */\n      dup3\n        /* \"#utility.yul\":1014:1015   */\n      dup2\n        /* \"#utility.yul\":1011:1024   */\n      lt\n        /* \"#utility.yul\":1003:1198   */\n      iszero\n      tag_65\n      jumpi\n        /* \"#utility.yul\":1082:1095   */\n      dup2\n      mload\n      sub(shl(0xa0, 0x01), 0x01)\n        /* \"#utility.yul\":1078:1117   */\n      and\n        /* \"#utility.yul\":1066:1118   */\n      dup5\n      mstore\n        /* \"#utility.yul\":1138:1150   */\n      swap3\n      dup5\n      add\n      swap3\n        /* \"#utility.yul\":1173:1188   */\n      swap1\n      dup5\n      add\n      swap1\n        /* \"#utility.yul\":1114:1115   */\n      0x01\n        /* \"#utility.yul\":1032:1041   */\n      add\n        /* \"#utility.yul\":1003:1198   */\n      jump(tag_63)\n    tag_65:\n      pop\n      pop\n      pop\n        /* \"#utility.yul\":1234:1253   */\n      dup4\n      dup2\n      sub\n        /* \"#utility.yul\":1214:1232   */\n      dup3\n      dup6\n      add\n        /* \"#utility.yul\":1207:1254   */\n      mstore\n        /* \"#utility.yul\":1304:1317   */\n      dup5\n      mload\n        /* \"#utility.yul\":1326:1347   */\n      dup1\n      dup3\n      mstore\n        /* \"#utility.yul\":1402:1417   */\n      dup6\n      dup4\n      add\n      swap2\n        /* \"#utility.yul\":1365:1377   */\n      dup4\n      add\n      swap1\n        /* \"#utility.yul\":1437:1438   */\n      0x00\n        /* \"#utility.yul\":1447:1636   */\n    tag_66:\n        /* \"#utility.yul\":1463:1471   */\n      dup2\n        /* \"#utility.yul\":1458:1461   */\n      dup2\n        /* \"#utility.yul\":1455:1472   */\n      lt\n        /* \"#utility.yul\":1447:1636   */\n      iszero\n      tag_68\n      jumpi\n        /* \"#utility.yul\":1532:1547   */\n      dup4\n      mload\n        /* \"#utility.yul\":1518:1548   */\n      dup4\n      mstore\n        /* \"#utility.yul\":1609:1626   */\n      swap3\n      dup5\n      add\n      swap3\n        /* \"#utility.yul\":1570:1584   */\n      swap2\n      dup5\n      add\n      swap2\n        /* \"#utility.yul\":1491:1492   */\n      0x01\n        /* \"#utility.yul\":1482:1493   */\n      add\n        /* \"#utility.yul\":1447:1636   */\n      jump(tag_66)\n    tag_68:\n      pop\n        /* \"#utility.yul\":1653:1658   */\n      swap1\n      swap8\n        /* \"#utility.yul\":470:1664   */\n      swap7\n      pop\n      pop\n      pop\n      pop\n      pop\n      pop\n      pop\n      jump\t// out\n        /* \"#utility.yul\":1669:1871   */\n    tag_12:\n      not(sub(shl(0xe0, 0x01), 0x01))\n        /* \"#utility.yul\":1831:1864   */\n      swap2\n      swap1\n      swap2\n      and\n        /* \"#utility.yul\":1813:1865   */\n      dup2\n      mstore\n        /* \"#utility.yul\":1801:1803   */\n      0x20\n        /* \"#utility.yul\":1786:1804   */\n      add\n      swap1\n        /* \"#utility.yul\":1669:1871   */\n      jump\t// out\n        /* \"#utility.yul\":1876:2153   */\n    tag_16:\n        /* \"#utility.yul\":1943:1949   */\n      0x00\n        /* \"#utility.yul\":1996:1998   */\n      0x20\n        /* \"#utility.yul\":1984:1993   */\n      dup3\n        /* \"#utility.yul\":1975:1982   */\n      dup5\n        /* \"#utility.yul\":1971:1994   */\n      sub\n        /* \"#utility.yul\":1967:1999   */\n      slt\n        /* \"#utility.yul\":1964:2016   */\n      iszero\n      tag_71\n      jumpi\n        /* \"#utility.yul\":2012:2013   */\n      0x00\n        /* \"#utility.yul\":2009:2010   */\n      dup1\n        /* \"#utility.yul\":2002:2014   */\n      revert\n        /* \"#utility.yul\":1964:2016   */\n    tag_71:\n        /* \"#utility.yul\":2044:2053   */\n      dup2\n        /* \"#utility.yul\":2038:2054   */\n      mload\n        /* \"#utility.yul\":2097:2102   */\n      dup1\n        /* \"#utility.yul\":2090:2103   */\n      iszero\n        /* \"#utility.yul\":2083:2104   */\n      iszero\n        /* \"#utility.yul\":2076:2081   */\n      dup2\n        /* \"#utility.yul\":2073:2105   */\n      eq\n        /* \"#utility.yul\":2063:2123   */\n      tag_72\n      jumpi\n        /* \"#utility.yul\":2119:2120   */\n      0x00\n        /* \"#utility.yul\":2116:2117   */\n      dup1\n        /* \"#utility.yul\":2109:2121   */\n      revert\n        /* \"#utility.yul\":2063:2123   */\n    tag_72:\n        /* \"#utility.yul\":2142:2147   */\n      swap4\n        /* \"#utility.yul\":1876:2153   */\n      swap3\n      pop\n      pop\n      pop\n      jump\t// out\n        /* \"#utility.yul\":2340:2467   */\n    tag_51:\n        /* \"#utility.yul\":2401:2411   */\n      0x4e487b71\n        /* \"#utility.yul\":2396:2399   */\n      0xe0\n        /* \"#utility.yul\":2392:2412   */\n      shl\n        /* \"#utility.yul\":2389:2390   */\n      0x00\n        /* \"#utility.yul\":2382:2413   */\n      mstore\n        /* \"#utility.yul\":2432:2436   */\n      0x41\n        /* \"#utility.yul\":2429:2430   */\n      0x04\n        /* \"#utility.yul\":2422:2437   */\n      mstore\n        /* \"#utility.yul\":2456:2460   */\n      0x24\n        /* \"#utility.yul\":2453:2454   */\n      0x00\n        /* \"#utility.yul\":2446:2461   */\n      revert\n        /* \"#utility.yul\":2472:2747   */\n    tag_52:\n        /* \"#utility.yul\":2543:2545   */\n      0x40\n        /* \"#utility.yul\":2537:2546   */\n      mload\n        /* \"#utility.yul\":2608:2610   */\n      0x1f\n        /* \"#utility.yul\":2589:2602   */\n      dup3\n      add\n      not(0x1f)\n        /* \"#utility.yul\":2585:2612   */\n      and\n        /* \"#utility.yul\":2573:2613   */\n      dup2\n      add\n        /* \"#utility.yul\":2643:2661   */\n      0xffffffffffffffff\n        /* \"#utility.yul\":2628:2662   */\n      dup2\n      gt\n        /* \"#utility.yul\":2664:2686   */\n      dup3\n      dup3\n      lt\n        /* \"#utility.yul\":2625:2687   */\n      or\n        /* \"#utility.yul\":2622:2710   */\n      iszero\n      tag_77\n      jumpi\n        /* \"#utility.yul\":2690:2708   */\n      tag_77\n      tag_51\n      jump\t// in\n    tag_77:\n        /* \"#utility.yul\":2726:2728   */\n      0x40\n        /* \"#utility.yul\":2719:2741   */\n      mstore\n        /* \"#utility.yul\":2472:2747   */\n      swap2\n      swap1\n      pop\n      jump\t// out\n        /* \"#utility.yul\":2752:2943   */\n    tag_53:\n        /* \"#utility.yul\":2820:2824   */\n      0x00\n        /* \"#utility.yul\":2853:2871   */\n      0xffffffffffffffff\n        /* \"#utility.yul\":2845:2851   */\n      dup3\n        /* \"#utility.yul\":2842:2872   */\n      gt\n        /* \"#utility.yul\":2839:2895   */\n      iszero\n      tag_80\n      jumpi\n        /* \"#utility.yul\":2875:2893   */\n      tag_80\n      tag_51\n      jump\t// in\n    tag_80:\n      pop\n        /* \"#utility.yul\":2920:2921   */\n      0x05\n        /* \"#utility.yul\":2916:2930   */\n      shl\n        /* \"#utility.yul\":2932:2936   */\n      0x20\n        /* \"#utility.yul\":2912:2937   */\n      add\n      swap1\n        /* \"#utility.yul\":2752:2943   */\n      jump\t// out\n        /* \"#utility.yul\":2948:3698   */\n    tag_54:\n        /* \"#utility.yul\":3021:3026   */\n      0x00\n        /* \"#utility.yul\":3074:3077   */\n      dup3\n        /* \"#utility.yul\":3067:3071   */\n      0x1f\n        /* \"#utility.yul\":3059:3065   */\n      dup4\n        /* \"#utility.yul\":3055:3072   */\n      add\n        /* \"#utility.yul\":3051:3078   */\n      slt\n        /* \"#utility.yul\":3041:3096   */\n      tag_82\n      jumpi\n        /* \"#utility.yul\":3092:3093   */\n      0x00\n        /* \"#utility.yul\":3089:3090   */\n      dup1\n        /* \"#utility.yul\":3082:3094   */\n      revert\n        /* \"#utility.yul\":3041:3096   */\n    tag_82:\n        /* \"#utility.yul\":3121:3127   */\n      dup2\n        /* \"#utility.yul\":3115:3128   */\n      mload\n        /* \"#utility.yul\":3147:3151   */\n      0x20\n        /* \"#utility.yul\":3171:3239   */\n      tag_83\n        /* \"#utility.yul\":3187:3238   */\n      tag_84\n        /* \"#utility.yul\":3235:3237   */\n      dup4\n        /* \"#utility.yul\":3187:3238   */\n      tag_53\n      jump\t// in\n    tag_84:\n        /* \"#utility.yul\":3171:3239   */\n      tag_52\n      jump\t// in\n    tag_83:\n        /* \"#utility.yul\":3273:3288   */\n      dup3\n      dup2\n      mstore\n        /* \"#utility.yul\":3359:3360   */\n      0x05\n        /* \"#utility.yul\":3355:3365   */\n      swap3\n      swap1\n      swap3\n      shl\n        /* \"#utility.yul\":3343:3366   */\n      dup5\n      add\n        /* \"#utility.yul\":3339:3371   */\n      dup2\n      add\n      swap2\n        /* \"#utility.yul\":3304:3316   */\n      dup2\n      dup2\n      add\n      swap1\n        /* \"#utility.yul\":3383:3398   */\n      dup7\n      dup5\n      gt\n        /* \"#utility.yul\":3380:3415   */\n      iszero\n      tag_85\n      jumpi\n        /* \"#utility.yul\":3411:3412   */\n      0x00\n        /* \"#utility.yul\":3408:3409   */\n      dup1\n        /* \"#utility.yul\":3401:3413   */\n      revert\n        /* \"#utility.yul\":3380:3415   */\n    tag_85:\n        /* \"#utility.yul\":3447:3449   */\n      dup3\n        /* \"#utility.yul\":3439:3445   */\n      dup7\n        /* \"#utility.yul\":3435:3450   */\n      add\n        /* \"#utility.yul\":3459:3669   */\n    tag_86:\n        /* \"#utility.yul\":3475:3481   */\n      dup5\n        /* \"#utility.yul\":3470:3473   */\n      dup2\n        /* \"#utility.yul\":3467:3482   */\n      lt\n        /* \"#utility.yul\":3459:3669   */\n      iszero\n      tag_88\n      jumpi\n        /* \"#utility.yul\":3548:3551   */\n      dup1\n        /* \"#utility.yul\":3542:3552   */\n      mload\n        /* \"#utility.yul\":3565:3596   */\n      tag_89\n        /* \"#utility.yul\":3590:3595   */\n      dup2\n        /* \"#utility.yul\":3565:3596   */\n      tag_50\n      jump\t// in\n    tag_89:\n        /* \"#utility.yul\":3609:3627   */\n      dup4\n      mstore\n        /* \"#utility.yul\":3647:3659   */\n      swap2\n      dup4\n      add\n      swap2\n        /* \"#utility.yul\":3492:3504   */\n      dup4\n      add\n        /* \"#utility.yul\":3459:3669   */\n      jump(tag_86)\n    tag_88:\n      pop\n        /* \"#utility.yul\":3687:3692   */\n      swap7\n        /* \"#utility.yul\":2948:3698   */\n      swap6\n      pop\n      pop\n      pop\n      pop\n      pop\n      pop\n      jump\t// out\n        /* \"#utility.yul\":3703:4370   */\n    tag_55:\n        /* \"#utility.yul\":3768:3773   */\n      0x00\n        /* \"#utility.yul\":3821:3824   */\n      dup3\n        /* \"#utility.yul\":3814:3818   */\n      0x1f\n        /* \"#utility.yul\":3806:3812   */\n      dup4\n        /* \"#utility.yul\":3802:3819   */\n      add\n        /* \"#utility.yul\":3798:3825   */\n      slt\n        /* \"#utility.yul\":3788:3843   */\n      tag_91\n      jumpi\n        /* \"#utility.yul\":3839:3840   */\n      0x00\n        /* \"#utility.yul\":3836:3837   */\n      dup1\n        /* \"#utility.yul\":3829:3841   */\n      revert\n        /* \"#utility.yul\":3788:3843   */\n    tag_91:\n        /* \"#utility.yul\":3868:3874   */\n      dup2\n        /* \"#utility.yul\":3862:3875   */\n      mload\n        /* \"#utility.yul\":3894:3898   */\n      0x20\n        /* \"#utility.yul\":3918:3986   */\n      tag_92\n        /* \"#utility.yul\":3934:3985   */\n      tag_84\n        /* \"#utility.yul\":3982:3984   */\n      dup4\n        /* \"#utility.yul\":3934:3985   */\n      tag_53\n      jump\t// in\n        /* \"#utility.yul\":3918:3986   */\n    tag_92:\n        /* \"#utility.yul\":4020:4035   */\n      dup3\n      dup2\n      mstore\n        /* \"#utility.yul\":4106:4107   */\n      0x05\n        /* \"#utility.yul\":4102:4112   */\n      swap3\n      swap1\n      swap3\n      shl\n        /* \"#utility.yul\":4090:4113   */\n      dup5\n      add\n        /* \"#utility.yul\":4086:4118   */\n      dup2\n      add\n      swap2\n        /* \"#utility.yul\":4051:4063   */\n      dup2\n      dup2\n      add\n      swap1\n        /* \"#utility.yul\":4130:4145   */\n      dup7\n      dup5\n      gt\n        /* \"#utility.yul\":4127:4162   */\n      iszero\n      tag_94\n      jumpi\n        /* \"#utility.yul\":4158:4159   */\n      0x00\n        /* \"#utility.yul\":4155:4156   */\n      dup1\n        /* \"#utility.yul\":4148:4160   */\n      revert\n        /* \"#utility.yul\":4127:4162   */\n    tag_94:\n        /* \"#utility.yul\":4194:4196   */\n      dup3\n        /* \"#utility.yul\":4186:4192   */\n      dup7\n        /* \"#utility.yul\":4182:4197   */\n      add\n        /* \"#utility.yul\":4206:4341   */\n    tag_95:\n        /* \"#utility.yul\":4222:4228   */\n      dup5\n        /* \"#utility.yul\":4217:4220   */\n      dup2\n        /* \"#utility.yul\":4214:4229   */\n      lt\n        /* \"#utility.yul\":4206:4341   */\n      iszero\n      tag_88\n      jumpi\n        /* \"#utility.yul\":4288:4298   */\n      dup1\n      mload\n        /* \"#utility.yul\":4276:4299   */\n      dup4\n      mstore\n        /* \"#utility.yul\":4319:4331   */\n      swap2\n      dup4\n      add\n      swap2\n        /* \"#utility.yul\":4239:4251   */\n      dup4\n      add\n        /* \"#utility.yul\":4206:4341   */\n      jump(tag_95)\n        /* \"#utility.yul\":4375:5005   */\n    tag_23:\n        /* \"#utility.yul\":4512:4518   */\n      0x00\n        /* \"#utility.yul\":4520:4526   */\n      dup1\n        /* \"#utility.yul\":4573:4575   */\n      0x40\n        /* \"#utility.yul\":4561:4570   */\n      dup4\n        /* \"#utility.yul\":4552:4559   */\n      dup6\n        /* \"#utility.yul\":4548:4571   */\n      sub\n        /* \"#utility.yul\":4544:4576   */\n      slt\n        /* \"#utility.yul\":4541:4593   */\n      iszero\n      tag_99\n      jumpi\n        /* \"#utility.yul\":4589:4590   */\n      0x00\n        /* \"#utility.yul\":4586:4587   */\n      dup1\n        /* \"#utility.yul\":4579:4591   */\n      revert\n        /* \"#utility.yul\":4541:4593   */\n    tag_99:\n        /* \"#utility.yul\":4622:4631   */\n      dup3\n        /* \"#utility.yul\":4616:4632   */\n      mload\n        /* \"#utility.yul\":4651:4669   */\n      0xffffffffffffffff\n        /* \"#utility.yul\":4692:4694   */\n      dup1\n        /* \"#utility.yul\":4684:4690   */\n      dup3\n        /* \"#utility.yul\":4681:4695   */\n      gt\n        /* \"#utility.yul\":4678:4712   */\n      iszero\n      tag_100\n      jumpi\n        /* \"#utility.yul\":4708:4709   */\n      0x00\n        /* \"#utility.yul\":4705:4706   */\n      dup1\n        /* \"#utility.yul\":4698:4710   */\n      revert\n        /* \"#utility.yul\":4678:4712   */\n    tag_100:\n        /* \"#utility.yul\":4731:4811   */\n      tag_101\n        /* \"#utility.yul\":4803:4810   */\n      dup7\n        /* \"#utility.yul\":4794:4800   */\n      dup4\n        /* \"#utility.yul\":4783:4792   */\n      dup8\n        /* \"#utility.yul\":4779:4801   */\n      add\n        /* \"#utility.yul\":4731:4811   */\n      tag_54\n      jump\t// in\n    tag_101:\n        /* \"#utility.yul\":4721:4811   */\n      swap4\n      pop\n        /* \"#utility.yul\":4857:4859   */\n      0x20\n        /* \"#utility.yul\":4846:4855   */\n      dup6\n        /* \"#utility.yul\":4842:4860   */\n      add\n        /* \"#utility.yul\":4836:4861   */\n      mload\n        /* \"#utility.yul\":4820:4861   */\n      swap2\n      pop\n        /* \"#utility.yul\":4886:4888   */\n      dup1\n        /* \"#utility.yul\":4876:4884   */\n      dup3\n        /* \"#utility.yul\":4873:4889   */\n      gt\n        /* \"#utility.yul\":4870:4906   */\n      iszero\n      tag_102\n      jumpi\n        /* \"#utility.yul\":4902:4903   */\n      0x00\n        /* \"#utility.yul\":4899:4900   */\n      dup1\n        /* \"#utility.yul\":4892:4904   */\n      revert\n        /* \"#utility.yul\":4870:4906   */\n    tag_102:\n      pop\n        /* \"#utility.yul\":4925:4999   */\n      tag_103\n        /* \"#utility.yul\":4991:4998   */\n      dup6\n        /* \"#utility.yul\":4980:4988   */\n      dup3\n        /* \"#utility.yul\":4969:4978   */\n      dup7\n        /* \"#utility.yul\":4965:4989   */\n      add\n        /* \"#utility.yul\":4925:4999   */\n      tag_55\n      jump\t// in\n    tag_103:\n        /* \"#utility.yul\":4915:4999   */\n      swap2\n      pop\n      pop\n        /* \"#utility.yul\":4375:5005   */\n      swap3\n      pop\n      swap3\n      swap1\n      pop\n      jump\t// out\n        /* \"#utility.yul\":5010:5389   */\n    tag_34:\n        /* \"#utility.yul\":5113:5119   */\n      0x00\n        /* \"#utility.yul\":5166:5168   */\n      0x20\n        /* \"#utility.yul\":5154:5163   */\n      dup3\n        /* \"#utility.yul\":5145:5152   */\n      dup5\n        /* \"#utility.yul\":5141:5164   */\n      sub\n        /* \"#utility.yul\":5137:5169   */\n      slt\n        /* \"#utility.yul\":5134:5186   */\n      iszero\n      tag_105\n      jumpi\n        /* \"#utility.yul\":5182:5183   */\n      0x00\n        /* \"#utility.yul\":5179:5180   */\n      dup1\n        /* \"#utility.yul\":5172:5184   */\n      revert\n        /* \"#utility.yul\":5134:5186   */\n    tag_105:\n        /* \"#utility.yul\":5215:5224   */\n      dup2\n        /* \"#utility.yul\":5209:5225   */\n      mload\n        /* \"#utility.yul\":5248:5266   */\n      0xffffffffffffffff\n        /* \"#utility.yul\":5240:5246   */\n      dup2\n        /* \"#utility.yul\":5237:5267   */\n      gt\n        /* \"#utility.yul\":5234:5284   */\n      iszero\n      tag_106\n      jumpi\n        /* \"#utility.yul\":5280:5281   */\n      0x00\n        /* \"#utility.yul\":5277:5278   */\n      dup1\n        /* \"#utility.yul\":5270:5282   */\n      revert\n        /* \"#utility.yul\":5234:5284   */\n    tag_106:\n        /* \"#utility.yul\":5303:5383   */\n      tag_107\n        /* \"#utility.yul\":5375:5382   */\n      dup5\n        /* \"#utility.yul\":5366:5372   */\n      dup3\n        /* \"#utility.yul\":5355:5364   */\n      dup6\n        /* \"#utility.yul\":5351:5373   */\n      add\n        /* \"#utility.yul\":5303:5383   */\n      tag_54\n      jump\t// in\n    tag_107:\n        /* \"#utility.yul\":5293:5383   */\n      swap5\n        /* \"#utility.yul\":5010:5389   */\n      swap4\n      pop\n      pop\n      pop\n      pop\n      jump\t// out\n        /* \"#utility.yul\":5394:5757   */\n    tag_39:\n        /* \"#utility.yul\":5489:5495   */\n      0x00\n        /* \"#utility.yul\":5542:5544   */\n      0x20\n        /* \"#utility.yul\":5530:5539   */\n      dup3\n        /* \"#utility.yul\":5521:5528   */\n      dup5\n        /* \"#utility.yul\":5517:5540   */\n      sub\n        /* \"#utility.yul\":5513:5545   */\n      slt\n        /* \"#utility.yul\":5510:5562   */\n      iszero\n      tag_109\n      jumpi\n        /* \"#utility.yul\":5558:5559   */\n      0x00\n        /* \"#utility.yul\":5555:5556   */\n      dup1\n        /* \"#utility.yul\":5548:5560   */\n      revert\n        /* \"#utility.yul\":5510:5562   */\n    tag_109:\n        /* \"#utility.yul\":5591:5600   */\n      dup2\n        /* \"#utility.yul\":5585:5601   */\n      mload\n        /* \"#utility.yul\":5624:5642   */\n      0xffffffffffffffff\n        /* \"#utility.yul\":5616:5622   */\n      dup2\n        /* \"#utility.yul\":5613:5643   */\n      gt\n        /* \"#utility.yul\":5610:5660   */\n      iszero\n      tag_110\n      jumpi\n        /* \"#utility.yul\":5656:5657   */\n      0x00\n        /* \"#utility.yul\":5653:5654   */\n      dup1\n        /* \"#utility.yul\":5646:5658   */\n      revert\n        /* \"#utility.yul\":5610:5660   */\n    tag_110:\n        /* \"#utility.yul\":5679:5751   */\n      tag_107\n        /* \"#utility.yul\":5743:5750   */\n      dup5\n        /* \"#utility.yul\":5734:5740   */\n      dup3\n        /* \"#utility.yul\":5723:5732   */\n      dup6\n        /* \"#utility.yul\":5719:5741   */\n      add\n        /* \"#utility.yul\":5679:5751   */\n      tag_55\n      jump\t// in\n\n    auxdata: 0xa2646970667358221220648d46ca4ae85610a2b4c0aa7acabfd1976b326e832957fb3629e41a9e3a01b764736f6c63430008110033\n}\n",
				"bytecode": {
					"linkReferences": {},
					"object": "608060405234801561001057600080fd5b506106eb806100206000396000f3fe608060405234801561001057600080fd5b506004361061002b5760003560e01c80636e44a72f14610030575b600080fd5b61004361003e3660046103b7565b61005a565b6040516100519291906103e3565b60405180910390f35b6040516301ffc9a760e01b815260609081906001600160a01b038516906301ffc9a79061009290635d9dd7eb60e11b90600401610467565b602060405180830381865afa1580156100af573d6000803e3d6000fd5b505050506040513d601f19601f820116820180604052508101906100d3919061047c565b1561014f57604051635d9dd7eb60e11b8152600481018490526001600160a01b0385169063bb3bafd690602401600060405180830381865afa15801561011d573d6000803e3d6000fd5b505050506040513d6000823e601f3d908101601f1916820160405261014591908101906105df565b9092509050610398565b6040516301ffc9a760e01b81526001600160a01b038516906301ffc9a79061018290632dde656160e21b90600401610467565b602060405180830381865afa15801561019f573d6000803e3d6000fd5b505050506040513d601f19601f820116820180604052508101906101c3919061047c565b156102ac5760405163b9c4d9fb60e01b8152600481018490526001600160a01b0385169063b9c4d9fb90602401600060405180830381865afa15801561020d573d6000803e3d6000fd5b505050506040513d6000823e601f3d908101601f191682016040526102359190810190610643565b604051630ebd4c7f60e01b8152600481018590529092506001600160a01b03851690630ebd4c7f90602401600060405180830381865afa15801561027d573d6000803e3d6000fd5b505050506040513d6000823e601f3d908101601f191682016040526102a59190810190610680565b9050610398565b6040516301ffc9a760e01b81526001600160a01b038516906301ffc9a7906102df906335681b5360e21b90600401610467565b602060405180830381865afa1580156102fc573d6000803e3d6000fd5b505050506040513d601f19601f82011682018060405250810190610320919061047c565b15610398576040516335681b5360e21b8152600481018490526001600160a01b0385169063d5a06d4c90602401600060405180830381865afa15801561036a573d6000803e3d6000fd5b505050506040513d6000823e601f3d908101601f1916820160405261039291908101906105df565b90925090505b9250929050565b6001600160a01b03811681146103b457600080fd5b50565b600080604083850312156103ca57600080fd5b82356103d58161039f565b946020939093013593505050565b604080825283519082018190526000906020906060840190828701845b828110156104255781516001600160a01b031684529284019290840190600101610400565b5050508381038285015284518082528583019183019060005b8181101561045a5783518352928401929184019160010161043e565b5090979650505050505050565b6001600160e01b031991909116815260200190565b60006020828403121561048e57600080fd5b8151801515811461049e57600080fd5b9392505050565b634e487b7160e01b600052604160045260246000fd5b604051601f8201601f1916810167ffffffffffffffff811182821017156104e4576104e46104a5565b604052919050565b600067ffffffffffffffff821115610506576105066104a5565b5060051b60200190565b600082601f83011261052157600080fd5b81516020610536610531836104ec565b6104bb565b82815260059290921b8401810191818101908684111561055557600080fd5b8286015b8481101561057957805161056c8161039f565b8352918301918301610559565b509695505050505050565b600082601f83011261059557600080fd5b815160206105a5610531836104ec565b82815260059290921b840181019181810190868411156105c457600080fd5b8286015b8481101561057957805183529183019183016105c8565b600080604083850312156105f257600080fd5b825167ffffffffffffffff8082111561060a57600080fd5b61061686838701610510565b9350602085015191508082111561062c57600080fd5b5061063985828601610584565b9150509250929050565b60006020828403121561065557600080fd5b815167ffffffffffffffff81111561066c57600080fd5b61067884828501610510565b949350505050565b60006020828403121561069257600080fd5b815167ffffffffffffffff8111156106a957600080fd5b6106788482850161058456fea2646970667358221220648d46ca4ae85610a2b4c0aa7acabfd1976b326e832957fb3629e41a9e3a01b764736f6c63430008110033",
					"opcodes": "PUSH1 0x80 PUSH1 0x40 MSTORE CALLVALUE DUP1 ISZERO PUSH2 0x10 JUMPI PUSH1 0x0 DUP1 REVERT JUMPDEST POP PUSH2 0x6EB DUP1 PUSH2 0x20 PUSH1 0x0 CODECOPY PUSH1 0x0 RETURN INVALID PUSH1 0x80 PUSH1 0x40 MSTORE CALLVALUE DUP1 ISZERO PUSH2 0x10 JUMPI PUSH1 0x0 DUP1 REVERT JUMPDEST POP PUSH1 0x4 CALLDATASIZE LT PUSH2 0x2B JUMPI PUSH1 0x0 CALLDATALOAD PUSH1 0xE0 SHR DUP1 PUSH4 0x6E44A72F EQ PUSH2 0x30 JUMPI JUMPDEST PUSH1 0x0 DUP1 REVERT JUMPDEST PUSH2 0x43 PUSH2 0x3E CALLDATASIZE PUSH1 0x4 PUSH2 0x3B7 JUMP JUMPDEST PUSH2 0x5A JUMP JUMPDEST PUSH1 0x40 MLOAD PUSH2 0x51 SWAP3 SWAP2 SWAP1 PUSH2 0x3E3 JUMP JUMPDEST PUSH1 0x40 MLOAD DUP1 SWAP2 SUB SWAP1 RETURN JUMPDEST PUSH1 0x40 MLOAD PUSH4 0x1FFC9A7 PUSH1 0xE0 SHL DUP2 MSTORE PUSH1 0x60 SWAP1 DUP2 SWAP1 PUSH1 0x1 PUSH1 0x1 PUSH1 0xA0 SHL SUB DUP6 AND SWAP1 PUSH4 0x1FFC9A7 SWAP1 PUSH2 0x92 SWAP1 PUSH4 0x5D9DD7EB PUSH1 0xE1 SHL SWAP1 PUSH1 0x4 ADD PUSH2 0x467 JUMP JUMPDEST PUSH1 0x20 PUSH1 0x40 MLOAD DUP1 DUP4 SUB DUP2 DUP7 GAS STATICCALL ISZERO DUP1 ISZERO PUSH2 0xAF JUMPI RETURNDATASIZE PUSH1 0x0 DUP1 RETURNDATACOPY RETURNDATASIZE PUSH1 0x0 REVERT JUMPDEST POP POP POP POP PUSH1 0x40 MLOAD RETURNDATASIZE PUSH1 0x1F NOT PUSH1 0x1F DUP3 ADD AND DUP3 ADD DUP1 PUSH1 0x40 MSTORE POP DUP2 ADD SWAP1 PUSH2 0xD3 SWAP2 SWAP1 PUSH2 0x47C JUMP JUMPDEST ISZERO PUSH2 0x14F JUMPI PUSH1 0x40 MLOAD PUSH4 0x5D9DD7EB PUSH1 0xE1 SHL DUP2 MSTORE PUSH1 0x4 DUP2 ADD DUP5 SWAP1 MSTORE PUSH1 0x1 PUSH1 0x1 PUSH1 0xA0 SHL SUB DUP6 AND SWAP1 PUSH4 0xBB3BAFD6 SWAP1 PUSH1 0x24 ADD PUSH1 0x0 PUSH1 0x40 MLOAD DUP1 DUP4 SUB DUP2 DUP7 GAS STATICCALL ISZERO DUP1 ISZERO PUSH2 0x11D JUMPI RETURNDATASIZE PUSH1 0x0 DUP1 RETURNDATACOPY RETURNDATASIZE PUSH1 0x0 REVERT JUMPDEST POP POP POP POP PUSH1 0x40 MLOAD RETURNDATASIZE PUSH1 0x0 DUP3 RETURNDATACOPY PUSH1 0x1F RETURNDATASIZE SWAP1 DUP2 ADD PUSH1 0x1F NOT AND DUP3 ADD PUSH1 0x40 MSTORE PUSH2 0x145 SWAP2 SWAP1 DUP2 ADD SWAP1 PUSH2 0x5DF JUMP JUMPDEST SWAP1 SWAP3 POP SWAP1 POP PUSH2 0x398 JUMP JUMPDEST PUSH1 0x40 MLOAD PUSH4 0x1FFC9A7 PUSH1 0xE0 SHL DUP2 MSTORE PUSH1 0x1 PUSH1 0x1 PUSH1 0xA0 SHL SUB DUP6 AND SWAP1 PUSH4 0x1FFC9A7 SWAP1 PUSH2 0x182 SWAP1 PUSH4 0x2DDE6561 PUSH1 0xE2 SHL SWAP1 PUSH1 0x4 ADD PUSH2 0x467 JUMP JUMPDEST PUSH1 0x20 PUSH1 0x40 MLOAD DUP1 DUP4 SUB DUP2 DUP7 GAS STATICCALL ISZERO DUP1 ISZERO PUSH2 0x19F JUMPI RETURNDATASIZE PUSH1 0x0 DUP1 RETURNDATACOPY RETURNDATASIZE PUSH1 0x0 REVERT JUMPDEST POP POP POP POP PUSH1 0x40 MLOAD RETURNDATASIZE PUSH1 0x1F NOT PUSH1 0x1F DUP3 ADD AND DUP3 ADD DUP1 PUSH1 0x40 MSTORE POP DUP2 ADD SWAP1 PUSH2 0x1C3 SWAP2 SWAP1 PUSH2 0x47C JUMP JUMPDEST ISZERO PUSH2 0x2AC JUMPI PUSH1 0x40 MLOAD PUSH4 0xB9C4D9FB PUSH1 0xE0 SHL DUP2 MSTORE PUSH1 0x4 DUP2 ADD DUP5 SWAP1 MSTORE PUSH1 0x1 PUSH1 0x1 PUSH1 0xA0 SHL SUB DUP6 AND SWAP1 PUSH4 0xB9C4D9FB SWAP1 PUSH1 0x24 ADD PUSH1 0x0 PUSH1 0x40 MLOAD DUP1 DUP4 SUB DUP2 DUP7 GAS STATICCALL ISZERO DUP1 ISZERO PUSH2 0x20D JUMPI RETURNDATASIZE PUSH1 0x0 DUP1 RETURNDATACOPY RETURNDATASIZE PUSH1 0x0 REVERT JUMPDEST POP POP POP POP PUSH1 0x40 MLOAD RETURNDATASIZE PUSH1 0x0 DUP3 RETURNDATACOPY PUSH1 0x1F RETURNDATASIZE SWAP1 DUP2 ADD PUSH1 0x1F NOT AND DUP3 ADD PUSH1 0x40 MSTORE PUSH2 0x235 SWAP2 SWAP1 DUP2 ADD SWAP1 PUSH2 0x643 JUMP JUMPDEST PUSH1 0x40 MLOAD PUSH4 0xEBD4C7F PUSH1 0xE0 SHL DUP2 MSTORE PUSH1 0x4 DUP2 ADD DUP6 SWAP1 MSTORE SWAP1 SWAP3 POP PUSH1 0x1 PUSH1 0x1 PUSH1 0xA0 SHL SUB DUP6 AND SWAP1 PUSH4 0xEBD4C7F SWAP1 PUSH1 0x24 ADD PUSH1 0x0 PUSH1 0x40 MLOAD DUP1 DUP4 SUB DUP2 DUP7 GAS STATICCALL ISZERO DUP1 ISZERO PUSH2 0x27D JUMPI RETURNDATASIZE PUSH1 0x0 DUP1 RETURNDATACOPY RETURNDATASIZE PUSH1 0x0 REVERT JUMPDEST POP POP POP POP PUSH1 0x40 MLOAD RETURNDATASIZE PUSH1 0x0 DUP3 RETURNDATACOPY PUSH1 0x1F RETURNDATASIZE SWAP1 DUP2 ADD PUSH1 0x1F NOT AND DUP3 ADD PUSH1 0x40 MSTORE PUSH2 0x2A5 SWAP2 SWAP1 DUP2 ADD SWAP1 PUSH2 0x680 JUMP JUMPDEST SWAP1 POP PUSH2 0x398 JUMP JUMPDEST PUSH1 0x40 MLOAD PUSH4 0x1FFC9A7 PUSH1 0xE0 SHL DUP2 MSTORE PUSH1 0x1 PUSH1 0x1 PUSH1 0xA0 SHL SUB DUP6 AND SWAP1 PUSH4 0x1FFC9A7 SWAP1 PUSH2 0x2DF SWAP1 PUSH4 0x35681B53 PUSH1 0xE2 SHL SWAP1 PUSH1 0x4 ADD PUSH2 0x467 JUMP JUMPDEST PUSH1 0x20 PUSH1 0x40 MLOAD DUP1 DUP4 SUB DUP2 DUP7 GAS STATICCALL ISZERO DUP1 ISZERO PUSH2 0x2FC JUMPI RETURNDATASIZE PUSH1 0x0 DUP1 RETURNDATACOPY RETURNDATASIZE PUSH1 0x0 REVERT JUMPDEST POP POP POP POP PUSH1 0x40 MLOAD RETURNDATASIZE PUSH1 0x1F NOT PUSH1 0x1F DUP3 ADD AND DUP3 ADD DUP1 PUSH1 0x40 MSTORE POP DUP2 ADD SWAP1 PUSH2 0x320 SWAP2 SWAP1 PUSH2 0x47C JUMP JUMPDEST ISZERO PUSH2 0x398 JUMPI PUSH1 0x40 MLOAD PUSH4 0x35681B53 PUSH1 0xE2 SHL DUP2 MSTORE PUSH1 0x4 DUP2 ADD DUP5 SWAP1 MSTORE PUSH1 0x1 PUSH1 0x1 PUSH1 0xA0 SHL SUB DUP6 AND SWAP1 PUSH4 0xD5A06D4C SWAP1 PUSH1 0x24 ADD PUSH1 0x0 PUSH1 0x40 MLOAD DUP1 DUP4 SUB DUP2 DUP7 GAS STATICCALL ISZERO DUP1 ISZERO PUSH2 0x36A JUMPI RETURNDATASIZE PUSH1 0x0 DUP1 RETURNDATACOPY RETURNDATASIZE PUSH1 0x0 REVERT JUMPDEST POP POP POP POP PUSH1 0x40 MLOAD RETURNDATASIZE PUSH1 0x0 DUP3 RETURNDATACOPY PUSH1 0x1F RETURNDATASIZE SWAP1 DUP2 ADD PUSH1 0x1F NOT AND DUP3 ADD PUSH1 0x40 MSTORE PUSH2 0x392 SWAP2 SWAP1 DUP2 ADD SWAP1 PUSH2 0x5DF JUMP JUMPDEST SWAP1 SWAP3 POP SWAP1 POP JUMPDEST SWAP3 POP SWAP3 SWAP1 POP JUMP JUMPDEST PUSH1 0x1 PUSH1 0x1 PUSH1 0xA0 SHL SUB DUP2 AND DUP2 EQ PUSH2 0x3B4 JUMPI PUSH1 0x0 DUP1 REVERT JUMPDEST POP JUMP JUMPDEST PUSH1 0x0 DUP1 PUSH1 0x40 DUP4 DUP6 SUB SLT ISZERO PUSH2 0x3CA JUMPI PUSH1 0x0 DUP1 REVERT JUMPDEST DUP3 CALLDATALOAD PUSH2 0x3D5 DUP2 PUSH2 0x39F JUMP JUMPDEST SWAP5 PUSH1 0x20 SWAP4 SWAP1 SWAP4 ADD CALLDATALOAD SWAP4 POP POP POP JUMP JUMPDEST PUSH1 0x40 DUP1 DUP3 MSTORE DUP4 MLOAD SWAP1 DUP3 ADD DUP2 SWAP1 MSTORE PUSH1 0x0 SWAP1 PUSH1 0x20 SWAP1 PUSH1 0x60 DUP5 ADD SWAP1 DUP3 DUP8 ADD DUP5 JUMPDEST DUP3 DUP2 LT ISZERO PUSH2 0x425 JUMPI DUP2 MLOAD PUSH1 0x1 PUSH1 0x1 PUSH1 0xA0 SHL SUB AND DUP5 MSTORE SWAP3 DUP5 ADD SWAP3 SWAP1 DUP5 ADD SWAP1 PUSH1 0x1 ADD PUSH2 0x400 JUMP JUMPDEST POP POP POP DUP4 DUP2 SUB DUP3 DUP6 ADD MSTORE DUP5 MLOAD DUP1 DUP3 MSTORE DUP6 DUP4 ADD SWAP2 DUP4 ADD SWAP1 PUSH1 0x0 JUMPDEST DUP2 DUP2 LT ISZERO PUSH2 0x45A JUMPI DUP4 MLOAD DUP4 MSTORE SWAP3 DUP5 ADD SWAP3 SWAP2 DUP5 ADD SWAP2 PUSH1 0x1 ADD PUSH2 0x43E JUMP JUMPDEST POP SWAP1 SWAP8 SWAP7 POP POP POP POP POP POP POP JUMP JUMPDEST PUSH1 0x1 PUSH1 0x1 PUSH1 0xE0 SHL SUB NOT SWAP2 SWAP1 SWAP2 AND DUP2 MSTORE PUSH1 0x20 ADD SWAP1 JUMP JUMPDEST PUSH1 0x0 PUSH1 0x20 DUP3 DUP5 SUB SLT ISZERO PUSH2 0x48E JUMPI PUSH1 0x0 DUP1 REVERT JUMPDEST DUP2 MLOAD DUP1 ISZERO ISZERO DUP2 EQ PUSH2 0x49E JUMPI PUSH1 0x0 DUP1 REVERT JUMPDEST SWAP4 SWAP3 POP POP POP JUMP JUMPDEST PUSH4 0x4E487B71 PUSH1 0xE0 SHL PUSH1 0x0 MSTORE PUSH1 0x41 PUSH1 0x4 MSTORE PUSH1 0x24 PUSH1 0x0 REVERT JUMPDEST PUSH1 0x40 MLOAD PUSH1 0x1F DUP3 ADD PUSH1 0x1F NOT AND DUP2 ADD PUSH8 0xFFFFFFFFFFFFFFFF DUP2 GT DUP3 DUP3 LT OR ISZERO PUSH2 0x4E4 JUMPI PUSH2 0x4E4 PUSH2 0x4A5 JUMP JUMPDEST PUSH1 0x40 MSTORE SWAP2 SWAP1 POP JUMP JUMPDEST PUSH1 0x0 PUSH8 0xFFFFFFFFFFFFFFFF DUP3 GT ISZERO PUSH2 0x506 JUMPI PUSH2 0x506 PUSH2 0x4A5 JUMP JUMPDEST POP PUSH1 0x5 SHL PUSH1 0x20 ADD SWAP1 JUMP JUMPDEST PUSH1 0x0 DUP3 PUSH1 0x1F DUP4 ADD SLT PUSH2 0x521 JUMPI PUSH1 0x0 DUP1 REVERT JUMPDEST DUP2 MLOAD PUSH1 0x20 PUSH2 0x536 PUSH2 0x531 DUP4 PUSH2 0x4EC JUMP JUMPDEST PUSH2 0x4BB JUMP JUMPDEST DUP3 DUP2 MSTORE PUSH1 0x5 SWAP3 SWAP1 SWAP3 SHL DUP5 ADD DUP2 ADD SWAP2 DUP2 DUP2 ADD SWAP1 DUP7 DUP5 GT ISZERO PUSH2 0x555 JUMPI PUSH1 0x0 DUP1 REVERT JUMPDEST DUP3 DUP7 ADD JUMPDEST DUP5 DUP2 LT ISZERO PUSH2 0x579 JUMPI DUP1 MLOAD PUSH2 0x56C DUP2 PUSH2 0x39F JUMP JUMPDEST DUP4 MSTORE SWAP2 DUP4 ADD SWAP2 DUP4 ADD PUSH2 0x559 JUMP JUMPDEST POP SWAP7 SWAP6 POP POP POP POP POP POP JUMP JUMPDEST PUSH1 0x0 DUP3 PUSH1 0x1F DUP4 ADD SLT PUSH2 0x595 JUMPI PUSH1 0x0 DUP1 REVERT JUMPDEST DUP2 MLOAD PUSH1 0x20 PUSH2 0x5A5 PUSH2 0x531 DUP4 PUSH2 0x4EC JUMP JUMPDEST DUP3 DUP2 MSTORE PUSH1 0x5 SWAP3 SWAP1 SWAP3 SHL DUP5 ADD DUP2 ADD SWAP2 DUP2 DUP2 ADD SWAP1 DUP7 DUP5 GT ISZERO PUSH2 0x5C4 JUMPI PUSH1 0x0 DUP1 REVERT JUMPDEST DUP3 DUP7 ADD JUMPDEST DUP5 DUP2 LT ISZERO PUSH2 0x579 JUMPI DUP1 MLOAD DUP4 MSTORE SWAP2 DUP4 ADD SWAP2 DUP4 ADD PUSH2 0x5C8 JUMP JUMPDEST PUSH1 0x0 DUP1 PUSH1 0x40 DUP4 DUP6 SUB SLT ISZERO PUSH2 0x5F2 JUMPI PUSH1 0x0 DUP1 REVERT JUMPDEST DUP3 MLOAD PUSH8 0xFFFFFFFFFFFFFFFF DUP1 DUP3 GT ISZERO PUSH2 0x60A JUMPI PUSH1 0x0 DUP1 REVERT JUMPDEST PUSH2 0x616 DUP7 DUP4 DUP8 ADD PUSH2 0x510 JUMP JUMPDEST SWAP4 POP PUSH1 0x20 DUP6 ADD MLOAD SWAP2 POP DUP1 DUP3 GT ISZERO PUSH2 0x62C JUMPI PUSH1 0x0 DUP1 REVERT JUMPDEST POP PUSH2 0x639 DUP6 DUP3 DUP7 ADD PUSH2 0x584 JUMP JUMPDEST SWAP2 POP POP SWAP3 POP SWAP3 SWAP1 POP JUMP JUMPDEST PUSH1 0x0 PUSH1 0x20 DUP3 DUP5 SUB SLT ISZERO PUSH2 0x655 JUMPI PUSH1 0x0 DUP1 REVERT JUMPDEST DUP2 MLOAD PUSH8 0xFFFFFFFFFFFFFFFF DUP2 GT ISZERO PUSH2 0x66C JUMPI PUSH1 0x0 DUP1 REVERT JUMPDEST PUSH2 0x678 DUP5 DUP3 DUP6 ADD PUSH2 0x510 JUMP JUMPDEST SWAP5 SWAP4 POP POP POP POP JUMP JUMPDEST PUSH1 0x0 PUSH1 0x20 DUP3 DUP5 SUB SLT ISZERO PUSH2 0x692 JUMPI PUSH1 0x0 DUP1 REVERT JUMPDEST DUP2 MLOAD PUSH8 0xFFFFFFFFFFFFFFFF DUP2 GT ISZERO PUSH2 0x6A9 JUMPI PUSH1 0x0 DUP1 REVERT JUMPDEST PUSH2 0x678 DUP5 DUP3 DUP6 ADD PUSH2 0x584 JUMP INVALID LOG2 PUSH5 0x6970667358 0x22 SLT KECCAK256 PUSH5 0x8D46CA4AE8 JUMP LT LOG2 0xB4 0xC0 0xAA PUSH27 0xCABFD1976B326E832957FB3629E41A9E3A01B764736F6C63430008 GT STOP CALLER "
				},
				"gasEstimates": {
					"creation": {
						"codeDepositCost": "354200",
						"executionCost": "393",
						"totalCost": "354593"
					},
					"external": {
						"getRoyalty(address,uint256)": "infinite"
					}
				},
				"methodIdentifiers": {
					"getRoyalty(address,uint256)": "6e44a72f"
				}
			},
			"storageLayout": {
				"storage": [],
				"types": null
			},
			"userdoc": {
				"kind": "user",
				"methods": {
					"getRoyalty(address,uint256)": {
						"notice": "Get the Royalty Fee details for the tokenID"
					}
				},
				"version": 1
			}
		}
	}
}