{
  "_format": "hh-sol-artifact-1",
  "contractName": "verify",
  "sourceName": "contracts/mojito/sothebys/verify.sol",
  "abi": [
    {
      "inputs": [
        {
          "internalType": "bytes32",
          "name": "_root",
          "type": "bytes32"
        }
      ],
      "stateMutability": "nonpayable",
      "type": "constructor"
    },
    {
      "inputs": [],
      "name": "answer",
      "outputs": [
        {
          "internalType": "bytes32",
          "name": "",
          "type": "bytes32"
        }
      ],
      "stateMutability": "view",
      "type": "function"
    },
    {
      "inputs": [
        {
          "internalType": "bytes32[]",
          "name": "proof",
          "type": "bytes32[]"
        },
        {
          "internalType": "address",
          "name": "addr",
          "type": "address"
        }
      ],
      "name": "isApproved",
      "outputs": [
        {
          "internalType": "bytes32",
          "name": "leaf",
          "type": "bytes32"
        },
        {
          "internalType": "bool",
          "name": "approval",
          "type": "bool"
        }
      ],
      "stateMutability": "view",
      "type": "function"
    },
    {
      "inputs": [],
      "name": "root",
      "outputs": [
        {
          "internalType": "bytes32",
          "name": "",
          "type": "bytes32"
        }
      ],
      "stateMutability": "view",
      "type": "function"
    }
  ],
  "bytecode": "0x608060405234801561001057600080fd5b5060405161038038038061038083398101604081905261002f9161003c565b6000908155600155610055565b60006020828403121561004e57600080fd5b5051919050565b61031c806100646000396000f3fe608060405234801561001057600080fd5b50600436106100415760003560e01c806385bb7d6914610046578063a364a3ec14610062578063ebf0c7171461008a575b600080fd5b61004f60015481565b6040519081526020015b60405180910390f35b6100756100703660046101d9565b610093565b60408051928352901515602083015201610059565b61004f60005481565b6040516bffffffffffffffffffffffff19606083901b16602082015260009081906034016040516020818303038152906040528051906020012091506100dc84600054846100e5565b90509250929050565b6000826100f285846100fb565b14949350505050565b600081815b845181101561019f57600085828151811061011d5761011d6102a9565b6020026020010151905080831161015f57604080516020810185905290810182905260600160405160208183030381529060405280519060200120925061018c565b60408051602081018390529081018490526060016040516020818303038152906040528051906020012092505b5080610197816102bf565b915050610100565b509392505050565b634e487b7160e01b600052604160045260246000fd5b80356001600160a01b03811681146101d457600080fd5b919050565b600080604083850312156101ec57600080fd5b823567ffffffffffffffff8082111561020457600080fd5b818501915085601f83011261021857600080fd5b813560208282111561022c5761022c6101a7565b8160051b604051601f19603f83011681018181108682111715610251576102516101a7565b60405292835281830193508481018201928984111561026f57600080fd5b948201945b8386101561028d57853585529482019493820193610274565b965061029c90508782016101bd565b9450505050509250929050565b634e487b7160e01b600052603260045260246000fd5b6000600182016102df57634e487b7160e01b600052601160045260246000fd5b506001019056fea2646970667358221220a2e2e45824cd7776a9a4e41a15e1b3ba06ef3072e165c1a6942d569e2d335e9564736f6c63430008110033",
  "linkReferences": {},
  "deployedLinkReferences": {}
}