{
  "_format": "hh-sol-artifact-1",
  "contractName": "Marketplace",
  "sourceName": "contracts/mojito/sothebys/MarketPlace.sol",
  "abi": [
    {
      "inputs": [
        {
          "internalType": "address",
          "name": "_wrappedNativeToken",
          "type": "address"
        },
        {
          "internalType": "address",
          "name": "_platformAddress",
          "type": "address"
        },
        {
          "internalType": "uint256",
          "name": "_platformFeePercentage",
          "type": "uint256"
        },
        {
          "internalType": "address",
          "name": "_priceFeedAddress",
          "type": "address"
        },
        {
          "internalType": "address",
          "name": "_adminAddress",
          "type": "address"
        }
      ],
      "stateMutability": "nonpayable",
      "type": "constructor"
    },
    {
      "anonymous": false,
      "inputs": [
        {
          "indexed": false,
          "internalType": "string",
          "name": "uuid",
          "type": "string"
        },
        {
          "indexed": true,
          "internalType": "uint256",
          "name": "tokenId",
          "type": "uint256"
        },
        {
          "indexed": true,
          "internalType": "address",
          "name": "tokenContract",
          "type": "address"
        },
        {
          "indexed": false,
          "internalType": "uint256",
          "name": "quantity",
          "type": "uint256"
        },
        {
          "indexed": true,
          "internalType": "address",
          "name": "tokenOwner",
          "type": "address"
        },
        {
          "indexed": false,
          "internalType": "address",
          "name": "highestBidder",
          "type": "address"
        },
        {
          "indexed": false,
          "internalType": "uint256",
          "name": "amount",
          "type": "uint256"
        },
        {
          "indexed": false,
          "internalType": "uint256",
          "name": "tax",
          "type": "uint256"
        },
        {
          "indexed": false,
          "internalType": "address",
          "name": "paymentToken",
          "type": "address"
        },
        {
          "indexed": false,
          "internalType": "address",
          "name": "marketplaceAddress",
          "type": "address"
        },
        {
          "indexed": false,
          "internalType": "uint256",
          "name": "platformFee",
          "type": "uint256"
        },
        {
          "components": [
            {
              "internalType": "address",
              "name": "bidder",
              "type": "address"
            },
            {
              "internalType": "uint256",
              "name": "quotePrice",
              "type": "uint256"
            },
            {
              "internalType": "address",
              "name": "paymentAddress",
              "type": "address"
            }
          ],
          "indexed": false,
          "internalType": "struct Marketplace.BidHistory[]",
          "name": "bidderlist",
          "type": "tuple[]"
        }
      ],
      "name": "AuctionClosed",
      "type": "event"
    },
    {
      "anonymous": false,
      "inputs": [
        {
          "indexed": false,
          "internalType": "string",
          "name": "uuid",
          "type": "string"
        },
        {
          "indexed": true,
          "internalType": "uint256",
          "name": "tokenId",
          "type": "uint256"
        },
        {
          "indexed": true,
          "internalType": "address",
          "name": "tokenContract",
          "type": "address"
        },
        {
          "indexed": false,
          "internalType": "uint256",
          "name": "quantity",
          "type": "uint256"
        },
        {
          "indexed": true,
          "internalType": "address",
          "name": "tokenOwner",
          "type": "address"
        },
        {
          "indexed": false,
          "internalType": "address",
          "name": "buyer",
          "type": "address"
        },
        {
          "indexed": false,
          "internalType": "uint256",
          "name": "amount",
          "type": "uint256"
        },
        {
          "indexed": false,
          "internalType": "uint256",
          "name": "tax",
          "type": "uint256"
        },
        {
          "indexed": false,
          "internalType": "address",
          "name": "paymentToken",
          "type": "address"
        },
        {
          "indexed": false,
          "internalType": "address",
          "name": "marketplaceAddress",
          "type": "address"
        },
        {
          "indexed": false,
          "internalType": "uint256",
          "name": "platformFee",
          "type": "uint256"
        }
      ],
      "name": "BuyExecuted",
      "type": "event"
    },
    {
      "anonymous": false,
      "inputs": [
        {
          "indexed": false,
          "internalType": "address",
          "name": "tokenContract",
          "type": "address"
        },
        {
          "indexed": false,
          "internalType": "uint256",
          "name": "tokenId",
          "type": "uint256"
        },
        {
          "indexed": false,
          "internalType": "address",
          "name": "recipient",
          "type": "address"
        },
        {
          "indexed": false,
          "internalType": "uint256",
          "name": "amount",
          "type": "uint256"
        }
      ],
      "name": "RoyaltyPayout",
      "type": "event"
    },
    {
      "anonymous": false,
      "inputs": [
        {
          "indexed": false,
          "internalType": "string",
          "name": "uuid",
          "type": "string"
        },
        {
          "indexed": true,
          "internalType": "uint256",
          "name": "tokenId",
          "type": "uint256"
        },
        {
          "indexed": true,
          "internalType": "address",
          "name": "tokenContract",
          "type": "address"
        },
        {
          "indexed": false,
          "internalType": "uint256",
          "name": "quantity",
          "type": "uint256"
        },
        {
          "indexed": true,
          "internalType": "address",
          "name": "tokenOwner",
          "type": "address"
        },
        {
          "indexed": false,
          "internalType": "address",
          "name": "buyer",
          "type": "address"
        },
        {
          "indexed": false,
          "internalType": "uint256",
          "name": "amount",
          "type": "uint256"
        },
        {
          "indexed": false,
          "internalType": "uint256",
          "name": "tax",
          "type": "uint256"
        },
        {
          "indexed": false,
          "internalType": "address",
          "name": "paymentToken",
          "type": "address"
        },
        {
          "indexed": false,
          "internalType": "address",
          "name": "marketplaceAddress",
          "type": "address"
        },
        {
          "indexed": false,
          "internalType": "uint256",
          "name": "platformFee",
          "type": "uint256"
        }
      ],
      "name": "SaleExecuted",
      "type": "event"
    },
    {
      "stateMutability": "payable",
      "type": "fallback"
    },
    {
      "inputs": [],
      "name": "adminAddress",
      "outputs": [
        {
          "internalType": "address",
          "name": "",
          "type": "address"
        }
      ],
      "stateMutability": "view",
      "type": "function"
    },
    {
      "inputs": [
        {
          "components": [
            {
              "internalType": "string",
              "name": "uuid",
              "type": "string"
            },
            {
              "internalType": "uint256",
              "name": "tokenId",
              "type": "uint256"
            },
            {
              "internalType": "address",
              "name": "tokenContract",
              "type": "address"
            },
            {
              "internalType": "uint256",
              "name": "quantity",
              "type": "uint256"
            },
            {
              "internalType": "address payable",
              "name": "tokenOwner",
              "type": "address"
            },
            {
              "internalType": "uint256",
              "name": "fixedPrice",
              "type": "uint256"
            },
            {
              "internalType": "address",
              "name": "paymentToken",
              "type": "address"
            },
            {
              "internalType": "uint256",
              "name": "tax",
              "type": "uint256"
            },
            {
              "internalType": "address",
              "name": "whitelistedBuyer",
              "type": "address"
            },
            {
              "internalType": "uint256",
              "name": "quotePrice",
              "type": "uint256"
            },
            {
              "internalType": "uint256",
              "name": "slippage",
              "type": "uint256"
            },
            {
              "internalType": "address",
              "name": "buyer",
              "type": "address"
            }
          ],
          "internalType": "struct Marketplace.Order",
          "name": "order",
          "type": "tuple"
        },
        {
          "internalType": "bytes",
          "name": "sellerSignature",
          "type": "bytes"
        },
        {
          "internalType": "address",
          "name": "payableToken",
          "type": "address"
        }
      ],
      "name": "buy",
      "outputs": [],
      "stateMutability": "payable",
      "type": "function"
    },
    {
      "inputs": [
        {
          "components": [
            {
              "internalType": "string",
              "name": "uuid",
              "type": "string"
            },
            {
              "internalType": "uint256",
              "name": "tokenId",
              "type": "uint256"
            },
            {
              "internalType": "address",
              "name": "tokenContract",
              "type": "address"
            },
            {
              "internalType": "uint256",
              "name": "quantity",
              "type": "uint256"
            },
            {
              "internalType": "address payable",
              "name": "tokenOwner",
              "type": "address"
            },
            {
              "internalType": "uint256",
              "name": "fixedPrice",
              "type": "uint256"
            },
            {
              "internalType": "address",
              "name": "paymentToken",
              "type": "address"
            },
            {
              "internalType": "uint256",
              "name": "tax",
              "type": "uint256"
            },
            {
              "internalType": "address",
              "name": "whitelistedBuyer",
              "type": "address"
            },
            {
              "internalType": "uint256",
              "name": "quotePrice",
              "type": "uint256"
            },
            {
              "internalType": "uint256",
              "name": "slippage",
              "type": "uint256"
            },
            {
              "internalType": "address",
              "name": "buyer",
              "type": "address"
            }
          ],
          "internalType": "struct Marketplace.Order",
          "name": "order",
          "type": "tuple"
        },
        {
          "internalType": "bytes",
          "name": "sellerSignature",
          "type": "bytes"
        },
        {
          "internalType": "bytes",
          "name": "buyerSignature",
          "type": "bytes"
        },
        {
          "internalType": "address",
          "name": "payableToken",
          "type": "address"
        },
        {
          "components": [
            {
              "internalType": "address",
              "name": "bidder",
              "type": "address"
            },
            {
              "internalType": "uint256",
              "name": "quotePrice",
              "type": "uint256"
            },
            {
              "internalType": "address",
              "name": "paymentAddress",
              "type": "address"
            }
          ],
          "internalType": "struct Marketplace.BidHistory[]",
          "name": "bidHistory",
          "type": "tuple[]"
        }
      ],
      "name": "executeAuction",
      "outputs": [],
      "stateMutability": "payable",
      "type": "function"
    },
    {
      "inputs": [
        {
          "internalType": "address",
          "name": "tokenContract",
          "type": "address"
        },
        {
          "internalType": "uint256",
          "name": "tokenId",
          "type": "uint256"
        },
        {
          "internalType": "uint256",
          "name": "amount",
          "type": "uint256"
        }
      ],
      "name": "getRoyaltyInfo",
      "outputs": [
        {
          "internalType": "address payable[]",
          "name": "recipients",
          "type": "address[]"
        },
        {
          "internalType": "uint256[]",
          "name": "bps",
          "type": "uint256[]"
        }
      ],
      "stateMutability": "view",
      "type": "function"
    },
    {
      "inputs": [],
      "name": "owner",
      "outputs": [
        {
          "internalType": "address",
          "name": "",
          "type": "address"
        }
      ],
      "stateMutability": "view",
      "type": "function"
    },
    {
      "inputs": [],
      "name": "platformAddress",
      "outputs": [
        {
          "internalType": "address payable",
          "name": "",
          "type": "address"
        }
      ],
      "stateMutability": "view",
      "type": "function"
    },
    {
      "inputs": [],
      "name": "platformFeePercentage",
      "outputs": [
        {
          "internalType": "uint256",
          "name": "",
          "type": "uint256"
        }
      ],
      "stateMutability": "view",
      "type": "function"
    },
    {
      "inputs": [],
      "name": "priceFeedAddress",
      "outputs": [
        {
          "internalType": "address",
          "name": "",
          "type": "address"
        }
      ],
      "stateMutability": "view",
      "type": "function"
    },
    {
      "inputs": [
        {
          "components": [
            {
              "internalType": "string",
              "name": "uuid",
              "type": "string"
            },
            {
              "internalType": "uint256",
              "name": "tokenId",
              "type": "uint256"
            },
            {
              "internalType": "address",
              "name": "tokenContract",
              "type": "address"
            },
            {
              "internalType": "uint256",
              "name": "quantity",
              "type": "uint256"
            },
            {
              "internalType": "address payable",
              "name": "tokenOwner",
              "type": "address"
            },
            {
              "internalType": "uint256",
              "name": "fixedPrice",
              "type": "uint256"
            },
            {
              "internalType": "address",
              "name": "paymentToken",
              "type": "address"
            },
            {
              "internalType": "uint256",
              "name": "tax",
              "type": "uint256"
            },
            {
              "internalType": "address",
              "name": "whitelistedBuyer",
              "type": "address"
            },
            {
              "internalType": "uint256",
              "name": "quotePrice",
              "type": "uint256"
            },
            {
              "internalType": "uint256",
              "name": "slippage",
              "type": "uint256"
            },
            {
              "internalType": "address",
              "name": "buyer",
              "type": "address"
            }
          ],
          "internalType": "struct Marketplace.Order",
          "name": "order",
          "type": "tuple"
        },
        {
          "internalType": "bytes",
          "name": "buyerSignature",
          "type": "bytes"
        },
        {
          "internalType": "uint256",
          "name": "expirationTime",
          "type": "uint256"
        },
        {
          "internalType": "address",
          "name": "receivableToken",
          "type": "address"
        }
      ],
      "name": "sell",
      "outputs": [],
      "stateMutability": "nonpayable",
      "type": "function"
    },
    {
      "inputs": [
        {
          "internalType": "address",
          "name": "_adminAddress",
          "type": "address"
        }
      ],
      "name": "updateAdminAddress",
      "outputs": [],
      "stateMutability": "nonpayable",
      "type": "function"
    },
    {
      "inputs": [
        {
          "internalType": "address",
          "name": "_platformAddress",
          "type": "address"
        }
      ],
      "name": "updatePlatformAddress",
      "outputs": [],
      "stateMutability": "nonpayable",
      "type": "function"
    },
    {
      "inputs": [
        {
          "internalType": "uint256",
          "name": "_platformFeePercentage",
          "type": "uint256"
        }
      ],
      "name": "updatePlatformFeePercentage",
      "outputs": [],
      "stateMutability": "nonpayable",
      "type": "function"
    },
    {
      "inputs": [
        {
          "internalType": "address",
          "name": "_priceFeedAddress",
          "type": "address"
        }
      ],
      "name": "updatePriceFeedAddress",
      "outputs": [],
      "stateMutability": "nonpayable",
      "type": "function"
    },
    {
      "inputs": [
        {
          "internalType": "address",
          "name": "_wrappedNativeToken",
          "type": "address"
        }
      ],
      "name": "updateWrappedNativeToken",
      "outputs": [],
      "stateMutability": "nonpayable",
      "type": "function"
    },
    {
      "inputs": [],
      "name": "withdraw",
      "outputs": [],
      "stateMutability": "nonpayable",
      "type": "function"
    },
    {
      "inputs": [],
      "name": "wrappedNativeToken",
      "outputs": [
        {
          "internalType": "address",
          "name": "",
          "type": "address"
        }
      ],
      "stateMutability": "view",
      "type": "function"
    },
    {
      "stateMutability": "payable",
      "type": "receive"
    }
  ],
  "bytecode": "0x60a06040523480156200001157600080fd5b506040516200467438038062004674833981016040819052620000349162000287565b60016000556001600160a01b038416620000955760405162461bcd60e51b815260206004820152601860248201527f496e76616c696420506c6174666f726d2041646472657373000000000000000060448201526064015b60405180910390fd5b6001600160a01b038216620000ed5760405162461bcd60e51b815260206004820152601960248201527f496e76616c69642050726963654665656420416464726573730000000000000060448201526064016200008c565b6001600160a01b038516620001505760405162461bcd60e51b815260206004820152602260248201527f496e76616c696420577261707065644e6174697665546f6b656e204164647265604482015261737360f01b60648201526084016200008c565b6127108310620001b55760405162461bcd60e51b815260206004820152602960248201527f706c6174666f726d4665652073686f756c64206e6f74206265206d6f7265207460448201526868616e20313030202560b81b60648201526084016200008c565b6001600160a01b0381166200020d5760405162461bcd60e51b815260206004820152601560248201527f496e76616c69642041646d696e2041646472657373000000000000000000000060448201526064016200008c565b600180546001600160a01b039687166001600160a01b0319918216179091556002805495871695821695909517909455600392909255600480549185169184169190911790553360805260058054919093169116179055620002ee565b80516001600160a01b03811681146200028257600080fd5b919050565b600080600080600060a08688031215620002a057600080fd5b620002ab866200026a565b9450620002bb602087016200026a565b935060408601519250620002d2606087016200026a565b9150620002e2608087016200026a565b90509295509295909350565b60805161434062000334600039600081816102190152818161031d015281816110c00152818161195901528181611a3701528181611b0d015261246801526143406000f3fe6080604052600436106100eb5760003560e01c80638da5cb5b11610084578063dbe55e5611610056578063dbe55e5614610292578063e0abca0b146102b2578063e4830153146102d2578063fc6f9468146102f257005b80638da5cb5b146102075780638f9f193f1461023b578063cd7050551461025b578063cdd78cfc1461026e57005b80633ccfd60b116100bd5780633ccfd60b1461019f578063526a5725146101b45780636fa19fee146101c757806385e2381c146101e757005b806311bceb80146100f457806313b3f5581461011457806317fcb39b1461013457806336de97421461017157005b366100f257005b005b34801561010057600080fd5b506100f261010f3660046135e0565b610312565b34801561012057600080fd5b506100f261012f3660046137df565b610400565b34801561014057600080fd5b50600154610154906001600160a01b031681565b6040516001600160a01b0390911681526020015b60405180910390f35b34801561017d57600080fd5b5061019161018c36600461385f565b610c5e565b604051610168929190613894565b3480156101ab57600080fd5b506100f26110b5565b6100f26101c2366004613918565b6111fd565b3480156101d357600080fd5b506100f26101e23660046135e0565b61194e565b3480156101f357600080fd5b506100f26102023660046135e0565b611a2c565b34801561021357600080fd5b506101547f000000000000000000000000000000000000000000000000000000000000000081565b34801561024757600080fd5b506100f26102563660046135e0565b611b02565b6100f26102693660046139b4565b611be0565b34801561027a57600080fd5b5061028460035481565b604051908152602001610168565b34801561029e57600080fd5b50600254610154906001600160a01b031681565b3480156102be57600080fd5b50600454610154906001600160a01b031681565b3480156102de57600080fd5b506100f26102ed366004613b0b565b61245d565b3480156102fe57600080fd5b50600554610154906001600160a01b031681565b336001600160a01b037f000000000000000000000000000000000000000000000000000000000000000016148061035357506005546001600160a01b031633145b61035c57600080fd5b6001600160a01b0381161580159061038257506001546001600160a01b03828116911614155b6103de5760405162461bcd60e51b815260206004820152602260248201527f496e76616c696420577261707065644e6174697665546f6b656e204164647265604482015261737360f01b60648201526084015b60405180910390fd5b600180546001600160a01b0319166001600160a01b0392909216919091179055565b6002600054036104225760405162461bcd60e51b81526004016103d590613b24565b600260005560408085015190516301ffc9a760e01b81526001600160a01b03909116906301ffc9a790610460906380ac58cd60e01b90600401613b5b565b602060405180830381865afa15801561047d573d6000803e3d6000fd5b505050506040513d601f19601f820116820180604052508101906104a19190613b70565b80610521575060408085015190516301ffc9a760e01b81526001600160a01b03909116906301ffc9a7906104e090636cdb3d1360e11b90600401613b5b565b602060405180830381865afa1580156104fd573d6000803e3d6000fd5b505050506040513d601f19601f820116820180604052508101906105219190613b70565b61053d5760405162461bcd60e51b81526004016103d590613b92565b60408085015190516301ffc9a760e01b81526001600160a01b03909116906301ffc9a79061057690636cdb3d1360e11b90600401613b5b565b602060405180830381865afa158015610593573d6000803e3d6000fd5b505050506040513d601f19601f820116820180604052508101906105b79190613b70565b156106a05760408085015160208601519151627eeac760e11b815233600482015260248101929092526000916001600160a01b039091169062fdd58e90604401602060405180830381865afa158015610614573d6000803e3d6000fd5b505050506040513d601f19601f820116820180604052508101906106389190613bef565b905080856060015111158015610652575060008560600151115b61069e5760405162461bcd60e51b815260206004820152601a60248201527f496e73756666696369656e7420746f6b656e2062616c616e636500000000000060448201526064016103d5565b505b60808401516001600160a01b031633146106fc5760405162461bcd60e51b815260206004820181905260248201527f6d73672e73656e6465722073686f756c6420626520746f6b656e206f776e657260448201526064016103d5565b4282101561075e5760405162461bcd60e51b815260206004820152602960248201527f65787069726174696f6e54696d65206d75737420626520612066757475726520604482015268074696d657374616d760bc1b60648201526084016103d5565b6001546001600160a01b038281169116148061078157506001600160a01b038116155b801561079f575060015460c08501516001600160a01b039081169116145b6108065760405162461bcd60e51b815260206004820152603260248201527f626f7468207061796d656e7420616e642063757272656e637920746f6b656e73604482015271081b5d5cdd081899481cdd5c1c1bdc9d195960721b60648201526084016103d5565b60015460c08501516001600160a01b03918216911603610974578360e001518460a001516108349190613c1e565b60c08501516101608601516040516370a0823160e01b81526001600160a01b0391821660048201529116906370a0823190602401602060405180830381865afa158015610885573d6000803e3d6000fd5b505050506040513d601f19601f820116820180604052508101906108a99190613bef565b10156108c75760405162461bcd60e51b81526004016103d590613c31565b8360e001518460a001516108db9190613c1e565b60c0850151610160860151604051636eb1769f60e11b81526001600160a01b03918216600482015230602482015291169063dd62ed3e90604401602060405180830381865afa158015610932573d6000803e3d6000fd5b505050506040513d601f19601f820116820180604052508101906109569190613bef565b10156109745760405162461bcd60e51b81526004016103d590613c5f565b6101008401516001600160a01b031615806109aa57508361016001516001600160a01b03168461010001516001600160a01b0316145b6109c65760405162461bcd60e51b81526004016103d590613c96565b6109d6848486610160015161250f565b610a1c5760405162461bcd60e51b8152602060048201526017602482015276496e76616c6964206275796572207369676e617475726560481b60448201526064016103d5565b8351604051600691610a2d91613d01565b9081526040519081900360200190205460ff1615610a5d5760405162461bcd60e51b81526004016103d590613d1d565b600160068560000151604051610a739190613d01565b908152604051908190036020019020805491151560ff1990921691909117905561012084015115610ad057610ad0610aae8560a001516125d7565b610abc8661012001516125d7565b83610acb8861014001516125d7565b612645565b60a08401516002546001600160a01b031615801590610af3575060008560e00151115b15610b215761016085015160025460e087015160c0880151610b2193926001600160a01b03169186916127b1565b6002546000906001600160a01b031615801590610b4057506000600354115b15610b995761271060035483610b569190613d48565b610b609190613d75565b9050610b6c8183613d89565b9150610b99866101600151600260009054906101000a90046001600160a01b031685848a60c001516127b1565b610bb88660400151876020015184868a61016001518b60c00151612a33565b9150610bd08661016001513385858a60c001516127b1565b610bd986612b8a565b6040808701516020880151885160608a01516101608b015160a08c015160e08d0151600254975133986001600160a01b03988916987fd5ecea71962fa1e78a663464eb59cb2b617905def1b3ec201d773fedc528221a97610c4997909690959094909390928f9216908d90613dc8565b60405180910390a45050600160005550505050565b6040516301ffc9a760e01b815260609081906001600160a01b038616906301ffc9a790610c9690635d9dd7eb60e11b90600401613b5b565b602060405180830381865afa158015610cb3573d6000803e3d6000fd5b505050506040513d601f19601f82011682018060405250810190610cd79190613b70565b15610d5457604051635d9dd7eb60e11b8152600481018590526001600160a01b0386169063bb3bafd6906024015b600060405180830381865afa158015610d22573d6000803e3d6000fd5b505050506040513d6000823e601f3d908101601f19168201604052610d4a9190810190613ee9565b90925090506110ad565b6040516301ffc9a760e01b81526001600160a01b038616906301ffc9a790610d8790632dde656160e21b90600401613b5b565b602060405180830381865afa158015610da4573d6000803e3d6000fd5b505050506040513d601f19601f82011682018060405250810190610dc89190613b70565b15610eb15760405163b9c4d9fb60e01b8152600481018590526001600160a01b0386169063b9c4d9fb90602401600060405180830381865afa158015610e12573d6000803e3d6000fd5b505050506040513d6000823e601f3d908101601f19168201604052610e3a9190810190613f4d565b604051630ebd4c7f60e01b8152600481018690529092506001600160a01b03861690630ebd4c7f90602401600060405180830381865afa158015610e82573d6000803e3d6000fd5b505050506040513d6000823e601f3d908101601f19168201604052610eaa9190810190613f82565b90506110ad565b6040516301ffc9a760e01b81526001600160a01b038616906301ffc9a790610ee4906335681b5360e21b90600401613b5b565b602060405180830381865afa158015610f01573d6000803e3d6000fd5b505050506040513d601f19601f82011682018060405250810190610f259190613b70565b15610f57576040516335681b5360e21b8152600481018590526001600160a01b0386169063d5a06d4c90602401610d05565b6040516301ffc9a760e01b81526001600160a01b038616906301ffc9a790610f8a9063152a902d60e11b90600401613b5b565b602060405180830381865afa158015610fa7573d6000803e3d6000fd5b505050506040513d601f19601f82011682018060405250810190610fcb9190613b70565b156110ad5760405163152a902d60e11b8152600481018590526024810184905260009081906001600160a01b03881690632a55205a906044016040805180830381865afa158015611020573d6000803e3d6000fd5b505050506040513d601f19601f820116820180604052508101906110449190613fb7565b91509150818460008151811061105c5761105c613fe5565b6001600160a01b03909216602092830291909101909101528461108182612710613d48565b61108b9190613d75565b8360008151811061109e5761109e613fe5565b60200260200101818152505050505b935093915050565b336001600160a01b037f00000000000000000000000000000000000000000000000000000000000000001614806110f657506005546001600160a01b031633145b6110ff57600080fd5b6000471161114f5760405162461bcd60e51b815260206004820152601c60248201527f7a65726f2062616c616e636520696e2074686520636f6e74726163740000000060448201526064016103d5565b60408051600080825260208201928390529133918291479161117091613d01565b60006040518083038185875af1925050503d80600081146111ad576040519150601f19603f3d011682016040523d82523d6000602084013e6111b2565b606091505b505080925050816111f95760405162461bcd60e51b81526020600482015260116024820152701dda5d1a191c985dd85b0819985a5b1959607a1b60448201526064016103d5565b5050565b60026000540361121f5760405162461bcd60e51b81526004016103d590613b24565b600260005560408084015190516301ffc9a760e01b81526001600160a01b03909116906301ffc9a79061125d906380ac58cd60e01b90600401613b5b565b602060405180830381865afa15801561127a573d6000803e3d6000fd5b505050506040513d601f19601f8201168201806040525081019061129e9190613b70565b8061131e575060408084015190516301ffc9a760e01b81526001600160a01b03909116906301ffc9a7906112dd90636cdb3d1360e11b90600401613b5b565b602060405180830381865afa1580156112fa573d6000803e3d6000fd5b505050506040513d601f19601f8201168201806040525081019061131e9190613b70565b61133a5760405162461bcd60e51b81526004016103d590613b92565b6101608301516001600160a01b031633146113975760405162461bcd60e51b815260206004820152601e60248201527f6d73672e73656e6465722073686f756c6420626520746865206275796572000060448201526064016103d5565b6101008301516001600160a01b031615806113bf57506101008301516001600160a01b031633145b6113db5760405162461bcd60e51b81526004016103d590613c96565b60015460c08401516001600160a01b0390811691161480611407575060c08301516001600160a01b0316155b6114645760405162461bcd60e51b815260206004820152602860248201527f73686f756c642070726f76696465206f6e6c7920737570706f727465642063756044820152677272656e6369657360c01b60648201526084016103d5565b6001546001600160a01b038281169116148061148757506001600160a01b038116155b6114d35760405162461bcd60e51b815260206004820152601f60248201527f63757272656e6379546f6b656e206d75737420626520737570706f727465640060448201526064016103d5565b6001600160a01b03811661153f578260e001518360a001516114f59190613c1e565b34101561153a5760405162461bcd60e51b81526020600482015260136024820152721a5b9cdd59999a58da595b9d08185b5bdd5b9d606a1b60448201526064016103d5565b6116a1565b6001546001600160a01b03908116908216036116a1578260e001518360a001516115699190613c1e565b6101608401516040516370a0823160e01b81526001600160a01b039182166004820152908316906370a0823190602401602060405180830381865afa1580156115b6573d6000803e3d6000fd5b505050506040513d601f19601f820116820180604052508101906115da9190613bef565b10156115f85760405162461bcd60e51b81526004016103d590613c31565b8260e001518360a0015161160c9190613c1e565b610160840151604051636eb1769f60e11b81526001600160a01b0391821660048201523060248201529083169063dd62ed3e90604401602060405180830381865afa15801561165f573d6000803e3d6000fd5b505050506040513d601f19601f820116820180604052508101906116839190613bef565b10156116a15760405162461bcd60e51b81526004016103d590613c5f565b6116b08383856080015161250f565b6116f75760405162461bcd60e51b8152602060048201526018602482015277496e76616c69642073656c6c6572207369676e617475726560401b60448201526064016103d5565b825160405160069161170891613d01565b9081526040519081900360200190205460ff16156117385760405162461bcd60e51b81526004016103d590613d1d565b60016006846000015160405161174e9190613d01565b908152604051908190036020019020805491151560ff19909216919091179055610120830151156117a6576117a66117898460a001516125d7565b6117978561012001516125d7565b83610acb8761014001516125d7565b60a08301516002546001600160a01b0316158015906117c9575060008460e00151115b156117f75761016084015160025460c086015160e08701516117f793926001600160a01b03169190866127b1565b6002546000906001600160a01b03161580159061181657506000600354115b1561186a576127106003548361182c9190613d48565b6118369190613d75565b90506118428183613d89565b61016086015160025460c088015192945061186a926001600160a01b039091169084876127b1565b61188985604001518660200151848860c0015189610160015188612a33565b91506118a585610160015186608001518760c0015185876127b1565b6118ae85612b8a565b84608001516001600160a01b031685604001516001600160a01b031686602001517fd1787f9e7db09f026ae23bda01cb702ad3b51548917fd19e17a15caa0970ea4c886000015189606001518a61016001518b60a001518c60e001518d60c00151600260009054906101000a90046001600160a01b03168b60405161193a989796959493929190613dc8565b60405180910390a450506001600055505050565b336001600160a01b037f000000000000000000000000000000000000000000000000000000000000000016148061198f57506005546001600160a01b031633145b61199857600080fd5b6001600160a01b038116158015906119be57506004546001600160a01b03828116911614155b611a0a5760405162461bcd60e51b815260206004820152601960248201527f496e76616c69642050726963654665656420416464726573730000000000000060448201526064016103d5565b600480546001600160a01b0319166001600160a01b0392909216919091179055565b336001600160a01b037f0000000000000000000000000000000000000000000000000000000000000000161480611a6d57506005546001600160a01b031633145b611a7657600080fd5b6001600160a01b03811615801590611a9c57506005546001600160a01b03828116911614155b611ae05760405162461bcd60e51b8152602060048201526015602482015274496e76616c69642041646d696e204164647265737360581b60448201526064016103d5565b600580546001600160a01b0319166001600160a01b0392909216919091179055565b336001600160a01b037f0000000000000000000000000000000000000000000000000000000000000000161480611b4357506005546001600160a01b031633145b611b4c57600080fd5b6001600160a01b03811615801590611b7257506002546001600160a01b03828116911614155b611bbe5760405162461bcd60e51b815260206004820152601860248201527f496e76616c696420506c6174666f726d2041646472657373000000000000000060448201526064016103d5565b600280546001600160a01b0319166001600160a01b0392909216919091179055565b600260005403611c025760405162461bcd60e51b81526004016103d590613b24565b600260005560408086015190516301ffc9a760e01b81526001600160a01b03909116906301ffc9a790611c40906380ac58cd60e01b90600401613b5b565b602060405180830381865afa158015611c5d573d6000803e3d6000fd5b505050506040513d601f19601f82011682018060405250810190611c819190613b70565b80611d01575060408086015190516301ffc9a760e01b81526001600160a01b03909116906301ffc9a790611cc090636cdb3d1360e11b90600401613b5b565b602060405180830381865afa158015611cdd573d6000803e3d6000fd5b505050506040513d601f19601f82011682018060405250810190611d019190613b70565b611d1d5760405162461bcd60e51b81526004016103d590613b92565b6101608501516001600160a01b0316331480611d4357506005546001600160a01b031633145b611da65760405162461bcd60e51b815260206004820152602e60248201527f4f6e6c79204275796572206f72207468652041646d696e2063616e2063616c6c60448201526d103a3434b990333ab731ba34b7b760911b60648201526084016103d5565b600554336001600160a01b0390911603611e4e576001546001600160a01b03838116911614611e4e5760405162461bcd60e51b815260206004820152604860248201527f4f6e6c792041646d696e2063616e2063616c6c20746869732066756e6374696f60448201527f6e2069662063757272656e6379546f6b656e20697320577261707065644e617460648201526734bb32aa37b5b2b760c11b608482015260a4016103d5565b6101008501516001600160a01b03161580611e7657506101008501516001600160a01b031633145b611e925760405162461bcd60e51b81526004016103d590613c96565b60015460c08601516001600160a01b0390811691161480611ebe575060c08501516001600160a01b0316155b611f195760405162461bcd60e51b815260206004820152602660248201527f63616e206f6e6c79207061792077697468206120737570706f727465642063756044820152657272656e637960d01b60648201526084016103d5565b6001546001600160a01b0383811691161480611f3c57506001600160a01b038216155b611f885760405162461bcd60e51b815260206004820152601f60248201527f63757272656e6379546f6b656e206d75737420626520737570706f727465640060448201526064016103d5565b6001600160a01b038216611ff4578460e001518560a00151611faa9190613c1e565b341015611fef5760405162461bcd60e51b81526020600482015260136024820152721a5b9cdd59999a58da595b9d08185b5bdd5b9d606a1b60448201526064016103d5565b612156565b6001546001600160a01b0390811690831603612156578460e001518560a0015161201e9190613c1e565b6101608601516040516370a0823160e01b81526001600160a01b039182166004820152908416906370a0823190602401602060405180830381865afa15801561206b573d6000803e3d6000fd5b505050506040513d601f19601f8201168201806040525081019061208f9190613bef565b10156120ad5760405162461bcd60e51b81526004016103d590613c31565b8460e001518560a001516120c19190613c1e565b610160860151604051636eb1769f60e11b81526001600160a01b0391821660048201523060248201529084169063dd62ed3e90604401602060405180830381865afa158015612114573d6000803e3d6000fd5b505050506040513d601f19601f820116820180604052508101906121389190613bef565b10156121565760405162461bcd60e51b81526004016103d590613c5f565b6121658585876080015161250f565b6121ac5760405162461bcd60e51b8152602060048201526018602482015277496e76616c69642073656c6c6572207369676e617475726560401b60448201526064016103d5565b6121bc858487610160015161250f565b6122025760405162461bcd60e51b8152602060048201526017602482015276496e76616c6964206275796572207369676e617475726560481b60448201526064016103d5565b845160405160069161221391613d01565b9081526040519081900360200190205460ff16156122435760405162461bcd60e51b81526004016103d590613d1d565b6001600686600001516040516122599190613d01565b908152604051908190036020019020805491151560ff19909216919091179055610120850151156122b1576122b16122948660a001516125d7565b6122a28761012001516125d7565b84610acb8961014001516125d7565b60a08501516002546001600160a01b0316158015906122d4575060008660e00151115b156123025761016086015160025460c088015160e089015161230293926001600160a01b03169190876127b1565b6002546000906001600160a01b03161580159061232157506000600354115b1561237557612710600354836123379190613d48565b6123419190613d75565b905061234d8183613d89565b61016088015160025460c08a0151929450612375926001600160a01b039091169084886127b1565b61239487604001518860200151848a60c001518b610160015189612a33565b91506123b087610160015188608001518960c0015185886127b1565b6123b987612b8a565b86608001516001600160a01b031687604001516001600160a01b031688602001517f4618206cb49a2f19c42c02ca7be3762babd6940e867e343ca82380c1f0251f388a600001518b606001518c61016001518d60a001518e60e001518f60c00151600260009054906101000a90046001600160a01b03168b8e60405161244799989796959493929190613ffb565b60405180910390a4505060016000555050505050565b336001600160a01b037f000000000000000000000000000000000000000000000000000000000000000016148061249e57506005546001600160a01b031633145b6124a757600080fd5b612710811061250a5760405162461bcd60e51b815260206004820152602960248201527f706c6174666f726d4665652073686f756c64206e6f74206265206d6f7265207460448201526868616e20313030202560b81b60648201526084016103d5565b600355565b6000816001600160a01b03166125c3846125bd8760000151886020015189604001518a606001518b608001518c60a001518d60c001514660405160200161255d9897969594939291906140b1565b60408051601f1981840301815282825280516020918201207f19457468657265756d205369676e6564204d6573736167653a0a33320000000084830152603c8085019190915282518085039091018152605c909301909152815191012090565b90612f65565b6001600160a01b03161490505b9392505050565b60006001600160ff1b038211156126415760405162461bcd60e51b815260206004820152602860248201527f53616665436173743a2076616c756520646f65736e27742066697420696e2061604482015267371034b73a191a9b60c11b60648201526084016103d5565b5090565b600480546040516302c68be360e31b81526001600160a01b0385811693820193909352600092839216906316345f189060240160408051808303816000875af1158015612696573d6000803e3d6000fd5b505050506040513d601f19601f820116820180604052508101906126ba9190614115565b9092509050670de0b6b3a76400006126db6126d683600a61422f565b6125d7565b6126e5919061423e565b6126ef878461423e565b6126f9919061426e565b6064670de0b6b3a764000061270e868961423e565b612718919061426e565b612722919061426e565b612734670de0b6b3a76400008861426e565b61273e919061429c565b12156127a95760405162461bcd60e51b815260206004820152603460248201527f71756f74655072696365207769746820736c697070616765206973206c657373604482015273207468616e20746865206669786564507269636560601b60648201526084016103d5565b505050505050565b60006001600160a01b0384161580156127d157506001600160a01b038216155b156128ab576001600160a01b0385168360005b6040519080825280601f01601f19166020018201604052801561280e576020820181803683370190505b5060405161281c9190613d01565b60006040518083038185875af1925050503d8060008114612859576040519150601f19603f3d011682016040523d82523d6000602084013e61285e565b606091505b505080915050806128a65760405162461bcd60e51b81526020600482015260126024820152711d1c985b9cd858dd1a5bdb8819985a5b195960721b60448201526064016103d5565b6127a9565b6001546001600160a01b0385811691161480156128cf57506001600160a01b038216155b1561295357600160009054906101000a90046001600160a01b03166001600160a01b031663d0e30db0846040518263ffffffff1660e01b81526004016000604051808303818588803b15801561292457600080fd5b505af1158015612938573d6000803e3d6000fd5b506128a6935050506001600160a01b03861690508685612f8b565b6001600160a01b03841615801561297757506001546001600160a01b038381169116145b15612a0557600154612994906001600160a01b0316873086612ff3565b600154604051632e1a7d4d60e01b8152600481018590526001600160a01b0390911690632e1a7d4d90602401600060405180830381600087803b1580156129da57600080fd5b505af11580156129ee573d6000803e3d6000fd5b5050506001600160a01b03861690508360006127e4565b816001600160a01b0316846001600160a01b0316036127a9576127a96001600160a01b038516878786612ff3565b600084818080612a448b8b86610c5e565b815191935091506000819003612a61578995505050505050612b80565b60005b81811015612b77576000848281518110612a8057612a80613fe5565b602002602001015190506127108c858481518110612aa057612aa0613fe5565b6020026020010151612ab29190613d48565b612abc9190613d75565b955085871015612afa5760405162461bcd60e51b81526020600482015260096024820152681a5b9cdbdb1d995b9d60ba1b60448201526064016103d5565b612b078a828d898d6127b1565b7f866e6ef8682ddf5f1025e64dfdb45527077f7be70fa9ef680b7ffd8cf4ab9c508e8e8389604051612b6194939291906001600160a01b039485168152602081019390935292166040820152606081019190915260800190565b60405180910390a1509484900394600101612a64565b50939450505050505b9695505050505050565b60408082015190516301ffc9a760e01b81526001600160a01b03909116906301ffc9a790612bc3906380ac58cd60e01b90600401613b5b565b602060405180830381865afa158015612be0573d6000803e3d6000fd5b505050506040513d601f19601f82011682018060405250810190612c049190613b70565b15612d5d5780608001516001600160a01b031681604001516001600160a01b0316636352211e83602001516040518263ffffffff1660e01b8152600401612c4d91815260200190565b602060405180830381865afa158015612c6a573d6000803e3d6000fd5b505050506040513d601f19601f82011682018060405250810190612c8e91906142c4565b6001600160a01b031614612cdd5760405162461bcd60e51b815260206004820152601660248201527536b0b5b2b91034b9903737ba103a34329037bbb732b960511b60448201526064016103d5565b604080820151608083015161016084015160208501519351632142170760e11b81526001600160a01b0392831660048201529082166024820152604481019390935216906342842e0e90606401600060405180830381600087803b158015612d4457600080fd5b505af1158015612d58573d6000803e3d6000fd5b505050505b60408082015190516301ffc9a760e01b81526001600160a01b03909116906301ffc9a790612d9690636cdb3d1360e11b90600401613b5b565b602060405180830381865afa158015612db3573d6000803e3d6000fd5b505050506040513d601f19601f82011682018060405250810190612dd79190613b70565b15612f6257604080820151608083015160208401519251627eeac760e11b81526001600160a01b039182166004820152602481019390935260009291169062fdd58e90604401602060405180830381865afa158015612e3a573d6000803e3d6000fd5b505050506040513d601f19601f82011682018060405250810190612e5e9190613bef565b905080826060015111158015612e78575060008260600151115b612ec45760405162461bcd60e51b815260206004820152601a60248201527f496e73756666696365696e7420746f6b656e2062616c616e636500000000000060448201526064016103d5565b6040808301516080840151610160850151602086015160608701519451637921219560e11b81526001600160a01b03938416600482015291831660248301526044820152606481019390935260a06084840152600260a484015261060f60f31b60c4840152169063f242432a9060e401600060405180830381600087803b158015612f4e57600080fd5b505af11580156127a9573d6000803e3d6000fd5b50565b6000806000612f748585613031565b91509150612f818161309f565b5090505b92915050565b6040516001600160a01b038316602482015260448101829052612fee90849063a9059cbb60e01b906064015b60408051601f198184030181529190526020810180516001600160e01b03166001600160e01b031990931692909217909152613255565b505050565b6040516001600160a01b038085166024830152831660448201526064810182905261302b9085906323b872dd60e01b90608401612fb7565b50505050565b60008082516041036130675760208301516040840151606085015160001a61305b87828585613327565b94509450505050613098565b82516040036130905760208301516040840151613085868383613414565b935093505050613098565b506000905060025b9250929050565b60008160048111156130b3576130b36142e1565b036130bb5750565b60018160048111156130cf576130cf6142e1565b0361311c5760405162461bcd60e51b815260206004820152601860248201527f45434453413a20696e76616c6964207369676e6174757265000000000000000060448201526064016103d5565b6002816004811115613130576131306142e1565b0361317d5760405162461bcd60e51b815260206004820152601f60248201527f45434453413a20696e76616c6964207369676e6174757265206c656e6774680060448201526064016103d5565b6003816004811115613191576131916142e1565b036131e95760405162461bcd60e51b815260206004820152602260248201527f45434453413a20696e76616c6964207369676e6174757265202773272076616c604482015261756560f01b60648201526084016103d5565b60048160048111156131fd576131fd6142e1565b03612f625760405162461bcd60e51b815260206004820152602260248201527f45434453413a20696e76616c6964207369676e6174757265202776272076616c604482015261756560f01b60648201526084016103d5565b60006132aa826040518060400160405280602081526020017f5361666545524332303a206c6f772d6c6576656c2063616c6c206661696c6564815250856001600160a01b03166134439092919063ffffffff16565b805190915015612fee57808060200190518101906132c89190613b70565b612fee5760405162461bcd60e51b815260206004820152602a60248201527f5361666545524332303a204552433230206f7065726174696f6e20646964206e6044820152691bdd081cdd58d8d9595960b21b60648201526084016103d5565b6000807f7fffffffffffffffffffffffffffffff5d576e7357a4501ddfe92f46681b20a083111561335e575060009050600361340b565b8460ff16601b1415801561337657508460ff16601c14155b15613387575060009050600461340b565b6040805160008082526020820180845289905260ff881692820192909252606081018690526080810185905260019060a0016020604051602081039080840390855afa1580156133db573d6000803e3d6000fd5b5050604051601f1901519150506001600160a01b0381166134045760006001925092505061340b565b9150600090505b94509492505050565b6000806001600160ff1b03831660ff84901c601b0161343587828885613327565b935093505050935093915050565b6060613452848460008561345a565b949350505050565b6060824710156134bb5760405162461bcd60e51b815260206004820152602660248201527f416464726573733a20696e73756666696369656e742062616c616e636520666f6044820152651c8818d85b1b60d21b60648201526084016103d5565b843b6135095760405162461bcd60e51b815260206004820152601d60248201527f416464726573733a2063616c6c20746f206e6f6e2d636f6e747261637400000060448201526064016103d5565b600080866001600160a01b031685876040516135259190613d01565b60006040518083038185875af1925050503d8060008114613562576040519150601f19603f3d011682016040523d82523d6000602084013e613567565b606091505b5091509150613577828286613582565b979650505050505050565b606083156135915750816125d0565b8251156135a15782518084602001fd5b8160405162461bcd60e51b81526004016103d591906142f7565b6001600160a01b0381168114612f6257600080fd5b80356135db816135bb565b919050565b6000602082840312156135f257600080fd5b81356125d0816135bb565b634e487b7160e01b600052604160045260246000fd5b604051610180810167ffffffffffffffff81118282101715613637576136376135fd565b60405290565b6040516060810167ffffffffffffffff81118282101715613637576136376135fd565b604051601f8201601f1916810167ffffffffffffffff81118282101715613689576136896135fd565b604052919050565b600082601f8301126136a257600080fd5b813567ffffffffffffffff8111156136bc576136bc6135fd565b6136cf601f8201601f1916602001613660565b8181528460208386010111156136e457600080fd5b816020850160208301376000918101602001919091529392505050565b6000610180828403121561371457600080fd5b61371c613613565b9050813567ffffffffffffffff81111561373557600080fd5b61374184828501613691565b8252506020820135602082015261375a604083016135d0565b604082015260608201356060820152613775608083016135d0565b608082015260a082013560a082015261379060c083016135d0565b60c082015260e082013560e08201526101006137ad8184016135d0565b90820152610120828101359082015261014080830135908201526101606137d58184016135d0565b9082015292915050565b600080600080608085870312156137f557600080fd5b843567ffffffffffffffff8082111561380d57600080fd5b61381988838901613701565b9550602087013591508082111561382f57600080fd5b5061383c87828801613691565b935050604085013591506060850135613854816135bb565b939692955090935050565b60008060006060848603121561387457600080fd5b833561387f816135bb565b95602085013595506040909401359392505050565b604080825283519082018190526000906020906060840190828701845b828110156138d65781516001600160a01b0316845292840192908401906001016138b1565b5050508381038285015284518082528583019183019060005b8181101561390b578351835292840192918401916001016138ef565b5090979650505050505050565b60008060006060848603121561392d57600080fd5b833567ffffffffffffffff8082111561394557600080fd5b61395187838801613701565b9450602086013591508082111561396757600080fd5b5061397486828701613691565b9250506040840135613985816135bb565b809150509250925092565b600067ffffffffffffffff8211156139aa576139aa6135fd565b5060051b60200190565b600080600080600060a086880312156139cc57600080fd5b853567ffffffffffffffff808211156139e457600080fd5b6139f089838a01613701565b9650602091508188013581811115613a0757600080fd5b613a138a828b01613691565b96505060408089013582811115613a2957600080fd5b613a358b828c01613691565b9650506060808a0135613a47816135bb565b955060808a013583811115613a5b57600080fd5b8a019250601f83018b13613a6e57600080fd5b8235613a81613a7c82613990565b613660565b8181529082028401850190858101908d831115613a9d57600080fd5b948601945b82861015613af75783868f031215613aba5760008081fd5b613ac261363d565b8635613acd816135bb565b8152868801358882015285870135613ae4816135bb565b8187015282529483019490860190613aa2565b809750505050505050509295509295909350565b600060208284031215613b1d57600080fd5b5035919050565b6020808252601f908201527f5265656e7472616e637947756172643a207265656e7472616e742063616c6c00604082015260600190565b6001600160e01b031991909116815260200190565b600060208284031215613b8257600080fd5b815180151581146125d057600080fd5b6020808252603a908201527f746f6b656e436f6e747261637420646f6573206e6f7420737570706f7274204560408201527f5243373231206f72204552433131353520696e74657266616365000000000000606082015260800190565b600060208284031215613c0157600080fd5b5051919050565b634e487b7160e01b600052601160045260246000fd5b80820180821115612f8557612f85613c08565b602080825260149082015273696e73756666696369656e742062616c616e636560601b604082015260600190565b6020808252601c908201527f696e73756666696369656e7420746f6b656e20616c6c6f77616e636500000000604082015260600190565b60208082526027908201527f63616e206f6e6c792062652063616c6c65642062792077686974656c697374656040820152663210313abcb2b960c91b606082015260800190565b60005b83811015613cf8578181015183820152602001613ce0565b50506000910152565b60008251613d13818460208701613cdd565b9190910192915050565b6020808252601190820152701555525108185b1c9958591e481d5cd959607a1b604082015260600190565b8082028115828204841417612f8557612f85613c08565b634e487b7160e01b600052601260045260246000fd5b600082613d8457613d84613d5f565b500490565b81810381811115612f8557612f85613c08565b60008151808452613db4816020860160208601613cdd565b601f01601f19169290920160200192915050565b6000610100808352613ddc8184018c613d9c565b602084019a909a5250506001600160a01b0396871660408201526060810195909552608085019390935290841660a084015290921660c082015260e00152919050565b600082601f830112613e3057600080fd5b81516020613e40613a7c83613990565b82815260059290921b84018101918181019086841115613e5f57600080fd5b8286015b84811015613e83578051613e76816135bb565b8352918301918301613e63565b509695505050505050565b600082601f830112613e9f57600080fd5b81516020613eaf613a7c83613990565b82815260059290921b84018101918181019086841115613ece57600080fd5b8286015b84811015613e835780518352918301918301613ed2565b60008060408385031215613efc57600080fd5b825167ffffffffffffffff80821115613f1457600080fd5b613f2086838701613e1f565b93506020850151915080821115613f3657600080fd5b50613f4385828601613e8e565b9150509250929050565b600060208284031215613f5f57600080fd5b815167ffffffffffffffff811115613f7657600080fd5b61345284828501613e1f565b600060208284031215613f9457600080fd5b815167ffffffffffffffff811115613fab57600080fd5b61345284828501613e8e565b60008060408385031215613fca57600080fd5b8251613fd5816135bb565b6020939093015192949293505050565b634e487b7160e01b600052603260045260246000fd5b600061012080835261400f8184018d613d9c565b905060208b81850152604060018060a01b03808d168287015260608c818801528b6080880152818b1660a0880152818a1660c08801528860e08801528685036101008801528488518087528587019150858a01965060005b8181101561409857875180518616845287810151888501528601518516868401529686019691830191600101614067565b50508096505050505050509a9950505050505050505050565b600089516140c3818460208e01613cdd565b91909101978852506bffffffffffffffffffffffff19606096871b81166020890152603488019590955292851b84166054870152606886019190915290921b166088830152609c82015260bc01919050565b6000806040838503121561412857600080fd5b82519150602083015160ff8116811461414057600080fd5b809150509250929050565b600181815b8085111561418657816000190482111561416c5761416c613c08565b8085161561417957918102915b93841c9390800290614150565b509250929050565b60008261419d57506001612f85565b816141aa57506000612f85565b81600181146141c057600281146141ca576141e6565b6001915050612f85565b60ff8411156141db576141db613c08565b50506001821b612f85565b5060208310610133831016604e8410600b8410161715614209575081810a612f85565b614213838361414b565b806000190482111561422757614227613c08565b029392505050565b60006125d060ff84168361418e565b80820260008212600160ff1b8414161561425a5761425a613c08565b8181058314821517612f8557612f85613c08565b60008261427d5761427d613d5f565b600160ff1b82146000198414161561429757614297613c08565b500590565b80820182811260008312801582168215821617156142bc576142bc613c08565b505092915050565b6000602082840312156142d657600080fd5b81516125d0816135bb565b634e487b7160e01b600052602160045260246000fd5b6020815260006125d06020830184613d9c56fea264697066735822122093ec6e046f085e6e0d37ede80d29f564fac26a540e45859220c0f12ae52e252364736f6c63430008110033",
  "linkReferences": {},
  "deployedLinkReferences": {}
}