{
  "_format": "hh-sol-artifact-1",
  "contractName": "VerifySignature",
  "sourceName": "contracts/mojito/VerifySignature.sol",
  "abi": [
    {
      "inputs": [
        {
          "internalType": "address",
          "name": "seller",
          "type": "address"
        },
        {
          "internalType": "uint256",
          "name": "tokenId",
          "type": "uint256"
        },
        {
          "internalType": "uint256",
          "name": "amount",
          "type": "uint256"
        },
        {
          "internalType": "uint256",
          "name": "quantity",
          "type": "uint256"
        },
        {
          "internalType": "address",
          "name": "tokenContract",
          "type": "address"
        },
        {
          "internalType": "address",
          "name": "saleCurrency",
          "type": "address"
        },
        {
          "internalType": "address",
          "name": "whitelistedBuyer",
          "type": "address"
        },
        {
          "internalType": "string",
          "name": "uniqueReferenceNumber",
          "type": "string"
        }
      ],
      "name": "getMessageHash",
      "outputs": [
        {
          "internalType": "bytes32",
          "name": "",
          "type": "bytes32"
        }
      ],
      "stateMutability": "pure",
      "type": "function"
    }
  ],
  "bytecode": "0x608060405234801561001057600080fd5b5061022b806100206000396000f3fe608060405234801561001057600080fd5b506004361061002b5760003560e01c80633f203f8d14610030575b600080fd5b61004361003e3660046100b9565b610055565b60405190815260200160405180910390f35b60008989898989898989896040516020016100789998979695949392919061018b565b6040516020818303038152906040528051906020012090509998505050505050505050565b80356001600160a01b03811681146100b457600080fd5b919050565b60008060008060008060008060006101008a8c0312156100d857600080fd5b6100e18a61009d565b985060208a0135975060408a0135965060608a0135955061010460808b0161009d565b945061011260a08b0161009d565b935061012060c08b0161009d565b925060e08a013567ffffffffffffffff8082111561013d57600080fd5b818c0191508c601f83011261015157600080fd5b81358181111561016057600080fd5b8d602082850101111561017257600080fd5b6020830194508093505050509295985092959850929598565b60006bffffffffffffffffffffffff19808c60601b1683528a6014840152896034840152886054840152808860601b166074840152808760601b166088840152808660601b16609c84015250828460b0840137506000910160b0019081529897505050505050505056fea264697066735822122048b5023db8adc9b1ea18fa67883d15420a8cc0e9ec183470d454a3bb06f8b06464736f6c63430008110033",
  "linkReferences": {},
  "deployedLinkReferences": {}
}