{
  "_format": "hh-sol-artifact-1",
  "contractName": "ERC1155PresetMinterPauserUpgradeable",
  "sourceName": "contracts/openzeppelin-upgradeable/token/ERC1155/presets/ERC1155PresetMinterPauserUpgradeable.sol",
  "abi": [
    {
      "anonymous": false,
      "inputs": [
        {
          "indexed": true,
          "internalType": "address",
          "name": "account",
          "type": "address"
        },
        {
          "indexed": true,
          "internalType": "address",
          "name": "operator",
          "type": "address"
        },
        {
          "indexed": false,
          "internalType": "bool",
          "name": "approved",
          "type": "bool"
        }
      ],
      "name": "ApprovalForAll",
      "type": "event"
    },
    {
      "anonymous": false,
      "inputs": [
        {
          "indexed": false,
          "internalType": "address",
          "name": "account",
          "type": "address"
        }
      ],
      "name": "Paused",
      "type": "event"
    },
    {
      "anonymous": false,
      "inputs": [
        {
          "indexed": true,
          "internalType": "bytes32",
          "name": "role",
          "type": "bytes32"
        },
        {
          "indexed": true,
          "internalType": "bytes32",
          "name": "previousAdminRole",
          "type": "bytes32"
        },
        {
          "indexed": true,
          "internalType": "bytes32",
          "name": "newAdminRole",
          "type": "bytes32"
        }
      ],
      "name": "RoleAdminChanged",
      "type": "event"
    },
    {
      "anonymous": false,
      "inputs": [
        {
          "indexed": true,
          "internalType": "bytes32",
          "name": "role",
          "type": "bytes32"
        },
        {
          "indexed": true,
          "internalType": "address",
          "name": "account",
          "type": "address"
        },
        {
          "indexed": true,
          "internalType": "address",
          "name": "sender",
          "type": "address"
        }
      ],
      "name": "RoleGranted",
      "type": "event"
    },
    {
      "anonymous": false,
      "inputs": [
        {
          "indexed": true,
          "internalType": "bytes32",
          "name": "role",
          "type": "bytes32"
        },
        {
          "indexed": true,
          "internalType": "address",
          "name": "account",
          "type": "address"
        },
        {
          "indexed": true,
          "internalType": "address",
          "name": "sender",
          "type": "address"
        }
      ],
      "name": "RoleRevoked",
      "type": "event"
    },
    {
      "anonymous": false,
      "inputs": [
        {
          "indexed": true,
          "internalType": "address",
          "name": "operator",
          "type": "address"
        },
        {
          "indexed": true,
          "internalType": "address",
          "name": "from",
          "type": "address"
        },
        {
          "indexed": true,
          "internalType": "address",
          "name": "to",
          "type": "address"
        },
        {
          "indexed": false,
          "internalType": "uint256[]",
          "name": "ids",
          "type": "uint256[]"
        },
        {
          "indexed": false,
          "internalType": "uint256[]",
          "name": "values",
          "type": "uint256[]"
        }
      ],
      "name": "TransferBatch",
      "type": "event"
    },
    {
      "anonymous": false,
      "inputs": [
        {
          "indexed": true,
          "internalType": "address",
          "name": "operator",
          "type": "address"
        },
        {
          "indexed": true,
          "internalType": "address",
          "name": "from",
          "type": "address"
        },
        {
          "indexed": true,
          "internalType": "address",
          "name": "to",
          "type": "address"
        },
        {
          "indexed": false,
          "internalType": "uint256",
          "name": "id",
          "type": "uint256"
        },
        {
          "indexed": false,
          "internalType": "uint256",
          "name": "value",
          "type": "uint256"
        }
      ],
      "name": "TransferSingle",
      "type": "event"
    },
    {
      "anonymous": false,
      "inputs": [
        {
          "indexed": false,
          "internalType": "string",
          "name": "value",
          "type": "string"
        },
        {
          "indexed": true,
          "internalType": "uint256",
          "name": "id",
          "type": "uint256"
        }
      ],
      "name": "URI",
      "type": "event"
    },
    {
      "anonymous": false,
      "inputs": [
        {
          "indexed": false,
          "internalType": "address",
          "name": "account",
          "type": "address"
        }
      ],
      "name": "Unpaused",
      "type": "event"
    },
    {
      "inputs": [],
      "name": "DEFAULT_ADMIN_ROLE",
      "outputs": [
        {
          "internalType": "bytes32",
          "name": "",
          "type": "bytes32"
        }
      ],
      "stateMutability": "view",
      "type": "function"
    },
    {
      "inputs": [],
      "name": "MINTER_ROLE",
      "outputs": [
        {
          "internalType": "bytes32",
          "name": "",
          "type": "bytes32"
        }
      ],
      "stateMutability": "view",
      "type": "function"
    },
    {
      "inputs": [],
      "name": "PAUSER_ROLE",
      "outputs": [
        {
          "internalType": "bytes32",
          "name": "",
          "type": "bytes32"
        }
      ],
      "stateMutability": "view",
      "type": "function"
    },
    {
      "inputs": [
        {
          "internalType": "address",
          "name": "account",
          "type": "address"
        },
        {
          "internalType": "uint256",
          "name": "id",
          "type": "uint256"
        }
      ],
      "name": "balanceOf",
      "outputs": [
        {
          "internalType": "uint256",
          "name": "",
          "type": "uint256"
        }
      ],
      "stateMutability": "view",
      "type": "function"
    },
    {
      "inputs": [
        {
          "internalType": "address[]",
          "name": "accounts",
          "type": "address[]"
        },
        {
          "internalType": "uint256[]",
          "name": "ids",
          "type": "uint256[]"
        }
      ],
      "name": "balanceOfBatch",
      "outputs": [
        {
          "internalType": "uint256[]",
          "name": "",
          "type": "uint256[]"
        }
      ],
      "stateMutability": "view",
      "type": "function"
    },
    {
      "inputs": [
        {
          "internalType": "address",
          "name": "account",
          "type": "address"
        },
        {
          "internalType": "uint256",
          "name": "id",
          "type": "uint256"
        },
        {
          "internalType": "uint256",
          "name": "value",
          "type": "uint256"
        }
      ],
      "name": "burn",
      "outputs": [],
      "stateMutability": "nonpayable",
      "type": "function"
    },
    {
      "inputs": [
        {
          "internalType": "address",
          "name": "account",
          "type": "address"
        },
        {
          "internalType": "uint256[]",
          "name": "ids",
          "type": "uint256[]"
        },
        {
          "internalType": "uint256[]",
          "name": "values",
          "type": "uint256[]"
        }
      ],
      "name": "burnBatch",
      "outputs": [],
      "stateMutability": "nonpayable",
      "type": "function"
    },
    {
      "inputs": [
        {
          "internalType": "bytes32",
          "name": "role",
          "type": "bytes32"
        }
      ],
      "name": "getRoleAdmin",
      "outputs": [
        {
          "internalType": "bytes32",
          "name": "",
          "type": "bytes32"
        }
      ],
      "stateMutability": "view",
      "type": "function"
    },
    {
      "inputs": [
        {
          "internalType": "bytes32",
          "name": "role",
          "type": "bytes32"
        },
        {
          "internalType": "uint256",
          "name": "index",
          "type": "uint256"
        }
      ],
      "name": "getRoleMember",
      "outputs": [
        {
          "internalType": "address",
          "name": "",
          "type": "address"
        }
      ],
      "stateMutability": "view",
      "type": "function"
    },
    {
      "inputs": [
        {
          "internalType": "bytes32",
          "name": "role",
          "type": "bytes32"
        }
      ],
      "name": "getRoleMemberCount",
      "outputs": [
        {
          "internalType": "uint256",
          "name": "",
          "type": "uint256"
        }
      ],
      "stateMutability": "view",
      "type": "function"
    },
    {
      "inputs": [
        {
          "internalType": "bytes32",
          "name": "role",
          "type": "bytes32"
        },
        {
          "internalType": "address",
          "name": "account",
          "type": "address"
        }
      ],
      "name": "grantRole",
      "outputs": [],
      "stateMutability": "nonpayable",
      "type": "function"
    },
    {
      "inputs": [
        {
          "internalType": "bytes32",
          "name": "role",
          "type": "bytes32"
        },
        {
          "internalType": "address",
          "name": "account",
          "type": "address"
        }
      ],
      "name": "hasRole",
      "outputs": [
        {
          "internalType": "bool",
          "name": "",
          "type": "bool"
        }
      ],
      "stateMutability": "view",
      "type": "function"
    },
    {
      "inputs": [
        {
          "internalType": "string",
          "name": "uri",
          "type": "string"
        }
      ],
      "name": "initialize",
      "outputs": [],
      "stateMutability": "nonpayable",
      "type": "function"
    },
    {
      "inputs": [
        {
          "internalType": "address",
          "name": "account",
          "type": "address"
        },
        {
          "internalType": "address",
          "name": "operator",
          "type": "address"
        }
      ],
      "name": "isApprovedForAll",
      "outputs": [
        {
          "internalType": "bool",
          "name": "",
          "type": "bool"
        }
      ],
      "stateMutability": "view",
      "type": "function"
    },
    {
      "inputs": [
        {
          "internalType": "address",
          "name": "to",
          "type": "address"
        },
        {
          "internalType": "uint256",
          "name": "id",
          "type": "uint256"
        },
        {
          "internalType": "uint256",
          "name": "amount",
          "type": "uint256"
        },
        {
          "internalType": "bytes",
          "name": "data",
          "type": "bytes"
        }
      ],
      "name": "mint",
      "outputs": [],
      "stateMutability": "nonpayable",
      "type": "function"
    },
    {
      "inputs": [
        {
          "internalType": "address",
          "name": "to",
          "type": "address"
        },
        {
          "internalType": "uint256[]",
          "name": "ids",
          "type": "uint256[]"
        },
        {
          "internalType": "uint256[]",
          "name": "amounts",
          "type": "uint256[]"
        },
        {
          "internalType": "bytes",
          "name": "data",
          "type": "bytes"
        }
      ],
      "name": "mintBatch",
      "outputs": [],
      "stateMutability": "nonpayable",
      "type": "function"
    },
    {
      "inputs": [],
      "name": "pause",
      "outputs": [],
      "stateMutability": "nonpayable",
      "type": "function"
    },
    {
      "inputs": [],
      "name": "paused",
      "outputs": [
        {
          "internalType": "bool",
          "name": "",
          "type": "bool"
        }
      ],
      "stateMutability": "view",
      "type": "function"
    },
    {
      "inputs": [
        {
          "internalType": "bytes32",
          "name": "role",
          "type": "bytes32"
        },
        {
          "internalType": "address",
          "name": "account",
          "type": "address"
        }
      ],
      "name": "renounceRole",
      "outputs": [],
      "stateMutability": "nonpayable",
      "type": "function"
    },
    {
      "inputs": [
        {
          "internalType": "bytes32",
          "name": "role",
          "type": "bytes32"
        },
        {
          "internalType": "address",
          "name": "account",
          "type": "address"
        }
      ],
      "name": "revokeRole",
      "outputs": [],
      "stateMutability": "nonpayable",
      "type": "function"
    },
    {
      "inputs": [
        {
          "internalType": "address",
          "name": "from",
          "type": "address"
        },
        {
          "internalType": "address",
          "name": "to",
          "type": "address"
        },
        {
          "internalType": "uint256[]",
          "name": "ids",
          "type": "uint256[]"
        },
        {
          "internalType": "uint256[]",
          "name": "amounts",
          "type": "uint256[]"
        },
        {
          "internalType": "bytes",
          "name": "data",
          "type": "bytes"
        }
      ],
      "name": "safeBatchTransferFrom",
      "outputs": [],
      "stateMutability": "nonpayable",
      "type": "function"
    },
    {
      "inputs": [
        {
          "internalType": "address",
          "name": "from",
          "type": "address"
        },
        {
          "internalType": "address",
          "name": "to",
          "type": "address"
        },
        {
          "internalType": "uint256",
          "name": "id",
          "type": "uint256"
        },
        {
          "internalType": "uint256",
          "name": "amount",
          "type": "uint256"
        },
        {
          "internalType": "bytes",
          "name": "data",
          "type": "bytes"
        }
      ],
      "name": "safeTransferFrom",
      "outputs": [],
      "stateMutability": "nonpayable",
      "type": "function"
    },
    {
      "inputs": [
        {
          "internalType": "address",
          "name": "operator",
          "type": "address"
        },
        {
          "internalType": "bool",
          "name": "approved",
          "type": "bool"
        }
      ],
      "name": "setApprovalForAll",
      "outputs": [],
      "stateMutability": "nonpayable",
      "type": "function"
    },
    {
      "inputs": [
        {
          "internalType": "bytes4",
          "name": "interfaceId",
          "type": "bytes4"
        }
      ],
      "name": "supportsInterface",
      "outputs": [
        {
          "internalType": "bool",
          "name": "",
          "type": "bool"
        }
      ],
      "stateMutability": "view",
      "type": "function"
    },
    {
      "inputs": [],
      "name": "unpause",
      "outputs": [],
      "stateMutability": "nonpayable",
      "type": "function"
    },
    {
      "inputs": [
        {
          "internalType": "uint256",
          "name": "",
          "type": "uint256"
        }
      ],
      "name": "uri",
      "outputs": [
        {
          "internalType": "string",
          "name": "",
          "type": "string"
        }
      ],
      "stateMutability": "view",
      "type": "function"
    }
  ],
  "bytecode": "0x608060405234801561001057600080fd5b50612dba806100206000396000f3fe608060405234801561001057600080fd5b506004361061018d5760003560e01c80638456cb59116100de578063d539139311610097578063e985e9c511610071578063e985e9c514610377578063f242432a146103b3578063f5298aca146103c6578063f62d1888146103d957600080fd5b8063d53913931461033a578063d547741f1461034f578063e63ab1e91461036257600080fd5b80638456cb59146102c65780639010d07c146102ce57806391d14854146102f9578063a217fddf1461030c578063a22cb46514610314578063ca15c8731461032757600080fd5b80632f2ff15d1161014b5780634e1273f4116101255780634e1273f4146102745780635c975abb146102945780636b20c454146102a0578063731133e9146102b357600080fd5b80632f2ff15d1461024657806336568abe146102595780633f4ba83a1461026c57600080fd5b8062fdd58e1461019257806301ffc9a7146101b85780630e89341c146101db5780631f7fdffa146101fb578063248a9ca3146102105780632eb2c2d614610233575b600080fd5b6101a56101a0366004611f8c565b6103ec565b6040519081526020015b60405180910390f35b6101cb6101c6366004611fcc565b610488565b60405190151581526020016101af565b6101ee6101e9366004611fe9565b610493565b6040516101af9190612052565b61020e6102093660046121b8565b610527565b005b6101a561021e366004611fe9565b60009081526065602052604090206001015490565b61020e610241366004612250565b61056d565b61020e6102543660046122f9565b610604565b61020e6102673660046122f9565b61062f565b61020e6106ad565b610287610282366004612325565b610741565b6040516101af919061242a565b61012d5460ff166101cb565b61020e6102ae36600461243d565b61086a565b61020e6102c13660046124b0565b6108ad565b61020e6108ed565b6102e16102dc366004612504565b61097f565b6040516001600160a01b0390911681526020016101af565b6101cb6103073660046122f9565b61099e565b6101a5600081565b61020e610322366004612526565b6109c9565b6101a5610335366004611fe9565b6109d4565b6101a5600080516020612d6583398151915281565b61020e61035d3660046122f9565b6109eb565b6101a5600080516020612d4583398151915281565b6101cb610385366004612562565b6001600160a01b03918216600090815260ca6020908152604080832093909416825291909152205460ff1690565b61020e6103c136600461258c565b610a11565b61020e6103d43660046125f0565b610a56565b61020e6103e7366004612623565b610a99565b60006001600160a01b03831661045d5760405162461bcd60e51b815260206004820152602b60248201527f455243313135353a2062616c616e636520717565727920666f7220746865207a60448201526a65726f206164647265737360a81b60648201526084015b60405180910390fd5b50600081815260c9602090815260408083206001600160a01b03861684529091529020545b92915050565b600061048282610b0e565b606060cb80546104a290612673565b80601f01602080910402602001604051908101604052809291908181526020018280546104ce90612673565b801561051b5780601f106104f05761010080835404028352916020019161051b565b820191906000526020600020905b8154815290600101906020018083116104fe57829003601f168201915b50505050509050919050565b61053f600080516020612d658339815191523361099e565b61055b5760405162461bcd60e51b8152600401610454906126ad565b61056784848484610b4e565b50505050565b6001600160a01b03851633148061058957506105898533610385565b6105f05760405162461bcd60e51b815260206004820152603260248201527f455243313135353a207472616e736665722063616c6c6572206973206e6f74206044820152711bdddb995c881b9bdc88185c1c1c9bdd995960721b6064820152608401610454565b6105fd8585858585610ca9565b5050505050565b6000828152606560205260409020600101546106208133610e56565b61062a8383610eba565b505050565b6001600160a01b038116331461069f5760405162461bcd60e51b815260206004820152602f60248201527f416363657373436f6e74726f6c3a2063616e206f6e6c792072656e6f756e636560448201526e103937b632b9903337b91039b2b63360891b6064820152608401610454565b6106a98282610edc565b5050565b6106c5600080516020612d458339815191523361099e565b6107375760405162461bcd60e51b815260206004820152603b60248201527f455243313135355072657365744d696e7465725061757365723a206d7573742060448201527f686176652070617573657220726f6c6520746f20756e706175736500000000006064820152608401610454565b61073f610efe565b565b606081518351146107a65760405162461bcd60e51b815260206004820152602960248201527f455243313135353a206163636f756e747320616e6420696473206c656e677468604482015268040dad2e6dac2e8c6d60bb1b6064820152608401610454565b600083516001600160401b038111156107c1576107c1612065565b6040519080825280602002602001820160405280156107ea578160200160208202803683370190505b50905060005b84518110156108625761083585828151811061080e5761080e61270a565b60200260200101518583815181106108285761082861270a565b60200260200101516103ec565b8282815181106108475761084761270a565b602090810291909101015261085b81612736565b90506107f0565b509392505050565b6001600160a01b03831633148061088657506108868333610385565b6108a25760405162461bcd60e51b81526004016104549061274f565b61062a838383610f93565b6108c5600080516020612d658339815191523361099e565b6108e15760405162461bcd60e51b8152600401610454906126ad565b61056784848484611124565b610905600080516020612d458339815191523361099e565b6109775760405162461bcd60e51b815260206004820152603960248201527f455243313135355072657365744d696e7465725061757365723a206d7573742060448201527f686176652070617573657220726f6c6520746f207061757365000000000000006064820152608401610454565b61073f6111fc565b60008281526097602052604081206109979083611279565b9392505050565b60009182526065602090815260408084206001600160a01b0393909316845291905290205460ff1690565b6106a9338383611285565b600081815260976020526040812061048290611365565b600082815260656020526040902060010154610a078133610e56565b61062a8383610edc565b6001600160a01b038516331480610a2d5750610a2d8533610385565b610a495760405162461bcd60e51b81526004016104549061274f565b6105fd858585858561136f565b6001600160a01b038316331480610a725750610a728333610385565b610a8e5760405162461bcd60e51b81526004016104549061274f565b61062a838383611490565b600054610100900460ff1680610ab2575060005460ff16155b610ace5760405162461bcd60e51b815260040161045490612798565b600054610100900460ff16158015610af0576000805461ffff19166101011790555b610af982611595565b80156106a9576000805461ff00191690555050565b60006001600160e01b03198216636cdb3d1360e11b1480610b3f57506001600160e01b031982166303a24d0760e21b145b80610482575061048282611636565b6001600160a01b038416610b745760405162461bcd60e51b8152600401610454906127e6565b8151835114610b955760405162461bcd60e51b815260040161045490612827565b33610ba58160008787878761165b565b60005b8451811015610c4157838181518110610bc357610bc361270a565b602002602001015160c96000878481518110610be157610be161270a565b602002602001015181526020019081526020016000206000886001600160a01b03166001600160a01b031681526020019081526020016000206000828254610c29919061286f565b90915550819050610c3981612736565b915050610ba8565b50846001600160a01b031660006001600160a01b0316826001600160a01b03167f4a39dc06d4c0dbc64b70af90fd698a233a518aa5d07e595d983b8c0526c8f7fb8787604051610c92929190612882565b60405180910390a46105fd81600087878787611669565b8151835114610cca5760405162461bcd60e51b815260040161045490612827565b6001600160a01b038416610cf05760405162461bcd60e51b8152600401610454906128b0565b33610cff81878787878761165b565b60005b8451811015610de8576000858281518110610d1f57610d1f61270a565b602002602001015190506000858381518110610d3d57610d3d61270a565b602090810291909101810151600084815260c9835260408082206001600160a01b038e168352909352919091205490915081811015610d8e5760405162461bcd60e51b8152600401610454906128f5565b600083815260c9602090815260408083206001600160a01b038e8116855292528083208585039055908b16825281208054849290610dcd90849061286f565b9250508190555050505080610de190612736565b9050610d02565b50846001600160a01b0316866001600160a01b0316826001600160a01b03167f4a39dc06d4c0dbc64b70af90fd698a233a518aa5d07e595d983b8c0526c8f7fb8787604051610e38929190612882565b60405180910390a4610e4e818787878787611669565b505050505050565b610e60828261099e565b6106a957610e78816001600160a01b031660146117c4565b610e838360206117c4565b604051602001610e9492919061293f565b60408051601f198184030181529082905262461bcd60e51b825261045491600401612052565b610ec4828261195f565b600082815260976020526040902061062a90826119e5565b610ee682826119fa565b600082815260976020526040902061062a9082611a61565b61012d5460ff16610f485760405162461bcd60e51b815260206004820152601460248201527314185d5cd8589b194e881b9bdd081c185d5cd95960621b6044820152606401610454565b61012d805460ff191690557f5db9ee0a495bf2e6ff9c91a7834c1ba4fdd244a5e8aa4e537bd38aeae4b073aa335b6040516001600160a01b03909116815260200160405180910390a1565b6001600160a01b038316610fb95760405162461bcd60e51b8152600401610454906129b4565b8051825114610fda5760405162461bcd60e51b815260040161045490612827565b6000339050610ffd8185600086866040518060200160405280600081525061165b565b60005b83518110156110c557600084828151811061101d5761101d61270a565b60200260200101519050600084838151811061103b5761103b61270a565b602090810291909101810151600084815260c9835260408082206001600160a01b038c16835290935291909120549091508181101561108c5760405162461bcd60e51b8152600401610454906129f7565b600092835260c9602090815260408085206001600160a01b038b16865290915290922091039055806110bd81612736565b915050611000565b5060006001600160a01b0316846001600160a01b0316826001600160a01b03167f4a39dc06d4c0dbc64b70af90fd698a233a518aa5d07e595d983b8c0526c8f7fb8686604051611116929190612882565b60405180910390a450505050565b6001600160a01b03841661114a5760405162461bcd60e51b8152600401610454906127e6565b3361116a8160008761115b88611a76565b61116488611a76565b8761165b565b600084815260c9602090815260408083206001600160a01b03891684529091528120805485929061119c90849061286f565b909155505060408051858152602081018590526001600160a01b0380881692600092918516917fc3d58168c5ae7397731d063d5bbf3d657854427343f4c083240f7aacaa2d0f62910160405180910390a46105fd81600087878787611ac1565b61012d5460ff16156112435760405162461bcd60e51b815260206004820152601060248201526f14185d5cd8589b194e881c185d5cd95960821b6044820152606401610454565b61012d805460ff191660011790557f62e78cea01bee320cd4e420270b5ea74000d11b0c9f74754ebdbfc544b05a258610f763390565b60006109978383611b7c565b816001600160a01b0316836001600160a01b0316036112f85760405162461bcd60e51b815260206004820152602960248201527f455243313135353a2073657474696e6720617070726f76616c20737461747573604482015268103337b91039b2b63360b91b6064820152608401610454565b6001600160a01b03838116600081815260ca6020908152604080832094871680845294825291829020805460ff191686151590811790915591519182527f17307eab39ab6107e8899845ad3d59bd9653f200f220920489ca2b5937696c31910160405180910390a3505050565b6000610482825490565b6001600160a01b0384166113955760405162461bcd60e51b8152600401610454906128b0565b336113a581878761115b88611a76565b600084815260c9602090815260408083206001600160a01b038a168452909152902054838110156113e85760405162461bcd60e51b8152600401610454906128f5565b600085815260c9602090815260408083206001600160a01b038b811685529252808320878503905590881682528120805486929061142790849061286f565b909155505060408051868152602081018690526001600160a01b03808916928a821692918616917fc3d58168c5ae7397731d063d5bbf3d657854427343f4c083240f7aacaa2d0f62910160405180910390a4611487828888888888611ac1565b50505050505050565b6001600160a01b0383166114b65760405162461bcd60e51b8152600401610454906129b4565b336114e5818560006114c787611a76565b6114d087611a76565b6040518060200160405280600081525061165b565b600083815260c9602090815260408083206001600160a01b0388168452909152902054828110156115285760405162461bcd60e51b8152600401610454906129f7565b600084815260c9602090815260408083206001600160a01b03898116808652918452828520888703905582518981529384018890529092908616917fc3d58168c5ae7397731d063d5bbf3d657854427343f4c083240f7aacaa2d0f62910160405180910390a45050505050565b600054610100900460ff16806115ae575060005460ff16155b6115ca5760405162461bcd60e51b815260040161045490612798565b600054610100900460ff161580156115ec576000805461ffff19166101011790555b6115f4611ba6565b6115fc611ba6565b611604611ba6565b61160c611ba6565b61161582611c12565b61161d611ba6565b611625611c72565b61162d611ba6565b610af982611ce8565b60006001600160e01b03198216635a05180f60e01b1480610482575061048282611d7a565b610e4e868686868686611daf565b6001600160a01b0384163b15610e4e5760405163bc197c8160e01b81526001600160a01b0385169063bc197c81906116ad9089908990889088908890600401612a3b565b6020604051808303816000875af19250505080156116e8575060408051601f3d908101601f191682019092526116e591810190612a99565b60015b611794576116f4612ab6565b806308c379a00361172d5750611708612ad2565b80611713575061172f565b8060405162461bcd60e51b81526004016104549190612052565b505b60405162461bcd60e51b815260206004820152603460248201527f455243313135353a207472616e7366657220746f206e6f6e20455243313135356044820152732932b1b2b4bb32b91034b6b83632b6b2b73a32b960611b6064820152608401610454565b6001600160e01b0319811663bc197c8160e01b146114875760405162461bcd60e51b815260040161045490612b5b565b606060006117d3836002612ba3565b6117de90600261286f565b6001600160401b038111156117f5576117f5612065565b6040519080825280601f01601f19166020018201604052801561181f576020820181803683370190505b509050600360fc1b8160008151811061183a5761183a61270a565b60200101906001600160f81b031916908160001a905350600f60fb1b816001815181106118695761186961270a565b60200101906001600160f81b031916908160001a905350600061188d846002612ba3565b61189890600161286f565b90505b6001811115611910576f181899199a1a9b1b9c1cb0b131b232b360811b85600f16601081106118cc576118cc61270a565b1a60f81b8282815181106118e2576118e261270a565b60200101906001600160f81b031916908160001a90535060049490941c9361190981612bba565b905061189b565b5083156109975760405162461bcd60e51b815260206004820181905260248201527f537472696e67733a20686578206c656e67746820696e73756666696369656e746044820152606401610454565b611969828261099e565b6106a95760008281526065602090815260408083206001600160a01b03851684529091529020805460ff191660011790556119a13390565b6001600160a01b0316816001600160a01b0316837f2f8788117e7eff1d82e926ec794901d17c78024a50270940304540a733656f0d60405160405180910390a45050565b6000610997836001600160a01b038416611e18565b611a04828261099e565b156106a95760008281526065602090815260408083206001600160a01b0385168085529252808320805460ff1916905551339285917ff6391f5c32d9c69d2a47ea670b442974b53935d1edc7fd64eb21e047a839171b9190a45050565b6000610997836001600160a01b038416611e67565b60408051600180825281830190925260609160009190602080830190803683370190505090508281600081518110611ab057611ab061270a565b602090810291909101015292915050565b6001600160a01b0384163b15610e4e5760405163f23a6e6160e01b81526001600160a01b0385169063f23a6e6190611b059089908990889088908890600401612bd1565b6020604051808303816000875af1925050508015611b40575060408051601f3d908101601f19168201909252611b3d91810190612a99565b60015b611b4c576116f4612ab6565b6001600160e01b0319811663f23a6e6160e01b146114875760405162461bcd60e51b815260040161045490612b5b565b6000826000018281548110611b9357611b9361270a565b9060005260206000200154905092915050565b600054610100900460ff1680611bbf575060005460ff16155b611bdb5760405162461bcd60e51b815260040161045490612798565b600054610100900460ff16158015611bfd576000805461ffff19166101011790555b8015611c0f576000805461ff00191690555b50565b600054610100900460ff1680611c2b575060005460ff16155b611c475760405162461bcd60e51b815260040161045490612798565b600054610100900460ff16158015611c69576000805461ffff19166101011790555b610af982611f5a565b600054610100900460ff1680611c8b575060005460ff16155b611ca75760405162461bcd60e51b815260040161045490612798565b600054610100900460ff16158015611cc9576000805461ffff19166101011790555b61012d805460ff191690558015611c0f576000805461ff001916905550565b600054610100900460ff1680611d01575060005460ff16155b611d1d5760405162461bcd60e51b815260040161045490612798565b600054610100900460ff16158015611d3f576000805461ffff19166101011790555b611d4a600033611f66565b611d62600080516020612d6583398151915233611f66565b610af9600080516020612d4583398151915233611f66565b60006001600160e01b03198216637965db0b60e01b148061048257506301ffc9a760e01b6001600160e01b0319831614610482565b61012d5460ff1615610e4e5760405162461bcd60e51b815260206004820152602c60248201527f455243313135355061757361626c653a20746f6b656e207472616e736665722060448201526b1dda1a5b19481c185d5cd95960a21b6064820152608401610454565b6000818152600183016020526040812054611e5f57508154600181810184556000848152602080822090930184905584548482528286019093526040902091909155610482565b506000610482565b60008181526001830160205260408120548015611f50576000611e8b600183612c16565b8554909150600090611e9f90600190612c16565b9050818114611f04576000866000018281548110611ebf57611ebf61270a565b9060005260206000200154905080876000018481548110611ee257611ee261270a565b6000918252602080832090910192909255918252600188019052604090208390555b8554869080611f1557611f15612c29565b600190038181906000526020600020016000905590558560010160008681526020019081526020016000206000905560019350505050610482565b6000915050610482565b60cb6106a98282612c85565b6106a98282610eba565b80356001600160a01b0381168114611f8757600080fd5b919050565b60008060408385031215611f9f57600080fd5b611fa883611f70565b946020939093013593505050565b6001600160e01b031981168114611c0f57600080fd5b600060208284031215611fde57600080fd5b813561099781611fb6565b600060208284031215611ffb57600080fd5b5035919050565b60005b8381101561201d578181015183820152602001612005565b50506000910152565b6000815180845261203e816020860160208601612002565b601f01601f19169290920160200192915050565b6020815260006109976020830184612026565b634e487b7160e01b600052604160045260246000fd5b601f8201601f191681016001600160401b03811182821017156120a0576120a0612065565b6040525050565b60006001600160401b038211156120c0576120c0612065565b5060051b60200190565b600082601f8301126120db57600080fd5b813560206120e8826120a7565b6040516120f5828261207b565b83815260059390931b850182019282810191508684111561211557600080fd5b8286015b848110156121305780358352918301918301612119565b509695505050505050565b60006001600160401b0383111561215457612154612065565b60405161216b601f8501601f19166020018261207b565b80915083815284848401111561218057600080fd5b83836020830137600060208583010152509392505050565b600082601f8301126121a957600080fd5b6109978383356020850161213b565b600080600080608085870312156121ce57600080fd5b6121d785611f70565b935060208501356001600160401b03808211156121f357600080fd5b6121ff888389016120ca565b9450604087013591508082111561221557600080fd5b612221888389016120ca565b9350606087013591508082111561223757600080fd5b5061224487828801612198565b91505092959194509250565b600080600080600060a0868803121561226857600080fd5b61227186611f70565b945061227f60208701611f70565b935060408601356001600160401b038082111561229b57600080fd5b6122a789838a016120ca565b945060608801359150808211156122bd57600080fd5b6122c989838a016120ca565b935060808801359150808211156122df57600080fd5b506122ec88828901612198565b9150509295509295909350565b6000806040838503121561230c57600080fd5b8235915061231c60208401611f70565b90509250929050565b6000806040838503121561233857600080fd5b82356001600160401b038082111561234f57600080fd5b818501915085601f83011261236357600080fd5b81356020612370826120a7565b60405161237d828261207b565b83815260059390931b850182019282810191508984111561239d57600080fd5b948201945b838610156123c2576123b386611f70565b825294820194908201906123a2565b965050860135925050808211156123d857600080fd5b506123e5858286016120ca565b9150509250929050565b600081518084526020808501945080840160005b8381101561241f57815187529582019590820190600101612403565b509495945050505050565b60208152600061099760208301846123ef565b60008060006060848603121561245257600080fd5b61245b84611f70565b925060208401356001600160401b038082111561247757600080fd5b612483878388016120ca565b9350604086013591508082111561249957600080fd5b506124a6868287016120ca565b9150509250925092565b600080600080608085870312156124c657600080fd5b6124cf85611f70565b9350602085013592506040850135915060608501356001600160401b038111156124f857600080fd5b61224487828801612198565b6000806040838503121561251757600080fd5b50508035926020909101359150565b6000806040838503121561253957600080fd5b61254283611f70565b91506020830135801515811461255757600080fd5b809150509250929050565b6000806040838503121561257557600080fd5b61257e83611f70565b915061231c60208401611f70565b600080600080600060a086880312156125a457600080fd5b6125ad86611f70565b94506125bb60208701611f70565b9350604086013592506060860135915060808601356001600160401b038111156125e457600080fd5b6122ec88828901612198565b60008060006060848603121561260557600080fd5b61260e84611f70565b95602085013595506040909401359392505050565b60006020828403121561263557600080fd5b81356001600160401b0381111561264b57600080fd5b8201601f8101841361265c57600080fd5b61266b8482356020840161213b565b949350505050565b600181811c9082168061268757607f821691505b6020821081036126a757634e487b7160e01b600052602260045260246000fd5b50919050565b60208082526038908201527f455243313135355072657365744d696e7465725061757365723a206d7573742060408201527f68617665206d696e74657220726f6c6520746f206d696e740000000000000000606082015260800190565b634e487b7160e01b600052603260045260246000fd5b634e487b7160e01b600052601160045260246000fd5b60006001820161274857612748612720565b5060010190565b60208082526029908201527f455243313135353a2063616c6c6572206973206e6f74206f776e6572206e6f7260408201526808185c1c1c9bdd995960ba1b606082015260800190565b6020808252602e908201527f496e697469616c697a61626c653a20636f6e747261637420697320616c72656160408201526d191e481a5b9a5d1a585b1a5e995960921b606082015260800190565b60208082526021908201527f455243313135353a206d696e7420746f20746865207a65726f206164647265736040820152607360f81b606082015260800190565b60208082526028908201527f455243313135353a2069647320616e6420616d6f756e7473206c656e677468206040820152670dad2e6dac2e8c6d60c31b606082015260800190565b8082018082111561048257610482612720565b60408152600061289560408301856123ef565b82810360208401526128a781856123ef565b95945050505050565b60208082526025908201527f455243313135353a207472616e7366657220746f20746865207a65726f206164604082015264647265737360d81b606082015260800190565b6020808252602a908201527f455243313135353a20696e73756666696369656e742062616c616e636520666f60408201526939103a3930b739b332b960b11b606082015260800190565b7f416363657373436f6e74726f6c3a206163636f756e7420000000000000000000815260008351612977816017850160208801612002565b7001034b99036b4b9b9b4b733903937b6329607d1b60179184019182015283516129a8816028840160208801612002565b01602801949350505050565b60208082526023908201527f455243313135353a206275726e2066726f6d20746865207a65726f206164647260408201526265737360e81b606082015260800190565b60208082526024908201527f455243313135353a206275726e20616d6f756e7420657863656564732062616c604082015263616e636560e01b606082015260800190565b6001600160a01b0386811682528516602082015260a060408201819052600090612a67908301866123ef565b8281036060840152612a7981866123ef565b90508281036080840152612a8d8185612026565b98975050505050505050565b600060208284031215612aab57600080fd5b815161099781611fb6565b600060033d1115612acf5760046000803e5060005160e01c5b90565b600060443d1015612ae05790565b6040516003193d81016004833e81513d6001600160401b038160248401118184111715612b0f57505050505090565b8285019150815181811115612b275750505050505090565b843d8701016020828501011115612b415750505050505090565b612b506020828601018761207b565b509095945050505050565b60208082526028908201527f455243313135353a204552433131353552656365697665722072656a656374656040820152676420746f6b656e7360c01b606082015260800190565b808202811582820484141761048257610482612720565b600081612bc957612bc9612720565b506000190190565b6001600160a01b03868116825285166020820152604081018490526060810183905260a060808201819052600090612c0b90830184612026565b979650505050505050565b8181038181111561048257610482612720565b634e487b7160e01b600052603160045260246000fd5b601f82111561062a57600081815260208120601f850160051c81016020861015612c665750805b601f850160051c820191505b81811015610e4e57828155600101612c72565b81516001600160401b03811115612c9e57612c9e612065565b612cb281612cac8454612673565b84612c3f565b602080601f831160018114612ce75760008415612ccf5750858301515b600019600386901b1c1916600185901b178555610e4e565b600085815260208120601f198616915b82811015612d1657888601518255948401946001909101908401612cf7565b5085821015612d345787850151600019600388901b60f8161c191681555b5050505050600190811b0190555056fe65d7a28e3265b37a6474929f336521b332c1681b933f6cb9f3376673440d862a9f2df0fed2c77648de5860a4cc508cd0818c85b8b8a1ab4ceeef8d981c8956a6a26469706673582212201001d9792b065bef8541110850d43f22fe29de75dda20fc3a037091e57d01b7464736f6c63430008110033",
  "linkReferences": {},
  "deployedLinkReferences": {}
}