{
  "_format": "hh-sol-artifact-1",
  "contractName": "MockERC721CreatorMintPermissions",
  "sourceName": "contracts/manifold/creator-core/mocks/MockERC721CreatorMintPermissions.sol",
  "abi": [
    {
      "inputs": [
        {
          "internalType": "address",
          "name": "creator_",
          "type": "address"
        }
      ],
      "stateMutability": "nonpayable",
      "type": "constructor"
    },
    {
      "anonymous": false,
      "inputs": [
        {
          "indexed": true,
          "internalType": "address",
          "name": "account",
          "type": "address"
        },
        {
          "indexed": true,
          "internalType": "address",
          "name": "sender",
          "type": "address"
        }
      ],
      "name": "AdminApproved",
      "type": "event"
    },
    {
      "anonymous": false,
      "inputs": [
        {
          "indexed": true,
          "internalType": "address",
          "name": "account",
          "type": "address"
        },
        {
          "indexed": true,
          "internalType": "address",
          "name": "sender",
          "type": "address"
        }
      ],
      "name": "AdminRevoked",
      "type": "event"
    },
    {
      "anonymous": false,
      "inputs": [
        {
          "indexed": true,
          "internalType": "address",
          "name": "previousOwner",
          "type": "address"
        },
        {
          "indexed": true,
          "internalType": "address",
          "name": "newOwner",
          "type": "address"
        }
      ],
      "name": "OwnershipTransferred",
      "type": "event"
    },
    {
      "inputs": [
        {
          "internalType": "address",
          "name": "admin",
          "type": "address"
        }
      ],
      "name": "approveAdmin",
      "outputs": [],
      "stateMutability": "nonpayable",
      "type": "function"
    },
    {
      "inputs": [
        {
          "internalType": "address",
          "name": "extension",
          "type": "address"
        },
        {
          "internalType": "address",
          "name": "to",
          "type": "address"
        },
        {
          "internalType": "uint256",
          "name": "tokenId",
          "type": "uint256"
        }
      ],
      "name": "approveMint",
      "outputs": [],
      "stateMutability": "nonpayable",
      "type": "function"
    },
    {
      "inputs": [],
      "name": "getAdmins",
      "outputs": [
        {
          "internalType": "address[]",
          "name": "admins",
          "type": "address[]"
        }
      ],
      "stateMutability": "view",
      "type": "function"
    },
    {
      "inputs": [
        {
          "internalType": "address",
          "name": "admin",
          "type": "address"
        }
      ],
      "name": "isAdmin",
      "outputs": [
        {
          "internalType": "bool",
          "name": "",
          "type": "bool"
        }
      ],
      "stateMutability": "view",
      "type": "function"
    },
    {
      "inputs": [],
      "name": "owner",
      "outputs": [
        {
          "internalType": "address",
          "name": "",
          "type": "address"
        }
      ],
      "stateMutability": "view",
      "type": "function"
    },
    {
      "inputs": [],
      "name": "renounceOwnership",
      "outputs": [],
      "stateMutability": "nonpayable",
      "type": "function"
    },
    {
      "inputs": [
        {
          "internalType": "address",
          "name": "admin",
          "type": "address"
        }
      ],
      "name": "revokeAdmin",
      "outputs": [],
      "stateMutability": "nonpayable",
      "type": "function"
    },
    {
      "inputs": [
        {
          "internalType": "bool",
          "name": "enabled",
          "type": "bool"
        }
      ],
      "name": "setApproveEnabled",
      "outputs": [],
      "stateMutability": "nonpayable",
      "type": "function"
    },
    {
      "inputs": [
        {
          "internalType": "bytes4",
          "name": "interfaceId",
          "type": "bytes4"
        }
      ],
      "name": "supportsInterface",
      "outputs": [
        {
          "internalType": "bool",
          "name": "",
          "type": "bool"
        }
      ],
      "stateMutability": "view",
      "type": "function"
    },
    {
      "inputs": [
        {
          "internalType": "address",
          "name": "newOwner",
          "type": "address"
        }
      ],
      "name": "transferOwnership",
      "outputs": [],
      "stateMutability": "nonpayable",
      "type": "function"
    }
  ],
  "bytecode": "0x60a06040523480156200001157600080fd5b5060405162000e8938038062000e89833981016040819052620000349162000262565b600080546001600160a01b031916339081178255604051839282917f8be0079c531659141344cd1fd0a4f28419497f9722a3daafe3b4186f6b6457e0908290a3506200009381639088c20760e01b6200010e60201b6200056e1760201c565b620000ee5760405162461bcd60e51b815260206004820152602160248201527f4d75737420696d706c656d656e74204945524337323143726561746f72436f726044820152606560f81b606482015260840160405180910390fd5b6001600160a01b0316608052506003805460ff19166001179055620002e9565b60006200011b8362000138565b80156200012f57506200012f838362000170565b90505b92915050565b60006200014d826301ffc9a760e01b62000170565b801562000132575062000169826001600160e01b031962000170565b1592915050565b604080516001600160e01b0319831660248083019190915282518083039091018152604490910182526020810180516001600160e01b03166301ffc9a760e01b179052905160009190829081906001600160a01b0387169061753090620001d990869062000294565b6000604051808303818686fa925050503d806000811462000217576040519150601f19603f3d011682016040523d82523d6000602084013e6200021c565b606091505b509150915060208151101562000239576000935050505062000132565b81801562000258575080806020019051810190620002589190620002c5565b9695505050505050565b6000602082840312156200027557600080fd5b81516001600160a01b03811681146200028d57600080fd5b9392505050565b6000825160005b81811015620002b757602081860181015185830152016200029b565b506000920191825250919050565b600060208284031215620002d857600080fd5b815180151581146200028d57600080fd5b608051610b846200030560003960006106330152610b846000f3fe608060405234801561001057600080fd5b506004361061009e5760003560e01c8063715018a611610066578063715018a61461011b5780638da5cb5b14610123578063d9accf921461013e578063f029c2d81461015f578063f2fde38b1461017257600080fd5b806301ffc9a7146100a357806324d7806c146100cb5780632d345670146100de57806331ae450b146100f35780636d73e66914610108575b600080fd5b6100b66100b1366004610934565b610185565b60405190151581526020015b60405180910390f35b6100b66100d936600461097a565b6101b0565b6100f16100ec36600461097a565b6101e9565b005b6100fb610272565b6040516100c29190610995565b6100f161011636600461097a565b610321565b6100f161039b565b6000546040516001600160a01b0390911681526020016100c2565b6100f161014c3660046109f0565b6003805460ff1916911515919091179055565b6100f161016d366004610a0d565b61040f565b6100f161018036600461097a565b610484565b60006001600160e01b03198216631e05385b60e31b14806101aa57506101aa82610591565b92915050565b6000816001600160a01b03166101ce6000546001600160a01b031690565b6001600160a01b031614806101aa57506101aa6001836105c6565b6000546001600160a01b0316331461021c5760405162461bcd60e51b815260040161021390610a49565b60405180910390fd5b6102276001826105c6565b1561026f5760405133906001600160a01b038316907f7c0c3c84c67c85fcac635147348bfe374c24a1a93d0366d1cfe9d8853cbf89d590600090a361026d6001826105e8565b505b50565b606061027e60016105fd565b67ffffffffffffffff81111561029657610296610a7e565b6040519080825280602002602001820160405280156102bf578160200160208202803683370190505b50905060005b6102cf60016105fd565b81101561031d576102e1600182610607565b8282815181106102f3576102f3610a94565b6001600160a01b03909216602092830291909101909101528061031581610ac0565b9150506102c5565b5090565b6000546001600160a01b0316331461034b5760405162461bcd60e51b815260040161021390610a49565b6103566001826105c6565b61026f5760405133906001600160a01b038316907f7e1a1a08d52e4ba0e21554733d66165fd5151f99460116223d9e3a608eec5cb190600090a361026d600182610613565b6000546001600160a01b031633146103c55760405162461bcd60e51b815260040161021390610a49565b600080546040516001600160a01b03909116907f8be0079c531659141344cd1fd0a4f28419497f9722a3daafe3b4186f6b6457e0908390a3600080546001600160a01b0319169055565b61041a838383610628565b60035460ff1661047f5760405162461bcd60e51b815260206004820152602a60248201527f4d6f636b45524337323143726561746f724d696e745065726d697373696f6e736044820152690e88111a5cd8589b195960b21b6064820152608401610213565b505050565b6000546001600160a01b031633146104ae5760405162461bcd60e51b815260040161021390610a49565b6001600160a01b0381166105135760405162461bcd60e51b815260206004820152602660248201527f4f776e61626c653a206e6577206f776e657220697320746865207a65726f206160448201526564647265737360d01b6064820152608401610213565b600080546040516001600160a01b03808516939216917f8be0079c531659141344cd1fd0a4f28419497f9722a3daafe3b4186f6b6457e091a3600080546001600160a01b0319166001600160a01b0392909216919091179055565b6000610579836106ac565b801561058a575061058a83836106df565b9392505050565b60006001600160e01b03198216632a9f3abf60e11b14806101aa57506301ffc9a760e01b6001600160e01b03198316146101aa565b6001600160a01b0381166000908152600183016020526040812054151561058a565b600061058a836001600160a01b0384166107c8565b60006101aa825490565b600061058a83836108bb565b600061058a836001600160a01b0384166108e5565b336001600160a01b037f0000000000000000000000000000000000000000000000000000000000000000161461047f5760405162461bcd60e51b815260206004820152602360248201527f43616e206f6e6c792062652063616c6c656420627920746f6b656e20637265616044820152623a37b960e91b6064820152608401610213565b60006106bf826301ffc9a760e01b6106df565b80156101aa57506106d8826001600160e01b03196106df565b1592915050565b604080516001600160e01b0319831660248083019190915282518083039091018152604490910182526020810180516001600160e01b03166301ffc9a760e01b179052905160009190829081906001600160a01b0387169061753090610746908690610ad9565b6000604051808303818686fa925050503d8060008114610782576040519150601f19603f3d011682016040523d82523d6000602084013e610787565b606091505b50915091506020815110156107a257600093505050506101aa565b8180156107be5750808060200190518101906107be9190610b08565b9695505050505050565b600081815260018301602052604081205480156108b15760006107ec600183610b25565b855490915060009061080090600190610b25565b905081811461086557600086600001828154811061082057610820610a94565b906000526020600020015490508087600001848154811061084357610843610a94565b6000918252602080832090910192909255918252600188019052604090208390555b855486908061087657610876610b38565b6001900381819060005260206000200160009055905585600101600086815260200190815260200160002060009055600193505050506101aa565b60009150506101aa565b60008260000182815481106108d2576108d2610a94565b9060005260206000200154905092915050565b600081815260018301602052604081205461092c575081546001818101845560008481526020808220909301849055845484825282860190935260409020919091556101aa565b5060006101aa565b60006020828403121561094657600080fd5b81356001600160e01b03198116811461058a57600080fd5b80356001600160a01b038116811461097557600080fd5b919050565b60006020828403121561098c57600080fd5b61058a8261095e565b6020808252825182820181905260009190848201906040850190845b818110156109d65783516001600160a01b0316835292840192918401916001016109b1565b50909695505050505050565b801515811461026f57600080fd5b600060208284031215610a0257600080fd5b813561058a816109e2565b600080600060608486031215610a2257600080fd5b610a2b8461095e565b9250610a396020850161095e565b9150604084013590509250925092565b6020808252818101527f4f776e61626c653a2063616c6c6572206973206e6f7420746865206f776e6572604082015260600190565b634e487b7160e01b600052604160045260246000fd5b634e487b7160e01b600052603260045260246000fd5b634e487b7160e01b600052601160045260246000fd5b600060018201610ad257610ad2610aaa565b5060010190565b6000825160005b81811015610afa5760208186018101518583015201610ae0565b506000920191825250919050565b600060208284031215610b1a57600080fd5b815161058a816109e2565b818103818111156101aa576101aa610aaa565b634e487b7160e01b600052603160045260246000fdfea2646970667358221220dc25993f13666fadcdcf5683cbe421eba5d67658360712722427b764f86843da64736f6c63430008110033",
  "linkReferences": {},
  "deployedLinkReferences": {}
}