{
  "_format": "hh-sol-artifact-1",
  "contractName": "EIP2981RoyaltyOverride",
  "sourceName": "contracts/manifold/royalty-registry/overrides/RoyaltyOverride.sol",
  "abi": [
    {
      "anonymous": false,
      "inputs": [
        {
          "indexed": false,
          "internalType": "address",
          "name": "recipient",
          "type": "address"
        },
        {
          "indexed": false,
          "internalType": "uint16",
          "name": "bps",
          "type": "uint16"
        }
      ],
      "name": "DefaultRoyaltySet",
      "type": "event"
    },
    {
      "anonymous": false,
      "inputs": [
        {
          "indexed": true,
          "internalType": "address",
          "name": "previousOwner",
          "type": "address"
        },
        {
          "indexed": true,
          "internalType": "address",
          "name": "newOwner",
          "type": "address"
        }
      ],
      "name": "OwnershipTransferred",
      "type": "event"
    },
    {
      "anonymous": false,
      "inputs": [
        {
          "indexed": false,
          "internalType": "uint256",
          "name": "tokenId",
          "type": "uint256"
        }
      ],
      "name": "TokenRoyaltyRemoved",
      "type": "event"
    },
    {
      "anonymous": false,
      "inputs": [
        {
          "indexed": false,
          "internalType": "uint256",
          "name": "tokenId",
          "type": "uint256"
        },
        {
          "indexed": false,
          "internalType": "address",
          "name": "recipient",
          "type": "address"
        },
        {
          "indexed": false,
          "internalType": "uint16",
          "name": "bps",
          "type": "uint16"
        }
      ],
      "name": "TokenRoyaltySet",
      "type": "event"
    },
    {
      "inputs": [],
      "name": "defaultRoyalty",
      "outputs": [
        {
          "internalType": "address",
          "name": "recipient",
          "type": "address"
        },
        {
          "internalType": "uint16",
          "name": "bps",
          "type": "uint16"
        }
      ],
      "stateMutability": "view",
      "type": "function"
    },
    {
      "inputs": [],
      "name": "getTokenRoyaltiesCount",
      "outputs": [
        {
          "internalType": "uint256",
          "name": "",
          "type": "uint256"
        }
      ],
      "stateMutability": "view",
      "type": "function"
    },
    {
      "inputs": [
        {
          "internalType": "uint256",
          "name": "index",
          "type": "uint256"
        }
      ],
      "name": "getTokenRoyaltyByIndex",
      "outputs": [
        {
          "components": [
            {
              "internalType": "uint256",
              "name": "tokenId",
              "type": "uint256"
            },
            {
              "internalType": "address",
              "name": "recipient",
              "type": "address"
            },
            {
              "internalType": "uint16",
              "name": "bps",
              "type": "uint16"
            }
          ],
          "internalType": "struct IEIP2981RoyaltyOverride.TokenRoyaltyConfig",
          "name": "",
          "type": "tuple"
        }
      ],
      "stateMutability": "view",
      "type": "function"
    },
    {
      "inputs": [],
      "name": "owner",
      "outputs": [
        {
          "internalType": "address",
          "name": "",
          "type": "address"
        }
      ],
      "stateMutability": "view",
      "type": "function"
    },
    {
      "inputs": [],
      "name": "renounceOwnership",
      "outputs": [],
      "stateMutability": "nonpayable",
      "type": "function"
    },
    {
      "inputs": [
        {
          "internalType": "uint256",
          "name": "tokenId",
          "type": "uint256"
        },
        {
          "internalType": "uint256",
          "name": "value",
          "type": "uint256"
        }
      ],
      "name": "royaltyInfo",
      "outputs": [
        {
          "internalType": "address",
          "name": "",
          "type": "address"
        },
        {
          "internalType": "uint256",
          "name": "",
          "type": "uint256"
        }
      ],
      "stateMutability": "view",
      "type": "function"
    },
    {
      "inputs": [
        {
          "components": [
            {
              "internalType": "address",
              "name": "recipient",
              "type": "address"
            },
            {
              "internalType": "uint16",
              "name": "bps",
              "type": "uint16"
            }
          ],
          "internalType": "struct IEIP2981RoyaltyOverride.TokenRoyalty",
          "name": "royalty",
          "type": "tuple"
        }
      ],
      "name": "setDefaultRoyalty",
      "outputs": [],
      "stateMutability": "nonpayable",
      "type": "function"
    },
    {
      "inputs": [
        {
          "components": [
            {
              "internalType": "uint256",
              "name": "tokenId",
              "type": "uint256"
            },
            {
              "internalType": "address",
              "name": "recipient",
              "type": "address"
            },
            {
              "internalType": "uint16",
              "name": "bps",
              "type": "uint16"
            }
          ],
          "internalType": "struct IEIP2981RoyaltyOverride.TokenRoyaltyConfig[]",
          "name": "royaltyConfigs",
          "type": "tuple[]"
        }
      ],
      "name": "setTokenRoyalties",
      "outputs": [],
      "stateMutability": "nonpayable",
      "type": "function"
    },
    {
      "inputs": [
        {
          "internalType": "bytes4",
          "name": "interfaceId",
          "type": "bytes4"
        }
      ],
      "name": "supportsInterface",
      "outputs": [
        {
          "internalType": "bool",
          "name": "",
          "type": "bool"
        }
      ],
      "stateMutability": "view",
      "type": "function"
    },
    {
      "inputs": [
        {
          "internalType": "address",
          "name": "newOwner",
          "type": "address"
        }
      ],
      "name": "transferOwnership",
      "outputs": [],
      "stateMutability": "nonpayable",
      "type": "function"
    }
  ],
  "bytecode": "0x608060405234801561001057600080fd5b50600480546001600160a01b0319163390811790915560405181906000907f8be0079c531659141344cd1fd0a4f28419497f9722a3daafe3b4186f6b6457e0908290a350610d49806100636000396000f3fe608060405234801561001057600080fd5b506004361061009e5760003560e01c80637885fdc7116100665780637885fdc71461015c5780637e9803421461019e5780638da5cb5b146101b4578063ef60ceaf146101cf578063f2fde38b146101e257600080fd5b806301ffc9a7146100a35780630653aca5146100cb5780632a55205a1461010d5780635136dcc71461013f578063715018a614610154575b600080fd5b6100b66100b1366004610a20565b6101f5565b60405190151581526020015b60405180910390f35b6100de6100d9366004610a4a565b610247565b60408051825181526020808401516001600160a01b0316908201529181015161ffff16908201526060016100c2565b61012061011b366004610a63565b6102cc565b604080516001600160a01b0390931683526020830191909152016100c2565b61015261014d366004610a85565b610391565b005b610152610423565b60005461017c906001600160a01b03811690600160a01b900461ffff1682565b604080516001600160a01b03909316835261ffff9091166020830152016100c2565b6101a6610497565b6040519081526020016100c2565b6004546040516001600160a01b0390911681526020016100c2565b6101526101dd366004610afa565b6104a8565b6101526101f0366004610b2e565b6104ec565b60006001600160e01b0319821663152a902d60e11b148061022657506001600160e01b0319821663c69dbd8f60e01b145b8061024157506301ffc9a760e01b6001600160e01b03198316145b92915050565b604080516060810182526000808252602082018190529181018290529061026f6002846105d7565b6000818152600160209081526040918290208251808401845290546001600160a01b03808216835261ffff600160a01b90920482168385019081528551606081018752968752925116928501929092525116908201529392505050565b60008281526001602052604081205481906001600160a01b031615610331576000848152600160205260409020546001600160a01b038116906127109061031e90600160a01b900461ffff1686610b5f565b6103289190610b76565b9150915061038a565b6000546001600160a01b0316158015906103575750600054600160a01b900461ffff1615155b15610383576000546001600160a01b038116906127109061031e90600160a01b900461ffff1686610b5f565b5060009050805b9250929050565b6004546001600160a01b031633146103c45760405162461bcd60e51b81526004016103bb90610b98565b60405180910390fd5b61041f8282808060200260200160405190810160405280939291908181526020016000905b828210156104155761040660608302860136819003810190610bdf565b815260200190600101906103e9565b50505050506105ea565b5050565b6004546001600160a01b0316331461044d5760405162461bcd60e51b81526004016103bb90610b98565b6004546040516000916001600160a01b0316907f8be0079c531659141344cd1fd0a4f28419497f9722a3daafe3b4186f6b6457e0908390a3600480546001600160a01b0319169055565b60006104a360026107af565b905090565b6004546001600160a01b031633146104d25760405162461bcd60e51b81526004016103bb90610b98565b6104e96104e436839003830183610c52565b6107b9565b50565b6004546001600160a01b031633146105165760405162461bcd60e51b81526004016103bb90610b98565b6001600160a01b03811661057b5760405162461bcd60e51b815260206004820152602660248201527f4f776e61626c653a206e6577206f776e657220697320746865207a65726f206160448201526564647265737360d01b60648201526084016103bb565b6004546040516001600160a01b038084169216907f8be0079c531659141344cd1fd0a4f28419497f9722a3daafe3b4186f6b6457e090600090a3600480546001600160a01b0319166001600160a01b0392909216919091179055565b60006105e3838361089c565b9392505050565b60005b815181101561041f57600082828151811061060a5761060a610cbb565b60200260200101519050612710816040015161ffff161061065b5760405162461bcd60e51b815260206004820152600b60248201526a496e76616c69642062707360a81b60448201526064016103bb565b60208101516001600160a01b03166106d4578051600090815260016020526040902080546001600160b01b03191690558051610699906002906108c6565b5080516040519081527fa2870857763bd9ae76c957f869f16b31c18dd3bb4c7b4d3a4496dc5c57c657f99060200160405180910390a161079c565b6040805180820182526020808401516001600160a01b0390811683528484015161ffff90811683850190815286516000908152600190945294909220925183549451909216600160a01b026001600160b01b03199094169116179190911790558051610742906002906108d2565b50805160208083015160408085015181519485526001600160a01b039092169284019290925261ffff1682820152517f389b70fb0887f01e83784eb1c4c589f740eca53b00ed0f45e41db5d079719abb9181900360600190a15b50806107a781610cd1565b9150506105ed565b6000610241825490565b612710816020015161ffff16106108005760405162461bcd60e51b815260206004820152600b60248201526a496e76616c69642062707360a81b60448201526064016103bb565b60408051808201825282516001600160a01b03168082526020808501805161ffff169190930181905260008054600160a01b9092026001600160b01b03199092169092171790558251905191517f2c5ea6e4103e78cb101e796fb2dace540362fc542cbff5145eaa24af7dd8fe419261089192916001600160a01b0392909216825261ffff16602082015260400190565b60405180910390a150565b60008260000182815481106108b3576108b3610cbb565b9060005260206000200154905092915050565b60006105e383836108de565b60006105e383836109d1565b600081815260018301602052604081205480156109c7576000610902600183610cea565b855490915060009061091690600190610cea565b905081811461097b57600086600001828154811061093657610936610cbb565b906000526020600020015490508087600001848154811061095957610959610cbb565b6000918252602080832090910192909255918252600188019052604090208390555b855486908061098c5761098c610cfd565b600190038181906000526020600020016000905590558560010160008681526020019081526020016000206000905560019350505050610241565b6000915050610241565b6000818152600183016020526040812054610a1857508154600181810184556000848152602080822090930184905584548482528286019093526040902091909155610241565b506000610241565b600060208284031215610a3257600080fd5b81356001600160e01b0319811681146105e357600080fd5b600060208284031215610a5c57600080fd5b5035919050565b60008060408385031215610a7657600080fd5b50508035926020909101359150565b60008060208385031215610a9857600080fd5b823567ffffffffffffffff80821115610ab057600080fd5b818501915085601f830112610ac457600080fd5b813581811115610ad357600080fd5b866020606083028501011115610ae857600080fd5b60209290920196919550909350505050565b600060408284031215610b0c57600080fd5b50919050565b80356001600160a01b0381168114610b2957600080fd5b919050565b600060208284031215610b4057600080fd5b6105e382610b12565b634e487b7160e01b600052601160045260246000fd5b808202811582820484141761024157610241610b49565b600082610b9357634e487b7160e01b600052601260045260246000fd5b500490565b6020808252818101527f4f776e61626c653a2063616c6c6572206973206e6f7420746865206f776e6572604082015260600190565b803561ffff81168114610b2957600080fd5b600060608284031215610bf157600080fd5b6040516060810181811067ffffffffffffffff82111715610c2257634e487b7160e01b600052604160045260246000fd5b60405282358152610c3560208401610b12565b6020820152610c4660408401610bcd565b60408201529392505050565b600060408284031215610c6457600080fd5b6040516040810181811067ffffffffffffffff82111715610c9557634e487b7160e01b600052604160045260246000fd5b604052610ca183610b12565b8152610caf60208401610bcd565b60208201529392505050565b634e487b7160e01b600052603260045260246000fd5b600060018201610ce357610ce3610b49565b5060010190565b8181038181111561024157610241610b49565b634e487b7160e01b600052603160045260246000fdfea2646970667358221220b58dc5a69004561563860588f4c066f2c42f0a533485d70ebc6e7cf5b818895f64736f6c63430008110033",
  "linkReferences": {},
  "deployedLinkReferences": {}
}