{
  "_format": "hh-sol-artifact-1",
  "contractName": "ZoraModuleManager",
  "sourceName": "contracts/backup/zora-v3/transferHelpers/ZoraModuleManager.sol",
  "abi": [
    {
      "inputs": [
        {
          "internalType": "address",
          "name": "_registrar",
          "type": "address"
        },
        {
          "internalType": "address",
          "name": "_feeToken",
          "type": "address"
        }
      ],
      "stateMutability": "nonpayable",
      "type": "constructor"
    },
    {
      "anonymous": false,
      "inputs": [
        {
          "indexed": true,
          "internalType": "address",
          "name": "user",
          "type": "address"
        },
        {
          "indexed": true,
          "internalType": "address",
          "name": "module",
          "type": "address"
        },
        {
          "indexed": false,
          "internalType": "bool",
          "name": "approved",
          "type": "bool"
        }
      ],
      "name": "ModuleApprovalSet",
      "type": "event"
    },
    {
      "anonymous": false,
      "inputs": [
        {
          "indexed": true,
          "internalType": "address",
          "name": "module",
          "type": "address"
        }
      ],
      "name": "ModuleRegistered",
      "type": "event"
    },
    {
      "anonymous": false,
      "inputs": [
        {
          "indexed": true,
          "internalType": "address",
          "name": "newRegistrar",
          "type": "address"
        }
      ],
      "name": "RegistrarChanged",
      "type": "event"
    },
    {
      "inputs": [
        {
          "internalType": "address",
          "name": "_user",
          "type": "address"
        },
        {
          "internalType": "address",
          "name": "_module",
          "type": "address"
        }
      ],
      "name": "isModuleApproved",
      "outputs": [
        {
          "internalType": "bool",
          "name": "",
          "type": "bool"
        }
      ],
      "stateMutability": "view",
      "type": "function"
    },
    {
      "inputs": [],
      "name": "moduleFeeToken",
      "outputs": [
        {
          "internalType": "contract ZoraProtocolFeeSettings",
          "name": "",
          "type": "address"
        }
      ],
      "stateMutability": "view",
      "type": "function"
    },
    {
      "inputs": [
        {
          "internalType": "address",
          "name": "",
          "type": "address"
        }
      ],
      "name": "moduleRegistered",
      "outputs": [
        {
          "internalType": "bool",
          "name": "",
          "type": "bool"
        }
      ],
      "stateMutability": "view",
      "type": "function"
    },
    {
      "inputs": [
        {
          "internalType": "address",
          "name": "_module",
          "type": "address"
        }
      ],
      "name": "registerModule",
      "outputs": [],
      "stateMutability": "nonpayable",
      "type": "function"
    },
    {
      "inputs": [],
      "name": "registrar",
      "outputs": [
        {
          "internalType": "address",
          "name": "",
          "type": "address"
        }
      ],
      "stateMutability": "view",
      "type": "function"
    },
    {
      "inputs": [
        {
          "internalType": "address",
          "name": "_module",
          "type": "address"
        },
        {
          "internalType": "bool",
          "name": "_approved",
          "type": "bool"
        }
      ],
      "name": "setApprovalForModule",
      "outputs": [],
      "stateMutability": "nonpayable",
      "type": "function"
    },
    {
      "inputs": [
        {
          "internalType": "address",
          "name": "_module",
          "type": "address"
        },
        {
          "internalType": "address",
          "name": "_user",
          "type": "address"
        },
        {
          "internalType": "bool",
          "name": "_approved",
          "type": "bool"
        },
        {
          "internalType": "uint256",
          "name": "_deadline",
          "type": "uint256"
        },
        {
          "internalType": "uint8",
          "name": "_v",
          "type": "uint8"
        },
        {
          "internalType": "bytes32",
          "name": "_r",
          "type": "bytes32"
        },
        {
          "internalType": "bytes32",
          "name": "_s",
          "type": "bytes32"
        }
      ],
      "name": "setApprovalForModuleBySig",
      "outputs": [],
      "stateMutability": "nonpayable",
      "type": "function"
    },
    {
      "inputs": [
        {
          "internalType": "address[]",
          "name": "_modules",
          "type": "address[]"
        },
        {
          "internalType": "bool",
          "name": "_approved",
          "type": "bool"
        }
      ],
      "name": "setBatchApprovalForModules",
      "outputs": [],
      "stateMutability": "nonpayable",
      "type": "function"
    },
    {
      "inputs": [
        {
          "internalType": "address",
          "name": "_registrar",
          "type": "address"
        }
      ],
      "name": "setRegistrar",
      "outputs": [],
      "stateMutability": "nonpayable",
      "type": "function"
    },
    {
      "inputs": [
        {
          "internalType": "address",
          "name": "",
          "type": "address"
        }
      ],
      "name": "sigNonces",
      "outputs": [
        {
          "internalType": "uint256",
          "name": "",
          "type": "uint256"
        }
      ],
      "stateMutability": "view",
      "type": "function"
    },
    {
      "inputs": [
        {
          "internalType": "address",
          "name": "",
          "type": "address"
        },
        {
          "internalType": "address",
          "name": "",
          "type": "address"
        }
      ],
      "name": "userApprovals",
      "outputs": [
        {
          "internalType": "bool",
          "name": "",
          "type": "bool"
        }
      ],
      "stateMutability": "view",
      "type": "function"
    }
  ],
  "bytecode": "0x600460c052635a4f524160e01b60e052600161010052603360f81b610120527f8b73c3c69bb8fe3d512ecc4cf759cc79239f7b179b0ffacaa9a75d522b39400f6101609081527fce58904c16226b928edd08e5ee91745b8b749acafb24ab016c32bb2f06593481610180527f2a80e1ef1d7842f27f2e6be0972bb708b9a135c38860dbe73c27c3486c34f4de6101a052466101c052306101e05260a061014081905261020060405290206080523480156100b857600080fd5b50604051610d1c380380610d1c8339810160408190526100d791610186565b6001600160a01b0382166101455760405162461bcd60e51b815260206004820152602b60248201527f5a4d4d3a3a6d757374207365742072656769737472617220746f206e6f6e2d7a60448201526a65726f206164647265737360a81b606482015260840160405180910390fd5b600080546001600160a01b0319166001600160a01b039384161790551660a0526101b9565b80516001600160a01b038116811461018157600080fd5b919050565b6000806040838503121561019957600080fd5b6101a28361016a565b91506101b06020840161016a565b90509250929050565b60805160a051610b376101e56000396000818161018501526105aa015260006102d20152610b376000f3fe608060405234801561001057600080fd5b50600436106100a95760003560e01c80639e4a400c116100715780639e4a400c14610180578063ad64ae4b146101a7578063bcb11ad3146101ba578063f990ccd7146101cd578063faab9d39146101fb578063fbef5f521461020e57600080fd5b8063152c1b5b146100ae5780631be50153146100c35780632b20e3971461010657806337436c98146101315780639dbb83a71461016d575b600080fd5b6100c16100bc366004610881565b610231565b005b6100f16100d13660046108b4565b600160209081526000928352604080842090915290825290205460ff1681565b60405190151581526020015b60405180910390f35b600054610119906001600160a01b031681565b6040516001600160a01b0390911681526020016100fd565b6100f161013f3660046108b4565b6001600160a01b03918216600090815260016020908152604080832093909416825291909152205460ff1690565b6100c161017b3660046108de565b610240565b6101197f000000000000000000000000000000000000000000000000000000000000000081565b6100c16101b5366004610958565b6104bc565b6100c16101c8366004610990565b610651565b6101ed6101db366004610958565b60036020526000908152604090205481565b6040519081526020016100fd565b6100c1610209366004610958565b610690565b6100f161021c366004610958565b60026020526000908152604090205460ff1681565b61023c82338361077e565b5050565b83158061024d5750428410155b6102b65760405162461bcd60e51b815260206004820152602f60248201527f5a4d4d3a3a736574417070726f76616c466f724d6f64756c654279536967206460448201526e1958591b1a5b9948195e1c1a5c9959608a1b60648201526084015b60405180910390fd5b6001600160a01b038616600090815260036020526040812080547f0000000000000000000000000000000000000000000000000000000000000000917f8413132cc7aa5bd2ce1a1b142a3f09e2baeda86addf4f9a5dacd4679f56e7cec918b918b918b918b91908861032783610a67565b909155506040805160208101979097526001600160a01b03958616908701529390921660608501521515608084015260a083015260c082015260e001604051602081830303815290604052805190602001206040516020016103a092919061190160f01b81526002810192909252602282015260420190565b60408051601f198184030181528282528051602091820120600080855291840180845281905260ff88169284019290925260608301869052608083018590529092509060019060a0016020604051602081039080840390855afa15801561040b573d6000803e3d6000fd5b5050604051601f1901519150506001600160a01b038116158015906104415750876001600160a01b0316816001600160a01b0316145b6104a65760405162461bcd60e51b815260206004820152603060248201527f5a4d4d3a3a736574417070726f76616c466f724d6f64756c654279536967206960448201526f6e76616c6964207369676e617475726560801b60648201526084016102ad565b6104b189898961077e565b505050505050505050565b6000546001600160a01b031633146104e65760405162461bcd60e51b81526004016102ad90610a8e565b6001600160a01b03811660009081526002602052604090205460ff16156105655760405162461bcd60e51b815260206004820152602d60248201527f5a4d4d3a3a72656769737465724d6f64756c65206d6f64756c6520616c72656160448201526c191e481c9959da5cdd195c9959609a1b60648201526084016102ad565b6001600160a01b03818116600081815260026020526040808220805460ff191660011790559054905163ee1fe2ad60e01b8152908316600482015260248101919091527f00000000000000000000000000000000000000000000000000000000000000009091169063ee1fe2ad906044016020604051808303816000875af11580156105f5573d6000803e3d6000fd5b505050506040513d601f19601f820116820180604052508101906106199190610ad2565b506040516001600160a01b038216907f0961fbae397458c42f3f186eaabee4a989aafde93ac5d8d122cff462423a241e90600090a250565b815160005b8181101561068a5761068284828151811061067357610673610aeb565b6020026020010151338561077e565b600101610656565b50505050565b6000546001600160a01b031633146106ba5760405162461bcd60e51b81526004016102ad90610a8e565b6001600160a01b0381166107365760405162461bcd60e51b815260206004820152603860248201527f5a4d4d3a3a736574526567697374726172206d7573742073657420726567697360448201527f7472617220746f206e6f6e2d7a65726f2061646472657373000000000000000060648201526084016102ad565b600080546001600160a01b0319166001600160a01b038316908117825560405190917f6e4c52923c1e70447ecc72995ce26bf2400d9c26b1a7c21ab433e7caff8d40a291a250565b6001600160a01b03831660009081526002602052604090205460ff166107e65760405162461bcd60e51b815260206004820152601e60248201527f5a4d4d3a3a6d7573742062652072656769737465726564206d6f64756c65000060448201526064016102ad565b6001600160a01b03828116600090815260016020908152604080832093871680845293825291829020805460ff1916851515908117909155915191825233917fae7dcf035464e268e998bd5ac0ac831ce45a68f2c2fbd438d6c1c5965eba79f2910160405180910390a3505050565b80356001600160a01b038116811461086c57600080fd5b919050565b8035801515811461086c57600080fd5b6000806040838503121561089457600080fd5b61089d83610855565b91506108ab60208401610871565b90509250929050565b600080604083850312156108c757600080fd5b6108d083610855565b91506108ab60208401610855565b600080600080600080600060e0888a0312156108f957600080fd5b61090288610855565b965061091060208901610855565b955061091e60408901610871565b945060608801359350608088013560ff8116811461093b57600080fd5b9699959850939692959460a0840135945060c09093013592915050565b60006020828403121561096a57600080fd5b61097382610855565b9392505050565b634e487b7160e01b600052604160045260246000fd5b600080604083850312156109a357600080fd5b823567ffffffffffffffff808211156109bb57600080fd5b818501915085601f8301126109cf57600080fd5b81356020828211156109e3576109e361097a565b8160051b604051601f19603f83011681018181108682111715610a0857610a0861097a565b604052928352818301935084810182019289841115610a2657600080fd5b948201945b83861015610a4b57610a3c86610855565b85529482019493820193610a2b565b9650610a5a9050878201610871565b9450505050509250929050565b600060018201610a8757634e487b7160e01b600052601160045260246000fd5b5060010190565b60208082526024908201527f5a4d4d3a3a6f6e6c79526567697374726172206d7573742062652072656769736040820152633a3930b960e11b606082015260800190565b600060208284031215610ae457600080fd5b5051919050565b634e487b7160e01b600052603260045260246000fdfea2646970667358221220d5d25918d7a4420e0152f0258ebfb877b07d70bea97b73b1d5bfe3321eb04be964736f6c63430008110033",
  "linkReferences": {},
  "deployedLinkReferences": {}
}