{
  "_format": "hh-sol-artifact-1",
  "contractName": "ReservedAuction",
  "sourceName": "contracts/mojito/sothebys/ReservedAuction.sol",
  "abi": [
    {
      "inputs": [
        {
          "internalType": "address",
          "name": "_wrappedNativeToken",
          "type": "address"
        },
        {
          "internalType": "address",
          "name": "_platformAddress",
          "type": "address"
        },
        {
          "internalType": "uint256",
          "name": "_platformFeePercentage",
          "type": "uint256"
        },
        {
          "internalType": "address",
          "name": "_adminAddress",
          "type": "address"
        }
      ],
      "stateMutability": "nonpayable",
      "type": "constructor"
    },
    {
      "anonymous": false,
      "inputs": [
        {
          "indexed": true,
          "internalType": "address",
          "name": "account",
          "type": "address"
        },
        {
          "indexed": true,
          "internalType": "address",
          "name": "sender",
          "type": "address"
        }
      ],
      "name": "AdminApproved",
      "type": "event"
    },
    {
      "anonymous": false,
      "inputs": [
        {
          "indexed": true,
          "internalType": "address",
          "name": "account",
          "type": "address"
        },
        {
          "indexed": true,
          "internalType": "address",
          "name": "sender",
          "type": "address"
        }
      ],
      "name": "AdminRevoked",
      "type": "event"
    },
    {
      "anonymous": false,
      "inputs": [
        {
          "indexed": false,
          "internalType": "string",
          "name": "auctionId",
          "type": "string"
        },
        {
          "indexed": true,
          "internalType": "uint256",
          "name": "tokenId",
          "type": "uint256"
        },
        {
          "indexed": true,
          "internalType": "address",
          "name": "tokenContract",
          "type": "address"
        },
        {
          "indexed": false,
          "internalType": "uint256",
          "name": "quantity",
          "type": "uint256"
        },
        {
          "indexed": true,
          "internalType": "address",
          "name": "tokenOwner",
          "type": "address"
        },
        {
          "indexed": false,
          "internalType": "address",
          "name": "highestBidder",
          "type": "address"
        },
        {
          "indexed": false,
          "internalType": "uint256",
          "name": "amount",
          "type": "uint256"
        },
        {
          "indexed": false,
          "internalType": "uint256",
          "name": "tax",
          "type": "uint256"
        },
        {
          "indexed": false,
          "internalType": "address",
          "name": "paymentToken",
          "type": "address"
        },
        {
          "indexed": false,
          "internalType": "address",
          "name": "marketplaceAddress",
          "type": "address"
        },
        {
          "indexed": false,
          "internalType": "uint256",
          "name": "platformFee",
          "type": "uint256"
        },
        {
          "components": [
            {
              "internalType": "address",
              "name": "highestBidder",
              "type": "address"
            },
            {
              "internalType": "uint256",
              "name": "highestBid",
              "type": "uint256"
            }
          ],
          "indexed": false,
          "internalType": "struct ReservedAuction.BidList[]",
          "name": "bidderlist",
          "type": "tuple[]"
        }
      ],
      "name": "AuctionClosed",
      "type": "event"
    },
    {
      "anonymous": false,
      "inputs": [
        {
          "indexed": false,
          "internalType": "address",
          "name": "bidder",
          "type": "address"
        },
        {
          "indexed": false,
          "internalType": "uint256",
          "name": "amount",
          "type": "uint256"
        }
      ],
      "name": "BidAdded",
      "type": "event"
    },
    {
      "anonymous": false,
      "inputs": [
        {
          "indexed": true,
          "internalType": "address",
          "name": "previousOwner",
          "type": "address"
        },
        {
          "indexed": true,
          "internalType": "address",
          "name": "newOwner",
          "type": "address"
        }
      ],
      "name": "OwnershipTransferred",
      "type": "event"
    },
    {
      "anonymous": false,
      "inputs": [
        {
          "indexed": false,
          "internalType": "address",
          "name": "tokenContract",
          "type": "address"
        },
        {
          "indexed": false,
          "internalType": "uint256",
          "name": "tokenId",
          "type": "uint256"
        },
        {
          "indexed": false,
          "internalType": "address",
          "name": "recipient",
          "type": "address"
        },
        {
          "indexed": false,
          "internalType": "uint256",
          "name": "amount",
          "type": "uint256"
        }
      ],
      "name": "RoyaltyPayout",
      "type": "event"
    },
    {
      "stateMutability": "payable",
      "type": "fallback"
    },
    {
      "inputs": [
        {
          "components": [
            {
              "internalType": "string",
              "name": "auctionId",
              "type": "string"
            },
            {
              "internalType": "address",
              "name": "tokenContract",
              "type": "address"
            },
            {
              "internalType": "address",
              "name": "tokenOwner",
              "type": "address"
            },
            {
              "internalType": "uint256",
              "name": "tokenId",
              "type": "uint256"
            },
            {
              "internalType": "uint256",
              "name": "quantity",
              "type": "uint256"
            },
            {
              "internalType": "address",
              "name": "buyer",
              "type": "address"
            },
            {
              "internalType": "address",
              "name": "paymentToken",
              "type": "address"
            },
            {
              "internalType": "uint256",
              "name": "paymentAmount",
              "type": "uint256"
            },
            {
              "internalType": "address",
              "name": "paymentSettlementAddress",
              "type": "address"
            },
            {
              "internalType": "address",
              "name": "taxSettlementAddress",
              "type": "address"
            },
            {
              "internalType": "uint256",
              "name": "taxAmount",
              "type": "uint256"
            }
          ],
          "internalType": "struct ReservedAuction.AuctionList",
          "name": "order",
          "type": "tuple"
        },
        {
          "components": [
            {
              "internalType": "address",
              "name": "highestBidder",
              "type": "address"
            },
            {
              "internalType": "uint256",
              "name": "highestBid",
              "type": "uint256"
            }
          ],
          "internalType": "struct ReservedAuction.BidList[]",
          "name": "bidHistory",
          "type": "tuple[]"
        }
      ],
      "name": "EndAuction",
      "outputs": [],
      "stateMutability": "payable",
      "type": "function"
    },
    {
      "inputs": [
        {
          "internalType": "uint256",
          "name": "_auctionId",
          "type": "uint256"
        },
        {
          "internalType": "uint256",
          "name": "_amount",
          "type": "uint256"
        }
      ],
      "name": "addBid",
      "outputs": [],
      "stateMutability": "nonpayable",
      "type": "function"
    },
    {
      "inputs": [],
      "name": "adminAddress",
      "outputs": [
        {
          "internalType": "address",
          "name": "",
          "type": "address"
        }
      ],
      "stateMutability": "view",
      "type": "function"
    },
    {
      "inputs": [
        {
          "internalType": "address",
          "name": "admin",
          "type": "address"
        }
      ],
      "name": "approveAdmin",
      "outputs": [],
      "stateMutability": "nonpayable",
      "type": "function"
    },
    {
      "inputs": [
        {
          "internalType": "uint256",
          "name": "",
          "type": "uint256"
        },
        {
          "internalType": "uint256",
          "name": "",
          "type": "uint256"
        }
      ],
      "name": "bids",
      "outputs": [
        {
          "internalType": "address",
          "name": "highestBidder",
          "type": "address"
        },
        {
          "internalType": "uint256",
          "name": "highestBid",
          "type": "uint256"
        }
      ],
      "stateMutability": "view",
      "type": "function"
    },
    {
      "inputs": [],
      "name": "getAdmins",
      "outputs": [
        {
          "internalType": "address[]",
          "name": "admins",
          "type": "address[]"
        }
      ],
      "stateMutability": "view",
      "type": "function"
    },
    {
      "inputs": [
        {
          "internalType": "uint256",
          "name": "_auctionId",
          "type": "uint256"
        }
      ],
      "name": "getbids",
      "outputs": [
        {
          "components": [
            {
              "internalType": "address",
              "name": "highestBidder",
              "type": "address"
            },
            {
              "internalType": "uint256",
              "name": "highestBid",
              "type": "uint256"
            }
          ],
          "internalType": "struct ReservedAuction.BidList[]",
          "name": "",
          "type": "tuple[]"
        }
      ],
      "stateMutability": "view",
      "type": "function"
    },
    {
      "inputs": [
        {
          "internalType": "address",
          "name": "admin",
          "type": "address"
        }
      ],
      "name": "isAdmin",
      "outputs": [
        {
          "internalType": "bool",
          "name": "",
          "type": "bool"
        }
      ],
      "stateMutability": "view",
      "type": "function"
    },
    {
      "inputs": [],
      "name": "owner",
      "outputs": [
        {
          "internalType": "address",
          "name": "",
          "type": "address"
        }
      ],
      "stateMutability": "view",
      "type": "function"
    },
    {
      "inputs": [],
      "name": "platformAddress",
      "outputs": [
        {
          "internalType": "address payable",
          "name": "",
          "type": "address"
        }
      ],
      "stateMutability": "view",
      "type": "function"
    },
    {
      "inputs": [],
      "name": "platformFeePercentage",
      "outputs": [
        {
          "internalType": "uint256",
          "name": "",
          "type": "uint256"
        }
      ],
      "stateMutability": "view",
      "type": "function"
    },
    {
      "inputs": [],
      "name": "renounceOwnership",
      "outputs": [],
      "stateMutability": "nonpayable",
      "type": "function"
    },
    {
      "inputs": [
        {
          "internalType": "address",
          "name": "admin",
          "type": "address"
        }
      ],
      "name": "revokeAdmin",
      "outputs": [],
      "stateMutability": "nonpayable",
      "type": "function"
    },
    {
      "inputs": [
        {
          "internalType": "bytes4",
          "name": "interfaceId",
          "type": "bytes4"
        }
      ],
      "name": "supportsInterface",
      "outputs": [
        {
          "internalType": "bool",
          "name": "",
          "type": "bool"
        }
      ],
      "stateMutability": "view",
      "type": "function"
    },
    {
      "inputs": [
        {
          "internalType": "address",
          "name": "newOwner",
          "type": "address"
        }
      ],
      "name": "transferOwnership",
      "outputs": [],
      "stateMutability": "nonpayable",
      "type": "function"
    },
    {
      "inputs": [
        {
          "internalType": "address",
          "name": "_adminAddress",
          "type": "address"
        }
      ],
      "name": "updateAdminAddress",
      "outputs": [],
      "stateMutability": "nonpayable",
      "type": "function"
    },
    {
      "inputs": [
        {
          "internalType": "address",
          "name": "_platformAddress",
          "type": "address"
        }
      ],
      "name": "updatePlatformAddress",
      "outputs": [],
      "stateMutability": "nonpayable",
      "type": "function"
    },
    {
      "inputs": [
        {
          "internalType": "uint256",
          "name": "_platformFeePercentage",
          "type": "uint256"
        }
      ],
      "name": "updatePlatformFeePercentage",
      "outputs": [],
      "stateMutability": "nonpayable",
      "type": "function"
    },
    {
      "inputs": [],
      "name": "withdraw",
      "outputs": [],
      "stateMutability": "nonpayable",
      "type": "function"
    },
    {
      "inputs": [],
      "name": "wrappedNativeToken",
      "outputs": [
        {
          "internalType": "address",
          "name": "",
          "type": "address"
        }
      ],
      "stateMutability": "view",
      "type": "function"
    },
    {
      "stateMutability": "payable",
      "type": "receive"
    }
  ],
  "bytecode": "0x60806040523480156200001157600080fd5b5060405162002945380380620029458339810160408190526200003491620001f7565b6001600081815581546001600160a01b031916339081179092556040518291907f8be0079c531659141344cd1fd0a4f28419497f9722a3daafe3b4186f6b6457e0908290a3506001600160a01b038316620000d65760405162461bcd60e51b815260206004820152601860248201527f496e76616c696420506c6174666f726d2041646472657373000000000000000060448201526064015b60405180910390fd5b6001600160a01b0381166200012e5760405162461bcd60e51b815260206004820152601560248201527f496e76616c69642041646d696e204164647265737300000000000000000000006044820152606401620000cd565b6001600160a01b038416620001915760405162461bcd60e51b815260206004820152602260248201527f496e76616c696420577261707065644e6174697665546f6b656e204164647265604482015261737360f01b6064820152608401620000cd565b600480546001600160a01b039586166001600160a01b0319918216179091556006805494861694821694909417909355600791909155600580549190931691161790556200024b565b80516001600160a01b0381168114620001f257600080fd5b919050565b600080600080608085870312156200020e57600080fd5b6200021985620001da565b93506200022960208601620001da565b9250604085015191506200024060608601620001da565b905092959194509250565b6126ea806200025b6000396000f3fe6080604052600436106101175760003560e01c80637b3c4baa1161009a578063dbe55e5611610061578063dbe55e561461032d578063e48301531461034d578063f2fde38b1461036d578063f6955fac1461038d578063fc6f9468146103ba57005b80637b3c4baa1461026c57806385e2381c146102ab5780638da5cb5b146102cb5780638f9f193f146102e9578063cdd78cfc1461030957005b806331ae450b116100de57806331ae450b146101ed5780633ccfd60b1461020f5780636a36f694146102245780636d73e66914610237578063715018a61461025757005b806301ffc9a71461012057806317fcb39b1461015557806321b23f041461018d57806324d7806c146101ad5780632d345670146101cd57005b3661011e57005b005b34801561012c57600080fd5b5061014061013b366004611e8a565b6103da565b60405190151581526020015b60405180910390f35b34801561016157600080fd5b50600454610175906001600160a01b031681565b6040516001600160a01b03909116815260200161014c565b34801561019957600080fd5b5061011e6101a8366004611eb4565b610411565b3480156101b957600080fd5b506101406101c8366004611efb565b6104a8565b3480156101d957600080fd5b5061011e6101e8366004611efb565b6104e1565b3480156101f957600080fd5b5061020261056a565b60405161014c9190611f18565b34801561021b57600080fd5b5061011e610619565b61011e610232366004612125565b61073d565b34801561024357600080fd5b5061011e610252366004611efb565b610b01565b34801561026357600080fd5b5061011e610b7b565b34801561027857600080fd5b5061028c610287366004611eb4565b610bef565b604080516001600160a01b03909316835260208301919091520161014c565b3480156102b757600080fd5b5061011e6102c6366004611efb565b610c35565b3480156102d757600080fd5b506001546001600160a01b0316610175565b3480156102f557600080fd5b5061011e610304366004611efb565b610ceb565b34801561031557600080fd5b5061031f60075481565b60405190815260200161014c565b34801561033957600080fd5b50600654610175906001600160a01b031681565b34801561035957600080fd5b5061011e61036836600461224c565b610da9565b34801561037957600080fd5b5061011e610388366004611efb565b610e3b565b34801561039957600080fd5b506103ad6103a836600461224c565b610f26565b60405161014c91906122b4565b3480156103c657600080fd5b50600554610175906001600160a01b031681565b60006001600160e01b03198216632a9f3abf60e11b148061040b57506301ffc9a760e01b6001600160e01b03198316145b92915050565b60408051808201825233808252602080830185815260008781526008835285812080546001808201835591835291849020865160029093020180546001600160a01b0319166001600160a01b0390931692909217825591519101558351918252810184905290917f20eb51e0d2d436d7ec04c816f8bcce55189fc776d8dca92b7be7588249ab0c9c910160405180910390a1505050565b6000816001600160a01b03166104c66001546001600160a01b031690565b6001600160a01b0316148061040b575061040b600283610fae565b6001546001600160a01b031633146105145760405162461bcd60e51b815260040161050b906122c7565b60405180910390fd5b61051f600282610fae565b156105675760405133906001600160a01b038316907f7c0c3c84c67c85fcac635147348bfe374c24a1a93d0366d1cfe9d8853cbf89d590600090a3610565600282610fd3565b505b50565b60606105766002610fe8565b67ffffffffffffffff81111561058e5761058e611f65565b6040519080825280602002602001820160405280156105b7578160200160208202803683370190505b50905060005b6105c76002610fe8565b811015610615576105d9600282610ff2565b8282815181106105eb576105eb6122fc565b6001600160a01b03909216602092830291909101909101528061060d81612328565b9150506105bd565b5090565b6001546001600160a01b031633146106435760405162461bcd60e51b815260040161050b906122c7565b600047116106935760405162461bcd60e51b815260206004820152601c60248201527f7a65726f2062616c616e636520696e2074686520636f6e747261637400000000604482015260640161050b565b6040805160008082526020820192839052913391829147916106b491612365565b60006040518083038185875af1925050503d80600081146106f1576040519150601f19603f3d011682016040523d82523d6000602084013e6106f6565b606091505b505080925050816105655760405162461bcd60e51b81526020600482015260116024820152701dda5d1a191c985dd85b0819985a5b1959607a1b604482015260640161050b565b60026000540361078f5760405162461bcd60e51b815260206004820152601f60248201527f5265656e7472616e637947756172643a207265656e7472616e742063616c6c00604482015260640161050b565b600260005560208201516040516301ffc9a760e01b81526001600160a01b03909116906301ffc9a7906107cd906380ac58cd60e01b90600401612381565b602060405180830381865afa1580156107ea573d6000803e3d6000fd5b505050506040513d601f19601f8201168201806040525081019061080e9190612396565b8061088e575060208201516040516301ffc9a760e01b81526001600160a01b03909116906301ffc9a79061084d90636cdb3d1360e11b90600401612381565b602060405180830381865afa15801561086a573d6000803e3d6000fd5b505050506040513d601f19601f8201168201806040525081019061088e9190612396565b6109005760405162461bcd60e51b815260206004820152603a60248201527f746f6b656e436f6e747261637420646f6573206e6f7420737570706f7274204560448201527f5243373231206f72204552433131353520696e74657266616365000000000000606482015260840161050b565b60a08201516001600160a01b031633148061092557506005546001600160a01b031633145b6109885760405162461bcd60e51b815260206004820152602e60248201527f4f6e6c79204275796572206f72207468652041646d696e2063616e2063616c6c60448201526d103a3434b990333ab731ba34b7b760911b606482015260840161050b565b60008260e0015190506109af8360a001518461012001518560c00151866101400151610ffe565b6006546000906001600160a01b0316158015906109ce57506000600754115b15610a2057612710600754836109e491906123b8565b6109ee91906123cf565b90506109fa81836123f1565b60a085015160065460c0870151929450610a20926001600160a01b039091169084610ffe565b610a3d8460a0015185602001518660600151858860c001516110df565b50610a578460a001518561010001518660c0015185610ffe565b610a6084611223565b83604001516001600160a01b031684602001516001600160a01b031685606001517f14d7261e8c25d2c117a128074b17ed802bc26f11caec1021caef26624d922efe876000015188608001518960a001518a60e001518b61014001518c60c00151600660009054906101000a90046001600160a01b03168b8e604051610aee99989796959493929190612430565b60405180910390a4505060016000555050565b6001546001600160a01b03163314610b2b5760405162461bcd60e51b815260040161050b906122c7565b610b36600282610fae565b6105675760405133906001600160a01b038316907f7e1a1a08d52e4ba0e21554733d66165fd5151f99460116223d9e3a608eec5cb190600090a3610565600282611603565b6001546001600160a01b03163314610ba55760405162461bcd60e51b815260040161050b906122c7565b6001546040516000916001600160a01b0316907f8be0079c531659141344cd1fd0a4f28419497f9722a3daafe3b4186f6b6457e0908390a3600180546001600160a01b0319169055565b60086020528160005260406000208181548110610c0b57600080fd5b6000918252602090912060029091020180546001909101546001600160a01b039091169250905082565b6001546001600160a01b03163314610c5f5760405162461bcd60e51b815260040161050b906122c7565b6001600160a01b03811615801590610c8557506005546001600160a01b03828116911614155b610cc95760405162461bcd60e51b8152602060048201526015602482015274496e76616c69642041646d696e204164647265737360581b604482015260640161050b565b600580546001600160a01b0319166001600160a01b0392909216919091179055565b6001546001600160a01b03163314610d155760405162461bcd60e51b815260040161050b906122c7565b6001600160a01b03811615801590610d3b57506006546001600160a01b03828116911614155b610d875760405162461bcd60e51b815260206004820152601860248201527f496e76616c696420506c6174666f726d20416464726573730000000000000000604482015260640161050b565b600680546001600160a01b0319166001600160a01b0392909216919091179055565b6001546001600160a01b03163314610dd35760405162461bcd60e51b815260040161050b906122c7565b6127108110610e365760405162461bcd60e51b815260206004820152602960248201527f706c6174666f726d4665652073686f756c64206e6f74206265206d6f7265207460448201526868616e20313030202560b81b606482015260840161050b565b600755565b6001546001600160a01b03163314610e655760405162461bcd60e51b815260040161050b906122c7565b6001600160a01b038116610eca5760405162461bcd60e51b815260206004820152602660248201527f4f776e61626c653a206e6577206f776e657220697320746865207a65726f206160448201526564647265737360d01b606482015260840161050b565b6001546040516001600160a01b038084169216907f8be0079c531659141344cd1fd0a4f28419497f9722a3daafe3b4186f6b6457e090600090a3600180546001600160a01b0319166001600160a01b0392909216919091179055565b606060086000838152602001908152602001600020805480602002602001604051908101604052809291908181526020016000905b82821015610fa3576000848152602090819020604080518082019091526002850290910180546001600160a01b03168252600190810154828401529083529092019101610f5b565b505050509050919050565b6001600160a01b038116600090815260018301602052604081205415155b9392505050565b6000610fcc836001600160a01b038416611618565b600061040b825490565b6000610fcc838361170b565b60006001600160a01b0383166110c357604080516000815260208101918290526001600160a01b03861691849161103491612365565b60006040518083038185875af1925050503d8060008114611071576040519150601f19603f3d011682016040523d82523d6000602084013e611076565b606091505b505080915050806110be5760405162461bcd60e51b81526020600482015260126024820152711d1c985b9cd858dd1a5bdb8819985a5b195960721b604482015260640161050b565b6110d8565b6110d86001600160a01b038416868685611735565b5050505050565b6000828180806110f0898986611795565b81519193509150600081900361110d57879550505050505061121a565b60005b8181101561121157600084828151811061112c5761112c6122fc565b602002602001015190506127108a85848151811061114c5761114c6122fc565b602002602001015161115e91906123b8565b61116891906123cf565b9550858710156111a65760405162461bcd60e51b81526020600482015260096024820152681a5b9cdbdb1d995b9d60ba1b604482015260640161050b565b6111b28d828b89610ffe565b604080516001600160a01b038e81168252602082018e90528316818301526060810188905290517f866e6ef8682ddf5f1025e64dfdb45527077f7be70fa9ef680b7ffd8cf4ab9c509181900360800190a1509484900394600101611110565b50939450505050505b95945050505050565b60208101516040516301ffc9a760e01b81526001600160a01b03909116906301ffc9a79061125c906380ac58cd60e01b90600401612381565b602060405180830381865afa158015611279573d6000803e3d6000fd5b505050506040513d601f19601f8201168201806040525081019061129d9190612396565b156113f75780604001516001600160a01b031681602001516001600160a01b0316636352211e83606001516040518263ffffffff1660e01b81526004016112e691815260200190565b602060405180830381865afa158015611303573d6000803e3d6000fd5b505050506040513d601f19601f8201168201806040525081019061132791906124a4565b6001600160a01b0316146113765760405162461bcd60e51b815260206004820152601660248201527536b0b5b2b91034b9903737ba103a34329037bbb732b960511b604482015260640161050b565b602081015160408083015160a084015160608501519251632142170760e11b81526001600160a01b03928316600482015290821660248201526044810192909252909116906342842e0e90606401600060405180830381600087803b1580156113de57600080fd5b505af11580156113f2573d6000803e3d6000fd5b505050505b60208101516040516301ffc9a760e01b81526001600160a01b03909116906301ffc9a79061143090636cdb3d1360e11b90600401612381565b602060405180830381865afa15801561144d573d6000803e3d6000fd5b505050506040513d601f19601f820116820180604052508101906114719190612396565b1561056757602081015160408083015160608401519151627eeac760e11b81526001600160a01b0391821660048201526024810192909252600092169062fdd58e90604401602060405180830381865afa1580156114d3573d6000803e3d6000fd5b505050506040513d601f19601f820116820180604052508101906114f791906124c1565b905080826080015111158015611511575060008260800151115b61155d5760405162461bcd60e51b815260206004820152601a60248201527f496e73756666696365696e7420746f6b656e2062616c616e6365000000000000604482015260640161050b565b602082015160408084015160a080860151606087015160808801519451637921219560e11b81526001600160a01b0394851660048201529184166024830152604482015260648101939093526084830152600260a483015261060f60f31b60c48301529091169063f242432a9060e401600060405180830381600087803b1580156115e757600080fd5b505af11580156115fb573d6000803e3d6000fd5b505050505050565b6000610fcc836001600160a01b038416611bec565b6000818152600183016020526040812054801561170157600061163c6001836123f1565b8554909150600090611650906001906123f1565b90508181146116b5576000866000018281548110611670576116706122fc565b9060005260206000200154905080876000018481548110611693576116936122fc565b6000918252602080832090910192909255918252600188019052604090208390555b85548690806116c6576116c66124da565b60019003818190600052602060002001600090559055856001016000868152602001908152602001600020600090556001935050505061040b565b600091505061040b565b6000826000018281548110611722576117226122fc565b9060005260206000200154905092915050565b604080516001600160a01b0385811660248301528416604482015260648082018490528251808303909101815260849091019091526020810180516001600160e01b03166323b872dd60e01b17905261178f908590611c3b565b50505050565b6040516301ffc9a760e01b815260609081906001600160a01b038616906301ffc9a7906117cd90635d9dd7eb60e11b90600401612381565b602060405180830381865afa1580156117ea573d6000803e3d6000fd5b505050506040513d601f19601f8201168201806040525081019061180e9190612396565b1561188b57604051635d9dd7eb60e11b8152600481018590526001600160a01b0386169063bb3bafd6906024015b600060405180830381865afa158015611859573d6000803e3d6000fd5b505050506040513d6000823e601f3d908101601f1916820160405261188191908101906125af565b9092509050611be4565b6040516301ffc9a760e01b81526001600160a01b038616906301ffc9a7906118be90632dde656160e21b90600401612381565b602060405180830381865afa1580156118db573d6000803e3d6000fd5b505050506040513d601f19601f820116820180604052508101906118ff9190612396565b156119e85760405163b9c4d9fb60e01b8152600481018590526001600160a01b0386169063b9c4d9fb90602401600060405180830381865afa158015611949573d6000803e3d6000fd5b505050506040513d6000823e601f3d908101601f191682016040526119719190810190612609565b604051630ebd4c7f60e01b8152600481018690529092506001600160a01b03861690630ebd4c7f90602401600060405180830381865afa1580156119b9573d6000803e3d6000fd5b505050506040513d6000823e601f3d908101601f191682016040526119e1919081019061263e565b9050611be4565b6040516301ffc9a760e01b81526001600160a01b038616906301ffc9a790611a1b906335681b5360e21b90600401612381565b602060405180830381865afa158015611a38573d6000803e3d6000fd5b505050506040513d601f19601f82011682018060405250810190611a5c9190612396565b15611a8e576040516335681b5360e21b8152600481018590526001600160a01b0386169063d5a06d4c9060240161183c565b6040516301ffc9a760e01b81526001600160a01b038616906301ffc9a790611ac19063152a902d60e11b90600401612381565b602060405180830381865afa158015611ade573d6000803e3d6000fd5b505050506040513d601f19601f82011682018060405250810190611b029190612396565b15611be45760405163152a902d60e11b8152600481018590526024810184905260009081906001600160a01b03881690632a55205a906044016040805180830381865afa158015611b57573d6000803e3d6000fd5b505050506040513d601f19601f82011682018060405250810190611b7b9190612673565b915091508184600081518110611b9357611b936122fc565b6001600160a01b039092166020928302919091019091015284611bb8826127106123b8565b611bc291906123cf565b83600081518110611bd557611bd56122fc565b60200260200101818152505050505b935093915050565b6000818152600183016020526040812054611c335750815460018181018455600084815260208082209093018490558454848252828601909352604090209190915561040b565b50600061040b565b6000611c90826040518060400160405280602081526020017f5361666545524332303a206c6f772d6c6576656c2063616c6c206661696c6564815250856001600160a01b0316611d129092919063ffffffff16565b805190915015611d0d5780806020019051810190611cae9190612396565b611d0d5760405162461bcd60e51b815260206004820152602a60248201527f5361666545524332303a204552433230206f7065726174696f6e20646964206e6044820152691bdd081cdd58d8d9595960b21b606482015260840161050b565b505050565b6060611d218484600085611d29565b949350505050565b606082471015611d8a5760405162461bcd60e51b815260206004820152602660248201527f416464726573733a20696e73756666696369656e742062616c616e636520666f6044820152651c8818d85b1b60d21b606482015260840161050b565b843b611dd85760405162461bcd60e51b815260206004820152601d60248201527f416464726573733a2063616c6c20746f206e6f6e2d636f6e7472616374000000604482015260640161050b565b600080866001600160a01b03168587604051611df49190612365565b60006040518083038185875af1925050503d8060008114611e31576040519150601f19603f3d011682016040523d82523d6000602084013e611e36565b606091505b5091509150611e46828286611e51565b979650505050505050565b60608315611e60575081610fcc565b825115611e705782518084602001fd5b8160405162461bcd60e51b815260040161050b91906126a1565b600060208284031215611e9c57600080fd5b81356001600160e01b031981168114610fcc57600080fd5b60008060408385031215611ec757600080fd5b50508035926020909101359150565b6001600160a01b038116811461056757600080fd5b8035611ef681611ed6565b919050565b600060208284031215611f0d57600080fd5b8135610fcc81611ed6565b6020808252825182820181905260009190848201906040850190845b81811015611f595783516001600160a01b031683529284019291840191600101611f34565b50909695505050505050565b634e487b7160e01b600052604160045260246000fd5b6040805190810167ffffffffffffffff81118282101715611f9e57611f9e611f65565b60405290565b604051610160810167ffffffffffffffff81118282101715611f9e57611f9e611f65565b604051601f8201601f1916810167ffffffffffffffff81118282101715611ff157611ff1611f65565b604052919050565b600082601f83011261200a57600080fd5b813567ffffffffffffffff81111561202457612024611f65565b612037601f8201601f1916602001611fc8565b81815284602083860101111561204c57600080fd5b816020850160208301376000918101602001919091529392505050565b600067ffffffffffffffff82111561208357612083611f65565b5060051b60200190565b600082601f83011261209e57600080fd5b813560206120b36120ae83612069565b611fc8565b82815260069290921b840181019181810190868411156120d257600080fd5b8286015b8481101561211a57604081890312156120ef5760008081fd5b6120f7611f7b565b813561210281611ed6565b815281850135858201528352918301916040016120d6565b509695505050505050565b6000806040838503121561213857600080fd5b823567ffffffffffffffff8082111561215057600080fd5b90840190610160828703121561216557600080fd5b61216d611fa4565b82358281111561217c57600080fd5b61218888828601611ff9565b82525061219760208401611eeb565b60208201526121a860408401611eeb565b604082015260608301356060820152608083013560808201526121cd60a08401611eeb565b60a08201526121de60c08401611eeb565b60c082015260e083013560e08201526101006121fb818501611eeb565b9082015261012061220d848201611eeb565b9082015261014092830135928101929092529092506020840135908082111561223557600080fd5b506122428582860161208d565b9150509250929050565b60006020828403121561225e57600080fd5b5035919050565b600081518084526020808501945080840160005b838110156122a957815180516001600160a01b031688528301518388015260409096019590820190600101612279565b509495945050505050565b602081526000610fcc6020830184612265565b6020808252818101527f4f776e61626c653a2063616c6c6572206973206e6f7420746865206f776e6572604082015260600190565b634e487b7160e01b600052603260045260246000fd5b634e487b7160e01b600052601160045260246000fd5b60006001820161233a5761233a612312565b5060010190565b60005b8381101561235c578181015183820152602001612344565b50506000910152565b60008251612377818460208701612341565b9190910192915050565b6001600160e01b031991909116815260200190565b6000602082840312156123a857600080fd5b81518015158114610fcc57600080fd5b808202811582820484141761040b5761040b612312565b6000826123ec57634e487b7160e01b600052601260045260246000fd5b500490565b8181038181111561040b5761040b612312565b6000815180845261241c816020860160208601612341565b601f01601f19169290920160200192915050565b60006101208083526124448184018d612404565b602084018c90526001600160a01b038b81166040860152606085018b9052608085018a905288811660a0860152871660c085015260e0840186905283810361010085015290506124948185612265565b9c9b505050505050505050505050565b6000602082840312156124b657600080fd5b8151610fcc81611ed6565b6000602082840312156124d357600080fd5b5051919050565b634e487b7160e01b600052603160045260246000fd5b600082601f83011261250157600080fd5b815160206125116120ae83612069565b82815260059290921b8401810191818101908684111561253057600080fd5b8286015b8481101561211a57805161254781611ed6565b8352918301918301612534565b600082601f83011261256557600080fd5b815160206125756120ae83612069565b82815260059290921b8401810191818101908684111561259457600080fd5b8286015b8481101561211a5780518352918301918301612598565b600080604083850312156125c257600080fd5b825167ffffffffffffffff808211156125da57600080fd5b6125e6868387016124f0565b935060208501519150808211156125fc57600080fd5b5061224285828601612554565b60006020828403121561261b57600080fd5b815167ffffffffffffffff81111561263257600080fd5b611d21848285016124f0565b60006020828403121561265057600080fd5b815167ffffffffffffffff81111561266757600080fd5b611d2184828501612554565b6000806040838503121561268657600080fd5b825161269181611ed6565b6020939093015192949293505050565b602081526000610fcc602083018461240456fea264697066735822122069de69b442256fc3e89a6fe29ed8822da4556b9315eecd1d6827f8b8c21d1ad364736f6c63430008110033",
  "linkReferences": {},
  "deployedLinkReferences": {}
}