{
  "_format": "hh-sol-artifact-1",
  "contractName": "MockTestERC1155",
  "sourceName": "contracts/manifold/creator-core-extensions/mocks/Mock.sol",
  "abi": [
    {
      "inputs": [
        {
          "internalType": "string",
          "name": "uri",
          "type": "string"
        }
      ],
      "stateMutability": "nonpayable",
      "type": "constructor"
    },
    {
      "anonymous": false,
      "inputs": [
        {
          "indexed": true,
          "internalType": "address",
          "name": "account",
          "type": "address"
        },
        {
          "indexed": true,
          "internalType": "address",
          "name": "operator",
          "type": "address"
        },
        {
          "indexed": false,
          "internalType": "bool",
          "name": "approved",
          "type": "bool"
        }
      ],
      "name": "ApprovalForAll",
      "type": "event"
    },
    {
      "anonymous": false,
      "inputs": [
        {
          "indexed": true,
          "internalType": "address",
          "name": "operator",
          "type": "address"
        },
        {
          "indexed": true,
          "internalType": "address",
          "name": "from",
          "type": "address"
        },
        {
          "indexed": true,
          "internalType": "address",
          "name": "to",
          "type": "address"
        },
        {
          "indexed": false,
          "internalType": "uint256[]",
          "name": "ids",
          "type": "uint256[]"
        },
        {
          "indexed": false,
          "internalType": "uint256[]",
          "name": "values",
          "type": "uint256[]"
        }
      ],
      "name": "TransferBatch",
      "type": "event"
    },
    {
      "anonymous": false,
      "inputs": [
        {
          "indexed": true,
          "internalType": "address",
          "name": "operator",
          "type": "address"
        },
        {
          "indexed": true,
          "internalType": "address",
          "name": "from",
          "type": "address"
        },
        {
          "indexed": true,
          "internalType": "address",
          "name": "to",
          "type": "address"
        },
        {
          "indexed": false,
          "internalType": "uint256",
          "name": "id",
          "type": "uint256"
        },
        {
          "indexed": false,
          "internalType": "uint256",
          "name": "value",
          "type": "uint256"
        }
      ],
      "name": "TransferSingle",
      "type": "event"
    },
    {
      "anonymous": false,
      "inputs": [
        {
          "indexed": false,
          "internalType": "string",
          "name": "value",
          "type": "string"
        },
        {
          "indexed": true,
          "internalType": "uint256",
          "name": "id",
          "type": "uint256"
        }
      ],
      "name": "URI",
      "type": "event"
    },
    {
      "inputs": [
        {
          "internalType": "address",
          "name": "account",
          "type": "address"
        },
        {
          "internalType": "uint256",
          "name": "id",
          "type": "uint256"
        }
      ],
      "name": "balanceOf",
      "outputs": [
        {
          "internalType": "uint256",
          "name": "",
          "type": "uint256"
        }
      ],
      "stateMutability": "view",
      "type": "function"
    },
    {
      "inputs": [
        {
          "internalType": "address[]",
          "name": "accounts",
          "type": "address[]"
        },
        {
          "internalType": "uint256[]",
          "name": "ids",
          "type": "uint256[]"
        }
      ],
      "name": "balanceOfBatch",
      "outputs": [
        {
          "internalType": "uint256[]",
          "name": "",
          "type": "uint256[]"
        }
      ],
      "stateMutability": "view",
      "type": "function"
    },
    {
      "inputs": [
        {
          "internalType": "address",
          "name": "account",
          "type": "address"
        },
        {
          "internalType": "address",
          "name": "operator",
          "type": "address"
        }
      ],
      "name": "isApprovedForAll",
      "outputs": [
        {
          "internalType": "bool",
          "name": "",
          "type": "bool"
        }
      ],
      "stateMutability": "view",
      "type": "function"
    },
    {
      "inputs": [
        {
          "internalType": "address",
          "name": "from",
          "type": "address"
        },
        {
          "internalType": "address",
          "name": "to",
          "type": "address"
        },
        {
          "internalType": "uint256[]",
          "name": "ids",
          "type": "uint256[]"
        },
        {
          "internalType": "uint256[]",
          "name": "amounts",
          "type": "uint256[]"
        },
        {
          "internalType": "bytes",
          "name": "data",
          "type": "bytes"
        }
      ],
      "name": "safeBatchTransferFrom",
      "outputs": [],
      "stateMutability": "nonpayable",
      "type": "function"
    },
    {
      "inputs": [
        {
          "internalType": "address",
          "name": "from",
          "type": "address"
        },
        {
          "internalType": "address",
          "name": "to",
          "type": "address"
        },
        {
          "internalType": "uint256",
          "name": "id",
          "type": "uint256"
        },
        {
          "internalType": "uint256",
          "name": "amount",
          "type": "uint256"
        },
        {
          "internalType": "bytes",
          "name": "data",
          "type": "bytes"
        }
      ],
      "name": "safeTransferFrom",
      "outputs": [],
      "stateMutability": "nonpayable",
      "type": "function"
    },
    {
      "inputs": [
        {
          "internalType": "address",
          "name": "operator",
          "type": "address"
        },
        {
          "internalType": "bool",
          "name": "approved",
          "type": "bool"
        }
      ],
      "name": "setApprovalForAll",
      "outputs": [],
      "stateMutability": "nonpayable",
      "type": "function"
    },
    {
      "inputs": [
        {
          "internalType": "bytes4",
          "name": "interfaceId",
          "type": "bytes4"
        }
      ],
      "name": "supportsInterface",
      "outputs": [
        {
          "internalType": "bool",
          "name": "",
          "type": "bool"
        }
      ],
      "stateMutability": "view",
      "type": "function"
    },
    {
      "inputs": [
        {
          "internalType": "address",
          "name": "account",
          "type": "address"
        },
        {
          "internalType": "uint256",
          "name": "id",
          "type": "uint256"
        },
        {
          "internalType": "uint256",
          "name": "amount",
          "type": "uint256"
        },
        {
          "internalType": "bytes",
          "name": "data",
          "type": "bytes"
        }
      ],
      "name": "testMint",
      "outputs": [],
      "stateMutability": "nonpayable",
      "type": "function"
    },
    {
      "inputs": [
        {
          "internalType": "uint256",
          "name": "",
          "type": "uint256"
        }
      ],
      "name": "uri",
      "outputs": [
        {
          "internalType": "string",
          "name": "",
          "type": "string"
        }
      ],
      "stateMutability": "view",
      "type": "function"
    }
  ],
  "bytecode": "0x60806040523480156200001157600080fd5b506040516200185738038062001857833981016040819052620000349162000072565b808062000041816200004a565b505050620002a2565b6002620000588282620001d6565b5050565b634e487b7160e01b600052604160045260246000fd5b600060208083850312156200008657600080fd5b82516001600160401b03808211156200009e57600080fd5b818501915085601f830112620000b357600080fd5b815181811115620000c857620000c86200005c565b604051601f8201601f19908116603f01168101908382118183101715620000f357620000f36200005c565b8160405282815288868487010111156200010c57600080fd5b600093505b8284101562000130578484018601518185018701529285019262000111565b600086848301015280965050505050505092915050565b600181811c908216806200015c57607f821691505b6020821081036200017d57634e487b7160e01b600052602260045260246000fd5b50919050565b601f821115620001d157600081815260208120601f850160051c81016020861015620001ac5750805b601f850160051c820191505b81811015620001cd57828155600101620001b8565b5050505b505050565b81516001600160401b03811115620001f257620001f26200005c565b6200020a8162000203845462000147565b8462000183565b602080601f831160018114620002425760008415620002295750858301515b600019600386901b1c1916600185901b178555620001cd565b600085815260208120601f198616915b82811015620002735788860151825594840194600190910190840162000252565b5085821015620002925787850151600019600388901b60f8161c191681555b5050505050600190811b01905550565b6115a580620002b26000396000f3fe608060405234801561001057600080fd5b50600436106100925760003560e01c80632eb2c2d6116100665780632eb2c2d6146101155780634e1273f414610128578063a22cb46514610148578063e985e9c51461015b578063f242432a1461019757600080fd5b8062fdd58e1461009757806301ffc9a7146100bd5780630e89341c146100e0578063292241f214610100575b600080fd5b6100aa6100a5366004610d22565b6101aa565b6040519081526020015b60405180910390f35b6100d06100cb366004610d65565b610244565b60405190151581526020016100b4565b6100f36100ee366004610d89565b610294565b6040516100b49190610de8565b61011361010e366004610dfb565b610328565b005b610113610123366004610fdb565b610371565b61013b610136366004611085565b610401565b6040516100b4919061118b565b61011361015636600461119e565b61052b565b6100d06101693660046111da565b6001600160a01b03918216600090815260016020908152604080832093909416825291909152205460ff1690565b6101136101a536600461120d565b61053a565b60006001600160a01b03831661021b5760405162461bcd60e51b815260206004820152602b60248201527f455243313135353a2062616c616e636520717565727920666f7220746865207a60448201526a65726f206164647265737360a81b60648201526084015b60405180910390fd5b506000818152602081815260408083206001600160a01b03861684529091529020545b92915050565b60006001600160e01b03198216636cdb3d1360e11b148061027557506001600160e01b031982166303a24d0760e21b145b8061023e57506301ffc9a760e01b6001600160e01b031983161461023e565b6060600280546102a390611272565b80601f01602080910402602001604051908101604052809291908181526020018280546102cf90611272565b801561031c5780601f106102f15761010080835404028352916020019161031c565b820191906000526020600020905b8154815290600101906020018083116102ff57829003601f168201915b50505050509050919050565b61036a85858585858080601f0160208091040260200160405190810160405280939291908181526020018383808284376000920191909152506105c192505050565b5050505050565b6001600160a01b03851633148061038d575061038d8533610169565b6103f45760405162461bcd60e51b815260206004820152603260248201527f455243313135353a207472616e736665722063616c6c6572206973206e6f74206044820152711bdddb995c881b9bdc88185c1c1c9bdd995960721b6064820152608401610212565b61036a85858585856106cb565b606081518351146104665760405162461bcd60e51b815260206004820152602960248201527f455243313135353a206163636f756e747320616e6420696473206c656e677468604482015268040dad2e6dac2e8c6d60bb1b6064820152608401610212565b6000835167ffffffffffffffff81111561048257610482610e8f565b6040519080825280602002602001820160405280156104ab578160200160208202803683370190505b50905060005b8451811015610523576104f68582815181106104cf576104cf6112ac565b60200260200101518583815181106104e9576104e96112ac565b60200260200101516101aa565b828281518110610508576105086112ac565b602090810291909101015261051c816112d8565b90506104b1565b509392505050565b6105363383836108a8565b5050565b6001600160a01b03851633148061055657506105568533610169565b6105b45760405162461bcd60e51b815260206004820152602960248201527f455243313135353a2063616c6c6572206973206e6f74206f776e6572206e6f7260448201526808185c1c1c9bdd995960ba1b6064820152608401610212565b61036a8585858585610988565b6001600160a01b0384166106215760405162461bcd60e51b815260206004820152602160248201527f455243313135353a206d696e7420746f20746865207a65726f206164647265736044820152607360f81b6064820152608401610212565b3361063b8160008761063288610aa5565b61036a88610aa5565b6000848152602081815260408083206001600160a01b03891684529091528120805485929061066b9084906112f1565b909155505060408051858152602081018590526001600160a01b0380881692600092918516917fc3d58168c5ae7397731d063d5bbf3d657854427343f4c083240f7aacaa2d0f62910160405180910390a461036a81600087878787610af0565b815183511461072d5760405162461bcd60e51b815260206004820152602860248201527f455243313135353a2069647320616e6420616d6f756e7473206c656e677468206044820152670dad2e6dac2e8c6d60c31b6064820152608401610212565b6001600160a01b0384166107535760405162461bcd60e51b815260040161021290611304565b3360005b845181101561083a576000858281518110610774576107746112ac565b602002602001015190506000858381518110610792576107926112ac565b602090810291909101810151600084815280835260408082206001600160a01b038e1683529093529190912054909150818110156107e25760405162461bcd60e51b815260040161021290611349565b6000838152602081815260408083206001600160a01b038e8116855292528083208585039055908b1682528120805484929061081f9084906112f1565b9250508190555050505080610833906112d8565b9050610757565b50846001600160a01b0316866001600160a01b0316826001600160a01b03167f4a39dc06d4c0dbc64b70af90fd698a233a518aa5d07e595d983b8c0526c8f7fb878760405161088a929190611393565b60405180910390a46108a0818787878787610c4b565b505050505050565b816001600160a01b0316836001600160a01b03160361091b5760405162461bcd60e51b815260206004820152602960248201527f455243313135353a2073657474696e6720617070726f76616c20737461747573604482015268103337b91039b2b63360b91b6064820152608401610212565b6001600160a01b03838116600081815260016020908152604080832094871680845294825291829020805460ff191686151590811790915591519182527f17307eab39ab6107e8899845ad3d59bd9653f200f220920489ca2b5937696c31910160405180910390a3505050565b6001600160a01b0384166109ae5760405162461bcd60e51b815260040161021290611304565b336109be81878761063288610aa5565b6000848152602081815260408083206001600160a01b038a168452909152902054838110156109ff5760405162461bcd60e51b815260040161021290611349565b6000858152602081815260408083206001600160a01b038b8116855292528083208785039055908816825281208054869290610a3c9084906112f1565b909155505060408051868152602081018690526001600160a01b03808916928a821692918616917fc3d58168c5ae7397731d063d5bbf3d657854427343f4c083240f7aacaa2d0f62910160405180910390a4610a9c828888888888610af0565b50505050505050565b60408051600180825281830190925260609160009190602080830190803683370190505090508281600081518110610adf57610adf6112ac565b602090810291909101015292915050565b6001600160a01b0384163b156108a05760405163f23a6e6160e01b81526001600160a01b0385169063f23a6e6190610b3490899089908890889088906004016113c1565b6020604051808303816000875af1925050508015610b6f575060408051601f3d908101601f19168201909252610b6c91810190611406565b60015b610c1b57610b7b611423565b806308c379a003610bb45750610b8f61143f565b80610b9a5750610bb6565b8060405162461bcd60e51b81526004016102129190610de8565b505b60405162461bcd60e51b815260206004820152603460248201527f455243313135353a207472616e7366657220746f206e6f6e20455243313135356044820152732932b1b2b4bb32b91034b6b83632b6b2b73a32b960611b6064820152608401610212565b6001600160e01b0319811663f23a6e6160e01b14610a9c5760405162461bcd60e51b8152600401610212906114c9565b6001600160a01b0384163b156108a05760405163bc197c8160e01b81526001600160a01b0385169063bc197c8190610c8f9089908990889088908890600401611511565b6020604051808303816000875af1925050508015610cca575060408051601f3d908101601f19168201909252610cc791810190611406565b60015b610cd657610b7b611423565b6001600160e01b0319811663bc197c8160e01b14610a9c5760405162461bcd60e51b8152600401610212906114c9565b80356001600160a01b0381168114610d1d57600080fd5b919050565b60008060408385031215610d3557600080fd5b610d3e83610d06565b946020939093013593505050565b6001600160e01b031981168114610d6257600080fd5b50565b600060208284031215610d7757600080fd5b8135610d8281610d4c565b9392505050565b600060208284031215610d9b57600080fd5b5035919050565b6000815180845260005b81811015610dc857602081850181015186830182015201610dac565b506000602082860101526020601f19601f83011685010191505092915050565b602081526000610d826020830184610da2565b600080600080600060808688031215610e1357600080fd5b610e1c86610d06565b94506020860135935060408601359250606086013567ffffffffffffffff80821115610e4757600080fd5b818801915088601f830112610e5b57600080fd5b813581811115610e6a57600080fd5b896020828501011115610e7c57600080fd5b9699959850939650602001949392505050565b634e487b7160e01b600052604160045260246000fd5b601f8201601f1916810167ffffffffffffffff81118282101715610ecb57610ecb610e8f565b6040525050565b600067ffffffffffffffff821115610eec57610eec610e8f565b5060051b60200190565b600082601f830112610f0757600080fd5b81356020610f1482610ed2565b604051610f218282610ea5565b83815260059390931b8501820192828101915086841115610f4157600080fd5b8286015b84811015610f5c5780358352918301918301610f45565b509695505050505050565b600082601f830112610f7857600080fd5b813567ffffffffffffffff811115610f9257610f92610e8f565b604051610fa9601f8301601f191660200182610ea5565b818152846020838601011115610fbe57600080fd5b816020850160208301376000918101602001919091529392505050565b600080600080600060a08688031215610ff357600080fd5b610ffc86610d06565b945061100a60208701610d06565b9350604086013567ffffffffffffffff8082111561102757600080fd5b61103389838a01610ef6565b9450606088013591508082111561104957600080fd5b61105589838a01610ef6565b9350608088013591508082111561106b57600080fd5b5061107888828901610f67565b9150509295509295909350565b6000806040838503121561109857600080fd5b823567ffffffffffffffff808211156110b057600080fd5b818501915085601f8301126110c457600080fd5b813560206110d182610ed2565b6040516110de8282610ea5565b83815260059390931b85018201928281019150898411156110fe57600080fd5b948201945b838610156111235761111486610d06565b82529482019490820190611103565b9650508601359250508082111561113957600080fd5b5061114685828601610ef6565b9150509250929050565b600081518084526020808501945080840160005b8381101561118057815187529582019590820190600101611164565b509495945050505050565b602081526000610d826020830184611150565b600080604083850312156111b157600080fd5b6111ba83610d06565b9150602083013580151581146111cf57600080fd5b809150509250929050565b600080604083850312156111ed57600080fd5b6111f683610d06565b915061120460208401610d06565b90509250929050565b600080600080600060a0868803121561122557600080fd5b61122e86610d06565b945061123c60208701610d06565b93506040860135925060608601359150608086013567ffffffffffffffff81111561126657600080fd5b61107888828901610f67565b600181811c9082168061128657607f821691505b6020821081036112a657634e487b7160e01b600052602260045260246000fd5b50919050565b634e487b7160e01b600052603260045260246000fd5b634e487b7160e01b600052601160045260246000fd5b6000600182016112ea576112ea6112c2565b5060010190565b8082018082111561023e5761023e6112c2565b60208082526025908201527f455243313135353a207472616e7366657220746f20746865207a65726f206164604082015264647265737360d81b606082015260800190565b6020808252602a908201527f455243313135353a20696e73756666696369656e742062616c616e636520666f60408201526939103a3930b739b332b960b11b606082015260800190565b6040815260006113a66040830185611150565b82810360208401526113b88185611150565b95945050505050565b6001600160a01b03868116825285166020820152604081018490526060810183905260a0608082018190526000906113fb90830184610da2565b979650505050505050565b60006020828403121561141857600080fd5b8151610d8281610d4c565b600060033d111561143c5760046000803e5060005160e01c5b90565b600060443d101561144d5790565b6040516003193d81016004833e81513d67ffffffffffffffff816024840111818411171561147d57505050505090565b82850191508151818111156114955750505050505090565b843d87010160208285010111156114af5750505050505090565b6114be60208286010187610ea5565b509095945050505050565b60208082526028908201527f455243313135353a204552433131353552656365697665722072656a656374656040820152676420746f6b656e7360c01b606082015260800190565b6001600160a01b0386811682528516602082015260a06040820181905260009061153d90830186611150565b828103606084015261154f8186611150565b905082810360808401526115638185610da2565b9897505050505050505056fea2646970667358221220fd05c13caf3261a6c8279e5839d616ee8acb96078923694eb82bf241a9cba0da64736f6c63430008110033",
  "linkReferences": {},
  "deployedLinkReferences": {}
}