{
  "_format": "hh-sol-artifact-1",
  "contractName": "MockERC721OwnerEnumerableExtension",
  "sourceName": "contracts/manifold/creator-core-extensions/mocks/Mock.sol",
  "abi": [
    {
      "anonymous": false,
      "inputs": [
        {
          "indexed": true,
          "internalType": "address",
          "name": "account",
          "type": "address"
        },
        {
          "indexed": true,
          "internalType": "address",
          "name": "sender",
          "type": "address"
        }
      ],
      "name": "AdminApproved",
      "type": "event"
    },
    {
      "anonymous": false,
      "inputs": [
        {
          "indexed": true,
          "internalType": "address",
          "name": "account",
          "type": "address"
        },
        {
          "indexed": true,
          "internalType": "address",
          "name": "sender",
          "type": "address"
        }
      ],
      "name": "AdminRevoked",
      "type": "event"
    },
    {
      "anonymous": false,
      "inputs": [
        {
          "indexed": true,
          "internalType": "address",
          "name": "previousOwner",
          "type": "address"
        },
        {
          "indexed": true,
          "internalType": "address",
          "name": "newOwner",
          "type": "address"
        }
      ],
      "name": "OwnershipTransferred",
      "type": "event"
    },
    {
      "inputs": [
        {
          "internalType": "address",
          "name": "admin",
          "type": "address"
        }
      ],
      "name": "approveAdmin",
      "outputs": [],
      "stateMutability": "nonpayable",
      "type": "function"
    },
    {
      "inputs": [
        {
          "internalType": "address",
          "name": "from",
          "type": "address"
        },
        {
          "internalType": "address",
          "name": "to",
          "type": "address"
        },
        {
          "internalType": "uint256",
          "name": "tokenId",
          "type": "uint256"
        }
      ],
      "name": "approveTransfer",
      "outputs": [
        {
          "internalType": "bool",
          "name": "",
          "type": "bool"
        }
      ],
      "stateMutability": "nonpayable",
      "type": "function"
    },
    {
      "inputs": [
        {
          "internalType": "address",
          "name": "creator",
          "type": "address"
        },
        {
          "internalType": "address",
          "name": "owner",
          "type": "address"
        }
      ],
      "name": "balanceOf",
      "outputs": [
        {
          "internalType": "uint256",
          "name": "",
          "type": "uint256"
        }
      ],
      "stateMutability": "view",
      "type": "function"
    },
    {
      "inputs": [],
      "name": "getAdmins",
      "outputs": [
        {
          "internalType": "address[]",
          "name": "admins",
          "type": "address[]"
        }
      ],
      "stateMutability": "view",
      "type": "function"
    },
    {
      "inputs": [
        {
          "internalType": "address",
          "name": "admin",
          "type": "address"
        }
      ],
      "name": "isAdmin",
      "outputs": [
        {
          "internalType": "bool",
          "name": "",
          "type": "bool"
        }
      ],
      "stateMutability": "view",
      "type": "function"
    },
    {
      "inputs": [],
      "name": "owner",
      "outputs": [
        {
          "internalType": "address",
          "name": "",
          "type": "address"
        }
      ],
      "stateMutability": "view",
      "type": "function"
    },
    {
      "inputs": [],
      "name": "renounceOwnership",
      "outputs": [],
      "stateMutability": "nonpayable",
      "type": "function"
    },
    {
      "inputs": [
        {
          "internalType": "address",
          "name": "admin",
          "type": "address"
        }
      ],
      "name": "revokeAdmin",
      "outputs": [],
      "stateMutability": "nonpayable",
      "type": "function"
    },
    {
      "inputs": [
        {
          "internalType": "address",
          "name": "creator",
          "type": "address"
        },
        {
          "internalType": "bool",
          "name": "enabled",
          "type": "bool"
        }
      ],
      "name": "setApproveTransfer",
      "outputs": [],
      "stateMutability": "nonpayable",
      "type": "function"
    },
    {
      "inputs": [
        {
          "internalType": "bytes4",
          "name": "interfaceId",
          "type": "bytes4"
        }
      ],
      "name": "supportsInterface",
      "outputs": [
        {
          "internalType": "bool",
          "name": "",
          "type": "bool"
        }
      ],
      "stateMutability": "view",
      "type": "function"
    },
    {
      "inputs": [
        {
          "internalType": "address",
          "name": "creator",
          "type": "address"
        },
        {
          "internalType": "address",
          "name": "to",
          "type": "address"
        }
      ],
      "name": "testMint",
      "outputs": [],
      "stateMutability": "nonpayable",
      "type": "function"
    },
    {
      "inputs": [
        {
          "internalType": "address",
          "name": "creator",
          "type": "address"
        },
        {
          "internalType": "address",
          "name": "owner",
          "type": "address"
        },
        {
          "internalType": "uint256",
          "name": "index",
          "type": "uint256"
        }
      ],
      "name": "tokenOfOwnerByIndex",
      "outputs": [
        {
          "internalType": "uint256",
          "name": "",
          "type": "uint256"
        }
      ],
      "stateMutability": "view",
      "type": "function"
    },
    {
      "inputs": [
        {
          "internalType": "address",
          "name": "newOwner",
          "type": "address"
        }
      ],
      "name": "transferOwnership",
      "outputs": [],
      "stateMutability": "nonpayable",
      "type": "function"
    }
  ],
  "bytecode": "0x608060405234801561001057600080fd5b50600080546001600160a01b031916339081178255604051909182917f8be0079c531659141344cd1fd0a4f28419497f9722a3daafe3b4186f6b6457e0908290a35061103d806100616000396000f3fe608060405234801561001057600080fd5b50600436106100cf5760003560e01c80636b42bf2f1161008c5780638258080511610066578063825808051461019b5780638da5cb5b146101ae578063f2fde38b146101c9578063f7888aec146101dc57600080fd5b80636b42bf2f1461015f5780636d73e66914610180578063715018a61461019357600080fd5b806301ffc9a7146100d45780631b95a227146100fc57806324d7806c146101115780632d3456701461012457806331ae450b146101375780635fa1220d1461014c575b600080fd5b6100e76100e2366004610d74565b610215565b60405190151581526020015b60405180910390f35b61010f61010a366004610dc8565b610240565b005b6100e761011f366004610dff565b610399565b61010f610132366004610dff565b6103d2565b61013f610452565b6040516100f39190610e1a565b61010f61015a366004610e67565b610501565b61017261016d366004610e9a565b610572565b6040519081526020016100f3565b61010f61018e366004610dff565b61062f565b61010f6106a9565b6100e76101a9366004610e9a565b61071d565b6000546040516001600160a01b0390911681526020016100f3565b61010f6101d7366004610dff565b61079b565b6101726101ea366004610e67565b6001600160a01b03918216600090815260036020908152604080832093909416825291909152205490565b60006001600160e01b03198216634ce6d51160e11b148061023a575061023a82610885565b92915050565b336102536000546001600160a01b031690565b6001600160a01b0316148061026e575061026e6001336108aa565b6102cb5760405162461bcd60e51b8152602060048201526024808201527f41646d696e436f6e74726f6c3a204d757374206265206f776e6572206f7220616044820152633236b4b760e11b60648201526084015b60405180910390fd5b6102dc82639088c20760e01b6108cf565b61033a5760405162461bcd60e51b815260206004820152602960248201527f63726561746f72206d75737420696d706c656d656e74204945524337323143726044820152686561746f72436f726560b81b60648201526084016102c2565b604051635606467d60e11b815281151560048201526001600160a01b0383169063ac0c8cfa90602401600060405180830381600087803b15801561037d57600080fd5b505af1158015610391573d6000803e3d6000fd5b505050505050565b6000816001600160a01b03166103b76000546001600160a01b031690565b6001600160a01b0316148061023a575061023a6001836108aa565b6000546001600160a01b031633146103fc5760405162461bcd60e51b81526004016102c290610ed6565b6104076001826108aa565b1561044f5760405133906001600160a01b038316907f7c0c3c84c67c85fcac635147348bfe374c24a1a93d0366d1cfe9d8853cbf89d590600090a361044d6001826108eb565b505b50565b606061045e6001610900565b67ffffffffffffffff81111561047657610476610f0b565b60405190808252806020026020018201604052801561049f578160200160208202803683370190505b50905060005b6104af6001610900565b8110156104fd576104c160018261090a565b8282815181106104d3576104d3610f21565b6001600160a01b0390921660209283029190910190910152806104f581610f4d565b9150506104a5565b5090565b604051630525194b60e31b81526001600160a01b038281166004830152831690632928ca58906024016020604051808303816000875af1158015610549573d6000803e3d6000fd5b505050506040513d601f19601f8201168201806040525081019061056d9190610f66565b505050565b6001600160a01b03808416600090815260036020908152604080832093861683529290529081205482106105fc5760405162461bcd60e51b815260206004820152602b60248201527f455243373231456e756d657261626c653a206f776e657220696e646578206f7560448201526a74206f6620626f756e647360a81b60648201526084016102c2565b506001600160a01b0392831660009081526004602090815260408083209490951682529283528381209181529152205490565b6000546001600160a01b031633146106595760405162461bcd60e51b81526004016102c290610ed6565b6106646001826108aa565b61044f5760405133906001600160a01b038316907f7e1a1a08d52e4ba0e21554733d66165fd5151f99460116223d9e3a608eec5cb190600090a361044d600182610916565b6000546001600160a01b031633146106d35760405162461bcd60e51b81526004016102c290610ed6565b600080546040516001600160a01b03909116907f8be0079c531659141344cd1fd0a4f28419497f9722a3daafe3b4186f6b6457e0908390a3600080546001600160a01b0319169055565b60006001600160a01b038416158015906107495750826001600160a01b0316846001600160a01b031614155b1561075857610758848361092b565b6001600160a01b038316158015906107825750836001600160a01b0316836001600160a01b031614155b15610791576107918383610a3e565b5060019392505050565b6000546001600160a01b031633146107c55760405162461bcd60e51b81526004016102c290610ed6565b6001600160a01b03811661082a5760405162461bcd60e51b815260206004820152602660248201527f4f776e61626c653a206e6577206f776e657220697320746865207a65726f206160448201526564647265737360d01b60648201526084016102c2565b600080546040516001600160a01b03808516939216917f8be0079c531659141344cd1fd0a4f28419497f9722a3daafe3b4186f6b6457e091a3600080546001600160a01b0319166001600160a01b0392909216919091179055565b60006001600160e01b03198216637005caad60e01b148061023a575061023a82610ab7565b6001600160a01b038116600090815260018301602052604081205415155b9392505050565b60006108da83610aec565b80156108c857506108c88383610b1f565b60006108c8836001600160a01b038416610c08565b600061023a825490565b60006108c88383610cfb565b60006108c8836001600160a01b038416610d25565b3360009081526003602090815260408083206001600160a01b038616845290915281205461095b90600190610f7f565b3360009081526005602090815260408083208684529091529020549091508082146109ca573360008181526004602090815260408083206001600160a01b0389168452825280832086845282528083205485845281842081905593835260058252808320938352929052208190555b3360008181526005602090815260408083208784528252808320839055838352600482528083206001600160a01b038916808552908352818420878552835281842084905593835260038252808320938352929052908120805460019290610a33908490610f7f565b909155505050505050565b3360008181526003602090815260408083206001600160a01b038716808552818452828520805487875260048652848720838852865284872081885286528487208990559686526005855283862088875285529285208690558452909152805460019290610aad908490610f92565b9091555050505050565b60006001600160e01b03198216632a9f3abf60e11b148061023a57506301ffc9a760e01b6001600160e01b031983161461023a565b6000610aff826301ffc9a760e01b610b1f565b801561023a5750610b18826001600160e01b0319610b1f565b1592915050565b604080516001600160e01b0319831660248083019190915282518083039091018152604490910182526020810180516001600160e01b03166301ffc9a760e01b179052905160009190829081906001600160a01b0387169061753090610b86908690610fa5565b6000604051808303818686fa925050503d8060008114610bc2576040519150601f19603f3d011682016040523d82523d6000602084013e610bc7565b606091505b5091509150602081511015610be2576000935050505061023a565b818015610bfe575080806020019051810190610bfe9190610fd4565b9695505050505050565b60008181526001830160205260408120548015610cf1576000610c2c600183610f7f565b8554909150600090610c4090600190610f7f565b9050818114610ca5576000866000018281548110610c6057610c60610f21565b9060005260206000200154905080876000018481548110610c8357610c83610f21565b6000918252602080832090910192909255918252600188019052604090208390555b8554869080610cb657610cb6610ff1565b60019003818190600052602060002001600090559055856001016000868152602001908152602001600020600090556001935050505061023a565b600091505061023a565b6000826000018281548110610d1257610d12610f21565b9060005260206000200154905092915050565b6000818152600183016020526040812054610d6c5750815460018181018455600084815260208082209093018490558454848252828601909352604090209190915561023a565b50600061023a565b600060208284031215610d8657600080fd5b81356001600160e01b0319811681146108c857600080fd5b80356001600160a01b0381168114610db557600080fd5b919050565b801515811461044f57600080fd5b60008060408385031215610ddb57600080fd5b610de483610d9e565b91506020830135610df481610dba565b809150509250929050565b600060208284031215610e1157600080fd5b6108c882610d9e565b6020808252825182820181905260009190848201906040850190845b81811015610e5b5783516001600160a01b031683529284019291840191600101610e36565b50909695505050505050565b60008060408385031215610e7a57600080fd5b610e8383610d9e565b9150610e9160208401610d9e565b90509250929050565b600080600060608486031215610eaf57600080fd5b610eb884610d9e565b9250610ec660208501610d9e565b9150604084013590509250925092565b6020808252818101527f4f776e61626c653a2063616c6c6572206973206e6f7420746865206f776e6572604082015260600190565b634e487b7160e01b600052604160045260246000fd5b634e487b7160e01b600052603260045260246000fd5b634e487b7160e01b600052601160045260246000fd5b600060018201610f5f57610f5f610f37565b5060010190565b600060208284031215610f7857600080fd5b5051919050565b8181038181111561023a5761023a610f37565b8082018082111561023a5761023a610f37565b6000825160005b81811015610fc65760208186018101518583015201610fac565b506000920191825250919050565b600060208284031215610fe657600080fd5b81516108c881610dba565b634e487b7160e01b600052603160045260246000fdfea2646970667358221220b4a593e410ad76a7837d52f50bb2f109d2cae0175fd1864c88277705e1ec90f464736f6c63430008110033",
  "linkReferences": {},
  "deployedLinkReferences": {}
}