{
  "_format": "hh-sol-artifact-1",
  "contractName": "MockERC721RedeemEnumerable",
  "sourceName": "contracts/manifold/creator-core-extensions/mocks/Mock.sol",
  "abi": [
    {
      "inputs": [
        {
          "internalType": "address",
          "name": "creator",
          "type": "address"
        },
        {
          "internalType": "uint16",
          "name": "redemptionRate_",
          "type": "uint16"
        },
        {
          "internalType": "uint16",
          "name": "redemptionMax_",
          "type": "uint16"
        }
      ],
      "stateMutability": "nonpayable",
      "type": "constructor"
    },
    {
      "anonymous": false,
      "inputs": [
        {
          "indexed": true,
          "internalType": "address",
          "name": "account",
          "type": "address"
        },
        {
          "indexed": true,
          "internalType": "address",
          "name": "sender",
          "type": "address"
        }
      ],
      "name": "AdminApproved",
      "type": "event"
    },
    {
      "anonymous": false,
      "inputs": [
        {
          "indexed": true,
          "internalType": "address",
          "name": "account",
          "type": "address"
        },
        {
          "indexed": true,
          "internalType": "address",
          "name": "sender",
          "type": "address"
        }
      ],
      "name": "AdminRevoked",
      "type": "event"
    },
    {
      "anonymous": false,
      "inputs": [
        {
          "indexed": true,
          "internalType": "address",
          "name": "previousOwner",
          "type": "address"
        },
        {
          "indexed": true,
          "internalType": "address",
          "name": "newOwner",
          "type": "address"
        }
      ],
      "name": "OwnershipTransferred",
      "type": "event"
    },
    {
      "anonymous": false,
      "inputs": [
        {
          "indexed": false,
          "internalType": "address[]",
          "name": "contracts",
          "type": "address[]"
        },
        {
          "indexed": false,
          "internalType": "bool[]",
          "name": "approved",
          "type": "bool[]"
        }
      ],
      "name": "UpdateApprovedContracts",
      "type": "event"
    },
    {
      "anonymous": false,
      "inputs": [
        {
          "indexed": false,
          "internalType": "address",
          "name": "contract_",
          "type": "address"
        },
        {
          "indexed": false,
          "internalType": "uint256[]",
          "name": "minTokenIds",
          "type": "uint256[]"
        },
        {
          "indexed": false,
          "internalType": "uint256[]",
          "name": "maxTokenIds",
          "type": "uint256[]"
        }
      ],
      "name": "UpdateApprovedTokenRanges",
      "type": "event"
    },
    {
      "anonymous": false,
      "inputs": [
        {
          "indexed": false,
          "internalType": "address",
          "name": "contract_",
          "type": "address"
        },
        {
          "indexed": false,
          "internalType": "uint256[]",
          "name": "tokenIds",
          "type": "uint256[]"
        },
        {
          "indexed": false,
          "internalType": "bool[]",
          "name": "approved",
          "type": "bool[]"
        }
      ],
      "name": "UpdateApprovedTokens",
      "type": "event"
    },
    {
      "inputs": [
        {
          "internalType": "address",
          "name": "admin",
          "type": "address"
        }
      ],
      "name": "approveAdmin",
      "outputs": [],
      "stateMutability": "nonpayable",
      "type": "function"
    },
    {
      "inputs": [
        {
          "internalType": "address",
          "name": "from",
          "type": "address"
        },
        {
          "internalType": "address",
          "name": "to",
          "type": "address"
        },
        {
          "internalType": "uint256",
          "name": "tokenId",
          "type": "uint256"
        }
      ],
      "name": "approveTransfer",
      "outputs": [
        {
          "internalType": "bool",
          "name": "",
          "type": "bool"
        }
      ],
      "stateMutability": "nonpayable",
      "type": "function"
    },
    {
      "inputs": [
        {
          "internalType": "address",
          "name": "owner",
          "type": "address"
        }
      ],
      "name": "balanceOf",
      "outputs": [
        {
          "internalType": "uint256",
          "name": "",
          "type": "uint256"
        }
      ],
      "stateMutability": "view",
      "type": "function"
    },
    {
      "inputs": [],
      "name": "creatorContract",
      "outputs": [
        {
          "internalType": "address",
          "name": "",
          "type": "address"
        }
      ],
      "stateMutability": "view",
      "type": "function"
    },
    {
      "inputs": [],
      "name": "getAdmins",
      "outputs": [
        {
          "internalType": "address[]",
          "name": "admins",
          "type": "address[]"
        }
      ],
      "stateMutability": "view",
      "type": "function"
    },
    {
      "inputs": [
        {
          "internalType": "address",
          "name": "admin",
          "type": "address"
        }
      ],
      "name": "isAdmin",
      "outputs": [
        {
          "internalType": "bool",
          "name": "",
          "type": "bool"
        }
      ],
      "stateMutability": "view",
      "type": "function"
    },
    {
      "inputs": [
        {
          "internalType": "uint256",
          "name": "tokenId",
          "type": "uint256"
        }
      ],
      "name": "mintNumber",
      "outputs": [
        {
          "internalType": "uint256",
          "name": "",
          "type": "uint256"
        }
      ],
      "stateMutability": "view",
      "type": "function"
    },
    {
      "inputs": [],
      "name": "mintedTokens",
      "outputs": [
        {
          "internalType": "uint256[]",
          "name": "",
          "type": "uint256[]"
        }
      ],
      "stateMutability": "view",
      "type": "function"
    },
    {
      "inputs": [],
      "name": "owner",
      "outputs": [
        {
          "internalType": "address",
          "name": "",
          "type": "address"
        }
      ],
      "stateMutability": "view",
      "type": "function"
    },
    {
      "inputs": [
        {
          "internalType": "address",
          "name": "contract_",
          "type": "address"
        },
        {
          "internalType": "uint256",
          "name": "tokenId",
          "type": "uint256"
        }
      ],
      "name": "redeemable",
      "outputs": [
        {
          "internalType": "bool",
          "name": "",
          "type": "bool"
        }
      ],
      "stateMutability": "view",
      "type": "function"
    },
    {
      "inputs": [],
      "name": "redemptionMax",
      "outputs": [
        {
          "internalType": "uint16",
          "name": "",
          "type": "uint16"
        }
      ],
      "stateMutability": "view",
      "type": "function"
    },
    {
      "inputs": [],
      "name": "redemptionRate",
      "outputs": [
        {
          "internalType": "uint16",
          "name": "",
          "type": "uint16"
        }
      ],
      "stateMutability": "view",
      "type": "function"
    },
    {
      "inputs": [],
      "name": "redemptionRemaining",
      "outputs": [
        {
          "internalType": "uint16",
          "name": "",
          "type": "uint16"
        }
      ],
      "stateMutability": "view",
      "type": "function"
    },
    {
      "inputs": [],
      "name": "renounceOwnership",
      "outputs": [],
      "stateMutability": "nonpayable",
      "type": "function"
    },
    {
      "inputs": [
        {
          "internalType": "address",
          "name": "admin",
          "type": "address"
        }
      ],
      "name": "revokeAdmin",
      "outputs": [],
      "stateMutability": "nonpayable",
      "type": "function"
    },
    {
      "inputs": [
        {
          "internalType": "address",
          "name": "creator",
          "type": "address"
        },
        {
          "internalType": "bool",
          "name": "enabled",
          "type": "bool"
        }
      ],
      "name": "setApproveTransfer",
      "outputs": [],
      "stateMutability": "nonpayable",
      "type": "function"
    },
    {
      "inputs": [
        {
          "internalType": "bytes4",
          "name": "interfaceId",
          "type": "bytes4"
        }
      ],
      "name": "supportsInterface",
      "outputs": [
        {
          "internalType": "bool",
          "name": "",
          "type": "bool"
        }
      ],
      "stateMutability": "view",
      "type": "function"
    },
    {
      "inputs": [
        {
          "internalType": "address",
          "name": "owner",
          "type": "address"
        },
        {
          "internalType": "uint256",
          "name": "index",
          "type": "uint256"
        }
      ],
      "name": "tokenOfOwnerByIndex",
      "outputs": [
        {
          "internalType": "uint256",
          "name": "",
          "type": "uint256"
        }
      ],
      "stateMutability": "view",
      "type": "function"
    },
    {
      "inputs": [
        {
          "internalType": "address",
          "name": "newOwner",
          "type": "address"
        }
      ],
      "name": "transferOwnership",
      "outputs": [],
      "stateMutability": "nonpayable",
      "type": "function"
    },
    {
      "inputs": [
        {
          "internalType": "address[]",
          "name": "contracts",
          "type": "address[]"
        },
        {
          "internalType": "bool[]",
          "name": "approved",
          "type": "bool[]"
        }
      ],
      "name": "updateApprovedContracts",
      "outputs": [],
      "stateMutability": "nonpayable",
      "type": "function"
    },
    {
      "inputs": [
        {
          "internalType": "address",
          "name": "contract_",
          "type": "address"
        },
        {
          "internalType": "uint256[]",
          "name": "minTokenIds",
          "type": "uint256[]"
        },
        {
          "internalType": "uint256[]",
          "name": "maxTokenIds",
          "type": "uint256[]"
        }
      ],
      "name": "updateApprovedTokenRanges",
      "outputs": [],
      "stateMutability": "nonpayable",
      "type": "function"
    },
    {
      "inputs": [
        {
          "internalType": "address",
          "name": "contract_",
          "type": "address"
        },
        {
          "internalType": "uint256[]",
          "name": "tokenIds",
          "type": "uint256[]"
        },
        {
          "internalType": "bool[]",
          "name": "approved",
          "type": "bool[]"
        }
      ],
      "name": "updateApprovedTokens",
      "outputs": [],
      "stateMutability": "nonpayable",
      "type": "function"
    }
  ],
  "bytecode": "0x60a06040523480156200001157600080fd5b50604051620021d4380380620021d4833981016040819052620000349162000380565b828282826200005681639088c20760e01b6200021460201b620010931760201c565b806200007b57506200007b8163478c853060e01b6200021460201b620010931760201c565b620000db5760405162461bcd60e51b81526020600482015260416024820152600080516020620021948339815191526044820152600080516020620021b48339815191526064820152606560f81b608482015260a4015b60405180910390fd5b600080546001600160a01b0319166001600160a01b0392909216919091178155620001033390565b600180546001600160a01b0319166001600160a01b038316908117909155604051919250906000907f8be0079c531659141344cd1fd0a4f28419497f9722a3daafe3b4186f6b6457e0908290a3506200016f83639088c20760e01b6200021460201b620010931760201c565b80620001945750620001948363478c853060e01b6200021460201b620010931760201c565b620001f05760405162461bcd60e51b81526020600482015260416024820152600080516020620021948339815191526044820152600080516020620021b48339815191526064820152606560f81b608482015260a401620000d2565b61ffff918216608052600a805461ffff191691909216179055506200043392505050565b600062000221836200023e565b801562000235575062000235838362000276565b90505b92915050565b600062000253826301ffc9a760e01b62000276565b80156200023857506200026f826001600160e01b031962000276565b1592915050565b604080516001600160e01b0319831660248083019190915282518083039091018152604490910182526020810180516001600160e01b03166301ffc9a760e01b179052905160009190829081906001600160a01b0387169061753090620002df908690620003d7565b6000604051808303818686fa925050503d80600081146200031d576040519150601f19603f3d011682016040523d82523d6000602084013e62000322565b606091505b50915091506020815110156200033f576000935050505062000238565b8180156200035e5750808060200190518101906200035e919062000408565b9695505050505050565b805161ffff811681146200037b57600080fd5b919050565b6000806000606084860312156200039657600080fd5b83516001600160a01b0381168114620003ae57600080fd5b9250620003be6020850162000368565b9150620003ce6040850162000368565b90509250925092565b6000825160005b81811015620003fa5760208186018101518583015201620003de565b506000920191825250919050565b6000602082840312156200041b57600080fd5b815180151581146200042c57600080fd5b9392505050565b608051611d456200044f60003960006102480152611d456000f3fe608060405234801561001057600080fd5b50600436106101425760003560e01c806367627b62116100b85780638d75fe051161007c5780638d75fe05146102d65780638da5cb5b146102eb578063ac4cc148146102fc578063ac52e64414610308578063f2fde38b1461031b578063f79f20b51461032e57600080fd5b806367627b621461026c5780636d73e6691461027f57806370a0823114610292578063715018a6146102bb57806382580805146102c357600080fd5b80632d3456701161010a5780632d345670146101c55780632f745c59146101d857806331ae450b146101f95780633dae35ce1461020e57806348efee0a14610233578063540385a31461024657600080fd5b806301ffc9a71461014757806304c9fdb01461016f5780631b95a2271461018a57806324d7806c1461019f5780632af8a413146101b2575b600080fd5b61015a610155366004611616565b61034e565b60405190151581526020015b60405180910390f35b61017761036e565b60405161ffff9091168152602001610166565b61019d61019836600461166a565b61038f565b005b61015a6101ad3660046116a1565b6104b0565b61019d6101c0366004611792565b6104e9565b61019d6101d33660046116a1565b6106f2565b6101eb6101e6366004611806565b610772565b604051908152602001610166565b610201610816565b6040516101669190611874565b6000546001600160a01b03165b6040516001600160a01b039091168152602001610166565b61019d6102413660046118eb565b6108c5565b7f0000000000000000000000000000000000000000000000000000000000000000610177565b61015a61027a366004611806565b610ade565b61019d61028d3660046116a1565b610c71565b6101eb6102a03660046116a1565b6001600160a01b031660009081526007602052604090205490565b61019d610ceb565b61015a6102d1366004611955565b610d5f565b6102de610e27565b60405161016691906119c1565b6001546001600160a01b031661021b565b600a5461ffff16610177565b61019d6103163660046119d4565b610e7f565b61019d6103293660046116a1565b610fa8565b6101eb61033c366004611a94565b6000908152600c602052604090205490565b6000610359826110b6565b806103685750610368826110ea565b92915050565b600a5460009061038a9061ffff62010000820481169116611ac3565b905090565b336103a26001546001600160a01b031690565b6001600160a01b031614806103bd57506103bd60023361110f565b6103e25760405162461bcd60e51b81526004016103d990611ade565b60405180910390fd5b6103f382639088c20760e01b611093565b6104515760405162461bcd60e51b815260206004820152602960248201527f63726561746f72206d75737420696d706c656d656e74204945524337323143726044820152686561746f72436f726560b81b60648201526084016103d9565b604051635606467d60e11b815281151560048201526001600160a01b0383169063ac0c8cfa90602401600060405180830381600087803b15801561049457600080fd5b505af11580156104a8573d6000803e3d6000fd5b505050505050565b6000816001600160a01b03166104ce6001546001600160a01b031690565b6001600160a01b03161480610368575061036860028361110f565b336104fc6001546001600160a01b031690565b6001600160a01b03161480610517575061051760023361110f565b6105335760405162461bcd60e51b81526004016103d990611ade565b80518251146105545760405162461bcd60e51b81526004016103d990611b22565b6001600160a01b0383166000908152600660205260408120610575916115df565b60005b82518110156106b15781818151811061059357610593611b57565b60200260200101518382815181106105ad576105ad611b57565b60200260200101511061060c5760405162461bcd60e51b815260206004820152602160248201527f52656465656d3a206d696e206d757374206265206c657373207468616e206d616044820152600f60fb1b60648201526084016103d9565b60066000856001600160a01b03166001600160a01b03168152602001908152602001600020604051806040016040528085848151811061064e5761064e611b57565b6020026020010151815260200184848151811061066d5761066d611b57565b6020908102919091018101519091528254600181810185556000948552938290208351600290920201908155910151910155806106a981611b6d565b915050610578565b507fc834fb6349b577e8519e3cb6df7274bdd4957d7388d8cc9b54467d8af9d6537b8383836040516106e593929190611b86565b60405180910390a1505050565b6001546001600160a01b0316331461071c5760405162461bcd60e51b81526004016103d990611bbc565b61072760028261110f565b1561076f5760405133906001600160a01b038316907f7c0c3c84c67c85fcac635147348bfe374c24a1a93d0366d1cfe9d8853cbf89d590600090a361076d600282611131565b505b50565b6001600160a01b03821660009081526007602052604081205482106107ed5760405162461bcd60e51b815260206004820152602b60248201527f455243373231456e756d657261626c653a206f776e657220696e646578206f7560448201526a74206f6620626f756e647360a81b60648201526084016103d9565b506001600160a01b03919091166000908152600860209081526040808320938352929052205490565b60606108226002611146565b67ffffffffffffffff81111561083a5761083a6116bc565b604051908082528060200260200182016040528015610863578160200160208202803683370190505b50905060005b6108736002611146565b8110156108c157610885600282611150565b82828151811061089757610897611b57565b6001600160a01b0390921660209283029190910190910152806108b981611b6d565b915050610869565b5090565b336108d86001546001600160a01b031690565b6001600160a01b031614806108f357506108f360023361110f565b61090f5760405162461bcd60e51b81526004016103d990611ade565b80518251146109305760405162461bcd60e51b81526004016103d990611b22565b60005b8251811015610aaa5781818151811061094e5761094e611b57565b602002602001015180156109af57506109ad83828151811061097257610972611b57565b602002602001015160056000876001600160a01b03166001600160a01b0316815260200190815260200160002061115c90919063ffffffff16565b155b15610a0a57610a048382815181106109c9576109c9611b57565b602002602001015160056000876001600160a01b03166001600160a01b0316815260200190815260200160002061117490919063ffffffff16565b50610a98565b818181518110610a1c57610a1c611b57565b6020026020010151158015610a415750610a4183828151811061097257610972611b57565b15610a9857610a96838281518110610a5b57610a5b611b57565b602002602001015160056000876001600160a01b03166001600160a01b0316815260200190815260200160002061118090919063ffffffff16565b505b80610aa281611b6d565b915050610933565b507f0ed1ede59c177063e00a17d07584b15a0eb10205d90702aeff646f55bb33aa898383836040516106e593929190611c23565b6001600160a01b03821660009081526004602052604081205460ff1615610b0757506001610368565b6001600160a01b0383166000908152600560205260409020610b29908361115c565b15610b3657506001610368565b6001600160a01b03831660009081526006602052604090205415610c685760005b6001600160a01b038416600090815260066020526040902054811015610c66576001600160a01b0384166000908152600660205260409020805482908110610ba157610ba1611b57565b906000526020600020906002020160010154600014158015610bfe57506001600160a01b0384166000908152600660205260409020805482908110610be857610be8611b57565b9060005260206000209060020201600001548310155b8015610c4557506001600160a01b0384166000908152600660205260409020805482908110610c2f57610c2f611b57565b9060005260206000209060020201600101548311155b15610c54576001915050610368565b80610c5e81611b6d565b915050610b57565b505b50600092915050565b6001546001600160a01b03163314610c9b5760405162461bcd60e51b81526004016103d990611bbc565b610ca660028261110f565b61076f5760405133906001600160a01b038316907f7e1a1a08d52e4ba0e21554733d66165fd5151f99460116223d9e3a608eec5cb190600090a361076d60028261118c565b6001546001600160a01b03163314610d155760405162461bcd60e51b81526004016103d990611bbc565b6001546040516000916001600160a01b0316907f8be0079c531659141344cd1fd0a4f28419497f9722a3daafe3b4186f6b6457e0908390a3600180546001600160a01b0319169055565b600080546001600160a01b03163314610dab5760405162461bcd60e51b815260206004820152600e60248201526d24b73b30b634b21031b0b63632b960911b60448201526064016103d9565b6001600160a01b03841615801590610dd55750826001600160a01b0316846001600160a01b031614155b15610de457610de484836111a1565b6001600160a01b03831615801590610e0e5750836001600160a01b0316836001600160a01b031614155b15610e1d57610e1d8383611271565b5060019392505050565b6060600b805480602002602001604051908101604052809291908181526020018280548015610e7557602002820191906000526020600020905b815481526020019060010190808311610e61575b5050505050905090565b33610e926001546001600160a01b031690565b6001600160a01b03161480610ead5750610ead60023361110f565b610ec95760405162461bcd60e51b81526004016103d990611ade565b8051825114610eea5760405162461bcd60e51b81526004016103d990611b22565b60005b8251811015610f6a57818181518110610f0857610f08611b57565b602002602001015160046000858481518110610f2657610f26611b57565b6020908102919091018101516001600160a01b03168252810191909152604001600020805460ff191691151591909117905580610f6281611b6d565b915050610eed565b507fb987f16cb95c27617d184f54a4a9d80cfa894b91e2d679ed76042493954481488282604051610f9c929190611c59565b60405180910390a15050565b6001546001600160a01b03163314610fd25760405162461bcd60e51b81526004016103d990611bbc565b6001600160a01b0381166110375760405162461bcd60e51b815260206004820152602660248201527f4f776e61626c653a206e6577206f776e657220697320746865207a65726f206160448201526564647265737360d01b60648201526084016103d9565b6001546040516001600160a01b038084169216907f8be0079c531659141344cd1fd0a4f28419497f9722a3daafe3b4186f6b6457e090600090a3600180546001600160a01b0319166001600160a01b0392909216919091179055565b600061109e836112d1565b80156110af57506110af8383611304565b9392505050565b60006001600160e01b0319821663866c67eb60e01b14806110db57506110db826113ed565b80610368575061036882611412565b60006001600160e01b03198216634ce6d51160e11b1480610368575061036882611412565b6001600160a01b038116600090815260018301602052604081205415156110af565b60006110af836001600160a01b038416611437565b6000610368825490565b60006110af8383611531565b600081815260018301602052604081205415156110af565b60006110af838361155b565b60006110af8383611437565b60006110af836001600160a01b03841661155b565b6001600160a01b0382166000908152600760205260408120546111c690600190611c87565b600083815260096020526040902054909150808214611219576001600160a01b03841660009081526008602090815260408083208584528252808320548484528184208190558352600990915290208190555b60008381526009602090815260408083208390556001600160a01b038716808452600883528184208685528352818420849055835260079091528120805460019290611266908490611c87565b909155505050505050565b6001600160a01b03821660008181526007602081815260408084208054600884528286208187528452828620889055878652600984529185208290559484529190528254909260019290916112c7908490611c9a565b9091555050505050565b60006112e4826301ffc9a760e01b611304565b801561036857506112fd826001600160e01b0319611304565b1592915050565b604080516001600160e01b0319831660248083019190915282518083039091018152604490910182526020810180516001600160e01b03166301ffc9a760e01b179052905160009190829081906001600160a01b038716906175309061136b908690611cad565b6000604051808303818686fa925050503d80600081146113a7576040519150601f19603f3d011682016040523d82523d6000602084013e6113ac565b606091505b50915091506020815110156113c75760009350505050610368565b8180156113e35750808060200190518101906113e39190611cdc565b9695505050505050565b60006001600160e01b0319821663a927d73f60e01b14806103685750610368826115aa565b60006001600160e01b03198216637005caad60e01b14806103685750610368826113ed565b6000818152600183016020526040812054801561152057600061145b600183611c87565b855490915060009061146f90600190611c87565b90508181146114d457600086600001828154811061148f5761148f611b57565b90600052602060002001549050808760000184815481106114b2576114b2611b57565b6000918252602080832090910192909255918252600188019052604090208390555b85548690806114e5576114e5611cf9565b600190038181906000526020600020016000905590558560010160008681526020019081526020016000206000905560019350505050610368565b6000915050610368565b5092915050565b600082600001828154811061154857611548611b57565b9060005260206000200154905092915050565b60008181526001830160205260408120546115a257508154600181810184556000848152602080822090930184905584548482528286019093526040902091909155610368565b506000610368565b60006001600160e01b03198216632a9f3abf60e11b148061036857506301ffc9a760e01b6001600160e01b0319831614610368565b508054600082556002029060005260206000209081019061076f91905b808211156108c157600080825560018201556002016115fc565b60006020828403121561162857600080fd5b81356001600160e01b0319811681146110af57600080fd5b80356001600160a01b038116811461165757600080fd5b919050565b801515811461076f57600080fd5b6000806040838503121561167d57600080fd5b61168683611640565b915060208301356116968161165c565b809150509250929050565b6000602082840312156116b357600080fd5b6110af82611640565b634e487b7160e01b600052604160045260246000fd5b604051601f8201601f1916810167ffffffffffffffff811182821017156116fb576116fb6116bc565b604052919050565b600067ffffffffffffffff82111561171d5761171d6116bc565b5060051b60200190565b600082601f83011261173857600080fd5b8135602061174d61174883611703565b6116d2565b82815260059290921b8401810191818101908684111561176c57600080fd5b8286015b848110156117875780358352918301918301611770565b509695505050505050565b6000806000606084860312156117a757600080fd5b6117b084611640565b9250602084013567ffffffffffffffff808211156117cd57600080fd5b6117d987838801611727565b935060408601359150808211156117ef57600080fd5b506117fc86828701611727565b9150509250925092565b6000806040838503121561181957600080fd5b61182283611640565b946020939093013593505050565b600081518084526020808501945080840160005b838110156118695781516001600160a01b031687529582019590820190600101611844565b509495945050505050565b6020815260006110af6020830184611830565b600082601f83011261189857600080fd5b813560206118a861174883611703565b82815260059290921b840181019181810190868411156118c757600080fd5b8286015b848110156117875780356118de8161165c565b83529183019183016118cb565b60008060006060848603121561190057600080fd5b61190984611640565b9250602084013567ffffffffffffffff8082111561192657600080fd5b61193287838801611727565b9350604086013591508082111561194857600080fd5b506117fc86828701611887565b60008060006060848603121561196a57600080fd5b61197384611640565b925061198160208501611640565b9150604084013590509250925092565b600081518084526020808501945080840160005b83811015611869578151875295820195908201906001016119a5565b6020815260006110af6020830184611991565b600080604083850312156119e757600080fd5b823567ffffffffffffffff808211156119ff57600080fd5b818501915085601f830112611a1357600080fd5b81356020611a2361174883611703565b82815260059290921b84018101918181019089841115611a4257600080fd5b948201945b83861015611a6757611a5886611640565b82529482019490820190611a47565b96505086013592505080821115611a7d57600080fd5b50611a8a85828601611887565b9150509250929050565b600060208284031215611aa657600080fd5b5035919050565b634e487b7160e01b600052601160045260246000fd5b61ffff82811682821603908082111561152a5761152a611aad565b60208082526024908201527f41646d696e436f6e74726f6c3a204d757374206265206f776e6572206f7220616040820152633236b4b760e11b606082015260800190565b6020808252818101527f52656465656d3a20496e76616c696420696e70757420706172616d6574657273604082015260600190565b634e487b7160e01b600052603260045260246000fd5b600060018201611b7f57611b7f611aad565b5060010190565b6001600160a01b0384168152606060208201819052600090611baa90830185611991565b82810360408401526113e38185611991565b6020808252818101527f4f776e61626c653a2063616c6c6572206973206e6f7420746865206f776e6572604082015260600190565b600081518084526020808501945080840160005b83811015611869578151151587529582019590820190600101611c05565b6001600160a01b0384168152606060208201819052600090611c4790830185611991565b82810360408401526113e38185611bf1565b604081526000611c6c6040830185611830565b8281036020840152611c7e8185611bf1565b95945050505050565b8181038181111561036857610368611aad565b8082018082111561036857610368611aad565b6000825160005b81811015611cce5760208186018101518583015201611cb4565b506000920191825250919050565b600060208284031215611cee57600080fd5b81516110af8161165c565b634e487b7160e01b600052603160045260246000fdfea26469706673582212205e37ef80f4d41665bcfc6885c2fbc3ff1f7ad24e44517c41acf44986153ba0b964736f6c6343000811003352656465656d3a204d696e74696e672072657761726420636f6e7472616374206d75737420696d706c656d656e74204945524337323143726561746f72436f72",
  "linkReferences": {},
  "deployedLinkReferences": {}
}