{
  "_format": "hh-sol-artifact-1",
  "contractName": "MockERC721OwnerEnumerableSingleCreatorExtension",
  "sourceName": "contracts/manifold/creator-core-extensions/mocks/Mock.sol",
  "abi": [
    {
      "inputs": [
        {
          "internalType": "address",
          "name": "creator",
          "type": "address"
        }
      ],
      "stateMutability": "nonpayable",
      "type": "constructor"
    },
    {
      "anonymous": false,
      "inputs": [
        {
          "indexed": true,
          "internalType": "address",
          "name": "account",
          "type": "address"
        },
        {
          "indexed": true,
          "internalType": "address",
          "name": "sender",
          "type": "address"
        }
      ],
      "name": "AdminApproved",
      "type": "event"
    },
    {
      "anonymous": false,
      "inputs": [
        {
          "indexed": true,
          "internalType": "address",
          "name": "account",
          "type": "address"
        },
        {
          "indexed": true,
          "internalType": "address",
          "name": "sender",
          "type": "address"
        }
      ],
      "name": "AdminRevoked",
      "type": "event"
    },
    {
      "anonymous": false,
      "inputs": [
        {
          "indexed": true,
          "internalType": "address",
          "name": "previousOwner",
          "type": "address"
        },
        {
          "indexed": true,
          "internalType": "address",
          "name": "newOwner",
          "type": "address"
        }
      ],
      "name": "OwnershipTransferred",
      "type": "event"
    },
    {
      "inputs": [
        {
          "internalType": "address",
          "name": "admin",
          "type": "address"
        }
      ],
      "name": "approveAdmin",
      "outputs": [],
      "stateMutability": "nonpayable",
      "type": "function"
    },
    {
      "inputs": [
        {
          "internalType": "address",
          "name": "from",
          "type": "address"
        },
        {
          "internalType": "address",
          "name": "to",
          "type": "address"
        },
        {
          "internalType": "uint256",
          "name": "tokenId",
          "type": "uint256"
        }
      ],
      "name": "approveTransfer",
      "outputs": [
        {
          "internalType": "bool",
          "name": "",
          "type": "bool"
        }
      ],
      "stateMutability": "nonpayable",
      "type": "function"
    },
    {
      "inputs": [
        {
          "internalType": "address",
          "name": "owner",
          "type": "address"
        }
      ],
      "name": "balanceOf",
      "outputs": [
        {
          "internalType": "uint256",
          "name": "",
          "type": "uint256"
        }
      ],
      "stateMutability": "view",
      "type": "function"
    },
    {
      "inputs": [],
      "name": "creatorContract",
      "outputs": [
        {
          "internalType": "address",
          "name": "",
          "type": "address"
        }
      ],
      "stateMutability": "view",
      "type": "function"
    },
    {
      "inputs": [],
      "name": "getAdmins",
      "outputs": [
        {
          "internalType": "address[]",
          "name": "admins",
          "type": "address[]"
        }
      ],
      "stateMutability": "view",
      "type": "function"
    },
    {
      "inputs": [
        {
          "internalType": "address",
          "name": "admin",
          "type": "address"
        }
      ],
      "name": "isAdmin",
      "outputs": [
        {
          "internalType": "bool",
          "name": "",
          "type": "bool"
        }
      ],
      "stateMutability": "view",
      "type": "function"
    },
    {
      "inputs": [],
      "name": "owner",
      "outputs": [
        {
          "internalType": "address",
          "name": "",
          "type": "address"
        }
      ],
      "stateMutability": "view",
      "type": "function"
    },
    {
      "inputs": [],
      "name": "renounceOwnership",
      "outputs": [],
      "stateMutability": "nonpayable",
      "type": "function"
    },
    {
      "inputs": [
        {
          "internalType": "address",
          "name": "admin",
          "type": "address"
        }
      ],
      "name": "revokeAdmin",
      "outputs": [],
      "stateMutability": "nonpayable",
      "type": "function"
    },
    {
      "inputs": [
        {
          "internalType": "address",
          "name": "creator",
          "type": "address"
        },
        {
          "internalType": "bool",
          "name": "enabled",
          "type": "bool"
        }
      ],
      "name": "setApproveTransfer",
      "outputs": [],
      "stateMutability": "nonpayable",
      "type": "function"
    },
    {
      "inputs": [
        {
          "internalType": "bytes4",
          "name": "interfaceId",
          "type": "bytes4"
        }
      ],
      "name": "supportsInterface",
      "outputs": [
        {
          "internalType": "bool",
          "name": "",
          "type": "bool"
        }
      ],
      "stateMutability": "view",
      "type": "function"
    },
    {
      "inputs": [
        {
          "internalType": "address",
          "name": "to",
          "type": "address"
        }
      ],
      "name": "testMint",
      "outputs": [],
      "stateMutability": "nonpayable",
      "type": "function"
    },
    {
      "inputs": [
        {
          "internalType": "address",
          "name": "owner",
          "type": "address"
        },
        {
          "internalType": "uint256",
          "name": "index",
          "type": "uint256"
        }
      ],
      "name": "tokenOfOwnerByIndex",
      "outputs": [
        {
          "internalType": "uint256",
          "name": "",
          "type": "uint256"
        }
      ],
      "stateMutability": "view",
      "type": "function"
    },
    {
      "inputs": [
        {
          "internalType": "address",
          "name": "newOwner",
          "type": "address"
        }
      ],
      "name": "transferOwnership",
      "outputs": [],
      "stateMutability": "nonpayable",
      "type": "function"
    }
  ],
  "bytecode": "0x60806040523480156200001157600080fd5b5060405162001386380380620013868339810160408190526200003491620002bc565b600180546001600160a01b031916339081179091556040518291829181906000907f8be0079c531659141344cd1fd0a4f28419497f9722a3daafe3b4186f6b6457e0908290a3506200009981639088c20760e01b6200016860201b620008dc1760201c565b80620000be5750620000be8163478c853060e01b6200016860201b620008dc1760201c565b6200013f5760405162461bcd60e51b815260206004820152604160248201527f52656465656d3a204d696e74696e672072657761726420636f6e74726163742060448201527f6d75737420696d706c656d656e74204945524337323143726561746f72436f726064820152606560f81b608482015260a40160405180910390fd5b600080546001600160a01b0319166001600160a01b039290921691909117905550620003439050565b6000620001758362000192565b8015620001895750620001898383620001ca565b90505b92915050565b6000620001a7826301ffc9a760e01b620001ca565b80156200018c5750620001c3826001600160e01b0319620001ca565b1592915050565b604080516001600160e01b0319831660248083019190915282518083039091018152604490910182526020810180516001600160e01b03166301ffc9a760e01b179052905160009190829081906001600160a01b038716906175309062000233908690620002ee565b6000604051808303818686fa925050503d806000811462000271576040519150601f19603f3d011682016040523d82523d6000602084013e62000276565b606091505b50915091506020815110156200029357600093505050506200018c565b818015620002b2575080806020019051810190620002b291906200031f565b9695505050505050565b600060208284031215620002cf57600080fd5b81516001600160a01b0381168114620002e757600080fd5b9392505050565b6000825160005b81811015620003115760208186018101518583015201620002f5565b506000920191825250919050565b6000602082840312156200033257600080fd5b81518015158114620002e757600080fd5b61103380620003536000396000f3fe608060405234801561001057600080fd5b50600436106100ea5760003560e01c80636d73e6691161008c578063825808051161006657806382580805146101f15780638da5cb5b14610204578063c70c875a14610215578063f2fde38b1461022857600080fd5b80636d73e669146101ad57806370a08231146101c0578063715018a6146101e957600080fd5b80632d345670116100c85780632d3456701461013f5780632f745c591461015257806331ae450b146101735780633dae35ce1461018857600080fd5b806301ffc9a7146100ef5780631b95a2271461011757806324d7806c1461012c575b600080fd5b6101026100fd366004610d73565b61023b565b60405190151581526020015b60405180910390f35b61012a610125366004610dc7565b610266565b005b61010261013a366004610dfe565b6103bf565b61012a61014d366004610dfe565b6103f8565b610165610160366004610e19565b610478565b60405190815260200161010e565b61017b61051c565b60405161010e9190610e43565b6000546001600160a01b03165b6040516001600160a01b03909116815260200161010e565b61012a6101bb366004610dfe565b6105cb565b6101656101ce366004610dfe565b6001600160a01b031660009081526004602052604090205490565b61012a610645565b6101026101ff366004610e90565b6106b9565b6001546001600160a01b0316610195565b61012a610223366004610dfe565b610781565b61012a610236366004610dfe565b6107f1565b60006001600160e01b03198216634ce6d51160e11b14806102605750610260826108ff565b92915050565b336102796001546001600160a01b031690565b6001600160a01b031614806102945750610294600233610924565b6102f15760405162461bcd60e51b8152602060048201526024808201527f41646d696e436f6e74726f6c3a204d757374206265206f776e6572206f7220616044820152633236b4b760e11b60648201526084015b60405180910390fd5b61030282639088c20760e01b6108dc565b6103605760405162461bcd60e51b815260206004820152602960248201527f63726561746f72206d75737420696d706c656d656e74204945524337323143726044820152686561746f72436f726560b81b60648201526084016102e8565b604051635606467d60e11b815281151560048201526001600160a01b0383169063ac0c8cfa90602401600060405180830381600087803b1580156103a357600080fd5b505af11580156103b7573d6000803e3d6000fd5b505050505050565b6000816001600160a01b03166103dd6001546001600160a01b031690565b6001600160a01b031614806102605750610260600283610924565b6001546001600160a01b031633146104225760405162461bcd60e51b81526004016102e890610ecc565b61042d600282610924565b156104755760405133906001600160a01b038316907f7c0c3c84c67c85fcac635147348bfe374c24a1a93d0366d1cfe9d8853cbf89d590600090a3610473600282610946565b505b50565b6001600160a01b03821660009081526004602052604081205482106104f35760405162461bcd60e51b815260206004820152602b60248201527f455243373231456e756d657261626c653a206f776e657220696e646578206f7560448201526a74206f6620626f756e647360a81b60648201526084016102e8565b506001600160a01b03919091166000908152600560209081526040808320938352929052205490565b6060610528600261095b565b67ffffffffffffffff81111561054057610540610f01565b604051908082528060200260200182016040528015610569578160200160208202803683370190505b50905060005b610579600261095b565b8110156105c75761058b600282610965565b82828151811061059d5761059d610f17565b6001600160a01b0390921660209283029190910190910152806105bf81610f43565b91505061056f565b5090565b6001546001600160a01b031633146105f55760405162461bcd60e51b81526004016102e890610ecc565b610600600282610924565b6104755760405133906001600160a01b038316907f7e1a1a08d52e4ba0e21554733d66165fd5151f99460116223d9e3a608eec5cb190600090a3610473600282610971565b6001546001600160a01b0316331461066f5760405162461bcd60e51b81526004016102e890610ecc565b6001546040516000916001600160a01b0316907f8be0079c531659141344cd1fd0a4f28419497f9722a3daafe3b4186f6b6457e0908390a3600180546001600160a01b0319169055565b600080546001600160a01b031633146107055760405162461bcd60e51b815260206004820152600e60248201526d24b73b30b634b21031b0b63632b960911b60448201526064016102e8565b6001600160a01b0384161580159061072f5750826001600160a01b0316846001600160a01b031614155b1561073e5761073e8483610986565b6001600160a01b038316158015906107685750836001600160a01b0316836001600160a01b031614155b15610777576107778383610a56565b5060019392505050565b600054604051630525194b60e31b81526001600160a01b03838116600483015290911690632928ca58906024016020604051808303816000875af11580156107cd573d6000803e3d6000fd5b505050506040513d601f19601f820116820180604052508101906104739190610f5c565b6001546001600160a01b0316331461081b5760405162461bcd60e51b81526004016102e890610ecc565b6001600160a01b0381166108805760405162461bcd60e51b815260206004820152602660248201527f4f776e61626c653a206e6577206f776e657220697320746865207a65726f206160448201526564647265737360d01b60648201526084016102e8565b6001546040516001600160a01b038084169216907f8be0079c531659141344cd1fd0a4f28419497f9722a3daafe3b4186f6b6457e090600090a3600180546001600160a01b0319166001600160a01b0392909216919091179055565b60006108e783610ab6565b80156108f857506108f88383610ae9565b9392505050565b60006001600160e01b03198216637005caad60e01b1480610260575061026082610bd2565b6001600160a01b038116600090815260018301602052604081205415156108f8565b60006108f8836001600160a01b038416610c07565b6000610260825490565b60006108f88383610cfa565b60006108f8836001600160a01b038416610d24565b6001600160a01b0382166000908152600460205260408120546109ab90600190610f75565b6000838152600660205260409020549091508082146109fe576001600160a01b03841660009081526005602090815260408083208584528252808320548484528184208190558352600690915290208190555b60008381526006602090815260408083208390556001600160a01b038716808452600583528184208685528352818420849055835260049091528120805460019290610a4b908490610f75565b909155505050505050565b6001600160a01b0382166000818152600460208181526040808420805460058452828620818752845282862088905587865260068452918520829055948452919052825490926001929091610aac908490610f88565b9091555050505050565b6000610ac9826301ffc9a760e01b610ae9565b80156102605750610ae2826001600160e01b0319610ae9565b1592915050565b604080516001600160e01b0319831660248083019190915282518083039091018152604490910182526020810180516001600160e01b03166301ffc9a760e01b179052905160009190829081906001600160a01b0387169061753090610b50908690610f9b565b6000604051808303818686fa925050503d8060008114610b8c576040519150601f19603f3d011682016040523d82523d6000602084013e610b91565b606091505b5091509150602081511015610bac5760009350505050610260565b818015610bc8575080806020019051810190610bc89190610fca565b9695505050505050565b60006001600160e01b03198216632a9f3abf60e11b148061026057506301ffc9a760e01b6001600160e01b0319831614610260565b60008181526001830160205260408120548015610cf0576000610c2b600183610f75565b8554909150600090610c3f90600190610f75565b9050818114610ca4576000866000018281548110610c5f57610c5f610f17565b9060005260206000200154905080876000018481548110610c8257610c82610f17565b6000918252602080832090910192909255918252600188019052604090208390555b8554869080610cb557610cb5610fe7565b600190038181906000526020600020016000905590558560010160008681526020019081526020016000206000905560019350505050610260565b6000915050610260565b6000826000018281548110610d1157610d11610f17565b9060005260206000200154905092915050565b6000818152600183016020526040812054610d6b57508154600181810184556000848152602080822090930184905584548482528286019093526040902091909155610260565b506000610260565b600060208284031215610d8557600080fd5b81356001600160e01b0319811681146108f857600080fd5b80356001600160a01b0381168114610db457600080fd5b919050565b801515811461047557600080fd5b60008060408385031215610dda57600080fd5b610de383610d9d565b91506020830135610df381610db9565b809150509250929050565b600060208284031215610e1057600080fd5b6108f882610d9d565b60008060408385031215610e2c57600080fd5b610e3583610d9d565b946020939093013593505050565b6020808252825182820181905260009190848201906040850190845b81811015610e845783516001600160a01b031683529284019291840191600101610e5f565b50909695505050505050565b600080600060608486031215610ea557600080fd5b610eae84610d9d565b9250610ebc60208501610d9d565b9150604084013590509250925092565b6020808252818101527f4f776e61626c653a2063616c6c6572206973206e6f7420746865206f776e6572604082015260600190565b634e487b7160e01b600052604160045260246000fd5b634e487b7160e01b600052603260045260246000fd5b634e487b7160e01b600052601160045260246000fd5b600060018201610f5557610f55610f2d565b5060010190565b600060208284031215610f6e57600080fd5b5051919050565b8181038181111561026057610260610f2d565b8082018082111561026057610260610f2d565b6000825160005b81811015610fbc5760208186018101518583015201610fa2565b506000920191825250919050565b600060208284031215610fdc57600080fd5b81516108f881610db9565b634e487b7160e01b600052603160045260246000fdfea2646970667358221220f41ba897be80c27ad4587136b902e554c5d051c9746bef3f338d5358a3b999c764736f6c63430008110033",
  "linkReferences": {},
  "deployedLinkReferences": {}
}