{
  "_format": "hh-sol-artifact-1",
  "contractName": "ERC20PresetFixedSupplyUpgradeable",
  "sourceName": "contracts/openzeppelin-upgradeable/token/ERC20/presets/ERC20PresetFixedSupplyUpgradeable.sol",
  "abi": [
    {
      "anonymous": false,
      "inputs": [
        {
          "indexed": true,
          "internalType": "address",
          "name": "owner",
          "type": "address"
        },
        {
          "indexed": true,
          "internalType": "address",
          "name": "spender",
          "type": "address"
        },
        {
          "indexed": false,
          "internalType": "uint256",
          "name": "value",
          "type": "uint256"
        }
      ],
      "name": "Approval",
      "type": "event"
    },
    {
      "anonymous": false,
      "inputs": [
        {
          "indexed": true,
          "internalType": "address",
          "name": "from",
          "type": "address"
        },
        {
          "indexed": true,
          "internalType": "address",
          "name": "to",
          "type": "address"
        },
        {
          "indexed": false,
          "internalType": "uint256",
          "name": "value",
          "type": "uint256"
        }
      ],
      "name": "Transfer",
      "type": "event"
    },
    {
      "inputs": [
        {
          "internalType": "address",
          "name": "owner",
          "type": "address"
        },
        {
          "internalType": "address",
          "name": "spender",
          "type": "address"
        }
      ],
      "name": "allowance",
      "outputs": [
        {
          "internalType": "uint256",
          "name": "",
          "type": "uint256"
        }
      ],
      "stateMutability": "view",
      "type": "function"
    },
    {
      "inputs": [
        {
          "internalType": "address",
          "name": "spender",
          "type": "address"
        },
        {
          "internalType": "uint256",
          "name": "amount",
          "type": "uint256"
        }
      ],
      "name": "approve",
      "outputs": [
        {
          "internalType": "bool",
          "name": "",
          "type": "bool"
        }
      ],
      "stateMutability": "nonpayable",
      "type": "function"
    },
    {
      "inputs": [
        {
          "internalType": "address",
          "name": "account",
          "type": "address"
        }
      ],
      "name": "balanceOf",
      "outputs": [
        {
          "internalType": "uint256",
          "name": "",
          "type": "uint256"
        }
      ],
      "stateMutability": "view",
      "type": "function"
    },
    {
      "inputs": [
        {
          "internalType": "uint256",
          "name": "amount",
          "type": "uint256"
        }
      ],
      "name": "burn",
      "outputs": [],
      "stateMutability": "nonpayable",
      "type": "function"
    },
    {
      "inputs": [
        {
          "internalType": "address",
          "name": "account",
          "type": "address"
        },
        {
          "internalType": "uint256",
          "name": "amount",
          "type": "uint256"
        }
      ],
      "name": "burnFrom",
      "outputs": [],
      "stateMutability": "nonpayable",
      "type": "function"
    },
    {
      "inputs": [],
      "name": "decimals",
      "outputs": [
        {
          "internalType": "uint8",
          "name": "",
          "type": "uint8"
        }
      ],
      "stateMutability": "view",
      "type": "function"
    },
    {
      "inputs": [
        {
          "internalType": "address",
          "name": "spender",
          "type": "address"
        },
        {
          "internalType": "uint256",
          "name": "subtractedValue",
          "type": "uint256"
        }
      ],
      "name": "decreaseAllowance",
      "outputs": [
        {
          "internalType": "bool",
          "name": "",
          "type": "bool"
        }
      ],
      "stateMutability": "nonpayable",
      "type": "function"
    },
    {
      "inputs": [
        {
          "internalType": "address",
          "name": "spender",
          "type": "address"
        },
        {
          "internalType": "uint256",
          "name": "addedValue",
          "type": "uint256"
        }
      ],
      "name": "increaseAllowance",
      "outputs": [
        {
          "internalType": "bool",
          "name": "",
          "type": "bool"
        }
      ],
      "stateMutability": "nonpayable",
      "type": "function"
    },
    {
      "inputs": [
        {
          "internalType": "string",
          "name": "name",
          "type": "string"
        },
        {
          "internalType": "string",
          "name": "symbol",
          "type": "string"
        },
        {
          "internalType": "uint256",
          "name": "initialSupply",
          "type": "uint256"
        },
        {
          "internalType": "address",
          "name": "owner",
          "type": "address"
        }
      ],
      "name": "initialize",
      "outputs": [],
      "stateMutability": "nonpayable",
      "type": "function"
    },
    {
      "inputs": [],
      "name": "name",
      "outputs": [
        {
          "internalType": "string",
          "name": "",
          "type": "string"
        }
      ],
      "stateMutability": "view",
      "type": "function"
    },
    {
      "inputs": [],
      "name": "symbol",
      "outputs": [
        {
          "internalType": "string",
          "name": "",
          "type": "string"
        }
      ],
      "stateMutability": "view",
      "type": "function"
    },
    {
      "inputs": [],
      "name": "totalSupply",
      "outputs": [
        {
          "internalType": "uint256",
          "name": "",
          "type": "uint256"
        }
      ],
      "stateMutability": "view",
      "type": "function"
    },
    {
      "inputs": [
        {
          "internalType": "address",
          "name": "recipient",
          "type": "address"
        },
        {
          "internalType": "uint256",
          "name": "amount",
          "type": "uint256"
        }
      ],
      "name": "transfer",
      "outputs": [
        {
          "internalType": "bool",
          "name": "",
          "type": "bool"
        }
      ],
      "stateMutability": "nonpayable",
      "type": "function"
    },
    {
      "inputs": [
        {
          "internalType": "address",
          "name": "sender",
          "type": "address"
        },
        {
          "internalType": "address",
          "name": "recipient",
          "type": "address"
        },
        {
          "internalType": "uint256",
          "name": "amount",
          "type": "uint256"
        }
      ],
      "name": "transferFrom",
      "outputs": [
        {
          "internalType": "bool",
          "name": "",
          "type": "bool"
        }
      ],
      "stateMutability": "nonpayable",
      "type": "function"
    }
  ],
  "bytecode": "0x608060405234801561001057600080fd5b506110ec806100206000396000f3fe608060405234801561001057600080fd5b50600436106100ea5760003560e01c806370a082311161008c578063a457c2d711610066578063a457c2d7146101d0578063a9059cbb146101e3578063bd3a13f6146101f6578063dd62ed3e1461020957600080fd5b806370a082311461018c57806379cc6790146101b557806395d89b41146101c857600080fd5b806323b872dd116100c857806323b872dd14610142578063313ce56714610155578063395093511461016457806342966c681461017757600080fd5b806306fdde03146100ef578063095ea7b31461010d57806318160ddd14610130575b600080fd5b6100f7610242565b6040516101049190610c85565b60405180910390f35b61012061011b366004610cef565b6102d4565b6040519015158152602001610104565b6035545b604051908152602001610104565b610120610150366004610d19565b6102eb565b60405160128152602001610104565b610120610172366004610cef565b61039a565b61018a610185366004610d55565b6103d6565b005b61013461019a366004610d6e565b6001600160a01b031660009081526033602052604090205490565b61018a6101c3366004610cef565b6103e3565b6100f7610469565b6101206101de366004610cef565b610478565b6101206101f1366004610cef565b610511565b61018a610204366004610e33565b61051e565b610134610217366004610eb1565b6001600160a01b03918216600090815260346020908152604080832093909416825291909152205490565b60606036805461025190610ee4565b80601f016020809104026020016040519081016040528092919081815260200182805461027d90610ee4565b80156102ca5780601f1061029f576101008083540402835291602001916102ca565b820191906000526020600020905b8154815290600101906020018083116102ad57829003601f168201915b5050505050905090565b60006102e133848461059a565b5060015b92915050565b60006102f88484846106be565b6001600160a01b0384166000908152603460209081526040808320338452909152902054828110156103825760405162461bcd60e51b815260206004820152602860248201527f45524332303a207472616e7366657220616d6f756e74206578636565647320616044820152676c6c6f77616e636560c01b60648201526084015b60405180910390fd5b61038f853385840361059a565b506001949350505050565b3360008181526034602090815260408083206001600160a01b038716845290915281205490916102e19185906103d1908690610f34565b61059a565b6103e0338261088d565b50565b60006103ef8333610217565b90508181101561044d5760405162461bcd60e51b8152602060048201526024808201527f45524332303a206275726e20616d6f756e74206578636565647320616c6c6f77604482015263616e636560e01b6064820152608401610379565b61045a833384840361059a565b610464838361088d565b505050565b60606037805461025190610ee4565b3360009081526034602090815260408083206001600160a01b0386168452909152812054828110156104fa5760405162461bcd60e51b815260206004820152602560248201527f45524332303a2064656372656173656420616c6c6f77616e63652062656c6f77604482015264207a65726f60d81b6064820152608401610379565b610507338585840361059a565b5060019392505050565b60006102e13384846106be565b600054610100900460ff1680610537575060005460ff16155b6105535760405162461bcd60e51b815260040161037990610f47565b600054610100900460ff16158015610575576000805461ffff19166101011790555b610581858585856109db565b8015610593576000805461ff00191690555b5050505050565b6001600160a01b0383166105fc5760405162461bcd60e51b8152602060048201526024808201527f45524332303a20617070726f76652066726f6d20746865207a65726f206164646044820152637265737360e01b6064820152608401610379565b6001600160a01b03821661065d5760405162461bcd60e51b815260206004820152602260248201527f45524332303a20617070726f766520746f20746865207a65726f206164647265604482015261737360f01b6064820152608401610379565b6001600160a01b0383811660008181526034602090815260408083209487168084529482529182902085905590518481527f8c5be1e5ebec7d5bd14f71427d1e84f3dd0314c0f7b2291e5b200ac8c7c3b925910160405180910390a3505050565b6001600160a01b0383166107225760405162461bcd60e51b815260206004820152602560248201527f45524332303a207472616e736665722066726f6d20746865207a65726f206164604482015264647265737360d81b6064820152608401610379565b6001600160a01b0382166107845760405162461bcd60e51b815260206004820152602360248201527f45524332303a207472616e7366657220746f20746865207a65726f206164647260448201526265737360e81b6064820152608401610379565b6001600160a01b038316600090815260336020526040902054818110156107fc5760405162461bcd60e51b815260206004820152602660248201527f45524332303a207472616e7366657220616d6f756e7420657863656564732062604482015265616c616e636560d01b6064820152608401610379565b6001600160a01b03808516600090815260336020526040808220858503905591851681529081208054849290610833908490610f34565b92505081905550826001600160a01b0316846001600160a01b03167fddf252ad1be2c89b69c2b068fc378daa952ba7f163c4a11628f55a4df523b3ef8460405161087f91815260200190565b60405180910390a350505050565b6001600160a01b0382166108ed5760405162461bcd60e51b815260206004820152602160248201527f45524332303a206275726e2066726f6d20746865207a65726f206164647265736044820152607360f81b6064820152608401610379565b6001600160a01b038216600090815260336020526040902054818110156109615760405162461bcd60e51b815260206004820152602260248201527f45524332303a206275726e20616d6f756e7420657863656564732062616c616e604482015261636560f01b6064820152608401610379565b6001600160a01b0383166000908152603360205260408120838303905560358054849290610990908490610f95565b90915550506040518281526000906001600160a01b038516907fddf252ad1be2c89b69c2b068fc378daa952ba7f163c4a11628f55a4df523b3ef9060200160405180910390a3505050565b600054610100900460ff16806109f4575060005460ff16155b610a105760405162461bcd60e51b815260040161037990610f47565b600054610100900460ff16158015610a32576000805461ffff19166101011790555b610a3a610a58565b610a448585610ac3565b610a4c610a58565b61058185858585610b4a565b600054610100900460ff1680610a71575060005460ff16155b610a8d5760405162461bcd60e51b815260040161037990610f47565b600054610100900460ff16158015610aaf576000805461ffff19166101011790555b80156103e0576000805461ff001916905550565b600054610100900460ff1680610adc575060005460ff16155b610af85760405162461bcd60e51b815260040161037990610f47565b600054610100900460ff16158015610b1a576000805461ffff19166101011790555b6036610b268482610ff6565b506037610b338382610ff6565b508015610464576000805461ff0019169055505050565b600054610100900460ff1680610b63575060005460ff16155b610b7f5760405162461bcd60e51b815260040161037990610f47565b600054610100900460ff16158015610ba1576000805461ffff19166101011790555b61058182846001600160a01b038216610bfc5760405162461bcd60e51b815260206004820152601f60248201527f45524332303a206d696e7420746f20746865207a65726f2061646472657373006044820152606401610379565b8060356000828254610c0e9190610f34565b90915550506001600160a01b03821660009081526033602052604081208054839290610c3b908490610f34565b90915550506040518181526001600160a01b038316906000907fddf252ad1be2c89b69c2b068fc378daa952ba7f163c4a11628f55a4df523b3ef9060200160405180910390a35050565b600060208083528351808285015260005b81811015610cb257858101830151858201604001528201610c96565b506000604082860101526040601f19601f8301168501019250505092915050565b80356001600160a01b0381168114610cea57600080fd5b919050565b60008060408385031215610d0257600080fd5b610d0b83610cd3565b946020939093013593505050565b600080600060608486031215610d2e57600080fd5b610d3784610cd3565b9250610d4560208501610cd3565b9150604084013590509250925092565b600060208284031215610d6757600080fd5b5035919050565b600060208284031215610d8057600080fd5b610d8982610cd3565b9392505050565b634e487b7160e01b600052604160045260246000fd5b600082601f830112610db757600080fd5b813567ffffffffffffffff80821115610dd257610dd2610d90565b604051601f8301601f19908116603f01168101908282118183101715610dfa57610dfa610d90565b81604052838152866020858801011115610e1357600080fd5b836020870160208301376000602085830101528094505050505092915050565b60008060008060808587031215610e4957600080fd5b843567ffffffffffffffff80821115610e6157600080fd5b610e6d88838901610da6565b95506020870135915080821115610e8357600080fd5b50610e9087828801610da6565b93505060408501359150610ea660608601610cd3565b905092959194509250565b60008060408385031215610ec457600080fd5b610ecd83610cd3565b9150610edb60208401610cd3565b90509250929050565b600181811c90821680610ef857607f821691505b602082108103610f1857634e487b7160e01b600052602260045260246000fd5b50919050565b634e487b7160e01b600052601160045260246000fd5b808201808211156102e5576102e5610f1e565b6020808252602e908201527f496e697469616c697a61626c653a20636f6e747261637420697320616c72656160408201526d191e481a5b9a5d1a585b1a5e995960921b606082015260800190565b818103818111156102e5576102e5610f1e565b601f82111561046457600081815260208120601f850160051c81016020861015610fcf5750805b601f850160051c820191505b81811015610fee57828155600101610fdb565b505050505050565b815167ffffffffffffffff81111561101057611010610d90565b6110248161101e8454610ee4565b84610fa8565b602080601f83116001811461105957600084156110415750858301515b600019600386901b1c1916600185901b178555610fee565b600085815260208120601f198616915b8281101561108857888601518255948401946001909101908401611069565b50858210156110a65787850151600019600388901b60f8161c191681555b5050505050600190811b0190555056fea2646970667358221220c5e56540f13abdac51b5acee82da57c8f2dea11a9f0c3fd34cd5283d7194155064736f6c63430008110033",
  "linkReferences": {},
  "deployedLinkReferences": {}
}