{
  "_format": "hh-sol-artifact-1",
  "contractName": "GnosisSafe",
  "sourceName": "contracts/gnosis/GnosisSafe.sol",
  "abi": [
    {
      "inputs": [],
      "stateMutability": "nonpayable",
      "type": "constructor"
    },
    {
      "anonymous": false,
      "inputs": [
        {
          "indexed": false,
          "internalType": "address",
          "name": "owner",
          "type": "address"
        }
      ],
      "name": "AddedOwner",
      "type": "event"
    },
    {
      "anonymous": false,
      "inputs": [
        {
          "indexed": true,
          "internalType": "bytes32",
          "name": "approvedHash",
          "type": "bytes32"
        },
        {
          "indexed": true,
          "internalType": "address",
          "name": "owner",
          "type": "address"
        }
      ],
      "name": "ApproveHash",
      "type": "event"
    },
    {
      "anonymous": false,
      "inputs": [
        {
          "indexed": false,
          "internalType": "uint256",
          "name": "threshold",
          "type": "uint256"
        }
      ],
      "name": "ChangedThreshold",
      "type": "event"
    },
    {
      "anonymous": false,
      "inputs": [
        {
          "indexed": false,
          "internalType": "address",
          "name": "module",
          "type": "address"
        }
      ],
      "name": "DisabledModule",
      "type": "event"
    },
    {
      "anonymous": false,
      "inputs": [
        {
          "indexed": false,
          "internalType": "address",
          "name": "module",
          "type": "address"
        }
      ],
      "name": "EnabledModule",
      "type": "event"
    },
    {
      "anonymous": false,
      "inputs": [
        {
          "indexed": false,
          "internalType": "bytes32",
          "name": "txHash",
          "type": "bytes32"
        },
        {
          "indexed": false,
          "internalType": "uint256",
          "name": "payment",
          "type": "uint256"
        }
      ],
      "name": "ExecutionFailure",
      "type": "event"
    },
    {
      "anonymous": false,
      "inputs": [
        {
          "indexed": true,
          "internalType": "address",
          "name": "module",
          "type": "address"
        }
      ],
      "name": "ExecutionFromModuleFailure",
      "type": "event"
    },
    {
      "anonymous": false,
      "inputs": [
        {
          "indexed": true,
          "internalType": "address",
          "name": "module",
          "type": "address"
        }
      ],
      "name": "ExecutionFromModuleSuccess",
      "type": "event"
    },
    {
      "anonymous": false,
      "inputs": [
        {
          "indexed": false,
          "internalType": "bytes32",
          "name": "txHash",
          "type": "bytes32"
        },
        {
          "indexed": false,
          "internalType": "uint256",
          "name": "payment",
          "type": "uint256"
        }
      ],
      "name": "ExecutionSuccess",
      "type": "event"
    },
    {
      "anonymous": false,
      "inputs": [
        {
          "indexed": false,
          "internalType": "address",
          "name": "owner",
          "type": "address"
        }
      ],
      "name": "RemovedOwner",
      "type": "event"
    },
    {
      "anonymous": false,
      "inputs": [
        {
          "indexed": true,
          "internalType": "address",
          "name": "sender",
          "type": "address"
        },
        {
          "indexed": false,
          "internalType": "uint256",
          "name": "value",
          "type": "uint256"
        }
      ],
      "name": "SafeReceived",
      "type": "event"
    },
    {
      "anonymous": false,
      "inputs": [
        {
          "indexed": true,
          "internalType": "address",
          "name": "initiator",
          "type": "address"
        },
        {
          "indexed": false,
          "internalType": "address[]",
          "name": "owners",
          "type": "address[]"
        },
        {
          "indexed": false,
          "internalType": "uint256",
          "name": "threshold",
          "type": "uint256"
        },
        {
          "indexed": false,
          "internalType": "address",
          "name": "initializer",
          "type": "address"
        },
        {
          "indexed": false,
          "internalType": "address",
          "name": "fallbackHandler",
          "type": "address"
        }
      ],
      "name": "SafeSetup",
      "type": "event"
    },
    {
      "anonymous": false,
      "inputs": [
        {
          "indexed": true,
          "internalType": "bytes32",
          "name": "msgHash",
          "type": "bytes32"
        }
      ],
      "name": "SignMsg",
      "type": "event"
    },
    {
      "stateMutability": "nonpayable",
      "type": "fallback"
    },
    {
      "inputs": [],
      "name": "VERSION",
      "outputs": [
        {
          "internalType": "string",
          "name": "",
          "type": "string"
        }
      ],
      "stateMutability": "view",
      "type": "function"
    },
    {
      "inputs": [
        {
          "internalType": "address",
          "name": "owner",
          "type": "address"
        },
        {
          "internalType": "uint256",
          "name": "_threshold",
          "type": "uint256"
        }
      ],
      "name": "addOwnerWithThreshold",
      "outputs": [],
      "stateMutability": "nonpayable",
      "type": "function"
    },
    {
      "inputs": [
        {
          "internalType": "bytes32",
          "name": "hashToApprove",
          "type": "bytes32"
        }
      ],
      "name": "approveHash",
      "outputs": [],
      "stateMutability": "nonpayable",
      "type": "function"
    },
    {
      "inputs": [
        {
          "internalType": "address",
          "name": "",
          "type": "address"
        },
        {
          "internalType": "bytes32",
          "name": "",
          "type": "bytes32"
        }
      ],
      "name": "approvedHashes",
      "outputs": [
        {
          "internalType": "uint256",
          "name": "",
          "type": "uint256"
        }
      ],
      "stateMutability": "view",
      "type": "function"
    },
    {
      "inputs": [
        {
          "internalType": "uint256",
          "name": "_threshold",
          "type": "uint256"
        }
      ],
      "name": "changeThreshold",
      "outputs": [],
      "stateMutability": "nonpayable",
      "type": "function"
    },
    {
      "inputs": [
        {
          "internalType": "bytes32",
          "name": "dataHash",
          "type": "bytes32"
        },
        {
          "internalType": "bytes",
          "name": "data",
          "type": "bytes"
        },
        {
          "internalType": "bytes",
          "name": "signatures",
          "type": "bytes"
        }
      ],
      "name": "checkSignatures",
      "outputs": [],
      "stateMutability": "view",
      "type": "function"
    },
    {
      "inputs": [
        {
          "internalType": "address",
          "name": "prevModule",
          "type": "address"
        },
        {
          "internalType": "address",
          "name": "module",
          "type": "address"
        }
      ],
      "name": "disableModule",
      "outputs": [],
      "stateMutability": "nonpayable",
      "type": "function"
    },
    {
      "inputs": [],
      "name": "domainSeparator",
      "outputs": [
        {
          "internalType": "bytes32",
          "name": "",
          "type": "bytes32"
        }
      ],
      "stateMutability": "view",
      "type": "function"
    },
    {
      "inputs": [
        {
          "internalType": "address",
          "name": "module",
          "type": "address"
        }
      ],
      "name": "enableModule",
      "outputs": [],
      "stateMutability": "nonpayable",
      "type": "function"
    },
    {
      "inputs": [
        {
          "internalType": "address",
          "name": "to",
          "type": "address"
        },
        {
          "internalType": "uint256",
          "name": "value",
          "type": "uint256"
        },
        {
          "internalType": "bytes",
          "name": "data",
          "type": "bytes"
        },
        {
          "internalType": "enum Enum.Operation",
          "name": "operation",
          "type": "uint8"
        },
        {
          "internalType": "uint256",
          "name": "safeTxGas",
          "type": "uint256"
        },
        {
          "internalType": "uint256",
          "name": "baseGas",
          "type": "uint256"
        },
        {
          "internalType": "uint256",
          "name": "gasPrice",
          "type": "uint256"
        },
        {
          "internalType": "address",
          "name": "gasToken",
          "type": "address"
        },
        {
          "internalType": "address",
          "name": "refundReceiver",
          "type": "address"
        },
        {
          "internalType": "uint256",
          "name": "_nonce",
          "type": "uint256"
        }
      ],
      "name": "encodeTransactionData",
      "outputs": [
        {
          "internalType": "bytes",
          "name": "",
          "type": "bytes"
        }
      ],
      "stateMutability": "view",
      "type": "function"
    },
    {
      "inputs": [
        {
          "internalType": "address",
          "name": "to",
          "type": "address"
        },
        {
          "internalType": "uint256",
          "name": "value",
          "type": "uint256"
        },
        {
          "internalType": "bytes",
          "name": "data",
          "type": "bytes"
        },
        {
          "internalType": "enum Enum.Operation",
          "name": "operation",
          "type": "uint8"
        },
        {
          "internalType": "uint256",
          "name": "safeTxGas",
          "type": "uint256"
        },
        {
          "internalType": "uint256",
          "name": "baseGas",
          "type": "uint256"
        },
        {
          "internalType": "uint256",
          "name": "gasPrice",
          "type": "uint256"
        },
        {
          "internalType": "address",
          "name": "gasToken",
          "type": "address"
        },
        {
          "internalType": "address payable",
          "name": "refundReceiver",
          "type": "address"
        },
        {
          "internalType": "bytes",
          "name": "signatures",
          "type": "bytes"
        }
      ],
      "name": "execTransaction",
      "outputs": [
        {
          "internalType": "bool",
          "name": "success",
          "type": "bool"
        }
      ],
      "stateMutability": "payable",
      "type": "function"
    },
    {
      "inputs": [
        {
          "internalType": "address",
          "name": "to",
          "type": "address"
        },
        {
          "internalType": "uint256",
          "name": "value",
          "type": "uint256"
        },
        {
          "internalType": "bytes",
          "name": "data",
          "type": "bytes"
        },
        {
          "internalType": "enum Enum.Operation",
          "name": "operation",
          "type": "uint8"
        }
      ],
      "name": "execTransactionFromModule",
      "outputs": [
        {
          "internalType": "bool",
          "name": "success",
          "type": "bool"
        }
      ],
      "stateMutability": "nonpayable",
      "type": "function"
    },
    {
      "inputs": [
        {
          "internalType": "address",
          "name": "to",
          "type": "address"
        },
        {
          "internalType": "uint256",
          "name": "value",
          "type": "uint256"
        },
        {
          "internalType": "bytes",
          "name": "data",
          "type": "bytes"
        },
        {
          "internalType": "enum Enum.Operation",
          "name": "operation",
          "type": "uint8"
        }
      ],
      "name": "execTransactionFromModuleReturnData",
      "outputs": [
        {
          "internalType": "bool",
          "name": "success",
          "type": "bool"
        },
        {
          "internalType": "bytes",
          "name": "returnData",
          "type": "bytes"
        }
      ],
      "stateMutability": "nonpayable",
      "type": "function"
    },
    {
      "inputs": [],
      "name": "getChainId",
      "outputs": [
        {
          "internalType": "uint256",
          "name": "",
          "type": "uint256"
        }
      ],
      "stateMutability": "view",
      "type": "function"
    },
    {
      "inputs": [
        {
          "internalType": "bytes",
          "name": "message",
          "type": "bytes"
        }
      ],
      "name": "getMessageHash",
      "outputs": [
        {
          "internalType": "bytes32",
          "name": "",
          "type": "bytes32"
        }
      ],
      "stateMutability": "view",
      "type": "function"
    },
    {
      "inputs": [
        {
          "internalType": "address",
          "name": "start",
          "type": "address"
        },
        {
          "internalType": "uint256",
          "name": "pageSize",
          "type": "uint256"
        }
      ],
      "name": "getModulesPaginated",
      "outputs": [
        {
          "internalType": "address[]",
          "name": "array",
          "type": "address[]"
        },
        {
          "internalType": "address",
          "name": "next",
          "type": "address"
        }
      ],
      "stateMutability": "view",
      "type": "function"
    },
    {
      "inputs": [],
      "name": "getOwners",
      "outputs": [
        {
          "internalType": "address[]",
          "name": "",
          "type": "address[]"
        }
      ],
      "stateMutability": "view",
      "type": "function"
    },
    {
      "inputs": [
        {
          "internalType": "uint256",
          "name": "offset",
          "type": "uint256"
        },
        {
          "internalType": "uint256",
          "name": "length",
          "type": "uint256"
        }
      ],
      "name": "getStorageAt",
      "outputs": [
        {
          "internalType": "bytes",
          "name": "",
          "type": "bytes"
        }
      ],
      "stateMutability": "view",
      "type": "function"
    },
    {
      "inputs": [],
      "name": "getThreshold",
      "outputs": [
        {
          "internalType": "uint256",
          "name": "",
          "type": "uint256"
        }
      ],
      "stateMutability": "view",
      "type": "function"
    },
    {
      "inputs": [
        {
          "internalType": "address",
          "name": "to",
          "type": "address"
        },
        {
          "internalType": "uint256",
          "name": "value",
          "type": "uint256"
        },
        {
          "internalType": "bytes",
          "name": "data",
          "type": "bytes"
        },
        {
          "internalType": "enum Enum.Operation",
          "name": "operation",
          "type": "uint8"
        },
        {
          "internalType": "uint256",
          "name": "safeTxGas",
          "type": "uint256"
        },
        {
          "internalType": "uint256",
          "name": "baseGas",
          "type": "uint256"
        },
        {
          "internalType": "uint256",
          "name": "gasPrice",
          "type": "uint256"
        },
        {
          "internalType": "address",
          "name": "gasToken",
          "type": "address"
        },
        {
          "internalType": "address",
          "name": "refundReceiver",
          "type": "address"
        },
        {
          "internalType": "uint256",
          "name": "_nonce",
          "type": "uint256"
        }
      ],
      "name": "getTransactionHash",
      "outputs": [
        {
          "internalType": "bytes32",
          "name": "",
          "type": "bytes32"
        }
      ],
      "stateMutability": "view",
      "type": "function"
    },
    {
      "inputs": [
        {
          "internalType": "address",
          "name": "module",
          "type": "address"
        }
      ],
      "name": "isModuleEnabled",
      "outputs": [
        {
          "internalType": "bool",
          "name": "",
          "type": "bool"
        }
      ],
      "stateMutability": "view",
      "type": "function"
    },
    {
      "inputs": [
        {
          "internalType": "address",
          "name": "owner",
          "type": "address"
        }
      ],
      "name": "isOwner",
      "outputs": [
        {
          "internalType": "bool",
          "name": "",
          "type": "bool"
        }
      ],
      "stateMutability": "view",
      "type": "function"
    },
    {
      "inputs": [],
      "name": "nonce",
      "outputs": [
        {
          "internalType": "uint256",
          "name": "",
          "type": "uint256"
        }
      ],
      "stateMutability": "view",
      "type": "function"
    },
    {
      "inputs": [
        {
          "internalType": "address",
          "name": "prevOwner",
          "type": "address"
        },
        {
          "internalType": "address",
          "name": "owner",
          "type": "address"
        },
        {
          "internalType": "uint256",
          "name": "_threshold",
          "type": "uint256"
        }
      ],
      "name": "removeOwner",
      "outputs": [],
      "stateMutability": "nonpayable",
      "type": "function"
    },
    {
      "inputs": [
        {
          "internalType": "address",
          "name": "to",
          "type": "address"
        },
        {
          "internalType": "uint256",
          "name": "value",
          "type": "uint256"
        },
        {
          "internalType": "bytes",
          "name": "data",
          "type": "bytes"
        },
        {
          "internalType": "enum Enum.Operation",
          "name": "operation",
          "type": "uint8"
        }
      ],
      "name": "requiredTxGas",
      "outputs": [
        {
          "internalType": "uint256",
          "name": "",
          "type": "uint256"
        }
      ],
      "stateMutability": "nonpayable",
      "type": "function"
    },
    {
      "inputs": [
        {
          "internalType": "address",
          "name": "handler",
          "type": "address"
        }
      ],
      "name": "setFallbackHandler",
      "outputs": [],
      "stateMutability": "nonpayable",
      "type": "function"
    },
    {
      "inputs": [
        {
          "internalType": "address",
          "name": "guard",
          "type": "address"
        }
      ],
      "name": "setGuard",
      "outputs": [],
      "stateMutability": "nonpayable",
      "type": "function"
    },
    {
      "inputs": [
        {
          "internalType": "address[]",
          "name": "_owners",
          "type": "address[]"
        },
        {
          "internalType": "uint256",
          "name": "_threshold",
          "type": "uint256"
        },
        {
          "internalType": "address",
          "name": "to",
          "type": "address"
        },
        {
          "internalType": "bytes",
          "name": "data",
          "type": "bytes"
        },
        {
          "internalType": "address",
          "name": "fallbackHandler",
          "type": "address"
        },
        {
          "internalType": "address",
          "name": "paymentToken",
          "type": "address"
        },
        {
          "internalType": "uint256",
          "name": "payment",
          "type": "uint256"
        },
        {
          "internalType": "address payable",
          "name": "paymentReceiver",
          "type": "address"
        }
      ],
      "name": "setup",
      "outputs": [],
      "stateMutability": "nonpayable",
      "type": "function"
    },
    {
      "inputs": [
        {
          "internalType": "bytes",
          "name": "_data",
          "type": "bytes"
        }
      ],
      "name": "signMessage",
      "outputs": [],
      "stateMutability": "nonpayable",
      "type": "function"
    },
    {
      "inputs": [
        {
          "internalType": "bytes32",
          "name": "",
          "type": "bytes32"
        }
      ],
      "name": "signedMessages",
      "outputs": [
        {
          "internalType": "uint256",
          "name": "",
          "type": "uint256"
        }
      ],
      "stateMutability": "view",
      "type": "function"
    },
    {
      "inputs": [
        {
          "internalType": "address",
          "name": "targetContract",
          "type": "address"
        },
        {
          "internalType": "bytes",
          "name": "calldataPayload",
          "type": "bytes"
        }
      ],
      "name": "simulate",
      "outputs": [
        {
          "internalType": "bytes",
          "name": "",
          "type": "bytes"
        }
      ],
      "stateMutability": "nonpayable",
      "type": "function"
    },
    {
      "inputs": [
        {
          "internalType": "address",
          "name": "prevOwner",
          "type": "address"
        },
        {
          "internalType": "address",
          "name": "oldOwner",
          "type": "address"
        },
        {
          "internalType": "address",
          "name": "newOwner",
          "type": "address"
        }
      ],
      "name": "swapOwner",
      "outputs": [],
      "stateMutability": "nonpayable",
      "type": "function"
    },
    {
      "stateMutability": "payable",
      "type": "receive"
    }
  ],
  "bytecode": "0x608060405234801561001057600080fd5b50600160045561313c806100256000396000f3fe6080604052600436106101e75760003560e01c8063affed0e011610102578063e19a9dd911610095578063f08a032311610064578063f08a03231461064f578063f698da251461066f578063f8dc5dd914610684578063ffa1ad74146106a457610223565b8063e19a9dd9146105da578063e318b52b146105fa578063e75235b81461061a578063e86637db1461062f57610223565b8063cc2f8452116100d1578063cc2f84521461054c578063d4d9bdcd1461057a578063d8d11f781461059a578063e009cfde146105ba57610223565b8063affed0e0146104d6578063b63e800d146104ec578063bd61951d1461050c578063c4ca3a9c1461052c57610223565b80635ae6bd371161017a5780637d832974116101495780637d8329741461043c57806385a5affe14610474578063934f3a1114610494578063a0e67e2b146104b457610223565b80635ae6bd37146103bc578063610b5925146103e9578063694e80c3146104095780636a7612021461042957610223565b80633408e470116101b65780633408e4701461032e578063468721a7146103415780635229073f146103615780635624b25b1461038f57610223565b80630a1028c4146102895780630d582f13146102bc5780632d9ad53d146102de5780632f54bf6e1461030e57610223565b366102235760405134815233907f3d0ce9bfc3ed7d6862dbb28b2dea94561fe714a1b4d019aa8af39730d1ad7c3d9060200160405180910390a2005b34801561022f57600080fd5b507f6c9a6c4a39284e37ed1cf53d337577d14212a4870fb976a4366c693b939918d580548061025a57005b36600080373360601b365260008060143601600080855af190503d6000803e80610283573d6000fd5b503d6000f35b34801561029557600080fd5b506102a96102a4366004612618565b6106d5565b6040519081526020015b60405180910390f35b3480156102c857600080fd5b506102dc6102d7366004612671565b610794565b005b3480156102ea57600080fd5b506102fe6102f936600461269d565b6108f4565b60405190151581526020016102b3565b34801561031a57600080fd5b506102fe61032936600461269d565b61092f565b34801561033a57600080fd5b50466102a9565b34801561034d57600080fd5b506102fe61035c3660046126c9565b610967565b34801561036d57600080fd5b5061038161037c3660046126c9565b610a3e565b6040516102b3929190612782565b34801561039b57600080fd5b506103af6103aa36600461279d565b610a74565b6040516102b391906127bf565b3480156103c857600080fd5b506102a96103d73660046127d2565b60076020526000908152604090205481565b3480156103f557600080fd5b506102dc61040436600461269d565b610af9565b34801561041557600080fd5b506102dc6104243660046127d2565b610c3b565b6102fe610437366004612833565b610cd3565b34801561044857600080fd5b506102a9610457366004612671565b600860209081526000928352604080842090915290825290205481565b34801561048057600080fd5b506102dc61048f36600461290b565b610faa565b3480156104a057600080fd5b506102dc6104af36600461294c565b611035565b3480156104c057600080fd5b506104c96114d8565b6040516102b391906129fc565b3480156104e257600080fd5b506102a960055481565b3480156104f857600080fd5b506102dc610507366004612a0f565b6115c8565b34801561051857600080fd5b506103af610527366004612b03565b6116e9565b34801561053857600080fd5b506102a9610547366004612b57565b61177b565b34801561055857600080fd5b5061056c610567366004612671565b611815565b6040516102b3929190612bc7565b34801561058657600080fd5b506102dc6105953660046127d2565b61190e565b3480156105a657600080fd5b506102a96105b5366004612bf1565b6119a3565b3480156105c657600080fd5b506102dc6105d5366004612cb1565b6119d0565b3480156105e657600080fd5b506102dc6105f536600461269d565b611afe565b34801561060657600080fd5b506102dc610615366004612cea565b611b2a565b34801561062657600080fd5b506004546102a9565b34801561063b57600080fd5b506103af61064a366004612bf1565b611d19565b34801561065b57600080fd5b506102dc61066a36600461269d565b611df2565b34801561067b57600080fd5b506102a9611e25565b34801561069057600080fd5b506102dc61069f366004612d35565b611e7c565b3480156106b057600080fd5b506103af604051806040016040528060058152602001640312e332e360dc1b81525081565b6000807f60b3cbf8b4a223d68d641b3b6ddf9a298e7f33710cf3d3a9d1146b5a6150fbca60001b838051906020012060405160200161071e929190918252602082015260400190565b60408051601f1981840301815291905280516020909101209050601960f81b600160f81b61074a611e25565b6040516001600160f81b0319938416602082015292909116602183015260228201526042810182905260620160405160208183030381529060405280519060200120915050919050565b61079c611fef565b6001600160a01b038216158015906107be57506001600160a01b038216600114155b80156107d357506001600160a01b0382163014155b6107f85760405162461bcd60e51b81526004016107ef90612d76565b60405180910390fd5b6001600160a01b0382811660009081526002602052604090205416156108305760405162461bcd60e51b81526004016107ef90612d95565b60026020527fe90b7bceb6e7df5418fb78d8ee546e97c83a08bbccc01a0644d599ccd2a7c2e080546001600160a01b038481166000818152604081208054939094166001600160a01b03199384161790935560018352835490911617909155600380549161089d83612dca565b90915550506040516001600160a01b03831681527f9465fa0c962cc76958e6373a993326400c1c94f8be2fe3a952adfa7f60b2ea269060200160405180910390a180600454146108f0576108f081610c3b565b5050565b600060016001600160a01b0383161480159061092957506001600160a01b038281166000908152600160205260409020541615155b92915050565b60006001600160a01b0382166001148015906109295750506001600160a01b0390811660009081526002602052604090205416151590565b6000336001148015906109915750336000908152600160205260409020546001600160a01b031615155b6109c55760405162461bcd60e51b815260206004820152600560248201526411d4cc4c0d60da1b60448201526064016107ef565b6109d2858585855a612028565b90508015610a0a5760405133907f6895c13664aa4f67288b25d7a21d7aaa34916e355fb9b6fae0a139a9085becb890600090a2610a36565b60405133907facd2c8702804128fdb0db2bb49f6d127dd0181c13fd45dbfe16de0930e2bd37590600090a25b949350505050565b60006060610a4e86868686610967565b915060405160203d0181016040523d81523d6000602083013e8091505094509492505050565b60606000610a83836020612de3565b6001600160401b03811115610a9a57610a9a612576565b6040519080825280601f01601f191660200182016040528015610ac4576020820181803683370190505b50905060005b83811015610af1578481015460208083028401015280610ae981612dca565b915050610aca565b509392505050565b610b01611fef565b6001600160a01b03811615801590610b2357506001600160a01b038116600114155b610b575760405162461bcd60e51b8152602060048201526005602482015264475331303160d81b60448201526064016107ef565b6001600160a01b038181166000908152600160205260409020541615610ba75760405162461bcd60e51b815260206004820152600560248201526423a998981960d91b60448201526064016107ef565b600160208181527fcc69885fda6bcc1a4ace058b4a62bf5e179ea78fd58a1ccd71c22cc9b688792f80546001600160a01b03858116600081815260408082208054949095166001600160a01b031994851617909455959095528254168417909155519182527fecdf3a3effea5783a3c4c2140e677577666428d44ed9d474a0b3a4c9943f844091015b60405180910390a150565b610c43611fef565b600354811115610c655760405162461bcd60e51b81526004016107ef90612dfa565b6001811015610c9e5760405162461bcd60e51b815260206004820152600560248201526423a999181960d91b60448201526064016107ef565b60048190556040518181527f610f7ff2b304ae8903c3de74c60c6ab1f7d6226b3f52c5161905bb5ad4039c9390602001610c30565b6000806000610ced8e8e8e8e8e8e8e8e8e8e600554611d19565b600580549192506000610cff83612dca565b9091555050805160208201209150610d18828286611035565b506000610d437f4a204f620c8c5ccdca3fd54d003badd85ba500436a431f0cbda4f558c93c34c85490565b90506001600160a01b03811615610dc957806001600160a01b03166375f0bb528f8f8f8f8f8f8f8f8f8f8f336040518d63ffffffff1660e01b8152600401610d969c9b9a99989796959493929190612e51565b600060405180830381600087803b158015610db057600080fd5b505af1158015610dc4573d6000803e3d6000fd5b505050505b50610df6610dd9896109c4612f16565b603f610de68b6040612de3565b610df09190612f29565b9061206f565b610e02906101f4612f16565b5a1015610e395760405162461bcd60e51b8152602060048201526005602482015264047533031360dc1b60448201526064016107ef565b60005a9050610eaa8e8e8e8e8080601f016020809104026020016040519081016040528093929190818152602001838380828437600081840152601f19601f820116905080830192505050505050508d8b600014610e97578d612028565b6109c45a610ea59190612f4b565b612028565b9250610eb75a8290612088565b90508280610ec457508815155b80610ece57508615155b610f025760405162461bcd60e51b8152602060048201526005602482015264475330313360d81b60448201526064016107ef565b60008715610f1a57610f17828a8a8a8a6120a3565b90505b8315610f5e5760408051848152602081018390527f442e715f626346e8c54381002da614f62bee8d27386535b2521ec8540898556e910160405180910390a1610f98565b60408051848152602081018390527f23428b18acfb3ea64b08dc0c1d296ea9c09702c09083ca5272e64d115b687d23910160405180910390a15b5050509b9a5050505050505050505050565b610fb2611fef565b6000610ff383838080601f0160208091040260200160405190810160405280939291908181526020018383808284376000920191909152506106d592505050565b600081815260076020526040808220600190555191925082917fe7f4675038f4f6034dfcbbb24c4dc08e4ebf10eb9d257d3d02c0f38d122ac6e49190a2505050565b6004548061106d5760405162461bcd60e51b8152602060048201526005602482015264475330303160d81b60448201526064016107ef565b6110788160416121a9565b825110156110b05760405162461bcd60e51b8152602060048201526005602482015264047533032360dc1b60448201526064016107ef565b6000808060008060005b868110156114cc576041818102890160208101516040820151919092015160ff1695509093509150600084900361128b5791935083916110fb8760416121a9565b8210156111325760405162461bcd60e51b8152602060048201526005602482015264475330323160d81b60448201526064016107ef565b875161113f8360206121de565b11156111755760405162461bcd60e51b815260206004820152600560248201526423a998191960d91b60448201526064016107ef565b6020828901810151895190916111989083906111929087906121de565b906121de565b11156111ce5760405162461bcd60e51b8152602060048201526005602482015264475330323360d81b60448201526064016107ef565b6040516320c13b0b60e01b8082528a8501602001916001600160a01b038916906320c13b0b90611204908f908690600401612f5e565b602060405180830381865afa158015611221573d6000803e3d6000fd5b505050506040513d601f19601f820116820180604052508101906112459190612f83565b6001600160e01b031916146112845760405162461bcd60e51b815260206004820152600560248201526411d4cc0c8d60da1b60448201526064016107ef565b5050611432565b8360ff1660010361130d579193508391336001600160a01b03841614806112d457506001600160a01b03851660009081526008602090815260408083208d845290915290205415155b6113085760405162461bcd60e51b8152602060048201526005602482015264475330323560d81b60448201526064016107ef565b611432565b601e8460ff1611156113d2576040517f19457468657265756d205369676e6564204d6573736167653a0a3332000000006020820152603c81018b9052600190605c01604051602081830303815290604052805190602001206004866113729190612fad565b6040805160008152602081018083529390935260ff90911690820152606081018590526080810184905260a0016020604051602081039080840390855afa1580156113c1573d6000803e3d6000fd5b505050602060405103519450611432565b6040805160008152602081018083528c905260ff861691810191909152606081018490526080810183905260019060a0016020604051602081039080840390855afa158015611425573d6000803e3d6000fd5b5050506020604051035194505b856001600160a01b0316856001600160a01b031611801561146c57506001600160a01b038581166000908152600260205260409020541615155b801561148257506001600160a01b038516600114155b6114b65760405162461bcd60e51b815260206004820152600560248201526423a998191b60d91b60448201526064016107ef565b84955080806114c490612dca565b9150506110ba565b50505050505050505050565b606060006003546001600160401b038111156114f6576114f6612576565b60405190808252806020026020018201604052801561151f578160200160208202803683370190505b506001600090815260026020527fe90b7bceb6e7df5418fb78d8ee546e97c83a08bbccc01a0644d599ccd2a7c2e054919250906001600160a01b03165b6001600160a01b0381166001146115c0578083838151811061158057611580612fc6565b6001600160a01b039283166020918202929092018101919091529181166000908152600290925260409091205416816115b881612dca565b92505061155c565b509092915050565b6116068a8a808060200260200160405190810160405280939291908181526020018383602002808284376000920191909152508c92506121fa915050565b6001600160a01b0384161561163d5761163d847f6c9a6c4a39284e37ed1cf53d337577d14212a4870fb976a4366c693b939918d555565b61167d8787878080601f0160208091040260200160405190810160405280939291908181526020018383808284376000920191909152506123e092505050565b811561169457611692826000600186856120a3565b505b336001600160a01b03167f141df868a6331af528e38c83b7aa03edc19be66e37ae67f9285bf4f8e3c6a1a88b8b8b8b896040516116d5959493929190612fdc565b60405180910390a250505050505050505050565b6060600080856001600160a01b03168585604051611708929190613048565b600060405180830381855af49150503d8060008114611743576040519150601f19603f3d011682016040523d82523d6000602084013e611748565b606091505b509150915060008183604051602001611762929190613058565b6040516020818303038152906040529050805160208201fd5b6000805a90506117c4878787878080601f01602080910402602001604051908101604052809392919081815260200183838082843760009201919091525089925050505a612028565b6117cd57600080fd5b60005a6117da9083612f4b565b9050806040516020016117ef91815260200190565b60408051601f198184030181529082905262461bcd60e51b82526107ef916004016127bf565b60606000826001600160401b0381111561183157611831612576565b60405190808252806020026020018201604052801561185a578160200160208202803683370190505b506001600160a01b0380861660009081526001602052604081205492945091165b6001600160a01b0381161580159061189d57506001600160a01b038116600114155b80156118a857508482105b1561190057808483815181106118c0576118c0612fc6565b6001600160a01b039283166020918202929092018101919091529181166000908152600190925260409091205416816118f881612dca565b92505061187b565b908352919491935090915050565b336000908152600260205260409020546001600160a01b031661195b5760405162461bcd60e51b8152602060048201526005602482015264047533033360dc1b60448201526064016107ef565b336000818152600860209081526040808320858452909152808220600190555183917ff2a0eb156472d1440255b0d7c1e19cc07115d1051fe605b0dce69acfec884d9c91a350565b60006119b88c8c8c8c8c8c8c8c8c8c8c611d19565b8051906020012090509b9a5050505050505050505050565b6119d8611fef565b6001600160a01b038116158015906119fa57506001600160a01b038116600114155b611a2e5760405162461bcd60e51b8152602060048201526005602482015264475331303160d81b60448201526064016107ef565b6001600160a01b03828116600090815260016020526040902054811690821614611a825760405162461bcd60e51b8152602060048201526005602482015264475331303360d81b60448201526064016107ef565b6001600160a01b038181166000818152600160209081526040808320805488871685528285208054919097166001600160a01b03199182161790965592849052825490941690915591519081527faab4fa2b463f581b2b32cb3b7e3b704b9ce37cc209b5fb4d77e593ace4054276910160405180910390a15050565b611b06611fef565b7f4a204f620c8c5ccdca3fd54d003badd85ba500436a431f0cbda4f558c93c34c855565b611b32611fef565b6001600160a01b03811615801590611b5457506001600160a01b038116600114155b8015611b6957506001600160a01b0381163014155b611b855760405162461bcd60e51b81526004016107ef90612d76565b6001600160a01b038181166000908152600260205260409020541615611bbd5760405162461bcd60e51b81526004016107ef90612d95565b6001600160a01b03821615801590611bdf57506001600160a01b038216600114155b611bfb5760405162461bcd60e51b81526004016107ef90612d76565b6001600160a01b03838116600090815260026020526040902054811690831614611c4f5760405162461bcd60e51b8152602060048201526005602482015264475332303560d81b60448201526064016107ef565b6001600160a01b038281166000818152600260209081526040808320805487871680865283862080549289166001600160a01b0319938416179055968a1685528285208054821690971790965592849052825490941690915591519081527ff8d49fc529812e9a7c5c50e69c20f0dccc0db8fa95c98bc58cc9a4f1c1299eaf910160405180910390a16040516001600160a01b03821681527f9465fa0c962cc76958e6373a993326400c1c94f8be2fe3a952adfa7f60b2ea269060200160405180910390a1505050565b606060007fbb8310d486368db6bd6f849402fdd73ad53d316b5a4b2644ad6efe0f941286d860001b8d8d8d8d604051611d53929190613048565b604051908190038120611d79949392918e908e908e908e908e908e908e90602001613080565b60408051601f1981840301815291905280516020909101209050601960f81b600160f81b611da5611e25565b6040516001600160f81b031993841660208201529290911660218301526022820152604281018290526062016040516020818303038152906040529150509b9a5050505050505050505050565b611dfa611fef565b611e22817f6c9a6c4a39284e37ed1cf53d337577d14212a4870fb976a4366c693b939918d555565b50565b60007f47e79534a245952e8b16893a336b85a3d9ea9fa8c573f3d803afb92a794692184660408051602081019390935282015230606082015260800160405160208183030381529060405280519060200120905090565b611e84611fef565b806001600354611e949190612f4b565b1015611eb25760405162461bcd60e51b81526004016107ef90612dfa565b6001600160a01b03821615801590611ed457506001600160a01b038216600114155b611ef05760405162461bcd60e51b81526004016107ef90612d76565b6001600160a01b03838116600090815260026020526040902054811690831614611f445760405162461bcd60e51b8152602060048201526005602482015264475332303560d81b60448201526064016107ef565b6001600160a01b03828116600081815260026020526040808220805488861684529183208054929095166001600160a01b03199283161790945591815282549091169091556003805491611f97836130ef565b90915550506040516001600160a01b03831681527ff8d49fc529812e9a7c5c50e69c20f0dccc0db8fa95c98bc58cc9a4f1c1299eaf9060200160405180910390a18060045414611fea57611fea81610c3b565b505050565b3330146120265760405162461bcd60e51b8152602060048201526005602482015264475330333160d81b60448201526064016107ef565b565b6000600183600181111561203e5761203e612e19565b03612056576000808551602087018986f49050612066565b600080855160208701888a87f190505b95945050505050565b60008183101561207f5781612081565b825b9392505050565b60008282111561209757600080fd5b6000610a368385612f4b565b6000806001600160a01b038316156120bb57826120bd565b325b90506001600160a01b038416612150576120ef3a86106120dd573a6120df565b855b6120e989896121de565b906121a9565b6040519092506001600160a01b0382169083156108fc029084906000818181858888f1935050505061214b5760405162461bcd60e51b8152602060048201526005602482015264475330313160d81b60448201526064016107ef565b61219f565b61215e856120e989896121de565b915061216b8482846124da565b61219f5760405162461bcd60e51b815260206004820152600560248201526423a998189960d91b60448201526064016107ef565b5095945050505050565b6000826000036121bb57506000610929565b60006121c78385612de3565b9050826121d48583612f29565b1461208157600080fd5b6000806121eb8385612f16565b90508381101561208157600080fd5b600454156122325760405162461bcd60e51b8152602060048201526005602482015264047533230360dc1b60448201526064016107ef565b81518111156122535760405162461bcd60e51b81526004016107ef90612dfa565b600181101561228c5760405162461bcd60e51b815260206004820152600560248201526423a999181960d91b60448201526064016107ef565b600160005b83518110156123ad5760008482815181106122ae576122ae612fc6565b6020026020010151905060006001600160a01b0316816001600160a01b0316141580156122e557506001600160a01b038116600114155b80156122fa57506001600160a01b0381163014155b80156123185750806001600160a01b0316836001600160a01b031614155b6123345760405162461bcd60e51b81526004016107ef90612d76565b6001600160a01b03818116600090815260026020526040902054161561236c5760405162461bcd60e51b81526004016107ef90612d95565b6001600160a01b03928316600090815260026020526040902080546001600160a01b03191693821693909317909255806123a581612dca565b915050612291565b506001600160a01b0316600090815260026020526040902080546001600160a01b03191660011790559051600355600455565b600160008190526020527fcc69885fda6bcc1a4ace058b4a62bf5e179ea78fd58a1ccd71c22cc9b688792f546001600160a01b03161561244a5760405162461bcd60e51b8152602060048201526005602482015264047533130360dc1b60448201526064016107ef565b6001600081905260208190527fcc69885fda6bcc1a4ace058b4a62bf5e179ea78fd58a1ccd71c22cc9b688792f80546001600160a01b03191690911790556001600160a01b038216156108f0576124a68260008360015a612028565b6108f05760405162461bcd60e51b8152602060048201526005602482015264047533030360dc1b60448201526064016107ef565b604080516001600160a01b038416602482015260448082018490528251808303909101815260649091019091526020810180516001600160e01b031663a9059cbb60e01b1781528151600092918391829182896127105a03f16040513d81016040523d6000823e3d80156125595760208114612561576000945061256b565b82945061256b565b8151158315171594505b505050509392505050565b634e487b7160e01b600052604160045260246000fd5b600082601f83011261259d57600080fd5b81356001600160401b03808211156125b7576125b7612576565b604051601f8301601f19908116603f011681019082821181831017156125df576125df612576565b816040528381528660208588010111156125f857600080fd5b836020870160208301376000602085830101528094505050505092915050565b60006020828403121561262a57600080fd5b81356001600160401b0381111561264057600080fd5b610a368482850161258c565b6001600160a01b0381168114611e2257600080fd5b803561266c8161264c565b919050565b6000806040838503121561268457600080fd5b823561268f8161264c565b946020939093013593505050565b6000602082840312156126af57600080fd5b81356120818161264c565b80356002811061266c57600080fd5b600080600080608085870312156126df57600080fd5b84356126ea8161264c565b93506020850135925060408501356001600160401b0381111561270c57600080fd5b6127188782880161258c565b925050612727606086016126ba565b905092959194509250565b60005b8381101561274d578181015183820152602001612735565b50506000910152565b6000815180845261276e816020860160208601612732565b601f01601f19169290920160200192915050565b8215158152604060208201526000610a366040830184612756565b600080604083850312156127b057600080fd5b50508035926020909101359150565b6020815260006120816020830184612756565b6000602082840312156127e457600080fd5b5035919050565b60008083601f8401126127fd57600080fd5b5081356001600160401b0381111561281457600080fd5b60208301915083602082850101111561282c57600080fd5b9250929050565b60008060008060008060008060008060006101408c8e03121561285557600080fd5b61285e8c612661565b9a5060208c013599506001600160401b038060408e0135111561288057600080fd5b6128908e60408f01358f016127eb565b909a5098506128a160608e016126ba565b975060808d0135965060a08d0135955060c08d013594506128c460e08e01612661565b93506128d36101008e01612661565b9250806101208e013511156128e757600080fd5b506128f98d6101208e01358e0161258c565b90509295989b509295989b9093969950565b6000806020838503121561291e57600080fd5b82356001600160401b0381111561293457600080fd5b612940858286016127eb565b90969095509350505050565b60008060006060848603121561296157600080fd5b8335925060208401356001600160401b038082111561297f57600080fd5b61298b8783880161258c565b935060408601359150808211156129a157600080fd5b506129ae8682870161258c565b9150509250925092565b600081518084526020808501945080840160005b838110156129f15781516001600160a01b0316875295820195908201906001016129cc565b509495945050505050565b60208152600061208160208301846129b8565b6000806000806000806000806000806101008b8d031215612a2f57600080fd5b8a356001600160401b0380821115612a4657600080fd5b818d0191508d601f830112612a5a57600080fd5b813581811115612a6957600080fd5b8e60208260051b8501011115612a7e57600080fd5b60208381019d50909b508d01359950612a9960408e01612661565b985060608d0135915080821115612aaf57600080fd5b50612abc8d828e016127eb565b9097509550612acf905060808c01612661565b9350612add60a08c01612661565b925060c08b01359150612af260e08c01612661565b90509295989b9194979a5092959850565b600080600060408486031215612b1857600080fd5b8335612b238161264c565b925060208401356001600160401b03811115612b3e57600080fd5b612b4a868287016127eb565b9497909650939450505050565b600080600080600060808688031215612b6f57600080fd5b8535612b7a8161264c565b94506020860135935060408601356001600160401b03811115612b9c57600080fd5b612ba8888289016127eb565b9094509250612bbb9050606087016126ba565b90509295509295909350565b604081526000612bda60408301856129b8565b905060018060a01b03831660208301529392505050565b60008060008060008060008060008060006101408c8e031215612c1357600080fd5b8b35612c1e8161264c565b9a5060208c0135995060408c01356001600160401b03811115612c4057600080fd5b612c4c8e828f016127eb565b909a509850612c5f905060608d016126ba565b965060808c0135955060a08c0135945060c08c0135935060e08c0135612c848161264c565b92506101008c0135612c958161264c565b809250506101208c013590509295989b509295989b9093969950565b60008060408385031215612cc457600080fd5b8235612ccf8161264c565b91506020830135612cdf8161264c565b809150509250929050565b600080600060608486031215612cff57600080fd5b8335612d0a8161264c565b92506020840135612d1a8161264c565b91506040840135612d2a8161264c565b809150509250925092565b600080600060608486031215612d4a57600080fd5b8335612d558161264c565b92506020840135612d658161264c565b929592945050506040919091013590565b602080825260059082015264475332303360d81b604082015260600190565b60208082526005908201526411d4cc8c0d60da1b604082015260600190565b634e487b7160e01b600052601160045260246000fd5b600060018201612ddc57612ddc612db4565b5060010190565b808202811582820484141761092957610929612db4565b602080825260059082015264475332303160d81b604082015260600190565b634e487b7160e01b600052602160045260246000fd5b60028110612e4d57634e487b7160e01b600052602160045260246000fd5b9052565b6001600160a01b038d168152602081018c90526101606040820181905281018a905260006101808b8d828501376000838d01820152601f8c01601f19168301612e9d606085018d612e2f565b8a60808501528960a08501528860c0850152612ec460e08501896001600160a01b03169052565b6001600160a01b0387166101008501528184820301610120850152612eeb82820187612756565b92505050612f056101408301846001600160a01b03169052565b9d9c50505050505050505050505050565b8082018082111561092957610929612db4565b600082612f4657634e487b7160e01b600052601260045260246000fd5b500490565b8181038181111561092957610929612db4565b604081526000612f716040830185612756565b82810360208401526120668185612756565b600060208284031215612f9557600080fd5b81516001600160e01b03198116811461208157600080fd5b60ff828116828216039081111561092957610929612db4565b634e487b7160e01b600052603260045260246000fd5b6080808252810185905260008660a08301825b8881101561301f5782356130028161264c565b6001600160a01b0316825260209283019290910190600101612fef565b50602084019690965250506001600160a01b039283166040820152911660609091015292915050565b8183823760009101908152919050565b6000835161306a818460208801612732565b92151560f81b9190920190815260010192915050565b8b81526001600160a01b038b81166020830152604082018b9052606082018a90526101608201906130b4608084018b612e2f565b60a083019890985260c082019690965260e0810194909452918516610100840152909316610120820152610140019190915295945050505050565b6000816130fe576130fe612db4565b50600019019056fea26469706673582212201429e47e0768887ad52978660e16d08ce95ea0e87272b849e62734144cbbe54864736f6c63430008110033",
  "linkReferences": {},
  "deployedLinkReferences": {}
}