{
  "_format": "hh-sol-artifact-1",
  "contractName": "ERC1155CreatorImplementation",
  "sourceName": "contracts/manifold/creator-core/ERC1155CreatorImplementation.sol",
  "abi": [
    {
      "anonymous": false,
      "inputs": [
        {
          "indexed": true,
          "internalType": "address",
          "name": "account",
          "type": "address"
        },
        {
          "indexed": true,
          "internalType": "address",
          "name": "sender",
          "type": "address"
        }
      ],
      "name": "AdminApproved",
      "type": "event"
    },
    {
      "anonymous": false,
      "inputs": [
        {
          "indexed": true,
          "internalType": "address",
          "name": "account",
          "type": "address"
        },
        {
          "indexed": true,
          "internalType": "address",
          "name": "sender",
          "type": "address"
        }
      ],
      "name": "AdminRevoked",
      "type": "event"
    },
    {
      "anonymous": false,
      "inputs": [
        {
          "indexed": true,
          "internalType": "address",
          "name": "account",
          "type": "address"
        },
        {
          "indexed": true,
          "internalType": "address",
          "name": "operator",
          "type": "address"
        },
        {
          "indexed": false,
          "internalType": "bool",
          "name": "approved",
          "type": "bool"
        }
      ],
      "name": "ApprovalForAll",
      "type": "event"
    },
    {
      "anonymous": false,
      "inputs": [
        {
          "indexed": false,
          "internalType": "address payable[]",
          "name": "receivers",
          "type": "address[]"
        },
        {
          "indexed": false,
          "internalType": "uint256[]",
          "name": "basisPoints",
          "type": "uint256[]"
        }
      ],
      "name": "DefaultRoyaltiesUpdated",
      "type": "event"
    },
    {
      "anonymous": false,
      "inputs": [
        {
          "indexed": true,
          "internalType": "address",
          "name": "extension",
          "type": "address"
        },
        {
          "indexed": false,
          "internalType": "bool",
          "name": "enabled",
          "type": "bool"
        }
      ],
      "name": "ExtensionApproveTransferUpdated",
      "type": "event"
    },
    {
      "anonymous": false,
      "inputs": [
        {
          "indexed": true,
          "internalType": "address",
          "name": "extension",
          "type": "address"
        },
        {
          "indexed": true,
          "internalType": "address",
          "name": "sender",
          "type": "address"
        }
      ],
      "name": "ExtensionBlacklisted",
      "type": "event"
    },
    {
      "anonymous": false,
      "inputs": [
        {
          "indexed": true,
          "internalType": "address",
          "name": "extension",
          "type": "address"
        },
        {
          "indexed": true,
          "internalType": "address",
          "name": "sender",
          "type": "address"
        }
      ],
      "name": "ExtensionRegistered",
      "type": "event"
    },
    {
      "anonymous": false,
      "inputs": [
        {
          "indexed": true,
          "internalType": "address",
          "name": "extension",
          "type": "address"
        },
        {
          "indexed": false,
          "internalType": "address payable[]",
          "name": "receivers",
          "type": "address[]"
        },
        {
          "indexed": false,
          "internalType": "uint256[]",
          "name": "basisPoints",
          "type": "uint256[]"
        }
      ],
      "name": "ExtensionRoyaltiesUpdated",
      "type": "event"
    },
    {
      "anonymous": false,
      "inputs": [
        {
          "indexed": true,
          "internalType": "address",
          "name": "extension",
          "type": "address"
        },
        {
          "indexed": true,
          "internalType": "address",
          "name": "sender",
          "type": "address"
        }
      ],
      "name": "ExtensionUnregistered",
      "type": "event"
    },
    {
      "anonymous": false,
      "inputs": [
        {
          "indexed": true,
          "internalType": "address",
          "name": "extension",
          "type": "address"
        },
        {
          "indexed": true,
          "internalType": "address",
          "name": "permissions",
          "type": "address"
        },
        {
          "indexed": true,
          "internalType": "address",
          "name": "sender",
          "type": "address"
        }
      ],
      "name": "MintPermissionsUpdated",
      "type": "event"
    },
    {
      "anonymous": false,
      "inputs": [
        {
          "indexed": true,
          "internalType": "address",
          "name": "previousOwner",
          "type": "address"
        },
        {
          "indexed": true,
          "internalType": "address",
          "name": "newOwner",
          "type": "address"
        }
      ],
      "name": "OwnershipTransferred",
      "type": "event"
    },
    {
      "anonymous": false,
      "inputs": [
        {
          "indexed": true,
          "internalType": "uint256",
          "name": "tokenId",
          "type": "uint256"
        },
        {
          "indexed": false,
          "internalType": "address payable[]",
          "name": "receivers",
          "type": "address[]"
        },
        {
          "indexed": false,
          "internalType": "uint256[]",
          "name": "basisPoints",
          "type": "uint256[]"
        }
      ],
      "name": "RoyaltiesUpdated",
      "type": "event"
    },
    {
      "anonymous": false,
      "inputs": [
        {
          "indexed": true,
          "internalType": "address",
          "name": "operator",
          "type": "address"
        },
        {
          "indexed": true,
          "internalType": "address",
          "name": "from",
          "type": "address"
        },
        {
          "indexed": true,
          "internalType": "address",
          "name": "to",
          "type": "address"
        },
        {
          "indexed": false,
          "internalType": "uint256[]",
          "name": "ids",
          "type": "uint256[]"
        },
        {
          "indexed": false,
          "internalType": "uint256[]",
          "name": "values",
          "type": "uint256[]"
        }
      ],
      "name": "TransferBatch",
      "type": "event"
    },
    {
      "anonymous": false,
      "inputs": [
        {
          "indexed": true,
          "internalType": "address",
          "name": "operator",
          "type": "address"
        },
        {
          "indexed": true,
          "internalType": "address",
          "name": "from",
          "type": "address"
        },
        {
          "indexed": true,
          "internalType": "address",
          "name": "to",
          "type": "address"
        },
        {
          "indexed": false,
          "internalType": "uint256",
          "name": "id",
          "type": "uint256"
        },
        {
          "indexed": false,
          "internalType": "uint256",
          "name": "value",
          "type": "uint256"
        }
      ],
      "name": "TransferSingle",
      "type": "event"
    },
    {
      "anonymous": false,
      "inputs": [
        {
          "indexed": false,
          "internalType": "string",
          "name": "value",
          "type": "string"
        },
        {
          "indexed": true,
          "internalType": "uint256",
          "name": "id",
          "type": "uint256"
        }
      ],
      "name": "URI",
      "type": "event"
    },
    {
      "inputs": [
        {
          "internalType": "address",
          "name": "admin",
          "type": "address"
        }
      ],
      "name": "approveAdmin",
      "outputs": [],
      "stateMutability": "nonpayable",
      "type": "function"
    },
    {
      "inputs": [
        {
          "internalType": "address",
          "name": "account",
          "type": "address"
        },
        {
          "internalType": "uint256",
          "name": "id",
          "type": "uint256"
        }
      ],
      "name": "balanceOf",
      "outputs": [
        {
          "internalType": "uint256",
          "name": "",
          "type": "uint256"
        }
      ],
      "stateMutability": "view",
      "type": "function"
    },
    {
      "inputs": [
        {
          "internalType": "address[]",
          "name": "accounts",
          "type": "address[]"
        },
        {
          "internalType": "uint256[]",
          "name": "ids",
          "type": "uint256[]"
        }
      ],
      "name": "balanceOfBatch",
      "outputs": [
        {
          "internalType": "uint256[]",
          "name": "",
          "type": "uint256[]"
        }
      ],
      "stateMutability": "view",
      "type": "function"
    },
    {
      "inputs": [
        {
          "internalType": "address",
          "name": "extension",
          "type": "address"
        }
      ],
      "name": "blacklistExtension",
      "outputs": [],
      "stateMutability": "nonpayable",
      "type": "function"
    },
    {
      "inputs": [
        {
          "internalType": "address",
          "name": "account",
          "type": "address"
        },
        {
          "internalType": "uint256[]",
          "name": "tokenIds",
          "type": "uint256[]"
        },
        {
          "internalType": "uint256[]",
          "name": "amounts",
          "type": "uint256[]"
        }
      ],
      "name": "burn",
      "outputs": [],
      "stateMutability": "nonpayable",
      "type": "function"
    },
    {
      "inputs": [],
      "name": "getAdmins",
      "outputs": [
        {
          "internalType": "address[]",
          "name": "admins",
          "type": "address[]"
        }
      ],
      "stateMutability": "view",
      "type": "function"
    },
    {
      "inputs": [],
      "name": "getExtensions",
      "outputs": [
        {
          "internalType": "address[]",
          "name": "extensions",
          "type": "address[]"
        }
      ],
      "stateMutability": "view",
      "type": "function"
    },
    {
      "inputs": [
        {
          "internalType": "uint256",
          "name": "tokenId",
          "type": "uint256"
        }
      ],
      "name": "getFeeBps",
      "outputs": [
        {
          "internalType": "uint256[]",
          "name": "",
          "type": "uint256[]"
        }
      ],
      "stateMutability": "view",
      "type": "function"
    },
    {
      "inputs": [
        {
          "internalType": "uint256",
          "name": "tokenId",
          "type": "uint256"
        }
      ],
      "name": "getFeeRecipients",
      "outputs": [
        {
          "internalType": "address payable[]",
          "name": "",
          "type": "address[]"
        }
      ],
      "stateMutability": "view",
      "type": "function"
    },
    {
      "inputs": [
        {
          "internalType": "uint256",
          "name": "tokenId",
          "type": "uint256"
        }
      ],
      "name": "getFees",
      "outputs": [
        {
          "internalType": "address payable[]",
          "name": "",
          "type": "address[]"
        },
        {
          "internalType": "uint256[]",
          "name": "",
          "type": "uint256[]"
        }
      ],
      "stateMutability": "view",
      "type": "function"
    },
    {
      "inputs": [
        {
          "internalType": "uint256",
          "name": "tokenId",
          "type": "uint256"
        }
      ],
      "name": "getRoyalties",
      "outputs": [
        {
          "internalType": "address payable[]",
          "name": "",
          "type": "address[]"
        },
        {
          "internalType": "uint256[]",
          "name": "",
          "type": "uint256[]"
        }
      ],
      "stateMutability": "view",
      "type": "function"
    },
    {
      "inputs": [],
      "name": "initialize",
      "outputs": [],
      "stateMutability": "nonpayable",
      "type": "function"
    },
    {
      "inputs": [
        {
          "internalType": "address",
          "name": "admin",
          "type": "address"
        }
      ],
      "name": "isAdmin",
      "outputs": [
        {
          "internalType": "bool",
          "name": "",
          "type": "bool"
        }
      ],
      "stateMutability": "view",
      "type": "function"
    },
    {
      "inputs": [
        {
          "internalType": "address",
          "name": "account",
          "type": "address"
        },
        {
          "internalType": "address",
          "name": "operator",
          "type": "address"
        }
      ],
      "name": "isApprovedForAll",
      "outputs": [
        {
          "internalType": "bool",
          "name": "",
          "type": "bool"
        }
      ],
      "stateMutability": "view",
      "type": "function"
    },
    {
      "inputs": [
        {
          "internalType": "address[]",
          "name": "to",
          "type": "address[]"
        },
        {
          "internalType": "uint256[]",
          "name": "tokenIds",
          "type": "uint256[]"
        },
        {
          "internalType": "uint256[]",
          "name": "amounts",
          "type": "uint256[]"
        }
      ],
      "name": "mintBaseExisting",
      "outputs": [],
      "stateMutability": "nonpayable",
      "type": "function"
    },
    {
      "inputs": [
        {
          "internalType": "address[]",
          "name": "to",
          "type": "address[]"
        },
        {
          "internalType": "uint256[]",
          "name": "amounts",
          "type": "uint256[]"
        },
        {
          "internalType": "string[]",
          "name": "uris",
          "type": "string[]"
        }
      ],
      "name": "mintBaseNew",
      "outputs": [
        {
          "internalType": "uint256[]",
          "name": "",
          "type": "uint256[]"
        }
      ],
      "stateMutability": "nonpayable",
      "type": "function"
    },
    {
      "inputs": [
        {
          "internalType": "address[]",
          "name": "to",
          "type": "address[]"
        },
        {
          "internalType": "uint256[]",
          "name": "tokenIds",
          "type": "uint256[]"
        },
        {
          "internalType": "uint256[]",
          "name": "amounts",
          "type": "uint256[]"
        }
      ],
      "name": "mintExtensionExisting",
      "outputs": [],
      "stateMutability": "nonpayable",
      "type": "function"
    },
    {
      "inputs": [
        {
          "internalType": "address[]",
          "name": "to",
          "type": "address[]"
        },
        {
          "internalType": "uint256[]",
          "name": "amounts",
          "type": "uint256[]"
        },
        {
          "internalType": "string[]",
          "name": "uris",
          "type": "string[]"
        }
      ],
      "name": "mintExtensionNew",
      "outputs": [
        {
          "internalType": "uint256[]",
          "name": "tokenIds",
          "type": "uint256[]"
        }
      ],
      "stateMutability": "nonpayable",
      "type": "function"
    },
    {
      "inputs": [],
      "name": "owner",
      "outputs": [
        {
          "internalType": "address",
          "name": "",
          "type": "address"
        }
      ],
      "stateMutability": "view",
      "type": "function"
    },
    {
      "inputs": [
        {
          "internalType": "address",
          "name": "extension",
          "type": "address"
        },
        {
          "internalType": "string",
          "name": "baseURI",
          "type": "string"
        }
      ],
      "name": "registerExtension",
      "outputs": [],
      "stateMutability": "nonpayable",
      "type": "function"
    },
    {
      "inputs": [
        {
          "internalType": "address",
          "name": "extension",
          "type": "address"
        },
        {
          "internalType": "string",
          "name": "baseURI",
          "type": "string"
        },
        {
          "internalType": "bool",
          "name": "baseURIIdentical",
          "type": "bool"
        }
      ],
      "name": "registerExtension",
      "outputs": [],
      "stateMutability": "nonpayable",
      "type": "function"
    },
    {
      "inputs": [],
      "name": "renounceOwnership",
      "outputs": [],
      "stateMutability": "nonpayable",
      "type": "function"
    },
    {
      "inputs": [
        {
          "internalType": "address",
          "name": "admin",
          "type": "address"
        }
      ],
      "name": "revokeAdmin",
      "outputs": [],
      "stateMutability": "nonpayable",
      "type": "function"
    },
    {
      "inputs": [
        {
          "internalType": "uint256",
          "name": "tokenId",
          "type": "uint256"
        },
        {
          "internalType": "uint256",
          "name": "value",
          "type": "uint256"
        }
      ],
      "name": "royaltyInfo",
      "outputs": [
        {
          "internalType": "address",
          "name": "",
          "type": "address"
        },
        {
          "internalType": "uint256",
          "name": "",
          "type": "uint256"
        }
      ],
      "stateMutability": "view",
      "type": "function"
    },
    {
      "inputs": [
        {
          "internalType": "address",
          "name": "from",
          "type": "address"
        },
        {
          "internalType": "address",
          "name": "to",
          "type": "address"
        },
        {
          "internalType": "uint256[]",
          "name": "ids",
          "type": "uint256[]"
        },
        {
          "internalType": "uint256[]",
          "name": "amounts",
          "type": "uint256[]"
        },
        {
          "internalType": "bytes",
          "name": "data",
          "type": "bytes"
        }
      ],
      "name": "safeBatchTransferFrom",
      "outputs": [],
      "stateMutability": "nonpayable",
      "type": "function"
    },
    {
      "inputs": [
        {
          "internalType": "address",
          "name": "from",
          "type": "address"
        },
        {
          "internalType": "address",
          "name": "to",
          "type": "address"
        },
        {
          "internalType": "uint256",
          "name": "id",
          "type": "uint256"
        },
        {
          "internalType": "uint256",
          "name": "amount",
          "type": "uint256"
        },
        {
          "internalType": "bytes",
          "name": "data",
          "type": "bytes"
        }
      ],
      "name": "safeTransferFrom",
      "outputs": [],
      "stateMutability": "nonpayable",
      "type": "function"
    },
    {
      "inputs": [
        {
          "internalType": "address",
          "name": "operator",
          "type": "address"
        },
        {
          "internalType": "bool",
          "name": "approved",
          "type": "bool"
        }
      ],
      "name": "setApprovalForAll",
      "outputs": [],
      "stateMutability": "nonpayable",
      "type": "function"
    },
    {
      "inputs": [
        {
          "internalType": "bool",
          "name": "enabled",
          "type": "bool"
        }
      ],
      "name": "setApproveTransferExtension",
      "outputs": [],
      "stateMutability": "nonpayable",
      "type": "function"
    },
    {
      "inputs": [
        {
          "internalType": "string",
          "name": "uri_",
          "type": "string"
        }
      ],
      "name": "setBaseTokenURI",
      "outputs": [],
      "stateMutability": "nonpayable",
      "type": "function"
    },
    {
      "inputs": [
        {
          "internalType": "string",
          "name": "uri_",
          "type": "string"
        }
      ],
      "name": "setBaseTokenURIExtension",
      "outputs": [],
      "stateMutability": "nonpayable",
      "type": "function"
    },
    {
      "inputs": [
        {
          "internalType": "string",
          "name": "uri_",
          "type": "string"
        },
        {
          "internalType": "bool",
          "name": "identical",
          "type": "bool"
        }
      ],
      "name": "setBaseTokenURIExtension",
      "outputs": [],
      "stateMutability": "nonpayable",
      "type": "function"
    },
    {
      "inputs": [
        {
          "internalType": "address",
          "name": "extension",
          "type": "address"
        },
        {
          "internalType": "address",
          "name": "permissions",
          "type": "address"
        }
      ],
      "name": "setMintPermissions",
      "outputs": [],
      "stateMutability": "nonpayable",
      "type": "function"
    },
    {
      "inputs": [
        {
          "internalType": "uint256",
          "name": "tokenId",
          "type": "uint256"
        },
        {
          "internalType": "address payable[]",
          "name": "receivers",
          "type": "address[]"
        },
        {
          "internalType": "uint256[]",
          "name": "basisPoints",
          "type": "uint256[]"
        }
      ],
      "name": "setRoyalties",
      "outputs": [],
      "stateMutability": "nonpayable",
      "type": "function"
    },
    {
      "inputs": [
        {
          "internalType": "address payable[]",
          "name": "receivers",
          "type": "address[]"
        },
        {
          "internalType": "uint256[]",
          "name": "basisPoints",
          "type": "uint256[]"
        }
      ],
      "name": "setRoyalties",
      "outputs": [],
      "stateMutability": "nonpayable",
      "type": "function"
    },
    {
      "inputs": [
        {
          "internalType": "address",
          "name": "extension",
          "type": "address"
        },
        {
          "internalType": "address payable[]",
          "name": "receivers",
          "type": "address[]"
        },
        {
          "internalType": "uint256[]",
          "name": "basisPoints",
          "type": "uint256[]"
        }
      ],
      "name": "setRoyaltiesExtension",
      "outputs": [],
      "stateMutability": "nonpayable",
      "type": "function"
    },
    {
      "inputs": [
        {
          "internalType": "uint256",
          "name": "tokenId",
          "type": "uint256"
        },
        {
          "internalType": "string",
          "name": "uri_",
          "type": "string"
        }
      ],
      "name": "setTokenURI",
      "outputs": [],
      "stateMutability": "nonpayable",
      "type": "function"
    },
    {
      "inputs": [
        {
          "internalType": "uint256[]",
          "name": "tokenIds",
          "type": "uint256[]"
        },
        {
          "internalType": "string[]",
          "name": "uris",
          "type": "string[]"
        }
      ],
      "name": "setTokenURI",
      "outputs": [],
      "stateMutability": "nonpayable",
      "type": "function"
    },
    {
      "inputs": [
        {
          "internalType": "uint256[]",
          "name": "tokenIds",
          "type": "uint256[]"
        },
        {
          "internalType": "string[]",
          "name": "uris",
          "type": "string[]"
        }
      ],
      "name": "setTokenURIExtension",
      "outputs": [],
      "stateMutability": "nonpayable",
      "type": "function"
    },
    {
      "inputs": [
        {
          "internalType": "uint256",
          "name": "tokenId",
          "type": "uint256"
        },
        {
          "internalType": "string",
          "name": "uri_",
          "type": "string"
        }
      ],
      "name": "setTokenURIExtension",
      "outputs": [],
      "stateMutability": "nonpayable",
      "type": "function"
    },
    {
      "inputs": [
        {
          "internalType": "string",
          "name": "prefix",
          "type": "string"
        }
      ],
      "name": "setTokenURIPrefix",
      "outputs": [],
      "stateMutability": "nonpayable",
      "type": "function"
    },
    {
      "inputs": [
        {
          "internalType": "string",
          "name": "prefix",
          "type": "string"
        }
      ],
      "name": "setTokenURIPrefixExtension",
      "outputs": [],
      "stateMutability": "nonpayable",
      "type": "function"
    },
    {
      "inputs": [
        {
          "internalType": "bytes4",
          "name": "interfaceId",
          "type": "bytes4"
        }
      ],
      "name": "supportsInterface",
      "outputs": [
        {
          "internalType": "bool",
          "name": "",
          "type": "bool"
        }
      ],
      "stateMutability": "view",
      "type": "function"
    },
    {
      "inputs": [
        {
          "internalType": "uint256",
          "name": "tokenId",
          "type": "uint256"
        }
      ],
      "name": "tokenExtension",
      "outputs": [
        {
          "internalType": "address",
          "name": "",
          "type": "address"
        }
      ],
      "stateMutability": "view",
      "type": "function"
    },
    {
      "inputs": [
        {
          "internalType": "uint256",
          "name": "tokenId",
          "type": "uint256"
        }
      ],
      "name": "totalSupply",
      "outputs": [
        {
          "internalType": "uint256",
          "name": "",
          "type": "uint256"
        }
      ],
      "stateMutability": "view",
      "type": "function"
    },
    {
      "inputs": [
        {
          "internalType": "address",
          "name": "newOwner",
          "type": "address"
        }
      ],
      "name": "transferOwnership",
      "outputs": [],
      "stateMutability": "nonpayable",
      "type": "function"
    },
    {
      "inputs": [
        {
          "internalType": "address",
          "name": "extension",
          "type": "address"
        }
      ],
      "name": "unregisterExtension",
      "outputs": [],
      "stateMutability": "nonpayable",
      "type": "function"
    },
    {
      "inputs": [
        {
          "internalType": "uint256",
          "name": "tokenId",
          "type": "uint256"
        }
      ],
      "name": "uri",
      "outputs": [
        {
          "internalType": "string",
          "name": "",
          "type": "string"
        }
      ],
      "stateMutability": "view",
      "type": "function"
    }
  ],
  "bytecode": "0x6080604052600060cc5534801561001557600080fd5b506001606555615f71806200002b6000396000f3fe608060405234801561001057600080fd5b50600436106102945760003560e01c80636d73e66911610167578063b9c4d9fb116100ce578063e92a89f611610087578063e92a89f614610601578063e985e9c514610614578063f0cdc49914610650578063f242432a14610663578063f2fde38b14610676578063feeb5a9a1461068957600080fd5b8063b9c4d9fb14610587578063bb3bafd61461059a578063bd85b039146105bb578063ce8aee9d146105db578063d5a06d4c1461059a578063e6c884dc146105ee57600080fd5b80638da5cb5b116101205780638da5cb5b1461051757806399e0dd7c14610528578063a22cb4651461053b578063aafb2d441461054e578063ac0c8cfa14610561578063b0fe87c91461057457600080fd5b80636d73e669146104c6578063715018a6146104d95780638129fc1c146104e157806382dcc0c8146104e957806383b7db63146104fc5780638c6e84721461050457600080fd5b80632eb2c2d61161020b5780633e6134b8116101c45780633e6134b8146104545780633f0f37f6146104675780634e1273f41461047a57806361e5bc6b1461048d57806366d1e9d0146104a0578063695c96e6146104b357600080fd5b80632eb2c2d6146103e057806330176e13146103f35780633071a0f91461040657806331ae450b14610419578063332dd1ae1461042e5780633db0f8ab1461044157600080fd5b8063162094c41161025d578063162094c41461033757806320e4afe21461034a578063239be3171461035d57806324d7806c146103885780632a55205a1461039b5780632d345670146103cd57600080fd5b8062fdd58e1461029957806301ffc9a7146102bf57806302e7afb7146102e25780630e89341c146102f75780630ebd4c7f14610317575b600080fd5b6102ac6102a73660046149c6565b61069c565b6040519081526020015b60405180910390f35b6102d26102cd366004614a08565b610738565b60405190151581526020016102b6565b6102f56102f0366004614a25565b610761565b005b61030a610305366004614a42565b6107b7565b6040516102b69190614aab565b61032a610325366004614a42565b6107c2565b6040516102b69190614af9565b6102f5610345366004614b4d565b610823565b6102f5610358366004614bdc565b61087d565b61037061036b366004614a42565b6108db565b6040516001600160a01b0390911681526020016102b6565b6102d2610396366004614a25565b6108e6565b6103ae6103a9366004614c55565b61091f565b604080516001600160a01b0390931683526020830191909152016102b6565b6102f56103db366004614a25565b610938565b6102f56103ee366004614dda565b6109b7565b6102f5610401366004614e87565b610a47565b6102f5610414366004614ec8565b610ad0565b610421610b56565b6040516102b69190614f3c565b6102f561043c366004614f4f565b610c04565b6102f561044f366004614fba565b610c5b565b6102f5610462366004614e87565b610d96565b6102f561047536600461503d565b610dc9565b61032a6104883660046150a4565b610e48565b6102f561049b366004615170565b610f71565b6102f56104ae366004614e87565b61101c565b6102f56104c13660046151cb565b61104d565b6102f56104d4366004614a25565b61121b565b6102f5611295565b6102f56112cb565b6102f56104f7366004615264565b611356565b610421611388565b61032a6105123660046151cb565b611432565b6033546001600160a01b0316610370565b6102f5610536366004614e87565b61150c565b6102f56105493660046152ba565b611560565b6102f561055c366004615170565b61156b565b6102f561056f3660046152f3565b611639565b6102f5610582366004615310565b61175f565b610421610595366004614a42565b6117b6565b6105ad6105a8366004614a42565b611820565b6040516102b692919061534f565b6102ac6105c9366004614a42565b600090815260dc602052604090205490565b6102f56105e9366004614a25565b6118df565b6102f56105fc3660046151cb565b611932565b6102f561060f366004614b4d565b611ad6565b6102d261062236600461537d565b6001600160a01b039182166000908152609b6020908152604080832093909416825291909152205460ff1690565b6102f561065e36600461537d565b611b08565b6102f56106713660046153ab565b611b5c565b6102f5610684366004614a25565b611be3565b61032a6106973660046151cb565b611c7b565b60006001600160a01b03831661070d5760405162461bcd60e51b815260206004820152602b60248201527f455243313135353a2062616c616e636520717565727920666f7220746865207a60448201526a65726f206164647265737360a81b60648201526084015b60405180910390fd5b506000818152609a602090815260408083206001600160a01b03861684529091529020545b92915050565b600061074382611d63565b80610752575061075282611d88565b80610732575061073282611dc8565b336107746033546001600160a01b031690565b6001600160a01b0316148061078f575061078f606633611ded565b6107ab5760405162461bcd60e51b815260040161070490615413565b6107b481611e12565b50565b606061073282611f0d565b60606107cd82612187565b80548060200260200160405190810160405280929190818152602001828054801561081757602002820191906000526020600020905b815481526020019060010190808311610803575b50505050509050919050565b336108366033546001600160a01b031690565b6001600160a01b031614806108515750610851606633611ded565b61086d5760405162461bcd60e51b815260040161070490615413565b610878838383612213565b505050565b336108906033546001600160a01b031690565b6001600160a01b031614806108ab57506108ab606633611ded565b6108c75760405162461bcd60e51b815260040161070490615413565b6108d48585858585612282565b5050505050565b6000610732826123ab565b6000816001600160a01b03166109046033546001600160a01b031690565b6001600160a01b031614806107325750610732606683611ded565b60008061092c8484612438565b915091505b9250929050565b6033546001600160a01b031633146109625760405162461bcd60e51b815260040161070490615457565b61096d606682611ded565b156107b45760405133906001600160a01b038316907f7c0c3c84c67c85fcac635147348bfe374c24a1a93d0366d1cfe9d8853cbf89d590600090a36109b3606682612523565b5050565b6001600160a01b0385163314806109d357506109d38533610622565b610a3a5760405162461bcd60e51b815260206004820152603260248201527f455243313135353a207472616e736665722063616c6c6572206973206e6f74206044820152711bdddb995c881b9bdc88185c1c1c9bdd995960721b6064820152608401610704565b6108d48585858585612538565b33610a5a6033546001600160a01b031690565b6001600160a01b03161480610a755750610a75606633611ded565b610a915760405162461bcd60e51b815260040161070490615413565b6109b382828080601f0160208091040260200160405190810160405280939291908181526020018383808284376000920191909152506126e592505050565b33610ae36033546001600160a01b031690565b6001600160a01b03161480610afe5750610afe606633611ded565b610b1a5760405162461bcd60e51b815260040161070490615413565b82610b2660cf82611ded565b15610b435760405162461bcd60e51b81526004016107049061548c565b610b5084848460006126fe565b50505050565b6060610b626066612838565b6001600160401b03811115610b7957610b79614c77565b604051908082528060200260200182016040528015610ba2578160200160208202803683370190505b50905060005b610bb26066612838565b811015610c0057610bc4606682612842565b828281518110610bd657610bd66154bb565b6001600160a01b039092166020928302919091019091015280610bf8816154e7565b915050610ba8565b5090565b33610c176033546001600160a01b031690565b6001600160a01b03161480610c325750610c32606633611ded565b610c4e5760405162461bcd60e51b815260040161070490615413565b610b50308585858561284e565b600260655403610c7d5760405162461bcd60e51b815260040161070490615500565b60026065556001600160a01b038316331480610cbc57506001600160a01b0383166000908152609b6020908152604080832033845290915290205460ff165b610d085760405162461bcd60e51b815260206004820181905260248201527f43616c6c6572206973206e6f74206f776e6572206e6f7220617070726f7665646044820152606401610704565b8051825114610d295760405162461bcd60e51b815260040161070490615537565b8151600103610d7657610d718383600081518110610d4957610d496154bb565b602002602001015183600081518110610d6457610d646154bb565b60200260200101516129d6565b610d81565b610d81838383612a09565b610d8c838383612a8b565b5050600160655550565b610da160cd33611ded565b610dbd5760405162461bcd60e51b81526004016107049061555e565b6109b382826000612c2f565b33610ddc6033546001600160a01b031690565b6001600160a01b03161480610df75750610df7606633611ded565b610e135760405162461bcd60e51b815260040161070490615413565b83610e1f60cf82611ded565b15610e3c5760405162461bcd60e51b81526004016107049061548c565b6108d4858585856126fe565b60608151835114610ead5760405162461bcd60e51b815260206004820152602960248201527f455243313135353a206163636f756e747320616e6420696473206c656e677468604482015268040dad2e6dac2e8c6d60bb1b6064820152608401610704565b600083516001600160401b03811115610ec857610ec8614c77565b604051908082528060200260200182016040528015610ef1578160200160208202803683370190505b50905060005b8451811015610f6957610f3c858281518110610f1557610f156154bb565b6020026020010151858381518110610f2f57610f2f6154bb565b602002602001015161069c565b828281518110610f4e57610f4e6154bb565b6020908102919091010152610f62816154e7565b9050610ef7565b509392505050565b610f7c60cd33611ded565b610f985760405162461bcd60e51b81526004016107049061555e565b82518114610fb85760405162461bcd60e51b815260040161070490615537565b60005b8351811015610b505761100a848281518110610fd957610fd96154bb565b6020026020010151848484818110610ff357610ff36154bb565b90506020028101906110059190615595565b612c6c565b80611014816154e7565b915050610fbb565b61102760cd33611ded565b6110435760405162461bcd60e51b81526004016107049061555e565b6109b38282612cc2565b60026065540361106f5760405162461bcd60e51b815260040161070490615500565b6002606555336110876033546001600160a01b031690565b6001600160a01b031614806110a257506110a2606633611ded565b6110be5760405162461bcd60e51b815260040161070490615413565b60005b8381101561116e573060d360008787858181106110e0576110e06154bb565b60209081029290920135835250810191909152604001600020546001600160a01b03161461115c5760405162461bcd60e51b815260206004820152602360248201527f4120746f6b656e20776173206372656174656420627920616e20657874656e7360448201526234b7b760e91b6064820152608401610704565b80611166816154e7565b9150506110c1565b5061120e3087878080602002602001604051908101604052809392919081815260200183836020028082843760009201919091525050604080516020808b0282810182019093528a82529093508a92508991829185019084908082843760009201919091525050604080516020808a02828101820190935289825290935089925088918291850190849080828437600092019190915250612cdc92505050565b5050600160655550505050565b6033546001600160a01b031633146112455760405162461bcd60e51b815260040161070490615457565b611250606682611ded565b6107b45760405133906001600160a01b038316907f7e1a1a08d52e4ba0e21554733d66165fd5151f99460116223d9e3a608eec5cb190600090a36109b3606682612fbe565b6033546001600160a01b031633146112bf5760405162461bcd60e51b815260040161070490615457565b6112c96000612fd3565b565b600054610100900460ff16806112e4575060005460ff16155b6113005760405162461bcd60e51b8152600401610704906155db565b600054610100900460ff16158015611322576000805461ffff19166101011790555b61133a60405180602001604052806000815250613025565b6113426130aa565b80156107b4576000805461ff001916905550565b61136160cd33611ded565b61137d5760405162461bcd60e51b81526004016107049061555e565b610878838383612c2f565b606061139460cd612838565b6001600160401b038111156113ab576113ab614c77565b6040519080825280602002602001820160405280156113d4578160200160208202803683370190505b50905060005b6113e460cd612838565b811015610c00576113f660cd82612842565b828281518110611408576114086154bb565b6001600160a01b03909216602092830291909101909101528061142a816154e7565b9150506113da565b60606002606554036114565760405162461bcd60e51b815260040161070490615500565b600260655561146660cd33611ded565b6114825760405162461bcd60e51b81526004016107049061555e565b6114fc3388888080602002602001604051908101604052809392919081815260200183836020028082843760009201919091525050604080516020808c0282810182019093528b82529093508b92508a9182918501908490808284376000920191909152506114f79250889150899050615629565b613111565b6001606555979650505050505050565b3361151f6033546001600160a01b031690565b6001600160a01b0316148061153a575061153a606633611ded565b6115565760405162461bcd60e51b815260040161070490615413565b6109b382826134c0565b6109b33383836134da565b3361157e6033546001600160a01b031690565b6001600160a01b031614806115995750611599606633611ded565b6115b55760405162461bcd60e51b815260040161070490615413565b825181146115d55760405162461bcd60e51b815260040161070490615537565b60005b8351811015610b50576116278482815181106115f6576115f66154bb565b6020026020010151848484818110611610576116106154bb565b90506020028101906116229190615595565b612213565b80611631816154e7565b9150506115d8565b61164460cd33611ded565b6116605760405162461bcd60e51b81526004016107049061555e565b8015806116795750611679336324ea02c560e21b6135ba565b6116ed576040805162461bcd60e51b81526020600482015260248101919091527f457874656e73696f6e206d75737420696d706c656d656e74204945524331313560448201527f3543726561746f72457874656e73696f6e417070726f76655472616e736665726064820152608401610704565b33600090815260d2602052604090205460ff161515811515146107b45733600081815260d26020908152604091829020805460ff191685151590811790915591519182527f072a7592283e2c2d1d56d21517ff6013325e0f55483f4828373ff4d98b0a1a36910160405180910390a250565b336117726033546001600160a01b031690565b6001600160a01b0316148061178d575061178d606633611ded565b6117a95760405162461bcd60e51b815260040161070490615413565b6108d4858585858561284e565b60606117c1826135d6565b80548060200260200160405190810160405280929190818152602001828054801561081757602002820191906000526020600020905b81546001600160a01b031681526001909101906020018083116117f75750505050509050919050565b60608061182c83613662565b81546040805160208084028201810190925282815291849183018282801561187d57602002820191906000526020600020905b81546001600160a01b0316815260019091019060200180831161185f575b50505050509150808054806020026020016040519081016040528092919081815260200182805480156118cf57602002820191906000526020600020905b8154815260200190600101908083116118bb575b5050505050905091509150915091565b336118f26033546001600160a01b031690565b6001600160a01b0316148061190d575061190d606633611ded565b6119295760405162461bcd60e51b815260040161070490615413565b6107b481613680565b6002606554036119545760405162461bcd60e51b815260040161070490615500565b600260655561196460cd33611ded565b6119805760405162461bcd60e51b81526004016107049061555e565b60005b83811015611a36573360d360008787858181106119a2576119a26154bb565b60209081029290920135835250810191909152604001600020546001600160a01b031614611a245760405162461bcd60e51b815260206004820152602960248201527f4120746f6b656e20776173206e6f74206372656174656420627920746869732060448201526832bc3a32b739b4b7b760b91b6064820152608401610704565b80611a2e816154e7565b915050611983565b5061120e3387878080602002602001604051908101604052809392919081815260200183836020028082843760009201919091525050604080516020808b0282810182019093528a82529093508a92508991829185019084908082843760009201919091525050604080516020808a02828101820190935289825290935089925088918291850190849080828437600092019190915250612cdc92505050565b611ae160cd33611ded565b611afd5760405162461bcd60e51b81526004016107049061555e565b610878838383612c6c565b33611b1b6033546001600160a01b031690565b6001600160a01b03161480611b365750611b36606633611ded565b611b525760405162461bcd60e51b815260040161070490615413565b6109b382826136d1565b6001600160a01b038516331480611b785750611b788533610622565b611bd65760405162461bcd60e51b815260206004820152602960248201527f455243313135353a2063616c6c6572206973206e6f74206f776e6572206e6f7260448201526808185c1c1c9bdd995960ba1b6064820152608401610704565b6108d485858585856137fa565b6033546001600160a01b03163314611c0d5760405162461bcd60e51b815260040161070490615457565b6001600160a01b038116611c725760405162461bcd60e51b815260206004820152602660248201527f4f776e61626c653a206e6577206f776e657220697320746865207a65726f206160448201526564647265737360d01b6064820152608401610704565b6107b481612fd3565b6060600260655403611c9f5760405162461bcd60e51b815260040161070490615500565b600260655533611cb76033546001600160a01b031690565b6001600160a01b03161480611cd25750611cd2606633611ded565b611cee5760405162461bcd60e51b815260040161070490615413565b6114fc3088888080602002602001604051908101604052809392919081815260200183836020028082843760009201919091525050604080516020808c0282810182019093528b82529093508b92508a9182918501908490808284376000920191909152506114f79250889150899050615629565b60006001600160e01b031982166301f4921160e61b148061073257506107328261392a565b60006001600160e01b03198216636cdb3d1360e11b1480611db957506001600160e01b031982166303a24d0760e21b145b806107325750610732826139c0565b60006001600160e01b03198216632a9f3abf60e11b14806107325750610732826139c0565b6001600160a01b038116600090815260018301602052604081205415155b9392505050565b306001600160a01b03821603611e6a5760405162461bcd60e51b815260206004820152601960248201527f43616e6e6f7420626c61636b6c69737420796f757273656c66000000000000006044820152606401610704565b611e7560cd82611ded565b15611ebd5760405133906001600160a01b038316907fd19cf84cf0fec6bec9ddfa29c63adf83a55707c712f32c8285d6180a7890147990600090a3611ebb60cd82612523565b505b611ec860cf82611ded565b6107b45760405133906001600160a01b038316907f05ac7bc5a606cd92a63365f9fda244499b9add0526b22d99937b6bd88181059c90600090a36109b360cf82612fbe565b600081815260d360205260409020546060906001600160a01b0316611f3360cf82611ded565b15611f505760405162461bcd60e51b81526004016107049061548c565b600083815260d7602052604090208054611f69906156ba565b159050612083576001600160a01b038116600090815260d6602052604090208054611f93906156ba565b159050611fe4576001600160a01b038116600090815260d66020908152604080832086845260d78352928190209051611fcd939201615761565b604051602081830303815290604052915050919050565b600083815260d7602052604090208054611ffd906156ba565b80601f0160208091040260200160405190810160405280929190818152602001828054612029906156ba565b80156120765780601f1061204b57610100808354040283529160200191612076565b820191906000526020600020905b81548152906001019060200180831161205957829003601f168201915b5050505050915050919050565b6120948163e9dc637560e01b6135ba565b1561210c5760405163e9dc637560e01b8152306004820152602481018490526001600160a01b0382169063e9dc637590604401600060405180830381865afa1580156120e4573d6000803e3d6000fd5b505050506040513d6000823e601f3d908101601f19168201604052611e0b9190810190615776565b6001600160a01b038116600090815260d5602052604090205460ff1661215e576001600160a01b038116600090815260d46020526040902061214d846139d6565b604051602001611fcd9291906157ed565b6001600160a01b038116600090815260d4602052604090208054611ffd906156ba565b50919050565b600081815260db6020526040812054156121ad5750600090815260db6020526040902090565b600082815260d360209081526040808320546001600160a01b0316835260d9909152902054156121ff5750600090815260d360209081526040808320546001600160a01b0316835260d9909152902090565b505030600090815260d96020526040902090565b600083815260d360205260409020546001600160a01b031630146122695760405162461bcd60e51b815260206004820152600d60248201526c24b73b30b634b2103a37b5b2b760991b6044820152606401610704565b600083815260d760205260409020610b50828483615858565b8281146122a15760405162461bcd60e51b815260040161070490615537565b6000805b828110156122e5578383828181106122bf576122bf6154bb565b90506020020135826122d19190615917565b9150806122dd816154e7565b9150506122a5565b5061271081106123315760405162461bcd60e51b8152602060048201526017602482015276496e76616c696420746f74616c20726f79616c7469657360481b6044820152606401610704565b600086815260da6020526040902061234a908686614902565b50600086815260db60205260409020612364908484614961565b50857fabb46fe0761d77584bde75697647804ffd8113abd4d8d06bc664150395eccdee8686868660405161239b949392919061592a565b60405180910390a2505050505050565b600081815260d360205260409020546001600160a01b031630810361240b5760405162461bcd60e51b815260206004820152601660248201527527379032bc3a32b739b4b7b7103337b9103a37b5b2b760511b6044820152606401610704565b61241660cf82611ded565b156124335760405162461bcd60e51b81526004016107049061548c565b919050565b6000806000612446856135d6565b80549091506001101561249b5760405162461bcd60e51b815260206004820152601c60248201527f4d6f7265207468616e203120726f79616c7479207265636569766572000000006044820152606401610704565b80546000036124b1573060009250925050610931565b806000815481106124c4576124c46154bb565b6000918252602090912001546001600160a01b0316612710856124e688612187565b6000815481106124f8576124f86154bb565b906000526020600020015461250d91906159a8565b61251791906159d5565b92509250509250929050565b6000611e0b836001600160a01b038416613ade565b81518351146125595760405162461bcd60e51b8152600401610704906159e9565b6001600160a01b03841661257f5760405162461bcd60e51b815260040161070490615a31565b3361258e818787878787613bd1565b60005b84518110156126775760008582815181106125ae576125ae6154bb565b6020026020010151905060008583815181106125cc576125cc6154bb565b6020908102919091018101516000848152609a835260408082206001600160a01b038e16835290935291909120549091508181101561261d5760405162461bcd60e51b815260040161070490615a76565b6000838152609a602090815260408083206001600160a01b038e8116855292528083208585039055908b1682528120805484929061265c908490615917565b9250508190555050505080612670906154e7565b9050612591565b50846001600160a01b0316866001600160a01b0316826001600160a01b03167f4a39dc06d4c0dbc64b70af90fd698a233a518aa5d07e595d983b8c0526c8f7fb87876040516126c7929190615ac0565b60405180910390a46126dd818787878787613bdd565b505050505050565b30600090815260d4602052604090206109b38282615ad3565b306001600160a01b038516036127495760405162461bcd60e51b815260206004820152601060248201526f10dc99585d1bdc8e88125b9d985b1a5960821b6044820152606401610704565b6001600160a01b0384163b6127ae5760405162461bcd60e51b815260206004820152602560248201527f43726561746f723a20457874656e73696f6e206d757374206265206120636f6e6044820152641d1c9858dd60da1b6064820152608401610704565b6127b960cd85611ded565b610b50576001600160a01b038416600090815260d4602052604090206127e0838583615858565b506001600160a01b038416600081815260d56020526040808220805460ff1916851515179055513392917fd8cb8ba4086944eabf43c5535b7712015e4d4c714b24bf812c040ea5b7a3e42a91a36108d460cd85612fbe565b6000610732825490565b6000611e0b8383613d38565b82811461286d5760405162461bcd60e51b815260040161070490615537565b6000805b828110156128b15783838281811061288b5761288b6154bb565b905060200201358261289d9190615917565b9150806128a9816154e7565b915050612871565b5061271081106128fd5760405162461bcd60e51b8152602060048201526017602482015276496e76616c696420746f74616c20726f79616c7469657360481b6044820152606401610704565b6001600160a01b038616600090815260d860205260409020612920908686614902565b506001600160a01b038616600090815260d960205260409020612944908484614961565b50306001600160a01b03871603612997577f2b6849d5976d799a5b0ca4dfd6b40a3d7afe9ea72c091fa01a958594f9a2659b8585858560405161298a949392919061592a565b60405180910390a16126dd565b856001600160a01b03167f535a93d2cb000582c0ebeaa9be4890ec6a287f98eb2df00c54c300612fd78d8f8686868660405161239b949392919061592a565b6129e1838383613d62565b600082815260dc6020526040812080548392906129ff908490615b92565b9091555050505050565b612a14838383613e67565b60005b8251811015610b5057818181518110612a3257612a326154bb565b602002602001015160dc6000858481518110612a5057612a506154bb565b602002602001015181526020019081526020016000206000828254612a759190615b92565b90915550612a849050816154e7565b9050612a17565b6000825111612aac5760405162461bcd60e51b815260040161070490615537565b600060d3600084600081518110612ac557612ac56154bb565b6020026020010151815260200190815260200160002060009054906101000a90046001600160a01b0316905060005b8351811015612ba057816001600160a01b031660d36000868481518110612b1d57612b1d6154bb565b6020908102919091018101518252810191909152604001600020546001600160a01b031614612b8e5760405162461bcd60e51b815260206004820152601c60248201527f4d69736d61746368656420746f6b656e206f726967696e61746f7273000000006044820152606401610704565b80612b98816154e7565b915050612af4565b506001600160a01b0381163014610b5057612bc2816303dc6f6560e51b6135ba565b15610b50576040516303dc6f6560e51b81526001600160a01b03821690637b8deca090612bf790879087908790600401615ba5565b600060405180830381600087803b158015612c1157600080fd5b505af1158015612c25573d6000803e3d6000fd5b5050505050505050565b33600090815260d460205260409020612c49838583615858565b5033600090815260d560205260409020805460ff19169115159190911790555050565b600083815260d360205260409020546001600160a01b031633146122695760405162461bcd60e51b815260206004820152600d60248201526c24b73b30b634b2103a37b5b2b760991b6044820152606401610704565b33600090815260d660205260409020610878828483615858565b6001600160a01b0384163014612cf757612cf7838383613ff8565b82516001148015612d09575081516001145b8015612d16575080516001145b15612dbd57612db883600081518110612d3157612d316154bb565b602002602001015183600081518110612d4c57612d4c6154bb565b602002602001015183600081518110612d6757612d676154bb565b602002602001015160006001600160401b03811115612d8857612d88614c77565b6040519080825280601f01601f191660200182016040528015612db2576020820181803683370190505b50614087565b610b50565b82516001148015612dcf575080518251145b15612e3d57612db883600081518110612dea57612dea6154bb565b6020026020010151838360006001600160401b03811115612e0d57612e0d614c77565b6040519080825280601f01601f191660200182016040528015612e37576020820181803683370190505b506140bc565b81516001148015612e4f575080516001145b15612ec35760005b8351811015612ebd57612eab848281518110612e7557612e756154bb565b602002602001015184600081518110612e9057612e906154bb565b602002602001015184600081518110612d6757612d676154bb565b80612eb5816154e7565b915050612e57565b50610b50565b81516001148015612ed5575080518351145b15612f425760005b8351811015612ebd57612f30848281518110612efb57612efb6154bb565b602002602001015184600081518110612f1657612f166154bb565b6020026020010151848481518110612d6757612d676154bb565b80612f3a816154e7565b915050612edd565b81518351148015612f54575080518351145b15612fa65760005b8351811015612ebd57612f94848281518110612f7a57612f7a6154bb565b6020026020010151848381518110612f1657612f166154bb565b80612f9e816154e7565b915050612f5c565b60405162461bcd60e51b815260040161070490615537565b6000611e0b836001600160a01b03841661413f565b603380546001600160a01b038381166001600160a01b0319831681179093556040519116919082907f8be0079c531659141344cd1fd0a4f28419497f9722a3daafe3b4186f6b6457e090600090a35050565b600054610100900460ff168061303e575060005460ff16155b61305a5760405162461bcd60e51b8152600401610704906155db565b600054610100900460ff1615801561307c576000805461ffff19166101011790555b61308461418e565b61308c61418e565b613095826141f8565b80156109b3576000805461ff00191690555050565b600054610100900460ff16806130c3575060005460ff16155b6130df5760405162461bcd60e51b8152600401610704906155db565b600054610100900460ff16158015613101576000805461ffff19166101011790555b61310961418e565b611342614258565b606060018451111561317c576040805160018082528183019092529060208083019080368337019050509050600182511115801561315b575082516001148061315b575082518451145b6131775760405162461bcd60e51b815260040161070490615537565b6131ee565b82516001600160401b0381111561319557613195614c77565b6040519080825280602002602001820160405280156131be578160200160208202803683370190505b5090508151600014806131d2575081518351145b6131ee5760405162461bcd60e51b815260040161070490615537565b60005b815181101561326f5760cc805490600061320a836154e7565b919050555060cc54828281518110613224576132246154bb565b60209081029190910181019190915260cc54600090815260d39091526040902080546001600160a01b0319166001600160a01b03881617905580613267816154e7565b9150506131f1565b506001600160a01b038516301461328b5761328b848285613ff8565b8351600114801561329d575080516001145b156132f3576132ee846000815181106132b8576132b86154bb565b6020026020010151826000815181106132d3576132d36154bb565b602002602001015185600081518110612d6757612d676154bb565b613416565b6001845111156133dd5782516001036133755760005b845181101561336f5761335d858281518110613327576133276154bb565b602002602001015183600081518110613342576133426154bb565b602002602001015186600081518110612d6757612d676154bb565b80613367816154e7565b915050613309565b50613416565b60005b845181101561336f576133cb858281518110613396576133966154bb565b6020026020010151836000815181106133b1576133b16154bb565b6020026020010151868481518110612d6757612d676154bb565b806133d5816154e7565b915050613378565b613416846000815181106133f3576133f36154bb565b6020026020010151828560006001600160401b03811115612e0d57612e0d614c77565b60005b81518110156134b75782518110801561344c57506000838281518110613441576134416154bb565b602002602001015151115b156134a557828181518110613463576134636154bb565b602002602001015160d76000848481518110613481576134816154bb565b6020026020010151815260200190815260200160002090816134a39190615ad3565b505b806134af816154e7565b915050613419565b50949350505050565b30600090815260d660205260409020610878828483615858565b816001600160a01b0316836001600160a01b03160361354d5760405162461bcd60e51b815260206004820152602960248201527f455243313135353a2073657474696e6720617070726f76616c20737461747573604482015268103337b91039b2b63360b91b6064820152608401610704565b6001600160a01b038381166000818152609b6020908152604080832094871680845294825291829020805460ff191686151590811790915591519182527f17307eab39ab6107e8899845ad3d59bd9653f200f220920489ca2b5937696c31910160405180910390a3505050565b60006135c5836142b8565b8015611e0b5750611e0b83836142eb565b600081815260da6020526040812054156135fc5750600090815260da6020526040902090565b600082815260d360209081526040808320546001600160a01b0316835260d89091529020541561364e5750600090815260d360209081526040808320546001600160a01b0316835260d8909152902090565b505030600090815260d86020526040902090565b60008061366e836135d6565b61367784612187565b91509150915091565b61368b60cd82611ded565b156107b45760405133906001600160a01b038316907fd19cf84cf0fec6bec9ddfa29c63adf83a55707c712f32c8285d6180a7890147990600090a36109b360cd82612523565b6136dc60cd83611ded565b61371c5760405162461bcd60e51b815260206004820152601160248201527024b73b30b634b21032bc3a32b739b4b7b760791b6044820152606401610704565b6001600160a01b038116158061373e575061373e816378ea2a9760e11b6135ba565b61377c5760405162461bcd60e51b815260206004820152600f60248201526e496e76616c6964206164647265737360881b6044820152606401610704565b6001600160a01b03828116600090815260d160205260409020548116908216146109b3576001600160a01b03828116600081815260d1602052604080822080546001600160a01b031916948616948517905551339392917f6a835c4fcf7e0d398db3762332fdaa1471814ad39f1e2d6d0b3fdabf8efee3e091a45050565b6001600160a01b0384166138205760405162461bcd60e51b815260040161070490615a31565b3361383f818787613830886143d4565b613839886143d4565b87613bd1565b6000848152609a602090815260408083206001600160a01b038a168452909152902054838110156138825760405162461bcd60e51b815260040161070490615a76565b6000858152609a602090815260408083206001600160a01b038b81168552925280832087850390559088168252812080548692906138c1908490615917565b909155505060408051868152602081018690526001600160a01b03808916928a821692918616917fc3d58168c5ae7397731d063d5bbf3d657854427343f4c083240f7aacaa2d0f62910160405180910390a461392182888888888861441f565b50505050505050565b60006001600160e01b031982166328f10a2160e01b148061394f575061394f82611d88565b8061396a57506001600160e01b03198216635d9dd7eb60e11b145b8061398557506001600160e01b03198216632dde656160e21b145b806139a057506001600160e01b031982166335681b5360e21b145b8061073257506001600160e01b0319821663152a902d60e11b1492915050565b6001600160e01b0319166301ffc9a760e01b1490565b6060816000036139fd5750506040805180820190915260018152600360fc1b602082015290565b8160005b8115613a275780613a11816154e7565b9150613a209050600a836159d5565b9150613a01565b6000816001600160401b03811115613a4157613a41614c77565b6040519080825280601f01601f191660200182016040528015613a6b576020820181803683370190505b5090505b8415613ad657613a80600183615b92565b9150613a8d600a86615bdb565b613a98906030615917565b60f81b818381518110613aad57613aad6154bb565b60200101906001600160f81b031916908160001a905350613acf600a866159d5565b9450613a6f565b949350505050565b60008181526001830160205260408120548015613bc7576000613b02600183615b92565b8554909150600090613b1690600190615b92565b9050818114613b7b576000866000018281548110613b3657613b366154bb565b9060005260206000200154905080876000018481548110613b5957613b596154bb565b6000918252602080832090910192909255918252600188019052604090208390555b8554869080613b8c57613b8c615bef565b600190038181906000526020600020016000905590558560010160008681526020019081526020016000206000905560019350505050610732565b6000915050610732565b6126dd858585856144da565b6001600160a01b0384163b156126dd5760405163bc197c8160e01b81526001600160a01b0385169063bc197c8190613c219089908990889088908890600401615c05565b6020604051808303816000875af1925050508015613c5c575060408051601f3d908101601f19168201909252613c5991810190615c63565b60015b613d0857613c68615c80565b806308c379a003613ca15750613c7c615c9c565b80613c875750613ca3565b8060405162461bcd60e51b81526004016107049190614aab565b505b60405162461bcd60e51b815260206004820152603460248201527f455243313135353a207472616e7366657220746f206e6f6e20455243313135356044820152732932b1b2b4bb32b91034b6b83632b6b2b73a32b960611b6064820152608401610704565b6001600160e01b0319811663bc197c8160e01b146139215760405162461bcd60e51b815260040161070490615d25565b6000826000018281548110613d4f57613d4f6154bb565b9060005260206000200154905092915050565b6001600160a01b038316613d885760405162461bcd60e51b815260040161070490615d6d565b33613db781856000613d99876143d4565b613da2876143d4565b60405180602001604052806000815250613bd1565b6000838152609a602090815260408083206001600160a01b038816845290915290205482811015613dfa5760405162461bcd60e51b815260040161070490615db0565b6000848152609a602090815260408083206001600160a01b03898116808652918452828520888703905582518981529384018890529092908616917fc3d58168c5ae7397731d063d5bbf3d657854427343f4c083240f7aacaa2d0f62910160405180910390a45050505050565b6001600160a01b038316613e8d5760405162461bcd60e51b815260040161070490615d6d565b8051825114613eae5760405162461bcd60e51b8152600401610704906159e9565b6000339050613ed181856000868660405180602001604052806000815250613bd1565b60005b8351811015613f99576000848281518110613ef157613ef16154bb565b602002602001015190506000848381518110613f0f57613f0f6154bb565b6020908102919091018101516000848152609a835260408082206001600160a01b038c168352909352919091205490915081811015613f605760405162461bcd60e51b815260040161070490615db0565b6000928352609a602090815260408085206001600160a01b038b1686529091529092209103905580613f91816154e7565b915050613ed4565b5060006001600160a01b0316846001600160a01b0316826001600160a01b03167f4a39dc06d4c0dbc64b70af90fd698a233a518aa5d07e595d983b8c0526c8f7fb8686604051613fea929190615ac0565b60405180910390a450505050565b33600090815260d160205260409020546001600160a01b0316156108785733600081815260d16020526040908190205490516378ea2a9760e11b81526001600160a01b039091169163f1d4552e916140599190879087908790600401615df4565b600060405180830381600087803b15801561407357600080fd5b505af1158015613921573d6000803e3d6000fd5b614093848484846146d2565b600083815260dc6020526040812080548492906140b1908490615917565b909155505050505050565b6140c88484848461479b565b60005b83518110156108d4578281815181106140e6576140e66154bb565b602002602001015160dc6000868481518110614104576141046154bb565b6020026020010151815260200190815260200160002060008282546141299190615917565b909155506141389050816154e7565b90506140cb565b600081815260018301602052604081205461418657508154600181810184556000848152602080822090930184905584548482528286019093526040902091909155610732565b506000610732565b600054610100900460ff16806141a7575060005460ff16155b6141c35760405162461bcd60e51b8152600401610704906155db565b600054610100900460ff16158015611342576000805461ffff191661010117905580156107b4576000805461ff001916905550565b600054610100900460ff1680614211575060005460ff16155b61422d5760405162461bcd60e51b8152600401610704906155db565b600054610100900460ff1615801561424f576000805461ffff19166101011790555b613095826148f6565b600054610100900460ff1680614271575060005460ff16155b61428d5760405162461bcd60e51b8152600401610704906155db565b600054610100900460ff161580156142af576000805461ffff19166101011790555b61134233612fd3565b60006142cb826301ffc9a760e01b6142eb565b801561073257506142e4826001600160e01b03196142eb565b1592915050565b604080516001600160e01b0319831660248083019190915282518083039091018152604490910182526020810180516001600160e01b03166301ffc9a760e01b179052905160009190829081906001600160a01b0387169061753090614352908690615e49565b6000604051808303818686fa925050503d806000811461438e576040519150601f19603f3d011682016040523d82523d6000602084013e614393565b606091505b50915091506020815110156143ae5760009350505050610732565b8180156143ca5750808060200190518101906143ca9190615e65565b9695505050505050565b6040805160018082528183019092526060916000919060208083019080368337019050509050828160008151811061440e5761440e6154bb565b602090810291909101015292915050565b6001600160a01b0384163b156126dd5760405163f23a6e6160e01b81526001600160a01b0385169063f23a6e61906144639089908990889088908890600401615e82565b6020604051808303816000875af192505050801561449e575060408051601f3d908101601f1916820190925261449b91810190615c63565b60015b6144aa57613c68615c80565b6001600160e01b0319811663f23a6e6160e01b146139215760405162461bcd60e51b815260040161070490615d25565b60008251116144fb5760405162461bcd60e51b815260040161070490615537565b600060d3600084600081518110614514576145146154bb565b6020026020010151815260200190815260200160002060009054906101000a90046001600160a01b0316905060005b83518110156145ef57816001600160a01b031660d3600086848151811061456c5761456c6154bb565b6020908102919091018101518252810191909152604001600020546001600160a01b0316146145dd5760405162461bcd60e51b815260206004820152601c60248201527f4d69736d61746368656420746f6b656e206f726967696e61746f7273000000006044820152606401610704565b806145e7816154e7565b915050614543565b506001600160a01b038116600090815260d2602052604090205460ff16156108d45760405163883da93360e01b81526001600160a01b0382169063883da93390614643908890889088908890600401615ebc565b6020604051808303816000875af1158015614662573d6000803e3d6000fd5b505050506040513d601f19601f820116820180604052508101906146869190615e65565b6108d45760405162461bcd60e51b815260206004820152601a60248201527f457874656e73696f6e20617070726f76616c206661696c7572650000000000006044820152606401610704565b6001600160a01b0384166146f85760405162461bcd60e51b815260040161070490615efa565b3361470981600087613830886143d4565b6000848152609a602090815260408083206001600160a01b03891684529091528120805485929061473b908490615917565b909155505060408051858152602081018590526001600160a01b0380881692600092918516917fc3d58168c5ae7397731d063d5bbf3d657854427343f4c083240f7aacaa2d0f62910160405180910390a46108d48160008787878761441f565b6001600160a01b0384166147c15760405162461bcd60e51b815260040161070490615efa565b81518351146147e25760405162461bcd60e51b8152600401610704906159e9565b336147f281600087878787613bd1565b60005b845181101561488e57838181518110614810576148106154bb565b6020026020010151609a600087848151811061482e5761482e6154bb565b602002602001015181526020019081526020016000206000886001600160a01b03166001600160a01b0316815260200190815260200160002060008282546148769190615917565b90915550819050614886816154e7565b9150506147f5565b50846001600160a01b031660006001600160a01b0316826001600160a01b03167f4a39dc06d4c0dbc64b70af90fd698a233a518aa5d07e595d983b8c0526c8f7fb87876040516148df929190615ac0565b60405180910390a46108d481600087878787613bdd565b609c6109b38282615ad3565b828054828255906000526020600020908101928215614955579160200282015b828111156149555781546001600160a01b0319166001600160a01b03843516178255602090920191600190910190614922565b50610c0092915061499c565b828054828255906000526020600020908101928215614955579160200282015b82811115614955578235825591602001919060010190614981565b5b80821115610c00576000815560010161499d565b6001600160a01b03811681146107b457600080fd5b600080604083850312156149d957600080fd5b82356149e4816149b1565b946020939093013593505050565b6001600160e01b0319811681146107b457600080fd5b600060208284031215614a1a57600080fd5b8135611e0b816149f2565b600060208284031215614a3757600080fd5b8135611e0b816149b1565b600060208284031215614a5457600080fd5b5035919050565b60005b83811015614a76578181015183820152602001614a5e565b50506000910152565b60008151808452614a97816020860160208601614a5b565b601f01601f19169290920160200192915050565b602081526000611e0b6020830184614a7f565b600081518084526020808501945080840160005b83811015614aee57815187529582019590820190600101614ad2565b509495945050505050565b602081526000611e0b6020830184614abe565b60008083601f840112614b1e57600080fd5b5081356001600160401b03811115614b3557600080fd5b60208301915083602082850101111561093157600080fd5b600080600060408486031215614b6257600080fd5b8335925060208401356001600160401b03811115614b7f57600080fd5b614b8b86828701614b0c565b9497909650939450505050565b60008083601f840112614baa57600080fd5b5081356001600160401b03811115614bc157600080fd5b6020830191508360208260051b850101111561093157600080fd5b600080600080600060608688031215614bf457600080fd5b8535945060208601356001600160401b0380821115614c1257600080fd5b614c1e89838a01614b98565b90965094506040880135915080821115614c3757600080fd5b50614c4488828901614b98565b969995985093965092949392505050565b60008060408385031215614c6857600080fd5b50508035926020909101359150565b634e487b7160e01b600052604160045260246000fd5b601f8201601f191681016001600160401b0381118282101715614cb257614cb2614c77565b6040525050565b60006001600160401b03821115614cd257614cd2614c77565b5060051b60200190565b600082601f830112614ced57600080fd5b81356020614cfa82614cb9565b604051614d078282614c8d565b83815260059390931b8501820192828101915086841115614d2757600080fd5b8286015b84811015614d425780358352918301918301614d2b565b509695505050505050565b60006001600160401b03821115614d6657614d66614c77565b50601f01601f191660200190565b6000614d7f83614d4d565b604051614d8c8282614c8d565b809250848152858585011115614da157600080fd5b8484602083013760006020868301015250509392505050565b600082601f830112614dcb57600080fd5b611e0b83833560208501614d74565b600080600080600060a08688031215614df257600080fd5b8535614dfd816149b1565b94506020860135614e0d816149b1565b935060408601356001600160401b0380821115614e2957600080fd5b614e3589838a01614cdc565b94506060880135915080821115614e4b57600080fd5b614e5789838a01614cdc565b93506080880135915080821115614e6d57600080fd5b50614e7a88828901614dba565b9150509295509295909350565b60008060208385031215614e9a57600080fd5b82356001600160401b03811115614eb057600080fd5b614ebc85828601614b0c565b90969095509350505050565b600080600060408486031215614edd57600080fd5b8335614ee8816149b1565b925060208401356001600160401b03811115614b7f57600080fd5b600081518084526020808501945080840160005b83811015614aee5781516001600160a01b031687529582019590820190600101614f17565b602081526000611e0b6020830184614f03565b60008060008060408587031215614f6557600080fd5b84356001600160401b0380821115614f7c57600080fd5b614f8888838901614b98565b90965094506020870135915080821115614fa157600080fd5b50614fae87828801614b98565b95989497509550505050565b600080600060608486031215614fcf57600080fd5b8335614fda816149b1565b925060208401356001600160401b0380821115614ff657600080fd5b61500287838801614cdc565b9350604086013591508082111561501857600080fd5b5061502586828701614cdc565b9150509250925092565b80151581146107b457600080fd5b6000806000806060858703121561505357600080fd5b843561505e816149b1565b935060208501356001600160401b0381111561507957600080fd5b61508587828801614b0c565b90945092505060408501356150998161502f565b939692955090935050565b600080604083850312156150b757600080fd5b82356001600160401b03808211156150ce57600080fd5b818501915085601f8301126150e257600080fd5b813560206150ef82614cb9565b6040516150fc8282614c8d565b83815260059390931b850182019282810191508984111561511c57600080fd5b948201945b83861015615143578535615134816149b1565b82529482019490820190615121565b9650508601359250508082111561515957600080fd5b5061516685828601614cdc565b9150509250929050565b60008060006040848603121561518557600080fd5b83356001600160401b038082111561519c57600080fd5b6151a887838801614cdc565b945060208601359150808211156151be57600080fd5b50614b8b86828701614b98565b600080600080600080606087890312156151e457600080fd5b86356001600160401b03808211156151fb57600080fd5b6152078a838b01614b98565b9098509650602089013591508082111561522057600080fd5b61522c8a838b01614b98565b9096509450604089013591508082111561524557600080fd5b5061525289828a01614b98565b979a9699509497509295939492505050565b60008060006040848603121561527957600080fd5b83356001600160401b0381111561528f57600080fd5b61529b86828701614b0c565b90945092505060208401356152af8161502f565b809150509250925092565b600080604083850312156152cd57600080fd5b82356152d8816149b1565b915060208301356152e88161502f565b809150509250929050565b60006020828403121561530557600080fd5b8135611e0b8161502f565b60008060008060006060868803121561532857600080fd5b8535615333816149b1565b945060208601356001600160401b0380821115614c1257600080fd5b6040815260006153626040830185614f03565b82810360208401526153748185614abe565b95945050505050565b6000806040838503121561539057600080fd5b823561539b816149b1565b915060208301356152e8816149b1565b600080600080600060a086880312156153c357600080fd5b85356153ce816149b1565b945060208601356153de816149b1565b9350604086013592506060860135915060808601356001600160401b0381111561540757600080fd5b614e7a88828901614dba565b60208082526024908201527f41646d696e436f6e74726f6c3a204d757374206265206f776e6572206f7220616040820152633236b4b760e11b606082015260800190565b6020808252818101527f4f776e61626c653a2063616c6c6572206973206e6f7420746865206f776e6572604082015260600190565b602080825260159082015274115e1d195b9cda5bdb88189b1858dadb1a5cdd1959605a1b604082015260600190565b634e487b7160e01b600052603260045260246000fd5b634e487b7160e01b600052601160045260246000fd5b6000600182016154f9576154f96154d1565b5060010190565b6020808252601f908201527f5265656e7472616e637947756172643a207265656e7472616e742063616c6c00604082015260600190565b6020808252600d908201526c125b9d985b1a59081a5b9c1d5d609a1b604082015260600190565b6020808252601c908201527f4d757374206265207265676973746572656420657874656e73696f6e00000000604082015260600190565b6000808335601e198436030181126155ac57600080fd5b8301803591506001600160401b038211156155c657600080fd5b60200191503681900382131561093157600080fd5b6020808252602e908201527f496e697469616c697a61626c653a20636f6e747261637420697320616c72656160408201526d191e481a5b9a5d1a585b1a5e995960921b606082015260800190565b600061563483614cb9565b6040516156418282614c8d565b84815260208082019250600586901b85013681111561565f57600080fd5b855b818110156156ae5780356001600160401b038111156156805760008081fd5b870136601f8201126156925760008081fd5b6156a0368235868401614d74565b865250938201938201615661565b50919695505050505050565b600181811c908216806156ce57607f821691505b60208210810361218157634e487b7160e01b600052602260045260246000fd5b600081546156fb816156ba565b60018281168015615713576001811461572857615757565b60ff1984168752821515830287019450615757565b8560005260208060002060005b8581101561574e5781548a820152908401908201615735565b50505082870194505b5050505092915050565b6000613ad661577083866156ee565b846156ee565b60006020828403121561578857600080fd5b81516001600160401b0381111561579e57600080fd5b8201601f810184136157af57600080fd5b80516157ba81614d4d565b6040516157c78282614c8d565b8281528660208486010111156157dc57600080fd5b6143ca836020830160208701614a5b565b60006157f982856156ee565b8351615809818360208801614a5b565b01949350505050565b601f82111561087857600081815260208120601f850160051c810160208610156158395750805b601f850160051c820191505b818110156126dd57828155600101615845565b6001600160401b0383111561586f5761586f614c77565b6158838361587d83546156ba565b83615812565b6000601f8411600181146158b7576000851561589f5750838201355b600019600387901b1c1916600186901b1783556108d4565b600083815260209020601f19861690835b828110156158e857868501358255602094850194600190920191016158c8565b50868210156159055760001960f88860031b161c19848701351681555b505060018560011b0183555050505050565b80820180821115610732576107326154d1565b6040808252810184905260008560608301825b8781101561596d578235615950816149b1565b6001600160a01b031682526020928301929091019060010161593d565b5083810360208501528481526001600160fb1b0385111561598d57600080fd5b8460051b915081866020830137016020019695505050505050565b8082028115828204841417610732576107326154d1565b634e487b7160e01b600052601260045260246000fd5b6000826159e4576159e46159bf565b500490565b60208082526028908201527f455243313135353a2069647320616e6420616d6f756e7473206c656e677468206040820152670dad2e6dac2e8c6d60c31b606082015260800190565b60208082526025908201527f455243313135353a207472616e7366657220746f20746865207a65726f206164604082015264647265737360d81b606082015260800190565b6020808252602a908201527f455243313135353a20696e73756666696369656e742062616c616e636520666f60408201526939103a3930b739b332b960b11b606082015260800190565b6040815260006153626040830185614abe565b81516001600160401b03811115615aec57615aec614c77565b615b0081615afa84546156ba565b84615812565b602080601f831160018114615b355760008415615b1d5750858301515b600019600386901b1c1916600185901b1785556126dd565b600085815260208120601f198616915b82811015615b6457888601518255948401946001909101908401615b45565b5085821015615b825787850151600019600388901b60f8161c191681555b5050505050600190811b01905550565b81810381811115610732576107326154d1565b6001600160a01b0384168152606060208201819052600090615bc990830185614abe565b82810360408401526143ca8185614abe565b600082615bea57615bea6159bf565b500690565b634e487b7160e01b600052603160045260246000fd5b6001600160a01b0386811682528516602082015260a060408201819052600090615c3190830186614abe565b8281036060840152615c438186614abe565b90508281036080840152615c578185614a7f565b98975050505050505050565b600060208284031215615c7557600080fd5b8151611e0b816149f2565b600060033d1115615c995760046000803e5060005160e01c5b90565b600060443d1015615caa5790565b6040516003193d81016004833e81513d6001600160401b038160248401118184111715615cd957505050505090565b8285019150815181811115615cf15750505050505090565b843d8701016020828501011115615d0b5750505050505090565b615d1a60208286010187614c8d565b509095945050505050565b60208082526028908201527f455243313135353a204552433131353552656365697665722072656a656374656040820152676420746f6b656e7360c01b606082015260800190565b60208082526023908201527f455243313135353a206275726e2066726f6d20746865207a65726f206164647260408201526265737360e81b606082015260800190565b60208082526024908201527f455243313135353a206275726e20616d6f756e7420657863656564732062616c604082015263616e636560e01b606082015260800190565b6001600160a01b0385168152608060208201819052600090615e1890830186614f03565b8281036040840152615e2a8186614abe565b90508281036060840152615e3e8185614abe565b979650505050505050565b60008251615e5b818460208701614a5b565b9190910192915050565b600060208284031215615e7757600080fd5b8151611e0b8161502f565b6001600160a01b03868116825285166020820152604081018490526060810183905260a060808201819052600090615e3e90830184614a7f565b6001600160a01b03858116825284166020820152608060408201819052600090615ee890830185614abe565b8281036060840152615e3e8185614abe565b60208082526021908201527f455243313135353a206d696e7420746f20746865207a65726f206164647265736040820152607360f81b60608201526080019056fea264697066735822122024e5c3294cf437b85140b00bb27abfc571b20e843cd99949cff739528d06ff0d64736f6c63430008110033",
  "linkReferences": {},
  "deployedLinkReferences": {}
}