{
  "_format": "hh-sol-artifact-1",
  "contractName": "GuardManager",
  "sourceName": "contracts/gnosis/base/GuardManager.sol",
  "abi": [
    {
      "inputs": [
        {
          "internalType": "address",
          "name": "guard",
          "type": "address"
        }
      ],
      "name": "setGuard",
      "outputs": [],
      "stateMutability": "nonpayable",
      "type": "function"
    }
  ],
  "bytecode": "0x608060405234801561001057600080fd5b50610108806100206000396000f3fe6080604052348015600f57600080fd5b506004361060285760003560e01c8063e19a9dd914602d575b600080fd5b603c603836600460a4565b603e565b005b60446068565b7f4a204f620c8c5ccdca3fd54d003badd85ba500436a431f0cbda4f558c93c34c855565b33301460a25760405162461bcd60e51b8152602060048201526005602482015264475330333160d81b604482015260640160405180910390fd5b565b60006020828403121560b557600080fd5b81356001600160a01b038116811460cb57600080fd5b939250505056fea2646970667358221220d1fadfa218d4bb73b82d36a3e98ebc343024565f4a782d0b57d66867b6410a7564736f6c63430008110033",
  "linkReferences": {},
  "deployedLinkReferences": {}
}