{
  "_format": "hh-sol-artifact-1",
  "contractName": "ERC721CreatorEnumerable",
  "sourceName": "contracts/manifold/creator-core/ERC721CreatorEnumerable.sol",
  "abi": [
    {
      "inputs": [
        {
          "internalType": "string",
          "name": "_name",
          "type": "string"
        },
        {
          "internalType": "string",
          "name": "_symbol",
          "type": "string"
        }
      ],
      "stateMutability": "nonpayable",
      "type": "constructor"
    },
    {
      "anonymous": false,
      "inputs": [
        {
          "indexed": true,
          "internalType": "address",
          "name": "account",
          "type": "address"
        },
        {
          "indexed": true,
          "internalType": "address",
          "name": "sender",
          "type": "address"
        }
      ],
      "name": "AdminApproved",
      "type": "event"
    },
    {
      "anonymous": false,
      "inputs": [
        {
          "indexed": true,
          "internalType": "address",
          "name": "account",
          "type": "address"
        },
        {
          "indexed": true,
          "internalType": "address",
          "name": "sender",
          "type": "address"
        }
      ],
      "name": "AdminRevoked",
      "type": "event"
    },
    {
      "anonymous": false,
      "inputs": [
        {
          "indexed": true,
          "internalType": "address",
          "name": "owner",
          "type": "address"
        },
        {
          "indexed": true,
          "internalType": "address",
          "name": "approved",
          "type": "address"
        },
        {
          "indexed": true,
          "internalType": "uint256",
          "name": "tokenId",
          "type": "uint256"
        }
      ],
      "name": "Approval",
      "type": "event"
    },
    {
      "anonymous": false,
      "inputs": [
        {
          "indexed": true,
          "internalType": "address",
          "name": "owner",
          "type": "address"
        },
        {
          "indexed": true,
          "internalType": "address",
          "name": "operator",
          "type": "address"
        },
        {
          "indexed": false,
          "internalType": "bool",
          "name": "approved",
          "type": "bool"
        }
      ],
      "name": "ApprovalForAll",
      "type": "event"
    },
    {
      "anonymous": false,
      "inputs": [
        {
          "indexed": false,
          "internalType": "address payable[]",
          "name": "receivers",
          "type": "address[]"
        },
        {
          "indexed": false,
          "internalType": "uint256[]",
          "name": "basisPoints",
          "type": "uint256[]"
        }
      ],
      "name": "DefaultRoyaltiesUpdated",
      "type": "event"
    },
    {
      "anonymous": false,
      "inputs": [
        {
          "indexed": true,
          "internalType": "address",
          "name": "extension",
          "type": "address"
        },
        {
          "indexed": false,
          "internalType": "bool",
          "name": "enabled",
          "type": "bool"
        }
      ],
      "name": "ExtensionApproveTransferUpdated",
      "type": "event"
    },
    {
      "anonymous": false,
      "inputs": [
        {
          "indexed": true,
          "internalType": "address",
          "name": "extension",
          "type": "address"
        },
        {
          "indexed": true,
          "internalType": "address",
          "name": "sender",
          "type": "address"
        }
      ],
      "name": "ExtensionBlacklisted",
      "type": "event"
    },
    {
      "anonymous": false,
      "inputs": [
        {
          "indexed": true,
          "internalType": "address",
          "name": "extension",
          "type": "address"
        },
        {
          "indexed": true,
          "internalType": "address",
          "name": "sender",
          "type": "address"
        }
      ],
      "name": "ExtensionRegistered",
      "type": "event"
    },
    {
      "anonymous": false,
      "inputs": [
        {
          "indexed": true,
          "internalType": "address",
          "name": "extension",
          "type": "address"
        },
        {
          "indexed": false,
          "internalType": "address payable[]",
          "name": "receivers",
          "type": "address[]"
        },
        {
          "indexed": false,
          "internalType": "uint256[]",
          "name": "basisPoints",
          "type": "uint256[]"
        }
      ],
      "name": "ExtensionRoyaltiesUpdated",
      "type": "event"
    },
    {
      "anonymous": false,
      "inputs": [
        {
          "indexed": true,
          "internalType": "address",
          "name": "extension",
          "type": "address"
        },
        {
          "indexed": true,
          "internalType": "address",
          "name": "sender",
          "type": "address"
        }
      ],
      "name": "ExtensionUnregistered",
      "type": "event"
    },
    {
      "anonymous": false,
      "inputs": [
        {
          "indexed": true,
          "internalType": "address",
          "name": "extension",
          "type": "address"
        },
        {
          "indexed": true,
          "internalType": "address",
          "name": "permissions",
          "type": "address"
        },
        {
          "indexed": true,
          "internalType": "address",
          "name": "sender",
          "type": "address"
        }
      ],
      "name": "MintPermissionsUpdated",
      "type": "event"
    },
    {
      "anonymous": false,
      "inputs": [
        {
          "indexed": true,
          "internalType": "address",
          "name": "previousOwner",
          "type": "address"
        },
        {
          "indexed": true,
          "internalType": "address",
          "name": "newOwner",
          "type": "address"
        }
      ],
      "name": "OwnershipTransferred",
      "type": "event"
    },
    {
      "anonymous": false,
      "inputs": [
        {
          "indexed": true,
          "internalType": "uint256",
          "name": "tokenId",
          "type": "uint256"
        },
        {
          "indexed": false,
          "internalType": "address payable[]",
          "name": "receivers",
          "type": "address[]"
        },
        {
          "indexed": false,
          "internalType": "uint256[]",
          "name": "basisPoints",
          "type": "uint256[]"
        }
      ],
      "name": "RoyaltiesUpdated",
      "type": "event"
    },
    {
      "anonymous": false,
      "inputs": [
        {
          "indexed": true,
          "internalType": "address",
          "name": "from",
          "type": "address"
        },
        {
          "indexed": true,
          "internalType": "address",
          "name": "to",
          "type": "address"
        },
        {
          "indexed": true,
          "internalType": "uint256",
          "name": "tokenId",
          "type": "uint256"
        }
      ],
      "name": "Transfer",
      "type": "event"
    },
    {
      "inputs": [
        {
          "internalType": "address",
          "name": "to",
          "type": "address"
        },
        {
          "internalType": "uint256",
          "name": "tokenId",
          "type": "uint256"
        }
      ],
      "name": "approve",
      "outputs": [],
      "stateMutability": "nonpayable",
      "type": "function"
    },
    {
      "inputs": [
        {
          "internalType": "address",
          "name": "admin",
          "type": "address"
        }
      ],
      "name": "approveAdmin",
      "outputs": [],
      "stateMutability": "nonpayable",
      "type": "function"
    },
    {
      "inputs": [
        {
          "internalType": "address",
          "name": "owner",
          "type": "address"
        }
      ],
      "name": "balanceOf",
      "outputs": [
        {
          "internalType": "uint256",
          "name": "",
          "type": "uint256"
        }
      ],
      "stateMutability": "view",
      "type": "function"
    },
    {
      "inputs": [
        {
          "internalType": "address",
          "name": "owner",
          "type": "address"
        }
      ],
      "name": "balanceOfBase",
      "outputs": [
        {
          "internalType": "uint256",
          "name": "",
          "type": "uint256"
        }
      ],
      "stateMutability": "view",
      "type": "function"
    },
    {
      "inputs": [
        {
          "internalType": "address",
          "name": "extension",
          "type": "address"
        },
        {
          "internalType": "address",
          "name": "owner",
          "type": "address"
        }
      ],
      "name": "balanceOfExtension",
      "outputs": [
        {
          "internalType": "uint256",
          "name": "",
          "type": "uint256"
        }
      ],
      "stateMutability": "view",
      "type": "function"
    },
    {
      "inputs": [
        {
          "internalType": "address",
          "name": "extension",
          "type": "address"
        }
      ],
      "name": "blacklistExtension",
      "outputs": [],
      "stateMutability": "nonpayable",
      "type": "function"
    },
    {
      "inputs": [
        {
          "internalType": "uint256",
          "name": "tokenId",
          "type": "uint256"
        }
      ],
      "name": "burn",
      "outputs": [],
      "stateMutability": "nonpayable",
      "type": "function"
    },
    {
      "inputs": [],
      "name": "getAdmins",
      "outputs": [
        {
          "internalType": "address[]",
          "name": "admins",
          "type": "address[]"
        }
      ],
      "stateMutability": "view",
      "type": "function"
    },
    {
      "inputs": [
        {
          "internalType": "uint256",
          "name": "tokenId",
          "type": "uint256"
        }
      ],
      "name": "getApproved",
      "outputs": [
        {
          "internalType": "address",
          "name": "",
          "type": "address"
        }
      ],
      "stateMutability": "view",
      "type": "function"
    },
    {
      "inputs": [],
      "name": "getExtensions",
      "outputs": [
        {
          "internalType": "address[]",
          "name": "extensions",
          "type": "address[]"
        }
      ],
      "stateMutability": "view",
      "type": "function"
    },
    {
      "inputs": [
        {
          "internalType": "uint256",
          "name": "tokenId",
          "type": "uint256"
        }
      ],
      "name": "getFeeBps",
      "outputs": [
        {
          "internalType": "uint256[]",
          "name": "",
          "type": "uint256[]"
        }
      ],
      "stateMutability": "view",
      "type": "function"
    },
    {
      "inputs": [
        {
          "internalType": "uint256",
          "name": "tokenId",
          "type": "uint256"
        }
      ],
      "name": "getFeeRecipients",
      "outputs": [
        {
          "internalType": "address payable[]",
          "name": "",
          "type": "address[]"
        }
      ],
      "stateMutability": "view",
      "type": "function"
    },
    {
      "inputs": [
        {
          "internalType": "uint256",
          "name": "tokenId",
          "type": "uint256"
        }
      ],
      "name": "getFees",
      "outputs": [
        {
          "internalType": "address payable[]",
          "name": "",
          "type": "address[]"
        },
        {
          "internalType": "uint256[]",
          "name": "",
          "type": "uint256[]"
        }
      ],
      "stateMutability": "view",
      "type": "function"
    },
    {
      "inputs": [
        {
          "internalType": "uint256",
          "name": "tokenId",
          "type": "uint256"
        }
      ],
      "name": "getRoyalties",
      "outputs": [
        {
          "internalType": "address payable[]",
          "name": "",
          "type": "address[]"
        },
        {
          "internalType": "uint256[]",
          "name": "",
          "type": "uint256[]"
        }
      ],
      "stateMutability": "view",
      "type": "function"
    },
    {
      "inputs": [
        {
          "internalType": "address",
          "name": "admin",
          "type": "address"
        }
      ],
      "name": "isAdmin",
      "outputs": [
        {
          "internalType": "bool",
          "name": "",
          "type": "bool"
        }
      ],
      "stateMutability": "view",
      "type": "function"
    },
    {
      "inputs": [
        {
          "internalType": "address",
          "name": "owner",
          "type": "address"
        },
        {
          "internalType": "address",
          "name": "operator",
          "type": "address"
        }
      ],
      "name": "isApprovedForAll",
      "outputs": [
        {
          "internalType": "bool",
          "name": "",
          "type": "bool"
        }
      ],
      "stateMutability": "view",
      "type": "function"
    },
    {
      "inputs": [
        {
          "internalType": "address",
          "name": "to",
          "type": "address"
        }
      ],
      "name": "mintBase",
      "outputs": [
        {
          "internalType": "uint256",
          "name": "",
          "type": "uint256"
        }
      ],
      "stateMutability": "nonpayable",
      "type": "function"
    },
    {
      "inputs": [
        {
          "internalType": "address",
          "name": "to",
          "type": "address"
        },
        {
          "internalType": "string",
          "name": "uri",
          "type": "string"
        }
      ],
      "name": "mintBase",
      "outputs": [
        {
          "internalType": "uint256",
          "name": "",
          "type": "uint256"
        }
      ],
      "stateMutability": "nonpayable",
      "type": "function"
    },
    {
      "inputs": [
        {
          "internalType": "address",
          "name": "to",
          "type": "address"
        },
        {
          "internalType": "string[]",
          "name": "uris",
          "type": "string[]"
        }
      ],
      "name": "mintBaseBatch",
      "outputs": [
        {
          "internalType": "uint256[]",
          "name": "tokenIds",
          "type": "uint256[]"
        }
      ],
      "stateMutability": "nonpayable",
      "type": "function"
    },
    {
      "inputs": [
        {
          "internalType": "address",
          "name": "to",
          "type": "address"
        },
        {
          "internalType": "uint16",
          "name": "count",
          "type": "uint16"
        }
      ],
      "name": "mintBaseBatch",
      "outputs": [
        {
          "internalType": "uint256[]",
          "name": "tokenIds",
          "type": "uint256[]"
        }
      ],
      "stateMutability": "nonpayable",
      "type": "function"
    },
    {
      "inputs": [
        {
          "internalType": "address",
          "name": "to",
          "type": "address"
        }
      ],
      "name": "mintExtension",
      "outputs": [
        {
          "internalType": "uint256",
          "name": "",
          "type": "uint256"
        }
      ],
      "stateMutability": "nonpayable",
      "type": "function"
    },
    {
      "inputs": [
        {
          "internalType": "address",
          "name": "to",
          "type": "address"
        },
        {
          "internalType": "string",
          "name": "uri",
          "type": "string"
        }
      ],
      "name": "mintExtension",
      "outputs": [
        {
          "internalType": "uint256",
          "name": "",
          "type": "uint256"
        }
      ],
      "stateMutability": "nonpayable",
      "type": "function"
    },
    {
      "inputs": [
        {
          "internalType": "address",
          "name": "to",
          "type": "address"
        },
        {
          "internalType": "string[]",
          "name": "uris",
          "type": "string[]"
        }
      ],
      "name": "mintExtensionBatch",
      "outputs": [
        {
          "internalType": "uint256[]",
          "name": "tokenIds",
          "type": "uint256[]"
        }
      ],
      "stateMutability": "nonpayable",
      "type": "function"
    },
    {
      "inputs": [
        {
          "internalType": "address",
          "name": "to",
          "type": "address"
        },
        {
          "internalType": "uint16",
          "name": "count",
          "type": "uint16"
        }
      ],
      "name": "mintExtensionBatch",
      "outputs": [
        {
          "internalType": "uint256[]",
          "name": "tokenIds",
          "type": "uint256[]"
        }
      ],
      "stateMutability": "nonpayable",
      "type": "function"
    },
    {
      "inputs": [],
      "name": "name",
      "outputs": [
        {
          "internalType": "string",
          "name": "",
          "type": "string"
        }
      ],
      "stateMutability": "view",
      "type": "function"
    },
    {
      "inputs": [],
      "name": "owner",
      "outputs": [
        {
          "internalType": "address",
          "name": "",
          "type": "address"
        }
      ],
      "stateMutability": "view",
      "type": "function"
    },
    {
      "inputs": [
        {
          "internalType": "uint256",
          "name": "tokenId",
          "type": "uint256"
        }
      ],
      "name": "ownerOf",
      "outputs": [
        {
          "internalType": "address",
          "name": "",
          "type": "address"
        }
      ],
      "stateMutability": "view",
      "type": "function"
    },
    {
      "inputs": [
        {
          "internalType": "address",
          "name": "extension",
          "type": "address"
        },
        {
          "internalType": "string",
          "name": "baseURI",
          "type": "string"
        }
      ],
      "name": "registerExtension",
      "outputs": [],
      "stateMutability": "nonpayable",
      "type": "function"
    },
    {
      "inputs": [
        {
          "internalType": "address",
          "name": "extension",
          "type": "address"
        },
        {
          "internalType": "string",
          "name": "baseURI",
          "type": "string"
        },
        {
          "internalType": "bool",
          "name": "baseURIIdentical",
          "type": "bool"
        }
      ],
      "name": "registerExtension",
      "outputs": [],
      "stateMutability": "nonpayable",
      "type": "function"
    },
    {
      "inputs": [],
      "name": "renounceOwnership",
      "outputs": [],
      "stateMutability": "nonpayable",
      "type": "function"
    },
    {
      "inputs": [
        {
          "internalType": "address",
          "name": "admin",
          "type": "address"
        }
      ],
      "name": "revokeAdmin",
      "outputs": [],
      "stateMutability": "nonpayable",
      "type": "function"
    },
    {
      "inputs": [
        {
          "internalType": "uint256",
          "name": "tokenId",
          "type": "uint256"
        },
        {
          "internalType": "uint256",
          "name": "value",
          "type": "uint256"
        }
      ],
      "name": "royaltyInfo",
      "outputs": [
        {
          "internalType": "address",
          "name": "",
          "type": "address"
        },
        {
          "internalType": "uint256",
          "name": "",
          "type": "uint256"
        }
      ],
      "stateMutability": "view",
      "type": "function"
    },
    {
      "inputs": [
        {
          "internalType": "address",
          "name": "from",
          "type": "address"
        },
        {
          "internalType": "address",
          "name": "to",
          "type": "address"
        },
        {
          "internalType": "uint256",
          "name": "tokenId",
          "type": "uint256"
        }
      ],
      "name": "safeTransferFrom",
      "outputs": [],
      "stateMutability": "nonpayable",
      "type": "function"
    },
    {
      "inputs": [
        {
          "internalType": "address",
          "name": "from",
          "type": "address"
        },
        {
          "internalType": "address",
          "name": "to",
          "type": "address"
        },
        {
          "internalType": "uint256",
          "name": "tokenId",
          "type": "uint256"
        },
        {
          "internalType": "bytes",
          "name": "_data",
          "type": "bytes"
        }
      ],
      "name": "safeTransferFrom",
      "outputs": [],
      "stateMutability": "nonpayable",
      "type": "function"
    },
    {
      "inputs": [
        {
          "internalType": "address",
          "name": "operator",
          "type": "address"
        },
        {
          "internalType": "bool",
          "name": "approved",
          "type": "bool"
        }
      ],
      "name": "setApprovalForAll",
      "outputs": [],
      "stateMutability": "nonpayable",
      "type": "function"
    },
    {
      "inputs": [
        {
          "internalType": "bool",
          "name": "enabled",
          "type": "bool"
        }
      ],
      "name": "setApproveTransferExtension",
      "outputs": [],
      "stateMutability": "nonpayable",
      "type": "function"
    },
    {
      "inputs": [
        {
          "internalType": "string",
          "name": "uri",
          "type": "string"
        }
      ],
      "name": "setBaseTokenURI",
      "outputs": [],
      "stateMutability": "nonpayable",
      "type": "function"
    },
    {
      "inputs": [
        {
          "internalType": "string",
          "name": "uri",
          "type": "string"
        }
      ],
      "name": "setBaseTokenURIExtension",
      "outputs": [],
      "stateMutability": "nonpayable",
      "type": "function"
    },
    {
      "inputs": [
        {
          "internalType": "string",
          "name": "uri",
          "type": "string"
        },
        {
          "internalType": "bool",
          "name": "identical",
          "type": "bool"
        }
      ],
      "name": "setBaseTokenURIExtension",
      "outputs": [],
      "stateMutability": "nonpayable",
      "type": "function"
    },
    {
      "inputs": [
        {
          "internalType": "address",
          "name": "extension",
          "type": "address"
        },
        {
          "internalType": "address",
          "name": "permissions",
          "type": "address"
        }
      ],
      "name": "setMintPermissions",
      "outputs": [],
      "stateMutability": "nonpayable",
      "type": "function"
    },
    {
      "inputs": [
        {
          "internalType": "uint256",
          "name": "tokenId",
          "type": "uint256"
        },
        {
          "internalType": "address payable[]",
          "name": "receivers",
          "type": "address[]"
        },
        {
          "internalType": "uint256[]",
          "name": "basisPoints",
          "type": "uint256[]"
        }
      ],
      "name": "setRoyalties",
      "outputs": [],
      "stateMutability": "nonpayable",
      "type": "function"
    },
    {
      "inputs": [
        {
          "internalType": "address payable[]",
          "name": "receivers",
          "type": "address[]"
        },
        {
          "internalType": "uint256[]",
          "name": "basisPoints",
          "type": "uint256[]"
        }
      ],
      "name": "setRoyalties",
      "outputs": [],
      "stateMutability": "nonpayable",
      "type": "function"
    },
    {
      "inputs": [
        {
          "internalType": "address",
          "name": "extension",
          "type": "address"
        },
        {
          "internalType": "address payable[]",
          "name": "receivers",
          "type": "address[]"
        },
        {
          "internalType": "uint256[]",
          "name": "basisPoints",
          "type": "uint256[]"
        }
      ],
      "name": "setRoyaltiesExtension",
      "outputs": [],
      "stateMutability": "nonpayable",
      "type": "function"
    },
    {
      "inputs": [
        {
          "internalType": "uint256",
          "name": "tokenId",
          "type": "uint256"
        },
        {
          "internalType": "string",
          "name": "uri",
          "type": "string"
        }
      ],
      "name": "setTokenURI",
      "outputs": [],
      "stateMutability": "nonpayable",
      "type": "function"
    },
    {
      "inputs": [
        {
          "internalType": "uint256[]",
          "name": "tokenIds",
          "type": "uint256[]"
        },
        {
          "internalType": "string[]",
          "name": "uris",
          "type": "string[]"
        }
      ],
      "name": "setTokenURI",
      "outputs": [],
      "stateMutability": "nonpayable",
      "type": "function"
    },
    {
      "inputs": [
        {
          "internalType": "uint256[]",
          "name": "tokenIds",
          "type": "uint256[]"
        },
        {
          "internalType": "string[]",
          "name": "uris",
          "type": "string[]"
        }
      ],
      "name": "setTokenURIExtension",
      "outputs": [],
      "stateMutability": "nonpayable",
      "type": "function"
    },
    {
      "inputs": [
        {
          "internalType": "uint256",
          "name": "tokenId",
          "type": "uint256"
        },
        {
          "internalType": "string",
          "name": "uri",
          "type": "string"
        }
      ],
      "name": "setTokenURIExtension",
      "outputs": [],
      "stateMutability": "nonpayable",
      "type": "function"
    },
    {
      "inputs": [
        {
          "internalType": "string",
          "name": "prefix",
          "type": "string"
        }
      ],
      "name": "setTokenURIPrefix",
      "outputs": [],
      "stateMutability": "nonpayable",
      "type": "function"
    },
    {
      "inputs": [
        {
          "internalType": "string",
          "name": "prefix",
          "type": "string"
        }
      ],
      "name": "setTokenURIPrefixExtension",
      "outputs": [],
      "stateMutability": "nonpayable",
      "type": "function"
    },
    {
      "inputs": [
        {
          "internalType": "bytes4",
          "name": "interfaceId",
          "type": "bytes4"
        }
      ],
      "name": "supportsInterface",
      "outputs": [
        {
          "internalType": "bool",
          "name": "",
          "type": "bool"
        }
      ],
      "stateMutability": "view",
      "type": "function"
    },
    {
      "inputs": [],
      "name": "symbol",
      "outputs": [
        {
          "internalType": "string",
          "name": "",
          "type": "string"
        }
      ],
      "stateMutability": "view",
      "type": "function"
    },
    {
      "inputs": [
        {
          "internalType": "uint256",
          "name": "index",
          "type": "uint256"
        }
      ],
      "name": "tokenByIndex",
      "outputs": [
        {
          "internalType": "uint256",
          "name": "",
          "type": "uint256"
        }
      ],
      "stateMutability": "view",
      "type": "function"
    },
    {
      "inputs": [
        {
          "internalType": "uint256",
          "name": "index",
          "type": "uint256"
        }
      ],
      "name": "tokenByIndexBase",
      "outputs": [
        {
          "internalType": "uint256",
          "name": "",
          "type": "uint256"
        }
      ],
      "stateMutability": "view",
      "type": "function"
    },
    {
      "inputs": [
        {
          "internalType": "address",
          "name": "extension",
          "type": "address"
        },
        {
          "internalType": "uint256",
          "name": "index",
          "type": "uint256"
        }
      ],
      "name": "tokenByIndexExtension",
      "outputs": [
        {
          "internalType": "uint256",
          "name": "",
          "type": "uint256"
        }
      ],
      "stateMutability": "view",
      "type": "function"
    },
    {
      "inputs": [
        {
          "internalType": "uint256",
          "name": "tokenId",
          "type": "uint256"
        }
      ],
      "name": "tokenExtension",
      "outputs": [
        {
          "internalType": "address",
          "name": "",
          "type": "address"
        }
      ],
      "stateMutability": "view",
      "type": "function"
    },
    {
      "inputs": [
        {
          "internalType": "address",
          "name": "owner",
          "type": "address"
        },
        {
          "internalType": "uint256",
          "name": "index",
          "type": "uint256"
        }
      ],
      "name": "tokenOfOwnerByIndex",
      "outputs": [
        {
          "internalType": "uint256",
          "name": "",
          "type": "uint256"
        }
      ],
      "stateMutability": "view",
      "type": "function"
    },
    {
      "inputs": [
        {
          "internalType": "address",
          "name": "owner",
          "type": "address"
        },
        {
          "internalType": "uint256",
          "name": "index",
          "type": "uint256"
        }
      ],
      "name": "tokenOfOwnerByIndexBase",
      "outputs": [
        {
          "internalType": "uint256",
          "name": "",
          "type": "uint256"
        }
      ],
      "stateMutability": "view",
      "type": "function"
    },
    {
      "inputs": [
        {
          "internalType": "address",
          "name": "extension",
          "type": "address"
        },
        {
          "internalType": "address",
          "name": "owner",
          "type": "address"
        },
        {
          "internalType": "uint256",
          "name": "index",
          "type": "uint256"
        }
      ],
      "name": "tokenOfOwnerByIndexExtension",
      "outputs": [
        {
          "internalType": "uint256",
          "name": "",
          "type": "uint256"
        }
      ],
      "stateMutability": "view",
      "type": "function"
    },
    {
      "inputs": [
        {
          "internalType": "uint256",
          "name": "tokenId",
          "type": "uint256"
        }
      ],
      "name": "tokenURI",
      "outputs": [
        {
          "internalType": "string",
          "name": "",
          "type": "string"
        }
      ],
      "stateMutability": "view",
      "type": "function"
    },
    {
      "inputs": [],
      "name": "totalSupply",
      "outputs": [
        {
          "internalType": "uint256",
          "name": "",
          "type": "uint256"
        }
      ],
      "stateMutability": "view",
      "type": "function"
    },
    {
      "inputs": [],
      "name": "totalSupplyBase",
      "outputs": [
        {
          "internalType": "uint256",
          "name": "",
          "type": "uint256"
        }
      ],
      "stateMutability": "view",
      "type": "function"
    },
    {
      "inputs": [
        {
          "internalType": "address",
          "name": "extension",
          "type": "address"
        }
      ],
      "name": "totalSupplyExtension",
      "outputs": [
        {
          "internalType": "uint256",
          "name": "",
          "type": "uint256"
        }
      ],
      "stateMutability": "view",
      "type": "function"
    },
    {
      "inputs": [
        {
          "internalType": "address",
          "name": "from",
          "type": "address"
        },
        {
          "internalType": "address",
          "name": "to",
          "type": "address"
        },
        {
          "internalType": "uint256",
          "name": "tokenId",
          "type": "uint256"
        }
      ],
      "name": "transferFrom",
      "outputs": [],
      "stateMutability": "nonpayable",
      "type": "function"
    },
    {
      "inputs": [
        {
          "internalType": "address",
          "name": "newOwner",
          "type": "address"
        }
      ],
      "name": "transferOwnership",
      "outputs": [],
      "stateMutability": "nonpayable",
      "type": "function"
    },
    {
      "inputs": [
        {
          "internalType": "address",
          "name": "extension",
          "type": "address"
        }
      ],
      "name": "unregisterExtension",
      "outputs": [],
      "stateMutability": "nonpayable",
      "type": "function"
    }
  ],
  "bytecode": "0x60806040526000600a553480156200001657600080fd5b5060405162005f4038038062005f40833981016040819052620000399162000173565b600080546001600160a01b031916339081178255604051849284928492849282917f8be0079c531659141344cd1fd0a4f28419497f9722a3daafe3b4186f6b6457e0908290a3506001805560046200009283826200026c565b506005620000a182826200026c565b5050505050505062000338565b634e487b7160e01b600052604160045260246000fd5b600082601f830112620000d657600080fd5b81516001600160401b0380821115620000f357620000f3620000ae565b604051601f8301601f19908116603f011681019082821181831017156200011e576200011e620000ae565b816040528381526020925086838588010111156200013b57600080fd5b600091505b838210156200015f578582018301518183018401529082019062000140565b600093810190920192909252949350505050565b600080604083850312156200018757600080fd5b82516001600160401b03808211156200019f57600080fd5b620001ad86838701620000c4565b93506020850151915080821115620001c457600080fd5b50620001d385828601620000c4565b9150509250929050565b600181811c90821680620001f257607f821691505b6020821081036200021357634e487b7160e01b600052602260045260246000fd5b50919050565b601f8211156200026757600081815260208120601f850160051c81016020861015620002425750805b601f850160051c820191505b8181101562000263578281556001016200024e565b5050505b505050565b81516001600160401b03811115620002885762000288620000ae565b620002a081620002998454620001dd565b8462000219565b602080601f831160018114620002d85760008415620002bf5750858301515b600019600386901b1c1916600185901b17855562000263565b600085815260208120601f198616915b828110156200030957888601518255948401946001909101908401620002e8565b5085821015620003285787850151600019600388901b60f8161c191681555b5050505050600190811b01905550565b615bf880620003486000396000f3fe608060405234801561001057600080fd5b50600436106103db5760003560e01c80636352211e1161020a578063ac0c8cfa11610125578063d29c2cdc116100b8578063e92a89f611610087578063e92a89f6146108c0578063e985e9c5146108d3578063f0cdc4991461090f578063f2fde38b14610922578063fe2e1f581461093557600080fd5b8063d29c2cdc14610887578063d5a06d4c14610840578063dfa2be341461089a578063e00aab4b146108ad57600080fd5b8063b9c4d9fb116100f4578063b9c4d9fb14610820578063bb3bafd614610840578063c87b56dd14610861578063ce8aee9d1461087457600080fd5b8063ac0c8cfa146107d4578063ad2d0ddd146107e7578063b0fe87c9146107fa578063b88d4fde1461080d57600080fd5b80637aa15f161161019d57806395d89b411161016c57806395d89b411461079357806399e0dd7c1461079b578063a22cb465146107ae578063aafb2d44146107c157600080fd5b80637aa15f161461075457806382dcc0c81461076757806383b7db631461077a5780638da5cb5b1461078257600080fd5b806370a08231116101d957806370a0823114610713578063715018a61461072657806372ff03d31461072e5780637884af441461074157600080fd5b80636352211e146106c757806366d1e9d0146106da5780636bede91f146106ed5780636d73e6691461070057600080fd5b80632928ca58116102fa57806338e52e781161028d57806342966c681161025c57806342966c681461067b5780634f6ccce71461068e57806361e5bc6b146106a157806361ffad5b146106b457600080fd5b806338e52e781461062f5780633e6134b8146106425780633f0f37f61461065557806342842e0e1461066857600080fd5b806330176e13116102c957806330176e13146105e15780633071a0f9146105f457806331ae450b14610607578063332dd1ae1461061c57600080fd5b80632928ca58146105765780632a55205a146105895780632d345670146105bb5780632f745c59146105ce57600080fd5b80630ebd4c7f11610372578063239be31711610341578063239be3171461052857806323b872dd1461053b57806324d7806c1461054e578063278cc7a01461056157600080fd5b80630ebd4c7f146104da578063162094c4146104fa57806318160ddd1461050d57806320e4afe21461051557600080fd5b8063075ee464116103ae578063075ee46414610453578063081812fc14610466578063095ea7b3146104915780630c8066bc146104a457600080fd5b806301ffc9a7146103e057806302e7afb71461040857806305e6b09b1461041d57806306fdde031461043e575b600080fd5b6103f36103ee366004614b9c565b610948565b60405190151581526020015b60405180910390f35b61041b610416366004614bce565b610982565b005b61043061042b366004614bce565b6109e1565b6040519081526020016103ff565b610446610a2e565b6040516103ff9190614c3b565b610430610461366004614c4e565b610ac0565b610479610474366004614c87565b610b18565b6040516001600160a01b0390911681526020016103ff565b61041b61049f366004614ca0565b610ba0565b6104306104b2366004614bce565b306000908152601d602090815260408083206001600160a01b03949094168352929052205490565b6104ed6104e8366004614c87565b610cb5565b6040516103ff9190614d07565b61041b610508366004614d5b565b610d3b565b602254610430565b61041b610523366004614dea565b610d90565b610479610536366004614c87565b610e13565b61041b610549366004614e63565b610e43565b6103f361055c366004614bce565b610e74565b306000908152601a6020526040902054610430565b610430610584366004614bce565b610ead565b61059c610597366004614ea4565b610f20565b604080516001600160a01b0390931683526020830191909152016103ff565b61041b6105c9366004614bce565b610f5e565b6104306105dc366004614ca0565b610fdd565b61041b6105ef366004614ec6565b611071565b61041b610602366004614f07565b6110fa565b61060f611180565b6040516103ff9190614f42565b61041b61062a366004614f8f565b61122e565b6104ed61063d366004614ffa565b611285565b61041b610650366004614ec6565b6113c1565b61041b61066336600461504f565b6113f4565b61041b610676366004614e63565b611473565b61041b610689366004614c87565b61148e565b61043061069c366004614c87565b611533565b61041b6106af3660046150fc565b6115c6565b6104306106c2366004614ca0565b611671565b6104796106d5366004614c87565b6116ed565b61041b6106e8366004614ec6565b611764565b6104306106fb366004614ca0565b611795565b61041b61070e366004614bce565b61180a565b610430610721366004614bce565b611884565b61041b61190b565b61043061073c366004614bce565b61197f565b61043061074f366004614f07565b611a0b565b6104ed610762366004614ffa565b611aca565b61041b6107753660046151bb565b611c1d565b61060f611c4f565b6000546001600160a01b0316610479565b610446611cf9565b61041b6107a9366004614ec6565b611d08565b61041b6107bc366004615211565b611d5c565b61041b6107cf3660046150fc565b611d67565b61041b6107e236600461523f565b611e35565b6104ed6107f536600461525c565b611f59565b61041b610808366004615291565b61207e565b61041b61081b3660046152f7565b6120d5565b61083361082e366004614c87565b612107565b6040516103ff91906153de565b61085361084e366004614c87565b612196565b6040516103ff9291906153f1565b61044661086f366004614c87565b61227a565b61041b610882366004614bce565b612285565b610430610895366004614c87565b6122d8565b6104306108a8366004614e63565b612324565b6104ed6108bb36600461525c565b6123ab565b61041b6108ce366004614d5b565b6124a2565b6103f36108e1366004614c4e565b6001600160a01b03918216600090815260096020908152604080832093909416825291909152205460ff1690565b61041b61091d366004614c4e565b6124d4565b61041b610930366004614bce565b612528565b610430610943366004614f07565b612612565b60006001600160e01b03198216632e98234f60e01b148061096d575061096d826126a2565b8061097c575061097c826126cb565b92915050565b336109956000546001600160a01b031690565b6001600160a01b031614806109b057506109b06002336126f0565b6109d55760405162461bcd60e51b81526004016109cc9061541f565b60405180910390fd5b6109de81612715565b50565b6000816109ef600d826126f0565b15610a0c5760405162461bcd60e51b81526004016109cc90615463565b6001600160a01b0383166000908152601a602052604090205491505b50919050565b606060048054610a3d90615492565b80601f0160208091040260200160405190810160405280929190818152602001828054610a6990615492565b8015610ab65780601f10610a8b57610100808354040283529160200191610ab6565b820191906000526020600020905b815481529060010190602001808311610a9957829003601f168201915b5050505050905090565b600082610ace600d826126f0565b15610aeb5760405162461bcd60e51b81526004016109cc90615463565b50506001600160a01b039182166000908152601d6020908152604080832093909416825291909152205490565b6000610b2382612810565b610b845760405162461bcd60e51b815260206004820152602c60248201527f4552433732313a20617070726f76656420717565727920666f72206e6f6e657860448201526b34b9ba32b73a103a37b5b2b760a11b60648201526084016109cc565b506000908152600860205260409020546001600160a01b031690565b6000610bab826116ed565b9050806001600160a01b0316836001600160a01b031603610c185760405162461bcd60e51b815260206004820152602160248201527f4552433732313a20617070726f76616c20746f2063757272656e74206f776e656044820152603960f91b60648201526084016109cc565b336001600160a01b0382161480610c345750610c3481336108e1565b610ca65760405162461bcd60e51b815260206004820152603860248201527f4552433732313a20617070726f76652063616c6c6572206973206e6f74206f7760448201527f6e6572206e6f7220617070726f76656420666f7220616c6c000000000000000060648201526084016109cc565b610cb0838361282d565b505050565b6060610cc082612810565b610cdc5760405162461bcd60e51b81526004016109cc906154c6565b610ce58261289b565b805480602002602001604051908101604052809291908181526020018280548015610d2f57602002820191906000526020600020905b815481526020019060010190808311610d1b575b50505050509050919050565b33610d4e6000546001600160a01b031690565b6001600160a01b03161480610d695750610d696002336126f0565b610d855760405162461bcd60e51b81526004016109cc9061541f565b610cb0838383612927565b33610da36000546001600160a01b031690565b6001600160a01b03161480610dbe5750610dbe6002336126f0565b610dda5760405162461bcd60e51b81526004016109cc9061541f565b610de385612810565b610dff5760405162461bcd60e51b81526004016109cc906154c6565b610e0c8585858585612996565b5050505050565b6000610e1e82612810565b610e3a5760405162461bcd60e51b81526004016109cc906154c6565b61097c82612abf565b610e4d3382612b4c565b610e695760405162461bcd60e51b81526004016109cc906154f1565b610cb0838383612c36565b6000816001600160a01b0316610e926000546001600160a01b031690565b6001600160a01b0316148061097c575061097c6002836126f0565b6000600260015403610ed15760405162461bcd60e51b81526004016109cc90615542565b6002600155610ee1600b336126f0565b610efd5760405162461bcd60e51b81526004016109cc90615579565b610f168260405180602001604052806000815250612de1565b6001805592915050565b600080610f2c84612810565b610f485760405162461bcd60e51b81526004016109cc906154c6565b610f528484612e59565b915091505b9250929050565b6000546001600160a01b03163314610f885760405162461bcd60e51b81526004016109cc906155b0565b610f936002826126f0565b156109de5760405133906001600160a01b038316907f7c0c3c84c67c85fcac635147348bfe374c24a1a93d0366d1cfe9d8853cbf89d590600090a3610fd9600282612f44565b5050565b6000610fe883611884565b821061104a5760405162461bcd60e51b815260206004820152602b60248201527f455243373231456e756d657261626c653a206f776e657220696e646578206f7560448201526a74206f6620626f756e647360a81b60648201526084016109cc565b506001600160a01b0391909116600090815260208080526040808320938352929052205490565b336110846000546001600160a01b031690565b6001600160a01b0316148061109f575061109f6002336126f0565b6110bb5760405162461bcd60e51b81526004016109cc9061541f565b610fd982828080601f016020809104026020016040519081016040528093929190818152602001838380828437600092019190915250612f5992505050565b3361110d6000546001600160a01b031690565b6001600160a01b0316148061112857506111286002336126f0565b6111445760405162461bcd60e51b81526004016109cc9061541f565b82611150600d826126f0565b1561116d5760405162461bcd60e51b81526004016109cc90615463565b61117a8484846000612f72565b50505050565b606061118c60026130ac565b6001600160401b038111156111a3576111a36150b6565b6040519080825280602002602001820160405280156111cc578160200160208202803683370190505b50905060005b6111dc60026130ac565b81101561122a576111ee6002826130b6565b828281518110611200576112006155e5565b6001600160a01b03909216602092830291909101909101528061122281615611565b9150506111d2565b5090565b336112416000546001600160a01b031690565b6001600160a01b0316148061125c575061125c6002336126f0565b6112785760405162461bcd60e51b81526004016109cc9061541f565b61117a30858585856130c2565b60606002600154036112a95760405162461bcd60e51b81526004016109cc90615542565b60026001556112b9600b336126f0565b6112d55760405162461bcd60e51b81526004016109cc90615579565b816001600160401b038111156112ed576112ed6150b6565b604051908082528060200260200182016040528015611316578160200160208202803683370190505b50905060005b828110156113b5576113868585858481811061133a5761133a6155e5565b905060200281019061134c919061562a565b8080601f016020809104026020016040519081016040528093929190818152602001838380828437600092019190915250612de192505050565b828281518110611398576113986155e5565b6020908102919091010152806113ad81615611565b91505061131c565b50600180559392505050565b6113cc600b336126f0565b6113e85760405162461bcd60e51b81526004016109cc90615579565b610fd982826000613252565b336114076000546001600160a01b031690565b6001600160a01b0316148061142257506114226002336126f0565b61143e5760405162461bcd60e51b81526004016109cc9061541f565b8361144a600d826126f0565b156114675760405162461bcd60e51b81526004016109cc90615463565b610e0c85858585612f72565b610cb0838383604051806020016040528060008152506120d5565b6002600154036114b05760405162461bcd60e51b81526004016109cc90615542565b60026001556114bf3382612b4c565b61150b5760405162461bcd60e51b815260206004820181905260248201527f43616c6c6572206973206e6f74206f776e6572206e6f7220617070726f76656460448201526064016109cc565b6000611516826116ed565b90506115218261328f565b61152b8183613336565b505060018055565b600061153e60225490565b82106115a15760405162461bcd60e51b815260206004820152602c60248201527f455243373231456e756d657261626c653a20676c6f62616c20696e646578206f60448201526b7574206f6620626f756e647360a01b60648201526084016109cc565b602282815481106115b4576115b46155e5565b90600052602060002001549050919050565b6115d1600b336126f0565b6115ed5760405162461bcd60e51b81526004016109cc90615579565b8251811461160d5760405162461bcd60e51b81526004016109cc90615670565b60005b835181101561117a5761165f84828151811061162e5761162e6155e5565b6020026020010151848484818110611648576116486155e5565b905060200281019061165a919061562a565b613340565b8061166981615611565b915050611610565b60008261167f600d826126f0565b1561169c5760405162461bcd60e51b81526004016109cc90615463565b6116a5846109e1565b83106116c35760405162461bcd60e51b81526004016109cc90615697565b50506001600160a01b03919091166000908152601b60209081526040808320938352929052205490565b6000818152600660205260408120546001600160a01b03168061097c5760405162461bcd60e51b815260206004820152602960248201527f4552433732313a206f776e657220717565727920666f72206e6f6e657869737460448201526832b73a103a37b5b2b760b91b60648201526084016109cc565b61176f600b336126f0565b61178b5760405162461bcd60e51b81526004016109cc90615579565b610fd98282613396565b306000908152601d602090815260408083206001600160a01b038616845290915281205482106117d75760405162461bcd60e51b81526004016109cc90615697565b50306000908152601e602090815260408083206001600160a01b0386168452825280832084845290915290205492915050565b6000546001600160a01b031633146118345760405162461bcd60e51b81526004016109cc906155b0565b61183f6002826126f0565b6109de5760405133906001600160a01b038316907f7e1a1a08d52e4ba0e21554733d66165fd5151f99460116223d9e3a608eec5cb190600090a3610fd96002826133b0565b60006001600160a01b0382166118ef5760405162461bcd60e51b815260206004820152602a60248201527f4552433732313a2062616c616e636520717565727920666f7220746865207a65604482015269726f206164647265737360b01b60648201526084016109cc565b506001600160a01b031660009081526007602052604090205490565b6000546001600160a01b031633146119355760405162461bcd60e51b81526004016109cc906155b0565b600080546040516001600160a01b03909116907f8be0079c531659141344cd1fd0a4f28419497f9722a3daafe3b4186f6b6457e0908390a3600080546001600160a01b0319169055565b60006002600154036119a35760405162461bcd60e51b81526004016109cc90615542565b6002600155336119bb6000546001600160a01b031690565b6001600160a01b031614806119d657506119d66002336126f0565b6119f25760405162461bcd60e51b81526004016109cc9061541f565b610f1682604051806020016040528060008152506133c5565b6000600260015403611a2f5760405162461bcd60e51b81526004016109cc90615542565b600260015533611a476000546001600160a01b031690565b6001600160a01b03161480611a625750611a626002336126f0565b611a7e5760405162461bcd60e51b81526004016109cc9061541f565b611abe8484848080601f0160208091040260200160405190810160405280939291908181526020018383808284376000920191909152506133c592505050565b60018055949350505050565b6060600260015403611aee5760405162461bcd60e51b81526004016109cc90615542565b600260015533611b066000546001600160a01b031690565b6001600160a01b03161480611b215750611b216002336126f0565b611b3d5760405162461bcd60e51b81526004016109cc9061541f565b816001600160401b03811115611b5557611b556150b6565b604051908082528060200260200182016040528015611b7e578160200160208202803683370190505b50905060005b828110156113b557611bee85858584818110611ba257611ba26155e5565b9050602002810190611bb4919061562a565b8080601f0160208091040260200160405190810160405280939291908181526020018383808284376000920191909152506133c592505050565b828281518110611c0057611c006155e5565b602090810291909101015280611c1581615611565b915050611b84565b611c28600b336126f0565b611c445760405162461bcd60e51b81526004016109cc90615579565b610cb0838383613252565b6060611c5b600b6130ac565b6001600160401b03811115611c7257611c726150b6565b604051908082528060200260200182016040528015611c9b578160200160208202803683370190505b50905060005b611cab600b6130ac565b81101561122a57611cbd600b826130b6565b828281518110611ccf57611ccf6155e5565b6001600160a01b039092166020928302919091019091015280611cf181615611565b915050611ca1565b606060058054610a3d90615492565b33611d1b6000546001600160a01b031690565b6001600160a01b03161480611d365750611d366002336126f0565b611d525760405162461bcd60e51b81526004016109cc9061541f565b610fd98282613433565b610fd933838361344d565b33611d7a6000546001600160a01b031690565b6001600160a01b03161480611d955750611d956002336126f0565b611db15760405162461bcd60e51b81526004016109cc9061541f565b82518114611dd15760405162461bcd60e51b81526004016109cc90615670565b60005b835181101561117a57611e23848281518110611df257611df26155e5565b6020026020010151848484818110611e0c57611e0c6155e5565b9050602002810190611e1e919061562a565b612927565b80611e2d81615611565b915050611dd4565b611e40600b336126f0565b611e5c5760405162461bcd60e51b81526004016109cc90615579565b801580611e755750611e7533634ce6d51160e11b61351b565b611ee75760405162461bcd60e51b815260206004820152603f60248201527f457874656e73696f6e206d75737420696d706c656d656e74204945524337323160448201527f43726561746f72457874656e73696f6e417070726f76655472616e736665720060648201526084016109cc565b3360009081526010602052604090205460ff161515811515146109de5733600081815260106020908152604091829020805460ff191685151590811790915591519182527f072a7592283e2c2d1d56d21517ff6013325e0f55483f4828373ff4d98b0a1a36910160405180910390a250565b6060600260015403611f7d5760405162461bcd60e51b81526004016109cc90615542565b600260015533611f956000546001600160a01b031690565b6001600160a01b03161480611fb05750611fb06002336126f0565b611fcc5760405162461bcd60e51b81526004016109cc9061541f565b8161ffff166001600160401b03811115611fe857611fe86150b6565b604051908082528060200260200182016040528015612011578160200160208202803683370190505b50905060005b8261ffff168161ffff1610156120735761204084604051806020016040528060008152506133c5565b828261ffff1681518110612056576120566155e5565b60209081029190910101528061206b816156d9565b915050612017565b506001805592915050565b336120916000546001600160a01b031690565b6001600160a01b031614806120ac57506120ac6002336126f0565b6120c85760405162461bcd60e51b81526004016109cc9061541f565b610e0c85858585856130c2565b6120df3383612b4c565b6120fb5760405162461bcd60e51b81526004016109cc906154f1565b61117a84848484613537565b606061211282612810565b61212e5760405162461bcd60e51b81526004016109cc906154c6565b6121378261356a565b805480602002602001604051908101604052809291908181526020018280548015610d2f57602002820191906000526020600020905b81546001600160a01b0316815260019091019060200180831161216d5750505050509050919050565b6060806121a283612810565b6121be5760405162461bcd60e51b81526004016109cc906154c6565b6121c7836135f6565b81546040805160208084028201810190925282815291849183018282801561221857602002820191906000526020600020905b81546001600160a01b031681526001909101906020018083116121fa575b505050505091508080548060200260200160405190810160405280929190818152602001828054801561226a57602002820191906000526020600020905b815481526020019060010190808311612256575b5050505050905091509150915091565b606061097c82613614565b336122986000546001600160a01b031690565b6001600160a01b031614806122b357506122b36002336126f0565b6122cf5760405162461bcd60e51b81526004016109cc9061541f565b6109de81613644565b306000908152601a602052604081205482106123065760405162461bcd60e51b81526004016109cc90615697565b50306000908152601b60209081526040808320938352929052205490565b600083612332600d826126f0565b1561234f5760405162461bcd60e51b81526004016109cc90615463565b6123598585610ac0565b83106123775760405162461bcd60e51b81526004016109cc90615697565b50506001600160a01b039283166000908152601e602090815260408083209490951682529283528381209181529152205490565b60606002600154036123cf5760405162461bcd60e51b81526004016109cc90615542565b60026001556123df600b336126f0565b6123fb5760405162461bcd60e51b81526004016109cc90615579565b8161ffff166001600160401b03811115612417576124176150b6565b604051908082528060200260200182016040528015612440578160200160208202803683370190505b50905060005b8261ffff168161ffff1610156120735761246f8460405180602001604052806000815250612de1565b828261ffff1681518110612485576124856155e5565b60209081029190910101528061249a816156d9565b915050612446565b6124ad600b336126f0565b6124c95760405162461bcd60e51b81526004016109cc90615579565b610cb0838383613340565b336124e76000546001600160a01b031690565b6001600160a01b0316148061250257506125026002336126f0565b61251e5760405162461bcd60e51b81526004016109cc9061541f565b610fd98282613695565b6000546001600160a01b031633146125525760405162461bcd60e51b81526004016109cc906155b0565b6001600160a01b0381166125b75760405162461bcd60e51b815260206004820152602660248201527f4f776e61626c653a206e6577206f776e657220697320746865207a65726f206160448201526564647265737360d01b60648201526084016109cc565b600080546040516001600160a01b03808516939216917f8be0079c531659141344cd1fd0a4f28419497f9722a3daafe3b4186f6b6457e091a3600080546001600160a01b0319166001600160a01b0392909216919091179055565b60006002600154036126365760405162461bcd60e51b81526004016109cc90615542565b6002600155612646600b336126f0565b6126625760405162461bcd60e51b81526004016109cc90615579565b611abe8484848080601f016020809104026020016040519081016040528093929190818152602001838380828437600092019190915250612de192505050565b60006126ad826137ca565b806126bc57506126bc8261380f565b8061097c575061097c8261384a565b60006001600160e01b0319821663780e9d6360e01b148061097c575061097c8261387f565b6001600160a01b038116600090815260018301602052604081205415155b9392505050565b306001600160a01b0382160361276d5760405162461bcd60e51b815260206004820152601960248201527f43616e6e6f7420626c61636b6c69737420796f757273656c660000000000000060448201526064016109cc565b612778600b826126f0565b156127c05760405133906001600160a01b038316907fd19cf84cf0fec6bec9ddfa29c63adf83a55707c712f32c8285d6180a7890147990600090a36127be600b82612f44565b505b6127cb600d826126f0565b6109de5760405133906001600160a01b038316907f05ac7bc5a606cd92a63365f9fda244499b9add0526b22d99937b6bd88181059c90600090a3610fd9600d826133b0565b6000908152600660205260409020546001600160a01b0316151590565b600081815260086020526040902080546001600160a01b0319166001600160a01b0384169081179091558190612862826116ed565b6001600160a01b03167f8c5be1e5ebec7d5bd14f71427d1e84f3dd0314c0f7b2291e5b200ac8c7c3b92560405160405180910390a45050565b600081815260196020526040812054156128c15750600090815260196020526040902090565b6000828152601160209081526040808320546001600160a01b0316835260179091529020541561291357506000908152601160209081526040808320546001600160a01b031683526017909152902090565b505030600090815260176020526040902090565b6000838152601160205260409020546001600160a01b0316301461297d5760405162461bcd60e51b815260206004820152600d60248201526c24b73b30b634b2103a37b5b2b760991b60448201526064016109cc565b600083815260156020526040902061117a828483615740565b8281146129b55760405162461bcd60e51b81526004016109cc90615670565b6000805b828110156129f9578383828181106129d3576129d36155e5565b90506020020135826129e591906157ff565b9150806129f181615611565b9150506129b9565b506127108110612a455760405162461bcd60e51b8152602060048201526017602482015276496e76616c696420746f74616c20726f79616c7469657360481b60448201526064016109cc565b6000868152601860205260409020612a5e908686614aa1565b506000868152601960205260409020612a78908484614b00565b50857fabb46fe0761d77584bde75697647804ffd8113abd4d8d06bc664150395eccdee86868686604051612aaf9493929190615812565b60405180910390a2505050505050565b6000818152601160205260409020546001600160a01b0316308103612b1f5760405162461bcd60e51b815260206004820152601660248201527527379032bc3a32b739b4b7b7103337b9103a37b5b2b760511b60448201526064016109cc565b612b2a600d826126f0565b15612b475760405162461bcd60e51b81526004016109cc90615463565b919050565b6000612b5782612810565b612bb85760405162461bcd60e51b815260206004820152602c60248201527f4552433732313a206f70657261746f7220717565727920666f72206e6f6e657860448201526b34b9ba32b73a103a37b5b2b760a11b60648201526084016109cc565b6000612bc3836116ed565b9050806001600160a01b0316846001600160a01b03161480612bfe5750836001600160a01b0316612bf384610b18565b6001600160a01b0316145b80612c2e57506001600160a01b0380821660009081526009602090815260408083209388168352929052205460ff165b949350505050565b826001600160a01b0316612c49826116ed565b6001600160a01b031614612cb15760405162461bcd60e51b815260206004820152602960248201527f4552433732313a207472616e73666572206f6620746f6b656e2074686174206960448201526839903737ba1037bbb760b91b60648201526084016109cc565b6001600160a01b038216612d135760405162461bcd60e51b8152602060048201526024808201527f4552433732313a207472616e7366657220746f20746865207a65726f206164646044820152637265737360e01b60648201526084016109cc565b612d1e8383836138a4565b612d2960008261282d565b6001600160a01b0383166000908152600760205260408120805460019290612d52908490615890565b90915550506001600160a01b0382166000908152600760205260408120805460019290612d809084906157ff565b909155505060008181526006602052604080822080546001600160a01b0319166001600160a01b0386811691821790925591518493918716917fddf252ad1be2c89b69c2b068fc378daa952ba7f163c4a11628f55a4df523b3ef91a4505050565b600a805460009182612df283615611565b9190505550600a549050612e0683826138ba565b600081815260116020526040902080546001600160a01b03191633179055612e2e838261394e565b815115612e4f576000818152601560205260409020612e4d83826158a3565b505b61097c8382613968565b6000806000612e678561356a565b805490915060011015612ebc5760405162461bcd60e51b815260206004820152601c60248201527f4d6f7265207468616e203120726f79616c74792072656365697665720000000060448201526064016109cc565b8054600003612ed2573060009250925050610f57565b80600081548110612ee557612ee56155e5565b6000918252602090912001546001600160a01b031661271085612f078861289b565b600081548110612f1957612f196155e5565b9060005260206000200154612f2e9190615962565b612f38919061598f565b92509250509250929050565b600061270e836001600160a01b038416613972565b306000908152601260205260409020610fd982826158a3565b306001600160a01b03851603612fbd5760405162461bcd60e51b815260206004820152601060248201526f10dc99585d1bdc8e88125b9d985b1a5960821b60448201526064016109cc565b6001600160a01b0384163b6130225760405162461bcd60e51b815260206004820152602560248201527f43726561746f723a20457874656e73696f6e206d757374206265206120636f6e6044820152641d1c9858dd60da1b60648201526084016109cc565b61302d600b856126f0565b61117a576001600160a01b0384166000908152601260205260409020613054838583615740565b506001600160a01b038416600081815260136020526040808220805460ff1916851515179055513392917fd8cb8ba4086944eabf43c5535b7712015e4d4c714b24bf812c040ea5b7a3e42a91a3610e0c600b856133b0565b600061097c825490565b600061270e8383613a65565b8281146130e15760405162461bcd60e51b81526004016109cc90615670565b6000805b82811015613125578383828181106130ff576130ff6155e5565b905060200201358261311191906157ff565b91508061311d81615611565b9150506130e5565b5061271081106131715760405162461bcd60e51b8152602060048201526017602482015276496e76616c696420746f74616c20726f79616c7469657360481b60448201526064016109cc565b6001600160a01b0386166000908152601660205260409020613194908686614aa1565b506001600160a01b03861660009081526017602052604090206131b8908484614b00565b50306001600160a01b0387160361320b577f2b6849d5976d799a5b0ca4dfd6b40a3d7afe9ea72c091fa01a958594f9a2659b858585856040516131fe9493929190615812565b60405180910390a161324a565b856001600160a01b03167f535a93d2cb000582c0ebeaa9be4890ec6a287f98eb2df00c54c300612fd78d8f86868686604051612aaf9493929190615812565b505050505050565b33600090815260126020526040902061326c838583615740565b50336000908152601360205260409020805460ff19169115159190911790555050565b600061329a826116ed565b90506132a8816000846138a4565b6132b360008361282d565b6001600160a01b03811660009081526007602052604081208054600192906132dc908490615890565b909155505060008281526006602052604080822080546001600160a01b0319169055518391906001600160a01b038416907fddf252ad1be2c89b69c2b068fc378daa952ba7f163c4a11628f55a4df523b3ef908390a45050565b610fd98282613a8f565b6000838152601160205260409020546001600160a01b0316331461297d5760405162461bcd60e51b815260206004820152600d60248201526c24b73b30b634b2103a37b5b2b760991b60448201526064016109cc565b336000908152601460205260409020610cb0828483615740565b600061270e836001600160a01b038416613b83565b600a8054600091826133d683615611565b9091555050600a54600081815260116020526040902080546001600160a01b031916301790559050613408838261394e565b81511561342957600081815260156020526040902061342783826158a3565b505b61097c8382613bd2565b306000908152601460205260409020610cb0828483615740565b816001600160a01b0316836001600160a01b0316036134ae5760405162461bcd60e51b815260206004820152601960248201527f4552433732313a20617070726f766520746f2063616c6c65720000000000000060448201526064016109cc565b6001600160a01b03838116600081815260096020908152604080832094871680845294825291829020805460ff191686151590811790915591519182527f17307eab39ab6107e8899845ad3d59bd9653f200f220920489ca2b5937696c31910160405180910390a3505050565b600061352683613bdc565b801561270e575061270e8383613c0f565b613542848484612c36565b61354e84848484613cf8565b61117a5760405162461bcd60e51b81526004016109cc906159a3565b600081815260186020526040812054156135905750600090815260186020526040902090565b6000828152601160209081526040808320546001600160a01b031683526016909152902054156135e257506000908152601160209081526040808320546001600160a01b031683526016909152902090565b505030600090815260166020526040902090565b6000806136028361356a565b61360b8461289b565b91509150915091565b606061361f82612810565b61363b5760405162461bcd60e51b81526004016109cc906154c6565b61097c82613df9565b61364f600b826126f0565b156109de5760405133906001600160a01b038316907fd19cf84cf0fec6bec9ddfa29c63adf83a55707c712f32c8285d6180a7890147990600090a3610fd9600b82612f44565b6136a0600b836126f0565b6136ec5760405162461bcd60e51b815260206004820152601e60248201527f43726561746f72436f72653a20496e76616c696420657874656e73696f6e000060448201526064016109cc565b6001600160a01b038116158061370e575061370e81631e05385b60e31b61351b565b61374c5760405162461bcd60e51b815260206004820152600f60248201526e496e76616c6964206164647265737360881b60448201526064016109cc565b6001600160a01b038281166000908152600f6020526040902054811690821614610fd9576001600160a01b038281166000818152600f602052604080822080546001600160a01b031916948616948517905551339392917f6a835c4fcf7e0d398db3762332fdaa1471814ad39f1e2d6d0b3fdabf8efee3e091a45050565b60006001600160e01b03198216639088c20760e01b14806137ef57506137ef8261406d565b8061097c57506001600160e01b03198216631e05385b60e31b1492915050565b60006001600160e01b031982166380ac58cd60e01b14806126bc57506001600160e01b03198216635b5e139f60e01b148061097c575061097c825b60006001600160e01b03198216632a9f3abf60e11b148061097c57506301ffc9a760e01b6001600160e01b031983161461097c565b60006001600160e01b03198216632e98234f60e01b148061097c575061097c826126a2565b6138af838383614103565b610cb083838361421a565b336000908152600f60205260409020546001600160a01b031615610fd957336000818152600f602052604090819020549051631e05385b60e31b815260048101929092526001600160a01b03848116602484015260448301849052169063f029c2d890606401600060405180830381600087803b15801561393a57600080fd5b505af115801561324a573d6000803e3d6000fd5b610fd98282604051806020016040528060008152506142dd565b610fd98282614310565b60008181526001830160205260408120548015613a5b576000613996600183615890565b85549091506000906139aa90600190615890565b9050818114613a0f5760008660000182815481106139ca576139ca6155e5565b90600052602060002001549050808760000184815481106139ed576139ed6155e5565b6000918252602080832090910192909255918252600188019052604090208390555b8554869080613a2057613a206159f5565b60019003818190600052602060002001600090559055856001016000868152602001908152602001600020600090556001935050505061097c565b600091505061097c565b6000826000018281548110613a7c57613a7c6155e5565b9060005260206000200154905092915050565b6000818152601160205260408120546001600160a01b0316906001613ab3836109e1565b613abd9190615890565b6000848152601c6020526040902054909150808214613b10576001600160a01b0383166000908152601b602090815260408083208584528252808320548484528184208190558352601c90915290208190555b6001600160a01b0383166000908152601a60205260408120805460019290613b39908490615890565b90915550506000848152601c602090815260408083208390556001600160a01b0386168352601b8252808320858452909152812055613b79858585614376565b610e0c8585614469565b6000818152600183016020526040812054613bca5750815460018181018455600084815260208082209093018490558454848252828601909352604090209190915561097c565b50600061097c565b610fd9828261457f565b6000613bef826301ffc9a760e01b613c0f565b801561097c5750613c08826001600160e01b0319613c0f565b1592915050565b604080516001600160e01b0319831660248083019190915282518083039091018152604490910182526020810180516001600160e01b03166301ffc9a760e01b179052905160009190829081906001600160a01b0387169061753090613c76908690615a0b565b6000604051808303818686fa925050503d8060008114613cb2576040519150601f19603f3d011682016040523d82523d6000602084013e613cb7565b606091505b5091509150602081511015613cd2576000935050505061097c565b818015613cee575080806020019051810190613cee9190615a27565b9695505050505050565b60006001600160a01b0384163b15613dee57604051630a85bd0160e11b81526001600160a01b0385169063150b7a0290613d3c903390899088908890600401615a44565b6020604051808303816000875af1925050508015613d77575060408051601f3d908101601f19168201909252613d7491810190615a77565b60015b613dd4573d808015613da5576040519150601f19603f3d011682016040523d82523d6000602084013e613daa565b606091505b508051600003613dcc5760405162461bcd60e51b81526004016109cc906159a3565b805181602001fd5b6001600160e01b031916630a85bd0160e11b149050612c2e565b506001949350505050565b6000818152601160205260409020546060906001600160a01b0316613e1f600d826126f0565b15613e3c5760405162461bcd60e51b81526004016109cc90615463565b60008381526015602052604090208054613e5590615492565b159050613f6f576001600160a01b03811660009081526014602052604090208054613e7f90615492565b159050613ed0576001600160a01b038116600090815260146020908152604080832086845260158352928190209051613eb9939201615b07565b604051602081830303815290604052915050919050565b60008381526015602052604090208054613ee990615492565b80601f0160208091040260200160405190810160405280929190818152602001828054613f1590615492565b8015613f625780601f10613f3757610100808354040283529160200191613f62565b820191906000526020600020905b815481529060010190602001808311613f4557829003601f168201915b5050505050915050919050565b613f808163e9dc637560e01b61351b565b15613ff85760405163e9dc637560e01b8152306004820152602481018490526001600160a01b0382169063e9dc637590604401600060405180830381865afa158015613fd0573d6000803e3d6000fd5b505050506040513d6000823e601f3d908101601f1916820160405261270e9190810190615b1c565b6001600160a01b03811660009081526013602052604090205460ff1661404a576001600160a01b0381166000908152601260205260409020614039846145dd565b604051602001613eb9929190615b89565b6001600160a01b03811660009081526012602052604090208054613ee990615492565b60006001600160e01b031982166328f10a2160e01b148061409257506140928261380f565b806140ad57506001600160e01b03198216635d9dd7eb60e11b145b806140c857506001600160e01b03198216632dde656160e21b145b806140e357506001600160e01b031982166335681b5360e21b145b8061097c57506001600160e01b0319821663152a902d60e11b1492915050565b6000818152601160209081526040808320546001600160a01b03168352601090915290205460ff1615610cb05760008181526011602052604090819020549051638258080560e01b81526001600160a01b038581166004830152848116602483015260448201849052909116906382580805906064016020604051808303816000875af1158015614198573d6000803e3d6000fd5b505050506040513d601f19601f820116820180604052508101906141bc9190615a27565b610cb05760405162461bcd60e51b815260206004820152602960248201527f45524337323143726561746f723a20457874656e73696f6e20617070726f76616044820152686c206661696c75726560b81b60648201526084016109cc565b6142258383836146dd565b6001600160a01b0383166142805761427b81602280546000838152602360205260408120829055600182018355919091527f61035b26e3e9eee00e0d72fd1ee8ddca6894550dca6916ea2ac6baa90d11e5100155565b6142a3565b816001600160a01b0316836001600160a01b0316146142a3576142a38382614757565b6001600160a01b0382166142ba57610cb0816147f1565b826001600160a01b0316826001600160a01b031614610cb057610cb082826148a0565b6142e783836148e2565b6142f46000848484613cf8565b610cb05760405162461bcd60e51b81526004016109cc906159a3565b600061431b336109e1565b336000818152601b602090815260408083208584528252808320879055868352601c8252808320859055928252601a905290812080549293506001929091906143659084906157ff565b90915550610cb09050838333614a21565b600060016143848386610ac0565b61438e9190615890565b6000848152601f60205260409020549091508082146143eb576001600160a01b038381166000908152601e6020908152604080832093891683529281528282208583528152828220548483528383208190558252601f9052208190555b6001600160a01b038084166000908152601d602090815260408083209389168352929052908120805460019290614423908490615890565b9091555050506000928352601f602090815260408085208590556001600160a01b039384168552601e825280852095909316845293845281832090835290925290812055565b6000818152601160205260409020546001600160a01b03163014614529576000818152601160205260409020546144b0906001600160a01b03166311686e4b60e21b61351b565b1561452957600081815260116020526040908190205490516311686e4b60e21b81526001600160a01b03848116600483015260248201849052909116906345a1b92c90604401600060405180830381600087803b15801561451057600080fd5b505af1158015614524573d6000803e3d6000fd5b505050505b6000818152601560205260409020805461454290615492565b15905061456057600081815260156020526040812061456091614b3b565b600090815260116020526040902080546001600160a01b031916905550565b306000818152601a602081815260408084208054601b84528286208187528452828620889055878652601c84529185208290559484529190528254909260019290916145cc9084906157ff565b90915550610cb09050838330614a21565b6060816000036146045750506040805180820190915260018152600360fc1b602082015290565b8160005b811561462e578061461881615611565b91506146279050600a8361598f565b9150614608565b6000816001600160401b03811115614648576146486150b6565b6040519080825280601f01601f191660200182016040528015614672576020820181803683370190505b5090505b8415612c2e57614687600183615890565b9150614694600a86615bae565b61469f9060306157ff565b60f81b8183815181106146b4576146b46155e5565b60200101906001600160f81b031916908160001a9053506146d6600a8661598f565b9450614676565b6001600160a01b038316158015906146fd57506001600160a01b03821615155b15610cb057600061470d82612abf565b9050826001600160a01b0316846001600160a01b03161461473357614733848383614376565b836001600160a01b0316836001600160a01b03161461117a5761117a838383614a21565b6000600161476484611884565b61476e9190615890565b6000838152602160205260409020549091508082146147bf576001600160a01b0384166000908152602080805260408083208584528252808320548484528184208190558352602190915290208190555b5060009182526021602090815260408084208490556001600160a01b0390941683528080528383209183525290812055565b60225460009061480390600190615890565b6000838152602360205260408120546022805493945090928490811061482b5761482b6155e5565b90600052602060002001549050806022838154811061484c5761484c6155e5565b6000918252602080832090910192909255828152602390915260408082208490558582528120556022805480614884576148846159f5565b6001900381819060005260206000200160009055905550505050565b60006148ab83611884565b6001600160a01b03909316600090815260208080526040808320868452825280832085905593825260219052919091209190915550565b6001600160a01b0382166149385760405162461bcd60e51b815260206004820181905260248201527f4552433732313a206d696e7420746f20746865207a65726f206164647265737360448201526064016109cc565b61494181612810565b1561498e5760405162461bcd60e51b815260206004820152601c60248201527f4552433732313a20746f6b656e20616c7265616479206d696e7465640000000060448201526064016109cc565b61499a600083836138a4565b6001600160a01b03821660009081526007602052604081208054600192906149c39084906157ff565b909155505060008181526006602052604080822080546001600160a01b0319166001600160a01b03861690811790915590518392907fddf252ad1be2c89b69c2b068fc378daa952ba7f163c4a11628f55a4df523b3ef908290a45050565b6000614a2d8285610ac0565b6001600160a01b038084166000818152601e60209081526040808320948a168084529482528083208684528252808320899055888352601f8252808320869055928252601d81528282209382529290925281208054929350600192909190614a969084906157ff565b909155505050505050565b828054828255906000526020600020908101928215614af4579160200282015b82811115614af45781546001600160a01b0319166001600160a01b03843516178255602090920191600190910190614ac1565b5061122a929150614b71565b828054828255906000526020600020908101928215614af4579160200282015b82811115614af4578235825591602001919060010190614b20565b508054614b4790615492565b6000825580601f10614b57575050565b601f0160209004906000526020600020908101906109de91905b5b8082111561122a5760008155600101614b72565b6001600160e01b0319811681146109de57600080fd5b600060208284031215614bae57600080fd5b813561270e81614b86565b6001600160a01b03811681146109de57600080fd5b600060208284031215614be057600080fd5b813561270e81614bb9565b60005b83811015614c06578181015183820152602001614bee565b50506000910152565b60008151808452614c27816020860160208601614beb565b601f01601f19169290920160200192915050565b60208152600061270e6020830184614c0f565b60008060408385031215614c6157600080fd5b8235614c6c81614bb9565b91506020830135614c7c81614bb9565b809150509250929050565b600060208284031215614c9957600080fd5b5035919050565b60008060408385031215614cb357600080fd5b8235614cbe81614bb9565b946020939093013593505050565b600081518084526020808501945080840160005b83811015614cfc57815187529582019590820190600101614ce0565b509495945050505050565b60208152600061270e6020830184614ccc565b60008083601f840112614d2c57600080fd5b5081356001600160401b03811115614d4357600080fd5b602083019150836020828501011115610f5757600080fd5b600080600060408486031215614d7057600080fd5b8335925060208401356001600160401b03811115614d8d57600080fd5b614d9986828701614d1a565b9497909650939450505050565b60008083601f840112614db857600080fd5b5081356001600160401b03811115614dcf57600080fd5b6020830191508360208260051b8501011115610f5757600080fd5b600080600080600060608688031215614e0257600080fd5b8535945060208601356001600160401b0380821115614e2057600080fd5b614e2c89838a01614da6565b90965094506040880135915080821115614e4557600080fd5b50614e5288828901614da6565b969995985093965092949392505050565b600080600060608486031215614e7857600080fd5b8335614e8381614bb9565b92506020840135614e9381614bb9565b929592945050506040919091013590565b60008060408385031215614eb757600080fd5b50508035926020909101359150565b60008060208385031215614ed957600080fd5b82356001600160401b03811115614eef57600080fd5b614efb85828601614d1a565b90969095509350505050565b600080600060408486031215614f1c57600080fd5b8335614f2781614bb9565b925060208401356001600160401b03811115614d8d57600080fd5b6020808252825182820181905260009190848201906040850190845b81811015614f835783516001600160a01b031683529284019291840191600101614f5e565b50909695505050505050565b60008060008060408587031215614fa557600080fd5b84356001600160401b0380821115614fbc57600080fd5b614fc888838901614da6565b90965094506020870135915080821115614fe157600080fd5b50614fee87828801614da6565b95989497509550505050565b60008060006040848603121561500f57600080fd5b833561501a81614bb9565b925060208401356001600160401b0381111561503557600080fd5b614d9986828701614da6565b80151581146109de57600080fd5b6000806000806060858703121561506557600080fd5b843561507081614bb9565b935060208501356001600160401b0381111561508b57600080fd5b61509787828801614d1a565b90945092505060408501356150ab81615041565b939692955090935050565b634e487b7160e01b600052604160045260246000fd5b604051601f8201601f191681016001600160401b03811182821017156150f4576150f46150b6565b604052919050565b60008060006040848603121561511157600080fd5b83356001600160401b038082111561512857600080fd5b818601915086601f83011261513c57600080fd5b8135602082821115615150576151506150b6565b8160051b61515f8282016150cc565b928352848101820192828101908b85111561517957600080fd5b958301955b848710156151975786358252958301959083019061517e565b98505050870135925050808211156151ae57600080fd5b50614d9986828701614da6565b6000806000604084860312156151d057600080fd5b83356001600160401b038111156151e657600080fd5b6151f286828701614d1a565b909450925050602084013561520681615041565b809150509250925092565b6000806040838503121561522457600080fd5b823561522f81614bb9565b91506020830135614c7c81615041565b60006020828403121561525157600080fd5b813561270e81615041565b6000806040838503121561526f57600080fd5b823561527a81614bb9565b9150602083013561ffff81168114614c7c57600080fd5b6000806000806000606086880312156152a957600080fd5b85356152b481614bb9565b945060208601356001600160401b0380821115614e2057600080fd5b60006001600160401b038211156152e9576152e96150b6565b50601f01601f191660200190565b6000806000806080858703121561530d57600080fd5b843561531881614bb9565b9350602085013561532881614bb9565b92506040850135915060608501356001600160401b0381111561534a57600080fd5b8501601f8101871361535b57600080fd5b803561536e615369826152d0565b6150cc565b81815288602083850101111561538357600080fd5b8160208401602083013760006020838301015280935050505092959194509250565b600081518084526020808501945080840160005b83811015614cfc5781516001600160a01b0316875295820195908201906001016153b9565b60208152600061270e60208301846153a5565b60408152600061540460408301856153a5565b82810360208401526154168185614ccc565b95945050505050565b60208082526024908201527f41646d696e436f6e74726f6c3a204d757374206265206f776e6572206f7220616040820152633236b4b760e11b606082015260800190565b602080825260159082015274115e1d195b9cda5bdb88189b1858dadb1a5cdd1959605a1b604082015260600190565b600181811c908216806154a657607f821691505b602082108103610a2857634e487b7160e01b600052602260045260246000fd5b6020808252601190820152702737b732bc34b9ba32b73a103a37b5b2b760791b604082015260600190565b60208082526031908201527f4552433732313a207472616e736665722063616c6c6572206973206e6f74206f6040820152701ddb995c881b9bdc88185c1c1c9bdd9959607a1b606082015260800190565b6020808252601f908201527f5265656e7472616e637947756172643a207265656e7472616e742063616c6c00604082015260600190565b6020808252601c908201527f4d757374206265207265676973746572656420657874656e73696f6e00000000604082015260600190565b6020808252818101527f4f776e61626c653a2063616c6c6572206973206e6f7420746865206f776e6572604082015260600190565b634e487b7160e01b600052603260045260246000fd5b634e487b7160e01b600052601160045260246000fd5b600060018201615623576156236155fb565b5060010190565b6000808335601e1984360301811261564157600080fd5b8301803591506001600160401b0382111561565b57600080fd5b602001915036819003821315610f5757600080fd5b6020808252600d908201526c125b9d985b1a59081a5b9c1d5d609a1b604082015260600190565b60208082526022908201527f45524337323143726561746f723a20496e646578206f7574206f6620626f756e604082015261647360f01b606082015260800190565b600061ffff8083168181036156f0576156f06155fb565b6001019392505050565b601f821115610cb057600081815260208120601f850160051c810160208610156157215750805b601f850160051c820191505b8181101561324a5782815560010161572d565b6001600160401b03831115615757576157576150b6565b61576b836157658354615492565b836156fa565b6000601f84116001811461579f57600085156157875750838201355b600019600387901b1c1916600186901b178355610e0c565b600083815260209020601f19861690835b828110156157d057868501358255602094850194600190920191016157b0565b50868210156157ed5760001960f88860031b161c19848701351681555b505060018560011b0183555050505050565b8082018082111561097c5761097c6155fb565b6040808252810184905260008560608301825b8781101561585557823561583881614bb9565b6001600160a01b0316825260209283019290910190600101615825565b5083810360208501528481526001600160fb1b0385111561587557600080fd5b8460051b915081866020830137016020019695505050505050565b8181038181111561097c5761097c6155fb565b81516001600160401b038111156158bc576158bc6150b6565b6158d0816158ca8454615492565b846156fa565b602080601f83116001811461590557600084156158ed5750858301515b600019600386901b1c1916600185901b17855561324a565b600085815260208120601f198616915b8281101561593457888601518255948401946001909101908401615915565b50858210156159525787850151600019600388901b60f8161c191681555b5050505050600190811b01905550565b808202811582820484141761097c5761097c6155fb565b634e487b7160e01b600052601260045260246000fd5b60008261599e5761599e615979565b500490565b60208082526032908201527f4552433732313a207472616e7366657220746f206e6f6e20455243373231526560408201527131b2b4bb32b91034b6b83632b6b2b73a32b960711b606082015260800190565b634e487b7160e01b600052603160045260246000fd5b60008251615a1d818460208701614beb565b9190910192915050565b600060208284031215615a3957600080fd5b815161270e81615041565b6001600160a01b0385811682528416602082015260408101839052608060608201819052600090613cee90830184614c0f565b600060208284031215615a8957600080fd5b815161270e81614b86565b60008154615aa181615492565b60018281168015615ab95760018114615ace57615afd565b60ff1984168752821515830287019450615afd565b8560005260208060002060005b85811015615af45781548a820152908401908201615adb565b50505082870194505b5050505092915050565b6000612c2e615b168386615a94565b84615a94565b600060208284031215615b2e57600080fd5b81516001600160401b03811115615b4457600080fd5b8201601f81018413615b5557600080fd5b8051615b63615369826152d0565b818152856020838501011115615b7857600080fd5b615416826020830160208601614beb565b6000615b958285615a94565b8351615ba5818360208801614beb565b01949350505050565b600082615bbd57615bbd615979565b50069056fea264697066735822122068eee19df01d2181795d83307a5820b08e85b2a093c46add195d6c8996c8dcee64736f6c63430008110033",
  "linkReferences": {},
  "deployedLinkReferences": {}
}