{
  "_format": "hh-sol-artifact-1",
  "contractName": "ERC721CreatorUpgradeable",
  "sourceName": "contracts/manifold/creator-core/ERC721CreatorUpgradeable.sol",
  "abi": [
    {
      "anonymous": false,
      "inputs": [
        {
          "indexed": true,
          "internalType": "address",
          "name": "account",
          "type": "address"
        },
        {
          "indexed": true,
          "internalType": "address",
          "name": "sender",
          "type": "address"
        }
      ],
      "name": "AdminApproved",
      "type": "event"
    },
    {
      "anonymous": false,
      "inputs": [
        {
          "indexed": true,
          "internalType": "address",
          "name": "account",
          "type": "address"
        },
        {
          "indexed": true,
          "internalType": "address",
          "name": "sender",
          "type": "address"
        }
      ],
      "name": "AdminRevoked",
      "type": "event"
    },
    {
      "anonymous": false,
      "inputs": [
        {
          "indexed": true,
          "internalType": "address",
          "name": "owner",
          "type": "address"
        },
        {
          "indexed": true,
          "internalType": "address",
          "name": "approved",
          "type": "address"
        },
        {
          "indexed": true,
          "internalType": "uint256",
          "name": "tokenId",
          "type": "uint256"
        }
      ],
      "name": "Approval",
      "type": "event"
    },
    {
      "anonymous": false,
      "inputs": [
        {
          "indexed": true,
          "internalType": "address",
          "name": "owner",
          "type": "address"
        },
        {
          "indexed": true,
          "internalType": "address",
          "name": "operator",
          "type": "address"
        },
        {
          "indexed": false,
          "internalType": "bool",
          "name": "approved",
          "type": "bool"
        }
      ],
      "name": "ApprovalForAll",
      "type": "event"
    },
    {
      "anonymous": false,
      "inputs": [
        {
          "indexed": false,
          "internalType": "address payable[]",
          "name": "receivers",
          "type": "address[]"
        },
        {
          "indexed": false,
          "internalType": "uint256[]",
          "name": "basisPoints",
          "type": "uint256[]"
        }
      ],
      "name": "DefaultRoyaltiesUpdated",
      "type": "event"
    },
    {
      "anonymous": false,
      "inputs": [
        {
          "indexed": true,
          "internalType": "address",
          "name": "extension",
          "type": "address"
        },
        {
          "indexed": false,
          "internalType": "bool",
          "name": "enabled",
          "type": "bool"
        }
      ],
      "name": "ExtensionApproveTransferUpdated",
      "type": "event"
    },
    {
      "anonymous": false,
      "inputs": [
        {
          "indexed": true,
          "internalType": "address",
          "name": "extension",
          "type": "address"
        },
        {
          "indexed": true,
          "internalType": "address",
          "name": "sender",
          "type": "address"
        }
      ],
      "name": "ExtensionBlacklisted",
      "type": "event"
    },
    {
      "anonymous": false,
      "inputs": [
        {
          "indexed": true,
          "internalType": "address",
          "name": "extension",
          "type": "address"
        },
        {
          "indexed": true,
          "internalType": "address",
          "name": "sender",
          "type": "address"
        }
      ],
      "name": "ExtensionRegistered",
      "type": "event"
    },
    {
      "anonymous": false,
      "inputs": [
        {
          "indexed": true,
          "internalType": "address",
          "name": "extension",
          "type": "address"
        },
        {
          "indexed": false,
          "internalType": "address payable[]",
          "name": "receivers",
          "type": "address[]"
        },
        {
          "indexed": false,
          "internalType": "uint256[]",
          "name": "basisPoints",
          "type": "uint256[]"
        }
      ],
      "name": "ExtensionRoyaltiesUpdated",
      "type": "event"
    },
    {
      "anonymous": false,
      "inputs": [
        {
          "indexed": true,
          "internalType": "address",
          "name": "extension",
          "type": "address"
        },
        {
          "indexed": true,
          "internalType": "address",
          "name": "sender",
          "type": "address"
        }
      ],
      "name": "ExtensionUnregistered",
      "type": "event"
    },
    {
      "anonymous": false,
      "inputs": [
        {
          "indexed": true,
          "internalType": "address",
          "name": "extension",
          "type": "address"
        },
        {
          "indexed": true,
          "internalType": "address",
          "name": "permissions",
          "type": "address"
        },
        {
          "indexed": true,
          "internalType": "address",
          "name": "sender",
          "type": "address"
        }
      ],
      "name": "MintPermissionsUpdated",
      "type": "event"
    },
    {
      "anonymous": false,
      "inputs": [
        {
          "indexed": true,
          "internalType": "address",
          "name": "previousOwner",
          "type": "address"
        },
        {
          "indexed": true,
          "internalType": "address",
          "name": "newOwner",
          "type": "address"
        }
      ],
      "name": "OwnershipTransferred",
      "type": "event"
    },
    {
      "anonymous": false,
      "inputs": [
        {
          "indexed": true,
          "internalType": "uint256",
          "name": "tokenId",
          "type": "uint256"
        },
        {
          "indexed": false,
          "internalType": "address payable[]",
          "name": "receivers",
          "type": "address[]"
        },
        {
          "indexed": false,
          "internalType": "uint256[]",
          "name": "basisPoints",
          "type": "uint256[]"
        }
      ],
      "name": "RoyaltiesUpdated",
      "type": "event"
    },
    {
      "anonymous": false,
      "inputs": [
        {
          "indexed": true,
          "internalType": "address",
          "name": "from",
          "type": "address"
        },
        {
          "indexed": true,
          "internalType": "address",
          "name": "to",
          "type": "address"
        },
        {
          "indexed": true,
          "internalType": "uint256",
          "name": "tokenId",
          "type": "uint256"
        }
      ],
      "name": "Transfer",
      "type": "event"
    },
    {
      "inputs": [
        {
          "internalType": "address",
          "name": "to",
          "type": "address"
        },
        {
          "internalType": "uint256",
          "name": "tokenId",
          "type": "uint256"
        }
      ],
      "name": "approve",
      "outputs": [],
      "stateMutability": "nonpayable",
      "type": "function"
    },
    {
      "inputs": [
        {
          "internalType": "address",
          "name": "admin",
          "type": "address"
        }
      ],
      "name": "approveAdmin",
      "outputs": [],
      "stateMutability": "nonpayable",
      "type": "function"
    },
    {
      "inputs": [
        {
          "internalType": "address",
          "name": "owner",
          "type": "address"
        }
      ],
      "name": "balanceOf",
      "outputs": [
        {
          "internalType": "uint256",
          "name": "",
          "type": "uint256"
        }
      ],
      "stateMutability": "view",
      "type": "function"
    },
    {
      "inputs": [
        {
          "internalType": "address",
          "name": "extension",
          "type": "address"
        }
      ],
      "name": "blacklistExtension",
      "outputs": [],
      "stateMutability": "nonpayable",
      "type": "function"
    },
    {
      "inputs": [
        {
          "internalType": "uint256",
          "name": "tokenId",
          "type": "uint256"
        }
      ],
      "name": "burn",
      "outputs": [],
      "stateMutability": "nonpayable",
      "type": "function"
    },
    {
      "inputs": [],
      "name": "getAdmins",
      "outputs": [
        {
          "internalType": "address[]",
          "name": "admins",
          "type": "address[]"
        }
      ],
      "stateMutability": "view",
      "type": "function"
    },
    {
      "inputs": [
        {
          "internalType": "uint256",
          "name": "tokenId",
          "type": "uint256"
        }
      ],
      "name": "getApproved",
      "outputs": [
        {
          "internalType": "address",
          "name": "",
          "type": "address"
        }
      ],
      "stateMutability": "view",
      "type": "function"
    },
    {
      "inputs": [],
      "name": "getExtensions",
      "outputs": [
        {
          "internalType": "address[]",
          "name": "extensions",
          "type": "address[]"
        }
      ],
      "stateMutability": "view",
      "type": "function"
    },
    {
      "inputs": [
        {
          "internalType": "uint256",
          "name": "tokenId",
          "type": "uint256"
        }
      ],
      "name": "getFeeBps",
      "outputs": [
        {
          "internalType": "uint256[]",
          "name": "",
          "type": "uint256[]"
        }
      ],
      "stateMutability": "view",
      "type": "function"
    },
    {
      "inputs": [
        {
          "internalType": "uint256",
          "name": "tokenId",
          "type": "uint256"
        }
      ],
      "name": "getFeeRecipients",
      "outputs": [
        {
          "internalType": "address payable[]",
          "name": "",
          "type": "address[]"
        }
      ],
      "stateMutability": "view",
      "type": "function"
    },
    {
      "inputs": [
        {
          "internalType": "uint256",
          "name": "tokenId",
          "type": "uint256"
        }
      ],
      "name": "getFees",
      "outputs": [
        {
          "internalType": "address payable[]",
          "name": "",
          "type": "address[]"
        },
        {
          "internalType": "uint256[]",
          "name": "",
          "type": "uint256[]"
        }
      ],
      "stateMutability": "view",
      "type": "function"
    },
    {
      "inputs": [
        {
          "internalType": "uint256",
          "name": "tokenId",
          "type": "uint256"
        }
      ],
      "name": "getRoyalties",
      "outputs": [
        {
          "internalType": "address payable[]",
          "name": "",
          "type": "address[]"
        },
        {
          "internalType": "uint256[]",
          "name": "",
          "type": "uint256[]"
        }
      ],
      "stateMutability": "view",
      "type": "function"
    },
    {
      "inputs": [
        {
          "internalType": "string",
          "name": "_name",
          "type": "string"
        },
        {
          "internalType": "string",
          "name": "_symbol",
          "type": "string"
        }
      ],
      "name": "initialize",
      "outputs": [],
      "stateMutability": "nonpayable",
      "type": "function"
    },
    {
      "inputs": [
        {
          "internalType": "address",
          "name": "admin",
          "type": "address"
        }
      ],
      "name": "isAdmin",
      "outputs": [
        {
          "internalType": "bool",
          "name": "",
          "type": "bool"
        }
      ],
      "stateMutability": "view",
      "type": "function"
    },
    {
      "inputs": [
        {
          "internalType": "address",
          "name": "owner",
          "type": "address"
        },
        {
          "internalType": "address",
          "name": "operator",
          "type": "address"
        }
      ],
      "name": "isApprovedForAll",
      "outputs": [
        {
          "internalType": "bool",
          "name": "",
          "type": "bool"
        }
      ],
      "stateMutability": "view",
      "type": "function"
    },
    {
      "inputs": [
        {
          "internalType": "address",
          "name": "to",
          "type": "address"
        }
      ],
      "name": "mintBase",
      "outputs": [
        {
          "internalType": "uint256",
          "name": "",
          "type": "uint256"
        }
      ],
      "stateMutability": "nonpayable",
      "type": "function"
    },
    {
      "inputs": [
        {
          "internalType": "address",
          "name": "to",
          "type": "address"
        },
        {
          "internalType": "string",
          "name": "uri",
          "type": "string"
        }
      ],
      "name": "mintBase",
      "outputs": [
        {
          "internalType": "uint256",
          "name": "",
          "type": "uint256"
        }
      ],
      "stateMutability": "nonpayable",
      "type": "function"
    },
    {
      "inputs": [
        {
          "internalType": "address",
          "name": "to",
          "type": "address"
        },
        {
          "internalType": "string[]",
          "name": "uris",
          "type": "string[]"
        }
      ],
      "name": "mintBaseBatch",
      "outputs": [
        {
          "internalType": "uint256[]",
          "name": "tokenIds",
          "type": "uint256[]"
        }
      ],
      "stateMutability": "nonpayable",
      "type": "function"
    },
    {
      "inputs": [
        {
          "internalType": "address",
          "name": "to",
          "type": "address"
        },
        {
          "internalType": "uint16",
          "name": "count",
          "type": "uint16"
        }
      ],
      "name": "mintBaseBatch",
      "outputs": [
        {
          "internalType": "uint256[]",
          "name": "tokenIds",
          "type": "uint256[]"
        }
      ],
      "stateMutability": "nonpayable",
      "type": "function"
    },
    {
      "inputs": [
        {
          "internalType": "address",
          "name": "to",
          "type": "address"
        }
      ],
      "name": "mintExtension",
      "outputs": [
        {
          "internalType": "uint256",
          "name": "",
          "type": "uint256"
        }
      ],
      "stateMutability": "nonpayable",
      "type": "function"
    },
    {
      "inputs": [
        {
          "internalType": "address",
          "name": "to",
          "type": "address"
        },
        {
          "internalType": "string",
          "name": "uri",
          "type": "string"
        }
      ],
      "name": "mintExtension",
      "outputs": [
        {
          "internalType": "uint256",
          "name": "",
          "type": "uint256"
        }
      ],
      "stateMutability": "nonpayable",
      "type": "function"
    },
    {
      "inputs": [
        {
          "internalType": "address",
          "name": "to",
          "type": "address"
        },
        {
          "internalType": "string[]",
          "name": "uris",
          "type": "string[]"
        }
      ],
      "name": "mintExtensionBatch",
      "outputs": [
        {
          "internalType": "uint256[]",
          "name": "tokenIds",
          "type": "uint256[]"
        }
      ],
      "stateMutability": "nonpayable",
      "type": "function"
    },
    {
      "inputs": [
        {
          "internalType": "address",
          "name": "to",
          "type": "address"
        },
        {
          "internalType": "uint16",
          "name": "count",
          "type": "uint16"
        }
      ],
      "name": "mintExtensionBatch",
      "outputs": [
        {
          "internalType": "uint256[]",
          "name": "tokenIds",
          "type": "uint256[]"
        }
      ],
      "stateMutability": "nonpayable",
      "type": "function"
    },
    {
      "inputs": [],
      "name": "name",
      "outputs": [
        {
          "internalType": "string",
          "name": "",
          "type": "string"
        }
      ],
      "stateMutability": "view",
      "type": "function"
    },
    {
      "inputs": [],
      "name": "owner",
      "outputs": [
        {
          "internalType": "address",
          "name": "",
          "type": "address"
        }
      ],
      "stateMutability": "view",
      "type": "function"
    },
    {
      "inputs": [
        {
          "internalType": "uint256",
          "name": "tokenId",
          "type": "uint256"
        }
      ],
      "name": "ownerOf",
      "outputs": [
        {
          "internalType": "address",
          "name": "",
          "type": "address"
        }
      ],
      "stateMutability": "view",
      "type": "function"
    },
    {
      "inputs": [
        {
          "internalType": "address",
          "name": "extension",
          "type": "address"
        },
        {
          "internalType": "string",
          "name": "baseURI",
          "type": "string"
        }
      ],
      "name": "registerExtension",
      "outputs": [],
      "stateMutability": "nonpayable",
      "type": "function"
    },
    {
      "inputs": [
        {
          "internalType": "address",
          "name": "extension",
          "type": "address"
        },
        {
          "internalType": "string",
          "name": "baseURI",
          "type": "string"
        },
        {
          "internalType": "bool",
          "name": "baseURIIdentical",
          "type": "bool"
        }
      ],
      "name": "registerExtension",
      "outputs": [],
      "stateMutability": "nonpayable",
      "type": "function"
    },
    {
      "inputs": [],
      "name": "renounceOwnership",
      "outputs": [],
      "stateMutability": "nonpayable",
      "type": "function"
    },
    {
      "inputs": [
        {
          "internalType": "address",
          "name": "admin",
          "type": "address"
        }
      ],
      "name": "revokeAdmin",
      "outputs": [],
      "stateMutability": "nonpayable",
      "type": "function"
    },
    {
      "inputs": [
        {
          "internalType": "uint256",
          "name": "tokenId",
          "type": "uint256"
        },
        {
          "internalType": "uint256",
          "name": "value",
          "type": "uint256"
        }
      ],
      "name": "royaltyInfo",
      "outputs": [
        {
          "internalType": "address",
          "name": "",
          "type": "address"
        },
        {
          "internalType": "uint256",
          "name": "",
          "type": "uint256"
        }
      ],
      "stateMutability": "view",
      "type": "function"
    },
    {
      "inputs": [
        {
          "internalType": "address",
          "name": "from",
          "type": "address"
        },
        {
          "internalType": "address",
          "name": "to",
          "type": "address"
        },
        {
          "internalType": "uint256",
          "name": "tokenId",
          "type": "uint256"
        }
      ],
      "name": "safeTransferFrom",
      "outputs": [],
      "stateMutability": "nonpayable",
      "type": "function"
    },
    {
      "inputs": [
        {
          "internalType": "address",
          "name": "from",
          "type": "address"
        },
        {
          "internalType": "address",
          "name": "to",
          "type": "address"
        },
        {
          "internalType": "uint256",
          "name": "tokenId",
          "type": "uint256"
        },
        {
          "internalType": "bytes",
          "name": "_data",
          "type": "bytes"
        }
      ],
      "name": "safeTransferFrom",
      "outputs": [],
      "stateMutability": "nonpayable",
      "type": "function"
    },
    {
      "inputs": [
        {
          "internalType": "address",
          "name": "operator",
          "type": "address"
        },
        {
          "internalType": "bool",
          "name": "approved",
          "type": "bool"
        }
      ],
      "name": "setApprovalForAll",
      "outputs": [],
      "stateMutability": "nonpayable",
      "type": "function"
    },
    {
      "inputs": [
        {
          "internalType": "bool",
          "name": "enabled",
          "type": "bool"
        }
      ],
      "name": "setApproveTransferExtension",
      "outputs": [],
      "stateMutability": "nonpayable",
      "type": "function"
    },
    {
      "inputs": [
        {
          "internalType": "string",
          "name": "uri",
          "type": "string"
        }
      ],
      "name": "setBaseTokenURI",
      "outputs": [],
      "stateMutability": "nonpayable",
      "type": "function"
    },
    {
      "inputs": [
        {
          "internalType": "string",
          "name": "uri",
          "type": "string"
        }
      ],
      "name": "setBaseTokenURIExtension",
      "outputs": [],
      "stateMutability": "nonpayable",
      "type": "function"
    },
    {
      "inputs": [
        {
          "internalType": "string",
          "name": "uri",
          "type": "string"
        },
        {
          "internalType": "bool",
          "name": "identical",
          "type": "bool"
        }
      ],
      "name": "setBaseTokenURIExtension",
      "outputs": [],
      "stateMutability": "nonpayable",
      "type": "function"
    },
    {
      "inputs": [
        {
          "internalType": "address",
          "name": "extension",
          "type": "address"
        },
        {
          "internalType": "address",
          "name": "permissions",
          "type": "address"
        }
      ],
      "name": "setMintPermissions",
      "outputs": [],
      "stateMutability": "nonpayable",
      "type": "function"
    },
    {
      "inputs": [
        {
          "internalType": "uint256",
          "name": "tokenId",
          "type": "uint256"
        },
        {
          "internalType": "address payable[]",
          "name": "receivers",
          "type": "address[]"
        },
        {
          "internalType": "uint256[]",
          "name": "basisPoints",
          "type": "uint256[]"
        }
      ],
      "name": "setRoyalties",
      "outputs": [],
      "stateMutability": "nonpayable",
      "type": "function"
    },
    {
      "inputs": [
        {
          "internalType": "address payable[]",
          "name": "receivers",
          "type": "address[]"
        },
        {
          "internalType": "uint256[]",
          "name": "basisPoints",
          "type": "uint256[]"
        }
      ],
      "name": "setRoyalties",
      "outputs": [],
      "stateMutability": "nonpayable",
      "type": "function"
    },
    {
      "inputs": [
        {
          "internalType": "address",
          "name": "extension",
          "type": "address"
        },
        {
          "internalType": "address payable[]",
          "name": "receivers",
          "type": "address[]"
        },
        {
          "internalType": "uint256[]",
          "name": "basisPoints",
          "type": "uint256[]"
        }
      ],
      "name": "setRoyaltiesExtension",
      "outputs": [],
      "stateMutability": "nonpayable",
      "type": "function"
    },
    {
      "inputs": [
        {
          "internalType": "uint256",
          "name": "tokenId",
          "type": "uint256"
        },
        {
          "internalType": "string",
          "name": "uri",
          "type": "string"
        }
      ],
      "name": "setTokenURI",
      "outputs": [],
      "stateMutability": "nonpayable",
      "type": "function"
    },
    {
      "inputs": [
        {
          "internalType": "uint256[]",
          "name": "tokenIds",
          "type": "uint256[]"
        },
        {
          "internalType": "string[]",
          "name": "uris",
          "type": "string[]"
        }
      ],
      "name": "setTokenURI",
      "outputs": [],
      "stateMutability": "nonpayable",
      "type": "function"
    },
    {
      "inputs": [
        {
          "internalType": "uint256[]",
          "name": "tokenIds",
          "type": "uint256[]"
        },
        {
          "internalType": "string[]",
          "name": "uris",
          "type": "string[]"
        }
      ],
      "name": "setTokenURIExtension",
      "outputs": [],
      "stateMutability": "nonpayable",
      "type": "function"
    },
    {
      "inputs": [
        {
          "internalType": "uint256",
          "name": "tokenId",
          "type": "uint256"
        },
        {
          "internalType": "string",
          "name": "uri",
          "type": "string"
        }
      ],
      "name": "setTokenURIExtension",
      "outputs": [],
      "stateMutability": "nonpayable",
      "type": "function"
    },
    {
      "inputs": [
        {
          "internalType": "string",
          "name": "prefix",
          "type": "string"
        }
      ],
      "name": "setTokenURIPrefix",
      "outputs": [],
      "stateMutability": "nonpayable",
      "type": "function"
    },
    {
      "inputs": [
        {
          "internalType": "string",
          "name": "prefix",
          "type": "string"
        }
      ],
      "name": "setTokenURIPrefixExtension",
      "outputs": [],
      "stateMutability": "nonpayable",
      "type": "function"
    },
    {
      "inputs": [
        {
          "internalType": "bytes4",
          "name": "interfaceId",
          "type": "bytes4"
        }
      ],
      "name": "supportsInterface",
      "outputs": [
        {
          "internalType": "bool",
          "name": "",
          "type": "bool"
        }
      ],
      "stateMutability": "view",
      "type": "function"
    },
    {
      "inputs": [],
      "name": "symbol",
      "outputs": [
        {
          "internalType": "string",
          "name": "",
          "type": "string"
        }
      ],
      "stateMutability": "view",
      "type": "function"
    },
    {
      "inputs": [
        {
          "internalType": "uint256",
          "name": "tokenId",
          "type": "uint256"
        }
      ],
      "name": "tokenExtension",
      "outputs": [
        {
          "internalType": "address",
          "name": "",
          "type": "address"
        }
      ],
      "stateMutability": "view",
      "type": "function"
    },
    {
      "inputs": [
        {
          "internalType": "uint256",
          "name": "tokenId",
          "type": "uint256"
        }
      ],
      "name": "tokenURI",
      "outputs": [
        {
          "internalType": "string",
          "name": "",
          "type": "string"
        }
      ],
      "stateMutability": "view",
      "type": "function"
    },
    {
      "inputs": [
        {
          "internalType": "address",
          "name": "from",
          "type": "address"
        },
        {
          "internalType": "address",
          "name": "to",
          "type": "address"
        },
        {
          "internalType": "uint256",
          "name": "tokenId",
          "type": "uint256"
        }
      ],
      "name": "transferFrom",
      "outputs": [],
      "stateMutability": "nonpayable",
      "type": "function"
    },
    {
      "inputs": [
        {
          "internalType": "address",
          "name": "newOwner",
          "type": "address"
        }
      ],
      "name": "transferOwnership",
      "outputs": [],
      "stateMutability": "nonpayable",
      "type": "function"
    },
    {
      "inputs": [
        {
          "internalType": "address",
          "name": "extension",
          "type": "address"
        }
      ],
      "name": "unregisterExtension",
      "outputs": [],
      "stateMutability": "nonpayable",
      "type": "function"
    }
  ],
  "bytecode": "0x6080604052600060cc5534801561001557600080fd5b5060016065556153e58061002a6000396000f3fe608060405234801561001057600080fd5b506004361061035d5760003560e01c80636d73e669116101d3578063ad2d0ddd11610104578063d5a06d4c116100a2578063e985e9c51161007c578063e985e9c51461077d578063f0cdc49914610790578063f2fde38b146107a3578063fe2e1f58146107b657600080fd5b8063d5a06d4c14610710578063e00aab4b14610757578063e92a89f61461076a57600080fd5b8063b9c4d9fb116100de578063b9c4d9fb146106f0578063bb3bafd614610710578063c87b56dd14610731578063ce8aee9d1461074457600080fd5b8063ad2d0ddd146106b7578063b0fe87c9146106ca578063b88d4fde146106dd57600080fd5b806383b7db631161017157806399e0dd7c1161014b57806399e0dd7c1461066b578063a22cb4651461067e578063aafb2d4414610691578063ac0c8cfa146106a457600080fd5b806383b7db631461064a5780638da5cb5b1461065257806395d89b411461066357600080fd5b806372ff03d3116101ad57806372ff03d3146105fe5780637884af44146106115780637aa15f161461062457806382dcc0c81461063757600080fd5b80636d73e669146105d057806370a08231146105e3578063715018a6146105f657600080fd5b80632d345670116102ad5780633f0f37f61161024b5780634cd88b76116102255780634cd88b761461058457806361e5bc6b146105975780636352211e146105aa57806366d1e9d0146105bd57600080fd5b80633f0f37f61461054b57806342842e0e1461055e57806342966c681461057157600080fd5b806331ae450b1161028757806331ae450b146104fd578063332dd1ae1461051257806338e52e78146105255780633e6134b81461053857600080fd5b80632d345670146104c457806330176e13146104d75780633071a0f9146104ea57600080fd5b8063162094c41161031a57806323b872dd116102f457806323b872dd1461044b57806324d7806c1461045e5780632928ca58146104715780632a55205a1461049257600080fd5b8063162094c41461041257806320e4afe214610425578063239be3171461043857600080fd5b806301ffc9a71461036257806302e7afb71461038a57806306fdde031461039f578063081812fc146103b4578063095ea7b3146103df5780630ebd4c7f146103f2575b600080fd5b610375610370366004614312565b6107c9565b60405190151581526020015b60405180910390f35b61039d610398366004614344565b6107f8565b005b6103a7610857565b60405161038191906143b1565b6103c76103c23660046143c4565b6108e9565b6040516001600160a01b039091168152602001610381565b61039d6103ed3660046143dd565b610971565b6104056104003660046143c4565b610a86565b6040516103819190614444565b61039d610420366004614498565b610b0c565b61039d610433366004614527565b610b61565b6103c76104463660046143c4565b610be4565b61039d6104593660046145a0565b610c14565b61037561046c366004614344565b610c45565b61048461047f366004614344565b610c7e565b604051908152602001610381565b6104a56104a03660046145e1565b610cf2565b604080516001600160a01b039093168352602083019190915201610381565b61039d6104d2366004614344565b610d30565b61039d6104e5366004614603565b610daf565b61039d6104f8366004614644565b610e38565b610505610ebe565b604051610381919061467f565b61039d6105203660046146cc565b610f6c565b610405610533366004614737565b610fc3565b61039d610546366004614603565b611100565b61039d61055936600461478c565b611133565b61039d61056c3660046145a0565b6111b2565b61039d61057f3660046143c4565b6111cd565b61039d6105923660046148be565b61128b565b61039d6105a5366004614921565b61130a565b6103c76105b83660046143c4565b6113e5565b61039d6105cb366004614603565b61145c565b61039d6105de366004614344565b61148d565b6104846105f1366004614344565b611507565b61039d61158e565b61048461060c366004614344565b6115c4565b61048461061f366004614644565b611650565b610405610632366004614737565b611710565b61039d6106453660046149e0565b611863565b610505611895565b6033546001600160a01b03166103c7565b6103a761193f565b61039d610679366004614603565b61194e565b61039d61068c366004614a36565b6119a2565b61039d61069f366004614921565b6119ad565b61039d6106b2366004614a6f565b611aab565b6104056106c5366004614a8c565b611bcf565b61039d6106d8366004614ac1565b611cf5565b61039d6106eb366004614b00565b611d4c565b6107036106fe3660046143c4565b611d7e565b6040516103819190614bb8565b61072361071e3660046143c4565b611e0d565b604051610381929190614bcb565b6103a761073f3660046143c4565b611ef1565b61039d610752366004614344565b611f21565b610405610765366004614a8c565b611f74565b61039d610778366004614498565b61206b565b61037561078b366004614bf9565b61209d565b61039d61079e366004614bf9565b6120cb565b61039d6107b1366004614344565b61211f565b6104846107c4366004614644565b6121b7565b60006107d482612247565b806107e357506107e38261228c565b806107f257506107f2826122cc565b92915050565b3361080b6033546001600160a01b031690565b6001600160a01b0316148061082657506108266066336122f1565b61084b5760405162461bcd60e51b815260040161084290614c27565b60405180910390fd5b61085481612316565b50565b6060609a805461086690614c6b565b80601f016020809104026020016040519081016040528092919081815260200182805461089290614c6b565b80156108df5780601f106108b4576101008083540402835291602001916108df565b820191906000526020600020905b8154815290600101906020018083116108c257829003601f168201915b5050505050905090565b60006108f482612411565b6109555760405162461bcd60e51b815260206004820152602c60248201527f4552433732313a20617070726f76656420717565727920666f72206e6f6e657860448201526b34b9ba32b73a103a37b5b2b760a11b6064820152608401610842565b506000908152609e60205260409020546001600160a01b031690565b600061097c826113e5565b9050806001600160a01b0316836001600160a01b0316036109e95760405162461bcd60e51b815260206004820152602160248201527f4552433732313a20617070726f76616c20746f2063757272656e74206f776e656044820152603960f91b6064820152608401610842565b336001600160a01b0382161480610a055750610a05813361209d565b610a775760405162461bcd60e51b815260206004820152603860248201527f4552433732313a20617070726f76652063616c6c6572206973206e6f74206f7760448201527f6e6572206e6f7220617070726f76656420666f7220616c6c00000000000000006064820152608401610842565b610a81838361242e565b505050565b6060610a9182612411565b610aad5760405162461bcd60e51b815260040161084290614c9f565b610ab68261249c565b805480602002602001604051908101604052809291908181526020018280548015610b0057602002820191906000526020600020905b815481526020019060010190808311610aec575b50505050509050919050565b33610b1f6033546001600160a01b031690565b6001600160a01b03161480610b3a5750610b3a6066336122f1565b610b565760405162461bcd60e51b815260040161084290614c27565b610a81838383612528565b33610b746033546001600160a01b031690565b6001600160a01b03161480610b8f5750610b8f6066336122f1565b610bab5760405162461bcd60e51b815260040161084290614c27565b610bb485612411565b610bd05760405162461bcd60e51b815260040161084290614c9f565b610bdd8585858585612597565b5050505050565b6000610bef82612411565b610c0b5760405162461bcd60e51b815260040161084290614c9f565b6107f2826126e0565b610c1e338261276d565b610c3a5760405162461bcd60e51b815260040161084290614cca565b610a81838383612837565b6000816001600160a01b0316610c636033546001600160a01b031690565b6001600160a01b031614806107f257506107f26066836122f1565b6000600260655403610ca25760405162461bcd60e51b815260040161084290614d1b565b6002606555610cb260cd336122f1565b610cce5760405162461bcd60e51b815260040161084290614d52565b610ce782604051806020016040528060008152506129e2565b600160655592915050565b600080610cfe84612411565b610d1a5760405162461bcd60e51b815260040161084290614c9f565b610d248484612a55565b915091505b9250929050565b6033546001600160a01b03163314610d5a5760405162461bcd60e51b815260040161084290614d89565b610d656066826122f1565b156108545760405133906001600160a01b038316907f7c0c3c84c67c85fcac635147348bfe374c24a1a93d0366d1cfe9d8853cbf89d590600090a3610dab606682612b40565b5050565b33610dc26033546001600160a01b031690565b6001600160a01b03161480610ddd5750610ddd6066336122f1565b610df95760405162461bcd60e51b815260040161084290614c27565b610dab82828080601f016020809104026020016040519081016040528093929190818152602001838380828437600092019190915250612b5592505050565b33610e4b6033546001600160a01b031690565b6001600160a01b03161480610e665750610e666066336122f1565b610e825760405162461bcd60e51b815260040161084290614c27565b82610e8e60cf826122f1565b15610eab5760405162461bcd60e51b815260040161084290614dbe565b610eb88484846000612b6e565b50505050565b6060610eca6066612ca8565b6001600160401b03811115610ee157610ee16147f3565b604051908082528060200260200182016040528015610f0a578160200160208202803683370190505b50905060005b610f1a6066612ca8565b811015610f6857610f2c606682612cb2565b828281518110610f3e57610f3e614ded565b6001600160a01b039092166020928302919091019091015280610f6081614e19565b915050610f10565b5090565b33610f7f6033546001600160a01b031690565b6001600160a01b03161480610f9a5750610f9a6066336122f1565b610fb65760405162461bcd60e51b815260040161084290614c27565b610eb83085858585612cbe565b6060600260655403610fe75760405162461bcd60e51b815260040161084290614d1b565b6002606555610ff760cd336122f1565b6110135760405162461bcd60e51b815260040161084290614d52565b816001600160401b0381111561102b5761102b6147f3565b604051908082528060200260200182016040528015611054578160200160208202803683370190505b50905060005b828110156110f3576110c48585858481811061107857611078614ded565b905060200281019061108a9190614e32565b8080601f0160208091040260200160405190810160405280939291908181526020018383808284376000920191909152506129e292505050565b8282815181106110d6576110d6614ded565b6020908102919091010152806110eb81614e19565b91505061105a565b5060016065559392505050565b61110b60cd336122f1565b6111275760405162461bcd60e51b815260040161084290614d52565b610dab82826000612e6e565b336111466033546001600160a01b031690565b6001600160a01b0316148061116157506111616066336122f1565b61117d5760405162461bcd60e51b815260040161084290614c27565b8361118960cf826122f1565b156111a65760405162461bcd60e51b815260040161084290614dbe565b610bdd85858585612b6e565b610a8183838360405180602001604052806000815250611d4c565b6002606554036111ef5760405162461bcd60e51b815260040161084290614d1b565b60026065556111fe338261276d565b6112625760405162461bcd60e51b815260206004820152602f60248201527f45524337323143726561746f723a2063616c6c6572206973206e6f74206f776e60448201526e195c881b9bdc88185c1c1c9bdd9959608a1b6064820152608401610842565b600061126d826113e5565b905061127882612eab565b6112828183612f52565b50506001606555565b600054610100900460ff16806112a4575060005460ff16155b6112c05760405162461bcd60e51b815260040161084290614e78565b600054610100900460ff161580156112e2576000805461ffff19166101011790555b6112ec8383613068565b6112f46130d9565b8015610a81576000805461ff0019169055505050565b61131560cd336122f1565b6113315760405162461bcd60e51b815260040161084290614d52565b825181146113815760405162461bcd60e51b815260206004820152601c60248201527f45524337323143726561746f723a20496e76616c696420696e707574000000006044820152606401610842565b60005b8351811015610eb8576113d38482815181106113a2576113a2614ded565b60200260200101518484848181106113bc576113bc614ded565b90506020028101906113ce9190614e32565b613154565b806113dd81614e19565b915050611384565b6000818152609c60205260408120546001600160a01b0316806107f25760405162461bcd60e51b815260206004820152602960248201527f4552433732313a206f776e657220717565727920666f72206e6f6e657869737460448201526832b73a103a37b5b2b760b91b6064820152608401610842565b61146760cd336122f1565b6114835760405162461bcd60e51b815260040161084290614d52565b610dab82826131aa565b6033546001600160a01b031633146114b75760405162461bcd60e51b815260040161084290614d89565b6114c26066826122f1565b6108545760405133906001600160a01b038316907f7e1a1a08d52e4ba0e21554733d66165fd5151f99460116223d9e3a608eec5cb190600090a3610dab6066826131c4565b60006001600160a01b0382166115725760405162461bcd60e51b815260206004820152602a60248201527f4552433732313a2062616c616e636520717565727920666f7220746865207a65604482015269726f206164647265737360b01b6064820152608401610842565b506001600160a01b03166000908152609d602052604090205490565b6033546001600160a01b031633146115b85760405162461bcd60e51b815260040161084290614d89565b6115c260006131d9565b565b60006002606554036115e85760405162461bcd60e51b815260040161084290614d1b565b6002606555336116006033546001600160a01b031690565b6001600160a01b0316148061161b575061161b6066336122f1565b6116375760405162461bcd60e51b815260040161084290614c27565b610ce7826040518060200160405280600081525061322b565b60006002606554036116745760405162461bcd60e51b815260040161084290614d1b565b60026065553361168c6033546001600160a01b031690565b6001600160a01b031614806116a757506116a76066336122f1565b6116c35760405162461bcd60e51b815260040161084290614c27565b6117038484848080601f01602080910402602001604051908101604052809392919081815260200183838082843760009201919091525061322b92505050565b6001606555949350505050565b60606002606554036117345760405162461bcd60e51b815260040161084290614d1b565b60026065553361174c6033546001600160a01b031690565b6001600160a01b0316148061176757506117676066336122f1565b6117835760405162461bcd60e51b815260040161084290614c27565b816001600160401b0381111561179b5761179b6147f3565b6040519080825280602002602001820160405280156117c4578160200160208202803683370190505b50905060005b828110156110f357611834858585848181106117e8576117e8614ded565b90506020028101906117fa9190614e32565b8080601f01602080910402602001604051908101604052809392919081815260200183838082843760009201919091525061322b92505050565b82828151811061184657611846614ded565b60209081029190910101528061185b81614e19565b9150506117ca565b61186e60cd336122f1565b61188a5760405162461bcd60e51b815260040161084290614d52565b610a81838383612e6e565b60606118a160cd612ca8565b6001600160401b038111156118b8576118b86147f3565b6040519080825280602002602001820160405280156118e1578160200160208202803683370190505b50905060005b6118f160cd612ca8565b811015610f685761190360cd82612cb2565b82828151811061191557611915614ded565b6001600160a01b03909216602092830291909101909101528061193781614e19565b9150506118e7565b6060609b805461086690614c6b565b336119616033546001600160a01b031690565b6001600160a01b0316148061197c575061197c6066336122f1565b6119985760405162461bcd60e51b815260040161084290614c27565b610dab828261326e565b610dab338383613288565b336119c06033546001600160a01b031690565b6001600160a01b031614806119db57506119db6066336122f1565b6119f75760405162461bcd60e51b815260040161084290614c27565b82518114611a475760405162461bcd60e51b815260206004820152601c60248201527f45524337323143726561746f723a20496e76616c696420696e707574000000006044820152606401610842565b60005b8351811015610eb857611a99848281518110611a6857611a68614ded565b6020026020010151848484818110611a8257611a82614ded565b9050602002810190611a949190614e32565b612528565b80611aa381614e19565b915050611a4a565b611ab660cd336122f1565b611ad25760405162461bcd60e51b815260040161084290614d52565b801580611aeb5750611aeb33634ce6d51160e11b613356565b611b5d5760405162461bcd60e51b815260206004820152603f60248201527f457874656e73696f6e206d75737420696d706c656d656e74204945524337323160448201527f43726561746f72457874656e73696f6e417070726f76655472616e73666572006064820152608401610842565b33600090815260d2602052604090205460ff161515811515146108545733600081815260d26020908152604091829020805460ff191685151590811790915591519182527f072a7592283e2c2d1d56d21517ff6013325e0f55483f4828373ff4d98b0a1a36910160405180910390a250565b6060600260655403611bf35760405162461bcd60e51b815260040161084290614d1b565b600260655533611c0b6033546001600160a01b031690565b6001600160a01b03161480611c265750611c266066336122f1565b611c425760405162461bcd60e51b815260040161084290614c27565b8161ffff166001600160401b03811115611c5e57611c5e6147f3565b604051908082528060200260200182016040528015611c87578160200160208202803683370190505b50905060005b8261ffff168161ffff161015611ce957611cb6846040518060200160405280600081525061322b565b828261ffff1681518110611ccc57611ccc614ded565b602090810291909101015280611ce181614ec6565b915050611c8d565b50600160655592915050565b33611d086033546001600160a01b031690565b6001600160a01b03161480611d235750611d236066336122f1565b611d3f5760405162461bcd60e51b815260040161084290614c27565b610bdd8585858585612cbe565b611d56338361276d565b611d725760405162461bcd60e51b815260040161084290614cca565b610eb884848484613372565b6060611d8982612411565b611da55760405162461bcd60e51b815260040161084290614c9f565b611dae826133a5565b805480602002602001604051908101604052809291908181526020018280548015610b0057602002820191906000526020600020905b81546001600160a01b03168152600190910190602001808311611de45750505050509050919050565b606080611e1983612411565b611e355760405162461bcd60e51b815260040161084290614c9f565b611e3e83613431565b815460408051602080840282018101909252828152918491830182828015611e8f57602002820191906000526020600020905b81546001600160a01b03168152600190910190602001808311611e71575b5050505050915080805480602002602001604051908101604052809291908181526020018280548015611ee157602002820191906000526020600020905b815481526020019060010190808311611ecd575b5050505050905091509150915091565b6060611efc82612411565b611f185760405162461bcd60e51b815260040161084290614c9f565b6107f28261344f565b33611f346033546001600160a01b031690565b6001600160a01b03161480611f4f5750611f4f6066336122f1565b611f6b5760405162461bcd60e51b815260040161084290614c27565b610854816136c9565b6060600260655403611f985760405162461bcd60e51b815260040161084290614d1b565b6002606555611fa860cd336122f1565b611fc45760405162461bcd60e51b815260040161084290614d52565b8161ffff166001600160401b03811115611fe057611fe06147f3565b604051908082528060200260200182016040528015612009578160200160208202803683370190505b50905060005b8261ffff168161ffff161015611ce95761203884604051806020016040528060008152506129e2565b828261ffff168151811061204e5761204e614ded565b60209081029190910101528061206381614ec6565b91505061200f565b61207660cd336122f1565b6120925760405162461bcd60e51b815260040161084290614d52565b610a81838383613154565b6001600160a01b039182166000908152609f6020908152604080832093909416825291909152205460ff1690565b336120de6033546001600160a01b031690565b6001600160a01b031614806120f957506120f96066336122f1565b6121155760405162461bcd60e51b815260040161084290614c27565b610dab828261371a565b6033546001600160a01b031633146121495760405162461bcd60e51b815260040161084290614d89565b6001600160a01b0381166121ae5760405162461bcd60e51b815260206004820152602660248201527f4f776e61626c653a206e6577206f776e657220697320746865207a65726f206160448201526564647265737360d01b6064820152608401610842565b610854816131d9565b60006002606554036121db5760405162461bcd60e51b815260040161084290614d1b565b60026065556121eb60cd336122f1565b6122075760405162461bcd60e51b815260040161084290614d52565b6117038484848080601f0160208091040260200160405190810160405280939291908181526020018383808284376000920191909152506129e292505050565b60006001600160e01b03198216639088c20760e01b148061226c575061226c8261384f565b806107f257506001600160e01b03198216631e05385b60e31b1492915050565b60006001600160e01b031982166380ac58cd60e01b14806122bd57506001600160e01b03198216635b5e139f60e01b145b806107f257506107f2826138e5565b60006001600160e01b03198216632a9f3abf60e11b14806107f257506107f2826138e5565b6001600160a01b038116600090815260018301602052604081205415155b9392505050565b306001600160a01b0382160361236e5760405162461bcd60e51b815260206004820152601960248201527f43616e6e6f7420626c61636b6c69737420796f757273656c66000000000000006044820152606401610842565b61237960cd826122f1565b156123c15760405133906001600160a01b038316907fd19cf84cf0fec6bec9ddfa29c63adf83a55707c712f32c8285d6180a7890147990600090a36123bf60cd82612b40565b505b6123cc60cf826122f1565b6108545760405133906001600160a01b038316907f05ac7bc5a606cd92a63365f9fda244499b9add0526b22d99937b6bd88181059c90600090a3610dab60cf826131c4565b6000908152609c60205260409020546001600160a01b0316151590565b6000818152609e6020526040902080546001600160a01b0319166001600160a01b0384169081179091558190612463826113e5565b6001600160a01b03167f8c5be1e5ebec7d5bd14f71427d1e84f3dd0314c0f7b2291e5b200ac8c7c3b92560405160405180910390a45050565b600081815260db6020526040812054156124c25750600090815260db6020526040902090565b600082815260d360209081526040808320546001600160a01b0316835260d9909152902054156125145750600090815260d360209081526040808320546001600160a01b0316835260d9909152902090565b505030600090815260d96020526040902090565b600083815260d360205260409020546001600160a01b0316301461257e5760405162461bcd60e51b815260206004820152600d60248201526c24b73b30b634b2103a37b5b2b760991b6044820152606401610842565b600083815260d760205260409020610eb8828483614f2d565b8281146125d65760405162461bcd60e51b815260206004820152600d60248201526c125b9d985b1a59081a5b9c1d5d609a1b6044820152606401610842565b6000805b8281101561261a578383828181106125f4576125f4614ded565b90506020020135826126069190614fec565b91508061261281614e19565b9150506125da565b5061271081106126665760405162461bcd60e51b8152602060048201526017602482015276496e76616c696420746f74616c20726f79616c7469657360481b6044820152606401610842565b600086815260da6020526040902061267f908686614217565b50600086815260db60205260409020612699908484614276565b50857fabb46fe0761d77584bde75697647804ffd8113abd4d8d06bc664150395eccdee868686866040516126d09493929190614fff565b60405180910390a2505050505050565b600081815260d360205260409020546001600160a01b03163081036127405760405162461bcd60e51b815260206004820152601660248201527527379032bc3a32b739b4b7b7103337b9103a37b5b2b760511b6044820152606401610842565b61274b60cf826122f1565b156127685760405162461bcd60e51b815260040161084290614dbe565b919050565b600061277882612411565b6127d95760405162461bcd60e51b815260206004820152602c60248201527f4552433732313a206f70657261746f7220717565727920666f72206e6f6e657860448201526b34b9ba32b73a103a37b5b2b760a11b6064820152608401610842565b60006127e4836113e5565b9050806001600160a01b0316846001600160a01b0316148061281f5750836001600160a01b0316612814846108e9565b6001600160a01b0316145b8061282f575061282f818561209d565b949350505050565b826001600160a01b031661284a826113e5565b6001600160a01b0316146128b25760405162461bcd60e51b815260206004820152602960248201527f4552433732313a207472616e73666572206f6620746f6b656e2074686174206960448201526839903737ba1037bbb760b91b6064820152608401610842565b6001600160a01b0382166129145760405162461bcd60e51b8152602060048201526024808201527f4552433732313a207472616e7366657220746f20746865207a65726f206164646044820152637265737360e01b6064820152608401610842565b61291f8383836138fb565b61292a60008261242e565b6001600160a01b0383166000908152609d6020526040812080546001929061295390849061507d565b90915550506001600160a01b0382166000908152609d60205260408120805460019290612981908490614fec565b90915550506000818152609c602052604080822080546001600160a01b0319166001600160a01b0386811691821790925591518493918716917fddf252ad1be2c89b69c2b068fc378daa952ba7f163c4a11628f55a4df523b3ef91a4505050565b60cc8054600091826129f383614e19565b919050555060cc549050612a078382613906565b600081815260d36020526040902080546001600160a01b03191633179055612a2f838261399a565b815115612a5057600081815260d760205260409020612a4e8382615090565b505b6107f2565b6000806000612a63856133a5565b805490915060011015612ab85760405162461bcd60e51b815260206004820152601c60248201527f4d6f7265207468616e203120726f79616c7479207265636569766572000000006044820152606401610842565b8054600003612ace573060009250925050610d29565b80600081548110612ae157612ae1614ded565b6000918252602090912001546001600160a01b031661271085612b038861249c565b600081548110612b1557612b15614ded565b9060005260206000200154612b2a919061514f565b612b34919061517c565b92509250509250929050565b600061230f836001600160a01b0384166139b4565b30600090815260d460205260409020610dab8282615090565b306001600160a01b03851603612bb95760405162461bcd60e51b815260206004820152601060248201526f10dc99585d1bdc8e88125b9d985b1a5960821b6044820152606401610842565b6001600160a01b0384163b612c1e5760405162461bcd60e51b815260206004820152602560248201527f43726561746f723a20457874656e73696f6e206d757374206265206120636f6e6044820152641d1c9858dd60da1b6064820152608401610842565b612c2960cd856122f1565b610eb8576001600160a01b038416600090815260d460205260409020612c50838583614f2d565b506001600160a01b038416600081815260d56020526040808220805460ff1916851515179055513392917fd8cb8ba4086944eabf43c5535b7712015e4d4c714b24bf812c040ea5b7a3e42a91a3610bdd60cd856131c4565b60006107f2825490565b600061230f8383613aa7565b828114612cfd5760405162461bcd60e51b815260206004820152600d60248201526c125b9d985b1a59081a5b9c1d5d609a1b6044820152606401610842565b6000805b82811015612d4157838382818110612d1b57612d1b614ded565b9050602002013582612d2d9190614fec565b915080612d3981614e19565b915050612d01565b506127108110612d8d5760405162461bcd60e51b8152602060048201526017602482015276496e76616c696420746f74616c20726f79616c7469657360481b6044820152606401610842565b6001600160a01b038616600090815260d860205260409020612db0908686614217565b506001600160a01b038616600090815260d960205260409020612dd4908484614276565b50306001600160a01b03871603612e27577f2b6849d5976d799a5b0ca4dfd6b40a3d7afe9ea72c091fa01a958594f9a2659b85858585604051612e1a9493929190614fff565b60405180910390a1612e66565b856001600160a01b03167f535a93d2cb000582c0ebeaa9be4890ec6a287f98eb2df00c54c300612fd78d8f868686866040516126d09493929190614fff565b505050505050565b33600090815260d460205260409020612e88838583614f2d565b5033600090815260d560205260409020805460ff19169115159190911790555050565b6000612eb6826113e5565b9050612ec4816000846138fb565b612ecf60008361242e565b6001600160a01b0381166000908152609d60205260408120805460019290612ef890849061507d565b90915550506000828152609c602052604080822080546001600160a01b0319169055518391906001600160a01b038416907fddf252ad1be2c89b69c2b068fc378daa952ba7f163c4a11628f55a4df523b3ef908390a45050565b600081815260d360205260409020546001600160a01b0316301461301257600081815260d36020526040902054612f99906001600160a01b03166311686e4b60e21b613356565b1561301257600081815260d36020526040908190205490516311686e4b60e21b81526001600160a01b03848116600483015260248201849052909116906345a1b92c90604401600060405180830381600087803b158015612ff957600080fd5b505af115801561300d573d6000803e3d6000fd5b505050505b600081815260d760205260409020805461302b90614c6b565b15905061304957600081815260d760205260408120613049916142b1565b600090815260d36020526040902080546001600160a01b031916905550565b600054610100900460ff1680613081575060005460ff16155b61309d5760405162461bcd60e51b815260040161084290614e78565b600054610100900460ff161580156130bf576000805461ffff19166101011790555b6130c7613ad1565b6130cf613ad1565b6112f48383613b3b565b600054610100900460ff16806130f2575060005460ff16155b61310e5760405162461bcd60e51b815260040161084290614e78565b600054610100900460ff16158015613130576000805461ffff19166101011790555b613138613ad1565b613140613bc2565b8015610854576000805461ff001916905550565b600083815260d360205260409020546001600160a01b0316331461257e5760405162461bcd60e51b815260206004820152600d60248201526c24b73b30b634b2103a37b5b2b760991b6044820152606401610842565b33600090815260d660205260409020610a81828483614f2d565b600061230f836001600160a01b038416613c22565b603380546001600160a01b038381166001600160a01b0319831681179093556040519116919082907f8be0079c531659141344cd1fd0a4f28419497f9722a3daafe3b4186f6b6457e090600090a35050565b60cc80546000918261323c83614e19565b909155505060cc54600081815260d36020526040902080546001600160a01b031916301790559050612a2f838261399a565b30600090815260d660205260409020610a81828483614f2d565b816001600160a01b0316836001600160a01b0316036132e95760405162461bcd60e51b815260206004820152601960248201527f4552433732313a20617070726f766520746f2063616c6c6572000000000000006044820152606401610842565b6001600160a01b038381166000818152609f6020908152604080832094871680845294825291829020805460ff191686151590811790915591519182527f17307eab39ab6107e8899845ad3d59bd9653f200f220920489ca2b5937696c31910160405180910390a3505050565b600061336183613c71565b801561230f575061230f8383613ca4565b61337d848484612837565b61338984848484613d8d565b610eb85760405162461bcd60e51b815260040161084290615190565b600081815260da6020526040812054156133cb5750600090815260da6020526040902090565b600082815260d360209081526040808320546001600160a01b0316835260d89091529020541561341d5750600090815260d360209081526040808320546001600160a01b0316835260d8909152902090565b505030600090815260d86020526040902090565b60008061343d836133a5565b6134468461249c565b91509150915091565b600081815260d360205260409020546060906001600160a01b031661347560cf826122f1565b156134925760405162461bcd60e51b815260040161084290614dbe565b600083815260d76020526040902080546134ab90614c6b565b1590506135c5576001600160a01b038116600090815260d66020526040902080546134d590614c6b565b159050613526576001600160a01b038116600090815260d66020908152604080832086845260d7835292819020905161350f939201615255565b604051602081830303815290604052915050919050565b600083815260d760205260409020805461353f90614c6b565b80601f016020809104026020016040519081016040528092919081815260200182805461356b90614c6b565b80156135b85780601f1061358d576101008083540402835291602001916135b8565b820191906000526020600020905b81548152906001019060200180831161359b57829003601f168201915b5050505050915050919050565b6135d68163e9dc637560e01b613356565b1561364e5760405163e9dc637560e01b8152306004820152602481018490526001600160a01b0382169063e9dc637590604401600060405180830381865afa158015613626573d6000803e3d6000fd5b505050506040513d6000823e601f3d908101601f1916820160405261230f919081019061526a565b6001600160a01b038116600090815260d5602052604090205460ff166136a0576001600160a01b038116600090815260d46020526040902061368f84613e8e565b60405160200161350f9291906152d7565b6001600160a01b038116600090815260d460205260409020805461353f90614c6b565b50919050565b6136d460cd826122f1565b156108545760405133906001600160a01b038316907fd19cf84cf0fec6bec9ddfa29c63adf83a55707c712f32c8285d6180a7890147990600090a3610dab60cd82612b40565b61372560cd836122f1565b6137715760405162461bcd60e51b815260206004820152601e60248201527f43726561746f72436f72653a20496e76616c696420657874656e73696f6e00006044820152606401610842565b6001600160a01b0381161580613793575061379381631e05385b60e31b613356565b6137d15760405162461bcd60e51b815260206004820152600f60248201526e496e76616c6964206164647265737360881b6044820152606401610842565b6001600160a01b03828116600090815260d16020526040902054811690821614610dab576001600160a01b03828116600081815260d1602052604080822080546001600160a01b031916948616948517905551339392917f6a835c4fcf7e0d398db3762332fdaa1471814ad39f1e2d6d0b3fdabf8efee3e091a45050565b60006001600160e01b031982166328f10a2160e01b148061387457506138748261228c565b8061388f57506001600160e01b03198216635d9dd7eb60e11b145b806138aa57506001600160e01b03198216632dde656160e21b145b806138c557506001600160e01b031982166335681b5360e21b145b806107f257506001600160e01b0319821663152a902d60e11b1492915050565b6001600160e01b0319166301ffc9a760e01b1490565b610a81838383613f8e565b33600090815260d160205260409020546001600160a01b031615610dab5733600081815260d1602052604090819020549051631e05385b60e31b815260048101929092526001600160a01b03848116602484015260448301849052169063f029c2d890606401600060405180830381600087803b15801561398657600080fd5b505af1158015612e66573d6000803e3d6000fd5b610dab8282604051806020016040528060008152506140a5565b60008181526001830160205260408120548015613a9d5760006139d860018361507d565b85549091506000906139ec9060019061507d565b9050818114613a51576000866000018281548110613a0c57613a0c614ded565b9060005260206000200154905080876000018481548110613a2f57613a2f614ded565b6000918252602080832090910192909255918252600188019052604090208390555b8554869080613a6257613a626152fc565b6001900381819060005260206000200160009055905585600101600086815260200190815260200160002060009055600193505050506107f2565b60009150506107f2565b6000826000018281548110613abe57613abe614ded565b9060005260206000200154905092915050565b600054610100900460ff1680613aea575060005460ff16155b613b065760405162461bcd60e51b815260040161084290614e78565b600054610100900460ff16158015613140576000805461ffff19166101011790558015610854576000805461ff001916905550565b600054610100900460ff1680613b54575060005460ff16155b613b705760405162461bcd60e51b815260040161084290614e78565b600054610100900460ff16158015613b92576000805461ffff19166101011790555b609a613b9e8482615090565b50609b613bab8382615090565b508015610a81576000805461ff0019169055505050565b600054610100900460ff1680613bdb575060005460ff16155b613bf75760405162461bcd60e51b815260040161084290614e78565b600054610100900460ff16158015613c19576000805461ffff19166101011790555b613140336131d9565b6000818152600183016020526040812054613c69575081546001818101845560008481526020808220909301849055845484825282860190935260409020919091556107f2565b5060006107f2565b6000613c84826301ffc9a760e01b613ca4565b80156107f25750613c9d826001600160e01b0319613ca4565b1592915050565b604080516001600160e01b0319831660248083019190915282518083039091018152604490910182526020810180516001600160e01b03166301ffc9a760e01b179052905160009190829081906001600160a01b0387169061753090613d0b908690615312565b6000604051808303818686fa925050503d8060008114613d47576040519150601f19603f3d011682016040523d82523d6000602084013e613d4c565b606091505b5091509150602081511015613d6757600093505050506107f2565b818015613d83575080806020019051810190613d83919061532e565b9695505050505050565b60006001600160a01b0384163b15613e8357604051630a85bd0160e11b81526001600160a01b0385169063150b7a0290613dd190339089908890889060040161534b565b6020604051808303816000875af1925050508015613e0c575060408051601f3d908101601f19168201909252613e099181019061537e565b60015b613e69573d808015613e3a576040519150601f19603f3d011682016040523d82523d6000602084013e613e3f565b606091505b508051600003613e615760405162461bcd60e51b815260040161084290615190565b805181602001fd5b6001600160e01b031916630a85bd0160e11b14905061282f565b506001949350505050565b606081600003613eb55750506040805180820190915260018152600360fc1b602082015290565b8160005b8115613edf5780613ec981614e19565b9150613ed89050600a8361517c565b9150613eb9565b6000816001600160401b03811115613ef957613ef96147f3565b6040519080825280601f01601f191660200182016040528015613f23576020820181803683370190505b5090505b841561282f57613f3860018361507d565b9150613f45600a8661539b565b613f50906030614fec565b60f81b818381518110613f6557613f65614ded565b60200101906001600160f81b031916908160001a905350613f87600a8661517c565b9450613f27565b600081815260d360209081526040808320546001600160a01b0316835260d290915290205460ff1615610a8157600081815260d3602052604090819020549051638258080560e01b81526001600160a01b038581166004830152848116602483015260448201849052909116906382580805906064016020604051808303816000875af1158015614023573d6000803e3d6000fd5b505050506040513d601f19601f82011682018060405250810190614047919061532e565b610a815760405162461bcd60e51b815260206004820152602960248201527f45524337323143726561746f723a20457874656e73696f6e20617070726f76616044820152686c206661696c75726560b81b6064820152608401610842565b6140af83836140d8565b6140bc6000848484613d8d565b610a815760405162461bcd60e51b815260040161084290615190565b6001600160a01b03821661412e5760405162461bcd60e51b815260206004820181905260248201527f4552433732313a206d696e7420746f20746865207a65726f20616464726573736044820152606401610842565b61413781612411565b156141845760405162461bcd60e51b815260206004820152601c60248201527f4552433732313a20746f6b656e20616c7265616479206d696e746564000000006044820152606401610842565b614190600083836138fb565b6001600160a01b0382166000908152609d602052604081208054600192906141b9908490614fec565b90915550506000818152609c602052604080822080546001600160a01b0319166001600160a01b03861690811790915590518392907fddf252ad1be2c89b69c2b068fc378daa952ba7f163c4a11628f55a4df523b3ef908290a45050565b82805482825590600052602060002090810192821561426a579160200282015b8281111561426a5781546001600160a01b0319166001600160a01b03843516178255602090920191600190910190614237565b50610f689291506142e7565b82805482825590600052602060002090810192821561426a579160200282015b8281111561426a578235825591602001919060010190614296565b5080546142bd90614c6b565b6000825580601f106142cd575050565b601f01602090049060005260206000209081019061085491905b5b80821115610f6857600081556001016142e8565b6001600160e01b03198116811461085457600080fd5b60006020828403121561432457600080fd5b813561230f816142fc565b6001600160a01b038116811461085457600080fd5b60006020828403121561435657600080fd5b813561230f8161432f565b60005b8381101561437c578181015183820152602001614364565b50506000910152565b6000815180845261439d816020860160208601614361565b601f01601f19169290920160200192915050565b60208152600061230f6020830184614385565b6000602082840312156143d657600080fd5b5035919050565b600080604083850312156143f057600080fd5b82356143fb8161432f565b946020939093013593505050565b600081518084526020808501945080840160005b838110156144395781518752958201959082019060010161441d565b509495945050505050565b60208152600061230f6020830184614409565b60008083601f84011261446957600080fd5b5081356001600160401b0381111561448057600080fd5b602083019150836020828501011115610d2957600080fd5b6000806000604084860312156144ad57600080fd5b8335925060208401356001600160401b038111156144ca57600080fd5b6144d686828701614457565b9497909650939450505050565b60008083601f8401126144f557600080fd5b5081356001600160401b0381111561450c57600080fd5b6020830191508360208260051b8501011115610d2957600080fd5b60008060008060006060868803121561453f57600080fd5b8535945060208601356001600160401b038082111561455d57600080fd5b61456989838a016144e3565b9096509450604088013591508082111561458257600080fd5b5061458f888289016144e3565b969995985093965092949392505050565b6000806000606084860312156145b557600080fd5b83356145c08161432f565b925060208401356145d08161432f565b929592945050506040919091013590565b600080604083850312156145f457600080fd5b50508035926020909101359150565b6000806020838503121561461657600080fd5b82356001600160401b0381111561462c57600080fd5b61463885828601614457565b90969095509350505050565b60008060006040848603121561465957600080fd5b83356146648161432f565b925060208401356001600160401b038111156144ca57600080fd5b6020808252825182820181905260009190848201906040850190845b818110156146c05783516001600160a01b03168352928401929184019160010161469b565b50909695505050505050565b600080600080604085870312156146e257600080fd5b84356001600160401b03808211156146f957600080fd5b614705888389016144e3565b9096509450602087013591508082111561471e57600080fd5b5061472b878288016144e3565b95989497509550505050565b60008060006040848603121561474c57600080fd5b83356147578161432f565b925060208401356001600160401b0381111561477257600080fd5b6144d6868287016144e3565b801515811461085457600080fd5b600080600080606085870312156147a257600080fd5b84356147ad8161432f565b935060208501356001600160401b038111156147c857600080fd5b6147d487828801614457565b90945092505060408501356147e88161477e565b939692955090935050565b634e487b7160e01b600052604160045260246000fd5b604051601f8201601f191681016001600160401b0381118282101715614831576148316147f3565b604052919050565b60006001600160401b03821115614852576148526147f3565b50601f01601f191660200190565b600061487361486e84614839565b614809565b905082815283838301111561488757600080fd5b828260208301376000602084830101529392505050565b600082601f8301126148af57600080fd5b61230f83833560208501614860565b600080604083850312156148d157600080fd5b82356001600160401b03808211156148e857600080fd5b6148f48683870161489e565b9350602085013591508082111561490a57600080fd5b506149178582860161489e565b9150509250929050565b60008060006040848603121561493657600080fd5b83356001600160401b038082111561494d57600080fd5b818601915086601f83011261496157600080fd5b8135602082821115614975576149756147f3565b8160051b614984828201614809565b928352848101820192828101908b85111561499e57600080fd5b958301955b848710156149bc578635825295830195908301906149a3565b98505050870135925050808211156149d357600080fd5b506144d6868287016144e3565b6000806000604084860312156149f557600080fd5b83356001600160401b03811115614a0b57600080fd5b614a1786828701614457565b9094509250506020840135614a2b8161477e565b809150509250925092565b60008060408385031215614a4957600080fd5b8235614a548161432f565b91506020830135614a648161477e565b809150509250929050565b600060208284031215614a8157600080fd5b813561230f8161477e565b60008060408385031215614a9f57600080fd5b8235614aaa8161432f565b9150602083013561ffff81168114614a6457600080fd5b600080600080600060608688031215614ad957600080fd5b8535614ae48161432f565b945060208601356001600160401b038082111561455d57600080fd5b60008060008060808587031215614b1657600080fd5b8435614b218161432f565b93506020850135614b318161432f565b92506040850135915060608501356001600160401b03811115614b5357600080fd5b8501601f81018713614b6457600080fd5b614b7387823560208401614860565b91505092959194509250565b600081518084526020808501945080840160005b838110156144395781516001600160a01b031687529582019590820190600101614b93565b60208152600061230f6020830184614b7f565b604081526000614bde6040830185614b7f565b8281036020840152614bf08185614409565b95945050505050565b60008060408385031215614c0c57600080fd5b8235614c178161432f565b91506020830135614a648161432f565b60208082526024908201527f41646d696e436f6e74726f6c3a204d757374206265206f776e6572206f7220616040820152633236b4b760e11b606082015260800190565b600181811c90821680614c7f57607f821691505b6020821081036136c357634e487b7160e01b600052602260045260246000fd5b6020808252601190820152702737b732bc34b9ba32b73a103a37b5b2b760791b604082015260600190565b60208082526031908201527f4552433732313a207472616e736665722063616c6c6572206973206e6f74206f6040820152701ddb995c881b9bdc88185c1c1c9bdd9959607a1b606082015260800190565b6020808252601f908201527f5265656e7472616e637947756172643a207265656e7472616e742063616c6c00604082015260600190565b6020808252601c908201527f4d757374206265207265676973746572656420657874656e73696f6e00000000604082015260600190565b6020808252818101527f4f776e61626c653a2063616c6c6572206973206e6f7420746865206f776e6572604082015260600190565b602080825260159082015274115e1d195b9cda5bdb88189b1858dadb1a5cdd1959605a1b604082015260600190565b634e487b7160e01b600052603260045260246000fd5b634e487b7160e01b600052601160045260246000fd5b600060018201614e2b57614e2b614e03565b5060010190565b6000808335601e19843603018112614e4957600080fd5b8301803591506001600160401b03821115614e6357600080fd5b602001915036819003821315610d2957600080fd5b6020808252602e908201527f496e697469616c697a61626c653a20636f6e747261637420697320616c72656160408201526d191e481a5b9a5d1a585b1a5e995960921b606082015260800190565b600061ffff808316818103614edd57614edd614e03565b6001019392505050565b601f821115610a8157600081815260208120601f850160051c81016020861015614f0e5750805b601f850160051c820191505b81811015612e6657828155600101614f1a565b6001600160401b03831115614f4457614f446147f3565b614f5883614f528354614c6b565b83614ee7565b6000601f841160018114614f8c5760008515614f745750838201355b600019600387901b1c1916600186901b178355610bdd565b600083815260209020601f19861690835b82811015614fbd5786850135825560209485019460019092019101614f9d565b5086821015614fda5760001960f88860031b161c19848701351681555b505060018560011b0183555050505050565b808201808211156107f2576107f2614e03565b6040808252810184905260008560608301825b878110156150425782356150258161432f565b6001600160a01b0316825260209283019290910190600101615012565b5083810360208501528481526001600160fb1b0385111561506257600080fd5b8460051b915081866020830137016020019695505050505050565b818103818111156107f2576107f2614e03565b81516001600160401b038111156150a9576150a96147f3565b6150bd816150b78454614c6b565b84614ee7565b602080601f8311600181146150f257600084156150da5750858301515b600019600386901b1c1916600185901b178555612e66565b600085815260208120601f198616915b8281101561512157888601518255948401946001909101908401615102565b508582101561513f5787850151600019600388901b60f8161c191681555b5050505050600190811b01905550565b80820281158282048414176107f2576107f2614e03565b634e487b7160e01b600052601260045260246000fd5b60008261518b5761518b615166565b500490565b60208082526032908201527f4552433732313a207472616e7366657220746f206e6f6e20455243373231526560408201527131b2b4bb32b91034b6b83632b6b2b73a32b960711b606082015260800190565b600081546151ef81614c6b565b60018281168015615207576001811461521c5761524b565b60ff198416875282151583028701945061524b565b8560005260208060002060005b858110156152425781548a820152908401908201615229565b50505082870194505b5050505092915050565b600061282f61526483866151e2565b846151e2565b60006020828403121561527c57600080fd5b81516001600160401b0381111561529257600080fd5b8201601f810184136152a357600080fd5b80516152b161486e82614839565b8181528560208385010111156152c657600080fd5b614bf0826020830160208601614361565b60006152e382856151e2565b83516152f3818360208801614361565b01949350505050565b634e487b7160e01b600052603160045260246000fd5b60008251615324818460208701614361565b9190910192915050565b60006020828403121561534057600080fd5b815161230f8161477e565b6001600160a01b0385811682528416602082015260408101839052608060608201819052600090613d8390830184614385565b60006020828403121561539057600080fd5b815161230f816142fc565b6000826153aa576153aa615166565b50069056fea26469706673582212204a4be7248f25b131beea78e02e50b8bec6b8ad01a6679480377ea798f823542464736f6c63430008110033",
  "linkReferences": {},
  "deployedLinkReferences": {}
}