{
  "_format": "hh-sol-artifact-1",
  "contractName": "ERC721TransferHelper",
  "sourceName": "contracts/backup/zora-v3/transferHelpers/ERC721TransferHelper.sol",
  "abi": [
    {
      "inputs": [
        {
          "internalType": "address",
          "name": "_approvalsManager",
          "type": "address"
        }
      ],
      "stateMutability": "nonpayable",
      "type": "constructor"
    },
    {
      "inputs": [],
      "name": "ZMM",
      "outputs": [
        {
          "internalType": "contract ZoraModuleManager",
          "name": "",
          "type": "address"
        }
      ],
      "stateMutability": "view",
      "type": "function"
    },
    {
      "inputs": [
        {
          "internalType": "address",
          "name": "_user",
          "type": "address"
        }
      ],
      "name": "isModuleApproved",
      "outputs": [
        {
          "internalType": "bool",
          "name": "",
          "type": "bool"
        }
      ],
      "stateMutability": "view",
      "type": "function"
    },
    {
      "inputs": [
        {
          "internalType": "address",
          "name": "_token",
          "type": "address"
        },
        {
          "internalType": "address",
          "name": "_from",
          "type": "address"
        },
        {
          "internalType": "address",
          "name": "_to",
          "type": "address"
        },
        {
          "internalType": "uint256",
          "name": "_tokenId",
          "type": "uint256"
        }
      ],
      "name": "safeTransferFrom",
      "outputs": [],
      "stateMutability": "nonpayable",
      "type": "function"
    },
    {
      "inputs": [
        {
          "internalType": "address",
          "name": "_token",
          "type": "address"
        },
        {
          "internalType": "address",
          "name": "_from",
          "type": "address"
        },
        {
          "internalType": "address",
          "name": "_to",
          "type": "address"
        },
        {
          "internalType": "uint256",
          "name": "_tokenId",
          "type": "uint256"
        }
      ],
      "name": "transferFrom",
      "outputs": [],
      "stateMutability": "nonpayable",
      "type": "function"
    }
  ],
  "bytecode": "0x60a060405234801561001057600080fd5b506040516104a53803806104a583398101604081905261002f916100b0565b806001600160a01b03811661009e5760405162461bcd60e51b815260206004820152602b60248201527f6d75737420736574206d6f64756c65206d616e6167657220746f206e6f6e2d7a60448201526a65726f206164647265737360a81b606482015260840160405180910390fd5b6001600160a01b0316608052506100e0565b6000602082840312156100c257600080fd5b81516001600160a01b03811681146100d957600080fd5b9392505050565b6080516103a46101016000396000818160a601526101a901526103a46000f3fe608060405234801561001057600080fd5b506004361061004c5760003560e01c806315dacbea1461005157806372d2769214610066578063d9fc4b611461008e578063e3e606f0146100a1575b600080fd5b61006461005f36600461029b565b6100e0565b005b6100796100743660046102e6565b610181565b60405190151581526020015b60405180910390f35b61006461009c36600461029b565b61021c565b6100c87f000000000000000000000000000000000000000000000000000000000000000081565b6040516001600160a01b039091168152602001610085565b826100ea81610181565b61010f5760405162461bcd60e51b815260040161010690610308565b60405180910390fd5b6040516323b872dd60e01b81526001600160a01b0385811660048301528481166024830152604482018490528616906323b872dd906064015b600060405180830381600087803b15801561016257600080fd5b505af1158015610176573d6000803e3d6000fd5b505050505050505050565b6040516306e86d9360e31b81526001600160a01b0382811660048301523360248301526000917f0000000000000000000000000000000000000000000000000000000000000000909116906337436c9890604401602060405180830381865afa1580156101f2573d6000803e3d6000fd5b505050506040513d601f19601f82011682018060405250810190610216919061034c565b92915050565b8261022681610181565b6102425760405162461bcd60e51b815260040161010690610308565b604051632142170760e11b81526001600160a01b0385811660048301528481166024830152604482018490528616906342842e0e90606401610148565b80356001600160a01b038116811461029657600080fd5b919050565b600080600080608085870312156102b157600080fd5b6102ba8561027f565b93506102c86020860161027f565b92506102d66040860161027f565b9396929550929360600135925050565b6000602082840312156102f857600080fd5b6103018261027f565b9392505050565b60208082526024908201527f6d6f64756c6520686173206e6f74206265656e20617070726f766564206279206040820152633ab9b2b960e11b606082015260800190565b60006020828403121561035e57600080fd5b8151801515811461030157600080fdfea26469706673582212200d22a6dfa69c2c36ced63969f2a3720ba89e1586f622522953e7770c4f64a2a164736f6c63430008110033",
  "linkReferences": {},
  "deployedLinkReferences": {}
}