{
  "_format": "hh-sol-artifact-1",
  "contractName": "MockERC721CreatorExtensionBurnable",
  "sourceName": "contracts/manifold/creator-core/mocks/MockERC721CreatorExtensionBurnable.sol",
  "abi": [
    {
      "inputs": [
        {
          "internalType": "address",
          "name": "creator",
          "type": "address"
        }
      ],
      "stateMutability": "nonpayable",
      "type": "constructor"
    },
    {
      "anonymous": false,
      "inputs": [
        {
          "indexed": true,
          "internalType": "address",
          "name": "account",
          "type": "address"
        },
        {
          "indexed": true,
          "internalType": "address",
          "name": "sender",
          "type": "address"
        }
      ],
      "name": "AdminApproved",
      "type": "event"
    },
    {
      "anonymous": false,
      "inputs": [
        {
          "indexed": true,
          "internalType": "address",
          "name": "account",
          "type": "address"
        },
        {
          "indexed": true,
          "internalType": "address",
          "name": "sender",
          "type": "address"
        }
      ],
      "name": "AdminRevoked",
      "type": "event"
    },
    {
      "anonymous": false,
      "inputs": [
        {
          "indexed": true,
          "internalType": "address",
          "name": "previousOwner",
          "type": "address"
        },
        {
          "indexed": true,
          "internalType": "address",
          "name": "newOwner",
          "type": "address"
        }
      ],
      "name": "OwnershipTransferred",
      "type": "event"
    },
    {
      "inputs": [
        {
          "internalType": "address",
          "name": "admin",
          "type": "address"
        }
      ],
      "name": "approveAdmin",
      "outputs": [],
      "stateMutability": "nonpayable",
      "type": "function"
    },
    {
      "inputs": [],
      "name": "burntTokens",
      "outputs": [
        {
          "internalType": "uint256[]",
          "name": "",
          "type": "uint256[]"
        }
      ],
      "stateMutability": "view",
      "type": "function"
    },
    {
      "inputs": [],
      "name": "getAdmins",
      "outputs": [
        {
          "internalType": "address[]",
          "name": "admins",
          "type": "address[]"
        }
      ],
      "stateMutability": "view",
      "type": "function"
    },
    {
      "inputs": [
        {
          "internalType": "address",
          "name": "admin",
          "type": "address"
        }
      ],
      "name": "isAdmin",
      "outputs": [
        {
          "internalType": "bool",
          "name": "",
          "type": "bool"
        }
      ],
      "stateMutability": "view",
      "type": "function"
    },
    {
      "inputs": [
        {
          "internalType": "address",
          "name": "creator",
          "type": "address"
        },
        {
          "internalType": "address",
          "name": "to",
          "type": "address"
        }
      ],
      "name": "mint",
      "outputs": [
        {
          "internalType": "uint256",
          "name": "",
          "type": "uint256"
        }
      ],
      "stateMutability": "nonpayable",
      "type": "function"
    },
    {
      "inputs": [
        {
          "internalType": "address",
          "name": "creator",
          "type": "address"
        },
        {
          "internalType": "address",
          "name": "to",
          "type": "address"
        },
        {
          "internalType": "uint16",
          "name": "count",
          "type": "uint16"
        }
      ],
      "name": "mintBatch",
      "outputs": [
        {
          "internalType": "uint256[]",
          "name": "",
          "type": "uint256[]"
        }
      ],
      "stateMutability": "nonpayable",
      "type": "function"
    },
    {
      "inputs": [],
      "name": "mintedTokens",
      "outputs": [
        {
          "internalType": "uint256[]",
          "name": "",
          "type": "uint256[]"
        }
      ],
      "stateMutability": "view",
      "type": "function"
    },
    {
      "inputs": [
        {
          "internalType": "address",
          "name": "to",
          "type": "address"
        },
        {
          "internalType": "uint256",
          "name": "tokenId",
          "type": "uint256"
        }
      ],
      "name": "onBurn",
      "outputs": [],
      "stateMutability": "nonpayable",
      "type": "function"
    },
    {
      "inputs": [],
      "name": "owner",
      "outputs": [
        {
          "internalType": "address",
          "name": "",
          "type": "address"
        }
      ],
      "stateMutability": "view",
      "type": "function"
    },
    {
      "inputs": [],
      "name": "renounceOwnership",
      "outputs": [],
      "stateMutability": "nonpayable",
      "type": "function"
    },
    {
      "inputs": [
        {
          "internalType": "address",
          "name": "admin",
          "type": "address"
        }
      ],
      "name": "revokeAdmin",
      "outputs": [],
      "stateMutability": "nonpayable",
      "type": "function"
    },
    {
      "inputs": [
        {
          "internalType": "address",
          "name": "creator",
          "type": "address"
        },
        {
          "internalType": "string",
          "name": "uri",
          "type": "string"
        },
        {
          "internalType": "bool",
          "name": "identical",
          "type": "bool"
        }
      ],
      "name": "setBaseTokenURI",
      "outputs": [],
      "stateMutability": "nonpayable",
      "type": "function"
    },
    {
      "inputs": [
        {
          "internalType": "address",
          "name": "creator",
          "type": "address"
        },
        {
          "internalType": "string",
          "name": "uri",
          "type": "string"
        }
      ],
      "name": "setBaseTokenURI",
      "outputs": [],
      "stateMutability": "nonpayable",
      "type": "function"
    },
    {
      "inputs": [
        {
          "internalType": "address",
          "name": "creator",
          "type": "address"
        },
        {
          "internalType": "uint256",
          "name": "tokenId",
          "type": "uint256"
        },
        {
          "internalType": "string",
          "name": "uri",
          "type": "string"
        }
      ],
      "name": "setTokenURI",
      "outputs": [],
      "stateMutability": "nonpayable",
      "type": "function"
    },
    {
      "inputs": [
        {
          "internalType": "address",
          "name": "creator",
          "type": "address"
        },
        {
          "internalType": "uint256[]",
          "name": "tokenIds",
          "type": "uint256[]"
        },
        {
          "internalType": "string[]",
          "name": "uris",
          "type": "string[]"
        }
      ],
      "name": "setTokenURI",
      "outputs": [],
      "stateMutability": "nonpayable",
      "type": "function"
    },
    {
      "inputs": [
        {
          "internalType": "address",
          "name": "creator",
          "type": "address"
        },
        {
          "internalType": "string",
          "name": "prefix",
          "type": "string"
        }
      ],
      "name": "setTokenURIPrefix",
      "outputs": [],
      "stateMutability": "nonpayable",
      "type": "function"
    },
    {
      "inputs": [
        {
          "internalType": "bytes4",
          "name": "interfaceId",
          "type": "bytes4"
        }
      ],
      "name": "supportsInterface",
      "outputs": [
        {
          "internalType": "bool",
          "name": "",
          "type": "bool"
        }
      ],
      "stateMutability": "view",
      "type": "function"
    },
    {
      "inputs": [
        {
          "internalType": "address",
          "name": "to",
          "type": "address"
        },
        {
          "internalType": "string",
          "name": "uri",
          "type": "string"
        }
      ],
      "name": "testMint",
      "outputs": [],
      "stateMutability": "nonpayable",
      "type": "function"
    },
    {
      "inputs": [
        {
          "internalType": "address",
          "name": "to",
          "type": "address"
        }
      ],
      "name": "testMint",
      "outputs": [],
      "stateMutability": "nonpayable",
      "type": "function"
    },
    {
      "inputs": [
        {
          "internalType": "address",
          "name": "to",
          "type": "address"
        },
        {
          "internalType": "string[]",
          "name": "uris",
          "type": "string[]"
        }
      ],
      "name": "testMintBatch",
      "outputs": [],
      "stateMutability": "nonpayable",
      "type": "function"
    },
    {
      "inputs": [
        {
          "internalType": "address",
          "name": "to",
          "type": "address"
        },
        {
          "internalType": "uint16",
          "name": "count",
          "type": "uint16"
        }
      ],
      "name": "testMintBatch",
      "outputs": [],
      "stateMutability": "nonpayable",
      "type": "function"
    },
    {
      "inputs": [
        {
          "internalType": "address",
          "name": "newOwner",
          "type": "address"
        }
      ],
      "name": "transferOwnership",
      "outputs": [],
      "stateMutability": "nonpayable",
      "type": "function"
    }
  ],
  "bytecode": "0x608060405234801561001057600080fd5b506040516200212d3803806200212d83398101604081905261003191610097565b600080546001600160a01b031916339081178255604051909182917f8be0079c531659141344cd1fd0a4f28419497f9722a3daafe3b4186f6b6457e0908290a350600680546001600160a01b0319166001600160a01b03929092169190911790556100c7565b6000602082840312156100a957600080fd5b81516001600160a01b03811681146100c057600080fd5b9392505050565b61205680620000d76000396000f3fe608060405234801561001057600080fd5b50600436106101425760003560e01c80636d73e669116100b8578063aaa9883b1161007c578063aaa9883b1461028f578063c70c875a146102a2578063d8a73fdb146102b5578063ee1fe2ad146102c8578063f2fde38b146102e9578063fa20e77d146102fc57600080fd5b80636d73e6691461023e578063715018a61461025157806372ebee8e146102595780638d75fe051461026c5780638da5cb5b1461027457600080fd5b8063408753a11161010a578063408753a1146101bf57806345a1b92c146101d25780634c5cfbf2146101e55780634e5786bf146101f8578063580cf31b1461020b578063584abd0a1461021e57600080fd5b806301ffc9a71461014757806324d7806c1461016f5780632d345670146101825780632d43c1ff1461019757806331ae450b146101aa575b600080fd5b61015a6101553660046115f7565b610304565b60405190151581526020015b60405180910390f35b61015a61017d36600461163d565b610324565b61019561019036600461163d565b61035d565b005b6101956101a53660046116a3565b6103e6565b6101b2610463565b60405161016691906116f5565b6101956101cd366004611783565b610511565b6101956101e03660046117c8565b61057d565b6101956101f3366004611800565b6105bd565b610195610206366004611865565b61069c565b6101956102193660046118d0565b610743565b61023161022c366004611903565b6107b6565b6040516101669190611946565b61019561024c36600461163d565b610815565b61019561088f565b610195610267366004611783565b610903565b6102316109df565b6000546040516001600160a01b039091168152602001610166565b61019561029d36600461197e565b610a37565b6101956102b036600461163d565b610b19565b6101956102c3366004611783565b610b4b565b6102db6102d63660046119fe565b610c33565b604051908152602001610166565b6101956102f736600461163d565b610c90565b610231610d7a565b600061030f82610dd0565b8061031e575061031e82610df5565b92915050565b6000816001600160a01b03166103426000546001600160a01b031690565b6001600160a01b0316148061031e575061031e600183610e35565b6000546001600160a01b031633146103905760405162461bcd60e51b815260040161038790611a28565b60405180910390fd5b61039b600182610e35565b156103e35760405133906001600160a01b038316907f7c0c3c84c67c85fcac635147348bfe374c24a1a93d0366d1cfe9d8853cbf89d590600090a36103e1600182610e57565b505b50565b600654600090610409906001600160a01b0316856104048587611ac6565b610e6c565b905060005b815181101561045c57600482828151811061042b5761042b611b95565b602090810291909101810151825460018101845560009384529190922001558061045481611bc1565b91505061040e565b5050505050565b606061046f6001610f92565b6001600160401b0381111561048657610486611a5d565b6040519080825280602002602001820160405280156104af578160200160208202803683370190505b50905060005b6104bf6001610f92565b81101561050d576104d1600182610f9c565b8282815181106104e3576104e3611b95565b6001600160a01b03909216602092830291909101909101528061050581611bc1565b9150506104b5565b5090565b600654604080516020601f8501819004810282018101909252838152600492610562926001600160a01b039091169187918790879081908401838280828437600092019190915250610fa892505050565b81546001810183556000928352602090922090910155505050565b610587828261107e565b600580546001810182556000919091527f036b6384b5eca791c62761152d0c79bb0604c104a5fb6f4eb0703f3154bb3db0015550565b336105d06000546001600160a01b031690565b6001600160a01b031614806105eb57506105eb600133610e35565b6106075760405162461bcd60e51b815260040161038790611bda565b610618846328f10a2160e01b6110f0565b6106345760405162461bcd60e51b815260040161038790611c1e565b60405163105b981960e31b81526001600160a01b038516906382dcc0c89061066490869086908690600401611c90565b600060405180830381600087803b15801561067e57600080fd5b505af1158015610692573d6000803e3d6000fd5b5050505050505050565b336106af6000546001600160a01b031690565b6001600160a01b031614806106ca57506106ca600133610e35565b6106e65760405162461bcd60e51b815260040161038790611bda565b6106f7846328f10a2160e01b6110f0565b6107135760405162461bcd60e51b815260040161038790611c1e565b60405163749544fb60e11b81526001600160a01b0385169063e92a89f69061066490869086908690600401611cb6565b60065460009061075d906001600160a01b0316848461110c565b905060005b81518110156107b057600482828151811061077f5761077f611b95565b60209081029190910181015182546001810184556000938452919092200155806107a881611bc1565b915050610762565b50505050565b6060336107cb6000546001600160a01b031690565b6001600160a01b031614806107e657506107e6600133610e35565b6108025760405162461bcd60e51b815260040161038790611bda565b61080d84848461110c565b949350505050565b6000546001600160a01b0316331461083f5760405162461bcd60e51b815260040161038790611a28565b61084a600182610e35565b6103e35760405133906001600160a01b038316907f7e1a1a08d52e4ba0e21554733d66165fd5151f99460116223d9e3a608eec5cb190600090a36103e160018261122f565b6000546001600160a01b031633146108b95760405162461bcd60e51b815260040161038790611a28565b600080546040516001600160a01b03909116907f8be0079c531659141344cd1fd0a4f28419497f9722a3daafe3b4186f6b6457e0908390a3600080546001600160a01b0319169055565b336109166000546001600160a01b031690565b6001600160a01b031614806109315750610931600133610e35565b61094d5760405162461bcd60e51b815260040161038790611bda565b61095e836328f10a2160e01b6110f0565b61097a5760405162461bcd60e51b815260040161038790611c1e565b60405163066d1e9d60e41b81526001600160a01b038416906366d1e9d0906109a89085908590600401611cd9565b600060405180830381600087803b1580156109c257600080fd5b505af11580156109d6573d6000803e3d6000fd5b50505050505050565b60606004805480602002602001604051908101604052809291908181526020018280548015610a2d57602002820191906000526020600020905b815481526020019060010190808311610a19575b5050505050905090565b33610a4a6000546001600160a01b031690565b6001600160a01b03161480610a655750610a65600133610e35565b610a815760405162461bcd60e51b815260040161038790611bda565b610a92856328f10a2160e01b6110f0565b610aae5760405162461bcd60e51b815260040161038790611c1e565b6040516361e5bc6b60e01b81526001600160a01b038616906361e5bc6b90610ae0908790879087908790600401611ced565b600060405180830381600087803b158015610afa57600080fd5b505af1158015610b0e573d6000803e3d6000fd5b505050505050505050565b600654600490610b32906001600160a01b031683611244565b8154600181018355600092835260209092209091015550565b33610b5e6000546001600160a01b031690565b6001600160a01b03161480610b795750610b79600133610e35565b610b955760405162461bcd60e51b815260040161038790611bda565b610ba6836328f10a2160e01b6110f0565b610c055760405162461bcd60e51b815260206004820152602a60248201527f52657175697265732063726561746f7220746f20696d706c656d656e74204943604482015269726561746f72436f726560b01b6064820152608401610387565b6040516307cc269760e31b81526001600160a01b03841690633e6134b8906109a89085908590600401611cd9565b600033610c486000546001600160a01b031690565b6001600160a01b03161480610c635750610c63600133610e35565b610c7f5760405162461bcd60e51b815260040161038790611bda565b610c898383611244565b9392505050565b6000546001600160a01b03163314610cba5760405162461bcd60e51b815260040161038790611a28565b6001600160a01b038116610d1f5760405162461bcd60e51b815260206004820152602660248201527f4f776e61626c653a206e6577206f776e657220697320746865207a65726f206160448201526564647265737360d01b6064820152608401610387565b600080546040516001600160a01b03808516939216917f8be0079c531659141344cd1fd0a4f28419497f9722a3daafe3b4186f6b6457e091a3600080546001600160a01b0319166001600160a01b0392909216919091179055565b60606005805480602002602001604051908101604052809291908181526020018280548015610a2d5760200282019190600052602060002090815481526020019060010190808311610a19575050505050905090565b60006001600160e01b031982166302ee242360e01b148061031e575061031e82611315565b60006001600160e01b0319821663f3f4e68b60e01b1480610e2657506001600160e01b031982166311686e4b60e21b145b8061031e575061031e82610dd0565b6001600160a01b03811660009081526001830160205260408120541515610c89565b6000610c89836001600160a01b03841661133a565b6060610e7f84639088c20760e01b6110f0565b610e9b5760405162461bcd60e51b815260040161038790611dc5565b60405163071ca5cf60e31b81526001600160a01b038516906338e52e7890610ec99086908690600401611e5e565b6000604051808303816000875af1158015610ee8573d6000803e3d6000fd5b505050506040513d6000823e601f3d908101601f19168201604052610f109190810190611ed0565b905060005b81518161ffff161015610f8a578460036000848461ffff1681518110610f3d57610f3d611b95565b6020026020010151815260200190815260200160002060006101000a8154816001600160a01b0302191690836001600160a01b031602179055508080610f8290611f60565b915050610f15565b509392505050565b600061031e825490565b6000610c89838361142d565b6000610fbb84639088c20760e01b6110f0565b610fd75760405162461bcd60e51b815260040161038790611dc5565b604051631fc5c3eb60e31b81526000906001600160a01b0386169063fe2e1f58906110089087908790600401611f81565b6020604051808303816000875af1158015611027573d6000803e3d6000fd5b505050506040513d601f19601f8201168201806040525081019061104b9190611fa5565b600081815260036020526040902080546001600160a01b0388166001600160a01b03199091161790559150509392505050565b6000818152600360205260409020546001600160a01b031633146103e15760405162461bcd60e51b815260206004820152602360248201527f43616e206f6e6c792062652063616c6c656420627920746f6b656e20637265616044820152623a37b960e91b6064820152608401610387565b60006110fb83611457565b8015610c895750610c89838361148a565b606061111f84639088c20760e01b6110f0565b61113b5760405162461bcd60e51b815260040161038790611dc5565b60405163e00aab4b60e01b81526001600160a01b03848116600483015261ffff8416602483015285169063e00aab4b906044016000604051808303816000875af115801561118d573d6000803e3d6000fd5b505050506040513d6000823e601f3d908101601f191682016040526111b59190810190611ed0565b905060005b81518161ffff161015610f8a578460036000848461ffff16815181106111e2576111e2611b95565b6020026020010151815260200190815260200160002060006101000a8154816001600160a01b0302191690836001600160a01b03160217905550808061122790611f60565b9150506111ba565b6000610c89836001600160a01b038416611573565b600061125783639088c20760e01b6110f0565b6112735760405162461bcd60e51b815260040161038790611dc5565b604051630525194b60e31b81526001600160a01b03838116600483015260009190851690632928ca58906024016020604051808303816000875af11580156112bf573d6000803e3d6000fd5b505050506040513d601f19601f820116820180604052508101906112e39190611fa5565b600081815260036020526040902080546001600160a01b0387166001600160a01b031990911617905591505092915050565b60006001600160e01b03198216637005caad60e01b148061031e575061031e826115c2565b6000818152600183016020526040812054801561142357600061135e600183611fbe565b855490915060009061137290600190611fbe565b90508181146113d757600086600001828154811061139257611392611b95565b90600052602060002001549050808760000184815481106113b5576113b5611b95565b6000918252602080832090910192909255918252600188019052604090208390555b85548690806113e8576113e8611fd1565b60019003818190600052602060002001600090559055856001016000868152602001908152602001600020600090556001935050505061031e565b600091505061031e565b600082600001828154811061144457611444611b95565b9060005260206000200154905092915050565b600061146a826301ffc9a760e01b61148a565b801561031e5750611483826001600160e01b031961148a565b1592915050565b604080516001600160e01b0319831660248083019190915282518083039091018152604490910182526020810180516001600160e01b03166301ffc9a760e01b179052905160009190829081906001600160a01b03871690617530906114f1908690611fe7565b6000604051808303818686fa925050503d806000811461152d576040519150601f19603f3d011682016040523d82523d6000602084013e611532565b606091505b509150915060208151101561154d576000935050505061031e565b8180156115695750808060200190518101906115699190612003565b9695505050505050565b60008181526001830160205260408120546115ba5750815460018181018455600084815260208082209093018490558454848252828601909352604090209190915561031e565b50600061031e565b60006001600160e01b03198216632a9f3abf60e11b148061031e57506301ffc9a760e01b6001600160e01b031983161461031e565b60006020828403121561160957600080fd5b81356001600160e01b031981168114610c8957600080fd5b80356001600160a01b038116811461163857600080fd5b919050565b60006020828403121561164f57600080fd5b610c8982611621565b60008083601f84011261166a57600080fd5b5081356001600160401b0381111561168157600080fd5b6020830191508360208260051b850101111561169c57600080fd5b9250929050565b6000806000604084860312156116b857600080fd5b6116c184611621565b925060208401356001600160401b038111156116dc57600080fd5b6116e886828701611658565b9497909650939450505050565b6020808252825182820181905260009190848201906040850190845b818110156117365783516001600160a01b031683529284019291840191600101611711565b50909695505050505050565b60008083601f84011261175457600080fd5b5081356001600160401b0381111561176b57600080fd5b60208301915083602082850101111561169c57600080fd5b60008060006040848603121561179857600080fd5b6117a184611621565b925060208401356001600160401b038111156117bc57600080fd5b6116e886828701611742565b600080604083850312156117db57600080fd5b6117e483611621565b946020939093013593505050565b80151581146103e357600080fd5b6000806000806060858703121561181657600080fd5b61181f85611621565b935060208501356001600160401b0381111561183a57600080fd5b61184687828801611742565b909450925050604085013561185a816117f2565b939692955090935050565b6000806000806060858703121561187b57600080fd5b61188485611621565b93506020850135925060408501356001600160401b038111156118a657600080fd5b6118b287828801611742565b95989497509550505050565b803561ffff8116811461163857600080fd5b600080604083850312156118e357600080fd5b6118ec83611621565b91506118fa602084016118be565b90509250929050565b60008060006060848603121561191857600080fd5b61192184611621565b925061192f60208501611621565b915061193d604085016118be565b90509250925092565b6020808252825182820181905260009190848201906040850190845b8181101561173657835183529284019291840191600101611962565b60008060008060006060868803121561199657600080fd5b61199f86611621565b945060208601356001600160401b03808211156119bb57600080fd5b6119c789838a01611658565b909650945060408801359150808211156119e057600080fd5b506119ed88828901611658565b969995985093965092949392505050565b60008060408385031215611a1157600080fd5b611a1a83611621565b91506118fa60208401611621565b6020808252818101527f4f776e61626c653a2063616c6c6572206973206e6f7420746865206f776e6572604082015260600190565b634e487b7160e01b600052604160045260246000fd5b604051601f8201601f191681016001600160401b0381118282101715611a9b57611a9b611a5d565b604052919050565b60006001600160401b03821115611abc57611abc611a5d565b5060051b60200190565b6000611ad9611ad484611aa3565b611a73565b80848252602080830192508560051b850136811115611af757600080fd5b855b81811015611b895780356001600160401b0380821115611b195760008081fd5b90880190601f3681840112611b2e5760008081fd5b823582811115611b4057611b40611a5d565b611b51818301601f19168801611a73565b92508083523687828601011115611b6a57600091508182fd5b8087850188850137600090830187015250865250938201938201611af9565b50919695505050505050565b634e487b7160e01b600052603260045260246000fd5b634e487b7160e01b600052601160045260246000fd5b600060018201611bd357611bd3611bab565b5060010190565b60208082526024908201527f41646d696e436f6e74726f6c3a204d757374206265206f776e6572206f7220616040820152633236b4b760e11b606082015260800190565b60208082526029908201527f52657175697265732063726561746f7220746f20696d706c656d656e742043726040820152686561746f72436f726560b81b606082015260800190565b81835281816020850137506000828201602090810191909152601f909101601f19169091010190565b604081526000611ca4604083018587611c67565b90508215156020830152949350505050565b838152604060208201526000611cd0604083018486611c67565b95945050505050565b60208152600061080d602083018486611c67565b6040808252810184905260006001600160fb1b03851115611d0d57600080fd5b8460051b808760608501378083019050606081016020606085840301818601528186835260808401905060808760051b85010192508760005b88811015611db557858503607f190183528135368b9003601e19018112611d6c57600080fd5b8a0184810190356001600160401b03811115611d8757600080fd5b803603821315611d9657600080fd5b611da1878284611c67565b965050509183019190830190600101611d46565b50929a9950505050505050505050565b60208082526029908201527f63726561746f72206d75737420696d706c656d656e74204945524337323143726040820152686561746f72436f726560b81b606082015260800190565b60005b83811015611e29578181015183820152602001611e11565b50506000910152565b60008151808452611e4a816020860160208601611e0e565b601f01601f19169290920160200192915050565b60006040820160018060a01b0385168352602060408185015281855180845260608601915060608160051b870101935082870160005b82811015611ec257605f19888703018452611eb0868351611e32565b95509284019290840190600101611e94565b509398975050505050505050565b60006020808385031215611ee357600080fd5b82516001600160401b03811115611ef957600080fd5b8301601f81018513611f0a57600080fd5b8051611f18611ad482611aa3565b81815260059190911b82018301908381019087831115611f3757600080fd5b928401925b82841015611f5557835182529284019290840190611f3c565b979650505050505050565b600061ffff808316818103611f7757611f77611bab565b6001019392505050565b6001600160a01b038316815260406020820181905260009061080d90830184611e32565b600060208284031215611fb757600080fd5b5051919050565b8181038181111561031e5761031e611bab565b634e487b7160e01b600052603160045260246000fd5b60008251611ff9818460208701611e0e565b9190910192915050565b60006020828403121561201557600080fd5b8151610c89816117f256fea2646970667358221220360dc635b3bd9f0d917ca0b557d970d89132983481cca39a759a2b8ff64e479964736f6c63430008110033",
  "linkReferences": {},
  "deployedLinkReferences": {}
}