{
  "_format": "hh-sol-artifact-1",
  "contractName": "TimeToken",
  "sourceName": "contracts/manifold/creator-core-extensions/dynamic/TimeToken.sol",
  "abi": [
    {
      "inputs": [
        {
          "internalType": "address",
          "name": "creator",
          "type": "address"
        },
        {
          "internalType": "string",
          "name": "name",
          "type": "string"
        },
        {
          "internalType": "string",
          "name": "description",
          "type": "string"
        },
        {
          "internalType": "uint256",
          "name": "cadence",
          "type": "uint256"
        }
      ],
      "stateMutability": "nonpayable",
      "type": "constructor"
    },
    {
      "anonymous": false,
      "inputs": [
        {
          "indexed": true,
          "internalType": "address",
          "name": "previousOwner",
          "type": "address"
        },
        {
          "indexed": true,
          "internalType": "address",
          "name": "newOwner",
          "type": "address"
        }
      ],
      "name": "OwnershipTransferred",
      "type": "event"
    },
    {
      "inputs": [
        {
          "internalType": "uint256",
          "name": "",
          "type": "uint256"
        }
      ],
      "name": "animationArweaveHashes",
      "outputs": [
        {
          "internalType": "string",
          "name": "",
          "type": "string"
        }
      ],
      "stateMutability": "view",
      "type": "function"
    },
    {
      "inputs": [],
      "name": "creatorContract",
      "outputs": [
        {
          "internalType": "address",
          "name": "",
          "type": "address"
        }
      ],
      "stateMutability": "view",
      "type": "function"
    },
    {
      "inputs": [
        {
          "internalType": "uint256",
          "name": "",
          "type": "uint256"
        }
      ],
      "name": "imageArweaveHashes",
      "outputs": [
        {
          "internalType": "string",
          "name": "",
          "type": "string"
        }
      ],
      "stateMutability": "view",
      "type": "function"
    },
    {
      "inputs": [
        {
          "internalType": "address",
          "name": "to",
          "type": "address"
        }
      ],
      "name": "mint",
      "outputs": [
        {
          "internalType": "uint256",
          "name": "",
          "type": "uint256"
        }
      ],
      "stateMutability": "nonpayable",
      "type": "function"
    },
    {
      "inputs": [],
      "name": "owner",
      "outputs": [
        {
          "internalType": "address",
          "name": "",
          "type": "address"
        }
      ],
      "stateMutability": "view",
      "type": "function"
    },
    {
      "inputs": [],
      "name": "renounceOwnership",
      "outputs": [],
      "stateMutability": "nonpayable",
      "type": "function"
    },
    {
      "inputs": [
        {
          "internalType": "string[]",
          "name": "_arweaveHashes",
          "type": "string[]"
        }
      ],
      "name": "setAnimationAreaveHashes",
      "outputs": [],
      "stateMutability": "nonpayable",
      "type": "function"
    },
    {
      "inputs": [
        {
          "internalType": "string[]",
          "name": "_arweaveHashes",
          "type": "string[]"
        }
      ],
      "name": "setImageArweaveHashes",
      "outputs": [],
      "stateMutability": "nonpayable",
      "type": "function"
    },
    {
      "inputs": [
        {
          "internalType": "bytes4",
          "name": "interfaceId",
          "type": "bytes4"
        }
      ],
      "name": "supportsInterface",
      "outputs": [
        {
          "internalType": "bool",
          "name": "",
          "type": "bool"
        }
      ],
      "stateMutability": "view",
      "type": "function"
    },
    {
      "inputs": [
        {
          "internalType": "address",
          "name": "",
          "type": "address"
        },
        {
          "internalType": "uint256",
          "name": "tokenId",
          "type": "uint256"
        }
      ],
      "name": "tokenURI",
      "outputs": [
        {
          "internalType": "string",
          "name": "",
          "type": "string"
        }
      ],
      "stateMutability": "view",
      "type": "function"
    },
    {
      "inputs": [
        {
          "internalType": "address",
          "name": "newOwner",
          "type": "address"
        }
      ],
      "name": "transferOwnership",
      "outputs": [],
      "stateMutability": "nonpayable",
      "type": "function"
    }
  ],
  "bytecode": "0x60806040523480156200001157600080fd5b5060405162001625380380620016258339810160408190526200003491620003b7565b836200005381639088c20760e01b620001a060201b6200057e1760201c565b80620000785750620000788163478c853060e01b620001a060201b6200057e1760201c565b620000f95760405162461bcd60e51b815260206004820152604160248201527f52656465656d3a204d696e74696e672072657761726420636f6e74726163742060448201527f6d75737420696d706c656d656e74204945524337323143726561746f72436f726064820152606560f81b608482015260a40160405180910390fd5b600080546001600160a01b0319166001600160a01b0392909216919091178155620001213390565b600180546001600160a01b0319166001600160a01b038316908117909155604051919250906000907f8be0079c531659141344cd1fd0a4f28419497f9722a3daafe3b4186f6b6457e0908290a3504260075560048190556005620001868482620004d8565b506006620001958382620004d8565b5050505050620005ed565b6000620001ad83620001ca565b8015620001c15750620001c1838362000202565b90505b92915050565b6000620001df826301ffc9a760e01b62000202565b8015620001c45750620001fb826001600160e01b031962000202565b1592915050565b604080516001600160e01b0319831660248083019190915282518083039091018152604490910182526020810180516001600160e01b03166301ffc9a760e01b179052905160009190829081906001600160a01b03871690617530906200026b908690620005a4565b6000604051808303818686fa925050503d8060008114620002a9576040519150601f19603f3d011682016040523d82523d6000602084013e620002ae565b606091505b5091509150602081511015620002cb5760009350505050620001c4565b818015620002ea575080806020019051810190620002ea9190620005c2565b9695505050505050565b634e487b7160e01b600052604160045260246000fd5b60005b83811015620003275781810151838201526020016200030d565b50506000910152565b600082601f8301126200034257600080fd5b81516001600160401b03808211156200035f576200035f620002f4565b604051601f8301601f19908116603f011681019082821181831017156200038a576200038a620002f4565b81604052838152866020858801011115620003a457600080fd5b620002ea8460208301602089016200030a565b60008060008060808587031215620003ce57600080fd5b84516001600160a01b0381168114620003e657600080fd5b60208601519094506001600160401b03808211156200040457600080fd5b620004128883890162000330565b945060408701519150808211156200042957600080fd5b50620004388782880162000330565b606096909601519497939650505050565b600181811c908216806200045e57607f821691505b6020821081036200047f57634e487b7160e01b600052602260045260246000fd5b50919050565b601f821115620004d357600081815260208120601f850160051c81016020861015620004ae5750805b601f850160051c820191505b81811015620004cf57828155600101620004ba565b5050505b505050565b81516001600160401b03811115620004f457620004f4620002f4565b6200050c8162000505845462000449565b8462000485565b602080601f8311600181146200054457600084156200052b5750858301515b600019600386901b1c1916600185901b178555620004cf565b600085815260208120601f198616915b82811015620005755788860151825594840194600190910190840162000554565b5085821015620005945787850151600019600388901b60f8161c191681555b5050505050600190811b01905550565b60008251620005b88184602087016200030a565b9190910192915050565b600060208284031215620005d557600080fd5b81518015158114620005e657600080fd5b9392505050565b61102880620005fd6000396000f3fe608060405234801561001057600080fd5b50600436106100a95760003560e01c80638183bdd7116100715780638183bdd7146101395780638da5cb5b14610159578063945907791461016a578063e502ed561461017d578063e9dc637514610190578063f2fde38b146101a357600080fd5b806301ffc9a7146100ae5780633dae35ce146100d657806367fbb441146100fb5780636a62784214610110578063715018a614610131575b600080fd5b6100c16100bc3660046109e7565b6101b6565b60405190151581526020015b60405180910390f35b6000546001600160a01b03165b6040516001600160a01b0390911681526020016100cd565b61010e610109366004610a58565b6101e1565b005b61012361011e366004610b88565b6101f8565b6040519081526020016100cd565b61010e610285565b61014c610147366004610ba3565b6102f9565b6040516100cd9190610be0565b6001546001600160a01b03166100e3565b61010e610178366004610a58565b6103a5565b61014c61018b366004610ba3565b6103b8565b61014c61019e366004610c13565b6103c8565b61010e6101b1366004610b88565b610493565b60006001600160e01b0319821663e9dc637560e01b14806101db57506101db826105a1565b92915050565b80516101f4906002906020840190610922565b5050565b6001546000906001600160a01b0316331461022e5760405162461bcd60e51b815260040161022590610c3d565b60405180910390fd5b6008541561026f5760405162461bcd60e51b815260206004820152600e60248201526d105b1c9958591e481b5a5b9d195960921b6044820152606401610225565b610278826105d6565b600881905590505b919050565b6001546001600160a01b031633146102af5760405162461bcd60e51b815260040161022590610c3d565b6001546040516000916001600160a01b0316907f8be0079c531659141344cd1fd0a4f28419497f9722a3daafe3b4186f6b6457e0908390a3600180546001600160a01b0319169055565b6002818154811061030957600080fd5b90600052602060002001600091509050805461032490610c72565b80601f016020809104026020016040519081016040528092919081815260200182805461035090610c72565b801561039d5780601f106103725761010080835404028352916020019161039d565b820191906000526020600020905b81548152906001019060200180831161038057829003601f168201915b505050505081565b80516101f4906003906020840190610922565b6003818154811061030957600080fd5b606060006103d4610673565b6103dc610705565b6040516020016103ed929190610cac565b60408051601f1981840301815291905260025490915015610435578061041284610714565b604051602001610423929190610d2e565b60405160208183030381529060405290505b6003541561046a5780610447846107ec565b604051602001610458929190610d87565b60405160208183030381529060405290505b8060405160200161047b9190610df1565b60408051808303601f19018152919052949350505050565b6001546001600160a01b031633146104bd5760405162461bcd60e51b815260040161022590610c3d565b6001600160a01b0381166105225760405162461bcd60e51b815260206004820152602660248201527f4f776e61626c653a206e6577206f776e657220697320746865207a65726f206160448201526564647265737360d01b6064820152608401610225565b6001546040516001600160a01b038084169216907f8be0079c531659141344cd1fd0a4f28419497f9722a3daafe3b4186f6b6457e090600090a3600180546001600160a01b0319166001600160a01b0392909216919091179055565b600061058983610806565b801561059a575061059a8383610839565b9392505050565b60006001600160e01b03198216637005caad60e01b14806101db57506301ffc9a760e01b6001600160e01b03198316146101db565b6001546000906001600160a01b031633146106035760405162461bcd60e51b815260040161022590610c3d565b600054604051630525194b60e31b81526001600160a01b03848116600483015290911690632928ca58906024016020604051808303816000875af115801561064f573d6000803e3d6000fd5b505050506040513d601f19601f820116820180604052508101906101db9190610e17565b60606005805461068290610c72565b80601f01602080910402602001604051908101604052809291908181526020018280546106ae90610c72565b80156106fb5780601f106106d0576101008083540402835291602001916106fb565b820191906000526020600020905b8154815290600101906020018083116106de57829003601f168201915b5050505050905090565b60606006805461068290610c72565b6060600280805490506004546007544261072e9190610e30565b6107389190610e67565b6107429190610e7b565b8154811061075257610752610e8f565b90600052602060002001805461076790610c72565b80601f016020809104026020016040519081016040528092919081815260200182805461079390610c72565b80156107e05780601f106107b5576101008083540402835291602001916107e0565b820191906000526020600020905b8154815290600101906020018083116107c357829003601f168201915b50505050509050919050565b6060600380805490506004546007544261072e9190610e30565b6000610819826301ffc9a760e01b610839565b80156101db5750610832826001600160e01b0319610839565b1592915050565b604080516001600160e01b0319831660248083019190915282518083039091018152604490910182526020810180516001600160e01b03166301ffc9a760e01b179052905160009190829081906001600160a01b03871690617530906108a0908690610ea5565b6000604051808303818686fa925050503d80600081146108dc576040519150601f19603f3d011682016040523d82523d6000602084013e6108e1565b606091505b50915091506020815110156108fc57600093505050506101db565b8180156109185750808060200190518101906109189190610ec1565b9695505050505050565b828054828255906000526020600020908101928215610968579160200282015b8281111561096857825182906109589082610f32565b5091602001919060010190610942565b50610974929150610978565b5090565b8082111561097457600061098c8282610995565b50600101610978565b5080546109a190610c72565b6000825580601f106109b1575050565b601f0160209004906000526020600020908101906109cf91906109d2565b50565b5b8082111561097457600081556001016109d3565b6000602082840312156109f957600080fd5b81356001600160e01b03198116811461059a57600080fd5b634e487b7160e01b600052604160045260246000fd5b604051601f8201601f1916810167ffffffffffffffff81118282101715610a5057610a50610a11565b604052919050565b60006020808385031215610a6b57600080fd5b823567ffffffffffffffff80821115610a8357600080fd5b8185019150601f8681840112610a9857600080fd5b823582811115610aaa57610aaa610a11565b8060051b610ab9868201610a27565b918252848101860191868101908a841115610ad357600080fd5b87870192505b83831015610b6357823586811115610af15760008081fd5b8701603f81018c13610b035760008081fd5b88810135604088821115610b1957610b19610a11565b610b2a828901601f19168c01610a27565b8281528e82848601011115610b3f5760008081fd5b828285018d83013760009281018c0192909252508352509187019190870190610ad9565b9a9950505050505050505050565b80356001600160a01b038116811461028057600080fd5b600060208284031215610b9a57600080fd5b61059a82610b71565b600060208284031215610bb557600080fd5b5035919050565b60005b83811015610bd7578181015183820152602001610bbf565b50506000910152565b6020815260008251806020840152610bff816040850160208701610bbc565b601f01601f19169190910160400192915050565b60008060408385031215610c2657600080fd5b610c2f83610b71565b946020939093013593505050565b6020808252818101527f4f776e61626c653a2063616c6c6572206973206e6f7420746865206f776e6572604082015260600190565b600181811c90821680610c8657607f821691505b602082108103610ca657634e487b7160e01b600052602260045260246000fd5b50919050565b7f646174613a6170706c69636174696f6e2f6a736f6e3b757466382c7b226e616d81526332911d1160e11b602082015260008351610cf1816024850160208801610bbc565b701116113232b9b1b934b83a34b7b7111d1160791b6024918401918201528351610d22816035840160208801610bbc565b01603501949350505050565b60008351610d40818460208801610bbc565b80830190507f222c2022696d616765223a2268747470733a2f2f617277656176652e6e65742f81528351610d7b816020840160208801610bbc565b01602001949350505050565b60008351610d99818460208801610bbc565b80830190507f222c2022616e696d6174696f6e5f75726c223a2268747470733a2f2f617277658152676176652e6e65742f60c01b60208201528351610de5816028840160208801610bbc565b01602801949350505050565b60008251610e03818460208701610bbc565b61227d60f01b920191825250600201919050565b600060208284031215610e2957600080fd5b5051919050565b818103818111156101db57634e487b7160e01b600052601160045260246000fd5b634e487b7160e01b600052601260045260246000fd5b600082610e7657610e76610e51565b500490565b600082610e8a57610e8a610e51565b500690565b634e487b7160e01b600052603260045260246000fd5b60008251610eb7818460208701610bbc565b9190910192915050565b600060208284031215610ed357600080fd5b8151801515811461059a57600080fd5b601f821115610f2d57600081815260208120601f850160051c81016020861015610f0a5750805b601f850160051c820191505b81811015610f2957828155600101610f16565b5050505b505050565b815167ffffffffffffffff811115610f4c57610f4c610a11565b610f6081610f5a8454610c72565b84610ee3565b602080601f831160018114610f955760008415610f7d5750858301515b600019600386901b1c1916600185901b178555610f29565b600085815260208120601f198616915b82811015610fc457888601518255948401946001909101908401610fa5565b5085821015610fe25787850151600019600388901b60f8161c191681555b5050505050600190811b0190555056fea2646970667358221220b6e3361761ef70f3d11eff4dfc96a35387d049e0307750c33f8e06daba7a74b164736f6c63430008110033",
  "linkReferences": {},
  "deployedLinkReferences": {}
}