{
  "_format": "hh-sol-artifact-1",
  "contractName": "FallbackManager",
  "sourceName": "contracts/gnosis/base/FallbackManager.sol",
  "abi": [
    {
      "stateMutability": "nonpayable",
      "type": "fallback"
    },
    {
      "inputs": [
        {
          "internalType": "address",
          "name": "handler",
          "type": "address"
        }
      ],
      "name": "setFallbackHandler",
      "outputs": [],
      "stateMutability": "nonpayable",
      "type": "function"
    }
  ],
  "bytecode": "0x608060405234801561001057600080fd5b5061016f806100206000396000f3fe608060405234801561001057600080fd5b506004361061002b5760003560e01c8063f08a032314610084575b7f6c9a6c4a39284e37ed1cf53d337577d14212a4870fb976a4366c693b939918d580548061005557005b36600080373360601b365260008060143601600080855af190503d6000803e8061007e573d6000fd5b503d6000f35b610097610092366004610109565b610099565b005b6100a16100cc565b6100c9817f6c9a6c4a39284e37ed1cf53d337577d14212a4870fb976a4366c693b939918d555565b50565b3330146101075760405162461bcd60e51b8152602060048201526005602482015264475330333160d81b604482015260640160405180910390fd5b565b60006020828403121561011b57600080fd5b81356001600160a01b038116811461013257600080fd5b939250505056fea2646970667358221220b90151030aad74b380aaa6ac70cb971a8fde22da144253b81ee31356b2d4011264736f6c63430008110033",
  "linkReferences": {},
  "deployedLinkReferences": {}
}