{
  "_format": "hh-sol-artifact-1",
  "contractName": "MockERC721CreatorExtensionOverride",
  "sourceName": "contracts/manifold/creator-core/mocks/MockERC721CreatorExtensionOverride.sol",
  "abi": [
    {
      "inputs": [
        {
          "internalType": "address",
          "name": "creator",
          "type": "address"
        }
      ],
      "stateMutability": "nonpayable",
      "type": "constructor"
    },
    {
      "anonymous": false,
      "inputs": [
        {
          "indexed": true,
          "internalType": "address",
          "name": "account",
          "type": "address"
        },
        {
          "indexed": true,
          "internalType": "address",
          "name": "sender",
          "type": "address"
        }
      ],
      "name": "AdminApproved",
      "type": "event"
    },
    {
      "anonymous": false,
      "inputs": [
        {
          "indexed": true,
          "internalType": "address",
          "name": "account",
          "type": "address"
        },
        {
          "indexed": true,
          "internalType": "address",
          "name": "sender",
          "type": "address"
        }
      ],
      "name": "AdminRevoked",
      "type": "event"
    },
    {
      "anonymous": false,
      "inputs": [
        {
          "indexed": true,
          "internalType": "address",
          "name": "previousOwner",
          "type": "address"
        },
        {
          "indexed": true,
          "internalType": "address",
          "name": "newOwner",
          "type": "address"
        }
      ],
      "name": "OwnershipTransferred",
      "type": "event"
    },
    {
      "inputs": [
        {
          "internalType": "address",
          "name": "admin",
          "type": "address"
        }
      ],
      "name": "approveAdmin",
      "outputs": [],
      "stateMutability": "nonpayable",
      "type": "function"
    },
    {
      "inputs": [
        {
          "internalType": "address",
          "name": "",
          "type": "address"
        },
        {
          "internalType": "address",
          "name": "",
          "type": "address"
        },
        {
          "internalType": "uint256",
          "name": "",
          "type": "uint256"
        }
      ],
      "name": "approveTransfer",
      "outputs": [
        {
          "internalType": "bool",
          "name": "",
          "type": "bool"
        }
      ],
      "stateMutability": "view",
      "type": "function"
    },
    {
      "inputs": [],
      "name": "getAdmins",
      "outputs": [
        {
          "internalType": "address[]",
          "name": "admins",
          "type": "address[]"
        }
      ],
      "stateMutability": "view",
      "type": "function"
    },
    {
      "inputs": [
        {
          "internalType": "address",
          "name": "admin",
          "type": "address"
        }
      ],
      "name": "isAdmin",
      "outputs": [
        {
          "internalType": "bool",
          "name": "",
          "type": "bool"
        }
      ],
      "stateMutability": "view",
      "type": "function"
    },
    {
      "inputs": [],
      "name": "owner",
      "outputs": [
        {
          "internalType": "address",
          "name": "",
          "type": "address"
        }
      ],
      "stateMutability": "view",
      "type": "function"
    },
    {
      "inputs": [],
      "name": "renounceOwnership",
      "outputs": [],
      "stateMutability": "nonpayable",
      "type": "function"
    },
    {
      "inputs": [
        {
          "internalType": "address",
          "name": "admin",
          "type": "address"
        }
      ],
      "name": "revokeAdmin",
      "outputs": [],
      "stateMutability": "nonpayable",
      "type": "function"
    },
    {
      "inputs": [
        {
          "internalType": "bool",
          "name": "enabled",
          "type": "bool"
        }
      ],
      "name": "setApproveEnabled",
      "outputs": [],
      "stateMutability": "nonpayable",
      "type": "function"
    },
    {
      "inputs": [
        {
          "internalType": "address",
          "name": "creator",
          "type": "address"
        },
        {
          "internalType": "bool",
          "name": "enabled",
          "type": "bool"
        }
      ],
      "name": "setApproveTransfer",
      "outputs": [],
      "stateMutability": "nonpayable",
      "type": "function"
    },
    {
      "inputs": [
        {
          "internalType": "string",
          "name": "uri",
          "type": "string"
        }
      ],
      "name": "setTokenURI",
      "outputs": [],
      "stateMutability": "nonpayable",
      "type": "function"
    },
    {
      "inputs": [
        {
          "internalType": "bytes4",
          "name": "interfaceId",
          "type": "bytes4"
        }
      ],
      "name": "supportsInterface",
      "outputs": [
        {
          "internalType": "bool",
          "name": "",
          "type": "bool"
        }
      ],
      "stateMutability": "view",
      "type": "function"
    },
    {
      "inputs": [
        {
          "internalType": "address",
          "name": "to",
          "type": "address"
        }
      ],
      "name": "testMint",
      "outputs": [],
      "stateMutability": "nonpayable",
      "type": "function"
    },
    {
      "inputs": [
        {
          "internalType": "address",
          "name": "creator",
          "type": "address"
        },
        {
          "internalType": "uint256",
          "name": "",
          "type": "uint256"
        }
      ],
      "name": "tokenURI",
      "outputs": [
        {
          "internalType": "string",
          "name": "",
          "type": "string"
        }
      ],
      "stateMutability": "view",
      "type": "function"
    },
    {
      "inputs": [
        {
          "internalType": "address",
          "name": "newOwner",
          "type": "address"
        }
      ],
      "name": "transferOwnership",
      "outputs": [],
      "stateMutability": "nonpayable",
      "type": "function"
    }
  ],
  "bytecode": "0x608060405234801561001057600080fd5b5060405161117238038061117283398101604081905261002f91610095565b600080546001600160a01b031916339081178255604051909182917f8be0079c531659141344cd1fd0a4f28419497f9722a3daafe3b4186f6b6457e0908290a350600580546001600160a01b0319166001600160a01b03929092169190911790556100c5565b6000602082840312156100a757600080fd5b81516001600160a01b03811681146100be57600080fd5b9392505050565b61109e806100d46000396000f3fe608060405234801561001057600080fd5b50600436106100ea5760003560e01c8063825808051161008c578063d9accf9211610066578063d9accf92146101cb578063e0df5b6f146101ec578063e9dc6375146101ff578063f2fde38b1461021f57600080fd5b806382580805146101825780638da5cb5b1461019d578063c70c875a146101b857600080fd5b80632d345670116100c85780632d3456701461013f57806331ae450b146101525780636d73e66914610167578063715018a61461017a57600080fd5b806301ffc9a7146100ef5780631b95a2271461011757806324d7806c1461012c575b600080fd5b6101026100fd366004610bdd565b610232565b60405190151581526020015b60405180910390f35b61012a610125366004610c31565b61025d565b005b61010261013a366004610c68565b6103b6565b61012a61014d366004610c68565b6103ef565b61015a61046f565b60405161010e9190610c83565b61012a610175366004610c68565b61051e565b61012a610598565b610102610190366004610cd0565b60035460ff169392505050565b6000546040516001600160a01b03909116815260200161010e565b61012a6101c6366004610c68565b61060c565b61012a6101d9366004610d0c565b6003805460ff1916911515919091179055565b61012a6101fa366004610d29565b61067c565b61021261020d366004610d9b565b61068e565b60405161010e9190610de9565b61012a61022d366004610c68565b61076b565b60006001600160e01b0319821663e9dc637560e01b1480610257575061025782610855565b92915050565b336102706000546001600160a01b031690565b6001600160a01b0316148061028b575061028b60013361087a565b6102e85760405162461bcd60e51b8152602060048201526024808201527f41646d696e436f6e74726f6c3a204d757374206265206f776e6572206f7220616044820152633236b4b760e11b60648201526084015b60405180910390fd5b6102f982639088c20760e01b61089f565b6103575760405162461bcd60e51b815260206004820152602960248201527f63726561746f72206d75737420696d706c656d656e74204945524337323143726044820152686561746f72436f726560b81b60648201526084016102df565b604051635606467d60e11b815281151560048201526001600160a01b0383169063ac0c8cfa90602401600060405180830381600087803b15801561039a57600080fd5b505af11580156103ae573d6000803e3d6000fd5b505050505050565b6000816001600160a01b03166103d46000546001600160a01b031690565b6001600160a01b03161480610257575061025760018361087a565b6000546001600160a01b031633146104195760405162461bcd60e51b81526004016102df90610e1c565b61042460018261087a565b1561046c5760405133906001600160a01b038316907f7c0c3c84c67c85fcac635147348bfe374c24a1a93d0366d1cfe9d8853cbf89d590600090a361046a6001826108bb565b505b50565b606061047b60016108d0565b67ffffffffffffffff81111561049357610493610e51565b6040519080825280602002602001820160405280156104bc578160200160208202803683370190505b50905060005b6104cc60016108d0565b81101561051a576104de6001826108da565b8282815181106104f0576104f0610e67565b6001600160a01b03909216602092830291909101909101528061051281610e93565b9150506104c2565b5090565b6000546001600160a01b031633146105485760405162461bcd60e51b81526004016102df90610e1c565b61055360018261087a565b61046c5760405133906001600160a01b038316907f7e1a1a08d52e4ba0e21554733d66165fd5151f99460116223d9e3a608eec5cb190600090a361046a6001826108e6565b6000546001600160a01b031633146105c25760405162461bcd60e51b81526004016102df90610e1c565b600080546040516001600160a01b03909116907f8be0079c531659141344cd1fd0a4f28419497f9722a3daafe3b4186f6b6457e0908390a3600080546001600160a01b0319169055565b600554604051630525194b60e31b81526001600160a01b03838116600483015290911690632928ca58906024016020604051808303816000875af1158015610658573d6000803e3d6000fd5b505050506040513d601f19601f8201168201806040525081019061046a9190610eac565b6004610689828483610f45565b505050565b6005546060906001600160a01b038481169116146106d85760405162461bcd60e51b8152602060048201526007602482015266125b9d985b1a5960ca1b60448201526064016102df565b600480546106e590610ec5565b80601f016020809104026020016040519081016040528092919081815260200182805461071190610ec5565b801561075e5780601f106107335761010080835404028352916020019161075e565b820191906000526020600020905b81548152906001019060200180831161074157829003601f168201915b5050505050905092915050565b6000546001600160a01b031633146107955760405162461bcd60e51b81526004016102df90610e1c565b6001600160a01b0381166107fa5760405162461bcd60e51b815260206004820152602660248201527f4f776e61626c653a206e6577206f776e657220697320746865207a65726f206160448201526564647265737360d01b60648201526084016102df565b600080546040516001600160a01b03808516939216917f8be0079c531659141344cd1fd0a4f28419497f9722a3daafe3b4186f6b6457e091a3600080546001600160a01b0319166001600160a01b0392909216919091179055565b60006001600160e01b03198216634ce6d51160e11b14806102575750610257826108fb565b6001600160a01b038116600090815260018301602052604081205415155b9392505050565b60006108aa83610920565b801561089857506108988383610953565b6000610898836001600160a01b038416610a3c565b6000610257825490565b60006108988383610b2f565b6000610898836001600160a01b038416610b59565b60006001600160e01b03198216637005caad60e01b1480610257575061025782610ba8565b6000610933826301ffc9a760e01b610953565b8015610257575061094c826001600160e01b0319610953565b1592915050565b604080516001600160e01b0319831660248083019190915282518083039091018152604490910182526020810180516001600160e01b03166301ffc9a760e01b179052905160009190829081906001600160a01b03871690617530906109ba908690611006565b6000604051808303818686fa925050503d80600081146109f6576040519150601f19603f3d011682016040523d82523d6000602084013e6109fb565b606091505b5091509150602081511015610a165760009350505050610257565b818015610a32575080806020019051810190610a329190611022565b9695505050505050565b60008181526001830160205260408120548015610b25576000610a6060018361103f565b8554909150600090610a749060019061103f565b9050818114610ad9576000866000018281548110610a9457610a94610e67565b9060005260206000200154905080876000018481548110610ab757610ab7610e67565b6000918252602080832090910192909255918252600188019052604090208390555b8554869080610aea57610aea611052565b600190038181906000526020600020016000905590558560010160008681526020019081526020016000206000905560019350505050610257565b6000915050610257565b6000826000018281548110610b4657610b46610e67565b9060005260206000200154905092915050565b6000818152600183016020526040812054610ba057508154600181810184556000848152602080822090930184905584548482528286019093526040902091909155610257565b506000610257565b60006001600160e01b03198216632a9f3abf60e11b148061025757506301ffc9a760e01b6001600160e01b0319831614610257565b600060208284031215610bef57600080fd5b81356001600160e01b03198116811461089857600080fd5b80356001600160a01b0381168114610c1e57600080fd5b919050565b801515811461046c57600080fd5b60008060408385031215610c4457600080fd5b610c4d83610c07565b91506020830135610c5d81610c23565b809150509250929050565b600060208284031215610c7a57600080fd5b61089882610c07565b6020808252825182820181905260009190848201906040850190845b81811015610cc45783516001600160a01b031683529284019291840191600101610c9f565b50909695505050505050565b600080600060608486031215610ce557600080fd5b610cee84610c07565b9250610cfc60208501610c07565b9150604084013590509250925092565b600060208284031215610d1e57600080fd5b813561089881610c23565b60008060208385031215610d3c57600080fd5b823567ffffffffffffffff80821115610d5457600080fd5b818501915085601f830112610d6857600080fd5b813581811115610d7757600080fd5b866020828501011115610d8957600080fd5b60209290920196919550909350505050565b60008060408385031215610dae57600080fd5b610db783610c07565b946020939093013593505050565b60005b83811015610de0578181015183820152602001610dc8565b50506000910152565b6020815260008251806020840152610e08816040850160208701610dc5565b601f01601f19169190910160400192915050565b6020808252818101527f4f776e61626c653a2063616c6c6572206973206e6f7420746865206f776e6572604082015260600190565b634e487b7160e01b600052604160045260246000fd5b634e487b7160e01b600052603260045260246000fd5b634e487b7160e01b600052601160045260246000fd5b600060018201610ea557610ea5610e7d565b5060010190565b600060208284031215610ebe57600080fd5b5051919050565b600181811c90821680610ed957607f821691505b602082108103610ef957634e487b7160e01b600052602260045260246000fd5b50919050565b601f82111561068957600081815260208120601f850160051c81016020861015610f265750805b601f850160051c820191505b818110156103ae57828155600101610f32565b67ffffffffffffffff831115610f5d57610f5d610e51565b610f7183610f6b8354610ec5565b83610eff565b6000601f841160018114610fa55760008515610f8d5750838201355b600019600387901b1c1916600186901b178355610fff565b600083815260209020601f19861690835b82811015610fd65786850135825560209485019460019092019101610fb6565b5086821015610ff35760001960f88860031b161c19848701351681555b505060018560011b0183555b5050505050565b60008251611018818460208701610dc5565b9190910192915050565b60006020828403121561103457600080fd5b815161089881610c23565b8181038181111561025757610257610e7d565b634e487b7160e01b600052603160045260246000fdfea2646970667358221220b54ac18af893879b9d0bd064d8bc409267ef56eecc1eded4af68c2d83e9c936664736f6c63430008110033",
  "linkReferences": {},
  "deployedLinkReferences": {}
}