{
  "_format": "hh-sol-artifact-1",
  "contractName": "ERC721PresetMinterPauserAutoIdUpgradeable",
  "sourceName": "contracts/openzeppelin-upgradeable/token/ERC721/presets/ERC721PresetMinterPauserAutoIdUpgradeable.sol",
  "abi": [
    {
      "anonymous": false,
      "inputs": [
        {
          "indexed": true,
          "internalType": "address",
          "name": "owner",
          "type": "address"
        },
        {
          "indexed": true,
          "internalType": "address",
          "name": "approved",
          "type": "address"
        },
        {
          "indexed": true,
          "internalType": "uint256",
          "name": "tokenId",
          "type": "uint256"
        }
      ],
      "name": "Approval",
      "type": "event"
    },
    {
      "anonymous": false,
      "inputs": [
        {
          "indexed": true,
          "internalType": "address",
          "name": "owner",
          "type": "address"
        },
        {
          "indexed": true,
          "internalType": "address",
          "name": "operator",
          "type": "address"
        },
        {
          "indexed": false,
          "internalType": "bool",
          "name": "approved",
          "type": "bool"
        }
      ],
      "name": "ApprovalForAll",
      "type": "event"
    },
    {
      "anonymous": false,
      "inputs": [
        {
          "indexed": false,
          "internalType": "address",
          "name": "account",
          "type": "address"
        }
      ],
      "name": "Paused",
      "type": "event"
    },
    {
      "anonymous": false,
      "inputs": [
        {
          "indexed": true,
          "internalType": "bytes32",
          "name": "role",
          "type": "bytes32"
        },
        {
          "indexed": true,
          "internalType": "bytes32",
          "name": "previousAdminRole",
          "type": "bytes32"
        },
        {
          "indexed": true,
          "internalType": "bytes32",
          "name": "newAdminRole",
          "type": "bytes32"
        }
      ],
      "name": "RoleAdminChanged",
      "type": "event"
    },
    {
      "anonymous": false,
      "inputs": [
        {
          "indexed": true,
          "internalType": "bytes32",
          "name": "role",
          "type": "bytes32"
        },
        {
          "indexed": true,
          "internalType": "address",
          "name": "account",
          "type": "address"
        },
        {
          "indexed": true,
          "internalType": "address",
          "name": "sender",
          "type": "address"
        }
      ],
      "name": "RoleGranted",
      "type": "event"
    },
    {
      "anonymous": false,
      "inputs": [
        {
          "indexed": true,
          "internalType": "bytes32",
          "name": "role",
          "type": "bytes32"
        },
        {
          "indexed": true,
          "internalType": "address",
          "name": "account",
          "type": "address"
        },
        {
          "indexed": true,
          "internalType": "address",
          "name": "sender",
          "type": "address"
        }
      ],
      "name": "RoleRevoked",
      "type": "event"
    },
    {
      "anonymous": false,
      "inputs": [
        {
          "indexed": true,
          "internalType": "address",
          "name": "from",
          "type": "address"
        },
        {
          "indexed": true,
          "internalType": "address",
          "name": "to",
          "type": "address"
        },
        {
          "indexed": true,
          "internalType": "uint256",
          "name": "tokenId",
          "type": "uint256"
        }
      ],
      "name": "Transfer",
      "type": "event"
    },
    {
      "anonymous": false,
      "inputs": [
        {
          "indexed": false,
          "internalType": "address",
          "name": "account",
          "type": "address"
        }
      ],
      "name": "Unpaused",
      "type": "event"
    },
    {
      "inputs": [],
      "name": "DEFAULT_ADMIN_ROLE",
      "outputs": [
        {
          "internalType": "bytes32",
          "name": "",
          "type": "bytes32"
        }
      ],
      "stateMutability": "view",
      "type": "function"
    },
    {
      "inputs": [],
      "name": "MINTER_ROLE",
      "outputs": [
        {
          "internalType": "bytes32",
          "name": "",
          "type": "bytes32"
        }
      ],
      "stateMutability": "view",
      "type": "function"
    },
    {
      "inputs": [],
      "name": "PAUSER_ROLE",
      "outputs": [
        {
          "internalType": "bytes32",
          "name": "",
          "type": "bytes32"
        }
      ],
      "stateMutability": "view",
      "type": "function"
    },
    {
      "inputs": [
        {
          "internalType": "address",
          "name": "to",
          "type": "address"
        },
        {
          "internalType": "uint256",
          "name": "tokenId",
          "type": "uint256"
        }
      ],
      "name": "approve",
      "outputs": [],
      "stateMutability": "nonpayable",
      "type": "function"
    },
    {
      "inputs": [
        {
          "internalType": "address",
          "name": "owner",
          "type": "address"
        }
      ],
      "name": "balanceOf",
      "outputs": [
        {
          "internalType": "uint256",
          "name": "",
          "type": "uint256"
        }
      ],
      "stateMutability": "view",
      "type": "function"
    },
    {
      "inputs": [
        {
          "internalType": "uint256",
          "name": "tokenId",
          "type": "uint256"
        }
      ],
      "name": "burn",
      "outputs": [],
      "stateMutability": "nonpayable",
      "type": "function"
    },
    {
      "inputs": [
        {
          "internalType": "uint256",
          "name": "tokenId",
          "type": "uint256"
        }
      ],
      "name": "getApproved",
      "outputs": [
        {
          "internalType": "address",
          "name": "",
          "type": "address"
        }
      ],
      "stateMutability": "view",
      "type": "function"
    },
    {
      "inputs": [
        {
          "internalType": "bytes32",
          "name": "role",
          "type": "bytes32"
        }
      ],
      "name": "getRoleAdmin",
      "outputs": [
        {
          "internalType": "bytes32",
          "name": "",
          "type": "bytes32"
        }
      ],
      "stateMutability": "view",
      "type": "function"
    },
    {
      "inputs": [
        {
          "internalType": "bytes32",
          "name": "role",
          "type": "bytes32"
        },
        {
          "internalType": "uint256",
          "name": "index",
          "type": "uint256"
        }
      ],
      "name": "getRoleMember",
      "outputs": [
        {
          "internalType": "address",
          "name": "",
          "type": "address"
        }
      ],
      "stateMutability": "view",
      "type": "function"
    },
    {
      "inputs": [
        {
          "internalType": "bytes32",
          "name": "role",
          "type": "bytes32"
        }
      ],
      "name": "getRoleMemberCount",
      "outputs": [
        {
          "internalType": "uint256",
          "name": "",
          "type": "uint256"
        }
      ],
      "stateMutability": "view",
      "type": "function"
    },
    {
      "inputs": [
        {
          "internalType": "bytes32",
          "name": "role",
          "type": "bytes32"
        },
        {
          "internalType": "address",
          "name": "account",
          "type": "address"
        }
      ],
      "name": "grantRole",
      "outputs": [],
      "stateMutability": "nonpayable",
      "type": "function"
    },
    {
      "inputs": [
        {
          "internalType": "bytes32",
          "name": "role",
          "type": "bytes32"
        },
        {
          "internalType": "address",
          "name": "account",
          "type": "address"
        }
      ],
      "name": "hasRole",
      "outputs": [
        {
          "internalType": "bool",
          "name": "",
          "type": "bool"
        }
      ],
      "stateMutability": "view",
      "type": "function"
    },
    {
      "inputs": [
        {
          "internalType": "string",
          "name": "name",
          "type": "string"
        },
        {
          "internalType": "string",
          "name": "symbol",
          "type": "string"
        },
        {
          "internalType": "string",
          "name": "baseTokenURI",
          "type": "string"
        }
      ],
      "name": "initialize",
      "outputs": [],
      "stateMutability": "nonpayable",
      "type": "function"
    },
    {
      "inputs": [
        {
          "internalType": "address",
          "name": "owner",
          "type": "address"
        },
        {
          "internalType": "address",
          "name": "operator",
          "type": "address"
        }
      ],
      "name": "isApprovedForAll",
      "outputs": [
        {
          "internalType": "bool",
          "name": "",
          "type": "bool"
        }
      ],
      "stateMutability": "view",
      "type": "function"
    },
    {
      "inputs": [
        {
          "internalType": "address",
          "name": "to",
          "type": "address"
        }
      ],
      "name": "mint",
      "outputs": [],
      "stateMutability": "nonpayable",
      "type": "function"
    },
    {
      "inputs": [],
      "name": "name",
      "outputs": [
        {
          "internalType": "string",
          "name": "",
          "type": "string"
        }
      ],
      "stateMutability": "view",
      "type": "function"
    },
    {
      "inputs": [
        {
          "internalType": "uint256",
          "name": "tokenId",
          "type": "uint256"
        }
      ],
      "name": "ownerOf",
      "outputs": [
        {
          "internalType": "address",
          "name": "",
          "type": "address"
        }
      ],
      "stateMutability": "view",
      "type": "function"
    },
    {
      "inputs": [],
      "name": "pause",
      "outputs": [],
      "stateMutability": "nonpayable",
      "type": "function"
    },
    {
      "inputs": [],
      "name": "paused",
      "outputs": [
        {
          "internalType": "bool",
          "name": "",
          "type": "bool"
        }
      ],
      "stateMutability": "view",
      "type": "function"
    },
    {
      "inputs": [
        {
          "internalType": "bytes32",
          "name": "role",
          "type": "bytes32"
        },
        {
          "internalType": "address",
          "name": "account",
          "type": "address"
        }
      ],
      "name": "renounceRole",
      "outputs": [],
      "stateMutability": "nonpayable",
      "type": "function"
    },
    {
      "inputs": [
        {
          "internalType": "bytes32",
          "name": "role",
          "type": "bytes32"
        },
        {
          "internalType": "address",
          "name": "account",
          "type": "address"
        }
      ],
      "name": "revokeRole",
      "outputs": [],
      "stateMutability": "nonpayable",
      "type": "function"
    },
    {
      "inputs": [
        {
          "internalType": "address",
          "name": "from",
          "type": "address"
        },
        {
          "internalType": "address",
          "name": "to",
          "type": "address"
        },
        {
          "internalType": "uint256",
          "name": "tokenId",
          "type": "uint256"
        }
      ],
      "name": "safeTransferFrom",
      "outputs": [],
      "stateMutability": "nonpayable",
      "type": "function"
    },
    {
      "inputs": [
        {
          "internalType": "address",
          "name": "from",
          "type": "address"
        },
        {
          "internalType": "address",
          "name": "to",
          "type": "address"
        },
        {
          "internalType": "uint256",
          "name": "tokenId",
          "type": "uint256"
        },
        {
          "internalType": "bytes",
          "name": "_data",
          "type": "bytes"
        }
      ],
      "name": "safeTransferFrom",
      "outputs": [],
      "stateMutability": "nonpayable",
      "type": "function"
    },
    {
      "inputs": [
        {
          "internalType": "address",
          "name": "operator",
          "type": "address"
        },
        {
          "internalType": "bool",
          "name": "approved",
          "type": "bool"
        }
      ],
      "name": "setApprovalForAll",
      "outputs": [],
      "stateMutability": "nonpayable",
      "type": "function"
    },
    {
      "inputs": [
        {
          "internalType": "bytes4",
          "name": "interfaceId",
          "type": "bytes4"
        }
      ],
      "name": "supportsInterface",
      "outputs": [
        {
          "internalType": "bool",
          "name": "",
          "type": "bool"
        }
      ],
      "stateMutability": "view",
      "type": "function"
    },
    {
      "inputs": [],
      "name": "symbol",
      "outputs": [
        {
          "internalType": "string",
          "name": "",
          "type": "string"
        }
      ],
      "stateMutability": "view",
      "type": "function"
    },
    {
      "inputs": [
        {
          "internalType": "uint256",
          "name": "index",
          "type": "uint256"
        }
      ],
      "name": "tokenByIndex",
      "outputs": [
        {
          "internalType": "uint256",
          "name": "",
          "type": "uint256"
        }
      ],
      "stateMutability": "view",
      "type": "function"
    },
    {
      "inputs": [
        {
          "internalType": "address",
          "name": "owner",
          "type": "address"
        },
        {
          "internalType": "uint256",
          "name": "index",
          "type": "uint256"
        }
      ],
      "name": "tokenOfOwnerByIndex",
      "outputs": [
        {
          "internalType": "uint256",
          "name": "",
          "type": "uint256"
        }
      ],
      "stateMutability": "view",
      "type": "function"
    },
    {
      "inputs": [
        {
          "internalType": "uint256",
          "name": "tokenId",
          "type": "uint256"
        }
      ],
      "name": "tokenURI",
      "outputs": [
        {
          "internalType": "string",
          "name": "",
          "type": "string"
        }
      ],
      "stateMutability": "view",
      "type": "function"
    },
    {
      "inputs": [],
      "name": "totalSupply",
      "outputs": [
        {
          "internalType": "uint256",
          "name": "",
          "type": "uint256"
        }
      ],
      "stateMutability": "view",
      "type": "function"
    },
    {
      "inputs": [
        {
          "internalType": "address",
          "name": "from",
          "type": "address"
        },
        {
          "internalType": "address",
          "name": "to",
          "type": "address"
        },
        {
          "internalType": "uint256",
          "name": "tokenId",
          "type": "uint256"
        }
      ],
      "name": "transferFrom",
      "outputs": [],
      "stateMutability": "nonpayable",
      "type": "function"
    },
    {
      "inputs": [],
      "name": "unpause",
      "outputs": [],
      "stateMutability": "nonpayable",
      "type": "function"
    }
  ],
  "bytecode": "0x608060405234801561001057600080fd5b50612b18806100206000396000f3fe608060405234801561001057600080fd5b50600436106101f05760003560e01c80636a6278421161010f578063a6487c53116100a2578063d539139311610071578063d539139314610416578063d547741f1461043d578063e63ab1e914610450578063e985e9c51461046557600080fd5b8063a6487c53146103ca578063b88d4fde146103dd578063c87b56dd146103f0578063ca15c8731461040357600080fd5b806391d14854116100de57806391d148541461039457806395d89b41146103a7578063a217fddf146103af578063a22cb465146103b757600080fd5b80636a6278421461035357806370a08231146103665780638456cb59146103795780639010d07c1461038157600080fd5b80632f745c591161018757806342966c681161015657806342966c681461030e5780634f6ccce7146103215780635c975abb146103345780636352211e1461034057600080fd5b80632f745c59146102cd57806336568abe146102e05780633f4ba83a146102f357806342842e0e146102fb57600080fd5b806318160ddd116101c357806318160ddd1461027257806323b872dd14610284578063248a9ca3146102975780632f2ff15d146102ba57600080fd5b806301ffc9a7146101f557806306fdde031461021d578063081812fc14610232578063095ea7b31461025d575b600080fd5b610208610203366004612304565b6104a1565b60405190151581526020015b60405180910390f35b6102256104b2565b6040516102149190612371565b610245610240366004612384565b610544565b6040516001600160a01b039091168152602001610214565b61027061026b3660046123b9565b6105de565b005b60fd545b604051908152602001610214565b6102706102923660046123e3565b6106f3565b6102766102a5366004612384565b60009081526065602052604090206001015490565b6102706102c836600461241f565b610725565b6102766102db3660046123b9565b61074b565b6102706102ee36600461241f565b6107e1565b61027061085f565b6102706103093660046123e3565b6108f5565b61027061031c366004612384565b610910565b61027661032f366004612384565b61098a565b61015f5460ff16610208565b61024561034e366004612384565b610a1d565b61027061036136600461244b565b610a94565b61027661037436600461244b565b610b52565b610270610bd9565b61024561038f366004612466565b610c6b565b6102086103a236600461241f565b610c8a565b610225610cb5565b610276600081565b6102706103c5366004612488565b610cc4565b6102706103d8366004612570565b610ccf565b6102706103eb3660046125f8565b610d49565b6102256103fe366004612384565b610d7b565b610276610411366004612384565b610e55565b6102767f9f2df0fed2c77648de5860a4cc508cd0818c85b8b8a1ab4ceeef8d981c8956a681565b61027061044b36600461241f565b610e6c565b610276600080516020612ac383398151915281565b610208610473366004612674565b6001600160a01b03918216600090815260ce6020908152604080832093909416825291909152205460ff1690565b60006104ac82610e92565b92915050565b606060c980546104c19061269e565b80601f01602080910402602001604051908101604052809291908181526020018280546104ed9061269e565b801561053a5780601f1061050f5761010080835404028352916020019161053a565b820191906000526020600020905b81548152906001019060200180831161051d57829003601f168201915b5050505050905090565b600081815260cb60205260408120546001600160a01b03166105c25760405162461bcd60e51b815260206004820152602c60248201527f4552433732313a20617070726f76656420717565727920666f72206e6f6e657860448201526b34b9ba32b73a103a37b5b2b760a11b60648201526084015b60405180910390fd5b50600090815260cd60205260409020546001600160a01b031690565b60006105e982610a1d565b9050806001600160a01b0316836001600160a01b0316036106565760405162461bcd60e51b815260206004820152602160248201527f4552433732313a20617070726f76616c20746f2063757272656e74206f776e656044820152603960f91b60648201526084016105b9565b336001600160a01b038216148061067257506106728133610473565b6106e45760405162461bcd60e51b815260206004820152603860248201527f4552433732313a20617070726f76652063616c6c6572206973206e6f74206f7760448201527f6e6572206e6f7220617070726f76656420666f7220616c6c000000000000000060648201526084016105b9565b6106ee8383610eb7565b505050565b6106fe335b82610f25565b61071a5760405162461bcd60e51b81526004016105b9906126d8565b6106ee83838361101c565b60008281526065602052604090206001015461074181336111c7565b6106ee838361122b565b600061075683610b52565b82106107b85760405162461bcd60e51b815260206004820152602b60248201527f455243373231456e756d657261626c653a206f776e657220696e646578206f7560448201526a74206f6620626f756e647360a81b60648201526084016105b9565b506001600160a01b0391909116600090815260fb60209081526040808320938352929052205490565b6001600160a01b03811633146108515760405162461bcd60e51b815260206004820152602f60248201527f416363657373436f6e74726f6c3a2063616e206f6e6c792072656e6f756e636560448201526e103937b632b9903337b91039b2b63360891b60648201526084016105b9565b61085b828261124d565b5050565b610877600080516020612ac383398151915233610c8a565b6108eb576040805162461bcd60e51b81526020600482015260248101919091527f4552433732315072657365744d696e7465725061757365724175746f49643a2060448201527f6d75737420686176652070617573657220726f6c6520746f20756e706175736560648201526084016105b9565b6108f361126f565b565b6106ee83838360405180602001604052806000815250610d49565b610919336106f8565b61097e5760405162461bcd60e51b815260206004820152603060248201527f4552433732314275726e61626c653a2063616c6c6572206973206e6f74206f7760448201526f1b995c881b9bdc88185c1c1c9bdd995960821b60648201526084016105b9565b61098781611304565b50565b600061099560fd5490565b82106109f85760405162461bcd60e51b815260206004820152602c60248201527f455243373231456e756d657261626c653a20676c6f62616c20696e646578206f60448201526b7574206f6620626f756e647360a01b60648201526084016105b9565b60fd8281548110610a0b57610a0b612729565b90600052602060002001549050919050565b600081815260cb60205260408120546001600160a01b0316806104ac5760405162461bcd60e51b815260206004820152602960248201527f4552433732313a206f776e657220717565727920666f72206e6f6e657869737460448201526832b73a103a37b5b2b760b91b60648201526084016105b9565b610abe7f9f2df0fed2c77648de5860a4cc508cd0818c85b8b8a1ab4ceeef8d981c8956a633610c8a565b610b305760405162461bcd60e51b815260206004820152603d60248201527f4552433732315072657365744d696e7465725061757365724175746f49643a2060448201527f6d7573742068617665206d696e74657220726f6c6520746f206d696e7400000060648201526084016105b9565b610b4381610b3e6101c35490565b6113ab565b6109876101c380546001019055565b60006001600160a01b038216610bbd5760405162461bcd60e51b815260206004820152602a60248201527f4552433732313a2062616c616e636520717565727920666f7220746865207a65604482015269726f206164647265737360b01b60648201526084016105b9565b506001600160a01b0316600090815260cc602052604090205490565b610bf1600080516020612ac383398151915233610c8a565b610c635760405162461bcd60e51b815260206004820152603e60248201527f4552433732315072657365744d696e7465725061757365724175746f49643a2060448201527f6d75737420686176652070617573657220726f6c6520746f207061757365000060648201526084016105b9565b6108f36114f9565b6000828152609760205260408120610c839083611576565b9392505050565b60009182526065602090815260408084206001600160a01b0393909316845291905290205460ff1690565b606060ca80546104c19061269e565b61085b338383611582565b600054610100900460ff1680610ce8575060005460ff16155b610d045760405162461bcd60e51b81526004016105b99061273f565b600054610100900460ff16158015610d26576000805461ffff19166101011790555b610d31848484611650565b8015610d43576000805461ff00191690555b50505050565b610d533383610f25565b610d6f5760405162461bcd60e51b81526004016105b9906126d8565b610d43848484846116fc565b600081815260cb60205260409020546060906001600160a01b0316610dfa5760405162461bcd60e51b815260206004820152602f60248201527f4552433732314d657461646174613a2055524920717565727920666f72206e6f60448201526e3732bc34b9ba32b73a103a37b5b2b760891b60648201526084016105b9565b6000610e0461172f565b90506000815111610e245760405180602001604052806000815250610c83565b80610e2e8461173f565b604051602001610e3f92919061278d565b6040516020818303038152906040529392505050565b60008181526097602052604081206104ac90611840565b600082815260656020526040902060010154610e8881336111c7565b6106ee838361124d565b60006001600160e01b0319821663780e9d6360e01b14806104ac57506104ac8261184a565b600081815260cd6020526040902080546001600160a01b0319166001600160a01b0384169081179091558190610eec82610a1d565b6001600160a01b03167f8c5be1e5ebec7d5bd14f71427d1e84f3dd0314c0f7b2291e5b200ac8c7c3b92560405160405180910390a45050565b600081815260cb60205260408120546001600160a01b0316610f9e5760405162461bcd60e51b815260206004820152602c60248201527f4552433732313a206f70657261746f7220717565727920666f72206e6f6e657860448201526b34b9ba32b73a103a37b5b2b760a11b60648201526084016105b9565b6000610fa983610a1d565b9050806001600160a01b0316846001600160a01b03161480610fe45750836001600160a01b0316610fd984610544565b6001600160a01b0316145b8061101457506001600160a01b03808216600090815260ce602090815260408083209388168352929052205460ff165b949350505050565b826001600160a01b031661102f82610a1d565b6001600160a01b0316146110975760405162461bcd60e51b815260206004820152602960248201527f4552433732313a207472616e73666572206f6620746f6b656e2074686174206960448201526839903737ba1037bbb760b91b60648201526084016105b9565b6001600160a01b0382166110f95760405162461bcd60e51b8152602060048201526024808201527f4552433732313a207472616e7366657220746f20746865207a65726f206164646044820152637265737360e01b60648201526084016105b9565b61110483838361188a565b61110f600082610eb7565b6001600160a01b038316600090815260cc602052604081208054600192906111389084906127d2565b90915550506001600160a01b038216600090815260cc602052604081208054600192906111669084906127e5565b9091555050600081815260cb602052604080822080546001600160a01b0319166001600160a01b0386811691821790925591518493918716917fddf252ad1be2c89b69c2b068fc378daa952ba7f163c4a11628f55a4df523b3ef91a4505050565b6111d18282610c8a565b61085b576111e9816001600160a01b03166014611895565b6111f4836020611895565b6040516020016112059291906127f8565b60408051601f198184030181529082905262461bcd60e51b82526105b991600401612371565b6112358282611a31565b60008281526097602052604090206106ee9082611ab7565b6112578282611acc565b60008281526097602052604090206106ee9082611b33565b61015f5460ff166112b95760405162461bcd60e51b815260206004820152601460248201527314185d5cd8589b194e881b9bdd081c185d5cd95960621b60448201526064016105b9565b61015f805460ff191690557f5db9ee0a495bf2e6ff9c91a7834c1ba4fdd244a5e8aa4e537bd38aeae4b073aa335b6040516001600160a01b03909116815260200160405180910390a1565b600061130f82610a1d565b905061131d8160008461188a565b611328600083610eb7565b6001600160a01b038116600090815260cc602052604081208054600192906113519084906127d2565b9091555050600082815260cb602052604080822080546001600160a01b0319169055518391906001600160a01b038416907fddf252ad1be2c89b69c2b068fc378daa952ba7f163c4a11628f55a4df523b3ef908390a45050565b6001600160a01b0382166114015760405162461bcd60e51b815260206004820181905260248201527f4552433732313a206d696e7420746f20746865207a65726f206164647265737360448201526064016105b9565b600081815260cb60205260409020546001600160a01b0316156114665760405162461bcd60e51b815260206004820152601c60248201527f4552433732313a20746f6b656e20616c7265616479206d696e7465640000000060448201526064016105b9565b6114726000838361188a565b6001600160a01b038216600090815260cc6020526040812080546001929061149b9084906127e5565b9091555050600081815260cb602052604080822080546001600160a01b0319166001600160a01b03861690811790915590518392907fddf252ad1be2c89b69c2b068fc378daa952ba7f163c4a11628f55a4df523b3ef908290a45050565b61015f5460ff16156115405760405162461bcd60e51b815260206004820152601060248201526f14185d5cd8589b194e881c185d5cd95960821b60448201526064016105b9565b61015f805460ff191660011790557f62e78cea01bee320cd4e420270b5ea74000d11b0c9f74754ebdbfc544b05a2586112e73390565b6000610c838383611b48565b816001600160a01b0316836001600160a01b0316036115e35760405162461bcd60e51b815260206004820152601960248201527f4552433732313a20617070726f766520746f2063616c6c65720000000000000060448201526064016105b9565b6001600160a01b03838116600081815260ce6020908152604080832094871680845294825291829020805460ff191686151590811790915591519182527f17307eab39ab6107e8899845ad3d59bd9653f200f220920489ca2b5937696c31910160405180910390a3505050565b600054610100900460ff1680611669575060005460ff16155b6116855760405162461bcd60e51b81526004016105b99061273f565b600054610100900460ff161580156116a7576000805461ffff19166101011790555b6116af611b72565b6116b7611b72565b6116bf611b72565b6116c7611b72565b6116d18484611bdd565b6116d9611b72565b6116e1611b72565b6116e9611c64565b6116f1611b72565b610d31848484611cda565b61170784848461101c565b61171384848484611d8c565b610d435760405162461bcd60e51b81526004016105b99061286d565b60606101c480546104c19061269e565b6060816000036117665750506040805180820190915260018152600360fc1b602082015290565b8160005b8115611790578061177a816128bf565b91506117899050600a836128ee565b915061176a565b60008167ffffffffffffffff8111156117ab576117ab6124c4565b6040519080825280601f01601f1916602001820160405280156117d5576020820181803683370190505b5090505b8415611014576117ea6001836127d2565b91506117f7600a86612902565b6118029060306127e5565b60f81b81838151811061181757611817612729565b60200101906001600160f81b031916908160001a905350611839600a866128ee565b94506117d9565b60006104ac825490565b60006001600160e01b031982166380ac58cd60e01b148061187b57506001600160e01b03198216635b5e139f60e01b145b806104ac57506104ac82611e8d565b6106ee838383611eb2565b606060006118a4836002612916565b6118af9060026127e5565b67ffffffffffffffff8111156118c7576118c76124c4565b6040519080825280601f01601f1916602001820160405280156118f1576020820181803683370190505b509050600360fc1b8160008151811061190c5761190c612729565b60200101906001600160f81b031916908160001a905350600f60fb1b8160018151811061193b5761193b612729565b60200101906001600160f81b031916908160001a905350600061195f846002612916565b61196a9060016127e5565b90505b60018111156119e2576f181899199a1a9b1b9c1cb0b131b232b360811b85600f166010811061199e5761199e612729565b1a60f81b8282815181106119b4576119b4612729565b60200101906001600160f81b031916908160001a90535060049490941c936119db8161292d565b905061196d565b508315610c835760405162461bcd60e51b815260206004820181905260248201527f537472696e67733a20686578206c656e67746820696e73756666696369656e7460448201526064016105b9565b611a3b8282610c8a565b61085b5760008281526065602090815260408083206001600160a01b03851684529091529020805460ff19166001179055611a733390565b6001600160a01b0316816001600160a01b0316837f2f8788117e7eff1d82e926ec794901d17c78024a50270940304540a733656f0d60405160405180910390a45050565b6000610c83836001600160a01b038416611f25565b611ad68282610c8a565b1561085b5760008281526065602090815260408083206001600160a01b0385168085529252808320805460ff1916905551339285917ff6391f5c32d9c69d2a47ea670b442974b53935d1edc7fd64eb21e047a839171b9190a45050565b6000610c83836001600160a01b038416611f74565b6000826000018281548110611b5f57611b5f612729565b9060005260206000200154905092915050565b600054610100900460ff1680611b8b575060005460ff16155b611ba75760405162461bcd60e51b81526004016105b99061273f565b600054610100900460ff16158015611bc9576000805461ffff19166101011790555b8015610987576000805461ff001916905550565b600054610100900460ff1680611bf6575060005460ff16155b611c125760405162461bcd60e51b81526004016105b99061273f565b600054610100900460ff16158015611c34576000805461ffff19166101011790555b60c9611c408482612992565b5060ca611c4d8382612992565b5080156106ee576000805461ff0019169055505050565b600054610100900460ff1680611c7d575060005460ff16155b611c995760405162461bcd60e51b81526004016105b99061273f565b600054610100900460ff16158015611cbb576000805461ffff19166101011790555b61015f805460ff191690558015610987576000805461ff001916905550565b600054610100900460ff1680611cf3575060005460ff16155b611d0f5760405162461bcd60e51b81526004016105b99061273f565b600054610100900460ff16158015611d31576000805461ffff19166101011790555b6101c4611d3e8382612992565b50611d4a600033612067565b611d747f9f2df0fed2c77648de5860a4cc508cd0818c85b8b8a1ab4ceeef8d981c8956a633612067565b610d31600080516020612ac383398151915233612067565b60006001600160a01b0384163b15611e8257604051630a85bd0160e11b81526001600160a01b0385169063150b7a0290611dd0903390899088908890600401612a52565b6020604051808303816000875af1925050508015611e0b575060408051601f3d908101601f19168201909252611e0891810190612a8f565b60015b611e68573d808015611e39576040519150601f19603f3d011682016040523d82523d6000602084013e611e3e565b606091505b508051600003611e605760405162461bcd60e51b81526004016105b99061286d565b805181602001fd5b6001600160e01b031916630a85bd0160e11b149050611014565b506001949350505050565b60006001600160e01b03198216635a05180f60e01b14806104ac57506104ac82612071565b611ebd8383836120a6565b61015f5460ff16156106ee5760405162461bcd60e51b815260206004820152602b60248201527f4552433732315061757361626c653a20746f6b656e207472616e73666572207760448201526a1a1a5b19481c185d5cd95960aa1b60648201526084016105b9565b6000818152600183016020526040812054611f6c575081546001818101845560008481526020808220909301849055845484825282860190935260409020919091556104ac565b5060006104ac565b6000818152600183016020526040812054801561205d576000611f986001836127d2565b8554909150600090611fac906001906127d2565b9050818114612011576000866000018281548110611fcc57611fcc612729565b9060005260206000200154905080876000018481548110611fef57611fef612729565b6000918252602080832090910192909255918252600188019052604090208390555b855486908061202257612022612aac565b6001900381819060005260206000200160009055905585600101600086815260200190815260200160002060009055600193505050506104ac565b60009150506104ac565b61085b828261122b565b60006001600160e01b03198216637965db0b60e01b14806104ac57506301ffc9a760e01b6001600160e01b03198316146104ac565b6001600160a01b038316612101576120fc8160fd8054600083815260fe60205260408120829055600182018355919091527f9346ac6dd7de6b96975fec380d4d994c4c12e6a8897544f22915316cc6cca2800155565b612124565b816001600160a01b0316836001600160a01b03161461212457612124838261215e565b6001600160a01b03821661213b576106ee816121fb565b826001600160a01b0316826001600160a01b0316146106ee576106ee82826122aa565b6000600161216b84610b52565b61217591906127d2565b600083815260fc60205260409020549091508082146121c8576001600160a01b038416600090815260fb60209081526040808320858452825280832054848452818420819055835260fc90915290208190555b50600091825260fc602090815260408084208490556001600160a01b03909416835260fb81528383209183525290812055565b60fd5460009061220d906001906127d2565b600083815260fe602052604081205460fd805493945090928490811061223557612235612729565b906000526020600020015490508060fd838154811061225657612256612729565b600091825260208083209091019290925582815260fe909152604080822084905585825281205560fd80548061228e5761228e612aac565b6001900381819060005260206000200160009055905550505050565b60006122b583610b52565b6001600160a01b03909316600090815260fb60209081526040808320868452825280832085905593825260fc9052919091209190915550565b6001600160e01b03198116811461098757600080fd5b60006020828403121561231657600080fd5b8135610c83816122ee565b60005b8381101561233c578181015183820152602001612324565b50506000910152565b6000815180845261235d816020860160208601612321565b601f01601f19169290920160200192915050565b602081526000610c836020830184612345565b60006020828403121561239657600080fd5b5035919050565b80356001600160a01b03811681146123b457600080fd5b919050565b600080604083850312156123cc57600080fd5b6123d58361239d565b946020939093013593505050565b6000806000606084860312156123f857600080fd5b6124018461239d565b925061240f6020850161239d565b9150604084013590509250925092565b6000806040838503121561243257600080fd5b823591506124426020840161239d565b90509250929050565b60006020828403121561245d57600080fd5b610c838261239d565b6000806040838503121561247957600080fd5b50508035926020909101359150565b6000806040838503121561249b57600080fd5b6124a48361239d565b9150602083013580151581146124b957600080fd5b809150509250929050565b634e487b7160e01b600052604160045260246000fd5b600067ffffffffffffffff808411156124f5576124f56124c4565b604051601f8501601f19908116603f0116810190828211818310171561251d5761251d6124c4565b8160405280935085815286868601111561253657600080fd5b858560208301376000602087830101525050509392505050565b600082601f83011261256157600080fd5b610c83838335602085016124da565b60008060006060848603121561258557600080fd5b833567ffffffffffffffff8082111561259d57600080fd5b6125a987838801612550565b945060208601359150808211156125bf57600080fd5b6125cb87838801612550565b935060408601359150808211156125e157600080fd5b506125ee86828701612550565b9150509250925092565b6000806000806080858703121561260e57600080fd5b6126178561239d565b93506126256020860161239d565b925060408501359150606085013567ffffffffffffffff81111561264857600080fd5b8501601f8101871361265957600080fd5b612668878235602084016124da565b91505092959194509250565b6000806040838503121561268757600080fd5b6126908361239d565b91506124426020840161239d565b600181811c908216806126b257607f821691505b6020821081036126d257634e487b7160e01b600052602260045260246000fd5b50919050565b60208082526031908201527f4552433732313a207472616e736665722063616c6c6572206973206e6f74206f6040820152701ddb995c881b9bdc88185c1c1c9bdd9959607a1b606082015260800190565b634e487b7160e01b600052603260045260246000fd5b6020808252602e908201527f496e697469616c697a61626c653a20636f6e747261637420697320616c72656160408201526d191e481a5b9a5d1a585b1a5e995960921b606082015260800190565b6000835161279f818460208801612321565b8351908301906127b3818360208801612321565b01949350505050565b634e487b7160e01b600052601160045260246000fd5b818103818111156104ac576104ac6127bc565b808201808211156104ac576104ac6127bc565b7f416363657373436f6e74726f6c3a206163636f756e7420000000000000000000815260008351612830816017850160208801612321565b7001034b99036b4b9b9b4b733903937b6329607d1b6017918401918201528351612861816028840160208801612321565b01602801949350505050565b60208082526032908201527f4552433732313a207472616e7366657220746f206e6f6e20455243373231526560408201527131b2b4bb32b91034b6b83632b6b2b73a32b960711b606082015260800190565b6000600182016128d1576128d16127bc565b5060010190565b634e487b7160e01b600052601260045260246000fd5b6000826128fd576128fd6128d8565b500490565b600082612911576129116128d8565b500690565b80820281158282048414176104ac576104ac6127bc565b60008161293c5761293c6127bc565b506000190190565b601f8211156106ee57600081815260208120601f850160051c8101602086101561296b5750805b601f850160051c820191505b8181101561298a57828155600101612977565b505050505050565b815167ffffffffffffffff8111156129ac576129ac6124c4565b6129c0816129ba845461269e565b84612944565b602080601f8311600181146129f557600084156129dd5750858301515b600019600386901b1c1916600185901b17855561298a565b600085815260208120601f198616915b82811015612a2457888601518255948401946001909101908401612a05565b5085821015612a425787850151600019600388901b60f8161c191681555b5050505050600190811b01905550565b6001600160a01b0385811682528416602082015260408101839052608060608201819052600090612a8590830184612345565b9695505050505050565b600060208284031215612aa157600080fd5b8151610c83816122ee565b634e487b7160e01b600052603160045260246000fdfe65d7a28e3265b37a6474929f336521b332c1681b933f6cb9f3376673440d862aa26469706673582212206338118fd6b5d688e9eb10ed788462ce8bee874f8439feb25b337b528ae1e12064736f6c63430008110033",
  "linkReferences": {},
  "deployedLinkReferences": {}
}