{
  "_format": "hh-sol-artifact-1",
  "contractName": "DynamicSVG",
  "sourceName": "contracts/manifold/creator-core-extensions/dynamic/DynamicSVG.sol",
  "abi": [
    {
      "inputs": [
        {
          "internalType": "address",
          "name": "creator",
          "type": "address"
        }
      ],
      "stateMutability": "nonpayable",
      "type": "constructor"
    },
    {
      "anonymous": false,
      "inputs": [
        {
          "indexed": true,
          "internalType": "address",
          "name": "previousOwner",
          "type": "address"
        },
        {
          "indexed": true,
          "internalType": "address",
          "name": "newOwner",
          "type": "address"
        }
      ],
      "name": "OwnershipTransferred",
      "type": "event"
    },
    {
      "inputs": [
        {
          "internalType": "address",
          "name": "",
          "type": "address"
        },
        {
          "internalType": "address",
          "name": "",
          "type": "address"
        },
        {
          "internalType": "uint256",
          "name": "",
          "type": "uint256"
        }
      ],
      "name": "approveTransfer",
      "outputs": [
        {
          "internalType": "bool",
          "name": "",
          "type": "bool"
        }
      ],
      "stateMutability": "nonpayable",
      "type": "function"
    },
    {
      "inputs": [],
      "name": "creatorContract",
      "outputs": [
        {
          "internalType": "address",
          "name": "",
          "type": "address"
        }
      ],
      "stateMutability": "view",
      "type": "function"
    },
    {
      "inputs": [
        {
          "internalType": "address",
          "name": "to",
          "type": "address"
        }
      ],
      "name": "mint",
      "outputs": [],
      "stateMutability": "nonpayable",
      "type": "function"
    },
    {
      "inputs": [],
      "name": "owner",
      "outputs": [
        {
          "internalType": "address",
          "name": "",
          "type": "address"
        }
      ],
      "stateMutability": "view",
      "type": "function"
    },
    {
      "inputs": [],
      "name": "renounceOwnership",
      "outputs": [],
      "stateMutability": "nonpayable",
      "type": "function"
    },
    {
      "inputs": [
        {
          "internalType": "address",
          "name": "creator",
          "type": "address"
        },
        {
          "internalType": "bool",
          "name": "enabled",
          "type": "bool"
        }
      ],
      "name": "setApproveTransfer",
      "outputs": [],
      "stateMutability": "nonpayable",
      "type": "function"
    },
    {
      "inputs": [
        {
          "internalType": "bytes4",
          "name": "interfaceId",
          "type": "bytes4"
        }
      ],
      "name": "supportsInterface",
      "outputs": [
        {
          "internalType": "bool",
          "name": "",
          "type": "bool"
        }
      ],
      "stateMutability": "view",
      "type": "function"
    },
    {
      "inputs": [
        {
          "internalType": "address",
          "name": "creator",
          "type": "address"
        },
        {
          "internalType": "uint256",
          "name": "tokenId",
          "type": "uint256"
        }
      ],
      "name": "tokenURI",
      "outputs": [
        {
          "internalType": "string",
          "name": "",
          "type": "string"
        }
      ],
      "stateMutability": "view",
      "type": "function"
    },
    {
      "inputs": [
        {
          "internalType": "address",
          "name": "newOwner",
          "type": "address"
        }
      ],
      "name": "transferOwnership",
      "outputs": [],
      "stateMutability": "nonpayable",
      "type": "function"
    },
    {
      "inputs": [
        {
          "internalType": "string[]",
          "name": "imageParts",
          "type": "string[]"
        }
      ],
      "name": "updateImageParts",
      "outputs": [],
      "stateMutability": "nonpayable",
      "type": "function"
    }
  ],
  "bytecode": "0x60806040523480156200001157600080fd5b506040516200371c3803806200371c8339810160408190526200003491620008b0565b806200005381639088c20760e01b6200075c60201b620007f41760201c565b80620000785750620000788163478c853060e01b6200075c60201b620007f41760201c565b620000f95760405162461bcd60e51b815260206004820152604160248201527f52656465656d3a204d696e74696e672072657761726420636f6e74726163742060448201527f6d75737420696d706c656d656e74204945524337323143726561746f72436f726064820152606560f81b608482015260a40160405180910390fd5b600080546001600160a01b0319166001600160a01b0392909216919091178155620001213390565b600180546001600160a01b0319166001600160a01b038316908117909155604051919250906000907f8be0079c531659141344cd1fd0a4f28419497f9722a3daafe3b4186f6b6457e0908290a3506004805460018101825560009190915260408051808201909152601881527f646174613a696d6167652f7376672b786d6c3b757466382c00000000000000006020820152600080516020620036ad83398151915290910190620001d3908262000987565b506004805460018101825560009182526040805160c081019091526090808252600080516020620036ad83398151915290920192916200352d60208301396200021e91508262000987565b506004805460018101825560009182526040805160a081019091526061808252600080516020620036ad83398151915290920192916200364c60208301396200026991508262000987565b506040805180820190915260068152651e242aa2989f60d11b602082015260048054600181018255600091909152600080516020620036ad8339815191520190620002b5908262000987565b50600480546001818101835560009290925260408051808201909152918252600b60fa1b6020830152600080516020620036ad8339815191520190620002fc908262000987565b5060408051808201909152600d81526c1e29a0aa2aa920aa24a7a7189f60991b602082015260048054600181018255600091909152600080516020620036ad83398151915201906200034f908262000987565b5060048054600181018255600091909152604080518082019091526002815261094b60f21b6020820152600080516020620036ad8339815191529091019062000399908262000987565b5060408051808201909152600c81526b1e2624a3a42a2722a9a9989f60a11b602082015260048054600181018255600091909152600080516020620036ad8339815191520190620003eb908262000987565b5060048054600181018255600091825260408051606081019091526029808252600080516020620036ad83398151915290920192916200350460208301396200043691508262000987565b506040805180820190915260068152651e242aa2991f60d11b602082015260048054600181018255600091909152600080516020620036ad833981519152019062000482908262000987565b50600480546001818101835560009290925260408051808201909152918252600b60fa1b6020830152600080516020620036ad8339815191520190620004c9908262000987565b5060408051808201909152600d81526c1e29a0aa2aa920aa24a7a7191f60991b602082015260048054600181018255600091909152600080516020620036ad83398151915201906200051c908262000987565b5060048054600181018255600091909152604080518082019091526002815261094b60f21b6020820152600080516020620036ad8339815191529091019062000566908262000987565b5060408051808201909152600c81526b1e2624a3a42a2722a9a9991f60a11b602082015260048054600181018255600091909152600080516020620036ad8339815191520190620005b8908262000987565b506004805460018101825560009182526040805160808101909152604f808252600080516020620036ad8339815191529092019291620036cd60208301396200060391508262000987565b5060048054600181018255600091825260408051608081019091526060808252600080516020620036ad8339815191529092019291620034a460208301396200064e91508262000987565b506040805180820190915260088152671e2920a224aaa99f60c11b602082015260048054600181018255600091909152600080516020620036ad83398151915201906200069c908262000987565b506004805460018101825560009182526040805160c08101909152608f808252600080516020620036ad8339815191529092019291620035bd6020830139620006e791508262000987565b50600480546001810182556000919091526040805180820190915260068152651e17b9bb339f60d11b6020820152600080516020620036ad8339815191529091019062000735908262000987565b50600080546001600160a01b0319166001600160a01b039290921691909117905562000aa8565b6000620007698362000786565b80156200077d57506200077d8383620007be565b90505b92915050565b60006200079b826301ffc9a760e01b620007be565b8015620007805750620007b7826001600160e01b0319620007be565b1592915050565b604080516001600160e01b0319831660248083019190915282518083039091018152604490910182526020810180516001600160e01b03166301ffc9a760e01b179052905160009190829081906001600160a01b03871690617530906200082790869062000a53565b6000604051808303818686fa925050503d806000811462000865576040519150601f19603f3d011682016040523d82523d6000602084013e6200086a565b606091505b509150915060208151101562000887576000935050505062000780565b818015620008a6575080806020019051810190620008a6919062000a84565b9695505050505050565b600060208284031215620008c357600080fd5b81516001600160a01b0381168114620008db57600080fd5b9392505050565b634e487b7160e01b600052604160045260246000fd5b600181811c908216806200090d57607f821691505b6020821081036200092e57634e487b7160e01b600052602260045260246000fd5b50919050565b601f8211156200098257600081815260208120601f850160051c810160208610156200095d5750805b601f850160051c820191505b818110156200097e5782815560010162000969565b5050505b505050565b81516001600160401b03811115620009a357620009a3620008e2565b620009bb81620009b48454620008f8565b8462000934565b602080601f831160018114620009f35760008415620009da5750858301515b600019600386901b1c1916600185901b1785556200097e565b600085815260208120601f198616915b8281101562000a245788860151825594840194600190910190840162000a03565b508582101562000a435787850151600019600388901b60f8161c191681555b5050505050600190811b01905550565b6000825160005b8181101562000a76576020818601810151858301520162000a5a565b506000920191825250919050565b60006020828403121562000a9757600080fd5b81518015158114620008db57600080fd5b6129ec8062000ab86000396000f3fe608060405234801561001057600080fd5b506004361061009e5760003560e01c8063825808051161006657806382580805146101205780638da5cb5b14610133578063e34069af14610144578063e9dc637514610157578063f2fde38b1461017757600080fd5b806301ffc9a7146100a35780631b95a227146100cb5780633dae35ce146100e05780636a62784214610105578063715018a614610118575b600080fd5b6100b66100b136600461222f565b61018a565b60405190151581526020015b60405180910390f35b6100de6100d936600461227c565b6101d0565b005b6000546001600160a01b03165b6040516001600160a01b0390911681526020016100c2565b6100de6101133660046122b5565b610262565b6100de610300565b6100b661012e3660046122d2565b610374565b6001546001600160a01b03166100ed565b6100de61015236600461235a565b6103e4565b61016a610165366004612473565b610421565b6040516100c291906124c3565b6100de6101853660046122b5565b610709565b60006001600160e01b0319821663e9dc637560e01b14806101bb57506001600160e01b03198216634ce6d51160e11b145b806101ca57506101ca82610817565b92915050565b6001546001600160a01b031633146102035760405162461bcd60e51b81526004016101fa906124f6565b60405180910390fd5b604051635606467d60e11b815281151560048201526001600160a01b0383169063ac0c8cfa90602401600060405180830381600087803b15801561024657600080fd5b505af115801561025a573d6000803e3d6000fd5b505050505050565b6001546001600160a01b0316331461028c5760405162461bcd60e51b81526004016101fa906124f6565b600054604051630525194b60e31b81526001600160a01b03838116600483015290911690632928ca58906024016020604051808303816000875af11580156102d8573d6000803e3d6000fd5b505050506040513d601f19601f820116820180604052508101906102fc919061252b565b5050565b6001546001600160a01b0316331461032a5760405162461bcd60e51b81526004016101fa906124f6565b6001546040516000916001600160a01b0316907f8be0079c531659141344cd1fd0a4f28419497f9722a3daafe3b4186f6b6457e0908390a3600180546001600160a01b0319169055565b600080546001600160a01b031633146103c35760405162461bcd60e51b815260206004820152601160248201527024b73b30b634b2103932b8bab2b9ba32b960791b60448201526064016101fa565b4260028190556103d7906301e1338061255a565b6003555060019392505050565b6001546001600160a01b0316331461040e5760405162461bcd60e51b81526004016101fa906124f6565b80516102fc90600490602084019061216a565b6000546060906001600160a01b038481169116146104715760405162461bcd60e51b815260206004820152600d60248201526c24b73b30b634b2103a37b5b2b760991b60448201526064016101fa565b60035460019042101561049c576104994260035461048f919061256d565b6301e1338061084c565b90505b60006104dd6104ad60026064610886565b6104d46104bc60306064610886565b6104cb600f87900b60036108de565b600f0b90610b01565b600f0b90610b37565b6104e8906001612580565b9050600061050c6105076104fb85610b6a565b6104cb604b6064610886565b610c45565b9050600061052b61050761051f86610b6a565b6104cb607d6064610886565b905060006105ba61053c60ff6116ff565b6040516331a9108f60e11b8152600481018a90526105b1906001600160a01b038c1690636352211e90602401602060405180830381865afa158015610585573d6000803e3d6000fd5b505050506040513d601f19601f820116820180604052508101906105a991906125ad565b60ff166116ff565b600f0b90610886565b905060006106576105cb60ff6116ff565b6040516331a9108f60e11b8152600481018b90526105b1906008906001600160a01b038e1690636352211e90602401602060405180830381865afa158015610617573d6000803e3d6000fd5b505050506040513d601f19601f8201168201806040525081019061063b91906125ad565b6001600160a01b0316901c60ff166001600160a01b03166116ff565b9050600061066f8361066a6101686116ff565b610b01565b905060006106a5610680605a6116ff565b61069c61068e6101686116ff565b6104d48761066a60b46116ff565b600f0b9061171d565b90506106cb62015180600254426106bc919061256d565b6106c691906125e0565b611750565b6106d9888a89898787611859565b6040516020016106ea9291906125f4565b6040516020818303038152906040529850505050505050505092915050565b6001546001600160a01b031633146107335760405162461bcd60e51b81526004016101fa906124f6565b6001600160a01b0381166107985760405162461bcd60e51b815260206004820152602660248201527f4f776e61626c653a206e6577206f776e657220697320746865207a65726f206160448201526564647265737360d01b60648201526084016101fa565b6001546040516001600160a01b038084169216907f8be0079c531659141344cd1fd0a4f28419497f9722a3daafe3b4186f6b6457e090600090a3600180546001600160a01b0319166001600160a01b0392909216919091179055565b60006107ff83611b53565b801561081057506108108383611b86565b9392505050565b60006001600160e01b03198216637005caad60e01b14806101ca57506301ffc9a760e01b6001600160e01b03198316146101ca565b60008160000361085b57600080fd5b60006108678484611c65565b905060016001607f1b036001600160801b038216111561081057600080fd5b600081600f0b60000361089857600080fd5b600082600f0b604085600f0b901b816108b3576108b36125ca565b05905060016001607f1b031981128015906108d5575060016001607f1b038113155b61081057600080fd5b600080600084600f0b1280156108f75750826001166001145b905060008085600f0b1261090b5784610910565b846000035b6001600160801b03169050600160801b600160401b82116109a557603f82901b91505b841561099d576001851615610948578102607f1c5b908002607f1c90600285161561095e578102607f1c5b908002607f1c906004851615610974578102607f1c5b908002607f1c90600885161561098a578102607f1c5b60049490941c93908002607f1c90610933565b60401c610abb565b603f600160601b8310156109bf5760209290921b91601f19015b600160701b8310156109d75760109290921b91600f19015b600160781b8310156109ef5760089290921b91600719015b6001607c1b831015610a075760049290921b91600319015b6001607e1b831015610a1f5760029290921b91600119015b6001607f1b831015610a375760019290921b91600019015b60005b8615610aa45760408210610a4d57600080fd5b6001871615610a7357918302607f1c918101600160801b831115610a7357600192831c92015b928002607f1c9260019190911b90600160801b8410610a9857600193841c9391909101905b600187901c9650610a3a565b60408110610ab157600080fd5b6040039190911c90505b600083610ac85781610acd565b816000035b905060016001607f1b03198112801590610aee575060016001607f1b038113155b610af757600080fd5b9695505050505050565b6000600f83810b9083900b0260401d60016001607f1b031981128015906108d5575060016001607f1b0381131561081057600080fd5b6000600f83810b9083900b0160016001607f1b031981128015906108d5575060016001607f1b0381131561081057600080fd5b60008082600f0b13610b7b57600080fd5b6000600f83900b600160401b8112610b95576040918201911d5b6401000000008112610ba9576020918201911d5b620100008112610bbb576010918201911d5b6101008112610bcc576008918201911d5b60108112610bdc576004918201911d5b60048112610bec576002918201911d5b60028112610bfb576001820191505b603f19820160401b600f85900b607f8490031b6001603f1b5b6000811315610c3a5790800260ff81901c8281029390930192607f011c9060011d610c14565b509095945050505050565b60006840000000000000000082600f0b12610c5f57600080fd5b683fffffffffffffffff1982600f0b1215610c7c57506000919050565b6001607f1b60006001603f1b8416600f0b1315610caa5770016a09e667f3bcc908b2fb1366ea957d3e0260801c5b60008367400000000000000016600f0b1315610cd7577001306fe0a31b7152de8d5a46305c85edec0260801c5b60008367200000000000000016600f0b1315610d04577001172b83c7d517adcdf7c8c50eb14a791f0260801c5b60008367100000000000000016600f0b1315610d315770010b5586cf9890f6298b92b71842a983630260801c5b60008367080000000000000016600f0b1315610d5e577001059b0d31585743ae7c548eb68ca417fd0260801c5b60008367040000000000000016600f0b1315610d8b57700102c9a3e778060ee6f7caca4f7a29bde80260801c5b60008367020000000000000016600f0b1315610db85770010163da9fb33356d84a66ae336dcdfa3f0260801c5b60008367010000000000000016600f0b1315610de557700100b1afa5abcbed6129ab13ec11dc95430260801c5b600083668000000000000016600f0b1315610e115770010058c86da1c09ea1ff19d294cf2f679b0260801c5b600083664000000000000016600f0b1315610e3d577001002c605e2e8cec506d21bfc89a23a00f0260801c5b600083662000000000000016600f0b1315610e6957700100162f3904051fa128bca9c55c31e5df0260801c5b600083661000000000000016600f0b1315610e95577001000b175effdc76ba38e31671ca9397250260801c5b600083660800000000000016600f0b1315610ec157700100058ba01fb9f96d6cacd4b180917c3d0260801c5b600083660400000000000016600f0b1315610eed5770010002c5cc37da9491d0985c348c68e7b30260801c5b600083660200000000000016600f0b1315610f19577001000162e525ee054754457d59952920260260801c5b600083660100000000000016600f0b1315610f455770010000b17255775c040618bf4a4ade83fc0260801c5b6000836580000000000016600f0b1315610f70577001000058b91b5bc9ae2eed81e9b7d4cfab0260801c5b6000836540000000000016600f0b1315610f9b57700100002c5c89d5ec6ca4d7c8acc017b7c90260801c5b6000836520000000000016600f0b1315610fc65770010000162e43f4f831060e02d839a9d16d0260801c5b6000836510000000000016600f0b1315610ff157700100000b1721bcfc99d9f890ea069117630260801c5b6000836508000000000016600f0b131561101c5770010000058b90cf1e6d97f9ca14dbcc16280260801c5b6000836504000000000016600f0b1315611047577001000002c5c863b73f016468f6bac5ca2b0260801c5b6000836502000000000016600f0b131561107257700100000162e430e5a18f6119e3c02282a50260801c5b6000836501000000000016600f0b131561109d577001000000b1721835514b86e6d96efd1bfe0260801c5b60008364800000000016600f0b13156110c757700100000058b90c0b48c6be5df846c5b2ef0260801c5b60008364400000000016600f0b13156110f15770010000002c5c8601cc6b9e94213c72737a0260801c5b60008364200000000016600f0b131561111b577001000000162e42fff037df38aa2b219f060260801c5b60008364100000000016600f0b13156111455770010000000b17217fba9c739aa5819f44f90260801c5b60008364080000000016600f0b131561116f577001000000058b90bfcdee5acd3c1cedc8230260801c5b60008364040000000016600f0b131561119957700100000002c5c85fe31f35a6a30da1be500260801c5b60008364020000000016600f0b13156111c35770010000000162e42ff0999ce3541b9fffcf0260801c5b60008364010000000016600f0b13156111ed57700100000000b17217f80f4ef5aadda455540260801c5b600083638000000016600f0b13156112165770010000000058b90bfbf8479bd5a81b51ad0260801c5b600083634000000016600f0b131561123f577001000000002c5c85fdf84bd62ae30a74cc0260801c5b600083632000000016600f0b131561126857700100000000162e42fefb2fed257559bdaa0260801c5b600083631000000016600f0b1315611291577001000000000b17217f7d5a7716bba4a9ae0260801c5b600083630800000016600f0b13156112ba57700100000000058b90bfbe9ddbac5e109cce0260801c5b600083630400000016600f0b13156112e35770010000000002c5c85fdf4b15de6f17eb0d0260801c5b600083630200000016600f0b131561130c577001000000000162e42fefa494f1478fde050260801c5b600083630100000016600f0b13156113355770010000000000b17217f7d20cf927c8e94c0260801c5b6000836280000016600f0b131561135d577001000000000058b90bfbe8f71cb4e4b33d0260801c5b6000836240000016600f0b131561138557700100000000002c5c85fdf477b662b269450260801c5b6000836220000016600f0b13156113ad5770010000000000162e42fefa3ae53369388c0260801c5b6000836210000016600f0b13156113d557700100000000000b17217f7d1d351a389d400260801c5b6000836208000016600f0b13156113fd5770010000000000058b90bfbe8e8b2d3d4ede0260801c5b6000836204000016600f0b1315611425577001000000000002c5c85fdf4741bea6e77e0260801c5b6000836202000016600f0b131561144d57700100000000000162e42fefa39fe95583c20260801c5b6000836201000016600f0b1315611475577001000000000000b17217f7d1cfb72b45e10260801c5b60008361800016600f0b131561149c57700100000000000058b90bfbe8e7cc35c3f00260801c5b60008361400016600f0b13156114c35770010000000000002c5c85fdf473e242ea380260801c5b60008361200016600f0b13156114ea577001000000000000162e42fefa39f02b772c0260801c5b60008361100016600f0b13156115115770010000000000000b17217f7d1cf7d83c1a0260801c5b60008361080016600f0b1315611538577001000000000000058b90bfbe8e7bdcbe2e0260801c5b60008361040016600f0b131561155f57700100000000000002c5c85fdf473dea871f0260801c5b60008361020016600f0b13156115865770010000000000000162e42fefa39ef44d910260801c5b60008361010016600f0b13156115ad57700100000000000000b17217f7d1cf79e9490260801c5b600083608016600f0b13156115d35770010000000000000058b90bfbe8e7bce5440260801c5b600083604016600f0b13156115f9577001000000000000002c5c85fdf473de6eca0260801c5b600083602016600f0b131561161f57700100000000000000162e42fefa39ef366f0260801c5b600083601016600f0b1315611645577001000000000000000b17217f7d1cf79afa0260801c5b600083600816600f0b131561166b57700100000000000000058b90bfbe8e7bcd6d0260801c5b600083600416600f0b13156116915770010000000000000002c5c85fdf473de6b20260801c5b600083600216600f0b13156116b7577001000000000000000162e42fefa39ef3580260801c5b600083600116600f0b13156116dd5770010000000000000000b17217f7d1cf79ab0260801c5b600f83810b60401d603f03900b1c60016001607f1b038111156101ca57600080fd5b6000677fffffffffffffff82111561171657600080fd5b5060401b90565b6000600f82810b9084900b0360016001607f1b031981128015906108d5575060016001607f1b0381131561081057600080fd5b6060816000036117775750506040805180820190915260018152600360fc1b602082015290565b8160005b81156117a1578061178b816126ac565b915061179a9050600a836125e0565b915061177b565b60008167ffffffffffffffff8111156117bc576117bc612313565b6040519080825280601f01601f1916602001820160405280156117e6576020820181803683370190505b5090505b8415611851576117fb60018361256d565b9150611808600a866126c5565b61181390603061255a565b60f81b818381518110611828576118286126d9565b60200101906001600160f81b031916908160001a90535061184a600a866125e0565b94506117ea565b949350505050565b60608060005b600454811015611b47576118af6004828154811061187f5761187f6126d9565b90600052602060002001604051806040016040528060088152602001671e2920a224aaa99f60c11b815250611dca565b156118e557816118be8a611e23565b6040516020016118cf9291906126ef565b6040516020818303038152906040529150611b35565b611929600482815481106118fb576118fb6126d9565b90600052602060002001604051806040016040528060068152602001651e242aa2989f60d11b815250611dca565b1561193957816118be8987611e2e565b6119846004828154811061194f5761194f6126d9565b906000526020600020016040518060400160405280600d81526020016c1e29a0aa2aa920aa24a7a7189f60991b815250611dca565b1561199357816118be88611ecb565b6119dd600482815481106119a9576119a96126d9565b906000526020600020016040518060400160405280600c81526020016b1e2624a3a42a2722a9a9989f60a11b815250611dca565b156119ec57816118be88611eed565b611a3060048281548110611a0257611a026126d9565b90600052602060002001604051806040016040528060068152602001651e242aa2991f60d11b815250611dca565b15611a4157816118be898787611f1e565b611a8c60048281548110611a5757611a576126d9565b906000526020600020016040518060400160405280600d81526020016c1e29a0aa2aa920aa24a7a7191f60991b815250611dca565b15611a9b57816118be87611fb2565b611ae560048281548110611ab157611ab16126d9565b906000526020600020016040518060400160405280600c81526020016b1e2624a3a42a2722a9a9991f60a11b815250611dca565b15611af457816118be87611fc4565b8160048281548110611b0857611b086126d9565b90600052602060002001604051602001611b239291906127cb565b60405160208183030381529060405291505b80611b3f816126ac565b91505061185f565b50979650505050505050565b6000611b66826301ffc9a760e01b611b86565b80156101ca5750611b7f826001600160e01b0319611b86565b1592915050565b604080516001600160e01b0319831660248083019190915282518083039091018152604490910182526020810180516001600160e01b03166301ffc9a760e01b179052905160009190829081906001600160a01b0387169061753090611bed9086906127f2565b6000604051808303818686fa925050503d8060008114611c29576040519150601f19603f3d011682016040523d82523d6000602084013e611c2e565b606091505b5091509150602081511015611c4957600093505050506101ca565b818015610af7575080806020019051810190610af7919061280e565b600081600003611c7457600080fd5b60006001600160c01b038411611c9f5782604085901b81611c9757611c976125ca565b049050611db6565b60c084811c6401000000008110611cb8576020918201911c5b620100008110611cca576010918201911c5b6101008110611cdb576008918201911c5b60108110611ceb576004918201911c5b60048110611cfb576002918201911c5b60028110611d0a576001820191505b60bf820360018603901c6001018260ff0387901b81611d2b57611d2b6125ca565b0492506001600160801b03831115611d4257600080fd5b608085901c83026001600160801b038616840260c088901c604089901b82811015611d6e576001820391505b608084901b92900382811015611d85576001820391505b829003608084901c8214611d9b57611d9b61282b565b888181611daa57611daa6125ca565b04870196505050505050505b6001600160801b0381111561081057600080fd5b600081604051602001611ddd91906127f2565b6040516020818303038152906040528051906020012083604051602001611e049190612841565b6040516020818303038152906040528051906020012014905092915050565b60606101ca82611fe0565b60606000611e58611e4d611e42603c6116ff565b600f87900b90610b01565b600f85900b90610b37565b90506000611e7567ffffffffffffffff8316600f0b612710612043565b9050611e98610168600f84900b60401d5b611e90919061284d565b60070b6120ae565b611ea1826120bc565b604051602001611eb292919061286f565b6040516020818303038152906040529250505092915050565b60606101ca611ee8611edd60646116ff565b600f85900b90610b01565b611fe0565b60606101ca611efc600f6116ff565b611f14611f0960466116ff565b600f86900b90610b01565b611ee89190612580565b60606000611f4c611f41846104d4611f36603c6116ff565b600f8a900b90610b01565b600f86900b90610b37565b90506000611f6967ffffffffffffffff8316600f0b612710612043565b9050611f7e610168600f84900b60401d611e86565b611f87826120bc565b604051602001611f9892919061286f565b604051602081830303815290604052925050509392505050565b60606101ca611ee8611edd60326116ff565b60606101ca611fd3600f6116ff565b611f14611f0960236116ff565b60606000611ffd67ffffffffffffffff8416600f0b612710612043565b9050612012600f84900b60401d60070b611750565b61201b826120bc565b60405160200161202c92919061286f565b604051602081830303815290604052915050919050565b600081600003612055575060006101ca565b600083600f0b121561206657600080fd5b600f83900b6001600160801b038316810260401c90608084901c026001600160c01b0381111561209557600080fd5b60401b81198111156120a657600080fd5b019392505050565b60606101ca82600f0b611750565b6040805160048082528183019092526060916000919060208201818036833701905050905060005b6004811015612158576120f8600a856126c5565b61210390603061255a565b60f81b8261211283600361256d565b81518110612122576121226126d9565b60200101906001600160f81b031916908160001a905350612144600a856125e0565b935080612150816126ac565b9150506120e4565b508060405160200161202c91906127f2565b8280548282559060005260206000209081019282156121b0579160200282015b828111156121b057825182906121a090826128f6565b509160200191906001019061218a565b506121bc9291506121c0565b5090565b808211156121bc5760006121d482826121dd565b506001016121c0565b5080546121e99061271e565b6000825580601f106121f9575050565b601f016020900490600052602060002090810190612217919061221a565b50565b5b808211156121bc576000815560010161221b565b60006020828403121561224157600080fd5b81356001600160e01b03198116811461081057600080fd5b6001600160a01b038116811461221757600080fd5b801515811461221757600080fd5b6000806040838503121561228f57600080fd5b823561229a81612259565b915060208301356122aa8161226e565b809150509250929050565b6000602082840312156122c757600080fd5b813561081081612259565b6000806000606084860312156122e757600080fd5b83356122f281612259565b9250602084013561230281612259565b929592945050506040919091013590565b634e487b7160e01b600052604160045260246000fd5b604051601f8201601f1916810167ffffffffffffffff8111828210171561235257612352612313565b604052919050565b6000602080838503121561236d57600080fd5b823567ffffffffffffffff8082111561238557600080fd5b8185019150601f868184011261239a57600080fd5b8235828111156123ac576123ac612313565b8060051b6123bb868201612329565b918252848101860191868101908a8411156123d557600080fd5b87870192505b83831015612465578235868111156123f35760008081fd5b8701603f81018c136124055760008081fd5b8881013560408882111561241b5761241b612313565b61242c828901601f19168c01612329565b8281528e828486010111156124415760008081fd5b828285018d83013760009281018c01929092525083525091870191908701906123db565b9a9950505050505050505050565b6000806040838503121561248657600080fd5b823561249181612259565b946020939093013593505050565b60005b838110156124ba5781810151838201526020016124a2565b50506000910152565b60208152600082518060208401526124e281604085016020870161249f565b601f01601f19169190910160400192915050565b6020808252818101527f4f776e61626c653a2063616c6c6572206973206e6f7420746865206f776e6572604082015260600190565b60006020828403121561253d57600080fd5b5051919050565b634e487b7160e01b600052601160045260246000fd5b808201808211156101ca576101ca612544565b818103818111156101ca576101ca612544565b600f81810b9083900b0160016001607f1b03811360016001607f1b0319821217156101ca576101ca612544565b6000602082840312156125bf57600080fd5b815161081081612259565b634e487b7160e01b600052601260045260246000fd5b6000826125ef576125ef6125ca565b500490565b7f646174613a6170706c69636174696f6e2f6a736f6e3b757466382c7b226e616d81527f65223a2244796e616d6963222c20226465736372697074696f6e223a22446179602082015269039903830b9b9b2b21d160b51b60408201526000835161266581604a85016020880161249f565b6b1116101134b6b0b3b2911d1160a11b604a91840191820152835161269181605684016020880161249f565b61227d60f01b60569290910191820152605801949350505050565b6000600182016126be576126be612544565b5060010190565b6000826126d4576126d46125ca565b500690565b634e487b7160e01b600052603260045260246000fd5b6000835161270181846020880161249f565b83519083019061271581836020880161249f565b01949350505050565b600181811c9082168061273257607f821691505b60208210810361275257634e487b7160e01b600052602260045260246000fd5b50919050565b600081546127658161271e565b6001828116801561277d5760018114612792576127c1565b60ff19841687528215158302870194506127c1565b8560005260208060002060005b858110156127b85781548a82015290840190820161279f565b50505082870194505b5050505092915050565b600083516127dd81846020880161249f565b6127e981840185612758565b95945050505050565b6000825161280481846020870161249f565b9190910192915050565b60006020828403121561282057600080fd5b81516108108161226e565b634e487b7160e01b600052600160045260246000fd5b60006108108284612758565b60008260070b80612860576128606125ca565b808360070b0791505092915050565b6000835161288181846020880161249f565b601760f91b908301908152835161289f81600184016020880161249f565b01600101949350505050565b601f8211156128f157600081815260208120601f850160051c810160208610156128d25750805b601f850160051c820191505b8181101561025a578281556001016128de565b505050565b815167ffffffffffffffff81111561291057612910612313565b6129248161291e845461271e565b846128ab565b602080601f83116001811461295957600084156129415750858301515b600019600386901b1c1916600185901b17855561025a565b600085815260208120601f198616915b8281101561298857888601518255948401946001909101908401612969565b50858210156129a65787850151600019600388901b60f8161c191681555b5050505050600190811b0190555056fea2646970667358221220265e6da41a7342d1f4a8b8a6534dcec4f638fa1458ad24e15d59c3f0c7f14afd64736f6c634300081100333c673e3c7265637420783d272d302e352720793d272d302e35272077696474683d273127206865696768743d2731272066696c6c3d2768736c28302c30252c3135252927202f3e3c636972636c652063783d2730272063793d27302720723d27252927202f3e3c73746f70206f66667365743d27353025272073746f702d636f6c6f723d2768736c283c73766720786d6c6e733d27687474703a2f2f7777772e77332e6f72672f323030302f7376672720786d6c6e733a786c696e6b3d27687474703a2f2f7777772e77332e6f72672f313939392f786c696e6b272069643d2766616465272077696474683d273130303027206865696768743d2731303030272076696577426f783d272d302e35202d302e3520312031273e272066696c6c3d2775726c28236729273e3c616e696d6174655472616e73666f726d206174747269627574654e616d653d277472616e73666f726d2720747970653d27726f74617465272066726f6d3d27302720746f3d2733363027206475723d273630732720726570656174436f756e743d27696e646566696e69746527202f3e3c2f636972636c653e3c2f673e3c646566733e3c6c696e6561724772616469656e742069643d2767272078313d273025272078323d273025272079313d273125272079323d2731303025273e3c73746f70206f66667365743d273025272073746f702d636f6c6f723d2768736c288a35acfbc15ff81a39ae7d344fd709f28e8600b4aa8c65c6b64bfe7fe36bd19b252927202f3e3c73746f70206f66667365743d2731303025272073746f702d636f6c6f723d2768736c28302c30252c3135252927202f3e3c2f6c696e6561724772616469656e743e3c2f646566733e",
  "linkReferences": {},
  "deployedLinkReferences": {}
}