{
  "_format": "hh-sol-artifact-1",
  "contractName": "MockPriceAggregator",
  "sourceName": "contracts/mojito/MockPriceAggregator.sol",
  "abi": [
    {
      "inputs": [
        {
          "internalType": "address[]",
          "name": "priceFeedAddress",
          "type": "address[]"
        },
        {
          "internalType": "address[]",
          "name": "currencyAddress",
          "type": "address[]"
        }
      ],
      "stateMutability": "nonpayable",
      "type": "constructor"
    },
    {
      "inputs": [
        {
          "internalType": "address",
          "name": "currencyAddress",
          "type": "address"
        }
      ],
      "name": "getLatestPrice",
      "outputs": [
        {
          "internalType": "int256",
          "name": "",
          "type": "int256"
        },
        {
          "internalType": "uint8",
          "name": "",
          "type": "uint8"
        }
      ],
      "stateMutability": "view",
      "type": "function"
    },
    {
      "inputs": [
        {
          "internalType": "address[]",
          "name": "priceFeedAddress",
          "type": "address[]"
        },
        {
          "internalType": "address[]",
          "name": "currencyAddress",
          "type": "address[]"
        }
      ],
      "name": "updatePriceFeedAddress",
      "outputs": [],
      "stateMutability": "nonpayable",
      "type": "function"
    }
  ],
  "bytecode": "0x608060405234801561001057600080fd5b506040516105ef3803806105ef83398101604081905261002f916101f9565b80518251146100845760405162461bcd60e51b815260206004820181905260248201527f417272617973206d7573742068617665207468652073616d65206c656e677468604482015260640160405180910390fd5b60005b825181101561011e578281815181106100a2576100a261025c565b60200260200101516000808484815181106100bf576100bf61025c565b60200260200101516001600160a01b03166001600160a01b0316815260200190815260200160002060006101000a8154816001600160a01b0302191690836001600160a01b03160217905550808061011690610272565b915050610087565b505050610299565b634e487b7160e01b600052604160045260246000fd5b80516001600160a01b038116811461015357600080fd5b919050565b600082601f83011261016957600080fd5b815160206001600160401b038083111561018557610185610126565b8260051b604051601f19603f830116810181811084821117156101aa576101aa610126565b6040529384528581018301938381019250878511156101c857600080fd5b83870191505b848210156101ee576101df8261013c565b835291830191908301906101ce565b979650505050505050565b6000806040838503121561020c57600080fd5b82516001600160401b038082111561022357600080fd5b61022f86838701610158565b9350602085015191508082111561024557600080fd5b5061025285828601610158565b9150509250929050565b634e487b7160e01b600052603260045260246000fd5b60006001820161029257634e487b7160e01b600052601160045260246000fd5b5060010190565b610347806102a86000396000f3fe608060405234801561001057600080fd5b50600436106100365760003560e01c806316345f181461003b578063fe8c153914610071575b600080fd5b610056610049366004610196565b50641b3d16794090600890565b6040805192835260ff90911660208301520160405180910390f35b61008461007f366004610270565b610086565b005b80518251146100db5760405162461bcd60e51b815260206004820181905260248201527f417272617973206d7573742068617665207468652073616d65206c656e677468604482015260640160405180910390fd5b60005b8251811015610175578281815181106100f9576100f96102d4565b6020026020010151600080848481518110610116576101166102d4565b60200260200101516001600160a01b03166001600160a01b0316815260200190815260200160002060006101000a8154816001600160a01b0302191690836001600160a01b03160217905550808061016d906102ea565b9150506100de565b505050565b80356001600160a01b038116811461019157600080fd5b919050565b6000602082840312156101a857600080fd5b6101b18261017a565b9392505050565b634e487b7160e01b600052604160045260246000fd5b600082601f8301126101df57600080fd5b8135602067ffffffffffffffff808311156101fc576101fc6101b8565b8260051b604051601f19603f83011681018181108482111715610221576102216101b8565b60405293845285810183019383810192508785111561023f57600080fd5b83870191505b84821015610265576102568261017a565b83529183019190830190610245565b979650505050505050565b6000806040838503121561028357600080fd5b823567ffffffffffffffff8082111561029b57600080fd5b6102a7868387016101ce565b935060208501359150808211156102bd57600080fd5b506102ca858286016101ce565b9150509250929050565b634e487b7160e01b600052603260045260246000fd5b60006001820161030a57634e487b7160e01b600052601160045260246000fd5b506001019056fea264697066735822122002406ea7d8095bdd6657e12a55cc7c561118d40addaae86d5c107fe2770f59d664736f6c63430008110033",
  "linkReferences": {},
  "deployedLinkReferences": {}
}